{
	"crowdsale/distribution/finalizableCrowdsale.sol": {
		"FinalizableCrowdsale": {
			"abi": [
				{
					"inputs": [
						{
							"internalType": "uint256",
							"name": "inOpeningTime",
							"type": "uint256"
						},
						{
							"internalType": "uint256",
							"name": "inClosingTime",
							"type": "uint256"
						},
						{
							"internalType": "uint256",
							"name": "inRate",
							"type": "uint256"
						},
						{
							"internalType": "address payable",
							"name": "inWallet",
							"type": "address"
						},
						{
							"internalType": "contract IERC20",
							"name": "inToken",
							"type": "address"
						}
					],
					"stateMutability": "nonpayable",
					"type": "constructor"
				},
				{
					"anonymous": false,
					"inputs": [],
					"name": "ContractFinalized",
					"type": "event"
				},
				{
					"anonymous": false,
					"inputs": [
						{
							"indexed": false,
							"internalType": "uint256",
							"name": "prevClosingTime",
							"type": "uint256"
						},
						{
							"indexed": false,
							"internalType": "uint256",
							"name": "newClosingTime",
							"type": "uint256"
						}
					],
					"name": "TimedCrowdsaleExtended",
					"type": "event"
				},
				{
					"anonymous": false,
					"inputs": [
						{
							"indexed": true,
							"internalType": "address",
							"name": "purchaser",
							"type": "address"
						},
						{
							"indexed": true,
							"internalType": "address",
							"name": "beneficiary",
							"type": "address"
						},
						{
							"indexed": false,
							"internalType": "uint256",
							"name": "value",
							"type": "uint256"
						},
						{
							"indexed": false,
							"internalType": "uint256",
							"name": "amount",
							"type": "uint256"
						}
					],
					"name": "TokensPurchased",
					"type": "event"
				},
				{
					"stateMutability": "payable",
					"type": "fallback"
				},
				{
					"inputs": [
						{
							"internalType": "address",
							"name": "beneficiary",
							"type": "address"
						}
					],
					"name": "buyTokens",
					"outputs": [],
					"stateMutability": "payable",
					"type": "function"
				},
				{
					"inputs": [],
					"name": "closingTime",
					"outputs": [
						{
							"internalType": "uint256",
							"name": "",
							"type": "uint256"
						}
					],
					"stateMutability": "view",
					"type": "function"
				},
				{
					"inputs": [],
					"name": "finalize",
					"outputs": [],
					"stateMutability": "nonpayable",
					"type": "function"
				},
				{
					"inputs": [],
					"name": "finalized",
					"outputs": [
						{
							"internalType": "bool",
							"name": "",
							"type": "bool"
						}
					],
					"stateMutability": "view",
					"type": "function"
				},
				{
					"inputs": [],
					"name": "hasClosed",
					"outputs": [
						{
							"internalType": "bool",
							"name": "",
							"type": "bool"
						}
					],
					"stateMutability": "view",
					"type": "function"
				},
				{
					"inputs": [],
					"name": "isOpen",
					"outputs": [
						{
							"internalType": "bool",
							"name": "",
							"type": "bool"
						}
					],
					"stateMutability": "view",
					"type": "function"
				},
				{
					"inputs": [],
					"name": "openingTime",
					"outputs": [
						{
							"internalType": "uint256",
							"name": "",
							"type": "uint256"
						}
					],
					"stateMutability": "view",
					"type": "function"
				},
				{
					"inputs": [],
					"name": "rate",
					"outputs": [
						{
							"internalType": "uint256",
							"name": "",
							"type": "uint256"
						}
					],
					"stateMutability": "view",
					"type": "function"
				},
				{
					"inputs": [],
					"name": "token",
					"outputs": [
						{
							"internalType": "contract IERC20",
							"name": "",
							"type": "address"
						}
					],
					"stateMutability": "view",
					"type": "function"
				},
				{
					"inputs": [],
					"name": "wallet",
					"outputs": [
						{
							"internalType": "address payable",
							"name": "",
							"type": "address"
						}
					],
					"stateMutability": "view",
					"type": "function"
				},
				{
					"inputs": [],
					"name": "weiRaised",
					"outputs": [
						{
							"internalType": "uint256",
							"name": "",
							"type": "uint256"
						}
					],
					"stateMutability": "view",
					"type": "function"
				},
				{
					"stateMutability": "payable",
					"type": "receive"
				}
			],
			"devdoc": {
				"details": "Extension of TimedCrowdsale with a one-off finalization action, where one can do extra work after finishing.",
				"events": {
					"TimedCrowdsaleExtended(uint256,uint256)": {
						"params": {
							"newClosingTime": "new closing time",
							"prevClosingTime": "old closing time"
						}
					},
					"TokensPurchased(address,address,uint256,uint256)": {
						"params": {
							"amount": "amount of tokens purchased",
							"beneficiary": "who got the tokens",
							"purchaser": "who paid for the tokens",
							"value": "weis paid for purchase"
						}
					}
				},
				"kind": "dev",
				"methods": {
					"buyTokens(address)": {
						"details": "low level token purchase ***DO NOT OVERRIDE*** This function has a non-reentrancy guard, so it shouldn't be called by another `nonReentrant` function.",
						"params": {
							"beneficiary": "Recipient of the token purchase"
						}
					},
					"closingTime()": {
						"returns": {
							"_0": "the crowdsale closing time."
						}
					},
					"constructor": {
						"details": "Constructor, takes crowdsale opening and closing times.",
						"params": {
							"inClosingTime": "Crowdsale closing time",
							"inOpeningTime": "Crowdsale opening time",
							"inRate": "Crowdsale rate",
							"inToken": "Crowdsale token",
							"inWallet": "Crowdsale wallet"
						}
					},
					"finalize()": {
						"details": "Must be called after crowdsale ends, to do some extra finalization work. Calls the contract's finalization function."
					},
					"finalized()": {
						"returns": {
							"_0": "true if the crowdsale is finalized, false otherwise."
						}
					},
					"hasClosed()": {
						"details": "Checks whether the period in which the crowdsale is open has already elapsed.",
						"returns": {
							"_0": "Whether crowdsale period has elapsed"
						}
					},
					"isOpen()": {
						"returns": {
							"_0": "true if the crowdsale is open, false otherwise."
						}
					},
					"openingTime()": {
						"returns": {
							"_0": "the crowdsale opening time."
						}
					},
					"rate()": {
						"returns": {
							"_0": "the number of token units a buyer gets per wei."
						}
					},
					"token()": {
						"returns": {
							"_0": "the token being sold."
						}
					},
					"wallet()": {
						"returns": {
							"_0": "the address where funds are collected."
						}
					},
					"weiRaised()": {
						"returns": {
							"_0": "the amount of wei raised."
						}
					}
				},
				"title": "FinalizableCrowdsale",
				"version": 1
			},
			"evm": {
				"assembly": "    /* \"crowdsale/distribution/finalizableCrowdsale.sol\":388:1342  contract FinalizableCrowdsale is TimedCrowdsale, FinalizableContract {... */\n  mstore(0x40, 0x80)\n    /* \"crowdsale/distribution/finalizableCrowdsale.sol\":807:1037  constructor (uint256 inOpeningTime, uint256 inClosingTime, uint256 inRate, address payable inWallet, IERC20 inToken) ... */\n  callvalue\n  dup1\n  iszero\n  tag_1\n  jumpi\n  0x00\n  dup1\n  revert\ntag_1:\n  pop\n  mload(0x40)\n  sub(codesize, bytecodeSize)\n  dup1\n  bytecodeSize\n  dup4\n  codecopy\n  dup2\n  dup2\n  add\n  0x40\n  mstore\n  dup2\n  add\n  swap1\n  tag_2\n  swap2\n  swap1\n  tag_3\n  jump\t// in\ntag_2:\n    /* \"crowdsale/distribution/finalizableCrowdsale.sol\":945:958  inOpeningTime */\n  dup5\n    /* \"crowdsale/distribution/finalizableCrowdsale.sol\":960:973  inClosingTime */\n  dup5\n    /* \"crowdsale/distribution/finalizableCrowdsale.sol\":975:981  inRate */\n  dup5\n    /* \"crowdsale/distribution/finalizableCrowdsale.sol\":983:991  inWallet */\n  dup5\n    /* \"crowdsale/distribution/finalizableCrowdsale.sol\":993:1000  inToken */\n  dup5\n    /* \"crowdsale/validation/timedCrowdsale.sol\":1204:1210  inRate */\n  dup3\n    /* \"crowdsale/validation/timedCrowdsale.sol\":1212:1220  inWallet */\n  dup3\n    /* \"crowdsale/validation/timedCrowdsale.sol\":1222:1229  inToken */\n  dup3\n    /* \"@openzeppelin/contracts/security/ReentrancyGuard.sol\":1716:1717  1 */\n  0x01\n    /* \"@openzeppelin/contracts/security/ReentrancyGuard.sol\":1821:1828  _status */\n  0x00\n    /* \"@openzeppelin/contracts/security/ReentrancyGuard.sol\":1821:1843  _status = _NOT_ENTERED */\n  dup2\n  swap1\n  sstore\n  pop\n    /* \"crowdsale/crowdsale.sol\":2644:2645  0 */\n  0x00\n    /* \"crowdsale/crowdsale.sol\":2635:2641  inRate */\n  dup4\n    /* \"crowdsale/crowdsale.sol\":2635:2645  inRate > 0 */\n  gt\n    /* \"crowdsale/crowdsale.sol\":2627:2670  require(inRate > 0, \"Crowdsale: rate is 0\") */\n  tag_11\n  jumpi\n  mload(0x40)\n  0x08c379a000000000000000000000000000000000000000000000000000000000\n  dup2\n  mstore\n  0x04\n  add\n  tag_12\n  swap1\n  tag_13\n  jump\t// in\ntag_12:\n  mload(0x40)\n  dup1\n  swap2\n  sub\n  swap1\n  revert\ntag_11:\n    /* \"crowdsale/crowdsale.sol\":2709:2710  0 */\n  0x00\n    /* \"crowdsale/crowdsale.sol\":2689:2711  inWallet != address(0) */\n  0xffffffffffffffffffffffffffffffffffffffff\n  and\n    /* \"crowdsale/crowdsale.sol\":2689:2697  inWallet */\n  dup3\n    /* \"crowdsale/crowdsale.sol\":2689:2711  inWallet != address(0) */\n  0xffffffffffffffffffffffffffffffffffffffff\n  and\n  sub\n    /* \"crowdsale/crowdsale.sol\":2681:2753  require(inWallet != address(0), \"Crowdsale: wallet is the zero address\") */\n  tag_14\n  jumpi\n  mload(0x40)\n  0x08c379a000000000000000000000000000000000000000000000000000000000\n  dup2\n  mstore\n  0x04\n  add\n  tag_15\n  swap1\n  tag_16\n  jump\t// in\ntag_15:\n  mload(0x40)\n  dup1\n  swap2\n  sub\n  swap1\n  revert\ntag_14:\n    /* \"crowdsale/crowdsale.sol\":2800:2801  0 */\n  0x00\n    /* \"crowdsale/crowdsale.sol\":2772:2802  address(inToken) != address(0) */\n  0xffffffffffffffffffffffffffffffffffffffff\n  and\n    /* \"crowdsale/crowdsale.sol\":2780:2787  inToken */\n  dup2\n    /* \"crowdsale/crowdsale.sol\":2772:2802  address(inToken) != address(0) */\n  0xffffffffffffffffffffffffffffffffffffffff\n  and\n  sub\n    /* \"crowdsale/crowdsale.sol\":2764:2843  require(address(inToken) != address(0), \"Crowdsale: token is the zero address\") */\n  tag_17\n  jumpi\n  mload(0x40)\n  0x08c379a000000000000000000000000000000000000000000000000000000000\n  dup2\n  mstore\n  0x04\n  add\n  tag_18\n  swap1\n  tag_19\n  jump\t// in\ntag_18:\n  mload(0x40)\n  dup1\n  swap2\n  sub\n  swap1\n  revert\ntag_17:\n    /* \"crowdsale/crowdsale.sol\":2864:2870  inRate */\n  dup3\n    /* \"crowdsale/crowdsale.sol\":2856:2861  _rate */\n  0x03\n    /* \"crowdsale/crowdsale.sol\":2856:2870  _rate = inRate */\n  dup2\n  swap1\n  sstore\n  pop\n    /* \"crowdsale/crowdsale.sol\":2891:2899  inWallet */\n  dup2\n    /* \"crowdsale/crowdsale.sol\":2881:2888  _wallet */\n  0x02\n  0x00\n    /* \"crowdsale/crowdsale.sol\":2881:2899  _wallet = inWallet */\n  0x0100\n  exp\n  dup2\n  sload\n  dup2\n  0xffffffffffffffffffffffffffffffffffffffff\n  mul\n  not\n  and\n  swap1\n  dup4\n  0xffffffffffffffffffffffffffffffffffffffff\n  and\n  mul\n  or\n  swap1\n  sstore\n  pop\n    /* \"crowdsale/crowdsale.sol\":2919:2926  inToken */\n  dup1\n    /* \"crowdsale/crowdsale.sol\":2910:2916  _token */\n  0x01\n  0x00\n    /* \"crowdsale/crowdsale.sol\":2910:2926  _token = inToken */\n  0x0100\n  exp\n  dup2\n  sload\n  dup2\n  0xffffffffffffffffffffffffffffffffffffffff\n  mul\n  not\n  and\n  swap1\n  dup4\n  0xffffffffffffffffffffffffffffffffffffffff\n  and\n  mul\n  or\n  swap1\n  sstore\n  pop\n    /* \"crowdsale/crowdsale.sol\":2545:2934  constructor (uint256 inRate, address payable inWallet, IERC20 inToken) {... */\n  pop\n  pop\n  pop\n    /* \"crowdsale/validation/timedCrowdsale.sol\":1322:1337  block.timestamp */\n  timestamp\n    /* \"crowdsale/validation/timedCrowdsale.sol\":1305:1318  inOpeningTime */\n  dup6\n    /* \"crowdsale/validation/timedCrowdsale.sol\":1305:1337  inOpeningTime >= block.timestamp */\n  lt\n  iszero\n    /* \"crowdsale/validation/timedCrowdsale.sol\":1297:1393  require(inOpeningTime >= block.timestamp, \"TimedCrowdsale: opening time is before current time\") */\n  tag_21\n  jumpi\n  mload(0x40)\n  0x08c379a000000000000000000000000000000000000000000000000000000000\n  dup2\n  mstore\n  0x04\n  add\n  tag_22\n  swap1\n  tag_23\n  jump\t// in\ntag_22:\n  mload(0x40)\n  dup1\n  swap2\n  sub\n  swap1\n  revert\ntag_21:\n    /* \"crowdsale/validation/timedCrowdsale.sol\":1482:1495  inOpeningTime */\n  dup5\n    /* \"crowdsale/validation/timedCrowdsale.sol\":1466:1479  inClosingTime */\n  dup5\n    /* \"crowdsale/validation/timedCrowdsale.sol\":1466:1495  inClosingTime > inOpeningTime */\n  gt\n    /* \"crowdsale/validation/timedCrowdsale.sol\":1458:1555  require(inClosingTime > inOpeningTime, \"TimedCrowdsale: opening time is not before closing time\") */\n  tag_24\n  jumpi\n  mload(0x40)\n  0x08c379a000000000000000000000000000000000000000000000000000000000\n  dup2\n  mstore\n  0x04\n  add\n  tag_25\n  swap1\n  tag_26\n  jump\t// in\ntag_25:\n  mload(0x40)\n  dup1\n  swap2\n  sub\n  swap1\n  revert\ntag_24:\n    /* \"crowdsale/validation/timedCrowdsale.sol\":1583:1596  inOpeningTime */\n  dup5\n    /* \"crowdsale/validation/timedCrowdsale.sol\":1568:1580  _openingTime */\n  0x05\n    /* \"crowdsale/validation/timedCrowdsale.sol\":1568:1596  _openingTime = inOpeningTime */\n  dup2\n  swap1\n  sstore\n  pop\n    /* \"crowdsale/validation/timedCrowdsale.sol\":1622:1635  inClosingTime */\n  dup4\n    /* \"crowdsale/validation/timedCrowdsale.sol\":1607:1619  _closingTime */\n  0x06\n    /* \"crowdsale/validation/timedCrowdsale.sol\":1607:1635  _closingTime = inClosingTime */\n  dup2\n  swap1\n  sstore\n  pop\n    /* \"crowdsale/validation/timedCrowdsale.sol\":1077:1643  constructor (uint256 inOpeningTime, uint256 inClosingTime, uint256 inRate, address payable inWallet, IERC20 inToken) Crowdsale(inRate, inWallet, inToken) {... */\n  pop\n  pop\n  pop\n  pop\n  pop\n    /* \"crowdsale/abstractions/finalizable.sol\":612:617  false */\n  0x00\n    /* \"crowdsale/abstractions/finalizable.sol\":599:609  _finalized */\n  0x07\n  0x00\n    /* \"crowdsale/abstractions/finalizable.sol\":599:617  _finalized = false */\n  0x0100\n  exp\n  dup2\n  sload\n  dup2\n  0xff\n  mul\n  not\n  and\n  swap1\n  dup4\n  iszero\n  iszero\n  mul\n  or\n  swap1\n  sstore\n  pop\n    /* \"crowdsale/distribution/finalizableCrowdsale.sol\":807:1037  constructor (uint256 inOpeningTime, uint256 inClosingTime, uint256 inRate, address payable inWallet, IERC20 inToken) ... */\n  pop\n  pop\n  pop\n  pop\n  pop\n    /* \"crowdsale/distribution/finalizableCrowdsale.sol\":388:1342  contract FinalizableCrowdsale is TimedCrowdsale, FinalizableContract {... */\n  jump(tag_29)\n    /* \"#utility.yul\":88:205   */\ntag_31:\n    /* \"#utility.yul\":197:198   */\n  0x00\n    /* \"#utility.yul\":194:195   */\n  dup1\n    /* \"#utility.yul\":187:199   */\n  revert\n    /* \"#utility.yul\":334:411   */\ntag_33:\n    /* \"#utility.yul\":371:378   */\n  0x00\n    /* \"#utility.yul\":400:405   */\n  dup2\n    /* \"#utility.yul\":389:405   */\n  swap1\n  pop\n    /* \"#utility.yul\":334:411   */\n  swap2\n  swap1\n  pop\n  jump\t// out\n    /* \"#utility.yul\":417:539   */\ntag_34:\n    /* \"#utility.yul\":490:514   */\n  tag_61\n    /* \"#utility.yul\":508:513   */\n  dup2\n    /* \"#utility.yul\":490:514   */\n  tag_33\n  jump\t// in\ntag_61:\n    /* \"#utility.yul\":483:488   */\n  dup2\n    /* \"#utility.yul\":480:515   */\n  eq\n    /* \"#utility.yul\":470:533   */\n  tag_62\n  jumpi\n    /* \"#utility.yul\":529:530   */\n  0x00\n    /* \"#utility.yul\":526:527   */\n  dup1\n    /* \"#utility.yul\":519:531   */\n  revert\n    /* \"#utility.yul\":470:533   */\ntag_62:\n    /* \"#utility.yul\":417:539   */\n  pop\n  jump\t// out\n    /* \"#utility.yul\":545:688   */\ntag_35:\n    /* \"#utility.yul\":602:607   */\n  0x00\n    /* \"#utility.yul\":633:639   */\n  dup2\n    /* \"#utility.yul\":627:640   */\n  mload\n    /* \"#utility.yul\":618:640   */\n  swap1\n  pop\n    /* \"#utility.yul\":649:682   */\n  tag_64\n    /* \"#utility.yul\":676:681   */\n  dup2\n    /* \"#utility.yul\":649:682   */\n  tag_34\n  jump\t// in\ntag_64:\n    /* \"#utility.yul\":545:688   */\n  swap3\n  swap2\n  pop\n  pop\n  jump\t// out\n    /* \"#utility.yul\":694:820   */\ntag_36:\n    /* \"#utility.yul\":731:738   */\n  0x00\n    /* \"#utility.yul\":771:813   */\n  0xffffffffffffffffffffffffffffffffffffffff\n    /* \"#utility.yul\":764:769   */\n  dup3\n    /* \"#utility.yul\":760:814   */\n  and\n    /* \"#utility.yul\":749:814   */\n  swap1\n  pop\n    /* \"#utility.yul\":694:820   */\n  swap2\n  swap1\n  pop\n  jump\t// out\n    /* \"#utility.yul\":826:930   */\ntag_37:\n    /* \"#utility.yul\":871:878   */\n  0x00\n    /* \"#utility.yul\":900:924   */\n  tag_67\n    /* \"#utility.yul\":918:923   */\n  dup3\n    /* \"#utility.yul\":900:924   */\n  tag_36\n  jump\t// in\ntag_67:\n    /* \"#utility.yul\":889:924   */\n  swap1\n  pop\n    /* \"#utility.yul\":826:930   */\n  swap2\n  swap1\n  pop\n  jump\t// out\n    /* \"#utility.yul\":936:1074   */\ntag_38:\n    /* \"#utility.yul\":1017:1049   */\n  tag_69\n    /* \"#utility.yul\":1043:1048   */\n  dup2\n    /* \"#utility.yul\":1017:1049   */\n  tag_37\n  jump\t// in\ntag_69:\n    /* \"#utility.yul\":1010:1015   */\n  dup2\n    /* \"#utility.yul\":1007:1050   */\n  eq\n    /* \"#utility.yul\":997:1068   */\n  tag_70\n  jumpi\n    /* \"#utility.yul\":1064:1065   */\n  0x00\n    /* \"#utility.yul\":1061:1062   */\n  dup1\n    /* \"#utility.yul\":1054:1066   */\n  revert\n    /* \"#utility.yul\":997:1068   */\ntag_70:\n    /* \"#utility.yul\":936:1074   */\n  pop\n  jump\t// out\n    /* \"#utility.yul\":1080:1239   */\ntag_39:\n    /* \"#utility.yul\":1145:1150   */\n  0x00\n    /* \"#utility.yul\":1176:1182   */\n  dup2\n    /* \"#utility.yul\":1170:1183   */\n  mload\n    /* \"#utility.yul\":1161:1183   */\n  swap1\n  pop\n    /* \"#utility.yul\":1192:1233   */\n  tag_72\n    /* \"#utility.yul\":1227:1232   */\n  dup2\n    /* \"#utility.yul\":1192:1233   */\n  tag_38\n  jump\t// in\ntag_72:\n    /* \"#utility.yul\":1080:1239   */\n  swap3\n  swap2\n  pop\n  pop\n  jump\t// out\n    /* \"#utility.yul\":1245:1341   */\ntag_40:\n    /* \"#utility.yul\":1282:1289   */\n  0x00\n    /* \"#utility.yul\":1311:1335   */\n  tag_74\n    /* \"#utility.yul\":1329:1334   */\n  dup3\n    /* \"#utility.yul\":1311:1335   */\n  tag_36\n  jump\t// in\ntag_74:\n    /* \"#utility.yul\":1300:1335   */\n  swap1\n  pop\n    /* \"#utility.yul\":1245:1341   */\n  swap2\n  swap1\n  pop\n  jump\t// out\n    /* \"#utility.yul\":1347:1457   */\ntag_41:\n    /* \"#utility.yul\":1398:1405   */\n  0x00\n    /* \"#utility.yul\":1427:1451   */\n  tag_76\n    /* \"#utility.yul\":1445:1450   */\n  dup3\n    /* \"#utility.yul\":1427:1451   */\n  tag_40\n  jump\t// in\ntag_76:\n    /* \"#utility.yul\":1416:1451   */\n  swap1\n  pop\n    /* \"#utility.yul\":1347:1457   */\n  swap2\n  swap1\n  pop\n  jump\t// out\n    /* \"#utility.yul\":1463:1613   */\ntag_42:\n    /* \"#utility.yul\":1550:1588   */\n  tag_78\n    /* \"#utility.yul\":1582:1587   */\n  dup2\n    /* \"#utility.yul\":1550:1588   */\n  tag_41\n  jump\t// in\ntag_78:\n    /* \"#utility.yul\":1543:1548   */\n  dup2\n    /* \"#utility.yul\":1540:1589   */\n  eq\n    /* \"#utility.yul\":1530:1607   */\n  tag_79\n  jumpi\n    /* \"#utility.yul\":1603:1604   */\n  0x00\n    /* \"#utility.yul\":1600:1601   */\n  dup1\n    /* \"#utility.yul\":1593:1605   */\n  revert\n    /* \"#utility.yul\":1530:1607   */\ntag_79:\n    /* \"#utility.yul\":1463:1613   */\n  pop\n  jump\t// out\n    /* \"#utility.yul\":1619:1790   */\ntag_43:\n    /* \"#utility.yul\":1690:1695   */\n  0x00\n    /* \"#utility.yul\":1721:1727   */\n  dup2\n    /* \"#utility.yul\":1715:1728   */\n  mload\n    /* \"#utility.yul\":1706:1728   */\n  swap1\n  pop\n    /* \"#utility.yul\":1737:1784   */\n  tag_81\n    /* \"#utility.yul\":1778:1783   */\n  dup2\n    /* \"#utility.yul\":1737:1784   */\n  tag_42\n  jump\t// in\ntag_81:\n    /* \"#utility.yul\":1619:1790   */\n  swap3\n  swap2\n  pop\n  pop\n  jump\t// out\n    /* \"#utility.yul\":1796:2817   */\ntag_3:\n    /* \"#utility.yul\":1924:1930   */\n  0x00\n    /* \"#utility.yul\":1932:1938   */\n  dup1\n    /* \"#utility.yul\":1940:1946   */\n  0x00\n    /* \"#utility.yul\":1948:1954   */\n  dup1\n    /* \"#utility.yul\":1956:1962   */\n  0x00\n    /* \"#utility.yul\":2005:2008   */\n  0xa0\n    /* \"#utility.yul\":1993:2002   */\n  dup7\n    /* \"#utility.yul\":1984:1991   */\n  dup9\n    /* \"#utility.yul\":1980:2003   */\n  sub\n    /* \"#utility.yul\":1976:2009   */\n  slt\n    /* \"#utility.yul\":1973:2093   */\n  iszero\n  tag_83\n  jumpi\n    /* \"#utility.yul\":2012:2091   */\n  tag_84\n  tag_31\n  jump\t// in\ntag_84:\n    /* \"#utility.yul\":1973:2093   */\ntag_83:\n    /* \"#utility.yul\":2132:2133   */\n  0x00\n    /* \"#utility.yul\":2157:2221   */\n  tag_85\n    /* \"#utility.yul\":2213:2220   */\n  dup9\n    /* \"#utility.yul\":2204:2210   */\n  dup3\n    /* \"#utility.yul\":2193:2202   */\n  dup10\n    /* \"#utility.yul\":2189:2211   */\n  add\n    /* \"#utility.yul\":2157:2221   */\n  tag_35\n  jump\t// in\ntag_85:\n    /* \"#utility.yul\":2147:2221   */\n  swap6\n  pop\n    /* \"#utility.yul\":2103:2231   */\n  pop\n    /* \"#utility.yul\":2270:2272   */\n  0x20\n    /* \"#utility.yul\":2296:2360   */\n  tag_86\n    /* \"#utility.yul\":2352:2359   */\n  dup9\n    /* \"#utility.yul\":2343:2349   */\n  dup3\n    /* \"#utility.yul\":2332:2341   */\n  dup10\n    /* \"#utility.yul\":2328:2350   */\n  add\n    /* \"#utility.yul\":2296:2360   */\n  tag_35\n  jump\t// in\ntag_86:\n    /* \"#utility.yul\":2286:2360   */\n  swap5\n  pop\n    /* \"#utility.yul\":2241:2370   */\n  pop\n    /* \"#utility.yul\":2409:2411   */\n  0x40\n    /* \"#utility.yul\":2435:2499   */\n  tag_87\n    /* \"#utility.yul\":2491:2498   */\n  dup9\n    /* \"#utility.yul\":2482:2488   */\n  dup3\n    /* \"#utility.yul\":2471:2480   */\n  dup10\n    /* \"#utility.yul\":2467:2489   */\n  add\n    /* \"#utility.yul\":2435:2499   */\n  tag_35\n  jump\t// in\ntag_87:\n    /* \"#utility.yul\":2425:2499   */\n  swap4\n  pop\n    /* \"#utility.yul\":2380:2509   */\n  pop\n    /* \"#utility.yul\":2548:2550   */\n  0x60\n    /* \"#utility.yul\":2574:2646   */\n  tag_88\n    /* \"#utility.yul\":2638:2645   */\n  dup9\n    /* \"#utility.yul\":2629:2635   */\n  dup3\n    /* \"#utility.yul\":2618:2627   */\n  dup10\n    /* \"#utility.yul\":2614:2636   */\n  add\n    /* \"#utility.yul\":2574:2646   */\n  tag_39\n  jump\t// in\ntag_88:\n    /* \"#utility.yul\":2564:2646   */\n  swap3\n  pop\n    /* \"#utility.yul\":2519:2656   */\n  pop\n    /* \"#utility.yul\":2695:2698   */\n  0x80\n    /* \"#utility.yul\":2722:2800   */\n  tag_89\n    /* \"#utility.yul\":2792:2799   */\n  dup9\n    /* \"#utility.yul\":2783:2789   */\n  dup3\n    /* \"#utility.yul\":2772:2781   */\n  dup10\n    /* \"#utility.yul\":2768:2790   */\n  add\n    /* \"#utility.yul\":2722:2800   */\n  tag_43\n  jump\t// in\ntag_89:\n    /* \"#utility.yul\":2712:2800   */\n  swap2\n  pop\n    /* \"#utility.yul\":2666:2810   */\n  pop\n    /* \"#utility.yul\":1796:2817   */\n  swap3\n  swap6\n  pop\n  swap3\n  swap6\n  swap1\n  swap4\n  pop\n  jump\t// out\n    /* \"#utility.yul\":2823:2992   */\ntag_44:\n    /* \"#utility.yul\":2907:2918   */\n  0x00\n    /* \"#utility.yul\":2941:2947   */\n  dup3\n    /* \"#utility.yul\":2936:2939   */\n  dup3\n    /* \"#utility.yul\":2929:2948   */\n  mstore\n    /* \"#utility.yul\":2981:2985   */\n  0x20\n    /* \"#utility.yul\":2976:2979   */\n  dup3\n    /* \"#utility.yul\":2972:2986   */\n  add\n    /* \"#utility.yul\":2957:2986   */\n  swap1\n  pop\n    /* \"#utility.yul\":2823:2992   */\n  swap3\n  swap2\n  pop\n  pop\n  jump\t// out\n    /* \"#utility.yul\":2998:3168   */\ntag_45:\n    /* \"#utility.yul\":3138:3160   */\n  0x43726f776473616c653a20726174652069732030000000000000000000000000\n    /* \"#utility.yul\":3134:3135   */\n  0x00\n    /* \"#utility.yul\":3126:3132   */\n  dup3\n    /* \"#utility.yul\":3122:3136   */\n  add\n    /* \"#utility.yul\":3115:3161   */\n  mstore\n    /* \"#utility.yul\":2998:3168   */\n  pop\n  jump\t// out\n    /* \"#utility.yul\":3174:3540   */\ntag_46:\n    /* \"#utility.yul\":3316:3319   */\n  0x00\n    /* \"#utility.yul\":3337:3404   */\n  tag_93\n    /* \"#utility.yul\":3401:3403   */\n  0x14\n    /* \"#utility.yul\":3396:3399   */\n  dup4\n    /* \"#utility.yul\":3337:3404   */\n  tag_44\n  jump\t// in\ntag_93:\n    /* \"#utility.yul\":3330:3404   */\n  swap2\n  pop\n    /* \"#utility.yul\":3413:3506   */\n  tag_94\n    /* \"#utility.yul\":3502:3505   */\n  dup3\n    /* \"#utility.yul\":3413:3506   */\n  tag_45\n  jump\t// in\ntag_94:\n    /* \"#utility.yul\":3531:3533   */\n  0x20\n    /* \"#utility.yul\":3526:3529   */\n  dup3\n    /* \"#utility.yul\":3522:3534   */\n  add\n    /* \"#utility.yul\":3515:3534   */\n  swap1\n  pop\n    /* \"#utility.yul\":3174:3540   */\n  swap2\n  swap1\n  pop\n  jump\t// out\n    /* \"#utility.yul\":3546:3965   */\ntag_13:\n    /* \"#utility.yul\":3712:3716   */\n  0x00\n    /* \"#utility.yul\":3750:3752   */\n  0x20\n    /* \"#utility.yul\":3739:3748   */\n  dup3\n    /* \"#utility.yul\":3735:3753   */\n  add\n    /* \"#utility.yul\":3727:3753   */\n  swap1\n  pop\n    /* \"#utility.yul\":3799:3808   */\n  dup2\n    /* \"#utility.yul\":3793:3797   */\n  dup2\n    /* \"#utility.yul\":3789:3809   */\n  sub\n    /* \"#utility.yul\":3785:3786   */\n  0x00\n    /* \"#utility.yul\":3774:3783   */\n  dup4\n    /* \"#utility.yul\":3770:3787   */\n  add\n    /* \"#utility.yul\":3763:3810   */\n  mstore\n    /* \"#utility.yul\":3827:3958   */\n  tag_96\n    /* \"#utility.yul\":3953:3957   */\n  dup2\n    /* \"#utility.yul\":3827:3958   */\n  tag_46\n  jump\t// in\ntag_96:\n    /* \"#utility.yul\":3819:3958   */\n  swap1\n  pop\n    /* \"#utility.yul\":3546:3965   */\n  swap2\n  swap1\n  pop\n  jump\t// out\n    /* \"#utility.yul\":3971:4195   */\ntag_47:\n    /* \"#utility.yul\":4111:4145   */\n  0x43726f776473616c653a2077616c6c657420697320746865207a65726f206164\n    /* \"#utility.yul\":4107:4108   */\n  0x00\n    /* \"#utility.yul\":4099:4105   */\n  dup3\n    /* \"#utility.yul\":4095:4109   */\n  add\n    /* \"#utility.yul\":4088:4146   */\n  mstore\n    /* \"#utility.yul\":4180:4187   */\n  0x6472657373000000000000000000000000000000000000000000000000000000\n    /* \"#utility.yul\":4175:4177   */\n  0x20\n    /* \"#utility.yul\":4167:4173   */\n  dup3\n    /* \"#utility.yul\":4163:4178   */\n  add\n    /* \"#utility.yul\":4156:4188   */\n  mstore\n    /* \"#utility.yul\":3971:4195   */\n  pop\n  jump\t// out\n    /* \"#utility.yul\":4201:4567   */\ntag_48:\n    /* \"#utility.yul\":4343:4346   */\n  0x00\n    /* \"#utility.yul\":4364:4431   */\n  tag_99\n    /* \"#utility.yul\":4428:4430   */\n  0x25\n    /* \"#utility.yul\":4423:4426   */\n  dup4\n    /* \"#utility.yul\":4364:4431   */\n  tag_44\n  jump\t// in\ntag_99:\n    /* \"#utility.yul\":4357:4431   */\n  swap2\n  pop\n    /* \"#utility.yul\":4440:4533   */\n  tag_100\n    /* \"#utility.yul\":4529:4532   */\n  dup3\n    /* \"#utility.yul\":4440:4533   */\n  tag_47\n  jump\t// in\ntag_100:\n    /* \"#utility.yul\":4558:4560   */\n  0x40\n    /* \"#utility.yul\":4553:4556   */\n  dup3\n    /* \"#utility.yul\":4549:4561   */\n  add\n    /* \"#utility.yul\":4542:4561   */\n  swap1\n  pop\n    /* \"#utility.yul\":4201:4567   */\n  swap2\n  swap1\n  pop\n  jump\t// out\n    /* \"#utility.yul\":4573:4992   */\ntag_16:\n    /* \"#utility.yul\":4739:4743   */\n  0x00\n    /* \"#utility.yul\":4777:4779   */\n  0x20\n    /* \"#utility.yul\":4766:4775   */\n  dup3\n    /* \"#utility.yul\":4762:4780   */\n  add\n    /* \"#utility.yul\":4754:4780   */\n  swap1\n  pop\n    /* \"#utility.yul\":4826:4835   */\n  dup2\n    /* \"#utility.yul\":4820:4824   */\n  dup2\n    /* \"#utility.yul\":4816:4836   */\n  sub\n    /* \"#utility.yul\":4812:4813   */\n  0x00\n    /* \"#utility.yul\":4801:4810   */\n  dup4\n    /* \"#utility.yul\":4797:4814   */\n  add\n    /* \"#utility.yul\":4790:4837   */\n  mstore\n    /* \"#utility.yul\":4854:4985   */\n  tag_102\n    /* \"#utility.yul\":4980:4984   */\n  dup2\n    /* \"#utility.yul\":4854:4985   */\n  tag_48\n  jump\t// in\ntag_102:\n    /* \"#utility.yul\":4846:4985   */\n  swap1\n  pop\n    /* \"#utility.yul\":4573:4992   */\n  swap2\n  swap1\n  pop\n  jump\t// out\n    /* \"#utility.yul\":4998:5221   */\ntag_49:\n    /* \"#utility.yul\":5138:5172   */\n  0x43726f776473616c653a20746f6b656e20697320746865207a65726f20616464\n    /* \"#utility.yul\":5134:5135   */\n  0x00\n    /* \"#utility.yul\":5126:5132   */\n  dup3\n    /* \"#utility.yul\":5122:5136   */\n  add\n    /* \"#utility.yul\":5115:5173   */\n  mstore\n    /* \"#utility.yul\":5207:5213   */\n  0x7265737300000000000000000000000000000000000000000000000000000000\n    /* \"#utility.yul\":5202:5204   */\n  0x20\n    /* \"#utility.yul\":5194:5200   */\n  dup3\n    /* \"#utility.yul\":5190:5205   */\n  add\n    /* \"#utility.yul\":5183:5214   */\n  mstore\n    /* \"#utility.yul\":4998:5221   */\n  pop\n  jump\t// out\n    /* \"#utility.yul\":5227:5593   */\ntag_50:\n    /* \"#utility.yul\":5369:5372   */\n  0x00\n    /* \"#utility.yul\":5390:5457   */\n  tag_105\n    /* \"#utility.yul\":5454:5456   */\n  0x24\n    /* \"#utility.yul\":5449:5452   */\n  dup4\n    /* \"#utility.yul\":5390:5457   */\n  tag_44\n  jump\t// in\ntag_105:\n    /* \"#utility.yul\":5383:5457   */\n  swap2\n  pop\n    /* \"#utility.yul\":5466:5559   */\n  tag_106\n    /* \"#utility.yul\":5555:5558   */\n  dup3\n    /* \"#utility.yul\":5466:5559   */\n  tag_49\n  jump\t// in\ntag_106:\n    /* \"#utility.yul\":5584:5586   */\n  0x40\n    /* \"#utility.yul\":5579:5582   */\n  dup3\n    /* \"#utility.yul\":5575:5587   */\n  add\n    /* \"#utility.yul\":5568:5587   */\n  swap1\n  pop\n    /* \"#utility.yul\":5227:5593   */\n  swap2\n  swap1\n  pop\n  jump\t// out\n    /* \"#utility.yul\":5599:6018   */\ntag_19:\n    /* \"#utility.yul\":5765:5769   */\n  0x00\n    /* \"#utility.yul\":5803:5805   */\n  0x20\n    /* \"#utility.yul\":5792:5801   */\n  dup3\n    /* \"#utility.yul\":5788:5806   */\n  add\n    /* \"#utility.yul\":5780:5806   */\n  swap1\n  pop\n    /* \"#utility.yul\":5852:5861   */\n  dup2\n    /* \"#utility.yul\":5846:5850   */\n  dup2\n    /* \"#utility.yul\":5842:5862   */\n  sub\n    /* \"#utility.yul\":5838:5839   */\n  0x00\n    /* \"#utility.yul\":5827:5836   */\n  dup4\n    /* \"#utility.yul\":5823:5840   */\n  add\n    /* \"#utility.yul\":5816:5863   */\n  mstore\n    /* \"#utility.yul\":5880:6011   */\n  tag_108\n    /* \"#utility.yul\":6006:6010   */\n  dup2\n    /* \"#utility.yul\":5880:6011   */\n  tag_50\n  jump\t// in\ntag_108:\n    /* \"#utility.yul\":5872:6011   */\n  swap1\n  pop\n    /* \"#utility.yul\":5599:6018   */\n  swap2\n  swap1\n  pop\n  jump\t// out\n    /* \"#utility.yul\":6024:6262   */\ntag_51:\n    /* \"#utility.yul\":6164:6198   */\n  0x54696d656443726f776473616c653a206f70656e696e672074696d6520697320\n    /* \"#utility.yul\":6160:6161   */\n  0x00\n    /* \"#utility.yul\":6152:6158   */\n  dup3\n    /* \"#utility.yul\":6148:6162   */\n  add\n    /* \"#utility.yul\":6141:6199   */\n  mstore\n    /* \"#utility.yul\":6233:6254   */\n  0x6265666f72652063757272656e742074696d6500000000000000000000000000\n    /* \"#utility.yul\":6228:6230   */\n  0x20\n    /* \"#utility.yul\":6220:6226   */\n  dup3\n    /* \"#utility.yul\":6216:6231   */\n  add\n    /* \"#utility.yul\":6209:6255   */\n  mstore\n    /* \"#utility.yul\":6024:6262   */\n  pop\n  jump\t// out\n    /* \"#utility.yul\":6268:6634   */\ntag_52:\n    /* \"#utility.yul\":6410:6413   */\n  0x00\n    /* \"#utility.yul\":6431:6498   */\n  tag_111\n    /* \"#utility.yul\":6495:6497   */\n  0x33\n    /* \"#utility.yul\":6490:6493   */\n  dup4\n    /* \"#utility.yul\":6431:6498   */\n  tag_44\n  jump\t// in\ntag_111:\n    /* \"#utility.yul\":6424:6498   */\n  swap2\n  pop\n    /* \"#utility.yul\":6507:6600   */\n  tag_112\n    /* \"#utility.yul\":6596:6599   */\n  dup3\n    /* \"#utility.yul\":6507:6600   */\n  tag_51\n  jump\t// in\ntag_112:\n    /* \"#utility.yul\":6625:6627   */\n  0x40\n    /* \"#utility.yul\":6620:6623   */\n  dup3\n    /* \"#utility.yul\":6616:6628   */\n  add\n    /* \"#utility.yul\":6609:6628   */\n  swap1\n  pop\n    /* \"#utility.yul\":6268:6634   */\n  swap2\n  swap1\n  pop\n  jump\t// out\n    /* \"#utility.yul\":6640:7059   */\ntag_23:\n    /* \"#utility.yul\":6806:6810   */\n  0x00\n    /* \"#utility.yul\":6844:6846   */\n  0x20\n    /* \"#utility.yul\":6833:6842   */\n  dup3\n    /* \"#utility.yul\":6829:6847   */\n  add\n    /* \"#utility.yul\":6821:6847   */\n  swap1\n  pop\n    /* \"#utility.yul\":6893:6902   */\n  dup2\n    /* \"#utility.yul\":6887:6891   */\n  dup2\n    /* \"#utility.yul\":6883:6903   */\n  sub\n    /* \"#utility.yul\":6879:6880   */\n  0x00\n    /* \"#utility.yul\":6868:6877   */\n  dup4\n    /* \"#utility.yul\":6864:6881   */\n  add\n    /* \"#utility.yul\":6857:6904   */\n  mstore\n    /* \"#utility.yul\":6921:7052   */\n  tag_114\n    /* \"#utility.yul\":7047:7051   */\n  dup2\n    /* \"#utility.yul\":6921:7052   */\n  tag_52\n  jump\t// in\ntag_114:\n    /* \"#utility.yul\":6913:7052   */\n  swap1\n  pop\n    /* \"#utility.yul\":6640:7059   */\n  swap2\n  swap1\n  pop\n  jump\t// out\n    /* \"#utility.yul\":7065:7307   */\ntag_53:\n    /* \"#utility.yul\":7205:7239   */\n  0x54696d656443726f776473616c653a206f70656e696e672074696d6520697320\n    /* \"#utility.yul\":7201:7202   */\n  0x00\n    /* \"#utility.yul\":7193:7199   */\n  dup3\n    /* \"#utility.yul\":7189:7203   */\n  add\n    /* \"#utility.yul\":7182:7240   */\n  mstore\n    /* \"#utility.yul\":7274:7299   */\n  0x6e6f74206265666f726520636c6f73696e672074696d65000000000000000000\n    /* \"#utility.yul\":7269:7271   */\n  0x20\n    /* \"#utility.yul\":7261:7267   */\n  dup3\n    /* \"#utility.yul\":7257:7272   */\n  add\n    /* \"#utility.yul\":7250:7300   */\n  mstore\n    /* \"#utility.yul\":7065:7307   */\n  pop\n  jump\t// out\n    /* \"#utility.yul\":7313:7679   */\ntag_54:\n    /* \"#utility.yul\":7455:7458   */\n  0x00\n    /* \"#utility.yul\":7476:7543   */\n  tag_117\n    /* \"#utility.yul\":7540:7542   */\n  0x37\n    /* \"#utility.yul\":7535:7538   */\n  dup4\n    /* \"#utility.yul\":7476:7543   */\n  tag_44\n  jump\t// in\ntag_117:\n    /* \"#utility.yul\":7469:7543   */\n  swap2\n  pop\n    /* \"#utility.yul\":7552:7645   */\n  tag_118\n    /* \"#utility.yul\":7641:7644   */\n  dup3\n    /* \"#utility.yul\":7552:7645   */\n  tag_53\n  jump\t// in\ntag_118:\n    /* \"#utility.yul\":7670:7672   */\n  0x40\n    /* \"#utility.yul\":7665:7668   */\n  dup3\n    /* \"#utility.yul\":7661:7673   */\n  add\n    /* \"#utility.yul\":7654:7673   */\n  swap1\n  pop\n    /* \"#utility.yul\":7313:7679   */\n  swap2\n  swap1\n  pop\n  jump\t// out\n    /* \"#utility.yul\":7685:8104   */\ntag_26:\n    /* \"#utility.yul\":7851:7855   */\n  0x00\n    /* \"#utility.yul\":7889:7891   */\n  0x20\n    /* \"#utility.yul\":7878:7887   */\n  dup3\n    /* \"#utility.yul\":7874:7892   */\n  add\n    /* \"#utility.yul\":7866:7892   */\n  swap1\n  pop\n    /* \"#utility.yul\":7938:7947   */\n  dup2\n    /* \"#utility.yul\":7932:7936   */\n  dup2\n    /* \"#utility.yul\":7928:7948   */\n  sub\n    /* \"#utility.yul\":7924:7925   */\n  0x00\n    /* \"#utility.yul\":7913:7922   */\n  dup4\n    /* \"#utility.yul\":7909:7926   */\n  add\n    /* \"#utility.yul\":7902:7949   */\n  mstore\n    /* \"#utility.yul\":7966:8097   */\n  tag_120\n    /* \"#utility.yul\":8092:8096   */\n  dup2\n    /* \"#utility.yul\":7966:8097   */\n  tag_54\n  jump\t// in\ntag_120:\n    /* \"#utility.yul\":7958:8097   */\n  swap1\n  pop\n    /* \"#utility.yul\":7685:8104   */\n  swap2\n  swap1\n  pop\n  jump\t// out\n    /* \"crowdsale/distribution/finalizableCrowdsale.sol\":388:1342  contract FinalizableCrowdsale is TimedCrowdsale, FinalizableContract {... */\ntag_29:\n  dataSize(sub_0)\n  dup1\n  dataOffset(sub_0)\n  0x00\n  codecopy\n  0x00\n  return\nstop\n\nsub_0: assembly {\n        /* \"crowdsale/distribution/finalizableCrowdsale.sol\":388:1342  contract FinalizableCrowdsale is TimedCrowdsale, FinalizableContract {... */\n      mstore(0x40, 0x80)\n      jumpi(tag_1, lt(calldatasize, 0x04))\n      shr(0xe0, calldataload(0x00))\n      dup1\n      0x4bb278f3\n      gt\n      tag_14\n      jumpi\n      dup1\n      0x4bb278f3\n      eq\n      tag_8\n      jumpi\n      dup1\n      0x521eb273\n      eq\n      tag_9\n      jumpi\n      dup1\n      0xb3f05b97\n      eq\n      tag_10\n      jumpi\n      dup1\n      0xb7a8807c\n      eq\n      tag_11\n      jumpi\n      dup1\n      0xec8ac4d8\n      eq\n      tag_12\n      jumpi\n      dup1\n      0xfc0c546a\n      eq\n      tag_13\n      jumpi\n      jump(tag_2)\n    tag_14:\n      dup1\n      0x1515bc2b\n      eq\n      tag_3\n      jumpi\n      dup1\n      0x2c4e722e\n      eq\n      tag_4\n      jumpi\n      dup1\n      0x4042b66f\n      eq\n      tag_5\n      jumpi\n      dup1\n      0x47535d7b\n      eq\n      tag_6\n      jumpi\n      dup1\n      0x4b6753bc\n      eq\n      tag_7\n      jumpi\n      jump(tag_2)\n    tag_1:\n      jumpi(tag_2, calldatasize)\n        /* \"crowdsale/crowdsale.sol\":3351:3374  buyTokens(_msgSender()) */\n      tag_17\n        /* \"crowdsale/crowdsale.sol\":3361:3373  _msgSender() */\n      tag_18\n        /* \"crowdsale/crowdsale.sol\":3361:3371  _msgSender */\n      tag_19\n        /* \"crowdsale/crowdsale.sol\":3361:3373  _msgSender() */\n      jump\t// in\n    tag_18:\n        /* \"crowdsale/crowdsale.sol\":3351:3360  buyTokens */\n      tag_20\n        /* \"crowdsale/crowdsale.sol\":3351:3374  buyTokens(_msgSender()) */\n      jump\t// in\n    tag_17:\n        /* \"crowdsale/distribution/finalizableCrowdsale.sol\":388:1342  contract FinalizableCrowdsale is TimedCrowdsale, FinalizableContract {... */\n      stop\n    tag_2:\n        /* \"crowdsale/crowdsale.sol\":3270:3293  buyTokens(_msgSender()) */\n      tag_23\n        /* \"crowdsale/crowdsale.sol\":3280:3292  _msgSender() */\n      tag_24\n        /* \"crowdsale/crowdsale.sol\":3280:3290  _msgSender */\n      tag_19\n        /* \"crowdsale/crowdsale.sol\":3280:3292  _msgSender() */\n      jump\t// in\n    tag_24:\n        /* \"crowdsale/crowdsale.sol\":3270:3279  buyTokens */\n      tag_20\n        /* \"crowdsale/crowdsale.sol\":3270:3293  buyTokens(_msgSender()) */\n      jump\t// in\n    tag_23:\n        /* \"crowdsale/distribution/finalizableCrowdsale.sol\":388:1342  contract FinalizableCrowdsale is TimedCrowdsale, FinalizableContract {... */\n      stop\n        /* \"crowdsale/validation/timedCrowdsale.sol\":2417:2576  function hasClosed() public view returns (bool) {... */\n    tag_3:\n      callvalue\n      dup1\n      iszero\n      tag_25\n      jumpi\n      0x00\n      dup1\n      revert\n    tag_25:\n      pop\n      tag_26\n      tag_27\n      jump\t// in\n    tag_26:\n      mload(0x40)\n      tag_28\n      swap2\n      swap1\n      tag_29\n      jump\t// in\n    tag_28:\n      mload(0x40)\n      dup1\n      swap2\n      sub\n      swap1\n      return\n        /* \"crowdsale/crowdsale.sol\":3784:3869  function rate() public virtual view returns (uint256) {... */\n    tag_4:\n      callvalue\n      dup1\n      iszero\n      tag_30\n      jumpi\n      0x00\n      dup1\n      revert\n    tag_30:\n      pop\n      tag_31\n      tag_32\n      jump\t// in\n    tag_31:\n      mload(0x40)\n      tag_33\n      swap2\n      swap1\n      tag_34\n      jump\t// in\n    tag_33:\n      mload(0x40)\n      dup1\n      swap2\n      sub\n      swap1\n      return\n        /* \"crowdsale/crowdsale.sol\":3937:4024  function weiRaised() public view returns (uint256) {... */\n    tag_5:\n      callvalue\n      dup1\n      iszero\n      tag_35\n      jumpi\n      0x00\n      dup1\n      revert\n    tag_35:\n      pop\n      tag_36\n      tag_37\n      jump\t// in\n    tag_36:\n      mload(0x40)\n      tag_38\n      swap2\n      swap1\n      tag_34\n      jump\t// in\n    tag_38:\n      mload(0x40)\n      dup1\n      swap2\n      sub\n      swap1\n      return\n        /* \"crowdsale/validation/timedCrowdsale.sol\":2055:2247  function isOpen() public view returns (bool) {... */\n    tag_6:\n      callvalue\n      dup1\n      iszero\n      tag_39\n      jumpi\n      0x00\n      dup1\n      revert\n    tag_39:\n      pop\n      tag_40\n      tag_41\n      jump\t// in\n    tag_40:\n      mload(0x40)\n      tag_42\n      swap2\n      swap1\n      tag_29\n      jump\t// in\n    tag_42:\n      mload(0x40)\n      dup1\n      swap2\n      sub\n      swap1\n      return\n        /* \"crowdsale/validation/timedCrowdsale.sol\":1874:1965  function closingTime() public view returns (uint256) {... */\n    tag_7:\n      callvalue\n      dup1\n      iszero\n      tag_43\n      jumpi\n      0x00\n      dup1\n      revert\n    tag_43:\n      pop\n      tag_44\n      tag_45\n      jump\t// in\n    tag_44:\n      mload(0x40)\n      tag_46\n      swap2\n      swap1\n      tag_34\n      jump\t// in\n    tag_46:\n      mload(0x40)\n      dup1\n      swap2\n      sub\n      swap1\n      return\n        /* \"crowdsale/distribution/finalizableCrowdsale.sol\":1201:1339  function finalize() public override {... */\n    tag_8:\n      callvalue\n      dup1\n      iszero\n      tag_47\n      jumpi\n      0x00\n      dup1\n      revert\n    tag_47:\n      pop\n      tag_48\n      tag_49\n      jump\t// in\n    tag_48:\n      stop\n        /* \"crowdsale/crowdsale.sol\":3605:3694  function wallet() public view returns (address payable) {... */\n    tag_9:\n      callvalue\n      dup1\n      iszero\n      tag_50\n      jumpi\n      0x00\n      dup1\n      revert\n    tag_50:\n      pop\n      tag_51\n      tag_52\n      jump\t// in\n    tag_51:\n      mload(0x40)\n      tag_53\n      swap2\n      swap1\n      tag_54\n      jump\t// in\n    tag_53:\n      mload(0x40)\n      dup1\n      swap2\n      sub\n      swap1\n      return\n        /* \"crowdsale/abstractions/finalizable.sol\":720:804  function finalized() public view returns (bool) {... */\n    tag_10:\n      callvalue\n      dup1\n      iszero\n      tag_55\n      jumpi\n      0x00\n      dup1\n      revert\n    tag_55:\n      pop\n      tag_56\n      tag_57\n      jump\t// in\n    tag_56:\n      mload(0x40)\n      tag_58\n      swap2\n      swap1\n      tag_29\n      jump\t// in\n    tag_58:\n      mload(0x40)\n      dup1\n      swap2\n      sub\n      swap1\n      return\n        /* \"crowdsale/validation/timedCrowdsale.sol\":1713:1804  function openingTime() public view returns (uint256) {... */\n    tag_11:\n      callvalue\n      dup1\n      iszero\n      tag_59\n      jumpi\n      0x00\n      dup1\n      revert\n    tag_59:\n      pop\n      tag_60\n      tag_61\n      jump\t// in\n    tag_60:\n      mload(0x40)\n      tag_62\n      swap2\n      swap1\n      tag_34\n      jump\t// in\n    tag_62:\n      mload(0x40)\n      dup1\n      swap2\n      sub\n      swap1\n      return\n        /* \"crowdsale/crowdsale.sol\":4289:4911  function buyTokens(address beneficiary) public nonReentrant payable {... */\n    tag_12:\n      tag_63\n      0x04\n      dup1\n      calldatasize\n      sub\n      dup2\n      add\n      swap1\n      tag_64\n      swap2\n      swap1\n      tag_65\n      jump\t// in\n    tag_64:\n      tag_20\n      jump\t// in\n    tag_63:\n      stop\n        /* \"crowdsale/crowdsale.sol\":3446:3524  function token() public view returns (IERC20) {... */\n    tag_13:\n      callvalue\n      dup1\n      iszero\n      tag_66\n      jumpi\n      0x00\n      dup1\n      revert\n    tag_66:\n      pop\n      tag_67\n      tag_68\n      jump\t// in\n    tag_67:\n      mload(0x40)\n      tag_69\n      swap2\n      swap1\n      tag_70\n      jump\t// in\n    tag_69:\n      mload(0x40)\n      dup1\n      swap2\n      sub\n      swap1\n      return\n        /* \"@openzeppelin/contracts/utils/Context.sol\":656:752  function _msgSender() internal view virtual returns (address) {... */\n    tag_19:\n        /* \"@openzeppelin/contracts/utils/Context.sol\":709:716  address */\n      0x00\n        /* \"@openzeppelin/contracts/utils/Context.sol\":735:745  msg.sender */\n      caller\n        /* \"@openzeppelin/contracts/utils/Context.sol\":728:745  return msg.sender */\n      swap1\n      pop\n        /* \"@openzeppelin/contracts/utils/Context.sol\":656:752  function _msgSender() internal view virtual returns (address) {... */\n      swap1\n      jump\t// out\n        /* \"crowdsale/crowdsale.sol\":4289:4911  function buyTokens(address beneficiary) public nonReentrant payable {... */\n    tag_20:\n        /* \"@openzeppelin/contracts/security/ReentrancyGuard.sol\":2261:2282  _nonReentrantBefore() */\n      tag_73\n        /* \"@openzeppelin/contracts/security/ReentrancyGuard.sol\":2261:2280  _nonReentrantBefore */\n      tag_74\n        /* \"@openzeppelin/contracts/security/ReentrancyGuard.sol\":2261:2282  _nonReentrantBefore() */\n      jump\t// in\n    tag_73:\n        /* \"crowdsale/crowdsale.sol\":4368:4385  uint256 weiAmount */\n      0x00\n        /* \"crowdsale/crowdsale.sol\":4388:4397  msg.value */\n      callvalue\n        /* \"crowdsale/crowdsale.sol\":4368:4397  uint256 weiAmount = msg.value */\n      swap1\n      pop\n        /* \"crowdsale/crowdsale.sol\":4408:4452  _preValidatePurchase(beneficiary, weiAmount) */\n      tag_76\n        /* \"crowdsale/crowdsale.sol\":4429:4440  beneficiary */\n      dup3\n        /* \"crowdsale/crowdsale.sol\":4442:4451  weiAmount */\n      dup3\n        /* \"crowdsale/crowdsale.sol\":4408:4428  _preValidatePurchase */\n      tag_77\n        /* \"crowdsale/crowdsale.sol\":4408:4452  _preValidatePurchase(beneficiary, weiAmount) */\n      jump\t// in\n    tag_76:\n        /* \"crowdsale/crowdsale.sol\":4514:4528  uint256 tokens */\n      0x00\n        /* \"crowdsale/crowdsale.sol\":4531:4557  _getTokenAmount(weiAmount) */\n      tag_78\n        /* \"crowdsale/crowdsale.sol\":4547:4556  weiAmount */\n      dup3\n        /* \"crowdsale/crowdsale.sol\":4531:4546  _getTokenAmount */\n      tag_79\n        /* \"crowdsale/crowdsale.sol\":4531:4557  _getTokenAmount(weiAmount) */\n      jump\t// in\n    tag_78:\n        /* \"crowdsale/crowdsale.sol\":4514:4557  uint256 tokens = _getTokenAmount(weiAmount) */\n      swap1\n      pop\n        /* \"crowdsale/crowdsale.sol\":4608:4633  _weiRaised.add(weiAmount) */\n      tag_80\n        /* \"crowdsale/crowdsale.sol\":4623:4632  weiAmount */\n      dup3\n        /* \"crowdsale/crowdsale.sol\":4608:4618  _weiRaised */\n      sload(0x04)\n        /* \"crowdsale/crowdsale.sol\":4608:4622  _weiRaised.add */\n      tag_81\n      swap1\n        /* \"crowdsale/crowdsale.sol\":4608:4633  _weiRaised.add(weiAmount) */\n      swap2\n      swap1\n      0xffffffff\n      and\n      jump\t// in\n    tag_80:\n        /* \"crowdsale/crowdsale.sol\":4595:4605  _weiRaised */\n      0x04\n        /* \"crowdsale/crowdsale.sol\":4595:4633  _weiRaised = _weiRaised.add(weiAmount) */\n      dup2\n      swap1\n      sstore\n      pop\n        /* \"crowdsale/crowdsale.sol\":4646:4683  _processPurchase(beneficiary, tokens) */\n      tag_82\n        /* \"crowdsale/crowdsale.sol\":4663:4674  beneficiary */\n      dup4\n        /* \"crowdsale/crowdsale.sol\":4676:4682  tokens */\n      dup3\n        /* \"crowdsale/crowdsale.sol\":4646:4662  _processPurchase */\n      tag_83\n        /* \"crowdsale/crowdsale.sol\":4646:4683  _processPurchase(beneficiary, tokens) */\n      jump\t// in\n    tag_82:\n        /* \"crowdsale/crowdsale.sol\":4729:4740  beneficiary */\n      dup3\n        /* \"crowdsale/crowdsale.sol\":4699:4760  TokensPurchased(_msgSender(), beneficiary, weiAmount, tokens) */\n      0xffffffffffffffffffffffffffffffffffffffff\n      and\n        /* \"crowdsale/crowdsale.sol\":4715:4727  _msgSender() */\n      tag_84\n        /* \"crowdsale/crowdsale.sol\":4715:4725  _msgSender */\n      tag_19\n        /* \"crowdsale/crowdsale.sol\":4715:4727  _msgSender() */\n      jump\t// in\n    tag_84:\n        /* \"crowdsale/crowdsale.sol\":4699:4760  TokensPurchased(_msgSender(), beneficiary, weiAmount, tokens) */\n      0xffffffffffffffffffffffffffffffffffffffff\n      and\n      0x6faf93231a456e552dbc9961f58d9713ee4f2e69d15f1975b050ef0911053a7b\n        /* \"crowdsale/crowdsale.sol\":4742:4751  weiAmount */\n      dup5\n        /* \"crowdsale/crowdsale.sol\":4753:4759  tokens */\n      dup5\n        /* \"crowdsale/crowdsale.sol\":4699:4760  TokensPurchased(_msgSender(), beneficiary, weiAmount, tokens) */\n      mload(0x40)\n      tag_85\n      swap3\n      swap2\n      swap1\n      tag_86\n      jump\t// in\n    tag_85:\n      mload(0x40)\n      dup1\n      swap2\n      sub\n      swap1\n      log3\n        /* \"crowdsale/crowdsale.sol\":4773:4819  _updatePurchasingState(beneficiary, weiAmount) */\n      tag_87\n        /* \"crowdsale/crowdsale.sol\":4796:4807  beneficiary */\n      dup4\n        /* \"crowdsale/crowdsale.sol\":4809:4818  weiAmount */\n      dup4\n        /* \"crowdsale/crowdsale.sol\":4773:4795  _updatePurchasingState */\n      tag_88\n        /* \"crowdsale/crowdsale.sol\":4773:4819  _updatePurchasingState(beneficiary, weiAmount) */\n      jump\t// in\n    tag_87:\n        /* \"crowdsale/crowdsale.sol\":4832:4847  _forwardFunds() */\n      tag_89\n        /* \"crowdsale/crowdsale.sol\":4832:4845  _forwardFunds */\n      tag_90\n        /* \"crowdsale/crowdsale.sol\":4832:4847  _forwardFunds() */\n      jump\t// in\n    tag_89:\n        /* \"crowdsale/crowdsale.sol\":4858:4903  _postValidatePurchase(beneficiary, weiAmount) */\n      tag_91\n        /* \"crowdsale/crowdsale.sol\":4880:4891  beneficiary */\n      dup4\n        /* \"crowdsale/crowdsale.sol\":4893:4902  weiAmount */\n      dup4\n        /* \"crowdsale/crowdsale.sol\":4858:4879  _postValidatePurchase */\n      tag_92\n        /* \"crowdsale/crowdsale.sol\":4858:4903  _postValidatePurchase(beneficiary, weiAmount) */\n      jump\t// in\n    tag_91:\n        /* \"crowdsale/crowdsale.sol\":4357:4911  {... */\n      pop\n      pop\n        /* \"@openzeppelin/contracts/security/ReentrancyGuard.sol\":2303:2323  _nonReentrantAfter() */\n      tag_93\n        /* \"@openzeppelin/contracts/security/ReentrancyGuard.sol\":2303:2321  _nonReentrantAfter */\n      tag_94\n        /* \"@openzeppelin/contracts/security/ReentrancyGuard.sol\":2303:2323  _nonReentrantAfter() */\n      jump\t// in\n    tag_93:\n        /* \"crowdsale/crowdsale.sol\":4289:4911  function buyTokens(address beneficiary) public nonReentrant payable {... */\n      pop\n      jump\t// out\n        /* \"crowdsale/validation/timedCrowdsale.sol\":2417:2576  function hasClosed() public view returns (bool) {... */\n    tag_27:\n        /* \"crowdsale/validation/timedCrowdsale.sol\":2459:2463  bool */\n      0x00\n        /* \"crowdsale/validation/timedCrowdsale.sol\":2556:2568  _closingTime */\n      sload(0x06)\n        /* \"crowdsale/validation/timedCrowdsale.sol\":2538:2553  block.timestamp */\n      timestamp\n        /* \"crowdsale/validation/timedCrowdsale.sol\":2538:2568  block.timestamp > _closingTime */\n      gt\n        /* \"crowdsale/validation/timedCrowdsale.sol\":2531:2568  return block.timestamp > _closingTime */\n      swap1\n      pop\n        /* \"crowdsale/validation/timedCrowdsale.sol\":2417:2576  function hasClosed() public view returns (bool) {... */\n      swap1\n      jump\t// out\n        /* \"crowdsale/crowdsale.sol\":3784:3869  function rate() public virtual view returns (uint256) {... */\n    tag_32:\n        /* \"crowdsale/crowdsale.sol\":3829:3836  uint256 */\n      0x00\n        /* \"crowdsale/crowdsale.sol\":3856:3861  _rate */\n      sload(0x03)\n        /* \"crowdsale/crowdsale.sol\":3849:3861  return _rate */\n      swap1\n      pop\n        /* \"crowdsale/crowdsale.sol\":3784:3869  function rate() public virtual view returns (uint256) {... */\n      swap1\n      jump\t// out\n        /* \"crowdsale/crowdsale.sol\":3937:4024  function weiRaised() public view returns (uint256) {... */\n    tag_37:\n        /* \"crowdsale/crowdsale.sol\":3979:3986  uint256 */\n      0x00\n        /* \"crowdsale/crowdsale.sol\":4006:4016  _weiRaised */\n      sload(0x04)\n        /* \"crowdsale/crowdsale.sol\":3999:4016  return _weiRaised */\n      swap1\n      pop\n        /* \"crowdsale/crowdsale.sol\":3937:4024  function weiRaised() public view returns (uint256) {... */\n      swap1\n      jump\t// out\n        /* \"crowdsale/validation/timedCrowdsale.sol\":2055:2247  function isOpen() public view returns (bool) {... */\n    tag_41:\n        /* \"crowdsale/validation/timedCrowdsale.sol\":2094:2098  bool */\n      0x00\n        /* \"crowdsale/validation/timedCrowdsale.sol\":2192:2204  _openingTime */\n      sload(0x05)\n        /* \"crowdsale/validation/timedCrowdsale.sol\":2173:2188  block.timestamp */\n      timestamp\n        /* \"crowdsale/validation/timedCrowdsale.sol\":2173:2204  block.timestamp >= _openingTime */\n      lt\n      iszero\n        /* \"crowdsale/validation/timedCrowdsale.sol\":2173:2239  block.timestamp >= _openingTime && block.timestamp <= _closingTime */\n      dup1\n      iszero\n      tag_99\n      jumpi\n      pop\n        /* \"crowdsale/validation/timedCrowdsale.sol\":2227:2239  _closingTime */\n      sload(0x06)\n        /* \"crowdsale/validation/timedCrowdsale.sol\":2208:2223  block.timestamp */\n      timestamp\n        /* \"crowdsale/validation/timedCrowdsale.sol\":2208:2239  block.timestamp <= _closingTime */\n      gt\n      iszero\n        /* \"crowdsale/validation/timedCrowdsale.sol\":2173:2239  block.timestamp >= _openingTime && block.timestamp <= _closingTime */\n    tag_99:\n        /* \"crowdsale/validation/timedCrowdsale.sol\":2166:2239  return block.timestamp >= _openingTime && block.timestamp <= _closingTime */\n      swap1\n      pop\n        /* \"crowdsale/validation/timedCrowdsale.sol\":2055:2247  function isOpen() public view returns (bool) {... */\n      swap1\n      jump\t// out\n        /* \"crowdsale/validation/timedCrowdsale.sol\":1874:1965  function closingTime() public view returns (uint256) {... */\n    tag_45:\n        /* \"crowdsale/validation/timedCrowdsale.sol\":1918:1925  uint256 */\n      0x00\n        /* \"crowdsale/validation/timedCrowdsale.sol\":1945:1957  _closingTime */\n      sload(0x06)\n        /* \"crowdsale/validation/timedCrowdsale.sol\":1938:1957  return _closingTime */\n      swap1\n      pop\n        /* \"crowdsale/validation/timedCrowdsale.sol\":1874:1965  function closingTime() public view returns (uint256) {... */\n      swap1\n      jump\t// out\n        /* \"crowdsale/distribution/finalizableCrowdsale.sol\":1201:1339  function finalize() public override {... */\n    tag_49:\n        /* \"crowdsale/distribution/finalizableCrowdsale.sol\":1256:1267  hasClosed() */\n      tag_102\n        /* \"crowdsale/distribution/finalizableCrowdsale.sol\":1256:1265  hasClosed */\n      tag_27\n        /* \"crowdsale/distribution/finalizableCrowdsale.sol\":1256:1267  hasClosed() */\n      jump\t// in\n    tag_102:\n        /* \"crowdsale/distribution/finalizableCrowdsale.sol\":1248:1304  require(hasClosed(), \"FinalizableCrowdsale: not closed\") */\n      tag_103\n      jumpi\n      mload(0x40)\n      0x08c379a000000000000000000000000000000000000000000000000000000000\n      dup2\n      mstore\n      0x04\n      add\n      tag_104\n      swap1\n      tag_105\n      jump\t// in\n    tag_104:\n      mload(0x40)\n      dup1\n      swap2\n      sub\n      swap1\n      revert\n    tag_103:\n        /* \"crowdsale/distribution/finalizableCrowdsale.sol\":1315:1331  super.finalize() */\n      tag_106\n        /* \"crowdsale/distribution/finalizableCrowdsale.sol\":1315:1329  super.finalize */\n      tag_107\n        /* \"crowdsale/distribution/finalizableCrowdsale.sol\":1315:1331  super.finalize() */\n      jump\t// in\n    tag_106:\n        /* \"crowdsale/distribution/finalizableCrowdsale.sol\":1201:1339  function finalize() public override {... */\n      jump\t// out\n        /* \"crowdsale/crowdsale.sol\":3605:3694  function wallet() public view returns (address payable) {... */\n    tag_52:\n        /* \"crowdsale/crowdsale.sol\":3644:3659  address payable */\n      0x00\n        /* \"crowdsale/crowdsale.sol\":3679:3686  _wallet */\n      0x02\n      0x00\n      swap1\n      sload\n      swap1\n      0x0100\n      exp\n      swap1\n      div\n      0xffffffffffffffffffffffffffffffffffffffff\n      and\n        /* \"crowdsale/crowdsale.sol\":3672:3686  return _wallet */\n      swap1\n      pop\n        /* \"crowdsale/crowdsale.sol\":3605:3694  function wallet() public view returns (address payable) {... */\n      swap1\n      jump\t// out\n        /* \"crowdsale/abstractions/finalizable.sol\":720:804  function finalized() public view returns (bool) {... */\n    tag_57:\n        /* \"crowdsale/abstractions/finalizable.sol\":762:766  bool */\n      0x00\n        /* \"crowdsale/abstractions/finalizable.sol\":786:796  _finalized */\n      0x07\n      0x00\n      swap1\n      sload\n      swap1\n      0x0100\n      exp\n      swap1\n      div\n      0xff\n      and\n        /* \"crowdsale/abstractions/finalizable.sol\":779:796  return _finalized */\n      swap1\n      pop\n        /* \"crowdsale/abstractions/finalizable.sol\":720:804  function finalized() public view returns (bool) {... */\n      swap1\n      jump\t// out\n        /* \"crowdsale/validation/timedCrowdsale.sol\":1713:1804  function openingTime() public view returns (uint256) {... */\n    tag_61:\n        /* \"crowdsale/validation/timedCrowdsale.sol\":1757:1764  uint256 */\n      0x00\n        /* \"crowdsale/validation/timedCrowdsale.sol\":1784:1796  _openingTime */\n      sload(0x05)\n        /* \"crowdsale/validation/timedCrowdsale.sol\":1777:1796  return _openingTime */\n      swap1\n      pop\n        /* \"crowdsale/validation/timedCrowdsale.sol\":1713:1804  function openingTime() public view returns (uint256) {... */\n      swap1\n      jump\t// out\n        /* \"crowdsale/crowdsale.sol\":3446:3524  function token() public view returns (IERC20) {... */\n    tag_68:\n        /* \"crowdsale/crowdsale.sol\":3484:3490  IERC20 */\n      0x00\n        /* \"crowdsale/crowdsale.sol\":3510:3516  _token */\n      0x01\n      0x00\n      swap1\n      sload\n      swap1\n      0x0100\n      exp\n      swap1\n      div\n      0xffffffffffffffffffffffffffffffffffffffff\n      and\n        /* \"crowdsale/crowdsale.sol\":3503:3516  return _token */\n      swap1\n      pop\n        /* \"crowdsale/crowdsale.sol\":3446:3524  function token() public view returns (IERC20) {... */\n      swap1\n      jump\t// out\n        /* \"@openzeppelin/contracts/security/ReentrancyGuard.sol\":2336:2623  function _nonReentrantBefore() private {... */\n    tag_74:\n        /* \"@openzeppelin/contracts/security/ReentrancyGuard.sol\":1759:1760  2 */\n      0x02\n        /* \"@openzeppelin/contracts/security/ReentrancyGuard.sol\":2468:2475  _status */\n      sload(0x00)\n        /* \"@openzeppelin/contracts/security/ReentrancyGuard.sol\":2468:2487  _status != _ENTERED */\n      sub\n        /* \"@openzeppelin/contracts/security/ReentrancyGuard.sol\":2460:2523  require(_status != _ENTERED, \"ReentrancyGuard: reentrant call\") */\n      tag_113\n      jumpi\n      mload(0x40)\n      0x08c379a000000000000000000000000000000000000000000000000000000000\n      dup2\n      mstore\n      0x04\n      add\n      tag_114\n      swap1\n      tag_115\n      jump\t// in\n    tag_114:\n      mload(0x40)\n      dup1\n      swap2\n      sub\n      swap1\n      revert\n    tag_113:\n        /* \"@openzeppelin/contracts/security/ReentrancyGuard.sol\":1759:1760  2 */\n      0x02\n        /* \"@openzeppelin/contracts/security/ReentrancyGuard.sol\":2598:2605  _status */\n      0x00\n        /* \"@openzeppelin/contracts/security/ReentrancyGuard.sol\":2598:2616  _status = _ENTERED */\n      dup2\n      swap1\n      sstore\n      pop\n        /* \"@openzeppelin/contracts/security/ReentrancyGuard.sol\":2336:2623  function _nonReentrantBefore() private {... */\n      jump\t// out\n        /* \"crowdsale/validation/timedCrowdsale.sol\":2776:2952  function _preValidatePurchase(address beneficiary, uint256 weiAmount) internal override onlyWhileOpen view {... */\n    tag_77:\n        /* \"crowdsale/validation/timedCrowdsale.sol\":821:829  isOpen() */\n      tag_117\n        /* \"crowdsale/validation/timedCrowdsale.sol\":821:827  isOpen */\n      tag_41\n        /* \"crowdsale/validation/timedCrowdsale.sol\":821:829  isOpen() */\n      jump\t// in\n    tag_117:\n        /* \"crowdsale/validation/timedCrowdsale.sol\":813:858  require(isOpen(), \"TimedCrowdsale: not open\") */\n      tag_118\n      jumpi\n      mload(0x40)\n      0x08c379a000000000000000000000000000000000000000000000000000000000\n      dup2\n      mstore\n      0x04\n      add\n      tag_119\n      swap1\n      tag_120\n      jump\t// in\n    tag_119:\n      mload(0x40)\n      dup1\n      swap2\n      sub\n      swap1\n      revert\n    tag_118:\n        /* \"crowdsale/validation/timedCrowdsale.sol\":2894:2944  super._preValidatePurchase(beneficiary, weiAmount) */\n      tag_122\n        /* \"crowdsale/validation/timedCrowdsale.sol\":2921:2932  beneficiary */\n      dup3\n        /* \"crowdsale/validation/timedCrowdsale.sol\":2934:2943  weiAmount */\n      dup3\n        /* \"crowdsale/validation/timedCrowdsale.sol\":2894:2920  super._preValidatePurchase */\n      tag_123\n        /* \"crowdsale/validation/timedCrowdsale.sol\":2894:2944  super._preValidatePurchase(beneficiary, weiAmount) */\n      jump\t// in\n    tag_122:\n        /* \"crowdsale/validation/timedCrowdsale.sol\":2776:2952  function _preValidatePurchase(address beneficiary, uint256 weiAmount) internal override onlyWhileOpen view {... */\n      pop\n      pop\n      jump\t// out\n        /* \"crowdsale/crowdsale.sol\":7856:7986  function _getTokenAmount(uint256 weiAmount) internal virtual view returns (uint256) {... */\n    tag_79:\n        /* \"crowdsale/crowdsale.sol\":7931:7938  uint256 */\n      0x00\n        /* \"crowdsale/crowdsale.sol\":7958:7978  weiAmount.mul(_rate) */\n      tag_125\n        /* \"crowdsale/crowdsale.sol\":7972:7977  _rate */\n      sload(0x03)\n        /* \"crowdsale/crowdsale.sol\":7958:7967  weiAmount */\n      dup4\n        /* \"crowdsale/crowdsale.sol\":7958:7971  weiAmount.mul */\n      tag_126\n      swap1\n        /* \"crowdsale/crowdsale.sol\":7958:7978  weiAmount.mul(_rate) */\n      swap2\n      swap1\n      0xffffffff\n      and\n      jump\t// in\n    tag_125:\n        /* \"crowdsale/crowdsale.sol\":7951:7978  return weiAmount.mul(_rate) */\n      swap1\n      pop\n        /* \"crowdsale/crowdsale.sol\":7856:7986  function _getTokenAmount(uint256 weiAmount) internal virtual view returns (uint256) {... */\n      swap2\n      swap1\n      pop\n      jump\t// out\n        /* \"@openzeppelin/contracts/utils/math/SafeMath.sol\":2755:2851  function add(uint256 a, uint256 b) internal pure returns (uint256) {... */\n    tag_81:\n        /* \"@openzeppelin/contracts/utils/math/SafeMath.sol\":2813:2820  uint256 */\n      0x00\n        /* \"@openzeppelin/contracts/utils/math/SafeMath.sol\":2843:2844  b */\n      dup2\n        /* \"@openzeppelin/contracts/utils/math/SafeMath.sol\":2839:2840  a */\n      dup4\n        /* \"@openzeppelin/contracts/utils/math/SafeMath.sol\":2839:2844  a + b */\n      tag_128\n      swap2\n      swap1\n      tag_129\n      jump\t// in\n    tag_128:\n        /* \"@openzeppelin/contracts/utils/math/SafeMath.sol\":2832:2844  return a + b */\n      swap1\n      pop\n        /* \"@openzeppelin/contracts/utils/math/SafeMath.sol\":2755:2851  function add(uint256 a, uint256 b) internal pure returns (uint256) {... */\n      swap3\n      swap2\n      pop\n      pop\n      jump\t// out\n        /* \"crowdsale/crowdsale.sol\":7023:7167  function _processPurchase(address beneficiary, uint256 tokenAmount) internal virtual {... */\n    tag_83:\n        /* \"crowdsale/crowdsale.sol\":7119:7159  _deliverTokens(beneficiary, tokenAmount) */\n      tag_131\n        /* \"crowdsale/crowdsale.sol\":7134:7145  beneficiary */\n      dup3\n        /* \"crowdsale/crowdsale.sol\":7147:7158  tokenAmount */\n      dup3\n        /* \"crowdsale/crowdsale.sol\":7119:7133  _deliverTokens */\n      tag_132\n        /* \"crowdsale/crowdsale.sol\":7119:7159  _deliverTokens(beneficiary, tokenAmount) */\n      jump\t// in\n    tag_131:\n        /* \"crowdsale/crowdsale.sol\":7023:7167  function _processPurchase(address beneficiary, uint256 tokenAmount) internal virtual {... */\n      pop\n      pop\n      jump\t// out\n        /* \"crowdsale/crowdsale.sol\":7445:7600  function _updatePurchasingState(address beneficiary, uint256 weiAmount) internal virtual {... */\n    tag_88:\n      pop\n      pop\n      jump\t// out\n        /* \"crowdsale/crowdsale.sol\":8078:8166  function _forwardFunds() internal virtual {... */\n    tag_90:\n        /* \"crowdsale/crowdsale.sol\":8131:8138  _wallet */\n      0x02\n      0x00\n      swap1\n      sload\n      swap1\n      0x0100\n      exp\n      swap1\n      div\n      0xffffffffffffffffffffffffffffffffffffffff\n      and\n        /* \"crowdsale/crowdsale.sol\":8131:8147  _wallet.transfer */\n      0xffffffffffffffffffffffffffffffffffffffff\n      and\n        /* \"crowdsale/crowdsale.sol\":8131:8158  _wallet.transfer(msg.value) */\n      0x08fc\n        /* \"crowdsale/crowdsale.sol\":8148:8157  msg.value */\n      callvalue\n        /* \"crowdsale/crowdsale.sol\":8131:8158  _wallet.transfer(msg.value) */\n      swap1\n      dup2\n      iszero\n      mul\n      swap1\n      mload(0x40)\n      0x00\n      mload(0x40)\n      dup1\n      dup4\n      sub\n      dup2\n      dup6\n      dup9\n      dup9\n      call\n      swap4\n      pop\n      pop\n      pop\n      pop\n      iszero\n      dup1\n      iszero\n      tag_136\n      jumpi\n      returndatasize\n      0x00\n      dup1\n      returndatacopy\n      revert(0x00, returndatasize)\n    tag_136:\n      pop\n        /* \"crowdsale/crowdsale.sol\":8078:8166  function _forwardFunds() internal virtual {... */\n      jump\t// out\n        /* \"crowdsale/crowdsale.sol\":6155:6314  function _postValidatePurchase(address beneficiary, uint256 weiAmount) internal virtual view {... */\n    tag_92:\n      pop\n      pop\n      jump\t// out\n        /* \"@openzeppelin/contracts/security/ReentrancyGuard.sol\":2629:2838  function _nonReentrantAfter() private {... */\n    tag_94:\n        /* \"@openzeppelin/contracts/security/ReentrancyGuard.sol\":1716:1717  1 */\n      0x01\n        /* \"@openzeppelin/contracts/security/ReentrancyGuard.sol\":2809:2816  _status */\n      0x00\n        /* \"@openzeppelin/contracts/security/ReentrancyGuard.sol\":2809:2831  _status = _NOT_ENTERED */\n      dup2\n      swap1\n      sstore\n      pop\n        /* \"@openzeppelin/contracts/security/ReentrancyGuard.sol\":2629:2838  function _nonReentrantAfter() private {... */\n      jump\t// out\n        /* \"crowdsale/abstractions/finalizable.sol\":968:1177  function finalize() public virtual  {... */\n    tag_107:\n        /* \"crowdsale/abstractions/finalizable.sol\":1024:1034  _finalized */\n      0x07\n      0x00\n      swap1\n      sload\n      swap1\n      0x0100\n      exp\n      swap1\n      div\n      0xff\n      and\n        /* \"crowdsale/abstractions/finalizable.sol\":1023:1034  !_finalized */\n      iszero\n        /* \"crowdsale/abstractions/finalizable.sol\":1015:1078  require(!_finalized, \"FinalizableCrowdsale: already finalized\") */\n      tag_140\n      jumpi\n      mload(0x40)\n      0x08c379a000000000000000000000000000000000000000000000000000000000\n      dup2\n      mstore\n      0x04\n      add\n      tag_141\n      swap1\n      tag_142\n      jump\t// in\n    tag_141:\n      mload(0x40)\n      dup1\n      swap2\n      sub\n      swap1\n      revert\n    tag_140:\n        /* \"crowdsale/abstractions/finalizable.sol\":1102:1106  true */\n      0x01\n        /* \"crowdsale/abstractions/finalizable.sol\":1089:1099  _finalized */\n      0x07\n      0x00\n        /* \"crowdsale/abstractions/finalizable.sol\":1089:1106  _finalized = true */\n      0x0100\n      exp\n      dup2\n      sload\n      dup2\n      0xff\n      mul\n      not\n      and\n      swap1\n      dup4\n      iszero\n      iszero\n      mul\n      or\n      swap1\n      sstore\n      pop\n        /* \"crowdsale/abstractions/finalizable.sol\":1119:1134  _finalization() */\n      tag_143\n        /* \"crowdsale/abstractions/finalizable.sol\":1119:1132  _finalization */\n      tag_144\n        /* \"crowdsale/abstractions/finalizable.sol\":1119:1134  _finalization() */\n      jump\t// in\n    tag_143:\n        /* \"crowdsale/abstractions/finalizable.sol\":1150:1169  ContractFinalized() */\n      0x9c6ac702ac1e5e834d54fae35fa20f6dbab76180a01317ec37a7e4ce9f86fe51\n      mload(0x40)\n      mload(0x40)\n      dup1\n      swap2\n      sub\n      swap1\n      log1\n        /* \"crowdsale/abstractions/finalizable.sol\":968:1177  function finalize() public virtual  {... */\n      jump\t// out\n        /* \"crowdsale/crowdsale.sol\":5464:5852  function _preValidatePurchase(address beneficiary, uint256 weiAmount) internal virtual view {... */\n    tag_123:\n        /* \"crowdsale/crowdsale.sol\":5598:5599  0 */\n      0x00\n        /* \"crowdsale/crowdsale.sol\":5575:5600  beneficiary != address(0) */\n      0xffffffffffffffffffffffffffffffffffffffff\n      and\n        /* \"crowdsale/crowdsale.sol\":5575:5586  beneficiary */\n      dup3\n        /* \"crowdsale/crowdsale.sol\":5575:5600  beneficiary != address(0) */\n      0xffffffffffffffffffffffffffffffffffffffff\n      and\n      sub\n        /* \"crowdsale/crowdsale.sol\":5567:5647  require(beneficiary != address(0), \"Crowdsale: beneficiary is the zero address\") */\n      tag_146\n      jumpi\n      mload(0x40)\n      0x08c379a000000000000000000000000000000000000000000000000000000000\n      dup2\n      mstore\n      0x04\n      add\n      tag_147\n      swap1\n      tag_148\n      jump\t// in\n    tag_147:\n      mload(0x40)\n      dup1\n      swap2\n      sub\n      swap1\n      revert\n    tag_146:\n        /* \"crowdsale/crowdsale.sol\":5679:5680  0 */\n      0x00\n        /* \"crowdsale/crowdsale.sol\":5666:5675  weiAmount */\n      dup2\n        /* \"crowdsale/crowdsale.sol\":5666:5680  weiAmount != 0 */\n      sub\n        /* \"crowdsale/crowdsale.sol\":5658:5710  require(weiAmount != 0, \"Crowdsale: weiAmount is 0\") */\n      tag_149\n      jumpi\n      mload(0x40)\n      0x08c379a000000000000000000000000000000000000000000000000000000000\n      dup2\n      mstore\n      0x04\n      add\n      tag_150\n      swap1\n      tag_151\n      jump\t// in\n    tag_150:\n      mload(0x40)\n      dup1\n      swap2\n      sub\n      swap1\n      revert\n    tag_149:\n        /* \"crowdsale/crowdsale.sol\":5464:5852  function _preValidatePurchase(address beneficiary, uint256 weiAmount) internal virtual view {... */\n      pop\n      pop\n      jump\t// out\n        /* \"@openzeppelin/contracts/utils/math/SafeMath.sol\":3465:3561  function mul(uint256 a, uint256 b) internal pure returns (uint256) {... */\n    tag_126:\n        /* \"@openzeppelin/contracts/utils/math/SafeMath.sol\":3523:3530  uint256 */\n      0x00\n        /* \"@openzeppelin/contracts/utils/math/SafeMath.sol\":3553:3554  b */\n      dup2\n        /* \"@openzeppelin/contracts/utils/math/SafeMath.sol\":3549:3550  a */\n      dup4\n        /* \"@openzeppelin/contracts/utils/math/SafeMath.sol\":3549:3554  a * b */\n      tag_153\n      swap2\n      swap1\n      tag_154\n      jump\t// in\n    tag_153:\n        /* \"@openzeppelin/contracts/utils/math/SafeMath.sol\":3542:3554  return a * b */\n      swap1\n      pop\n        /* \"@openzeppelin/contracts/utils/math/SafeMath.sol\":3465:3561  function mul(uint256 a, uint256 b) internal pure returns (uint256) {... */\n      swap3\n      swap2\n      pop\n      pop\n      jump\t// out\n        /* \"crowdsale/crowdsale.sol\":6602:6749  function _deliverTokens(address beneficiary, uint256 tokenAmount) internal virtual {... */\n    tag_132:\n        /* \"crowdsale/crowdsale.sol\":6696:6741  _token.safeTransfer(beneficiary, tokenAmount) */\n      tag_156\n        /* \"crowdsale/crowdsale.sol\":6716:6727  beneficiary */\n      dup3\n        /* \"crowdsale/crowdsale.sol\":6729:6740  tokenAmount */\n      dup3\n        /* \"crowdsale/crowdsale.sol\":6696:6702  _token */\n      0x01\n      0x00\n      swap1\n      sload\n      swap1\n      0x0100\n      exp\n      swap1\n      div\n      0xffffffffffffffffffffffffffffffffffffffff\n      and\n        /* \"crowdsale/crowdsale.sol\":6696:6715  _token.safeTransfer */\n      0xffffffffffffffffffffffffffffffffffffffff\n      and\n      tag_157\n      swap1\n        /* \"crowdsale/crowdsale.sol\":6696:6741  _token.safeTransfer(beneficiary, tokenAmount) */\n      swap3\n      swap2\n      swap1\n      0xffffffff\n      and\n      jump\t// in\n    tag_156:\n        /* \"crowdsale/crowdsale.sol\":6602:6749  function _deliverTokens(address beneficiary, uint256 tokenAmount) internal virtual {... */\n      pop\n      pop\n      jump\t// out\n        /* \"crowdsale/abstractions/finalizable.sol\":1393:1501  function _finalization() virtual internal {... */\n    tag_144:\n      jump\t// out\n        /* \"@openzeppelin/contracts/token/ERC20/utils/SafeERC20.sol\":941:1116  function safeTransfer(IERC20 token, address to, uint256 value) internal {... */\n    tag_157:\n        /* \"@openzeppelin/contracts/token/ERC20/utils/SafeERC20.sol\":1023:1109  _callOptionalReturn(token, abi.encodeWithSelector(token.transfer.selector, to, value)) */\n      tag_160\n        /* \"@openzeppelin/contracts/token/ERC20/utils/SafeERC20.sol\":1043:1048  token */\n      dup4\n        /* \"@openzeppelin/contracts/token/ERC20/utils/SafeERC20.sol\":1073:1096  token.transfer.selector */\n      shl(0xe0, 0xa9059cbb)\n        /* \"@openzeppelin/contracts/token/ERC20/utils/SafeERC20.sol\":1098:1100  to */\n      dup5\n        /* \"@openzeppelin/contracts/token/ERC20/utils/SafeERC20.sol\":1102:1107  value */\n      dup5\n        /* \"@openzeppelin/contracts/token/ERC20/utils/SafeERC20.sol\":1050:1108  abi.encodeWithSelector(token.transfer.selector, to, value) */\n      add(0x24, mload(0x40))\n      tag_161\n      swap3\n      swap2\n      swap1\n      tag_162\n      jump\t// in\n    tag_161:\n      mload(0x40)\n      0x20\n      dup2\n      dup4\n      sub\n      sub\n      dup2\n      mstore\n      swap1\n      0x40\n      mstore\n      swap1\n      not(0xffffffffffffffffffffffffffffffffffffffffffffffffffffffff)\n      and\n      0x20\n      dup3\n      add\n      dup1\n      mload\n      0xffffffffffffffffffffffffffffffffffffffffffffffffffffffff\n      dup4\n      dup2\n      dup4\n      and\n      or\n      dup4\n      mstore\n      pop\n      pop\n      pop\n      pop\n        /* \"@openzeppelin/contracts/token/ERC20/utils/SafeERC20.sol\":1023:1042  _callOptionalReturn */\n      tag_163\n        /* \"@openzeppelin/contracts/token/ERC20/utils/SafeERC20.sol\":1023:1109  _callOptionalReturn(token, abi.encodeWithSelector(token.transfer.selector, to, value)) */\n      jump\t// in\n    tag_160:\n        /* \"@openzeppelin/contracts/token/ERC20/utils/SafeERC20.sol\":941:1116  function safeTransfer(IERC20 token, address to, uint256 value) internal {... */\n      pop\n      pop\n      pop\n      jump\t// out\n        /* \"@openzeppelin/contracts/token/ERC20/utils/SafeERC20.sol\":5196:5838  function _callOptionalReturn(IERC20 token, bytes memory data) private {... */\n    tag_163:\n        /* \"@openzeppelin/contracts/token/ERC20/utils/SafeERC20.sol\":5615:5638  bytes memory returndata */\n      0x00\n        /* \"@openzeppelin/contracts/token/ERC20/utils/SafeERC20.sol\":5641:5710  address(token).functionCall(data, \"SafeERC20: low-level call failed\") */\n      tag_165\n        /* \"@openzeppelin/contracts/token/ERC20/utils/SafeERC20.sol\":5669:5673  data */\n      dup3\n        /* \"@openzeppelin/contracts/token/ERC20/utils/SafeERC20.sol\":5641:5710  address(token).functionCall(data, \"SafeERC20: low-level call failed\") */\n      mload(0x40)\n      dup1\n      0x40\n      add\n      0x40\n      mstore\n      dup1\n      0x20\n      dup2\n      mstore\n      0x20\n      add\n      0x5361666545524332303a206c6f772d6c6576656c2063616c6c206661696c6564\n      dup2\n      mstore\n      pop\n        /* \"@openzeppelin/contracts/token/ERC20/utils/SafeERC20.sol\":5649:5654  token */\n      dup6\n        /* \"@openzeppelin/contracts/token/ERC20/utils/SafeERC20.sol\":5641:5668  address(token).functionCall */\n      0xffffffffffffffffffffffffffffffffffffffff\n      and\n      tag_166\n      swap1\n        /* \"@openzeppelin/contracts/token/ERC20/utils/SafeERC20.sol\":5641:5710  address(token).functionCall(data, \"SafeERC20: low-level call failed\") */\n      swap3\n      swap2\n      swap1\n      0xffffffff\n      and\n      jump\t// in\n    tag_165:\n        /* \"@openzeppelin/contracts/token/ERC20/utils/SafeERC20.sol\":5615:5710  bytes memory returndata = address(token).functionCall(data, \"SafeERC20: low-level call failed\") */\n      swap1\n      pop\n        /* \"@openzeppelin/contracts/token/ERC20/utils/SafeERC20.sol\":5749:5750  0 */\n      0x00\n        /* \"@openzeppelin/contracts/token/ERC20/utils/SafeERC20.sol\":5728:5738  returndata */\n      dup2\n        /* \"@openzeppelin/contracts/token/ERC20/utils/SafeERC20.sol\":5728:5745  returndata.length */\n      mload\n        /* \"@openzeppelin/contracts/token/ERC20/utils/SafeERC20.sol\":5728:5750  returndata.length == 0 */\n      eq\n        /* \"@openzeppelin/contracts/token/ERC20/utils/SafeERC20.sol\":5728:5784  returndata.length == 0 || abi.decode(returndata, (bool)) */\n      dup1\n      tag_167\n      jumpi\n      pop\n        /* \"@openzeppelin/contracts/token/ERC20/utils/SafeERC20.sol\":5765:5775  returndata */\n      dup1\n        /* \"@openzeppelin/contracts/token/ERC20/utils/SafeERC20.sol\":5754:5784  abi.decode(returndata, (bool)) */\n      dup1\n      0x20\n      add\n      swap1\n      mload\n      dup2\n      add\n      swap1\n      tag_168\n      swap2\n      swap1\n      tag_169\n      jump\t// in\n    tag_168:\n        /* \"@openzeppelin/contracts/token/ERC20/utils/SafeERC20.sol\":5728:5784  returndata.length == 0 || abi.decode(returndata, (bool)) */\n    tag_167:\n        /* \"@openzeppelin/contracts/token/ERC20/utils/SafeERC20.sol\":5720:5831  require(returndata.length == 0 || abi.decode(returndata, (bool)), \"SafeERC20: ERC20 operation did not succeed\") */\n      tag_170\n      jumpi\n      mload(0x40)\n      0x08c379a000000000000000000000000000000000000000000000000000000000\n      dup2\n      mstore\n      0x04\n      add\n      tag_171\n      swap1\n      tag_172\n      jump\t// in\n    tag_171:\n      mload(0x40)\n      dup1\n      swap2\n      sub\n      swap1\n      revert\n    tag_170:\n        /* \"@openzeppelin/contracts/token/ERC20/utils/SafeERC20.sol\":5266:5838  {... */\n      pop\n        /* \"@openzeppelin/contracts/token/ERC20/utils/SafeERC20.sol\":5196:5838  function _callOptionalReturn(IERC20 token, bytes memory data) private {... */\n      pop\n      pop\n      jump\t// out\n        /* \"@openzeppelin/contracts/utils/Address.sol\":4108:4331  function functionCall(... */\n    tag_166:\n        /* \"@openzeppelin/contracts/utils/Address.sol\":4241:4253  bytes memory */\n      0x60\n        /* \"@openzeppelin/contracts/utils/Address.sol\":4272:4324  functionCallWithValue(target, data, 0, errorMessage) */\n      tag_174\n        /* \"@openzeppelin/contracts/utils/Address.sol\":4294:4300  target */\n      dup5\n        /* \"@openzeppelin/contracts/utils/Address.sol\":4302:4306  data */\n      dup5\n        /* \"@openzeppelin/contracts/utils/Address.sol\":4308:4309  0 */\n      0x00\n        /* \"@openzeppelin/contracts/utils/Address.sol\":4311:4323  errorMessage */\n      dup6\n        /* \"@openzeppelin/contracts/utils/Address.sol\":4272:4293  functionCallWithValue */\n      tag_175\n        /* \"@openzeppelin/contracts/utils/Address.sol\":4272:4324  functionCallWithValue(target, data, 0, errorMessage) */\n      jump\t// in\n    tag_174:\n        /* \"@openzeppelin/contracts/utils/Address.sol\":4265:4324  return functionCallWithValue(target, data, 0, errorMessage) */\n      swap1\n      pop\n        /* \"@openzeppelin/contracts/utils/Address.sol\":4108:4331  function functionCall(... */\n      swap4\n      swap3\n      pop\n      pop\n      pop\n      jump\t// out\n        /* \"@openzeppelin/contracts/utils/Address.sol\":5165:5611  function functionCallWithValue(... */\n    tag_175:\n        /* \"@openzeppelin/contracts/utils/Address.sol\":5330:5342  bytes memory */\n      0x60\n        /* \"@openzeppelin/contracts/utils/Address.sol\":5387:5392  value */\n      dup3\n        /* \"@openzeppelin/contracts/utils/Address.sol\":5362:5383  address(this).balance */\n      selfbalance\n        /* \"@openzeppelin/contracts/utils/Address.sol\":5362:5392  address(this).balance >= value */\n      lt\n      iszero\n        /* \"@openzeppelin/contracts/utils/Address.sol\":5354:5435  require(address(this).balance >= value, \"Address: insufficient balance for call\") */\n      tag_177\n      jumpi\n      mload(0x40)\n      0x08c379a000000000000000000000000000000000000000000000000000000000\n      dup2\n      mstore\n      0x04\n      add\n      tag_178\n      swap1\n      tag_179\n      jump\t// in\n    tag_178:\n      mload(0x40)\n      dup1\n      swap2\n      sub\n      swap1\n      revert\n    tag_177:\n        /* \"@openzeppelin/contracts/utils/Address.sol\":5446:5458  bool success */\n      0x00\n        /* \"@openzeppelin/contracts/utils/Address.sol\":5460:5483  bytes memory returndata */\n      dup1\n        /* \"@openzeppelin/contracts/utils/Address.sol\":5487:5493  target */\n      dup7\n        /* \"@openzeppelin/contracts/utils/Address.sol\":5487:5498  target.call */\n      0xffffffffffffffffffffffffffffffffffffffff\n      and\n        /* \"@openzeppelin/contracts/utils/Address.sol\":5506:5511  value */\n      dup6\n        /* \"@openzeppelin/contracts/utils/Address.sol\":5513:5517  data */\n      dup8\n        /* \"@openzeppelin/contracts/utils/Address.sol\":5487:5518  target.call{value: value}(data) */\n      mload(0x40)\n      tag_180\n      swap2\n      swap1\n      tag_181\n      jump\t// in\n    tag_180:\n      0x00\n      mload(0x40)\n      dup1\n      dup4\n      sub\n      dup2\n      dup6\n      dup8\n      gas\n      call\n      swap3\n      pop\n      pop\n      pop\n      returndatasize\n      dup1\n      0x00\n      dup2\n      eq\n      tag_184\n      jumpi\n      mload(0x40)\n      swap2\n      pop\n      and(add(returndatasize, 0x3f), not(0x1f))\n      dup3\n      add\n      0x40\n      mstore\n      returndatasize\n      dup3\n      mstore\n      returndatasize\n      0x00\n      0x20\n      dup5\n      add\n      returndatacopy\n      jump(tag_183)\n    tag_184:\n      0x60\n      swap2\n      pop\n    tag_183:\n      pop\n        /* \"@openzeppelin/contracts/utils/Address.sol\":5445:5518  (bool success, bytes memory returndata) = target.call{value: value}(data) */\n      swap2\n      pop\n      swap2\n      pop\n        /* \"@openzeppelin/contracts/utils/Address.sol\":5535:5604  verifyCallResultFromTarget(target, success, returndata, errorMessage) */\n      tag_185\n        /* \"@openzeppelin/contracts/utils/Address.sol\":5562:5568  target */\n      dup8\n        /* \"@openzeppelin/contracts/utils/Address.sol\":5570:5577  success */\n      dup4\n        /* \"@openzeppelin/contracts/utils/Address.sol\":5579:5589  returndata */\n      dup4\n        /* \"@openzeppelin/contracts/utils/Address.sol\":5591:5603  errorMessage */\n      dup8\n        /* \"@openzeppelin/contracts/utils/Address.sol\":5535:5561  verifyCallResultFromTarget */\n      tag_186\n        /* \"@openzeppelin/contracts/utils/Address.sol\":5535:5604  verifyCallResultFromTarget(target, success, returndata, errorMessage) */\n      jump\t// in\n    tag_185:\n        /* \"@openzeppelin/contracts/utils/Address.sol\":5528:5604  return verifyCallResultFromTarget(target, success, returndata, errorMessage) */\n      swap3\n      pop\n      pop\n      pop\n        /* \"@openzeppelin/contracts/utils/Address.sol\":5165:5611  function functionCallWithValue(... */\n      swap5\n      swap4\n      pop\n      pop\n      pop\n      pop\n      jump\t// out\n        /* \"@openzeppelin/contracts/utils/Address.sol\":7671:8299  function verifyCallResultFromTarget(... */\n    tag_186:\n        /* \"@openzeppelin/contracts/utils/Address.sol\":7851:7863  bytes memory */\n      0x60\n        /* \"@openzeppelin/contracts/utils/Address.sol\":7879:7886  success */\n      dup4\n        /* \"@openzeppelin/contracts/utils/Address.sol\":7875:8293  if (success) {... */\n      iszero\n      tag_188\n      jumpi\n        /* \"@openzeppelin/contracts/utils/Address.sol\":7927:7928  0 */\n      0x00\n        /* \"@openzeppelin/contracts/utils/Address.sol\":7906:7916  returndata */\n      dup4\n        /* \"@openzeppelin/contracts/utils/Address.sol\":7906:7923  returndata.length */\n      mload\n        /* \"@openzeppelin/contracts/utils/Address.sol\":7906:7928  returndata.length == 0 */\n      sub\n        /* \"@openzeppelin/contracts/utils/Address.sol\":7902:8188  if (returndata.length == 0) {... */\n      tag_189\n      jumpi\n        /* \"@openzeppelin/contracts/utils/Address.sol\":8121:8139  isContract(target) */\n      tag_190\n        /* \"@openzeppelin/contracts/utils/Address.sol\":8132:8138  target */\n      dup6\n        /* \"@openzeppelin/contracts/utils/Address.sol\":8121:8131  isContract */\n      tag_191\n        /* \"@openzeppelin/contracts/utils/Address.sol\":8121:8139  isContract(target) */\n      jump\t// in\n    tag_190:\n        /* \"@openzeppelin/contracts/utils/Address.sol\":8113:8173  require(isContract(target), \"Address: call to non-contract\") */\n      tag_192\n      jumpi\n      mload(0x40)\n      0x08c379a000000000000000000000000000000000000000000000000000000000\n      dup2\n      mstore\n      0x04\n      add\n      tag_193\n      swap1\n      tag_194\n      jump\t// in\n    tag_193:\n      mload(0x40)\n      dup1\n      swap2\n      sub\n      swap1\n      revert\n    tag_192:\n        /* \"@openzeppelin/contracts/utils/Address.sol\":7902:8188  if (returndata.length == 0) {... */\n    tag_189:\n        /* \"@openzeppelin/contracts/utils/Address.sol\":8208:8218  returndata */\n      dup3\n        /* \"@openzeppelin/contracts/utils/Address.sol\":8201:8218  return returndata */\n      swap1\n      pop\n      jump(tag_187)\n        /* \"@openzeppelin/contracts/utils/Address.sol\":7875:8293  if (success) {... */\n    tag_188:\n        /* \"@openzeppelin/contracts/utils/Address.sol\":8249:8282  _revert(returndata, errorMessage) */\n      tag_196\n        /* \"@openzeppelin/contracts/utils/Address.sol\":8257:8267  returndata */\n      dup4\n        /* \"@openzeppelin/contracts/utils/Address.sol\":8269:8281  errorMessage */\n      dup4\n        /* \"@openzeppelin/contracts/utils/Address.sol\":8249:8256  _revert */\n      tag_197\n        /* \"@openzeppelin/contracts/utils/Address.sol\":8249:8282  _revert(returndata, errorMessage) */\n      jump\t// in\n    tag_196:\n        /* \"@openzeppelin/contracts/utils/Address.sol\":7671:8299  function verifyCallResultFromTarget(... */\n    tag_187:\n      swap5\n      swap4\n      pop\n      pop\n      pop\n      pop\n      jump\t// out\n        /* \"@openzeppelin/contracts/utils/Address.sol\":1412:1732  function isContract(address account) internal view returns (bool) {... */\n    tag_191:\n        /* \"@openzeppelin/contracts/utils/Address.sol\":1472:1476  bool */\n      0x00\n        /* \"@openzeppelin/contracts/utils/Address.sol\":1724:1725  0 */\n      dup1\n        /* \"@openzeppelin/contracts/utils/Address.sol\":1702:1709  account */\n      dup3\n        /* \"@openzeppelin/contracts/utils/Address.sol\":1702:1721  account.code.length */\n      0xffffffffffffffffffffffffffffffffffffffff\n      and\n      extcodesize\n        /* \"@openzeppelin/contracts/utils/Address.sol\":1702:1725  account.code.length > 0 */\n      gt\n        /* \"@openzeppelin/contracts/utils/Address.sol\":1695:1725  return account.code.length > 0 */\n      swap1\n      pop\n        /* \"@openzeppelin/contracts/utils/Address.sol\":1412:1732  function isContract(address account) internal view returns (bool) {... */\n      swap2\n      swap1\n      pop\n      jump\t// out\n        /* \"@openzeppelin/contracts/utils/Address.sol\":8821:9361  function _revert(bytes memory returndata, string memory errorMessage) private pure {... */\n    tag_197:\n        /* \"@openzeppelin/contracts/utils/Address.sol\":9000:9001  0 */\n      0x00\n        /* \"@openzeppelin/contracts/utils/Address.sol\":8980:8990  returndata */\n      dup3\n        /* \"@openzeppelin/contracts/utils/Address.sol\":8980:8997  returndata.length */\n      mload\n        /* \"@openzeppelin/contracts/utils/Address.sol\":8980:9001  returndata.length > 0 */\n      gt\n        /* \"@openzeppelin/contracts/utils/Address.sol\":8976:9355  if (returndata.length > 0) {... */\n      iszero\n      tag_200\n      jumpi\n        /* \"@openzeppelin/contracts/utils/Address.sol\":9208:9218  returndata */\n      dup2\n        /* \"@openzeppelin/contracts/utils/Address.sol\":9202:9219  mload(returndata) */\n      mload\n        /* \"@openzeppelin/contracts/utils/Address.sol\":9264:9279  returndata_size */\n      dup1\n        /* \"@openzeppelin/contracts/utils/Address.sol\":9251:9261  returndata */\n      dup4\n        /* \"@openzeppelin/contracts/utils/Address.sol\":9247:9249  32 */\n      0x20\n        /* \"@openzeppelin/contracts/utils/Address.sol\":9243:9262  add(32, returndata) */\n      add\n        /* \"@openzeppelin/contracts/utils/Address.sol\":9236:9280  revert(add(32, returndata), returndata_size) */\n      revert\n        /* \"@openzeppelin/contracts/utils/Address.sol\":8976:9355  if (returndata.length > 0) {... */\n    tag_200:\n        /* \"@openzeppelin/contracts/utils/Address.sol\":9331:9343  errorMessage */\n      dup1\n        /* \"@openzeppelin/contracts/utils/Address.sol\":9324:9344  revert(errorMessage) */\n      mload(0x40)\n      0x08c379a000000000000000000000000000000000000000000000000000000000\n      dup2\n      mstore\n      0x04\n      add\n      tag_202\n      swap2\n      swap1\n      tag_203\n      jump\t// in\n    tag_202:\n      mload(0x40)\n      dup1\n      swap2\n      sub\n      swap1\n      revert\n        /* \"#utility.yul\":7:97   */\n    tag_204:\n        /* \"#utility.yul\":41:48   */\n      0x00\n        /* \"#utility.yul\":84:89   */\n      dup2\n        /* \"#utility.yul\":77:90   */\n      iszero\n        /* \"#utility.yul\":70:91   */\n      iszero\n        /* \"#utility.yul\":59:91   */\n      swap1\n      pop\n        /* \"#utility.yul\":7:97   */\n      swap2\n      swap1\n      pop\n      jump\t// out\n        /* \"#utility.yul\":103:212   */\n    tag_205:\n        /* \"#utility.yul\":184:205   */\n      tag_255\n        /* \"#utility.yul\":199:204   */\n      dup2\n        /* \"#utility.yul\":184:205   */\n      tag_204\n      jump\t// in\n    tag_255:\n        /* \"#utility.yul\":179:182   */\n      dup3\n        /* \"#utility.yul\":172:206   */\n      mstore\n        /* \"#utility.yul\":103:212   */\n      pop\n      pop\n      jump\t// out\n        /* \"#utility.yul\":218:428   */\n    tag_29:\n        /* \"#utility.yul\":305:309   */\n      0x00\n        /* \"#utility.yul\":343:345   */\n      0x20\n        /* \"#utility.yul\":332:341   */\n      dup3\n        /* \"#utility.yul\":328:346   */\n      add\n        /* \"#utility.yul\":320:346   */\n      swap1\n      pop\n        /* \"#utility.yul\":356:421   */\n      tag_257\n        /* \"#utility.yul\":418:419   */\n      0x00\n        /* \"#utility.yul\":407:416   */\n      dup4\n        /* \"#utility.yul\":403:420   */\n      add\n        /* \"#utility.yul\":394:400   */\n      dup5\n        /* \"#utility.yul\":356:421   */\n      tag_205\n      jump\t// in\n    tag_257:\n        /* \"#utility.yul\":218:428   */\n      swap3\n      swap2\n      pop\n      pop\n      jump\t// out\n        /* \"#utility.yul\":434:511   */\n    tag_206:\n        /* \"#utility.yul\":471:478   */\n      0x00\n        /* \"#utility.yul\":500:505   */\n      dup2\n        /* \"#utility.yul\":489:505   */\n      swap1\n      pop\n        /* \"#utility.yul\":434:511   */\n      swap2\n      swap1\n      pop\n      jump\t// out\n        /* \"#utility.yul\":517:635   */\n    tag_207:\n        /* \"#utility.yul\":604:628   */\n      tag_260\n        /* \"#utility.yul\":622:627   */\n      dup2\n        /* \"#utility.yul\":604:628   */\n      tag_206\n      jump\t// in\n    tag_260:\n        /* \"#utility.yul\":599:602   */\n      dup3\n        /* \"#utility.yul\":592:629   */\n      mstore\n        /* \"#utility.yul\":517:635   */\n      pop\n      pop\n      jump\t// out\n        /* \"#utility.yul\":641:863   */\n    tag_34:\n        /* \"#utility.yul\":734:738   */\n      0x00\n        /* \"#utility.yul\":772:774   */\n      0x20\n        /* \"#utility.yul\":761:770   */\n      dup3\n        /* \"#utility.yul\":757:775   */\n      add\n        /* \"#utility.yul\":749:775   */\n      swap1\n      pop\n        /* \"#utility.yul\":785:856   */\n      tag_262\n        /* \"#utility.yul\":853:854   */\n      0x00\n        /* \"#utility.yul\":842:851   */\n      dup4\n        /* \"#utility.yul\":838:855   */\n      add\n        /* \"#utility.yul\":829:835   */\n      dup5\n        /* \"#utility.yul\":785:856   */\n      tag_207\n      jump\t// in\n    tag_262:\n        /* \"#utility.yul\":641:863   */\n      swap3\n      swap2\n      pop\n      pop\n      jump\t// out\n        /* \"#utility.yul\":869:995   */\n    tag_208:\n        /* \"#utility.yul\":906:913   */\n      0x00\n        /* \"#utility.yul\":946:988   */\n      0xffffffffffffffffffffffffffffffffffffffff\n        /* \"#utility.yul\":939:944   */\n      dup3\n        /* \"#utility.yul\":935:989   */\n      and\n        /* \"#utility.yul\":924:989   */\n      swap1\n      pop\n        /* \"#utility.yul\":869:995   */\n      swap2\n      swap1\n      pop\n      jump\t// out\n        /* \"#utility.yul\":1001:1105   */\n    tag_209:\n        /* \"#utility.yul\":1046:1053   */\n      0x00\n        /* \"#utility.yul\":1075:1099   */\n      tag_265\n        /* \"#utility.yul\":1093:1098   */\n      dup3\n        /* \"#utility.yul\":1075:1099   */\n      tag_208\n      jump\t// in\n    tag_265:\n        /* \"#utility.yul\":1064:1099   */\n      swap1\n      pop\n        /* \"#utility.yul\":1001:1105   */\n      swap2\n      swap1\n      pop\n      jump\t// out\n        /* \"#utility.yul\":1111:1253   */\n    tag_210:\n        /* \"#utility.yul\":1214:1246   */\n      tag_267\n        /* \"#utility.yul\":1240:1245   */\n      dup2\n        /* \"#utility.yul\":1214:1246   */\n      tag_209\n      jump\t// in\n    tag_267:\n        /* \"#utility.yul\":1209:1212   */\n      dup3\n        /* \"#utility.yul\":1202:1247   */\n      mstore\n        /* \"#utility.yul\":1111:1253   */\n      pop\n      pop\n      jump\t// out\n        /* \"#utility.yul\":1259:1513   */\n    tag_54:\n        /* \"#utility.yul\":1368:1372   */\n      0x00\n        /* \"#utility.yul\":1406:1408   */\n      0x20\n        /* \"#utility.yul\":1395:1404   */\n      dup3\n        /* \"#utility.yul\":1391:1409   */\n      add\n        /* \"#utility.yul\":1383:1409   */\n      swap1\n      pop\n        /* \"#utility.yul\":1419:1506   */\n      tag_269\n        /* \"#utility.yul\":1503:1504   */\n      0x00\n        /* \"#utility.yul\":1492:1501   */\n      dup4\n        /* \"#utility.yul\":1488:1505   */\n      add\n        /* \"#utility.yul\":1479:1485   */\n      dup5\n        /* \"#utility.yul\":1419:1506   */\n      tag_210\n      jump\t// in\n    tag_269:\n        /* \"#utility.yul\":1259:1513   */\n      swap3\n      swap2\n      pop\n      pop\n      jump\t// out\n        /* \"#utility.yul\":1600:1717   */\n    tag_212:\n        /* \"#utility.yul\":1709:1710   */\n      0x00\n        /* \"#utility.yul\":1706:1707   */\n      dup1\n        /* \"#utility.yul\":1699:1711   */\n      revert\n        /* \"#utility.yul\":1846:1942   */\n    tag_214:\n        /* \"#utility.yul\":1883:1890   */\n      0x00\n        /* \"#utility.yul\":1912:1936   */\n      tag_274\n        /* \"#utility.yul\":1930:1935   */\n      dup3\n        /* \"#utility.yul\":1912:1936   */\n      tag_208\n      jump\t// in\n    tag_274:\n        /* \"#utility.yul\":1901:1936   */\n      swap1\n      pop\n        /* \"#utility.yul\":1846:1942   */\n      swap2\n      swap1\n      pop\n      jump\t// out\n        /* \"#utility.yul\":1948:2070   */\n    tag_215:\n        /* \"#utility.yul\":2021:2045   */\n      tag_276\n        /* \"#utility.yul\":2039:2044   */\n      dup2\n        /* \"#utility.yul\":2021:2045   */\n      tag_214\n      jump\t// in\n    tag_276:\n        /* \"#utility.yul\":2014:2019   */\n      dup2\n        /* \"#utility.yul\":2011:2046   */\n      eq\n        /* \"#utility.yul\":2001:2064   */\n      tag_277\n      jumpi\n        /* \"#utility.yul\":2060:2061   */\n      0x00\n        /* \"#utility.yul\":2057:2058   */\n      dup1\n        /* \"#utility.yul\":2050:2062   */\n      revert\n        /* \"#utility.yul\":2001:2064   */\n    tag_277:\n        /* \"#utility.yul\":1948:2070   */\n      pop\n      jump\t// out\n        /* \"#utility.yul\":2076:2215   */\n    tag_216:\n        /* \"#utility.yul\":2122:2127   */\n      0x00\n        /* \"#utility.yul\":2160:2166   */\n      dup2\n        /* \"#utility.yul\":2147:2167   */\n      calldataload\n        /* \"#utility.yul\":2138:2167   */\n      swap1\n      pop\n        /* \"#utility.yul\":2176:2209   */\n      tag_279\n        /* \"#utility.yul\":2203:2208   */\n      dup2\n        /* \"#utility.yul\":2176:2209   */\n      tag_215\n      jump\t// in\n    tag_279:\n        /* \"#utility.yul\":2076:2215   */\n      swap3\n      swap2\n      pop\n      pop\n      jump\t// out\n        /* \"#utility.yul\":2221:2550   */\n    tag_65:\n        /* \"#utility.yul\":2280:2286   */\n      0x00\n        /* \"#utility.yul\":2329:2331   */\n      0x20\n        /* \"#utility.yul\":2317:2326   */\n      dup3\n        /* \"#utility.yul\":2308:2315   */\n      dup5\n        /* \"#utility.yul\":2304:2327   */\n      sub\n        /* \"#utility.yul\":2300:2332   */\n      slt\n        /* \"#utility.yul\":2297:2416   */\n      iszero\n      tag_281\n      jumpi\n        /* \"#utility.yul\":2335:2414   */\n      tag_282\n      tag_212\n      jump\t// in\n    tag_282:\n        /* \"#utility.yul\":2297:2416   */\n    tag_281:\n        /* \"#utility.yul\":2455:2456   */\n      0x00\n        /* \"#utility.yul\":2480:2533   */\n      tag_283\n        /* \"#utility.yul\":2525:2532   */\n      dup5\n        /* \"#utility.yul\":2516:2522   */\n      dup3\n        /* \"#utility.yul\":2505:2514   */\n      dup6\n        /* \"#utility.yul\":2501:2523   */\n      add\n        /* \"#utility.yul\":2480:2533   */\n      tag_216\n      jump\t// in\n    tag_283:\n        /* \"#utility.yul\":2470:2533   */\n      swap2\n      pop\n        /* \"#utility.yul\":2426:2543   */\n      pop\n        /* \"#utility.yul\":2221:2550   */\n      swap3\n      swap2\n      pop\n      pop\n      jump\t// out\n        /* \"#utility.yul\":2556:2616   */\n    tag_217:\n        /* \"#utility.yul\":2584:2587   */\n      0x00\n        /* \"#utility.yul\":2605:2610   */\n      dup2\n        /* \"#utility.yul\":2598:2610   */\n      swap1\n      pop\n        /* \"#utility.yul\":2556:2616   */\n      swap2\n      swap1\n      pop\n      jump\t// out\n        /* \"#utility.yul\":2622:2764   */\n    tag_218:\n        /* \"#utility.yul\":2672:2681   */\n      0x00\n        /* \"#utility.yul\":2705:2758   */\n      tag_286\n        /* \"#utility.yul\":2723:2757   */\n      tag_287\n        /* \"#utility.yul\":2732:2756   */\n      tag_288\n        /* \"#utility.yul\":2750:2755   */\n      dup5\n        /* \"#utility.yul\":2732:2756   */\n      tag_208\n      jump\t// in\n    tag_288:\n        /* \"#utility.yul\":2723:2757   */\n      tag_217\n      jump\t// in\n    tag_287:\n        /* \"#utility.yul\":2705:2758   */\n      tag_208\n      jump\t// in\n    tag_286:\n        /* \"#utility.yul\":2692:2758   */\n      swap1\n      pop\n        /* \"#utility.yul\":2622:2764   */\n      swap2\n      swap1\n      pop\n      jump\t// out\n        /* \"#utility.yul\":2770:2896   */\n    tag_219:\n        /* \"#utility.yul\":2820:2829   */\n      0x00\n        /* \"#utility.yul\":2853:2890   */\n      tag_290\n        /* \"#utility.yul\":2884:2889   */\n      dup3\n        /* \"#utility.yul\":2853:2890   */\n      tag_218\n      jump\t// in\n    tag_290:\n        /* \"#utility.yul\":2840:2890   */\n      swap1\n      pop\n        /* \"#utility.yul\":2770:2896   */\n      swap2\n      swap1\n      pop\n      jump\t// out\n        /* \"#utility.yul\":2902:3042   */\n    tag_220:\n        /* \"#utility.yul\":2966:2975   */\n      0x00\n        /* \"#utility.yul\":2999:3036   */\n      tag_292\n        /* \"#utility.yul\":3030:3035   */\n      dup3\n        /* \"#utility.yul\":2999:3036   */\n      tag_219\n      jump\t// in\n    tag_292:\n        /* \"#utility.yul\":2986:3036   */\n      swap1\n      pop\n        /* \"#utility.yul\":2902:3042   */\n      swap2\n      swap1\n      pop\n      jump\t// out\n        /* \"#utility.yul\":3048:3207   */\n    tag_221:\n        /* \"#utility.yul\":3149:3200   */\n      tag_294\n        /* \"#utility.yul\":3194:3199   */\n      dup2\n        /* \"#utility.yul\":3149:3200   */\n      tag_220\n      jump\t// in\n    tag_294:\n        /* \"#utility.yul\":3144:3147   */\n      dup3\n        /* \"#utility.yul\":3137:3201   */\n      mstore\n        /* \"#utility.yul\":3048:3207   */\n      pop\n      pop\n      jump\t// out\n        /* \"#utility.yul\":3213:3463   */\n    tag_70:\n        /* \"#utility.yul\":3320:3324   */\n      0x00\n        /* \"#utility.yul\":3358:3360   */\n      0x20\n        /* \"#utility.yul\":3347:3356   */\n      dup3\n        /* \"#utility.yul\":3343:3361   */\n      add\n        /* \"#utility.yul\":3335:3361   */\n      swap1\n      pop\n        /* \"#utility.yul\":3371:3456   */\n      tag_296\n        /* \"#utility.yul\":3453:3454   */\n      0x00\n        /* \"#utility.yul\":3442:3451   */\n      dup4\n        /* \"#utility.yul\":3438:3455   */\n      add\n        /* \"#utility.yul\":3429:3435   */\n      dup5\n        /* \"#utility.yul\":3371:3456   */\n      tag_221\n      jump\t// in\n    tag_296:\n        /* \"#utility.yul\":3213:3463   */\n      swap3\n      swap2\n      pop\n      pop\n      jump\t// out\n        /* \"#utility.yul\":3469:3801   */\n    tag_86:\n        /* \"#utility.yul\":3590:3594   */\n      0x00\n        /* \"#utility.yul\":3628:3630   */\n      0x40\n        /* \"#utility.yul\":3617:3626   */\n      dup3\n        /* \"#utility.yul\":3613:3631   */\n      add\n        /* \"#utility.yul\":3605:3631   */\n      swap1\n      pop\n        /* \"#utility.yul\":3641:3712   */\n      tag_298\n        /* \"#utility.yul\":3709:3710   */\n      0x00\n        /* \"#utility.yul\":3698:3707   */\n      dup4\n        /* \"#utility.yul\":3694:3711   */\n      add\n        /* \"#utility.yul\":3685:3691   */\n      dup6\n        /* \"#utility.yul\":3641:3712   */\n      tag_207\n      jump\t// in\n    tag_298:\n        /* \"#utility.yul\":3722:3794   */\n      tag_299\n        /* \"#utility.yul\":3790:3792   */\n      0x20\n        /* \"#utility.yul\":3779:3788   */\n      dup4\n        /* \"#utility.yul\":3775:3793   */\n      add\n        /* \"#utility.yul\":3766:3772   */\n      dup5\n        /* \"#utility.yul\":3722:3794   */\n      tag_207\n      jump\t// in\n    tag_299:\n        /* \"#utility.yul\":3469:3801   */\n      swap4\n      swap3\n      pop\n      pop\n      pop\n      jump\t// out\n        /* \"#utility.yul\":3807:3976   */\n    tag_222:\n        /* \"#utility.yul\":3891:3902   */\n      0x00\n        /* \"#utility.yul\":3925:3931   */\n      dup3\n        /* \"#utility.yul\":3920:3923   */\n      dup3\n        /* \"#utility.yul\":3913:3932   */\n      mstore\n        /* \"#utility.yul\":3965:3969   */\n      0x20\n        /* \"#utility.yul\":3960:3963   */\n      dup3\n        /* \"#utility.yul\":3956:3970   */\n      add\n        /* \"#utility.yul\":3941:3970   */\n      swap1\n      pop\n        /* \"#utility.yul\":3807:3976   */\n      swap3\n      swap2\n      pop\n      pop\n      jump\t// out\n        /* \"#utility.yul\":3982:4164   */\n    tag_223:\n        /* \"#utility.yul\":4122:4156   */\n      0x46696e616c697a61626c6543726f776473616c653a206e6f7420636c6f736564\n        /* \"#utility.yul\":4118:4119   */\n      0x00\n        /* \"#utility.yul\":4110:4116   */\n      dup3\n        /* \"#utility.yul\":4106:4120   */\n      add\n        /* \"#utility.yul\":4099:4157   */\n      mstore\n        /* \"#utility.yul\":3982:4164   */\n      pop\n      jump\t// out\n        /* \"#utility.yul\":4170:4536   */\n    tag_224:\n        /* \"#utility.yul\":4312:4315   */\n      0x00\n        /* \"#utility.yul\":4333:4400   */\n      tag_303\n        /* \"#utility.yul\":4397:4399   */\n      0x20\n        /* \"#utility.yul\":4392:4395   */\n      dup4\n        /* \"#utility.yul\":4333:4400   */\n      tag_222\n      jump\t// in\n    tag_303:\n        /* \"#utility.yul\":4326:4400   */\n      swap2\n      pop\n        /* \"#utility.yul\":4409:4502   */\n      tag_304\n        /* \"#utility.yul\":4498:4501   */\n      dup3\n        /* \"#utility.yul\":4409:4502   */\n      tag_223\n      jump\t// in\n    tag_304:\n        /* \"#utility.yul\":4527:4529   */\n      0x20\n        /* \"#utility.yul\":4522:4525   */\n      dup3\n        /* \"#utility.yul\":4518:4530   */\n      add\n        /* \"#utility.yul\":4511:4530   */\n      swap1\n      pop\n        /* \"#utility.yul\":4170:4536   */\n      swap2\n      swap1\n      pop\n      jump\t// out\n        /* \"#utility.yul\":4542:4961   */\n    tag_105:\n        /* \"#utility.yul\":4708:4712   */\n      0x00\n        /* \"#utility.yul\":4746:4748   */\n      0x20\n        /* \"#utility.yul\":4735:4744   */\n      dup3\n        /* \"#utility.yul\":4731:4749   */\n      add\n        /* \"#utility.yul\":4723:4749   */\n      swap1\n      pop\n        /* \"#utility.yul\":4795:4804   */\n      dup2\n        /* \"#utility.yul\":4789:4793   */\n      dup2\n        /* \"#utility.yul\":4785:4805   */\n      sub\n        /* \"#utility.yul\":4781:4782   */\n      0x00\n        /* \"#utility.yul\":4770:4779   */\n      dup4\n        /* \"#utility.yul\":4766:4783   */\n      add\n        /* \"#utility.yul\":4759:4806   */\n      mstore\n        /* \"#utility.yul\":4823:4954   */\n      tag_306\n        /* \"#utility.yul\":4949:4953   */\n      dup2\n        /* \"#utility.yul\":4823:4954   */\n      tag_224\n      jump\t// in\n    tag_306:\n        /* \"#utility.yul\":4815:4954   */\n      swap1\n      pop\n        /* \"#utility.yul\":4542:4961   */\n      swap2\n      swap1\n      pop\n      jump\t// out\n        /* \"#utility.yul\":4967:5148   */\n    tag_225:\n        /* \"#utility.yul\":5107:5140   */\n      0x5265656e7472616e637947756172643a207265656e7472616e742063616c6c00\n        /* \"#utility.yul\":5103:5104   */\n      0x00\n        /* \"#utility.yul\":5095:5101   */\n      dup3\n        /* \"#utility.yul\":5091:5105   */\n      add\n        /* \"#utility.yul\":5084:5141   */\n      mstore\n        /* \"#utility.yul\":4967:5148   */\n      pop\n      jump\t// out\n        /* \"#utility.yul\":5154:5520   */\n    tag_226:\n        /* \"#utility.yul\":5296:5299   */\n      0x00\n        /* \"#utility.yul\":5317:5384   */\n      tag_309\n        /* \"#utility.yul\":5381:5383   */\n      0x1f\n        /* \"#utility.yul\":5376:5379   */\n      dup4\n        /* \"#utility.yul\":5317:5384   */\n      tag_222\n      jump\t// in\n    tag_309:\n        /* \"#utility.yul\":5310:5384   */\n      swap2\n      pop\n        /* \"#utility.yul\":5393:5486   */\n      tag_310\n        /* \"#utility.yul\":5482:5485   */\n      dup3\n        /* \"#utility.yul\":5393:5486   */\n      tag_225\n      jump\t// in\n    tag_310:\n        /* \"#utility.yul\":5511:5513   */\n      0x20\n        /* \"#utility.yul\":5506:5509   */\n      dup3\n        /* \"#utility.yul\":5502:5514   */\n      add\n        /* \"#utility.yul\":5495:5514   */\n      swap1\n      pop\n        /* \"#utility.yul\":5154:5520   */\n      swap2\n      swap1\n      pop\n      jump\t// out\n        /* \"#utility.yul\":5526:5945   */\n    tag_115:\n        /* \"#utility.yul\":5692:5696   */\n      0x00\n        /* \"#utility.yul\":5730:5732   */\n      0x20\n        /* \"#utility.yul\":5719:5728   */\n      dup3\n        /* \"#utility.yul\":5715:5733   */\n      add\n        /* \"#utility.yul\":5707:5733   */\n      swap1\n      pop\n        /* \"#utility.yul\":5779:5788   */\n      dup2\n        /* \"#utility.yul\":5773:5777   */\n      dup2\n        /* \"#utility.yul\":5769:5789   */\n      sub\n        /* \"#utility.yul\":5765:5766   */\n      0x00\n        /* \"#utility.yul\":5754:5763   */\n      dup4\n        /* \"#utility.yul\":5750:5767   */\n      add\n        /* \"#utility.yul\":5743:5790   */\n      mstore\n        /* \"#utility.yul\":5807:5938   */\n      tag_312\n        /* \"#utility.yul\":5933:5937   */\n      dup2\n        /* \"#utility.yul\":5807:5938   */\n      tag_226\n      jump\t// in\n    tag_312:\n        /* \"#utility.yul\":5799:5938   */\n      swap1\n      pop\n        /* \"#utility.yul\":5526:5945   */\n      swap2\n      swap1\n      pop\n      jump\t// out\n        /* \"#utility.yul\":5951:6125   */\n    tag_227:\n        /* \"#utility.yul\":6091:6117   */\n      0x54696d656443726f776473616c653a206e6f74206f70656e0000000000000000\n        /* \"#utility.yul\":6087:6088   */\n      0x00\n        /* \"#utility.yul\":6079:6085   */\n      dup3\n        /* \"#utility.yul\":6075:6089   */\n      add\n        /* \"#utility.yul\":6068:6118   */\n      mstore\n        /* \"#utility.yul\":5951:6125   */\n      pop\n      jump\t// out\n        /* \"#utility.yul\":6131:6497   */\n    tag_228:\n        /* \"#utility.yul\":6273:6276   */\n      0x00\n        /* \"#utility.yul\":6294:6361   */\n      tag_315\n        /* \"#utility.yul\":6358:6360   */\n      0x18\n        /* \"#utility.yul\":6353:6356   */\n      dup4\n        /* \"#utility.yul\":6294:6361   */\n      tag_222\n      jump\t// in\n    tag_315:\n        /* \"#utility.yul\":6287:6361   */\n      swap2\n      pop\n        /* \"#utility.yul\":6370:6463   */\n      tag_316\n        /* \"#utility.yul\":6459:6462   */\n      dup3\n        /* \"#utility.yul\":6370:6463   */\n      tag_227\n      jump\t// in\n    tag_316:\n        /* \"#utility.yul\":6488:6490   */\n      0x20\n        /* \"#utility.yul\":6483:6486   */\n      dup3\n        /* \"#utility.yul\":6479:6491   */\n      add\n        /* \"#utility.yul\":6472:6491   */\n      swap1\n      pop\n        /* \"#utility.yul\":6131:6497   */\n      swap2\n      swap1\n      pop\n      jump\t// out\n        /* \"#utility.yul\":6503:6922   */\n    tag_120:\n        /* \"#utility.yul\":6669:6673   */\n      0x00\n        /* \"#utility.yul\":6707:6709   */\n      0x20\n        /* \"#utility.yul\":6696:6705   */\n      dup3\n        /* \"#utility.yul\":6692:6710   */\n      add\n        /* \"#utility.yul\":6684:6710   */\n      swap1\n      pop\n        /* \"#utility.yul\":6756:6765   */\n      dup2\n        /* \"#utility.yul\":6750:6754   */\n      dup2\n        /* \"#utility.yul\":6746:6766   */\n      sub\n        /* \"#utility.yul\":6742:6743   */\n      0x00\n        /* \"#utility.yul\":6731:6740   */\n      dup4\n        /* \"#utility.yul\":6727:6744   */\n      add\n        /* \"#utility.yul\":6720:6767   */\n      mstore\n        /* \"#utility.yul\":6784:6915   */\n      tag_318\n        /* \"#utility.yul\":6910:6914   */\n      dup2\n        /* \"#utility.yul\":6784:6915   */\n      tag_228\n      jump\t// in\n    tag_318:\n        /* \"#utility.yul\":6776:6915   */\n      swap1\n      pop\n        /* \"#utility.yul\":6503:6922   */\n      swap2\n      swap1\n      pop\n      jump\t// out\n        /* \"#utility.yul\":6928:7108   */\n    tag_229:\n        /* \"#utility.yul\":6976:7053   */\n      0x4e487b7100000000000000000000000000000000000000000000000000000000\n        /* \"#utility.yul\":6973:6974   */\n      0x00\n        /* \"#utility.yul\":6966:7054   */\n      mstore\n        /* \"#utility.yul\":7073:7077   */\n      0x11\n        /* \"#utility.yul\":7070:7071   */\n      0x04\n        /* \"#utility.yul\":7063:7078   */\n      mstore\n        /* \"#utility.yul\":7097:7101   */\n      0x24\n        /* \"#utility.yul\":7094:7095   */\n      0x00\n        /* \"#utility.yul\":7087:7102   */\n      revert\n        /* \"#utility.yul\":7114:7305   */\n    tag_129:\n        /* \"#utility.yul\":7154:7157   */\n      0x00\n        /* \"#utility.yul\":7173:7193   */\n      tag_321\n        /* \"#utility.yul\":7191:7192   */\n      dup3\n        /* \"#utility.yul\":7173:7193   */\n      tag_206\n      jump\t// in\n    tag_321:\n        /* \"#utility.yul\":7168:7193   */\n      swap2\n      pop\n        /* \"#utility.yul\":7207:7227   */\n      tag_322\n        /* \"#utility.yul\":7225:7226   */\n      dup4\n        /* \"#utility.yul\":7207:7227   */\n      tag_206\n      jump\t// in\n    tag_322:\n        /* \"#utility.yul\":7202:7227   */\n      swap3\n      pop\n        /* \"#utility.yul\":7250:7251   */\n      dup3\n        /* \"#utility.yul\":7247:7248   */\n      dup3\n        /* \"#utility.yul\":7243:7252   */\n      add\n        /* \"#utility.yul\":7236:7252   */\n      swap1\n      pop\n        /* \"#utility.yul\":7271:7274   */\n      dup1\n        /* \"#utility.yul\":7268:7269   */\n      dup3\n        /* \"#utility.yul\":7265:7275   */\n      gt\n        /* \"#utility.yul\":7262:7298   */\n      iszero\n      tag_323\n      jumpi\n        /* \"#utility.yul\":7278:7296   */\n      tag_324\n      tag_229\n      jump\t// in\n    tag_324:\n        /* \"#utility.yul\":7262:7298   */\n    tag_323:\n        /* \"#utility.yul\":7114:7305   */\n      swap3\n      swap2\n      pop\n      pop\n      jump\t// out\n        /* \"#utility.yul\":7311:7537   */\n    tag_230:\n        /* \"#utility.yul\":7451:7485   */\n      0x46696e616c697a61626c6543726f776473616c653a20616c7265616479206669\n        /* \"#utility.yul\":7447:7448   */\n      0x00\n        /* \"#utility.yul\":7439:7445   */\n      dup3\n        /* \"#utility.yul\":7435:7449   */\n      add\n        /* \"#utility.yul\":7428:7486   */\n      mstore\n        /* \"#utility.yul\":7520:7529   */\n      0x6e616c697a656400000000000000000000000000000000000000000000000000\n        /* \"#utility.yul\":7515:7517   */\n      0x20\n        /* \"#utility.yul\":7507:7513   */\n      dup3\n        /* \"#utility.yul\":7503:7518   */\n      add\n        /* \"#utility.yul\":7496:7530   */\n      mstore\n        /* \"#utility.yul\":7311:7537   */\n      pop\n      jump\t// out\n        /* \"#utility.yul\":7543:7909   */\n    tag_231:\n        /* \"#utility.yul\":7685:7688   */\n      0x00\n        /* \"#utility.yul\":7706:7773   */\n      tag_327\n        /* \"#utility.yul\":7770:7772   */\n      0x27\n        /* \"#utility.yul\":7765:7768   */\n      dup4\n        /* \"#utility.yul\":7706:7773   */\n      tag_222\n      jump\t// in\n    tag_327:\n        /* \"#utility.yul\":7699:7773   */\n      swap2\n      pop\n        /* \"#utility.yul\":7782:7875   */\n      tag_328\n        /* \"#utility.yul\":7871:7874   */\n      dup3\n        /* \"#utility.yul\":7782:7875   */\n      tag_230\n      jump\t// in\n    tag_328:\n        /* \"#utility.yul\":7900:7902   */\n      0x40\n        /* \"#utility.yul\":7895:7898   */\n      dup3\n        /* \"#utility.yul\":7891:7903   */\n      add\n        /* \"#utility.yul\":7884:7903   */\n      swap1\n      pop\n        /* \"#utility.yul\":7543:7909   */\n      swap2\n      swap1\n      pop\n      jump\t// out\n        /* \"#utility.yul\":7915:8334   */\n    tag_142:\n        /* \"#utility.yul\":8081:8085   */\n      0x00\n        /* \"#utility.yul\":8119:8121   */\n      0x20\n        /* \"#utility.yul\":8108:8117   */\n      dup3\n        /* \"#utility.yul\":8104:8122   */\n      add\n        /* \"#utility.yul\":8096:8122   */\n      swap1\n      pop\n        /* \"#utility.yul\":8168:8177   */\n      dup2\n        /* \"#utility.yul\":8162:8166   */\n      dup2\n        /* \"#utility.yul\":8158:8178   */\n      sub\n        /* \"#utility.yul\":8154:8155   */\n      0x00\n        /* \"#utility.yul\":8143:8152   */\n      dup4\n        /* \"#utility.yul\":8139:8156   */\n      add\n        /* \"#utility.yul\":8132:8179   */\n      mstore\n        /* \"#utility.yul\":8196:8327   */\n      tag_330\n        /* \"#utility.yul\":8322:8326   */\n      dup2\n        /* \"#utility.yul\":8196:8327   */\n      tag_231\n      jump\t// in\n    tag_330:\n        /* \"#utility.yul\":8188:8327   */\n      swap1\n      pop\n        /* \"#utility.yul\":7915:8334   */\n      swap2\n      swap1\n      pop\n      jump\t// out\n        /* \"#utility.yul\":8340:8569   */\n    tag_232:\n        /* \"#utility.yul\":8480:8514   */\n      0x43726f776473616c653a2062656e656669636961727920697320746865207a65\n        /* \"#utility.yul\":8476:8477   */\n      0x00\n        /* \"#utility.yul\":8468:8474   */\n      dup3\n        /* \"#utility.yul\":8464:8478   */\n      add\n        /* \"#utility.yul\":8457:8515   */\n      mstore\n        /* \"#utility.yul\":8549:8561   */\n      0x726f206164647265737300000000000000000000000000000000000000000000\n        /* \"#utility.yul\":8544:8546   */\n      0x20\n        /* \"#utility.yul\":8536:8542   */\n      dup3\n        /* \"#utility.yul\":8532:8547   */\n      add\n        /* \"#utility.yul\":8525:8562   */\n      mstore\n        /* \"#utility.yul\":8340:8569   */\n      pop\n      jump\t// out\n        /* \"#utility.yul\":8575:8941   */\n    tag_233:\n        /* \"#utility.yul\":8717:8720   */\n      0x00\n        /* \"#utility.yul\":8738:8805   */\n      tag_333\n        /* \"#utility.yul\":8802:8804   */\n      0x2a\n        /* \"#utility.yul\":8797:8800   */\n      dup4\n        /* \"#utility.yul\":8738:8805   */\n      tag_222\n      jump\t// in\n    tag_333:\n        /* \"#utility.yul\":8731:8805   */\n      swap2\n      pop\n        /* \"#utility.yul\":8814:8907   */\n      tag_334\n        /* \"#utility.yul\":8903:8906   */\n      dup3\n        /* \"#utility.yul\":8814:8907   */\n      tag_232\n      jump\t// in\n    tag_334:\n        /* \"#utility.yul\":8932:8934   */\n      0x40\n        /* \"#utility.yul\":8927:8930   */\n      dup3\n        /* \"#utility.yul\":8923:8935   */\n      add\n        /* \"#utility.yul\":8916:8935   */\n      swap1\n      pop\n        /* \"#utility.yul\":8575:8941   */\n      swap2\n      swap1\n      pop\n      jump\t// out\n        /* \"#utility.yul\":8947:9366   */\n    tag_148:\n        /* \"#utility.yul\":9113:9117   */\n      0x00\n        /* \"#utility.yul\":9151:9153   */\n      0x20\n        /* \"#utility.yul\":9140:9149   */\n      dup3\n        /* \"#utility.yul\":9136:9154   */\n      add\n        /* \"#utility.yul\":9128:9154   */\n      swap1\n      pop\n        /* \"#utility.yul\":9200:9209   */\n      dup2\n        /* \"#utility.yul\":9194:9198   */\n      dup2\n        /* \"#utility.yul\":9190:9210   */\n      sub\n        /* \"#utility.yul\":9186:9187   */\n      0x00\n        /* \"#utility.yul\":9175:9184   */\n      dup4\n        /* \"#utility.yul\":9171:9188   */\n      add\n        /* \"#utility.yul\":9164:9211   */\n      mstore\n        /* \"#utility.yul\":9228:9359   */\n      tag_336\n        /* \"#utility.yul\":9354:9358   */\n      dup2\n        /* \"#utility.yul\":9228:9359   */\n      tag_233\n      jump\t// in\n    tag_336:\n        /* \"#utility.yul\":9220:9359   */\n      swap1\n      pop\n        /* \"#utility.yul\":8947:9366   */\n      swap2\n      swap1\n      pop\n      jump\t// out\n        /* \"#utility.yul\":9372:9547   */\n    tag_234:\n        /* \"#utility.yul\":9512:9539   */\n      0x43726f776473616c653a20776569416d6f756e74206973203000000000000000\n        /* \"#utility.yul\":9508:9509   */\n      0x00\n        /* \"#utility.yul\":9500:9506   */\n      dup3\n        /* \"#utility.yul\":9496:9510   */\n      add\n        /* \"#utility.yul\":9489:9540   */\n      mstore\n        /* \"#utility.yul\":9372:9547   */\n      pop\n      jump\t// out\n        /* \"#utility.yul\":9553:9919   */\n    tag_235:\n        /* \"#utility.yul\":9695:9698   */\n      0x00\n        /* \"#utility.yul\":9716:9783   */\n      tag_339\n        /* \"#utility.yul\":9780:9782   */\n      0x19\n        /* \"#utility.yul\":9775:9778   */\n      dup4\n        /* \"#utility.yul\":9716:9783   */\n      tag_222\n      jump\t// in\n    tag_339:\n        /* \"#utility.yul\":9709:9783   */\n      swap2\n      pop\n        /* \"#utility.yul\":9792:9885   */\n      tag_340\n        /* \"#utility.yul\":9881:9884   */\n      dup3\n        /* \"#utility.yul\":9792:9885   */\n      tag_234\n      jump\t// in\n    tag_340:\n        /* \"#utility.yul\":9910:9912   */\n      0x20\n        /* \"#utility.yul\":9905:9908   */\n      dup3\n        /* \"#utility.yul\":9901:9913   */\n      add\n        /* \"#utility.yul\":9894:9913   */\n      swap1\n      pop\n        /* \"#utility.yul\":9553:9919   */\n      swap2\n      swap1\n      pop\n      jump\t// out\n        /* \"#utility.yul\":9925:10344   */\n    tag_151:\n        /* \"#utility.yul\":10091:10095   */\n      0x00\n        /* \"#utility.yul\":10129:10131   */\n      0x20\n        /* \"#utility.yul\":10118:10127   */\n      dup3\n        /* \"#utility.yul\":10114:10132   */\n      add\n        /* \"#utility.yul\":10106:10132   */\n      swap1\n      pop\n        /* \"#utility.yul\":10178:10187   */\n      dup2\n        /* \"#utility.yul\":10172:10176   */\n      dup2\n        /* \"#utility.yul\":10168:10188   */\n      sub\n        /* \"#utility.yul\":10164:10165   */\n      0x00\n        /* \"#utility.yul\":10153:10162   */\n      dup4\n        /* \"#utility.yul\":10149:10166   */\n      add\n        /* \"#utility.yul\":10142:10189   */\n      mstore\n        /* \"#utility.yul\":10206:10337   */\n      tag_342\n        /* \"#utility.yul\":10332:10336   */\n      dup2\n        /* \"#utility.yul\":10206:10337   */\n      tag_235\n      jump\t// in\n    tag_342:\n        /* \"#utility.yul\":10198:10337   */\n      swap1\n      pop\n        /* \"#utility.yul\":9925:10344   */\n      swap2\n      swap1\n      pop\n      jump\t// out\n        /* \"#utility.yul\":10350:10760   */\n    tag_154:\n        /* \"#utility.yul\":10390:10397   */\n      0x00\n        /* \"#utility.yul\":10413:10433   */\n      tag_344\n        /* \"#utility.yul\":10431:10432   */\n      dup3\n        /* \"#utility.yul\":10413:10433   */\n      tag_206\n      jump\t// in\n    tag_344:\n        /* \"#utility.yul\":10408:10433   */\n      swap2\n      pop\n        /* \"#utility.yul\":10447:10467   */\n      tag_345\n        /* \"#utility.yul\":10465:10466   */\n      dup4\n        /* \"#utility.yul\":10447:10467   */\n      tag_206\n      jump\t// in\n    tag_345:\n        /* \"#utility.yul\":10442:10467   */\n      swap3\n      pop\n        /* \"#utility.yul\":10502:10503   */\n      dup3\n        /* \"#utility.yul\":10499:10500   */\n      dup3\n        /* \"#utility.yul\":10495:10504   */\n      mul\n        /* \"#utility.yul\":10524:10554   */\n      tag_346\n        /* \"#utility.yul\":10542:10553   */\n      dup2\n        /* \"#utility.yul\":10524:10554   */\n      tag_206\n      jump\t// in\n    tag_346:\n        /* \"#utility.yul\":10513:10554   */\n      swap2\n      pop\n        /* \"#utility.yul\":10703:10704   */\n      dup3\n        /* \"#utility.yul\":10694:10701   */\n      dup3\n        /* \"#utility.yul\":10690:10705   */\n      div\n        /* \"#utility.yul\":10687:10688   */\n      dup5\n        /* \"#utility.yul\":10684:10706   */\n      eq\n        /* \"#utility.yul\":10664:10665   */\n      dup4\n        /* \"#utility.yul\":10657:10666   */\n      iszero\n        /* \"#utility.yul\":10637:10720   */\n      or\n        /* \"#utility.yul\":10614:10753   */\n      tag_347\n      jumpi\n        /* \"#utility.yul\":10733:10751   */\n      tag_348\n      tag_229\n      jump\t// in\n    tag_348:\n        /* \"#utility.yul\":10614:10753   */\n    tag_347:\n        /* \"#utility.yul\":10398:10760   */\n      pop\n        /* \"#utility.yul\":10350:10760   */\n      swap3\n      swap2\n      pop\n      pop\n      jump\t// out\n        /* \"#utility.yul\":10766:10884   */\n    tag_236:\n        /* \"#utility.yul\":10853:10877   */\n      tag_350\n        /* \"#utility.yul\":10871:10876   */\n      dup2\n        /* \"#utility.yul\":10853:10877   */\n      tag_214\n      jump\t// in\n    tag_350:\n        /* \"#utility.yul\":10848:10851   */\n      dup3\n        /* \"#utility.yul\":10841:10878   */\n      mstore\n        /* \"#utility.yul\":10766:10884   */\n      pop\n      pop\n      jump\t// out\n        /* \"#utility.yul\":10890:11222   */\n    tag_162:\n        /* \"#utility.yul\":11011:11015   */\n      0x00\n        /* \"#utility.yul\":11049:11051   */\n      0x40\n        /* \"#utility.yul\":11038:11047   */\n      dup3\n        /* \"#utility.yul\":11034:11052   */\n      add\n        /* \"#utility.yul\":11026:11052   */\n      swap1\n      pop\n        /* \"#utility.yul\":11062:11133   */\n      tag_352\n        /* \"#utility.yul\":11130:11131   */\n      0x00\n        /* \"#utility.yul\":11119:11128   */\n      dup4\n        /* \"#utility.yul\":11115:11132   */\n      add\n        /* \"#utility.yul\":11106:11112   */\n      dup6\n        /* \"#utility.yul\":11062:11133   */\n      tag_236\n      jump\t// in\n    tag_352:\n        /* \"#utility.yul\":11143:11215   */\n      tag_353\n        /* \"#utility.yul\":11211:11213   */\n      0x20\n        /* \"#utility.yul\":11200:11209   */\n      dup4\n        /* \"#utility.yul\":11196:11214   */\n      add\n        /* \"#utility.yul\":11187:11193   */\n      dup5\n        /* \"#utility.yul\":11143:11215   */\n      tag_207\n      jump\t// in\n    tag_353:\n        /* \"#utility.yul\":10890:11222   */\n      swap4\n      swap3\n      pop\n      pop\n      pop\n      jump\t// out\n        /* \"#utility.yul\":11228:11344   */\n    tag_237:\n        /* \"#utility.yul\":11298:11319   */\n      tag_355\n        /* \"#utility.yul\":11313:11318   */\n      dup2\n        /* \"#utility.yul\":11298:11319   */\n      tag_204\n      jump\t// in\n    tag_355:\n        /* \"#utility.yul\":11291:11296   */\n      dup2\n        /* \"#utility.yul\":11288:11320   */\n      eq\n        /* \"#utility.yul\":11278:11338   */\n      tag_356\n      jumpi\n        /* \"#utility.yul\":11334:11335   */\n      0x00\n        /* \"#utility.yul\":11331:11332   */\n      dup1\n        /* \"#utility.yul\":11324:11336   */\n      revert\n        /* \"#utility.yul\":11278:11338   */\n    tag_356:\n        /* \"#utility.yul\":11228:11344   */\n      pop\n      jump\t// out\n        /* \"#utility.yul\":11350:11487   */\n    tag_238:\n        /* \"#utility.yul\":11404:11409   */\n      0x00\n        /* \"#utility.yul\":11435:11441   */\n      dup2\n        /* \"#utility.yul\":11429:11442   */\n      mload\n        /* \"#utility.yul\":11420:11442   */\n      swap1\n      pop\n        /* \"#utility.yul\":11451:11481   */\n      tag_358\n        /* \"#utility.yul\":11475:11480   */\n      dup2\n        /* \"#utility.yul\":11451:11481   */\n      tag_237\n      jump\t// in\n    tag_358:\n        /* \"#utility.yul\":11350:11487   */\n      swap3\n      swap2\n      pop\n      pop\n      jump\t// out\n        /* \"#utility.yul\":11493:11838   */\n    tag_169:\n        /* \"#utility.yul\":11560:11566   */\n      0x00\n        /* \"#utility.yul\":11609:11611   */\n      0x20\n        /* \"#utility.yul\":11597:11606   */\n      dup3\n        /* \"#utility.yul\":11588:11595   */\n      dup5\n        /* \"#utility.yul\":11584:11607   */\n      sub\n        /* \"#utility.yul\":11580:11612   */\n      slt\n        /* \"#utility.yul\":11577:11696   */\n      iszero\n      tag_360\n      jumpi\n        /* \"#utility.yul\":11615:11694   */\n      tag_361\n      tag_212\n      jump\t// in\n    tag_361:\n        /* \"#utility.yul\":11577:11696   */\n    tag_360:\n        /* \"#utility.yul\":11735:11736   */\n      0x00\n        /* \"#utility.yul\":11760:11821   */\n      tag_362\n        /* \"#utility.yul\":11813:11820   */\n      dup5\n        /* \"#utility.yul\":11804:11810   */\n      dup3\n        /* \"#utility.yul\":11793:11802   */\n      dup6\n        /* \"#utility.yul\":11789:11811   */\n      add\n        /* \"#utility.yul\":11760:11821   */\n      tag_238\n      jump\t// in\n    tag_362:\n        /* \"#utility.yul\":11750:11821   */\n      swap2\n      pop\n        /* \"#utility.yul\":11706:11831   */\n      pop\n        /* \"#utility.yul\":11493:11838   */\n      swap3\n      swap2\n      pop\n      pop\n      jump\t// out\n        /* \"#utility.yul\":11844:12073   */\n    tag_239:\n        /* \"#utility.yul\":11984:12018   */\n      0x5361666545524332303a204552433230206f7065726174696f6e20646964206e\n        /* \"#utility.yul\":11980:11981   */\n      0x00\n        /* \"#utility.yul\":11972:11978   */\n      dup3\n        /* \"#utility.yul\":11968:11982   */\n      add\n        /* \"#utility.yul\":11961:12019   */\n      mstore\n        /* \"#utility.yul\":12053:12065   */\n      0x6f74207375636365656400000000000000000000000000000000000000000000\n        /* \"#utility.yul\":12048:12050   */\n      0x20\n        /* \"#utility.yul\":12040:12046   */\n      dup3\n        /* \"#utility.yul\":12036:12051   */\n      add\n        /* \"#utility.yul\":12029:12066   */\n      mstore\n        /* \"#utility.yul\":11844:12073   */\n      pop\n      jump\t// out\n        /* \"#utility.yul\":12079:12445   */\n    tag_240:\n        /* \"#utility.yul\":12221:12224   */\n      0x00\n        /* \"#utility.yul\":12242:12309   */\n      tag_365\n        /* \"#utility.yul\":12306:12308   */\n      0x2a\n        /* \"#utility.yul\":12301:12304   */\n      dup4\n        /* \"#utility.yul\":12242:12309   */\n      tag_222\n      jump\t// in\n    tag_365:\n        /* \"#utility.yul\":12235:12309   */\n      swap2\n      pop\n        /* \"#utility.yul\":12318:12411   */\n      tag_366\n        /* \"#utility.yul\":12407:12410   */\n      dup3\n        /* \"#utility.yul\":12318:12411   */\n      tag_239\n      jump\t// in\n    tag_366:\n        /* \"#utility.yul\":12436:12438   */\n      0x40\n        /* \"#utility.yul\":12431:12434   */\n      dup3\n        /* \"#utility.yul\":12427:12439   */\n      add\n        /* \"#utility.yul\":12420:12439   */\n      swap1\n      pop\n        /* \"#utility.yul\":12079:12445   */\n      swap2\n      swap1\n      pop\n      jump\t// out\n        /* \"#utility.yul\":12451:12870   */\n    tag_172:\n        /* \"#utility.yul\":12617:12621   */\n      0x00\n        /* \"#utility.yul\":12655:12657   */\n      0x20\n        /* \"#utility.yul\":12644:12653   */\n      dup3\n        /* \"#utility.yul\":12640:12658   */\n      add\n        /* \"#utility.yul\":12632:12658   */\n      swap1\n      pop\n        /* \"#utility.yul\":12704:12713   */\n      dup2\n        /* \"#utility.yul\":12698:12702   */\n      dup2\n        /* \"#utility.yul\":12694:12714   */\n      sub\n        /* \"#utility.yul\":12690:12691   */\n      0x00\n        /* \"#utility.yul\":12679:12688   */\n      dup4\n        /* \"#utility.yul\":12675:12692   */\n      add\n        /* \"#utility.yul\":12668:12715   */\n      mstore\n        /* \"#utility.yul\":12732:12863   */\n      tag_368\n        /* \"#utility.yul\":12858:12862   */\n      dup2\n        /* \"#utility.yul\":12732:12863   */\n      tag_240\n      jump\t// in\n    tag_368:\n        /* \"#utility.yul\":12724:12863   */\n      swap1\n      pop\n        /* \"#utility.yul\":12451:12870   */\n      swap2\n      swap1\n      pop\n      jump\t// out\n        /* \"#utility.yul\":12876:13101   */\n    tag_241:\n        /* \"#utility.yul\":13016:13050   */\n      0x416464726573733a20696e73756666696369656e742062616c616e636520666f\n        /* \"#utility.yul\":13012:13013   */\n      0x00\n        /* \"#utility.yul\":13004:13010   */\n      dup3\n        /* \"#utility.yul\":13000:13014   */\n      add\n        /* \"#utility.yul\":12993:13051   */\n      mstore\n        /* \"#utility.yul\":13085:13093   */\n      0x722063616c6c0000000000000000000000000000000000000000000000000000\n        /* \"#utility.yul\":13080:13082   */\n      0x20\n        /* \"#utility.yul\":13072:13078   */\n      dup3\n        /* \"#utility.yul\":13068:13083   */\n      add\n        /* \"#utility.yul\":13061:13094   */\n      mstore\n        /* \"#utility.yul\":12876:13101   */\n      pop\n      jump\t// out\n        /* \"#utility.yul\":13107:13473   */\n    tag_242:\n        /* \"#utility.yul\":13249:13252   */\n      0x00\n        /* \"#utility.yul\":13270:13337   */\n      tag_371\n        /* \"#utility.yul\":13334:13336   */\n      0x26\n        /* \"#utility.yul\":13329:13332   */\n      dup4\n        /* \"#utility.yul\":13270:13337   */\n      tag_222\n      jump\t// in\n    tag_371:\n        /* \"#utility.yul\":13263:13337   */\n      swap2\n      pop\n        /* \"#utility.yul\":13346:13439   */\n      tag_372\n        /* \"#utility.yul\":13435:13438   */\n      dup3\n        /* \"#utility.yul\":13346:13439   */\n      tag_241\n      jump\t// in\n    tag_372:\n        /* \"#utility.yul\":13464:13466   */\n      0x40\n        /* \"#utility.yul\":13459:13462   */\n      dup3\n        /* \"#utility.yul\":13455:13467   */\n      add\n        /* \"#utility.yul\":13448:13467   */\n      swap1\n      pop\n        /* \"#utility.yul\":13107:13473   */\n      swap2\n      swap1\n      pop\n      jump\t// out\n        /* \"#utility.yul\":13479:13898   */\n    tag_179:\n        /* \"#utility.yul\":13645:13649   */\n      0x00\n        /* \"#utility.yul\":13683:13685   */\n      0x20\n        /* \"#utility.yul\":13672:13681   */\n      dup3\n        /* \"#utility.yul\":13668:13686   */\n      add\n        /* \"#utility.yul\":13660:13686   */\n      swap1\n      pop\n        /* \"#utility.yul\":13732:13741   */\n      dup2\n        /* \"#utility.yul\":13726:13730   */\n      dup2\n        /* \"#utility.yul\":13722:13742   */\n      sub\n        /* \"#utility.yul\":13718:13719   */\n      0x00\n        /* \"#utility.yul\":13707:13716   */\n      dup4\n        /* \"#utility.yul\":13703:13720   */\n      add\n        /* \"#utility.yul\":13696:13743   */\n      mstore\n        /* \"#utility.yul\":13760:13891   */\n      tag_374\n        /* \"#utility.yul\":13886:13890   */\n      dup2\n        /* \"#utility.yul\":13760:13891   */\n      tag_242\n      jump\t// in\n    tag_374:\n        /* \"#utility.yul\":13752:13891   */\n      swap1\n      pop\n        /* \"#utility.yul\":13479:13898   */\n      swap2\n      swap1\n      pop\n      jump\t// out\n        /* \"#utility.yul\":13904:14002   */\n    tag_243:\n        /* \"#utility.yul\":13955:13961   */\n      0x00\n        /* \"#utility.yul\":13989:13994   */\n      dup2\n        /* \"#utility.yul\":13983:13995   */\n      mload\n        /* \"#utility.yul\":13973:13995   */\n      swap1\n      pop\n        /* \"#utility.yul\":13904:14002   */\n      swap2\n      swap1\n      pop\n      jump\t// out\n        /* \"#utility.yul\":14008:14155   */\n    tag_244:\n        /* \"#utility.yul\":14109:14120   */\n      0x00\n        /* \"#utility.yul\":14146:14149   */\n      dup2\n        /* \"#utility.yul\":14131:14149   */\n      swap1\n      pop\n        /* \"#utility.yul\":14008:14155   */\n      swap3\n      swap2\n      pop\n      pop\n      jump\t// out\n        /* \"#utility.yul\":14161:14407   */\n    tag_245:\n        /* \"#utility.yul\":14242:14243   */\n      0x00\n        /* \"#utility.yul\":14252:14365   */\n    tag_378:\n        /* \"#utility.yul\":14266:14272   */\n      dup4\n        /* \"#utility.yul\":14263:14264   */\n      dup2\n        /* \"#utility.yul\":14260:14273   */\n      lt\n        /* \"#utility.yul\":14252:14365   */\n      iszero\n      tag_380\n      jumpi\n        /* \"#utility.yul\":14351:14352   */\n      dup1\n        /* \"#utility.yul\":14346:14349   */\n      dup3\n        /* \"#utility.yul\":14342:14353   */\n      add\n        /* \"#utility.yul\":14336:14354   */\n      mload\n        /* \"#utility.yul\":14332:14333   */\n      dup2\n        /* \"#utility.yul\":14327:14330   */\n      dup5\n        /* \"#utility.yul\":14323:14334   */\n      add\n        /* \"#utility.yul\":14316:14355   */\n      mstore\n        /* \"#utility.yul\":14288:14290   */\n      0x20\n        /* \"#utility.yul\":14285:14286   */\n      dup2\n        /* \"#utility.yul\":14281:14291   */\n      add\n        /* \"#utility.yul\":14276:14291   */\n      swap1\n      pop\n        /* \"#utility.yul\":14252:14365   */\n      jump(tag_378)\n    tag_380:\n        /* \"#utility.yul\":14399:14400   */\n      0x00\n        /* \"#utility.yul\":14390:14396   */\n      dup5\n        /* \"#utility.yul\":14385:14388   */\n      dup5\n        /* \"#utility.yul\":14381:14397   */\n      add\n        /* \"#utility.yul\":14374:14401   */\n      mstore\n        /* \"#utility.yul\":14223:14407   */\n      pop\n        /* \"#utility.yul\":14161:14407   */\n      pop\n      pop\n      pop\n      jump\t// out\n        /* \"#utility.yul\":14413:14799   */\n    tag_246:\n        /* \"#utility.yul\":14517:14520   */\n      0x00\n        /* \"#utility.yul\":14545:14583   */\n      tag_382\n        /* \"#utility.yul\":14577:14582   */\n      dup3\n        /* \"#utility.yul\":14545:14583   */\n      tag_243\n      jump\t// in\n    tag_382:\n        /* \"#utility.yul\":14599:14687   */\n      tag_383\n        /* \"#utility.yul\":14680:14686   */\n      dup2\n        /* \"#utility.yul\":14675:14678   */\n      dup6\n        /* \"#utility.yul\":14599:14687   */\n      tag_244\n      jump\t// in\n    tag_383:\n        /* \"#utility.yul\":14592:14687   */\n      swap4\n      pop\n        /* \"#utility.yul\":14696:14761   */\n      tag_384\n        /* \"#utility.yul\":14754:14760   */\n      dup2\n        /* \"#utility.yul\":14749:14752   */\n      dup6\n        /* \"#utility.yul\":14742:14746   */\n      0x20\n        /* \"#utility.yul\":14735:14740   */\n      dup7\n        /* \"#utility.yul\":14731:14747   */\n      add\n        /* \"#utility.yul\":14696:14761   */\n      tag_245\n      jump\t// in\n    tag_384:\n        /* \"#utility.yul\":14786:14792   */\n      dup1\n        /* \"#utility.yul\":14781:14784   */\n      dup5\n        /* \"#utility.yul\":14777:14793   */\n      add\n        /* \"#utility.yul\":14770:14793   */\n      swap2\n      pop\n        /* \"#utility.yul\":14521:14799   */\n      pop\n        /* \"#utility.yul\":14413:14799   */\n      swap3\n      swap2\n      pop\n      pop\n      jump\t// out\n        /* \"#utility.yul\":14805:15076   */\n    tag_181:\n        /* \"#utility.yul\":14935:14938   */\n      0x00\n        /* \"#utility.yul\":14957:15050   */\n      tag_386\n        /* \"#utility.yul\":15046:15049   */\n      dup3\n        /* \"#utility.yul\":15037:15043   */\n      dup5\n        /* \"#utility.yul\":14957:15050   */\n      tag_246\n      jump\t// in\n    tag_386:\n        /* \"#utility.yul\":14950:15050   */\n      swap2\n      pop\n        /* \"#utility.yul\":15067:15070   */\n      dup2\n        /* \"#utility.yul\":15060:15070   */\n      swap1\n      pop\n        /* \"#utility.yul\":14805:15076   */\n      swap3\n      swap2\n      pop\n      pop\n      jump\t// out\n        /* \"#utility.yul\":15082:15261   */\n    tag_247:\n        /* \"#utility.yul\":15222:15253   */\n      0x416464726573733a2063616c6c20746f206e6f6e2d636f6e7472616374000000\n        /* \"#utility.yul\":15218:15219   */\n      0x00\n        /* \"#utility.yul\":15210:15216   */\n      dup3\n        /* \"#utility.yul\":15206:15220   */\n      add\n        /* \"#utility.yul\":15199:15254   */\n      mstore\n        /* \"#utility.yul\":15082:15261   */\n      pop\n      jump\t// out\n        /* \"#utility.yul\":15267:15633   */\n    tag_248:\n        /* \"#utility.yul\":15409:15412   */\n      0x00\n        /* \"#utility.yul\":15430:15497   */\n      tag_389\n        /* \"#utility.yul\":15494:15496   */\n      0x1d\n        /* \"#utility.yul\":15489:15492   */\n      dup4\n        /* \"#utility.yul\":15430:15497   */\n      tag_222\n      jump\t// in\n    tag_389:\n        /* \"#utility.yul\":15423:15497   */\n      swap2\n      pop\n        /* \"#utility.yul\":15506:15599   */\n      tag_390\n        /* \"#utility.yul\":15595:15598   */\n      dup3\n        /* \"#utility.yul\":15506:15599   */\n      tag_247\n      jump\t// in\n    tag_390:\n        /* \"#utility.yul\":15624:15626   */\n      0x20\n        /* \"#utility.yul\":15619:15622   */\n      dup3\n        /* \"#utility.yul\":15615:15627   */\n      add\n        /* \"#utility.yul\":15608:15627   */\n      swap1\n      pop\n        /* \"#utility.yul\":15267:15633   */\n      swap2\n      swap1\n      pop\n      jump\t// out\n        /* \"#utility.yul\":15639:16058   */\n    tag_194:\n        /* \"#utility.yul\":15805:15809   */\n      0x00\n        /* \"#utility.yul\":15843:15845   */\n      0x20\n        /* \"#utility.yul\":15832:15841   */\n      dup3\n        /* \"#utility.yul\":15828:15846   */\n      add\n        /* \"#utility.yul\":15820:15846   */\n      swap1\n      pop\n        /* \"#utility.yul\":15892:15901   */\n      dup2\n        /* \"#utility.yul\":15886:15890   */\n      dup2\n        /* \"#utility.yul\":15882:15902   */\n      sub\n        /* \"#utility.yul\":15878:15879   */\n      0x00\n        /* \"#utility.yul\":15867:15876   */\n      dup4\n        /* \"#utility.yul\":15863:15880   */\n      add\n        /* \"#utility.yul\":15856:15903   */\n      mstore\n        /* \"#utility.yul\":15920:16051   */\n      tag_392\n        /* \"#utility.yul\":16046:16050   */\n      dup2\n        /* \"#utility.yul\":15920:16051   */\n      tag_248\n      jump\t// in\n    tag_392:\n        /* \"#utility.yul\":15912:16051   */\n      swap1\n      pop\n        /* \"#utility.yul\":15639:16058   */\n      swap2\n      swap1\n      pop\n      jump\t// out\n        /* \"#utility.yul\":16064:16163   */\n    tag_249:\n        /* \"#utility.yul\":16116:16122   */\n      0x00\n        /* \"#utility.yul\":16150:16155   */\n      dup2\n        /* \"#utility.yul\":16144:16156   */\n      mload\n        /* \"#utility.yul\":16134:16156   */\n      swap1\n      pop\n        /* \"#utility.yul\":16064:16163   */\n      swap2\n      swap1\n      pop\n      jump\t// out\n        /* \"#utility.yul\":16169:16271   */\n    tag_250:\n        /* \"#utility.yul\":16210:16216   */\n      0x00\n        /* \"#utility.yul\":16261:16263   */\n      0x1f\n        /* \"#utility.yul\":16257:16264   */\n      not\n        /* \"#utility.yul\":16252:16254   */\n      0x1f\n        /* \"#utility.yul\":16245:16250   */\n      dup4\n        /* \"#utility.yul\":16241:16255   */\n      add\n        /* \"#utility.yul\":16237:16265   */\n      and\n        /* \"#utility.yul\":16227:16265   */\n      swap1\n      pop\n        /* \"#utility.yul\":16169:16271   */\n      swap2\n      swap1\n      pop\n      jump\t// out\n        /* \"#utility.yul\":16277:16654   */\n    tag_251:\n        /* \"#utility.yul\":16365:16368   */\n      0x00\n        /* \"#utility.yul\":16393:16432   */\n      tag_396\n        /* \"#utility.yul\":16426:16431   */\n      dup3\n        /* \"#utility.yul\":16393:16432   */\n      tag_249\n      jump\t// in\n    tag_396:\n        /* \"#utility.yul\":16448:16519   */\n      tag_397\n        /* \"#utility.yul\":16512:16518   */\n      dup2\n        /* \"#utility.yul\":16507:16510   */\n      dup6\n        /* \"#utility.yul\":16448:16519   */\n      tag_222\n      jump\t// in\n    tag_397:\n        /* \"#utility.yul\":16441:16519   */\n      swap4\n      pop\n        /* \"#utility.yul\":16528:16593   */\n      tag_398\n        /* \"#utility.yul\":16586:16592   */\n      dup2\n        /* \"#utility.yul\":16581:16584   */\n      dup6\n        /* \"#utility.yul\":16574:16578   */\n      0x20\n        /* \"#utility.yul\":16567:16572   */\n      dup7\n        /* \"#utility.yul\":16563:16579   */\n      add\n        /* \"#utility.yul\":16528:16593   */\n      tag_245\n      jump\t// in\n    tag_398:\n        /* \"#utility.yul\":16618:16647   */\n      tag_399\n        /* \"#utility.yul\":16640:16646   */\n      dup2\n        /* \"#utility.yul\":16618:16647   */\n      tag_250\n      jump\t// in\n    tag_399:\n        /* \"#utility.yul\":16613:16616   */\n      dup5\n        /* \"#utility.yul\":16609:16648   */\n      add\n        /* \"#utility.yul\":16602:16648   */\n      swap2\n      pop\n        /* \"#utility.yul\":16369:16654   */\n      pop\n        /* \"#utility.yul\":16277:16654   */\n      swap3\n      swap2\n      pop\n      pop\n      jump\t// out\n        /* \"#utility.yul\":16660:16973   */\n    tag_203:\n        /* \"#utility.yul\":16773:16777   */\n      0x00\n        /* \"#utility.yul\":16811:16813   */\n      0x20\n        /* \"#utility.yul\":16800:16809   */\n      dup3\n        /* \"#utility.yul\":16796:16814   */\n      add\n        /* \"#utility.yul\":16788:16814   */\n      swap1\n      pop\n        /* \"#utility.yul\":16860:16869   */\n      dup2\n        /* \"#utility.yul\":16854:16858   */\n      dup2\n        /* \"#utility.yul\":16850:16870   */\n      sub\n        /* \"#utility.yul\":16846:16847   */\n      0x00\n        /* \"#utility.yul\":16835:16844   */\n      dup4\n        /* \"#utility.yul\":16831:16848   */\n      add\n        /* \"#utility.yul\":16824:16871   */\n      mstore\n        /* \"#utility.yul\":16888:16966   */\n      tag_401\n        /* \"#utility.yul\":16961:16965   */\n      dup2\n        /* \"#utility.yul\":16952:16958   */\n      dup5\n        /* \"#utility.yul\":16888:16966   */\n      tag_251\n      jump\t// in\n    tag_401:\n        /* \"#utility.yul\":16880:16966   */\n      swap1\n      pop\n        /* \"#utility.yul\":16660:16973   */\n      swap3\n      swap2\n      pop\n      pop\n      jump\t// out\n\n    auxdata: 0xa2646970667358221220b720c4a475f29e2f3e302bdc35c665f2e6bb5de4de3d92144045994ce9d9c1bf64736f6c63430008150033\n}\n",
				"bytecode": {
					"linkReferences": {},
					"object": "608060405234801562000010575f80fd5b50604051620019ee380380620019ee8339818101604052810190620000369190620003aa565b848484848482828260015f819055505f83116200008a576040517f08c379a000000000000000000000000000000000000000000000000000000000815260040162000081906200048c565b60405180910390fd5b5f73ffffffffffffffffffffffffffffffffffffffff168273ffffffffffffffffffffffffffffffffffffffff1603620000fb576040517f08c379a0000000000000000000000000000000000000000000000000000000008152600401620000f29062000520565b60405180910390fd5b5f73ffffffffffffffffffffffffffffffffffffffff168173ffffffffffffffffffffffffffffffffffffffff16036200016c576040517f08c379a00000000000000000000000000000000000000000000000000000000081526004016200016390620005b4565b60405180910390fd5b826003819055508160025f6101000a81548173ffffffffffffffffffffffffffffffffffffffff021916908373ffffffffffffffffffffffffffffffffffffffff1602179055508060015f6101000a81548173ffffffffffffffffffffffffffffffffffffffff021916908373ffffffffffffffffffffffffffffffffffffffff160217905550505050428510156200023c576040517f08c379a0000000000000000000000000000000000000000000000000000000008152600401620002339062000648565b60405180910390fd5b84841162000281576040517f08c379a00000000000000000000000000000000000000000000000000000000081526004016200027890620006dc565b60405180910390fd5b846005819055508360068190555050505050505f60075f6101000a81548160ff0219169083151502179055505050505050620006fc565b5f80fd5b5f819050919050565b620002d081620002bc565b8114620002db575f80fd5b50565b5f81519050620002ee81620002c5565b92915050565b5f73ffffffffffffffffffffffffffffffffffffffff82169050919050565b5f6200031f82620002f4565b9050919050565b620003318162000313565b81146200033c575f80fd5b50565b5f815190506200034f8162000326565b92915050565b5f6200036182620002f4565b9050919050565b5f620003748262000355565b9050919050565b620003868162000368565b811462000391575f80fd5b50565b5f81519050620003a4816200037b565b92915050565b5f805f805f60a08688031215620003c657620003c5620002b8565b5b5f620003d588828901620002de565b9550506020620003e888828901620002de565b9450506040620003fb88828901620002de565b93505060606200040e888289016200033f565b9250506080620004218882890162000394565b9150509295509295909350565b5f82825260208201905092915050565b7f43726f776473616c653a207261746520697320300000000000000000000000005f82015250565b5f620004746014836200042e565b915062000481826200043e565b602082019050919050565b5f6020820190508181035f830152620004a58162000466565b9050919050565b7f43726f776473616c653a2077616c6c657420697320746865207a65726f2061645f8201527f6472657373000000000000000000000000000000000000000000000000000000602082015250565b5f620005086025836200042e565b91506200051582620004ac565b604082019050919050565b5f6020820190508181035f8301526200053981620004fa565b9050919050565b7f43726f776473616c653a20746f6b656e20697320746865207a65726f206164645f8201527f7265737300000000000000000000000000000000000000000000000000000000602082015250565b5f6200059c6024836200042e565b9150620005a98262000540565b604082019050919050565b5f6020820190508181035f830152620005cd816200058e565b9050919050565b7f54696d656443726f776473616c653a206f70656e696e672074696d65206973205f8201527f6265666f72652063757272656e742074696d6500000000000000000000000000602082015250565b5f620006306033836200042e565b91506200063d82620005d4565b604082019050919050565b5f6020820190508181035f830152620006618162000622565b9050919050565b7f54696d656443726f776473616c653a206f70656e696e672074696d65206973205f8201527f6e6f74206265666f726520636c6f73696e672074696d65000000000000000000602082015250565b5f620006c46037836200042e565b9150620006d18262000668565b604082019050919050565b5f6020820190508181035f830152620006f581620006b6565b9050919050565b6112e4806200070a5f395ff3fe60806040526004361061009f575f3560e01c80634bb278f3116100635780634bb278f31461019a578063521eb273146101b0578063b3f05b97146101da578063b7a8807c14610204578063ec8ac4d81461022e578063fc0c546a1461024a576100b6565b80631515bc2b146100c85780632c4e722e146100f25780634042b66f1461011c57806347535d7b146101465780634b6753bc14610170576100b6565b366100b6576100b46100af610274565b61027b565b005b6100c66100c1610274565b61027b565b005b3480156100d3575f80fd5b506100dc610359565b6040516100e99190610a97565b60405180910390f35b3480156100fd575f80fd5b50610106610364565b6040516101139190610ac8565b60405180910390f35b348015610127575f80fd5b5061013061036d565b60405161013d9190610ac8565b60405180910390f35b348015610151575f80fd5b5061015a610376565b6040516101679190610a97565b60405180910390f35b34801561017b575f80fd5b50610184610390565b6040516101919190610ac8565b60405180910390f35b3480156101a5575f80fd5b506101ae610399565b005b3480156101bb575f80fd5b506101c46103ea565b6040516101d19190610b20565b60405180910390f35b3480156101e5575f80fd5b506101ee610412565b6040516101fb9190610a97565b60405180910390f35b34801561020f575f80fd5b50610218610427565b6040516102259190610ac8565b60405180910390f35b61024860048036038101906102439190610b78565b61027b565b005b348015610255575f80fd5b5061025e610430565b60405161026b9190610bfe565b60405180910390f35b5f33905090565b610283610458565b5f34905061029182826104a5565b5f61029b826104fa565b90506102b28260045461051790919063ffffffff16565b6004819055506102c2838261052c565b8273ffffffffffffffffffffffffffffffffffffffff166102e1610274565b73ffffffffffffffffffffffffffffffffffffffff167f6faf93231a456e552dbc9961f58d9713ee4f2e69d15f1975b050ef0911053a7b8484604051610328929190610c17565b60405180910390a361033a838361053a565b61034261053e565b61034c83836105a5565b50506103566105a9565b50565b5f6006544211905090565b5f600354905090565b5f600454905090565b5f600554421015801561038b57506006544211155b905090565b5f600654905090565b6103a1610359565b6103e0576040517f08c379a00000000000000000000000000000000000000000000000000000000081526004016103d790610c98565b60405180910390fd5b6103e86105b2565b565b5f60025f9054906101000a900473ffffffffffffffffffffffffffffffffffffffff16905090565b5f60075f9054906101000a900460ff16905090565b5f600554905090565b5f60015f9054906101000a900473ffffffffffffffffffffffffffffffffffffffff16905090565b60025f540361049c576040517f08c379a000000000000000000000000000000000000000000000000000000000815260040161049390610d00565b60405180910390fd5b60025f81905550565b6104ad610376565b6104ec576040517f08c379a00000000000000000000000000000000000000000000000000000000081526004016104e390610d68565b60405180910390fd5b6104f68282610651565b5050565b5f6105106003548361070590919063ffffffff16565b9050919050565b5f81836105249190610db3565b905092915050565b610536828261071a565b5050565b5050565b60025f9054906101000a900473ffffffffffffffffffffffffffffffffffffffff1673ffffffffffffffffffffffffffffffffffffffff166108fc3490811502906040515f60405180830381858888f193505050501580156105a2573d5f803e3d5ffd5b50565b5050565b60015f81905550565b60075f9054906101000a900460ff1615610601576040517f08c379a00000000000000000000000000000000000000000000000000000000081526004016105f890610e56565b60405180910390fd5b600160075f6101000a81548160ff02191690831515021790555061062361076a565b7f9c6ac702ac1e5e834d54fae35fa20f6dbab76180a01317ec37a7e4ce9f86fe5160405160405180910390a1565b5f73ffffffffffffffffffffffffffffffffffffffff168273ffffffffffffffffffffffffffffffffffffffff16036106bf576040517f08c379a00000000000000000000000000000000000000000000000000000000081526004016106b690610ee4565b60405180910390fd5b5f8103610701576040517f08c379a00000000000000000000000000000000000000000000000000000000081526004016106f890610f4c565b60405180910390fd5b5050565b5f81836107129190610f6a565b905092915050565b610766828260015f9054906101000a900473ffffffffffffffffffffffffffffffffffffffff1673ffffffffffffffffffffffffffffffffffffffff1661076c9092919063ffffffff16565b5050565b565b6107ed8363a9059cbb60e01b848460405160240161078b929190610fba565b604051602081830303815290604052907bffffffffffffffffffffffffffffffffffffffffffffffffffffffff19166020820180517bffffffffffffffffffffffffffffffffffffffffffffffffffffffff83818316178352505050506107f2565b505050565b5f610853826040518060400160405280602081526020017f5361666545524332303a206c6f772d6c6576656c2063616c6c206661696c65648152508573ffffffffffffffffffffffffffffffffffffffff166108b89092919063ffffffff16565b90505f81511480610874575080806020019051810190610873919061100b565b5b6108b3576040517f08c379a00000000000000000000000000000000000000000000000000000000081526004016108aa906110a6565b60405180910390fd5b505050565b60606108c684845f856108cf565b90509392505050565b606082471015610914576040517f08c379a000000000000000000000000000000000000000000000000000000000815260040161090b90611134565b60405180910390fd5b5f808673ffffffffffffffffffffffffffffffffffffffff16858760405161093c91906111be565b5f6040518083038185875af1925050503d805f8114610976576040519150601f19603f3d011682016040523d82523d5f602084013e61097b565b606091505b509150915061098c87838387610998565b92505050949350505050565b606083156109f9575f8351036109f1576109b185610a0c565b6109f0576040517f08c379a00000000000000000000000000000000000000000000000000000000081526004016109e79061121e565b60405180910390fd5b5b829050610a04565b610a038383610a2e565b5b949350505050565b5f808273ffffffffffffffffffffffffffffffffffffffff163b119050919050565b5f82511115610a405781518083602001fd5b806040517f08c379a0000000000000000000000000000000000000000000000000000000008152600401610a74919061128e565b60405180910390fd5b5f8115159050919050565b610a9181610a7d565b82525050565b5f602082019050610aaa5f830184610a88565b92915050565b5f819050919050565b610ac281610ab0565b82525050565b5f602082019050610adb5f830184610ab9565b92915050565b5f73ffffffffffffffffffffffffffffffffffffffff82169050919050565b5f610b0a82610ae1565b9050919050565b610b1a81610b00565b82525050565b5f602082019050610b335f830184610b11565b92915050565b5f80fd5b5f610b4782610ae1565b9050919050565b610b5781610b3d565b8114610b61575f80fd5b50565b5f81359050610b7281610b4e565b92915050565b5f60208284031215610b8d57610b8c610b39565b5b5f610b9a84828501610b64565b91505092915050565b5f819050919050565b5f610bc6610bc1610bbc84610ae1565b610ba3565b610ae1565b9050919050565b5f610bd782610bac565b9050919050565b5f610be882610bcd565b9050919050565b610bf881610bde565b82525050565b5f602082019050610c115f830184610bef565b92915050565b5f604082019050610c2a5f830185610ab9565b610c376020830184610ab9565b9392505050565b5f82825260208201905092915050565b7f46696e616c697a61626c6543726f776473616c653a206e6f7420636c6f7365645f82015250565b5f610c82602083610c3e565b9150610c8d82610c4e565b602082019050919050565b5f6020820190508181035f830152610caf81610c76565b9050919050565b7f5265656e7472616e637947756172643a207265656e7472616e742063616c6c005f82015250565b5f610cea601f83610c3e565b9150610cf582610cb6565b602082019050919050565b5f6020820190508181035f830152610d1781610cde565b9050919050565b7f54696d656443726f776473616c653a206e6f74206f70656e00000000000000005f82015250565b5f610d52601883610c3e565b9150610d5d82610d1e565b602082019050919050565b5f6020820190508181035f830152610d7f81610d46565b9050919050565b7f4e487b71000000000000000000000000000000000000000000000000000000005f52601160045260245ffd5b5f610dbd82610ab0565b9150610dc883610ab0565b9250828201905080821115610de057610ddf610d86565b5b92915050565b7f46696e616c697a61626c6543726f776473616c653a20616c72656164792066695f8201527f6e616c697a656400000000000000000000000000000000000000000000000000602082015250565b5f610e40602783610c3e565b9150610e4b82610de6565b604082019050919050565b5f6020820190508181035f830152610e6d81610e34565b9050919050565b7f43726f776473616c653a2062656e656669636961727920697320746865207a655f8201527f726f206164647265737300000000000000000000000000000000000000000000602082015250565b5f610ece602a83610c3e565b9150610ed982610e74565b604082019050919050565b5f6020820190508181035f830152610efb81610ec2565b9050919050565b7f43726f776473616c653a20776569416d6f756e742069732030000000000000005f82015250565b5f610f36601983610c3e565b9150610f4182610f02565b602082019050919050565b5f6020820190508181035f830152610f6381610f2a565b9050919050565b5f610f7482610ab0565b9150610f7f83610ab0565b9250828202610f8d81610ab0565b91508282048414831517610fa457610fa3610d86565b5b5092915050565b610fb481610b3d565b82525050565b5f604082019050610fcd5f830185610fab565b610fda6020830184610ab9565b9392505050565b610fea81610a7d565b8114610ff4575f80fd5b50565b5f8151905061100581610fe1565b92915050565b5f602082840312156110205761101f610b39565b5b5f61102d84828501610ff7565b91505092915050565b7f5361666545524332303a204552433230206f7065726174696f6e20646964206e5f8201527f6f74207375636365656400000000000000000000000000000000000000000000602082015250565b5f611090602a83610c3e565b915061109b82611036565b604082019050919050565b5f6020820190508181035f8301526110bd81611084565b9050919050565b7f416464726573733a20696e73756666696369656e742062616c616e636520666f5f8201527f722063616c6c0000000000000000000000000000000000000000000000000000602082015250565b5f61111e602683610c3e565b9150611129826110c4565b604082019050919050565b5f6020820190508181035f83015261114b81611112565b9050919050565b5f81519050919050565b5f81905092915050565b5f5b83811015611183578082015181840152602081019050611168565b5f8484015250505050565b5f61119882611152565b6111a2818561115c565b93506111b2818560208601611166565b80840191505092915050565b5f6111c9828461118e565b915081905092915050565b7f416464726573733a2063616c6c20746f206e6f6e2d636f6e74726163740000005f82015250565b5f611208601d83610c3e565b9150611213826111d4565b602082019050919050565b5f6020820190508181035f830152611235816111fc565b9050919050565b5f81519050919050565b5f601f19601f8301169050919050565b5f6112608261123c565b61126a8185610c3e565b935061127a818560208601611166565b61128381611246565b840191505092915050565b5f6020820190508181035f8301526112a68184611256565b90509291505056fea2646970667358221220b720c4a475f29e2f3e302bdc35c665f2e6bb5de4de3d92144045994ce9d9c1bf64736f6c63430008150033",
					"opcodes": "PUSH1 0x80 PUSH1 0x40 MSTORE CALLVALUE DUP1 ISZERO PUSH3 0x10 JUMPI PUSH0 DUP1 REVERT JUMPDEST POP PUSH1 0x40 MLOAD PUSH3 0x19EE CODESIZE SUB DUP1 PUSH3 0x19EE DUP4 CODECOPY DUP2 DUP2 ADD PUSH1 0x40 MSTORE DUP2 ADD SWAP1 PUSH3 0x36 SWAP2 SWAP1 PUSH3 0x3AA JUMP JUMPDEST DUP5 DUP5 DUP5 DUP5 DUP5 DUP3 DUP3 DUP3 PUSH1 0x1 PUSH0 DUP2 SWAP1 SSTORE POP PUSH0 DUP4 GT PUSH3 0x8A JUMPI PUSH1 0x40 MLOAD PUSH32 0x8C379A000000000000000000000000000000000000000000000000000000000 DUP2 MSTORE PUSH1 0x4 ADD PUSH3 0x81 SWAP1 PUSH3 0x48C JUMP JUMPDEST PUSH1 0x40 MLOAD DUP1 SWAP2 SUB SWAP1 REVERT JUMPDEST PUSH0 PUSH20 0xFFFFFFFFFFFFFFFFFFFFFFFFFFFFFFFFFFFFFFFF AND DUP3 PUSH20 0xFFFFFFFFFFFFFFFFFFFFFFFFFFFFFFFFFFFFFFFF AND SUB PUSH3 0xFB JUMPI PUSH1 0x40 MLOAD PUSH32 0x8C379A000000000000000000000000000000000000000000000000000000000 DUP2 MSTORE PUSH1 0x4 ADD PUSH3 0xF2 SWAP1 PUSH3 0x520 JUMP JUMPDEST PUSH1 0x40 MLOAD DUP1 SWAP2 SUB SWAP1 REVERT JUMPDEST PUSH0 PUSH20 0xFFFFFFFFFFFFFFFFFFFFFFFFFFFFFFFFFFFFFFFF AND DUP2 PUSH20 0xFFFFFFFFFFFFFFFFFFFFFFFFFFFFFFFFFFFFFFFF AND SUB PUSH3 0x16C JUMPI PUSH1 0x40 MLOAD PUSH32 0x8C379A000000000000000000000000000000000000000000000000000000000 DUP2 MSTORE PUSH1 0x4 ADD PUSH3 0x163 SWAP1 PUSH3 0x5B4 JUMP JUMPDEST PUSH1 0x40 MLOAD DUP1 SWAP2 SUB SWAP1 REVERT JUMPDEST DUP3 PUSH1 0x3 DUP2 SWAP1 SSTORE POP DUP2 PUSH1 0x2 PUSH0 PUSH2 0x100 EXP DUP2 SLOAD DUP2 PUSH20 0xFFFFFFFFFFFFFFFFFFFFFFFFFFFFFFFFFFFFFFFF MUL NOT AND SWAP1 DUP4 PUSH20 0xFFFFFFFFFFFFFFFFFFFFFFFFFFFFFFFFFFFFFFFF AND MUL OR SWAP1 SSTORE POP DUP1 PUSH1 0x1 PUSH0 PUSH2 0x100 EXP DUP2 SLOAD DUP2 PUSH20 0xFFFFFFFFFFFFFFFFFFFFFFFFFFFFFFFFFFFFFFFF MUL NOT AND SWAP1 DUP4 PUSH20 0xFFFFFFFFFFFFFFFFFFFFFFFFFFFFFFFFFFFFFFFF AND MUL OR SWAP1 SSTORE POP POP POP POP TIMESTAMP DUP6 LT ISZERO PUSH3 0x23C JUMPI PUSH1 0x40 MLOAD PUSH32 0x8C379A000000000000000000000000000000000000000000000000000000000 DUP2 MSTORE PUSH1 0x4 ADD PUSH3 0x233 SWAP1 PUSH3 0x648 JUMP JUMPDEST PUSH1 0x40 MLOAD DUP1 SWAP2 SUB SWAP1 REVERT JUMPDEST DUP5 DUP5 GT PUSH3 0x281 JUMPI PUSH1 0x40 MLOAD PUSH32 0x8C379A000000000000000000000000000000000000000000000000000000000 DUP2 MSTORE PUSH1 0x4 ADD PUSH3 0x278 SWAP1 PUSH3 0x6DC JUMP JUMPDEST PUSH1 0x40 MLOAD DUP1 SWAP2 SUB SWAP1 REVERT JUMPDEST DUP5 PUSH1 0x5 DUP2 SWAP1 SSTORE POP DUP4 PUSH1 0x6 DUP2 SWAP1 SSTORE POP POP POP POP POP POP PUSH0 PUSH1 0x7 PUSH0 PUSH2 0x100 EXP DUP2 SLOAD DUP2 PUSH1 0xFF MUL NOT AND SWAP1 DUP4 ISZERO ISZERO MUL OR SWAP1 SSTORE POP POP POP POP POP POP PUSH3 0x6FC JUMP JUMPDEST PUSH0 DUP1 REVERT JUMPDEST PUSH0 DUP2 SWAP1 POP SWAP2 SWAP1 POP JUMP JUMPDEST PUSH3 0x2D0 DUP2 PUSH3 0x2BC JUMP JUMPDEST DUP2 EQ PUSH3 0x2DB JUMPI PUSH0 DUP1 REVERT JUMPDEST POP JUMP JUMPDEST PUSH0 DUP2 MLOAD SWAP1 POP PUSH3 0x2EE DUP2 PUSH3 0x2C5 JUMP JUMPDEST SWAP3 SWAP2 POP POP JUMP JUMPDEST PUSH0 PUSH20 0xFFFFFFFFFFFFFFFFFFFFFFFFFFFFFFFFFFFFFFFF DUP3 AND SWAP1 POP SWAP2 SWAP1 POP JUMP JUMPDEST PUSH0 PUSH3 0x31F DUP3 PUSH3 0x2F4 JUMP JUMPDEST SWAP1 POP SWAP2 SWAP1 POP JUMP JUMPDEST PUSH3 0x331 DUP2 PUSH3 0x313 JUMP JUMPDEST DUP2 EQ PUSH3 0x33C JUMPI PUSH0 DUP1 REVERT JUMPDEST POP JUMP JUMPDEST PUSH0 DUP2 MLOAD SWAP1 POP PUSH3 0x34F DUP2 PUSH3 0x326 JUMP JUMPDEST SWAP3 SWAP2 POP POP JUMP JUMPDEST PUSH0 PUSH3 0x361 DUP3 PUSH3 0x2F4 JUMP JUMPDEST SWAP1 POP SWAP2 SWAP1 POP JUMP JUMPDEST PUSH0 PUSH3 0x374 DUP3 PUSH3 0x355 JUMP JUMPDEST SWAP1 POP SWAP2 SWAP1 POP JUMP JUMPDEST PUSH3 0x386 DUP2 PUSH3 0x368 JUMP JUMPDEST DUP2 EQ PUSH3 0x391 JUMPI PUSH0 DUP1 REVERT JUMPDEST POP JUMP JUMPDEST PUSH0 DUP2 MLOAD SWAP1 POP PUSH3 0x3A4 DUP2 PUSH3 0x37B JUMP JUMPDEST SWAP3 SWAP2 POP POP JUMP JUMPDEST PUSH0 DUP1 PUSH0 DUP1 PUSH0 PUSH1 0xA0 DUP7 DUP9 SUB SLT ISZERO PUSH3 0x3C6 JUMPI PUSH3 0x3C5 PUSH3 0x2B8 JUMP JUMPDEST JUMPDEST PUSH0 PUSH3 0x3D5 DUP9 DUP3 DUP10 ADD PUSH3 0x2DE JUMP JUMPDEST SWAP6 POP POP PUSH1 0x20 PUSH3 0x3E8 DUP9 DUP3 DUP10 ADD PUSH3 0x2DE JUMP JUMPDEST SWAP5 POP POP PUSH1 0x40 PUSH3 0x3FB DUP9 DUP3 DUP10 ADD PUSH3 0x2DE JUMP JUMPDEST SWAP4 POP POP PUSH1 0x60 PUSH3 0x40E DUP9 DUP3 DUP10 ADD PUSH3 0x33F JUMP JUMPDEST SWAP3 POP POP PUSH1 0x80 PUSH3 0x421 DUP9 DUP3 DUP10 ADD PUSH3 0x394 JUMP JUMPDEST SWAP2 POP POP SWAP3 SWAP6 POP SWAP3 SWAP6 SWAP1 SWAP4 POP JUMP JUMPDEST PUSH0 DUP3 DUP3 MSTORE PUSH1 0x20 DUP3 ADD SWAP1 POP SWAP3 SWAP2 POP POP JUMP JUMPDEST PUSH32 0x43726F776473616C653A20726174652069732030000000000000000000000000 PUSH0 DUP3 ADD MSTORE POP JUMP JUMPDEST PUSH0 PUSH3 0x474 PUSH1 0x14 DUP4 PUSH3 0x42E JUMP JUMPDEST SWAP2 POP PUSH3 0x481 DUP3 PUSH3 0x43E JUMP JUMPDEST PUSH1 0x20 DUP3 ADD SWAP1 POP SWAP2 SWAP1 POP JUMP JUMPDEST PUSH0 PUSH1 0x20 DUP3 ADD SWAP1 POP DUP2 DUP2 SUB PUSH0 DUP4 ADD MSTORE PUSH3 0x4A5 DUP2 PUSH3 0x466 JUMP JUMPDEST SWAP1 POP SWAP2 SWAP1 POP JUMP JUMPDEST PUSH32 0x43726F776473616C653A2077616C6C657420697320746865207A65726F206164 PUSH0 DUP3 ADD MSTORE PUSH32 0x6472657373000000000000000000000000000000000000000000000000000000 PUSH1 0x20 DUP3 ADD MSTORE POP JUMP JUMPDEST PUSH0 PUSH3 0x508 PUSH1 0x25 DUP4 PUSH3 0x42E JUMP JUMPDEST SWAP2 POP PUSH3 0x515 DUP3 PUSH3 0x4AC JUMP JUMPDEST PUSH1 0x40 DUP3 ADD SWAP1 POP SWAP2 SWAP1 POP JUMP JUMPDEST PUSH0 PUSH1 0x20 DUP3 ADD SWAP1 POP DUP2 DUP2 SUB PUSH0 DUP4 ADD MSTORE PUSH3 0x539 DUP2 PUSH3 0x4FA JUMP JUMPDEST SWAP1 POP SWAP2 SWAP1 POP JUMP JUMPDEST PUSH32 0x43726F776473616C653A20746F6B656E20697320746865207A65726F20616464 PUSH0 DUP3 ADD MSTORE PUSH32 0x7265737300000000000000000000000000000000000000000000000000000000 PUSH1 0x20 DUP3 ADD MSTORE POP JUMP JUMPDEST PUSH0 PUSH3 0x59C PUSH1 0x24 DUP4 PUSH3 0x42E JUMP JUMPDEST SWAP2 POP PUSH3 0x5A9 DUP3 PUSH3 0x540 JUMP JUMPDEST PUSH1 0x40 DUP3 ADD SWAP1 POP SWAP2 SWAP1 POP JUMP JUMPDEST PUSH0 PUSH1 0x20 DUP3 ADD SWAP1 POP DUP2 DUP2 SUB PUSH0 DUP4 ADD MSTORE PUSH3 0x5CD DUP2 PUSH3 0x58E JUMP JUMPDEST SWAP1 POP SWAP2 SWAP1 POP JUMP JUMPDEST PUSH32 0x54696D656443726F776473616C653A206F70656E696E672074696D6520697320 PUSH0 DUP3 ADD MSTORE PUSH32 0x6265666F72652063757272656E742074696D6500000000000000000000000000 PUSH1 0x20 DUP3 ADD MSTORE POP JUMP JUMPDEST PUSH0 PUSH3 0x630 PUSH1 0x33 DUP4 PUSH3 0x42E JUMP JUMPDEST SWAP2 POP PUSH3 0x63D DUP3 PUSH3 0x5D4 JUMP JUMPDEST PUSH1 0x40 DUP3 ADD SWAP1 POP SWAP2 SWAP1 POP JUMP JUMPDEST PUSH0 PUSH1 0x20 DUP3 ADD SWAP1 POP DUP2 DUP2 SUB PUSH0 DUP4 ADD MSTORE PUSH3 0x661 DUP2 PUSH3 0x622 JUMP JUMPDEST SWAP1 POP SWAP2 SWAP1 POP JUMP JUMPDEST PUSH32 0x54696D656443726F776473616C653A206F70656E696E672074696D6520697320 PUSH0 DUP3 ADD MSTORE PUSH32 0x6E6F74206265666F726520636C6F73696E672074696D65000000000000000000 PUSH1 0x20 DUP3 ADD MSTORE POP JUMP JUMPDEST PUSH0 PUSH3 0x6C4 PUSH1 0x37 DUP4 PUSH3 0x42E JUMP JUMPDEST SWAP2 POP PUSH3 0x6D1 DUP3 PUSH3 0x668 JUMP JUMPDEST PUSH1 0x40 DUP3 ADD SWAP1 POP SWAP2 SWAP1 POP JUMP JUMPDEST PUSH0 PUSH1 0x20 DUP3 ADD SWAP1 POP DUP2 DUP2 SUB PUSH0 DUP4 ADD MSTORE PUSH3 0x6F5 DUP2 PUSH3 0x6B6 JUMP JUMPDEST SWAP1 POP SWAP2 SWAP1 POP JUMP JUMPDEST PUSH2 0x12E4 DUP1 PUSH3 0x70A PUSH0 CODECOPY PUSH0 RETURN INVALID PUSH1 0x80 PUSH1 0x40 MSTORE PUSH1 0x4 CALLDATASIZE LT PUSH2 0x9F JUMPI PUSH0 CALLDATALOAD PUSH1 0xE0 SHR DUP1 PUSH4 0x4BB278F3 GT PUSH2 0x63 JUMPI DUP1 PUSH4 0x4BB278F3 EQ PUSH2 0x19A JUMPI DUP1 PUSH4 0x521EB273 EQ PUSH2 0x1B0 JUMPI DUP1 PUSH4 0xB3F05B97 EQ PUSH2 0x1DA JUMPI DUP1 PUSH4 0xB7A8807C EQ PUSH2 0x204 JUMPI DUP1 PUSH4 0xEC8AC4D8 EQ PUSH2 0x22E JUMPI DUP1 PUSH4 0xFC0C546A EQ PUSH2 0x24A JUMPI PUSH2 0xB6 JUMP JUMPDEST DUP1 PUSH4 0x1515BC2B EQ PUSH2 0xC8 JUMPI DUP1 PUSH4 0x2C4E722E EQ PUSH2 0xF2 JUMPI DUP1 PUSH4 0x4042B66F EQ PUSH2 0x11C JUMPI DUP1 PUSH4 0x47535D7B EQ PUSH2 0x146 JUMPI DUP1 PUSH4 0x4B6753BC EQ PUSH2 0x170 JUMPI PUSH2 0xB6 JUMP JUMPDEST CALLDATASIZE PUSH2 0xB6 JUMPI PUSH2 0xB4 PUSH2 0xAF PUSH2 0x274 JUMP JUMPDEST PUSH2 0x27B JUMP JUMPDEST STOP JUMPDEST PUSH2 0xC6 PUSH2 0xC1 PUSH2 0x274 JUMP JUMPDEST PUSH2 0x27B JUMP JUMPDEST STOP JUMPDEST CALLVALUE DUP1 ISZERO PUSH2 0xD3 JUMPI PUSH0 DUP1 REVERT JUMPDEST POP PUSH2 0xDC PUSH2 0x359 JUMP JUMPDEST PUSH1 0x40 MLOAD PUSH2 0xE9 SWAP2 SWAP1 PUSH2 0xA97 JUMP JUMPDEST PUSH1 0x40 MLOAD DUP1 SWAP2 SUB SWAP1 RETURN JUMPDEST CALLVALUE DUP1 ISZERO PUSH2 0xFD JUMPI PUSH0 DUP1 REVERT JUMPDEST POP PUSH2 0x106 PUSH2 0x364 JUMP JUMPDEST PUSH1 0x40 MLOAD PUSH2 0x113 SWAP2 SWAP1 PUSH2 0xAC8 JUMP JUMPDEST PUSH1 0x40 MLOAD DUP1 SWAP2 SUB SWAP1 RETURN JUMPDEST CALLVALUE DUP1 ISZERO PUSH2 0x127 JUMPI PUSH0 DUP1 REVERT JUMPDEST POP PUSH2 0x130 PUSH2 0x36D JUMP JUMPDEST PUSH1 0x40 MLOAD PUSH2 0x13D SWAP2 SWAP1 PUSH2 0xAC8 JUMP JUMPDEST PUSH1 0x40 MLOAD DUP1 SWAP2 SUB SWAP1 RETURN JUMPDEST CALLVALUE DUP1 ISZERO PUSH2 0x151 JUMPI PUSH0 DUP1 REVERT JUMPDEST POP PUSH2 0x15A PUSH2 0x376 JUMP JUMPDEST PUSH1 0x40 MLOAD PUSH2 0x167 SWAP2 SWAP1 PUSH2 0xA97 JUMP JUMPDEST PUSH1 0x40 MLOAD DUP1 SWAP2 SUB SWAP1 RETURN JUMPDEST CALLVALUE DUP1 ISZERO PUSH2 0x17B JUMPI PUSH0 DUP1 REVERT JUMPDEST POP PUSH2 0x184 PUSH2 0x390 JUMP JUMPDEST PUSH1 0x40 MLOAD PUSH2 0x191 SWAP2 SWAP1 PUSH2 0xAC8 JUMP JUMPDEST PUSH1 0x40 MLOAD DUP1 SWAP2 SUB SWAP1 RETURN JUMPDEST CALLVALUE DUP1 ISZERO PUSH2 0x1A5 JUMPI PUSH0 DUP1 REVERT JUMPDEST POP PUSH2 0x1AE PUSH2 0x399 JUMP JUMPDEST STOP JUMPDEST CALLVALUE DUP1 ISZERO PUSH2 0x1BB JUMPI PUSH0 DUP1 REVERT JUMPDEST POP PUSH2 0x1C4 PUSH2 0x3EA JUMP JUMPDEST PUSH1 0x40 MLOAD PUSH2 0x1D1 SWAP2 SWAP1 PUSH2 0xB20 JUMP JUMPDEST PUSH1 0x40 MLOAD DUP1 SWAP2 SUB SWAP1 RETURN JUMPDEST CALLVALUE DUP1 ISZERO PUSH2 0x1E5 JUMPI PUSH0 DUP1 REVERT JUMPDEST POP PUSH2 0x1EE PUSH2 0x412 JUMP JUMPDEST PUSH1 0x40 MLOAD PUSH2 0x1FB SWAP2 SWAP1 PUSH2 0xA97 JUMP JUMPDEST PUSH1 0x40 MLOAD DUP1 SWAP2 SUB SWAP1 RETURN JUMPDEST CALLVALUE DUP1 ISZERO PUSH2 0x20F JUMPI PUSH0 DUP1 REVERT JUMPDEST POP PUSH2 0x218 PUSH2 0x427 JUMP JUMPDEST PUSH1 0x40 MLOAD PUSH2 0x225 SWAP2 SWAP1 PUSH2 0xAC8 JUMP JUMPDEST PUSH1 0x40 MLOAD DUP1 SWAP2 SUB SWAP1 RETURN JUMPDEST PUSH2 0x248 PUSH1 0x4 DUP1 CALLDATASIZE SUB DUP2 ADD SWAP1 PUSH2 0x243 SWAP2 SWAP1 PUSH2 0xB78 JUMP JUMPDEST PUSH2 0x27B JUMP JUMPDEST STOP JUMPDEST CALLVALUE DUP1 ISZERO PUSH2 0x255 JUMPI PUSH0 DUP1 REVERT JUMPDEST POP PUSH2 0x25E PUSH2 0x430 JUMP JUMPDEST PUSH1 0x40 MLOAD PUSH2 0x26B SWAP2 SWAP1 PUSH2 0xBFE JUMP JUMPDEST PUSH1 0x40 MLOAD DUP1 SWAP2 SUB SWAP1 RETURN JUMPDEST PUSH0 CALLER SWAP1 POP SWAP1 JUMP JUMPDEST PUSH2 0x283 PUSH2 0x458 JUMP JUMPDEST PUSH0 CALLVALUE SWAP1 POP PUSH2 0x291 DUP3 DUP3 PUSH2 0x4A5 JUMP JUMPDEST PUSH0 PUSH2 0x29B DUP3 PUSH2 0x4FA JUMP JUMPDEST SWAP1 POP PUSH2 0x2B2 DUP3 PUSH1 0x4 SLOAD PUSH2 0x517 SWAP1 SWAP2 SWAP1 PUSH4 0xFFFFFFFF AND JUMP JUMPDEST PUSH1 0x4 DUP2 SWAP1 SSTORE POP PUSH2 0x2C2 DUP4 DUP3 PUSH2 0x52C JUMP JUMPDEST DUP3 PUSH20 0xFFFFFFFFFFFFFFFFFFFFFFFFFFFFFFFFFFFFFFFF AND PUSH2 0x2E1 PUSH2 0x274 JUMP JUMPDEST PUSH20 0xFFFFFFFFFFFFFFFFFFFFFFFFFFFFFFFFFFFFFFFF AND PUSH32 0x6FAF93231A456E552DBC9961F58D9713EE4F2E69D15F1975B050EF0911053A7B DUP5 DUP5 PUSH1 0x40 MLOAD PUSH2 0x328 SWAP3 SWAP2 SWAP1 PUSH2 0xC17 JUMP JUMPDEST PUSH1 0x40 MLOAD DUP1 SWAP2 SUB SWAP1 LOG3 PUSH2 0x33A DUP4 DUP4 PUSH2 0x53A JUMP JUMPDEST PUSH2 0x342 PUSH2 0x53E JUMP JUMPDEST PUSH2 0x34C DUP4 DUP4 PUSH2 0x5A5 JUMP JUMPDEST POP POP PUSH2 0x356 PUSH2 0x5A9 JUMP JUMPDEST POP JUMP JUMPDEST PUSH0 PUSH1 0x6 SLOAD TIMESTAMP GT SWAP1 POP SWAP1 JUMP JUMPDEST PUSH0 PUSH1 0x3 SLOAD SWAP1 POP SWAP1 JUMP JUMPDEST PUSH0 PUSH1 0x4 SLOAD SWAP1 POP SWAP1 JUMP JUMPDEST PUSH0 PUSH1 0x5 SLOAD TIMESTAMP LT ISZERO DUP1 ISZERO PUSH2 0x38B JUMPI POP PUSH1 0x6 SLOAD TIMESTAMP GT ISZERO JUMPDEST SWAP1 POP SWAP1 JUMP JUMPDEST PUSH0 PUSH1 0x6 SLOAD SWAP1 POP SWAP1 JUMP JUMPDEST PUSH2 0x3A1 PUSH2 0x359 JUMP JUMPDEST PUSH2 0x3E0 JUMPI PUSH1 0x40 MLOAD PUSH32 0x8C379A000000000000000000000000000000000000000000000000000000000 DUP2 MSTORE PUSH1 0x4 ADD PUSH2 0x3D7 SWAP1 PUSH2 0xC98 JUMP JUMPDEST PUSH1 0x40 MLOAD DUP1 SWAP2 SUB SWAP1 REVERT JUMPDEST PUSH2 0x3E8 PUSH2 0x5B2 JUMP JUMPDEST JUMP JUMPDEST PUSH0 PUSH1 0x2 PUSH0 SWAP1 SLOAD SWAP1 PUSH2 0x100 EXP SWAP1 DIV PUSH20 0xFFFFFFFFFFFFFFFFFFFFFFFFFFFFFFFFFFFFFFFF AND SWAP1 POP SWAP1 JUMP JUMPDEST PUSH0 PUSH1 0x7 PUSH0 SWAP1 SLOAD SWAP1 PUSH2 0x100 EXP SWAP1 DIV PUSH1 0xFF AND SWAP1 POP SWAP1 JUMP JUMPDEST PUSH0 PUSH1 0x5 SLOAD SWAP1 POP SWAP1 JUMP JUMPDEST PUSH0 PUSH1 0x1 PUSH0 SWAP1 SLOAD SWAP1 PUSH2 0x100 EXP SWAP1 DIV PUSH20 0xFFFFFFFFFFFFFFFFFFFFFFFFFFFFFFFFFFFFFFFF AND SWAP1 POP SWAP1 JUMP JUMPDEST PUSH1 0x2 PUSH0 SLOAD SUB PUSH2 0x49C JUMPI PUSH1 0x40 MLOAD PUSH32 0x8C379A000000000000000000000000000000000000000000000000000000000 DUP2 MSTORE PUSH1 0x4 ADD PUSH2 0x493 SWAP1 PUSH2 0xD00 JUMP JUMPDEST PUSH1 0x40 MLOAD DUP1 SWAP2 SUB SWAP1 REVERT JUMPDEST PUSH1 0x2 PUSH0 DUP2 SWAP1 SSTORE POP JUMP JUMPDEST PUSH2 0x4AD PUSH2 0x376 JUMP JUMPDEST PUSH2 0x4EC JUMPI PUSH1 0x40 MLOAD PUSH32 0x8C379A000000000000000000000000000000000000000000000000000000000 DUP2 MSTORE PUSH1 0x4 ADD PUSH2 0x4E3 SWAP1 PUSH2 0xD68 JUMP JUMPDEST PUSH1 0x40 MLOAD DUP1 SWAP2 SUB SWAP1 REVERT JUMPDEST PUSH2 0x4F6 DUP3 DUP3 PUSH2 0x651 JUMP JUMPDEST POP POP JUMP JUMPDEST PUSH0 PUSH2 0x510 PUSH1 0x3 SLOAD DUP4 PUSH2 0x705 SWAP1 SWAP2 SWAP1 PUSH4 0xFFFFFFFF AND JUMP JUMPDEST SWAP1 POP SWAP2 SWAP1 POP JUMP JUMPDEST PUSH0 DUP2 DUP4 PUSH2 0x524 SWAP2 SWAP1 PUSH2 0xDB3 JUMP JUMPDEST SWAP1 POP SWAP3 SWAP2 POP POP JUMP JUMPDEST PUSH2 0x536 DUP3 DUP3 PUSH2 0x71A JUMP JUMPDEST POP POP JUMP JUMPDEST POP POP JUMP JUMPDEST PUSH1 0x2 PUSH0 SWAP1 SLOAD SWAP1 PUSH2 0x100 EXP SWAP1 DIV PUSH20 0xFFFFFFFFFFFFFFFFFFFFFFFFFFFFFFFFFFFFFFFF AND PUSH20 0xFFFFFFFFFFFFFFFFFFFFFFFFFFFFFFFFFFFFFFFF AND PUSH2 0x8FC CALLVALUE SWAP1 DUP2 ISZERO MUL SWAP1 PUSH1 0x40 MLOAD PUSH0 PUSH1 0x40 MLOAD DUP1 DUP4 SUB DUP2 DUP6 DUP9 DUP9 CALL SWAP4 POP POP POP POP ISZERO DUP1 ISZERO PUSH2 0x5A2 JUMPI RETURNDATASIZE PUSH0 DUP1 RETURNDATACOPY RETURNDATASIZE PUSH0 REVERT JUMPDEST POP JUMP JUMPDEST POP POP JUMP JUMPDEST PUSH1 0x1 PUSH0 DUP2 SWAP1 SSTORE POP JUMP JUMPDEST PUSH1 0x7 PUSH0 SWAP1 SLOAD SWAP1 PUSH2 0x100 EXP SWAP1 DIV PUSH1 0xFF AND ISZERO PUSH2 0x601 JUMPI PUSH1 0x40 MLOAD PUSH32 0x8C379A000000000000000000000000000000000000000000000000000000000 DUP2 MSTORE PUSH1 0x4 ADD PUSH2 0x5F8 SWAP1 PUSH2 0xE56 JUMP JUMPDEST PUSH1 0x40 MLOAD DUP1 SWAP2 SUB SWAP1 REVERT JUMPDEST PUSH1 0x1 PUSH1 0x7 PUSH0 PUSH2 0x100 EXP DUP2 SLOAD DUP2 PUSH1 0xFF MUL NOT AND SWAP1 DUP4 ISZERO ISZERO MUL OR SWAP1 SSTORE POP PUSH2 0x623 PUSH2 0x76A JUMP JUMPDEST PUSH32 0x9C6AC702AC1E5E834D54FAE35FA20F6DBAB76180A01317EC37A7E4CE9F86FE51 PUSH1 0x40 MLOAD PUSH1 0x40 MLOAD DUP1 SWAP2 SUB SWAP1 LOG1 JUMP JUMPDEST PUSH0 PUSH20 0xFFFFFFFFFFFFFFFFFFFFFFFFFFFFFFFFFFFFFFFF AND DUP3 PUSH20 0xFFFFFFFFFFFFFFFFFFFFFFFFFFFFFFFFFFFFFFFF AND SUB PUSH2 0x6BF JUMPI PUSH1 0x40 MLOAD PUSH32 0x8C379A000000000000000000000000000000000000000000000000000000000 DUP2 MSTORE PUSH1 0x4 ADD PUSH2 0x6B6 SWAP1 PUSH2 0xEE4 JUMP JUMPDEST PUSH1 0x40 MLOAD DUP1 SWAP2 SUB SWAP1 REVERT JUMPDEST PUSH0 DUP2 SUB PUSH2 0x701 JUMPI PUSH1 0x40 MLOAD PUSH32 0x8C379A000000000000000000000000000000000000000000000000000000000 DUP2 MSTORE PUSH1 0x4 ADD PUSH2 0x6F8 SWAP1 PUSH2 0xF4C JUMP JUMPDEST PUSH1 0x40 MLOAD DUP1 SWAP2 SUB SWAP1 REVERT JUMPDEST POP POP JUMP JUMPDEST PUSH0 DUP2 DUP4 PUSH2 0x712 SWAP2 SWAP1 PUSH2 0xF6A JUMP JUMPDEST SWAP1 POP SWAP3 SWAP2 POP POP JUMP JUMPDEST PUSH2 0x766 DUP3 DUP3 PUSH1 0x1 PUSH0 SWAP1 SLOAD SWAP1 PUSH2 0x100 EXP SWAP1 DIV PUSH20 0xFFFFFFFFFFFFFFFFFFFFFFFFFFFFFFFFFFFFFFFF AND PUSH20 0xFFFFFFFFFFFFFFFFFFFFFFFFFFFFFFFFFFFFFFFF AND PUSH2 0x76C SWAP1 SWAP3 SWAP2 SWAP1 PUSH4 0xFFFFFFFF AND JUMP JUMPDEST POP POP JUMP JUMPDEST JUMP JUMPDEST PUSH2 0x7ED DUP4 PUSH4 0xA9059CBB PUSH1 0xE0 SHL DUP5 DUP5 PUSH1 0x40 MLOAD PUSH1 0x24 ADD PUSH2 0x78B SWAP3 SWAP2 SWAP1 PUSH2 0xFBA JUMP JUMPDEST PUSH1 0x40 MLOAD PUSH1 0x20 DUP2 DUP4 SUB SUB DUP2 MSTORE SWAP1 PUSH1 0x40 MSTORE SWAP1 PUSH28 0xFFFFFFFFFFFFFFFFFFFFFFFFFFFFFFFFFFFFFFFFFFFFFFFFFFFFFFFF NOT AND PUSH1 0x20 DUP3 ADD DUP1 MLOAD PUSH28 0xFFFFFFFFFFFFFFFFFFFFFFFFFFFFFFFFFFFFFFFFFFFFFFFFFFFFFFFF DUP4 DUP2 DUP4 AND OR DUP4 MSTORE POP POP POP POP PUSH2 0x7F2 JUMP JUMPDEST POP POP POP JUMP JUMPDEST PUSH0 PUSH2 0x853 DUP3 PUSH1 0x40 MLOAD DUP1 PUSH1 0x40 ADD PUSH1 0x40 MSTORE DUP1 PUSH1 0x20 DUP2 MSTORE PUSH1 0x20 ADD PUSH32 0x5361666545524332303A206C6F772D6C6576656C2063616C6C206661696C6564 DUP2 MSTORE POP DUP6 PUSH20 0xFFFFFFFFFFFFFFFFFFFFFFFFFFFFFFFFFFFFFFFF AND PUSH2 0x8B8 SWAP1 SWAP3 SWAP2 SWAP1 PUSH4 0xFFFFFFFF AND JUMP JUMPDEST SWAP1 POP PUSH0 DUP2 MLOAD EQ DUP1 PUSH2 0x874 JUMPI POP DUP1 DUP1 PUSH1 0x20 ADD SWAP1 MLOAD DUP2 ADD SWAP1 PUSH2 0x873 SWAP2 SWAP1 PUSH2 0x100B JUMP JUMPDEST JUMPDEST PUSH2 0x8B3 JUMPI PUSH1 0x40 MLOAD PUSH32 0x8C379A000000000000000000000000000000000000000000000000000000000 DUP2 MSTORE PUSH1 0x4 ADD PUSH2 0x8AA SWAP1 PUSH2 0x10A6 JUMP JUMPDEST PUSH1 0x40 MLOAD DUP1 SWAP2 SUB SWAP1 REVERT JUMPDEST POP POP POP JUMP JUMPDEST PUSH1 0x60 PUSH2 0x8C6 DUP5 DUP5 PUSH0 DUP6 PUSH2 0x8CF JUMP JUMPDEST SWAP1 POP SWAP4 SWAP3 POP POP POP JUMP JUMPDEST PUSH1 0x60 DUP3 SELFBALANCE LT ISZERO PUSH2 0x914 JUMPI PUSH1 0x40 MLOAD PUSH32 0x8C379A000000000000000000000000000000000000000000000000000000000 DUP2 MSTORE PUSH1 0x4 ADD PUSH2 0x90B SWAP1 PUSH2 0x1134 JUMP JUMPDEST PUSH1 0x40 MLOAD DUP1 SWAP2 SUB SWAP1 REVERT JUMPDEST PUSH0 DUP1 DUP7 PUSH20 0xFFFFFFFFFFFFFFFFFFFFFFFFFFFFFFFFFFFFFFFF AND DUP6 DUP8 PUSH1 0x40 MLOAD PUSH2 0x93C SWAP2 SWAP1 PUSH2 0x11BE JUMP JUMPDEST PUSH0 PUSH1 0x40 MLOAD DUP1 DUP4 SUB DUP2 DUP6 DUP8 GAS CALL SWAP3 POP POP POP RETURNDATASIZE DUP1 PUSH0 DUP2 EQ PUSH2 0x976 JUMPI PUSH1 0x40 MLOAD SWAP2 POP PUSH1 0x1F NOT PUSH1 0x3F RETURNDATASIZE ADD AND DUP3 ADD PUSH1 0x40 MSTORE RETURNDATASIZE DUP3 MSTORE RETURNDATASIZE PUSH0 PUSH1 0x20 DUP5 ADD RETURNDATACOPY PUSH2 0x97B JUMP JUMPDEST PUSH1 0x60 SWAP2 POP JUMPDEST POP SWAP2 POP SWAP2 POP PUSH2 0x98C DUP8 DUP4 DUP4 DUP8 PUSH2 0x998 JUMP JUMPDEST SWAP3 POP POP POP SWAP5 SWAP4 POP POP POP POP JUMP JUMPDEST PUSH1 0x60 DUP4 ISZERO PUSH2 0x9F9 JUMPI PUSH0 DUP4 MLOAD SUB PUSH2 0x9F1 JUMPI PUSH2 0x9B1 DUP6 PUSH2 0xA0C JUMP JUMPDEST PUSH2 0x9F0 JUMPI PUSH1 0x40 MLOAD PUSH32 0x8C379A000000000000000000000000000000000000000000000000000000000 DUP2 MSTORE PUSH1 0x4 ADD PUSH2 0x9E7 SWAP1 PUSH2 0x121E JUMP JUMPDEST PUSH1 0x40 MLOAD DUP1 SWAP2 SUB SWAP1 REVERT JUMPDEST JUMPDEST DUP3 SWAP1 POP PUSH2 0xA04 JUMP JUMPDEST PUSH2 0xA03 DUP4 DUP4 PUSH2 0xA2E JUMP JUMPDEST JUMPDEST SWAP5 SWAP4 POP POP POP POP JUMP JUMPDEST PUSH0 DUP1 DUP3 PUSH20 0xFFFFFFFFFFFFFFFFFFFFFFFFFFFFFFFFFFFFFFFF AND EXTCODESIZE GT SWAP1 POP SWAP2 SWAP1 POP JUMP JUMPDEST PUSH0 DUP3 MLOAD GT ISZERO PUSH2 0xA40 JUMPI DUP2 MLOAD DUP1 DUP4 PUSH1 0x20 ADD REVERT JUMPDEST DUP1 PUSH1 0x40 MLOAD PUSH32 0x8C379A000000000000000000000000000000000000000000000000000000000 DUP2 MSTORE PUSH1 0x4 ADD PUSH2 0xA74 SWAP2 SWAP1 PUSH2 0x128E JUMP JUMPDEST PUSH1 0x40 MLOAD DUP1 SWAP2 SUB SWAP1 REVERT JUMPDEST PUSH0 DUP2 ISZERO ISZERO SWAP1 POP SWAP2 SWAP1 POP JUMP JUMPDEST PUSH2 0xA91 DUP2 PUSH2 0xA7D JUMP JUMPDEST DUP3 MSTORE POP POP JUMP JUMPDEST PUSH0 PUSH1 0x20 DUP3 ADD SWAP1 POP PUSH2 0xAAA PUSH0 DUP4 ADD DUP5 PUSH2 0xA88 JUMP JUMPDEST SWAP3 SWAP2 POP POP JUMP JUMPDEST PUSH0 DUP2 SWAP1 POP SWAP2 SWAP1 POP JUMP JUMPDEST PUSH2 0xAC2 DUP2 PUSH2 0xAB0 JUMP JUMPDEST DUP3 MSTORE POP POP JUMP JUMPDEST PUSH0 PUSH1 0x20 DUP3 ADD SWAP1 POP PUSH2 0xADB PUSH0 DUP4 ADD DUP5 PUSH2 0xAB9 JUMP JUMPDEST SWAP3 SWAP2 POP POP JUMP JUMPDEST PUSH0 PUSH20 0xFFFFFFFFFFFFFFFFFFFFFFFFFFFFFFFFFFFFFFFF DUP3 AND SWAP1 POP SWAP2 SWAP1 POP JUMP JUMPDEST PUSH0 PUSH2 0xB0A DUP3 PUSH2 0xAE1 JUMP JUMPDEST SWAP1 POP SWAP2 SWAP1 POP JUMP JUMPDEST PUSH2 0xB1A DUP2 PUSH2 0xB00 JUMP JUMPDEST DUP3 MSTORE POP POP JUMP JUMPDEST PUSH0 PUSH1 0x20 DUP3 ADD SWAP1 POP PUSH2 0xB33 PUSH0 DUP4 ADD DUP5 PUSH2 0xB11 JUMP JUMPDEST SWAP3 SWAP2 POP POP JUMP JUMPDEST PUSH0 DUP1 REVERT JUMPDEST PUSH0 PUSH2 0xB47 DUP3 PUSH2 0xAE1 JUMP JUMPDEST SWAP1 POP SWAP2 SWAP1 POP JUMP JUMPDEST PUSH2 0xB57 DUP2 PUSH2 0xB3D JUMP JUMPDEST DUP2 EQ PUSH2 0xB61 JUMPI PUSH0 DUP1 REVERT JUMPDEST POP JUMP JUMPDEST PUSH0 DUP2 CALLDATALOAD SWAP1 POP PUSH2 0xB72 DUP2 PUSH2 0xB4E JUMP JUMPDEST SWAP3 SWAP2 POP POP JUMP JUMPDEST PUSH0 PUSH1 0x20 DUP3 DUP5 SUB SLT ISZERO PUSH2 0xB8D JUMPI PUSH2 0xB8C PUSH2 0xB39 JUMP JUMPDEST JUMPDEST PUSH0 PUSH2 0xB9A DUP5 DUP3 DUP6 ADD PUSH2 0xB64 JUMP JUMPDEST SWAP2 POP POP SWAP3 SWAP2 POP POP JUMP JUMPDEST PUSH0 DUP2 SWAP1 POP SWAP2 SWAP1 POP JUMP JUMPDEST PUSH0 PUSH2 0xBC6 PUSH2 0xBC1 PUSH2 0xBBC DUP5 PUSH2 0xAE1 JUMP JUMPDEST PUSH2 0xBA3 JUMP JUMPDEST PUSH2 0xAE1 JUMP JUMPDEST SWAP1 POP SWAP2 SWAP1 POP JUMP JUMPDEST PUSH0 PUSH2 0xBD7 DUP3 PUSH2 0xBAC JUMP JUMPDEST SWAP1 POP SWAP2 SWAP1 POP JUMP JUMPDEST PUSH0 PUSH2 0xBE8 DUP3 PUSH2 0xBCD JUMP JUMPDEST SWAP1 POP SWAP2 SWAP1 POP JUMP JUMPDEST PUSH2 0xBF8 DUP2 PUSH2 0xBDE JUMP JUMPDEST DUP3 MSTORE POP POP JUMP JUMPDEST PUSH0 PUSH1 0x20 DUP3 ADD SWAP1 POP PUSH2 0xC11 PUSH0 DUP4 ADD DUP5 PUSH2 0xBEF JUMP JUMPDEST SWAP3 SWAP2 POP POP JUMP JUMPDEST PUSH0 PUSH1 0x40 DUP3 ADD SWAP1 POP PUSH2 0xC2A PUSH0 DUP4 ADD DUP6 PUSH2 0xAB9 JUMP JUMPDEST PUSH2 0xC37 PUSH1 0x20 DUP4 ADD DUP5 PUSH2 0xAB9 JUMP JUMPDEST SWAP4 SWAP3 POP POP POP JUMP JUMPDEST PUSH0 DUP3 DUP3 MSTORE PUSH1 0x20 DUP3 ADD SWAP1 POP SWAP3 SWAP2 POP POP JUMP JUMPDEST PUSH32 0x46696E616C697A61626C6543726F776473616C653A206E6F7420636C6F736564 PUSH0 DUP3 ADD MSTORE POP JUMP JUMPDEST PUSH0 PUSH2 0xC82 PUSH1 0x20 DUP4 PUSH2 0xC3E JUMP JUMPDEST SWAP2 POP PUSH2 0xC8D DUP3 PUSH2 0xC4E JUMP JUMPDEST PUSH1 0x20 DUP3 ADD SWAP1 POP SWAP2 SWAP1 POP JUMP JUMPDEST PUSH0 PUSH1 0x20 DUP3 ADD SWAP1 POP DUP2 DUP2 SUB PUSH0 DUP4 ADD MSTORE PUSH2 0xCAF DUP2 PUSH2 0xC76 JUMP JUMPDEST SWAP1 POP SWAP2 SWAP1 POP JUMP JUMPDEST PUSH32 0x5265656E7472616E637947756172643A207265656E7472616E742063616C6C00 PUSH0 DUP3 ADD MSTORE POP JUMP JUMPDEST PUSH0 PUSH2 0xCEA PUSH1 0x1F DUP4 PUSH2 0xC3E JUMP JUMPDEST SWAP2 POP PUSH2 0xCF5 DUP3 PUSH2 0xCB6 JUMP JUMPDEST PUSH1 0x20 DUP3 ADD SWAP1 POP SWAP2 SWAP1 POP JUMP JUMPDEST PUSH0 PUSH1 0x20 DUP3 ADD SWAP1 POP DUP2 DUP2 SUB PUSH0 DUP4 ADD MSTORE PUSH2 0xD17 DUP2 PUSH2 0xCDE JUMP JUMPDEST SWAP1 POP SWAP2 SWAP1 POP JUMP JUMPDEST PUSH32 0x54696D656443726F776473616C653A206E6F74206F70656E0000000000000000 PUSH0 DUP3 ADD MSTORE POP JUMP JUMPDEST PUSH0 PUSH2 0xD52 PUSH1 0x18 DUP4 PUSH2 0xC3E JUMP JUMPDEST SWAP2 POP PUSH2 0xD5D DUP3 PUSH2 0xD1E JUMP JUMPDEST PUSH1 0x20 DUP3 ADD SWAP1 POP SWAP2 SWAP1 POP JUMP JUMPDEST PUSH0 PUSH1 0x20 DUP3 ADD SWAP1 POP DUP2 DUP2 SUB PUSH0 DUP4 ADD MSTORE PUSH2 0xD7F DUP2 PUSH2 0xD46 JUMP JUMPDEST SWAP1 POP SWAP2 SWAP1 POP JUMP JUMPDEST PUSH32 0x4E487B7100000000000000000000000000000000000000000000000000000000 PUSH0 MSTORE PUSH1 0x11 PUSH1 0x4 MSTORE PUSH1 0x24 PUSH0 REVERT JUMPDEST PUSH0 PUSH2 0xDBD DUP3 PUSH2 0xAB0 JUMP JUMPDEST SWAP2 POP PUSH2 0xDC8 DUP4 PUSH2 0xAB0 JUMP JUMPDEST SWAP3 POP DUP3 DUP3 ADD SWAP1 POP DUP1 DUP3 GT ISZERO PUSH2 0xDE0 JUMPI PUSH2 0xDDF PUSH2 0xD86 JUMP JUMPDEST JUMPDEST SWAP3 SWAP2 POP POP JUMP JUMPDEST PUSH32 0x46696E616C697A61626C6543726F776473616C653A20616C7265616479206669 PUSH0 DUP3 ADD MSTORE PUSH32 0x6E616C697A656400000000000000000000000000000000000000000000000000 PUSH1 0x20 DUP3 ADD MSTORE POP JUMP JUMPDEST PUSH0 PUSH2 0xE40 PUSH1 0x27 DUP4 PUSH2 0xC3E JUMP JUMPDEST SWAP2 POP PUSH2 0xE4B DUP3 PUSH2 0xDE6 JUMP JUMPDEST PUSH1 0x40 DUP3 ADD SWAP1 POP SWAP2 SWAP1 POP JUMP JUMPDEST PUSH0 PUSH1 0x20 DUP3 ADD SWAP1 POP DUP2 DUP2 SUB PUSH0 DUP4 ADD MSTORE PUSH2 0xE6D DUP2 PUSH2 0xE34 JUMP JUMPDEST SWAP1 POP SWAP2 SWAP1 POP JUMP JUMPDEST PUSH32 0x43726F776473616C653A2062656E656669636961727920697320746865207A65 PUSH0 DUP3 ADD MSTORE PUSH32 0x726F206164647265737300000000000000000000000000000000000000000000 PUSH1 0x20 DUP3 ADD MSTORE POP JUMP JUMPDEST PUSH0 PUSH2 0xECE PUSH1 0x2A DUP4 PUSH2 0xC3E JUMP JUMPDEST SWAP2 POP PUSH2 0xED9 DUP3 PUSH2 0xE74 JUMP JUMPDEST PUSH1 0x40 DUP3 ADD SWAP1 POP SWAP2 SWAP1 POP JUMP JUMPDEST PUSH0 PUSH1 0x20 DUP3 ADD SWAP1 POP DUP2 DUP2 SUB PUSH0 DUP4 ADD MSTORE PUSH2 0xEFB DUP2 PUSH2 0xEC2 JUMP JUMPDEST SWAP1 POP SWAP2 SWAP1 POP JUMP JUMPDEST PUSH32 0x43726F776473616C653A20776569416D6F756E74206973203000000000000000 PUSH0 DUP3 ADD MSTORE POP JUMP JUMPDEST PUSH0 PUSH2 0xF36 PUSH1 0x19 DUP4 PUSH2 0xC3E JUMP JUMPDEST SWAP2 POP PUSH2 0xF41 DUP3 PUSH2 0xF02 JUMP JUMPDEST PUSH1 0x20 DUP3 ADD SWAP1 POP SWAP2 SWAP1 POP JUMP JUMPDEST PUSH0 PUSH1 0x20 DUP3 ADD SWAP1 POP DUP2 DUP2 SUB PUSH0 DUP4 ADD MSTORE PUSH2 0xF63 DUP2 PUSH2 0xF2A JUMP JUMPDEST SWAP1 POP SWAP2 SWAP1 POP JUMP JUMPDEST PUSH0 PUSH2 0xF74 DUP3 PUSH2 0xAB0 JUMP JUMPDEST SWAP2 POP PUSH2 0xF7F DUP4 PUSH2 0xAB0 JUMP JUMPDEST SWAP3 POP DUP3 DUP3 MUL PUSH2 0xF8D DUP2 PUSH2 0xAB0 JUMP JUMPDEST SWAP2 POP DUP3 DUP3 DIV DUP5 EQ DUP4 ISZERO OR PUSH2 0xFA4 JUMPI PUSH2 0xFA3 PUSH2 0xD86 JUMP JUMPDEST JUMPDEST POP SWAP3 SWAP2 POP POP JUMP JUMPDEST PUSH2 0xFB4 DUP2 PUSH2 0xB3D JUMP JUMPDEST DUP3 MSTORE POP POP JUMP JUMPDEST PUSH0 PUSH1 0x40 DUP3 ADD SWAP1 POP PUSH2 0xFCD PUSH0 DUP4 ADD DUP6 PUSH2 0xFAB JUMP JUMPDEST PUSH2 0xFDA PUSH1 0x20 DUP4 ADD DUP5 PUSH2 0xAB9 JUMP JUMPDEST SWAP4 SWAP3 POP POP POP JUMP JUMPDEST PUSH2 0xFEA DUP2 PUSH2 0xA7D JUMP JUMPDEST DUP2 EQ PUSH2 0xFF4 JUMPI PUSH0 DUP1 REVERT JUMPDEST POP JUMP JUMPDEST PUSH0 DUP2 MLOAD SWAP1 POP PUSH2 0x1005 DUP2 PUSH2 0xFE1 JUMP JUMPDEST SWAP3 SWAP2 POP POP JUMP JUMPDEST PUSH0 PUSH1 0x20 DUP3 DUP5 SUB SLT ISZERO PUSH2 0x1020 JUMPI PUSH2 0x101F PUSH2 0xB39 JUMP JUMPDEST JUMPDEST PUSH0 PUSH2 0x102D DUP5 DUP3 DUP6 ADD PUSH2 0xFF7 JUMP JUMPDEST SWAP2 POP POP SWAP3 SWAP2 POP POP JUMP JUMPDEST PUSH32 0x5361666545524332303A204552433230206F7065726174696F6E20646964206E PUSH0 DUP3 ADD MSTORE PUSH32 0x6F74207375636365656400000000000000000000000000000000000000000000 PUSH1 0x20 DUP3 ADD MSTORE POP JUMP JUMPDEST PUSH0 PUSH2 0x1090 PUSH1 0x2A DUP4 PUSH2 0xC3E JUMP JUMPDEST SWAP2 POP PUSH2 0x109B DUP3 PUSH2 0x1036 JUMP JUMPDEST PUSH1 0x40 DUP3 ADD SWAP1 POP SWAP2 SWAP1 POP JUMP JUMPDEST PUSH0 PUSH1 0x20 DUP3 ADD SWAP1 POP DUP2 DUP2 SUB PUSH0 DUP4 ADD MSTORE PUSH2 0x10BD DUP2 PUSH2 0x1084 JUMP JUMPDEST SWAP1 POP SWAP2 SWAP1 POP JUMP JUMPDEST PUSH32 0x416464726573733A20696E73756666696369656E742062616C616E636520666F PUSH0 DUP3 ADD MSTORE PUSH32 0x722063616C6C0000000000000000000000000000000000000000000000000000 PUSH1 0x20 DUP3 ADD MSTORE POP JUMP JUMPDEST PUSH0 PUSH2 0x111E PUSH1 0x26 DUP4 PUSH2 0xC3E JUMP JUMPDEST SWAP2 POP PUSH2 0x1129 DUP3 PUSH2 0x10C4 JUMP JUMPDEST PUSH1 0x40 DUP3 ADD SWAP1 POP SWAP2 SWAP1 POP JUMP JUMPDEST PUSH0 PUSH1 0x20 DUP3 ADD SWAP1 POP DUP2 DUP2 SUB PUSH0 DUP4 ADD MSTORE PUSH2 0x114B DUP2 PUSH2 0x1112 JUMP JUMPDEST SWAP1 POP SWAP2 SWAP1 POP JUMP JUMPDEST PUSH0 DUP2 MLOAD SWAP1 POP SWAP2 SWAP1 POP JUMP JUMPDEST PUSH0 DUP2 SWAP1 POP SWAP3 SWAP2 POP POP JUMP JUMPDEST PUSH0 JUMPDEST DUP4 DUP2 LT ISZERO PUSH2 0x1183 JUMPI DUP1 DUP3 ADD MLOAD DUP2 DUP5 ADD MSTORE PUSH1 0x20 DUP2 ADD SWAP1 POP PUSH2 0x1168 JUMP JUMPDEST PUSH0 DUP5 DUP5 ADD MSTORE POP POP POP POP JUMP JUMPDEST PUSH0 PUSH2 0x1198 DUP3 PUSH2 0x1152 JUMP JUMPDEST PUSH2 0x11A2 DUP2 DUP6 PUSH2 0x115C JUMP JUMPDEST SWAP4 POP PUSH2 0x11B2 DUP2 DUP6 PUSH1 0x20 DUP7 ADD PUSH2 0x1166 JUMP JUMPDEST DUP1 DUP5 ADD SWAP2 POP POP SWAP3 SWAP2 POP POP JUMP JUMPDEST PUSH0 PUSH2 0x11C9 DUP3 DUP5 PUSH2 0x118E JUMP JUMPDEST SWAP2 POP DUP2 SWAP1 POP SWAP3 SWAP2 POP POP JUMP JUMPDEST PUSH32 0x416464726573733A2063616C6C20746F206E6F6E2D636F6E7472616374000000 PUSH0 DUP3 ADD MSTORE POP JUMP JUMPDEST PUSH0 PUSH2 0x1208 PUSH1 0x1D DUP4 PUSH2 0xC3E JUMP JUMPDEST SWAP2 POP PUSH2 0x1213 DUP3 PUSH2 0x11D4 JUMP JUMPDEST PUSH1 0x20 DUP3 ADD SWAP1 POP SWAP2 SWAP1 POP JUMP JUMPDEST PUSH0 PUSH1 0x20 DUP3 ADD SWAP1 POP DUP2 DUP2 SUB PUSH0 DUP4 ADD MSTORE PUSH2 0x1235 DUP2 PUSH2 0x11FC JUMP JUMPDEST SWAP1 POP SWAP2 SWAP1 POP JUMP JUMPDEST PUSH0 DUP2 MLOAD SWAP1 POP SWAP2 SWAP1 POP JUMP JUMPDEST PUSH0 PUSH1 0x1F NOT PUSH1 0x1F DUP4 ADD AND SWAP1 POP SWAP2 SWAP1 POP JUMP JUMPDEST PUSH0 PUSH2 0x1260 DUP3 PUSH2 0x123C JUMP JUMPDEST PUSH2 0x126A DUP2 DUP6 PUSH2 0xC3E JUMP JUMPDEST SWAP4 POP PUSH2 0x127A DUP2 DUP6 PUSH1 0x20 DUP7 ADD PUSH2 0x1166 JUMP JUMPDEST PUSH2 0x1283 DUP2 PUSH2 0x1246 JUMP JUMPDEST DUP5 ADD SWAP2 POP POP SWAP3 SWAP2 POP POP JUMP JUMPDEST PUSH0 PUSH1 0x20 DUP3 ADD SWAP1 POP DUP2 DUP2 SUB PUSH0 DUP4 ADD MSTORE PUSH2 0x12A6 DUP2 DUP5 PUSH2 0x1256 JUMP JUMPDEST SWAP1 POP SWAP3 SWAP2 POP POP JUMP INVALID LOG2 PUSH5 0x6970667358 0x22 SLT KECCAK256 0xB7 KECCAK256 0xC4 LOG4 PUSH22 0xF29E2F3E302BDC35C665F2E6BB5DE4DE3D9214404599 0x4C 0xE9 0xD9 0xC1 0xBF PUSH5 0x736F6C6343 STOP ADDMOD ISZERO STOP CALLER "
				},
				"gasEstimates": {
					"creation": {
						"codeDepositCost": "967200",
						"executionCost": "infinite",
						"totalCost": "infinite"
					},
					"external": {
						"": "infinite",
						"buyTokens(address)": "infinite",
						"closingTime()": "2521",
						"finalize()": "29545",
						"finalized()": "2517",
						"hasClosed()": "2444",
						"isOpen()": "4646",
						"openingTime()": "2498",
						"rate()": "2455",
						"token()": "infinite",
						"wallet()": "2537",
						"weiRaised()": "2477"
					}
				},
				"methodIdentifiers": {
					"buyTokens(address)": "ec8ac4d8",
					"closingTime()": "4b6753bc",
					"finalize()": "4bb278f3",
					"finalized()": "b3f05b97",
					"hasClosed()": "1515bc2b",
					"isOpen()": "47535d7b",
					"openingTime()": "b7a8807c",
					"rate()": "2c4e722e",
					"token()": "fc0c546a",
					"wallet()": "521eb273",
					"weiRaised()": "4042b66f"
				}
			},
			"storageLayout": {
				"storage": [
					{
						"astId": 118,
						"contract": "crowdsale/distribution/finalizableCrowdsale.sol:FinalizableCrowdsale",
						"label": "_status",
						"offset": 0,
						"slot": "0",
						"type": "t_uint256"
					},
					{
						"astId": 1405,
						"contract": "crowdsale/distribution/finalizableCrowdsale.sol:FinalizableCrowdsale",
						"label": "_token",
						"offset": 0,
						"slot": "1",
						"type": "t_contract(IERC20)250"
					},
					{
						"astId": 1407,
						"contract": "crowdsale/distribution/finalizableCrowdsale.sol:FinalizableCrowdsale",
						"label": "_wallet",
						"offset": 0,
						"slot": "2",
						"type": "t_address_payable"
					},
					{
						"astId": 1409,
						"contract": "crowdsale/distribution/finalizableCrowdsale.sol:FinalizableCrowdsale",
						"label": "_rate",
						"offset": 0,
						"slot": "3",
						"type": "t_uint256"
					},
					{
						"astId": 1411,
						"contract": "crowdsale/distribution/finalizableCrowdsale.sol:FinalizableCrowdsale",
						"label": "_weiRaised",
						"offset": 0,
						"slot": "4",
						"type": "t_uint256"
					},
					{
						"astId": 1762,
						"contract": "crowdsale/distribution/finalizableCrowdsale.sol:FinalizableCrowdsale",
						"label": "_openingTime",
						"offset": 0,
						"slot": "5",
						"type": "t_uint256"
					},
					{
						"astId": 1764,
						"contract": "crowdsale/distribution/finalizableCrowdsale.sol:FinalizableCrowdsale",
						"label": "_closingTime",
						"offset": 0,
						"slot": "6",
						"type": "t_uint256"
					},
					{
						"astId": 1336,
						"contract": "crowdsale/distribution/finalizableCrowdsale.sol:FinalizableCrowdsale",
						"label": "_finalized",
						"offset": 0,
						"slot": "7",
						"type": "t_bool"
					}
				],
				"types": {
					"t_address_payable": {
						"encoding": "inplace",
						"label": "address payable",
						"numberOfBytes": "20"
					},
					"t_bool": {
						"encoding": "inplace",
						"label": "bool",
						"numberOfBytes": "1"
					},
					"t_contract(IERC20)250": {
						"encoding": "inplace",
						"label": "contract IERC20",
						"numberOfBytes": "20"
					},
					"t_uint256": {
						"encoding": "inplace",
						"label": "uint256",
						"numberOfBytes": "32"
					}
				}
			},
			"userdoc": {
				"events": {
					"TimedCrowdsaleExtended(uint256,uint256)": {
						"notice": "Event for crowdsale extending"
					},
					"TokensPurchased(address,address,uint256,uint256)": {
						"notice": "Event for token purchase logging"
					}
				},
				"kind": "user",
				"methods": {},
				"version": 1
			}
		}
	}
}