{
	"crowdsale/distribution/postDeliveryCrowdsale.sol": {
		"__unstable__TokenVault": {
			"abi": [
				{
					"anonymous": false,
					"inputs": [
						{
							"indexed": false,
							"internalType": "address",
							"name": "recipient",
							"type": "address"
						}
					],
					"name": "PrimaryTransferred",
					"type": "event"
				},
				{
					"inputs": [],
					"name": "primary",
					"outputs": [
						{
							"internalType": "address",
							"name": "",
							"type": "address"
						}
					],
					"stateMutability": "view",
					"type": "function"
				},
				{
					"inputs": [
						{
							"internalType": "contract IERC20",
							"name": "token",
							"type": "address"
						},
						{
							"internalType": "address",
							"name": "to",
							"type": "address"
						},
						{
							"internalType": "uint256",
							"name": "amount",
							"type": "uint256"
						}
					],
					"name": "transfer",
					"outputs": [],
					"stateMutability": "nonpayable",
					"type": "function"
				},
				{
					"inputs": [
						{
							"internalType": "address",
							"name": "recipient",
							"type": "address"
						}
					],
					"name": "transferPrimary",
					"outputs": [],
					"stateMutability": "nonpayable",
					"type": "function"
				}
			],
			"devdoc": {
				"details": "Similar to an Escrow for tokens, this contract allows its primary account to spend its tokens as it sees fit. This contract is an internal helper for PostDeliveryCrowdsale, and should not be used outside of this context.",
				"events": {
					"PrimaryTransferred(address)": {
						"details": "Emitted when the primary contract changes."
					}
				},
				"kind": "dev",
				"methods": {
					"primary()": {
						"returns": {
							"_0": "the address of the primary."
						}
					},
					"transferPrimary(address)": {
						"details": "Transfers contract to a new primary.",
						"params": {
							"recipient": "The address of new primary."
						}
					}
				},
				"title": "__unstable__TokenVault",
				"version": 1
			},
			"evm": {
				"assembly": "    /* \"crowdsale/distribution/postDeliveryCrowdsale.sol\":2481:2660  contract __unstable__TokenVault is Secondary {... */\n  mstore(0x40, 0x80)\n  callvalue\n  dup1\n  iszero\n  tag_1\n  jumpi\n  0x00\n  dup1\n  revert\ntag_1:\n  pop\n    /* \"crowdsale/secondary.sol\":577:594  address msgSender */\n  0x00\n    /* \"crowdsale/secondary.sol\":597:609  _msgSender() */\n  tag_4\n    /* \"crowdsale/secondary.sol\":597:607  _msgSender */\n  shl(0x20, tag_5)\n    /* \"crowdsale/secondary.sol\":597:609  _msgSender() */\n  0x20\n  shr\n  jump\t// in\ntag_4:\n    /* \"crowdsale/secondary.sol\":577:609  address msgSender = _msgSender() */\n  swap1\n  pop\n    /* \"crowdsale/secondary.sol\":631:640  msgSender */\n  dup1\n    /* \"crowdsale/secondary.sol\":620:628  _primary */\n  0x00\n  dup1\n    /* \"crowdsale/secondary.sol\":620:640  _primary = msgSender */\n  0x0100\n  exp\n  dup2\n  sload\n  dup2\n  0xffffffffffffffffffffffffffffffffffffffff\n  mul\n  not\n  and\n  swap1\n  dup4\n  0xffffffffffffffffffffffffffffffffffffffff\n  and\n  mul\n  or\n  swap1\n  sstore\n  pop\n    /* \"crowdsale/secondary.sol\":656:685  PrimaryTransferred(msgSender) */\n  0x4101e71e974f68df5e9730cc223280b41654676bbb052cdcc735c3337e64d2d9\n    /* \"crowdsale/secondary.sol\":675:684  msgSender */\n  dup2\n    /* \"crowdsale/secondary.sol\":656:685  PrimaryTransferred(msgSender) */\n  mload(0x40)\n  tag_6\n  swap2\n  swap1\n  tag_7\n  jump\t// in\ntag_6:\n  mload(0x40)\n  dup1\n  swap2\n  sub\n  swap1\n  log1\n    /* \"crowdsale/secondary.sol\":566:693  {... */\n  pop\n    /* \"crowdsale/distribution/postDeliveryCrowdsale.sol\":2481:2660  contract __unstable__TokenVault is Secondary {... */\n  jump(tag_8)\n    /* \"@openzeppelin/contracts/utils/Context.sol\":656:752  function _msgSender() internal view virtual returns (address) {... */\ntag_5:\n    /* \"@openzeppelin/contracts/utils/Context.sol\":709:716  address */\n  0x00\n    /* \"@openzeppelin/contracts/utils/Context.sol\":735:745  msg.sender */\n  caller\n    /* \"@openzeppelin/contracts/utils/Context.sol\":728:745  return msg.sender */\n  swap1\n  pop\n    /* \"@openzeppelin/contracts/utils/Context.sol\":656:752  function _msgSender() internal view virtual returns (address) {... */\n  swap1\n  jump\t// out\n    /* \"#utility.yul\":7:133   */\ntag_10:\n    /* \"#utility.yul\":44:51   */\n  0x00\n    /* \"#utility.yul\":84:126   */\n  0xffffffffffffffffffffffffffffffffffffffff\n    /* \"#utility.yul\":77:82   */\n  dup3\n    /* \"#utility.yul\":73:127   */\n  and\n    /* \"#utility.yul\":62:127   */\n  swap1\n  pop\n    /* \"#utility.yul\":7:133   */\n  swap2\n  swap1\n  pop\n  jump\t// out\n    /* \"#utility.yul\":139:235   */\ntag_11:\n    /* \"#utility.yul\":176:183   */\n  0x00\n    /* \"#utility.yul\":205:229   */\n  tag_16\n    /* \"#utility.yul\":223:228   */\n  dup3\n    /* \"#utility.yul\":205:229   */\n  tag_10\n  jump\t// in\ntag_16:\n    /* \"#utility.yul\":194:229   */\n  swap1\n  pop\n    /* \"#utility.yul\":139:235   */\n  swap2\n  swap1\n  pop\n  jump\t// out\n    /* \"#utility.yul\":241:359   */\ntag_12:\n    /* \"#utility.yul\":328:352   */\n  tag_18\n    /* \"#utility.yul\":346:351   */\n  dup2\n    /* \"#utility.yul\":328:352   */\n  tag_11\n  jump\t// in\ntag_18:\n    /* \"#utility.yul\":323:326   */\n  dup3\n    /* \"#utility.yul\":316:353   */\n  mstore\n    /* \"#utility.yul\":241:359   */\n  pop\n  pop\n  jump\t// out\n    /* \"#utility.yul\":365:587   */\ntag_7:\n    /* \"#utility.yul\":458:462   */\n  0x00\n    /* \"#utility.yul\":496:498   */\n  0x20\n    /* \"#utility.yul\":485:494   */\n  dup3\n    /* \"#utility.yul\":481:499   */\n  add\n    /* \"#utility.yul\":473:499   */\n  swap1\n  pop\n    /* \"#utility.yul\":509:580   */\n  tag_20\n    /* \"#utility.yul\":577:578   */\n  0x00\n    /* \"#utility.yul\":566:575   */\n  dup4\n    /* \"#utility.yul\":562:579   */\n  add\n    /* \"#utility.yul\":553:559   */\n  dup5\n    /* \"#utility.yul\":509:580   */\n  tag_12\n  jump\t// in\ntag_20:\n    /* \"#utility.yul\":365:587   */\n  swap3\n  swap2\n  pop\n  pop\n  jump\t// out\n    /* \"crowdsale/distribution/postDeliveryCrowdsale.sol\":2481:2660  contract __unstable__TokenVault is Secondary {... */\ntag_8:\n  dataSize(sub_0)\n  dup1\n  dataOffset(sub_0)\n  0x00\n  codecopy\n  0x00\n  return\nstop\n\nsub_0: assembly {\n        /* \"crowdsale/distribution/postDeliveryCrowdsale.sol\":2481:2660  contract __unstable__TokenVault is Secondary {... */\n      mstore(0x40, 0x80)\n      callvalue\n      dup1\n      iszero\n      tag_1\n      jumpi\n      0x00\n      dup1\n      revert\n    tag_1:\n      pop\n      jumpi(tag_2, lt(calldatasize, 0x04))\n      shr(0xe0, calldataload(0x00))\n      dup1\n      0x2348238c\n      eq\n      tag_3\n      jumpi\n      dup1\n      0xbeabacc8\n      eq\n      tag_4\n      jumpi\n      dup1\n      0xc6dbdf61\n      eq\n      tag_5\n      jumpi\n    tag_2:\n      0x00\n      dup1\n      revert\n        /* \"crowdsale/secondary.sol\":1208:1444  function transferPrimary(address recipient) public onlyPrimary {... */\n    tag_3:\n      tag_6\n      0x04\n      dup1\n      calldatasize\n      sub\n      dup2\n      add\n      swap1\n      tag_7\n      swap2\n      swap1\n      tag_8\n      jump\t// in\n    tag_7:\n      tag_9\n      jump\t// in\n    tag_6:\n      stop\n        /* \"crowdsale/distribution/postDeliveryCrowdsale.sol\":2533:2657  function transfer(IERC20 token, address to, uint256 amount) public onlyPrimary {... */\n    tag_4:\n      tag_10\n      0x04\n      dup1\n      calldatasize\n      sub\n      dup2\n      add\n      swap1\n      tag_11\n      swap2\n      swap1\n      tag_12\n      jump\t// in\n    tag_11:\n      tag_13\n      jump\t// in\n    tag_10:\n      stop\n        /* \"crowdsale/secondary.sol\":996:1079  function primary() public view returns (address) {... */\n    tag_5:\n      tag_14\n      tag_15\n      jump\t// in\n    tag_14:\n      mload(0x40)\n      tag_16\n      swap2\n      swap1\n      tag_17\n      jump\t// in\n    tag_16:\n      mload(0x40)\n      dup1\n      swap2\n      sub\n      swap1\n      return\n        /* \"crowdsale/secondary.sol\":1208:1444  function transferPrimary(address recipient) public onlyPrimary {... */\n    tag_9:\n        /* \"crowdsale/secondary.sol\":849:857  _primary */\n      0x00\n      dup1\n      sload\n      swap1\n      0x0100\n      exp\n      swap1\n      div\n      0xffffffffffffffffffffffffffffffffffffffff\n      and\n        /* \"crowdsale/secondary.sol\":833:857  _msgSender() == _primary */\n      0xffffffffffffffffffffffffffffffffffffffff\n      and\n        /* \"crowdsale/secondary.sol\":833:845  _msgSender() */\n      tag_19\n        /* \"crowdsale/secondary.sol\":833:843  _msgSender */\n      tag_20\n        /* \"crowdsale/secondary.sol\":833:845  _msgSender() */\n      jump\t// in\n    tag_19:\n        /* \"crowdsale/secondary.sol\":833:857  _msgSender() == _primary */\n      0xffffffffffffffffffffffffffffffffffffffff\n      and\n      eq\n        /* \"crowdsale/secondary.sol\":825:906  require(_msgSender() == _primary, \"Secondary: caller is not the primary account\") */\n      tag_21\n      jumpi\n      mload(0x40)\n      0x08c379a000000000000000000000000000000000000000000000000000000000\n      dup2\n      mstore\n      0x04\n      add\n      tag_22\n      swap1\n      tag_23\n      jump\t// in\n    tag_22:\n      mload(0x40)\n      dup1\n      swap2\n      sub\n      swap1\n      revert\n    tag_21:\n        /* \"crowdsale/secondary.sol\":1311:1312  0 */\n      0x00\n        /* \"crowdsale/secondary.sol\":1290:1313  recipient != address(0) */\n      0xffffffffffffffffffffffffffffffffffffffff\n      and\n        /* \"crowdsale/secondary.sol\":1290:1299  recipient */\n      dup2\n        /* \"crowdsale/secondary.sol\":1290:1313  recipient != address(0) */\n      0xffffffffffffffffffffffffffffffffffffffff\n      and\n      sub\n        /* \"crowdsale/secondary.sol\":1282:1360  require(recipient != address(0), \"Secondary: new primary is the zero address\") */\n      tag_25\n      jumpi\n      mload(0x40)\n      0x08c379a000000000000000000000000000000000000000000000000000000000\n      dup2\n      mstore\n      0x04\n      add\n      tag_26\n      swap1\n      tag_27\n      jump\t// in\n    tag_26:\n      mload(0x40)\n      dup1\n      swap2\n      sub\n      swap1\n      revert\n    tag_25:\n        /* \"crowdsale/secondary.sol\":1382:1391  recipient */\n      dup1\n        /* \"crowdsale/secondary.sol\":1371:1379  _primary */\n      0x00\n      dup1\n        /* \"crowdsale/secondary.sol\":1371:1391  _primary = recipient */\n      0x0100\n      exp\n      dup2\n      sload\n      dup2\n      0xffffffffffffffffffffffffffffffffffffffff\n      mul\n      not\n      and\n      swap1\n      dup4\n      0xffffffffffffffffffffffffffffffffffffffff\n      and\n      mul\n      or\n      swap1\n      sstore\n      pop\n        /* \"crowdsale/secondary.sol\":1407:1436  PrimaryTransferred(recipient) */\n      0x4101e71e974f68df5e9730cc223280b41654676bbb052cdcc735c3337e64d2d9\n        /* \"crowdsale/secondary.sol\":1426:1435  recipient */\n      dup2\n        /* \"crowdsale/secondary.sol\":1407:1436  PrimaryTransferred(recipient) */\n      mload(0x40)\n      tag_28\n      swap2\n      swap1\n      tag_17\n      jump\t// in\n    tag_28:\n      mload(0x40)\n      dup1\n      swap2\n      sub\n      swap1\n      log1\n        /* \"crowdsale/secondary.sol\":1208:1444  function transferPrimary(address recipient) public onlyPrimary {... */\n      pop\n      jump\t// out\n        /* \"crowdsale/distribution/postDeliveryCrowdsale.sol\":2533:2657  function transfer(IERC20 token, address to, uint256 amount) public onlyPrimary {... */\n    tag_13:\n        /* \"crowdsale/secondary.sol\":849:857  _primary */\n      0x00\n      dup1\n      sload\n      swap1\n      0x0100\n      exp\n      swap1\n      div\n      0xffffffffffffffffffffffffffffffffffffffff\n      and\n        /* \"crowdsale/secondary.sol\":833:857  _msgSender() == _primary */\n      0xffffffffffffffffffffffffffffffffffffffff\n      and\n        /* \"crowdsale/secondary.sol\":833:845  _msgSender() */\n      tag_30\n        /* \"crowdsale/secondary.sol\":833:843  _msgSender */\n      tag_20\n        /* \"crowdsale/secondary.sol\":833:845  _msgSender() */\n      jump\t// in\n    tag_30:\n        /* \"crowdsale/secondary.sol\":833:857  _msgSender() == _primary */\n      0xffffffffffffffffffffffffffffffffffffffff\n      and\n      eq\n        /* \"crowdsale/secondary.sol\":825:906  require(_msgSender() == _primary, \"Secondary: caller is not the primary account\") */\n      tag_31\n      jumpi\n      mload(0x40)\n      0x08c379a000000000000000000000000000000000000000000000000000000000\n      dup2\n      mstore\n      0x04\n      add\n      tag_32\n      swap1\n      tag_23\n      jump\t// in\n    tag_32:\n      mload(0x40)\n      dup1\n      swap2\n      sub\n      swap1\n      revert\n    tag_31:\n        /* \"crowdsale/distribution/postDeliveryCrowdsale.sol\":2623:2628  token */\n      dup3\n        /* \"crowdsale/distribution/postDeliveryCrowdsale.sol\":2623:2637  token.transfer */\n      0xffffffffffffffffffffffffffffffffffffffff\n      and\n      0xa9059cbb\n        /* \"crowdsale/distribution/postDeliveryCrowdsale.sol\":2638:2640  to */\n      dup4\n        /* \"crowdsale/distribution/postDeliveryCrowdsale.sol\":2642:2648  amount */\n      dup4\n        /* \"crowdsale/distribution/postDeliveryCrowdsale.sol\":2623:2649  token.transfer(to, amount) */\n      mload(0x40)\n      dup4\n      0xffffffff\n      and\n      0xe0\n      shl\n      dup2\n      mstore\n      0x04\n      add\n      tag_34\n      swap3\n      swap2\n      swap1\n      tag_35\n      jump\t// in\n    tag_34:\n      0x20\n      mload(0x40)\n      dup1\n      dup4\n      sub\n      dup2\n      0x00\n      dup8\n      gas\n      call\n      iszero\n      dup1\n      iszero\n      tag_37\n      jumpi\n      returndatasize\n      0x00\n      dup1\n      returndatacopy\n      revert(0x00, returndatasize)\n    tag_37:\n      pop\n      pop\n      pop\n      pop\n      mload(0x40)\n      returndatasize\n      not(0x1f)\n      0x1f\n      dup3\n      add\n      and\n      dup3\n      add\n      dup1\n      0x40\n      mstore\n      pop\n      dup2\n      add\n      swap1\n      tag_38\n      swap2\n      swap1\n      tag_39\n      jump\t// in\n    tag_38:\n      pop\n        /* \"crowdsale/distribution/postDeliveryCrowdsale.sol\":2533:2657  function transfer(IERC20 token, address to, uint256 amount) public onlyPrimary {... */\n      pop\n      pop\n      pop\n      jump\t// out\n        /* \"crowdsale/secondary.sol\":996:1079  function primary() public view returns (address) {... */\n    tag_15:\n        /* \"crowdsale/secondary.sol\":1036:1043  address */\n      0x00\n        /* \"crowdsale/secondary.sol\":1063:1071  _primary */\n      dup1\n      0x00\n      swap1\n      sload\n      swap1\n      0x0100\n      exp\n      swap1\n      div\n      0xffffffffffffffffffffffffffffffffffffffff\n      and\n        /* \"crowdsale/secondary.sol\":1056:1071  return _primary */\n      swap1\n      pop\n        /* \"crowdsale/secondary.sol\":996:1079  function primary() public view returns (address) {... */\n      swap1\n      jump\t// out\n        /* \"@openzeppelin/contracts/utils/Context.sol\":656:752  function _msgSender() internal view virtual returns (address) {... */\n    tag_20:\n        /* \"@openzeppelin/contracts/utils/Context.sol\":709:716  address */\n      0x00\n        /* \"@openzeppelin/contracts/utils/Context.sol\":735:745  msg.sender */\n      caller\n        /* \"@openzeppelin/contracts/utils/Context.sol\":728:745  return msg.sender */\n      swap1\n      pop\n        /* \"@openzeppelin/contracts/utils/Context.sol\":656:752  function _msgSender() internal view virtual returns (address) {... */\n      swap1\n      jump\t// out\n        /* \"#utility.yul\":88:205   */\n    tag_43:\n        /* \"#utility.yul\":197:198   */\n      0x00\n        /* \"#utility.yul\":194:195   */\n      dup1\n        /* \"#utility.yul\":187:199   */\n      revert\n        /* \"#utility.yul\":334:460   */\n    tag_45:\n        /* \"#utility.yul\":371:378   */\n      0x00\n        /* \"#utility.yul\":411:453   */\n      0xffffffffffffffffffffffffffffffffffffffff\n        /* \"#utility.yul\":404:409   */\n      dup3\n        /* \"#utility.yul\":400:454   */\n      and\n        /* \"#utility.yul\":389:454   */\n      swap1\n      pop\n        /* \"#utility.yul\":334:460   */\n      swap2\n      swap1\n      pop\n      jump\t// out\n        /* \"#utility.yul\":466:562   */\n    tag_46:\n        /* \"#utility.yul\":503:510   */\n      0x00\n        /* \"#utility.yul\":532:556   */\n      tag_71\n        /* \"#utility.yul\":550:555   */\n      dup3\n        /* \"#utility.yul\":532:556   */\n      tag_45\n      jump\t// in\n    tag_71:\n        /* \"#utility.yul\":521:556   */\n      swap1\n      pop\n        /* \"#utility.yul\":466:562   */\n      swap2\n      swap1\n      pop\n      jump\t// out\n        /* \"#utility.yul\":568:690   */\n    tag_47:\n        /* \"#utility.yul\":641:665   */\n      tag_73\n        /* \"#utility.yul\":659:664   */\n      dup2\n        /* \"#utility.yul\":641:665   */\n      tag_46\n      jump\t// in\n    tag_73:\n        /* \"#utility.yul\":634:639   */\n      dup2\n        /* \"#utility.yul\":631:666   */\n      eq\n        /* \"#utility.yul\":621:684   */\n      tag_74\n      jumpi\n        /* \"#utility.yul\":680:681   */\n      0x00\n        /* \"#utility.yul\":677:678   */\n      dup1\n        /* \"#utility.yul\":670:682   */\n      revert\n        /* \"#utility.yul\":621:684   */\n    tag_74:\n        /* \"#utility.yul\":568:690   */\n      pop\n      jump\t// out\n        /* \"#utility.yul\":696:835   */\n    tag_48:\n        /* \"#utility.yul\":742:747   */\n      0x00\n        /* \"#utility.yul\":780:786   */\n      dup2\n        /* \"#utility.yul\":767:787   */\n      calldataload\n        /* \"#utility.yul\":758:787   */\n      swap1\n      pop\n        /* \"#utility.yul\":796:829   */\n      tag_76\n        /* \"#utility.yul\":823:828   */\n      dup2\n        /* \"#utility.yul\":796:829   */\n      tag_47\n      jump\t// in\n    tag_76:\n        /* \"#utility.yul\":696:835   */\n      swap3\n      swap2\n      pop\n      pop\n      jump\t// out\n        /* \"#utility.yul\":841:1170   */\n    tag_8:\n        /* \"#utility.yul\":900:906   */\n      0x00\n        /* \"#utility.yul\":949:951   */\n      0x20\n        /* \"#utility.yul\":937:946   */\n      dup3\n        /* \"#utility.yul\":928:935   */\n      dup5\n        /* \"#utility.yul\":924:947   */\n      sub\n        /* \"#utility.yul\":920:952   */\n      slt\n        /* \"#utility.yul\":917:1036   */\n      iszero\n      tag_78\n      jumpi\n        /* \"#utility.yul\":955:1034   */\n      tag_79\n      tag_43\n      jump\t// in\n    tag_79:\n        /* \"#utility.yul\":917:1036   */\n    tag_78:\n        /* \"#utility.yul\":1075:1076   */\n      0x00\n        /* \"#utility.yul\":1100:1153   */\n      tag_80\n        /* \"#utility.yul\":1145:1152   */\n      dup5\n        /* \"#utility.yul\":1136:1142   */\n      dup3\n        /* \"#utility.yul\":1125:1134   */\n      dup6\n        /* \"#utility.yul\":1121:1143   */\n      add\n        /* \"#utility.yul\":1100:1153   */\n      tag_48\n      jump\t// in\n    tag_80:\n        /* \"#utility.yul\":1090:1153   */\n      swap2\n      pop\n        /* \"#utility.yul\":1046:1163   */\n      pop\n        /* \"#utility.yul\":841:1170   */\n      swap3\n      swap2\n      pop\n      pop\n      jump\t// out\n        /* \"#utility.yul\":1176:1286   */\n    tag_49:\n        /* \"#utility.yul\":1227:1234   */\n      0x00\n        /* \"#utility.yul\":1256:1280   */\n      tag_82\n        /* \"#utility.yul\":1274:1279   */\n      dup3\n        /* \"#utility.yul\":1256:1280   */\n      tag_46\n      jump\t// in\n    tag_82:\n        /* \"#utility.yul\":1245:1280   */\n      swap1\n      pop\n        /* \"#utility.yul\":1176:1286   */\n      swap2\n      swap1\n      pop\n      jump\t// out\n        /* \"#utility.yul\":1292:1442   */\n    tag_50:\n        /* \"#utility.yul\":1379:1417   */\n      tag_84\n        /* \"#utility.yul\":1411:1416   */\n      dup2\n        /* \"#utility.yul\":1379:1417   */\n      tag_49\n      jump\t// in\n    tag_84:\n        /* \"#utility.yul\":1372:1377   */\n      dup2\n        /* \"#utility.yul\":1369:1418   */\n      eq\n        /* \"#utility.yul\":1359:1436   */\n      tag_85\n      jumpi\n        /* \"#utility.yul\":1432:1433   */\n      0x00\n        /* \"#utility.yul\":1429:1430   */\n      dup1\n        /* \"#utility.yul\":1422:1434   */\n      revert\n        /* \"#utility.yul\":1359:1436   */\n    tag_85:\n        /* \"#utility.yul\":1292:1442   */\n      pop\n      jump\t// out\n        /* \"#utility.yul\":1448:1615   */\n    tag_51:\n        /* \"#utility.yul\":1508:1513   */\n      0x00\n        /* \"#utility.yul\":1546:1552   */\n      dup2\n        /* \"#utility.yul\":1533:1553   */\n      calldataload\n        /* \"#utility.yul\":1524:1553   */\n      swap1\n      pop\n        /* \"#utility.yul\":1562:1609   */\n      tag_87\n        /* \"#utility.yul\":1603:1608   */\n      dup2\n        /* \"#utility.yul\":1562:1609   */\n      tag_50\n      jump\t// in\n    tag_87:\n        /* \"#utility.yul\":1448:1615   */\n      swap3\n      swap2\n      pop\n      pop\n      jump\t// out\n        /* \"#utility.yul\":1621:1698   */\n    tag_52:\n        /* \"#utility.yul\":1658:1665   */\n      0x00\n        /* \"#utility.yul\":1687:1692   */\n      dup2\n        /* \"#utility.yul\":1676:1692   */\n      swap1\n      pop\n        /* \"#utility.yul\":1621:1698   */\n      swap2\n      swap1\n      pop\n      jump\t// out\n        /* \"#utility.yul\":1704:1826   */\n    tag_53:\n        /* \"#utility.yul\":1777:1801   */\n      tag_90\n        /* \"#utility.yul\":1795:1800   */\n      dup2\n        /* \"#utility.yul\":1777:1801   */\n      tag_52\n      jump\t// in\n    tag_90:\n        /* \"#utility.yul\":1770:1775   */\n      dup2\n        /* \"#utility.yul\":1767:1802   */\n      eq\n        /* \"#utility.yul\":1757:1820   */\n      tag_91\n      jumpi\n        /* \"#utility.yul\":1816:1817   */\n      0x00\n        /* \"#utility.yul\":1813:1814   */\n      dup1\n        /* \"#utility.yul\":1806:1818   */\n      revert\n        /* \"#utility.yul\":1757:1820   */\n    tag_91:\n        /* \"#utility.yul\":1704:1826   */\n      pop\n      jump\t// out\n        /* \"#utility.yul\":1832:1971   */\n    tag_54:\n        /* \"#utility.yul\":1878:1883   */\n      0x00\n        /* \"#utility.yul\":1916:1922   */\n      dup2\n        /* \"#utility.yul\":1903:1923   */\n      calldataload\n        /* \"#utility.yul\":1894:1923   */\n      swap1\n      pop\n        /* \"#utility.yul\":1932:1965   */\n      tag_93\n        /* \"#utility.yul\":1959:1964   */\n      dup2\n        /* \"#utility.yul\":1932:1965   */\n      tag_53\n      jump\t// in\n    tag_93:\n        /* \"#utility.yul\":1832:1971   */\n      swap3\n      swap2\n      pop\n      pop\n      jump\t// out\n        /* \"#utility.yul\":1977:2624   */\n    tag_12:\n        /* \"#utility.yul\":2068:2074   */\n      0x00\n        /* \"#utility.yul\":2076:2082   */\n      dup1\n        /* \"#utility.yul\":2084:2090   */\n      0x00\n        /* \"#utility.yul\":2133:2135   */\n      0x60\n        /* \"#utility.yul\":2121:2130   */\n      dup5\n        /* \"#utility.yul\":2112:2119   */\n      dup7\n        /* \"#utility.yul\":2108:2131   */\n      sub\n        /* \"#utility.yul\":2104:2136   */\n      slt\n        /* \"#utility.yul\":2101:2220   */\n      iszero\n      tag_95\n      jumpi\n        /* \"#utility.yul\":2139:2218   */\n      tag_96\n      tag_43\n      jump\t// in\n    tag_96:\n        /* \"#utility.yul\":2101:2220   */\n    tag_95:\n        /* \"#utility.yul\":2259:2260   */\n      0x00\n        /* \"#utility.yul\":2284:2351   */\n      tag_97\n        /* \"#utility.yul\":2343:2350   */\n      dup7\n        /* \"#utility.yul\":2334:2340   */\n      dup3\n        /* \"#utility.yul\":2323:2332   */\n      dup8\n        /* \"#utility.yul\":2319:2341   */\n      add\n        /* \"#utility.yul\":2284:2351   */\n      tag_51\n      jump\t// in\n    tag_97:\n        /* \"#utility.yul\":2274:2351   */\n      swap4\n      pop\n        /* \"#utility.yul\":2230:2361   */\n      pop\n        /* \"#utility.yul\":2400:2402   */\n      0x20\n        /* \"#utility.yul\":2426:2479   */\n      tag_98\n        /* \"#utility.yul\":2471:2478   */\n      dup7\n        /* \"#utility.yul\":2462:2468   */\n      dup3\n        /* \"#utility.yul\":2451:2460   */\n      dup8\n        /* \"#utility.yul\":2447:2469   */\n      add\n        /* \"#utility.yul\":2426:2479   */\n      tag_48\n      jump\t// in\n    tag_98:\n        /* \"#utility.yul\":2416:2479   */\n      swap3\n      pop\n        /* \"#utility.yul\":2371:2489   */\n      pop\n        /* \"#utility.yul\":2528:2530   */\n      0x40\n        /* \"#utility.yul\":2554:2607   */\n      tag_99\n        /* \"#utility.yul\":2599:2606   */\n      dup7\n        /* \"#utility.yul\":2590:2596   */\n      dup3\n        /* \"#utility.yul\":2579:2588   */\n      dup8\n        /* \"#utility.yul\":2575:2597   */\n      add\n        /* \"#utility.yul\":2554:2607   */\n      tag_54\n      jump\t// in\n    tag_99:\n        /* \"#utility.yul\":2544:2607   */\n      swap2\n      pop\n        /* \"#utility.yul\":2499:2617   */\n      pop\n        /* \"#utility.yul\":1977:2624   */\n      swap3\n      pop\n      swap3\n      pop\n      swap3\n      jump\t// out\n        /* \"#utility.yul\":2630:2748   */\n    tag_55:\n        /* \"#utility.yul\":2717:2741   */\n      tag_101\n        /* \"#utility.yul\":2735:2740   */\n      dup2\n        /* \"#utility.yul\":2717:2741   */\n      tag_46\n      jump\t// in\n    tag_101:\n        /* \"#utility.yul\":2712:2715   */\n      dup3\n        /* \"#utility.yul\":2705:2742   */\n      mstore\n        /* \"#utility.yul\":2630:2748   */\n      pop\n      pop\n      jump\t// out\n        /* \"#utility.yul\":2754:2976   */\n    tag_17:\n        /* \"#utility.yul\":2847:2851   */\n      0x00\n        /* \"#utility.yul\":2885:2887   */\n      0x20\n        /* \"#utility.yul\":2874:2883   */\n      dup3\n        /* \"#utility.yul\":2870:2888   */\n      add\n        /* \"#utility.yul\":2862:2888   */\n      swap1\n      pop\n        /* \"#utility.yul\":2898:2969   */\n      tag_103\n        /* \"#utility.yul\":2966:2967   */\n      0x00\n        /* \"#utility.yul\":2955:2964   */\n      dup4\n        /* \"#utility.yul\":2951:2968   */\n      add\n        /* \"#utility.yul\":2942:2948   */\n      dup5\n        /* \"#utility.yul\":2898:2969   */\n      tag_55\n      jump\t// in\n    tag_103:\n        /* \"#utility.yul\":2754:2976   */\n      swap3\n      swap2\n      pop\n      pop\n      jump\t// out\n        /* \"#utility.yul\":2982:3151   */\n    tag_56:\n        /* \"#utility.yul\":3066:3077   */\n      0x00\n        /* \"#utility.yul\":3100:3106   */\n      dup3\n        /* \"#utility.yul\":3095:3098   */\n      dup3\n        /* \"#utility.yul\":3088:3107   */\n      mstore\n        /* \"#utility.yul\":3140:3144   */\n      0x20\n        /* \"#utility.yul\":3135:3138   */\n      dup3\n        /* \"#utility.yul\":3131:3145   */\n      add\n        /* \"#utility.yul\":3116:3145   */\n      swap1\n      pop\n        /* \"#utility.yul\":2982:3151   */\n      swap3\n      swap2\n      pop\n      pop\n      jump\t// out\n        /* \"#utility.yul\":3157:3388   */\n    tag_57:\n        /* \"#utility.yul\":3297:3331   */\n      0x5365636f6e646172793a2063616c6c6572206973206e6f742074686520707269\n        /* \"#utility.yul\":3293:3294   */\n      0x00\n        /* \"#utility.yul\":3285:3291   */\n      dup3\n        /* \"#utility.yul\":3281:3295   */\n      add\n        /* \"#utility.yul\":3274:3332   */\n      mstore\n        /* \"#utility.yul\":3366:3380   */\n      0x6d617279206163636f756e740000000000000000000000000000000000000000\n        /* \"#utility.yul\":3361:3363   */\n      0x20\n        /* \"#utility.yul\":3353:3359   */\n      dup3\n        /* \"#utility.yul\":3349:3364   */\n      add\n        /* \"#utility.yul\":3342:3381   */\n      mstore\n        /* \"#utility.yul\":3157:3388   */\n      pop\n      jump\t// out\n        /* \"#utility.yul\":3394:3760   */\n    tag_58:\n        /* \"#utility.yul\":3536:3539   */\n      0x00\n        /* \"#utility.yul\":3557:3624   */\n      tag_107\n        /* \"#utility.yul\":3621:3623   */\n      0x2c\n        /* \"#utility.yul\":3616:3619   */\n      dup4\n        /* \"#utility.yul\":3557:3624   */\n      tag_56\n      jump\t// in\n    tag_107:\n        /* \"#utility.yul\":3550:3624   */\n      swap2\n      pop\n        /* \"#utility.yul\":3633:3726   */\n      tag_108\n        /* \"#utility.yul\":3722:3725   */\n      dup3\n        /* \"#utility.yul\":3633:3726   */\n      tag_57\n      jump\t// in\n    tag_108:\n        /* \"#utility.yul\":3751:3753   */\n      0x40\n        /* \"#utility.yul\":3746:3749   */\n      dup3\n        /* \"#utility.yul\":3742:3754   */\n      add\n        /* \"#utility.yul\":3735:3754   */\n      swap1\n      pop\n        /* \"#utility.yul\":3394:3760   */\n      swap2\n      swap1\n      pop\n      jump\t// out\n        /* \"#utility.yul\":3766:4185   */\n    tag_23:\n        /* \"#utility.yul\":3932:3936   */\n      0x00\n        /* \"#utility.yul\":3970:3972   */\n      0x20\n        /* \"#utility.yul\":3959:3968   */\n      dup3\n        /* \"#utility.yul\":3955:3973   */\n      add\n        /* \"#utility.yul\":3947:3973   */\n      swap1\n      pop\n        /* \"#utility.yul\":4019:4028   */\n      dup2\n        /* \"#utility.yul\":4013:4017   */\n      dup2\n        /* \"#utility.yul\":4009:4029   */\n      sub\n        /* \"#utility.yul\":4005:4006   */\n      0x00\n        /* \"#utility.yul\":3994:4003   */\n      dup4\n        /* \"#utility.yul\":3990:4007   */\n      add\n        /* \"#utility.yul\":3983:4030   */\n      mstore\n        /* \"#utility.yul\":4047:4178   */\n      tag_110\n        /* \"#utility.yul\":4173:4177   */\n      dup2\n        /* \"#utility.yul\":4047:4178   */\n      tag_58\n      jump\t// in\n    tag_110:\n        /* \"#utility.yul\":4039:4178   */\n      swap1\n      pop\n        /* \"#utility.yul\":3766:4185   */\n      swap2\n      swap1\n      pop\n      jump\t// out\n        /* \"#utility.yul\":4191:4420   */\n    tag_59:\n        /* \"#utility.yul\":4331:4365   */\n      0x5365636f6e646172793a206e6577207072696d61727920697320746865207a65\n        /* \"#utility.yul\":4327:4328   */\n      0x00\n        /* \"#utility.yul\":4319:4325   */\n      dup3\n        /* \"#utility.yul\":4315:4329   */\n      add\n        /* \"#utility.yul\":4308:4366   */\n      mstore\n        /* \"#utility.yul\":4400:4412   */\n      0x726f206164647265737300000000000000000000000000000000000000000000\n        /* \"#utility.yul\":4395:4397   */\n      0x20\n        /* \"#utility.yul\":4387:4393   */\n      dup3\n        /* \"#utility.yul\":4383:4398   */\n      add\n        /* \"#utility.yul\":4376:4413   */\n      mstore\n        /* \"#utility.yul\":4191:4420   */\n      pop\n      jump\t// out\n        /* \"#utility.yul\":4426:4792   */\n    tag_60:\n        /* \"#utility.yul\":4568:4571   */\n      0x00\n        /* \"#utility.yul\":4589:4656   */\n      tag_113\n        /* \"#utility.yul\":4653:4655   */\n      0x2a\n        /* \"#utility.yul\":4648:4651   */\n      dup4\n        /* \"#utility.yul\":4589:4656   */\n      tag_56\n      jump\t// in\n    tag_113:\n        /* \"#utility.yul\":4582:4656   */\n      swap2\n      pop\n        /* \"#utility.yul\":4665:4758   */\n      tag_114\n        /* \"#utility.yul\":4754:4757   */\n      dup3\n        /* \"#utility.yul\":4665:4758   */\n      tag_59\n      jump\t// in\n    tag_114:\n        /* \"#utility.yul\":4783:4785   */\n      0x40\n        /* \"#utility.yul\":4778:4781   */\n      dup3\n        /* \"#utility.yul\":4774:4786   */\n      add\n        /* \"#utility.yul\":4767:4786   */\n      swap1\n      pop\n        /* \"#utility.yul\":4426:4792   */\n      swap2\n      swap1\n      pop\n      jump\t// out\n        /* \"#utility.yul\":4798:5217   */\n    tag_27:\n        /* \"#utility.yul\":4964:4968   */\n      0x00\n        /* \"#utility.yul\":5002:5004   */\n      0x20\n        /* \"#utility.yul\":4991:5000   */\n      dup3\n        /* \"#utility.yul\":4987:5005   */\n      add\n        /* \"#utility.yul\":4979:5005   */\n      swap1\n      pop\n        /* \"#utility.yul\":5051:5060   */\n      dup2\n        /* \"#utility.yul\":5045:5049   */\n      dup2\n        /* \"#utility.yul\":5041:5061   */\n      sub\n        /* \"#utility.yul\":5037:5038   */\n      0x00\n        /* \"#utility.yul\":5026:5035   */\n      dup4\n        /* \"#utility.yul\":5022:5039   */\n      add\n        /* \"#utility.yul\":5015:5062   */\n      mstore\n        /* \"#utility.yul\":5079:5210   */\n      tag_116\n        /* \"#utility.yul\":5205:5209   */\n      dup2\n        /* \"#utility.yul\":5079:5210   */\n      tag_60\n      jump\t// in\n    tag_116:\n        /* \"#utility.yul\":5071:5210   */\n      swap1\n      pop\n        /* \"#utility.yul\":4798:5217   */\n      swap2\n      swap1\n      pop\n      jump\t// out\n        /* \"#utility.yul\":5223:5341   */\n    tag_61:\n        /* \"#utility.yul\":5310:5334   */\n      tag_118\n        /* \"#utility.yul\":5328:5333   */\n      dup2\n        /* \"#utility.yul\":5310:5334   */\n      tag_52\n      jump\t// in\n    tag_118:\n        /* \"#utility.yul\":5305:5308   */\n      dup3\n        /* \"#utility.yul\":5298:5335   */\n      mstore\n        /* \"#utility.yul\":5223:5341   */\n      pop\n      pop\n      jump\t// out\n        /* \"#utility.yul\":5347:5679   */\n    tag_35:\n        /* \"#utility.yul\":5468:5472   */\n      0x00\n        /* \"#utility.yul\":5506:5508   */\n      0x40\n        /* \"#utility.yul\":5495:5504   */\n      dup3\n        /* \"#utility.yul\":5491:5509   */\n      add\n        /* \"#utility.yul\":5483:5509   */\n      swap1\n      pop\n        /* \"#utility.yul\":5519:5590   */\n      tag_120\n        /* \"#utility.yul\":5587:5588   */\n      0x00\n        /* \"#utility.yul\":5576:5585   */\n      dup4\n        /* \"#utility.yul\":5572:5589   */\n      add\n        /* \"#utility.yul\":5563:5569   */\n      dup6\n        /* \"#utility.yul\":5519:5590   */\n      tag_55\n      jump\t// in\n    tag_120:\n        /* \"#utility.yul\":5600:5672   */\n      tag_121\n        /* \"#utility.yul\":5668:5670   */\n      0x20\n        /* \"#utility.yul\":5657:5666   */\n      dup4\n        /* \"#utility.yul\":5653:5671   */\n      add\n        /* \"#utility.yul\":5644:5650   */\n      dup5\n        /* \"#utility.yul\":5600:5672   */\n      tag_61\n      jump\t// in\n    tag_121:\n        /* \"#utility.yul\":5347:5679   */\n      swap4\n      swap3\n      pop\n      pop\n      pop\n      jump\t// out\n        /* \"#utility.yul\":5685:5775   */\n    tag_62:\n        /* \"#utility.yul\":5719:5726   */\n      0x00\n        /* \"#utility.yul\":5762:5767   */\n      dup2\n        /* \"#utility.yul\":5755:5768   */\n      iszero\n        /* \"#utility.yul\":5748:5769   */\n      iszero\n        /* \"#utility.yul\":5737:5769   */\n      swap1\n      pop\n        /* \"#utility.yul\":5685:5775   */\n      swap2\n      swap1\n      pop\n      jump\t// out\n        /* \"#utility.yul\":5781:5897   */\n    tag_63:\n        /* \"#utility.yul\":5851:5872   */\n      tag_124\n        /* \"#utility.yul\":5866:5871   */\n      dup2\n        /* \"#utility.yul\":5851:5872   */\n      tag_62\n      jump\t// in\n    tag_124:\n        /* \"#utility.yul\":5844:5849   */\n      dup2\n        /* \"#utility.yul\":5841:5873   */\n      eq\n        /* \"#utility.yul\":5831:5891   */\n      tag_125\n      jumpi\n        /* \"#utility.yul\":5887:5888   */\n      0x00\n        /* \"#utility.yul\":5884:5885   */\n      dup1\n        /* \"#utility.yul\":5877:5889   */\n      revert\n        /* \"#utility.yul\":5831:5891   */\n    tag_125:\n        /* \"#utility.yul\":5781:5897   */\n      pop\n      jump\t// out\n        /* \"#utility.yul\":5903:6040   */\n    tag_64:\n        /* \"#utility.yul\":5957:5962   */\n      0x00\n        /* \"#utility.yul\":5988:5994   */\n      dup2\n        /* \"#utility.yul\":5982:5995   */\n      mload\n        /* \"#utility.yul\":5973:5995   */\n      swap1\n      pop\n        /* \"#utility.yul\":6004:6034   */\n      tag_127\n        /* \"#utility.yul\":6028:6033   */\n      dup2\n        /* \"#utility.yul\":6004:6034   */\n      tag_63\n      jump\t// in\n    tag_127:\n        /* \"#utility.yul\":5903:6040   */\n      swap3\n      swap2\n      pop\n      pop\n      jump\t// out\n        /* \"#utility.yul\":6046:6391   */\n    tag_39:\n        /* \"#utility.yul\":6113:6119   */\n      0x00\n        /* \"#utility.yul\":6162:6164   */\n      0x20\n        /* \"#utility.yul\":6150:6159   */\n      dup3\n        /* \"#utility.yul\":6141:6148   */\n      dup5\n        /* \"#utility.yul\":6137:6160   */\n      sub\n        /* \"#utility.yul\":6133:6165   */\n      slt\n        /* \"#utility.yul\":6130:6249   */\n      iszero\n      tag_129\n      jumpi\n        /* \"#utility.yul\":6168:6247   */\n      tag_130\n      tag_43\n      jump\t// in\n    tag_130:\n        /* \"#utility.yul\":6130:6249   */\n    tag_129:\n        /* \"#utility.yul\":6288:6289   */\n      0x00\n        /* \"#utility.yul\":6313:6374   */\n      tag_131\n        /* \"#utility.yul\":6366:6373   */\n      dup5\n        /* \"#utility.yul\":6357:6363   */\n      dup3\n        /* \"#utility.yul\":6346:6355   */\n      dup6\n        /* \"#utility.yul\":6342:6364   */\n      add\n        /* \"#utility.yul\":6313:6374   */\n      tag_64\n      jump\t// in\n    tag_131:\n        /* \"#utility.yul\":6303:6374   */\n      swap2\n      pop\n        /* \"#utility.yul\":6259:6384   */\n      pop\n        /* \"#utility.yul\":6046:6391   */\n      swap3\n      swap2\n      pop\n      pop\n      jump\t// out\n\n    auxdata: 0xa26469706673582212201e1839a1fb87d318c869d576154acf3817d56d8f75ebc0ad4b8b455df7f055ed64736f6c63430008150033\n}\n",
				"bytecode": {
					"linkReferences": {},
					"object": "608060405234801561000f575f80fd5b505f61001f61009d60201b60201c565b9050805f806101000a81548173ffffffffffffffffffffffffffffffffffffffff021916908373ffffffffffffffffffffffffffffffffffffffff1602179055507f4101e71e974f68df5e9730cc223280b41654676bbb052cdcc735c3337e64d2d98160405161008f91906100e3565b60405180910390a1506100fc565b5f33905090565b5f73ffffffffffffffffffffffffffffffffffffffff82169050919050565b5f6100cd826100a4565b9050919050565b6100dd816100c3565b82525050565b5f6020820190506100f65f8301846100d4565b92915050565b6106be806101095f395ff3fe608060405234801561000f575f80fd5b506004361061003f575f3560e01c80632348238c14610043578063beabacc81461005f578063c6dbdf611461007b575b5f80fd5b61005d600480360381019061005891906103b5565b610099565b005b6100796004803603810190610074919061044e565b610214565b005b610083610329565b60405161009091906104ad565b60405180910390f35b5f8054906101000a900473ffffffffffffffffffffffffffffffffffffffff1673ffffffffffffffffffffffffffffffffffffffff166100d7610350565b73ffffffffffffffffffffffffffffffffffffffff161461012d576040517f08c379a000000000000000000000000000000000000000000000000000000000815260040161012490610546565b60405180910390fd5b5f73ffffffffffffffffffffffffffffffffffffffff168173ffffffffffffffffffffffffffffffffffffffff160361019b576040517f08c379a0000000000000000000000000000000000000000000000000000000008152600401610192906105d4565b60405180910390fd5b805f806101000a81548173ffffffffffffffffffffffffffffffffffffffff021916908373ffffffffffffffffffffffffffffffffffffffff1602179055507f4101e71e974f68df5e9730cc223280b41654676bbb052cdcc735c3337e64d2d98160405161020991906104ad565b60405180910390a150565b5f8054906101000a900473ffffffffffffffffffffffffffffffffffffffff1673ffffffffffffffffffffffffffffffffffffffff16610252610350565b73ffffffffffffffffffffffffffffffffffffffff16146102a8576040517f08c379a000000000000000000000000000000000000000000000000000000000815260040161029f90610546565b60405180910390fd5b8273ffffffffffffffffffffffffffffffffffffffff1663a9059cbb83836040518363ffffffff1660e01b81526004016102e3929190610601565b6020604051808303815f875af11580156102ff573d5f803e3d5ffd5b505050506040513d601f19601f82011682018060405250810190610323919061065d565b50505050565b5f805f9054906101000a900473ffffffffffffffffffffffffffffffffffffffff16905090565b5f33905090565b5f80fd5b5f73ffffffffffffffffffffffffffffffffffffffff82169050919050565b5f6103848261035b565b9050919050565b6103948161037a565b811461039e575f80fd5b50565b5f813590506103af8161038b565b92915050565b5f602082840312156103ca576103c9610357565b5b5f6103d7848285016103a1565b91505092915050565b5f6103ea8261037a565b9050919050565b6103fa816103e0565b8114610404575f80fd5b50565b5f81359050610415816103f1565b92915050565b5f819050919050565b61042d8161041b565b8114610437575f80fd5b50565b5f8135905061044881610424565b92915050565b5f805f6060848603121561046557610464610357565b5b5f61047286828701610407565b9350506020610483868287016103a1565b92505060406104948682870161043a565b9150509250925092565b6104a78161037a565b82525050565b5f6020820190506104c05f83018461049e565b92915050565b5f82825260208201905092915050565b7f5365636f6e646172793a2063616c6c6572206973206e6f7420746865207072695f8201527f6d617279206163636f756e740000000000000000000000000000000000000000602082015250565b5f610530602c836104c6565b915061053b826104d6565b604082019050919050565b5f6020820190508181035f83015261055d81610524565b9050919050565b7f5365636f6e646172793a206e6577207072696d61727920697320746865207a655f8201527f726f206164647265737300000000000000000000000000000000000000000000602082015250565b5f6105be602a836104c6565b91506105c982610564565b604082019050919050565b5f6020820190508181035f8301526105eb816105b2565b9050919050565b6105fb8161041b565b82525050565b5f6040820190506106145f83018561049e565b61062160208301846105f2565b9392505050565b5f8115159050919050565b61063c81610628565b8114610646575f80fd5b50565b5f8151905061065781610633565b92915050565b5f6020828403121561067257610671610357565b5b5f61067f84828501610649565b9150509291505056fea26469706673582212201e1839a1fb87d318c869d576154acf3817d56d8f75ebc0ad4b8b455df7f055ed64736f6c63430008150033",
					"opcodes": "PUSH1 0x80 PUSH1 0x40 MSTORE CALLVALUE DUP1 ISZERO PUSH2 0xF JUMPI PUSH0 DUP1 REVERT JUMPDEST POP PUSH0 PUSH2 0x1F PUSH2 0x9D PUSH1 0x20 SHL PUSH1 0x20 SHR JUMP JUMPDEST SWAP1 POP DUP1 PUSH0 DUP1 PUSH2 0x100 EXP DUP2 SLOAD DUP2 PUSH20 0xFFFFFFFFFFFFFFFFFFFFFFFFFFFFFFFFFFFFFFFF MUL NOT AND SWAP1 DUP4 PUSH20 0xFFFFFFFFFFFFFFFFFFFFFFFFFFFFFFFFFFFFFFFF AND MUL OR SWAP1 SSTORE POP PUSH32 0x4101E71E974F68DF5E9730CC223280B41654676BBB052CDCC735C3337E64D2D9 DUP2 PUSH1 0x40 MLOAD PUSH2 0x8F SWAP2 SWAP1 PUSH2 0xE3 JUMP JUMPDEST PUSH1 0x40 MLOAD DUP1 SWAP2 SUB SWAP1 LOG1 POP PUSH2 0xFC JUMP JUMPDEST PUSH0 CALLER SWAP1 POP SWAP1 JUMP JUMPDEST PUSH0 PUSH20 0xFFFFFFFFFFFFFFFFFFFFFFFFFFFFFFFFFFFFFFFF DUP3 AND SWAP1 POP SWAP2 SWAP1 POP JUMP JUMPDEST PUSH0 PUSH2 0xCD DUP3 PUSH2 0xA4 JUMP JUMPDEST SWAP1 POP SWAP2 SWAP1 POP JUMP JUMPDEST PUSH2 0xDD DUP2 PUSH2 0xC3 JUMP JUMPDEST DUP3 MSTORE POP POP JUMP JUMPDEST PUSH0 PUSH1 0x20 DUP3 ADD SWAP1 POP PUSH2 0xF6 PUSH0 DUP4 ADD DUP5 PUSH2 0xD4 JUMP JUMPDEST SWAP3 SWAP2 POP POP JUMP JUMPDEST PUSH2 0x6BE DUP1 PUSH2 0x109 PUSH0 CODECOPY PUSH0 RETURN INVALID PUSH1 0x80 PUSH1 0x40 MSTORE CALLVALUE DUP1 ISZERO PUSH2 0xF JUMPI PUSH0 DUP1 REVERT JUMPDEST POP PUSH1 0x4 CALLDATASIZE LT PUSH2 0x3F JUMPI PUSH0 CALLDATALOAD PUSH1 0xE0 SHR DUP1 PUSH4 0x2348238C EQ PUSH2 0x43 JUMPI DUP1 PUSH4 0xBEABACC8 EQ PUSH2 0x5F JUMPI DUP1 PUSH4 0xC6DBDF61 EQ PUSH2 0x7B JUMPI JUMPDEST PUSH0 DUP1 REVERT JUMPDEST PUSH2 0x5D PUSH1 0x4 DUP1 CALLDATASIZE SUB DUP2 ADD SWAP1 PUSH2 0x58 SWAP2 SWAP1 PUSH2 0x3B5 JUMP JUMPDEST PUSH2 0x99 JUMP JUMPDEST STOP JUMPDEST PUSH2 0x79 PUSH1 0x4 DUP1 CALLDATASIZE SUB DUP2 ADD SWAP1 PUSH2 0x74 SWAP2 SWAP1 PUSH2 0x44E JUMP JUMPDEST PUSH2 0x214 JUMP JUMPDEST STOP JUMPDEST PUSH2 0x83 PUSH2 0x329 JUMP JUMPDEST PUSH1 0x40 MLOAD PUSH2 0x90 SWAP2 SWAP1 PUSH2 0x4AD JUMP JUMPDEST PUSH1 0x40 MLOAD DUP1 SWAP2 SUB SWAP1 RETURN JUMPDEST PUSH0 DUP1 SLOAD SWAP1 PUSH2 0x100 EXP SWAP1 DIV PUSH20 0xFFFFFFFFFFFFFFFFFFFFFFFFFFFFFFFFFFFFFFFF AND PUSH20 0xFFFFFFFFFFFFFFFFFFFFFFFFFFFFFFFFFFFFFFFF AND PUSH2 0xD7 PUSH2 0x350 JUMP JUMPDEST PUSH20 0xFFFFFFFFFFFFFFFFFFFFFFFFFFFFFFFFFFFFFFFF AND EQ PUSH2 0x12D JUMPI PUSH1 0x40 MLOAD PUSH32 0x8C379A000000000000000000000000000000000000000000000000000000000 DUP2 MSTORE PUSH1 0x4 ADD PUSH2 0x124 SWAP1 PUSH2 0x546 JUMP JUMPDEST PUSH1 0x40 MLOAD DUP1 SWAP2 SUB SWAP1 REVERT JUMPDEST PUSH0 PUSH20 0xFFFFFFFFFFFFFFFFFFFFFFFFFFFFFFFFFFFFFFFF AND DUP2 PUSH20 0xFFFFFFFFFFFFFFFFFFFFFFFFFFFFFFFFFFFFFFFF AND SUB PUSH2 0x19B JUMPI PUSH1 0x40 MLOAD PUSH32 0x8C379A000000000000000000000000000000000000000000000000000000000 DUP2 MSTORE PUSH1 0x4 ADD PUSH2 0x192 SWAP1 PUSH2 0x5D4 JUMP JUMPDEST PUSH1 0x40 MLOAD DUP1 SWAP2 SUB SWAP1 REVERT JUMPDEST DUP1 PUSH0 DUP1 PUSH2 0x100 EXP DUP2 SLOAD DUP2 PUSH20 0xFFFFFFFFFFFFFFFFFFFFFFFFFFFFFFFFFFFFFFFF MUL NOT AND SWAP1 DUP4 PUSH20 0xFFFFFFFFFFFFFFFFFFFFFFFFFFFFFFFFFFFFFFFF AND MUL OR SWAP1 SSTORE POP PUSH32 0x4101E71E974F68DF5E9730CC223280B41654676BBB052CDCC735C3337E64D2D9 DUP2 PUSH1 0x40 MLOAD PUSH2 0x209 SWAP2 SWAP1 PUSH2 0x4AD JUMP JUMPDEST PUSH1 0x40 MLOAD DUP1 SWAP2 SUB SWAP1 LOG1 POP JUMP JUMPDEST PUSH0 DUP1 SLOAD SWAP1 PUSH2 0x100 EXP SWAP1 DIV PUSH20 0xFFFFFFFFFFFFFFFFFFFFFFFFFFFFFFFFFFFFFFFF AND PUSH20 0xFFFFFFFFFFFFFFFFFFFFFFFFFFFFFFFFFFFFFFFF AND PUSH2 0x252 PUSH2 0x350 JUMP JUMPDEST PUSH20 0xFFFFFFFFFFFFFFFFFFFFFFFFFFFFFFFFFFFFFFFF AND EQ PUSH2 0x2A8 JUMPI PUSH1 0x40 MLOAD PUSH32 0x8C379A000000000000000000000000000000000000000000000000000000000 DUP2 MSTORE PUSH1 0x4 ADD PUSH2 0x29F SWAP1 PUSH2 0x546 JUMP JUMPDEST PUSH1 0x40 MLOAD DUP1 SWAP2 SUB SWAP1 REVERT JUMPDEST DUP3 PUSH20 0xFFFFFFFFFFFFFFFFFFFFFFFFFFFFFFFFFFFFFFFF AND PUSH4 0xA9059CBB DUP4 DUP4 PUSH1 0x40 MLOAD DUP4 PUSH4 0xFFFFFFFF AND PUSH1 0xE0 SHL DUP2 MSTORE PUSH1 0x4 ADD PUSH2 0x2E3 SWAP3 SWAP2 SWAP1 PUSH2 0x601 JUMP JUMPDEST PUSH1 0x20 PUSH1 0x40 MLOAD DUP1 DUP4 SUB DUP2 PUSH0 DUP8 GAS CALL ISZERO DUP1 ISZERO PUSH2 0x2FF JUMPI RETURNDATASIZE PUSH0 DUP1 RETURNDATACOPY RETURNDATASIZE PUSH0 REVERT JUMPDEST POP POP POP POP PUSH1 0x40 MLOAD RETURNDATASIZE PUSH1 0x1F NOT PUSH1 0x1F DUP3 ADD AND DUP3 ADD DUP1 PUSH1 0x40 MSTORE POP DUP2 ADD SWAP1 PUSH2 0x323 SWAP2 SWAP1 PUSH2 0x65D JUMP JUMPDEST POP POP POP POP JUMP JUMPDEST PUSH0 DUP1 PUSH0 SWAP1 SLOAD SWAP1 PUSH2 0x100 EXP SWAP1 DIV PUSH20 0xFFFFFFFFFFFFFFFFFFFFFFFFFFFFFFFFFFFFFFFF AND SWAP1 POP SWAP1 JUMP JUMPDEST PUSH0 CALLER SWAP1 POP SWAP1 JUMP JUMPDEST PUSH0 DUP1 REVERT JUMPDEST PUSH0 PUSH20 0xFFFFFFFFFFFFFFFFFFFFFFFFFFFFFFFFFFFFFFFF DUP3 AND SWAP1 POP SWAP2 SWAP1 POP JUMP JUMPDEST PUSH0 PUSH2 0x384 DUP3 PUSH2 0x35B JUMP JUMPDEST SWAP1 POP SWAP2 SWAP1 POP JUMP JUMPDEST PUSH2 0x394 DUP2 PUSH2 0x37A JUMP JUMPDEST DUP2 EQ PUSH2 0x39E JUMPI PUSH0 DUP1 REVERT JUMPDEST POP JUMP JUMPDEST PUSH0 DUP2 CALLDATALOAD SWAP1 POP PUSH2 0x3AF DUP2 PUSH2 0x38B JUMP JUMPDEST SWAP3 SWAP2 POP POP JUMP JUMPDEST PUSH0 PUSH1 0x20 DUP3 DUP5 SUB SLT ISZERO PUSH2 0x3CA JUMPI PUSH2 0x3C9 PUSH2 0x357 JUMP JUMPDEST JUMPDEST PUSH0 PUSH2 0x3D7 DUP5 DUP3 DUP6 ADD PUSH2 0x3A1 JUMP JUMPDEST SWAP2 POP POP SWAP3 SWAP2 POP POP JUMP JUMPDEST PUSH0 PUSH2 0x3EA DUP3 PUSH2 0x37A JUMP JUMPDEST SWAP1 POP SWAP2 SWAP1 POP JUMP JUMPDEST PUSH2 0x3FA DUP2 PUSH2 0x3E0 JUMP JUMPDEST DUP2 EQ PUSH2 0x404 JUMPI PUSH0 DUP1 REVERT JUMPDEST POP JUMP JUMPDEST PUSH0 DUP2 CALLDATALOAD SWAP1 POP PUSH2 0x415 DUP2 PUSH2 0x3F1 JUMP JUMPDEST SWAP3 SWAP2 POP POP JUMP JUMPDEST PUSH0 DUP2 SWAP1 POP SWAP2 SWAP1 POP JUMP JUMPDEST PUSH2 0x42D DUP2 PUSH2 0x41B JUMP JUMPDEST DUP2 EQ PUSH2 0x437 JUMPI PUSH0 DUP1 REVERT JUMPDEST POP JUMP JUMPDEST PUSH0 DUP2 CALLDATALOAD SWAP1 POP PUSH2 0x448 DUP2 PUSH2 0x424 JUMP JUMPDEST SWAP3 SWAP2 POP POP JUMP JUMPDEST PUSH0 DUP1 PUSH0 PUSH1 0x60 DUP5 DUP7 SUB SLT ISZERO PUSH2 0x465 JUMPI PUSH2 0x464 PUSH2 0x357 JUMP JUMPDEST JUMPDEST PUSH0 PUSH2 0x472 DUP7 DUP3 DUP8 ADD PUSH2 0x407 JUMP JUMPDEST SWAP4 POP POP PUSH1 0x20 PUSH2 0x483 DUP7 DUP3 DUP8 ADD PUSH2 0x3A1 JUMP JUMPDEST SWAP3 POP POP PUSH1 0x40 PUSH2 0x494 DUP7 DUP3 DUP8 ADD PUSH2 0x43A JUMP JUMPDEST SWAP2 POP POP SWAP3 POP SWAP3 POP SWAP3 JUMP JUMPDEST PUSH2 0x4A7 DUP2 PUSH2 0x37A JUMP JUMPDEST DUP3 MSTORE POP POP JUMP JUMPDEST PUSH0 PUSH1 0x20 DUP3 ADD SWAP1 POP PUSH2 0x4C0 PUSH0 DUP4 ADD DUP5 PUSH2 0x49E JUMP JUMPDEST SWAP3 SWAP2 POP POP JUMP JUMPDEST PUSH0 DUP3 DUP3 MSTORE PUSH1 0x20 DUP3 ADD SWAP1 POP SWAP3 SWAP2 POP POP JUMP JUMPDEST PUSH32 0x5365636F6E646172793A2063616C6C6572206973206E6F742074686520707269 PUSH0 DUP3 ADD MSTORE PUSH32 0x6D617279206163636F756E740000000000000000000000000000000000000000 PUSH1 0x20 DUP3 ADD MSTORE POP JUMP JUMPDEST PUSH0 PUSH2 0x530 PUSH1 0x2C DUP4 PUSH2 0x4C6 JUMP JUMPDEST SWAP2 POP PUSH2 0x53B DUP3 PUSH2 0x4D6 JUMP JUMPDEST PUSH1 0x40 DUP3 ADD SWAP1 POP SWAP2 SWAP1 POP JUMP JUMPDEST PUSH0 PUSH1 0x20 DUP3 ADD SWAP1 POP DUP2 DUP2 SUB PUSH0 DUP4 ADD MSTORE PUSH2 0x55D DUP2 PUSH2 0x524 JUMP JUMPDEST SWAP1 POP SWAP2 SWAP1 POP JUMP JUMPDEST PUSH32 0x5365636F6E646172793A206E6577207072696D61727920697320746865207A65 PUSH0 DUP3 ADD MSTORE PUSH32 0x726F206164647265737300000000000000000000000000000000000000000000 PUSH1 0x20 DUP3 ADD MSTORE POP JUMP JUMPDEST PUSH0 PUSH2 0x5BE PUSH1 0x2A DUP4 PUSH2 0x4C6 JUMP JUMPDEST SWAP2 POP PUSH2 0x5C9 DUP3 PUSH2 0x564 JUMP JUMPDEST PUSH1 0x40 DUP3 ADD SWAP1 POP SWAP2 SWAP1 POP JUMP JUMPDEST PUSH0 PUSH1 0x20 DUP3 ADD SWAP1 POP DUP2 DUP2 SUB PUSH0 DUP4 ADD MSTORE PUSH2 0x5EB DUP2 PUSH2 0x5B2 JUMP JUMPDEST SWAP1 POP SWAP2 SWAP1 POP JUMP JUMPDEST PUSH2 0x5FB DUP2 PUSH2 0x41B JUMP JUMPDEST DUP3 MSTORE POP POP JUMP JUMPDEST PUSH0 PUSH1 0x40 DUP3 ADD SWAP1 POP PUSH2 0x614 PUSH0 DUP4 ADD DUP6 PUSH2 0x49E JUMP JUMPDEST PUSH2 0x621 PUSH1 0x20 DUP4 ADD DUP5 PUSH2 0x5F2 JUMP JUMPDEST SWAP4 SWAP3 POP POP POP JUMP JUMPDEST PUSH0 DUP2 ISZERO ISZERO SWAP1 POP SWAP2 SWAP1 POP JUMP JUMPDEST PUSH2 0x63C DUP2 PUSH2 0x628 JUMP JUMPDEST DUP2 EQ PUSH2 0x646 JUMPI PUSH0 DUP1 REVERT JUMPDEST POP JUMP JUMPDEST PUSH0 DUP2 MLOAD SWAP1 POP PUSH2 0x657 DUP2 PUSH2 0x633 JUMP JUMPDEST SWAP3 SWAP2 POP POP JUMP JUMPDEST PUSH0 PUSH1 0x20 DUP3 DUP5 SUB SLT ISZERO PUSH2 0x672 JUMPI PUSH2 0x671 PUSH2 0x357 JUMP JUMPDEST JUMPDEST PUSH0 PUSH2 0x67F DUP5 DUP3 DUP6 ADD PUSH2 0x649 JUMP JUMPDEST SWAP2 POP POP SWAP3 SWAP2 POP POP JUMP INVALID LOG2 PUSH5 0x6970667358 0x22 SLT KECCAK256 0x1E XOR CODECOPY LOG1 0xFB DUP8 0xD3 XOR 0xC8 PUSH10 0xD576154ACF3817D56D8F PUSH22 0xEBC0AD4B8B455DF7F055ED64736F6C63430008150033 "
				},
				"gasEstimates": {
					"creation": {
						"codeDepositCost": "345200",
						"executionCost": "infinite",
						"totalCost": "infinite"
					},
					"external": {
						"primary()": "2537",
						"transfer(address,address,uint256)": "infinite",
						"transferPrimary(address)": "infinite"
					}
				},
				"methodIdentifiers": {
					"primary()": "c6dbdf61",
					"transfer(address,address,uint256)": "beabacc8",
					"transferPrimary(address)": "2348238c"
				}
			},
			"storageLayout": {
				"storage": [
					{
						"astId": 1800,
						"contract": "crowdsale/distribution/postDeliveryCrowdsale.sol:__unstable__TokenVault",
						"label": "_primary",
						"offset": 0,
						"slot": "0",
						"type": "t_address"
					}
				],
				"types": {
					"t_address": {
						"encoding": "inplace",
						"label": "address",
						"numberOfBytes": "20"
					}
				}
			},
			"userdoc": {
				"kind": "user",
				"methods": {},
				"version": 1
			}
		}
	}
}