{
	"crowdsale/distribution/postDeliveryCrowdsale.sol": {
		"PostDeliveryCrowdsale": {
			"abi": [
				{
					"inputs": [
						{
							"internalType": "uint256",
							"name": "inOpeningTime",
							"type": "uint256"
						},
						{
							"internalType": "uint256",
							"name": "inClosingTime",
							"type": "uint256"
						},
						{
							"internalType": "uint256",
							"name": "inRate",
							"type": "uint256"
						},
						{
							"internalType": "address payable",
							"name": "inWallet",
							"type": "address"
						},
						{
							"internalType": "contract IERC20",
							"name": "inToken",
							"type": "address"
						}
					],
					"stateMutability": "nonpayable",
					"type": "constructor"
				},
				{
					"anonymous": false,
					"inputs": [
						{
							"indexed": false,
							"internalType": "uint256",
							"name": "prevClosingTime",
							"type": "uint256"
						},
						{
							"indexed": false,
							"internalType": "uint256",
							"name": "newClosingTime",
							"type": "uint256"
						}
					],
					"name": "TimedCrowdsaleExtended",
					"type": "event"
				},
				{
					"anonymous": false,
					"inputs": [
						{
							"indexed": true,
							"internalType": "address",
							"name": "purchaser",
							"type": "address"
						},
						{
							"indexed": true,
							"internalType": "address",
							"name": "beneficiary",
							"type": "address"
						},
						{
							"indexed": false,
							"internalType": "uint256",
							"name": "value",
							"type": "uint256"
						},
						{
							"indexed": false,
							"internalType": "uint256",
							"name": "amount",
							"type": "uint256"
						}
					],
					"name": "TokensPurchased",
					"type": "event"
				},
				{
					"stateMutability": "payable",
					"type": "fallback"
				},
				{
					"inputs": [
						{
							"internalType": "address",
							"name": "account",
							"type": "address"
						}
					],
					"name": "balanceOf",
					"outputs": [
						{
							"internalType": "uint256",
							"name": "",
							"type": "uint256"
						}
					],
					"stateMutability": "view",
					"type": "function"
				},
				{
					"inputs": [
						{
							"internalType": "address",
							"name": "beneficiary",
							"type": "address"
						}
					],
					"name": "buyTokens",
					"outputs": [],
					"stateMutability": "payable",
					"type": "function"
				},
				{
					"inputs": [],
					"name": "closingTime",
					"outputs": [
						{
							"internalType": "uint256",
							"name": "",
							"type": "uint256"
						}
					],
					"stateMutability": "view",
					"type": "function"
				},
				{
					"inputs": [],
					"name": "hasClosed",
					"outputs": [
						{
							"internalType": "bool",
							"name": "",
							"type": "bool"
						}
					],
					"stateMutability": "view",
					"type": "function"
				},
				{
					"inputs": [],
					"name": "isOpen",
					"outputs": [
						{
							"internalType": "bool",
							"name": "",
							"type": "bool"
						}
					],
					"stateMutability": "view",
					"type": "function"
				},
				{
					"inputs": [],
					"name": "openingTime",
					"outputs": [
						{
							"internalType": "uint256",
							"name": "",
							"type": "uint256"
						}
					],
					"stateMutability": "view",
					"type": "function"
				},
				{
					"inputs": [],
					"name": "rate",
					"outputs": [
						{
							"internalType": "uint256",
							"name": "",
							"type": "uint256"
						}
					],
					"stateMutability": "view",
					"type": "function"
				},
				{
					"inputs": [],
					"name": "token",
					"outputs": [
						{
							"internalType": "contract IERC20",
							"name": "",
							"type": "address"
						}
					],
					"stateMutability": "view",
					"type": "function"
				},
				{
					"inputs": [],
					"name": "wallet",
					"outputs": [
						{
							"internalType": "address payable",
							"name": "",
							"type": "address"
						}
					],
					"stateMutability": "view",
					"type": "function"
				},
				{
					"inputs": [],
					"name": "weiRaised",
					"outputs": [
						{
							"internalType": "uint256",
							"name": "",
							"type": "uint256"
						}
					],
					"stateMutability": "view",
					"type": "function"
				},
				{
					"inputs": [
						{
							"internalType": "address",
							"name": "beneficiary",
							"type": "address"
						}
					],
					"name": "withdrawTokens",
					"outputs": [],
					"stateMutability": "nonpayable",
					"type": "function"
				},
				{
					"stateMutability": "payable",
					"type": "receive"
				}
			],
			"devdoc": {
				"details": "Crowdsale that locks tokens from withdrawal until it ends.",
				"events": {
					"TimedCrowdsaleExtended(uint256,uint256)": {
						"params": {
							"newClosingTime": "new closing time",
							"prevClosingTime": "old closing time"
						}
					},
					"TokensPurchased(address,address,uint256,uint256)": {
						"params": {
							"amount": "amount of tokens purchased",
							"beneficiary": "who got the tokens",
							"purchaser": "who paid for the tokens",
							"value": "weis paid for purchase"
						}
					}
				},
				"kind": "dev",
				"methods": {
					"balanceOf(address)": {
						"returns": {
							"_0": "the balance of an account."
						}
					},
					"buyTokens(address)": {
						"details": "low level token purchase ***DO NOT OVERRIDE*** This function has a non-reentrancy guard, so it shouldn't be called by another `nonReentrant` function.",
						"params": {
							"beneficiary": "Recipient of the token purchase"
						}
					},
					"closingTime()": {
						"returns": {
							"_0": "the crowdsale closing time."
						}
					},
					"hasClosed()": {
						"details": "Checks whether the period in which the crowdsale is open has already elapsed.",
						"returns": {
							"_0": "Whether crowdsale period has elapsed"
						}
					},
					"isOpen()": {
						"returns": {
							"_0": "true if the crowdsale is open, false otherwise."
						}
					},
					"openingTime()": {
						"returns": {
							"_0": "the crowdsale opening time."
						}
					},
					"rate()": {
						"returns": {
							"_0": "the number of token units a buyer gets per wei."
						}
					},
					"token()": {
						"returns": {
							"_0": "the token being sold."
						}
					},
					"wallet()": {
						"returns": {
							"_0": "the address where funds are collected."
						}
					},
					"weiRaised()": {
						"returns": {
							"_0": "the amount of wei raised."
						}
					},
					"withdrawTokens(address)": {
						"details": "Withdraw tokens only after crowdsale ends.",
						"params": {
							"beneficiary": "Whose tokens will be withdrawn."
						}
					}
				},
				"title": "PostDeliveryCrowdsale",
				"version": 1
			},
			"evm": {
				"assembly": "    /* \"crowdsale/distribution/postDeliveryCrowdsale.sol\":378:2145  contract PostDeliveryCrowdsale is TimedCrowdsale {... */\n  mstore(0x40, 0x80)\n    /* \"crowdsale/distribution/postDeliveryCrowdsale.sol\":571:820  constructor(uint256 inOpeningTime, uint256 inClosingTime, uint256 inRate, address payable inWallet, IERC20 inToken)... */\n  callvalue\n  dup1\n  iszero\n  tag_1\n  jumpi\n  0x00\n  dup1\n  revert\ntag_1:\n  pop\n  mload(0x40)\n  sub(codesize, bytecodeSize)\n  dup1\n  bytecodeSize\n  dup4\n  codecopy\n  dup2\n  dup2\n  add\n  0x40\n  mstore\n  dup2\n  add\n  swap1\n  tag_2\n  swap2\n  swap1\n  tag_3\n  jump\t// in\ntag_2:\n    /* \"crowdsale/distribution/postDeliveryCrowdsale.sol\":707:720  inOpeningTime */\n  dup5\n    /* \"crowdsale/distribution/postDeliveryCrowdsale.sol\":722:735  inClosingTime */\n  dup5\n    /* \"crowdsale/distribution/postDeliveryCrowdsale.sol\":737:743  inRate */\n  dup5\n    /* \"crowdsale/distribution/postDeliveryCrowdsale.sol\":745:753  inWallet */\n  dup5\n    /* \"crowdsale/distribution/postDeliveryCrowdsale.sol\":755:762  inToken */\n  dup5\n    /* \"crowdsale/validation/timedCrowdsale.sol\":1204:1210  inRate */\n  dup3\n    /* \"crowdsale/validation/timedCrowdsale.sol\":1212:1220  inWallet */\n  dup3\n    /* \"crowdsale/validation/timedCrowdsale.sol\":1222:1229  inToken */\n  dup3\n    /* \"@openzeppelin/contracts/security/ReentrancyGuard.sol\":1716:1717  1 */\n  0x01\n    /* \"@openzeppelin/contracts/security/ReentrancyGuard.sol\":1821:1828  _status */\n  0x00\n    /* \"@openzeppelin/contracts/security/ReentrancyGuard.sol\":1821:1843  _status = _NOT_ENTERED */\n  dup2\n  swap1\n  sstore\n  pop\n    /* \"crowdsale/crowdsale.sol\":2644:2645  0 */\n  0x00\n    /* \"crowdsale/crowdsale.sol\":2635:2641  inRate */\n  dup4\n    /* \"crowdsale/crowdsale.sol\":2635:2645  inRate > 0 */\n  gt\n    /* \"crowdsale/crowdsale.sol\":2627:2670  require(inRate > 0, \"Crowdsale: rate is 0\") */\n  tag_10\n  jumpi\n  mload(0x40)\n  0x08c379a000000000000000000000000000000000000000000000000000000000\n  dup2\n  mstore\n  0x04\n  add\n  tag_11\n  swap1\n  tag_12\n  jump\t// in\ntag_11:\n  mload(0x40)\n  dup1\n  swap2\n  sub\n  swap1\n  revert\ntag_10:\n    /* \"crowdsale/crowdsale.sol\":2709:2710  0 */\n  0x00\n    /* \"crowdsale/crowdsale.sol\":2689:2711  inWallet != address(0) */\n  0xffffffffffffffffffffffffffffffffffffffff\n  and\n    /* \"crowdsale/crowdsale.sol\":2689:2697  inWallet */\n  dup3\n    /* \"crowdsale/crowdsale.sol\":2689:2711  inWallet != address(0) */\n  0xffffffffffffffffffffffffffffffffffffffff\n  and\n  sub\n    /* \"crowdsale/crowdsale.sol\":2681:2753  require(inWallet != address(0), \"Crowdsale: wallet is the zero address\") */\n  tag_13\n  jumpi\n  mload(0x40)\n  0x08c379a000000000000000000000000000000000000000000000000000000000\n  dup2\n  mstore\n  0x04\n  add\n  tag_14\n  swap1\n  tag_15\n  jump\t// in\ntag_14:\n  mload(0x40)\n  dup1\n  swap2\n  sub\n  swap1\n  revert\ntag_13:\n    /* \"crowdsale/crowdsale.sol\":2800:2801  0 */\n  0x00\n    /* \"crowdsale/crowdsale.sol\":2772:2802  address(inToken) != address(0) */\n  0xffffffffffffffffffffffffffffffffffffffff\n  and\n    /* \"crowdsale/crowdsale.sol\":2780:2787  inToken */\n  dup2\n    /* \"crowdsale/crowdsale.sol\":2772:2802  address(inToken) != address(0) */\n  0xffffffffffffffffffffffffffffffffffffffff\n  and\n  sub\n    /* \"crowdsale/crowdsale.sol\":2764:2843  require(address(inToken) != address(0), \"Crowdsale: token is the zero address\") */\n  tag_16\n  jumpi\n  mload(0x40)\n  0x08c379a000000000000000000000000000000000000000000000000000000000\n  dup2\n  mstore\n  0x04\n  add\n  tag_17\n  swap1\n  tag_18\n  jump\t// in\ntag_17:\n  mload(0x40)\n  dup1\n  swap2\n  sub\n  swap1\n  revert\ntag_16:\n    /* \"crowdsale/crowdsale.sol\":2864:2870  inRate */\n  dup3\n    /* \"crowdsale/crowdsale.sol\":2856:2861  _rate */\n  0x03\n    /* \"crowdsale/crowdsale.sol\":2856:2870  _rate = inRate */\n  dup2\n  swap1\n  sstore\n  pop\n    /* \"crowdsale/crowdsale.sol\":2891:2899  inWallet */\n  dup2\n    /* \"crowdsale/crowdsale.sol\":2881:2888  _wallet */\n  0x02\n  0x00\n    /* \"crowdsale/crowdsale.sol\":2881:2899  _wallet = inWallet */\n  0x0100\n  exp\n  dup2\n  sload\n  dup2\n  0xffffffffffffffffffffffffffffffffffffffff\n  mul\n  not\n  and\n  swap1\n  dup4\n  0xffffffffffffffffffffffffffffffffffffffff\n  and\n  mul\n  or\n  swap1\n  sstore\n  pop\n    /* \"crowdsale/crowdsale.sol\":2919:2926  inToken */\n  dup1\n    /* \"crowdsale/crowdsale.sol\":2910:2916  _token */\n  0x01\n  0x00\n    /* \"crowdsale/crowdsale.sol\":2910:2926  _token = inToken */\n  0x0100\n  exp\n  dup2\n  sload\n  dup2\n  0xffffffffffffffffffffffffffffffffffffffff\n  mul\n  not\n  and\n  swap1\n  dup4\n  0xffffffffffffffffffffffffffffffffffffffff\n  and\n  mul\n  or\n  swap1\n  sstore\n  pop\n    /* \"crowdsale/crowdsale.sol\":2545:2934  constructor (uint256 inRate, address payable inWallet, IERC20 inToken) {... */\n  pop\n  pop\n  pop\n    /* \"crowdsale/validation/timedCrowdsale.sol\":1322:1337  block.timestamp */\n  timestamp\n    /* \"crowdsale/validation/timedCrowdsale.sol\":1305:1318  inOpeningTime */\n  dup6\n    /* \"crowdsale/validation/timedCrowdsale.sol\":1305:1337  inOpeningTime >= block.timestamp */\n  lt\n  iszero\n    /* \"crowdsale/validation/timedCrowdsale.sol\":1297:1393  require(inOpeningTime >= block.timestamp, \"TimedCrowdsale: opening time is before current time\") */\n  tag_20\n  jumpi\n  mload(0x40)\n  0x08c379a000000000000000000000000000000000000000000000000000000000\n  dup2\n  mstore\n  0x04\n  add\n  tag_21\n  swap1\n  tag_22\n  jump\t// in\ntag_21:\n  mload(0x40)\n  dup1\n  swap2\n  sub\n  swap1\n  revert\ntag_20:\n    /* \"crowdsale/validation/timedCrowdsale.sol\":1482:1495  inOpeningTime */\n  dup5\n    /* \"crowdsale/validation/timedCrowdsale.sol\":1466:1479  inClosingTime */\n  dup5\n    /* \"crowdsale/validation/timedCrowdsale.sol\":1466:1495  inClosingTime > inOpeningTime */\n  gt\n    /* \"crowdsale/validation/timedCrowdsale.sol\":1458:1555  require(inClosingTime > inOpeningTime, \"TimedCrowdsale: opening time is not before closing time\") */\n  tag_23\n  jumpi\n  mload(0x40)\n  0x08c379a000000000000000000000000000000000000000000000000000000000\n  dup2\n  mstore\n  0x04\n  add\n  tag_24\n  swap1\n  tag_25\n  jump\t// in\ntag_24:\n  mload(0x40)\n  dup1\n  swap2\n  sub\n  swap1\n  revert\ntag_23:\n    /* \"crowdsale/validation/timedCrowdsale.sol\":1583:1596  inOpeningTime */\n  dup5\n    /* \"crowdsale/validation/timedCrowdsale.sol\":1568:1580  _openingTime */\n  0x05\n    /* \"crowdsale/validation/timedCrowdsale.sol\":1568:1596  _openingTime = inOpeningTime */\n  dup2\n  swap1\n  sstore\n  pop\n    /* \"crowdsale/validation/timedCrowdsale.sol\":1622:1635  inClosingTime */\n  dup4\n    /* \"crowdsale/validation/timedCrowdsale.sol\":1607:1619  _closingTime */\n  0x06\n    /* \"crowdsale/validation/timedCrowdsale.sol\":1607:1635  _closingTime = inClosingTime */\n  dup2\n  swap1\n  sstore\n  pop\n    /* \"crowdsale/validation/timedCrowdsale.sol\":1077:1643  constructor (uint256 inOpeningTime, uint256 inClosingTime, uint256 inRate, address payable inWallet, IERC20 inToken) Crowdsale(inRate, inWallet, inToken) {... */\n  pop\n  pop\n  pop\n  pop\n  pop\n    /* \"crowdsale/distribution/postDeliveryCrowdsale.sol\":784:812  new __unstable__TokenVault() */\n  mload(0x40)\n  tag_27\n  swap1\n  tag_28\n  jump\t// in\ntag_27:\n  mload(0x40)\n  dup1\n  swap2\n  sub\n  swap1\n  0x00\n  create\n  dup1\n  iszero\n  dup1\n  iszero\n  tag_29\n  jumpi\n  returndatasize\n  0x00\n  dup1\n  returndatacopy\n  revert(0x00, returndatasize)\ntag_29:\n  pop\n    /* \"crowdsale/distribution/postDeliveryCrowdsale.sol\":775:781  _vault */\n  0x08\n  0x00\n    /* \"crowdsale/distribution/postDeliveryCrowdsale.sol\":775:812  _vault = new __unstable__TokenVault() */\n  0x0100\n  exp\n  dup2\n  sload\n  dup2\n  0xffffffffffffffffffffffffffffffffffffffff\n  mul\n  not\n  and\n  swap1\n  dup4\n  0xffffffffffffffffffffffffffffffffffffffff\n  and\n  mul\n  or\n  swap1\n  sstore\n  pop\n    /* \"crowdsale/distribution/postDeliveryCrowdsale.sol\":571:820  constructor(uint256 inOpeningTime, uint256 inClosingTime, uint256 inRate, address payable inWallet, IERC20 inToken)... */\n  pop\n  pop\n  pop\n  pop\n  pop\n    /* \"crowdsale/distribution/postDeliveryCrowdsale.sol\":378:2145  contract PostDeliveryCrowdsale is TimedCrowdsale {... */\n  jump(tag_30)\ntag_28:\n  dataSize(sub_1)\n  dup1\n  dataOffset(sub_1)\n  dup4\n  codecopy\n  add\n  swap1\n  jump\t// out\n    /* \"#utility.yul\":88:205   */\ntag_32:\n    /* \"#utility.yul\":197:198   */\n  0x00\n    /* \"#utility.yul\":194:195   */\n  dup1\n    /* \"#utility.yul\":187:199   */\n  revert\n    /* \"#utility.yul\":334:411   */\ntag_34:\n    /* \"#utility.yul\":371:378   */\n  0x00\n    /* \"#utility.yul\":400:405   */\n  dup2\n    /* \"#utility.yul\":389:405   */\n  swap1\n  pop\n    /* \"#utility.yul\":334:411   */\n  swap2\n  swap1\n  pop\n  jump\t// out\n    /* \"#utility.yul\":417:539   */\ntag_35:\n    /* \"#utility.yul\":490:514   */\n  tag_62\n    /* \"#utility.yul\":508:513   */\n  dup2\n    /* \"#utility.yul\":490:514   */\n  tag_34\n  jump\t// in\ntag_62:\n    /* \"#utility.yul\":483:488   */\n  dup2\n    /* \"#utility.yul\":480:515   */\n  eq\n    /* \"#utility.yul\":470:533   */\n  tag_63\n  jumpi\n    /* \"#utility.yul\":529:530   */\n  0x00\n    /* \"#utility.yul\":526:527   */\n  dup1\n    /* \"#utility.yul\":519:531   */\n  revert\n    /* \"#utility.yul\":470:533   */\ntag_63:\n    /* \"#utility.yul\":417:539   */\n  pop\n  jump\t// out\n    /* \"#utility.yul\":545:688   */\ntag_36:\n    /* \"#utility.yul\":602:607   */\n  0x00\n    /* \"#utility.yul\":633:639   */\n  dup2\n    /* \"#utility.yul\":627:640   */\n  mload\n    /* \"#utility.yul\":618:640   */\n  swap1\n  pop\n    /* \"#utility.yul\":649:682   */\n  tag_65\n    /* \"#utility.yul\":676:681   */\n  dup2\n    /* \"#utility.yul\":649:682   */\n  tag_35\n  jump\t// in\ntag_65:\n    /* \"#utility.yul\":545:688   */\n  swap3\n  swap2\n  pop\n  pop\n  jump\t// out\n    /* \"#utility.yul\":694:820   */\ntag_37:\n    /* \"#utility.yul\":731:738   */\n  0x00\n    /* \"#utility.yul\":771:813   */\n  0xffffffffffffffffffffffffffffffffffffffff\n    /* \"#utility.yul\":764:769   */\n  dup3\n    /* \"#utility.yul\":760:814   */\n  and\n    /* \"#utility.yul\":749:814   */\n  swap1\n  pop\n    /* \"#utility.yul\":694:820   */\n  swap2\n  swap1\n  pop\n  jump\t// out\n    /* \"#utility.yul\":826:930   */\ntag_38:\n    /* \"#utility.yul\":871:878   */\n  0x00\n    /* \"#utility.yul\":900:924   */\n  tag_68\n    /* \"#utility.yul\":918:923   */\n  dup3\n    /* \"#utility.yul\":900:924   */\n  tag_37\n  jump\t// in\ntag_68:\n    /* \"#utility.yul\":889:924   */\n  swap1\n  pop\n    /* \"#utility.yul\":826:930   */\n  swap2\n  swap1\n  pop\n  jump\t// out\n    /* \"#utility.yul\":936:1074   */\ntag_39:\n    /* \"#utility.yul\":1017:1049   */\n  tag_70\n    /* \"#utility.yul\":1043:1048   */\n  dup2\n    /* \"#utility.yul\":1017:1049   */\n  tag_38\n  jump\t// in\ntag_70:\n    /* \"#utility.yul\":1010:1015   */\n  dup2\n    /* \"#utility.yul\":1007:1050   */\n  eq\n    /* \"#utility.yul\":997:1068   */\n  tag_71\n  jumpi\n    /* \"#utility.yul\":1064:1065   */\n  0x00\n    /* \"#utility.yul\":1061:1062   */\n  dup1\n    /* \"#utility.yul\":1054:1066   */\n  revert\n    /* \"#utility.yul\":997:1068   */\ntag_71:\n    /* \"#utility.yul\":936:1074   */\n  pop\n  jump\t// out\n    /* \"#utility.yul\":1080:1239   */\ntag_40:\n    /* \"#utility.yul\":1145:1150   */\n  0x00\n    /* \"#utility.yul\":1176:1182   */\n  dup2\n    /* \"#utility.yul\":1170:1183   */\n  mload\n    /* \"#utility.yul\":1161:1183   */\n  swap1\n  pop\n    /* \"#utility.yul\":1192:1233   */\n  tag_73\n    /* \"#utility.yul\":1227:1232   */\n  dup2\n    /* \"#utility.yul\":1192:1233   */\n  tag_39\n  jump\t// in\ntag_73:\n    /* \"#utility.yul\":1080:1239   */\n  swap3\n  swap2\n  pop\n  pop\n  jump\t// out\n    /* \"#utility.yul\":1245:1341   */\ntag_41:\n    /* \"#utility.yul\":1282:1289   */\n  0x00\n    /* \"#utility.yul\":1311:1335   */\n  tag_75\n    /* \"#utility.yul\":1329:1334   */\n  dup3\n    /* \"#utility.yul\":1311:1335   */\n  tag_37\n  jump\t// in\ntag_75:\n    /* \"#utility.yul\":1300:1335   */\n  swap1\n  pop\n    /* \"#utility.yul\":1245:1341   */\n  swap2\n  swap1\n  pop\n  jump\t// out\n    /* \"#utility.yul\":1347:1457   */\ntag_42:\n    /* \"#utility.yul\":1398:1405   */\n  0x00\n    /* \"#utility.yul\":1427:1451   */\n  tag_77\n    /* \"#utility.yul\":1445:1450   */\n  dup3\n    /* \"#utility.yul\":1427:1451   */\n  tag_41\n  jump\t// in\ntag_77:\n    /* \"#utility.yul\":1416:1451   */\n  swap1\n  pop\n    /* \"#utility.yul\":1347:1457   */\n  swap2\n  swap1\n  pop\n  jump\t// out\n    /* \"#utility.yul\":1463:1613   */\ntag_43:\n    /* \"#utility.yul\":1550:1588   */\n  tag_79\n    /* \"#utility.yul\":1582:1587   */\n  dup2\n    /* \"#utility.yul\":1550:1588   */\n  tag_42\n  jump\t// in\ntag_79:\n    /* \"#utility.yul\":1543:1548   */\n  dup2\n    /* \"#utility.yul\":1540:1589   */\n  eq\n    /* \"#utility.yul\":1530:1607   */\n  tag_80\n  jumpi\n    /* \"#utility.yul\":1603:1604   */\n  0x00\n    /* \"#utility.yul\":1600:1601   */\n  dup1\n    /* \"#utility.yul\":1593:1605   */\n  revert\n    /* \"#utility.yul\":1530:1607   */\ntag_80:\n    /* \"#utility.yul\":1463:1613   */\n  pop\n  jump\t// out\n    /* \"#utility.yul\":1619:1790   */\ntag_44:\n    /* \"#utility.yul\":1690:1695   */\n  0x00\n    /* \"#utility.yul\":1721:1727   */\n  dup2\n    /* \"#utility.yul\":1715:1728   */\n  mload\n    /* \"#utility.yul\":1706:1728   */\n  swap1\n  pop\n    /* \"#utility.yul\":1737:1784   */\n  tag_82\n    /* \"#utility.yul\":1778:1783   */\n  dup2\n    /* \"#utility.yul\":1737:1784   */\n  tag_43\n  jump\t// in\ntag_82:\n    /* \"#utility.yul\":1619:1790   */\n  swap3\n  swap2\n  pop\n  pop\n  jump\t// out\n    /* \"#utility.yul\":1796:2817   */\ntag_3:\n    /* \"#utility.yul\":1924:1930   */\n  0x00\n    /* \"#utility.yul\":1932:1938   */\n  dup1\n    /* \"#utility.yul\":1940:1946   */\n  0x00\n    /* \"#utility.yul\":1948:1954   */\n  dup1\n    /* \"#utility.yul\":1956:1962   */\n  0x00\n    /* \"#utility.yul\":2005:2008   */\n  0xa0\n    /* \"#utility.yul\":1993:2002   */\n  dup7\n    /* \"#utility.yul\":1984:1991   */\n  dup9\n    /* \"#utility.yul\":1980:2003   */\n  sub\n    /* \"#utility.yul\":1976:2009   */\n  slt\n    /* \"#utility.yul\":1973:2093   */\n  iszero\n  tag_84\n  jumpi\n    /* \"#utility.yul\":2012:2091   */\n  tag_85\n  tag_32\n  jump\t// in\ntag_85:\n    /* \"#utility.yul\":1973:2093   */\ntag_84:\n    /* \"#utility.yul\":2132:2133   */\n  0x00\n    /* \"#utility.yul\":2157:2221   */\n  tag_86\n    /* \"#utility.yul\":2213:2220   */\n  dup9\n    /* \"#utility.yul\":2204:2210   */\n  dup3\n    /* \"#utility.yul\":2193:2202   */\n  dup10\n    /* \"#utility.yul\":2189:2211   */\n  add\n    /* \"#utility.yul\":2157:2221   */\n  tag_36\n  jump\t// in\ntag_86:\n    /* \"#utility.yul\":2147:2221   */\n  swap6\n  pop\n    /* \"#utility.yul\":2103:2231   */\n  pop\n    /* \"#utility.yul\":2270:2272   */\n  0x20\n    /* \"#utility.yul\":2296:2360   */\n  tag_87\n    /* \"#utility.yul\":2352:2359   */\n  dup9\n    /* \"#utility.yul\":2343:2349   */\n  dup3\n    /* \"#utility.yul\":2332:2341   */\n  dup10\n    /* \"#utility.yul\":2328:2350   */\n  add\n    /* \"#utility.yul\":2296:2360   */\n  tag_36\n  jump\t// in\ntag_87:\n    /* \"#utility.yul\":2286:2360   */\n  swap5\n  pop\n    /* \"#utility.yul\":2241:2370   */\n  pop\n    /* \"#utility.yul\":2409:2411   */\n  0x40\n    /* \"#utility.yul\":2435:2499   */\n  tag_88\n    /* \"#utility.yul\":2491:2498   */\n  dup9\n    /* \"#utility.yul\":2482:2488   */\n  dup3\n    /* \"#utility.yul\":2471:2480   */\n  dup10\n    /* \"#utility.yul\":2467:2489   */\n  add\n    /* \"#utility.yul\":2435:2499   */\n  tag_36\n  jump\t// in\ntag_88:\n    /* \"#utility.yul\":2425:2499   */\n  swap4\n  pop\n    /* \"#utility.yul\":2380:2509   */\n  pop\n    /* \"#utility.yul\":2548:2550   */\n  0x60\n    /* \"#utility.yul\":2574:2646   */\n  tag_89\n    /* \"#utility.yul\":2638:2645   */\n  dup9\n    /* \"#utility.yul\":2629:2635   */\n  dup3\n    /* \"#utility.yul\":2618:2627   */\n  dup10\n    /* \"#utility.yul\":2614:2636   */\n  add\n    /* \"#utility.yul\":2574:2646   */\n  tag_40\n  jump\t// in\ntag_89:\n    /* \"#utility.yul\":2564:2646   */\n  swap3\n  pop\n    /* \"#utility.yul\":2519:2656   */\n  pop\n    /* \"#utility.yul\":2695:2698   */\n  0x80\n    /* \"#utility.yul\":2722:2800   */\n  tag_90\n    /* \"#utility.yul\":2792:2799   */\n  dup9\n    /* \"#utility.yul\":2783:2789   */\n  dup3\n    /* \"#utility.yul\":2772:2781   */\n  dup10\n    /* \"#utility.yul\":2768:2790   */\n  add\n    /* \"#utility.yul\":2722:2800   */\n  tag_44\n  jump\t// in\ntag_90:\n    /* \"#utility.yul\":2712:2800   */\n  swap2\n  pop\n    /* \"#utility.yul\":2666:2810   */\n  pop\n    /* \"#utility.yul\":1796:2817   */\n  swap3\n  swap6\n  pop\n  swap3\n  swap6\n  swap1\n  swap4\n  pop\n  jump\t// out\n    /* \"#utility.yul\":2823:2992   */\ntag_45:\n    /* \"#utility.yul\":2907:2918   */\n  0x00\n    /* \"#utility.yul\":2941:2947   */\n  dup3\n    /* \"#utility.yul\":2936:2939   */\n  dup3\n    /* \"#utility.yul\":2929:2948   */\n  mstore\n    /* \"#utility.yul\":2981:2985   */\n  0x20\n    /* \"#utility.yul\":2976:2979   */\n  dup3\n    /* \"#utility.yul\":2972:2986   */\n  add\n    /* \"#utility.yul\":2957:2986   */\n  swap1\n  pop\n    /* \"#utility.yul\":2823:2992   */\n  swap3\n  swap2\n  pop\n  pop\n  jump\t// out\n    /* \"#utility.yul\":2998:3168   */\ntag_46:\n    /* \"#utility.yul\":3138:3160   */\n  0x43726f776473616c653a20726174652069732030000000000000000000000000\n    /* \"#utility.yul\":3134:3135   */\n  0x00\n    /* \"#utility.yul\":3126:3132   */\n  dup3\n    /* \"#utility.yul\":3122:3136   */\n  add\n    /* \"#utility.yul\":3115:3161   */\n  mstore\n    /* \"#utility.yul\":2998:3168   */\n  pop\n  jump\t// out\n    /* \"#utility.yul\":3174:3540   */\ntag_47:\n    /* \"#utility.yul\":3316:3319   */\n  0x00\n    /* \"#utility.yul\":3337:3404   */\n  tag_94\n    /* \"#utility.yul\":3401:3403   */\n  0x14\n    /* \"#utility.yul\":3396:3399   */\n  dup4\n    /* \"#utility.yul\":3337:3404   */\n  tag_45\n  jump\t// in\ntag_94:\n    /* \"#utility.yul\":3330:3404   */\n  swap2\n  pop\n    /* \"#utility.yul\":3413:3506   */\n  tag_95\n    /* \"#utility.yul\":3502:3505   */\n  dup3\n    /* \"#utility.yul\":3413:3506   */\n  tag_46\n  jump\t// in\ntag_95:\n    /* \"#utility.yul\":3531:3533   */\n  0x20\n    /* \"#utility.yul\":3526:3529   */\n  dup3\n    /* \"#utility.yul\":3522:3534   */\n  add\n    /* \"#utility.yul\":3515:3534   */\n  swap1\n  pop\n    /* \"#utility.yul\":3174:3540   */\n  swap2\n  swap1\n  pop\n  jump\t// out\n    /* \"#utility.yul\":3546:3965   */\ntag_12:\n    /* \"#utility.yul\":3712:3716   */\n  0x00\n    /* \"#utility.yul\":3750:3752   */\n  0x20\n    /* \"#utility.yul\":3739:3748   */\n  dup3\n    /* \"#utility.yul\":3735:3753   */\n  add\n    /* \"#utility.yul\":3727:3753   */\n  swap1\n  pop\n    /* \"#utility.yul\":3799:3808   */\n  dup2\n    /* \"#utility.yul\":3793:3797   */\n  dup2\n    /* \"#utility.yul\":3789:3809   */\n  sub\n    /* \"#utility.yul\":3785:3786   */\n  0x00\n    /* \"#utility.yul\":3774:3783   */\n  dup4\n    /* \"#utility.yul\":3770:3787   */\n  add\n    /* \"#utility.yul\":3763:3810   */\n  mstore\n    /* \"#utility.yul\":3827:3958   */\n  tag_97\n    /* \"#utility.yul\":3953:3957   */\n  dup2\n    /* \"#utility.yul\":3827:3958   */\n  tag_47\n  jump\t// in\ntag_97:\n    /* \"#utility.yul\":3819:3958   */\n  swap1\n  pop\n    /* \"#utility.yul\":3546:3965   */\n  swap2\n  swap1\n  pop\n  jump\t// out\n    /* \"#utility.yul\":3971:4195   */\ntag_48:\n    /* \"#utility.yul\":4111:4145   */\n  0x43726f776473616c653a2077616c6c657420697320746865207a65726f206164\n    /* \"#utility.yul\":4107:4108   */\n  0x00\n    /* \"#utility.yul\":4099:4105   */\n  dup3\n    /* \"#utility.yul\":4095:4109   */\n  add\n    /* \"#utility.yul\":4088:4146   */\n  mstore\n    /* \"#utility.yul\":4180:4187   */\n  0x6472657373000000000000000000000000000000000000000000000000000000\n    /* \"#utility.yul\":4175:4177   */\n  0x20\n    /* \"#utility.yul\":4167:4173   */\n  dup3\n    /* \"#utility.yul\":4163:4178   */\n  add\n    /* \"#utility.yul\":4156:4188   */\n  mstore\n    /* \"#utility.yul\":3971:4195   */\n  pop\n  jump\t// out\n    /* \"#utility.yul\":4201:4567   */\ntag_49:\n    /* \"#utility.yul\":4343:4346   */\n  0x00\n    /* \"#utility.yul\":4364:4431   */\n  tag_100\n    /* \"#utility.yul\":4428:4430   */\n  0x25\n    /* \"#utility.yul\":4423:4426   */\n  dup4\n    /* \"#utility.yul\":4364:4431   */\n  tag_45\n  jump\t// in\ntag_100:\n    /* \"#utility.yul\":4357:4431   */\n  swap2\n  pop\n    /* \"#utility.yul\":4440:4533   */\n  tag_101\n    /* \"#utility.yul\":4529:4532   */\n  dup3\n    /* \"#utility.yul\":4440:4533   */\n  tag_48\n  jump\t// in\ntag_101:\n    /* \"#utility.yul\":4558:4560   */\n  0x40\n    /* \"#utility.yul\":4553:4556   */\n  dup3\n    /* \"#utility.yul\":4549:4561   */\n  add\n    /* \"#utility.yul\":4542:4561   */\n  swap1\n  pop\n    /* \"#utility.yul\":4201:4567   */\n  swap2\n  swap1\n  pop\n  jump\t// out\n    /* \"#utility.yul\":4573:4992   */\ntag_15:\n    /* \"#utility.yul\":4739:4743   */\n  0x00\n    /* \"#utility.yul\":4777:4779   */\n  0x20\n    /* \"#utility.yul\":4766:4775   */\n  dup3\n    /* \"#utility.yul\":4762:4780   */\n  add\n    /* \"#utility.yul\":4754:4780   */\n  swap1\n  pop\n    /* \"#utility.yul\":4826:4835   */\n  dup2\n    /* \"#utility.yul\":4820:4824   */\n  dup2\n    /* \"#utility.yul\":4816:4836   */\n  sub\n    /* \"#utility.yul\":4812:4813   */\n  0x00\n    /* \"#utility.yul\":4801:4810   */\n  dup4\n    /* \"#utility.yul\":4797:4814   */\n  add\n    /* \"#utility.yul\":4790:4837   */\n  mstore\n    /* \"#utility.yul\":4854:4985   */\n  tag_103\n    /* \"#utility.yul\":4980:4984   */\n  dup2\n    /* \"#utility.yul\":4854:4985   */\n  tag_49\n  jump\t// in\ntag_103:\n    /* \"#utility.yul\":4846:4985   */\n  swap1\n  pop\n    /* \"#utility.yul\":4573:4992   */\n  swap2\n  swap1\n  pop\n  jump\t// out\n    /* \"#utility.yul\":4998:5221   */\ntag_50:\n    /* \"#utility.yul\":5138:5172   */\n  0x43726f776473616c653a20746f6b656e20697320746865207a65726f20616464\n    /* \"#utility.yul\":5134:5135   */\n  0x00\n    /* \"#utility.yul\":5126:5132   */\n  dup3\n    /* \"#utility.yul\":5122:5136   */\n  add\n    /* \"#utility.yul\":5115:5173   */\n  mstore\n    /* \"#utility.yul\":5207:5213   */\n  0x7265737300000000000000000000000000000000000000000000000000000000\n    /* \"#utility.yul\":5202:5204   */\n  0x20\n    /* \"#utility.yul\":5194:5200   */\n  dup3\n    /* \"#utility.yul\":5190:5205   */\n  add\n    /* \"#utility.yul\":5183:5214   */\n  mstore\n    /* \"#utility.yul\":4998:5221   */\n  pop\n  jump\t// out\n    /* \"#utility.yul\":5227:5593   */\ntag_51:\n    /* \"#utility.yul\":5369:5372   */\n  0x00\n    /* \"#utility.yul\":5390:5457   */\n  tag_106\n    /* \"#utility.yul\":5454:5456   */\n  0x24\n    /* \"#utility.yul\":5449:5452   */\n  dup4\n    /* \"#utility.yul\":5390:5457   */\n  tag_45\n  jump\t// in\ntag_106:\n    /* \"#utility.yul\":5383:5457   */\n  swap2\n  pop\n    /* \"#utility.yul\":5466:5559   */\n  tag_107\n    /* \"#utility.yul\":5555:5558   */\n  dup3\n    /* \"#utility.yul\":5466:5559   */\n  tag_50\n  jump\t// in\ntag_107:\n    /* \"#utility.yul\":5584:5586   */\n  0x40\n    /* \"#utility.yul\":5579:5582   */\n  dup3\n    /* \"#utility.yul\":5575:5587   */\n  add\n    /* \"#utility.yul\":5568:5587   */\n  swap1\n  pop\n    /* \"#utility.yul\":5227:5593   */\n  swap2\n  swap1\n  pop\n  jump\t// out\n    /* \"#utility.yul\":5599:6018   */\ntag_18:\n    /* \"#utility.yul\":5765:5769   */\n  0x00\n    /* \"#utility.yul\":5803:5805   */\n  0x20\n    /* \"#utility.yul\":5792:5801   */\n  dup3\n    /* \"#utility.yul\":5788:5806   */\n  add\n    /* \"#utility.yul\":5780:5806   */\n  swap1\n  pop\n    /* \"#utility.yul\":5852:5861   */\n  dup2\n    /* \"#utility.yul\":5846:5850   */\n  dup2\n    /* \"#utility.yul\":5842:5862   */\n  sub\n    /* \"#utility.yul\":5838:5839   */\n  0x00\n    /* \"#utility.yul\":5827:5836   */\n  dup4\n    /* \"#utility.yul\":5823:5840   */\n  add\n    /* \"#utility.yul\":5816:5863   */\n  mstore\n    /* \"#utility.yul\":5880:6011   */\n  tag_109\n    /* \"#utility.yul\":6006:6010   */\n  dup2\n    /* \"#utility.yul\":5880:6011   */\n  tag_51\n  jump\t// in\ntag_109:\n    /* \"#utility.yul\":5872:6011   */\n  swap1\n  pop\n    /* \"#utility.yul\":5599:6018   */\n  swap2\n  swap1\n  pop\n  jump\t// out\n    /* \"#utility.yul\":6024:6262   */\ntag_52:\n    /* \"#utility.yul\":6164:6198   */\n  0x54696d656443726f776473616c653a206f70656e696e672074696d6520697320\n    /* \"#utility.yul\":6160:6161   */\n  0x00\n    /* \"#utility.yul\":6152:6158   */\n  dup3\n    /* \"#utility.yul\":6148:6162   */\n  add\n    /* \"#utility.yul\":6141:6199   */\n  mstore\n    /* \"#utility.yul\":6233:6254   */\n  0x6265666f72652063757272656e742074696d6500000000000000000000000000\n    /* \"#utility.yul\":6228:6230   */\n  0x20\n    /* \"#utility.yul\":6220:6226   */\n  dup3\n    /* \"#utility.yul\":6216:6231   */\n  add\n    /* \"#utility.yul\":6209:6255   */\n  mstore\n    /* \"#utility.yul\":6024:6262   */\n  pop\n  jump\t// out\n    /* \"#utility.yul\":6268:6634   */\ntag_53:\n    /* \"#utility.yul\":6410:6413   */\n  0x00\n    /* \"#utility.yul\":6431:6498   */\n  tag_112\n    /* \"#utility.yul\":6495:6497   */\n  0x33\n    /* \"#utility.yul\":6490:6493   */\n  dup4\n    /* \"#utility.yul\":6431:6498   */\n  tag_45\n  jump\t// in\ntag_112:\n    /* \"#utility.yul\":6424:6498   */\n  swap2\n  pop\n    /* \"#utility.yul\":6507:6600   */\n  tag_113\n    /* \"#utility.yul\":6596:6599   */\n  dup3\n    /* \"#utility.yul\":6507:6600   */\n  tag_52\n  jump\t// in\ntag_113:\n    /* \"#utility.yul\":6625:6627   */\n  0x40\n    /* \"#utility.yul\":6620:6623   */\n  dup3\n    /* \"#utility.yul\":6616:6628   */\n  add\n    /* \"#utility.yul\":6609:6628   */\n  swap1\n  pop\n    /* \"#utility.yul\":6268:6634   */\n  swap2\n  swap1\n  pop\n  jump\t// out\n    /* \"#utility.yul\":6640:7059   */\ntag_22:\n    /* \"#utility.yul\":6806:6810   */\n  0x00\n    /* \"#utility.yul\":6844:6846   */\n  0x20\n    /* \"#utility.yul\":6833:6842   */\n  dup3\n    /* \"#utility.yul\":6829:6847   */\n  add\n    /* \"#utility.yul\":6821:6847   */\n  swap1\n  pop\n    /* \"#utility.yul\":6893:6902   */\n  dup2\n    /* \"#utility.yul\":6887:6891   */\n  dup2\n    /* \"#utility.yul\":6883:6903   */\n  sub\n    /* \"#utility.yul\":6879:6880   */\n  0x00\n    /* \"#utility.yul\":6868:6877   */\n  dup4\n    /* \"#utility.yul\":6864:6881   */\n  add\n    /* \"#utility.yul\":6857:6904   */\n  mstore\n    /* \"#utility.yul\":6921:7052   */\n  tag_115\n    /* \"#utility.yul\":7047:7051   */\n  dup2\n    /* \"#utility.yul\":6921:7052   */\n  tag_53\n  jump\t// in\ntag_115:\n    /* \"#utility.yul\":6913:7052   */\n  swap1\n  pop\n    /* \"#utility.yul\":6640:7059   */\n  swap2\n  swap1\n  pop\n  jump\t// out\n    /* \"#utility.yul\":7065:7307   */\ntag_54:\n    /* \"#utility.yul\":7205:7239   */\n  0x54696d656443726f776473616c653a206f70656e696e672074696d6520697320\n    /* \"#utility.yul\":7201:7202   */\n  0x00\n    /* \"#utility.yul\":7193:7199   */\n  dup3\n    /* \"#utility.yul\":7189:7203   */\n  add\n    /* \"#utility.yul\":7182:7240   */\n  mstore\n    /* \"#utility.yul\":7274:7299   */\n  0x6e6f74206265666f726520636c6f73696e672074696d65000000000000000000\n    /* \"#utility.yul\":7269:7271   */\n  0x20\n    /* \"#utility.yul\":7261:7267   */\n  dup3\n    /* \"#utility.yul\":7257:7272   */\n  add\n    /* \"#utility.yul\":7250:7300   */\n  mstore\n    /* \"#utility.yul\":7065:7307   */\n  pop\n  jump\t// out\n    /* \"#utility.yul\":7313:7679   */\ntag_55:\n    /* \"#utility.yul\":7455:7458   */\n  0x00\n    /* \"#utility.yul\":7476:7543   */\n  tag_118\n    /* \"#utility.yul\":7540:7542   */\n  0x37\n    /* \"#utility.yul\":7535:7538   */\n  dup4\n    /* \"#utility.yul\":7476:7543   */\n  tag_45\n  jump\t// in\ntag_118:\n    /* \"#utility.yul\":7469:7543   */\n  swap2\n  pop\n    /* \"#utility.yul\":7552:7645   */\n  tag_119\n    /* \"#utility.yul\":7641:7644   */\n  dup3\n    /* \"#utility.yul\":7552:7645   */\n  tag_54\n  jump\t// in\ntag_119:\n    /* \"#utility.yul\":7670:7672   */\n  0x40\n    /* \"#utility.yul\":7665:7668   */\n  dup3\n    /* \"#utility.yul\":7661:7673   */\n  add\n    /* \"#utility.yul\":7654:7673   */\n  swap1\n  pop\n    /* \"#utility.yul\":7313:7679   */\n  swap2\n  swap1\n  pop\n  jump\t// out\n    /* \"#utility.yul\":7685:8104   */\ntag_25:\n    /* \"#utility.yul\":7851:7855   */\n  0x00\n    /* \"#utility.yul\":7889:7891   */\n  0x20\n    /* \"#utility.yul\":7878:7887   */\n  dup3\n    /* \"#utility.yul\":7874:7892   */\n  add\n    /* \"#utility.yul\":7866:7892   */\n  swap1\n  pop\n    /* \"#utility.yul\":7938:7947   */\n  dup2\n    /* \"#utility.yul\":7932:7936   */\n  dup2\n    /* \"#utility.yul\":7928:7948   */\n  sub\n    /* \"#utility.yul\":7924:7925   */\n  0x00\n    /* \"#utility.yul\":7913:7922   */\n  dup4\n    /* \"#utility.yul\":7909:7926   */\n  add\n    /* \"#utility.yul\":7902:7949   */\n  mstore\n    /* \"#utility.yul\":7966:8097   */\n  tag_121\n    /* \"#utility.yul\":8092:8096   */\n  dup2\n    /* \"#utility.yul\":7966:8097   */\n  tag_55\n  jump\t// in\ntag_121:\n    /* \"#utility.yul\":7958:8097   */\n  swap1\n  pop\n    /* \"#utility.yul\":7685:8104   */\n  swap2\n  swap1\n  pop\n  jump\t// out\n    /* \"crowdsale/distribution/postDeliveryCrowdsale.sol\":378:2145  contract PostDeliveryCrowdsale is TimedCrowdsale {... */\ntag_30:\n  dataSize(sub_0)\n  dup1\n  dataOffset(sub_0)\n  0x00\n  codecopy\n  0x00\n  return\nstop\n\nsub_0: assembly {\n        /* \"crowdsale/distribution/postDeliveryCrowdsale.sol\":378:2145  contract PostDeliveryCrowdsale is TimedCrowdsale {... */\n      mstore(0x40, 0x80)\n      jumpi(tag_1, lt(calldatasize, 0x04))\n      shr(0xe0, calldataload(0x00))\n      dup1\n      0x4b6753bc\n      gt\n      tag_14\n      jumpi\n      dup1\n      0x4b6753bc\n      eq\n      tag_8\n      jumpi\n      dup1\n      0x521eb273\n      eq\n      tag_9\n      jumpi\n      dup1\n      0x70a08231\n      eq\n      tag_10\n      jumpi\n      dup1\n      0xb7a8807c\n      eq\n      tag_11\n      jumpi\n      dup1\n      0xec8ac4d8\n      eq\n      tag_12\n      jumpi\n      dup1\n      0xfc0c546a\n      eq\n      tag_13\n      jumpi\n      jump(tag_2)\n    tag_14:\n      dup1\n      0x1515bc2b\n      eq\n      tag_3\n      jumpi\n      dup1\n      0x2c4e722e\n      eq\n      tag_4\n      jumpi\n      dup1\n      0x4042b66f\n      eq\n      tag_5\n      jumpi\n      dup1\n      0x47535d7b\n      eq\n      tag_6\n      jumpi\n      dup1\n      0x49df728c\n      eq\n      tag_7\n      jumpi\n      jump(tag_2)\n    tag_1:\n      jumpi(tag_2, calldatasize)\n        /* \"crowdsale/crowdsale.sol\":3351:3374  buyTokens(_msgSender()) */\n      tag_17\n        /* \"crowdsale/crowdsale.sol\":3361:3373  _msgSender() */\n      tag_18\n        /* \"crowdsale/crowdsale.sol\":3361:3371  _msgSender */\n      tag_19\n        /* \"crowdsale/crowdsale.sol\":3361:3373  _msgSender() */\n      jump\t// in\n    tag_18:\n        /* \"crowdsale/crowdsale.sol\":3351:3360  buyTokens */\n      tag_20\n        /* \"crowdsale/crowdsale.sol\":3351:3374  buyTokens(_msgSender()) */\n      jump\t// in\n    tag_17:\n        /* \"crowdsale/distribution/postDeliveryCrowdsale.sol\":378:2145  contract PostDeliveryCrowdsale is TimedCrowdsale {... */\n      stop\n    tag_2:\n        /* \"crowdsale/crowdsale.sol\":3270:3293  buyTokens(_msgSender()) */\n      tag_23\n        /* \"crowdsale/crowdsale.sol\":3280:3292  _msgSender() */\n      tag_24\n        /* \"crowdsale/crowdsale.sol\":3280:3290  _msgSender */\n      tag_19\n        /* \"crowdsale/crowdsale.sol\":3280:3292  _msgSender() */\n      jump\t// in\n    tag_24:\n        /* \"crowdsale/crowdsale.sol\":3270:3279  buyTokens */\n      tag_20\n        /* \"crowdsale/crowdsale.sol\":3270:3293  buyTokens(_msgSender()) */\n      jump\t// in\n    tag_23:\n        /* \"crowdsale/distribution/postDeliveryCrowdsale.sol\":378:2145  contract PostDeliveryCrowdsale is TimedCrowdsale {... */\n      stop\n        /* \"crowdsale/validation/timedCrowdsale.sol\":2417:2576  function hasClosed() public view returns (bool) {... */\n    tag_3:\n      callvalue\n      dup1\n      iszero\n      tag_25\n      jumpi\n      0x00\n      dup1\n      revert\n    tag_25:\n      pop\n      tag_26\n      tag_27\n      jump\t// in\n    tag_26:\n      mload(0x40)\n      tag_28\n      swap2\n      swap1\n      tag_29\n      jump\t// in\n    tag_28:\n      mload(0x40)\n      dup1\n      swap2\n      sub\n      swap1\n      return\n        /* \"crowdsale/crowdsale.sol\":3784:3869  function rate() public virtual view returns (uint256) {... */\n    tag_4:\n      callvalue\n      dup1\n      iszero\n      tag_30\n      jumpi\n      0x00\n      dup1\n      revert\n    tag_30:\n      pop\n      tag_31\n      tag_32\n      jump\t// in\n    tag_31:\n      mload(0x40)\n      tag_33\n      swap2\n      swap1\n      tag_34\n      jump\t// in\n    tag_33:\n      mload(0x40)\n      dup1\n      swap2\n      sub\n      swap1\n      return\n        /* \"crowdsale/crowdsale.sol\":3937:4024  function weiRaised() public view returns (uint256) {... */\n    tag_5:\n      callvalue\n      dup1\n      iszero\n      tag_35\n      jumpi\n      0x00\n      dup1\n      revert\n    tag_35:\n      pop\n      tag_36\n      tag_37\n      jump\t// in\n    tag_36:\n      mload(0x40)\n      tag_38\n      swap2\n      swap1\n      tag_34\n      jump\t// in\n    tag_38:\n      mload(0x40)\n      dup1\n      swap2\n      sub\n      swap1\n      return\n        /* \"crowdsale/validation/timedCrowdsale.sol\":2055:2247  function isOpen() public view returns (bool) {... */\n    tag_6:\n      callvalue\n      dup1\n      iszero\n      tag_39\n      jumpi\n      0x00\n      dup1\n      revert\n    tag_39:\n      pop\n      tag_40\n      tag_41\n      jump\t// in\n    tag_40:\n      mload(0x40)\n      tag_42\n      swap2\n      swap1\n      tag_29\n      jump\t// in\n    tag_42:\n      mload(0x40)\n      dup1\n      swap2\n      sub\n      swap1\n      return\n        /* \"crowdsale/distribution/postDeliveryCrowdsale.sol\":961:1332  function withdrawTokens(address beneficiary) public virtual {... */\n    tag_7:\n      callvalue\n      dup1\n      iszero\n      tag_43\n      jumpi\n      0x00\n      dup1\n      revert\n    tag_43:\n      pop\n      tag_44\n      0x04\n      dup1\n      calldatasize\n      sub\n      dup2\n      add\n      swap1\n      tag_45\n      swap2\n      swap1\n      tag_46\n      jump\t// in\n    tag_45:\n      tag_47\n      jump\t// in\n    tag_44:\n      stop\n        /* \"crowdsale/validation/timedCrowdsale.sol\":1874:1965  function closingTime() public view returns (uint256) {... */\n    tag_8:\n      callvalue\n      dup1\n      iszero\n      tag_48\n      jumpi\n      0x00\n      dup1\n      revert\n    tag_48:\n      pop\n      tag_49\n      tag_50\n      jump\t// in\n    tag_49:\n      mload(0x40)\n      tag_51\n      swap2\n      swap1\n      tag_34\n      jump\t// in\n    tag_51:\n      mload(0x40)\n      dup1\n      swap2\n      sub\n      swap1\n      return\n        /* \"crowdsale/crowdsale.sol\":3605:3694  function wallet() public view returns (address payable) {... */\n    tag_9:\n      callvalue\n      dup1\n      iszero\n      tag_52\n      jumpi\n      0x00\n      dup1\n      revert\n    tag_52:\n      pop\n      tag_53\n      tag_54\n      jump\t// in\n    tag_53:\n      mload(0x40)\n      tag_55\n      swap2\n      swap1\n      tag_56\n      jump\t// in\n    tag_55:\n      mload(0x40)\n      dup1\n      swap2\n      sub\n      swap1\n      return\n        /* \"crowdsale/distribution/postDeliveryCrowdsale.sol\":1401:1511  function balanceOf(address account) public view returns (uint256) {... */\n    tag_10:\n      callvalue\n      dup1\n      iszero\n      tag_57\n      jumpi\n      0x00\n      dup1\n      revert\n    tag_57:\n      pop\n      tag_58\n      0x04\n      dup1\n      calldatasize\n      sub\n      dup2\n      add\n      swap1\n      tag_59\n      swap2\n      swap1\n      tag_46\n      jump\t// in\n    tag_59:\n      tag_60\n      jump\t// in\n    tag_58:\n      mload(0x40)\n      tag_61\n      swap2\n      swap1\n      tag_34\n      jump\t// in\n    tag_61:\n      mload(0x40)\n      dup1\n      swap2\n      sub\n      swap1\n      return\n        /* \"crowdsale/validation/timedCrowdsale.sol\":1713:1804  function openingTime() public view returns (uint256) {... */\n    tag_11:\n      callvalue\n      dup1\n      iszero\n      tag_62\n      jumpi\n      0x00\n      dup1\n      revert\n    tag_62:\n      pop\n      tag_63\n      tag_64\n      jump\t// in\n    tag_63:\n      mload(0x40)\n      tag_65\n      swap2\n      swap1\n      tag_34\n      jump\t// in\n    tag_65:\n      mload(0x40)\n      dup1\n      swap2\n      sub\n      swap1\n      return\n        /* \"crowdsale/crowdsale.sol\":4289:4911  function buyTokens(address beneficiary) public nonReentrant payable {... */\n    tag_12:\n      tag_66\n      0x04\n      dup1\n      calldatasize\n      sub\n      dup2\n      add\n      swap1\n      tag_67\n      swap2\n      swap1\n      tag_46\n      jump\t// in\n    tag_67:\n      tag_20\n      jump\t// in\n    tag_66:\n      stop\n        /* \"crowdsale/crowdsale.sol\":3446:3524  function token() public view returns (IERC20) {... */\n    tag_13:\n      callvalue\n      dup1\n      iszero\n      tag_68\n      jumpi\n      0x00\n      dup1\n      revert\n    tag_68:\n      pop\n      tag_69\n      tag_70\n      jump\t// in\n    tag_69:\n      mload(0x40)\n      tag_71\n      swap2\n      swap1\n      tag_72\n      jump\t// in\n    tag_71:\n      mload(0x40)\n      dup1\n      swap2\n      sub\n      swap1\n      return\n        /* \"@openzeppelin/contracts/utils/Context.sol\":656:752  function _msgSender() internal view virtual returns (address) {... */\n    tag_19:\n        /* \"@openzeppelin/contracts/utils/Context.sol\":709:716  address */\n      0x00\n        /* \"@openzeppelin/contracts/utils/Context.sol\":735:745  msg.sender */\n      caller\n        /* \"@openzeppelin/contracts/utils/Context.sol\":728:745  return msg.sender */\n      swap1\n      pop\n        /* \"@openzeppelin/contracts/utils/Context.sol\":656:752  function _msgSender() internal view virtual returns (address) {... */\n      swap1\n      jump\t// out\n        /* \"crowdsale/crowdsale.sol\":4289:4911  function buyTokens(address beneficiary) public nonReentrant payable {... */\n    tag_20:\n        /* \"@openzeppelin/contracts/security/ReentrancyGuard.sol\":2261:2282  _nonReentrantBefore() */\n      tag_75\n        /* \"@openzeppelin/contracts/security/ReentrancyGuard.sol\":2261:2280  _nonReentrantBefore */\n      tag_76\n        /* \"@openzeppelin/contracts/security/ReentrancyGuard.sol\":2261:2282  _nonReentrantBefore() */\n      jump\t// in\n    tag_75:\n        /* \"crowdsale/crowdsale.sol\":4368:4385  uint256 weiAmount */\n      0x00\n        /* \"crowdsale/crowdsale.sol\":4388:4397  msg.value */\n      callvalue\n        /* \"crowdsale/crowdsale.sol\":4368:4397  uint256 weiAmount = msg.value */\n      swap1\n      pop\n        /* \"crowdsale/crowdsale.sol\":4408:4452  _preValidatePurchase(beneficiary, weiAmount) */\n      tag_78\n        /* \"crowdsale/crowdsale.sol\":4429:4440  beneficiary */\n      dup3\n        /* \"crowdsale/crowdsale.sol\":4442:4451  weiAmount */\n      dup3\n        /* \"crowdsale/crowdsale.sol\":4408:4428  _preValidatePurchase */\n      tag_79\n        /* \"crowdsale/crowdsale.sol\":4408:4452  _preValidatePurchase(beneficiary, weiAmount) */\n      jump\t// in\n    tag_78:\n        /* \"crowdsale/crowdsale.sol\":4514:4528  uint256 tokens */\n      0x00\n        /* \"crowdsale/crowdsale.sol\":4531:4557  _getTokenAmount(weiAmount) */\n      tag_80\n        /* \"crowdsale/crowdsale.sol\":4547:4556  weiAmount */\n      dup3\n        /* \"crowdsale/crowdsale.sol\":4531:4546  _getTokenAmount */\n      tag_81\n        /* \"crowdsale/crowdsale.sol\":4531:4557  _getTokenAmount(weiAmount) */\n      jump\t// in\n    tag_80:\n        /* \"crowdsale/crowdsale.sol\":4514:4557  uint256 tokens = _getTokenAmount(weiAmount) */\n      swap1\n      pop\n        /* \"crowdsale/crowdsale.sol\":4608:4633  _weiRaised.add(weiAmount) */\n      tag_82\n        /* \"crowdsale/crowdsale.sol\":4623:4632  weiAmount */\n      dup3\n        /* \"crowdsale/crowdsale.sol\":4608:4618  _weiRaised */\n      sload(0x04)\n        /* \"crowdsale/crowdsale.sol\":4608:4622  _weiRaised.add */\n      tag_83\n      swap1\n        /* \"crowdsale/crowdsale.sol\":4608:4633  _weiRaised.add(weiAmount) */\n      swap2\n      swap1\n      0xffffffff\n      and\n      jump\t// in\n    tag_82:\n        /* \"crowdsale/crowdsale.sol\":4595:4605  _weiRaised */\n      0x04\n        /* \"crowdsale/crowdsale.sol\":4595:4633  _weiRaised = _weiRaised.add(weiAmount) */\n      dup2\n      swap1\n      sstore\n      pop\n        /* \"crowdsale/crowdsale.sol\":4646:4683  _processPurchase(beneficiary, tokens) */\n      tag_84\n        /* \"crowdsale/crowdsale.sol\":4663:4674  beneficiary */\n      dup4\n        /* \"crowdsale/crowdsale.sol\":4676:4682  tokens */\n      dup3\n        /* \"crowdsale/crowdsale.sol\":4646:4662  _processPurchase */\n      tag_85\n        /* \"crowdsale/crowdsale.sol\":4646:4683  _processPurchase(beneficiary, tokens) */\n      jump\t// in\n    tag_84:\n        /* \"crowdsale/crowdsale.sol\":4729:4740  beneficiary */\n      dup3\n        /* \"crowdsale/crowdsale.sol\":4699:4760  TokensPurchased(_msgSender(), beneficiary, weiAmount, tokens) */\n      0xffffffffffffffffffffffffffffffffffffffff\n      and\n        /* \"crowdsale/crowdsale.sol\":4715:4727  _msgSender() */\n      tag_86\n        /* \"crowdsale/crowdsale.sol\":4715:4725  _msgSender */\n      tag_19\n        /* \"crowdsale/crowdsale.sol\":4715:4727  _msgSender() */\n      jump\t// in\n    tag_86:\n        /* \"crowdsale/crowdsale.sol\":4699:4760  TokensPurchased(_msgSender(), beneficiary, weiAmount, tokens) */\n      0xffffffffffffffffffffffffffffffffffffffff\n      and\n      0x6faf93231a456e552dbc9961f58d9713ee4f2e69d15f1975b050ef0911053a7b\n        /* \"crowdsale/crowdsale.sol\":4742:4751  weiAmount */\n      dup5\n        /* \"crowdsale/crowdsale.sol\":4753:4759  tokens */\n      dup5\n        /* \"crowdsale/crowdsale.sol\":4699:4760  TokensPurchased(_msgSender(), beneficiary, weiAmount, tokens) */\n      mload(0x40)\n      tag_87\n      swap3\n      swap2\n      swap1\n      tag_88\n      jump\t// in\n    tag_87:\n      mload(0x40)\n      dup1\n      swap2\n      sub\n      swap1\n      log3\n        /* \"crowdsale/crowdsale.sol\":4773:4819  _updatePurchasingState(beneficiary, weiAmount) */\n      tag_89\n        /* \"crowdsale/crowdsale.sol\":4796:4807  beneficiary */\n      dup4\n        /* \"crowdsale/crowdsale.sol\":4809:4818  weiAmount */\n      dup4\n        /* \"crowdsale/crowdsale.sol\":4773:4795  _updatePurchasingState */\n      tag_90\n        /* \"crowdsale/crowdsale.sol\":4773:4819  _updatePurchasingState(beneficiary, weiAmount) */\n      jump\t// in\n    tag_89:\n        /* \"crowdsale/crowdsale.sol\":4832:4847  _forwardFunds() */\n      tag_91\n        /* \"crowdsale/crowdsale.sol\":4832:4845  _forwardFunds */\n      tag_92\n        /* \"crowdsale/crowdsale.sol\":4832:4847  _forwardFunds() */\n      jump\t// in\n    tag_91:\n        /* \"crowdsale/crowdsale.sol\":4858:4903  _postValidatePurchase(beneficiary, weiAmount) */\n      tag_93\n        /* \"crowdsale/crowdsale.sol\":4880:4891  beneficiary */\n      dup4\n        /* \"crowdsale/crowdsale.sol\":4893:4902  weiAmount */\n      dup4\n        /* \"crowdsale/crowdsale.sol\":4858:4879  _postValidatePurchase */\n      tag_94\n        /* \"crowdsale/crowdsale.sol\":4858:4903  _postValidatePurchase(beneficiary, weiAmount) */\n      jump\t// in\n    tag_93:\n        /* \"crowdsale/crowdsale.sol\":4357:4911  {... */\n      pop\n      pop\n        /* \"@openzeppelin/contracts/security/ReentrancyGuard.sol\":2303:2323  _nonReentrantAfter() */\n      tag_95\n        /* \"@openzeppelin/contracts/security/ReentrancyGuard.sol\":2303:2321  _nonReentrantAfter */\n      tag_96\n        /* \"@openzeppelin/contracts/security/ReentrancyGuard.sol\":2303:2323  _nonReentrantAfter() */\n      jump\t// in\n    tag_95:\n        /* \"crowdsale/crowdsale.sol\":4289:4911  function buyTokens(address beneficiary) public nonReentrant payable {... */\n      pop\n      jump\t// out\n        /* \"crowdsale/validation/timedCrowdsale.sol\":2417:2576  function hasClosed() public view returns (bool) {... */\n    tag_27:\n        /* \"crowdsale/validation/timedCrowdsale.sol\":2459:2463  bool */\n      0x00\n        /* \"crowdsale/validation/timedCrowdsale.sol\":2556:2568  _closingTime */\n      sload(0x06)\n        /* \"crowdsale/validation/timedCrowdsale.sol\":2538:2553  block.timestamp */\n      timestamp\n        /* \"crowdsale/validation/timedCrowdsale.sol\":2538:2568  block.timestamp > _closingTime */\n      gt\n        /* \"crowdsale/validation/timedCrowdsale.sol\":2531:2568  return block.timestamp > _closingTime */\n      swap1\n      pop\n        /* \"crowdsale/validation/timedCrowdsale.sol\":2417:2576  function hasClosed() public view returns (bool) {... */\n      swap1\n      jump\t// out\n        /* \"crowdsale/crowdsale.sol\":3784:3869  function rate() public virtual view returns (uint256) {... */\n    tag_32:\n        /* \"crowdsale/crowdsale.sol\":3829:3836  uint256 */\n      0x00\n        /* \"crowdsale/crowdsale.sol\":3856:3861  _rate */\n      sload(0x03)\n        /* \"crowdsale/crowdsale.sol\":3849:3861  return _rate */\n      swap1\n      pop\n        /* \"crowdsale/crowdsale.sol\":3784:3869  function rate() public virtual view returns (uint256) {... */\n      swap1\n      jump\t// out\n        /* \"crowdsale/crowdsale.sol\":3937:4024  function weiRaised() public view returns (uint256) {... */\n    tag_37:\n        /* \"crowdsale/crowdsale.sol\":3979:3986  uint256 */\n      0x00\n        /* \"crowdsale/crowdsale.sol\":4006:4016  _weiRaised */\n      sload(0x04)\n        /* \"crowdsale/crowdsale.sol\":3999:4016  return _weiRaised */\n      swap1\n      pop\n        /* \"crowdsale/crowdsale.sol\":3937:4024  function weiRaised() public view returns (uint256) {... */\n      swap1\n      jump\t// out\n        /* \"crowdsale/validation/timedCrowdsale.sol\":2055:2247  function isOpen() public view returns (bool) {... */\n    tag_41:\n        /* \"crowdsale/validation/timedCrowdsale.sol\":2094:2098  bool */\n      0x00\n        /* \"crowdsale/validation/timedCrowdsale.sol\":2192:2204  _openingTime */\n      sload(0x05)\n        /* \"crowdsale/validation/timedCrowdsale.sol\":2173:2188  block.timestamp */\n      timestamp\n        /* \"crowdsale/validation/timedCrowdsale.sol\":2173:2204  block.timestamp >= _openingTime */\n      lt\n      iszero\n        /* \"crowdsale/validation/timedCrowdsale.sol\":2173:2239  block.timestamp >= _openingTime && block.timestamp <= _closingTime */\n      dup1\n      iszero\n      tag_101\n      jumpi\n      pop\n        /* \"crowdsale/validation/timedCrowdsale.sol\":2227:2239  _closingTime */\n      sload(0x06)\n        /* \"crowdsale/validation/timedCrowdsale.sol\":2208:2223  block.timestamp */\n      timestamp\n        /* \"crowdsale/validation/timedCrowdsale.sol\":2208:2239  block.timestamp <= _closingTime */\n      gt\n      iszero\n        /* \"crowdsale/validation/timedCrowdsale.sol\":2173:2239  block.timestamp >= _openingTime && block.timestamp <= _closingTime */\n    tag_101:\n        /* \"crowdsale/validation/timedCrowdsale.sol\":2166:2239  return block.timestamp >= _openingTime && block.timestamp <= _closingTime */\n      swap1\n      pop\n        /* \"crowdsale/validation/timedCrowdsale.sol\":2055:2247  function isOpen() public view returns (bool) {... */\n      swap1\n      jump\t// out\n        /* \"crowdsale/distribution/postDeliveryCrowdsale.sol\":961:1332  function withdrawTokens(address beneficiary) public virtual {... */\n    tag_47:\n        /* \"crowdsale/distribution/postDeliveryCrowdsale.sol\":1040:1051  hasClosed() */\n      tag_103\n        /* \"crowdsale/distribution/postDeliveryCrowdsale.sol\":1040:1049  hasClosed */\n      tag_27\n        /* \"crowdsale/distribution/postDeliveryCrowdsale.sol\":1040:1051  hasClosed() */\n      jump\t// in\n    tag_103:\n        /* \"crowdsale/distribution/postDeliveryCrowdsale.sol\":1032:1089  require(hasClosed(), \"PostDeliveryCrowdsale: not closed\") */\n      tag_104\n      jumpi\n      mload(0x40)\n      0x08c379a000000000000000000000000000000000000000000000000000000000\n      dup2\n      mstore\n      0x04\n      add\n      tag_105\n      swap1\n      tag_106\n      jump\t// in\n    tag_105:\n      mload(0x40)\n      dup1\n      swap2\n      sub\n      swap1\n      revert\n    tag_104:\n        /* \"crowdsale/distribution/postDeliveryCrowdsale.sol\":1100:1114  uint256 amount */\n      0x00\n        /* \"crowdsale/distribution/postDeliveryCrowdsale.sol\":1117:1126  _balances */\n      0x07\n        /* \"crowdsale/distribution/postDeliveryCrowdsale.sol\":1117:1139  _balances[beneficiary] */\n      0x00\n        /* \"crowdsale/distribution/postDeliveryCrowdsale.sol\":1127:1138  beneficiary */\n      dup4\n        /* \"crowdsale/distribution/postDeliveryCrowdsale.sol\":1117:1139  _balances[beneficiary] */\n      0xffffffffffffffffffffffffffffffffffffffff\n      and\n      0xffffffffffffffffffffffffffffffffffffffff\n      and\n      dup2\n      mstore\n      0x20\n      add\n      swap1\n      dup2\n      mstore\n      0x20\n      add\n      0x00\n      keccak256\n      sload\n        /* \"crowdsale/distribution/postDeliveryCrowdsale.sol\":1100:1139  uint256 amount = _balances[beneficiary] */\n      swap1\n      pop\n        /* \"crowdsale/distribution/postDeliveryCrowdsale.sol\":1167:1168  0 */\n      0x00\n        /* \"crowdsale/distribution/postDeliveryCrowdsale.sol\":1158:1164  amount */\n      dup2\n        /* \"crowdsale/distribution/postDeliveryCrowdsale.sol\":1158:1168  amount > 0 */\n      gt\n        /* \"crowdsale/distribution/postDeliveryCrowdsale.sol\":1150:1229  require(amount > 0, \"PostDeliveryCrowdsale: beneficiary is not due any tokens\") */\n      tag_107\n      jumpi\n      mload(0x40)\n      0x08c379a000000000000000000000000000000000000000000000000000000000\n      dup2\n      mstore\n      0x04\n      add\n      tag_108\n      swap1\n      tag_109\n      jump\t// in\n    tag_108:\n      mload(0x40)\n      dup1\n      swap2\n      sub\n      swap1\n      revert\n    tag_107:\n        /* \"crowdsale/distribution/postDeliveryCrowdsale.sol\":1267:1268  0 */\n      0x00\n        /* \"crowdsale/distribution/postDeliveryCrowdsale.sol\":1242:1251  _balances */\n      0x07\n        /* \"crowdsale/distribution/postDeliveryCrowdsale.sol\":1242:1264  _balances[beneficiary] */\n      0x00\n        /* \"crowdsale/distribution/postDeliveryCrowdsale.sol\":1252:1263  beneficiary */\n      dup5\n        /* \"crowdsale/distribution/postDeliveryCrowdsale.sol\":1242:1264  _balances[beneficiary] */\n      0xffffffffffffffffffffffffffffffffffffffff\n      and\n      0xffffffffffffffffffffffffffffffffffffffff\n      and\n      dup2\n      mstore\n      0x20\n      add\n      swap1\n      dup2\n      mstore\n      0x20\n      add\n      0x00\n      keccak256\n        /* \"crowdsale/distribution/postDeliveryCrowdsale.sol\":1242:1268  _balances[beneficiary] = 0 */\n      dup2\n      swap1\n      sstore\n      pop\n        /* \"crowdsale/distribution/postDeliveryCrowdsale.sol\":1279:1285  _vault */\n      0x08\n      0x00\n      swap1\n      sload\n      swap1\n      0x0100\n      exp\n      swap1\n      div\n      0xffffffffffffffffffffffffffffffffffffffff\n      and\n        /* \"crowdsale/distribution/postDeliveryCrowdsale.sol\":1279:1294  _vault.transfer */\n      0xffffffffffffffffffffffffffffffffffffffff\n      and\n      0xbeabacc8\n        /* \"crowdsale/distribution/postDeliveryCrowdsale.sol\":1295:1302  token() */\n      tag_110\n        /* \"crowdsale/distribution/postDeliveryCrowdsale.sol\":1295:1300  token */\n      tag_70\n        /* \"crowdsale/distribution/postDeliveryCrowdsale.sol\":1295:1302  token() */\n      jump\t// in\n    tag_110:\n        /* \"crowdsale/distribution/postDeliveryCrowdsale.sol\":1304:1315  beneficiary */\n      dup5\n        /* \"crowdsale/distribution/postDeliveryCrowdsale.sol\":1317:1323  amount */\n      dup5\n        /* \"crowdsale/distribution/postDeliveryCrowdsale.sol\":1279:1324  _vault.transfer(token(), beneficiary, amount) */\n      mload(0x40)\n      dup5\n      0xffffffff\n      and\n      0xe0\n      shl\n      dup2\n      mstore\n      0x04\n      add\n      tag_111\n      swap4\n      swap3\n      swap2\n      swap1\n      tag_112\n      jump\t// in\n    tag_111:\n      0x00\n      mload(0x40)\n      dup1\n      dup4\n      sub\n      dup2\n      0x00\n      dup8\n      dup1\n      extcodesize\n      iszero\n      dup1\n      iszero\n      tag_113\n      jumpi\n      0x00\n      dup1\n      revert\n    tag_113:\n      pop\n      gas\n      call\n      iszero\n      dup1\n      iszero\n      tag_115\n      jumpi\n      returndatasize\n      0x00\n      dup1\n      returndatacopy\n      revert(0x00, returndatasize)\n    tag_115:\n      pop\n      pop\n      pop\n      pop\n        /* \"crowdsale/distribution/postDeliveryCrowdsale.sol\":1021:1332  {... */\n      pop\n        /* \"crowdsale/distribution/postDeliveryCrowdsale.sol\":961:1332  function withdrawTokens(address beneficiary) public virtual {... */\n      pop\n      jump\t// out\n        /* \"crowdsale/validation/timedCrowdsale.sol\":1874:1965  function closingTime() public view returns (uint256) {... */\n    tag_50:\n        /* \"crowdsale/validation/timedCrowdsale.sol\":1918:1925  uint256 */\n      0x00\n        /* \"crowdsale/validation/timedCrowdsale.sol\":1945:1957  _closingTime */\n      sload(0x06)\n        /* \"crowdsale/validation/timedCrowdsale.sol\":1938:1957  return _closingTime */\n      swap1\n      pop\n        /* \"crowdsale/validation/timedCrowdsale.sol\":1874:1965  function closingTime() public view returns (uint256) {... */\n      swap1\n      jump\t// out\n        /* \"crowdsale/crowdsale.sol\":3605:3694  function wallet() public view returns (address payable) {... */\n    tag_54:\n        /* \"crowdsale/crowdsale.sol\":3644:3659  address payable */\n      0x00\n        /* \"crowdsale/crowdsale.sol\":3679:3686  _wallet */\n      0x02\n      0x00\n      swap1\n      sload\n      swap1\n      0x0100\n      exp\n      swap1\n      div\n      0xffffffffffffffffffffffffffffffffffffffff\n      and\n        /* \"crowdsale/crowdsale.sol\":3672:3686  return _wallet */\n      swap1\n      pop\n        /* \"crowdsale/crowdsale.sol\":3605:3694  function wallet() public view returns (address payable) {... */\n      swap1\n      jump\t// out\n        /* \"crowdsale/distribution/postDeliveryCrowdsale.sol\":1401:1511  function balanceOf(address account) public view returns (uint256) {... */\n    tag_60:\n        /* \"crowdsale/distribution/postDeliveryCrowdsale.sol\":1458:1465  uint256 */\n      0x00\n        /* \"crowdsale/distribution/postDeliveryCrowdsale.sol\":1485:1494  _balances */\n      0x07\n        /* \"crowdsale/distribution/postDeliveryCrowdsale.sol\":1485:1503  _balances[account] */\n      0x00\n        /* \"crowdsale/distribution/postDeliveryCrowdsale.sol\":1495:1502  account */\n      dup4\n        /* \"crowdsale/distribution/postDeliveryCrowdsale.sol\":1485:1503  _balances[account] */\n      0xffffffffffffffffffffffffffffffffffffffff\n      and\n      0xffffffffffffffffffffffffffffffffffffffff\n      and\n      dup2\n      mstore\n      0x20\n      add\n      swap1\n      dup2\n      mstore\n      0x20\n      add\n      0x00\n      keccak256\n      sload\n        /* \"crowdsale/distribution/postDeliveryCrowdsale.sol\":1478:1503  return _balances[account] */\n      swap1\n      pop\n        /* \"crowdsale/distribution/postDeliveryCrowdsale.sol\":1401:1511  function balanceOf(address account) public view returns (uint256) {... */\n      swap2\n      swap1\n      pop\n      jump\t// out\n        /* \"crowdsale/validation/timedCrowdsale.sol\":1713:1804  function openingTime() public view returns (uint256) {... */\n    tag_64:\n        /* \"crowdsale/validation/timedCrowdsale.sol\":1757:1764  uint256 */\n      0x00\n        /* \"crowdsale/validation/timedCrowdsale.sol\":1784:1796  _openingTime */\n      sload(0x05)\n        /* \"crowdsale/validation/timedCrowdsale.sol\":1777:1796  return _openingTime */\n      swap1\n      pop\n        /* \"crowdsale/validation/timedCrowdsale.sol\":1713:1804  function openingTime() public view returns (uint256) {... */\n      swap1\n      jump\t// out\n        /* \"crowdsale/crowdsale.sol\":3446:3524  function token() public view returns (IERC20) {... */\n    tag_70:\n        /* \"crowdsale/crowdsale.sol\":3484:3490  IERC20 */\n      0x00\n        /* \"crowdsale/crowdsale.sol\":3510:3516  _token */\n      0x01\n      0x00\n      swap1\n      sload\n      swap1\n      0x0100\n      exp\n      swap1\n      div\n      0xffffffffffffffffffffffffffffffffffffffff\n      and\n        /* \"crowdsale/crowdsale.sol\":3503:3516  return _token */\n      swap1\n      pop\n        /* \"crowdsale/crowdsale.sol\":3446:3524  function token() public view returns (IERC20) {... */\n      swap1\n      jump\t// out\n        /* \"@openzeppelin/contracts/security/ReentrancyGuard.sol\":2336:2623  function _nonReentrantBefore() private {... */\n    tag_76:\n        /* \"@openzeppelin/contracts/security/ReentrancyGuard.sol\":1759:1760  2 */\n      0x02\n        /* \"@openzeppelin/contracts/security/ReentrancyGuard.sol\":2468:2475  _status */\n      sload(0x00)\n        /* \"@openzeppelin/contracts/security/ReentrancyGuard.sol\":2468:2487  _status != _ENTERED */\n      sub\n        /* \"@openzeppelin/contracts/security/ReentrancyGuard.sol\":2460:2523  require(_status != _ENTERED, \"ReentrancyGuard: reentrant call\") */\n      tag_122\n      jumpi\n      mload(0x40)\n      0x08c379a000000000000000000000000000000000000000000000000000000000\n      dup2\n      mstore\n      0x04\n      add\n      tag_123\n      swap1\n      tag_124\n      jump\t// in\n    tag_123:\n      mload(0x40)\n      dup1\n      swap2\n      sub\n      swap1\n      revert\n    tag_122:\n        /* \"@openzeppelin/contracts/security/ReentrancyGuard.sol\":1759:1760  2 */\n      0x02\n        /* \"@openzeppelin/contracts/security/ReentrancyGuard.sol\":2598:2605  _status */\n      0x00\n        /* \"@openzeppelin/contracts/security/ReentrancyGuard.sol\":2598:2616  _status = _ENTERED */\n      dup2\n      swap1\n      sstore\n      pop\n        /* \"@openzeppelin/contracts/security/ReentrancyGuard.sol\":2336:2623  function _nonReentrantBefore() private {... */\n      jump\t// out\n        /* \"crowdsale/validation/timedCrowdsale.sol\":2776:2952  function _preValidatePurchase(address beneficiary, uint256 weiAmount) internal override onlyWhileOpen view {... */\n    tag_79:\n        /* \"crowdsale/validation/timedCrowdsale.sol\":821:829  isOpen() */\n      tag_126\n        /* \"crowdsale/validation/timedCrowdsale.sol\":821:827  isOpen */\n      tag_41\n        /* \"crowdsale/validation/timedCrowdsale.sol\":821:829  isOpen() */\n      jump\t// in\n    tag_126:\n        /* \"crowdsale/validation/timedCrowdsale.sol\":813:858  require(isOpen(), \"TimedCrowdsale: not open\") */\n      tag_127\n      jumpi\n      mload(0x40)\n      0x08c379a000000000000000000000000000000000000000000000000000000000\n      dup2\n      mstore\n      0x04\n      add\n      tag_128\n      swap1\n      tag_129\n      jump\t// in\n    tag_128:\n      mload(0x40)\n      dup1\n      swap2\n      sub\n      swap1\n      revert\n    tag_127:\n        /* \"crowdsale/validation/timedCrowdsale.sol\":2894:2944  super._preValidatePurchase(beneficiary, weiAmount) */\n      tag_131\n        /* \"crowdsale/validation/timedCrowdsale.sol\":2921:2932  beneficiary */\n      dup3\n        /* \"crowdsale/validation/timedCrowdsale.sol\":2934:2943  weiAmount */\n      dup3\n        /* \"crowdsale/validation/timedCrowdsale.sol\":2894:2920  super._preValidatePurchase */\n      tag_132\n        /* \"crowdsale/validation/timedCrowdsale.sol\":2894:2944  super._preValidatePurchase(beneficiary, weiAmount) */\n      jump\t// in\n    tag_131:\n        /* \"crowdsale/validation/timedCrowdsale.sol\":2776:2952  function _preValidatePurchase(address beneficiary, uint256 weiAmount) internal override onlyWhileOpen view {... */\n      pop\n      pop\n      jump\t// out\n        /* \"crowdsale/crowdsale.sol\":7856:7986  function _getTokenAmount(uint256 weiAmount) internal virtual view returns (uint256) {... */\n    tag_81:\n        /* \"crowdsale/crowdsale.sol\":7931:7938  uint256 */\n      0x00\n        /* \"crowdsale/crowdsale.sol\":7958:7978  weiAmount.mul(_rate) */\n      tag_134\n        /* \"crowdsale/crowdsale.sol\":7972:7977  _rate */\n      sload(0x03)\n        /* \"crowdsale/crowdsale.sol\":7958:7967  weiAmount */\n      dup4\n        /* \"crowdsale/crowdsale.sol\":7958:7971  weiAmount.mul */\n      tag_135\n      swap1\n        /* \"crowdsale/crowdsale.sol\":7958:7978  weiAmount.mul(_rate) */\n      swap2\n      swap1\n      0xffffffff\n      and\n      jump\t// in\n    tag_134:\n        /* \"crowdsale/crowdsale.sol\":7951:7978  return weiAmount.mul(_rate) */\n      swap1\n      pop\n        /* \"crowdsale/crowdsale.sol\":7856:7986  function _getTokenAmount(uint256 weiAmount) internal virtual view returns (uint256) {... */\n      swap2\n      swap1\n      pop\n      jump\t// out\n        /* \"@openzeppelin/contracts/utils/math/SafeMath.sol\":2755:2851  function add(uint256 a, uint256 b) internal pure returns (uint256) {... */\n    tag_83:\n        /* \"@openzeppelin/contracts/utils/math/SafeMath.sol\":2813:2820  uint256 */\n      0x00\n        /* \"@openzeppelin/contracts/utils/math/SafeMath.sol\":2843:2844  b */\n      dup2\n        /* \"@openzeppelin/contracts/utils/math/SafeMath.sol\":2839:2840  a */\n      dup4\n        /* \"@openzeppelin/contracts/utils/math/SafeMath.sol\":2839:2844  a + b */\n      tag_137\n      swap2\n      swap1\n      tag_138\n      jump\t// in\n    tag_137:\n        /* \"@openzeppelin/contracts/utils/math/SafeMath.sol\":2832:2844  return a + b */\n      swap1\n      pop\n        /* \"@openzeppelin/contracts/utils/math/SafeMath.sol\":2755:2851  function add(uint256 a, uint256 b) internal pure returns (uint256) {... */\n      swap3\n      swap2\n      pop\n      pop\n      jump\t// out\n        /* \"crowdsale/distribution/postDeliveryCrowdsale.sol\":1909:2142  function _processPurchase(address beneficiary, uint256 tokenAmount) internal virtual override  {... */\n    tag_85:\n        /* \"crowdsale/distribution/postDeliveryCrowdsale.sol\":2040:2079  _balances[beneficiary].add(tokenAmount) */\n      tag_140\n        /* \"crowdsale/distribution/postDeliveryCrowdsale.sol\":2067:2078  tokenAmount */\n      dup2\n        /* \"crowdsale/distribution/postDeliveryCrowdsale.sol\":2040:2049  _balances */\n      0x07\n        /* \"crowdsale/distribution/postDeliveryCrowdsale.sol\":2040:2062  _balances[beneficiary] */\n      0x00\n        /* \"crowdsale/distribution/postDeliveryCrowdsale.sol\":2050:2061  beneficiary */\n      dup6\n        /* \"crowdsale/distribution/postDeliveryCrowdsale.sol\":2040:2062  _balances[beneficiary] */\n      0xffffffffffffffffffffffffffffffffffffffff\n      and\n      0xffffffffffffffffffffffffffffffffffffffff\n      and\n      dup2\n      mstore\n      0x20\n      add\n      swap1\n      dup2\n      mstore\n      0x20\n      add\n      0x00\n      keccak256\n      sload\n        /* \"crowdsale/distribution/postDeliveryCrowdsale.sol\":2040:2066  _balances[beneficiary].add */\n      tag_83\n      swap1\n        /* \"crowdsale/distribution/postDeliveryCrowdsale.sol\":2040:2079  _balances[beneficiary].add(tokenAmount) */\n      swap2\n      swap1\n      0xffffffff\n      and\n      jump\t// in\n    tag_140:\n        /* \"crowdsale/distribution/postDeliveryCrowdsale.sol\":2015:2024  _balances */\n      0x07\n        /* \"crowdsale/distribution/postDeliveryCrowdsale.sol\":2015:2037  _balances[beneficiary] */\n      0x00\n        /* \"crowdsale/distribution/postDeliveryCrowdsale.sol\":2025:2036  beneficiary */\n      dup5\n        /* \"crowdsale/distribution/postDeliveryCrowdsale.sol\":2015:2037  _balances[beneficiary] */\n      0xffffffffffffffffffffffffffffffffffffffff\n      and\n      0xffffffffffffffffffffffffffffffffffffffff\n      and\n      dup2\n      mstore\n      0x20\n      add\n      swap1\n      dup2\n      mstore\n      0x20\n      add\n      0x00\n      keccak256\n        /* \"crowdsale/distribution/postDeliveryCrowdsale.sol\":2015:2079  _balances[beneficiary] = _balances[beneficiary].add(tokenAmount) */\n      dup2\n      swap1\n      sstore\n      pop\n        /* \"crowdsale/distribution/postDeliveryCrowdsale.sol\":2090:2134  _deliverTokens(address(_vault), tokenAmount) */\n      tag_141\n        /* \"crowdsale/distribution/postDeliveryCrowdsale.sol\":2113:2119  _vault */\n      0x08\n      0x00\n      swap1\n      sload\n      swap1\n      0x0100\n      exp\n      swap1\n      div\n      0xffffffffffffffffffffffffffffffffffffffff\n      and\n        /* \"crowdsale/distribution/postDeliveryCrowdsale.sol\":2122:2133  tokenAmount */\n      dup3\n        /* \"crowdsale/distribution/postDeliveryCrowdsale.sol\":2090:2104  _deliverTokens */\n      tag_142\n        /* \"crowdsale/distribution/postDeliveryCrowdsale.sol\":2090:2134  _deliverTokens(address(_vault), tokenAmount) */\n      jump\t// in\n    tag_141:\n        /* \"crowdsale/distribution/postDeliveryCrowdsale.sol\":1909:2142  function _processPurchase(address beneficiary, uint256 tokenAmount) internal virtual override  {... */\n      pop\n      pop\n      jump\t// out\n        /* \"crowdsale/crowdsale.sol\":7445:7600  function _updatePurchasingState(address beneficiary, uint256 weiAmount) internal virtual {... */\n    tag_90:\n      pop\n      pop\n      jump\t// out\n        /* \"crowdsale/crowdsale.sol\":8078:8166  function _forwardFunds() internal virtual {... */\n    tag_92:\n        /* \"crowdsale/crowdsale.sol\":8131:8138  _wallet */\n      0x02\n      0x00\n      swap1\n      sload\n      swap1\n      0x0100\n      exp\n      swap1\n      div\n      0xffffffffffffffffffffffffffffffffffffffff\n      and\n        /* \"crowdsale/crowdsale.sol\":8131:8147  _wallet.transfer */\n      0xffffffffffffffffffffffffffffffffffffffff\n      and\n        /* \"crowdsale/crowdsale.sol\":8131:8158  _wallet.transfer(msg.value) */\n      0x08fc\n        /* \"crowdsale/crowdsale.sol\":8148:8157  msg.value */\n      callvalue\n        /* \"crowdsale/crowdsale.sol\":8131:8158  _wallet.transfer(msg.value) */\n      swap1\n      dup2\n      iszero\n      mul\n      swap1\n      mload(0x40)\n      0x00\n      mload(0x40)\n      dup1\n      dup4\n      sub\n      dup2\n      dup6\n      dup9\n      dup9\n      call\n      swap4\n      pop\n      pop\n      pop\n      pop\n      iszero\n      dup1\n      iszero\n      tag_146\n      jumpi\n      returndatasize\n      0x00\n      dup1\n      returndatacopy\n      revert(0x00, returndatasize)\n    tag_146:\n      pop\n        /* \"crowdsale/crowdsale.sol\":8078:8166  function _forwardFunds() internal virtual {... */\n      jump\t// out\n        /* \"crowdsale/crowdsale.sol\":6155:6314  function _postValidatePurchase(address beneficiary, uint256 weiAmount) internal virtual view {... */\n    tag_94:\n      pop\n      pop\n      jump\t// out\n        /* \"@openzeppelin/contracts/security/ReentrancyGuard.sol\":2629:2838  function _nonReentrantAfter() private {... */\n    tag_96:\n        /* \"@openzeppelin/contracts/security/ReentrancyGuard.sol\":1716:1717  1 */\n      0x01\n        /* \"@openzeppelin/contracts/security/ReentrancyGuard.sol\":2809:2816  _status */\n      0x00\n        /* \"@openzeppelin/contracts/security/ReentrancyGuard.sol\":2809:2831  _status = _NOT_ENTERED */\n      dup2\n      swap1\n      sstore\n      pop\n        /* \"@openzeppelin/contracts/security/ReentrancyGuard.sol\":2629:2838  function _nonReentrantAfter() private {... */\n      jump\t// out\n        /* \"crowdsale/crowdsale.sol\":5464:5852  function _preValidatePurchase(address beneficiary, uint256 weiAmount) internal virtual view {... */\n    tag_132:\n        /* \"crowdsale/crowdsale.sol\":5598:5599  0 */\n      0x00\n        /* \"crowdsale/crowdsale.sol\":5575:5600  beneficiary != address(0) */\n      0xffffffffffffffffffffffffffffffffffffffff\n      and\n        /* \"crowdsale/crowdsale.sol\":5575:5586  beneficiary */\n      dup3\n        /* \"crowdsale/crowdsale.sol\":5575:5600  beneficiary != address(0) */\n      0xffffffffffffffffffffffffffffffffffffffff\n      and\n      sub\n        /* \"crowdsale/crowdsale.sol\":5567:5647  require(beneficiary != address(0), \"Crowdsale: beneficiary is the zero address\") */\n      tag_150\n      jumpi\n      mload(0x40)\n      0x08c379a000000000000000000000000000000000000000000000000000000000\n      dup2\n      mstore\n      0x04\n      add\n      tag_151\n      swap1\n      tag_152\n      jump\t// in\n    tag_151:\n      mload(0x40)\n      dup1\n      swap2\n      sub\n      swap1\n      revert\n    tag_150:\n        /* \"crowdsale/crowdsale.sol\":5679:5680  0 */\n      0x00\n        /* \"crowdsale/crowdsale.sol\":5666:5675  weiAmount */\n      dup2\n        /* \"crowdsale/crowdsale.sol\":5666:5680  weiAmount != 0 */\n      sub\n        /* \"crowdsale/crowdsale.sol\":5658:5710  require(weiAmount != 0, \"Crowdsale: weiAmount is 0\") */\n      tag_153\n      jumpi\n      mload(0x40)\n      0x08c379a000000000000000000000000000000000000000000000000000000000\n      dup2\n      mstore\n      0x04\n      add\n      tag_154\n      swap1\n      tag_155\n      jump\t// in\n    tag_154:\n      mload(0x40)\n      dup1\n      swap2\n      sub\n      swap1\n      revert\n    tag_153:\n        /* \"crowdsale/crowdsale.sol\":5464:5852  function _preValidatePurchase(address beneficiary, uint256 weiAmount) internal virtual view {... */\n      pop\n      pop\n      jump\t// out\n        /* \"@openzeppelin/contracts/utils/math/SafeMath.sol\":3465:3561  function mul(uint256 a, uint256 b) internal pure returns (uint256) {... */\n    tag_135:\n        /* \"@openzeppelin/contracts/utils/math/SafeMath.sol\":3523:3530  uint256 */\n      0x00\n        /* \"@openzeppelin/contracts/utils/math/SafeMath.sol\":3553:3554  b */\n      dup2\n        /* \"@openzeppelin/contracts/utils/math/SafeMath.sol\":3549:3550  a */\n      dup4\n        /* \"@openzeppelin/contracts/utils/math/SafeMath.sol\":3549:3554  a * b */\n      tag_157\n      swap2\n      swap1\n      tag_158\n      jump\t// in\n    tag_157:\n        /* \"@openzeppelin/contracts/utils/math/SafeMath.sol\":3542:3554  return a * b */\n      swap1\n      pop\n        /* \"@openzeppelin/contracts/utils/math/SafeMath.sol\":3465:3561  function mul(uint256 a, uint256 b) internal pure returns (uint256) {... */\n      swap3\n      swap2\n      pop\n      pop\n      jump\t// out\n        /* \"crowdsale/crowdsale.sol\":6602:6749  function _deliverTokens(address beneficiary, uint256 tokenAmount) internal virtual {... */\n    tag_142:\n        /* \"crowdsale/crowdsale.sol\":6696:6741  _token.safeTransfer(beneficiary, tokenAmount) */\n      tag_160\n        /* \"crowdsale/crowdsale.sol\":6716:6727  beneficiary */\n      dup3\n        /* \"crowdsale/crowdsale.sol\":6729:6740  tokenAmount */\n      dup3\n        /* \"crowdsale/crowdsale.sol\":6696:6702  _token */\n      0x01\n      0x00\n      swap1\n      sload\n      swap1\n      0x0100\n      exp\n      swap1\n      div\n      0xffffffffffffffffffffffffffffffffffffffff\n      and\n        /* \"crowdsale/crowdsale.sol\":6696:6715  _token.safeTransfer */\n      0xffffffffffffffffffffffffffffffffffffffff\n      and\n      tag_161\n      swap1\n        /* \"crowdsale/crowdsale.sol\":6696:6741  _token.safeTransfer(beneficiary, tokenAmount) */\n      swap3\n      swap2\n      swap1\n      0xffffffff\n      and\n      jump\t// in\n    tag_160:\n        /* \"crowdsale/crowdsale.sol\":6602:6749  function _deliverTokens(address beneficiary, uint256 tokenAmount) internal virtual {... */\n      pop\n      pop\n      jump\t// out\n        /* \"@openzeppelin/contracts/token/ERC20/utils/SafeERC20.sol\":941:1116  function safeTransfer(IERC20 token, address to, uint256 value) internal {... */\n    tag_161:\n        /* \"@openzeppelin/contracts/token/ERC20/utils/SafeERC20.sol\":1023:1109  _callOptionalReturn(token, abi.encodeWithSelector(token.transfer.selector, to, value)) */\n      tag_163\n        /* \"@openzeppelin/contracts/token/ERC20/utils/SafeERC20.sol\":1043:1048  token */\n      dup4\n        /* \"@openzeppelin/contracts/token/ERC20/utils/SafeERC20.sol\":1073:1096  token.transfer.selector */\n      shl(0xe0, 0xa9059cbb)\n        /* \"@openzeppelin/contracts/token/ERC20/utils/SafeERC20.sol\":1098:1100  to */\n      dup5\n        /* \"@openzeppelin/contracts/token/ERC20/utils/SafeERC20.sol\":1102:1107  value */\n      dup5\n        /* \"@openzeppelin/contracts/token/ERC20/utils/SafeERC20.sol\":1050:1108  abi.encodeWithSelector(token.transfer.selector, to, value) */\n      add(0x24, mload(0x40))\n      tag_164\n      swap3\n      swap2\n      swap1\n      tag_165\n      jump\t// in\n    tag_164:\n      mload(0x40)\n      0x20\n      dup2\n      dup4\n      sub\n      sub\n      dup2\n      mstore\n      swap1\n      0x40\n      mstore\n      swap1\n      not(0xffffffffffffffffffffffffffffffffffffffffffffffffffffffff)\n      and\n      0x20\n      dup3\n      add\n      dup1\n      mload\n      0xffffffffffffffffffffffffffffffffffffffffffffffffffffffff\n      dup4\n      dup2\n      dup4\n      and\n      or\n      dup4\n      mstore\n      pop\n      pop\n      pop\n      pop\n        /* \"@openzeppelin/contracts/token/ERC20/utils/SafeERC20.sol\":1023:1042  _callOptionalReturn */\n      tag_166\n        /* \"@openzeppelin/contracts/token/ERC20/utils/SafeERC20.sol\":1023:1109  _callOptionalReturn(token, abi.encodeWithSelector(token.transfer.selector, to, value)) */\n      jump\t// in\n    tag_163:\n        /* \"@openzeppelin/contracts/token/ERC20/utils/SafeERC20.sol\":941:1116  function safeTransfer(IERC20 token, address to, uint256 value) internal {... */\n      pop\n      pop\n      pop\n      jump\t// out\n        /* \"@openzeppelin/contracts/token/ERC20/utils/SafeERC20.sol\":5196:5838  function _callOptionalReturn(IERC20 token, bytes memory data) private {... */\n    tag_166:\n        /* \"@openzeppelin/contracts/token/ERC20/utils/SafeERC20.sol\":5615:5638  bytes memory returndata */\n      0x00\n        /* \"@openzeppelin/contracts/token/ERC20/utils/SafeERC20.sol\":5641:5710  address(token).functionCall(data, \"SafeERC20: low-level call failed\") */\n      tag_168\n        /* \"@openzeppelin/contracts/token/ERC20/utils/SafeERC20.sol\":5669:5673  data */\n      dup3\n        /* \"@openzeppelin/contracts/token/ERC20/utils/SafeERC20.sol\":5641:5710  address(token).functionCall(data, \"SafeERC20: low-level call failed\") */\n      mload(0x40)\n      dup1\n      0x40\n      add\n      0x40\n      mstore\n      dup1\n      0x20\n      dup2\n      mstore\n      0x20\n      add\n      0x5361666545524332303a206c6f772d6c6576656c2063616c6c206661696c6564\n      dup2\n      mstore\n      pop\n        /* \"@openzeppelin/contracts/token/ERC20/utils/SafeERC20.sol\":5649:5654  token */\n      dup6\n        /* \"@openzeppelin/contracts/token/ERC20/utils/SafeERC20.sol\":5641:5668  address(token).functionCall */\n      0xffffffffffffffffffffffffffffffffffffffff\n      and\n      tag_169\n      swap1\n        /* \"@openzeppelin/contracts/token/ERC20/utils/SafeERC20.sol\":5641:5710  address(token).functionCall(data, \"SafeERC20: low-level call failed\") */\n      swap3\n      swap2\n      swap1\n      0xffffffff\n      and\n      jump\t// in\n    tag_168:\n        /* \"@openzeppelin/contracts/token/ERC20/utils/SafeERC20.sol\":5615:5710  bytes memory returndata = address(token).functionCall(data, \"SafeERC20: low-level call failed\") */\n      swap1\n      pop\n        /* \"@openzeppelin/contracts/token/ERC20/utils/SafeERC20.sol\":5749:5750  0 */\n      0x00\n        /* \"@openzeppelin/contracts/token/ERC20/utils/SafeERC20.sol\":5728:5738  returndata */\n      dup2\n        /* \"@openzeppelin/contracts/token/ERC20/utils/SafeERC20.sol\":5728:5745  returndata.length */\n      mload\n        /* \"@openzeppelin/contracts/token/ERC20/utils/SafeERC20.sol\":5728:5750  returndata.length == 0 */\n      eq\n        /* \"@openzeppelin/contracts/token/ERC20/utils/SafeERC20.sol\":5728:5784  returndata.length == 0 || abi.decode(returndata, (bool)) */\n      dup1\n      tag_170\n      jumpi\n      pop\n        /* \"@openzeppelin/contracts/token/ERC20/utils/SafeERC20.sol\":5765:5775  returndata */\n      dup1\n        /* \"@openzeppelin/contracts/token/ERC20/utils/SafeERC20.sol\":5754:5784  abi.decode(returndata, (bool)) */\n      dup1\n      0x20\n      add\n      swap1\n      mload\n      dup2\n      add\n      swap1\n      tag_171\n      swap2\n      swap1\n      tag_172\n      jump\t// in\n    tag_171:\n        /* \"@openzeppelin/contracts/token/ERC20/utils/SafeERC20.sol\":5728:5784  returndata.length == 0 || abi.decode(returndata, (bool)) */\n    tag_170:\n        /* \"@openzeppelin/contracts/token/ERC20/utils/SafeERC20.sol\":5720:5831  require(returndata.length == 0 || abi.decode(returndata, (bool)), \"SafeERC20: ERC20 operation did not succeed\") */\n      tag_173\n      jumpi\n      mload(0x40)\n      0x08c379a000000000000000000000000000000000000000000000000000000000\n      dup2\n      mstore\n      0x04\n      add\n      tag_174\n      swap1\n      tag_175\n      jump\t// in\n    tag_174:\n      mload(0x40)\n      dup1\n      swap2\n      sub\n      swap1\n      revert\n    tag_173:\n        /* \"@openzeppelin/contracts/token/ERC20/utils/SafeERC20.sol\":5266:5838  {... */\n      pop\n        /* \"@openzeppelin/contracts/token/ERC20/utils/SafeERC20.sol\":5196:5838  function _callOptionalReturn(IERC20 token, bytes memory data) private {... */\n      pop\n      pop\n      jump\t// out\n        /* \"@openzeppelin/contracts/utils/Address.sol\":4108:4331  function functionCall(... */\n    tag_169:\n        /* \"@openzeppelin/contracts/utils/Address.sol\":4241:4253  bytes memory */\n      0x60\n        /* \"@openzeppelin/contracts/utils/Address.sol\":4272:4324  functionCallWithValue(target, data, 0, errorMessage) */\n      tag_177\n        /* \"@openzeppelin/contracts/utils/Address.sol\":4294:4300  target */\n      dup5\n        /* \"@openzeppelin/contracts/utils/Address.sol\":4302:4306  data */\n      dup5\n        /* \"@openzeppelin/contracts/utils/Address.sol\":4308:4309  0 */\n      0x00\n        /* \"@openzeppelin/contracts/utils/Address.sol\":4311:4323  errorMessage */\n      dup6\n        /* \"@openzeppelin/contracts/utils/Address.sol\":4272:4293  functionCallWithValue */\n      tag_178\n        /* \"@openzeppelin/contracts/utils/Address.sol\":4272:4324  functionCallWithValue(target, data, 0, errorMessage) */\n      jump\t// in\n    tag_177:\n        /* \"@openzeppelin/contracts/utils/Address.sol\":4265:4324  return functionCallWithValue(target, data, 0, errorMessage) */\n      swap1\n      pop\n        /* \"@openzeppelin/contracts/utils/Address.sol\":4108:4331  function functionCall(... */\n      swap4\n      swap3\n      pop\n      pop\n      pop\n      jump\t// out\n        /* \"@openzeppelin/contracts/utils/Address.sol\":5165:5611  function functionCallWithValue(... */\n    tag_178:\n        /* \"@openzeppelin/contracts/utils/Address.sol\":5330:5342  bytes memory */\n      0x60\n        /* \"@openzeppelin/contracts/utils/Address.sol\":5387:5392  value */\n      dup3\n        /* \"@openzeppelin/contracts/utils/Address.sol\":5362:5383  address(this).balance */\n      selfbalance\n        /* \"@openzeppelin/contracts/utils/Address.sol\":5362:5392  address(this).balance >= value */\n      lt\n      iszero\n        /* \"@openzeppelin/contracts/utils/Address.sol\":5354:5435  require(address(this).balance >= value, \"Address: insufficient balance for call\") */\n      tag_180\n      jumpi\n      mload(0x40)\n      0x08c379a000000000000000000000000000000000000000000000000000000000\n      dup2\n      mstore\n      0x04\n      add\n      tag_181\n      swap1\n      tag_182\n      jump\t// in\n    tag_181:\n      mload(0x40)\n      dup1\n      swap2\n      sub\n      swap1\n      revert\n    tag_180:\n        /* \"@openzeppelin/contracts/utils/Address.sol\":5446:5458  bool success */\n      0x00\n        /* \"@openzeppelin/contracts/utils/Address.sol\":5460:5483  bytes memory returndata */\n      dup1\n        /* \"@openzeppelin/contracts/utils/Address.sol\":5487:5493  target */\n      dup7\n        /* \"@openzeppelin/contracts/utils/Address.sol\":5487:5498  target.call */\n      0xffffffffffffffffffffffffffffffffffffffff\n      and\n        /* \"@openzeppelin/contracts/utils/Address.sol\":5506:5511  value */\n      dup6\n        /* \"@openzeppelin/contracts/utils/Address.sol\":5513:5517  data */\n      dup8\n        /* \"@openzeppelin/contracts/utils/Address.sol\":5487:5518  target.call{value: value}(data) */\n      mload(0x40)\n      tag_183\n      swap2\n      swap1\n      tag_184\n      jump\t// in\n    tag_183:\n      0x00\n      mload(0x40)\n      dup1\n      dup4\n      sub\n      dup2\n      dup6\n      dup8\n      gas\n      call\n      swap3\n      pop\n      pop\n      pop\n      returndatasize\n      dup1\n      0x00\n      dup2\n      eq\n      tag_187\n      jumpi\n      mload(0x40)\n      swap2\n      pop\n      and(add(returndatasize, 0x3f), not(0x1f))\n      dup3\n      add\n      0x40\n      mstore\n      returndatasize\n      dup3\n      mstore\n      returndatasize\n      0x00\n      0x20\n      dup5\n      add\n      returndatacopy\n      jump(tag_186)\n    tag_187:\n      0x60\n      swap2\n      pop\n    tag_186:\n      pop\n        /* \"@openzeppelin/contracts/utils/Address.sol\":5445:5518  (bool success, bytes memory returndata) = target.call{value: value}(data) */\n      swap2\n      pop\n      swap2\n      pop\n        /* \"@openzeppelin/contracts/utils/Address.sol\":5535:5604  verifyCallResultFromTarget(target, success, returndata, errorMessage) */\n      tag_188\n        /* \"@openzeppelin/contracts/utils/Address.sol\":5562:5568  target */\n      dup8\n        /* \"@openzeppelin/contracts/utils/Address.sol\":5570:5577  success */\n      dup4\n        /* \"@openzeppelin/contracts/utils/Address.sol\":5579:5589  returndata */\n      dup4\n        /* \"@openzeppelin/contracts/utils/Address.sol\":5591:5603  errorMessage */\n      dup8\n        /* \"@openzeppelin/contracts/utils/Address.sol\":5535:5561  verifyCallResultFromTarget */\n      tag_189\n        /* \"@openzeppelin/contracts/utils/Address.sol\":5535:5604  verifyCallResultFromTarget(target, success, returndata, errorMessage) */\n      jump\t// in\n    tag_188:\n        /* \"@openzeppelin/contracts/utils/Address.sol\":5528:5604  return verifyCallResultFromTarget(target, success, returndata, errorMessage) */\n      swap3\n      pop\n      pop\n      pop\n        /* \"@openzeppelin/contracts/utils/Address.sol\":5165:5611  function functionCallWithValue(... */\n      swap5\n      swap4\n      pop\n      pop\n      pop\n      pop\n      jump\t// out\n        /* \"@openzeppelin/contracts/utils/Address.sol\":7671:8299  function verifyCallResultFromTarget(... */\n    tag_189:\n        /* \"@openzeppelin/contracts/utils/Address.sol\":7851:7863  bytes memory */\n      0x60\n        /* \"@openzeppelin/contracts/utils/Address.sol\":7879:7886  success */\n      dup4\n        /* \"@openzeppelin/contracts/utils/Address.sol\":7875:8293  if (success) {... */\n      iszero\n      tag_191\n      jumpi\n        /* \"@openzeppelin/contracts/utils/Address.sol\":7927:7928  0 */\n      0x00\n        /* \"@openzeppelin/contracts/utils/Address.sol\":7906:7916  returndata */\n      dup4\n        /* \"@openzeppelin/contracts/utils/Address.sol\":7906:7923  returndata.length */\n      mload\n        /* \"@openzeppelin/contracts/utils/Address.sol\":7906:7928  returndata.length == 0 */\n      sub\n        /* \"@openzeppelin/contracts/utils/Address.sol\":7902:8188  if (returndata.length == 0) {... */\n      tag_192\n      jumpi\n        /* \"@openzeppelin/contracts/utils/Address.sol\":8121:8139  isContract(target) */\n      tag_193\n        /* \"@openzeppelin/contracts/utils/Address.sol\":8132:8138  target */\n      dup6\n        /* \"@openzeppelin/contracts/utils/Address.sol\":8121:8131  isContract */\n      tag_194\n        /* \"@openzeppelin/contracts/utils/Address.sol\":8121:8139  isContract(target) */\n      jump\t// in\n    tag_193:\n        /* \"@openzeppelin/contracts/utils/Address.sol\":8113:8173  require(isContract(target), \"Address: call to non-contract\") */\n      tag_195\n      jumpi\n      mload(0x40)\n      0x08c379a000000000000000000000000000000000000000000000000000000000\n      dup2\n      mstore\n      0x04\n      add\n      tag_196\n      swap1\n      tag_197\n      jump\t// in\n    tag_196:\n      mload(0x40)\n      dup1\n      swap2\n      sub\n      swap1\n      revert\n    tag_195:\n        /* \"@openzeppelin/contracts/utils/Address.sol\":7902:8188  if (returndata.length == 0) {... */\n    tag_192:\n        /* \"@openzeppelin/contracts/utils/Address.sol\":8208:8218  returndata */\n      dup3\n        /* \"@openzeppelin/contracts/utils/Address.sol\":8201:8218  return returndata */\n      swap1\n      pop\n      jump(tag_190)\n        /* \"@openzeppelin/contracts/utils/Address.sol\":7875:8293  if (success) {... */\n    tag_191:\n        /* \"@openzeppelin/contracts/utils/Address.sol\":8249:8282  _revert(returndata, errorMessage) */\n      tag_199\n        /* \"@openzeppelin/contracts/utils/Address.sol\":8257:8267  returndata */\n      dup4\n        /* \"@openzeppelin/contracts/utils/Address.sol\":8269:8281  errorMessage */\n      dup4\n        /* \"@openzeppelin/contracts/utils/Address.sol\":8249:8256  _revert */\n      tag_200\n        /* \"@openzeppelin/contracts/utils/Address.sol\":8249:8282  _revert(returndata, errorMessage) */\n      jump\t// in\n    tag_199:\n        /* \"@openzeppelin/contracts/utils/Address.sol\":7671:8299  function verifyCallResultFromTarget(... */\n    tag_190:\n      swap5\n      swap4\n      pop\n      pop\n      pop\n      pop\n      jump\t// out\n        /* \"@openzeppelin/contracts/utils/Address.sol\":1412:1732  function isContract(address account) internal view returns (bool) {... */\n    tag_194:\n        /* \"@openzeppelin/contracts/utils/Address.sol\":1472:1476  bool */\n      0x00\n        /* \"@openzeppelin/contracts/utils/Address.sol\":1724:1725  0 */\n      dup1\n        /* \"@openzeppelin/contracts/utils/Address.sol\":1702:1709  account */\n      dup3\n        /* \"@openzeppelin/contracts/utils/Address.sol\":1702:1721  account.code.length */\n      0xffffffffffffffffffffffffffffffffffffffff\n      and\n      extcodesize\n        /* \"@openzeppelin/contracts/utils/Address.sol\":1702:1725  account.code.length > 0 */\n      gt\n        /* \"@openzeppelin/contracts/utils/Address.sol\":1695:1725  return account.code.length > 0 */\n      swap1\n      pop\n        /* \"@openzeppelin/contracts/utils/Address.sol\":1412:1732  function isContract(address account) internal view returns (bool) {... */\n      swap2\n      swap1\n      pop\n      jump\t// out\n        /* \"@openzeppelin/contracts/utils/Address.sol\":8821:9361  function _revert(bytes memory returndata, string memory errorMessage) private pure {... */\n    tag_200:\n        /* \"@openzeppelin/contracts/utils/Address.sol\":9000:9001  0 */\n      0x00\n        /* \"@openzeppelin/contracts/utils/Address.sol\":8980:8990  returndata */\n      dup3\n        /* \"@openzeppelin/contracts/utils/Address.sol\":8980:8997  returndata.length */\n      mload\n        /* \"@openzeppelin/contracts/utils/Address.sol\":8980:9001  returndata.length > 0 */\n      gt\n        /* \"@openzeppelin/contracts/utils/Address.sol\":8976:9355  if (returndata.length > 0) {... */\n      iszero\n      tag_203\n      jumpi\n        /* \"@openzeppelin/contracts/utils/Address.sol\":9208:9218  returndata */\n      dup2\n        /* \"@openzeppelin/contracts/utils/Address.sol\":9202:9219  mload(returndata) */\n      mload\n        /* \"@openzeppelin/contracts/utils/Address.sol\":9264:9279  returndata_size */\n      dup1\n        /* \"@openzeppelin/contracts/utils/Address.sol\":9251:9261  returndata */\n      dup4\n        /* \"@openzeppelin/contracts/utils/Address.sol\":9247:9249  32 */\n      0x20\n        /* \"@openzeppelin/contracts/utils/Address.sol\":9243:9262  add(32, returndata) */\n      add\n        /* \"@openzeppelin/contracts/utils/Address.sol\":9236:9280  revert(add(32, returndata), returndata_size) */\n      revert\n        /* \"@openzeppelin/contracts/utils/Address.sol\":8976:9355  if (returndata.length > 0) {... */\n    tag_203:\n        /* \"@openzeppelin/contracts/utils/Address.sol\":9331:9343  errorMessage */\n      dup1\n        /* \"@openzeppelin/contracts/utils/Address.sol\":9324:9344  revert(errorMessage) */\n      mload(0x40)\n      0x08c379a000000000000000000000000000000000000000000000000000000000\n      dup2\n      mstore\n      0x04\n      add\n      tag_205\n      swap2\n      swap1\n      tag_206\n      jump\t// in\n    tag_205:\n      mload(0x40)\n      dup1\n      swap2\n      sub\n      swap1\n      revert\n        /* \"#utility.yul\":7:97   */\n    tag_207:\n        /* \"#utility.yul\":41:48   */\n      0x00\n        /* \"#utility.yul\":84:89   */\n      dup2\n        /* \"#utility.yul\":77:90   */\n      iszero\n        /* \"#utility.yul\":70:91   */\n      iszero\n        /* \"#utility.yul\":59:91   */\n      swap1\n      pop\n        /* \"#utility.yul\":7:97   */\n      swap2\n      swap1\n      pop\n      jump\t// out\n        /* \"#utility.yul\":103:212   */\n    tag_208:\n        /* \"#utility.yul\":184:205   */\n      tag_258\n        /* \"#utility.yul\":199:204   */\n      dup2\n        /* \"#utility.yul\":184:205   */\n      tag_207\n      jump\t// in\n    tag_258:\n        /* \"#utility.yul\":179:182   */\n      dup3\n        /* \"#utility.yul\":172:206   */\n      mstore\n        /* \"#utility.yul\":103:212   */\n      pop\n      pop\n      jump\t// out\n        /* \"#utility.yul\":218:428   */\n    tag_29:\n        /* \"#utility.yul\":305:309   */\n      0x00\n        /* \"#utility.yul\":343:345   */\n      0x20\n        /* \"#utility.yul\":332:341   */\n      dup3\n        /* \"#utility.yul\":328:346   */\n      add\n        /* \"#utility.yul\":320:346   */\n      swap1\n      pop\n        /* \"#utility.yul\":356:421   */\n      tag_260\n        /* \"#utility.yul\":418:419   */\n      0x00\n        /* \"#utility.yul\":407:416   */\n      dup4\n        /* \"#utility.yul\":403:420   */\n      add\n        /* \"#utility.yul\":394:400   */\n      dup5\n        /* \"#utility.yul\":356:421   */\n      tag_208\n      jump\t// in\n    tag_260:\n        /* \"#utility.yul\":218:428   */\n      swap3\n      swap2\n      pop\n      pop\n      jump\t// out\n        /* \"#utility.yul\":434:511   */\n    tag_209:\n        /* \"#utility.yul\":471:478   */\n      0x00\n        /* \"#utility.yul\":500:505   */\n      dup2\n        /* \"#utility.yul\":489:505   */\n      swap1\n      pop\n        /* \"#utility.yul\":434:511   */\n      swap2\n      swap1\n      pop\n      jump\t// out\n        /* \"#utility.yul\":517:635   */\n    tag_210:\n        /* \"#utility.yul\":604:628   */\n      tag_263\n        /* \"#utility.yul\":622:627   */\n      dup2\n        /* \"#utility.yul\":604:628   */\n      tag_209\n      jump\t// in\n    tag_263:\n        /* \"#utility.yul\":599:602   */\n      dup3\n        /* \"#utility.yul\":592:629   */\n      mstore\n        /* \"#utility.yul\":517:635   */\n      pop\n      pop\n      jump\t// out\n        /* \"#utility.yul\":641:863   */\n    tag_34:\n        /* \"#utility.yul\":734:738   */\n      0x00\n        /* \"#utility.yul\":772:774   */\n      0x20\n        /* \"#utility.yul\":761:770   */\n      dup3\n        /* \"#utility.yul\":757:775   */\n      add\n        /* \"#utility.yul\":749:775   */\n      swap1\n      pop\n        /* \"#utility.yul\":785:856   */\n      tag_265\n        /* \"#utility.yul\":853:854   */\n      0x00\n        /* \"#utility.yul\":842:851   */\n      dup4\n        /* \"#utility.yul\":838:855   */\n      add\n        /* \"#utility.yul\":829:835   */\n      dup5\n        /* \"#utility.yul\":785:856   */\n      tag_210\n      jump\t// in\n    tag_265:\n        /* \"#utility.yul\":641:863   */\n      swap3\n      swap2\n      pop\n      pop\n      jump\t// out\n        /* \"#utility.yul\":950:1067   */\n    tag_212:\n        /* \"#utility.yul\":1059:1060   */\n      0x00\n        /* \"#utility.yul\":1056:1057   */\n      dup1\n        /* \"#utility.yul\":1049:1061   */\n      revert\n        /* \"#utility.yul\":1196:1322   */\n    tag_214:\n        /* \"#utility.yul\":1233:1240   */\n      0x00\n        /* \"#utility.yul\":1273:1315   */\n      0xffffffffffffffffffffffffffffffffffffffff\n        /* \"#utility.yul\":1266:1271   */\n      dup3\n        /* \"#utility.yul\":1262:1316   */\n      and\n        /* \"#utility.yul\":1251:1316   */\n      swap1\n      pop\n        /* \"#utility.yul\":1196:1322   */\n      swap2\n      swap1\n      pop\n      jump\t// out\n        /* \"#utility.yul\":1328:1424   */\n    tag_215:\n        /* \"#utility.yul\":1365:1372   */\n      0x00\n        /* \"#utility.yul\":1394:1418   */\n      tag_271\n        /* \"#utility.yul\":1412:1417   */\n      dup3\n        /* \"#utility.yul\":1394:1418   */\n      tag_214\n      jump\t// in\n    tag_271:\n        /* \"#utility.yul\":1383:1418   */\n      swap1\n      pop\n        /* \"#utility.yul\":1328:1424   */\n      swap2\n      swap1\n      pop\n      jump\t// out\n        /* \"#utility.yul\":1430:1552   */\n    tag_216:\n        /* \"#utility.yul\":1503:1527   */\n      tag_273\n        /* \"#utility.yul\":1521:1526   */\n      dup2\n        /* \"#utility.yul\":1503:1527   */\n      tag_215\n      jump\t// in\n    tag_273:\n        /* \"#utility.yul\":1496:1501   */\n      dup2\n        /* \"#utility.yul\":1493:1528   */\n      eq\n        /* \"#utility.yul\":1483:1546   */\n      tag_274\n      jumpi\n        /* \"#utility.yul\":1542:1543   */\n      0x00\n        /* \"#utility.yul\":1539:1540   */\n      dup1\n        /* \"#utility.yul\":1532:1544   */\n      revert\n        /* \"#utility.yul\":1483:1546   */\n    tag_274:\n        /* \"#utility.yul\":1430:1552   */\n      pop\n      jump\t// out\n        /* \"#utility.yul\":1558:1697   */\n    tag_217:\n        /* \"#utility.yul\":1604:1609   */\n      0x00\n        /* \"#utility.yul\":1642:1648   */\n      dup2\n        /* \"#utility.yul\":1629:1649   */\n      calldataload\n        /* \"#utility.yul\":1620:1649   */\n      swap1\n      pop\n        /* \"#utility.yul\":1658:1691   */\n      tag_276\n        /* \"#utility.yul\":1685:1690   */\n      dup2\n        /* \"#utility.yul\":1658:1691   */\n      tag_216\n      jump\t// in\n    tag_276:\n        /* \"#utility.yul\":1558:1697   */\n      swap3\n      swap2\n      pop\n      pop\n      jump\t// out\n        /* \"#utility.yul\":1703:2032   */\n    tag_46:\n        /* \"#utility.yul\":1762:1768   */\n      0x00\n        /* \"#utility.yul\":1811:1813   */\n      0x20\n        /* \"#utility.yul\":1799:1808   */\n      dup3\n        /* \"#utility.yul\":1790:1797   */\n      dup5\n        /* \"#utility.yul\":1786:1809   */\n      sub\n        /* \"#utility.yul\":1782:1814   */\n      slt\n        /* \"#utility.yul\":1779:1898   */\n      iszero\n      tag_278\n      jumpi\n        /* \"#utility.yul\":1817:1896   */\n      tag_279\n      tag_212\n      jump\t// in\n    tag_279:\n        /* \"#utility.yul\":1779:1898   */\n    tag_278:\n        /* \"#utility.yul\":1937:1938   */\n      0x00\n        /* \"#utility.yul\":1962:2015   */\n      tag_280\n        /* \"#utility.yul\":2007:2014   */\n      dup5\n        /* \"#utility.yul\":1998:2004   */\n      dup3\n        /* \"#utility.yul\":1987:1996   */\n      dup6\n        /* \"#utility.yul\":1983:2005   */\n      add\n        /* \"#utility.yul\":1962:2015   */\n      tag_217\n      jump\t// in\n    tag_280:\n        /* \"#utility.yul\":1952:2015   */\n      swap2\n      pop\n        /* \"#utility.yul\":1908:2025   */\n      pop\n        /* \"#utility.yul\":1703:2032   */\n      swap3\n      swap2\n      pop\n      pop\n      jump\t// out\n        /* \"#utility.yul\":2038:2142   */\n    tag_218:\n        /* \"#utility.yul\":2083:2090   */\n      0x00\n        /* \"#utility.yul\":2112:2136   */\n      tag_282\n        /* \"#utility.yul\":2130:2135   */\n      dup3\n        /* \"#utility.yul\":2112:2136   */\n      tag_214\n      jump\t// in\n    tag_282:\n        /* \"#utility.yul\":2101:2136   */\n      swap1\n      pop\n        /* \"#utility.yul\":2038:2142   */\n      swap2\n      swap1\n      pop\n      jump\t// out\n        /* \"#utility.yul\":2148:2290   */\n    tag_219:\n        /* \"#utility.yul\":2251:2283   */\n      tag_284\n        /* \"#utility.yul\":2277:2282   */\n      dup2\n        /* \"#utility.yul\":2251:2283   */\n      tag_218\n      jump\t// in\n    tag_284:\n        /* \"#utility.yul\":2246:2249   */\n      dup3\n        /* \"#utility.yul\":2239:2284   */\n      mstore\n        /* \"#utility.yul\":2148:2290   */\n      pop\n      pop\n      jump\t// out\n        /* \"#utility.yul\":2296:2550   */\n    tag_56:\n        /* \"#utility.yul\":2405:2409   */\n      0x00\n        /* \"#utility.yul\":2443:2445   */\n      0x20\n        /* \"#utility.yul\":2432:2441   */\n      dup3\n        /* \"#utility.yul\":2428:2446   */\n      add\n        /* \"#utility.yul\":2420:2446   */\n      swap1\n      pop\n        /* \"#utility.yul\":2456:2543   */\n      tag_286\n        /* \"#utility.yul\":2540:2541   */\n      0x00\n        /* \"#utility.yul\":2529:2538   */\n      dup4\n        /* \"#utility.yul\":2525:2542   */\n      add\n        /* \"#utility.yul\":2516:2522   */\n      dup5\n        /* \"#utility.yul\":2456:2543   */\n      tag_219\n      jump\t// in\n    tag_286:\n        /* \"#utility.yul\":2296:2550   */\n      swap3\n      swap2\n      pop\n      pop\n      jump\t// out\n        /* \"#utility.yul\":2556:2616   */\n    tag_220:\n        /* \"#utility.yul\":2584:2587   */\n      0x00\n        /* \"#utility.yul\":2605:2610   */\n      dup2\n        /* \"#utility.yul\":2598:2610   */\n      swap1\n      pop\n        /* \"#utility.yul\":2556:2616   */\n      swap2\n      swap1\n      pop\n      jump\t// out\n        /* \"#utility.yul\":2622:2764   */\n    tag_221:\n        /* \"#utility.yul\":2672:2681   */\n      0x00\n        /* \"#utility.yul\":2705:2758   */\n      tag_289\n        /* \"#utility.yul\":2723:2757   */\n      tag_290\n        /* \"#utility.yul\":2732:2756   */\n      tag_291\n        /* \"#utility.yul\":2750:2755   */\n      dup5\n        /* \"#utility.yul\":2732:2756   */\n      tag_214\n      jump\t// in\n    tag_291:\n        /* \"#utility.yul\":2723:2757   */\n      tag_220\n      jump\t// in\n    tag_290:\n        /* \"#utility.yul\":2705:2758   */\n      tag_214\n      jump\t// in\n    tag_289:\n        /* \"#utility.yul\":2692:2758   */\n      swap1\n      pop\n        /* \"#utility.yul\":2622:2764   */\n      swap2\n      swap1\n      pop\n      jump\t// out\n        /* \"#utility.yul\":2770:2896   */\n    tag_222:\n        /* \"#utility.yul\":2820:2829   */\n      0x00\n        /* \"#utility.yul\":2853:2890   */\n      tag_293\n        /* \"#utility.yul\":2884:2889   */\n      dup3\n        /* \"#utility.yul\":2853:2890   */\n      tag_221\n      jump\t// in\n    tag_293:\n        /* \"#utility.yul\":2840:2890   */\n      swap1\n      pop\n        /* \"#utility.yul\":2770:2896   */\n      swap2\n      swap1\n      pop\n      jump\t// out\n        /* \"#utility.yul\":2902:3042   */\n    tag_223:\n        /* \"#utility.yul\":2966:2975   */\n      0x00\n        /* \"#utility.yul\":2999:3036   */\n      tag_295\n        /* \"#utility.yul\":3030:3035   */\n      dup3\n        /* \"#utility.yul\":2999:3036   */\n      tag_222\n      jump\t// in\n    tag_295:\n        /* \"#utility.yul\":2986:3036   */\n      swap1\n      pop\n        /* \"#utility.yul\":2902:3042   */\n      swap2\n      swap1\n      pop\n      jump\t// out\n        /* \"#utility.yul\":3048:3207   */\n    tag_224:\n        /* \"#utility.yul\":3149:3200   */\n      tag_297\n        /* \"#utility.yul\":3194:3199   */\n      dup2\n        /* \"#utility.yul\":3149:3200   */\n      tag_223\n      jump\t// in\n    tag_297:\n        /* \"#utility.yul\":3144:3147   */\n      dup3\n        /* \"#utility.yul\":3137:3201   */\n      mstore\n        /* \"#utility.yul\":3048:3207   */\n      pop\n      pop\n      jump\t// out\n        /* \"#utility.yul\":3213:3463   */\n    tag_72:\n        /* \"#utility.yul\":3320:3324   */\n      0x00\n        /* \"#utility.yul\":3358:3360   */\n      0x20\n        /* \"#utility.yul\":3347:3356   */\n      dup3\n        /* \"#utility.yul\":3343:3361   */\n      add\n        /* \"#utility.yul\":3335:3361   */\n      swap1\n      pop\n        /* \"#utility.yul\":3371:3456   */\n      tag_299\n        /* \"#utility.yul\":3453:3454   */\n      0x00\n        /* \"#utility.yul\":3442:3451   */\n      dup4\n        /* \"#utility.yul\":3438:3455   */\n      add\n        /* \"#utility.yul\":3429:3435   */\n      dup5\n        /* \"#utility.yul\":3371:3456   */\n      tag_224\n      jump\t// in\n    tag_299:\n        /* \"#utility.yul\":3213:3463   */\n      swap3\n      swap2\n      pop\n      pop\n      jump\t// out\n        /* \"#utility.yul\":3469:3801   */\n    tag_88:\n        /* \"#utility.yul\":3590:3594   */\n      0x00\n        /* \"#utility.yul\":3628:3630   */\n      0x40\n        /* \"#utility.yul\":3617:3626   */\n      dup3\n        /* \"#utility.yul\":3613:3631   */\n      add\n        /* \"#utility.yul\":3605:3631   */\n      swap1\n      pop\n        /* \"#utility.yul\":3641:3712   */\n      tag_301\n        /* \"#utility.yul\":3709:3710   */\n      0x00\n        /* \"#utility.yul\":3698:3707   */\n      dup4\n        /* \"#utility.yul\":3694:3711   */\n      add\n        /* \"#utility.yul\":3685:3691   */\n      dup6\n        /* \"#utility.yul\":3641:3712   */\n      tag_210\n      jump\t// in\n    tag_301:\n        /* \"#utility.yul\":3722:3794   */\n      tag_302\n        /* \"#utility.yul\":3790:3792   */\n      0x20\n        /* \"#utility.yul\":3779:3788   */\n      dup4\n        /* \"#utility.yul\":3775:3793   */\n      add\n        /* \"#utility.yul\":3766:3772   */\n      dup5\n        /* \"#utility.yul\":3722:3794   */\n      tag_210\n      jump\t// in\n    tag_302:\n        /* \"#utility.yul\":3469:3801   */\n      swap4\n      swap3\n      pop\n      pop\n      pop\n      jump\t// out\n        /* \"#utility.yul\":3807:3976   */\n    tag_225:\n        /* \"#utility.yul\":3891:3902   */\n      0x00\n        /* \"#utility.yul\":3925:3931   */\n      dup3\n        /* \"#utility.yul\":3920:3923   */\n      dup3\n        /* \"#utility.yul\":3913:3932   */\n      mstore\n        /* \"#utility.yul\":3965:3969   */\n      0x20\n        /* \"#utility.yul\":3960:3963   */\n      dup3\n        /* \"#utility.yul\":3956:3970   */\n      add\n        /* \"#utility.yul\":3941:3970   */\n      swap1\n      pop\n        /* \"#utility.yul\":3807:3976   */\n      swap3\n      swap2\n      pop\n      pop\n      jump\t// out\n        /* \"#utility.yul\":3982:4202   */\n    tag_226:\n        /* \"#utility.yul\":4122:4156   */\n      0x506f737444656c697665727943726f776473616c653a206e6f7420636c6f7365\n        /* \"#utility.yul\":4118:4119   */\n      0x00\n        /* \"#utility.yul\":4110:4116   */\n      dup3\n        /* \"#utility.yul\":4106:4120   */\n      add\n        /* \"#utility.yul\":4099:4157   */\n      mstore\n        /* \"#utility.yul\":4191:4194   */\n      0x6400000000000000000000000000000000000000000000000000000000000000\n        /* \"#utility.yul\":4186:4188   */\n      0x20\n        /* \"#utility.yul\":4178:4184   */\n      dup3\n        /* \"#utility.yul\":4174:4189   */\n      add\n        /* \"#utility.yul\":4167:4195   */\n      mstore\n        /* \"#utility.yul\":3982:4202   */\n      pop\n      jump\t// out\n        /* \"#utility.yul\":4208:4574   */\n    tag_227:\n        /* \"#utility.yul\":4350:4353   */\n      0x00\n        /* \"#utility.yul\":4371:4438   */\n      tag_306\n        /* \"#utility.yul\":4435:4437   */\n      0x21\n        /* \"#utility.yul\":4430:4433   */\n      dup4\n        /* \"#utility.yul\":4371:4438   */\n      tag_225\n      jump\t// in\n    tag_306:\n        /* \"#utility.yul\":4364:4438   */\n      swap2\n      pop\n        /* \"#utility.yul\":4447:4540   */\n      tag_307\n        /* \"#utility.yul\":4536:4539   */\n      dup3\n        /* \"#utility.yul\":4447:4540   */\n      tag_226\n      jump\t// in\n    tag_307:\n        /* \"#utility.yul\":4565:4567   */\n      0x40\n        /* \"#utility.yul\":4560:4563   */\n      dup3\n        /* \"#utility.yul\":4556:4568   */\n      add\n        /* \"#utility.yul\":4549:4568   */\n      swap1\n      pop\n        /* \"#utility.yul\":4208:4574   */\n      swap2\n      swap1\n      pop\n      jump\t// out\n        /* \"#utility.yul\":4580:4999   */\n    tag_106:\n        /* \"#utility.yul\":4746:4750   */\n      0x00\n        /* \"#utility.yul\":4784:4786   */\n      0x20\n        /* \"#utility.yul\":4773:4782   */\n      dup3\n        /* \"#utility.yul\":4769:4787   */\n      add\n        /* \"#utility.yul\":4761:4787   */\n      swap1\n      pop\n        /* \"#utility.yul\":4833:4842   */\n      dup2\n        /* \"#utility.yul\":4827:4831   */\n      dup2\n        /* \"#utility.yul\":4823:4843   */\n      sub\n        /* \"#utility.yul\":4819:4820   */\n      0x00\n        /* \"#utility.yul\":4808:4817   */\n      dup4\n        /* \"#utility.yul\":4804:4821   */\n      add\n        /* \"#utility.yul\":4797:4844   */\n      mstore\n        /* \"#utility.yul\":4861:4992   */\n      tag_309\n        /* \"#utility.yul\":4987:4991   */\n      dup2\n        /* \"#utility.yul\":4861:4992   */\n      tag_227\n      jump\t// in\n    tag_309:\n        /* \"#utility.yul\":4853:4992   */\n      swap1\n      pop\n        /* \"#utility.yul\":4580:4999   */\n      swap2\n      swap1\n      pop\n      jump\t// out\n        /* \"#utility.yul\":5005:5248   */\n    tag_228:\n        /* \"#utility.yul\":5145:5179   */\n      0x506f737444656c697665727943726f776473616c653a2062656e656669636961\n        /* \"#utility.yul\":5141:5142   */\n      0x00\n        /* \"#utility.yul\":5133:5139   */\n      dup3\n        /* \"#utility.yul\":5129:5143   */\n      add\n        /* \"#utility.yul\":5122:5180   */\n      mstore\n        /* \"#utility.yul\":5214:5240   */\n      0x7279206973206e6f742064756520616e7920746f6b656e730000000000000000\n        /* \"#utility.yul\":5209:5211   */\n      0x20\n        /* \"#utility.yul\":5201:5207   */\n      dup3\n        /* \"#utility.yul\":5197:5212   */\n      add\n        /* \"#utility.yul\":5190:5241   */\n      mstore\n        /* \"#utility.yul\":5005:5248   */\n      pop\n      jump\t// out\n        /* \"#utility.yul\":5254:5620   */\n    tag_229:\n        /* \"#utility.yul\":5396:5399   */\n      0x00\n        /* \"#utility.yul\":5417:5484   */\n      tag_312\n        /* \"#utility.yul\":5481:5483   */\n      0x38\n        /* \"#utility.yul\":5476:5479   */\n      dup4\n        /* \"#utility.yul\":5417:5484   */\n      tag_225\n      jump\t// in\n    tag_312:\n        /* \"#utility.yul\":5410:5484   */\n      swap2\n      pop\n        /* \"#utility.yul\":5493:5586   */\n      tag_313\n        /* \"#utility.yul\":5582:5585   */\n      dup3\n        /* \"#utility.yul\":5493:5586   */\n      tag_228\n      jump\t// in\n    tag_313:\n        /* \"#utility.yul\":5611:5613   */\n      0x40\n        /* \"#utility.yul\":5606:5609   */\n      dup3\n        /* \"#utility.yul\":5602:5614   */\n      add\n        /* \"#utility.yul\":5595:5614   */\n      swap1\n      pop\n        /* \"#utility.yul\":5254:5620   */\n      swap2\n      swap1\n      pop\n      jump\t// out\n        /* \"#utility.yul\":5626:6045   */\n    tag_109:\n        /* \"#utility.yul\":5792:5796   */\n      0x00\n        /* \"#utility.yul\":5830:5832   */\n      0x20\n        /* \"#utility.yul\":5819:5828   */\n      dup3\n        /* \"#utility.yul\":5815:5833   */\n      add\n        /* \"#utility.yul\":5807:5833   */\n      swap1\n      pop\n        /* \"#utility.yul\":5879:5888   */\n      dup2\n        /* \"#utility.yul\":5873:5877   */\n      dup2\n        /* \"#utility.yul\":5869:5889   */\n      sub\n        /* \"#utility.yul\":5865:5866   */\n      0x00\n        /* \"#utility.yul\":5854:5863   */\n      dup4\n        /* \"#utility.yul\":5850:5867   */\n      add\n        /* \"#utility.yul\":5843:5890   */\n      mstore\n        /* \"#utility.yul\":5907:6038   */\n      tag_315\n        /* \"#utility.yul\":6033:6037   */\n      dup2\n        /* \"#utility.yul\":5907:6038   */\n      tag_229\n      jump\t// in\n    tag_315:\n        /* \"#utility.yul\":5899:6038   */\n      swap1\n      pop\n        /* \"#utility.yul\":5626:6045   */\n      swap2\n      swap1\n      pop\n      jump\t// out\n        /* \"#utility.yul\":6051:6169   */\n    tag_230:\n        /* \"#utility.yul\":6138:6162   */\n      tag_317\n        /* \"#utility.yul\":6156:6161   */\n      dup2\n        /* \"#utility.yul\":6138:6162   */\n      tag_215\n      jump\t// in\n    tag_317:\n        /* \"#utility.yul\":6133:6136   */\n      dup3\n        /* \"#utility.yul\":6126:6163   */\n      mstore\n        /* \"#utility.yul\":6051:6169   */\n      pop\n      pop\n      jump\t// out\n        /* \"#utility.yul\":6175:6645   */\n    tag_112:\n        /* \"#utility.yul\":6338:6342   */\n      0x00\n        /* \"#utility.yul\":6376:6378   */\n      0x60\n        /* \"#utility.yul\":6365:6374   */\n      dup3\n        /* \"#utility.yul\":6361:6379   */\n      add\n        /* \"#utility.yul\":6353:6379   */\n      swap1\n      pop\n        /* \"#utility.yul\":6389:6474   */\n      tag_319\n        /* \"#utility.yul\":6471:6472   */\n      0x00\n        /* \"#utility.yul\":6460:6469   */\n      dup4\n        /* \"#utility.yul\":6456:6473   */\n      add\n        /* \"#utility.yul\":6447:6453   */\n      dup7\n        /* \"#utility.yul\":6389:6474   */\n      tag_224\n      jump\t// in\n    tag_319:\n        /* \"#utility.yul\":6484:6556   */\n      tag_320\n        /* \"#utility.yul\":6552:6554   */\n      0x20\n        /* \"#utility.yul\":6541:6550   */\n      dup4\n        /* \"#utility.yul\":6537:6555   */\n      add\n        /* \"#utility.yul\":6528:6534   */\n      dup6\n        /* \"#utility.yul\":6484:6556   */\n      tag_230\n      jump\t// in\n    tag_320:\n        /* \"#utility.yul\":6566:6638   */\n      tag_321\n        /* \"#utility.yul\":6634:6636   */\n      0x40\n        /* \"#utility.yul\":6623:6632   */\n      dup4\n        /* \"#utility.yul\":6619:6637   */\n      add\n        /* \"#utility.yul\":6610:6616   */\n      dup5\n        /* \"#utility.yul\":6566:6638   */\n      tag_210\n      jump\t// in\n    tag_321:\n        /* \"#utility.yul\":6175:6645   */\n      swap5\n      swap4\n      pop\n      pop\n      pop\n      pop\n      jump\t// out\n        /* \"#utility.yul\":6651:6832   */\n    tag_231:\n        /* \"#utility.yul\":6791:6824   */\n      0x5265656e7472616e637947756172643a207265656e7472616e742063616c6c00\n        /* \"#utility.yul\":6787:6788   */\n      0x00\n        /* \"#utility.yul\":6779:6785   */\n      dup3\n        /* \"#utility.yul\":6775:6789   */\n      add\n        /* \"#utility.yul\":6768:6825   */\n      mstore\n        /* \"#utility.yul\":6651:6832   */\n      pop\n      jump\t// out\n        /* \"#utility.yul\":6838:7204   */\n    tag_232:\n        /* \"#utility.yul\":6980:6983   */\n      0x00\n        /* \"#utility.yul\":7001:7068   */\n      tag_324\n        /* \"#utility.yul\":7065:7067   */\n      0x1f\n        /* \"#utility.yul\":7060:7063   */\n      dup4\n        /* \"#utility.yul\":7001:7068   */\n      tag_225\n      jump\t// in\n    tag_324:\n        /* \"#utility.yul\":6994:7068   */\n      swap2\n      pop\n        /* \"#utility.yul\":7077:7170   */\n      tag_325\n        /* \"#utility.yul\":7166:7169   */\n      dup3\n        /* \"#utility.yul\":7077:7170   */\n      tag_231\n      jump\t// in\n    tag_325:\n        /* \"#utility.yul\":7195:7197   */\n      0x20\n        /* \"#utility.yul\":7190:7193   */\n      dup3\n        /* \"#utility.yul\":7186:7198   */\n      add\n        /* \"#utility.yul\":7179:7198   */\n      swap1\n      pop\n        /* \"#utility.yul\":6838:7204   */\n      swap2\n      swap1\n      pop\n      jump\t// out\n        /* \"#utility.yul\":7210:7629   */\n    tag_124:\n        /* \"#utility.yul\":7376:7380   */\n      0x00\n        /* \"#utility.yul\":7414:7416   */\n      0x20\n        /* \"#utility.yul\":7403:7412   */\n      dup3\n        /* \"#utility.yul\":7399:7417   */\n      add\n        /* \"#utility.yul\":7391:7417   */\n      swap1\n      pop\n        /* \"#utility.yul\":7463:7472   */\n      dup2\n        /* \"#utility.yul\":7457:7461   */\n      dup2\n        /* \"#utility.yul\":7453:7473   */\n      sub\n        /* \"#utility.yul\":7449:7450   */\n      0x00\n        /* \"#utility.yul\":7438:7447   */\n      dup4\n        /* \"#utility.yul\":7434:7451   */\n      add\n        /* \"#utility.yul\":7427:7474   */\n      mstore\n        /* \"#utility.yul\":7491:7622   */\n      tag_327\n        /* \"#utility.yul\":7617:7621   */\n      dup2\n        /* \"#utility.yul\":7491:7622   */\n      tag_232\n      jump\t// in\n    tag_327:\n        /* \"#utility.yul\":7483:7622   */\n      swap1\n      pop\n        /* \"#utility.yul\":7210:7629   */\n      swap2\n      swap1\n      pop\n      jump\t// out\n        /* \"#utility.yul\":7635:7809   */\n    tag_233:\n        /* \"#utility.yul\":7775:7801   */\n      0x54696d656443726f776473616c653a206e6f74206f70656e0000000000000000\n        /* \"#utility.yul\":7771:7772   */\n      0x00\n        /* \"#utility.yul\":7763:7769   */\n      dup3\n        /* \"#utility.yul\":7759:7773   */\n      add\n        /* \"#utility.yul\":7752:7802   */\n      mstore\n        /* \"#utility.yul\":7635:7809   */\n      pop\n      jump\t// out\n        /* \"#utility.yul\":7815:8181   */\n    tag_234:\n        /* \"#utility.yul\":7957:7960   */\n      0x00\n        /* \"#utility.yul\":7978:8045   */\n      tag_330\n        /* \"#utility.yul\":8042:8044   */\n      0x18\n        /* \"#utility.yul\":8037:8040   */\n      dup4\n        /* \"#utility.yul\":7978:8045   */\n      tag_225\n      jump\t// in\n    tag_330:\n        /* \"#utility.yul\":7971:8045   */\n      swap2\n      pop\n        /* \"#utility.yul\":8054:8147   */\n      tag_331\n        /* \"#utility.yul\":8143:8146   */\n      dup3\n        /* \"#utility.yul\":8054:8147   */\n      tag_233\n      jump\t// in\n    tag_331:\n        /* \"#utility.yul\":8172:8174   */\n      0x20\n        /* \"#utility.yul\":8167:8170   */\n      dup3\n        /* \"#utility.yul\":8163:8175   */\n      add\n        /* \"#utility.yul\":8156:8175   */\n      swap1\n      pop\n        /* \"#utility.yul\":7815:8181   */\n      swap2\n      swap1\n      pop\n      jump\t// out\n        /* \"#utility.yul\":8187:8606   */\n    tag_129:\n        /* \"#utility.yul\":8353:8357   */\n      0x00\n        /* \"#utility.yul\":8391:8393   */\n      0x20\n        /* \"#utility.yul\":8380:8389   */\n      dup3\n        /* \"#utility.yul\":8376:8394   */\n      add\n        /* \"#utility.yul\":8368:8394   */\n      swap1\n      pop\n        /* \"#utility.yul\":8440:8449   */\n      dup2\n        /* \"#utility.yul\":8434:8438   */\n      dup2\n        /* \"#utility.yul\":8430:8450   */\n      sub\n        /* \"#utility.yul\":8426:8427   */\n      0x00\n        /* \"#utility.yul\":8415:8424   */\n      dup4\n        /* \"#utility.yul\":8411:8428   */\n      add\n        /* \"#utility.yul\":8404:8451   */\n      mstore\n        /* \"#utility.yul\":8468:8599   */\n      tag_333\n        /* \"#utility.yul\":8594:8598   */\n      dup2\n        /* \"#utility.yul\":8468:8599   */\n      tag_234\n      jump\t// in\n    tag_333:\n        /* \"#utility.yul\":8460:8599   */\n      swap1\n      pop\n        /* \"#utility.yul\":8187:8606   */\n      swap2\n      swap1\n      pop\n      jump\t// out\n        /* \"#utility.yul\":8612:8792   */\n    tag_235:\n        /* \"#utility.yul\":8660:8737   */\n      0x4e487b7100000000000000000000000000000000000000000000000000000000\n        /* \"#utility.yul\":8657:8658   */\n      0x00\n        /* \"#utility.yul\":8650:8738   */\n      mstore\n        /* \"#utility.yul\":8757:8761   */\n      0x11\n        /* \"#utility.yul\":8754:8755   */\n      0x04\n        /* \"#utility.yul\":8747:8762   */\n      mstore\n        /* \"#utility.yul\":8781:8785   */\n      0x24\n        /* \"#utility.yul\":8778:8779   */\n      0x00\n        /* \"#utility.yul\":8771:8786   */\n      revert\n        /* \"#utility.yul\":8798:8989   */\n    tag_138:\n        /* \"#utility.yul\":8838:8841   */\n      0x00\n        /* \"#utility.yul\":8857:8877   */\n      tag_336\n        /* \"#utility.yul\":8875:8876   */\n      dup3\n        /* \"#utility.yul\":8857:8877   */\n      tag_209\n      jump\t// in\n    tag_336:\n        /* \"#utility.yul\":8852:8877   */\n      swap2\n      pop\n        /* \"#utility.yul\":8891:8911   */\n      tag_337\n        /* \"#utility.yul\":8909:8910   */\n      dup4\n        /* \"#utility.yul\":8891:8911   */\n      tag_209\n      jump\t// in\n    tag_337:\n        /* \"#utility.yul\":8886:8911   */\n      swap3\n      pop\n        /* \"#utility.yul\":8934:8935   */\n      dup3\n        /* \"#utility.yul\":8931:8932   */\n      dup3\n        /* \"#utility.yul\":8927:8936   */\n      add\n        /* \"#utility.yul\":8920:8936   */\n      swap1\n      pop\n        /* \"#utility.yul\":8955:8958   */\n      dup1\n        /* \"#utility.yul\":8952:8953   */\n      dup3\n        /* \"#utility.yul\":8949:8959   */\n      gt\n        /* \"#utility.yul\":8946:8982   */\n      iszero\n      tag_338\n      jumpi\n        /* \"#utility.yul\":8962:8980   */\n      tag_339\n      tag_235\n      jump\t// in\n    tag_339:\n        /* \"#utility.yul\":8946:8982   */\n    tag_338:\n        /* \"#utility.yul\":8798:8989   */\n      swap3\n      swap2\n      pop\n      pop\n      jump\t// out\n        /* \"#utility.yul\":8995:9224   */\n    tag_236:\n        /* \"#utility.yul\":9135:9169   */\n      0x43726f776473616c653a2062656e656669636961727920697320746865207a65\n        /* \"#utility.yul\":9131:9132   */\n      0x00\n        /* \"#utility.yul\":9123:9129   */\n      dup3\n        /* \"#utility.yul\":9119:9133   */\n      add\n        /* \"#utility.yul\":9112:9170   */\n      mstore\n        /* \"#utility.yul\":9204:9216   */\n      0x726f206164647265737300000000000000000000000000000000000000000000\n        /* \"#utility.yul\":9199:9201   */\n      0x20\n        /* \"#utility.yul\":9191:9197   */\n      dup3\n        /* \"#utility.yul\":9187:9202   */\n      add\n        /* \"#utility.yul\":9180:9217   */\n      mstore\n        /* \"#utility.yul\":8995:9224   */\n      pop\n      jump\t// out\n        /* \"#utility.yul\":9230:9596   */\n    tag_237:\n        /* \"#utility.yul\":9372:9375   */\n      0x00\n        /* \"#utility.yul\":9393:9460   */\n      tag_342\n        /* \"#utility.yul\":9457:9459   */\n      0x2a\n        /* \"#utility.yul\":9452:9455   */\n      dup4\n        /* \"#utility.yul\":9393:9460   */\n      tag_225\n      jump\t// in\n    tag_342:\n        /* \"#utility.yul\":9386:9460   */\n      swap2\n      pop\n        /* \"#utility.yul\":9469:9562   */\n      tag_343\n        /* \"#utility.yul\":9558:9561   */\n      dup3\n        /* \"#utility.yul\":9469:9562   */\n      tag_236\n      jump\t// in\n    tag_343:\n        /* \"#utility.yul\":9587:9589   */\n      0x40\n        /* \"#utility.yul\":9582:9585   */\n      dup3\n        /* \"#utility.yul\":9578:9590   */\n      add\n        /* \"#utility.yul\":9571:9590   */\n      swap1\n      pop\n        /* \"#utility.yul\":9230:9596   */\n      swap2\n      swap1\n      pop\n      jump\t// out\n        /* \"#utility.yul\":9602:10021   */\n    tag_152:\n        /* \"#utility.yul\":9768:9772   */\n      0x00\n        /* \"#utility.yul\":9806:9808   */\n      0x20\n        /* \"#utility.yul\":9795:9804   */\n      dup3\n        /* \"#utility.yul\":9791:9809   */\n      add\n        /* \"#utility.yul\":9783:9809   */\n      swap1\n      pop\n        /* \"#utility.yul\":9855:9864   */\n      dup2\n        /* \"#utility.yul\":9849:9853   */\n      dup2\n        /* \"#utility.yul\":9845:9865   */\n      sub\n        /* \"#utility.yul\":9841:9842   */\n      0x00\n        /* \"#utility.yul\":9830:9839   */\n      dup4\n        /* \"#utility.yul\":9826:9843   */\n      add\n        /* \"#utility.yul\":9819:9866   */\n      mstore\n        /* \"#utility.yul\":9883:10014   */\n      tag_345\n        /* \"#utility.yul\":10009:10013   */\n      dup2\n        /* \"#utility.yul\":9883:10014   */\n      tag_237\n      jump\t// in\n    tag_345:\n        /* \"#utility.yul\":9875:10014   */\n      swap1\n      pop\n        /* \"#utility.yul\":9602:10021   */\n      swap2\n      swap1\n      pop\n      jump\t// out\n        /* \"#utility.yul\":10027:10202   */\n    tag_238:\n        /* \"#utility.yul\":10167:10194   */\n      0x43726f776473616c653a20776569416d6f756e74206973203000000000000000\n        /* \"#utility.yul\":10163:10164   */\n      0x00\n        /* \"#utility.yul\":10155:10161   */\n      dup3\n        /* \"#utility.yul\":10151:10165   */\n      add\n        /* \"#utility.yul\":10144:10195   */\n      mstore\n        /* \"#utility.yul\":10027:10202   */\n      pop\n      jump\t// out\n        /* \"#utility.yul\":10208:10574   */\n    tag_239:\n        /* \"#utility.yul\":10350:10353   */\n      0x00\n        /* \"#utility.yul\":10371:10438   */\n      tag_348\n        /* \"#utility.yul\":10435:10437   */\n      0x19\n        /* \"#utility.yul\":10430:10433   */\n      dup4\n        /* \"#utility.yul\":10371:10438   */\n      tag_225\n      jump\t// in\n    tag_348:\n        /* \"#utility.yul\":10364:10438   */\n      swap2\n      pop\n        /* \"#utility.yul\":10447:10540   */\n      tag_349\n        /* \"#utility.yul\":10536:10539   */\n      dup3\n        /* \"#utility.yul\":10447:10540   */\n      tag_238\n      jump\t// in\n    tag_349:\n        /* \"#utility.yul\":10565:10567   */\n      0x20\n        /* \"#utility.yul\":10560:10563   */\n      dup3\n        /* \"#utility.yul\":10556:10568   */\n      add\n        /* \"#utility.yul\":10549:10568   */\n      swap1\n      pop\n        /* \"#utility.yul\":10208:10574   */\n      swap2\n      swap1\n      pop\n      jump\t// out\n        /* \"#utility.yul\":10580:10999   */\n    tag_155:\n        /* \"#utility.yul\":10746:10750   */\n      0x00\n        /* \"#utility.yul\":10784:10786   */\n      0x20\n        /* \"#utility.yul\":10773:10782   */\n      dup3\n        /* \"#utility.yul\":10769:10787   */\n      add\n        /* \"#utility.yul\":10761:10787   */\n      swap1\n      pop\n        /* \"#utility.yul\":10833:10842   */\n      dup2\n        /* \"#utility.yul\":10827:10831   */\n      dup2\n        /* \"#utility.yul\":10823:10843   */\n      sub\n        /* \"#utility.yul\":10819:10820   */\n      0x00\n        /* \"#utility.yul\":10808:10817   */\n      dup4\n        /* \"#utility.yul\":10804:10821   */\n      add\n        /* \"#utility.yul\":10797:10844   */\n      mstore\n        /* \"#utility.yul\":10861:10992   */\n      tag_351\n        /* \"#utility.yul\":10987:10991   */\n      dup2\n        /* \"#utility.yul\":10861:10992   */\n      tag_239\n      jump\t// in\n    tag_351:\n        /* \"#utility.yul\":10853:10992   */\n      swap1\n      pop\n        /* \"#utility.yul\":10580:10999   */\n      swap2\n      swap1\n      pop\n      jump\t// out\n        /* \"#utility.yul\":11005:11415   */\n    tag_158:\n        /* \"#utility.yul\":11045:11052   */\n      0x00\n        /* \"#utility.yul\":11068:11088   */\n      tag_353\n        /* \"#utility.yul\":11086:11087   */\n      dup3\n        /* \"#utility.yul\":11068:11088   */\n      tag_209\n      jump\t// in\n    tag_353:\n        /* \"#utility.yul\":11063:11088   */\n      swap2\n      pop\n        /* \"#utility.yul\":11102:11122   */\n      tag_354\n        /* \"#utility.yul\":11120:11121   */\n      dup4\n        /* \"#utility.yul\":11102:11122   */\n      tag_209\n      jump\t// in\n    tag_354:\n        /* \"#utility.yul\":11097:11122   */\n      swap3\n      pop\n        /* \"#utility.yul\":11157:11158   */\n      dup3\n        /* \"#utility.yul\":11154:11155   */\n      dup3\n        /* \"#utility.yul\":11150:11159   */\n      mul\n        /* \"#utility.yul\":11179:11209   */\n      tag_355\n        /* \"#utility.yul\":11197:11208   */\n      dup2\n        /* \"#utility.yul\":11179:11209   */\n      tag_209\n      jump\t// in\n    tag_355:\n        /* \"#utility.yul\":11168:11209   */\n      swap2\n      pop\n        /* \"#utility.yul\":11358:11359   */\n      dup3\n        /* \"#utility.yul\":11349:11356   */\n      dup3\n        /* \"#utility.yul\":11345:11360   */\n      div\n        /* \"#utility.yul\":11342:11343   */\n      dup5\n        /* \"#utility.yul\":11339:11361   */\n      eq\n        /* \"#utility.yul\":11319:11320   */\n      dup4\n        /* \"#utility.yul\":11312:11321   */\n      iszero\n        /* \"#utility.yul\":11292:11375   */\n      or\n        /* \"#utility.yul\":11269:11408   */\n      tag_356\n      jumpi\n        /* \"#utility.yul\":11388:11406   */\n      tag_357\n      tag_235\n      jump\t// in\n    tag_357:\n        /* \"#utility.yul\":11269:11408   */\n    tag_356:\n        /* \"#utility.yul\":11053:11415   */\n      pop\n        /* \"#utility.yul\":11005:11415   */\n      swap3\n      swap2\n      pop\n      pop\n      jump\t// out\n        /* \"#utility.yul\":11421:11753   */\n    tag_165:\n        /* \"#utility.yul\":11542:11546   */\n      0x00\n        /* \"#utility.yul\":11580:11582   */\n      0x40\n        /* \"#utility.yul\":11569:11578   */\n      dup3\n        /* \"#utility.yul\":11565:11583   */\n      add\n        /* \"#utility.yul\":11557:11583   */\n      swap1\n      pop\n        /* \"#utility.yul\":11593:11664   */\n      tag_359\n        /* \"#utility.yul\":11661:11662   */\n      0x00\n        /* \"#utility.yul\":11650:11659   */\n      dup4\n        /* \"#utility.yul\":11646:11663   */\n      add\n        /* \"#utility.yul\":11637:11643   */\n      dup6\n        /* \"#utility.yul\":11593:11664   */\n      tag_230\n      jump\t// in\n    tag_359:\n        /* \"#utility.yul\":11674:11746   */\n      tag_360\n        /* \"#utility.yul\":11742:11744   */\n      0x20\n        /* \"#utility.yul\":11731:11740   */\n      dup4\n        /* \"#utility.yul\":11727:11745   */\n      add\n        /* \"#utility.yul\":11718:11724   */\n      dup5\n        /* \"#utility.yul\":11674:11746   */\n      tag_210\n      jump\t// in\n    tag_360:\n        /* \"#utility.yul\":11421:11753   */\n      swap4\n      swap3\n      pop\n      pop\n      pop\n      jump\t// out\n        /* \"#utility.yul\":11759:11875   */\n    tag_240:\n        /* \"#utility.yul\":11829:11850   */\n      tag_362\n        /* \"#utility.yul\":11844:11849   */\n      dup2\n        /* \"#utility.yul\":11829:11850   */\n      tag_207\n      jump\t// in\n    tag_362:\n        /* \"#utility.yul\":11822:11827   */\n      dup2\n        /* \"#utility.yul\":11819:11851   */\n      eq\n        /* \"#utility.yul\":11809:11869   */\n      tag_363\n      jumpi\n        /* \"#utility.yul\":11865:11866   */\n      0x00\n        /* \"#utility.yul\":11862:11863   */\n      dup1\n        /* \"#utility.yul\":11855:11867   */\n      revert\n        /* \"#utility.yul\":11809:11869   */\n    tag_363:\n        /* \"#utility.yul\":11759:11875   */\n      pop\n      jump\t// out\n        /* \"#utility.yul\":11881:12018   */\n    tag_241:\n        /* \"#utility.yul\":11935:11940   */\n      0x00\n        /* \"#utility.yul\":11966:11972   */\n      dup2\n        /* \"#utility.yul\":11960:11973   */\n      mload\n        /* \"#utility.yul\":11951:11973   */\n      swap1\n      pop\n        /* \"#utility.yul\":11982:12012   */\n      tag_365\n        /* \"#utility.yul\":12006:12011   */\n      dup2\n        /* \"#utility.yul\":11982:12012   */\n      tag_240\n      jump\t// in\n    tag_365:\n        /* \"#utility.yul\":11881:12018   */\n      swap3\n      swap2\n      pop\n      pop\n      jump\t// out\n        /* \"#utility.yul\":12024:12369   */\n    tag_172:\n        /* \"#utility.yul\":12091:12097   */\n      0x00\n        /* \"#utility.yul\":12140:12142   */\n      0x20\n        /* \"#utility.yul\":12128:12137   */\n      dup3\n        /* \"#utility.yul\":12119:12126   */\n      dup5\n        /* \"#utility.yul\":12115:12138   */\n      sub\n        /* \"#utility.yul\":12111:12143   */\n      slt\n        /* \"#utility.yul\":12108:12227   */\n      iszero\n      tag_367\n      jumpi\n        /* \"#utility.yul\":12146:12225   */\n      tag_368\n      tag_212\n      jump\t// in\n    tag_368:\n        /* \"#utility.yul\":12108:12227   */\n    tag_367:\n        /* \"#utility.yul\":12266:12267   */\n      0x00\n        /* \"#utility.yul\":12291:12352   */\n      tag_369\n        /* \"#utility.yul\":12344:12351   */\n      dup5\n        /* \"#utility.yul\":12335:12341   */\n      dup3\n        /* \"#utility.yul\":12324:12333   */\n      dup6\n        /* \"#utility.yul\":12320:12342   */\n      add\n        /* \"#utility.yul\":12291:12352   */\n      tag_241\n      jump\t// in\n    tag_369:\n        /* \"#utility.yul\":12281:12352   */\n      swap2\n      pop\n        /* \"#utility.yul\":12237:12362   */\n      pop\n        /* \"#utility.yul\":12024:12369   */\n      swap3\n      swap2\n      pop\n      pop\n      jump\t// out\n        /* \"#utility.yul\":12375:12604   */\n    tag_242:\n        /* \"#utility.yul\":12515:12549   */\n      0x5361666545524332303a204552433230206f7065726174696f6e20646964206e\n        /* \"#utility.yul\":12511:12512   */\n      0x00\n        /* \"#utility.yul\":12503:12509   */\n      dup3\n        /* \"#utility.yul\":12499:12513   */\n      add\n        /* \"#utility.yul\":12492:12550   */\n      mstore\n        /* \"#utility.yul\":12584:12596   */\n      0x6f74207375636365656400000000000000000000000000000000000000000000\n        /* \"#utility.yul\":12579:12581   */\n      0x20\n        /* \"#utility.yul\":12571:12577   */\n      dup3\n        /* \"#utility.yul\":12567:12582   */\n      add\n        /* \"#utility.yul\":12560:12597   */\n      mstore\n        /* \"#utility.yul\":12375:12604   */\n      pop\n      jump\t// out\n        /* \"#utility.yul\":12610:12976   */\n    tag_243:\n        /* \"#utility.yul\":12752:12755   */\n      0x00\n        /* \"#utility.yul\":12773:12840   */\n      tag_372\n        /* \"#utility.yul\":12837:12839   */\n      0x2a\n        /* \"#utility.yul\":12832:12835   */\n      dup4\n        /* \"#utility.yul\":12773:12840   */\n      tag_225\n      jump\t// in\n    tag_372:\n        /* \"#utility.yul\":12766:12840   */\n      swap2\n      pop\n        /* \"#utility.yul\":12849:12942   */\n      tag_373\n        /* \"#utility.yul\":12938:12941   */\n      dup3\n        /* \"#utility.yul\":12849:12942   */\n      tag_242\n      jump\t// in\n    tag_373:\n        /* \"#utility.yul\":12967:12969   */\n      0x40\n        /* \"#utility.yul\":12962:12965   */\n      dup3\n        /* \"#utility.yul\":12958:12970   */\n      add\n        /* \"#utility.yul\":12951:12970   */\n      swap1\n      pop\n        /* \"#utility.yul\":12610:12976   */\n      swap2\n      swap1\n      pop\n      jump\t// out\n        /* \"#utility.yul\":12982:13401   */\n    tag_175:\n        /* \"#utility.yul\":13148:13152   */\n      0x00\n        /* \"#utility.yul\":13186:13188   */\n      0x20\n        /* \"#utility.yul\":13175:13184   */\n      dup3\n        /* \"#utility.yul\":13171:13189   */\n      add\n        /* \"#utility.yul\":13163:13189   */\n      swap1\n      pop\n        /* \"#utility.yul\":13235:13244   */\n      dup2\n        /* \"#utility.yul\":13229:13233   */\n      dup2\n        /* \"#utility.yul\":13225:13245   */\n      sub\n        /* \"#utility.yul\":13221:13222   */\n      0x00\n        /* \"#utility.yul\":13210:13219   */\n      dup4\n        /* \"#utility.yul\":13206:13223   */\n      add\n        /* \"#utility.yul\":13199:13246   */\n      mstore\n        /* \"#utility.yul\":13263:13394   */\n      tag_375\n        /* \"#utility.yul\":13389:13393   */\n      dup2\n        /* \"#utility.yul\":13263:13394   */\n      tag_243\n      jump\t// in\n    tag_375:\n        /* \"#utility.yul\":13255:13394   */\n      swap1\n      pop\n        /* \"#utility.yul\":12982:13401   */\n      swap2\n      swap1\n      pop\n      jump\t// out\n        /* \"#utility.yul\":13407:13632   */\n    tag_244:\n        /* \"#utility.yul\":13547:13581   */\n      0x416464726573733a20696e73756666696369656e742062616c616e636520666f\n        /* \"#utility.yul\":13543:13544   */\n      0x00\n        /* \"#utility.yul\":13535:13541   */\n      dup3\n        /* \"#utility.yul\":13531:13545   */\n      add\n        /* \"#utility.yul\":13524:13582   */\n      mstore\n        /* \"#utility.yul\":13616:13624   */\n      0x722063616c6c0000000000000000000000000000000000000000000000000000\n        /* \"#utility.yul\":13611:13613   */\n      0x20\n        /* \"#utility.yul\":13603:13609   */\n      dup3\n        /* \"#utility.yul\":13599:13614   */\n      add\n        /* \"#utility.yul\":13592:13625   */\n      mstore\n        /* \"#utility.yul\":13407:13632   */\n      pop\n      jump\t// out\n        /* \"#utility.yul\":13638:14004   */\n    tag_245:\n        /* \"#utility.yul\":13780:13783   */\n      0x00\n        /* \"#utility.yul\":13801:13868   */\n      tag_378\n        /* \"#utility.yul\":13865:13867   */\n      0x26\n        /* \"#utility.yul\":13860:13863   */\n      dup4\n        /* \"#utility.yul\":13801:13868   */\n      tag_225\n      jump\t// in\n    tag_378:\n        /* \"#utility.yul\":13794:13868   */\n      swap2\n      pop\n        /* \"#utility.yul\":13877:13970   */\n      tag_379\n        /* \"#utility.yul\":13966:13969   */\n      dup3\n        /* \"#utility.yul\":13877:13970   */\n      tag_244\n      jump\t// in\n    tag_379:\n        /* \"#utility.yul\":13995:13997   */\n      0x40\n        /* \"#utility.yul\":13990:13993   */\n      dup3\n        /* \"#utility.yul\":13986:13998   */\n      add\n        /* \"#utility.yul\":13979:13998   */\n      swap1\n      pop\n        /* \"#utility.yul\":13638:14004   */\n      swap2\n      swap1\n      pop\n      jump\t// out\n        /* \"#utility.yul\":14010:14429   */\n    tag_182:\n        /* \"#utility.yul\":14176:14180   */\n      0x00\n        /* \"#utility.yul\":14214:14216   */\n      0x20\n        /* \"#utility.yul\":14203:14212   */\n      dup3\n        /* \"#utility.yul\":14199:14217   */\n      add\n        /* \"#utility.yul\":14191:14217   */\n      swap1\n      pop\n        /* \"#utility.yul\":14263:14272   */\n      dup2\n        /* \"#utility.yul\":14257:14261   */\n      dup2\n        /* \"#utility.yul\":14253:14273   */\n      sub\n        /* \"#utility.yul\":14249:14250   */\n      0x00\n        /* \"#utility.yul\":14238:14247   */\n      dup4\n        /* \"#utility.yul\":14234:14251   */\n      add\n        /* \"#utility.yul\":14227:14274   */\n      mstore\n        /* \"#utility.yul\":14291:14422   */\n      tag_381\n        /* \"#utility.yul\":14417:14421   */\n      dup2\n        /* \"#utility.yul\":14291:14422   */\n      tag_245\n      jump\t// in\n    tag_381:\n        /* \"#utility.yul\":14283:14422   */\n      swap1\n      pop\n        /* \"#utility.yul\":14010:14429   */\n      swap2\n      swap1\n      pop\n      jump\t// out\n        /* \"#utility.yul\":14435:14533   */\n    tag_246:\n        /* \"#utility.yul\":14486:14492   */\n      0x00\n        /* \"#utility.yul\":14520:14525   */\n      dup2\n        /* \"#utility.yul\":14514:14526   */\n      mload\n        /* \"#utility.yul\":14504:14526   */\n      swap1\n      pop\n        /* \"#utility.yul\":14435:14533   */\n      swap2\n      swap1\n      pop\n      jump\t// out\n        /* \"#utility.yul\":14539:14686   */\n    tag_247:\n        /* \"#utility.yul\":14640:14651   */\n      0x00\n        /* \"#utility.yul\":14677:14680   */\n      dup2\n        /* \"#utility.yul\":14662:14680   */\n      swap1\n      pop\n        /* \"#utility.yul\":14539:14686   */\n      swap3\n      swap2\n      pop\n      pop\n      jump\t// out\n        /* \"#utility.yul\":14692:14938   */\n    tag_248:\n        /* \"#utility.yul\":14773:14774   */\n      0x00\n        /* \"#utility.yul\":14783:14896   */\n    tag_385:\n        /* \"#utility.yul\":14797:14803   */\n      dup4\n        /* \"#utility.yul\":14794:14795   */\n      dup2\n        /* \"#utility.yul\":14791:14804   */\n      lt\n        /* \"#utility.yul\":14783:14896   */\n      iszero\n      tag_387\n      jumpi\n        /* \"#utility.yul\":14882:14883   */\n      dup1\n        /* \"#utility.yul\":14877:14880   */\n      dup3\n        /* \"#utility.yul\":14873:14884   */\n      add\n        /* \"#utility.yul\":14867:14885   */\n      mload\n        /* \"#utility.yul\":14863:14864   */\n      dup2\n        /* \"#utility.yul\":14858:14861   */\n      dup5\n        /* \"#utility.yul\":14854:14865   */\n      add\n        /* \"#utility.yul\":14847:14886   */\n      mstore\n        /* \"#utility.yul\":14819:14821   */\n      0x20\n        /* \"#utility.yul\":14816:14817   */\n      dup2\n        /* \"#utility.yul\":14812:14822   */\n      add\n        /* \"#utility.yul\":14807:14822   */\n      swap1\n      pop\n        /* \"#utility.yul\":14783:14896   */\n      jump(tag_385)\n    tag_387:\n        /* \"#utility.yul\":14930:14931   */\n      0x00\n        /* \"#utility.yul\":14921:14927   */\n      dup5\n        /* \"#utility.yul\":14916:14919   */\n      dup5\n        /* \"#utility.yul\":14912:14928   */\n      add\n        /* \"#utility.yul\":14905:14932   */\n      mstore\n        /* \"#utility.yul\":14754:14938   */\n      pop\n        /* \"#utility.yul\":14692:14938   */\n      pop\n      pop\n      pop\n      jump\t// out\n        /* \"#utility.yul\":14944:15330   */\n    tag_249:\n        /* \"#utility.yul\":15048:15051   */\n      0x00\n        /* \"#utility.yul\":15076:15114   */\n      tag_389\n        /* \"#utility.yul\":15108:15113   */\n      dup3\n        /* \"#utility.yul\":15076:15114   */\n      tag_246\n      jump\t// in\n    tag_389:\n        /* \"#utility.yul\":15130:15218   */\n      tag_390\n        /* \"#utility.yul\":15211:15217   */\n      dup2\n        /* \"#utility.yul\":15206:15209   */\n      dup6\n        /* \"#utility.yul\":15130:15218   */\n      tag_247\n      jump\t// in\n    tag_390:\n        /* \"#utility.yul\":15123:15218   */\n      swap4\n      pop\n        /* \"#utility.yul\":15227:15292   */\n      tag_391\n        /* \"#utility.yul\":15285:15291   */\n      dup2\n        /* \"#utility.yul\":15280:15283   */\n      dup6\n        /* \"#utility.yul\":15273:15277   */\n      0x20\n        /* \"#utility.yul\":15266:15271   */\n      dup7\n        /* \"#utility.yul\":15262:15278   */\n      add\n        /* \"#utility.yul\":15227:15292   */\n      tag_248\n      jump\t// in\n    tag_391:\n        /* \"#utility.yul\":15317:15323   */\n      dup1\n        /* \"#utility.yul\":15312:15315   */\n      dup5\n        /* \"#utility.yul\":15308:15324   */\n      add\n        /* \"#utility.yul\":15301:15324   */\n      swap2\n      pop\n        /* \"#utility.yul\":15052:15330   */\n      pop\n        /* \"#utility.yul\":14944:15330   */\n      swap3\n      swap2\n      pop\n      pop\n      jump\t// out\n        /* \"#utility.yul\":15336:15607   */\n    tag_184:\n        /* \"#utility.yul\":15466:15469   */\n      0x00\n        /* \"#utility.yul\":15488:15581   */\n      tag_393\n        /* \"#utility.yul\":15577:15580   */\n      dup3\n        /* \"#utility.yul\":15568:15574   */\n      dup5\n        /* \"#utility.yul\":15488:15581   */\n      tag_249\n      jump\t// in\n    tag_393:\n        /* \"#utility.yul\":15481:15581   */\n      swap2\n      pop\n        /* \"#utility.yul\":15598:15601   */\n      dup2\n        /* \"#utility.yul\":15591:15601   */\n      swap1\n      pop\n        /* \"#utility.yul\":15336:15607   */\n      swap3\n      swap2\n      pop\n      pop\n      jump\t// out\n        /* \"#utility.yul\":15613:15792   */\n    tag_250:\n        /* \"#utility.yul\":15753:15784   */\n      0x416464726573733a2063616c6c20746f206e6f6e2d636f6e7472616374000000\n        /* \"#utility.yul\":15749:15750   */\n      0x00\n        /* \"#utility.yul\":15741:15747   */\n      dup3\n        /* \"#utility.yul\":15737:15751   */\n      add\n        /* \"#utility.yul\":15730:15785   */\n      mstore\n        /* \"#utility.yul\":15613:15792   */\n      pop\n      jump\t// out\n        /* \"#utility.yul\":15798:16164   */\n    tag_251:\n        /* \"#utility.yul\":15940:15943   */\n      0x00\n        /* \"#utility.yul\":15961:16028   */\n      tag_396\n        /* \"#utility.yul\":16025:16027   */\n      0x1d\n        /* \"#utility.yul\":16020:16023   */\n      dup4\n        /* \"#utility.yul\":15961:16028   */\n      tag_225\n      jump\t// in\n    tag_396:\n        /* \"#utility.yul\":15954:16028   */\n      swap2\n      pop\n        /* \"#utility.yul\":16037:16130   */\n      tag_397\n        /* \"#utility.yul\":16126:16129   */\n      dup3\n        /* \"#utility.yul\":16037:16130   */\n      tag_250\n      jump\t// in\n    tag_397:\n        /* \"#utility.yul\":16155:16157   */\n      0x20\n        /* \"#utility.yul\":16150:16153   */\n      dup3\n        /* \"#utility.yul\":16146:16158   */\n      add\n        /* \"#utility.yul\":16139:16158   */\n      swap1\n      pop\n        /* \"#utility.yul\":15798:16164   */\n      swap2\n      swap1\n      pop\n      jump\t// out\n        /* \"#utility.yul\":16170:16589   */\n    tag_197:\n        /* \"#utility.yul\":16336:16340   */\n      0x00\n        /* \"#utility.yul\":16374:16376   */\n      0x20\n        /* \"#utility.yul\":16363:16372   */\n      dup3\n        /* \"#utility.yul\":16359:16377   */\n      add\n        /* \"#utility.yul\":16351:16377   */\n      swap1\n      pop\n        /* \"#utility.yul\":16423:16432   */\n      dup2\n        /* \"#utility.yul\":16417:16421   */\n      dup2\n        /* \"#utility.yul\":16413:16433   */\n      sub\n        /* \"#utility.yul\":16409:16410   */\n      0x00\n        /* \"#utility.yul\":16398:16407   */\n      dup4\n        /* \"#utility.yul\":16394:16411   */\n      add\n        /* \"#utility.yul\":16387:16434   */\n      mstore\n        /* \"#utility.yul\":16451:16582   */\n      tag_399\n        /* \"#utility.yul\":16577:16581   */\n      dup2\n        /* \"#utility.yul\":16451:16582   */\n      tag_251\n      jump\t// in\n    tag_399:\n        /* \"#utility.yul\":16443:16582   */\n      swap1\n      pop\n        /* \"#utility.yul\":16170:16589   */\n      swap2\n      swap1\n      pop\n      jump\t// out\n        /* \"#utility.yul\":16595:16694   */\n    tag_252:\n        /* \"#utility.yul\":16647:16653   */\n      0x00\n        /* \"#utility.yul\":16681:16686   */\n      dup2\n        /* \"#utility.yul\":16675:16687   */\n      mload\n        /* \"#utility.yul\":16665:16687   */\n      swap1\n      pop\n        /* \"#utility.yul\":16595:16694   */\n      swap2\n      swap1\n      pop\n      jump\t// out\n        /* \"#utility.yul\":16700:16802   */\n    tag_253:\n        /* \"#utility.yul\":16741:16747   */\n      0x00\n        /* \"#utility.yul\":16792:16794   */\n      0x1f\n        /* \"#utility.yul\":16788:16795   */\n      not\n        /* \"#utility.yul\":16783:16785   */\n      0x1f\n        /* \"#utility.yul\":16776:16781   */\n      dup4\n        /* \"#utility.yul\":16772:16786   */\n      add\n        /* \"#utility.yul\":16768:16796   */\n      and\n        /* \"#utility.yul\":16758:16796   */\n      swap1\n      pop\n        /* \"#utility.yul\":16700:16802   */\n      swap2\n      swap1\n      pop\n      jump\t// out\n        /* \"#utility.yul\":16808:17185   */\n    tag_254:\n        /* \"#utility.yul\":16896:16899   */\n      0x00\n        /* \"#utility.yul\":16924:16963   */\n      tag_403\n        /* \"#utility.yul\":16957:16962   */\n      dup3\n        /* \"#utility.yul\":16924:16963   */\n      tag_252\n      jump\t// in\n    tag_403:\n        /* \"#utility.yul\":16979:17050   */\n      tag_404\n        /* \"#utility.yul\":17043:17049   */\n      dup2\n        /* \"#utility.yul\":17038:17041   */\n      dup6\n        /* \"#utility.yul\":16979:17050   */\n      tag_225\n      jump\t// in\n    tag_404:\n        /* \"#utility.yul\":16972:17050   */\n      swap4\n      pop\n        /* \"#utility.yul\":17059:17124   */\n      tag_405\n        /* \"#utility.yul\":17117:17123   */\n      dup2\n        /* \"#utility.yul\":17112:17115   */\n      dup6\n        /* \"#utility.yul\":17105:17109   */\n      0x20\n        /* \"#utility.yul\":17098:17103   */\n      dup7\n        /* \"#utility.yul\":17094:17110   */\n      add\n        /* \"#utility.yul\":17059:17124   */\n      tag_248\n      jump\t// in\n    tag_405:\n        /* \"#utility.yul\":17149:17178   */\n      tag_406\n        /* \"#utility.yul\":17171:17177   */\n      dup2\n        /* \"#utility.yul\":17149:17178   */\n      tag_253\n      jump\t// in\n    tag_406:\n        /* \"#utility.yul\":17144:17147   */\n      dup5\n        /* \"#utility.yul\":17140:17179   */\n      add\n        /* \"#utility.yul\":17133:17179   */\n      swap2\n      pop\n        /* \"#utility.yul\":16900:17185   */\n      pop\n        /* \"#utility.yul\":16808:17185   */\n      swap3\n      swap2\n      pop\n      pop\n      jump\t// out\n        /* \"#utility.yul\":17191:17504   */\n    tag_206:\n        /* \"#utility.yul\":17304:17308   */\n      0x00\n        /* \"#utility.yul\":17342:17344   */\n      0x20\n        /* \"#utility.yul\":17331:17340   */\n      dup3\n        /* \"#utility.yul\":17327:17345   */\n      add\n        /* \"#utility.yul\":17319:17345   */\n      swap1\n      pop\n        /* \"#utility.yul\":17391:17400   */\n      dup2\n        /* \"#utility.yul\":17385:17389   */\n      dup2\n        /* \"#utility.yul\":17381:17401   */\n      sub\n        /* \"#utility.yul\":17377:17378   */\n      0x00\n        /* \"#utility.yul\":17366:17375   */\n      dup4\n        /* \"#utility.yul\":17362:17379   */\n      add\n        /* \"#utility.yul\":17355:17402   */\n      mstore\n        /* \"#utility.yul\":17419:17497   */\n      tag_408\n        /* \"#utility.yul\":17492:17496   */\n      dup2\n        /* \"#utility.yul\":17483:17489   */\n      dup5\n        /* \"#utility.yul\":17419:17497   */\n      tag_254\n      jump\t// in\n    tag_408:\n        /* \"#utility.yul\":17411:17497   */\n      swap1\n      pop\n        /* \"#utility.yul\":17191:17504   */\n      swap3\n      swap2\n      pop\n      pop\n      jump\t// out\n\n    auxdata: 0xa264697066735822122007e14f23092f317cab5de9731bafd7a034d97897994e3537323c3ce433ba900664736f6c63430008150033\n}\n\nsub_1: assembly {\n        /* \"crowdsale/distribution/postDeliveryCrowdsale.sol\":2481:2660  contract __unstable__TokenVault is Secondary {... */\n      mstore(0x40, 0x80)\n      callvalue\n      dup1\n      iszero\n      tag_1\n      jumpi\n      0x00\n      dup1\n      revert\n    tag_1:\n      pop\n        /* \"crowdsale/secondary.sol\":577:594  address msgSender */\n      0x00\n        /* \"crowdsale/secondary.sol\":597:609  _msgSender() */\n      tag_4\n        /* \"crowdsale/secondary.sol\":597:607  _msgSender */\n      shl(0x20, tag_5)\n        /* \"crowdsale/secondary.sol\":597:609  _msgSender() */\n      0x20\n      shr\n      jump\t// in\n    tag_4:\n        /* \"crowdsale/secondary.sol\":577:609  address msgSender = _msgSender() */\n      swap1\n      pop\n        /* \"crowdsale/secondary.sol\":631:640  msgSender */\n      dup1\n        /* \"crowdsale/secondary.sol\":620:628  _primary */\n      0x00\n      dup1\n        /* \"crowdsale/secondary.sol\":620:640  _primary = msgSender */\n      0x0100\n      exp\n      dup2\n      sload\n      dup2\n      0xffffffffffffffffffffffffffffffffffffffff\n      mul\n      not\n      and\n      swap1\n      dup4\n      0xffffffffffffffffffffffffffffffffffffffff\n      and\n      mul\n      or\n      swap1\n      sstore\n      pop\n        /* \"crowdsale/secondary.sol\":656:685  PrimaryTransferred(msgSender) */\n      0x4101e71e974f68df5e9730cc223280b41654676bbb052cdcc735c3337e64d2d9\n        /* \"crowdsale/secondary.sol\":675:684  msgSender */\n      dup2\n        /* \"crowdsale/secondary.sol\":656:685  PrimaryTransferred(msgSender) */\n      mload(0x40)\n      tag_6\n      swap2\n      swap1\n      tag_7\n      jump\t// in\n    tag_6:\n      mload(0x40)\n      dup1\n      swap2\n      sub\n      swap1\n      log1\n        /* \"crowdsale/secondary.sol\":566:693  {... */\n      pop\n        /* \"crowdsale/distribution/postDeliveryCrowdsale.sol\":2481:2660  contract __unstable__TokenVault is Secondary {... */\n      jump(tag_8)\n        /* \"@openzeppelin/contracts/utils/Context.sol\":656:752  function _msgSender() internal view virtual returns (address) {... */\n    tag_5:\n        /* \"@openzeppelin/contracts/utils/Context.sol\":709:716  address */\n      0x00\n        /* \"@openzeppelin/contracts/utils/Context.sol\":735:745  msg.sender */\n      caller\n        /* \"@openzeppelin/contracts/utils/Context.sol\":728:745  return msg.sender */\n      swap1\n      pop\n        /* \"@openzeppelin/contracts/utils/Context.sol\":656:752  function _msgSender() internal view virtual returns (address) {... */\n      swap1\n      jump\t// out\n        /* \"#utility.yul\":7:133   */\n    tag_10:\n        /* \"#utility.yul\":44:51   */\n      0x00\n        /* \"#utility.yul\":84:126   */\n      0xffffffffffffffffffffffffffffffffffffffff\n        /* \"#utility.yul\":77:82   */\n      dup3\n        /* \"#utility.yul\":73:127   */\n      and\n        /* \"#utility.yul\":62:127   */\n      swap1\n      pop\n        /* \"#utility.yul\":7:133   */\n      swap2\n      swap1\n      pop\n      jump\t// out\n        /* \"#utility.yul\":139:235   */\n    tag_11:\n        /* \"#utility.yul\":176:183   */\n      0x00\n        /* \"#utility.yul\":205:229   */\n      tag_16\n        /* \"#utility.yul\":223:228   */\n      dup3\n        /* \"#utility.yul\":205:229   */\n      tag_10\n      jump\t// in\n    tag_16:\n        /* \"#utility.yul\":194:229   */\n      swap1\n      pop\n        /* \"#utility.yul\":139:235   */\n      swap2\n      swap1\n      pop\n      jump\t// out\n        /* \"#utility.yul\":241:359   */\n    tag_12:\n        /* \"#utility.yul\":328:352   */\n      tag_18\n        /* \"#utility.yul\":346:351   */\n      dup2\n        /* \"#utility.yul\":328:352   */\n      tag_11\n      jump\t// in\n    tag_18:\n        /* \"#utility.yul\":323:326   */\n      dup3\n        /* \"#utility.yul\":316:353   */\n      mstore\n        /* \"#utility.yul\":241:359   */\n      pop\n      pop\n      jump\t// out\n        /* \"#utility.yul\":365:587   */\n    tag_7:\n        /* \"#utility.yul\":458:462   */\n      0x00\n        /* \"#utility.yul\":496:498   */\n      0x20\n        /* \"#utility.yul\":485:494   */\n      dup3\n        /* \"#utility.yul\":481:499   */\n      add\n        /* \"#utility.yul\":473:499   */\n      swap1\n      pop\n        /* \"#utility.yul\":509:580   */\n      tag_20\n        /* \"#utility.yul\":577:578   */\n      0x00\n        /* \"#utility.yul\":566:575   */\n      dup4\n        /* \"#utility.yul\":562:579   */\n      add\n        /* \"#utility.yul\":553:559   */\n      dup5\n        /* \"#utility.yul\":509:580   */\n      tag_12\n      jump\t// in\n    tag_20:\n        /* \"#utility.yul\":365:587   */\n      swap3\n      swap2\n      pop\n      pop\n      jump\t// out\n        /* \"crowdsale/distribution/postDeliveryCrowdsale.sol\":2481:2660  contract __unstable__TokenVault is Secondary {... */\n    tag_8:\n      dataSize(sub_0)\n      dup1\n      dataOffset(sub_0)\n      0x00\n      codecopy\n      0x00\n      return\n    stop\n\n    sub_0: assembly {\n            /* \"crowdsale/distribution/postDeliveryCrowdsale.sol\":2481:2660  contract __unstable__TokenVault is Secondary {... */\n          mstore(0x40, 0x80)\n          callvalue\n          dup1\n          iszero\n          tag_1\n          jumpi\n          0x00\n          dup1\n          revert\n        tag_1:\n          pop\n          jumpi(tag_2, lt(calldatasize, 0x04))\n          shr(0xe0, calldataload(0x00))\n          dup1\n          0x2348238c\n          eq\n          tag_3\n          jumpi\n          dup1\n          0xbeabacc8\n          eq\n          tag_4\n          jumpi\n          dup1\n          0xc6dbdf61\n          eq\n          tag_5\n          jumpi\n        tag_2:\n          0x00\n          dup1\n          revert\n            /* \"crowdsale/secondary.sol\":1208:1444  function transferPrimary(address recipient) public onlyPrimary {... */\n        tag_3:\n          tag_6\n          0x04\n          dup1\n          calldatasize\n          sub\n          dup2\n          add\n          swap1\n          tag_7\n          swap2\n          swap1\n          tag_8\n          jump\t// in\n        tag_7:\n          tag_9\n          jump\t// in\n        tag_6:\n          stop\n            /* \"crowdsale/distribution/postDeliveryCrowdsale.sol\":2533:2657  function transfer(IERC20 token, address to, uint256 amount) public onlyPrimary {... */\n        tag_4:\n          tag_10\n          0x04\n          dup1\n          calldatasize\n          sub\n          dup2\n          add\n          swap1\n          tag_11\n          swap2\n          swap1\n          tag_12\n          jump\t// in\n        tag_11:\n          tag_13\n          jump\t// in\n        tag_10:\n          stop\n            /* \"crowdsale/secondary.sol\":996:1079  function primary() public view returns (address) {... */\n        tag_5:\n          tag_14\n          tag_15\n          jump\t// in\n        tag_14:\n          mload(0x40)\n          tag_16\n          swap2\n          swap1\n          tag_17\n          jump\t// in\n        tag_16:\n          mload(0x40)\n          dup1\n          swap2\n          sub\n          swap1\n          return\n            /* \"crowdsale/secondary.sol\":1208:1444  function transferPrimary(address recipient) public onlyPrimary {... */\n        tag_9:\n            /* \"crowdsale/secondary.sol\":849:857  _primary */\n          0x00\n          dup1\n          sload\n          swap1\n          0x0100\n          exp\n          swap1\n          div\n          0xffffffffffffffffffffffffffffffffffffffff\n          and\n            /* \"crowdsale/secondary.sol\":833:857  _msgSender() == _primary */\n          0xffffffffffffffffffffffffffffffffffffffff\n          and\n            /* \"crowdsale/secondary.sol\":833:845  _msgSender() */\n          tag_19\n            /* \"crowdsale/secondary.sol\":833:843  _msgSender */\n          tag_20\n            /* \"crowdsale/secondary.sol\":833:845  _msgSender() */\n          jump\t// in\n        tag_19:\n            /* \"crowdsale/secondary.sol\":833:857  _msgSender() == _primary */\n          0xffffffffffffffffffffffffffffffffffffffff\n          and\n          eq\n            /* \"crowdsale/secondary.sol\":825:906  require(_msgSender() == _primary, \"Secondary: caller is not the primary account\") */\n          tag_21\n          jumpi\n          mload(0x40)\n          0x08c379a000000000000000000000000000000000000000000000000000000000\n          dup2\n          mstore\n          0x04\n          add\n          tag_22\n          swap1\n          tag_23\n          jump\t// in\n        tag_22:\n          mload(0x40)\n          dup1\n          swap2\n          sub\n          swap1\n          revert\n        tag_21:\n            /* \"crowdsale/secondary.sol\":1311:1312  0 */\n          0x00\n            /* \"crowdsale/secondary.sol\":1290:1313  recipient != address(0) */\n          0xffffffffffffffffffffffffffffffffffffffff\n          and\n            /* \"crowdsale/secondary.sol\":1290:1299  recipient */\n          dup2\n            /* \"crowdsale/secondary.sol\":1290:1313  recipient != address(0) */\n          0xffffffffffffffffffffffffffffffffffffffff\n          and\n          sub\n            /* \"crowdsale/secondary.sol\":1282:1360  require(recipient != address(0), \"Secondary: new primary is the zero address\") */\n          tag_25\n          jumpi\n          mload(0x40)\n          0x08c379a000000000000000000000000000000000000000000000000000000000\n          dup2\n          mstore\n          0x04\n          add\n          tag_26\n          swap1\n          tag_27\n          jump\t// in\n        tag_26:\n          mload(0x40)\n          dup1\n          swap2\n          sub\n          swap1\n          revert\n        tag_25:\n            /* \"crowdsale/secondary.sol\":1382:1391  recipient */\n          dup1\n            /* \"crowdsale/secondary.sol\":1371:1379  _primary */\n          0x00\n          dup1\n            /* \"crowdsale/secondary.sol\":1371:1391  _primary = recipient */\n          0x0100\n          exp\n          dup2\n          sload\n          dup2\n          0xffffffffffffffffffffffffffffffffffffffff\n          mul\n          not\n          and\n          swap1\n          dup4\n          0xffffffffffffffffffffffffffffffffffffffff\n          and\n          mul\n          or\n          swap1\n          sstore\n          pop\n            /* \"crowdsale/secondary.sol\":1407:1436  PrimaryTransferred(recipient) */\n          0x4101e71e974f68df5e9730cc223280b41654676bbb052cdcc735c3337e64d2d9\n            /* \"crowdsale/secondary.sol\":1426:1435  recipient */\n          dup2\n            /* \"crowdsale/secondary.sol\":1407:1436  PrimaryTransferred(recipient) */\n          mload(0x40)\n          tag_28\n          swap2\n          swap1\n          tag_17\n          jump\t// in\n        tag_28:\n          mload(0x40)\n          dup1\n          swap2\n          sub\n          swap1\n          log1\n            /* \"crowdsale/secondary.sol\":1208:1444  function transferPrimary(address recipient) public onlyPrimary {... */\n          pop\n          jump\t// out\n            /* \"crowdsale/distribution/postDeliveryCrowdsale.sol\":2533:2657  function transfer(IERC20 token, address to, uint256 amount) public onlyPrimary {... */\n        tag_13:\n            /* \"crowdsale/secondary.sol\":849:857  _primary */\n          0x00\n          dup1\n          sload\n          swap1\n          0x0100\n          exp\n          swap1\n          div\n          0xffffffffffffffffffffffffffffffffffffffff\n          and\n            /* \"crowdsale/secondary.sol\":833:857  _msgSender() == _primary */\n          0xffffffffffffffffffffffffffffffffffffffff\n          and\n            /* \"crowdsale/secondary.sol\":833:845  _msgSender() */\n          tag_30\n            /* \"crowdsale/secondary.sol\":833:843  _msgSender */\n          tag_20\n            /* \"crowdsale/secondary.sol\":833:845  _msgSender() */\n          jump\t// in\n        tag_30:\n            /* \"crowdsale/secondary.sol\":833:857  _msgSender() == _primary */\n          0xffffffffffffffffffffffffffffffffffffffff\n          and\n          eq\n            /* \"crowdsale/secondary.sol\":825:906  require(_msgSender() == _primary, \"Secondary: caller is not the primary account\") */\n          tag_31\n          jumpi\n          mload(0x40)\n          0x08c379a000000000000000000000000000000000000000000000000000000000\n          dup2\n          mstore\n          0x04\n          add\n          tag_32\n          swap1\n          tag_23\n          jump\t// in\n        tag_32:\n          mload(0x40)\n          dup1\n          swap2\n          sub\n          swap1\n          revert\n        tag_31:\n            /* \"crowdsale/distribution/postDeliveryCrowdsale.sol\":2623:2628  token */\n          dup3\n            /* \"crowdsale/distribution/postDeliveryCrowdsale.sol\":2623:2637  token.transfer */\n          0xffffffffffffffffffffffffffffffffffffffff\n          and\n          0xa9059cbb\n            /* \"crowdsale/distribution/postDeliveryCrowdsale.sol\":2638:2640  to */\n          dup4\n            /* \"crowdsale/distribution/postDeliveryCrowdsale.sol\":2642:2648  amount */\n          dup4\n            /* \"crowdsale/distribution/postDeliveryCrowdsale.sol\":2623:2649  token.transfer(to, amount) */\n          mload(0x40)\n          dup4\n          0xffffffff\n          and\n          0xe0\n          shl\n          dup2\n          mstore\n          0x04\n          add\n          tag_34\n          swap3\n          swap2\n          swap1\n          tag_35\n          jump\t// in\n        tag_34:\n          0x20\n          mload(0x40)\n          dup1\n          dup4\n          sub\n          dup2\n          0x00\n          dup8\n          gas\n          call\n          iszero\n          dup1\n          iszero\n          tag_37\n          jumpi\n          returndatasize\n          0x00\n          dup1\n          returndatacopy\n          revert(0x00, returndatasize)\n        tag_37:\n          pop\n          pop\n          pop\n          pop\n          mload(0x40)\n          returndatasize\n          not(0x1f)\n          0x1f\n          dup3\n          add\n          and\n          dup3\n          add\n          dup1\n          0x40\n          mstore\n          pop\n          dup2\n          add\n          swap1\n          tag_38\n          swap2\n          swap1\n          tag_39\n          jump\t// in\n        tag_38:\n          pop\n            /* \"crowdsale/distribution/postDeliveryCrowdsale.sol\":2533:2657  function transfer(IERC20 token, address to, uint256 amount) public onlyPrimary {... */\n          pop\n          pop\n          pop\n          jump\t// out\n            /* \"crowdsale/secondary.sol\":996:1079  function primary() public view returns (address) {... */\n        tag_15:\n            /* \"crowdsale/secondary.sol\":1036:1043  address */\n          0x00\n            /* \"crowdsale/secondary.sol\":1063:1071  _primary */\n          dup1\n          0x00\n          swap1\n          sload\n          swap1\n          0x0100\n          exp\n          swap1\n          div\n          0xffffffffffffffffffffffffffffffffffffffff\n          and\n            /* \"crowdsale/secondary.sol\":1056:1071  return _primary */\n          swap1\n          pop\n            /* \"crowdsale/secondary.sol\":996:1079  function primary() public view returns (address) {... */\n          swap1\n          jump\t// out\n            /* \"@openzeppelin/contracts/utils/Context.sol\":656:752  function _msgSender() internal view virtual returns (address) {... */\n        tag_20:\n            /* \"@openzeppelin/contracts/utils/Context.sol\":709:716  address */\n          0x00\n            /* \"@openzeppelin/contracts/utils/Context.sol\":735:745  msg.sender */\n          caller\n            /* \"@openzeppelin/contracts/utils/Context.sol\":728:745  return msg.sender */\n          swap1\n          pop\n            /* \"@openzeppelin/contracts/utils/Context.sol\":656:752  function _msgSender() internal view virtual returns (address) {... */\n          swap1\n          jump\t// out\n            /* \"#utility.yul\":88:205   */\n        tag_43:\n            /* \"#utility.yul\":197:198   */\n          0x00\n            /* \"#utility.yul\":194:195   */\n          dup1\n            /* \"#utility.yul\":187:199   */\n          revert\n            /* \"#utility.yul\":334:460   */\n        tag_45:\n            /* \"#utility.yul\":371:378   */\n          0x00\n            /* \"#utility.yul\":411:453   */\n          0xffffffffffffffffffffffffffffffffffffffff\n            /* \"#utility.yul\":404:409   */\n          dup3\n            /* \"#utility.yul\":400:454   */\n          and\n            /* \"#utility.yul\":389:454   */\n          swap1\n          pop\n            /* \"#utility.yul\":334:460   */\n          swap2\n          swap1\n          pop\n          jump\t// out\n            /* \"#utility.yul\":466:562   */\n        tag_46:\n            /* \"#utility.yul\":503:510   */\n          0x00\n            /* \"#utility.yul\":532:556   */\n          tag_71\n            /* \"#utility.yul\":550:555   */\n          dup3\n            /* \"#utility.yul\":532:556   */\n          tag_45\n          jump\t// in\n        tag_71:\n            /* \"#utility.yul\":521:556   */\n          swap1\n          pop\n            /* \"#utility.yul\":466:562   */\n          swap2\n          swap1\n          pop\n          jump\t// out\n            /* \"#utility.yul\":568:690   */\n        tag_47:\n            /* \"#utility.yul\":641:665   */\n          tag_73\n            /* \"#utility.yul\":659:664   */\n          dup2\n            /* \"#utility.yul\":641:665   */\n          tag_46\n          jump\t// in\n        tag_73:\n            /* \"#utility.yul\":634:639   */\n          dup2\n            /* \"#utility.yul\":631:666   */\n          eq\n            /* \"#utility.yul\":621:684   */\n          tag_74\n          jumpi\n            /* \"#utility.yul\":680:681   */\n          0x00\n            /* \"#utility.yul\":677:678   */\n          dup1\n            /* \"#utility.yul\":670:682   */\n          revert\n            /* \"#utility.yul\":621:684   */\n        tag_74:\n            /* \"#utility.yul\":568:690   */\n          pop\n          jump\t// out\n            /* \"#utility.yul\":696:835   */\n        tag_48:\n            /* \"#utility.yul\":742:747   */\n          0x00\n            /* \"#utility.yul\":780:786   */\n          dup2\n            /* \"#utility.yul\":767:787   */\n          calldataload\n            /* \"#utility.yul\":758:787   */\n          swap1\n          pop\n            /* \"#utility.yul\":796:829   */\n          tag_76\n            /* \"#utility.yul\":823:828   */\n          dup2\n            /* \"#utility.yul\":796:829   */\n          tag_47\n          jump\t// in\n        tag_76:\n            /* \"#utility.yul\":696:835   */\n          swap3\n          swap2\n          pop\n          pop\n          jump\t// out\n            /* \"#utility.yul\":841:1170   */\n        tag_8:\n            /* \"#utility.yul\":900:906   */\n          0x00\n            /* \"#utility.yul\":949:951   */\n          0x20\n            /* \"#utility.yul\":937:946   */\n          dup3\n            /* \"#utility.yul\":928:935   */\n          dup5\n            /* \"#utility.yul\":924:947   */\n          sub\n            /* \"#utility.yul\":920:952   */\n          slt\n            /* \"#utility.yul\":917:1036   */\n          iszero\n          tag_78\n          jumpi\n            /* \"#utility.yul\":955:1034   */\n          tag_79\n          tag_43\n          jump\t// in\n        tag_79:\n            /* \"#utility.yul\":917:1036   */\n        tag_78:\n            /* \"#utility.yul\":1075:1076   */\n          0x00\n            /* \"#utility.yul\":1100:1153   */\n          tag_80\n            /* \"#utility.yul\":1145:1152   */\n          dup5\n            /* \"#utility.yul\":1136:1142   */\n          dup3\n            /* \"#utility.yul\":1125:1134   */\n          dup6\n            /* \"#utility.yul\":1121:1143   */\n          add\n            /* \"#utility.yul\":1100:1153   */\n          tag_48\n          jump\t// in\n        tag_80:\n            /* \"#utility.yul\":1090:1153   */\n          swap2\n          pop\n            /* \"#utility.yul\":1046:1163   */\n          pop\n            /* \"#utility.yul\":841:1170   */\n          swap3\n          swap2\n          pop\n          pop\n          jump\t// out\n            /* \"#utility.yul\":1176:1286   */\n        tag_49:\n            /* \"#utility.yul\":1227:1234   */\n          0x00\n            /* \"#utility.yul\":1256:1280   */\n          tag_82\n            /* \"#utility.yul\":1274:1279   */\n          dup3\n            /* \"#utility.yul\":1256:1280   */\n          tag_46\n          jump\t// in\n        tag_82:\n            /* \"#utility.yul\":1245:1280   */\n          swap1\n          pop\n            /* \"#utility.yul\":1176:1286   */\n          swap2\n          swap1\n          pop\n          jump\t// out\n            /* \"#utility.yul\":1292:1442   */\n        tag_50:\n            /* \"#utility.yul\":1379:1417   */\n          tag_84\n            /* \"#utility.yul\":1411:1416   */\n          dup2\n            /* \"#utility.yul\":1379:1417   */\n          tag_49\n          jump\t// in\n        tag_84:\n            /* \"#utility.yul\":1372:1377   */\n          dup2\n            /* \"#utility.yul\":1369:1418   */\n          eq\n            /* \"#utility.yul\":1359:1436   */\n          tag_85\n          jumpi\n            /* \"#utility.yul\":1432:1433   */\n          0x00\n            /* \"#utility.yul\":1429:1430   */\n          dup1\n            /* \"#utility.yul\":1422:1434   */\n          revert\n            /* \"#utility.yul\":1359:1436   */\n        tag_85:\n            /* \"#utility.yul\":1292:1442   */\n          pop\n          jump\t// out\n            /* \"#utility.yul\":1448:1615   */\n        tag_51:\n            /* \"#utility.yul\":1508:1513   */\n          0x00\n            /* \"#utility.yul\":1546:1552   */\n          dup2\n            /* \"#utility.yul\":1533:1553   */\n          calldataload\n            /* \"#utility.yul\":1524:1553   */\n          swap1\n          pop\n            /* \"#utility.yul\":1562:1609   */\n          tag_87\n            /* \"#utility.yul\":1603:1608   */\n          dup2\n            /* \"#utility.yul\":1562:1609   */\n          tag_50\n          jump\t// in\n        tag_87:\n            /* \"#utility.yul\":1448:1615   */\n          swap3\n          swap2\n          pop\n          pop\n          jump\t// out\n            /* \"#utility.yul\":1621:1698   */\n        tag_52:\n            /* \"#utility.yul\":1658:1665   */\n          0x00\n            /* \"#utility.yul\":1687:1692   */\n          dup2\n            /* \"#utility.yul\":1676:1692   */\n          swap1\n          pop\n            /* \"#utility.yul\":1621:1698   */\n          swap2\n          swap1\n          pop\n          jump\t// out\n            /* \"#utility.yul\":1704:1826   */\n        tag_53:\n            /* \"#utility.yul\":1777:1801   */\n          tag_90\n            /* \"#utility.yul\":1795:1800   */\n          dup2\n            /* \"#utility.yul\":1777:1801   */\n          tag_52\n          jump\t// in\n        tag_90:\n            /* \"#utility.yul\":1770:1775   */\n          dup2\n            /* \"#utility.yul\":1767:1802   */\n          eq\n            /* \"#utility.yul\":1757:1820   */\n          tag_91\n          jumpi\n            /* \"#utility.yul\":1816:1817   */\n          0x00\n            /* \"#utility.yul\":1813:1814   */\n          dup1\n            /* \"#utility.yul\":1806:1818   */\n          revert\n            /* \"#utility.yul\":1757:1820   */\n        tag_91:\n            /* \"#utility.yul\":1704:1826   */\n          pop\n          jump\t// out\n            /* \"#utility.yul\":1832:1971   */\n        tag_54:\n            /* \"#utility.yul\":1878:1883   */\n          0x00\n            /* \"#utility.yul\":1916:1922   */\n          dup2\n            /* \"#utility.yul\":1903:1923   */\n          calldataload\n            /* \"#utility.yul\":1894:1923   */\n          swap1\n          pop\n            /* \"#utility.yul\":1932:1965   */\n          tag_93\n            /* \"#utility.yul\":1959:1964   */\n          dup2\n            /* \"#utility.yul\":1932:1965   */\n          tag_53\n          jump\t// in\n        tag_93:\n            /* \"#utility.yul\":1832:1971   */\n          swap3\n          swap2\n          pop\n          pop\n          jump\t// out\n            /* \"#utility.yul\":1977:2624   */\n        tag_12:\n            /* \"#utility.yul\":2068:2074   */\n          0x00\n            /* \"#utility.yul\":2076:2082   */\n          dup1\n            /* \"#utility.yul\":2084:2090   */\n          0x00\n            /* \"#utility.yul\":2133:2135   */\n          0x60\n            /* \"#utility.yul\":2121:2130   */\n          dup5\n            /* \"#utility.yul\":2112:2119   */\n          dup7\n            /* \"#utility.yul\":2108:2131   */\n          sub\n            /* \"#utility.yul\":2104:2136   */\n          slt\n            /* \"#utility.yul\":2101:2220   */\n          iszero\n          tag_95\n          jumpi\n            /* \"#utility.yul\":2139:2218   */\n          tag_96\n          tag_43\n          jump\t// in\n        tag_96:\n            /* \"#utility.yul\":2101:2220   */\n        tag_95:\n            /* \"#utility.yul\":2259:2260   */\n          0x00\n            /* \"#utility.yul\":2284:2351   */\n          tag_97\n            /* \"#utility.yul\":2343:2350   */\n          dup7\n            /* \"#utility.yul\":2334:2340   */\n          dup3\n            /* \"#utility.yul\":2323:2332   */\n          dup8\n            /* \"#utility.yul\":2319:2341   */\n          add\n            /* \"#utility.yul\":2284:2351   */\n          tag_51\n          jump\t// in\n        tag_97:\n            /* \"#utility.yul\":2274:2351   */\n          swap4\n          pop\n            /* \"#utility.yul\":2230:2361   */\n          pop\n            /* \"#utility.yul\":2400:2402   */\n          0x20\n            /* \"#utility.yul\":2426:2479   */\n          tag_98\n            /* \"#utility.yul\":2471:2478   */\n          dup7\n            /* \"#utility.yul\":2462:2468   */\n          dup3\n            /* \"#utility.yul\":2451:2460   */\n          dup8\n            /* \"#utility.yul\":2447:2469   */\n          add\n            /* \"#utility.yul\":2426:2479   */\n          tag_48\n          jump\t// in\n        tag_98:\n            /* \"#utility.yul\":2416:2479   */\n          swap3\n          pop\n            /* \"#utility.yul\":2371:2489   */\n          pop\n            /* \"#utility.yul\":2528:2530   */\n          0x40\n            /* \"#utility.yul\":2554:2607   */\n          tag_99\n            /* \"#utility.yul\":2599:2606   */\n          dup7\n            /* \"#utility.yul\":2590:2596   */\n          dup3\n            /* \"#utility.yul\":2579:2588   */\n          dup8\n            /* \"#utility.yul\":2575:2597   */\n          add\n            /* \"#utility.yul\":2554:2607   */\n          tag_54\n          jump\t// in\n        tag_99:\n            /* \"#utility.yul\":2544:2607   */\n          swap2\n          pop\n            /* \"#utility.yul\":2499:2617   */\n          pop\n            /* \"#utility.yul\":1977:2624   */\n          swap3\n          pop\n          swap3\n          pop\n          swap3\n          jump\t// out\n            /* \"#utility.yul\":2630:2748   */\n        tag_55:\n            /* \"#utility.yul\":2717:2741   */\n          tag_101\n            /* \"#utility.yul\":2735:2740   */\n          dup2\n            /* \"#utility.yul\":2717:2741   */\n          tag_46\n          jump\t// in\n        tag_101:\n            /* \"#utility.yul\":2712:2715   */\n          dup3\n            /* \"#utility.yul\":2705:2742   */\n          mstore\n            /* \"#utility.yul\":2630:2748   */\n          pop\n          pop\n          jump\t// out\n            /* \"#utility.yul\":2754:2976   */\n        tag_17:\n            /* \"#utility.yul\":2847:2851   */\n          0x00\n            /* \"#utility.yul\":2885:2887   */\n          0x20\n            /* \"#utility.yul\":2874:2883   */\n          dup3\n            /* \"#utility.yul\":2870:2888   */\n          add\n            /* \"#utility.yul\":2862:2888   */\n          swap1\n          pop\n            /* \"#utility.yul\":2898:2969   */\n          tag_103\n            /* \"#utility.yul\":2966:2967   */\n          0x00\n            /* \"#utility.yul\":2955:2964   */\n          dup4\n            /* \"#utility.yul\":2951:2968   */\n          add\n            /* \"#utility.yul\":2942:2948   */\n          dup5\n            /* \"#utility.yul\":2898:2969   */\n          tag_55\n          jump\t// in\n        tag_103:\n            /* \"#utility.yul\":2754:2976   */\n          swap3\n          swap2\n          pop\n          pop\n          jump\t// out\n            /* \"#utility.yul\":2982:3151   */\n        tag_56:\n            /* \"#utility.yul\":3066:3077   */\n          0x00\n            /* \"#utility.yul\":3100:3106   */\n          dup3\n            /* \"#utility.yul\":3095:3098   */\n          dup3\n            /* \"#utility.yul\":3088:3107   */\n          mstore\n            /* \"#utility.yul\":3140:3144   */\n          0x20\n            /* \"#utility.yul\":3135:3138   */\n          dup3\n            /* \"#utility.yul\":3131:3145   */\n          add\n            /* \"#utility.yul\":3116:3145   */\n          swap1\n          pop\n            /* \"#utility.yul\":2982:3151   */\n          swap3\n          swap2\n          pop\n          pop\n          jump\t// out\n            /* \"#utility.yul\":3157:3388   */\n        tag_57:\n            /* \"#utility.yul\":3297:3331   */\n          0x5365636f6e646172793a2063616c6c6572206973206e6f742074686520707269\n            /* \"#utility.yul\":3293:3294   */\n          0x00\n            /* \"#utility.yul\":3285:3291   */\n          dup3\n            /* \"#utility.yul\":3281:3295   */\n          add\n            /* \"#utility.yul\":3274:3332   */\n          mstore\n            /* \"#utility.yul\":3366:3380   */\n          0x6d617279206163636f756e740000000000000000000000000000000000000000\n            /* \"#utility.yul\":3361:3363   */\n          0x20\n            /* \"#utility.yul\":3353:3359   */\n          dup3\n            /* \"#utility.yul\":3349:3364   */\n          add\n            /* \"#utility.yul\":3342:3381   */\n          mstore\n            /* \"#utility.yul\":3157:3388   */\n          pop\n          jump\t// out\n            /* \"#utility.yul\":3394:3760   */\n        tag_58:\n            /* \"#utility.yul\":3536:3539   */\n          0x00\n            /* \"#utility.yul\":3557:3624   */\n          tag_107\n            /* \"#utility.yul\":3621:3623   */\n          0x2c\n            /* \"#utility.yul\":3616:3619   */\n          dup4\n            /* \"#utility.yul\":3557:3624   */\n          tag_56\n          jump\t// in\n        tag_107:\n            /* \"#utility.yul\":3550:3624   */\n          swap2\n          pop\n            /* \"#utility.yul\":3633:3726   */\n          tag_108\n            /* \"#utility.yul\":3722:3725   */\n          dup3\n            /* \"#utility.yul\":3633:3726   */\n          tag_57\n          jump\t// in\n        tag_108:\n            /* \"#utility.yul\":3751:3753   */\n          0x40\n            /* \"#utility.yul\":3746:3749   */\n          dup3\n            /* \"#utility.yul\":3742:3754   */\n          add\n            /* \"#utility.yul\":3735:3754   */\n          swap1\n          pop\n            /* \"#utility.yul\":3394:3760   */\n          swap2\n          swap1\n          pop\n          jump\t// out\n            /* \"#utility.yul\":3766:4185   */\n        tag_23:\n            /* \"#utility.yul\":3932:3936   */\n          0x00\n            /* \"#utility.yul\":3970:3972   */\n          0x20\n            /* \"#utility.yul\":3959:3968   */\n          dup3\n            /* \"#utility.yul\":3955:3973   */\n          add\n            /* \"#utility.yul\":3947:3973   */\n          swap1\n          pop\n            /* \"#utility.yul\":4019:4028   */\n          dup2\n            /* \"#utility.yul\":4013:4017   */\n          dup2\n            /* \"#utility.yul\":4009:4029   */\n          sub\n            /* \"#utility.yul\":4005:4006   */\n          0x00\n            /* \"#utility.yul\":3994:4003   */\n          dup4\n            /* \"#utility.yul\":3990:4007   */\n          add\n            /* \"#utility.yul\":3983:4030   */\n          mstore\n            /* \"#utility.yul\":4047:4178   */\n          tag_110\n            /* \"#utility.yul\":4173:4177   */\n          dup2\n            /* \"#utility.yul\":4047:4178   */\n          tag_58\n          jump\t// in\n        tag_110:\n            /* \"#utility.yul\":4039:4178   */\n          swap1\n          pop\n            /* \"#utility.yul\":3766:4185   */\n          swap2\n          swap1\n          pop\n          jump\t// out\n            /* \"#utility.yul\":4191:4420   */\n        tag_59:\n            /* \"#utility.yul\":4331:4365   */\n          0x5365636f6e646172793a206e6577207072696d61727920697320746865207a65\n            /* \"#utility.yul\":4327:4328   */\n          0x00\n            /* \"#utility.yul\":4319:4325   */\n          dup3\n            /* \"#utility.yul\":4315:4329   */\n          add\n            /* \"#utility.yul\":4308:4366   */\n          mstore\n            /* \"#utility.yul\":4400:4412   */\n          0x726f206164647265737300000000000000000000000000000000000000000000\n            /* \"#utility.yul\":4395:4397   */\n          0x20\n            /* \"#utility.yul\":4387:4393   */\n          dup3\n            /* \"#utility.yul\":4383:4398   */\n          add\n            /* \"#utility.yul\":4376:4413   */\n          mstore\n            /* \"#utility.yul\":4191:4420   */\n          pop\n          jump\t// out\n            /* \"#utility.yul\":4426:4792   */\n        tag_60:\n            /* \"#utility.yul\":4568:4571   */\n          0x00\n            /* \"#utility.yul\":4589:4656   */\n          tag_113\n            /* \"#utility.yul\":4653:4655   */\n          0x2a\n            /* \"#utility.yul\":4648:4651   */\n          dup4\n            /* \"#utility.yul\":4589:4656   */\n          tag_56\n          jump\t// in\n        tag_113:\n            /* \"#utility.yul\":4582:4656   */\n          swap2\n          pop\n            /* \"#utility.yul\":4665:4758   */\n          tag_114\n            /* \"#utility.yul\":4754:4757   */\n          dup3\n            /* \"#utility.yul\":4665:4758   */\n          tag_59\n          jump\t// in\n        tag_114:\n            /* \"#utility.yul\":4783:4785   */\n          0x40\n            /* \"#utility.yul\":4778:4781   */\n          dup3\n            /* \"#utility.yul\":4774:4786   */\n          add\n            /* \"#utility.yul\":4767:4786   */\n          swap1\n          pop\n            /* \"#utility.yul\":4426:4792   */\n          swap2\n          swap1\n          pop\n          jump\t// out\n            /* \"#utility.yul\":4798:5217   */\n        tag_27:\n            /* \"#utility.yul\":4964:4968   */\n          0x00\n            /* \"#utility.yul\":5002:5004   */\n          0x20\n            /* \"#utility.yul\":4991:5000   */\n          dup3\n            /* \"#utility.yul\":4987:5005   */\n          add\n            /* \"#utility.yul\":4979:5005   */\n          swap1\n          pop\n            /* \"#utility.yul\":5051:5060   */\n          dup2\n            /* \"#utility.yul\":5045:5049   */\n          dup2\n            /* \"#utility.yul\":5041:5061   */\n          sub\n            /* \"#utility.yul\":5037:5038   */\n          0x00\n            /* \"#utility.yul\":5026:5035   */\n          dup4\n            /* \"#utility.yul\":5022:5039   */\n          add\n            /* \"#utility.yul\":5015:5062   */\n          mstore\n            /* \"#utility.yul\":5079:5210   */\n          tag_116\n            /* \"#utility.yul\":5205:5209   */\n          dup2\n            /* \"#utility.yul\":5079:5210   */\n          tag_60\n          jump\t// in\n        tag_116:\n            /* \"#utility.yul\":5071:5210   */\n          swap1\n          pop\n            /* \"#utility.yul\":4798:5217   */\n          swap2\n          swap1\n          pop\n          jump\t// out\n            /* \"#utility.yul\":5223:5341   */\n        tag_61:\n            /* \"#utility.yul\":5310:5334   */\n          tag_118\n            /* \"#utility.yul\":5328:5333   */\n          dup2\n            /* \"#utility.yul\":5310:5334   */\n          tag_52\n          jump\t// in\n        tag_118:\n            /* \"#utility.yul\":5305:5308   */\n          dup3\n            /* \"#utility.yul\":5298:5335   */\n          mstore\n            /* \"#utility.yul\":5223:5341   */\n          pop\n          pop\n          jump\t// out\n            /* \"#utility.yul\":5347:5679   */\n        tag_35:\n            /* \"#utility.yul\":5468:5472   */\n          0x00\n            /* \"#utility.yul\":5506:5508   */\n          0x40\n            /* \"#utility.yul\":5495:5504   */\n          dup3\n            /* \"#utility.yul\":5491:5509   */\n          add\n            /* \"#utility.yul\":5483:5509   */\n          swap1\n          pop\n            /* \"#utility.yul\":5519:5590   */\n          tag_120\n            /* \"#utility.yul\":5587:5588   */\n          0x00\n            /* \"#utility.yul\":5576:5585   */\n          dup4\n            /* \"#utility.yul\":5572:5589   */\n          add\n            /* \"#utility.yul\":5563:5569   */\n          dup6\n            /* \"#utility.yul\":5519:5590   */\n          tag_55\n          jump\t// in\n        tag_120:\n            /* \"#utility.yul\":5600:5672   */\n          tag_121\n            /* \"#utility.yul\":5668:5670   */\n          0x20\n            /* \"#utility.yul\":5657:5666   */\n          dup4\n            /* \"#utility.yul\":5653:5671   */\n          add\n            /* \"#utility.yul\":5644:5650   */\n          dup5\n            /* \"#utility.yul\":5600:5672   */\n          tag_61\n          jump\t// in\n        tag_121:\n            /* \"#utility.yul\":5347:5679   */\n          swap4\n          swap3\n          pop\n          pop\n          pop\n          jump\t// out\n            /* \"#utility.yul\":5685:5775   */\n        tag_62:\n            /* \"#utility.yul\":5719:5726   */\n          0x00\n            /* \"#utility.yul\":5762:5767   */\n          dup2\n            /* \"#utility.yul\":5755:5768   */\n          iszero\n            /* \"#utility.yul\":5748:5769   */\n          iszero\n            /* \"#utility.yul\":5737:5769   */\n          swap1\n          pop\n            /* \"#utility.yul\":5685:5775   */\n          swap2\n          swap1\n          pop\n          jump\t// out\n            /* \"#utility.yul\":5781:5897   */\n        tag_63:\n            /* \"#utility.yul\":5851:5872   */\n          tag_124\n            /* \"#utility.yul\":5866:5871   */\n          dup2\n            /* \"#utility.yul\":5851:5872   */\n          tag_62\n          jump\t// in\n        tag_124:\n            /* \"#utility.yul\":5844:5849   */\n          dup2\n            /* \"#utility.yul\":5841:5873   */\n          eq\n            /* \"#utility.yul\":5831:5891   */\n          tag_125\n          jumpi\n            /* \"#utility.yul\":5887:5888   */\n          0x00\n            /* \"#utility.yul\":5884:5885   */\n          dup1\n            /* \"#utility.yul\":5877:5889   */\n          revert\n            /* \"#utility.yul\":5831:5891   */\n        tag_125:\n            /* \"#utility.yul\":5781:5897   */\n          pop\n          jump\t// out\n            /* \"#utility.yul\":5903:6040   */\n        tag_64:\n            /* \"#utility.yul\":5957:5962   */\n          0x00\n            /* \"#utility.yul\":5988:5994   */\n          dup2\n            /* \"#utility.yul\":5982:5995   */\n          mload\n            /* \"#utility.yul\":5973:5995   */\n          swap1\n          pop\n            /* \"#utility.yul\":6004:6034   */\n          tag_127\n            /* \"#utility.yul\":6028:6033   */\n          dup2\n            /* \"#utility.yul\":6004:6034   */\n          tag_63\n          jump\t// in\n        tag_127:\n            /* \"#utility.yul\":5903:6040   */\n          swap3\n          swap2\n          pop\n          pop\n          jump\t// out\n            /* \"#utility.yul\":6046:6391   */\n        tag_39:\n            /* \"#utility.yul\":6113:6119   */\n          0x00\n            /* \"#utility.yul\":6162:6164   */\n          0x20\n            /* \"#utility.yul\":6150:6159   */\n          dup3\n            /* \"#utility.yul\":6141:6148   */\n          dup5\n            /* \"#utility.yul\":6137:6160   */\n          sub\n            /* \"#utility.yul\":6133:6165   */\n          slt\n            /* \"#utility.yul\":6130:6249   */\n          iszero\n          tag_129\n          jumpi\n            /* \"#utility.yul\":6168:6247   */\n          tag_130\n          tag_43\n          jump\t// in\n        tag_130:\n            /* \"#utility.yul\":6130:6249   */\n        tag_129:\n            /* \"#utility.yul\":6288:6289   */\n          0x00\n            /* \"#utility.yul\":6313:6374   */\n          tag_131\n            /* \"#utility.yul\":6366:6373   */\n          dup5\n            /* \"#utility.yul\":6357:6363   */\n          dup3\n            /* \"#utility.yul\":6346:6355   */\n          dup6\n            /* \"#utility.yul\":6342:6364   */\n          add\n            /* \"#utility.yul\":6313:6374   */\n          tag_64\n          jump\t// in\n        tag_131:\n            /* \"#utility.yul\":6303:6374   */\n          swap2\n          pop\n            /* \"#utility.yul\":6259:6384   */\n          pop\n            /* \"#utility.yul\":6046:6391   */\n          swap3\n          swap2\n          pop\n          pop\n          jump\t// out\n\n        auxdata: 0xa26469706673582212201e1839a1fb87d318c869d576154acf3817d56d8f75ebc0ad4b8b455df7f055ed64736f6c63430008150033\n    }\n}\n",
				"bytecode": {
					"linkReferences": {},
					"object": "608060405234801562000010575f80fd5b506040516200242438038062002424833981810160405281019062000036919062000407565b848484848482828260015f819055505f83116200008a576040517f08c379a00000000000000000000000000000000000000000000000000000000081526004016200008190620004e9565b60405180910390fd5b5f73ffffffffffffffffffffffffffffffffffffffff168273ffffffffffffffffffffffffffffffffffffffff1603620000fb576040517f08c379a0000000000000000000000000000000000000000000000000000000008152600401620000f2906200057d565b60405180910390fd5b5f73ffffffffffffffffffffffffffffffffffffffff168173ffffffffffffffffffffffffffffffffffffffff16036200016c576040517f08c379a0000000000000000000000000000000000000000000000000000000008152600401620001639062000611565b60405180910390fd5b826003819055508160025f6101000a81548173ffffffffffffffffffffffffffffffffffffffff021916908373ffffffffffffffffffffffffffffffffffffffff1602179055508060015f6101000a81548173ffffffffffffffffffffffffffffffffffffffff021916908373ffffffffffffffffffffffffffffffffffffffff160217905550505050428510156200023c576040517f08c379a00000000000000000000000000000000000000000000000000000000081526004016200023390620006a5565b60405180910390fd5b84841162000281576040517f08c379a0000000000000000000000000000000000000000000000000000000008152600401620002789062000739565b60405180910390fd5b84600581905550836006819055505050505050604051620002a29062000307565b604051809103905ff080158015620002bc573d5f803e3d5ffd5b5060085f6101000a81548173ffffffffffffffffffffffffffffffffffffffff021916908373ffffffffffffffffffffffffffffffffffffffff160217905550505050505062000759565b6107c78062001c5d83390190565b5f80fd5b5f819050919050565b6200032d8162000319565b811462000338575f80fd5b50565b5f815190506200034b8162000322565b92915050565b5f73ffffffffffffffffffffffffffffffffffffffff82169050919050565b5f6200037c8262000351565b9050919050565b6200038e8162000370565b811462000399575f80fd5b50565b5f81519050620003ac8162000383565b92915050565b5f620003be8262000351565b9050919050565b5f620003d182620003b2565b9050919050565b620003e381620003c5565b8114620003ee575f80fd5b50565b5f815190506200040181620003d8565b92915050565b5f805f805f60a0868803121562000423576200042262000315565b5b5f62000432888289016200033b565b955050602062000445888289016200033b565b945050604062000458888289016200033b565b93505060606200046b888289016200039c565b92505060806200047e88828901620003f1565b9150509295509295909350565b5f82825260208201905092915050565b7f43726f776473616c653a207261746520697320300000000000000000000000005f82015250565b5f620004d16014836200048b565b9150620004de826200049b565b602082019050919050565b5f6020820190508181035f8301526200050281620004c3565b9050919050565b7f43726f776473616c653a2077616c6c657420697320746865207a65726f2061645f8201527f6472657373000000000000000000000000000000000000000000000000000000602082015250565b5f620005656025836200048b565b9150620005728262000509565b604082019050919050565b5f6020820190508181035f830152620005968162000557565b9050919050565b7f43726f776473616c653a20746f6b656e20697320746865207a65726f206164645f8201527f7265737300000000000000000000000000000000000000000000000000000000602082015250565b5f620005f96024836200048b565b915062000606826200059d565b604082019050919050565b5f6020820190508181035f8301526200062a81620005eb565b9050919050565b7f54696d656443726f776473616c653a206f70656e696e672074696d65206973205f8201527f6265666f72652063757272656e742074696d6500000000000000000000000000602082015250565b5f6200068d6033836200048b565b91506200069a8262000631565b604082019050919050565b5f6020820190508181035f830152620006be816200067f565b9050919050565b7f54696d656443726f776473616c653a206f70656e696e672074696d65206973205f8201527f6e6f74206265666f726520636c6f73696e672074696d65000000000000000000602082015250565b5f620007216037836200048b565b91506200072e82620006c5565b604082019050919050565b5f6020820190508181035f830152620007528162000713565b9050919050565b6114f680620007675f395ff3fe60806040526004361061009f575f3560e01c80634b6753bc116100635780634b6753bc14610198578063521eb273146101c257806370a08231146101ec578063b7a8807c14610228578063ec8ac4d814610252578063fc0c546a1461026e576100b6565b80631515bc2b146100c85780632c4e722e146100f25780634042b66f1461011c57806347535d7b1461014657806349df728c14610170576100b6565b366100b6576100b46100af610298565b61029f565b005b6100c66100c1610298565b61029f565b005b3480156100d3575f80fd5b506100dc61037d565b6040516100e99190610c4e565b60405180910390f35b3480156100fd575f80fd5b50610106610388565b6040516101139190610c7f565b60405180910390f35b348015610127575f80fd5b50610130610391565b60405161013d9190610c7f565b60405180910390f35b348015610151575f80fd5b5061015a61039a565b6040516101679190610c4e565b60405180910390f35b34801561017b575f80fd5b5061019660048036038101906101919190610cf6565b6103b4565b005b3480156101a3575f80fd5b506101ac610556565b6040516101b99190610c7f565b60405180910390f35b3480156101cd575f80fd5b506101d661055f565b6040516101e39190610d41565b60405180910390f35b3480156101f7575f80fd5b50610212600480360381019061020d9190610cf6565b610587565b60405161021f9190610c7f565b60405180910390f35b348015610233575f80fd5b5061023c6105cd565b6040516102499190610c7f565b60405180910390f35b61026c60048036038101906102679190610cf6565b61029f565b005b348015610279575f80fd5b506102826105d6565b60405161028f9190610db5565b60405180910390f35b5f33905090565b6102a76105fe565b5f3490506102b5828261064b565b5f6102bf826106a0565b90506102d6826004546106bd90919063ffffffff16565b6004819055506102e683826106d2565b8273ffffffffffffffffffffffffffffffffffffffff16610305610298565b73ffffffffffffffffffffffffffffffffffffffff167f6faf93231a456e552dbc9961f58d9713ee4f2e69d15f1975b050ef0911053a7b848460405161034c929190610dce565b60405180910390a361035e8383610792565b610366610796565b61037083836107fd565b505061037a610801565b50565b5f6006544211905090565b5f600354905090565b5f600454905090565b5f60055442101580156103af57506006544211155b905090565b6103bc61037d565b6103fb576040517f08c379a00000000000000000000000000000000000000000000000000000000081526004016103f290610e75565b60405180910390fd5b5f60075f8373ffffffffffffffffffffffffffffffffffffffff1673ffffffffffffffffffffffffffffffffffffffff1681526020019081526020015f205490505f811161047e576040517f08c379a000000000000000000000000000000000000000000000000000000000815260040161047590610f03565b60405180910390fd5b5f60075f8473ffffffffffffffffffffffffffffffffffffffff1673ffffffffffffffffffffffffffffffffffffffff1681526020019081526020015f208190555060085f9054906101000a900473ffffffffffffffffffffffffffffffffffffffff1673ffffffffffffffffffffffffffffffffffffffff1663beabacc86105056105d6565b84846040518463ffffffff1660e01b815260040161052593929190610f30565b5f604051808303815f87803b15801561053c575f80fd5b505af115801561054e573d5f803e3d5ffd5b505050505050565b5f600654905090565b5f60025f9054906101000a900473ffffffffffffffffffffffffffffffffffffffff16905090565b5f60075f8373ffffffffffffffffffffffffffffffffffffffff1673ffffffffffffffffffffffffffffffffffffffff1681526020019081526020015f20549050919050565b5f600554905090565b5f60015f9054906101000a900473ffffffffffffffffffffffffffffffffffffffff16905090565b60025f5403610642576040517f08c379a000000000000000000000000000000000000000000000000000000000815260040161063990610faf565b60405180910390fd5b60025f81905550565b61065361039a565b610692576040517f08c379a000000000000000000000000000000000000000000000000000000000815260040161068990611017565b60405180910390fd5b61069c828261080a565b5050565b5f6106b6600354836108be90919063ffffffff16565b9050919050565b5f81836106ca9190611062565b905092915050565b6107228160075f8573ffffffffffffffffffffffffffffffffffffffff1673ffffffffffffffffffffffffffffffffffffffff1681526020019081526020015f20546106bd90919063ffffffff16565b60075f8473ffffffffffffffffffffffffffffffffffffffff1673ffffffffffffffffffffffffffffffffffffffff1681526020019081526020015f208190555061078e60085f9054906101000a900473ffffffffffffffffffffffffffffffffffffffff16826108d3565b5050565b5050565b60025f9054906101000a900473ffffffffffffffffffffffffffffffffffffffff1673ffffffffffffffffffffffffffffffffffffffff166108fc3490811502906040515f60405180830381858888f193505050501580156107fa573d5f803e3d5ffd5b50565b5050565b60015f81905550565b5f73ffffffffffffffffffffffffffffffffffffffff168273ffffffffffffffffffffffffffffffffffffffff1603610878576040517f08c379a000000000000000000000000000000000000000000000000000000000815260040161086f90611105565b60405180910390fd5b5f81036108ba576040517f08c379a00000000000000000000000000000000000000000000000000000000081526004016108b19061116d565b60405180910390fd5b5050565b5f81836108cb919061118b565b905092915050565b61091f828260015f9054906101000a900473ffffffffffffffffffffffffffffffffffffffff1673ffffffffffffffffffffffffffffffffffffffff166109239092919063ffffffff16565b5050565b6109a48363a9059cbb60e01b84846040516024016109429291906111cc565b604051602081830303815290604052907bffffffffffffffffffffffffffffffffffffffffffffffffffffffff19166020820180517bffffffffffffffffffffffffffffffffffffffffffffffffffffffff83818316178352505050506109a9565b505050565b5f610a0a826040518060400160405280602081526020017f5361666545524332303a206c6f772d6c6576656c2063616c6c206661696c65648152508573ffffffffffffffffffffffffffffffffffffffff16610a6f9092919063ffffffff16565b90505f81511480610a2b575080806020019051810190610a2a919061121d565b5b610a6a576040517f08c379a0000000000000000000000000000000000000000000000000000000008152600401610a61906112b8565b60405180910390fd5b505050565b6060610a7d84845f85610a86565b90509392505050565b606082471015610acb576040517f08c379a0000000000000000000000000000000000000000000000000000000008152600401610ac290611346565b60405180910390fd5b5f808673ffffffffffffffffffffffffffffffffffffffff168587604051610af391906113d0565b5f6040518083038185875af1925050503d805f8114610b2d576040519150601f19603f3d011682016040523d82523d5f602084013e610b32565b606091505b5091509150610b4387838387610b4f565b92505050949350505050565b60608315610bb0575f835103610ba857610b6885610bc3565b610ba7576040517f08c379a0000000000000000000000000000000000000000000000000000000008152600401610b9e90611430565b60405180910390fd5b5b829050610bbb565b610bba8383610be5565b5b949350505050565b5f808273ffffffffffffffffffffffffffffffffffffffff163b119050919050565b5f82511115610bf75781518083602001fd5b806040517f08c379a0000000000000000000000000000000000000000000000000000000008152600401610c2b91906114a0565b60405180910390fd5b5f8115159050919050565b610c4881610c34565b82525050565b5f602082019050610c615f830184610c3f565b92915050565b5f819050919050565b610c7981610c67565b82525050565b5f602082019050610c925f830184610c70565b92915050565b5f80fd5b5f73ffffffffffffffffffffffffffffffffffffffff82169050919050565b5f610cc582610c9c565b9050919050565b610cd581610cbb565b8114610cdf575f80fd5b50565b5f81359050610cf081610ccc565b92915050565b5f60208284031215610d0b57610d0a610c98565b5b5f610d1884828501610ce2565b91505092915050565b5f610d2b82610c9c565b9050919050565b610d3b81610d21565b82525050565b5f602082019050610d545f830184610d32565b92915050565b5f819050919050565b5f610d7d610d78610d7384610c9c565b610d5a565b610c9c565b9050919050565b5f610d8e82610d63565b9050919050565b5f610d9f82610d84565b9050919050565b610daf81610d95565b82525050565b5f602082019050610dc85f830184610da6565b92915050565b5f604082019050610de15f830185610c70565b610dee6020830184610c70565b9392505050565b5f82825260208201905092915050565b7f506f737444656c697665727943726f776473616c653a206e6f7420636c6f73655f8201527f6400000000000000000000000000000000000000000000000000000000000000602082015250565b5f610e5f602183610df5565b9150610e6a82610e05565b604082019050919050565b5f6020820190508181035f830152610e8c81610e53565b9050919050565b7f506f737444656c697665727943726f776473616c653a2062656e6566696369615f8201527f7279206973206e6f742064756520616e7920746f6b656e730000000000000000602082015250565b5f610eed603883610df5565b9150610ef882610e93565b604082019050919050565b5f6020820190508181035f830152610f1a81610ee1565b9050919050565b610f2a81610cbb565b82525050565b5f606082019050610f435f830186610da6565b610f506020830185610f21565b610f5d6040830184610c70565b949350505050565b7f5265656e7472616e637947756172643a207265656e7472616e742063616c6c005f82015250565b5f610f99601f83610df5565b9150610fa482610f65565b602082019050919050565b5f6020820190508181035f830152610fc681610f8d565b9050919050565b7f54696d656443726f776473616c653a206e6f74206f70656e00000000000000005f82015250565b5f611001601883610df5565b915061100c82610fcd565b602082019050919050565b5f6020820190508181035f83015261102e81610ff5565b9050919050565b7f4e487b71000000000000000000000000000000000000000000000000000000005f52601160045260245ffd5b5f61106c82610c67565b915061107783610c67565b925082820190508082111561108f5761108e611035565b5b92915050565b7f43726f776473616c653a2062656e656669636961727920697320746865207a655f8201527f726f206164647265737300000000000000000000000000000000000000000000602082015250565b5f6110ef602a83610df5565b91506110fa82611095565b604082019050919050565b5f6020820190508181035f83015261111c816110e3565b9050919050565b7f43726f776473616c653a20776569416d6f756e742069732030000000000000005f82015250565b5f611157601983610df5565b915061116282611123565b602082019050919050565b5f6020820190508181035f8301526111848161114b565b9050919050565b5f61119582610c67565b91506111a083610c67565b92508282026111ae81610c67565b915082820484148315176111c5576111c4611035565b5b5092915050565b5f6040820190506111df5f830185610f21565b6111ec6020830184610c70565b9392505050565b6111fc81610c34565b8114611206575f80fd5b50565b5f81519050611217816111f3565b92915050565b5f6020828403121561123257611231610c98565b5b5f61123f84828501611209565b91505092915050565b7f5361666545524332303a204552433230206f7065726174696f6e20646964206e5f8201527f6f74207375636365656400000000000000000000000000000000000000000000602082015250565b5f6112a2602a83610df5565b91506112ad82611248565b604082019050919050565b5f6020820190508181035f8301526112cf81611296565b9050919050565b7f416464726573733a20696e73756666696369656e742062616c616e636520666f5f8201527f722063616c6c0000000000000000000000000000000000000000000000000000602082015250565b5f611330602683610df5565b915061133b826112d6565b604082019050919050565b5f6020820190508181035f83015261135d81611324565b9050919050565b5f81519050919050565b5f81905092915050565b5f5b8381101561139557808201518184015260208101905061137a565b5f8484015250505050565b5f6113aa82611364565b6113b4818561136e565b93506113c4818560208601611378565b80840191505092915050565b5f6113db82846113a0565b915081905092915050565b7f416464726573733a2063616c6c20746f206e6f6e2d636f6e74726163740000005f82015250565b5f61141a601d83610df5565b9150611425826113e6565b602082019050919050565b5f6020820190508181035f8301526114478161140e565b9050919050565b5f81519050919050565b5f601f19601f8301169050919050565b5f6114728261144e565b61147c8185610df5565b935061148c818560208601611378565b61149581611458565b840191505092915050565b5f6020820190508181035f8301526114b88184611468565b90509291505056fea264697066735822122007e14f23092f317cab5de9731bafd7a034d97897994e3537323c3ce433ba900664736f6c63430008150033608060405234801561000f575f80fd5b505f61001f61009d60201b60201c565b9050805f806101000a81548173ffffffffffffffffffffffffffffffffffffffff021916908373ffffffffffffffffffffffffffffffffffffffff1602179055507f4101e71e974f68df5e9730cc223280b41654676bbb052cdcc735c3337e64d2d98160405161008f91906100e3565b60405180910390a1506100fc565b5f33905090565b5f73ffffffffffffffffffffffffffffffffffffffff82169050919050565b5f6100cd826100a4565b9050919050565b6100dd816100c3565b82525050565b5f6020820190506100f65f8301846100d4565b92915050565b6106be806101095f395ff3fe608060405234801561000f575f80fd5b506004361061003f575f3560e01c80632348238c14610043578063beabacc81461005f578063c6dbdf611461007b575b5f80fd5b61005d600480360381019061005891906103b5565b610099565b005b6100796004803603810190610074919061044e565b610214565b005b610083610329565b60405161009091906104ad565b60405180910390f35b5f8054906101000a900473ffffffffffffffffffffffffffffffffffffffff1673ffffffffffffffffffffffffffffffffffffffff166100d7610350565b73ffffffffffffffffffffffffffffffffffffffff161461012d576040517f08c379a000000000000000000000000000000000000000000000000000000000815260040161012490610546565b60405180910390fd5b5f73ffffffffffffffffffffffffffffffffffffffff168173ffffffffffffffffffffffffffffffffffffffff160361019b576040517f08c379a0000000000000000000000000000000000000000000000000000000008152600401610192906105d4565b60405180910390fd5b805f806101000a81548173ffffffffffffffffffffffffffffffffffffffff021916908373ffffffffffffffffffffffffffffffffffffffff1602179055507f4101e71e974f68df5e9730cc223280b41654676bbb052cdcc735c3337e64d2d98160405161020991906104ad565b60405180910390a150565b5f8054906101000a900473ffffffffffffffffffffffffffffffffffffffff1673ffffffffffffffffffffffffffffffffffffffff16610252610350565b73ffffffffffffffffffffffffffffffffffffffff16146102a8576040517f08c379a000000000000000000000000000000000000000000000000000000000815260040161029f90610546565b60405180910390fd5b8273ffffffffffffffffffffffffffffffffffffffff1663a9059cbb83836040518363ffffffff1660e01b81526004016102e3929190610601565b6020604051808303815f875af11580156102ff573d5f803e3d5ffd5b505050506040513d601f19601f82011682018060405250810190610323919061065d565b50505050565b5f805f9054906101000a900473ffffffffffffffffffffffffffffffffffffffff16905090565b5f33905090565b5f80fd5b5f73ffffffffffffffffffffffffffffffffffffffff82169050919050565b5f6103848261035b565b9050919050565b6103948161037a565b811461039e575f80fd5b50565b5f813590506103af8161038b565b92915050565b5f602082840312156103ca576103c9610357565b5b5f6103d7848285016103a1565b91505092915050565b5f6103ea8261037a565b9050919050565b6103fa816103e0565b8114610404575f80fd5b50565b5f81359050610415816103f1565b92915050565b5f819050919050565b61042d8161041b565b8114610437575f80fd5b50565b5f8135905061044881610424565b92915050565b5f805f6060848603121561046557610464610357565b5b5f61047286828701610407565b9350506020610483868287016103a1565b92505060406104948682870161043a565b9150509250925092565b6104a78161037a565b82525050565b5f6020820190506104c05f83018461049e565b92915050565b5f82825260208201905092915050565b7f5365636f6e646172793a2063616c6c6572206973206e6f7420746865207072695f8201527f6d617279206163636f756e740000000000000000000000000000000000000000602082015250565b5f610530602c836104c6565b915061053b826104d6565b604082019050919050565b5f6020820190508181035f83015261055d81610524565b9050919050565b7f5365636f6e646172793a206e6577207072696d61727920697320746865207a655f8201527f726f206164647265737300000000000000000000000000000000000000000000602082015250565b5f6105be602a836104c6565b91506105c982610564565b604082019050919050565b5f6020820190508181035f8301526105eb816105b2565b9050919050565b6105fb8161041b565b82525050565b5f6040820190506106145f83018561049e565b61062160208301846105f2565b9392505050565b5f8115159050919050565b61063c81610628565b8114610646575f80fd5b50565b5f8151905061065781610633565b92915050565b5f6020828403121561067257610671610357565b5b5f61067f84828501610649565b9150509291505056fea26469706673582212201e1839a1fb87d318c869d576154acf3817d56d8f75ebc0ad4b8b455df7f055ed64736f6c63430008150033",
					"opcodes": "PUSH1 0x80 PUSH1 0x40 MSTORE CALLVALUE DUP1 ISZERO PUSH3 0x10 JUMPI PUSH0 DUP1 REVERT JUMPDEST POP PUSH1 0x40 MLOAD PUSH3 0x2424 CODESIZE SUB DUP1 PUSH3 0x2424 DUP4 CODECOPY DUP2 DUP2 ADD PUSH1 0x40 MSTORE DUP2 ADD SWAP1 PUSH3 0x36 SWAP2 SWAP1 PUSH3 0x407 JUMP JUMPDEST DUP5 DUP5 DUP5 DUP5 DUP5 DUP3 DUP3 DUP3 PUSH1 0x1 PUSH0 DUP2 SWAP1 SSTORE POP PUSH0 DUP4 GT PUSH3 0x8A JUMPI PUSH1 0x40 MLOAD PUSH32 0x8C379A000000000000000000000000000000000000000000000000000000000 DUP2 MSTORE PUSH1 0x4 ADD PUSH3 0x81 SWAP1 PUSH3 0x4E9 JUMP JUMPDEST PUSH1 0x40 MLOAD DUP1 SWAP2 SUB SWAP1 REVERT JUMPDEST PUSH0 PUSH20 0xFFFFFFFFFFFFFFFFFFFFFFFFFFFFFFFFFFFFFFFF AND DUP3 PUSH20 0xFFFFFFFFFFFFFFFFFFFFFFFFFFFFFFFFFFFFFFFF AND SUB PUSH3 0xFB JUMPI PUSH1 0x40 MLOAD PUSH32 0x8C379A000000000000000000000000000000000000000000000000000000000 DUP2 MSTORE PUSH1 0x4 ADD PUSH3 0xF2 SWAP1 PUSH3 0x57D JUMP JUMPDEST PUSH1 0x40 MLOAD DUP1 SWAP2 SUB SWAP1 REVERT JUMPDEST PUSH0 PUSH20 0xFFFFFFFFFFFFFFFFFFFFFFFFFFFFFFFFFFFFFFFF AND DUP2 PUSH20 0xFFFFFFFFFFFFFFFFFFFFFFFFFFFFFFFFFFFFFFFF AND SUB PUSH3 0x16C JUMPI PUSH1 0x40 MLOAD PUSH32 0x8C379A000000000000000000000000000000000000000000000000000000000 DUP2 MSTORE PUSH1 0x4 ADD PUSH3 0x163 SWAP1 PUSH3 0x611 JUMP JUMPDEST PUSH1 0x40 MLOAD DUP1 SWAP2 SUB SWAP1 REVERT JUMPDEST DUP3 PUSH1 0x3 DUP2 SWAP1 SSTORE POP DUP2 PUSH1 0x2 PUSH0 PUSH2 0x100 EXP DUP2 SLOAD DUP2 PUSH20 0xFFFFFFFFFFFFFFFFFFFFFFFFFFFFFFFFFFFFFFFF MUL NOT AND SWAP1 DUP4 PUSH20 0xFFFFFFFFFFFFFFFFFFFFFFFFFFFFFFFFFFFFFFFF AND MUL OR SWAP1 SSTORE POP DUP1 PUSH1 0x1 PUSH0 PUSH2 0x100 EXP DUP2 SLOAD DUP2 PUSH20 0xFFFFFFFFFFFFFFFFFFFFFFFFFFFFFFFFFFFFFFFF MUL NOT AND SWAP1 DUP4 PUSH20 0xFFFFFFFFFFFFFFFFFFFFFFFFFFFFFFFFFFFFFFFF AND MUL OR SWAP1 SSTORE POP POP POP POP TIMESTAMP DUP6 LT ISZERO PUSH3 0x23C JUMPI PUSH1 0x40 MLOAD PUSH32 0x8C379A000000000000000000000000000000000000000000000000000000000 DUP2 MSTORE PUSH1 0x4 ADD PUSH3 0x233 SWAP1 PUSH3 0x6A5 JUMP JUMPDEST PUSH1 0x40 MLOAD DUP1 SWAP2 SUB SWAP1 REVERT JUMPDEST DUP5 DUP5 GT PUSH3 0x281 JUMPI PUSH1 0x40 MLOAD PUSH32 0x8C379A000000000000000000000000000000000000000000000000000000000 DUP2 MSTORE PUSH1 0x4 ADD PUSH3 0x278 SWAP1 PUSH3 0x739 JUMP JUMPDEST PUSH1 0x40 MLOAD DUP1 SWAP2 SUB SWAP1 REVERT JUMPDEST DUP5 PUSH1 0x5 DUP2 SWAP1 SSTORE POP DUP4 PUSH1 0x6 DUP2 SWAP1 SSTORE POP POP POP POP POP POP PUSH1 0x40 MLOAD PUSH3 0x2A2 SWAP1 PUSH3 0x307 JUMP JUMPDEST PUSH1 0x40 MLOAD DUP1 SWAP2 SUB SWAP1 PUSH0 CREATE DUP1 ISZERO DUP1 ISZERO PUSH3 0x2BC JUMPI RETURNDATASIZE PUSH0 DUP1 RETURNDATACOPY RETURNDATASIZE PUSH0 REVERT JUMPDEST POP PUSH1 0x8 PUSH0 PUSH2 0x100 EXP DUP2 SLOAD DUP2 PUSH20 0xFFFFFFFFFFFFFFFFFFFFFFFFFFFFFFFFFFFFFFFF MUL NOT AND SWAP1 DUP4 PUSH20 0xFFFFFFFFFFFFFFFFFFFFFFFFFFFFFFFFFFFFFFFF AND MUL OR SWAP1 SSTORE POP POP POP POP POP POP PUSH3 0x759 JUMP JUMPDEST PUSH2 0x7C7 DUP1 PUSH3 0x1C5D DUP4 CODECOPY ADD SWAP1 JUMP JUMPDEST PUSH0 DUP1 REVERT JUMPDEST PUSH0 DUP2 SWAP1 POP SWAP2 SWAP1 POP JUMP JUMPDEST PUSH3 0x32D DUP2 PUSH3 0x319 JUMP JUMPDEST DUP2 EQ PUSH3 0x338 JUMPI PUSH0 DUP1 REVERT JUMPDEST POP JUMP JUMPDEST PUSH0 DUP2 MLOAD SWAP1 POP PUSH3 0x34B DUP2 PUSH3 0x322 JUMP JUMPDEST SWAP3 SWAP2 POP POP JUMP JUMPDEST PUSH0 PUSH20 0xFFFFFFFFFFFFFFFFFFFFFFFFFFFFFFFFFFFFFFFF DUP3 AND SWAP1 POP SWAP2 SWAP1 POP JUMP JUMPDEST PUSH0 PUSH3 0x37C DUP3 PUSH3 0x351 JUMP JUMPDEST SWAP1 POP SWAP2 SWAP1 POP JUMP JUMPDEST PUSH3 0x38E DUP2 PUSH3 0x370 JUMP JUMPDEST DUP2 EQ PUSH3 0x399 JUMPI PUSH0 DUP1 REVERT JUMPDEST POP JUMP JUMPDEST PUSH0 DUP2 MLOAD SWAP1 POP PUSH3 0x3AC DUP2 PUSH3 0x383 JUMP JUMPDEST SWAP3 SWAP2 POP POP JUMP JUMPDEST PUSH0 PUSH3 0x3BE DUP3 PUSH3 0x351 JUMP JUMPDEST SWAP1 POP SWAP2 SWAP1 POP JUMP JUMPDEST PUSH0 PUSH3 0x3D1 DUP3 PUSH3 0x3B2 JUMP JUMPDEST SWAP1 POP SWAP2 SWAP1 POP JUMP JUMPDEST PUSH3 0x3E3 DUP2 PUSH3 0x3C5 JUMP JUMPDEST DUP2 EQ PUSH3 0x3EE JUMPI PUSH0 DUP1 REVERT JUMPDEST POP JUMP JUMPDEST PUSH0 DUP2 MLOAD SWAP1 POP PUSH3 0x401 DUP2 PUSH3 0x3D8 JUMP JUMPDEST SWAP3 SWAP2 POP POP JUMP JUMPDEST PUSH0 DUP1 PUSH0 DUP1 PUSH0 PUSH1 0xA0 DUP7 DUP9 SUB SLT ISZERO PUSH3 0x423 JUMPI PUSH3 0x422 PUSH3 0x315 JUMP JUMPDEST JUMPDEST PUSH0 PUSH3 0x432 DUP9 DUP3 DUP10 ADD PUSH3 0x33B JUMP JUMPDEST SWAP6 POP POP PUSH1 0x20 PUSH3 0x445 DUP9 DUP3 DUP10 ADD PUSH3 0x33B JUMP JUMPDEST SWAP5 POP POP PUSH1 0x40 PUSH3 0x458 DUP9 DUP3 DUP10 ADD PUSH3 0x33B JUMP JUMPDEST SWAP4 POP POP PUSH1 0x60 PUSH3 0x46B DUP9 DUP3 DUP10 ADD PUSH3 0x39C JUMP JUMPDEST SWAP3 POP POP PUSH1 0x80 PUSH3 0x47E DUP9 DUP3 DUP10 ADD PUSH3 0x3F1 JUMP JUMPDEST SWAP2 POP POP SWAP3 SWAP6 POP SWAP3 SWAP6 SWAP1 SWAP4 POP JUMP JUMPDEST PUSH0 DUP3 DUP3 MSTORE PUSH1 0x20 DUP3 ADD SWAP1 POP SWAP3 SWAP2 POP POP JUMP JUMPDEST PUSH32 0x43726F776473616C653A20726174652069732030000000000000000000000000 PUSH0 DUP3 ADD MSTORE POP JUMP JUMPDEST PUSH0 PUSH3 0x4D1 PUSH1 0x14 DUP4 PUSH3 0x48B JUMP JUMPDEST SWAP2 POP PUSH3 0x4DE DUP3 PUSH3 0x49B JUMP JUMPDEST PUSH1 0x20 DUP3 ADD SWAP1 POP SWAP2 SWAP1 POP JUMP JUMPDEST PUSH0 PUSH1 0x20 DUP3 ADD SWAP1 POP DUP2 DUP2 SUB PUSH0 DUP4 ADD MSTORE PUSH3 0x502 DUP2 PUSH3 0x4C3 JUMP JUMPDEST SWAP1 POP SWAP2 SWAP1 POP JUMP JUMPDEST PUSH32 0x43726F776473616C653A2077616C6C657420697320746865207A65726F206164 PUSH0 DUP3 ADD MSTORE PUSH32 0x6472657373000000000000000000000000000000000000000000000000000000 PUSH1 0x20 DUP3 ADD MSTORE POP JUMP JUMPDEST PUSH0 PUSH3 0x565 PUSH1 0x25 DUP4 PUSH3 0x48B JUMP JUMPDEST SWAP2 POP PUSH3 0x572 DUP3 PUSH3 0x509 JUMP JUMPDEST PUSH1 0x40 DUP3 ADD SWAP1 POP SWAP2 SWAP1 POP JUMP JUMPDEST PUSH0 PUSH1 0x20 DUP3 ADD SWAP1 POP DUP2 DUP2 SUB PUSH0 DUP4 ADD MSTORE PUSH3 0x596 DUP2 PUSH3 0x557 JUMP JUMPDEST SWAP1 POP SWAP2 SWAP1 POP JUMP JUMPDEST PUSH32 0x43726F776473616C653A20746F6B656E20697320746865207A65726F20616464 PUSH0 DUP3 ADD MSTORE PUSH32 0x7265737300000000000000000000000000000000000000000000000000000000 PUSH1 0x20 DUP3 ADD MSTORE POP JUMP JUMPDEST PUSH0 PUSH3 0x5F9 PUSH1 0x24 DUP4 PUSH3 0x48B JUMP JUMPDEST SWAP2 POP PUSH3 0x606 DUP3 PUSH3 0x59D JUMP JUMPDEST PUSH1 0x40 DUP3 ADD SWAP1 POP SWAP2 SWAP1 POP JUMP JUMPDEST PUSH0 PUSH1 0x20 DUP3 ADD SWAP1 POP DUP2 DUP2 SUB PUSH0 DUP4 ADD MSTORE PUSH3 0x62A DUP2 PUSH3 0x5EB JUMP JUMPDEST SWAP1 POP SWAP2 SWAP1 POP JUMP JUMPDEST PUSH32 0x54696D656443726F776473616C653A206F70656E696E672074696D6520697320 PUSH0 DUP3 ADD MSTORE PUSH32 0x6265666F72652063757272656E742074696D6500000000000000000000000000 PUSH1 0x20 DUP3 ADD MSTORE POP JUMP JUMPDEST PUSH0 PUSH3 0x68D PUSH1 0x33 DUP4 PUSH3 0x48B JUMP JUMPDEST SWAP2 POP PUSH3 0x69A DUP3 PUSH3 0x631 JUMP JUMPDEST PUSH1 0x40 DUP3 ADD SWAP1 POP SWAP2 SWAP1 POP JUMP JUMPDEST PUSH0 PUSH1 0x20 DUP3 ADD SWAP1 POP DUP2 DUP2 SUB PUSH0 DUP4 ADD MSTORE PUSH3 0x6BE DUP2 PUSH3 0x67F JUMP JUMPDEST SWAP1 POP SWAP2 SWAP1 POP JUMP JUMPDEST PUSH32 0x54696D656443726F776473616C653A206F70656E696E672074696D6520697320 PUSH0 DUP3 ADD MSTORE PUSH32 0x6E6F74206265666F726520636C6F73696E672074696D65000000000000000000 PUSH1 0x20 DUP3 ADD MSTORE POP JUMP JUMPDEST PUSH0 PUSH3 0x721 PUSH1 0x37 DUP4 PUSH3 0x48B JUMP JUMPDEST SWAP2 POP PUSH3 0x72E DUP3 PUSH3 0x6C5 JUMP JUMPDEST PUSH1 0x40 DUP3 ADD SWAP1 POP SWAP2 SWAP1 POP JUMP JUMPDEST PUSH0 PUSH1 0x20 DUP3 ADD SWAP1 POP DUP2 DUP2 SUB PUSH0 DUP4 ADD MSTORE PUSH3 0x752 DUP2 PUSH3 0x713 JUMP JUMPDEST SWAP1 POP SWAP2 SWAP1 POP JUMP JUMPDEST PUSH2 0x14F6 DUP1 PUSH3 0x767 PUSH0 CODECOPY PUSH0 RETURN INVALID PUSH1 0x80 PUSH1 0x40 MSTORE PUSH1 0x4 CALLDATASIZE LT PUSH2 0x9F JUMPI PUSH0 CALLDATALOAD PUSH1 0xE0 SHR DUP1 PUSH4 0x4B6753BC GT PUSH2 0x63 JUMPI DUP1 PUSH4 0x4B6753BC EQ PUSH2 0x198 JUMPI DUP1 PUSH4 0x521EB273 EQ PUSH2 0x1C2 JUMPI DUP1 PUSH4 0x70A08231 EQ PUSH2 0x1EC JUMPI DUP1 PUSH4 0xB7A8807C EQ PUSH2 0x228 JUMPI DUP1 PUSH4 0xEC8AC4D8 EQ PUSH2 0x252 JUMPI DUP1 PUSH4 0xFC0C546A EQ PUSH2 0x26E JUMPI PUSH2 0xB6 JUMP JUMPDEST DUP1 PUSH4 0x1515BC2B EQ PUSH2 0xC8 JUMPI DUP1 PUSH4 0x2C4E722E EQ PUSH2 0xF2 JUMPI DUP1 PUSH4 0x4042B66F EQ PUSH2 0x11C JUMPI DUP1 PUSH4 0x47535D7B EQ PUSH2 0x146 JUMPI DUP1 PUSH4 0x49DF728C EQ PUSH2 0x170 JUMPI PUSH2 0xB6 JUMP JUMPDEST CALLDATASIZE PUSH2 0xB6 JUMPI PUSH2 0xB4 PUSH2 0xAF PUSH2 0x298 JUMP JUMPDEST PUSH2 0x29F JUMP JUMPDEST STOP JUMPDEST PUSH2 0xC6 PUSH2 0xC1 PUSH2 0x298 JUMP JUMPDEST PUSH2 0x29F JUMP JUMPDEST STOP JUMPDEST CALLVALUE DUP1 ISZERO PUSH2 0xD3 JUMPI PUSH0 DUP1 REVERT JUMPDEST POP PUSH2 0xDC PUSH2 0x37D JUMP JUMPDEST PUSH1 0x40 MLOAD PUSH2 0xE9 SWAP2 SWAP1 PUSH2 0xC4E JUMP JUMPDEST PUSH1 0x40 MLOAD DUP1 SWAP2 SUB SWAP1 RETURN JUMPDEST CALLVALUE DUP1 ISZERO PUSH2 0xFD JUMPI PUSH0 DUP1 REVERT JUMPDEST POP PUSH2 0x106 PUSH2 0x388 JUMP JUMPDEST PUSH1 0x40 MLOAD PUSH2 0x113 SWAP2 SWAP1 PUSH2 0xC7F JUMP JUMPDEST PUSH1 0x40 MLOAD DUP1 SWAP2 SUB SWAP1 RETURN JUMPDEST CALLVALUE DUP1 ISZERO PUSH2 0x127 JUMPI PUSH0 DUP1 REVERT JUMPDEST POP PUSH2 0x130 PUSH2 0x391 JUMP JUMPDEST PUSH1 0x40 MLOAD PUSH2 0x13D SWAP2 SWAP1 PUSH2 0xC7F JUMP JUMPDEST PUSH1 0x40 MLOAD DUP1 SWAP2 SUB SWAP1 RETURN JUMPDEST CALLVALUE DUP1 ISZERO PUSH2 0x151 JUMPI PUSH0 DUP1 REVERT JUMPDEST POP PUSH2 0x15A PUSH2 0x39A JUMP JUMPDEST PUSH1 0x40 MLOAD PUSH2 0x167 SWAP2 SWAP1 PUSH2 0xC4E JUMP JUMPDEST PUSH1 0x40 MLOAD DUP1 SWAP2 SUB SWAP1 RETURN JUMPDEST CALLVALUE DUP1 ISZERO PUSH2 0x17B JUMPI PUSH0 DUP1 REVERT JUMPDEST POP PUSH2 0x196 PUSH1 0x4 DUP1 CALLDATASIZE SUB DUP2 ADD SWAP1 PUSH2 0x191 SWAP2 SWAP1 PUSH2 0xCF6 JUMP JUMPDEST PUSH2 0x3B4 JUMP JUMPDEST STOP JUMPDEST CALLVALUE DUP1 ISZERO PUSH2 0x1A3 JUMPI PUSH0 DUP1 REVERT JUMPDEST POP PUSH2 0x1AC PUSH2 0x556 JUMP JUMPDEST PUSH1 0x40 MLOAD PUSH2 0x1B9 SWAP2 SWAP1 PUSH2 0xC7F JUMP JUMPDEST PUSH1 0x40 MLOAD DUP1 SWAP2 SUB SWAP1 RETURN JUMPDEST CALLVALUE DUP1 ISZERO PUSH2 0x1CD JUMPI PUSH0 DUP1 REVERT JUMPDEST POP PUSH2 0x1D6 PUSH2 0x55F JUMP JUMPDEST PUSH1 0x40 MLOAD PUSH2 0x1E3 SWAP2 SWAP1 PUSH2 0xD41 JUMP JUMPDEST PUSH1 0x40 MLOAD DUP1 SWAP2 SUB SWAP1 RETURN JUMPDEST CALLVALUE DUP1 ISZERO PUSH2 0x1F7 JUMPI PUSH0 DUP1 REVERT JUMPDEST POP PUSH2 0x212 PUSH1 0x4 DUP1 CALLDATASIZE SUB DUP2 ADD SWAP1 PUSH2 0x20D SWAP2 SWAP1 PUSH2 0xCF6 JUMP JUMPDEST PUSH2 0x587 JUMP JUMPDEST PUSH1 0x40 MLOAD PUSH2 0x21F SWAP2 SWAP1 PUSH2 0xC7F JUMP JUMPDEST PUSH1 0x40 MLOAD DUP1 SWAP2 SUB SWAP1 RETURN JUMPDEST CALLVALUE DUP1 ISZERO PUSH2 0x233 JUMPI PUSH0 DUP1 REVERT JUMPDEST POP PUSH2 0x23C PUSH2 0x5CD JUMP JUMPDEST PUSH1 0x40 MLOAD PUSH2 0x249 SWAP2 SWAP1 PUSH2 0xC7F JUMP JUMPDEST PUSH1 0x40 MLOAD DUP1 SWAP2 SUB SWAP1 RETURN JUMPDEST PUSH2 0x26C PUSH1 0x4 DUP1 CALLDATASIZE SUB DUP2 ADD SWAP1 PUSH2 0x267 SWAP2 SWAP1 PUSH2 0xCF6 JUMP JUMPDEST PUSH2 0x29F JUMP JUMPDEST STOP JUMPDEST CALLVALUE DUP1 ISZERO PUSH2 0x279 JUMPI PUSH0 DUP1 REVERT JUMPDEST POP PUSH2 0x282 PUSH2 0x5D6 JUMP JUMPDEST PUSH1 0x40 MLOAD PUSH2 0x28F SWAP2 SWAP1 PUSH2 0xDB5 JUMP JUMPDEST PUSH1 0x40 MLOAD DUP1 SWAP2 SUB SWAP1 RETURN JUMPDEST PUSH0 CALLER SWAP1 POP SWAP1 JUMP JUMPDEST PUSH2 0x2A7 PUSH2 0x5FE JUMP JUMPDEST PUSH0 CALLVALUE SWAP1 POP PUSH2 0x2B5 DUP3 DUP3 PUSH2 0x64B JUMP JUMPDEST PUSH0 PUSH2 0x2BF DUP3 PUSH2 0x6A0 JUMP JUMPDEST SWAP1 POP PUSH2 0x2D6 DUP3 PUSH1 0x4 SLOAD PUSH2 0x6BD SWAP1 SWAP2 SWAP1 PUSH4 0xFFFFFFFF AND JUMP JUMPDEST PUSH1 0x4 DUP2 SWAP1 SSTORE POP PUSH2 0x2E6 DUP4 DUP3 PUSH2 0x6D2 JUMP JUMPDEST DUP3 PUSH20 0xFFFFFFFFFFFFFFFFFFFFFFFFFFFFFFFFFFFFFFFF AND PUSH2 0x305 PUSH2 0x298 JUMP JUMPDEST PUSH20 0xFFFFFFFFFFFFFFFFFFFFFFFFFFFFFFFFFFFFFFFF AND PUSH32 0x6FAF93231A456E552DBC9961F58D9713EE4F2E69D15F1975B050EF0911053A7B DUP5 DUP5 PUSH1 0x40 MLOAD PUSH2 0x34C SWAP3 SWAP2 SWAP1 PUSH2 0xDCE JUMP JUMPDEST PUSH1 0x40 MLOAD DUP1 SWAP2 SUB SWAP1 LOG3 PUSH2 0x35E DUP4 DUP4 PUSH2 0x792 JUMP JUMPDEST PUSH2 0x366 PUSH2 0x796 JUMP JUMPDEST PUSH2 0x370 DUP4 DUP4 PUSH2 0x7FD JUMP JUMPDEST POP POP PUSH2 0x37A PUSH2 0x801 JUMP JUMPDEST POP JUMP JUMPDEST PUSH0 PUSH1 0x6 SLOAD TIMESTAMP GT SWAP1 POP SWAP1 JUMP JUMPDEST PUSH0 PUSH1 0x3 SLOAD SWAP1 POP SWAP1 JUMP JUMPDEST PUSH0 PUSH1 0x4 SLOAD SWAP1 POP SWAP1 JUMP JUMPDEST PUSH0 PUSH1 0x5 SLOAD TIMESTAMP LT ISZERO DUP1 ISZERO PUSH2 0x3AF JUMPI POP PUSH1 0x6 SLOAD TIMESTAMP GT ISZERO JUMPDEST SWAP1 POP SWAP1 JUMP JUMPDEST PUSH2 0x3BC PUSH2 0x37D JUMP JUMPDEST PUSH2 0x3FB JUMPI PUSH1 0x40 MLOAD PUSH32 0x8C379A000000000000000000000000000000000000000000000000000000000 DUP2 MSTORE PUSH1 0x4 ADD PUSH2 0x3F2 SWAP1 PUSH2 0xE75 JUMP JUMPDEST PUSH1 0x40 MLOAD DUP1 SWAP2 SUB SWAP1 REVERT JUMPDEST PUSH0 PUSH1 0x7 PUSH0 DUP4 PUSH20 0xFFFFFFFFFFFFFFFFFFFFFFFFFFFFFFFFFFFFFFFF AND PUSH20 0xFFFFFFFFFFFFFFFFFFFFFFFFFFFFFFFFFFFFFFFF AND DUP2 MSTORE PUSH1 0x20 ADD SWAP1 DUP2 MSTORE PUSH1 0x20 ADD PUSH0 KECCAK256 SLOAD SWAP1 POP PUSH0 DUP2 GT PUSH2 0x47E JUMPI PUSH1 0x40 MLOAD PUSH32 0x8C379A000000000000000000000000000000000000000000000000000000000 DUP2 MSTORE PUSH1 0x4 ADD PUSH2 0x475 SWAP1 PUSH2 0xF03 JUMP JUMPDEST PUSH1 0x40 MLOAD DUP1 SWAP2 SUB SWAP1 REVERT JUMPDEST PUSH0 PUSH1 0x7 PUSH0 DUP5 PUSH20 0xFFFFFFFFFFFFFFFFFFFFFFFFFFFFFFFFFFFFFFFF AND PUSH20 0xFFFFFFFFFFFFFFFFFFFFFFFFFFFFFFFFFFFFFFFF AND DUP2 MSTORE PUSH1 0x20 ADD SWAP1 DUP2 MSTORE PUSH1 0x20 ADD PUSH0 KECCAK256 DUP2 SWAP1 SSTORE POP PUSH1 0x8 PUSH0 SWAP1 SLOAD SWAP1 PUSH2 0x100 EXP SWAP1 DIV PUSH20 0xFFFFFFFFFFFFFFFFFFFFFFFFFFFFFFFFFFFFFFFF AND PUSH20 0xFFFFFFFFFFFFFFFFFFFFFFFFFFFFFFFFFFFFFFFF AND PUSH4 0xBEABACC8 PUSH2 0x505 PUSH2 0x5D6 JUMP JUMPDEST DUP5 DUP5 PUSH1 0x40 MLOAD DUP5 PUSH4 0xFFFFFFFF AND PUSH1 0xE0 SHL DUP2 MSTORE PUSH1 0x4 ADD PUSH2 0x525 SWAP4 SWAP3 SWAP2 SWAP1 PUSH2 0xF30 JUMP JUMPDEST PUSH0 PUSH1 0x40 MLOAD DUP1 DUP4 SUB DUP2 PUSH0 DUP8 DUP1 EXTCODESIZE ISZERO DUP1 ISZERO PUSH2 0x53C JUMPI PUSH0 DUP1 REVERT JUMPDEST POP GAS CALL ISZERO DUP1 ISZERO PUSH2 0x54E JUMPI RETURNDATASIZE PUSH0 DUP1 RETURNDATACOPY RETURNDATASIZE PUSH0 REVERT JUMPDEST POP POP POP POP POP POP JUMP JUMPDEST PUSH0 PUSH1 0x6 SLOAD SWAP1 POP SWAP1 JUMP JUMPDEST PUSH0 PUSH1 0x2 PUSH0 SWAP1 SLOAD SWAP1 PUSH2 0x100 EXP SWAP1 DIV PUSH20 0xFFFFFFFFFFFFFFFFFFFFFFFFFFFFFFFFFFFFFFFF AND SWAP1 POP SWAP1 JUMP JUMPDEST PUSH0 PUSH1 0x7 PUSH0 DUP4 PUSH20 0xFFFFFFFFFFFFFFFFFFFFFFFFFFFFFFFFFFFFFFFF AND PUSH20 0xFFFFFFFFFFFFFFFFFFFFFFFFFFFFFFFFFFFFFFFF AND DUP2 MSTORE PUSH1 0x20 ADD SWAP1 DUP2 MSTORE PUSH1 0x20 ADD PUSH0 KECCAK256 SLOAD SWAP1 POP SWAP2 SWAP1 POP JUMP JUMPDEST PUSH0 PUSH1 0x5 SLOAD SWAP1 POP SWAP1 JUMP JUMPDEST PUSH0 PUSH1 0x1 PUSH0 SWAP1 SLOAD SWAP1 PUSH2 0x100 EXP SWAP1 DIV PUSH20 0xFFFFFFFFFFFFFFFFFFFFFFFFFFFFFFFFFFFFFFFF AND SWAP1 POP SWAP1 JUMP JUMPDEST PUSH1 0x2 PUSH0 SLOAD SUB PUSH2 0x642 JUMPI PUSH1 0x40 MLOAD PUSH32 0x8C379A000000000000000000000000000000000000000000000000000000000 DUP2 MSTORE PUSH1 0x4 ADD PUSH2 0x639 SWAP1 PUSH2 0xFAF JUMP JUMPDEST PUSH1 0x40 MLOAD DUP1 SWAP2 SUB SWAP1 REVERT JUMPDEST PUSH1 0x2 PUSH0 DUP2 SWAP1 SSTORE POP JUMP JUMPDEST PUSH2 0x653 PUSH2 0x39A JUMP JUMPDEST PUSH2 0x692 JUMPI PUSH1 0x40 MLOAD PUSH32 0x8C379A000000000000000000000000000000000000000000000000000000000 DUP2 MSTORE PUSH1 0x4 ADD PUSH2 0x689 SWAP1 PUSH2 0x1017 JUMP JUMPDEST PUSH1 0x40 MLOAD DUP1 SWAP2 SUB SWAP1 REVERT JUMPDEST PUSH2 0x69C DUP3 DUP3 PUSH2 0x80A JUMP JUMPDEST POP POP JUMP JUMPDEST PUSH0 PUSH2 0x6B6 PUSH1 0x3 SLOAD DUP4 PUSH2 0x8BE SWAP1 SWAP2 SWAP1 PUSH4 0xFFFFFFFF AND JUMP JUMPDEST SWAP1 POP SWAP2 SWAP1 POP JUMP JUMPDEST PUSH0 DUP2 DUP4 PUSH2 0x6CA SWAP2 SWAP1 PUSH2 0x1062 JUMP JUMPDEST SWAP1 POP SWAP3 SWAP2 POP POP JUMP JUMPDEST PUSH2 0x722 DUP2 PUSH1 0x7 PUSH0 DUP6 PUSH20 0xFFFFFFFFFFFFFFFFFFFFFFFFFFFFFFFFFFFFFFFF AND PUSH20 0xFFFFFFFFFFFFFFFFFFFFFFFFFFFFFFFFFFFFFFFF AND DUP2 MSTORE PUSH1 0x20 ADD SWAP1 DUP2 MSTORE PUSH1 0x20 ADD PUSH0 KECCAK256 SLOAD PUSH2 0x6BD SWAP1 SWAP2 SWAP1 PUSH4 0xFFFFFFFF AND JUMP JUMPDEST PUSH1 0x7 PUSH0 DUP5 PUSH20 0xFFFFFFFFFFFFFFFFFFFFFFFFFFFFFFFFFFFFFFFF AND PUSH20 0xFFFFFFFFFFFFFFFFFFFFFFFFFFFFFFFFFFFFFFFF AND DUP2 MSTORE PUSH1 0x20 ADD SWAP1 DUP2 MSTORE PUSH1 0x20 ADD PUSH0 KECCAK256 DUP2 SWAP1 SSTORE POP PUSH2 0x78E PUSH1 0x8 PUSH0 SWAP1 SLOAD SWAP1 PUSH2 0x100 EXP SWAP1 DIV PUSH20 0xFFFFFFFFFFFFFFFFFFFFFFFFFFFFFFFFFFFFFFFF AND DUP3 PUSH2 0x8D3 JUMP JUMPDEST POP POP JUMP JUMPDEST POP POP JUMP JUMPDEST PUSH1 0x2 PUSH0 SWAP1 SLOAD SWAP1 PUSH2 0x100 EXP SWAP1 DIV PUSH20 0xFFFFFFFFFFFFFFFFFFFFFFFFFFFFFFFFFFFFFFFF AND PUSH20 0xFFFFFFFFFFFFFFFFFFFFFFFFFFFFFFFFFFFFFFFF AND PUSH2 0x8FC CALLVALUE SWAP1 DUP2 ISZERO MUL SWAP1 PUSH1 0x40 MLOAD PUSH0 PUSH1 0x40 MLOAD DUP1 DUP4 SUB DUP2 DUP6 DUP9 DUP9 CALL SWAP4 POP POP POP POP ISZERO DUP1 ISZERO PUSH2 0x7FA JUMPI RETURNDATASIZE PUSH0 DUP1 RETURNDATACOPY RETURNDATASIZE PUSH0 REVERT JUMPDEST POP JUMP JUMPDEST POP POP JUMP JUMPDEST PUSH1 0x1 PUSH0 DUP2 SWAP1 SSTORE POP JUMP JUMPDEST PUSH0 PUSH20 0xFFFFFFFFFFFFFFFFFFFFFFFFFFFFFFFFFFFFFFFF AND DUP3 PUSH20 0xFFFFFFFFFFFFFFFFFFFFFFFFFFFFFFFFFFFFFFFF AND SUB PUSH2 0x878 JUMPI PUSH1 0x40 MLOAD PUSH32 0x8C379A000000000000000000000000000000000000000000000000000000000 DUP2 MSTORE PUSH1 0x4 ADD PUSH2 0x86F SWAP1 PUSH2 0x1105 JUMP JUMPDEST PUSH1 0x40 MLOAD DUP1 SWAP2 SUB SWAP1 REVERT JUMPDEST PUSH0 DUP2 SUB PUSH2 0x8BA JUMPI PUSH1 0x40 MLOAD PUSH32 0x8C379A000000000000000000000000000000000000000000000000000000000 DUP2 MSTORE PUSH1 0x4 ADD PUSH2 0x8B1 SWAP1 PUSH2 0x116D JUMP JUMPDEST PUSH1 0x40 MLOAD DUP1 SWAP2 SUB SWAP1 REVERT JUMPDEST POP POP JUMP JUMPDEST PUSH0 DUP2 DUP4 PUSH2 0x8CB SWAP2 SWAP1 PUSH2 0x118B JUMP JUMPDEST SWAP1 POP SWAP3 SWAP2 POP POP JUMP JUMPDEST PUSH2 0x91F DUP3 DUP3 PUSH1 0x1 PUSH0 SWAP1 SLOAD SWAP1 PUSH2 0x100 EXP SWAP1 DIV PUSH20 0xFFFFFFFFFFFFFFFFFFFFFFFFFFFFFFFFFFFFFFFF AND PUSH20 0xFFFFFFFFFFFFFFFFFFFFFFFFFFFFFFFFFFFFFFFF AND PUSH2 0x923 SWAP1 SWAP3 SWAP2 SWAP1 PUSH4 0xFFFFFFFF AND JUMP JUMPDEST POP POP JUMP JUMPDEST PUSH2 0x9A4 DUP4 PUSH4 0xA9059CBB PUSH1 0xE0 SHL DUP5 DUP5 PUSH1 0x40 MLOAD PUSH1 0x24 ADD PUSH2 0x942 SWAP3 SWAP2 SWAP1 PUSH2 0x11CC JUMP JUMPDEST PUSH1 0x40 MLOAD PUSH1 0x20 DUP2 DUP4 SUB SUB DUP2 MSTORE SWAP1 PUSH1 0x40 MSTORE SWAP1 PUSH28 0xFFFFFFFFFFFFFFFFFFFFFFFFFFFFFFFFFFFFFFFFFFFFFFFFFFFFFFFF NOT AND PUSH1 0x20 DUP3 ADD DUP1 MLOAD PUSH28 0xFFFFFFFFFFFFFFFFFFFFFFFFFFFFFFFFFFFFFFFFFFFFFFFFFFFFFFFF DUP4 DUP2 DUP4 AND OR DUP4 MSTORE POP POP POP POP PUSH2 0x9A9 JUMP JUMPDEST POP POP POP JUMP JUMPDEST PUSH0 PUSH2 0xA0A DUP3 PUSH1 0x40 MLOAD DUP1 PUSH1 0x40 ADD PUSH1 0x40 MSTORE DUP1 PUSH1 0x20 DUP2 MSTORE PUSH1 0x20 ADD PUSH32 0x5361666545524332303A206C6F772D6C6576656C2063616C6C206661696C6564 DUP2 MSTORE POP DUP6 PUSH20 0xFFFFFFFFFFFFFFFFFFFFFFFFFFFFFFFFFFFFFFFF AND PUSH2 0xA6F SWAP1 SWAP3 SWAP2 SWAP1 PUSH4 0xFFFFFFFF AND JUMP JUMPDEST SWAP1 POP PUSH0 DUP2 MLOAD EQ DUP1 PUSH2 0xA2B JUMPI POP DUP1 DUP1 PUSH1 0x20 ADD SWAP1 MLOAD DUP2 ADD SWAP1 PUSH2 0xA2A SWAP2 SWAP1 PUSH2 0x121D JUMP JUMPDEST JUMPDEST PUSH2 0xA6A JUMPI PUSH1 0x40 MLOAD PUSH32 0x8C379A000000000000000000000000000000000000000000000000000000000 DUP2 MSTORE PUSH1 0x4 ADD PUSH2 0xA61 SWAP1 PUSH2 0x12B8 JUMP JUMPDEST PUSH1 0x40 MLOAD DUP1 SWAP2 SUB SWAP1 REVERT JUMPDEST POP POP POP JUMP JUMPDEST PUSH1 0x60 PUSH2 0xA7D DUP5 DUP5 PUSH0 DUP6 PUSH2 0xA86 JUMP JUMPDEST SWAP1 POP SWAP4 SWAP3 POP POP POP JUMP JUMPDEST PUSH1 0x60 DUP3 SELFBALANCE LT ISZERO PUSH2 0xACB JUMPI PUSH1 0x40 MLOAD PUSH32 0x8C379A000000000000000000000000000000000000000000000000000000000 DUP2 MSTORE PUSH1 0x4 ADD PUSH2 0xAC2 SWAP1 PUSH2 0x1346 JUMP JUMPDEST PUSH1 0x40 MLOAD DUP1 SWAP2 SUB SWAP1 REVERT JUMPDEST PUSH0 DUP1 DUP7 PUSH20 0xFFFFFFFFFFFFFFFFFFFFFFFFFFFFFFFFFFFFFFFF AND DUP6 DUP8 PUSH1 0x40 MLOAD PUSH2 0xAF3 SWAP2 SWAP1 PUSH2 0x13D0 JUMP JUMPDEST PUSH0 PUSH1 0x40 MLOAD DUP1 DUP4 SUB DUP2 DUP6 DUP8 GAS CALL SWAP3 POP POP POP RETURNDATASIZE DUP1 PUSH0 DUP2 EQ PUSH2 0xB2D JUMPI PUSH1 0x40 MLOAD SWAP2 POP PUSH1 0x1F NOT PUSH1 0x3F RETURNDATASIZE ADD AND DUP3 ADD PUSH1 0x40 MSTORE RETURNDATASIZE DUP3 MSTORE RETURNDATASIZE PUSH0 PUSH1 0x20 DUP5 ADD RETURNDATACOPY PUSH2 0xB32 JUMP JUMPDEST PUSH1 0x60 SWAP2 POP JUMPDEST POP SWAP2 POP SWAP2 POP PUSH2 0xB43 DUP8 DUP4 DUP4 DUP8 PUSH2 0xB4F JUMP JUMPDEST SWAP3 POP POP POP SWAP5 SWAP4 POP POP POP POP JUMP JUMPDEST PUSH1 0x60 DUP4 ISZERO PUSH2 0xBB0 JUMPI PUSH0 DUP4 MLOAD SUB PUSH2 0xBA8 JUMPI PUSH2 0xB68 DUP6 PUSH2 0xBC3 JUMP JUMPDEST PUSH2 0xBA7 JUMPI PUSH1 0x40 MLOAD PUSH32 0x8C379A000000000000000000000000000000000000000000000000000000000 DUP2 MSTORE PUSH1 0x4 ADD PUSH2 0xB9E SWAP1 PUSH2 0x1430 JUMP JUMPDEST PUSH1 0x40 MLOAD DUP1 SWAP2 SUB SWAP1 REVERT JUMPDEST JUMPDEST DUP3 SWAP1 POP PUSH2 0xBBB JUMP JUMPDEST PUSH2 0xBBA DUP4 DUP4 PUSH2 0xBE5 JUMP JUMPDEST JUMPDEST SWAP5 SWAP4 POP POP POP POP JUMP JUMPDEST PUSH0 DUP1 DUP3 PUSH20 0xFFFFFFFFFFFFFFFFFFFFFFFFFFFFFFFFFFFFFFFF AND EXTCODESIZE GT SWAP1 POP SWAP2 SWAP1 POP JUMP JUMPDEST PUSH0 DUP3 MLOAD GT ISZERO PUSH2 0xBF7 JUMPI DUP2 MLOAD DUP1 DUP4 PUSH1 0x20 ADD REVERT JUMPDEST DUP1 PUSH1 0x40 MLOAD PUSH32 0x8C379A000000000000000000000000000000000000000000000000000000000 DUP2 MSTORE PUSH1 0x4 ADD PUSH2 0xC2B SWAP2 SWAP1 PUSH2 0x14A0 JUMP JUMPDEST PUSH1 0x40 MLOAD DUP1 SWAP2 SUB SWAP1 REVERT JUMPDEST PUSH0 DUP2 ISZERO ISZERO SWAP1 POP SWAP2 SWAP1 POP JUMP JUMPDEST PUSH2 0xC48 DUP2 PUSH2 0xC34 JUMP JUMPDEST DUP3 MSTORE POP POP JUMP JUMPDEST PUSH0 PUSH1 0x20 DUP3 ADD SWAP1 POP PUSH2 0xC61 PUSH0 DUP4 ADD DUP5 PUSH2 0xC3F JUMP JUMPDEST SWAP3 SWAP2 POP POP JUMP JUMPDEST PUSH0 DUP2 SWAP1 POP SWAP2 SWAP1 POP JUMP JUMPDEST PUSH2 0xC79 DUP2 PUSH2 0xC67 JUMP JUMPDEST DUP3 MSTORE POP POP JUMP JUMPDEST PUSH0 PUSH1 0x20 DUP3 ADD SWAP1 POP PUSH2 0xC92 PUSH0 DUP4 ADD DUP5 PUSH2 0xC70 JUMP JUMPDEST SWAP3 SWAP2 POP POP JUMP JUMPDEST PUSH0 DUP1 REVERT JUMPDEST PUSH0 PUSH20 0xFFFFFFFFFFFFFFFFFFFFFFFFFFFFFFFFFFFFFFFF DUP3 AND SWAP1 POP SWAP2 SWAP1 POP JUMP JUMPDEST PUSH0 PUSH2 0xCC5 DUP3 PUSH2 0xC9C JUMP JUMPDEST SWAP1 POP SWAP2 SWAP1 POP JUMP JUMPDEST PUSH2 0xCD5 DUP2 PUSH2 0xCBB JUMP JUMPDEST DUP2 EQ PUSH2 0xCDF JUMPI PUSH0 DUP1 REVERT JUMPDEST POP JUMP JUMPDEST PUSH0 DUP2 CALLDATALOAD SWAP1 POP PUSH2 0xCF0 DUP2 PUSH2 0xCCC JUMP JUMPDEST SWAP3 SWAP2 POP POP JUMP JUMPDEST PUSH0 PUSH1 0x20 DUP3 DUP5 SUB SLT ISZERO PUSH2 0xD0B JUMPI PUSH2 0xD0A PUSH2 0xC98 JUMP JUMPDEST JUMPDEST PUSH0 PUSH2 0xD18 DUP5 DUP3 DUP6 ADD PUSH2 0xCE2 JUMP JUMPDEST SWAP2 POP POP SWAP3 SWAP2 POP POP JUMP JUMPDEST PUSH0 PUSH2 0xD2B DUP3 PUSH2 0xC9C JUMP JUMPDEST SWAP1 POP SWAP2 SWAP1 POP JUMP JUMPDEST PUSH2 0xD3B DUP2 PUSH2 0xD21 JUMP JUMPDEST DUP3 MSTORE POP POP JUMP JUMPDEST PUSH0 PUSH1 0x20 DUP3 ADD SWAP1 POP PUSH2 0xD54 PUSH0 DUP4 ADD DUP5 PUSH2 0xD32 JUMP JUMPDEST SWAP3 SWAP2 POP POP JUMP JUMPDEST PUSH0 DUP2 SWAP1 POP SWAP2 SWAP1 POP JUMP JUMPDEST PUSH0 PUSH2 0xD7D PUSH2 0xD78 PUSH2 0xD73 DUP5 PUSH2 0xC9C JUMP JUMPDEST PUSH2 0xD5A JUMP JUMPDEST PUSH2 0xC9C JUMP JUMPDEST SWAP1 POP SWAP2 SWAP1 POP JUMP JUMPDEST PUSH0 PUSH2 0xD8E DUP3 PUSH2 0xD63 JUMP JUMPDEST SWAP1 POP SWAP2 SWAP1 POP JUMP JUMPDEST PUSH0 PUSH2 0xD9F DUP3 PUSH2 0xD84 JUMP JUMPDEST SWAP1 POP SWAP2 SWAP1 POP JUMP JUMPDEST PUSH2 0xDAF DUP2 PUSH2 0xD95 JUMP JUMPDEST DUP3 MSTORE POP POP JUMP JUMPDEST PUSH0 PUSH1 0x20 DUP3 ADD SWAP1 POP PUSH2 0xDC8 PUSH0 DUP4 ADD DUP5 PUSH2 0xDA6 JUMP JUMPDEST SWAP3 SWAP2 POP POP JUMP JUMPDEST PUSH0 PUSH1 0x40 DUP3 ADD SWAP1 POP PUSH2 0xDE1 PUSH0 DUP4 ADD DUP6 PUSH2 0xC70 JUMP JUMPDEST PUSH2 0xDEE PUSH1 0x20 DUP4 ADD DUP5 PUSH2 0xC70 JUMP JUMPDEST SWAP4 SWAP3 POP POP POP JUMP JUMPDEST PUSH0 DUP3 DUP3 MSTORE PUSH1 0x20 DUP3 ADD SWAP1 POP SWAP3 SWAP2 POP POP JUMP JUMPDEST PUSH32 0x506F737444656C697665727943726F776473616C653A206E6F7420636C6F7365 PUSH0 DUP3 ADD MSTORE PUSH32 0x6400000000000000000000000000000000000000000000000000000000000000 PUSH1 0x20 DUP3 ADD MSTORE POP JUMP JUMPDEST PUSH0 PUSH2 0xE5F PUSH1 0x21 DUP4 PUSH2 0xDF5 JUMP JUMPDEST SWAP2 POP PUSH2 0xE6A DUP3 PUSH2 0xE05 JUMP JUMPDEST PUSH1 0x40 DUP3 ADD SWAP1 POP SWAP2 SWAP1 POP JUMP JUMPDEST PUSH0 PUSH1 0x20 DUP3 ADD SWAP1 POP DUP2 DUP2 SUB PUSH0 DUP4 ADD MSTORE PUSH2 0xE8C DUP2 PUSH2 0xE53 JUMP JUMPDEST SWAP1 POP SWAP2 SWAP1 POP JUMP JUMPDEST PUSH32 0x506F737444656C697665727943726F776473616C653A2062656E656669636961 PUSH0 DUP3 ADD MSTORE PUSH32 0x7279206973206E6F742064756520616E7920746F6B656E730000000000000000 PUSH1 0x20 DUP3 ADD MSTORE POP JUMP JUMPDEST PUSH0 PUSH2 0xEED PUSH1 0x38 DUP4 PUSH2 0xDF5 JUMP JUMPDEST SWAP2 POP PUSH2 0xEF8 DUP3 PUSH2 0xE93 JUMP JUMPDEST PUSH1 0x40 DUP3 ADD SWAP1 POP SWAP2 SWAP1 POP JUMP JUMPDEST PUSH0 PUSH1 0x20 DUP3 ADD SWAP1 POP DUP2 DUP2 SUB PUSH0 DUP4 ADD MSTORE PUSH2 0xF1A DUP2 PUSH2 0xEE1 JUMP JUMPDEST SWAP1 POP SWAP2 SWAP1 POP JUMP JUMPDEST PUSH2 0xF2A DUP2 PUSH2 0xCBB JUMP JUMPDEST DUP3 MSTORE POP POP JUMP JUMPDEST PUSH0 PUSH1 0x60 DUP3 ADD SWAP1 POP PUSH2 0xF43 PUSH0 DUP4 ADD DUP7 PUSH2 0xDA6 JUMP JUMPDEST PUSH2 0xF50 PUSH1 0x20 DUP4 ADD DUP6 PUSH2 0xF21 JUMP JUMPDEST PUSH2 0xF5D PUSH1 0x40 DUP4 ADD DUP5 PUSH2 0xC70 JUMP JUMPDEST SWAP5 SWAP4 POP POP POP POP JUMP JUMPDEST PUSH32 0x5265656E7472616E637947756172643A207265656E7472616E742063616C6C00 PUSH0 DUP3 ADD MSTORE POP JUMP JUMPDEST PUSH0 PUSH2 0xF99 PUSH1 0x1F DUP4 PUSH2 0xDF5 JUMP JUMPDEST SWAP2 POP PUSH2 0xFA4 DUP3 PUSH2 0xF65 JUMP JUMPDEST PUSH1 0x20 DUP3 ADD SWAP1 POP SWAP2 SWAP1 POP JUMP JUMPDEST PUSH0 PUSH1 0x20 DUP3 ADD SWAP1 POP DUP2 DUP2 SUB PUSH0 DUP4 ADD MSTORE PUSH2 0xFC6 DUP2 PUSH2 0xF8D JUMP JUMPDEST SWAP1 POP SWAP2 SWAP1 POP JUMP JUMPDEST PUSH32 0x54696D656443726F776473616C653A206E6F74206F70656E0000000000000000 PUSH0 DUP3 ADD MSTORE POP JUMP JUMPDEST PUSH0 PUSH2 0x1001 PUSH1 0x18 DUP4 PUSH2 0xDF5 JUMP JUMPDEST SWAP2 POP PUSH2 0x100C DUP3 PUSH2 0xFCD JUMP JUMPDEST PUSH1 0x20 DUP3 ADD SWAP1 POP SWAP2 SWAP1 POP JUMP JUMPDEST PUSH0 PUSH1 0x20 DUP3 ADD SWAP1 POP DUP2 DUP2 SUB PUSH0 DUP4 ADD MSTORE PUSH2 0x102E DUP2 PUSH2 0xFF5 JUMP JUMPDEST SWAP1 POP SWAP2 SWAP1 POP JUMP JUMPDEST PUSH32 0x4E487B7100000000000000000000000000000000000000000000000000000000 PUSH0 MSTORE PUSH1 0x11 PUSH1 0x4 MSTORE PUSH1 0x24 PUSH0 REVERT JUMPDEST PUSH0 PUSH2 0x106C DUP3 PUSH2 0xC67 JUMP JUMPDEST SWAP2 POP PUSH2 0x1077 DUP4 PUSH2 0xC67 JUMP JUMPDEST SWAP3 POP DUP3 DUP3 ADD SWAP1 POP DUP1 DUP3 GT ISZERO PUSH2 0x108F JUMPI PUSH2 0x108E PUSH2 0x1035 JUMP JUMPDEST JUMPDEST SWAP3 SWAP2 POP POP JUMP JUMPDEST PUSH32 0x43726F776473616C653A2062656E656669636961727920697320746865207A65 PUSH0 DUP3 ADD MSTORE PUSH32 0x726F206164647265737300000000000000000000000000000000000000000000 PUSH1 0x20 DUP3 ADD MSTORE POP JUMP JUMPDEST PUSH0 PUSH2 0x10EF PUSH1 0x2A DUP4 PUSH2 0xDF5 JUMP JUMPDEST SWAP2 POP PUSH2 0x10FA DUP3 PUSH2 0x1095 JUMP JUMPDEST PUSH1 0x40 DUP3 ADD SWAP1 POP SWAP2 SWAP1 POP JUMP JUMPDEST PUSH0 PUSH1 0x20 DUP3 ADD SWAP1 POP DUP2 DUP2 SUB PUSH0 DUP4 ADD MSTORE PUSH2 0x111C DUP2 PUSH2 0x10E3 JUMP JUMPDEST SWAP1 POP SWAP2 SWAP1 POP JUMP JUMPDEST PUSH32 0x43726F776473616C653A20776569416D6F756E74206973203000000000000000 PUSH0 DUP3 ADD MSTORE POP JUMP JUMPDEST PUSH0 PUSH2 0x1157 PUSH1 0x19 DUP4 PUSH2 0xDF5 JUMP JUMPDEST SWAP2 POP PUSH2 0x1162 DUP3 PUSH2 0x1123 JUMP JUMPDEST PUSH1 0x20 DUP3 ADD SWAP1 POP SWAP2 SWAP1 POP JUMP JUMPDEST PUSH0 PUSH1 0x20 DUP3 ADD SWAP1 POP DUP2 DUP2 SUB PUSH0 DUP4 ADD MSTORE PUSH2 0x1184 DUP2 PUSH2 0x114B JUMP JUMPDEST SWAP1 POP SWAP2 SWAP1 POP JUMP JUMPDEST PUSH0 PUSH2 0x1195 DUP3 PUSH2 0xC67 JUMP JUMPDEST SWAP2 POP PUSH2 0x11A0 DUP4 PUSH2 0xC67 JUMP JUMPDEST SWAP3 POP DUP3 DUP3 MUL PUSH2 0x11AE DUP2 PUSH2 0xC67 JUMP JUMPDEST SWAP2 POP DUP3 DUP3 DIV DUP5 EQ DUP4 ISZERO OR PUSH2 0x11C5 JUMPI PUSH2 0x11C4 PUSH2 0x1035 JUMP JUMPDEST JUMPDEST POP SWAP3 SWAP2 POP POP JUMP JUMPDEST PUSH0 PUSH1 0x40 DUP3 ADD SWAP1 POP PUSH2 0x11DF PUSH0 DUP4 ADD DUP6 PUSH2 0xF21 JUMP JUMPDEST PUSH2 0x11EC PUSH1 0x20 DUP4 ADD DUP5 PUSH2 0xC70 JUMP JUMPDEST SWAP4 SWAP3 POP POP POP JUMP JUMPDEST PUSH2 0x11FC DUP2 PUSH2 0xC34 JUMP JUMPDEST DUP2 EQ PUSH2 0x1206 JUMPI PUSH0 DUP1 REVERT JUMPDEST POP JUMP JUMPDEST PUSH0 DUP2 MLOAD SWAP1 POP PUSH2 0x1217 DUP2 PUSH2 0x11F3 JUMP JUMPDEST SWAP3 SWAP2 POP POP JUMP JUMPDEST PUSH0 PUSH1 0x20 DUP3 DUP5 SUB SLT ISZERO PUSH2 0x1232 JUMPI PUSH2 0x1231 PUSH2 0xC98 JUMP JUMPDEST JUMPDEST PUSH0 PUSH2 0x123F DUP5 DUP3 DUP6 ADD PUSH2 0x1209 JUMP JUMPDEST SWAP2 POP POP SWAP3 SWAP2 POP POP JUMP JUMPDEST PUSH32 0x5361666545524332303A204552433230206F7065726174696F6E20646964206E PUSH0 DUP3 ADD MSTORE PUSH32 0x6F74207375636365656400000000000000000000000000000000000000000000 PUSH1 0x20 DUP3 ADD MSTORE POP JUMP JUMPDEST PUSH0 PUSH2 0x12A2 PUSH1 0x2A DUP4 PUSH2 0xDF5 JUMP JUMPDEST SWAP2 POP PUSH2 0x12AD DUP3 PUSH2 0x1248 JUMP JUMPDEST PUSH1 0x40 DUP3 ADD SWAP1 POP SWAP2 SWAP1 POP JUMP JUMPDEST PUSH0 PUSH1 0x20 DUP3 ADD SWAP1 POP DUP2 DUP2 SUB PUSH0 DUP4 ADD MSTORE PUSH2 0x12CF DUP2 PUSH2 0x1296 JUMP JUMPDEST SWAP1 POP SWAP2 SWAP1 POP JUMP JUMPDEST PUSH32 0x416464726573733A20696E73756666696369656E742062616C616E636520666F PUSH0 DUP3 ADD MSTORE PUSH32 0x722063616C6C0000000000000000000000000000000000000000000000000000 PUSH1 0x20 DUP3 ADD MSTORE POP JUMP JUMPDEST PUSH0 PUSH2 0x1330 PUSH1 0x26 DUP4 PUSH2 0xDF5 JUMP JUMPDEST SWAP2 POP PUSH2 0x133B DUP3 PUSH2 0x12D6 JUMP JUMPDEST PUSH1 0x40 DUP3 ADD SWAP1 POP SWAP2 SWAP1 POP JUMP JUMPDEST PUSH0 PUSH1 0x20 DUP3 ADD SWAP1 POP DUP2 DUP2 SUB PUSH0 DUP4 ADD MSTORE PUSH2 0x135D DUP2 PUSH2 0x1324 JUMP JUMPDEST SWAP1 POP SWAP2 SWAP1 POP JUMP JUMPDEST PUSH0 DUP2 MLOAD SWAP1 POP SWAP2 SWAP1 POP JUMP JUMPDEST PUSH0 DUP2 SWAP1 POP SWAP3 SWAP2 POP POP JUMP JUMPDEST PUSH0 JUMPDEST DUP4 DUP2 LT ISZERO PUSH2 0x1395 JUMPI DUP1 DUP3 ADD MLOAD DUP2 DUP5 ADD MSTORE PUSH1 0x20 DUP2 ADD SWAP1 POP PUSH2 0x137A JUMP JUMPDEST PUSH0 DUP5 DUP5 ADD MSTORE POP POP POP POP JUMP JUMPDEST PUSH0 PUSH2 0x13AA DUP3 PUSH2 0x1364 JUMP JUMPDEST PUSH2 0x13B4 DUP2 DUP6 PUSH2 0x136E JUMP JUMPDEST SWAP4 POP PUSH2 0x13C4 DUP2 DUP6 PUSH1 0x20 DUP7 ADD PUSH2 0x1378 JUMP JUMPDEST DUP1 DUP5 ADD SWAP2 POP POP SWAP3 SWAP2 POP POP JUMP JUMPDEST PUSH0 PUSH2 0x13DB DUP3 DUP5 PUSH2 0x13A0 JUMP JUMPDEST SWAP2 POP DUP2 SWAP1 POP SWAP3 SWAP2 POP POP JUMP JUMPDEST PUSH32 0x416464726573733A2063616C6C20746F206E6F6E2D636F6E7472616374000000 PUSH0 DUP3 ADD MSTORE POP JUMP JUMPDEST PUSH0 PUSH2 0x141A PUSH1 0x1D DUP4 PUSH2 0xDF5 JUMP JUMPDEST SWAP2 POP PUSH2 0x1425 DUP3 PUSH2 0x13E6 JUMP JUMPDEST PUSH1 0x20 DUP3 ADD SWAP1 POP SWAP2 SWAP1 POP JUMP JUMPDEST PUSH0 PUSH1 0x20 DUP3 ADD SWAP1 POP DUP2 DUP2 SUB PUSH0 DUP4 ADD MSTORE PUSH2 0x1447 DUP2 PUSH2 0x140E JUMP JUMPDEST SWAP1 POP SWAP2 SWAP1 POP JUMP JUMPDEST PUSH0 DUP2 MLOAD SWAP1 POP SWAP2 SWAP1 POP JUMP JUMPDEST PUSH0 PUSH1 0x1F NOT PUSH1 0x1F DUP4 ADD AND SWAP1 POP SWAP2 SWAP1 POP JUMP JUMPDEST PUSH0 PUSH2 0x1472 DUP3 PUSH2 0x144E JUMP JUMPDEST PUSH2 0x147C DUP2 DUP6 PUSH2 0xDF5 JUMP JUMPDEST SWAP4 POP PUSH2 0x148C DUP2 DUP6 PUSH1 0x20 DUP7 ADD PUSH2 0x1378 JUMP JUMPDEST PUSH2 0x1495 DUP2 PUSH2 0x1458 JUMP JUMPDEST DUP5 ADD SWAP2 POP POP SWAP3 SWAP2 POP POP JUMP JUMPDEST PUSH0 PUSH1 0x20 DUP3 ADD SWAP1 POP DUP2 DUP2 SUB PUSH0 DUP4 ADD MSTORE PUSH2 0x14B8 DUP2 DUP5 PUSH2 0x1468 JUMP JUMPDEST SWAP1 POP SWAP3 SWAP2 POP POP JUMP INVALID LOG2 PUSH5 0x6970667358 0x22 SLT KECCAK256 SMOD 0xE1 0x4F 0x23 MULMOD 0x2F BALANCE PUSH29 0xAB5DE9731BAFD7A034D97897994E3537323C3CE433BA900664736F6C63 NUMBER STOP ADDMOD ISZERO STOP CALLER PUSH1 0x80 PUSH1 0x40 MSTORE CALLVALUE DUP1 ISZERO PUSH2 0xF JUMPI PUSH0 DUP1 REVERT JUMPDEST POP PUSH0 PUSH2 0x1F PUSH2 0x9D PUSH1 0x20 SHL PUSH1 0x20 SHR JUMP JUMPDEST SWAP1 POP DUP1 PUSH0 DUP1 PUSH2 0x100 EXP DUP2 SLOAD DUP2 PUSH20 0xFFFFFFFFFFFFFFFFFFFFFFFFFFFFFFFFFFFFFFFF MUL NOT AND SWAP1 DUP4 PUSH20 0xFFFFFFFFFFFFFFFFFFFFFFFFFFFFFFFFFFFFFFFF AND MUL OR SWAP1 SSTORE POP PUSH32 0x4101E71E974F68DF5E9730CC223280B41654676BBB052CDCC735C3337E64D2D9 DUP2 PUSH1 0x40 MLOAD PUSH2 0x8F SWAP2 SWAP1 PUSH2 0xE3 JUMP JUMPDEST PUSH1 0x40 MLOAD DUP1 SWAP2 SUB SWAP1 LOG1 POP PUSH2 0xFC JUMP JUMPDEST PUSH0 CALLER SWAP1 POP SWAP1 JUMP JUMPDEST PUSH0 PUSH20 0xFFFFFFFFFFFFFFFFFFFFFFFFFFFFFFFFFFFFFFFF DUP3 AND SWAP1 POP SWAP2 SWAP1 POP JUMP JUMPDEST PUSH0 PUSH2 0xCD DUP3 PUSH2 0xA4 JUMP JUMPDEST SWAP1 POP SWAP2 SWAP1 POP JUMP JUMPDEST PUSH2 0xDD DUP2 PUSH2 0xC3 JUMP JUMPDEST DUP3 MSTORE POP POP JUMP JUMPDEST PUSH0 PUSH1 0x20 DUP3 ADD SWAP1 POP PUSH2 0xF6 PUSH0 DUP4 ADD DUP5 PUSH2 0xD4 JUMP JUMPDEST SWAP3 SWAP2 POP POP JUMP JUMPDEST PUSH2 0x6BE DUP1 PUSH2 0x109 PUSH0 CODECOPY PUSH0 RETURN INVALID PUSH1 0x80 PUSH1 0x40 MSTORE CALLVALUE DUP1 ISZERO PUSH2 0xF JUMPI PUSH0 DUP1 REVERT JUMPDEST POP PUSH1 0x4 CALLDATASIZE LT PUSH2 0x3F JUMPI PUSH0 CALLDATALOAD PUSH1 0xE0 SHR DUP1 PUSH4 0x2348238C EQ PUSH2 0x43 JUMPI DUP1 PUSH4 0xBEABACC8 EQ PUSH2 0x5F JUMPI DUP1 PUSH4 0xC6DBDF61 EQ PUSH2 0x7B JUMPI JUMPDEST PUSH0 DUP1 REVERT JUMPDEST PUSH2 0x5D PUSH1 0x4 DUP1 CALLDATASIZE SUB DUP2 ADD SWAP1 PUSH2 0x58 SWAP2 SWAP1 PUSH2 0x3B5 JUMP JUMPDEST PUSH2 0x99 JUMP JUMPDEST STOP JUMPDEST PUSH2 0x79 PUSH1 0x4 DUP1 CALLDATASIZE SUB DUP2 ADD SWAP1 PUSH2 0x74 SWAP2 SWAP1 PUSH2 0x44E JUMP JUMPDEST PUSH2 0x214 JUMP JUMPDEST STOP JUMPDEST PUSH2 0x83 PUSH2 0x329 JUMP JUMPDEST PUSH1 0x40 MLOAD PUSH2 0x90 SWAP2 SWAP1 PUSH2 0x4AD JUMP JUMPDEST PUSH1 0x40 MLOAD DUP1 SWAP2 SUB SWAP1 RETURN JUMPDEST PUSH0 DUP1 SLOAD SWAP1 PUSH2 0x100 EXP SWAP1 DIV PUSH20 0xFFFFFFFFFFFFFFFFFFFFFFFFFFFFFFFFFFFFFFFF AND PUSH20 0xFFFFFFFFFFFFFFFFFFFFFFFFFFFFFFFFFFFFFFFF AND PUSH2 0xD7 PUSH2 0x350 JUMP JUMPDEST PUSH20 0xFFFFFFFFFFFFFFFFFFFFFFFFFFFFFFFFFFFFFFFF AND EQ PUSH2 0x12D JUMPI PUSH1 0x40 MLOAD PUSH32 0x8C379A000000000000000000000000000000000000000000000000000000000 DUP2 MSTORE PUSH1 0x4 ADD PUSH2 0x124 SWAP1 PUSH2 0x546 JUMP JUMPDEST PUSH1 0x40 MLOAD DUP1 SWAP2 SUB SWAP1 REVERT JUMPDEST PUSH0 PUSH20 0xFFFFFFFFFFFFFFFFFFFFFFFFFFFFFFFFFFFFFFFF AND DUP2 PUSH20 0xFFFFFFFFFFFFFFFFFFFFFFFFFFFFFFFFFFFFFFFF AND SUB PUSH2 0x19B JUMPI PUSH1 0x40 MLOAD PUSH32 0x8C379A000000000000000000000000000000000000000000000000000000000 DUP2 MSTORE PUSH1 0x4 ADD PUSH2 0x192 SWAP1 PUSH2 0x5D4 JUMP JUMPDEST PUSH1 0x40 MLOAD DUP1 SWAP2 SUB SWAP1 REVERT JUMPDEST DUP1 PUSH0 DUP1 PUSH2 0x100 EXP DUP2 SLOAD DUP2 PUSH20 0xFFFFFFFFFFFFFFFFFFFFFFFFFFFFFFFFFFFFFFFF MUL NOT AND SWAP1 DUP4 PUSH20 0xFFFFFFFFFFFFFFFFFFFFFFFFFFFFFFFFFFFFFFFF AND MUL OR SWAP1 SSTORE POP PUSH32 0x4101E71E974F68DF5E9730CC223280B41654676BBB052CDCC735C3337E64D2D9 DUP2 PUSH1 0x40 MLOAD PUSH2 0x209 SWAP2 SWAP1 PUSH2 0x4AD JUMP JUMPDEST PUSH1 0x40 MLOAD DUP1 SWAP2 SUB SWAP1 LOG1 POP JUMP JUMPDEST PUSH0 DUP1 SLOAD SWAP1 PUSH2 0x100 EXP SWAP1 DIV PUSH20 0xFFFFFFFFFFFFFFFFFFFFFFFFFFFFFFFFFFFFFFFF AND PUSH20 0xFFFFFFFFFFFFFFFFFFFFFFFFFFFFFFFFFFFFFFFF AND PUSH2 0x252 PUSH2 0x350 JUMP JUMPDEST PUSH20 0xFFFFFFFFFFFFFFFFFFFFFFFFFFFFFFFFFFFFFFFF AND EQ PUSH2 0x2A8 JUMPI PUSH1 0x40 MLOAD PUSH32 0x8C379A000000000000000000000000000000000000000000000000000000000 DUP2 MSTORE PUSH1 0x4 ADD PUSH2 0x29F SWAP1 PUSH2 0x546 JUMP JUMPDEST PUSH1 0x40 MLOAD DUP1 SWAP2 SUB SWAP1 REVERT JUMPDEST DUP3 PUSH20 0xFFFFFFFFFFFFFFFFFFFFFFFFFFFFFFFFFFFFFFFF AND PUSH4 0xA9059CBB DUP4 DUP4 PUSH1 0x40 MLOAD DUP4 PUSH4 0xFFFFFFFF AND PUSH1 0xE0 SHL DUP2 MSTORE PUSH1 0x4 ADD PUSH2 0x2E3 SWAP3 SWAP2 SWAP1 PUSH2 0x601 JUMP JUMPDEST PUSH1 0x20 PUSH1 0x40 MLOAD DUP1 DUP4 SUB DUP2 PUSH0 DUP8 GAS CALL ISZERO DUP1 ISZERO PUSH2 0x2FF JUMPI RETURNDATASIZE PUSH0 DUP1 RETURNDATACOPY RETURNDATASIZE PUSH0 REVERT JUMPDEST POP POP POP POP PUSH1 0x40 MLOAD RETURNDATASIZE PUSH1 0x1F NOT PUSH1 0x1F DUP3 ADD AND DUP3 ADD DUP1 PUSH1 0x40 MSTORE POP DUP2 ADD SWAP1 PUSH2 0x323 SWAP2 SWAP1 PUSH2 0x65D JUMP JUMPDEST POP POP POP POP JUMP JUMPDEST PUSH0 DUP1 PUSH0 SWAP1 SLOAD SWAP1 PUSH2 0x100 EXP SWAP1 DIV PUSH20 0xFFFFFFFFFFFFFFFFFFFFFFFFFFFFFFFFFFFFFFFF AND SWAP1 POP SWAP1 JUMP JUMPDEST PUSH0 CALLER SWAP1 POP SWAP1 JUMP JUMPDEST PUSH0 DUP1 REVERT JUMPDEST PUSH0 PUSH20 0xFFFFFFFFFFFFFFFFFFFFFFFFFFFFFFFFFFFFFFFF DUP3 AND SWAP1 POP SWAP2 SWAP1 POP JUMP JUMPDEST PUSH0 PUSH2 0x384 DUP3 PUSH2 0x35B JUMP JUMPDEST SWAP1 POP SWAP2 SWAP1 POP JUMP JUMPDEST PUSH2 0x394 DUP2 PUSH2 0x37A JUMP JUMPDEST DUP2 EQ PUSH2 0x39E JUMPI PUSH0 DUP1 REVERT JUMPDEST POP JUMP JUMPDEST PUSH0 DUP2 CALLDATALOAD SWAP1 POP PUSH2 0x3AF DUP2 PUSH2 0x38B JUMP JUMPDEST SWAP3 SWAP2 POP POP JUMP JUMPDEST PUSH0 PUSH1 0x20 DUP3 DUP5 SUB SLT ISZERO PUSH2 0x3CA JUMPI PUSH2 0x3C9 PUSH2 0x357 JUMP JUMPDEST JUMPDEST PUSH0 PUSH2 0x3D7 DUP5 DUP3 DUP6 ADD PUSH2 0x3A1 JUMP JUMPDEST SWAP2 POP POP SWAP3 SWAP2 POP POP JUMP JUMPDEST PUSH0 PUSH2 0x3EA DUP3 PUSH2 0x37A JUMP JUMPDEST SWAP1 POP SWAP2 SWAP1 POP JUMP JUMPDEST PUSH2 0x3FA DUP2 PUSH2 0x3E0 JUMP JUMPDEST DUP2 EQ PUSH2 0x404 JUMPI PUSH0 DUP1 REVERT JUMPDEST POP JUMP JUMPDEST PUSH0 DUP2 CALLDATALOAD SWAP1 POP PUSH2 0x415 DUP2 PUSH2 0x3F1 JUMP JUMPDEST SWAP3 SWAP2 POP POP JUMP JUMPDEST PUSH0 DUP2 SWAP1 POP SWAP2 SWAP1 POP JUMP JUMPDEST PUSH2 0x42D DUP2 PUSH2 0x41B JUMP JUMPDEST DUP2 EQ PUSH2 0x437 JUMPI PUSH0 DUP1 REVERT JUMPDEST POP JUMP JUMPDEST PUSH0 DUP2 CALLDATALOAD SWAP1 POP PUSH2 0x448 DUP2 PUSH2 0x424 JUMP JUMPDEST SWAP3 SWAP2 POP POP JUMP JUMPDEST PUSH0 DUP1 PUSH0 PUSH1 0x60 DUP5 DUP7 SUB SLT ISZERO PUSH2 0x465 JUMPI PUSH2 0x464 PUSH2 0x357 JUMP JUMPDEST JUMPDEST PUSH0 PUSH2 0x472 DUP7 DUP3 DUP8 ADD PUSH2 0x407 JUMP JUMPDEST SWAP4 POP POP PUSH1 0x20 PUSH2 0x483 DUP7 DUP3 DUP8 ADD PUSH2 0x3A1 JUMP JUMPDEST SWAP3 POP POP PUSH1 0x40 PUSH2 0x494 DUP7 DUP3 DUP8 ADD PUSH2 0x43A JUMP JUMPDEST SWAP2 POP POP SWAP3 POP SWAP3 POP SWAP3 JUMP JUMPDEST PUSH2 0x4A7 DUP2 PUSH2 0x37A JUMP JUMPDEST DUP3 MSTORE POP POP JUMP JUMPDEST PUSH0 PUSH1 0x20 DUP3 ADD SWAP1 POP PUSH2 0x4C0 PUSH0 DUP4 ADD DUP5 PUSH2 0x49E JUMP JUMPDEST SWAP3 SWAP2 POP POP JUMP JUMPDEST PUSH0 DUP3 DUP3 MSTORE PUSH1 0x20 DUP3 ADD SWAP1 POP SWAP3 SWAP2 POP POP JUMP JUMPDEST PUSH32 0x5365636F6E646172793A2063616C6C6572206973206E6F742074686520707269 PUSH0 DUP3 ADD MSTORE PUSH32 0x6D617279206163636F756E740000000000000000000000000000000000000000 PUSH1 0x20 DUP3 ADD MSTORE POP JUMP JUMPDEST PUSH0 PUSH2 0x530 PUSH1 0x2C DUP4 PUSH2 0x4C6 JUMP JUMPDEST SWAP2 POP PUSH2 0x53B DUP3 PUSH2 0x4D6 JUMP JUMPDEST PUSH1 0x40 DUP3 ADD SWAP1 POP SWAP2 SWAP1 POP JUMP JUMPDEST PUSH0 PUSH1 0x20 DUP3 ADD SWAP1 POP DUP2 DUP2 SUB PUSH0 DUP4 ADD MSTORE PUSH2 0x55D DUP2 PUSH2 0x524 JUMP JUMPDEST SWAP1 POP SWAP2 SWAP1 POP JUMP JUMPDEST PUSH32 0x5365636F6E646172793A206E6577207072696D61727920697320746865207A65 PUSH0 DUP3 ADD MSTORE PUSH32 0x726F206164647265737300000000000000000000000000000000000000000000 PUSH1 0x20 DUP3 ADD MSTORE POP JUMP JUMPDEST PUSH0 PUSH2 0x5BE PUSH1 0x2A DUP4 PUSH2 0x4C6 JUMP JUMPDEST SWAP2 POP PUSH2 0x5C9 DUP3 PUSH2 0x564 JUMP JUMPDEST PUSH1 0x40 DUP3 ADD SWAP1 POP SWAP2 SWAP1 POP JUMP JUMPDEST PUSH0 PUSH1 0x20 DUP3 ADD SWAP1 POP DUP2 DUP2 SUB PUSH0 DUP4 ADD MSTORE PUSH2 0x5EB DUP2 PUSH2 0x5B2 JUMP JUMPDEST SWAP1 POP SWAP2 SWAP1 POP JUMP JUMPDEST PUSH2 0x5FB DUP2 PUSH2 0x41B JUMP JUMPDEST DUP3 MSTORE POP POP JUMP JUMPDEST PUSH0 PUSH1 0x40 DUP3 ADD SWAP1 POP PUSH2 0x614 PUSH0 DUP4 ADD DUP6 PUSH2 0x49E JUMP JUMPDEST PUSH2 0x621 PUSH1 0x20 DUP4 ADD DUP5 PUSH2 0x5F2 JUMP JUMPDEST SWAP4 SWAP3 POP POP POP JUMP JUMPDEST PUSH0 DUP2 ISZERO ISZERO SWAP1 POP SWAP2 SWAP1 POP JUMP JUMPDEST PUSH2 0x63C DUP2 PUSH2 0x628 JUMP JUMPDEST DUP2 EQ PUSH2 0x646 JUMPI PUSH0 DUP1 REVERT JUMPDEST POP JUMP JUMPDEST PUSH0 DUP2 MLOAD SWAP1 POP PUSH2 0x657 DUP2 PUSH2 0x633 JUMP JUMPDEST SWAP3 SWAP2 POP POP JUMP JUMPDEST PUSH0 PUSH1 0x20 DUP3 DUP5 SUB SLT ISZERO PUSH2 0x672 JUMPI PUSH2 0x671 PUSH2 0x357 JUMP JUMPDEST JUMPDEST PUSH0 PUSH2 0x67F DUP5 DUP3 DUP6 ADD PUSH2 0x649 JUMP JUMPDEST SWAP2 POP POP SWAP3 SWAP2 POP POP JUMP INVALID LOG2 PUSH5 0x6970667358 0x22 SLT KECCAK256 0x1E XOR CODECOPY LOG1 0xFB DUP8 0xD3 XOR 0xC8 PUSH10 0xD576154ACF3817D56D8F PUSH22 0xEBC0AD4B8B455DF7F055ED64736F6C63430008150033 "
				},
				"gasEstimates": {
					"creation": {
						"codeDepositCost": "1073200",
						"executionCost": "infinite",
						"totalCost": "infinite"
					},
					"external": {
						"": "infinite",
						"balanceOf(address)": "2873",
						"buyTokens(address)": "infinite",
						"closingTime()": "2432",
						"hasClosed()": "2444",
						"isOpen()": "4646",
						"openingTime()": "2498",
						"rate()": "2455",
						"token()": "infinite",
						"wallet()": "2537",
						"weiRaised()": "2477",
						"withdrawTokens(address)": "infinite"
					},
					"internal": {
						"_processPurchase(address,uint256)": "infinite"
					}
				},
				"methodIdentifiers": {
					"balanceOf(address)": "70a08231",
					"buyTokens(address)": "ec8ac4d8",
					"closingTime()": "4b6753bc",
					"hasClosed()": "1515bc2b",
					"isOpen()": "47535d7b",
					"openingTime()": "b7a8807c",
					"rate()": "2c4e722e",
					"token()": "fc0c546a",
					"wallet()": "521eb273",
					"weiRaised()": "4042b66f",
					"withdrawTokens(address)": "49df728c"
				}
			},
			"storageLayout": {
				"storage": [
					{
						"astId": 118,
						"contract": "crowdsale/distribution/postDeliveryCrowdsale.sol:PostDeliveryCrowdsale",
						"label": "_status",
						"offset": 0,
						"slot": "0",
						"type": "t_uint256"
					},
					{
						"astId": 1348,
						"contract": "crowdsale/distribution/postDeliveryCrowdsale.sol:PostDeliveryCrowdsale",
						"label": "_token",
						"offset": 0,
						"slot": "1",
						"type": "t_contract(IERC20)250"
					},
					{
						"astId": 1350,
						"contract": "crowdsale/distribution/postDeliveryCrowdsale.sol:PostDeliveryCrowdsale",
						"label": "_wallet",
						"offset": 0,
						"slot": "2",
						"type": "t_address_payable"
					},
					{
						"astId": 1352,
						"contract": "crowdsale/distribution/postDeliveryCrowdsale.sol:PostDeliveryCrowdsale",
						"label": "_rate",
						"offset": 0,
						"slot": "3",
						"type": "t_uint256"
					},
					{
						"astId": 1354,
						"contract": "crowdsale/distribution/postDeliveryCrowdsale.sol:PostDeliveryCrowdsale",
						"label": "_weiRaised",
						"offset": 0,
						"slot": "4",
						"type": "t_uint256"
					},
					{
						"astId": 1886,
						"contract": "crowdsale/distribution/postDeliveryCrowdsale.sol:PostDeliveryCrowdsale",
						"label": "_openingTime",
						"offset": 0,
						"slot": "5",
						"type": "t_uint256"
					},
					{
						"astId": 1888,
						"contract": "crowdsale/distribution/postDeliveryCrowdsale.sol:PostDeliveryCrowdsale",
						"label": "_closingTime",
						"offset": 0,
						"slot": "6",
						"type": "t_uint256"
					},
					{
						"astId": 1652,
						"contract": "crowdsale/distribution/postDeliveryCrowdsale.sol:PostDeliveryCrowdsale",
						"label": "_balances",
						"offset": 0,
						"slot": "7",
						"type": "t_mapping(t_address,t_uint256)"
					},
					{
						"astId": 1655,
						"contract": "crowdsale/distribution/postDeliveryCrowdsale.sol:PostDeliveryCrowdsale",
						"label": "_vault",
						"offset": 0,
						"slot": "8",
						"type": "t_contract(__unstable__TokenVault)1792"
					}
				],
				"types": {
					"t_address": {
						"encoding": "inplace",
						"label": "address",
						"numberOfBytes": "20"
					},
					"t_address_payable": {
						"encoding": "inplace",
						"label": "address payable",
						"numberOfBytes": "20"
					},
					"t_contract(IERC20)250": {
						"encoding": "inplace",
						"label": "contract IERC20",
						"numberOfBytes": "20"
					},
					"t_contract(__unstable__TokenVault)1792": {
						"encoding": "inplace",
						"label": "contract __unstable__TokenVault",
						"numberOfBytes": "20"
					},
					"t_mapping(t_address,t_uint256)": {
						"encoding": "mapping",
						"key": "t_address",
						"label": "mapping(address => uint256)",
						"numberOfBytes": "32",
						"value": "t_uint256"
					},
					"t_uint256": {
						"encoding": "inplace",
						"label": "uint256",
						"numberOfBytes": "32"
					}
				}
			},
			"userdoc": {
				"events": {
					"TimedCrowdsaleExtended(uint256,uint256)": {
						"notice": "Event for crowdsale extending"
					},
					"TokensPurchased(address,address,uint256,uint256)": {
						"notice": "Event for token purchase logging"
					}
				},
				"kind": "user",
				"methods": {},
				"version": 1
			}
		}
	}
}