{
	"crowdsale/validation/timedCrowdsale.sol": {
		"TimedCrowdsale": {
			"abi": [
				{
					"inputs": [
						{
							"internalType": "uint256",
							"name": "inOpeningTime",
							"type": "uint256"
						},
						{
							"internalType": "uint256",
							"name": "inClosingTime",
							"type": "uint256"
						},
						{
							"internalType": "uint256",
							"name": "inRate",
							"type": "uint256"
						},
						{
							"internalType": "address payable",
							"name": "inWallet",
							"type": "address"
						},
						{
							"internalType": "contract IERC20",
							"name": "inToken",
							"type": "address"
						}
					],
					"stateMutability": "nonpayable",
					"type": "constructor"
				},
				{
					"anonymous": false,
					"inputs": [
						{
							"indexed": false,
							"internalType": "uint256",
							"name": "prevClosingTime",
							"type": "uint256"
						},
						{
							"indexed": false,
							"internalType": "uint256",
							"name": "newClosingTime",
							"type": "uint256"
						}
					],
					"name": "TimedCrowdsaleExtended",
					"type": "event"
				},
				{
					"anonymous": false,
					"inputs": [
						{
							"indexed": true,
							"internalType": "address",
							"name": "purchaser",
							"type": "address"
						},
						{
							"indexed": true,
							"internalType": "address",
							"name": "beneficiary",
							"type": "address"
						},
						{
							"indexed": false,
							"internalType": "uint256",
							"name": "value",
							"type": "uint256"
						},
						{
							"indexed": false,
							"internalType": "uint256",
							"name": "amount",
							"type": "uint256"
						}
					],
					"name": "TokensPurchased",
					"type": "event"
				},
				{
					"stateMutability": "payable",
					"type": "fallback"
				},
				{
					"inputs": [
						{
							"internalType": "address",
							"name": "beneficiary",
							"type": "address"
						}
					],
					"name": "buyTokens",
					"outputs": [],
					"stateMutability": "payable",
					"type": "function"
				},
				{
					"inputs": [],
					"name": "closingTime",
					"outputs": [
						{
							"internalType": "uint256",
							"name": "",
							"type": "uint256"
						}
					],
					"stateMutability": "view",
					"type": "function"
				},
				{
					"inputs": [],
					"name": "hasClosed",
					"outputs": [
						{
							"internalType": "bool",
							"name": "",
							"type": "bool"
						}
					],
					"stateMutability": "view",
					"type": "function"
				},
				{
					"inputs": [],
					"name": "isOpen",
					"outputs": [
						{
							"internalType": "bool",
							"name": "",
							"type": "bool"
						}
					],
					"stateMutability": "view",
					"type": "function"
				},
				{
					"inputs": [],
					"name": "openingTime",
					"outputs": [
						{
							"internalType": "uint256",
							"name": "",
							"type": "uint256"
						}
					],
					"stateMutability": "view",
					"type": "function"
				},
				{
					"inputs": [],
					"name": "rate",
					"outputs": [
						{
							"internalType": "uint256",
							"name": "",
							"type": "uint256"
						}
					],
					"stateMutability": "view",
					"type": "function"
				},
				{
					"inputs": [],
					"name": "token",
					"outputs": [
						{
							"internalType": "contract IERC20",
							"name": "",
							"type": "address"
						}
					],
					"stateMutability": "view",
					"type": "function"
				},
				{
					"inputs": [],
					"name": "wallet",
					"outputs": [
						{
							"internalType": "address payable",
							"name": "",
							"type": "address"
						}
					],
					"stateMutability": "view",
					"type": "function"
				},
				{
					"inputs": [],
					"name": "weiRaised",
					"outputs": [
						{
							"internalType": "uint256",
							"name": "",
							"type": "uint256"
						}
					],
					"stateMutability": "view",
					"type": "function"
				},
				{
					"stateMutability": "payable",
					"type": "receive"
				}
			],
			"devdoc": {
				"details": "Crowdsale accepting contributions only within a time frame.",
				"events": {
					"TimedCrowdsaleExtended(uint256,uint256)": {
						"params": {
							"newClosingTime": "new closing time",
							"prevClosingTime": "old closing time"
						}
					},
					"TokensPurchased(address,address,uint256,uint256)": {
						"params": {
							"amount": "amount of tokens purchased",
							"beneficiary": "who got the tokens",
							"purchaser": "who paid for the tokens",
							"value": "weis paid for purchase"
						}
					}
				},
				"kind": "dev",
				"methods": {
					"buyTokens(address)": {
						"details": "low level token purchase ***DO NOT OVERRIDE*** This function has a non-reentrancy guard, so it shouldn't be called by another `nonReentrant` function.",
						"params": {
							"beneficiary": "Recipient of the token purchase"
						}
					},
					"closingTime()": {
						"returns": {
							"_0": "the crowdsale closing time."
						}
					},
					"constructor": {
						"details": "Constructor, takes crowdsale opening and closing times.",
						"params": {
							"inClosingTime": "Crowdsale closing time",
							"inOpeningTime": "Crowdsale opening time"
						}
					},
					"hasClosed()": {
						"details": "Checks whether the period in which the crowdsale is open has already elapsed.",
						"returns": {
							"_0": "Whether crowdsale period has elapsed"
						}
					},
					"isOpen()": {
						"returns": {
							"_0": "true if the crowdsale is open, false otherwise."
						}
					},
					"openingTime()": {
						"returns": {
							"_0": "the crowdsale opening time."
						}
					},
					"rate()": {
						"returns": {
							"_0": "the number of token units a buyer gets per wei."
						}
					},
					"token()": {
						"returns": {
							"_0": "the token being sold."
						}
					},
					"wallet()": {
						"returns": {
							"_0": "the address where funds are collected."
						}
					},
					"weiRaised()": {
						"returns": {
							"_0": "the amount of wei raised."
						}
					}
				},
				"title": "TimedCrowdsale",
				"version": 1
			},
			"evm": {
				"assembly": "    /* \"crowdsale/validation/timedCrowdsale.sol\":320:3473  contract TimedCrowdsale is Crowdsale {... */\n  mstore(0x40, 0x80)\n    /* \"crowdsale/validation/timedCrowdsale.sol\":1077:1643  constructor (uint256 inOpeningTime, uint256 inClosingTime, uint256 inRate, address payable inWallet, IERC20 inToken) Crowdsale(inRate, inWallet, inToken) {... */\n  callvalue\n  dup1\n  iszero\n  tag_1\n  jumpi\n  0x00\n  dup1\n  revert\ntag_1:\n  pop\n  mload(0x40)\n  sub(codesize, bytecodeSize)\n  dup1\n  bytecodeSize\n  dup4\n  codecopy\n  dup2\n  dup2\n  add\n  0x40\n  mstore\n  dup2\n  add\n  swap1\n  tag_2\n  swap2\n  swap1\n  tag_3\n  jump\t// in\ntag_2:\n    /* \"crowdsale/validation/timedCrowdsale.sol\":1204:1210  inRate */\n  dup3\n    /* \"crowdsale/validation/timedCrowdsale.sol\":1212:1220  inWallet */\n  dup3\n    /* \"crowdsale/validation/timedCrowdsale.sol\":1222:1229  inToken */\n  dup3\n    /* \"@openzeppelin/contracts/security/ReentrancyGuard.sol\":1716:1717  1 */\n  0x01\n    /* \"@openzeppelin/contracts/security/ReentrancyGuard.sol\":1821:1828  _status */\n  0x00\n    /* \"@openzeppelin/contracts/security/ReentrancyGuard.sol\":1821:1843  _status = _NOT_ENTERED */\n  dup2\n  swap1\n  sstore\n  pop\n    /* \"crowdsale/crowdsale.sol\":2644:2645  0 */\n  0x00\n    /* \"crowdsale/crowdsale.sol\":2635:2641  inRate */\n  dup4\n    /* \"crowdsale/crowdsale.sol\":2635:2645  inRate > 0 */\n  gt\n    /* \"crowdsale/crowdsale.sol\":2627:2670  require(inRate > 0, \"Crowdsale: rate is 0\") */\n  tag_9\n  jumpi\n  mload(0x40)\n  0x08c379a000000000000000000000000000000000000000000000000000000000\n  dup2\n  mstore\n  0x04\n  add\n  tag_10\n  swap1\n  tag_11\n  jump\t// in\ntag_10:\n  mload(0x40)\n  dup1\n  swap2\n  sub\n  swap1\n  revert\ntag_9:\n    /* \"crowdsale/crowdsale.sol\":2709:2710  0 */\n  0x00\n    /* \"crowdsale/crowdsale.sol\":2689:2711  inWallet != address(0) */\n  0xffffffffffffffffffffffffffffffffffffffff\n  and\n    /* \"crowdsale/crowdsale.sol\":2689:2697  inWallet */\n  dup3\n    /* \"crowdsale/crowdsale.sol\":2689:2711  inWallet != address(0) */\n  0xffffffffffffffffffffffffffffffffffffffff\n  and\n  sub\n    /* \"crowdsale/crowdsale.sol\":2681:2753  require(inWallet != address(0), \"Crowdsale: wallet is the zero address\") */\n  tag_12\n  jumpi\n  mload(0x40)\n  0x08c379a000000000000000000000000000000000000000000000000000000000\n  dup2\n  mstore\n  0x04\n  add\n  tag_13\n  swap1\n  tag_14\n  jump\t// in\ntag_13:\n  mload(0x40)\n  dup1\n  swap2\n  sub\n  swap1\n  revert\ntag_12:\n    /* \"crowdsale/crowdsale.sol\":2800:2801  0 */\n  0x00\n    /* \"crowdsale/crowdsale.sol\":2772:2802  address(inToken) != address(0) */\n  0xffffffffffffffffffffffffffffffffffffffff\n  and\n    /* \"crowdsale/crowdsale.sol\":2780:2787  inToken */\n  dup2\n    /* \"crowdsale/crowdsale.sol\":2772:2802  address(inToken) != address(0) */\n  0xffffffffffffffffffffffffffffffffffffffff\n  and\n  sub\n    /* \"crowdsale/crowdsale.sol\":2764:2843  require(address(inToken) != address(0), \"Crowdsale: token is the zero address\") */\n  tag_15\n  jumpi\n  mload(0x40)\n  0x08c379a000000000000000000000000000000000000000000000000000000000\n  dup2\n  mstore\n  0x04\n  add\n  tag_16\n  swap1\n  tag_17\n  jump\t// in\ntag_16:\n  mload(0x40)\n  dup1\n  swap2\n  sub\n  swap1\n  revert\ntag_15:\n    /* \"crowdsale/crowdsale.sol\":2864:2870  inRate */\n  dup3\n    /* \"crowdsale/crowdsale.sol\":2856:2861  _rate */\n  0x03\n    /* \"crowdsale/crowdsale.sol\":2856:2870  _rate = inRate */\n  dup2\n  swap1\n  sstore\n  pop\n    /* \"crowdsale/crowdsale.sol\":2891:2899  inWallet */\n  dup2\n    /* \"crowdsale/crowdsale.sol\":2881:2888  _wallet */\n  0x02\n  0x00\n    /* \"crowdsale/crowdsale.sol\":2881:2899  _wallet = inWallet */\n  0x0100\n  exp\n  dup2\n  sload\n  dup2\n  0xffffffffffffffffffffffffffffffffffffffff\n  mul\n  not\n  and\n  swap1\n  dup4\n  0xffffffffffffffffffffffffffffffffffffffff\n  and\n  mul\n  or\n  swap1\n  sstore\n  pop\n    /* \"crowdsale/crowdsale.sol\":2919:2926  inToken */\n  dup1\n    /* \"crowdsale/crowdsale.sol\":2910:2916  _token */\n  0x01\n  0x00\n    /* \"crowdsale/crowdsale.sol\":2910:2926  _token = inToken */\n  0x0100\n  exp\n  dup2\n  sload\n  dup2\n  0xffffffffffffffffffffffffffffffffffffffff\n  mul\n  not\n  and\n  swap1\n  dup4\n  0xffffffffffffffffffffffffffffffffffffffff\n  and\n  mul\n  or\n  swap1\n  sstore\n  pop\n    /* \"crowdsale/crowdsale.sol\":2545:2934  constructor (uint256 inRate, address payable inWallet, IERC20 inToken) {... */\n  pop\n  pop\n  pop\n    /* \"crowdsale/validation/timedCrowdsale.sol\":1322:1337  block.timestamp */\n  timestamp\n    /* \"crowdsale/validation/timedCrowdsale.sol\":1305:1318  inOpeningTime */\n  dup6\n    /* \"crowdsale/validation/timedCrowdsale.sol\":1305:1337  inOpeningTime >= block.timestamp */\n  lt\n  iszero\n    /* \"crowdsale/validation/timedCrowdsale.sol\":1297:1393  require(inOpeningTime >= block.timestamp, \"TimedCrowdsale: opening time is before current time\") */\n  tag_19\n  jumpi\n  mload(0x40)\n  0x08c379a000000000000000000000000000000000000000000000000000000000\n  dup2\n  mstore\n  0x04\n  add\n  tag_20\n  swap1\n  tag_21\n  jump\t// in\ntag_20:\n  mload(0x40)\n  dup1\n  swap2\n  sub\n  swap1\n  revert\ntag_19:\n    /* \"crowdsale/validation/timedCrowdsale.sol\":1482:1495  inOpeningTime */\n  dup5\n    /* \"crowdsale/validation/timedCrowdsale.sol\":1466:1479  inClosingTime */\n  dup5\n    /* \"crowdsale/validation/timedCrowdsale.sol\":1466:1495  inClosingTime > inOpeningTime */\n  gt\n    /* \"crowdsale/validation/timedCrowdsale.sol\":1458:1555  require(inClosingTime > inOpeningTime, \"TimedCrowdsale: opening time is not before closing time\") */\n  tag_22\n  jumpi\n  mload(0x40)\n  0x08c379a000000000000000000000000000000000000000000000000000000000\n  dup2\n  mstore\n  0x04\n  add\n  tag_23\n  swap1\n  tag_24\n  jump\t// in\ntag_23:\n  mload(0x40)\n  dup1\n  swap2\n  sub\n  swap1\n  revert\ntag_22:\n    /* \"crowdsale/validation/timedCrowdsale.sol\":1583:1596  inOpeningTime */\n  dup5\n    /* \"crowdsale/validation/timedCrowdsale.sol\":1568:1580  _openingTime */\n  0x05\n    /* \"crowdsale/validation/timedCrowdsale.sol\":1568:1596  _openingTime = inOpeningTime */\n  dup2\n  swap1\n  sstore\n  pop\n    /* \"crowdsale/validation/timedCrowdsale.sol\":1622:1635  inClosingTime */\n  dup4\n    /* \"crowdsale/validation/timedCrowdsale.sol\":1607:1619  _closingTime */\n  0x06\n    /* \"crowdsale/validation/timedCrowdsale.sol\":1607:1635  _closingTime = inClosingTime */\n  dup2\n  swap1\n  sstore\n  pop\n    /* \"crowdsale/validation/timedCrowdsale.sol\":1077:1643  constructor (uint256 inOpeningTime, uint256 inClosingTime, uint256 inRate, address payable inWallet, IERC20 inToken) Crowdsale(inRate, inWallet, inToken) {... */\n  pop\n  pop\n  pop\n  pop\n  pop\n    /* \"crowdsale/validation/timedCrowdsale.sol\":320:3473  contract TimedCrowdsale is Crowdsale {... */\n  jump(tag_25)\n    /* \"#utility.yul\":88:205   */\ntag_27:\n    /* \"#utility.yul\":197:198   */\n  0x00\n    /* \"#utility.yul\":194:195   */\n  dup1\n    /* \"#utility.yul\":187:199   */\n  revert\n    /* \"#utility.yul\":334:411   */\ntag_29:\n    /* \"#utility.yul\":371:378   */\n  0x00\n    /* \"#utility.yul\":400:405   */\n  dup2\n    /* \"#utility.yul\":389:405   */\n  swap1\n  pop\n    /* \"#utility.yul\":334:411   */\n  swap2\n  swap1\n  pop\n  jump\t// out\n    /* \"#utility.yul\":417:539   */\ntag_30:\n    /* \"#utility.yul\":490:514   */\n  tag_57\n    /* \"#utility.yul\":508:513   */\n  dup2\n    /* \"#utility.yul\":490:514   */\n  tag_29\n  jump\t// in\ntag_57:\n    /* \"#utility.yul\":483:488   */\n  dup2\n    /* \"#utility.yul\":480:515   */\n  eq\n    /* \"#utility.yul\":470:533   */\n  tag_58\n  jumpi\n    /* \"#utility.yul\":529:530   */\n  0x00\n    /* \"#utility.yul\":526:527   */\n  dup1\n    /* \"#utility.yul\":519:531   */\n  revert\n    /* \"#utility.yul\":470:533   */\ntag_58:\n    /* \"#utility.yul\":417:539   */\n  pop\n  jump\t// out\n    /* \"#utility.yul\":545:688   */\ntag_31:\n    /* \"#utility.yul\":602:607   */\n  0x00\n    /* \"#utility.yul\":633:639   */\n  dup2\n    /* \"#utility.yul\":627:640   */\n  mload\n    /* \"#utility.yul\":618:640   */\n  swap1\n  pop\n    /* \"#utility.yul\":649:682   */\n  tag_60\n    /* \"#utility.yul\":676:681   */\n  dup2\n    /* \"#utility.yul\":649:682   */\n  tag_30\n  jump\t// in\ntag_60:\n    /* \"#utility.yul\":545:688   */\n  swap3\n  swap2\n  pop\n  pop\n  jump\t// out\n    /* \"#utility.yul\":694:820   */\ntag_32:\n    /* \"#utility.yul\":731:738   */\n  0x00\n    /* \"#utility.yul\":771:813   */\n  0xffffffffffffffffffffffffffffffffffffffff\n    /* \"#utility.yul\":764:769   */\n  dup3\n    /* \"#utility.yul\":760:814   */\n  and\n    /* \"#utility.yul\":749:814   */\n  swap1\n  pop\n    /* \"#utility.yul\":694:820   */\n  swap2\n  swap1\n  pop\n  jump\t// out\n    /* \"#utility.yul\":826:930   */\ntag_33:\n    /* \"#utility.yul\":871:878   */\n  0x00\n    /* \"#utility.yul\":900:924   */\n  tag_63\n    /* \"#utility.yul\":918:923   */\n  dup3\n    /* \"#utility.yul\":900:924   */\n  tag_32\n  jump\t// in\ntag_63:\n    /* \"#utility.yul\":889:924   */\n  swap1\n  pop\n    /* \"#utility.yul\":826:930   */\n  swap2\n  swap1\n  pop\n  jump\t// out\n    /* \"#utility.yul\":936:1074   */\ntag_34:\n    /* \"#utility.yul\":1017:1049   */\n  tag_65\n    /* \"#utility.yul\":1043:1048   */\n  dup2\n    /* \"#utility.yul\":1017:1049   */\n  tag_33\n  jump\t// in\ntag_65:\n    /* \"#utility.yul\":1010:1015   */\n  dup2\n    /* \"#utility.yul\":1007:1050   */\n  eq\n    /* \"#utility.yul\":997:1068   */\n  tag_66\n  jumpi\n    /* \"#utility.yul\":1064:1065   */\n  0x00\n    /* \"#utility.yul\":1061:1062   */\n  dup1\n    /* \"#utility.yul\":1054:1066   */\n  revert\n    /* \"#utility.yul\":997:1068   */\ntag_66:\n    /* \"#utility.yul\":936:1074   */\n  pop\n  jump\t// out\n    /* \"#utility.yul\":1080:1239   */\ntag_35:\n    /* \"#utility.yul\":1145:1150   */\n  0x00\n    /* \"#utility.yul\":1176:1182   */\n  dup2\n    /* \"#utility.yul\":1170:1183   */\n  mload\n    /* \"#utility.yul\":1161:1183   */\n  swap1\n  pop\n    /* \"#utility.yul\":1192:1233   */\n  tag_68\n    /* \"#utility.yul\":1227:1232   */\n  dup2\n    /* \"#utility.yul\":1192:1233   */\n  tag_34\n  jump\t// in\ntag_68:\n    /* \"#utility.yul\":1080:1239   */\n  swap3\n  swap2\n  pop\n  pop\n  jump\t// out\n    /* \"#utility.yul\":1245:1341   */\ntag_36:\n    /* \"#utility.yul\":1282:1289   */\n  0x00\n    /* \"#utility.yul\":1311:1335   */\n  tag_70\n    /* \"#utility.yul\":1329:1334   */\n  dup3\n    /* \"#utility.yul\":1311:1335   */\n  tag_32\n  jump\t// in\ntag_70:\n    /* \"#utility.yul\":1300:1335   */\n  swap1\n  pop\n    /* \"#utility.yul\":1245:1341   */\n  swap2\n  swap1\n  pop\n  jump\t// out\n    /* \"#utility.yul\":1347:1457   */\ntag_37:\n    /* \"#utility.yul\":1398:1405   */\n  0x00\n    /* \"#utility.yul\":1427:1451   */\n  tag_72\n    /* \"#utility.yul\":1445:1450   */\n  dup3\n    /* \"#utility.yul\":1427:1451   */\n  tag_36\n  jump\t// in\ntag_72:\n    /* \"#utility.yul\":1416:1451   */\n  swap1\n  pop\n    /* \"#utility.yul\":1347:1457   */\n  swap2\n  swap1\n  pop\n  jump\t// out\n    /* \"#utility.yul\":1463:1613   */\ntag_38:\n    /* \"#utility.yul\":1550:1588   */\n  tag_74\n    /* \"#utility.yul\":1582:1587   */\n  dup2\n    /* \"#utility.yul\":1550:1588   */\n  tag_37\n  jump\t// in\ntag_74:\n    /* \"#utility.yul\":1543:1548   */\n  dup2\n    /* \"#utility.yul\":1540:1589   */\n  eq\n    /* \"#utility.yul\":1530:1607   */\n  tag_75\n  jumpi\n    /* \"#utility.yul\":1603:1604   */\n  0x00\n    /* \"#utility.yul\":1600:1601   */\n  dup1\n    /* \"#utility.yul\":1593:1605   */\n  revert\n    /* \"#utility.yul\":1530:1607   */\ntag_75:\n    /* \"#utility.yul\":1463:1613   */\n  pop\n  jump\t// out\n    /* \"#utility.yul\":1619:1790   */\ntag_39:\n    /* \"#utility.yul\":1690:1695   */\n  0x00\n    /* \"#utility.yul\":1721:1727   */\n  dup2\n    /* \"#utility.yul\":1715:1728   */\n  mload\n    /* \"#utility.yul\":1706:1728   */\n  swap1\n  pop\n    /* \"#utility.yul\":1737:1784   */\n  tag_77\n    /* \"#utility.yul\":1778:1783   */\n  dup2\n    /* \"#utility.yul\":1737:1784   */\n  tag_38\n  jump\t// in\ntag_77:\n    /* \"#utility.yul\":1619:1790   */\n  swap3\n  swap2\n  pop\n  pop\n  jump\t// out\n    /* \"#utility.yul\":1796:2817   */\ntag_3:\n    /* \"#utility.yul\":1924:1930   */\n  0x00\n    /* \"#utility.yul\":1932:1938   */\n  dup1\n    /* \"#utility.yul\":1940:1946   */\n  0x00\n    /* \"#utility.yul\":1948:1954   */\n  dup1\n    /* \"#utility.yul\":1956:1962   */\n  0x00\n    /* \"#utility.yul\":2005:2008   */\n  0xa0\n    /* \"#utility.yul\":1993:2002   */\n  dup7\n    /* \"#utility.yul\":1984:1991   */\n  dup9\n    /* \"#utility.yul\":1980:2003   */\n  sub\n    /* \"#utility.yul\":1976:2009   */\n  slt\n    /* \"#utility.yul\":1973:2093   */\n  iszero\n  tag_79\n  jumpi\n    /* \"#utility.yul\":2012:2091   */\n  tag_80\n  tag_27\n  jump\t// in\ntag_80:\n    /* \"#utility.yul\":1973:2093   */\ntag_79:\n    /* \"#utility.yul\":2132:2133   */\n  0x00\n    /* \"#utility.yul\":2157:2221   */\n  tag_81\n    /* \"#utility.yul\":2213:2220   */\n  dup9\n    /* \"#utility.yul\":2204:2210   */\n  dup3\n    /* \"#utility.yul\":2193:2202   */\n  dup10\n    /* \"#utility.yul\":2189:2211   */\n  add\n    /* \"#utility.yul\":2157:2221   */\n  tag_31\n  jump\t// in\ntag_81:\n    /* \"#utility.yul\":2147:2221   */\n  swap6\n  pop\n    /* \"#utility.yul\":2103:2231   */\n  pop\n    /* \"#utility.yul\":2270:2272   */\n  0x20\n    /* \"#utility.yul\":2296:2360   */\n  tag_82\n    /* \"#utility.yul\":2352:2359   */\n  dup9\n    /* \"#utility.yul\":2343:2349   */\n  dup3\n    /* \"#utility.yul\":2332:2341   */\n  dup10\n    /* \"#utility.yul\":2328:2350   */\n  add\n    /* \"#utility.yul\":2296:2360   */\n  tag_31\n  jump\t// in\ntag_82:\n    /* \"#utility.yul\":2286:2360   */\n  swap5\n  pop\n    /* \"#utility.yul\":2241:2370   */\n  pop\n    /* \"#utility.yul\":2409:2411   */\n  0x40\n    /* \"#utility.yul\":2435:2499   */\n  tag_83\n    /* \"#utility.yul\":2491:2498   */\n  dup9\n    /* \"#utility.yul\":2482:2488   */\n  dup3\n    /* \"#utility.yul\":2471:2480   */\n  dup10\n    /* \"#utility.yul\":2467:2489   */\n  add\n    /* \"#utility.yul\":2435:2499   */\n  tag_31\n  jump\t// in\ntag_83:\n    /* \"#utility.yul\":2425:2499   */\n  swap4\n  pop\n    /* \"#utility.yul\":2380:2509   */\n  pop\n    /* \"#utility.yul\":2548:2550   */\n  0x60\n    /* \"#utility.yul\":2574:2646   */\n  tag_84\n    /* \"#utility.yul\":2638:2645   */\n  dup9\n    /* \"#utility.yul\":2629:2635   */\n  dup3\n    /* \"#utility.yul\":2618:2627   */\n  dup10\n    /* \"#utility.yul\":2614:2636   */\n  add\n    /* \"#utility.yul\":2574:2646   */\n  tag_35\n  jump\t// in\ntag_84:\n    /* \"#utility.yul\":2564:2646   */\n  swap3\n  pop\n    /* \"#utility.yul\":2519:2656   */\n  pop\n    /* \"#utility.yul\":2695:2698   */\n  0x80\n    /* \"#utility.yul\":2722:2800   */\n  tag_85\n    /* \"#utility.yul\":2792:2799   */\n  dup9\n    /* \"#utility.yul\":2783:2789   */\n  dup3\n    /* \"#utility.yul\":2772:2781   */\n  dup10\n    /* \"#utility.yul\":2768:2790   */\n  add\n    /* \"#utility.yul\":2722:2800   */\n  tag_39\n  jump\t// in\ntag_85:\n    /* \"#utility.yul\":2712:2800   */\n  swap2\n  pop\n    /* \"#utility.yul\":2666:2810   */\n  pop\n    /* \"#utility.yul\":1796:2817   */\n  swap3\n  swap6\n  pop\n  swap3\n  swap6\n  swap1\n  swap4\n  pop\n  jump\t// out\n    /* \"#utility.yul\":2823:2992   */\ntag_40:\n    /* \"#utility.yul\":2907:2918   */\n  0x00\n    /* \"#utility.yul\":2941:2947   */\n  dup3\n    /* \"#utility.yul\":2936:2939   */\n  dup3\n    /* \"#utility.yul\":2929:2948   */\n  mstore\n    /* \"#utility.yul\":2981:2985   */\n  0x20\n    /* \"#utility.yul\":2976:2979   */\n  dup3\n    /* \"#utility.yul\":2972:2986   */\n  add\n    /* \"#utility.yul\":2957:2986   */\n  swap1\n  pop\n    /* \"#utility.yul\":2823:2992   */\n  swap3\n  swap2\n  pop\n  pop\n  jump\t// out\n    /* \"#utility.yul\":2998:3168   */\ntag_41:\n    /* \"#utility.yul\":3138:3160   */\n  0x43726f776473616c653a20726174652069732030000000000000000000000000\n    /* \"#utility.yul\":3134:3135   */\n  0x00\n    /* \"#utility.yul\":3126:3132   */\n  dup3\n    /* \"#utility.yul\":3122:3136   */\n  add\n    /* \"#utility.yul\":3115:3161   */\n  mstore\n    /* \"#utility.yul\":2998:3168   */\n  pop\n  jump\t// out\n    /* \"#utility.yul\":3174:3540   */\ntag_42:\n    /* \"#utility.yul\":3316:3319   */\n  0x00\n    /* \"#utility.yul\":3337:3404   */\n  tag_89\n    /* \"#utility.yul\":3401:3403   */\n  0x14\n    /* \"#utility.yul\":3396:3399   */\n  dup4\n    /* \"#utility.yul\":3337:3404   */\n  tag_40\n  jump\t// in\ntag_89:\n    /* \"#utility.yul\":3330:3404   */\n  swap2\n  pop\n    /* \"#utility.yul\":3413:3506   */\n  tag_90\n    /* \"#utility.yul\":3502:3505   */\n  dup3\n    /* \"#utility.yul\":3413:3506   */\n  tag_41\n  jump\t// in\ntag_90:\n    /* \"#utility.yul\":3531:3533   */\n  0x20\n    /* \"#utility.yul\":3526:3529   */\n  dup3\n    /* \"#utility.yul\":3522:3534   */\n  add\n    /* \"#utility.yul\":3515:3534   */\n  swap1\n  pop\n    /* \"#utility.yul\":3174:3540   */\n  swap2\n  swap1\n  pop\n  jump\t// out\n    /* \"#utility.yul\":3546:3965   */\ntag_11:\n    /* \"#utility.yul\":3712:3716   */\n  0x00\n    /* \"#utility.yul\":3750:3752   */\n  0x20\n    /* \"#utility.yul\":3739:3748   */\n  dup3\n    /* \"#utility.yul\":3735:3753   */\n  add\n    /* \"#utility.yul\":3727:3753   */\n  swap1\n  pop\n    /* \"#utility.yul\":3799:3808   */\n  dup2\n    /* \"#utility.yul\":3793:3797   */\n  dup2\n    /* \"#utility.yul\":3789:3809   */\n  sub\n    /* \"#utility.yul\":3785:3786   */\n  0x00\n    /* \"#utility.yul\":3774:3783   */\n  dup4\n    /* \"#utility.yul\":3770:3787   */\n  add\n    /* \"#utility.yul\":3763:3810   */\n  mstore\n    /* \"#utility.yul\":3827:3958   */\n  tag_92\n    /* \"#utility.yul\":3953:3957   */\n  dup2\n    /* \"#utility.yul\":3827:3958   */\n  tag_42\n  jump\t// in\ntag_92:\n    /* \"#utility.yul\":3819:3958   */\n  swap1\n  pop\n    /* \"#utility.yul\":3546:3965   */\n  swap2\n  swap1\n  pop\n  jump\t// out\n    /* \"#utility.yul\":3971:4195   */\ntag_43:\n    /* \"#utility.yul\":4111:4145   */\n  0x43726f776473616c653a2077616c6c657420697320746865207a65726f206164\n    /* \"#utility.yul\":4107:4108   */\n  0x00\n    /* \"#utility.yul\":4099:4105   */\n  dup3\n    /* \"#utility.yul\":4095:4109   */\n  add\n    /* \"#utility.yul\":4088:4146   */\n  mstore\n    /* \"#utility.yul\":4180:4187   */\n  0x6472657373000000000000000000000000000000000000000000000000000000\n    /* \"#utility.yul\":4175:4177   */\n  0x20\n    /* \"#utility.yul\":4167:4173   */\n  dup3\n    /* \"#utility.yul\":4163:4178   */\n  add\n    /* \"#utility.yul\":4156:4188   */\n  mstore\n    /* \"#utility.yul\":3971:4195   */\n  pop\n  jump\t// out\n    /* \"#utility.yul\":4201:4567   */\ntag_44:\n    /* \"#utility.yul\":4343:4346   */\n  0x00\n    /* \"#utility.yul\":4364:4431   */\n  tag_95\n    /* \"#utility.yul\":4428:4430   */\n  0x25\n    /* \"#utility.yul\":4423:4426   */\n  dup4\n    /* \"#utility.yul\":4364:4431   */\n  tag_40\n  jump\t// in\ntag_95:\n    /* \"#utility.yul\":4357:4431   */\n  swap2\n  pop\n    /* \"#utility.yul\":4440:4533   */\n  tag_96\n    /* \"#utility.yul\":4529:4532   */\n  dup3\n    /* \"#utility.yul\":4440:4533   */\n  tag_43\n  jump\t// in\ntag_96:\n    /* \"#utility.yul\":4558:4560   */\n  0x40\n    /* \"#utility.yul\":4553:4556   */\n  dup3\n    /* \"#utility.yul\":4549:4561   */\n  add\n    /* \"#utility.yul\":4542:4561   */\n  swap1\n  pop\n    /* \"#utility.yul\":4201:4567   */\n  swap2\n  swap1\n  pop\n  jump\t// out\n    /* \"#utility.yul\":4573:4992   */\ntag_14:\n    /* \"#utility.yul\":4739:4743   */\n  0x00\n    /* \"#utility.yul\":4777:4779   */\n  0x20\n    /* \"#utility.yul\":4766:4775   */\n  dup3\n    /* \"#utility.yul\":4762:4780   */\n  add\n    /* \"#utility.yul\":4754:4780   */\n  swap1\n  pop\n    /* \"#utility.yul\":4826:4835   */\n  dup2\n    /* \"#utility.yul\":4820:4824   */\n  dup2\n    /* \"#utility.yul\":4816:4836   */\n  sub\n    /* \"#utility.yul\":4812:4813   */\n  0x00\n    /* \"#utility.yul\":4801:4810   */\n  dup4\n    /* \"#utility.yul\":4797:4814   */\n  add\n    /* \"#utility.yul\":4790:4837   */\n  mstore\n    /* \"#utility.yul\":4854:4985   */\n  tag_98\n    /* \"#utility.yul\":4980:4984   */\n  dup2\n    /* \"#utility.yul\":4854:4985   */\n  tag_44\n  jump\t// in\ntag_98:\n    /* \"#utility.yul\":4846:4985   */\n  swap1\n  pop\n    /* \"#utility.yul\":4573:4992   */\n  swap2\n  swap1\n  pop\n  jump\t// out\n    /* \"#utility.yul\":4998:5221   */\ntag_45:\n    /* \"#utility.yul\":5138:5172   */\n  0x43726f776473616c653a20746f6b656e20697320746865207a65726f20616464\n    /* \"#utility.yul\":5134:5135   */\n  0x00\n    /* \"#utility.yul\":5126:5132   */\n  dup3\n    /* \"#utility.yul\":5122:5136   */\n  add\n    /* \"#utility.yul\":5115:5173   */\n  mstore\n    /* \"#utility.yul\":5207:5213   */\n  0x7265737300000000000000000000000000000000000000000000000000000000\n    /* \"#utility.yul\":5202:5204   */\n  0x20\n    /* \"#utility.yul\":5194:5200   */\n  dup3\n    /* \"#utility.yul\":5190:5205   */\n  add\n    /* \"#utility.yul\":5183:5214   */\n  mstore\n    /* \"#utility.yul\":4998:5221   */\n  pop\n  jump\t// out\n    /* \"#utility.yul\":5227:5593   */\ntag_46:\n    /* \"#utility.yul\":5369:5372   */\n  0x00\n    /* \"#utility.yul\":5390:5457   */\n  tag_101\n    /* \"#utility.yul\":5454:5456   */\n  0x24\n    /* \"#utility.yul\":5449:5452   */\n  dup4\n    /* \"#utility.yul\":5390:5457   */\n  tag_40\n  jump\t// in\ntag_101:\n    /* \"#utility.yul\":5383:5457   */\n  swap2\n  pop\n    /* \"#utility.yul\":5466:5559   */\n  tag_102\n    /* \"#utility.yul\":5555:5558   */\n  dup3\n    /* \"#utility.yul\":5466:5559   */\n  tag_45\n  jump\t// in\ntag_102:\n    /* \"#utility.yul\":5584:5586   */\n  0x40\n    /* \"#utility.yul\":5579:5582   */\n  dup3\n    /* \"#utility.yul\":5575:5587   */\n  add\n    /* \"#utility.yul\":5568:5587   */\n  swap1\n  pop\n    /* \"#utility.yul\":5227:5593   */\n  swap2\n  swap1\n  pop\n  jump\t// out\n    /* \"#utility.yul\":5599:6018   */\ntag_17:\n    /* \"#utility.yul\":5765:5769   */\n  0x00\n    /* \"#utility.yul\":5803:5805   */\n  0x20\n    /* \"#utility.yul\":5792:5801   */\n  dup3\n    /* \"#utility.yul\":5788:5806   */\n  add\n    /* \"#utility.yul\":5780:5806   */\n  swap1\n  pop\n    /* \"#utility.yul\":5852:5861   */\n  dup2\n    /* \"#utility.yul\":5846:5850   */\n  dup2\n    /* \"#utility.yul\":5842:5862   */\n  sub\n    /* \"#utility.yul\":5838:5839   */\n  0x00\n    /* \"#utility.yul\":5827:5836   */\n  dup4\n    /* \"#utility.yul\":5823:5840   */\n  add\n    /* \"#utility.yul\":5816:5863   */\n  mstore\n    /* \"#utility.yul\":5880:6011   */\n  tag_104\n    /* \"#utility.yul\":6006:6010   */\n  dup2\n    /* \"#utility.yul\":5880:6011   */\n  tag_46\n  jump\t// in\ntag_104:\n    /* \"#utility.yul\":5872:6011   */\n  swap1\n  pop\n    /* \"#utility.yul\":5599:6018   */\n  swap2\n  swap1\n  pop\n  jump\t// out\n    /* \"#utility.yul\":6024:6262   */\ntag_47:\n    /* \"#utility.yul\":6164:6198   */\n  0x54696d656443726f776473616c653a206f70656e696e672074696d6520697320\n    /* \"#utility.yul\":6160:6161   */\n  0x00\n    /* \"#utility.yul\":6152:6158   */\n  dup3\n    /* \"#utility.yul\":6148:6162   */\n  add\n    /* \"#utility.yul\":6141:6199   */\n  mstore\n    /* \"#utility.yul\":6233:6254   */\n  0x6265666f72652063757272656e742074696d6500000000000000000000000000\n    /* \"#utility.yul\":6228:6230   */\n  0x20\n    /* \"#utility.yul\":6220:6226   */\n  dup3\n    /* \"#utility.yul\":6216:6231   */\n  add\n    /* \"#utility.yul\":6209:6255   */\n  mstore\n    /* \"#utility.yul\":6024:6262   */\n  pop\n  jump\t// out\n    /* \"#utility.yul\":6268:6634   */\ntag_48:\n    /* \"#utility.yul\":6410:6413   */\n  0x00\n    /* \"#utility.yul\":6431:6498   */\n  tag_107\n    /* \"#utility.yul\":6495:6497   */\n  0x33\n    /* \"#utility.yul\":6490:6493   */\n  dup4\n    /* \"#utility.yul\":6431:6498   */\n  tag_40\n  jump\t// in\ntag_107:\n    /* \"#utility.yul\":6424:6498   */\n  swap2\n  pop\n    /* \"#utility.yul\":6507:6600   */\n  tag_108\n    /* \"#utility.yul\":6596:6599   */\n  dup3\n    /* \"#utility.yul\":6507:6600   */\n  tag_47\n  jump\t// in\ntag_108:\n    /* \"#utility.yul\":6625:6627   */\n  0x40\n    /* \"#utility.yul\":6620:6623   */\n  dup3\n    /* \"#utility.yul\":6616:6628   */\n  add\n    /* \"#utility.yul\":6609:6628   */\n  swap1\n  pop\n    /* \"#utility.yul\":6268:6634   */\n  swap2\n  swap1\n  pop\n  jump\t// out\n    /* \"#utility.yul\":6640:7059   */\ntag_21:\n    /* \"#utility.yul\":6806:6810   */\n  0x00\n    /* \"#utility.yul\":6844:6846   */\n  0x20\n    /* \"#utility.yul\":6833:6842   */\n  dup3\n    /* \"#utility.yul\":6829:6847   */\n  add\n    /* \"#utility.yul\":6821:6847   */\n  swap1\n  pop\n    /* \"#utility.yul\":6893:6902   */\n  dup2\n    /* \"#utility.yul\":6887:6891   */\n  dup2\n    /* \"#utility.yul\":6883:6903   */\n  sub\n    /* \"#utility.yul\":6879:6880   */\n  0x00\n    /* \"#utility.yul\":6868:6877   */\n  dup4\n    /* \"#utility.yul\":6864:6881   */\n  add\n    /* \"#utility.yul\":6857:6904   */\n  mstore\n    /* \"#utility.yul\":6921:7052   */\n  tag_110\n    /* \"#utility.yul\":7047:7051   */\n  dup2\n    /* \"#utility.yul\":6921:7052   */\n  tag_48\n  jump\t// in\ntag_110:\n    /* \"#utility.yul\":6913:7052   */\n  swap1\n  pop\n    /* \"#utility.yul\":6640:7059   */\n  swap2\n  swap1\n  pop\n  jump\t// out\n    /* \"#utility.yul\":7065:7307   */\ntag_49:\n    /* \"#utility.yul\":7205:7239   */\n  0x54696d656443726f776473616c653a206f70656e696e672074696d6520697320\n    /* \"#utility.yul\":7201:7202   */\n  0x00\n    /* \"#utility.yul\":7193:7199   */\n  dup3\n    /* \"#utility.yul\":7189:7203   */\n  add\n    /* \"#utility.yul\":7182:7240   */\n  mstore\n    /* \"#utility.yul\":7274:7299   */\n  0x6e6f74206265666f726520636c6f73696e672074696d65000000000000000000\n    /* \"#utility.yul\":7269:7271   */\n  0x20\n    /* \"#utility.yul\":7261:7267   */\n  dup3\n    /* \"#utility.yul\":7257:7272   */\n  add\n    /* \"#utility.yul\":7250:7300   */\n  mstore\n    /* \"#utility.yul\":7065:7307   */\n  pop\n  jump\t// out\n    /* \"#utility.yul\":7313:7679   */\ntag_50:\n    /* \"#utility.yul\":7455:7458   */\n  0x00\n    /* \"#utility.yul\":7476:7543   */\n  tag_113\n    /* \"#utility.yul\":7540:7542   */\n  0x37\n    /* \"#utility.yul\":7535:7538   */\n  dup4\n    /* \"#utility.yul\":7476:7543   */\n  tag_40\n  jump\t// in\ntag_113:\n    /* \"#utility.yul\":7469:7543   */\n  swap2\n  pop\n    /* \"#utility.yul\":7552:7645   */\n  tag_114\n    /* \"#utility.yul\":7641:7644   */\n  dup3\n    /* \"#utility.yul\":7552:7645   */\n  tag_49\n  jump\t// in\ntag_114:\n    /* \"#utility.yul\":7670:7672   */\n  0x40\n    /* \"#utility.yul\":7665:7668   */\n  dup3\n    /* \"#utility.yul\":7661:7673   */\n  add\n    /* \"#utility.yul\":7654:7673   */\n  swap1\n  pop\n    /* \"#utility.yul\":7313:7679   */\n  swap2\n  swap1\n  pop\n  jump\t// out\n    /* \"#utility.yul\":7685:8104   */\ntag_24:\n    /* \"#utility.yul\":7851:7855   */\n  0x00\n    /* \"#utility.yul\":7889:7891   */\n  0x20\n    /* \"#utility.yul\":7878:7887   */\n  dup3\n    /* \"#utility.yul\":7874:7892   */\n  add\n    /* \"#utility.yul\":7866:7892   */\n  swap1\n  pop\n    /* \"#utility.yul\":7938:7947   */\n  dup2\n    /* \"#utility.yul\":7932:7936   */\n  dup2\n    /* \"#utility.yul\":7928:7948   */\n  sub\n    /* \"#utility.yul\":7924:7925   */\n  0x00\n    /* \"#utility.yul\":7913:7922   */\n  dup4\n    /* \"#utility.yul\":7909:7926   */\n  add\n    /* \"#utility.yul\":7902:7949   */\n  mstore\n    /* \"#utility.yul\":7966:8097   */\n  tag_116\n    /* \"#utility.yul\":8092:8096   */\n  dup2\n    /* \"#utility.yul\":7966:8097   */\n  tag_50\n  jump\t// in\ntag_116:\n    /* \"#utility.yul\":7958:8097   */\n  swap1\n  pop\n    /* \"#utility.yul\":7685:8104   */\n  swap2\n  swap1\n  pop\n  jump\t// out\n    /* \"crowdsale/validation/timedCrowdsale.sol\":320:3473  contract TimedCrowdsale is Crowdsale {... */\ntag_25:\n  dataSize(sub_0)\n  dup1\n  dataOffset(sub_0)\n  0x00\n  codecopy\n  0x00\n  return\nstop\n\nsub_0: assembly {\n        /* \"crowdsale/validation/timedCrowdsale.sol\":320:3473  contract TimedCrowdsale is Crowdsale {... */\n      mstore(0x40, 0x80)\n      jumpi(tag_1, lt(calldatasize, 0x04))\n      shr(0xe0, calldataload(0x00))\n      dup1\n      0x4b6753bc\n      gt\n      tag_12\n      jumpi\n      dup1\n      0x4b6753bc\n      eq\n      tag_7\n      jumpi\n      dup1\n      0x521eb273\n      eq\n      tag_8\n      jumpi\n      dup1\n      0xb7a8807c\n      eq\n      tag_9\n      jumpi\n      dup1\n      0xec8ac4d8\n      eq\n      tag_10\n      jumpi\n      dup1\n      0xfc0c546a\n      eq\n      tag_11\n      jumpi\n      jump(tag_2)\n    tag_12:\n      dup1\n      0x1515bc2b\n      eq\n      tag_3\n      jumpi\n      dup1\n      0x2c4e722e\n      eq\n      tag_4\n      jumpi\n      dup1\n      0x4042b66f\n      eq\n      tag_5\n      jumpi\n      dup1\n      0x47535d7b\n      eq\n      tag_6\n      jumpi\n      jump(tag_2)\n    tag_1:\n      jumpi(tag_2, calldatasize)\n        /* \"crowdsale/crowdsale.sol\":3351:3374  buyTokens(_msgSender()) */\n      tag_15\n        /* \"crowdsale/crowdsale.sol\":3361:3373  _msgSender() */\n      tag_16\n        /* \"crowdsale/crowdsale.sol\":3361:3371  _msgSender */\n      tag_17\n        /* \"crowdsale/crowdsale.sol\":3361:3373  _msgSender() */\n      jump\t// in\n    tag_16:\n        /* \"crowdsale/crowdsale.sol\":3351:3360  buyTokens */\n      tag_18\n        /* \"crowdsale/crowdsale.sol\":3351:3374  buyTokens(_msgSender()) */\n      jump\t// in\n    tag_15:\n        /* \"crowdsale/validation/timedCrowdsale.sol\":320:3473  contract TimedCrowdsale is Crowdsale {... */\n      stop\n    tag_2:\n        /* \"crowdsale/crowdsale.sol\":3270:3293  buyTokens(_msgSender()) */\n      tag_21\n        /* \"crowdsale/crowdsale.sol\":3280:3292  _msgSender() */\n      tag_22\n        /* \"crowdsale/crowdsale.sol\":3280:3290  _msgSender */\n      tag_17\n        /* \"crowdsale/crowdsale.sol\":3280:3292  _msgSender() */\n      jump\t// in\n    tag_22:\n        /* \"crowdsale/crowdsale.sol\":3270:3279  buyTokens */\n      tag_18\n        /* \"crowdsale/crowdsale.sol\":3270:3293  buyTokens(_msgSender()) */\n      jump\t// in\n    tag_21:\n        /* \"crowdsale/validation/timedCrowdsale.sol\":320:3473  contract TimedCrowdsale is Crowdsale {... */\n      stop\n        /* \"crowdsale/validation/timedCrowdsale.sol\":2417:2576  function hasClosed() public view returns (bool) {... */\n    tag_3:\n      callvalue\n      dup1\n      iszero\n      tag_23\n      jumpi\n      0x00\n      dup1\n      revert\n    tag_23:\n      pop\n      tag_24\n      tag_25\n      jump\t// in\n    tag_24:\n      mload(0x40)\n      tag_26\n      swap2\n      swap1\n      tag_27\n      jump\t// in\n    tag_26:\n      mload(0x40)\n      dup1\n      swap2\n      sub\n      swap1\n      return\n        /* \"crowdsale/crowdsale.sol\":3784:3869  function rate() public virtual view returns (uint256) {... */\n    tag_4:\n      callvalue\n      dup1\n      iszero\n      tag_28\n      jumpi\n      0x00\n      dup1\n      revert\n    tag_28:\n      pop\n      tag_29\n      tag_30\n      jump\t// in\n    tag_29:\n      mload(0x40)\n      tag_31\n      swap2\n      swap1\n      tag_32\n      jump\t// in\n    tag_31:\n      mload(0x40)\n      dup1\n      swap2\n      sub\n      swap1\n      return\n        /* \"crowdsale/crowdsale.sol\":3937:4024  function weiRaised() public view returns (uint256) {... */\n    tag_5:\n      callvalue\n      dup1\n      iszero\n      tag_33\n      jumpi\n      0x00\n      dup1\n      revert\n    tag_33:\n      pop\n      tag_34\n      tag_35\n      jump\t// in\n    tag_34:\n      mload(0x40)\n      tag_36\n      swap2\n      swap1\n      tag_32\n      jump\t// in\n    tag_36:\n      mload(0x40)\n      dup1\n      swap2\n      sub\n      swap1\n      return\n        /* \"crowdsale/validation/timedCrowdsale.sol\":2055:2247  function isOpen() public view returns (bool) {... */\n    tag_6:\n      callvalue\n      dup1\n      iszero\n      tag_37\n      jumpi\n      0x00\n      dup1\n      revert\n    tag_37:\n      pop\n      tag_38\n      tag_39\n      jump\t// in\n    tag_38:\n      mload(0x40)\n      tag_40\n      swap2\n      swap1\n      tag_27\n      jump\t// in\n    tag_40:\n      mload(0x40)\n      dup1\n      swap2\n      sub\n      swap1\n      return\n        /* \"crowdsale/validation/timedCrowdsale.sol\":1874:1965  function closingTime() public view returns (uint256) {... */\n    tag_7:\n      callvalue\n      dup1\n      iszero\n      tag_41\n      jumpi\n      0x00\n      dup1\n      revert\n    tag_41:\n      pop\n      tag_42\n      tag_43\n      jump\t// in\n    tag_42:\n      mload(0x40)\n      tag_44\n      swap2\n      swap1\n      tag_32\n      jump\t// in\n    tag_44:\n      mload(0x40)\n      dup1\n      swap2\n      sub\n      swap1\n      return\n        /* \"crowdsale/crowdsale.sol\":3605:3694  function wallet() public view returns (address payable) {... */\n    tag_8:\n      callvalue\n      dup1\n      iszero\n      tag_45\n      jumpi\n      0x00\n      dup1\n      revert\n    tag_45:\n      pop\n      tag_46\n      tag_47\n      jump\t// in\n    tag_46:\n      mload(0x40)\n      tag_48\n      swap2\n      swap1\n      tag_49\n      jump\t// in\n    tag_48:\n      mload(0x40)\n      dup1\n      swap2\n      sub\n      swap1\n      return\n        /* \"crowdsale/validation/timedCrowdsale.sol\":1713:1804  function openingTime() public view returns (uint256) {... */\n    tag_9:\n      callvalue\n      dup1\n      iszero\n      tag_50\n      jumpi\n      0x00\n      dup1\n      revert\n    tag_50:\n      pop\n      tag_51\n      tag_52\n      jump\t// in\n    tag_51:\n      mload(0x40)\n      tag_53\n      swap2\n      swap1\n      tag_32\n      jump\t// in\n    tag_53:\n      mload(0x40)\n      dup1\n      swap2\n      sub\n      swap1\n      return\n        /* \"crowdsale/crowdsale.sol\":4289:4911  function buyTokens(address beneficiary) public nonReentrant payable {... */\n    tag_10:\n      tag_54\n      0x04\n      dup1\n      calldatasize\n      sub\n      dup2\n      add\n      swap1\n      tag_55\n      swap2\n      swap1\n      tag_56\n      jump\t// in\n    tag_55:\n      tag_18\n      jump\t// in\n    tag_54:\n      stop\n        /* \"crowdsale/crowdsale.sol\":3446:3524  function token() public view returns (IERC20) {... */\n    tag_11:\n      callvalue\n      dup1\n      iszero\n      tag_57\n      jumpi\n      0x00\n      dup1\n      revert\n    tag_57:\n      pop\n      tag_58\n      tag_59\n      jump\t// in\n    tag_58:\n      mload(0x40)\n      tag_60\n      swap2\n      swap1\n      tag_61\n      jump\t// in\n    tag_60:\n      mload(0x40)\n      dup1\n      swap2\n      sub\n      swap1\n      return\n        /* \"@openzeppelin/contracts/utils/Context.sol\":656:752  function _msgSender() internal view virtual returns (address) {... */\n    tag_17:\n        /* \"@openzeppelin/contracts/utils/Context.sol\":709:716  address */\n      0x00\n        /* \"@openzeppelin/contracts/utils/Context.sol\":735:745  msg.sender */\n      caller\n        /* \"@openzeppelin/contracts/utils/Context.sol\":728:745  return msg.sender */\n      swap1\n      pop\n        /* \"@openzeppelin/contracts/utils/Context.sol\":656:752  function _msgSender() internal view virtual returns (address) {... */\n      swap1\n      jump\t// out\n        /* \"crowdsale/crowdsale.sol\":4289:4911  function buyTokens(address beneficiary) public nonReentrant payable {... */\n    tag_18:\n        /* \"@openzeppelin/contracts/security/ReentrancyGuard.sol\":2261:2282  _nonReentrantBefore() */\n      tag_64\n        /* \"@openzeppelin/contracts/security/ReentrancyGuard.sol\":2261:2280  _nonReentrantBefore */\n      tag_65\n        /* \"@openzeppelin/contracts/security/ReentrancyGuard.sol\":2261:2282  _nonReentrantBefore() */\n      jump\t// in\n    tag_64:\n        /* \"crowdsale/crowdsale.sol\":4368:4385  uint256 weiAmount */\n      0x00\n        /* \"crowdsale/crowdsale.sol\":4388:4397  msg.value */\n      callvalue\n        /* \"crowdsale/crowdsale.sol\":4368:4397  uint256 weiAmount = msg.value */\n      swap1\n      pop\n        /* \"crowdsale/crowdsale.sol\":4408:4452  _preValidatePurchase(beneficiary, weiAmount) */\n      tag_67\n        /* \"crowdsale/crowdsale.sol\":4429:4440  beneficiary */\n      dup3\n        /* \"crowdsale/crowdsale.sol\":4442:4451  weiAmount */\n      dup3\n        /* \"crowdsale/crowdsale.sol\":4408:4428  _preValidatePurchase */\n      tag_68\n        /* \"crowdsale/crowdsale.sol\":4408:4452  _preValidatePurchase(beneficiary, weiAmount) */\n      jump\t// in\n    tag_67:\n        /* \"crowdsale/crowdsale.sol\":4514:4528  uint256 tokens */\n      0x00\n        /* \"crowdsale/crowdsale.sol\":4531:4557  _getTokenAmount(weiAmount) */\n      tag_69\n        /* \"crowdsale/crowdsale.sol\":4547:4556  weiAmount */\n      dup3\n        /* \"crowdsale/crowdsale.sol\":4531:4546  _getTokenAmount */\n      tag_70\n        /* \"crowdsale/crowdsale.sol\":4531:4557  _getTokenAmount(weiAmount) */\n      jump\t// in\n    tag_69:\n        /* \"crowdsale/crowdsale.sol\":4514:4557  uint256 tokens = _getTokenAmount(weiAmount) */\n      swap1\n      pop\n        /* \"crowdsale/crowdsale.sol\":4608:4633  _weiRaised.add(weiAmount) */\n      tag_71\n        /* \"crowdsale/crowdsale.sol\":4623:4632  weiAmount */\n      dup3\n        /* \"crowdsale/crowdsale.sol\":4608:4618  _weiRaised */\n      sload(0x04)\n        /* \"crowdsale/crowdsale.sol\":4608:4622  _weiRaised.add */\n      tag_72\n      swap1\n        /* \"crowdsale/crowdsale.sol\":4608:4633  _weiRaised.add(weiAmount) */\n      swap2\n      swap1\n      0xffffffff\n      and\n      jump\t// in\n    tag_71:\n        /* \"crowdsale/crowdsale.sol\":4595:4605  _weiRaised */\n      0x04\n        /* \"crowdsale/crowdsale.sol\":4595:4633  _weiRaised = _weiRaised.add(weiAmount) */\n      dup2\n      swap1\n      sstore\n      pop\n        /* \"crowdsale/crowdsale.sol\":4646:4683  _processPurchase(beneficiary, tokens) */\n      tag_73\n        /* \"crowdsale/crowdsale.sol\":4663:4674  beneficiary */\n      dup4\n        /* \"crowdsale/crowdsale.sol\":4676:4682  tokens */\n      dup3\n        /* \"crowdsale/crowdsale.sol\":4646:4662  _processPurchase */\n      tag_74\n        /* \"crowdsale/crowdsale.sol\":4646:4683  _processPurchase(beneficiary, tokens) */\n      jump\t// in\n    tag_73:\n        /* \"crowdsale/crowdsale.sol\":4729:4740  beneficiary */\n      dup3\n        /* \"crowdsale/crowdsale.sol\":4699:4760  TokensPurchased(_msgSender(), beneficiary, weiAmount, tokens) */\n      0xffffffffffffffffffffffffffffffffffffffff\n      and\n        /* \"crowdsale/crowdsale.sol\":4715:4727  _msgSender() */\n      tag_75\n        /* \"crowdsale/crowdsale.sol\":4715:4725  _msgSender */\n      tag_17\n        /* \"crowdsale/crowdsale.sol\":4715:4727  _msgSender() */\n      jump\t// in\n    tag_75:\n        /* \"crowdsale/crowdsale.sol\":4699:4760  TokensPurchased(_msgSender(), beneficiary, weiAmount, tokens) */\n      0xffffffffffffffffffffffffffffffffffffffff\n      and\n      0x6faf93231a456e552dbc9961f58d9713ee4f2e69d15f1975b050ef0911053a7b\n        /* \"crowdsale/crowdsale.sol\":4742:4751  weiAmount */\n      dup5\n        /* \"crowdsale/crowdsale.sol\":4753:4759  tokens */\n      dup5\n        /* \"crowdsale/crowdsale.sol\":4699:4760  TokensPurchased(_msgSender(), beneficiary, weiAmount, tokens) */\n      mload(0x40)\n      tag_76\n      swap3\n      swap2\n      swap1\n      tag_77\n      jump\t// in\n    tag_76:\n      mload(0x40)\n      dup1\n      swap2\n      sub\n      swap1\n      log3\n        /* \"crowdsale/crowdsale.sol\":4773:4819  _updatePurchasingState(beneficiary, weiAmount) */\n      tag_78\n        /* \"crowdsale/crowdsale.sol\":4796:4807  beneficiary */\n      dup4\n        /* \"crowdsale/crowdsale.sol\":4809:4818  weiAmount */\n      dup4\n        /* \"crowdsale/crowdsale.sol\":4773:4795  _updatePurchasingState */\n      tag_79\n        /* \"crowdsale/crowdsale.sol\":4773:4819  _updatePurchasingState(beneficiary, weiAmount) */\n      jump\t// in\n    tag_78:\n        /* \"crowdsale/crowdsale.sol\":4832:4847  _forwardFunds() */\n      tag_80\n        /* \"crowdsale/crowdsale.sol\":4832:4845  _forwardFunds */\n      tag_81\n        /* \"crowdsale/crowdsale.sol\":4832:4847  _forwardFunds() */\n      jump\t// in\n    tag_80:\n        /* \"crowdsale/crowdsale.sol\":4858:4903  _postValidatePurchase(beneficiary, weiAmount) */\n      tag_82\n        /* \"crowdsale/crowdsale.sol\":4880:4891  beneficiary */\n      dup4\n        /* \"crowdsale/crowdsale.sol\":4893:4902  weiAmount */\n      dup4\n        /* \"crowdsale/crowdsale.sol\":4858:4879  _postValidatePurchase */\n      tag_83\n        /* \"crowdsale/crowdsale.sol\":4858:4903  _postValidatePurchase(beneficiary, weiAmount) */\n      jump\t// in\n    tag_82:\n        /* \"crowdsale/crowdsale.sol\":4357:4911  {... */\n      pop\n      pop\n        /* \"@openzeppelin/contracts/security/ReentrancyGuard.sol\":2303:2323  _nonReentrantAfter() */\n      tag_84\n        /* \"@openzeppelin/contracts/security/ReentrancyGuard.sol\":2303:2321  _nonReentrantAfter */\n      tag_85\n        /* \"@openzeppelin/contracts/security/ReentrancyGuard.sol\":2303:2323  _nonReentrantAfter() */\n      jump\t// in\n    tag_84:\n        /* \"crowdsale/crowdsale.sol\":4289:4911  function buyTokens(address beneficiary) public nonReentrant payable {... */\n      pop\n      jump\t// out\n        /* \"crowdsale/validation/timedCrowdsale.sol\":2417:2576  function hasClosed() public view returns (bool) {... */\n    tag_25:\n        /* \"crowdsale/validation/timedCrowdsale.sol\":2459:2463  bool */\n      0x00\n        /* \"crowdsale/validation/timedCrowdsale.sol\":2556:2568  _closingTime */\n      sload(0x06)\n        /* \"crowdsale/validation/timedCrowdsale.sol\":2538:2553  block.timestamp */\n      timestamp\n        /* \"crowdsale/validation/timedCrowdsale.sol\":2538:2568  block.timestamp > _closingTime */\n      gt\n        /* \"crowdsale/validation/timedCrowdsale.sol\":2531:2568  return block.timestamp > _closingTime */\n      swap1\n      pop\n        /* \"crowdsale/validation/timedCrowdsale.sol\":2417:2576  function hasClosed() public view returns (bool) {... */\n      swap1\n      jump\t// out\n        /* \"crowdsale/crowdsale.sol\":3784:3869  function rate() public virtual view returns (uint256) {... */\n    tag_30:\n        /* \"crowdsale/crowdsale.sol\":3829:3836  uint256 */\n      0x00\n        /* \"crowdsale/crowdsale.sol\":3856:3861  _rate */\n      sload(0x03)\n        /* \"crowdsale/crowdsale.sol\":3849:3861  return _rate */\n      swap1\n      pop\n        /* \"crowdsale/crowdsale.sol\":3784:3869  function rate() public virtual view returns (uint256) {... */\n      swap1\n      jump\t// out\n        /* \"crowdsale/crowdsale.sol\":3937:4024  function weiRaised() public view returns (uint256) {... */\n    tag_35:\n        /* \"crowdsale/crowdsale.sol\":3979:3986  uint256 */\n      0x00\n        /* \"crowdsale/crowdsale.sol\":4006:4016  _weiRaised */\n      sload(0x04)\n        /* \"crowdsale/crowdsale.sol\":3999:4016  return _weiRaised */\n      swap1\n      pop\n        /* \"crowdsale/crowdsale.sol\":3937:4024  function weiRaised() public view returns (uint256) {... */\n      swap1\n      jump\t// out\n        /* \"crowdsale/validation/timedCrowdsale.sol\":2055:2247  function isOpen() public view returns (bool) {... */\n    tag_39:\n        /* \"crowdsale/validation/timedCrowdsale.sol\":2094:2098  bool */\n      0x00\n        /* \"crowdsale/validation/timedCrowdsale.sol\":2192:2204  _openingTime */\n      sload(0x05)\n        /* \"crowdsale/validation/timedCrowdsale.sol\":2173:2188  block.timestamp */\n      timestamp\n        /* \"crowdsale/validation/timedCrowdsale.sol\":2173:2204  block.timestamp >= _openingTime */\n      lt\n      iszero\n        /* \"crowdsale/validation/timedCrowdsale.sol\":2173:2239  block.timestamp >= _openingTime && block.timestamp <= _closingTime */\n      dup1\n      iszero\n      tag_90\n      jumpi\n      pop\n        /* \"crowdsale/validation/timedCrowdsale.sol\":2227:2239  _closingTime */\n      sload(0x06)\n        /* \"crowdsale/validation/timedCrowdsale.sol\":2208:2223  block.timestamp */\n      timestamp\n        /* \"crowdsale/validation/timedCrowdsale.sol\":2208:2239  block.timestamp <= _closingTime */\n      gt\n      iszero\n        /* \"crowdsale/validation/timedCrowdsale.sol\":2173:2239  block.timestamp >= _openingTime && block.timestamp <= _closingTime */\n    tag_90:\n        /* \"crowdsale/validation/timedCrowdsale.sol\":2166:2239  return block.timestamp >= _openingTime && block.timestamp <= _closingTime */\n      swap1\n      pop\n        /* \"crowdsale/validation/timedCrowdsale.sol\":2055:2247  function isOpen() public view returns (bool) {... */\n      swap1\n      jump\t// out\n        /* \"crowdsale/validation/timedCrowdsale.sol\":1874:1965  function closingTime() public view returns (uint256) {... */\n    tag_43:\n        /* \"crowdsale/validation/timedCrowdsale.sol\":1918:1925  uint256 */\n      0x00\n        /* \"crowdsale/validation/timedCrowdsale.sol\":1945:1957  _closingTime */\n      sload(0x06)\n        /* \"crowdsale/validation/timedCrowdsale.sol\":1938:1957  return _closingTime */\n      swap1\n      pop\n        /* \"crowdsale/validation/timedCrowdsale.sol\":1874:1965  function closingTime() public view returns (uint256) {... */\n      swap1\n      jump\t// out\n        /* \"crowdsale/crowdsale.sol\":3605:3694  function wallet() public view returns (address payable) {... */\n    tag_47:\n        /* \"crowdsale/crowdsale.sol\":3644:3659  address payable */\n      0x00\n        /* \"crowdsale/crowdsale.sol\":3679:3686  _wallet */\n      0x02\n      0x00\n      swap1\n      sload\n      swap1\n      0x0100\n      exp\n      swap1\n      div\n      0xffffffffffffffffffffffffffffffffffffffff\n      and\n        /* \"crowdsale/crowdsale.sol\":3672:3686  return _wallet */\n      swap1\n      pop\n        /* \"crowdsale/crowdsale.sol\":3605:3694  function wallet() public view returns (address payable) {... */\n      swap1\n      jump\t// out\n        /* \"crowdsale/validation/timedCrowdsale.sol\":1713:1804  function openingTime() public view returns (uint256) {... */\n    tag_52:\n        /* \"crowdsale/validation/timedCrowdsale.sol\":1757:1764  uint256 */\n      0x00\n        /* \"crowdsale/validation/timedCrowdsale.sol\":1784:1796  _openingTime */\n      sload(0x05)\n        /* \"crowdsale/validation/timedCrowdsale.sol\":1777:1796  return _openingTime */\n      swap1\n      pop\n        /* \"crowdsale/validation/timedCrowdsale.sol\":1713:1804  function openingTime() public view returns (uint256) {... */\n      swap1\n      jump\t// out\n        /* \"crowdsale/crowdsale.sol\":3446:3524  function token() public view returns (IERC20) {... */\n    tag_59:\n        /* \"crowdsale/crowdsale.sol\":3484:3490  IERC20 */\n      0x00\n        /* \"crowdsale/crowdsale.sol\":3510:3516  _token */\n      0x01\n      0x00\n      swap1\n      sload\n      swap1\n      0x0100\n      exp\n      swap1\n      div\n      0xffffffffffffffffffffffffffffffffffffffff\n      and\n        /* \"crowdsale/crowdsale.sol\":3503:3516  return _token */\n      swap1\n      pop\n        /* \"crowdsale/crowdsale.sol\":3446:3524  function token() public view returns (IERC20) {... */\n      swap1\n      jump\t// out\n        /* \"@openzeppelin/contracts/security/ReentrancyGuard.sol\":2336:2623  function _nonReentrantBefore() private {... */\n    tag_65:\n        /* \"@openzeppelin/contracts/security/ReentrancyGuard.sol\":1759:1760  2 */\n      0x02\n        /* \"@openzeppelin/contracts/security/ReentrancyGuard.sol\":2468:2475  _status */\n      sload(0x00)\n        /* \"@openzeppelin/contracts/security/ReentrancyGuard.sol\":2468:2487  _status != _ENTERED */\n      sub\n        /* \"@openzeppelin/contracts/security/ReentrancyGuard.sol\":2460:2523  require(_status != _ENTERED, \"ReentrancyGuard: reentrant call\") */\n      tag_96\n      jumpi\n      mload(0x40)\n      0x08c379a000000000000000000000000000000000000000000000000000000000\n      dup2\n      mstore\n      0x04\n      add\n      tag_97\n      swap1\n      tag_98\n      jump\t// in\n    tag_97:\n      mload(0x40)\n      dup1\n      swap2\n      sub\n      swap1\n      revert\n    tag_96:\n        /* \"@openzeppelin/contracts/security/ReentrancyGuard.sol\":1759:1760  2 */\n      0x02\n        /* \"@openzeppelin/contracts/security/ReentrancyGuard.sol\":2598:2605  _status */\n      0x00\n        /* \"@openzeppelin/contracts/security/ReentrancyGuard.sol\":2598:2616  _status = _ENTERED */\n      dup2\n      swap1\n      sstore\n      pop\n        /* \"@openzeppelin/contracts/security/ReentrancyGuard.sol\":2336:2623  function _nonReentrantBefore() private {... */\n      jump\t// out\n        /* \"crowdsale/validation/timedCrowdsale.sol\":2776:2952  function _preValidatePurchase(address beneficiary, uint256 weiAmount) internal override onlyWhileOpen view {... */\n    tag_68:\n        /* \"crowdsale/validation/timedCrowdsale.sol\":821:829  isOpen() */\n      tag_100\n        /* \"crowdsale/validation/timedCrowdsale.sol\":821:827  isOpen */\n      tag_39\n        /* \"crowdsale/validation/timedCrowdsale.sol\":821:829  isOpen() */\n      jump\t// in\n    tag_100:\n        /* \"crowdsale/validation/timedCrowdsale.sol\":813:858  require(isOpen(), \"TimedCrowdsale: not open\") */\n      tag_101\n      jumpi\n      mload(0x40)\n      0x08c379a000000000000000000000000000000000000000000000000000000000\n      dup2\n      mstore\n      0x04\n      add\n      tag_102\n      swap1\n      tag_103\n      jump\t// in\n    tag_102:\n      mload(0x40)\n      dup1\n      swap2\n      sub\n      swap1\n      revert\n    tag_101:\n        /* \"crowdsale/validation/timedCrowdsale.sol\":2894:2944  super._preValidatePurchase(beneficiary, weiAmount) */\n      tag_105\n        /* \"crowdsale/validation/timedCrowdsale.sol\":2921:2932  beneficiary */\n      dup3\n        /* \"crowdsale/validation/timedCrowdsale.sol\":2934:2943  weiAmount */\n      dup3\n        /* \"crowdsale/validation/timedCrowdsale.sol\":2894:2920  super._preValidatePurchase */\n      tag_106\n        /* \"crowdsale/validation/timedCrowdsale.sol\":2894:2944  super._preValidatePurchase(beneficiary, weiAmount) */\n      jump\t// in\n    tag_105:\n        /* \"crowdsale/validation/timedCrowdsale.sol\":2776:2952  function _preValidatePurchase(address beneficiary, uint256 weiAmount) internal override onlyWhileOpen view {... */\n      pop\n      pop\n      jump\t// out\n        /* \"crowdsale/crowdsale.sol\":7856:7986  function _getTokenAmount(uint256 weiAmount) internal virtual view returns (uint256) {... */\n    tag_70:\n        /* \"crowdsale/crowdsale.sol\":7931:7938  uint256 */\n      0x00\n        /* \"crowdsale/crowdsale.sol\":7958:7978  weiAmount.mul(_rate) */\n      tag_108\n        /* \"crowdsale/crowdsale.sol\":7972:7977  _rate */\n      sload(0x03)\n        /* \"crowdsale/crowdsale.sol\":7958:7967  weiAmount */\n      dup4\n        /* \"crowdsale/crowdsale.sol\":7958:7971  weiAmount.mul */\n      tag_109\n      swap1\n        /* \"crowdsale/crowdsale.sol\":7958:7978  weiAmount.mul(_rate) */\n      swap2\n      swap1\n      0xffffffff\n      and\n      jump\t// in\n    tag_108:\n        /* \"crowdsale/crowdsale.sol\":7951:7978  return weiAmount.mul(_rate) */\n      swap1\n      pop\n        /* \"crowdsale/crowdsale.sol\":7856:7986  function _getTokenAmount(uint256 weiAmount) internal virtual view returns (uint256) {... */\n      swap2\n      swap1\n      pop\n      jump\t// out\n        /* \"@openzeppelin/contracts/utils/math/SafeMath.sol\":2755:2851  function add(uint256 a, uint256 b) internal pure returns (uint256) {... */\n    tag_72:\n        /* \"@openzeppelin/contracts/utils/math/SafeMath.sol\":2813:2820  uint256 */\n      0x00\n        /* \"@openzeppelin/contracts/utils/math/SafeMath.sol\":2843:2844  b */\n      dup2\n        /* \"@openzeppelin/contracts/utils/math/SafeMath.sol\":2839:2840  a */\n      dup4\n        /* \"@openzeppelin/contracts/utils/math/SafeMath.sol\":2839:2844  a + b */\n      tag_111\n      swap2\n      swap1\n      tag_112\n      jump\t// in\n    tag_111:\n        /* \"@openzeppelin/contracts/utils/math/SafeMath.sol\":2832:2844  return a + b */\n      swap1\n      pop\n        /* \"@openzeppelin/contracts/utils/math/SafeMath.sol\":2755:2851  function add(uint256 a, uint256 b) internal pure returns (uint256) {... */\n      swap3\n      swap2\n      pop\n      pop\n      jump\t// out\n        /* \"crowdsale/crowdsale.sol\":7023:7167  function _processPurchase(address beneficiary, uint256 tokenAmount) internal virtual {... */\n    tag_74:\n        /* \"crowdsale/crowdsale.sol\":7119:7159  _deliverTokens(beneficiary, tokenAmount) */\n      tag_114\n        /* \"crowdsale/crowdsale.sol\":7134:7145  beneficiary */\n      dup3\n        /* \"crowdsale/crowdsale.sol\":7147:7158  tokenAmount */\n      dup3\n        /* \"crowdsale/crowdsale.sol\":7119:7133  _deliverTokens */\n      tag_115\n        /* \"crowdsale/crowdsale.sol\":7119:7159  _deliverTokens(beneficiary, tokenAmount) */\n      jump\t// in\n    tag_114:\n        /* \"crowdsale/crowdsale.sol\":7023:7167  function _processPurchase(address beneficiary, uint256 tokenAmount) internal virtual {... */\n      pop\n      pop\n      jump\t// out\n        /* \"crowdsale/crowdsale.sol\":7445:7600  function _updatePurchasingState(address beneficiary, uint256 weiAmount) internal virtual {... */\n    tag_79:\n      pop\n      pop\n      jump\t// out\n        /* \"crowdsale/crowdsale.sol\":8078:8166  function _forwardFunds() internal virtual {... */\n    tag_81:\n        /* \"crowdsale/crowdsale.sol\":8131:8138  _wallet */\n      0x02\n      0x00\n      swap1\n      sload\n      swap1\n      0x0100\n      exp\n      swap1\n      div\n      0xffffffffffffffffffffffffffffffffffffffff\n      and\n        /* \"crowdsale/crowdsale.sol\":8131:8147  _wallet.transfer */\n      0xffffffffffffffffffffffffffffffffffffffff\n      and\n        /* \"crowdsale/crowdsale.sol\":8131:8158  _wallet.transfer(msg.value) */\n      0x08fc\n        /* \"crowdsale/crowdsale.sol\":8148:8157  msg.value */\n      callvalue\n        /* \"crowdsale/crowdsale.sol\":8131:8158  _wallet.transfer(msg.value) */\n      swap1\n      dup2\n      iszero\n      mul\n      swap1\n      mload(0x40)\n      0x00\n      mload(0x40)\n      dup1\n      dup4\n      sub\n      dup2\n      dup6\n      dup9\n      dup9\n      call\n      swap4\n      pop\n      pop\n      pop\n      pop\n      iszero\n      dup1\n      iszero\n      tag_119\n      jumpi\n      returndatasize\n      0x00\n      dup1\n      returndatacopy\n      revert(0x00, returndatasize)\n    tag_119:\n      pop\n        /* \"crowdsale/crowdsale.sol\":8078:8166  function _forwardFunds() internal virtual {... */\n      jump\t// out\n        /* \"crowdsale/crowdsale.sol\":6155:6314  function _postValidatePurchase(address beneficiary, uint256 weiAmount) internal virtual view {... */\n    tag_83:\n      pop\n      pop\n      jump\t// out\n        /* \"@openzeppelin/contracts/security/ReentrancyGuard.sol\":2629:2838  function _nonReentrantAfter() private {... */\n    tag_85:\n        /* \"@openzeppelin/contracts/security/ReentrancyGuard.sol\":1716:1717  1 */\n      0x01\n        /* \"@openzeppelin/contracts/security/ReentrancyGuard.sol\":2809:2816  _status */\n      0x00\n        /* \"@openzeppelin/contracts/security/ReentrancyGuard.sol\":2809:2831  _status = _NOT_ENTERED */\n      dup2\n      swap1\n      sstore\n      pop\n        /* \"@openzeppelin/contracts/security/ReentrancyGuard.sol\":2629:2838  function _nonReentrantAfter() private {... */\n      jump\t// out\n        /* \"crowdsale/crowdsale.sol\":5464:5852  function _preValidatePurchase(address beneficiary, uint256 weiAmount) internal virtual view {... */\n    tag_106:\n        /* \"crowdsale/crowdsale.sol\":5598:5599  0 */\n      0x00\n        /* \"crowdsale/crowdsale.sol\":5575:5600  beneficiary != address(0) */\n      0xffffffffffffffffffffffffffffffffffffffff\n      and\n        /* \"crowdsale/crowdsale.sol\":5575:5586  beneficiary */\n      dup3\n        /* \"crowdsale/crowdsale.sol\":5575:5600  beneficiary != address(0) */\n      0xffffffffffffffffffffffffffffffffffffffff\n      and\n      sub\n        /* \"crowdsale/crowdsale.sol\":5567:5647  require(beneficiary != address(0), \"Crowdsale: beneficiary is the zero address\") */\n      tag_123\n      jumpi\n      mload(0x40)\n      0x08c379a000000000000000000000000000000000000000000000000000000000\n      dup2\n      mstore\n      0x04\n      add\n      tag_124\n      swap1\n      tag_125\n      jump\t// in\n    tag_124:\n      mload(0x40)\n      dup1\n      swap2\n      sub\n      swap1\n      revert\n    tag_123:\n        /* \"crowdsale/crowdsale.sol\":5679:5680  0 */\n      0x00\n        /* \"crowdsale/crowdsale.sol\":5666:5675  weiAmount */\n      dup2\n        /* \"crowdsale/crowdsale.sol\":5666:5680  weiAmount != 0 */\n      sub\n        /* \"crowdsale/crowdsale.sol\":5658:5710  require(weiAmount != 0, \"Crowdsale: weiAmount is 0\") */\n      tag_126\n      jumpi\n      mload(0x40)\n      0x08c379a000000000000000000000000000000000000000000000000000000000\n      dup2\n      mstore\n      0x04\n      add\n      tag_127\n      swap1\n      tag_128\n      jump\t// in\n    tag_127:\n      mload(0x40)\n      dup1\n      swap2\n      sub\n      swap1\n      revert\n    tag_126:\n        /* \"crowdsale/crowdsale.sol\":5464:5852  function _preValidatePurchase(address beneficiary, uint256 weiAmount) internal virtual view {... */\n      pop\n      pop\n      jump\t// out\n        /* \"@openzeppelin/contracts/utils/math/SafeMath.sol\":3465:3561  function mul(uint256 a, uint256 b) internal pure returns (uint256) {... */\n    tag_109:\n        /* \"@openzeppelin/contracts/utils/math/SafeMath.sol\":3523:3530  uint256 */\n      0x00\n        /* \"@openzeppelin/contracts/utils/math/SafeMath.sol\":3553:3554  b */\n      dup2\n        /* \"@openzeppelin/contracts/utils/math/SafeMath.sol\":3549:3550  a */\n      dup4\n        /* \"@openzeppelin/contracts/utils/math/SafeMath.sol\":3549:3554  a * b */\n      tag_130\n      swap2\n      swap1\n      tag_131\n      jump\t// in\n    tag_130:\n        /* \"@openzeppelin/contracts/utils/math/SafeMath.sol\":3542:3554  return a * b */\n      swap1\n      pop\n        /* \"@openzeppelin/contracts/utils/math/SafeMath.sol\":3465:3561  function mul(uint256 a, uint256 b) internal pure returns (uint256) {... */\n      swap3\n      swap2\n      pop\n      pop\n      jump\t// out\n        /* \"crowdsale/crowdsale.sol\":6602:6749  function _deliverTokens(address beneficiary, uint256 tokenAmount) internal virtual {... */\n    tag_115:\n        /* \"crowdsale/crowdsale.sol\":6696:6741  _token.safeTransfer(beneficiary, tokenAmount) */\n      tag_133\n        /* \"crowdsale/crowdsale.sol\":6716:6727  beneficiary */\n      dup3\n        /* \"crowdsale/crowdsale.sol\":6729:6740  tokenAmount */\n      dup3\n        /* \"crowdsale/crowdsale.sol\":6696:6702  _token */\n      0x01\n      0x00\n      swap1\n      sload\n      swap1\n      0x0100\n      exp\n      swap1\n      div\n      0xffffffffffffffffffffffffffffffffffffffff\n      and\n        /* \"crowdsale/crowdsale.sol\":6696:6715  _token.safeTransfer */\n      0xffffffffffffffffffffffffffffffffffffffff\n      and\n      tag_134\n      swap1\n        /* \"crowdsale/crowdsale.sol\":6696:6741  _token.safeTransfer(beneficiary, tokenAmount) */\n      swap3\n      swap2\n      swap1\n      0xffffffff\n      and\n      jump\t// in\n    tag_133:\n        /* \"crowdsale/crowdsale.sol\":6602:6749  function _deliverTokens(address beneficiary, uint256 tokenAmount) internal virtual {... */\n      pop\n      pop\n      jump\t// out\n        /* \"@openzeppelin/contracts/token/ERC20/utils/SafeERC20.sol\":941:1116  function safeTransfer(IERC20 token, address to, uint256 value) internal {... */\n    tag_134:\n        /* \"@openzeppelin/contracts/token/ERC20/utils/SafeERC20.sol\":1023:1109  _callOptionalReturn(token, abi.encodeWithSelector(token.transfer.selector, to, value)) */\n      tag_136\n        /* \"@openzeppelin/contracts/token/ERC20/utils/SafeERC20.sol\":1043:1048  token */\n      dup4\n        /* \"@openzeppelin/contracts/token/ERC20/utils/SafeERC20.sol\":1073:1096  token.transfer.selector */\n      shl(0xe0, 0xa9059cbb)\n        /* \"@openzeppelin/contracts/token/ERC20/utils/SafeERC20.sol\":1098:1100  to */\n      dup5\n        /* \"@openzeppelin/contracts/token/ERC20/utils/SafeERC20.sol\":1102:1107  value */\n      dup5\n        /* \"@openzeppelin/contracts/token/ERC20/utils/SafeERC20.sol\":1050:1108  abi.encodeWithSelector(token.transfer.selector, to, value) */\n      add(0x24, mload(0x40))\n      tag_137\n      swap3\n      swap2\n      swap1\n      tag_138\n      jump\t// in\n    tag_137:\n      mload(0x40)\n      0x20\n      dup2\n      dup4\n      sub\n      sub\n      dup2\n      mstore\n      swap1\n      0x40\n      mstore\n      swap1\n      not(0xffffffffffffffffffffffffffffffffffffffffffffffffffffffff)\n      and\n      0x20\n      dup3\n      add\n      dup1\n      mload\n      0xffffffffffffffffffffffffffffffffffffffffffffffffffffffff\n      dup4\n      dup2\n      dup4\n      and\n      or\n      dup4\n      mstore\n      pop\n      pop\n      pop\n      pop\n        /* \"@openzeppelin/contracts/token/ERC20/utils/SafeERC20.sol\":1023:1042  _callOptionalReturn */\n      tag_139\n        /* \"@openzeppelin/contracts/token/ERC20/utils/SafeERC20.sol\":1023:1109  _callOptionalReturn(token, abi.encodeWithSelector(token.transfer.selector, to, value)) */\n      jump\t// in\n    tag_136:\n        /* \"@openzeppelin/contracts/token/ERC20/utils/SafeERC20.sol\":941:1116  function safeTransfer(IERC20 token, address to, uint256 value) internal {... */\n      pop\n      pop\n      pop\n      jump\t// out\n        /* \"@openzeppelin/contracts/token/ERC20/utils/SafeERC20.sol\":5196:5838  function _callOptionalReturn(IERC20 token, bytes memory data) private {... */\n    tag_139:\n        /* \"@openzeppelin/contracts/token/ERC20/utils/SafeERC20.sol\":5615:5638  bytes memory returndata */\n      0x00\n        /* \"@openzeppelin/contracts/token/ERC20/utils/SafeERC20.sol\":5641:5710  address(token).functionCall(data, \"SafeERC20: low-level call failed\") */\n      tag_141\n        /* \"@openzeppelin/contracts/token/ERC20/utils/SafeERC20.sol\":5669:5673  data */\n      dup3\n        /* \"@openzeppelin/contracts/token/ERC20/utils/SafeERC20.sol\":5641:5710  address(token).functionCall(data, \"SafeERC20: low-level call failed\") */\n      mload(0x40)\n      dup1\n      0x40\n      add\n      0x40\n      mstore\n      dup1\n      0x20\n      dup2\n      mstore\n      0x20\n      add\n      0x5361666545524332303a206c6f772d6c6576656c2063616c6c206661696c6564\n      dup2\n      mstore\n      pop\n        /* \"@openzeppelin/contracts/token/ERC20/utils/SafeERC20.sol\":5649:5654  token */\n      dup6\n        /* \"@openzeppelin/contracts/token/ERC20/utils/SafeERC20.sol\":5641:5668  address(token).functionCall */\n      0xffffffffffffffffffffffffffffffffffffffff\n      and\n      tag_142\n      swap1\n        /* \"@openzeppelin/contracts/token/ERC20/utils/SafeERC20.sol\":5641:5710  address(token).functionCall(data, \"SafeERC20: low-level call failed\") */\n      swap3\n      swap2\n      swap1\n      0xffffffff\n      and\n      jump\t// in\n    tag_141:\n        /* \"@openzeppelin/contracts/token/ERC20/utils/SafeERC20.sol\":5615:5710  bytes memory returndata = address(token).functionCall(data, \"SafeERC20: low-level call failed\") */\n      swap1\n      pop\n        /* \"@openzeppelin/contracts/token/ERC20/utils/SafeERC20.sol\":5749:5750  0 */\n      0x00\n        /* \"@openzeppelin/contracts/token/ERC20/utils/SafeERC20.sol\":5728:5738  returndata */\n      dup2\n        /* \"@openzeppelin/contracts/token/ERC20/utils/SafeERC20.sol\":5728:5745  returndata.length */\n      mload\n        /* \"@openzeppelin/contracts/token/ERC20/utils/SafeERC20.sol\":5728:5750  returndata.length == 0 */\n      eq\n        /* \"@openzeppelin/contracts/token/ERC20/utils/SafeERC20.sol\":5728:5784  returndata.length == 0 || abi.decode(returndata, (bool)) */\n      dup1\n      tag_143\n      jumpi\n      pop\n        /* \"@openzeppelin/contracts/token/ERC20/utils/SafeERC20.sol\":5765:5775  returndata */\n      dup1\n        /* \"@openzeppelin/contracts/token/ERC20/utils/SafeERC20.sol\":5754:5784  abi.decode(returndata, (bool)) */\n      dup1\n      0x20\n      add\n      swap1\n      mload\n      dup2\n      add\n      swap1\n      tag_144\n      swap2\n      swap1\n      tag_145\n      jump\t// in\n    tag_144:\n        /* \"@openzeppelin/contracts/token/ERC20/utils/SafeERC20.sol\":5728:5784  returndata.length == 0 || abi.decode(returndata, (bool)) */\n    tag_143:\n        /* \"@openzeppelin/contracts/token/ERC20/utils/SafeERC20.sol\":5720:5831  require(returndata.length == 0 || abi.decode(returndata, (bool)), \"SafeERC20: ERC20 operation did not succeed\") */\n      tag_146\n      jumpi\n      mload(0x40)\n      0x08c379a000000000000000000000000000000000000000000000000000000000\n      dup2\n      mstore\n      0x04\n      add\n      tag_147\n      swap1\n      tag_148\n      jump\t// in\n    tag_147:\n      mload(0x40)\n      dup1\n      swap2\n      sub\n      swap1\n      revert\n    tag_146:\n        /* \"@openzeppelin/contracts/token/ERC20/utils/SafeERC20.sol\":5266:5838  {... */\n      pop\n        /* \"@openzeppelin/contracts/token/ERC20/utils/SafeERC20.sol\":5196:5838  function _callOptionalReturn(IERC20 token, bytes memory data) private {... */\n      pop\n      pop\n      jump\t// out\n        /* \"@openzeppelin/contracts/utils/Address.sol\":4108:4331  function functionCall(... */\n    tag_142:\n        /* \"@openzeppelin/contracts/utils/Address.sol\":4241:4253  bytes memory */\n      0x60\n        /* \"@openzeppelin/contracts/utils/Address.sol\":4272:4324  functionCallWithValue(target, data, 0, errorMessage) */\n      tag_150\n        /* \"@openzeppelin/contracts/utils/Address.sol\":4294:4300  target */\n      dup5\n        /* \"@openzeppelin/contracts/utils/Address.sol\":4302:4306  data */\n      dup5\n        /* \"@openzeppelin/contracts/utils/Address.sol\":4308:4309  0 */\n      0x00\n        /* \"@openzeppelin/contracts/utils/Address.sol\":4311:4323  errorMessage */\n      dup6\n        /* \"@openzeppelin/contracts/utils/Address.sol\":4272:4293  functionCallWithValue */\n      tag_151\n        /* \"@openzeppelin/contracts/utils/Address.sol\":4272:4324  functionCallWithValue(target, data, 0, errorMessage) */\n      jump\t// in\n    tag_150:\n        /* \"@openzeppelin/contracts/utils/Address.sol\":4265:4324  return functionCallWithValue(target, data, 0, errorMessage) */\n      swap1\n      pop\n        /* \"@openzeppelin/contracts/utils/Address.sol\":4108:4331  function functionCall(... */\n      swap4\n      swap3\n      pop\n      pop\n      pop\n      jump\t// out\n        /* \"@openzeppelin/contracts/utils/Address.sol\":5165:5611  function functionCallWithValue(... */\n    tag_151:\n        /* \"@openzeppelin/contracts/utils/Address.sol\":5330:5342  bytes memory */\n      0x60\n        /* \"@openzeppelin/contracts/utils/Address.sol\":5387:5392  value */\n      dup3\n        /* \"@openzeppelin/contracts/utils/Address.sol\":5362:5383  address(this).balance */\n      selfbalance\n        /* \"@openzeppelin/contracts/utils/Address.sol\":5362:5392  address(this).balance >= value */\n      lt\n      iszero\n        /* \"@openzeppelin/contracts/utils/Address.sol\":5354:5435  require(address(this).balance >= value, \"Address: insufficient balance for call\") */\n      tag_153\n      jumpi\n      mload(0x40)\n      0x08c379a000000000000000000000000000000000000000000000000000000000\n      dup2\n      mstore\n      0x04\n      add\n      tag_154\n      swap1\n      tag_155\n      jump\t// in\n    tag_154:\n      mload(0x40)\n      dup1\n      swap2\n      sub\n      swap1\n      revert\n    tag_153:\n        /* \"@openzeppelin/contracts/utils/Address.sol\":5446:5458  bool success */\n      0x00\n        /* \"@openzeppelin/contracts/utils/Address.sol\":5460:5483  bytes memory returndata */\n      dup1\n        /* \"@openzeppelin/contracts/utils/Address.sol\":5487:5493  target */\n      dup7\n        /* \"@openzeppelin/contracts/utils/Address.sol\":5487:5498  target.call */\n      0xffffffffffffffffffffffffffffffffffffffff\n      and\n        /* \"@openzeppelin/contracts/utils/Address.sol\":5506:5511  value */\n      dup6\n        /* \"@openzeppelin/contracts/utils/Address.sol\":5513:5517  data */\n      dup8\n        /* \"@openzeppelin/contracts/utils/Address.sol\":5487:5518  target.call{value: value}(data) */\n      mload(0x40)\n      tag_156\n      swap2\n      swap1\n      tag_157\n      jump\t// in\n    tag_156:\n      0x00\n      mload(0x40)\n      dup1\n      dup4\n      sub\n      dup2\n      dup6\n      dup8\n      gas\n      call\n      swap3\n      pop\n      pop\n      pop\n      returndatasize\n      dup1\n      0x00\n      dup2\n      eq\n      tag_160\n      jumpi\n      mload(0x40)\n      swap2\n      pop\n      and(add(returndatasize, 0x3f), not(0x1f))\n      dup3\n      add\n      0x40\n      mstore\n      returndatasize\n      dup3\n      mstore\n      returndatasize\n      0x00\n      0x20\n      dup5\n      add\n      returndatacopy\n      jump(tag_159)\n    tag_160:\n      0x60\n      swap2\n      pop\n    tag_159:\n      pop\n        /* \"@openzeppelin/contracts/utils/Address.sol\":5445:5518  (bool success, bytes memory returndata) = target.call{value: value}(data) */\n      swap2\n      pop\n      swap2\n      pop\n        /* \"@openzeppelin/contracts/utils/Address.sol\":5535:5604  verifyCallResultFromTarget(target, success, returndata, errorMessage) */\n      tag_161\n        /* \"@openzeppelin/contracts/utils/Address.sol\":5562:5568  target */\n      dup8\n        /* \"@openzeppelin/contracts/utils/Address.sol\":5570:5577  success */\n      dup4\n        /* \"@openzeppelin/contracts/utils/Address.sol\":5579:5589  returndata */\n      dup4\n        /* \"@openzeppelin/contracts/utils/Address.sol\":5591:5603  errorMessage */\n      dup8\n        /* \"@openzeppelin/contracts/utils/Address.sol\":5535:5561  verifyCallResultFromTarget */\n      tag_162\n        /* \"@openzeppelin/contracts/utils/Address.sol\":5535:5604  verifyCallResultFromTarget(target, success, returndata, errorMessage) */\n      jump\t// in\n    tag_161:\n        /* \"@openzeppelin/contracts/utils/Address.sol\":5528:5604  return verifyCallResultFromTarget(target, success, returndata, errorMessage) */\n      swap3\n      pop\n      pop\n      pop\n        /* \"@openzeppelin/contracts/utils/Address.sol\":5165:5611  function functionCallWithValue(... */\n      swap5\n      swap4\n      pop\n      pop\n      pop\n      pop\n      jump\t// out\n        /* \"@openzeppelin/contracts/utils/Address.sol\":7671:8299  function verifyCallResultFromTarget(... */\n    tag_162:\n        /* \"@openzeppelin/contracts/utils/Address.sol\":7851:7863  bytes memory */\n      0x60\n        /* \"@openzeppelin/contracts/utils/Address.sol\":7879:7886  success */\n      dup4\n        /* \"@openzeppelin/contracts/utils/Address.sol\":7875:8293  if (success) {... */\n      iszero\n      tag_164\n      jumpi\n        /* \"@openzeppelin/contracts/utils/Address.sol\":7927:7928  0 */\n      0x00\n        /* \"@openzeppelin/contracts/utils/Address.sol\":7906:7916  returndata */\n      dup4\n        /* \"@openzeppelin/contracts/utils/Address.sol\":7906:7923  returndata.length */\n      mload\n        /* \"@openzeppelin/contracts/utils/Address.sol\":7906:7928  returndata.length == 0 */\n      sub\n        /* \"@openzeppelin/contracts/utils/Address.sol\":7902:8188  if (returndata.length == 0) {... */\n      tag_165\n      jumpi\n        /* \"@openzeppelin/contracts/utils/Address.sol\":8121:8139  isContract(target) */\n      tag_166\n        /* \"@openzeppelin/contracts/utils/Address.sol\":8132:8138  target */\n      dup6\n        /* \"@openzeppelin/contracts/utils/Address.sol\":8121:8131  isContract */\n      tag_167\n        /* \"@openzeppelin/contracts/utils/Address.sol\":8121:8139  isContract(target) */\n      jump\t// in\n    tag_166:\n        /* \"@openzeppelin/contracts/utils/Address.sol\":8113:8173  require(isContract(target), \"Address: call to non-contract\") */\n      tag_168\n      jumpi\n      mload(0x40)\n      0x08c379a000000000000000000000000000000000000000000000000000000000\n      dup2\n      mstore\n      0x04\n      add\n      tag_169\n      swap1\n      tag_170\n      jump\t// in\n    tag_169:\n      mload(0x40)\n      dup1\n      swap2\n      sub\n      swap1\n      revert\n    tag_168:\n        /* \"@openzeppelin/contracts/utils/Address.sol\":7902:8188  if (returndata.length == 0) {... */\n    tag_165:\n        /* \"@openzeppelin/contracts/utils/Address.sol\":8208:8218  returndata */\n      dup3\n        /* \"@openzeppelin/contracts/utils/Address.sol\":8201:8218  return returndata */\n      swap1\n      pop\n      jump(tag_163)\n        /* \"@openzeppelin/contracts/utils/Address.sol\":7875:8293  if (success) {... */\n    tag_164:\n        /* \"@openzeppelin/contracts/utils/Address.sol\":8249:8282  _revert(returndata, errorMessage) */\n      tag_172\n        /* \"@openzeppelin/contracts/utils/Address.sol\":8257:8267  returndata */\n      dup4\n        /* \"@openzeppelin/contracts/utils/Address.sol\":8269:8281  errorMessage */\n      dup4\n        /* \"@openzeppelin/contracts/utils/Address.sol\":8249:8256  _revert */\n      tag_173\n        /* \"@openzeppelin/contracts/utils/Address.sol\":8249:8282  _revert(returndata, errorMessage) */\n      jump\t// in\n    tag_172:\n        /* \"@openzeppelin/contracts/utils/Address.sol\":7671:8299  function verifyCallResultFromTarget(... */\n    tag_163:\n      swap5\n      swap4\n      pop\n      pop\n      pop\n      pop\n      jump\t// out\n        /* \"@openzeppelin/contracts/utils/Address.sol\":1412:1732  function isContract(address account) internal view returns (bool) {... */\n    tag_167:\n        /* \"@openzeppelin/contracts/utils/Address.sol\":1472:1476  bool */\n      0x00\n        /* \"@openzeppelin/contracts/utils/Address.sol\":1724:1725  0 */\n      dup1\n        /* \"@openzeppelin/contracts/utils/Address.sol\":1702:1709  account */\n      dup3\n        /* \"@openzeppelin/contracts/utils/Address.sol\":1702:1721  account.code.length */\n      0xffffffffffffffffffffffffffffffffffffffff\n      and\n      extcodesize\n        /* \"@openzeppelin/contracts/utils/Address.sol\":1702:1725  account.code.length > 0 */\n      gt\n        /* \"@openzeppelin/contracts/utils/Address.sol\":1695:1725  return account.code.length > 0 */\n      swap1\n      pop\n        /* \"@openzeppelin/contracts/utils/Address.sol\":1412:1732  function isContract(address account) internal view returns (bool) {... */\n      swap2\n      swap1\n      pop\n      jump\t// out\n        /* \"@openzeppelin/contracts/utils/Address.sol\":8821:9361  function _revert(bytes memory returndata, string memory errorMessage) private pure {... */\n    tag_173:\n        /* \"@openzeppelin/contracts/utils/Address.sol\":9000:9001  0 */\n      0x00\n        /* \"@openzeppelin/contracts/utils/Address.sol\":8980:8990  returndata */\n      dup3\n        /* \"@openzeppelin/contracts/utils/Address.sol\":8980:8997  returndata.length */\n      mload\n        /* \"@openzeppelin/contracts/utils/Address.sol\":8980:9001  returndata.length > 0 */\n      gt\n        /* \"@openzeppelin/contracts/utils/Address.sol\":8976:9355  if (returndata.length > 0) {... */\n      iszero\n      tag_176\n      jumpi\n        /* \"@openzeppelin/contracts/utils/Address.sol\":9208:9218  returndata */\n      dup2\n        /* \"@openzeppelin/contracts/utils/Address.sol\":9202:9219  mload(returndata) */\n      mload\n        /* \"@openzeppelin/contracts/utils/Address.sol\":9264:9279  returndata_size */\n      dup1\n        /* \"@openzeppelin/contracts/utils/Address.sol\":9251:9261  returndata */\n      dup4\n        /* \"@openzeppelin/contracts/utils/Address.sol\":9247:9249  32 */\n      0x20\n        /* \"@openzeppelin/contracts/utils/Address.sol\":9243:9262  add(32, returndata) */\n      add\n        /* \"@openzeppelin/contracts/utils/Address.sol\":9236:9280  revert(add(32, returndata), returndata_size) */\n      revert\n        /* \"@openzeppelin/contracts/utils/Address.sol\":8976:9355  if (returndata.length > 0) {... */\n    tag_176:\n        /* \"@openzeppelin/contracts/utils/Address.sol\":9331:9343  errorMessage */\n      dup1\n        /* \"@openzeppelin/contracts/utils/Address.sol\":9324:9344  revert(errorMessage) */\n      mload(0x40)\n      0x08c379a000000000000000000000000000000000000000000000000000000000\n      dup2\n      mstore\n      0x04\n      add\n      tag_178\n      swap2\n      swap1\n      tag_179\n      jump\t// in\n    tag_178:\n      mload(0x40)\n      dup1\n      swap2\n      sub\n      swap1\n      revert\n        /* \"#utility.yul\":7:97   */\n    tag_180:\n        /* \"#utility.yul\":41:48   */\n      0x00\n        /* \"#utility.yul\":84:89   */\n      dup2\n        /* \"#utility.yul\":77:90   */\n      iszero\n        /* \"#utility.yul\":70:91   */\n      iszero\n        /* \"#utility.yul\":59:91   */\n      swap1\n      pop\n        /* \"#utility.yul\":7:97   */\n      swap2\n      swap1\n      pop\n      jump\t// out\n        /* \"#utility.yul\":103:212   */\n    tag_181:\n        /* \"#utility.yul\":184:205   */\n      tag_227\n        /* \"#utility.yul\":199:204   */\n      dup2\n        /* \"#utility.yul\":184:205   */\n      tag_180\n      jump\t// in\n    tag_227:\n        /* \"#utility.yul\":179:182   */\n      dup3\n        /* \"#utility.yul\":172:206   */\n      mstore\n        /* \"#utility.yul\":103:212   */\n      pop\n      pop\n      jump\t// out\n        /* \"#utility.yul\":218:428   */\n    tag_27:\n        /* \"#utility.yul\":305:309   */\n      0x00\n        /* \"#utility.yul\":343:345   */\n      0x20\n        /* \"#utility.yul\":332:341   */\n      dup3\n        /* \"#utility.yul\":328:346   */\n      add\n        /* \"#utility.yul\":320:346   */\n      swap1\n      pop\n        /* \"#utility.yul\":356:421   */\n      tag_229\n        /* \"#utility.yul\":418:419   */\n      0x00\n        /* \"#utility.yul\":407:416   */\n      dup4\n        /* \"#utility.yul\":403:420   */\n      add\n        /* \"#utility.yul\":394:400   */\n      dup5\n        /* \"#utility.yul\":356:421   */\n      tag_181\n      jump\t// in\n    tag_229:\n        /* \"#utility.yul\":218:428   */\n      swap3\n      swap2\n      pop\n      pop\n      jump\t// out\n        /* \"#utility.yul\":434:511   */\n    tag_182:\n        /* \"#utility.yul\":471:478   */\n      0x00\n        /* \"#utility.yul\":500:505   */\n      dup2\n        /* \"#utility.yul\":489:505   */\n      swap1\n      pop\n        /* \"#utility.yul\":434:511   */\n      swap2\n      swap1\n      pop\n      jump\t// out\n        /* \"#utility.yul\":517:635   */\n    tag_183:\n        /* \"#utility.yul\":604:628   */\n      tag_232\n        /* \"#utility.yul\":622:627   */\n      dup2\n        /* \"#utility.yul\":604:628   */\n      tag_182\n      jump\t// in\n    tag_232:\n        /* \"#utility.yul\":599:602   */\n      dup3\n        /* \"#utility.yul\":592:629   */\n      mstore\n        /* \"#utility.yul\":517:635   */\n      pop\n      pop\n      jump\t// out\n        /* \"#utility.yul\":641:863   */\n    tag_32:\n        /* \"#utility.yul\":734:738   */\n      0x00\n        /* \"#utility.yul\":772:774   */\n      0x20\n        /* \"#utility.yul\":761:770   */\n      dup3\n        /* \"#utility.yul\":757:775   */\n      add\n        /* \"#utility.yul\":749:775   */\n      swap1\n      pop\n        /* \"#utility.yul\":785:856   */\n      tag_234\n        /* \"#utility.yul\":853:854   */\n      0x00\n        /* \"#utility.yul\":842:851   */\n      dup4\n        /* \"#utility.yul\":838:855   */\n      add\n        /* \"#utility.yul\":829:835   */\n      dup5\n        /* \"#utility.yul\":785:856   */\n      tag_183\n      jump\t// in\n    tag_234:\n        /* \"#utility.yul\":641:863   */\n      swap3\n      swap2\n      pop\n      pop\n      jump\t// out\n        /* \"#utility.yul\":869:995   */\n    tag_184:\n        /* \"#utility.yul\":906:913   */\n      0x00\n        /* \"#utility.yul\":946:988   */\n      0xffffffffffffffffffffffffffffffffffffffff\n        /* \"#utility.yul\":939:944   */\n      dup3\n        /* \"#utility.yul\":935:989   */\n      and\n        /* \"#utility.yul\":924:989   */\n      swap1\n      pop\n        /* \"#utility.yul\":869:995   */\n      swap2\n      swap1\n      pop\n      jump\t// out\n        /* \"#utility.yul\":1001:1105   */\n    tag_185:\n        /* \"#utility.yul\":1046:1053   */\n      0x00\n        /* \"#utility.yul\":1075:1099   */\n      tag_237\n        /* \"#utility.yul\":1093:1098   */\n      dup3\n        /* \"#utility.yul\":1075:1099   */\n      tag_184\n      jump\t// in\n    tag_237:\n        /* \"#utility.yul\":1064:1099   */\n      swap1\n      pop\n        /* \"#utility.yul\":1001:1105   */\n      swap2\n      swap1\n      pop\n      jump\t// out\n        /* \"#utility.yul\":1111:1253   */\n    tag_186:\n        /* \"#utility.yul\":1214:1246   */\n      tag_239\n        /* \"#utility.yul\":1240:1245   */\n      dup2\n        /* \"#utility.yul\":1214:1246   */\n      tag_185\n      jump\t// in\n    tag_239:\n        /* \"#utility.yul\":1209:1212   */\n      dup3\n        /* \"#utility.yul\":1202:1247   */\n      mstore\n        /* \"#utility.yul\":1111:1253   */\n      pop\n      pop\n      jump\t// out\n        /* \"#utility.yul\":1259:1513   */\n    tag_49:\n        /* \"#utility.yul\":1368:1372   */\n      0x00\n        /* \"#utility.yul\":1406:1408   */\n      0x20\n        /* \"#utility.yul\":1395:1404   */\n      dup3\n        /* \"#utility.yul\":1391:1409   */\n      add\n        /* \"#utility.yul\":1383:1409   */\n      swap1\n      pop\n        /* \"#utility.yul\":1419:1506   */\n      tag_241\n        /* \"#utility.yul\":1503:1504   */\n      0x00\n        /* \"#utility.yul\":1492:1501   */\n      dup4\n        /* \"#utility.yul\":1488:1505   */\n      add\n        /* \"#utility.yul\":1479:1485   */\n      dup5\n        /* \"#utility.yul\":1419:1506   */\n      tag_186\n      jump\t// in\n    tag_241:\n        /* \"#utility.yul\":1259:1513   */\n      swap3\n      swap2\n      pop\n      pop\n      jump\t// out\n        /* \"#utility.yul\":1600:1717   */\n    tag_188:\n        /* \"#utility.yul\":1709:1710   */\n      0x00\n        /* \"#utility.yul\":1706:1707   */\n      dup1\n        /* \"#utility.yul\":1699:1711   */\n      revert\n        /* \"#utility.yul\":1846:1942   */\n    tag_190:\n        /* \"#utility.yul\":1883:1890   */\n      0x00\n        /* \"#utility.yul\":1912:1936   */\n      tag_246\n        /* \"#utility.yul\":1930:1935   */\n      dup3\n        /* \"#utility.yul\":1912:1936   */\n      tag_184\n      jump\t// in\n    tag_246:\n        /* \"#utility.yul\":1901:1936   */\n      swap1\n      pop\n        /* \"#utility.yul\":1846:1942   */\n      swap2\n      swap1\n      pop\n      jump\t// out\n        /* \"#utility.yul\":1948:2070   */\n    tag_191:\n        /* \"#utility.yul\":2021:2045   */\n      tag_248\n        /* \"#utility.yul\":2039:2044   */\n      dup2\n        /* \"#utility.yul\":2021:2045   */\n      tag_190\n      jump\t// in\n    tag_248:\n        /* \"#utility.yul\":2014:2019   */\n      dup2\n        /* \"#utility.yul\":2011:2046   */\n      eq\n        /* \"#utility.yul\":2001:2064   */\n      tag_249\n      jumpi\n        /* \"#utility.yul\":2060:2061   */\n      0x00\n        /* \"#utility.yul\":2057:2058   */\n      dup1\n        /* \"#utility.yul\":2050:2062   */\n      revert\n        /* \"#utility.yul\":2001:2064   */\n    tag_249:\n        /* \"#utility.yul\":1948:2070   */\n      pop\n      jump\t// out\n        /* \"#utility.yul\":2076:2215   */\n    tag_192:\n        /* \"#utility.yul\":2122:2127   */\n      0x00\n        /* \"#utility.yul\":2160:2166   */\n      dup2\n        /* \"#utility.yul\":2147:2167   */\n      calldataload\n        /* \"#utility.yul\":2138:2167   */\n      swap1\n      pop\n        /* \"#utility.yul\":2176:2209   */\n      tag_251\n        /* \"#utility.yul\":2203:2208   */\n      dup2\n        /* \"#utility.yul\":2176:2209   */\n      tag_191\n      jump\t// in\n    tag_251:\n        /* \"#utility.yul\":2076:2215   */\n      swap3\n      swap2\n      pop\n      pop\n      jump\t// out\n        /* \"#utility.yul\":2221:2550   */\n    tag_56:\n        /* \"#utility.yul\":2280:2286   */\n      0x00\n        /* \"#utility.yul\":2329:2331   */\n      0x20\n        /* \"#utility.yul\":2317:2326   */\n      dup3\n        /* \"#utility.yul\":2308:2315   */\n      dup5\n        /* \"#utility.yul\":2304:2327   */\n      sub\n        /* \"#utility.yul\":2300:2332   */\n      slt\n        /* \"#utility.yul\":2297:2416   */\n      iszero\n      tag_253\n      jumpi\n        /* \"#utility.yul\":2335:2414   */\n      tag_254\n      tag_188\n      jump\t// in\n    tag_254:\n        /* \"#utility.yul\":2297:2416   */\n    tag_253:\n        /* \"#utility.yul\":2455:2456   */\n      0x00\n        /* \"#utility.yul\":2480:2533   */\n      tag_255\n        /* \"#utility.yul\":2525:2532   */\n      dup5\n        /* \"#utility.yul\":2516:2522   */\n      dup3\n        /* \"#utility.yul\":2505:2514   */\n      dup6\n        /* \"#utility.yul\":2501:2523   */\n      add\n        /* \"#utility.yul\":2480:2533   */\n      tag_192\n      jump\t// in\n    tag_255:\n        /* \"#utility.yul\":2470:2533   */\n      swap2\n      pop\n        /* \"#utility.yul\":2426:2543   */\n      pop\n        /* \"#utility.yul\":2221:2550   */\n      swap3\n      swap2\n      pop\n      pop\n      jump\t// out\n        /* \"#utility.yul\":2556:2616   */\n    tag_193:\n        /* \"#utility.yul\":2584:2587   */\n      0x00\n        /* \"#utility.yul\":2605:2610   */\n      dup2\n        /* \"#utility.yul\":2598:2610   */\n      swap1\n      pop\n        /* \"#utility.yul\":2556:2616   */\n      swap2\n      swap1\n      pop\n      jump\t// out\n        /* \"#utility.yul\":2622:2764   */\n    tag_194:\n        /* \"#utility.yul\":2672:2681   */\n      0x00\n        /* \"#utility.yul\":2705:2758   */\n      tag_258\n        /* \"#utility.yul\":2723:2757   */\n      tag_259\n        /* \"#utility.yul\":2732:2756   */\n      tag_260\n        /* \"#utility.yul\":2750:2755   */\n      dup5\n        /* \"#utility.yul\":2732:2756   */\n      tag_184\n      jump\t// in\n    tag_260:\n        /* \"#utility.yul\":2723:2757   */\n      tag_193\n      jump\t// in\n    tag_259:\n        /* \"#utility.yul\":2705:2758   */\n      tag_184\n      jump\t// in\n    tag_258:\n        /* \"#utility.yul\":2692:2758   */\n      swap1\n      pop\n        /* \"#utility.yul\":2622:2764   */\n      swap2\n      swap1\n      pop\n      jump\t// out\n        /* \"#utility.yul\":2770:2896   */\n    tag_195:\n        /* \"#utility.yul\":2820:2829   */\n      0x00\n        /* \"#utility.yul\":2853:2890   */\n      tag_262\n        /* \"#utility.yul\":2884:2889   */\n      dup3\n        /* \"#utility.yul\":2853:2890   */\n      tag_194\n      jump\t// in\n    tag_262:\n        /* \"#utility.yul\":2840:2890   */\n      swap1\n      pop\n        /* \"#utility.yul\":2770:2896   */\n      swap2\n      swap1\n      pop\n      jump\t// out\n        /* \"#utility.yul\":2902:3042   */\n    tag_196:\n        /* \"#utility.yul\":2966:2975   */\n      0x00\n        /* \"#utility.yul\":2999:3036   */\n      tag_264\n        /* \"#utility.yul\":3030:3035   */\n      dup3\n        /* \"#utility.yul\":2999:3036   */\n      tag_195\n      jump\t// in\n    tag_264:\n        /* \"#utility.yul\":2986:3036   */\n      swap1\n      pop\n        /* \"#utility.yul\":2902:3042   */\n      swap2\n      swap1\n      pop\n      jump\t// out\n        /* \"#utility.yul\":3048:3207   */\n    tag_197:\n        /* \"#utility.yul\":3149:3200   */\n      tag_266\n        /* \"#utility.yul\":3194:3199   */\n      dup2\n        /* \"#utility.yul\":3149:3200   */\n      tag_196\n      jump\t// in\n    tag_266:\n        /* \"#utility.yul\":3144:3147   */\n      dup3\n        /* \"#utility.yul\":3137:3201   */\n      mstore\n        /* \"#utility.yul\":3048:3207   */\n      pop\n      pop\n      jump\t// out\n        /* \"#utility.yul\":3213:3463   */\n    tag_61:\n        /* \"#utility.yul\":3320:3324   */\n      0x00\n        /* \"#utility.yul\":3358:3360   */\n      0x20\n        /* \"#utility.yul\":3347:3356   */\n      dup3\n        /* \"#utility.yul\":3343:3361   */\n      add\n        /* \"#utility.yul\":3335:3361   */\n      swap1\n      pop\n        /* \"#utility.yul\":3371:3456   */\n      tag_268\n        /* \"#utility.yul\":3453:3454   */\n      0x00\n        /* \"#utility.yul\":3442:3451   */\n      dup4\n        /* \"#utility.yul\":3438:3455   */\n      add\n        /* \"#utility.yul\":3429:3435   */\n      dup5\n        /* \"#utility.yul\":3371:3456   */\n      tag_197\n      jump\t// in\n    tag_268:\n        /* \"#utility.yul\":3213:3463   */\n      swap3\n      swap2\n      pop\n      pop\n      jump\t// out\n        /* \"#utility.yul\":3469:3801   */\n    tag_77:\n        /* \"#utility.yul\":3590:3594   */\n      0x00\n        /* \"#utility.yul\":3628:3630   */\n      0x40\n        /* \"#utility.yul\":3617:3626   */\n      dup3\n        /* \"#utility.yul\":3613:3631   */\n      add\n        /* \"#utility.yul\":3605:3631   */\n      swap1\n      pop\n        /* \"#utility.yul\":3641:3712   */\n      tag_270\n        /* \"#utility.yul\":3709:3710   */\n      0x00\n        /* \"#utility.yul\":3698:3707   */\n      dup4\n        /* \"#utility.yul\":3694:3711   */\n      add\n        /* \"#utility.yul\":3685:3691   */\n      dup6\n        /* \"#utility.yul\":3641:3712   */\n      tag_183\n      jump\t// in\n    tag_270:\n        /* \"#utility.yul\":3722:3794   */\n      tag_271\n        /* \"#utility.yul\":3790:3792   */\n      0x20\n        /* \"#utility.yul\":3779:3788   */\n      dup4\n        /* \"#utility.yul\":3775:3793   */\n      add\n        /* \"#utility.yul\":3766:3772   */\n      dup5\n        /* \"#utility.yul\":3722:3794   */\n      tag_183\n      jump\t// in\n    tag_271:\n        /* \"#utility.yul\":3469:3801   */\n      swap4\n      swap3\n      pop\n      pop\n      pop\n      jump\t// out\n        /* \"#utility.yul\":3807:3976   */\n    tag_198:\n        /* \"#utility.yul\":3891:3902   */\n      0x00\n        /* \"#utility.yul\":3925:3931   */\n      dup3\n        /* \"#utility.yul\":3920:3923   */\n      dup3\n        /* \"#utility.yul\":3913:3932   */\n      mstore\n        /* \"#utility.yul\":3965:3969   */\n      0x20\n        /* \"#utility.yul\":3960:3963   */\n      dup3\n        /* \"#utility.yul\":3956:3970   */\n      add\n        /* \"#utility.yul\":3941:3970   */\n      swap1\n      pop\n        /* \"#utility.yul\":3807:3976   */\n      swap3\n      swap2\n      pop\n      pop\n      jump\t// out\n        /* \"#utility.yul\":3982:4163   */\n    tag_199:\n        /* \"#utility.yul\":4122:4155   */\n      0x5265656e7472616e637947756172643a207265656e7472616e742063616c6c00\n        /* \"#utility.yul\":4118:4119   */\n      0x00\n        /* \"#utility.yul\":4110:4116   */\n      dup3\n        /* \"#utility.yul\":4106:4120   */\n      add\n        /* \"#utility.yul\":4099:4156   */\n      mstore\n        /* \"#utility.yul\":3982:4163   */\n      pop\n      jump\t// out\n        /* \"#utility.yul\":4169:4535   */\n    tag_200:\n        /* \"#utility.yul\":4311:4314   */\n      0x00\n        /* \"#utility.yul\":4332:4399   */\n      tag_275\n        /* \"#utility.yul\":4396:4398   */\n      0x1f\n        /* \"#utility.yul\":4391:4394   */\n      dup4\n        /* \"#utility.yul\":4332:4399   */\n      tag_198\n      jump\t// in\n    tag_275:\n        /* \"#utility.yul\":4325:4399   */\n      swap2\n      pop\n        /* \"#utility.yul\":4408:4501   */\n      tag_276\n        /* \"#utility.yul\":4497:4500   */\n      dup3\n        /* \"#utility.yul\":4408:4501   */\n      tag_199\n      jump\t// in\n    tag_276:\n        /* \"#utility.yul\":4526:4528   */\n      0x20\n        /* \"#utility.yul\":4521:4524   */\n      dup3\n        /* \"#utility.yul\":4517:4529   */\n      add\n        /* \"#utility.yul\":4510:4529   */\n      swap1\n      pop\n        /* \"#utility.yul\":4169:4535   */\n      swap2\n      swap1\n      pop\n      jump\t// out\n        /* \"#utility.yul\":4541:4960   */\n    tag_98:\n        /* \"#utility.yul\":4707:4711   */\n      0x00\n        /* \"#utility.yul\":4745:4747   */\n      0x20\n        /* \"#utility.yul\":4734:4743   */\n      dup3\n        /* \"#utility.yul\":4730:4748   */\n      add\n        /* \"#utility.yul\":4722:4748   */\n      swap1\n      pop\n        /* \"#utility.yul\":4794:4803   */\n      dup2\n        /* \"#utility.yul\":4788:4792   */\n      dup2\n        /* \"#utility.yul\":4784:4804   */\n      sub\n        /* \"#utility.yul\":4780:4781   */\n      0x00\n        /* \"#utility.yul\":4769:4778   */\n      dup4\n        /* \"#utility.yul\":4765:4782   */\n      add\n        /* \"#utility.yul\":4758:4805   */\n      mstore\n        /* \"#utility.yul\":4822:4953   */\n      tag_278\n        /* \"#utility.yul\":4948:4952   */\n      dup2\n        /* \"#utility.yul\":4822:4953   */\n      tag_200\n      jump\t// in\n    tag_278:\n        /* \"#utility.yul\":4814:4953   */\n      swap1\n      pop\n        /* \"#utility.yul\":4541:4960   */\n      swap2\n      swap1\n      pop\n      jump\t// out\n        /* \"#utility.yul\":4966:5140   */\n    tag_201:\n        /* \"#utility.yul\":5106:5132   */\n      0x54696d656443726f776473616c653a206e6f74206f70656e0000000000000000\n        /* \"#utility.yul\":5102:5103   */\n      0x00\n        /* \"#utility.yul\":5094:5100   */\n      dup3\n        /* \"#utility.yul\":5090:5104   */\n      add\n        /* \"#utility.yul\":5083:5133   */\n      mstore\n        /* \"#utility.yul\":4966:5140   */\n      pop\n      jump\t// out\n        /* \"#utility.yul\":5146:5512   */\n    tag_202:\n        /* \"#utility.yul\":5288:5291   */\n      0x00\n        /* \"#utility.yul\":5309:5376   */\n      tag_281\n        /* \"#utility.yul\":5373:5375   */\n      0x18\n        /* \"#utility.yul\":5368:5371   */\n      dup4\n        /* \"#utility.yul\":5309:5376   */\n      tag_198\n      jump\t// in\n    tag_281:\n        /* \"#utility.yul\":5302:5376   */\n      swap2\n      pop\n        /* \"#utility.yul\":5385:5478   */\n      tag_282\n        /* \"#utility.yul\":5474:5477   */\n      dup3\n        /* \"#utility.yul\":5385:5478   */\n      tag_201\n      jump\t// in\n    tag_282:\n        /* \"#utility.yul\":5503:5505   */\n      0x20\n        /* \"#utility.yul\":5498:5501   */\n      dup3\n        /* \"#utility.yul\":5494:5506   */\n      add\n        /* \"#utility.yul\":5487:5506   */\n      swap1\n      pop\n        /* \"#utility.yul\":5146:5512   */\n      swap2\n      swap1\n      pop\n      jump\t// out\n        /* \"#utility.yul\":5518:5937   */\n    tag_103:\n        /* \"#utility.yul\":5684:5688   */\n      0x00\n        /* \"#utility.yul\":5722:5724   */\n      0x20\n        /* \"#utility.yul\":5711:5720   */\n      dup3\n        /* \"#utility.yul\":5707:5725   */\n      add\n        /* \"#utility.yul\":5699:5725   */\n      swap1\n      pop\n        /* \"#utility.yul\":5771:5780   */\n      dup2\n        /* \"#utility.yul\":5765:5769   */\n      dup2\n        /* \"#utility.yul\":5761:5781   */\n      sub\n        /* \"#utility.yul\":5757:5758   */\n      0x00\n        /* \"#utility.yul\":5746:5755   */\n      dup4\n        /* \"#utility.yul\":5742:5759   */\n      add\n        /* \"#utility.yul\":5735:5782   */\n      mstore\n        /* \"#utility.yul\":5799:5930   */\n      tag_284\n        /* \"#utility.yul\":5925:5929   */\n      dup2\n        /* \"#utility.yul\":5799:5930   */\n      tag_202\n      jump\t// in\n    tag_284:\n        /* \"#utility.yul\":5791:5930   */\n      swap1\n      pop\n        /* \"#utility.yul\":5518:5937   */\n      swap2\n      swap1\n      pop\n      jump\t// out\n        /* \"#utility.yul\":5943:6123   */\n    tag_203:\n        /* \"#utility.yul\":5991:6068   */\n      0x4e487b7100000000000000000000000000000000000000000000000000000000\n        /* \"#utility.yul\":5988:5989   */\n      0x00\n        /* \"#utility.yul\":5981:6069   */\n      mstore\n        /* \"#utility.yul\":6088:6092   */\n      0x11\n        /* \"#utility.yul\":6085:6086   */\n      0x04\n        /* \"#utility.yul\":6078:6093   */\n      mstore\n        /* \"#utility.yul\":6112:6116   */\n      0x24\n        /* \"#utility.yul\":6109:6110   */\n      0x00\n        /* \"#utility.yul\":6102:6117   */\n      revert\n        /* \"#utility.yul\":6129:6320   */\n    tag_112:\n        /* \"#utility.yul\":6169:6172   */\n      0x00\n        /* \"#utility.yul\":6188:6208   */\n      tag_287\n        /* \"#utility.yul\":6206:6207   */\n      dup3\n        /* \"#utility.yul\":6188:6208   */\n      tag_182\n      jump\t// in\n    tag_287:\n        /* \"#utility.yul\":6183:6208   */\n      swap2\n      pop\n        /* \"#utility.yul\":6222:6242   */\n      tag_288\n        /* \"#utility.yul\":6240:6241   */\n      dup4\n        /* \"#utility.yul\":6222:6242   */\n      tag_182\n      jump\t// in\n    tag_288:\n        /* \"#utility.yul\":6217:6242   */\n      swap3\n      pop\n        /* \"#utility.yul\":6265:6266   */\n      dup3\n        /* \"#utility.yul\":6262:6263   */\n      dup3\n        /* \"#utility.yul\":6258:6267   */\n      add\n        /* \"#utility.yul\":6251:6267   */\n      swap1\n      pop\n        /* \"#utility.yul\":6286:6289   */\n      dup1\n        /* \"#utility.yul\":6283:6284   */\n      dup3\n        /* \"#utility.yul\":6280:6290   */\n      gt\n        /* \"#utility.yul\":6277:6313   */\n      iszero\n      tag_289\n      jumpi\n        /* \"#utility.yul\":6293:6311   */\n      tag_290\n      tag_203\n      jump\t// in\n    tag_290:\n        /* \"#utility.yul\":6277:6313   */\n    tag_289:\n        /* \"#utility.yul\":6129:6320   */\n      swap3\n      swap2\n      pop\n      pop\n      jump\t// out\n        /* \"#utility.yul\":6326:6555   */\n    tag_204:\n        /* \"#utility.yul\":6466:6500   */\n      0x43726f776473616c653a2062656e656669636961727920697320746865207a65\n        /* \"#utility.yul\":6462:6463   */\n      0x00\n        /* \"#utility.yul\":6454:6460   */\n      dup3\n        /* \"#utility.yul\":6450:6464   */\n      add\n        /* \"#utility.yul\":6443:6501   */\n      mstore\n        /* \"#utility.yul\":6535:6547   */\n      0x726f206164647265737300000000000000000000000000000000000000000000\n        /* \"#utility.yul\":6530:6532   */\n      0x20\n        /* \"#utility.yul\":6522:6528   */\n      dup3\n        /* \"#utility.yul\":6518:6533   */\n      add\n        /* \"#utility.yul\":6511:6548   */\n      mstore\n        /* \"#utility.yul\":6326:6555   */\n      pop\n      jump\t// out\n        /* \"#utility.yul\":6561:6927   */\n    tag_205:\n        /* \"#utility.yul\":6703:6706   */\n      0x00\n        /* \"#utility.yul\":6724:6791   */\n      tag_293\n        /* \"#utility.yul\":6788:6790   */\n      0x2a\n        /* \"#utility.yul\":6783:6786   */\n      dup4\n        /* \"#utility.yul\":6724:6791   */\n      tag_198\n      jump\t// in\n    tag_293:\n        /* \"#utility.yul\":6717:6791   */\n      swap2\n      pop\n        /* \"#utility.yul\":6800:6893   */\n      tag_294\n        /* \"#utility.yul\":6889:6892   */\n      dup3\n        /* \"#utility.yul\":6800:6893   */\n      tag_204\n      jump\t// in\n    tag_294:\n        /* \"#utility.yul\":6918:6920   */\n      0x40\n        /* \"#utility.yul\":6913:6916   */\n      dup3\n        /* \"#utility.yul\":6909:6921   */\n      add\n        /* \"#utility.yul\":6902:6921   */\n      swap1\n      pop\n        /* \"#utility.yul\":6561:6927   */\n      swap2\n      swap1\n      pop\n      jump\t// out\n        /* \"#utility.yul\":6933:7352   */\n    tag_125:\n        /* \"#utility.yul\":7099:7103   */\n      0x00\n        /* \"#utility.yul\":7137:7139   */\n      0x20\n        /* \"#utility.yul\":7126:7135   */\n      dup3\n        /* \"#utility.yul\":7122:7140   */\n      add\n        /* \"#utility.yul\":7114:7140   */\n      swap1\n      pop\n        /* \"#utility.yul\":7186:7195   */\n      dup2\n        /* \"#utility.yul\":7180:7184   */\n      dup2\n        /* \"#utility.yul\":7176:7196   */\n      sub\n        /* \"#utility.yul\":7172:7173   */\n      0x00\n        /* \"#utility.yul\":7161:7170   */\n      dup4\n        /* \"#utility.yul\":7157:7174   */\n      add\n        /* \"#utility.yul\":7150:7197   */\n      mstore\n        /* \"#utility.yul\":7214:7345   */\n      tag_296\n        /* \"#utility.yul\":7340:7344   */\n      dup2\n        /* \"#utility.yul\":7214:7345   */\n      tag_205\n      jump\t// in\n    tag_296:\n        /* \"#utility.yul\":7206:7345   */\n      swap1\n      pop\n        /* \"#utility.yul\":6933:7352   */\n      swap2\n      swap1\n      pop\n      jump\t// out\n        /* \"#utility.yul\":7358:7533   */\n    tag_206:\n        /* \"#utility.yul\":7498:7525   */\n      0x43726f776473616c653a20776569416d6f756e74206973203000000000000000\n        /* \"#utility.yul\":7494:7495   */\n      0x00\n        /* \"#utility.yul\":7486:7492   */\n      dup3\n        /* \"#utility.yul\":7482:7496   */\n      add\n        /* \"#utility.yul\":7475:7526   */\n      mstore\n        /* \"#utility.yul\":7358:7533   */\n      pop\n      jump\t// out\n        /* \"#utility.yul\":7539:7905   */\n    tag_207:\n        /* \"#utility.yul\":7681:7684   */\n      0x00\n        /* \"#utility.yul\":7702:7769   */\n      tag_299\n        /* \"#utility.yul\":7766:7768   */\n      0x19\n        /* \"#utility.yul\":7761:7764   */\n      dup4\n        /* \"#utility.yul\":7702:7769   */\n      tag_198\n      jump\t// in\n    tag_299:\n        /* \"#utility.yul\":7695:7769   */\n      swap2\n      pop\n        /* \"#utility.yul\":7778:7871   */\n      tag_300\n        /* \"#utility.yul\":7867:7870   */\n      dup3\n        /* \"#utility.yul\":7778:7871   */\n      tag_206\n      jump\t// in\n    tag_300:\n        /* \"#utility.yul\":7896:7898   */\n      0x20\n        /* \"#utility.yul\":7891:7894   */\n      dup3\n        /* \"#utility.yul\":7887:7899   */\n      add\n        /* \"#utility.yul\":7880:7899   */\n      swap1\n      pop\n        /* \"#utility.yul\":7539:7905   */\n      swap2\n      swap1\n      pop\n      jump\t// out\n        /* \"#utility.yul\":7911:8330   */\n    tag_128:\n        /* \"#utility.yul\":8077:8081   */\n      0x00\n        /* \"#utility.yul\":8115:8117   */\n      0x20\n        /* \"#utility.yul\":8104:8113   */\n      dup3\n        /* \"#utility.yul\":8100:8118   */\n      add\n        /* \"#utility.yul\":8092:8118   */\n      swap1\n      pop\n        /* \"#utility.yul\":8164:8173   */\n      dup2\n        /* \"#utility.yul\":8158:8162   */\n      dup2\n        /* \"#utility.yul\":8154:8174   */\n      sub\n        /* \"#utility.yul\":8150:8151   */\n      0x00\n        /* \"#utility.yul\":8139:8148   */\n      dup4\n        /* \"#utility.yul\":8135:8152   */\n      add\n        /* \"#utility.yul\":8128:8175   */\n      mstore\n        /* \"#utility.yul\":8192:8323   */\n      tag_302\n        /* \"#utility.yul\":8318:8322   */\n      dup2\n        /* \"#utility.yul\":8192:8323   */\n      tag_207\n      jump\t// in\n    tag_302:\n        /* \"#utility.yul\":8184:8323   */\n      swap1\n      pop\n        /* \"#utility.yul\":7911:8330   */\n      swap2\n      swap1\n      pop\n      jump\t// out\n        /* \"#utility.yul\":8336:8746   */\n    tag_131:\n        /* \"#utility.yul\":8376:8383   */\n      0x00\n        /* \"#utility.yul\":8399:8419   */\n      tag_304\n        /* \"#utility.yul\":8417:8418   */\n      dup3\n        /* \"#utility.yul\":8399:8419   */\n      tag_182\n      jump\t// in\n    tag_304:\n        /* \"#utility.yul\":8394:8419   */\n      swap2\n      pop\n        /* \"#utility.yul\":8433:8453   */\n      tag_305\n        /* \"#utility.yul\":8451:8452   */\n      dup4\n        /* \"#utility.yul\":8433:8453   */\n      tag_182\n      jump\t// in\n    tag_305:\n        /* \"#utility.yul\":8428:8453   */\n      swap3\n      pop\n        /* \"#utility.yul\":8488:8489   */\n      dup3\n        /* \"#utility.yul\":8485:8486   */\n      dup3\n        /* \"#utility.yul\":8481:8490   */\n      mul\n        /* \"#utility.yul\":8510:8540   */\n      tag_306\n        /* \"#utility.yul\":8528:8539   */\n      dup2\n        /* \"#utility.yul\":8510:8540   */\n      tag_182\n      jump\t// in\n    tag_306:\n        /* \"#utility.yul\":8499:8540   */\n      swap2\n      pop\n        /* \"#utility.yul\":8689:8690   */\n      dup3\n        /* \"#utility.yul\":8680:8687   */\n      dup3\n        /* \"#utility.yul\":8676:8691   */\n      div\n        /* \"#utility.yul\":8673:8674   */\n      dup5\n        /* \"#utility.yul\":8670:8692   */\n      eq\n        /* \"#utility.yul\":8650:8651   */\n      dup4\n        /* \"#utility.yul\":8643:8652   */\n      iszero\n        /* \"#utility.yul\":8623:8706   */\n      or\n        /* \"#utility.yul\":8600:8739   */\n      tag_307\n      jumpi\n        /* \"#utility.yul\":8719:8737   */\n      tag_308\n      tag_203\n      jump\t// in\n    tag_308:\n        /* \"#utility.yul\":8600:8739   */\n    tag_307:\n        /* \"#utility.yul\":8384:8746   */\n      pop\n        /* \"#utility.yul\":8336:8746   */\n      swap3\n      swap2\n      pop\n      pop\n      jump\t// out\n        /* \"#utility.yul\":8752:8870   */\n    tag_208:\n        /* \"#utility.yul\":8839:8863   */\n      tag_310\n        /* \"#utility.yul\":8857:8862   */\n      dup2\n        /* \"#utility.yul\":8839:8863   */\n      tag_190\n      jump\t// in\n    tag_310:\n        /* \"#utility.yul\":8834:8837   */\n      dup3\n        /* \"#utility.yul\":8827:8864   */\n      mstore\n        /* \"#utility.yul\":8752:8870   */\n      pop\n      pop\n      jump\t// out\n        /* \"#utility.yul\":8876:9208   */\n    tag_138:\n        /* \"#utility.yul\":8997:9001   */\n      0x00\n        /* \"#utility.yul\":9035:9037   */\n      0x40\n        /* \"#utility.yul\":9024:9033   */\n      dup3\n        /* \"#utility.yul\":9020:9038   */\n      add\n        /* \"#utility.yul\":9012:9038   */\n      swap1\n      pop\n        /* \"#utility.yul\":9048:9119   */\n      tag_312\n        /* \"#utility.yul\":9116:9117   */\n      0x00\n        /* \"#utility.yul\":9105:9114   */\n      dup4\n        /* \"#utility.yul\":9101:9118   */\n      add\n        /* \"#utility.yul\":9092:9098   */\n      dup6\n        /* \"#utility.yul\":9048:9119   */\n      tag_208\n      jump\t// in\n    tag_312:\n        /* \"#utility.yul\":9129:9201   */\n      tag_313\n        /* \"#utility.yul\":9197:9199   */\n      0x20\n        /* \"#utility.yul\":9186:9195   */\n      dup4\n        /* \"#utility.yul\":9182:9200   */\n      add\n        /* \"#utility.yul\":9173:9179   */\n      dup5\n        /* \"#utility.yul\":9129:9201   */\n      tag_183\n      jump\t// in\n    tag_313:\n        /* \"#utility.yul\":8876:9208   */\n      swap4\n      swap3\n      pop\n      pop\n      pop\n      jump\t// out\n        /* \"#utility.yul\":9214:9330   */\n    tag_209:\n        /* \"#utility.yul\":9284:9305   */\n      tag_315\n        /* \"#utility.yul\":9299:9304   */\n      dup2\n        /* \"#utility.yul\":9284:9305   */\n      tag_180\n      jump\t// in\n    tag_315:\n        /* \"#utility.yul\":9277:9282   */\n      dup2\n        /* \"#utility.yul\":9274:9306   */\n      eq\n        /* \"#utility.yul\":9264:9324   */\n      tag_316\n      jumpi\n        /* \"#utility.yul\":9320:9321   */\n      0x00\n        /* \"#utility.yul\":9317:9318   */\n      dup1\n        /* \"#utility.yul\":9310:9322   */\n      revert\n        /* \"#utility.yul\":9264:9324   */\n    tag_316:\n        /* \"#utility.yul\":9214:9330   */\n      pop\n      jump\t// out\n        /* \"#utility.yul\":9336:9473   */\n    tag_210:\n        /* \"#utility.yul\":9390:9395   */\n      0x00\n        /* \"#utility.yul\":9421:9427   */\n      dup2\n        /* \"#utility.yul\":9415:9428   */\n      mload\n        /* \"#utility.yul\":9406:9428   */\n      swap1\n      pop\n        /* \"#utility.yul\":9437:9467   */\n      tag_318\n        /* \"#utility.yul\":9461:9466   */\n      dup2\n        /* \"#utility.yul\":9437:9467   */\n      tag_209\n      jump\t// in\n    tag_318:\n        /* \"#utility.yul\":9336:9473   */\n      swap3\n      swap2\n      pop\n      pop\n      jump\t// out\n        /* \"#utility.yul\":9479:9824   */\n    tag_145:\n        /* \"#utility.yul\":9546:9552   */\n      0x00\n        /* \"#utility.yul\":9595:9597   */\n      0x20\n        /* \"#utility.yul\":9583:9592   */\n      dup3\n        /* \"#utility.yul\":9574:9581   */\n      dup5\n        /* \"#utility.yul\":9570:9593   */\n      sub\n        /* \"#utility.yul\":9566:9598   */\n      slt\n        /* \"#utility.yul\":9563:9682   */\n      iszero\n      tag_320\n      jumpi\n        /* \"#utility.yul\":9601:9680   */\n      tag_321\n      tag_188\n      jump\t// in\n    tag_321:\n        /* \"#utility.yul\":9563:9682   */\n    tag_320:\n        /* \"#utility.yul\":9721:9722   */\n      0x00\n        /* \"#utility.yul\":9746:9807   */\n      tag_322\n        /* \"#utility.yul\":9799:9806   */\n      dup5\n        /* \"#utility.yul\":9790:9796   */\n      dup3\n        /* \"#utility.yul\":9779:9788   */\n      dup6\n        /* \"#utility.yul\":9775:9797   */\n      add\n        /* \"#utility.yul\":9746:9807   */\n      tag_210\n      jump\t// in\n    tag_322:\n        /* \"#utility.yul\":9736:9807   */\n      swap2\n      pop\n        /* \"#utility.yul\":9692:9817   */\n      pop\n        /* \"#utility.yul\":9479:9824   */\n      swap3\n      swap2\n      pop\n      pop\n      jump\t// out\n        /* \"#utility.yul\":9830:10059   */\n    tag_211:\n        /* \"#utility.yul\":9970:10004   */\n      0x5361666545524332303a204552433230206f7065726174696f6e20646964206e\n        /* \"#utility.yul\":9966:9967   */\n      0x00\n        /* \"#utility.yul\":9958:9964   */\n      dup3\n        /* \"#utility.yul\":9954:9968   */\n      add\n        /* \"#utility.yul\":9947:10005   */\n      mstore\n        /* \"#utility.yul\":10039:10051   */\n      0x6f74207375636365656400000000000000000000000000000000000000000000\n        /* \"#utility.yul\":10034:10036   */\n      0x20\n        /* \"#utility.yul\":10026:10032   */\n      dup3\n        /* \"#utility.yul\":10022:10037   */\n      add\n        /* \"#utility.yul\":10015:10052   */\n      mstore\n        /* \"#utility.yul\":9830:10059   */\n      pop\n      jump\t// out\n        /* \"#utility.yul\":10065:10431   */\n    tag_212:\n        /* \"#utility.yul\":10207:10210   */\n      0x00\n        /* \"#utility.yul\":10228:10295   */\n      tag_325\n        /* \"#utility.yul\":10292:10294   */\n      0x2a\n        /* \"#utility.yul\":10287:10290   */\n      dup4\n        /* \"#utility.yul\":10228:10295   */\n      tag_198\n      jump\t// in\n    tag_325:\n        /* \"#utility.yul\":10221:10295   */\n      swap2\n      pop\n        /* \"#utility.yul\":10304:10397   */\n      tag_326\n        /* \"#utility.yul\":10393:10396   */\n      dup3\n        /* \"#utility.yul\":10304:10397   */\n      tag_211\n      jump\t// in\n    tag_326:\n        /* \"#utility.yul\":10422:10424   */\n      0x40\n        /* \"#utility.yul\":10417:10420   */\n      dup3\n        /* \"#utility.yul\":10413:10425   */\n      add\n        /* \"#utility.yul\":10406:10425   */\n      swap1\n      pop\n        /* \"#utility.yul\":10065:10431   */\n      swap2\n      swap1\n      pop\n      jump\t// out\n        /* \"#utility.yul\":10437:10856   */\n    tag_148:\n        /* \"#utility.yul\":10603:10607   */\n      0x00\n        /* \"#utility.yul\":10641:10643   */\n      0x20\n        /* \"#utility.yul\":10630:10639   */\n      dup3\n        /* \"#utility.yul\":10626:10644   */\n      add\n        /* \"#utility.yul\":10618:10644   */\n      swap1\n      pop\n        /* \"#utility.yul\":10690:10699   */\n      dup2\n        /* \"#utility.yul\":10684:10688   */\n      dup2\n        /* \"#utility.yul\":10680:10700   */\n      sub\n        /* \"#utility.yul\":10676:10677   */\n      0x00\n        /* \"#utility.yul\":10665:10674   */\n      dup4\n        /* \"#utility.yul\":10661:10678   */\n      add\n        /* \"#utility.yul\":10654:10701   */\n      mstore\n        /* \"#utility.yul\":10718:10849   */\n      tag_328\n        /* \"#utility.yul\":10844:10848   */\n      dup2\n        /* \"#utility.yul\":10718:10849   */\n      tag_212\n      jump\t// in\n    tag_328:\n        /* \"#utility.yul\":10710:10849   */\n      swap1\n      pop\n        /* \"#utility.yul\":10437:10856   */\n      swap2\n      swap1\n      pop\n      jump\t// out\n        /* \"#utility.yul\":10862:11087   */\n    tag_213:\n        /* \"#utility.yul\":11002:11036   */\n      0x416464726573733a20696e73756666696369656e742062616c616e636520666f\n        /* \"#utility.yul\":10998:10999   */\n      0x00\n        /* \"#utility.yul\":10990:10996   */\n      dup3\n        /* \"#utility.yul\":10986:11000   */\n      add\n        /* \"#utility.yul\":10979:11037   */\n      mstore\n        /* \"#utility.yul\":11071:11079   */\n      0x722063616c6c0000000000000000000000000000000000000000000000000000\n        /* \"#utility.yul\":11066:11068   */\n      0x20\n        /* \"#utility.yul\":11058:11064   */\n      dup3\n        /* \"#utility.yul\":11054:11069   */\n      add\n        /* \"#utility.yul\":11047:11080   */\n      mstore\n        /* \"#utility.yul\":10862:11087   */\n      pop\n      jump\t// out\n        /* \"#utility.yul\":11093:11459   */\n    tag_214:\n        /* \"#utility.yul\":11235:11238   */\n      0x00\n        /* \"#utility.yul\":11256:11323   */\n      tag_331\n        /* \"#utility.yul\":11320:11322   */\n      0x26\n        /* \"#utility.yul\":11315:11318   */\n      dup4\n        /* \"#utility.yul\":11256:11323   */\n      tag_198\n      jump\t// in\n    tag_331:\n        /* \"#utility.yul\":11249:11323   */\n      swap2\n      pop\n        /* \"#utility.yul\":11332:11425   */\n      tag_332\n        /* \"#utility.yul\":11421:11424   */\n      dup3\n        /* \"#utility.yul\":11332:11425   */\n      tag_213\n      jump\t// in\n    tag_332:\n        /* \"#utility.yul\":11450:11452   */\n      0x40\n        /* \"#utility.yul\":11445:11448   */\n      dup3\n        /* \"#utility.yul\":11441:11453   */\n      add\n        /* \"#utility.yul\":11434:11453   */\n      swap1\n      pop\n        /* \"#utility.yul\":11093:11459   */\n      swap2\n      swap1\n      pop\n      jump\t// out\n        /* \"#utility.yul\":11465:11884   */\n    tag_155:\n        /* \"#utility.yul\":11631:11635   */\n      0x00\n        /* \"#utility.yul\":11669:11671   */\n      0x20\n        /* \"#utility.yul\":11658:11667   */\n      dup3\n        /* \"#utility.yul\":11654:11672   */\n      add\n        /* \"#utility.yul\":11646:11672   */\n      swap1\n      pop\n        /* \"#utility.yul\":11718:11727   */\n      dup2\n        /* \"#utility.yul\":11712:11716   */\n      dup2\n        /* \"#utility.yul\":11708:11728   */\n      sub\n        /* \"#utility.yul\":11704:11705   */\n      0x00\n        /* \"#utility.yul\":11693:11702   */\n      dup4\n        /* \"#utility.yul\":11689:11706   */\n      add\n        /* \"#utility.yul\":11682:11729   */\n      mstore\n        /* \"#utility.yul\":11746:11877   */\n      tag_334\n        /* \"#utility.yul\":11872:11876   */\n      dup2\n        /* \"#utility.yul\":11746:11877   */\n      tag_214\n      jump\t// in\n    tag_334:\n        /* \"#utility.yul\":11738:11877   */\n      swap1\n      pop\n        /* \"#utility.yul\":11465:11884   */\n      swap2\n      swap1\n      pop\n      jump\t// out\n        /* \"#utility.yul\":11890:11988   */\n    tag_215:\n        /* \"#utility.yul\":11941:11947   */\n      0x00\n        /* \"#utility.yul\":11975:11980   */\n      dup2\n        /* \"#utility.yul\":11969:11981   */\n      mload\n        /* \"#utility.yul\":11959:11981   */\n      swap1\n      pop\n        /* \"#utility.yul\":11890:11988   */\n      swap2\n      swap1\n      pop\n      jump\t// out\n        /* \"#utility.yul\":11994:12141   */\n    tag_216:\n        /* \"#utility.yul\":12095:12106   */\n      0x00\n        /* \"#utility.yul\":12132:12135   */\n      dup2\n        /* \"#utility.yul\":12117:12135   */\n      swap1\n      pop\n        /* \"#utility.yul\":11994:12141   */\n      swap3\n      swap2\n      pop\n      pop\n      jump\t// out\n        /* \"#utility.yul\":12147:12393   */\n    tag_217:\n        /* \"#utility.yul\":12228:12229   */\n      0x00\n        /* \"#utility.yul\":12238:12351   */\n    tag_338:\n        /* \"#utility.yul\":12252:12258   */\n      dup4\n        /* \"#utility.yul\":12249:12250   */\n      dup2\n        /* \"#utility.yul\":12246:12259   */\n      lt\n        /* \"#utility.yul\":12238:12351   */\n      iszero\n      tag_340\n      jumpi\n        /* \"#utility.yul\":12337:12338   */\n      dup1\n        /* \"#utility.yul\":12332:12335   */\n      dup3\n        /* \"#utility.yul\":12328:12339   */\n      add\n        /* \"#utility.yul\":12322:12340   */\n      mload\n        /* \"#utility.yul\":12318:12319   */\n      dup2\n        /* \"#utility.yul\":12313:12316   */\n      dup5\n        /* \"#utility.yul\":12309:12320   */\n      add\n        /* \"#utility.yul\":12302:12341   */\n      mstore\n        /* \"#utility.yul\":12274:12276   */\n      0x20\n        /* \"#utility.yul\":12271:12272   */\n      dup2\n        /* \"#utility.yul\":12267:12277   */\n      add\n        /* \"#utility.yul\":12262:12277   */\n      swap1\n      pop\n        /* \"#utility.yul\":12238:12351   */\n      jump(tag_338)\n    tag_340:\n        /* \"#utility.yul\":12385:12386   */\n      0x00\n        /* \"#utility.yul\":12376:12382   */\n      dup5\n        /* \"#utility.yul\":12371:12374   */\n      dup5\n        /* \"#utility.yul\":12367:12383   */\n      add\n        /* \"#utility.yul\":12360:12387   */\n      mstore\n        /* \"#utility.yul\":12209:12393   */\n      pop\n        /* \"#utility.yul\":12147:12393   */\n      pop\n      pop\n      pop\n      jump\t// out\n        /* \"#utility.yul\":12399:12785   */\n    tag_218:\n        /* \"#utility.yul\":12503:12506   */\n      0x00\n        /* \"#utility.yul\":12531:12569   */\n      tag_342\n        /* \"#utility.yul\":12563:12568   */\n      dup3\n        /* \"#utility.yul\":12531:12569   */\n      tag_215\n      jump\t// in\n    tag_342:\n        /* \"#utility.yul\":12585:12673   */\n      tag_343\n        /* \"#utility.yul\":12666:12672   */\n      dup2\n        /* \"#utility.yul\":12661:12664   */\n      dup6\n        /* \"#utility.yul\":12585:12673   */\n      tag_216\n      jump\t// in\n    tag_343:\n        /* \"#utility.yul\":12578:12673   */\n      swap4\n      pop\n        /* \"#utility.yul\":12682:12747   */\n      tag_344\n        /* \"#utility.yul\":12740:12746   */\n      dup2\n        /* \"#utility.yul\":12735:12738   */\n      dup6\n        /* \"#utility.yul\":12728:12732   */\n      0x20\n        /* \"#utility.yul\":12721:12726   */\n      dup7\n        /* \"#utility.yul\":12717:12733   */\n      add\n        /* \"#utility.yul\":12682:12747   */\n      tag_217\n      jump\t// in\n    tag_344:\n        /* \"#utility.yul\":12772:12778   */\n      dup1\n        /* \"#utility.yul\":12767:12770   */\n      dup5\n        /* \"#utility.yul\":12763:12779   */\n      add\n        /* \"#utility.yul\":12756:12779   */\n      swap2\n      pop\n        /* \"#utility.yul\":12507:12785   */\n      pop\n        /* \"#utility.yul\":12399:12785   */\n      swap3\n      swap2\n      pop\n      pop\n      jump\t// out\n        /* \"#utility.yul\":12791:13062   */\n    tag_157:\n        /* \"#utility.yul\":12921:12924   */\n      0x00\n        /* \"#utility.yul\":12943:13036   */\n      tag_346\n        /* \"#utility.yul\":13032:13035   */\n      dup3\n        /* \"#utility.yul\":13023:13029   */\n      dup5\n        /* \"#utility.yul\":12943:13036   */\n      tag_218\n      jump\t// in\n    tag_346:\n        /* \"#utility.yul\":12936:13036   */\n      swap2\n      pop\n        /* \"#utility.yul\":13053:13056   */\n      dup2\n        /* \"#utility.yul\":13046:13056   */\n      swap1\n      pop\n        /* \"#utility.yul\":12791:13062   */\n      swap3\n      swap2\n      pop\n      pop\n      jump\t// out\n        /* \"#utility.yul\":13068:13247   */\n    tag_219:\n        /* \"#utility.yul\":13208:13239   */\n      0x416464726573733a2063616c6c20746f206e6f6e2d636f6e7472616374000000\n        /* \"#utility.yul\":13204:13205   */\n      0x00\n        /* \"#utility.yul\":13196:13202   */\n      dup3\n        /* \"#utility.yul\":13192:13206   */\n      add\n        /* \"#utility.yul\":13185:13240   */\n      mstore\n        /* \"#utility.yul\":13068:13247   */\n      pop\n      jump\t// out\n        /* \"#utility.yul\":13253:13619   */\n    tag_220:\n        /* \"#utility.yul\":13395:13398   */\n      0x00\n        /* \"#utility.yul\":13416:13483   */\n      tag_349\n        /* \"#utility.yul\":13480:13482   */\n      0x1d\n        /* \"#utility.yul\":13475:13478   */\n      dup4\n        /* \"#utility.yul\":13416:13483   */\n      tag_198\n      jump\t// in\n    tag_349:\n        /* \"#utility.yul\":13409:13483   */\n      swap2\n      pop\n        /* \"#utility.yul\":13492:13585   */\n      tag_350\n        /* \"#utility.yul\":13581:13584   */\n      dup3\n        /* \"#utility.yul\":13492:13585   */\n      tag_219\n      jump\t// in\n    tag_350:\n        /* \"#utility.yul\":13610:13612   */\n      0x20\n        /* \"#utility.yul\":13605:13608   */\n      dup3\n        /* \"#utility.yul\":13601:13613   */\n      add\n        /* \"#utility.yul\":13594:13613   */\n      swap1\n      pop\n        /* \"#utility.yul\":13253:13619   */\n      swap2\n      swap1\n      pop\n      jump\t// out\n        /* \"#utility.yul\":13625:14044   */\n    tag_170:\n        /* \"#utility.yul\":13791:13795   */\n      0x00\n        /* \"#utility.yul\":13829:13831   */\n      0x20\n        /* \"#utility.yul\":13818:13827   */\n      dup3\n        /* \"#utility.yul\":13814:13832   */\n      add\n        /* \"#utility.yul\":13806:13832   */\n      swap1\n      pop\n        /* \"#utility.yul\":13878:13887   */\n      dup2\n        /* \"#utility.yul\":13872:13876   */\n      dup2\n        /* \"#utility.yul\":13868:13888   */\n      sub\n        /* \"#utility.yul\":13864:13865   */\n      0x00\n        /* \"#utility.yul\":13853:13862   */\n      dup4\n        /* \"#utility.yul\":13849:13866   */\n      add\n        /* \"#utility.yul\":13842:13889   */\n      mstore\n        /* \"#utility.yul\":13906:14037   */\n      tag_352\n        /* \"#utility.yul\":14032:14036   */\n      dup2\n        /* \"#utility.yul\":13906:14037   */\n      tag_220\n      jump\t// in\n    tag_352:\n        /* \"#utility.yul\":13898:14037   */\n      swap1\n      pop\n        /* \"#utility.yul\":13625:14044   */\n      swap2\n      swap1\n      pop\n      jump\t// out\n        /* \"#utility.yul\":14050:14149   */\n    tag_221:\n        /* \"#utility.yul\":14102:14108   */\n      0x00\n        /* \"#utility.yul\":14136:14141   */\n      dup2\n        /* \"#utility.yul\":14130:14142   */\n      mload\n        /* \"#utility.yul\":14120:14142   */\n      swap1\n      pop\n        /* \"#utility.yul\":14050:14149   */\n      swap2\n      swap1\n      pop\n      jump\t// out\n        /* \"#utility.yul\":14155:14257   */\n    tag_222:\n        /* \"#utility.yul\":14196:14202   */\n      0x00\n        /* \"#utility.yul\":14247:14249   */\n      0x1f\n        /* \"#utility.yul\":14243:14250   */\n      not\n        /* \"#utility.yul\":14238:14240   */\n      0x1f\n        /* \"#utility.yul\":14231:14236   */\n      dup4\n        /* \"#utility.yul\":14227:14241   */\n      add\n        /* \"#utility.yul\":14223:14251   */\n      and\n        /* \"#utility.yul\":14213:14251   */\n      swap1\n      pop\n        /* \"#utility.yul\":14155:14257   */\n      swap2\n      swap1\n      pop\n      jump\t// out\n        /* \"#utility.yul\":14263:14640   */\n    tag_223:\n        /* \"#utility.yul\":14351:14354   */\n      0x00\n        /* \"#utility.yul\":14379:14418   */\n      tag_356\n        /* \"#utility.yul\":14412:14417   */\n      dup3\n        /* \"#utility.yul\":14379:14418   */\n      tag_221\n      jump\t// in\n    tag_356:\n        /* \"#utility.yul\":14434:14505   */\n      tag_357\n        /* \"#utility.yul\":14498:14504   */\n      dup2\n        /* \"#utility.yul\":14493:14496   */\n      dup6\n        /* \"#utility.yul\":14434:14505   */\n      tag_198\n      jump\t// in\n    tag_357:\n        /* \"#utility.yul\":14427:14505   */\n      swap4\n      pop\n        /* \"#utility.yul\":14514:14579   */\n      tag_358\n        /* \"#utility.yul\":14572:14578   */\n      dup2\n        /* \"#utility.yul\":14567:14570   */\n      dup6\n        /* \"#utility.yul\":14560:14564   */\n      0x20\n        /* \"#utility.yul\":14553:14558   */\n      dup7\n        /* \"#utility.yul\":14549:14565   */\n      add\n        /* \"#utility.yul\":14514:14579   */\n      tag_217\n      jump\t// in\n    tag_358:\n        /* \"#utility.yul\":14604:14633   */\n      tag_359\n        /* \"#utility.yul\":14626:14632   */\n      dup2\n        /* \"#utility.yul\":14604:14633   */\n      tag_222\n      jump\t// in\n    tag_359:\n        /* \"#utility.yul\":14599:14602   */\n      dup5\n        /* \"#utility.yul\":14595:14634   */\n      add\n        /* \"#utility.yul\":14588:14634   */\n      swap2\n      pop\n        /* \"#utility.yul\":14355:14640   */\n      pop\n        /* \"#utility.yul\":14263:14640   */\n      swap3\n      swap2\n      pop\n      pop\n      jump\t// out\n        /* \"#utility.yul\":14646:14959   */\n    tag_179:\n        /* \"#utility.yul\":14759:14763   */\n      0x00\n        /* \"#utility.yul\":14797:14799   */\n      0x20\n        /* \"#utility.yul\":14786:14795   */\n      dup3\n        /* \"#utility.yul\":14782:14800   */\n      add\n        /* \"#utility.yul\":14774:14800   */\n      swap1\n      pop\n        /* \"#utility.yul\":14846:14855   */\n      dup2\n        /* \"#utility.yul\":14840:14844   */\n      dup2\n        /* \"#utility.yul\":14836:14856   */\n      sub\n        /* \"#utility.yul\":14832:14833   */\n      0x00\n        /* \"#utility.yul\":14821:14830   */\n      dup4\n        /* \"#utility.yul\":14817:14834   */\n      add\n        /* \"#utility.yul\":14810:14857   */\n      mstore\n        /* \"#utility.yul\":14874:14952   */\n      tag_361\n        /* \"#utility.yul\":14947:14951   */\n      dup2\n        /* \"#utility.yul\":14938:14944   */\n      dup5\n        /* \"#utility.yul\":14874:14952   */\n      tag_223\n      jump\t// in\n    tag_361:\n        /* \"#utility.yul\":14866:14952   */\n      swap1\n      pop\n        /* \"#utility.yul\":14646:14959   */\n      swap3\n      swap2\n      pop\n      pop\n      jump\t// out\n\n    auxdata: 0xa264697066735822122040d24c468bd4cd432052781ecc08630dedb5beb320c8eb657eed8ab2ccaa5c2464736f6c63430008150033\n}\n",
				"bytecode": {
					"linkReferences": {},
					"object": "608060405234801562000010575f80fd5b506040516200177838038062001778833981810160405281019062000036919062000387565b82828260015f819055505f831162000085576040517f08c379a00000000000000000000000000000000000000000000000000000000081526004016200007c9062000469565b60405180910390fd5b5f73ffffffffffffffffffffffffffffffffffffffff168273ffffffffffffffffffffffffffffffffffffffff1603620000f6576040517f08c379a0000000000000000000000000000000000000000000000000000000008152600401620000ed90620004fd565b60405180910390fd5b5f73ffffffffffffffffffffffffffffffffffffffff168173ffffffffffffffffffffffffffffffffffffffff160362000167576040517f08c379a00000000000000000000000000000000000000000000000000000000081526004016200015e9062000591565b60405180910390fd5b826003819055508160025f6101000a81548173ffffffffffffffffffffffffffffffffffffffff021916908373ffffffffffffffffffffffffffffffffffffffff1602179055508060015f6101000a81548173ffffffffffffffffffffffffffffffffffffffff021916908373ffffffffffffffffffffffffffffffffffffffff1602179055505050504285101562000237576040517f08c379a00000000000000000000000000000000000000000000000000000000081526004016200022e9062000625565b60405180910390fd5b8484116200027c576040517f08c379a00000000000000000000000000000000000000000000000000000000081526004016200027390620006b9565b60405180910390fd5b84600581905550836006819055505050505050620006d9565b5f80fd5b5f819050919050565b620002ad8162000299565b8114620002b8575f80fd5b50565b5f81519050620002cb81620002a2565b92915050565b5f73ffffffffffffffffffffffffffffffffffffffff82169050919050565b5f620002fc82620002d1565b9050919050565b6200030e81620002f0565b811462000319575f80fd5b50565b5f815190506200032c8162000303565b92915050565b5f6200033e82620002d1565b9050919050565b5f620003518262000332565b9050919050565b620003638162000345565b81146200036e575f80fd5b50565b5f81519050620003818162000358565b92915050565b5f805f805f60a08688031215620003a357620003a262000295565b5b5f620003b288828901620002bb565b9550506020620003c588828901620002bb565b9450506040620003d888828901620002bb565b9350506060620003eb888289016200031c565b9250506080620003fe8882890162000371565b9150509295509295909350565b5f82825260208201905092915050565b7f43726f776473616c653a207261746520697320300000000000000000000000005f82015250565b5f620004516014836200040b565b91506200045e826200041b565b602082019050919050565b5f6020820190508181035f830152620004828162000443565b9050919050565b7f43726f776473616c653a2077616c6c657420697320746865207a65726f2061645f8201527f6472657373000000000000000000000000000000000000000000000000000000602082015250565b5f620004e56025836200040b565b9150620004f28262000489565b604082019050919050565b5f6020820190508181035f8301526200051681620004d7565b9050919050565b7f43726f776473616c653a20746f6b656e20697320746865207a65726f206164645f8201527f7265737300000000000000000000000000000000000000000000000000000000602082015250565b5f620005796024836200040b565b915062000586826200051d565b604082019050919050565b5f6020820190508181035f830152620005aa816200056b565b9050919050565b7f54696d656443726f776473616c653a206f70656e696e672074696d65206973205f8201527f6265666f72652063757272656e742074696d6500000000000000000000000000602082015250565b5f6200060d6033836200040b565b91506200061a82620005b1565b604082019050919050565b5f6020820190508181035f8301526200063e81620005ff565b9050919050565b7f54696d656443726f776473616c653a206f70656e696e672074696d65206973205f8201527f6e6f74206265666f726520636c6f73696e672074696d65000000000000000000602082015250565b5f620006a16037836200040b565b9150620006ae8262000645565b604082019050919050565b5f6020820190508181035f830152620006d28162000693565b9050919050565b61109180620006e75f395ff3fe608060405260043610610089575f3560e01c80634b6753bc116100585780634b6753bc1461015a578063521eb27314610184578063b7a8807c146101ae578063ec8ac4d8146101d8578063fc0c546a146101f4576100a0565b80631515bc2b146100b25780632c4e722e146100dc5780634042b66f1461010657806347535d7b14610130576100a0565b366100a05761009e61009961021e565b610225565b005b6100b06100ab61021e565b610225565b005b3480156100bd575f80fd5b506100c6610303565b6040516100d3919061093a565b60405180910390f35b3480156100e7575f80fd5b506100f061030e565b6040516100fd919061096b565b60405180910390f35b348015610111575f80fd5b5061011a610317565b604051610127919061096b565b60405180910390f35b34801561013b575f80fd5b50610144610320565b604051610151919061093a565b60405180910390f35b348015610165575f80fd5b5061016e61033a565b60405161017b919061096b565b60405180910390f35b34801561018f575f80fd5b50610198610343565b6040516101a591906109c3565b60405180910390f35b3480156101b9575f80fd5b506101c261036b565b6040516101cf919061096b565b60405180910390f35b6101f260048036038101906101ed9190610a1b565b610225565b005b3480156101ff575f80fd5b50610208610374565b6040516102159190610aa1565b60405180910390f35b5f33905090565b61022d61039c565b5f34905061023b82826103e9565b5f6102458261043e565b905061025c8260045461045b90919063ffffffff16565b60048190555061026c8382610470565b8273ffffffffffffffffffffffffffffffffffffffff1661028b61021e565b73ffffffffffffffffffffffffffffffffffffffff167f6faf93231a456e552dbc9961f58d9713ee4f2e69d15f1975b050ef0911053a7b84846040516102d2929190610aba565b60405180910390a36102e4838361047e565b6102ec610482565b6102f683836104e9565b50506103006104ed565b50565b5f6006544211905090565b5f600354905090565b5f600454905090565b5f600554421015801561033557506006544211155b905090565b5f600654905090565b5f60025f9054906101000a900473ffffffffffffffffffffffffffffffffffffffff16905090565b5f600554905090565b5f60015f9054906101000a900473ffffffffffffffffffffffffffffffffffffffff16905090565b60025f54036103e0576040517f08c379a00000000000000000000000000000000000000000000000000000000081526004016103d790610b3b565b60405180910390fd5b60025f81905550565b6103f1610320565b610430576040517f08c379a000000000000000000000000000000000000000000000000000000000815260040161042790610ba3565b60405180910390fd5b61043a82826104f6565b5050565b5f610454600354836105aa90919063ffffffff16565b9050919050565b5f81836104689190610bee565b905092915050565b61047a82826105bf565b5050565b5050565b60025f9054906101000a900473ffffffffffffffffffffffffffffffffffffffff1673ffffffffffffffffffffffffffffffffffffffff166108fc3490811502906040515f60405180830381858888f193505050501580156104e6573d5f803e3d5ffd5b50565b5050565b60015f81905550565b5f73ffffffffffffffffffffffffffffffffffffffff168273ffffffffffffffffffffffffffffffffffffffff1603610564576040517f08c379a000000000000000000000000000000000000000000000000000000000815260040161055b90610c91565b60405180910390fd5b5f81036105a6576040517f08c379a000000000000000000000000000000000000000000000000000000000815260040161059d90610cf9565b60405180910390fd5b5050565b5f81836105b79190610d17565b905092915050565b61060b828260015f9054906101000a900473ffffffffffffffffffffffffffffffffffffffff1673ffffffffffffffffffffffffffffffffffffffff1661060f9092919063ffffffff16565b5050565b6106908363a9059cbb60e01b848460405160240161062e929190610d67565b604051602081830303815290604052907bffffffffffffffffffffffffffffffffffffffffffffffffffffffff19166020820180517bffffffffffffffffffffffffffffffffffffffffffffffffffffffff8381831617835250505050610695565b505050565b5f6106f6826040518060400160405280602081526020017f5361666545524332303a206c6f772d6c6576656c2063616c6c206661696c65648152508573ffffffffffffffffffffffffffffffffffffffff1661075b9092919063ffffffff16565b90505f815114806107175750808060200190518101906107169190610db8565b5b610756576040517f08c379a000000000000000000000000000000000000000000000000000000000815260040161074d90610e53565b60405180910390fd5b505050565b606061076984845f85610772565b90509392505050565b6060824710156107b7576040517f08c379a00000000000000000000000000000000000000000000000000000000081526004016107ae90610ee1565b60405180910390fd5b5f808673ffffffffffffffffffffffffffffffffffffffff1685876040516107df9190610f6b565b5f6040518083038185875af1925050503d805f8114610819576040519150601f19603f3d011682016040523d82523d5f602084013e61081e565b606091505b509150915061082f8783838761083b565b92505050949350505050565b6060831561089c575f83510361089457610854856108af565b610893576040517f08c379a000000000000000000000000000000000000000000000000000000000815260040161088a90610fcb565b60405180910390fd5b5b8290506108a7565b6108a683836108d1565b5b949350505050565b5f808273ffffffffffffffffffffffffffffffffffffffff163b119050919050565b5f825111156108e35781518083602001fd5b806040517f08c379a0000000000000000000000000000000000000000000000000000000008152600401610917919061103b565b60405180910390fd5b5f8115159050919050565b61093481610920565b82525050565b5f60208201905061094d5f83018461092b565b92915050565b5f819050919050565b61096581610953565b82525050565b5f60208201905061097e5f83018461095c565b92915050565b5f73ffffffffffffffffffffffffffffffffffffffff82169050919050565b5f6109ad82610984565b9050919050565b6109bd816109a3565b82525050565b5f6020820190506109d65f8301846109b4565b92915050565b5f80fd5b5f6109ea82610984565b9050919050565b6109fa816109e0565b8114610a04575f80fd5b50565b5f81359050610a15816109f1565b92915050565b5f60208284031215610a3057610a2f6109dc565b5b5f610a3d84828501610a07565b91505092915050565b5f819050919050565b5f610a69610a64610a5f84610984565b610a46565b610984565b9050919050565b5f610a7a82610a4f565b9050919050565b5f610a8b82610a70565b9050919050565b610a9b81610a81565b82525050565b5f602082019050610ab45f830184610a92565b92915050565b5f604082019050610acd5f83018561095c565b610ada602083018461095c565b9392505050565b5f82825260208201905092915050565b7f5265656e7472616e637947756172643a207265656e7472616e742063616c6c005f82015250565b5f610b25601f83610ae1565b9150610b3082610af1565b602082019050919050565b5f6020820190508181035f830152610b5281610b19565b9050919050565b7f54696d656443726f776473616c653a206e6f74206f70656e00000000000000005f82015250565b5f610b8d601883610ae1565b9150610b9882610b59565b602082019050919050565b5f6020820190508181035f830152610bba81610b81565b9050919050565b7f4e487b71000000000000000000000000000000000000000000000000000000005f52601160045260245ffd5b5f610bf882610953565b9150610c0383610953565b9250828201905080821115610c1b57610c1a610bc1565b5b92915050565b7f43726f776473616c653a2062656e656669636961727920697320746865207a655f8201527f726f206164647265737300000000000000000000000000000000000000000000602082015250565b5f610c7b602a83610ae1565b9150610c8682610c21565b604082019050919050565b5f6020820190508181035f830152610ca881610c6f565b9050919050565b7f43726f776473616c653a20776569416d6f756e742069732030000000000000005f82015250565b5f610ce3601983610ae1565b9150610cee82610caf565b602082019050919050565b5f6020820190508181035f830152610d1081610cd7565b9050919050565b5f610d2182610953565b9150610d2c83610953565b9250828202610d3a81610953565b91508282048414831517610d5157610d50610bc1565b5b5092915050565b610d61816109e0565b82525050565b5f604082019050610d7a5f830185610d58565b610d87602083018461095c565b9392505050565b610d9781610920565b8114610da1575f80fd5b50565b5f81519050610db281610d8e565b92915050565b5f60208284031215610dcd57610dcc6109dc565b5b5f610dda84828501610da4565b91505092915050565b7f5361666545524332303a204552433230206f7065726174696f6e20646964206e5f8201527f6f74207375636365656400000000000000000000000000000000000000000000602082015250565b5f610e3d602a83610ae1565b9150610e4882610de3565b604082019050919050565b5f6020820190508181035f830152610e6a81610e31565b9050919050565b7f416464726573733a20696e73756666696369656e742062616c616e636520666f5f8201527f722063616c6c0000000000000000000000000000000000000000000000000000602082015250565b5f610ecb602683610ae1565b9150610ed682610e71565b604082019050919050565b5f6020820190508181035f830152610ef881610ebf565b9050919050565b5f81519050919050565b5f81905092915050565b5f5b83811015610f30578082015181840152602081019050610f15565b5f8484015250505050565b5f610f4582610eff565b610f4f8185610f09565b9350610f5f818560208601610f13565b80840191505092915050565b5f610f768284610f3b565b915081905092915050565b7f416464726573733a2063616c6c20746f206e6f6e2d636f6e74726163740000005f82015250565b5f610fb5601d83610ae1565b9150610fc082610f81565b602082019050919050565b5f6020820190508181035f830152610fe281610fa9565b9050919050565b5f81519050919050565b5f601f19601f8301169050919050565b5f61100d82610fe9565b6110178185610ae1565b9350611027818560208601610f13565b61103081610ff3565b840191505092915050565b5f6020820190508181035f8301526110538184611003565b90509291505056fea264697066735822122040d24c468bd4cd432052781ecc08630dedb5beb320c8eb657eed8ab2ccaa5c2464736f6c63430008150033",
					"opcodes": "PUSH1 0x80 PUSH1 0x40 MSTORE CALLVALUE DUP1 ISZERO PUSH3 0x10 JUMPI PUSH0 DUP1 REVERT JUMPDEST POP PUSH1 0x40 MLOAD PUSH3 0x1778 CODESIZE SUB DUP1 PUSH3 0x1778 DUP4 CODECOPY DUP2 DUP2 ADD PUSH1 0x40 MSTORE DUP2 ADD SWAP1 PUSH3 0x36 SWAP2 SWAP1 PUSH3 0x387 JUMP JUMPDEST DUP3 DUP3 DUP3 PUSH1 0x1 PUSH0 DUP2 SWAP1 SSTORE POP PUSH0 DUP4 GT PUSH3 0x85 JUMPI PUSH1 0x40 MLOAD PUSH32 0x8C379A000000000000000000000000000000000000000000000000000000000 DUP2 MSTORE PUSH1 0x4 ADD PUSH3 0x7C SWAP1 PUSH3 0x469 JUMP JUMPDEST PUSH1 0x40 MLOAD DUP1 SWAP2 SUB SWAP1 REVERT JUMPDEST PUSH0 PUSH20 0xFFFFFFFFFFFFFFFFFFFFFFFFFFFFFFFFFFFFFFFF AND DUP3 PUSH20 0xFFFFFFFFFFFFFFFFFFFFFFFFFFFFFFFFFFFFFFFF AND SUB PUSH3 0xF6 JUMPI PUSH1 0x40 MLOAD PUSH32 0x8C379A000000000000000000000000000000000000000000000000000000000 DUP2 MSTORE PUSH1 0x4 ADD PUSH3 0xED SWAP1 PUSH3 0x4FD JUMP JUMPDEST PUSH1 0x40 MLOAD DUP1 SWAP2 SUB SWAP1 REVERT JUMPDEST PUSH0 PUSH20 0xFFFFFFFFFFFFFFFFFFFFFFFFFFFFFFFFFFFFFFFF AND DUP2 PUSH20 0xFFFFFFFFFFFFFFFFFFFFFFFFFFFFFFFFFFFFFFFF AND SUB PUSH3 0x167 JUMPI PUSH1 0x40 MLOAD PUSH32 0x8C379A000000000000000000000000000000000000000000000000000000000 DUP2 MSTORE PUSH1 0x4 ADD PUSH3 0x15E SWAP1 PUSH3 0x591 JUMP JUMPDEST PUSH1 0x40 MLOAD DUP1 SWAP2 SUB SWAP1 REVERT JUMPDEST DUP3 PUSH1 0x3 DUP2 SWAP1 SSTORE POP DUP2 PUSH1 0x2 PUSH0 PUSH2 0x100 EXP DUP2 SLOAD DUP2 PUSH20 0xFFFFFFFFFFFFFFFFFFFFFFFFFFFFFFFFFFFFFFFF MUL NOT AND SWAP1 DUP4 PUSH20 0xFFFFFFFFFFFFFFFFFFFFFFFFFFFFFFFFFFFFFFFF AND MUL OR SWAP1 SSTORE POP DUP1 PUSH1 0x1 PUSH0 PUSH2 0x100 EXP DUP2 SLOAD DUP2 PUSH20 0xFFFFFFFFFFFFFFFFFFFFFFFFFFFFFFFFFFFFFFFF MUL NOT AND SWAP1 DUP4 PUSH20 0xFFFFFFFFFFFFFFFFFFFFFFFFFFFFFFFFFFFFFFFF AND MUL OR SWAP1 SSTORE POP POP POP POP TIMESTAMP DUP6 LT ISZERO PUSH3 0x237 JUMPI PUSH1 0x40 MLOAD PUSH32 0x8C379A000000000000000000000000000000000000000000000000000000000 DUP2 MSTORE PUSH1 0x4 ADD PUSH3 0x22E SWAP1 PUSH3 0x625 JUMP JUMPDEST PUSH1 0x40 MLOAD DUP1 SWAP2 SUB SWAP1 REVERT JUMPDEST DUP5 DUP5 GT PUSH3 0x27C JUMPI PUSH1 0x40 MLOAD PUSH32 0x8C379A000000000000000000000000000000000000000000000000000000000 DUP2 MSTORE PUSH1 0x4 ADD PUSH3 0x273 SWAP1 PUSH3 0x6B9 JUMP JUMPDEST PUSH1 0x40 MLOAD DUP1 SWAP2 SUB SWAP1 REVERT JUMPDEST DUP5 PUSH1 0x5 DUP2 SWAP1 SSTORE POP DUP4 PUSH1 0x6 DUP2 SWAP1 SSTORE POP POP POP POP POP POP PUSH3 0x6D9 JUMP JUMPDEST PUSH0 DUP1 REVERT JUMPDEST PUSH0 DUP2 SWAP1 POP SWAP2 SWAP1 POP JUMP JUMPDEST PUSH3 0x2AD DUP2 PUSH3 0x299 JUMP JUMPDEST DUP2 EQ PUSH3 0x2B8 JUMPI PUSH0 DUP1 REVERT JUMPDEST POP JUMP JUMPDEST PUSH0 DUP2 MLOAD SWAP1 POP PUSH3 0x2CB DUP2 PUSH3 0x2A2 JUMP JUMPDEST SWAP3 SWAP2 POP POP JUMP JUMPDEST PUSH0 PUSH20 0xFFFFFFFFFFFFFFFFFFFFFFFFFFFFFFFFFFFFFFFF DUP3 AND SWAP1 POP SWAP2 SWAP1 POP JUMP JUMPDEST PUSH0 PUSH3 0x2FC DUP3 PUSH3 0x2D1 JUMP JUMPDEST SWAP1 POP SWAP2 SWAP1 POP JUMP JUMPDEST PUSH3 0x30E DUP2 PUSH3 0x2F0 JUMP JUMPDEST DUP2 EQ PUSH3 0x319 JUMPI PUSH0 DUP1 REVERT JUMPDEST POP JUMP JUMPDEST PUSH0 DUP2 MLOAD SWAP1 POP PUSH3 0x32C DUP2 PUSH3 0x303 JUMP JUMPDEST SWAP3 SWAP2 POP POP JUMP JUMPDEST PUSH0 PUSH3 0x33E DUP3 PUSH3 0x2D1 JUMP JUMPDEST SWAP1 POP SWAP2 SWAP1 POP JUMP JUMPDEST PUSH0 PUSH3 0x351 DUP3 PUSH3 0x332 JUMP JUMPDEST SWAP1 POP SWAP2 SWAP1 POP JUMP JUMPDEST PUSH3 0x363 DUP2 PUSH3 0x345 JUMP JUMPDEST DUP2 EQ PUSH3 0x36E JUMPI PUSH0 DUP1 REVERT JUMPDEST POP JUMP JUMPDEST PUSH0 DUP2 MLOAD SWAP1 POP PUSH3 0x381 DUP2 PUSH3 0x358 JUMP JUMPDEST SWAP3 SWAP2 POP POP JUMP JUMPDEST PUSH0 DUP1 PUSH0 DUP1 PUSH0 PUSH1 0xA0 DUP7 DUP9 SUB SLT ISZERO PUSH3 0x3A3 JUMPI PUSH3 0x3A2 PUSH3 0x295 JUMP JUMPDEST JUMPDEST PUSH0 PUSH3 0x3B2 DUP9 DUP3 DUP10 ADD PUSH3 0x2BB JUMP JUMPDEST SWAP6 POP POP PUSH1 0x20 PUSH3 0x3C5 DUP9 DUP3 DUP10 ADD PUSH3 0x2BB JUMP JUMPDEST SWAP5 POP POP PUSH1 0x40 PUSH3 0x3D8 DUP9 DUP3 DUP10 ADD PUSH3 0x2BB JUMP JUMPDEST SWAP4 POP POP PUSH1 0x60 PUSH3 0x3EB DUP9 DUP3 DUP10 ADD PUSH3 0x31C JUMP JUMPDEST SWAP3 POP POP PUSH1 0x80 PUSH3 0x3FE DUP9 DUP3 DUP10 ADD PUSH3 0x371 JUMP JUMPDEST SWAP2 POP POP SWAP3 SWAP6 POP SWAP3 SWAP6 SWAP1 SWAP4 POP JUMP JUMPDEST PUSH0 DUP3 DUP3 MSTORE PUSH1 0x20 DUP3 ADD SWAP1 POP SWAP3 SWAP2 POP POP JUMP JUMPDEST PUSH32 0x43726F776473616C653A20726174652069732030000000000000000000000000 PUSH0 DUP3 ADD MSTORE POP JUMP JUMPDEST PUSH0 PUSH3 0x451 PUSH1 0x14 DUP4 PUSH3 0x40B JUMP JUMPDEST SWAP2 POP PUSH3 0x45E DUP3 PUSH3 0x41B JUMP JUMPDEST PUSH1 0x20 DUP3 ADD SWAP1 POP SWAP2 SWAP1 POP JUMP JUMPDEST PUSH0 PUSH1 0x20 DUP3 ADD SWAP1 POP DUP2 DUP2 SUB PUSH0 DUP4 ADD MSTORE PUSH3 0x482 DUP2 PUSH3 0x443 JUMP JUMPDEST SWAP1 POP SWAP2 SWAP1 POP JUMP JUMPDEST PUSH32 0x43726F776473616C653A2077616C6C657420697320746865207A65726F206164 PUSH0 DUP3 ADD MSTORE PUSH32 0x6472657373000000000000000000000000000000000000000000000000000000 PUSH1 0x20 DUP3 ADD MSTORE POP JUMP JUMPDEST PUSH0 PUSH3 0x4E5 PUSH1 0x25 DUP4 PUSH3 0x40B JUMP JUMPDEST SWAP2 POP PUSH3 0x4F2 DUP3 PUSH3 0x489 JUMP JUMPDEST PUSH1 0x40 DUP3 ADD SWAP1 POP SWAP2 SWAP1 POP JUMP JUMPDEST PUSH0 PUSH1 0x20 DUP3 ADD SWAP1 POP DUP2 DUP2 SUB PUSH0 DUP4 ADD MSTORE PUSH3 0x516 DUP2 PUSH3 0x4D7 JUMP JUMPDEST SWAP1 POP SWAP2 SWAP1 POP JUMP JUMPDEST PUSH32 0x43726F776473616C653A20746F6B656E20697320746865207A65726F20616464 PUSH0 DUP3 ADD MSTORE PUSH32 0x7265737300000000000000000000000000000000000000000000000000000000 PUSH1 0x20 DUP3 ADD MSTORE POP JUMP JUMPDEST PUSH0 PUSH3 0x579 PUSH1 0x24 DUP4 PUSH3 0x40B JUMP JUMPDEST SWAP2 POP PUSH3 0x586 DUP3 PUSH3 0x51D JUMP JUMPDEST PUSH1 0x40 DUP3 ADD SWAP1 POP SWAP2 SWAP1 POP JUMP JUMPDEST PUSH0 PUSH1 0x20 DUP3 ADD SWAP1 POP DUP2 DUP2 SUB PUSH0 DUP4 ADD MSTORE PUSH3 0x5AA DUP2 PUSH3 0x56B JUMP JUMPDEST SWAP1 POP SWAP2 SWAP1 POP JUMP JUMPDEST PUSH32 0x54696D656443726F776473616C653A206F70656E696E672074696D6520697320 PUSH0 DUP3 ADD MSTORE PUSH32 0x6265666F72652063757272656E742074696D6500000000000000000000000000 PUSH1 0x20 DUP3 ADD MSTORE POP JUMP JUMPDEST PUSH0 PUSH3 0x60D PUSH1 0x33 DUP4 PUSH3 0x40B JUMP JUMPDEST SWAP2 POP PUSH3 0x61A DUP3 PUSH3 0x5B1 JUMP JUMPDEST PUSH1 0x40 DUP3 ADD SWAP1 POP SWAP2 SWAP1 POP JUMP JUMPDEST PUSH0 PUSH1 0x20 DUP3 ADD SWAP1 POP DUP2 DUP2 SUB PUSH0 DUP4 ADD MSTORE PUSH3 0x63E DUP2 PUSH3 0x5FF JUMP JUMPDEST SWAP1 POP SWAP2 SWAP1 POP JUMP JUMPDEST PUSH32 0x54696D656443726F776473616C653A206F70656E696E672074696D6520697320 PUSH0 DUP3 ADD MSTORE PUSH32 0x6E6F74206265666F726520636C6F73696E672074696D65000000000000000000 PUSH1 0x20 DUP3 ADD MSTORE POP JUMP JUMPDEST PUSH0 PUSH3 0x6A1 PUSH1 0x37 DUP4 PUSH3 0x40B JUMP JUMPDEST SWAP2 POP PUSH3 0x6AE DUP3 PUSH3 0x645 JUMP JUMPDEST PUSH1 0x40 DUP3 ADD SWAP1 POP SWAP2 SWAP1 POP JUMP JUMPDEST PUSH0 PUSH1 0x20 DUP3 ADD SWAP1 POP DUP2 DUP2 SUB PUSH0 DUP4 ADD MSTORE PUSH3 0x6D2 DUP2 PUSH3 0x693 JUMP JUMPDEST SWAP1 POP SWAP2 SWAP1 POP JUMP JUMPDEST PUSH2 0x1091 DUP1 PUSH3 0x6E7 PUSH0 CODECOPY PUSH0 RETURN INVALID PUSH1 0x80 PUSH1 0x40 MSTORE PUSH1 0x4 CALLDATASIZE LT PUSH2 0x89 JUMPI PUSH0 CALLDATALOAD PUSH1 0xE0 SHR DUP1 PUSH4 0x4B6753BC GT PUSH2 0x58 JUMPI DUP1 PUSH4 0x4B6753BC EQ PUSH2 0x15A JUMPI DUP1 PUSH4 0x521EB273 EQ PUSH2 0x184 JUMPI DUP1 PUSH4 0xB7A8807C EQ PUSH2 0x1AE JUMPI DUP1 PUSH4 0xEC8AC4D8 EQ PUSH2 0x1D8 JUMPI DUP1 PUSH4 0xFC0C546A EQ PUSH2 0x1F4 JUMPI PUSH2 0xA0 JUMP JUMPDEST DUP1 PUSH4 0x1515BC2B EQ PUSH2 0xB2 JUMPI DUP1 PUSH4 0x2C4E722E EQ PUSH2 0xDC JUMPI DUP1 PUSH4 0x4042B66F EQ PUSH2 0x106 JUMPI DUP1 PUSH4 0x47535D7B EQ PUSH2 0x130 JUMPI PUSH2 0xA0 JUMP JUMPDEST CALLDATASIZE PUSH2 0xA0 JUMPI PUSH2 0x9E PUSH2 0x99 PUSH2 0x21E JUMP JUMPDEST PUSH2 0x225 JUMP JUMPDEST STOP JUMPDEST PUSH2 0xB0 PUSH2 0xAB PUSH2 0x21E JUMP JUMPDEST PUSH2 0x225 JUMP JUMPDEST STOP JUMPDEST CALLVALUE DUP1 ISZERO PUSH2 0xBD JUMPI PUSH0 DUP1 REVERT JUMPDEST POP PUSH2 0xC6 PUSH2 0x303 JUMP JUMPDEST PUSH1 0x40 MLOAD PUSH2 0xD3 SWAP2 SWAP1 PUSH2 0x93A JUMP JUMPDEST PUSH1 0x40 MLOAD DUP1 SWAP2 SUB SWAP1 RETURN JUMPDEST CALLVALUE DUP1 ISZERO PUSH2 0xE7 JUMPI PUSH0 DUP1 REVERT JUMPDEST POP PUSH2 0xF0 PUSH2 0x30E JUMP JUMPDEST PUSH1 0x40 MLOAD PUSH2 0xFD SWAP2 SWAP1 PUSH2 0x96B JUMP JUMPDEST PUSH1 0x40 MLOAD DUP1 SWAP2 SUB SWAP1 RETURN JUMPDEST CALLVALUE DUP1 ISZERO PUSH2 0x111 JUMPI PUSH0 DUP1 REVERT JUMPDEST POP PUSH2 0x11A PUSH2 0x317 JUMP JUMPDEST PUSH1 0x40 MLOAD PUSH2 0x127 SWAP2 SWAP1 PUSH2 0x96B JUMP JUMPDEST PUSH1 0x40 MLOAD DUP1 SWAP2 SUB SWAP1 RETURN JUMPDEST CALLVALUE DUP1 ISZERO PUSH2 0x13B JUMPI PUSH0 DUP1 REVERT JUMPDEST POP PUSH2 0x144 PUSH2 0x320 JUMP JUMPDEST PUSH1 0x40 MLOAD PUSH2 0x151 SWAP2 SWAP1 PUSH2 0x93A JUMP JUMPDEST PUSH1 0x40 MLOAD DUP1 SWAP2 SUB SWAP1 RETURN JUMPDEST CALLVALUE DUP1 ISZERO PUSH2 0x165 JUMPI PUSH0 DUP1 REVERT JUMPDEST POP PUSH2 0x16E PUSH2 0x33A JUMP JUMPDEST PUSH1 0x40 MLOAD PUSH2 0x17B SWAP2 SWAP1 PUSH2 0x96B JUMP JUMPDEST PUSH1 0x40 MLOAD DUP1 SWAP2 SUB SWAP1 RETURN JUMPDEST CALLVALUE DUP1 ISZERO PUSH2 0x18F JUMPI PUSH0 DUP1 REVERT JUMPDEST POP PUSH2 0x198 PUSH2 0x343 JUMP JUMPDEST PUSH1 0x40 MLOAD PUSH2 0x1A5 SWAP2 SWAP1 PUSH2 0x9C3 JUMP JUMPDEST PUSH1 0x40 MLOAD DUP1 SWAP2 SUB SWAP1 RETURN JUMPDEST CALLVALUE DUP1 ISZERO PUSH2 0x1B9 JUMPI PUSH0 DUP1 REVERT JUMPDEST POP PUSH2 0x1C2 PUSH2 0x36B JUMP JUMPDEST PUSH1 0x40 MLOAD PUSH2 0x1CF SWAP2 SWAP1 PUSH2 0x96B JUMP JUMPDEST PUSH1 0x40 MLOAD DUP1 SWAP2 SUB SWAP1 RETURN JUMPDEST PUSH2 0x1F2 PUSH1 0x4 DUP1 CALLDATASIZE SUB DUP2 ADD SWAP1 PUSH2 0x1ED SWAP2 SWAP1 PUSH2 0xA1B JUMP JUMPDEST PUSH2 0x225 JUMP JUMPDEST STOP JUMPDEST CALLVALUE DUP1 ISZERO PUSH2 0x1FF JUMPI PUSH0 DUP1 REVERT JUMPDEST POP PUSH2 0x208 PUSH2 0x374 JUMP JUMPDEST PUSH1 0x40 MLOAD PUSH2 0x215 SWAP2 SWAP1 PUSH2 0xAA1 JUMP JUMPDEST PUSH1 0x40 MLOAD DUP1 SWAP2 SUB SWAP1 RETURN JUMPDEST PUSH0 CALLER SWAP1 POP SWAP1 JUMP JUMPDEST PUSH2 0x22D PUSH2 0x39C JUMP JUMPDEST PUSH0 CALLVALUE SWAP1 POP PUSH2 0x23B DUP3 DUP3 PUSH2 0x3E9 JUMP JUMPDEST PUSH0 PUSH2 0x245 DUP3 PUSH2 0x43E JUMP JUMPDEST SWAP1 POP PUSH2 0x25C DUP3 PUSH1 0x4 SLOAD PUSH2 0x45B SWAP1 SWAP2 SWAP1 PUSH4 0xFFFFFFFF AND JUMP JUMPDEST PUSH1 0x4 DUP2 SWAP1 SSTORE POP PUSH2 0x26C DUP4 DUP3 PUSH2 0x470 JUMP JUMPDEST DUP3 PUSH20 0xFFFFFFFFFFFFFFFFFFFFFFFFFFFFFFFFFFFFFFFF AND PUSH2 0x28B PUSH2 0x21E JUMP JUMPDEST PUSH20 0xFFFFFFFFFFFFFFFFFFFFFFFFFFFFFFFFFFFFFFFF AND PUSH32 0x6FAF93231A456E552DBC9961F58D9713EE4F2E69D15F1975B050EF0911053A7B DUP5 DUP5 PUSH1 0x40 MLOAD PUSH2 0x2D2 SWAP3 SWAP2 SWAP1 PUSH2 0xABA JUMP JUMPDEST PUSH1 0x40 MLOAD DUP1 SWAP2 SUB SWAP1 LOG3 PUSH2 0x2E4 DUP4 DUP4 PUSH2 0x47E JUMP JUMPDEST PUSH2 0x2EC PUSH2 0x482 JUMP JUMPDEST PUSH2 0x2F6 DUP4 DUP4 PUSH2 0x4E9 JUMP JUMPDEST POP POP PUSH2 0x300 PUSH2 0x4ED JUMP JUMPDEST POP JUMP JUMPDEST PUSH0 PUSH1 0x6 SLOAD TIMESTAMP GT SWAP1 POP SWAP1 JUMP JUMPDEST PUSH0 PUSH1 0x3 SLOAD SWAP1 POP SWAP1 JUMP JUMPDEST PUSH0 PUSH1 0x4 SLOAD SWAP1 POP SWAP1 JUMP JUMPDEST PUSH0 PUSH1 0x5 SLOAD TIMESTAMP LT ISZERO DUP1 ISZERO PUSH2 0x335 JUMPI POP PUSH1 0x6 SLOAD TIMESTAMP GT ISZERO JUMPDEST SWAP1 POP SWAP1 JUMP JUMPDEST PUSH0 PUSH1 0x6 SLOAD SWAP1 POP SWAP1 JUMP JUMPDEST PUSH0 PUSH1 0x2 PUSH0 SWAP1 SLOAD SWAP1 PUSH2 0x100 EXP SWAP1 DIV PUSH20 0xFFFFFFFFFFFFFFFFFFFFFFFFFFFFFFFFFFFFFFFF AND SWAP1 POP SWAP1 JUMP JUMPDEST PUSH0 PUSH1 0x5 SLOAD SWAP1 POP SWAP1 JUMP JUMPDEST PUSH0 PUSH1 0x1 PUSH0 SWAP1 SLOAD SWAP1 PUSH2 0x100 EXP SWAP1 DIV PUSH20 0xFFFFFFFFFFFFFFFFFFFFFFFFFFFFFFFFFFFFFFFF AND SWAP1 POP SWAP1 JUMP JUMPDEST PUSH1 0x2 PUSH0 SLOAD SUB PUSH2 0x3E0 JUMPI PUSH1 0x40 MLOAD PUSH32 0x8C379A000000000000000000000000000000000000000000000000000000000 DUP2 MSTORE PUSH1 0x4 ADD PUSH2 0x3D7 SWAP1 PUSH2 0xB3B JUMP JUMPDEST PUSH1 0x40 MLOAD DUP1 SWAP2 SUB SWAP1 REVERT JUMPDEST PUSH1 0x2 PUSH0 DUP2 SWAP1 SSTORE POP JUMP JUMPDEST PUSH2 0x3F1 PUSH2 0x320 JUMP JUMPDEST PUSH2 0x430 JUMPI PUSH1 0x40 MLOAD PUSH32 0x8C379A000000000000000000000000000000000000000000000000000000000 DUP2 MSTORE PUSH1 0x4 ADD PUSH2 0x427 SWAP1 PUSH2 0xBA3 JUMP JUMPDEST PUSH1 0x40 MLOAD DUP1 SWAP2 SUB SWAP1 REVERT JUMPDEST PUSH2 0x43A DUP3 DUP3 PUSH2 0x4F6 JUMP JUMPDEST POP POP JUMP JUMPDEST PUSH0 PUSH2 0x454 PUSH1 0x3 SLOAD DUP4 PUSH2 0x5AA SWAP1 SWAP2 SWAP1 PUSH4 0xFFFFFFFF AND JUMP JUMPDEST SWAP1 POP SWAP2 SWAP1 POP JUMP JUMPDEST PUSH0 DUP2 DUP4 PUSH2 0x468 SWAP2 SWAP1 PUSH2 0xBEE JUMP JUMPDEST SWAP1 POP SWAP3 SWAP2 POP POP JUMP JUMPDEST PUSH2 0x47A DUP3 DUP3 PUSH2 0x5BF JUMP JUMPDEST POP POP JUMP JUMPDEST POP POP JUMP JUMPDEST PUSH1 0x2 PUSH0 SWAP1 SLOAD SWAP1 PUSH2 0x100 EXP SWAP1 DIV PUSH20 0xFFFFFFFFFFFFFFFFFFFFFFFFFFFFFFFFFFFFFFFF AND PUSH20 0xFFFFFFFFFFFFFFFFFFFFFFFFFFFFFFFFFFFFFFFF AND PUSH2 0x8FC CALLVALUE SWAP1 DUP2 ISZERO MUL SWAP1 PUSH1 0x40 MLOAD PUSH0 PUSH1 0x40 MLOAD DUP1 DUP4 SUB DUP2 DUP6 DUP9 DUP9 CALL SWAP4 POP POP POP POP ISZERO DUP1 ISZERO PUSH2 0x4E6 JUMPI RETURNDATASIZE PUSH0 DUP1 RETURNDATACOPY RETURNDATASIZE PUSH0 REVERT JUMPDEST POP JUMP JUMPDEST POP POP JUMP JUMPDEST PUSH1 0x1 PUSH0 DUP2 SWAP1 SSTORE POP JUMP JUMPDEST PUSH0 PUSH20 0xFFFFFFFFFFFFFFFFFFFFFFFFFFFFFFFFFFFFFFFF AND DUP3 PUSH20 0xFFFFFFFFFFFFFFFFFFFFFFFFFFFFFFFFFFFFFFFF AND SUB PUSH2 0x564 JUMPI PUSH1 0x40 MLOAD PUSH32 0x8C379A000000000000000000000000000000000000000000000000000000000 DUP2 MSTORE PUSH1 0x4 ADD PUSH2 0x55B SWAP1 PUSH2 0xC91 JUMP JUMPDEST PUSH1 0x40 MLOAD DUP1 SWAP2 SUB SWAP1 REVERT JUMPDEST PUSH0 DUP2 SUB PUSH2 0x5A6 JUMPI PUSH1 0x40 MLOAD PUSH32 0x8C379A000000000000000000000000000000000000000000000000000000000 DUP2 MSTORE PUSH1 0x4 ADD PUSH2 0x59D SWAP1 PUSH2 0xCF9 JUMP JUMPDEST PUSH1 0x40 MLOAD DUP1 SWAP2 SUB SWAP1 REVERT JUMPDEST POP POP JUMP JUMPDEST PUSH0 DUP2 DUP4 PUSH2 0x5B7 SWAP2 SWAP1 PUSH2 0xD17 JUMP JUMPDEST SWAP1 POP SWAP3 SWAP2 POP POP JUMP JUMPDEST PUSH2 0x60B DUP3 DUP3 PUSH1 0x1 PUSH0 SWAP1 SLOAD SWAP1 PUSH2 0x100 EXP SWAP1 DIV PUSH20 0xFFFFFFFFFFFFFFFFFFFFFFFFFFFFFFFFFFFFFFFF AND PUSH20 0xFFFFFFFFFFFFFFFFFFFFFFFFFFFFFFFFFFFFFFFF AND PUSH2 0x60F SWAP1 SWAP3 SWAP2 SWAP1 PUSH4 0xFFFFFFFF AND JUMP JUMPDEST POP POP JUMP JUMPDEST PUSH2 0x690 DUP4 PUSH4 0xA9059CBB PUSH1 0xE0 SHL DUP5 DUP5 PUSH1 0x40 MLOAD PUSH1 0x24 ADD PUSH2 0x62E SWAP3 SWAP2 SWAP1 PUSH2 0xD67 JUMP JUMPDEST PUSH1 0x40 MLOAD PUSH1 0x20 DUP2 DUP4 SUB SUB DUP2 MSTORE SWAP1 PUSH1 0x40 MSTORE SWAP1 PUSH28 0xFFFFFFFFFFFFFFFFFFFFFFFFFFFFFFFFFFFFFFFFFFFFFFFFFFFFFFFF NOT AND PUSH1 0x20 DUP3 ADD DUP1 MLOAD PUSH28 0xFFFFFFFFFFFFFFFFFFFFFFFFFFFFFFFFFFFFFFFFFFFFFFFFFFFFFFFF DUP4 DUP2 DUP4 AND OR DUP4 MSTORE POP POP POP POP PUSH2 0x695 JUMP JUMPDEST POP POP POP JUMP JUMPDEST PUSH0 PUSH2 0x6F6 DUP3 PUSH1 0x40 MLOAD DUP1 PUSH1 0x40 ADD PUSH1 0x40 MSTORE DUP1 PUSH1 0x20 DUP2 MSTORE PUSH1 0x20 ADD PUSH32 0x5361666545524332303A206C6F772D6C6576656C2063616C6C206661696C6564 DUP2 MSTORE POP DUP6 PUSH20 0xFFFFFFFFFFFFFFFFFFFFFFFFFFFFFFFFFFFFFFFF AND PUSH2 0x75B SWAP1 SWAP3 SWAP2 SWAP1 PUSH4 0xFFFFFFFF AND JUMP JUMPDEST SWAP1 POP PUSH0 DUP2 MLOAD EQ DUP1 PUSH2 0x717 JUMPI POP DUP1 DUP1 PUSH1 0x20 ADD SWAP1 MLOAD DUP2 ADD SWAP1 PUSH2 0x716 SWAP2 SWAP1 PUSH2 0xDB8 JUMP JUMPDEST JUMPDEST PUSH2 0x756 JUMPI PUSH1 0x40 MLOAD PUSH32 0x8C379A000000000000000000000000000000000000000000000000000000000 DUP2 MSTORE PUSH1 0x4 ADD PUSH2 0x74D SWAP1 PUSH2 0xE53 JUMP JUMPDEST PUSH1 0x40 MLOAD DUP1 SWAP2 SUB SWAP1 REVERT JUMPDEST POP POP POP JUMP JUMPDEST PUSH1 0x60 PUSH2 0x769 DUP5 DUP5 PUSH0 DUP6 PUSH2 0x772 JUMP JUMPDEST SWAP1 POP SWAP4 SWAP3 POP POP POP JUMP JUMPDEST PUSH1 0x60 DUP3 SELFBALANCE LT ISZERO PUSH2 0x7B7 JUMPI PUSH1 0x40 MLOAD PUSH32 0x8C379A000000000000000000000000000000000000000000000000000000000 DUP2 MSTORE PUSH1 0x4 ADD PUSH2 0x7AE SWAP1 PUSH2 0xEE1 JUMP JUMPDEST PUSH1 0x40 MLOAD DUP1 SWAP2 SUB SWAP1 REVERT JUMPDEST PUSH0 DUP1 DUP7 PUSH20 0xFFFFFFFFFFFFFFFFFFFFFFFFFFFFFFFFFFFFFFFF AND DUP6 DUP8 PUSH1 0x40 MLOAD PUSH2 0x7DF SWAP2 SWAP1 PUSH2 0xF6B JUMP JUMPDEST PUSH0 PUSH1 0x40 MLOAD DUP1 DUP4 SUB DUP2 DUP6 DUP8 GAS CALL SWAP3 POP POP POP RETURNDATASIZE DUP1 PUSH0 DUP2 EQ PUSH2 0x819 JUMPI PUSH1 0x40 MLOAD SWAP2 POP PUSH1 0x1F NOT PUSH1 0x3F RETURNDATASIZE ADD AND DUP3 ADD PUSH1 0x40 MSTORE RETURNDATASIZE DUP3 MSTORE RETURNDATASIZE PUSH0 PUSH1 0x20 DUP5 ADD RETURNDATACOPY PUSH2 0x81E JUMP JUMPDEST PUSH1 0x60 SWAP2 POP JUMPDEST POP SWAP2 POP SWAP2 POP PUSH2 0x82F DUP8 DUP4 DUP4 DUP8 PUSH2 0x83B JUMP JUMPDEST SWAP3 POP POP POP SWAP5 SWAP4 POP POP POP POP JUMP JUMPDEST PUSH1 0x60 DUP4 ISZERO PUSH2 0x89C JUMPI PUSH0 DUP4 MLOAD SUB PUSH2 0x894 JUMPI PUSH2 0x854 DUP6 PUSH2 0x8AF JUMP JUMPDEST PUSH2 0x893 JUMPI PUSH1 0x40 MLOAD PUSH32 0x8C379A000000000000000000000000000000000000000000000000000000000 DUP2 MSTORE PUSH1 0x4 ADD PUSH2 0x88A SWAP1 PUSH2 0xFCB JUMP JUMPDEST PUSH1 0x40 MLOAD DUP1 SWAP2 SUB SWAP1 REVERT JUMPDEST JUMPDEST DUP3 SWAP1 POP PUSH2 0x8A7 JUMP JUMPDEST PUSH2 0x8A6 DUP4 DUP4 PUSH2 0x8D1 JUMP JUMPDEST JUMPDEST SWAP5 SWAP4 POP POP POP POP JUMP JUMPDEST PUSH0 DUP1 DUP3 PUSH20 0xFFFFFFFFFFFFFFFFFFFFFFFFFFFFFFFFFFFFFFFF AND EXTCODESIZE GT SWAP1 POP SWAP2 SWAP1 POP JUMP JUMPDEST PUSH0 DUP3 MLOAD GT ISZERO PUSH2 0x8E3 JUMPI DUP2 MLOAD DUP1 DUP4 PUSH1 0x20 ADD REVERT JUMPDEST DUP1 PUSH1 0x40 MLOAD PUSH32 0x8C379A000000000000000000000000000000000000000000000000000000000 DUP2 MSTORE PUSH1 0x4 ADD PUSH2 0x917 SWAP2 SWAP1 PUSH2 0x103B JUMP JUMPDEST PUSH1 0x40 MLOAD DUP1 SWAP2 SUB SWAP1 REVERT JUMPDEST PUSH0 DUP2 ISZERO ISZERO SWAP1 POP SWAP2 SWAP1 POP JUMP JUMPDEST PUSH2 0x934 DUP2 PUSH2 0x920 JUMP JUMPDEST DUP3 MSTORE POP POP JUMP JUMPDEST PUSH0 PUSH1 0x20 DUP3 ADD SWAP1 POP PUSH2 0x94D PUSH0 DUP4 ADD DUP5 PUSH2 0x92B JUMP JUMPDEST SWAP3 SWAP2 POP POP JUMP JUMPDEST PUSH0 DUP2 SWAP1 POP SWAP2 SWAP1 POP JUMP JUMPDEST PUSH2 0x965 DUP2 PUSH2 0x953 JUMP JUMPDEST DUP3 MSTORE POP POP JUMP JUMPDEST PUSH0 PUSH1 0x20 DUP3 ADD SWAP1 POP PUSH2 0x97E PUSH0 DUP4 ADD DUP5 PUSH2 0x95C JUMP JUMPDEST SWAP3 SWAP2 POP POP JUMP JUMPDEST PUSH0 PUSH20 0xFFFFFFFFFFFFFFFFFFFFFFFFFFFFFFFFFFFFFFFF DUP3 AND SWAP1 POP SWAP2 SWAP1 POP JUMP JUMPDEST PUSH0 PUSH2 0x9AD DUP3 PUSH2 0x984 JUMP JUMPDEST SWAP1 POP SWAP2 SWAP1 POP JUMP JUMPDEST PUSH2 0x9BD DUP2 PUSH2 0x9A3 JUMP JUMPDEST DUP3 MSTORE POP POP JUMP JUMPDEST PUSH0 PUSH1 0x20 DUP3 ADD SWAP1 POP PUSH2 0x9D6 PUSH0 DUP4 ADD DUP5 PUSH2 0x9B4 JUMP JUMPDEST SWAP3 SWAP2 POP POP JUMP JUMPDEST PUSH0 DUP1 REVERT JUMPDEST PUSH0 PUSH2 0x9EA DUP3 PUSH2 0x984 JUMP JUMPDEST SWAP1 POP SWAP2 SWAP1 POP JUMP JUMPDEST PUSH2 0x9FA DUP2 PUSH2 0x9E0 JUMP JUMPDEST DUP2 EQ PUSH2 0xA04 JUMPI PUSH0 DUP1 REVERT JUMPDEST POP JUMP JUMPDEST PUSH0 DUP2 CALLDATALOAD SWAP1 POP PUSH2 0xA15 DUP2 PUSH2 0x9F1 JUMP JUMPDEST SWAP3 SWAP2 POP POP JUMP JUMPDEST PUSH0 PUSH1 0x20 DUP3 DUP5 SUB SLT ISZERO PUSH2 0xA30 JUMPI PUSH2 0xA2F PUSH2 0x9DC JUMP JUMPDEST JUMPDEST PUSH0 PUSH2 0xA3D DUP5 DUP3 DUP6 ADD PUSH2 0xA07 JUMP JUMPDEST SWAP2 POP POP SWAP3 SWAP2 POP POP JUMP JUMPDEST PUSH0 DUP2 SWAP1 POP SWAP2 SWAP1 POP JUMP JUMPDEST PUSH0 PUSH2 0xA69 PUSH2 0xA64 PUSH2 0xA5F DUP5 PUSH2 0x984 JUMP JUMPDEST PUSH2 0xA46 JUMP JUMPDEST PUSH2 0x984 JUMP JUMPDEST SWAP1 POP SWAP2 SWAP1 POP JUMP JUMPDEST PUSH0 PUSH2 0xA7A DUP3 PUSH2 0xA4F JUMP JUMPDEST SWAP1 POP SWAP2 SWAP1 POP JUMP JUMPDEST PUSH0 PUSH2 0xA8B DUP3 PUSH2 0xA70 JUMP JUMPDEST SWAP1 POP SWAP2 SWAP1 POP JUMP JUMPDEST PUSH2 0xA9B DUP2 PUSH2 0xA81 JUMP JUMPDEST DUP3 MSTORE POP POP JUMP JUMPDEST PUSH0 PUSH1 0x20 DUP3 ADD SWAP1 POP PUSH2 0xAB4 PUSH0 DUP4 ADD DUP5 PUSH2 0xA92 JUMP JUMPDEST SWAP3 SWAP2 POP POP JUMP JUMPDEST PUSH0 PUSH1 0x40 DUP3 ADD SWAP1 POP PUSH2 0xACD PUSH0 DUP4 ADD DUP6 PUSH2 0x95C JUMP JUMPDEST PUSH2 0xADA PUSH1 0x20 DUP4 ADD DUP5 PUSH2 0x95C JUMP JUMPDEST SWAP4 SWAP3 POP POP POP JUMP JUMPDEST PUSH0 DUP3 DUP3 MSTORE PUSH1 0x20 DUP3 ADD SWAP1 POP SWAP3 SWAP2 POP POP JUMP JUMPDEST PUSH32 0x5265656E7472616E637947756172643A207265656E7472616E742063616C6C00 PUSH0 DUP3 ADD MSTORE POP JUMP JUMPDEST PUSH0 PUSH2 0xB25 PUSH1 0x1F DUP4 PUSH2 0xAE1 JUMP JUMPDEST SWAP2 POP PUSH2 0xB30 DUP3 PUSH2 0xAF1 JUMP JUMPDEST PUSH1 0x20 DUP3 ADD SWAP1 POP SWAP2 SWAP1 POP JUMP JUMPDEST PUSH0 PUSH1 0x20 DUP3 ADD SWAP1 POP DUP2 DUP2 SUB PUSH0 DUP4 ADD MSTORE PUSH2 0xB52 DUP2 PUSH2 0xB19 JUMP JUMPDEST SWAP1 POP SWAP2 SWAP1 POP JUMP JUMPDEST PUSH32 0x54696D656443726F776473616C653A206E6F74206F70656E0000000000000000 PUSH0 DUP3 ADD MSTORE POP JUMP JUMPDEST PUSH0 PUSH2 0xB8D PUSH1 0x18 DUP4 PUSH2 0xAE1 JUMP JUMPDEST SWAP2 POP PUSH2 0xB98 DUP3 PUSH2 0xB59 JUMP JUMPDEST PUSH1 0x20 DUP3 ADD SWAP1 POP SWAP2 SWAP1 POP JUMP JUMPDEST PUSH0 PUSH1 0x20 DUP3 ADD SWAP1 POP DUP2 DUP2 SUB PUSH0 DUP4 ADD MSTORE PUSH2 0xBBA DUP2 PUSH2 0xB81 JUMP JUMPDEST SWAP1 POP SWAP2 SWAP1 POP JUMP JUMPDEST PUSH32 0x4E487B7100000000000000000000000000000000000000000000000000000000 PUSH0 MSTORE PUSH1 0x11 PUSH1 0x4 MSTORE PUSH1 0x24 PUSH0 REVERT JUMPDEST PUSH0 PUSH2 0xBF8 DUP3 PUSH2 0x953 JUMP JUMPDEST SWAP2 POP PUSH2 0xC03 DUP4 PUSH2 0x953 JUMP JUMPDEST SWAP3 POP DUP3 DUP3 ADD SWAP1 POP DUP1 DUP3 GT ISZERO PUSH2 0xC1B JUMPI PUSH2 0xC1A PUSH2 0xBC1 JUMP JUMPDEST JUMPDEST SWAP3 SWAP2 POP POP JUMP JUMPDEST PUSH32 0x43726F776473616C653A2062656E656669636961727920697320746865207A65 PUSH0 DUP3 ADD MSTORE PUSH32 0x726F206164647265737300000000000000000000000000000000000000000000 PUSH1 0x20 DUP3 ADD MSTORE POP JUMP JUMPDEST PUSH0 PUSH2 0xC7B PUSH1 0x2A DUP4 PUSH2 0xAE1 JUMP JUMPDEST SWAP2 POP PUSH2 0xC86 DUP3 PUSH2 0xC21 JUMP JUMPDEST PUSH1 0x40 DUP3 ADD SWAP1 POP SWAP2 SWAP1 POP JUMP JUMPDEST PUSH0 PUSH1 0x20 DUP3 ADD SWAP1 POP DUP2 DUP2 SUB PUSH0 DUP4 ADD MSTORE PUSH2 0xCA8 DUP2 PUSH2 0xC6F JUMP JUMPDEST SWAP1 POP SWAP2 SWAP1 POP JUMP JUMPDEST PUSH32 0x43726F776473616C653A20776569416D6F756E74206973203000000000000000 PUSH0 DUP3 ADD MSTORE POP JUMP JUMPDEST PUSH0 PUSH2 0xCE3 PUSH1 0x19 DUP4 PUSH2 0xAE1 JUMP JUMPDEST SWAP2 POP PUSH2 0xCEE DUP3 PUSH2 0xCAF JUMP JUMPDEST PUSH1 0x20 DUP3 ADD SWAP1 POP SWAP2 SWAP1 POP JUMP JUMPDEST PUSH0 PUSH1 0x20 DUP3 ADD SWAP1 POP DUP2 DUP2 SUB PUSH0 DUP4 ADD MSTORE PUSH2 0xD10 DUP2 PUSH2 0xCD7 JUMP JUMPDEST SWAP1 POP SWAP2 SWAP1 POP JUMP JUMPDEST PUSH0 PUSH2 0xD21 DUP3 PUSH2 0x953 JUMP JUMPDEST SWAP2 POP PUSH2 0xD2C DUP4 PUSH2 0x953 JUMP JUMPDEST SWAP3 POP DUP3 DUP3 MUL PUSH2 0xD3A DUP2 PUSH2 0x953 JUMP JUMPDEST SWAP2 POP DUP3 DUP3 DIV DUP5 EQ DUP4 ISZERO OR PUSH2 0xD51 JUMPI PUSH2 0xD50 PUSH2 0xBC1 JUMP JUMPDEST JUMPDEST POP SWAP3 SWAP2 POP POP JUMP JUMPDEST PUSH2 0xD61 DUP2 PUSH2 0x9E0 JUMP JUMPDEST DUP3 MSTORE POP POP JUMP JUMPDEST PUSH0 PUSH1 0x40 DUP3 ADD SWAP1 POP PUSH2 0xD7A PUSH0 DUP4 ADD DUP6 PUSH2 0xD58 JUMP JUMPDEST PUSH2 0xD87 PUSH1 0x20 DUP4 ADD DUP5 PUSH2 0x95C JUMP JUMPDEST SWAP4 SWAP3 POP POP POP JUMP JUMPDEST PUSH2 0xD97 DUP2 PUSH2 0x920 JUMP JUMPDEST DUP2 EQ PUSH2 0xDA1 JUMPI PUSH0 DUP1 REVERT JUMPDEST POP JUMP JUMPDEST PUSH0 DUP2 MLOAD SWAP1 POP PUSH2 0xDB2 DUP2 PUSH2 0xD8E JUMP JUMPDEST SWAP3 SWAP2 POP POP JUMP JUMPDEST PUSH0 PUSH1 0x20 DUP3 DUP5 SUB SLT ISZERO PUSH2 0xDCD JUMPI PUSH2 0xDCC PUSH2 0x9DC JUMP JUMPDEST JUMPDEST PUSH0 PUSH2 0xDDA DUP5 DUP3 DUP6 ADD PUSH2 0xDA4 JUMP JUMPDEST SWAP2 POP POP SWAP3 SWAP2 POP POP JUMP JUMPDEST PUSH32 0x5361666545524332303A204552433230206F7065726174696F6E20646964206E PUSH0 DUP3 ADD MSTORE PUSH32 0x6F74207375636365656400000000000000000000000000000000000000000000 PUSH1 0x20 DUP3 ADD MSTORE POP JUMP JUMPDEST PUSH0 PUSH2 0xE3D PUSH1 0x2A DUP4 PUSH2 0xAE1 JUMP JUMPDEST SWAP2 POP PUSH2 0xE48 DUP3 PUSH2 0xDE3 JUMP JUMPDEST PUSH1 0x40 DUP3 ADD SWAP1 POP SWAP2 SWAP1 POP JUMP JUMPDEST PUSH0 PUSH1 0x20 DUP3 ADD SWAP1 POP DUP2 DUP2 SUB PUSH0 DUP4 ADD MSTORE PUSH2 0xE6A DUP2 PUSH2 0xE31 JUMP JUMPDEST SWAP1 POP SWAP2 SWAP1 POP JUMP JUMPDEST PUSH32 0x416464726573733A20696E73756666696369656E742062616C616E636520666F PUSH0 DUP3 ADD MSTORE PUSH32 0x722063616C6C0000000000000000000000000000000000000000000000000000 PUSH1 0x20 DUP3 ADD MSTORE POP JUMP JUMPDEST PUSH0 PUSH2 0xECB PUSH1 0x26 DUP4 PUSH2 0xAE1 JUMP JUMPDEST SWAP2 POP PUSH2 0xED6 DUP3 PUSH2 0xE71 JUMP JUMPDEST PUSH1 0x40 DUP3 ADD SWAP1 POP SWAP2 SWAP1 POP JUMP JUMPDEST PUSH0 PUSH1 0x20 DUP3 ADD SWAP1 POP DUP2 DUP2 SUB PUSH0 DUP4 ADD MSTORE PUSH2 0xEF8 DUP2 PUSH2 0xEBF JUMP JUMPDEST SWAP1 POP SWAP2 SWAP1 POP JUMP JUMPDEST PUSH0 DUP2 MLOAD SWAP1 POP SWAP2 SWAP1 POP JUMP JUMPDEST PUSH0 DUP2 SWAP1 POP SWAP3 SWAP2 POP POP JUMP JUMPDEST PUSH0 JUMPDEST DUP4 DUP2 LT ISZERO PUSH2 0xF30 JUMPI DUP1 DUP3 ADD MLOAD DUP2 DUP5 ADD MSTORE PUSH1 0x20 DUP2 ADD SWAP1 POP PUSH2 0xF15 JUMP JUMPDEST PUSH0 DUP5 DUP5 ADD MSTORE POP POP POP POP JUMP JUMPDEST PUSH0 PUSH2 0xF45 DUP3 PUSH2 0xEFF JUMP JUMPDEST PUSH2 0xF4F DUP2 DUP6 PUSH2 0xF09 JUMP JUMPDEST SWAP4 POP PUSH2 0xF5F DUP2 DUP6 PUSH1 0x20 DUP7 ADD PUSH2 0xF13 JUMP JUMPDEST DUP1 DUP5 ADD SWAP2 POP POP SWAP3 SWAP2 POP POP JUMP JUMPDEST PUSH0 PUSH2 0xF76 DUP3 DUP5 PUSH2 0xF3B JUMP JUMPDEST SWAP2 POP DUP2 SWAP1 POP SWAP3 SWAP2 POP POP JUMP JUMPDEST PUSH32 0x416464726573733A2063616C6C20746F206E6F6E2D636F6E7472616374000000 PUSH0 DUP3 ADD MSTORE POP JUMP JUMPDEST PUSH0 PUSH2 0xFB5 PUSH1 0x1D DUP4 PUSH2 0xAE1 JUMP JUMPDEST SWAP2 POP PUSH2 0xFC0 DUP3 PUSH2 0xF81 JUMP JUMPDEST PUSH1 0x20 DUP3 ADD SWAP1 POP SWAP2 SWAP1 POP JUMP JUMPDEST PUSH0 PUSH1 0x20 DUP3 ADD SWAP1 POP DUP2 DUP2 SUB PUSH0 DUP4 ADD MSTORE PUSH2 0xFE2 DUP2 PUSH2 0xFA9 JUMP JUMPDEST SWAP1 POP SWAP2 SWAP1 POP JUMP JUMPDEST PUSH0 DUP2 MLOAD SWAP1 POP SWAP2 SWAP1 POP JUMP JUMPDEST PUSH0 PUSH1 0x1F NOT PUSH1 0x1F DUP4 ADD AND SWAP1 POP SWAP2 SWAP1 POP JUMP JUMPDEST PUSH0 PUSH2 0x100D DUP3 PUSH2 0xFE9 JUMP JUMPDEST PUSH2 0x1017 DUP2 DUP6 PUSH2 0xAE1 JUMP JUMPDEST SWAP4 POP PUSH2 0x1027 DUP2 DUP6 PUSH1 0x20 DUP7 ADD PUSH2 0xF13 JUMP JUMPDEST PUSH2 0x1030 DUP2 PUSH2 0xFF3 JUMP JUMPDEST DUP5 ADD SWAP2 POP POP SWAP3 SWAP2 POP POP JUMP JUMPDEST PUSH0 PUSH1 0x20 DUP3 ADD SWAP1 POP DUP2 DUP2 SUB PUSH0 DUP4 ADD MSTORE PUSH2 0x1053 DUP2 DUP5 PUSH2 0x1003 JUMP JUMPDEST SWAP1 POP SWAP3 SWAP2 POP POP JUMP INVALID LOG2 PUSH5 0x6970667358 0x22 SLT KECCAK256 BLOCKHASH 0xD2 0x4C CHAINID DUP12 0xD4 0xCD NUMBER KECCAK256 MSTORE PUSH25 0x1ECC08630DEDB5BEB320C8EB657EED8AB2CCAA5C2464736F6C PUSH4 0x43000815 STOP CALLER "
				},
				"gasEstimates": {
					"creation": {
						"codeDepositCost": "848200",
						"executionCost": "infinite",
						"totalCost": "infinite"
					},
					"external": {
						"": "infinite",
						"buyTokens(address)": "infinite",
						"closingTime()": "2432",
						"hasClosed()": "2444",
						"isOpen()": "4646",
						"openingTime()": "2476",
						"rate()": "2455",
						"token()": "infinite",
						"wallet()": "2537",
						"weiRaised()": "2477"
					},
					"internal": {
						"_extendTime(uint256)": "infinite",
						"_preValidatePurchase(address,uint256)": "infinite"
					}
				},
				"methodIdentifiers": {
					"buyTokens(address)": "ec8ac4d8",
					"closingTime()": "4b6753bc",
					"hasClosed()": "1515bc2b",
					"isOpen()": "47535d7b",
					"openingTime()": "b7a8807c",
					"rate()": "2c4e722e",
					"token()": "fc0c546a",
					"wallet()": "521eb273",
					"weiRaised()": "4042b66f"
				}
			},
			"storageLayout": {
				"storage": [
					{
						"astId": 118,
						"contract": "crowdsale/validation/timedCrowdsale.sol:TimedCrowdsale",
						"label": "_status",
						"offset": 0,
						"slot": "0",
						"type": "t_uint256"
					},
					{
						"astId": 1348,
						"contract": "crowdsale/validation/timedCrowdsale.sol:TimedCrowdsale",
						"label": "_token",
						"offset": 0,
						"slot": "1",
						"type": "t_contract(IERC20)250"
					},
					{
						"astId": 1350,
						"contract": "crowdsale/validation/timedCrowdsale.sol:TimedCrowdsale",
						"label": "_wallet",
						"offset": 0,
						"slot": "2",
						"type": "t_address_payable"
					},
					{
						"astId": 1352,
						"contract": "crowdsale/validation/timedCrowdsale.sol:TimedCrowdsale",
						"label": "_rate",
						"offset": 0,
						"slot": "3",
						"type": "t_uint256"
					},
					{
						"astId": 1354,
						"contract": "crowdsale/validation/timedCrowdsale.sol:TimedCrowdsale",
						"label": "_weiRaised",
						"offset": 0,
						"slot": "4",
						"type": "t_uint256"
					},
					{
						"astId": 1886,
						"contract": "crowdsale/validation/timedCrowdsale.sol:TimedCrowdsale",
						"label": "_openingTime",
						"offset": 0,
						"slot": "5",
						"type": "t_uint256"
					},
					{
						"astId": 1888,
						"contract": "crowdsale/validation/timedCrowdsale.sol:TimedCrowdsale",
						"label": "_closingTime",
						"offset": 0,
						"slot": "6",
						"type": "t_uint256"
					}
				],
				"types": {
					"t_address_payable": {
						"encoding": "inplace",
						"label": "address payable",
						"numberOfBytes": "20"
					},
					"t_contract(IERC20)250": {
						"encoding": "inplace",
						"label": "contract IERC20",
						"numberOfBytes": "20"
					},
					"t_uint256": {
						"encoding": "inplace",
						"label": "uint256",
						"numberOfBytes": "32"
					}
				}
			},
			"userdoc": {
				"events": {
					"TimedCrowdsaleExtended(uint256,uint256)": {
						"notice": "Event for crowdsale extending"
					},
					"TokensPurchased(address,address,uint256,uint256)": {
						"notice": "Event for token purchase logging"
					}
				},
				"kind": "user",
				"methods": {},
				"version": 1
			}
		}
	}
}