{
	"crowdsale/validation/cappedCrowdsale.sol": {
		"CappedCrowdsale": {
			"abi": [
				{
					"inputs": [
						{
							"internalType": "uint256",
							"name": "inCap",
							"type": "uint256"
						},
						{
							"internalType": "uint256",
							"name": "inRate",
							"type": "uint256"
						},
						{
							"internalType": "address payable",
							"name": "inWallet",
							"type": "address"
						},
						{
							"internalType": "contract IERC20",
							"name": "inToken",
							"type": "address"
						}
					],
					"stateMutability": "nonpayable",
					"type": "constructor"
				},
				{
					"anonymous": false,
					"inputs": [
						{
							"indexed": true,
							"internalType": "address",
							"name": "purchaser",
							"type": "address"
						},
						{
							"indexed": true,
							"internalType": "address",
							"name": "beneficiary",
							"type": "address"
						},
						{
							"indexed": false,
							"internalType": "uint256",
							"name": "value",
							"type": "uint256"
						},
						{
							"indexed": false,
							"internalType": "uint256",
							"name": "amount",
							"type": "uint256"
						}
					],
					"name": "TokensPurchased",
					"type": "event"
				},
				{
					"stateMutability": "payable",
					"type": "fallback"
				},
				{
					"inputs": [
						{
							"internalType": "address",
							"name": "beneficiary",
							"type": "address"
						}
					],
					"name": "buyTokens",
					"outputs": [],
					"stateMutability": "payable",
					"type": "function"
				},
				{
					"inputs": [],
					"name": "cap",
					"outputs": [
						{
							"internalType": "uint256",
							"name": "",
							"type": "uint256"
						}
					],
					"stateMutability": "view",
					"type": "function"
				},
				{
					"inputs": [],
					"name": "capReached",
					"outputs": [
						{
							"internalType": "bool",
							"name": "",
							"type": "bool"
						}
					],
					"stateMutability": "view",
					"type": "function"
				},
				{
					"inputs": [],
					"name": "rate",
					"outputs": [
						{
							"internalType": "uint256",
							"name": "",
							"type": "uint256"
						}
					],
					"stateMutability": "view",
					"type": "function"
				},
				{
					"inputs": [],
					"name": "token",
					"outputs": [
						{
							"internalType": "contract IERC20",
							"name": "",
							"type": "address"
						}
					],
					"stateMutability": "view",
					"type": "function"
				},
				{
					"inputs": [],
					"name": "wallet",
					"outputs": [
						{
							"internalType": "address payable",
							"name": "",
							"type": "address"
						}
					],
					"stateMutability": "view",
					"type": "function"
				},
				{
					"inputs": [],
					"name": "weiRaised",
					"outputs": [
						{
							"internalType": "uint256",
							"name": "",
							"type": "uint256"
						}
					],
					"stateMutability": "view",
					"type": "function"
				},
				{
					"stateMutability": "payable",
					"type": "receive"
				}
			],
			"devdoc": {
				"details": "Crowdsale with a limit for total contributions.",
				"events": {
					"TokensPurchased(address,address,uint256,uint256)": {
						"params": {
							"amount": "amount of tokens purchased",
							"beneficiary": "who got the tokens",
							"purchaser": "who paid for the tokens",
							"value": "weis paid for purchase"
						}
					}
				},
				"kind": "dev",
				"methods": {
					"buyTokens(address)": {
						"details": "low level token purchase ***DO NOT OVERRIDE*** This function has a non-reentrancy guard, so it shouldn't be called by another `nonReentrant` function.",
						"params": {
							"beneficiary": "Recipient of the token purchase"
						}
					},
					"cap()": {
						"returns": {
							"_0": "the cap of the crowdsale."
						}
					},
					"capReached()": {
						"details": "Checks whether the cap has been reached.",
						"returns": {
							"_0": "Whether the cap was reached"
						}
					},
					"constructor": {
						"details": "Constructor, takes maximum amount of wei accepted in the crowdsale.",
						"params": {
							"inCap": "Max amount of wei to be contributed",
							"inRate": "The rate of the crowdsale",
							"inToken": "The token contract address",
							"inWallet": "The wallet address to receive the funds"
						}
					},
					"rate()": {
						"returns": {
							"_0": "the number of token units a buyer gets per wei."
						}
					},
					"token()": {
						"returns": {
							"_0": "the token being sold."
						}
					},
					"wallet()": {
						"returns": {
							"_0": "the address where funds are collected."
						}
					},
					"weiRaised()": {
						"returns": {
							"_0": "the amount of wei raised."
						}
					}
				},
				"title": "CappedCrowdsale",
				"version": 1
			},
			"evm": {
				"assembly": "    /* \"crowdsale/validation/cappedCrowdsale.sol\":252:1725  contract CappedCrowdsale is Crowdsale {... */\n  mstore(0x40, 0x80)\n    /* \"crowdsale/validation/cappedCrowdsale.sol\":679:907  constructor (uint256 inCap, uint256 inRate, address payable inWallet, IERC20 inToken) ... */\n  callvalue\n  dup1\n  iszero\n  tag_1\n  jumpi\n  0x00\n  dup1\n  revert\ntag_1:\n  pop\n  mload(0x40)\n  sub(codesize, bytecodeSize)\n  dup1\n  bytecodeSize\n  dup4\n  codecopy\n  dup2\n  dup2\n  add\n  0x40\n  mstore\n  dup2\n  add\n  swap1\n  tag_2\n  swap2\n  swap1\n  tag_3\n  jump\t// in\ntag_2:\n    /* \"crowdsale/validation/cappedCrowdsale.sol\":785:791  inRate */\n  dup3\n    /* \"crowdsale/validation/cappedCrowdsale.sol\":793:801  inWallet */\n  dup3\n    /* \"crowdsale/validation/cappedCrowdsale.sol\":803:810  inToken */\n  dup3\n    /* \"@openzeppelin/contracts/security/ReentrancyGuard.sol\":1716:1717  1 */\n  0x01\n    /* \"@openzeppelin/contracts/security/ReentrancyGuard.sol\":1821:1828  _status */\n  0x00\n    /* \"@openzeppelin/contracts/security/ReentrancyGuard.sol\":1821:1843  _status = _NOT_ENTERED */\n  dup2\n  swap1\n  sstore\n  pop\n    /* \"crowdsale/crowdsale.sol\":2644:2645  0 */\n  0x00\n    /* \"crowdsale/crowdsale.sol\":2635:2641  inRate */\n  dup4\n    /* \"crowdsale/crowdsale.sol\":2635:2645  inRate > 0 */\n  gt\n    /* \"crowdsale/crowdsale.sol\":2627:2670  require(inRate > 0, \"Crowdsale: rate is 0\") */\n  tag_9\n  jumpi\n  mload(0x40)\n  0x08c379a000000000000000000000000000000000000000000000000000000000\n  dup2\n  mstore\n  0x04\n  add\n  tag_10\n  swap1\n  tag_11\n  jump\t// in\ntag_10:\n  mload(0x40)\n  dup1\n  swap2\n  sub\n  swap1\n  revert\ntag_9:\n    /* \"crowdsale/crowdsale.sol\":2709:2710  0 */\n  0x00\n    /* \"crowdsale/crowdsale.sol\":2689:2711  inWallet != address(0) */\n  0xffffffffffffffffffffffffffffffffffffffff\n  and\n    /* \"crowdsale/crowdsale.sol\":2689:2697  inWallet */\n  dup3\n    /* \"crowdsale/crowdsale.sol\":2689:2711  inWallet != address(0) */\n  0xffffffffffffffffffffffffffffffffffffffff\n  and\n  sub\n    /* \"crowdsale/crowdsale.sol\":2681:2753  require(inWallet != address(0), \"Crowdsale: wallet is the zero address\") */\n  tag_12\n  jumpi\n  mload(0x40)\n  0x08c379a000000000000000000000000000000000000000000000000000000000\n  dup2\n  mstore\n  0x04\n  add\n  tag_13\n  swap1\n  tag_14\n  jump\t// in\ntag_13:\n  mload(0x40)\n  dup1\n  swap2\n  sub\n  swap1\n  revert\ntag_12:\n    /* \"crowdsale/crowdsale.sol\":2800:2801  0 */\n  0x00\n    /* \"crowdsale/crowdsale.sol\":2772:2802  address(inToken) != address(0) */\n  0xffffffffffffffffffffffffffffffffffffffff\n  and\n    /* \"crowdsale/crowdsale.sol\":2780:2787  inToken */\n  dup2\n    /* \"crowdsale/crowdsale.sol\":2772:2802  address(inToken) != address(0) */\n  0xffffffffffffffffffffffffffffffffffffffff\n  and\n  sub\n    /* \"crowdsale/crowdsale.sol\":2764:2843  require(address(inToken) != address(0), \"Crowdsale: token is the zero address\") */\n  tag_15\n  jumpi\n  mload(0x40)\n  0x08c379a000000000000000000000000000000000000000000000000000000000\n  dup2\n  mstore\n  0x04\n  add\n  tag_16\n  swap1\n  tag_17\n  jump\t// in\ntag_16:\n  mload(0x40)\n  dup1\n  swap2\n  sub\n  swap1\n  revert\ntag_15:\n    /* \"crowdsale/crowdsale.sol\":2864:2870  inRate */\n  dup3\n    /* \"crowdsale/crowdsale.sol\":2856:2861  _rate */\n  0x03\n    /* \"crowdsale/crowdsale.sol\":2856:2870  _rate = inRate */\n  dup2\n  swap1\n  sstore\n  pop\n    /* \"crowdsale/crowdsale.sol\":2891:2899  inWallet */\n  dup2\n    /* \"crowdsale/crowdsale.sol\":2881:2888  _wallet */\n  0x02\n  0x00\n    /* \"crowdsale/crowdsale.sol\":2881:2899  _wallet = inWallet */\n  0x0100\n  exp\n  dup2\n  sload\n  dup2\n  0xffffffffffffffffffffffffffffffffffffffff\n  mul\n  not\n  and\n  swap1\n  dup4\n  0xffffffffffffffffffffffffffffffffffffffff\n  and\n  mul\n  or\n  swap1\n  sstore\n  pop\n    /* \"crowdsale/crowdsale.sol\":2919:2926  inToken */\n  dup1\n    /* \"crowdsale/crowdsale.sol\":2910:2916  _token */\n  0x01\n  0x00\n    /* \"crowdsale/crowdsale.sol\":2910:2926  _token = inToken */\n  0x0100\n  exp\n  dup2\n  sload\n  dup2\n  0xffffffffffffffffffffffffffffffffffffffff\n  mul\n  not\n  and\n  swap1\n  dup4\n  0xffffffffffffffffffffffffffffffffffffffff\n  and\n  mul\n  or\n  swap1\n  sstore\n  pop\n    /* \"crowdsale/crowdsale.sol\":2545:2934  constructor (uint256 inRate, address payable inWallet, IERC20 inToken) {... */\n  pop\n  pop\n  pop\n    /* \"crowdsale/validation/cappedCrowdsale.sol\":845:846  0 */\n  0x00\n    /* \"crowdsale/validation/cappedCrowdsale.sol\":837:842  inCap */\n  dup5\n    /* \"crowdsale/validation/cappedCrowdsale.sol\":837:846  inCap > 0 */\n  gt\n    /* \"crowdsale/validation/cappedCrowdsale.sol\":829:876  require(inCap > 0, \"CappedCrowdsale: cap is 0\") */\n  tag_19\n  jumpi\n  mload(0x40)\n  0x08c379a000000000000000000000000000000000000000000000000000000000\n  dup2\n  mstore\n  0x04\n  add\n  tag_20\n  swap1\n  tag_21\n  jump\t// in\ntag_20:\n  mload(0x40)\n  dup1\n  swap2\n  sub\n  swap1\n  revert\ntag_19:\n    /* \"crowdsale/validation/cappedCrowdsale.sol\":894:899  inCap */\n  dup4\n    /* \"crowdsale/validation/cappedCrowdsale.sol\":887:891  _cap */\n  0x05\n    /* \"crowdsale/validation/cappedCrowdsale.sol\":887:899  _cap = inCap */\n  dup2\n  swap1\n  sstore\n  pop\n    /* \"crowdsale/validation/cappedCrowdsale.sol\":679:907  constructor (uint256 inCap, uint256 inRate, address payable inWallet, IERC20 inToken) ... */\n  pop\n  pop\n  pop\n  pop\n    /* \"crowdsale/validation/cappedCrowdsale.sol\":252:1725  contract CappedCrowdsale is Crowdsale {... */\n  jump(tag_22)\n    /* \"#utility.yul\":88:205   */\ntag_24:\n    /* \"#utility.yul\":197:198   */\n  0x00\n    /* \"#utility.yul\":194:195   */\n  dup1\n    /* \"#utility.yul\":187:199   */\n  revert\n    /* \"#utility.yul\":334:411   */\ntag_26:\n    /* \"#utility.yul\":371:378   */\n  0x00\n    /* \"#utility.yul\":400:405   */\n  dup2\n    /* \"#utility.yul\":389:405   */\n  swap1\n  pop\n    /* \"#utility.yul\":334:411   */\n  swap2\n  swap1\n  pop\n  jump\t// out\n    /* \"#utility.yul\":417:539   */\ntag_27:\n    /* \"#utility.yul\":490:514   */\n  tag_52\n    /* \"#utility.yul\":508:513   */\n  dup2\n    /* \"#utility.yul\":490:514   */\n  tag_26\n  jump\t// in\ntag_52:\n    /* \"#utility.yul\":483:488   */\n  dup2\n    /* \"#utility.yul\":480:515   */\n  eq\n    /* \"#utility.yul\":470:533   */\n  tag_53\n  jumpi\n    /* \"#utility.yul\":529:530   */\n  0x00\n    /* \"#utility.yul\":526:527   */\n  dup1\n    /* \"#utility.yul\":519:531   */\n  revert\n    /* \"#utility.yul\":470:533   */\ntag_53:\n    /* \"#utility.yul\":417:539   */\n  pop\n  jump\t// out\n    /* \"#utility.yul\":545:688   */\ntag_28:\n    /* \"#utility.yul\":602:607   */\n  0x00\n    /* \"#utility.yul\":633:639   */\n  dup2\n    /* \"#utility.yul\":627:640   */\n  mload\n    /* \"#utility.yul\":618:640   */\n  swap1\n  pop\n    /* \"#utility.yul\":649:682   */\n  tag_55\n    /* \"#utility.yul\":676:681   */\n  dup2\n    /* \"#utility.yul\":649:682   */\n  tag_27\n  jump\t// in\ntag_55:\n    /* \"#utility.yul\":545:688   */\n  swap3\n  swap2\n  pop\n  pop\n  jump\t// out\n    /* \"#utility.yul\":694:820   */\ntag_29:\n    /* \"#utility.yul\":731:738   */\n  0x00\n    /* \"#utility.yul\":771:813   */\n  0xffffffffffffffffffffffffffffffffffffffff\n    /* \"#utility.yul\":764:769   */\n  dup3\n    /* \"#utility.yul\":760:814   */\n  and\n    /* \"#utility.yul\":749:814   */\n  swap1\n  pop\n    /* \"#utility.yul\":694:820   */\n  swap2\n  swap1\n  pop\n  jump\t// out\n    /* \"#utility.yul\":826:930   */\ntag_30:\n    /* \"#utility.yul\":871:878   */\n  0x00\n    /* \"#utility.yul\":900:924   */\n  tag_58\n    /* \"#utility.yul\":918:923   */\n  dup3\n    /* \"#utility.yul\":900:924   */\n  tag_29\n  jump\t// in\ntag_58:\n    /* \"#utility.yul\":889:924   */\n  swap1\n  pop\n    /* \"#utility.yul\":826:930   */\n  swap2\n  swap1\n  pop\n  jump\t// out\n    /* \"#utility.yul\":936:1074   */\ntag_31:\n    /* \"#utility.yul\":1017:1049   */\n  tag_60\n    /* \"#utility.yul\":1043:1048   */\n  dup2\n    /* \"#utility.yul\":1017:1049   */\n  tag_30\n  jump\t// in\ntag_60:\n    /* \"#utility.yul\":1010:1015   */\n  dup2\n    /* \"#utility.yul\":1007:1050   */\n  eq\n    /* \"#utility.yul\":997:1068   */\n  tag_61\n  jumpi\n    /* \"#utility.yul\":1064:1065   */\n  0x00\n    /* \"#utility.yul\":1061:1062   */\n  dup1\n    /* \"#utility.yul\":1054:1066   */\n  revert\n    /* \"#utility.yul\":997:1068   */\ntag_61:\n    /* \"#utility.yul\":936:1074   */\n  pop\n  jump\t// out\n    /* \"#utility.yul\":1080:1239   */\ntag_32:\n    /* \"#utility.yul\":1145:1150   */\n  0x00\n    /* \"#utility.yul\":1176:1182   */\n  dup2\n    /* \"#utility.yul\":1170:1183   */\n  mload\n    /* \"#utility.yul\":1161:1183   */\n  swap1\n  pop\n    /* \"#utility.yul\":1192:1233   */\n  tag_63\n    /* \"#utility.yul\":1227:1232   */\n  dup2\n    /* \"#utility.yul\":1192:1233   */\n  tag_31\n  jump\t// in\ntag_63:\n    /* \"#utility.yul\":1080:1239   */\n  swap3\n  swap2\n  pop\n  pop\n  jump\t// out\n    /* \"#utility.yul\":1245:1341   */\ntag_33:\n    /* \"#utility.yul\":1282:1289   */\n  0x00\n    /* \"#utility.yul\":1311:1335   */\n  tag_65\n    /* \"#utility.yul\":1329:1334   */\n  dup3\n    /* \"#utility.yul\":1311:1335   */\n  tag_29\n  jump\t// in\ntag_65:\n    /* \"#utility.yul\":1300:1335   */\n  swap1\n  pop\n    /* \"#utility.yul\":1245:1341   */\n  swap2\n  swap1\n  pop\n  jump\t// out\n    /* \"#utility.yul\":1347:1457   */\ntag_34:\n    /* \"#utility.yul\":1398:1405   */\n  0x00\n    /* \"#utility.yul\":1427:1451   */\n  tag_67\n    /* \"#utility.yul\":1445:1450   */\n  dup3\n    /* \"#utility.yul\":1427:1451   */\n  tag_33\n  jump\t// in\ntag_67:\n    /* \"#utility.yul\":1416:1451   */\n  swap1\n  pop\n    /* \"#utility.yul\":1347:1457   */\n  swap2\n  swap1\n  pop\n  jump\t// out\n    /* \"#utility.yul\":1463:1613   */\ntag_35:\n    /* \"#utility.yul\":1550:1588   */\n  tag_69\n    /* \"#utility.yul\":1582:1587   */\n  dup2\n    /* \"#utility.yul\":1550:1588   */\n  tag_34\n  jump\t// in\ntag_69:\n    /* \"#utility.yul\":1543:1548   */\n  dup2\n    /* \"#utility.yul\":1540:1589   */\n  eq\n    /* \"#utility.yul\":1530:1607   */\n  tag_70\n  jumpi\n    /* \"#utility.yul\":1603:1604   */\n  0x00\n    /* \"#utility.yul\":1600:1601   */\n  dup1\n    /* \"#utility.yul\":1593:1605   */\n  revert\n    /* \"#utility.yul\":1530:1607   */\ntag_70:\n    /* \"#utility.yul\":1463:1613   */\n  pop\n  jump\t// out\n    /* \"#utility.yul\":1619:1790   */\ntag_36:\n    /* \"#utility.yul\":1690:1695   */\n  0x00\n    /* \"#utility.yul\":1721:1727   */\n  dup2\n    /* \"#utility.yul\":1715:1728   */\n  mload\n    /* \"#utility.yul\":1706:1728   */\n  swap1\n  pop\n    /* \"#utility.yul\":1737:1784   */\n  tag_72\n    /* \"#utility.yul\":1778:1783   */\n  dup2\n    /* \"#utility.yul\":1737:1784   */\n  tag_35\n  jump\t// in\ntag_72:\n    /* \"#utility.yul\":1619:1790   */\n  swap3\n  swap2\n  pop\n  pop\n  jump\t// out\n    /* \"#utility.yul\":1796:2660   */\ntag_3:\n    /* \"#utility.yul\":1915:1921   */\n  0x00\n    /* \"#utility.yul\":1923:1929   */\n  dup1\n    /* \"#utility.yul\":1931:1937   */\n  0x00\n    /* \"#utility.yul\":1939:1945   */\n  dup1\n    /* \"#utility.yul\":1988:1991   */\n  0x80\n    /* \"#utility.yul\":1976:1985   */\n  dup6\n    /* \"#utility.yul\":1967:1974   */\n  dup8\n    /* \"#utility.yul\":1963:1986   */\n  sub\n    /* \"#utility.yul\":1959:1992   */\n  slt\n    /* \"#utility.yul\":1956:2076   */\n  iszero\n  tag_74\n  jumpi\n    /* \"#utility.yul\":1995:2074   */\n  tag_75\n  tag_24\n  jump\t// in\ntag_75:\n    /* \"#utility.yul\":1956:2076   */\ntag_74:\n    /* \"#utility.yul\":2115:2116   */\n  0x00\n    /* \"#utility.yul\":2140:2204   */\n  tag_76\n    /* \"#utility.yul\":2196:2203   */\n  dup8\n    /* \"#utility.yul\":2187:2193   */\n  dup3\n    /* \"#utility.yul\":2176:2185   */\n  dup9\n    /* \"#utility.yul\":2172:2194   */\n  add\n    /* \"#utility.yul\":2140:2204   */\n  tag_28\n  jump\t// in\ntag_76:\n    /* \"#utility.yul\":2130:2204   */\n  swap5\n  pop\n    /* \"#utility.yul\":2086:2214   */\n  pop\n    /* \"#utility.yul\":2253:2255   */\n  0x20\n    /* \"#utility.yul\":2279:2343   */\n  tag_77\n    /* \"#utility.yul\":2335:2342   */\n  dup8\n    /* \"#utility.yul\":2326:2332   */\n  dup3\n    /* \"#utility.yul\":2315:2324   */\n  dup9\n    /* \"#utility.yul\":2311:2333   */\n  add\n    /* \"#utility.yul\":2279:2343   */\n  tag_28\n  jump\t// in\ntag_77:\n    /* \"#utility.yul\":2269:2343   */\n  swap4\n  pop\n    /* \"#utility.yul\":2224:2353   */\n  pop\n    /* \"#utility.yul\":2392:2394   */\n  0x40\n    /* \"#utility.yul\":2418:2490   */\n  tag_78\n    /* \"#utility.yul\":2482:2489   */\n  dup8\n    /* \"#utility.yul\":2473:2479   */\n  dup3\n    /* \"#utility.yul\":2462:2471   */\n  dup9\n    /* \"#utility.yul\":2458:2480   */\n  add\n    /* \"#utility.yul\":2418:2490   */\n  tag_32\n  jump\t// in\ntag_78:\n    /* \"#utility.yul\":2408:2490   */\n  swap3\n  pop\n    /* \"#utility.yul\":2363:2500   */\n  pop\n    /* \"#utility.yul\":2539:2541   */\n  0x60\n    /* \"#utility.yul\":2565:2643   */\n  tag_79\n    /* \"#utility.yul\":2635:2642   */\n  dup8\n    /* \"#utility.yul\":2626:2632   */\n  dup3\n    /* \"#utility.yul\":2615:2624   */\n  dup9\n    /* \"#utility.yul\":2611:2633   */\n  add\n    /* \"#utility.yul\":2565:2643   */\n  tag_36\n  jump\t// in\ntag_79:\n    /* \"#utility.yul\":2555:2643   */\n  swap2\n  pop\n    /* \"#utility.yul\":2510:2653   */\n  pop\n    /* \"#utility.yul\":1796:2660   */\n  swap3\n  swap6\n  swap2\n  swap5\n  pop\n  swap3\n  pop\n  jump\t// out\n    /* \"#utility.yul\":2666:2835   */\ntag_37:\n    /* \"#utility.yul\":2750:2761   */\n  0x00\n    /* \"#utility.yul\":2784:2790   */\n  dup3\n    /* \"#utility.yul\":2779:2782   */\n  dup3\n    /* \"#utility.yul\":2772:2791   */\n  mstore\n    /* \"#utility.yul\":2824:2828   */\n  0x20\n    /* \"#utility.yul\":2819:2822   */\n  dup3\n    /* \"#utility.yul\":2815:2829   */\n  add\n    /* \"#utility.yul\":2800:2829   */\n  swap1\n  pop\n    /* \"#utility.yul\":2666:2835   */\n  swap3\n  swap2\n  pop\n  pop\n  jump\t// out\n    /* \"#utility.yul\":2841:3011   */\ntag_38:\n    /* \"#utility.yul\":2981:3003   */\n  0x43726f776473616c653a20726174652069732030000000000000000000000000\n    /* \"#utility.yul\":2977:2978   */\n  0x00\n    /* \"#utility.yul\":2969:2975   */\n  dup3\n    /* \"#utility.yul\":2965:2979   */\n  add\n    /* \"#utility.yul\":2958:3004   */\n  mstore\n    /* \"#utility.yul\":2841:3011   */\n  pop\n  jump\t// out\n    /* \"#utility.yul\":3017:3383   */\ntag_39:\n    /* \"#utility.yul\":3159:3162   */\n  0x00\n    /* \"#utility.yul\":3180:3247   */\n  tag_83\n    /* \"#utility.yul\":3244:3246   */\n  0x14\n    /* \"#utility.yul\":3239:3242   */\n  dup4\n    /* \"#utility.yul\":3180:3247   */\n  tag_37\n  jump\t// in\ntag_83:\n    /* \"#utility.yul\":3173:3247   */\n  swap2\n  pop\n    /* \"#utility.yul\":3256:3349   */\n  tag_84\n    /* \"#utility.yul\":3345:3348   */\n  dup3\n    /* \"#utility.yul\":3256:3349   */\n  tag_38\n  jump\t// in\ntag_84:\n    /* \"#utility.yul\":3374:3376   */\n  0x20\n    /* \"#utility.yul\":3369:3372   */\n  dup3\n    /* \"#utility.yul\":3365:3377   */\n  add\n    /* \"#utility.yul\":3358:3377   */\n  swap1\n  pop\n    /* \"#utility.yul\":3017:3383   */\n  swap2\n  swap1\n  pop\n  jump\t// out\n    /* \"#utility.yul\":3389:3808   */\ntag_11:\n    /* \"#utility.yul\":3555:3559   */\n  0x00\n    /* \"#utility.yul\":3593:3595   */\n  0x20\n    /* \"#utility.yul\":3582:3591   */\n  dup3\n    /* \"#utility.yul\":3578:3596   */\n  add\n    /* \"#utility.yul\":3570:3596   */\n  swap1\n  pop\n    /* \"#utility.yul\":3642:3651   */\n  dup2\n    /* \"#utility.yul\":3636:3640   */\n  dup2\n    /* \"#utility.yul\":3632:3652   */\n  sub\n    /* \"#utility.yul\":3628:3629   */\n  0x00\n    /* \"#utility.yul\":3617:3626   */\n  dup4\n    /* \"#utility.yul\":3613:3630   */\n  add\n    /* \"#utility.yul\":3606:3653   */\n  mstore\n    /* \"#utility.yul\":3670:3801   */\n  tag_86\n    /* \"#utility.yul\":3796:3800   */\n  dup2\n    /* \"#utility.yul\":3670:3801   */\n  tag_39\n  jump\t// in\ntag_86:\n    /* \"#utility.yul\":3662:3801   */\n  swap1\n  pop\n    /* \"#utility.yul\":3389:3808   */\n  swap2\n  swap1\n  pop\n  jump\t// out\n    /* \"#utility.yul\":3814:4038   */\ntag_40:\n    /* \"#utility.yul\":3954:3988   */\n  0x43726f776473616c653a2077616c6c657420697320746865207a65726f206164\n    /* \"#utility.yul\":3950:3951   */\n  0x00\n    /* \"#utility.yul\":3942:3948   */\n  dup3\n    /* \"#utility.yul\":3938:3952   */\n  add\n    /* \"#utility.yul\":3931:3989   */\n  mstore\n    /* \"#utility.yul\":4023:4030   */\n  0x6472657373000000000000000000000000000000000000000000000000000000\n    /* \"#utility.yul\":4018:4020   */\n  0x20\n    /* \"#utility.yul\":4010:4016   */\n  dup3\n    /* \"#utility.yul\":4006:4021   */\n  add\n    /* \"#utility.yul\":3999:4031   */\n  mstore\n    /* \"#utility.yul\":3814:4038   */\n  pop\n  jump\t// out\n    /* \"#utility.yul\":4044:4410   */\ntag_41:\n    /* \"#utility.yul\":4186:4189   */\n  0x00\n    /* \"#utility.yul\":4207:4274   */\n  tag_89\n    /* \"#utility.yul\":4271:4273   */\n  0x25\n    /* \"#utility.yul\":4266:4269   */\n  dup4\n    /* \"#utility.yul\":4207:4274   */\n  tag_37\n  jump\t// in\ntag_89:\n    /* \"#utility.yul\":4200:4274   */\n  swap2\n  pop\n    /* \"#utility.yul\":4283:4376   */\n  tag_90\n    /* \"#utility.yul\":4372:4375   */\n  dup3\n    /* \"#utility.yul\":4283:4376   */\n  tag_40\n  jump\t// in\ntag_90:\n    /* \"#utility.yul\":4401:4403   */\n  0x40\n    /* \"#utility.yul\":4396:4399   */\n  dup3\n    /* \"#utility.yul\":4392:4404   */\n  add\n    /* \"#utility.yul\":4385:4404   */\n  swap1\n  pop\n    /* \"#utility.yul\":4044:4410   */\n  swap2\n  swap1\n  pop\n  jump\t// out\n    /* \"#utility.yul\":4416:4835   */\ntag_14:\n    /* \"#utility.yul\":4582:4586   */\n  0x00\n    /* \"#utility.yul\":4620:4622   */\n  0x20\n    /* \"#utility.yul\":4609:4618   */\n  dup3\n    /* \"#utility.yul\":4605:4623   */\n  add\n    /* \"#utility.yul\":4597:4623   */\n  swap1\n  pop\n    /* \"#utility.yul\":4669:4678   */\n  dup2\n    /* \"#utility.yul\":4663:4667   */\n  dup2\n    /* \"#utility.yul\":4659:4679   */\n  sub\n    /* \"#utility.yul\":4655:4656   */\n  0x00\n    /* \"#utility.yul\":4644:4653   */\n  dup4\n    /* \"#utility.yul\":4640:4657   */\n  add\n    /* \"#utility.yul\":4633:4680   */\n  mstore\n    /* \"#utility.yul\":4697:4828   */\n  tag_92\n    /* \"#utility.yul\":4823:4827   */\n  dup2\n    /* \"#utility.yul\":4697:4828   */\n  tag_41\n  jump\t// in\ntag_92:\n    /* \"#utility.yul\":4689:4828   */\n  swap1\n  pop\n    /* \"#utility.yul\":4416:4835   */\n  swap2\n  swap1\n  pop\n  jump\t// out\n    /* \"#utility.yul\":4841:5064   */\ntag_42:\n    /* \"#utility.yul\":4981:5015   */\n  0x43726f776473616c653a20746f6b656e20697320746865207a65726f20616464\n    /* \"#utility.yul\":4977:4978   */\n  0x00\n    /* \"#utility.yul\":4969:4975   */\n  dup3\n    /* \"#utility.yul\":4965:4979   */\n  add\n    /* \"#utility.yul\":4958:5016   */\n  mstore\n    /* \"#utility.yul\":5050:5056   */\n  0x7265737300000000000000000000000000000000000000000000000000000000\n    /* \"#utility.yul\":5045:5047   */\n  0x20\n    /* \"#utility.yul\":5037:5043   */\n  dup3\n    /* \"#utility.yul\":5033:5048   */\n  add\n    /* \"#utility.yul\":5026:5057   */\n  mstore\n    /* \"#utility.yul\":4841:5064   */\n  pop\n  jump\t// out\n    /* \"#utility.yul\":5070:5436   */\ntag_43:\n    /* \"#utility.yul\":5212:5215   */\n  0x00\n    /* \"#utility.yul\":5233:5300   */\n  tag_95\n    /* \"#utility.yul\":5297:5299   */\n  0x24\n    /* \"#utility.yul\":5292:5295   */\n  dup4\n    /* \"#utility.yul\":5233:5300   */\n  tag_37\n  jump\t// in\ntag_95:\n    /* \"#utility.yul\":5226:5300   */\n  swap2\n  pop\n    /* \"#utility.yul\":5309:5402   */\n  tag_96\n    /* \"#utility.yul\":5398:5401   */\n  dup3\n    /* \"#utility.yul\":5309:5402   */\n  tag_42\n  jump\t// in\ntag_96:\n    /* \"#utility.yul\":5427:5429   */\n  0x40\n    /* \"#utility.yul\":5422:5425   */\n  dup3\n    /* \"#utility.yul\":5418:5430   */\n  add\n    /* \"#utility.yul\":5411:5430   */\n  swap1\n  pop\n    /* \"#utility.yul\":5070:5436   */\n  swap2\n  swap1\n  pop\n  jump\t// out\n    /* \"#utility.yul\":5442:5861   */\ntag_17:\n    /* \"#utility.yul\":5608:5612   */\n  0x00\n    /* \"#utility.yul\":5646:5648   */\n  0x20\n    /* \"#utility.yul\":5635:5644   */\n  dup3\n    /* \"#utility.yul\":5631:5649   */\n  add\n    /* \"#utility.yul\":5623:5649   */\n  swap1\n  pop\n    /* \"#utility.yul\":5695:5704   */\n  dup2\n    /* \"#utility.yul\":5689:5693   */\n  dup2\n    /* \"#utility.yul\":5685:5705   */\n  sub\n    /* \"#utility.yul\":5681:5682   */\n  0x00\n    /* \"#utility.yul\":5670:5679   */\n  dup4\n    /* \"#utility.yul\":5666:5683   */\n  add\n    /* \"#utility.yul\":5659:5706   */\n  mstore\n    /* \"#utility.yul\":5723:5854   */\n  tag_98\n    /* \"#utility.yul\":5849:5853   */\n  dup2\n    /* \"#utility.yul\":5723:5854   */\n  tag_43\n  jump\t// in\ntag_98:\n    /* \"#utility.yul\":5715:5854   */\n  swap1\n  pop\n    /* \"#utility.yul\":5442:5861   */\n  swap2\n  swap1\n  pop\n  jump\t// out\n    /* \"#utility.yul\":5867:6042   */\ntag_44:\n    /* \"#utility.yul\":6007:6034   */\n  0x43617070656443726f776473616c653a20636170206973203000000000000000\n    /* \"#utility.yul\":6003:6004   */\n  0x00\n    /* \"#utility.yul\":5995:6001   */\n  dup3\n    /* \"#utility.yul\":5991:6005   */\n  add\n    /* \"#utility.yul\":5984:6035   */\n  mstore\n    /* \"#utility.yul\":5867:6042   */\n  pop\n  jump\t// out\n    /* \"#utility.yul\":6048:6414   */\ntag_45:\n    /* \"#utility.yul\":6190:6193   */\n  0x00\n    /* \"#utility.yul\":6211:6278   */\n  tag_101\n    /* \"#utility.yul\":6275:6277   */\n  0x19\n    /* \"#utility.yul\":6270:6273   */\n  dup4\n    /* \"#utility.yul\":6211:6278   */\n  tag_37\n  jump\t// in\ntag_101:\n    /* \"#utility.yul\":6204:6278   */\n  swap2\n  pop\n    /* \"#utility.yul\":6287:6380   */\n  tag_102\n    /* \"#utility.yul\":6376:6379   */\n  dup3\n    /* \"#utility.yul\":6287:6380   */\n  tag_44\n  jump\t// in\ntag_102:\n    /* \"#utility.yul\":6405:6407   */\n  0x20\n    /* \"#utility.yul\":6400:6403   */\n  dup3\n    /* \"#utility.yul\":6396:6408   */\n  add\n    /* \"#utility.yul\":6389:6408   */\n  swap1\n  pop\n    /* \"#utility.yul\":6048:6414   */\n  swap2\n  swap1\n  pop\n  jump\t// out\n    /* \"#utility.yul\":6420:6839   */\ntag_21:\n    /* \"#utility.yul\":6586:6590   */\n  0x00\n    /* \"#utility.yul\":6624:6626   */\n  0x20\n    /* \"#utility.yul\":6613:6622   */\n  dup3\n    /* \"#utility.yul\":6609:6627   */\n  add\n    /* \"#utility.yul\":6601:6627   */\n  swap1\n  pop\n    /* \"#utility.yul\":6673:6682   */\n  dup2\n    /* \"#utility.yul\":6667:6671   */\n  dup2\n    /* \"#utility.yul\":6663:6683   */\n  sub\n    /* \"#utility.yul\":6659:6660   */\n  0x00\n    /* \"#utility.yul\":6648:6657   */\n  dup4\n    /* \"#utility.yul\":6644:6661   */\n  add\n    /* \"#utility.yul\":6637:6684   */\n  mstore\n    /* \"#utility.yul\":6701:6832   */\n  tag_104\n    /* \"#utility.yul\":6827:6831   */\n  dup2\n    /* \"#utility.yul\":6701:6832   */\n  tag_45\n  jump\t// in\ntag_104:\n    /* \"#utility.yul\":6693:6832   */\n  swap1\n  pop\n    /* \"#utility.yul\":6420:6839   */\n  swap2\n  swap1\n  pop\n  jump\t// out\n    /* \"crowdsale/validation/cappedCrowdsale.sol\":252:1725  contract CappedCrowdsale is Crowdsale {... */\ntag_22:\n  dataSize(sub_0)\n  dup1\n  dataOffset(sub_0)\n  0x00\n  codecopy\n  0x00\n  return\nstop\n\nsub_0: assembly {\n        /* \"crowdsale/validation/cappedCrowdsale.sol\":252:1725  contract CappedCrowdsale is Crowdsale {... */\n      mstore(0x40, 0x80)\n      jumpi(tag_1, lt(calldatasize, 0x04))\n      shr(0xe0, calldataload(0x00))\n      dup1\n      0x4f935945\n      gt\n      tag_10\n      jumpi\n      dup1\n      0x4f935945\n      eq\n      tag_6\n      jumpi\n      dup1\n      0x521eb273\n      eq\n      tag_7\n      jumpi\n      dup1\n      0xec8ac4d8\n      eq\n      tag_8\n      jumpi\n      dup1\n      0xfc0c546a\n      eq\n      tag_9\n      jumpi\n      jump(tag_2)\n    tag_10:\n      dup1\n      0x2c4e722e\n      eq\n      tag_3\n      jumpi\n      dup1\n      0x355274ea\n      eq\n      tag_4\n      jumpi\n      dup1\n      0x4042b66f\n      eq\n      tag_5\n      jumpi\n      jump(tag_2)\n    tag_1:\n      jumpi(tag_2, calldatasize)\n        /* \"crowdsale/crowdsale.sol\":3351:3374  buyTokens(_msgSender()) */\n      tag_13\n        /* \"crowdsale/crowdsale.sol\":3361:3373  _msgSender() */\n      tag_14\n        /* \"crowdsale/crowdsale.sol\":3361:3371  _msgSender */\n      tag_15\n        /* \"crowdsale/crowdsale.sol\":3361:3373  _msgSender() */\n      jump\t// in\n    tag_14:\n        /* \"crowdsale/crowdsale.sol\":3351:3360  buyTokens */\n      tag_16\n        /* \"crowdsale/crowdsale.sol\":3351:3374  buyTokens(_msgSender()) */\n      jump\t// in\n    tag_13:\n        /* \"crowdsale/validation/cappedCrowdsale.sol\":252:1725  contract CappedCrowdsale is Crowdsale {... */\n      stop\n    tag_2:\n        /* \"crowdsale/crowdsale.sol\":3270:3293  buyTokens(_msgSender()) */\n      tag_19\n        /* \"crowdsale/crowdsale.sol\":3280:3292  _msgSender() */\n      tag_20\n        /* \"crowdsale/crowdsale.sol\":3280:3290  _msgSender */\n      tag_15\n        /* \"crowdsale/crowdsale.sol\":3280:3292  _msgSender() */\n      jump\t// in\n    tag_20:\n        /* \"crowdsale/crowdsale.sol\":3270:3279  buyTokens */\n      tag_16\n        /* \"crowdsale/crowdsale.sol\":3270:3293  buyTokens(_msgSender()) */\n      jump\t// in\n    tag_19:\n        /* \"crowdsale/validation/cappedCrowdsale.sol\":252:1725  contract CappedCrowdsale is Crowdsale {... */\n      stop\n        /* \"crowdsale/crowdsale.sol\":3784:3869  function rate() public virtual view returns (uint256) {... */\n    tag_3:\n      callvalue\n      dup1\n      iszero\n      tag_21\n      jumpi\n      0x00\n      dup1\n      revert\n    tag_21:\n      pop\n      tag_22\n      tag_23\n      jump\t// in\n    tag_22:\n      mload(0x40)\n      tag_24\n      swap2\n      swap1\n      tag_25\n      jump\t// in\n    tag_24:\n      mload(0x40)\n      dup1\n      swap2\n      sub\n      swap1\n      return\n        /* \"crowdsale/validation/cappedCrowdsale.sol\":977:1052  function cap() public view returns (uint256) {... */\n    tag_4:\n      callvalue\n      dup1\n      iszero\n      tag_26\n      jumpi\n      0x00\n      dup1\n      revert\n    tag_26:\n      pop\n      tag_27\n      tag_28\n      jump\t// in\n    tag_27:\n      mload(0x40)\n      tag_29\n      swap2\n      swap1\n      tag_25\n      jump\t// in\n    tag_29:\n      mload(0x40)\n      dup1\n      swap2\n      sub\n      swap1\n      return\n        /* \"crowdsale/crowdsale.sol\":3937:4024  function weiRaised() public view returns (uint256) {... */\n    tag_5:\n      callvalue\n      dup1\n      iszero\n      tag_30\n      jumpi\n      0x00\n      dup1\n      revert\n    tag_30:\n      pop\n      tag_31\n      tag_32\n      jump\t// in\n    tag_31:\n      mload(0x40)\n      tag_33\n      swap2\n      swap1\n      tag_25\n      jump\t// in\n    tag_33:\n      mload(0x40)\n      dup1\n      swap2\n      sub\n      swap1\n      return\n        /* \"crowdsale/validation/cappedCrowdsale.sol\":1176:1270  function capReached() public view returns (bool) {... */\n    tag_6:\n      callvalue\n      dup1\n      iszero\n      tag_34\n      jumpi\n      0x00\n      dup1\n      revert\n    tag_34:\n      pop\n      tag_35\n      tag_36\n      jump\t// in\n    tag_35:\n      mload(0x40)\n      tag_37\n      swap2\n      swap1\n      tag_38\n      jump\t// in\n    tag_37:\n      mload(0x40)\n      dup1\n      swap2\n      sub\n      swap1\n      return\n        /* \"crowdsale/crowdsale.sol\":3605:3694  function wallet() public view returns (address payable) {... */\n    tag_7:\n      callvalue\n      dup1\n      iszero\n      tag_39\n      jumpi\n      0x00\n      dup1\n      revert\n    tag_39:\n      pop\n      tag_40\n      tag_41\n      jump\t// in\n    tag_40:\n      mload(0x40)\n      tag_42\n      swap2\n      swap1\n      tag_43\n      jump\t// in\n    tag_42:\n      mload(0x40)\n      dup1\n      swap2\n      sub\n      swap1\n      return\n        /* \"crowdsale/crowdsale.sol\":4289:4911  function buyTokens(address beneficiary) public nonReentrant payable {... */\n    tag_8:\n      tag_44\n      0x04\n      dup1\n      calldatasize\n      sub\n      dup2\n      add\n      swap1\n      tag_45\n      swap2\n      swap1\n      tag_46\n      jump\t// in\n    tag_45:\n      tag_16\n      jump\t// in\n    tag_44:\n      stop\n        /* \"crowdsale/crowdsale.sol\":3446:3524  function token() public view returns (IERC20) {... */\n    tag_9:\n      callvalue\n      dup1\n      iszero\n      tag_47\n      jumpi\n      0x00\n      dup1\n      revert\n    tag_47:\n      pop\n      tag_48\n      tag_49\n      jump\t// in\n    tag_48:\n      mload(0x40)\n      tag_50\n      swap2\n      swap1\n      tag_51\n      jump\t// in\n    tag_50:\n      mload(0x40)\n      dup1\n      swap2\n      sub\n      swap1\n      return\n        /* \"@openzeppelin/contracts/utils/Context.sol\":656:752  function _msgSender() internal view virtual returns (address) {... */\n    tag_15:\n        /* \"@openzeppelin/contracts/utils/Context.sol\":709:716  address */\n      0x00\n        /* \"@openzeppelin/contracts/utils/Context.sol\":735:745  msg.sender */\n      caller\n        /* \"@openzeppelin/contracts/utils/Context.sol\":728:745  return msg.sender */\n      swap1\n      pop\n        /* \"@openzeppelin/contracts/utils/Context.sol\":656:752  function _msgSender() internal view virtual returns (address) {... */\n      swap1\n      jump\t// out\n        /* \"crowdsale/crowdsale.sol\":4289:4911  function buyTokens(address beneficiary) public nonReentrant payable {... */\n    tag_16:\n        /* \"@openzeppelin/contracts/security/ReentrancyGuard.sol\":2261:2282  _nonReentrantBefore() */\n      tag_54\n        /* \"@openzeppelin/contracts/security/ReentrancyGuard.sol\":2261:2280  _nonReentrantBefore */\n      tag_55\n        /* \"@openzeppelin/contracts/security/ReentrancyGuard.sol\":2261:2282  _nonReentrantBefore() */\n      jump\t// in\n    tag_54:\n        /* \"crowdsale/crowdsale.sol\":4368:4385  uint256 weiAmount */\n      0x00\n        /* \"crowdsale/crowdsale.sol\":4388:4397  msg.value */\n      callvalue\n        /* \"crowdsale/crowdsale.sol\":4368:4397  uint256 weiAmount = msg.value */\n      swap1\n      pop\n        /* \"crowdsale/crowdsale.sol\":4408:4452  _preValidatePurchase(beneficiary, weiAmount) */\n      tag_57\n        /* \"crowdsale/crowdsale.sol\":4429:4440  beneficiary */\n      dup3\n        /* \"crowdsale/crowdsale.sol\":4442:4451  weiAmount */\n      dup3\n        /* \"crowdsale/crowdsale.sol\":4408:4428  _preValidatePurchase */\n      tag_58\n        /* \"crowdsale/crowdsale.sol\":4408:4452  _preValidatePurchase(beneficiary, weiAmount) */\n      jump\t// in\n    tag_57:\n        /* \"crowdsale/crowdsale.sol\":4514:4528  uint256 tokens */\n      0x00\n        /* \"crowdsale/crowdsale.sol\":4531:4557  _getTokenAmount(weiAmount) */\n      tag_59\n        /* \"crowdsale/crowdsale.sol\":4547:4556  weiAmount */\n      dup3\n        /* \"crowdsale/crowdsale.sol\":4531:4546  _getTokenAmount */\n      tag_60\n        /* \"crowdsale/crowdsale.sol\":4531:4557  _getTokenAmount(weiAmount) */\n      jump\t// in\n    tag_59:\n        /* \"crowdsale/crowdsale.sol\":4514:4557  uint256 tokens = _getTokenAmount(weiAmount) */\n      swap1\n      pop\n        /* \"crowdsale/crowdsale.sol\":4608:4633  _weiRaised.add(weiAmount) */\n      tag_61\n        /* \"crowdsale/crowdsale.sol\":4623:4632  weiAmount */\n      dup3\n        /* \"crowdsale/crowdsale.sol\":4608:4618  _weiRaised */\n      sload(0x04)\n        /* \"crowdsale/crowdsale.sol\":4608:4622  _weiRaised.add */\n      tag_62\n      swap1\n        /* \"crowdsale/crowdsale.sol\":4608:4633  _weiRaised.add(weiAmount) */\n      swap2\n      swap1\n      0xffffffff\n      and\n      jump\t// in\n    tag_61:\n        /* \"crowdsale/crowdsale.sol\":4595:4605  _weiRaised */\n      0x04\n        /* \"crowdsale/crowdsale.sol\":4595:4633  _weiRaised = _weiRaised.add(weiAmount) */\n      dup2\n      swap1\n      sstore\n      pop\n        /* \"crowdsale/crowdsale.sol\":4646:4683  _processPurchase(beneficiary, tokens) */\n      tag_63\n        /* \"crowdsale/crowdsale.sol\":4663:4674  beneficiary */\n      dup4\n        /* \"crowdsale/crowdsale.sol\":4676:4682  tokens */\n      dup3\n        /* \"crowdsale/crowdsale.sol\":4646:4662  _processPurchase */\n      tag_64\n        /* \"crowdsale/crowdsale.sol\":4646:4683  _processPurchase(beneficiary, tokens) */\n      jump\t// in\n    tag_63:\n        /* \"crowdsale/crowdsale.sol\":4729:4740  beneficiary */\n      dup3\n        /* \"crowdsale/crowdsale.sol\":4699:4760  TokensPurchased(_msgSender(), beneficiary, weiAmount, tokens) */\n      0xffffffffffffffffffffffffffffffffffffffff\n      and\n        /* \"crowdsale/crowdsale.sol\":4715:4727  _msgSender() */\n      tag_65\n        /* \"crowdsale/crowdsale.sol\":4715:4725  _msgSender */\n      tag_15\n        /* \"crowdsale/crowdsale.sol\":4715:4727  _msgSender() */\n      jump\t// in\n    tag_65:\n        /* \"crowdsale/crowdsale.sol\":4699:4760  TokensPurchased(_msgSender(), beneficiary, weiAmount, tokens) */\n      0xffffffffffffffffffffffffffffffffffffffff\n      and\n      0x6faf93231a456e552dbc9961f58d9713ee4f2e69d15f1975b050ef0911053a7b\n        /* \"crowdsale/crowdsale.sol\":4742:4751  weiAmount */\n      dup5\n        /* \"crowdsale/crowdsale.sol\":4753:4759  tokens */\n      dup5\n        /* \"crowdsale/crowdsale.sol\":4699:4760  TokensPurchased(_msgSender(), beneficiary, weiAmount, tokens) */\n      mload(0x40)\n      tag_66\n      swap3\n      swap2\n      swap1\n      tag_67\n      jump\t// in\n    tag_66:\n      mload(0x40)\n      dup1\n      swap2\n      sub\n      swap1\n      log3\n        /* \"crowdsale/crowdsale.sol\":4773:4819  _updatePurchasingState(beneficiary, weiAmount) */\n      tag_68\n        /* \"crowdsale/crowdsale.sol\":4796:4807  beneficiary */\n      dup4\n        /* \"crowdsale/crowdsale.sol\":4809:4818  weiAmount */\n      dup4\n        /* \"crowdsale/crowdsale.sol\":4773:4795  _updatePurchasingState */\n      tag_69\n        /* \"crowdsale/crowdsale.sol\":4773:4819  _updatePurchasingState(beneficiary, weiAmount) */\n      jump\t// in\n    tag_68:\n        /* \"crowdsale/crowdsale.sol\":4832:4847  _forwardFunds() */\n      tag_70\n        /* \"crowdsale/crowdsale.sol\":4832:4845  _forwardFunds */\n      tag_71\n        /* \"crowdsale/crowdsale.sol\":4832:4847  _forwardFunds() */\n      jump\t// in\n    tag_70:\n        /* \"crowdsale/crowdsale.sol\":4858:4903  _postValidatePurchase(beneficiary, weiAmount) */\n      tag_72\n        /* \"crowdsale/crowdsale.sol\":4880:4891  beneficiary */\n      dup4\n        /* \"crowdsale/crowdsale.sol\":4893:4902  weiAmount */\n      dup4\n        /* \"crowdsale/crowdsale.sol\":4858:4879  _postValidatePurchase */\n      tag_73\n        /* \"crowdsale/crowdsale.sol\":4858:4903  _postValidatePurchase(beneficiary, weiAmount) */\n      jump\t// in\n    tag_72:\n        /* \"crowdsale/crowdsale.sol\":4357:4911  {... */\n      pop\n      pop\n        /* \"@openzeppelin/contracts/security/ReentrancyGuard.sol\":2303:2323  _nonReentrantAfter() */\n      tag_74\n        /* \"@openzeppelin/contracts/security/ReentrancyGuard.sol\":2303:2321  _nonReentrantAfter */\n      tag_75\n        /* \"@openzeppelin/contracts/security/ReentrancyGuard.sol\":2303:2323  _nonReentrantAfter() */\n      jump\t// in\n    tag_74:\n        /* \"crowdsale/crowdsale.sol\":4289:4911  function buyTokens(address beneficiary) public nonReentrant payable {... */\n      pop\n      jump\t// out\n        /* \"crowdsale/crowdsale.sol\":3784:3869  function rate() public virtual view returns (uint256) {... */\n    tag_23:\n        /* \"crowdsale/crowdsale.sol\":3829:3836  uint256 */\n      0x00\n        /* \"crowdsale/crowdsale.sol\":3856:3861  _rate */\n      sload(0x03)\n        /* \"crowdsale/crowdsale.sol\":3849:3861  return _rate */\n      swap1\n      pop\n        /* \"crowdsale/crowdsale.sol\":3784:3869  function rate() public virtual view returns (uint256) {... */\n      swap1\n      jump\t// out\n        /* \"crowdsale/validation/cappedCrowdsale.sol\":977:1052  function cap() public view returns (uint256) {... */\n    tag_28:\n        /* \"crowdsale/validation/cappedCrowdsale.sol\":1013:1020  uint256 */\n      0x00\n        /* \"crowdsale/validation/cappedCrowdsale.sol\":1040:1044  _cap */\n      sload(0x05)\n        /* \"crowdsale/validation/cappedCrowdsale.sol\":1033:1044  return _cap */\n      swap1\n      pop\n        /* \"crowdsale/validation/cappedCrowdsale.sol\":977:1052  function cap() public view returns (uint256) {... */\n      swap1\n      jump\t// out\n        /* \"crowdsale/crowdsale.sol\":3937:4024  function weiRaised() public view returns (uint256) {... */\n    tag_32:\n        /* \"crowdsale/crowdsale.sol\":3979:3986  uint256 */\n      0x00\n        /* \"crowdsale/crowdsale.sol\":4006:4016  _weiRaised */\n      sload(0x04)\n        /* \"crowdsale/crowdsale.sol\":3999:4016  return _weiRaised */\n      swap1\n      pop\n        /* \"crowdsale/crowdsale.sol\":3937:4024  function weiRaised() public view returns (uint256) {... */\n      swap1\n      jump\t// out\n        /* \"crowdsale/validation/cappedCrowdsale.sol\":1176:1270  function capReached() public view returns (bool) {... */\n    tag_36:\n        /* \"crowdsale/validation/cappedCrowdsale.sol\":1219:1223  bool */\n      0x00\n        /* \"crowdsale/validation/cappedCrowdsale.sol\":1258:1262  _cap */\n      sload(0x05)\n        /* \"crowdsale/validation/cappedCrowdsale.sol\":1243:1254  weiRaised() */\n      tag_80\n        /* \"crowdsale/validation/cappedCrowdsale.sol\":1243:1252  weiRaised */\n      tag_32\n        /* \"crowdsale/validation/cappedCrowdsale.sol\":1243:1254  weiRaised() */\n      jump\t// in\n    tag_80:\n        /* \"crowdsale/validation/cappedCrowdsale.sol\":1243:1262  weiRaised() >= _cap */\n      lt\n      iszero\n        /* \"crowdsale/validation/cappedCrowdsale.sol\":1236:1262  return weiRaised() >= _cap */\n      swap1\n      pop\n        /* \"crowdsale/validation/cappedCrowdsale.sol\":1176:1270  function capReached() public view returns (bool) {... */\n      swap1\n      jump\t// out\n        /* \"crowdsale/crowdsale.sol\":3605:3694  function wallet() public view returns (address payable) {... */\n    tag_41:\n        /* \"crowdsale/crowdsale.sol\":3644:3659  address payable */\n      0x00\n        /* \"crowdsale/crowdsale.sol\":3679:3686  _wallet */\n      0x02\n      0x00\n      swap1\n      sload\n      swap1\n      0x0100\n      exp\n      swap1\n      div\n      0xffffffffffffffffffffffffffffffffffffffff\n      and\n        /* \"crowdsale/crowdsale.sol\":3672:3686  return _wallet */\n      swap1\n      pop\n        /* \"crowdsale/crowdsale.sol\":3605:3694  function wallet() public view returns (address payable) {... */\n      swap1\n      jump\t// out\n        /* \"crowdsale/crowdsale.sol\":3446:3524  function token() public view returns (IERC20) {... */\n    tag_49:\n        /* \"crowdsale/crowdsale.sol\":3484:3490  IERC20 */\n      0x00\n        /* \"crowdsale/crowdsale.sol\":3510:3516  _token */\n      0x01\n      0x00\n      swap1\n      sload\n      swap1\n      0x0100\n      exp\n      swap1\n      div\n      0xffffffffffffffffffffffffffffffffffffffff\n      and\n        /* \"crowdsale/crowdsale.sol\":3503:3516  return _token */\n      swap1\n      pop\n        /* \"crowdsale/crowdsale.sol\":3446:3524  function token() public view returns (IERC20) {... */\n      swap1\n      jump\t// out\n        /* \"@openzeppelin/contracts/security/ReentrancyGuard.sol\":2336:2623  function _nonReentrantBefore() private {... */\n    tag_55:\n        /* \"@openzeppelin/contracts/security/ReentrancyGuard.sol\":1759:1760  2 */\n      0x02\n        /* \"@openzeppelin/contracts/security/ReentrancyGuard.sol\":2468:2475  _status */\n      sload(0x00)\n        /* \"@openzeppelin/contracts/security/ReentrancyGuard.sol\":2468:2487  _status != _ENTERED */\n      sub\n        /* \"@openzeppelin/contracts/security/ReentrancyGuard.sol\":2460:2523  require(_status != _ENTERED, \"ReentrancyGuard: reentrant call\") */\n      tag_84\n      jumpi\n      mload(0x40)\n      0x08c379a000000000000000000000000000000000000000000000000000000000\n      dup2\n      mstore\n      0x04\n      add\n      tag_85\n      swap1\n      tag_86\n      jump\t// in\n    tag_85:\n      mload(0x40)\n      dup1\n      swap2\n      sub\n      swap1\n      revert\n    tag_84:\n        /* \"@openzeppelin/contracts/security/ReentrancyGuard.sol\":1759:1760  2 */\n      0x02\n        /* \"@openzeppelin/contracts/security/ReentrancyGuard.sol\":2598:2605  _status */\n      0x00\n        /* \"@openzeppelin/contracts/security/ReentrancyGuard.sol\":2598:2616  _status = _ENTERED */\n      dup2\n      swap1\n      sstore\n      pop\n        /* \"@openzeppelin/contracts/security/ReentrancyGuard.sol\":2336:2623  function _nonReentrantBefore() private {... */\n      jump\t// out\n        /* \"crowdsale/validation/cappedCrowdsale.sol\":1473:1722  function _preValidatePurchase(address beneficiary, uint256 weiAmount) internal override view {... */\n    tag_58:\n        /* \"crowdsale/validation/cappedCrowdsale.sol\":1577:1627  super._preValidatePurchase(beneficiary, weiAmount) */\n      tag_88\n        /* \"crowdsale/validation/cappedCrowdsale.sol\":1604:1615  beneficiary */\n      dup3\n        /* \"crowdsale/validation/cappedCrowdsale.sol\":1617:1626  weiAmount */\n      dup3\n        /* \"crowdsale/validation/cappedCrowdsale.sol\":1577:1603  super._preValidatePurchase */\n      tag_89\n        /* \"crowdsale/validation/cappedCrowdsale.sol\":1577:1627  super._preValidatePurchase(beneficiary, weiAmount) */\n      jump\t// in\n    tag_88:\n        /* \"crowdsale/validation/cappedCrowdsale.sol\":1676:1680  _cap */\n      sload(0x05)\n        /* \"crowdsale/validation/cappedCrowdsale.sol\":1646:1672  weiRaised().add(weiAmount) */\n      tag_90\n        /* \"crowdsale/validation/cappedCrowdsale.sol\":1662:1671  weiAmount */\n      dup3\n        /* \"crowdsale/validation/cappedCrowdsale.sol\":1646:1657  weiRaised() */\n      tag_91\n        /* \"crowdsale/validation/cappedCrowdsale.sol\":1646:1655  weiRaised */\n      tag_32\n        /* \"crowdsale/validation/cappedCrowdsale.sol\":1646:1657  weiRaised() */\n      jump\t// in\n    tag_91:\n        /* \"crowdsale/validation/cappedCrowdsale.sol\":1646:1661  weiRaised().add */\n      tag_62\n      swap1\n        /* \"crowdsale/validation/cappedCrowdsale.sol\":1646:1672  weiRaised().add(weiAmount) */\n      swap2\n      swap1\n      0xffffffff\n      and\n      jump\t// in\n    tag_90:\n        /* \"crowdsale/validation/cappedCrowdsale.sol\":1646:1680  weiRaised().add(weiAmount) <= _cap */\n      gt\n      iszero\n        /* \"crowdsale/validation/cappedCrowdsale.sol\":1638:1714  require(weiRaised().add(weiAmount) <= _cap, \"CappedCrowdsale: cap exceeded\") */\n      tag_92\n      jumpi\n      mload(0x40)\n      0x08c379a000000000000000000000000000000000000000000000000000000000\n      dup2\n      mstore\n      0x04\n      add\n      tag_93\n      swap1\n      tag_94\n      jump\t// in\n    tag_93:\n      mload(0x40)\n      dup1\n      swap2\n      sub\n      swap1\n      revert\n    tag_92:\n        /* \"crowdsale/validation/cappedCrowdsale.sol\":1473:1722  function _preValidatePurchase(address beneficiary, uint256 weiAmount) internal override view {... */\n      pop\n      pop\n      jump\t// out\n        /* \"crowdsale/crowdsale.sol\":7848:7978  function _getTokenAmount(uint256 weiAmount) internal virtual view returns (uint256) {... */\n    tag_60:\n        /* \"crowdsale/crowdsale.sol\":7923:7930  uint256 */\n      0x00\n        /* \"crowdsale/crowdsale.sol\":7950:7970  weiAmount.mul(_rate) */\n      tag_96\n        /* \"crowdsale/crowdsale.sol\":7964:7969  _rate */\n      sload(0x03)\n        /* \"crowdsale/crowdsale.sol\":7950:7959  weiAmount */\n      dup4\n        /* \"crowdsale/crowdsale.sol\":7950:7963  weiAmount.mul */\n      tag_97\n      swap1\n        /* \"crowdsale/crowdsale.sol\":7950:7970  weiAmount.mul(_rate) */\n      swap2\n      swap1\n      0xffffffff\n      and\n      jump\t// in\n    tag_96:\n        /* \"crowdsale/crowdsale.sol\":7943:7970  return weiAmount.mul(_rate) */\n      swap1\n      pop\n        /* \"crowdsale/crowdsale.sol\":7848:7978  function _getTokenAmount(uint256 weiAmount) internal virtual view returns (uint256) {... */\n      swap2\n      swap1\n      pop\n      jump\t// out\n        /* \"@openzeppelin/contracts/utils/math/SafeMath.sol\":2755:2851  function add(uint256 a, uint256 b) internal pure returns (uint256) {... */\n    tag_62:\n        /* \"@openzeppelin/contracts/utils/math/SafeMath.sol\":2813:2820  uint256 */\n      0x00\n        /* \"@openzeppelin/contracts/utils/math/SafeMath.sol\":2843:2844  b */\n      dup2\n        /* \"@openzeppelin/contracts/utils/math/SafeMath.sol\":2839:2840  a */\n      dup4\n        /* \"@openzeppelin/contracts/utils/math/SafeMath.sol\":2839:2844  a + b */\n      tag_99\n      swap2\n      swap1\n      tag_100\n      jump\t// in\n    tag_99:\n        /* \"@openzeppelin/contracts/utils/math/SafeMath.sol\":2832:2844  return a + b */\n      swap1\n      pop\n        /* \"@openzeppelin/contracts/utils/math/SafeMath.sol\":2755:2851  function add(uint256 a, uint256 b) internal pure returns (uint256) {... */\n      swap3\n      swap2\n      pop\n      pop\n      jump\t// out\n        /* \"crowdsale/crowdsale.sol\":7023:7159  function _processPurchase(address beneficiary, uint256 tokenAmount) internal {... */\n    tag_64:\n        /* \"crowdsale/crowdsale.sol\":7111:7151  _deliverTokens(beneficiary, tokenAmount) */\n      tag_102\n        /* \"crowdsale/crowdsale.sol\":7126:7137  beneficiary */\n      dup3\n        /* \"crowdsale/crowdsale.sol\":7139:7150  tokenAmount */\n      dup3\n        /* \"crowdsale/crowdsale.sol\":7111:7125  _deliverTokens */\n      tag_103\n        /* \"crowdsale/crowdsale.sol\":7111:7151  _deliverTokens(beneficiary, tokenAmount) */\n      jump\t// in\n    tag_102:\n        /* \"crowdsale/crowdsale.sol\":7023:7159  function _processPurchase(address beneficiary, uint256 tokenAmount) internal {... */\n      pop\n      pop\n      jump\t// out\n        /* \"crowdsale/crowdsale.sol\":7437:7592  function _updatePurchasingState(address beneficiary, uint256 weiAmount) internal virtual {... */\n    tag_69:\n      pop\n      pop\n      jump\t// out\n        /* \"crowdsale/crowdsale.sol\":8070:8158  function _forwardFunds() internal virtual {... */\n    tag_71:\n        /* \"crowdsale/crowdsale.sol\":8123:8130  _wallet */\n      0x02\n      0x00\n      swap1\n      sload\n      swap1\n      0x0100\n      exp\n      swap1\n      div\n      0xffffffffffffffffffffffffffffffffffffffff\n      and\n        /* \"crowdsale/crowdsale.sol\":8123:8139  _wallet.transfer */\n      0xffffffffffffffffffffffffffffffffffffffff\n      and\n        /* \"crowdsale/crowdsale.sol\":8123:8150  _wallet.transfer(msg.value) */\n      0x08fc\n        /* \"crowdsale/crowdsale.sol\":8140:8149  msg.value */\n      callvalue\n        /* \"crowdsale/crowdsale.sol\":8123:8150  _wallet.transfer(msg.value) */\n      swap1\n      dup2\n      iszero\n      mul\n      swap1\n      mload(0x40)\n      0x00\n      mload(0x40)\n      dup1\n      dup4\n      sub\n      dup2\n      dup6\n      dup9\n      dup9\n      call\n      swap4\n      pop\n      pop\n      pop\n      pop\n      iszero\n      dup1\n      iszero\n      tag_107\n      jumpi\n      returndatasize\n      0x00\n      dup1\n      returndatacopy\n      revert(0x00, returndatasize)\n    tag_107:\n      pop\n        /* \"crowdsale/crowdsale.sol\":8070:8158  function _forwardFunds() internal virtual {... */\n      jump\t// out\n        /* \"crowdsale/crowdsale.sol\":6155:6314  function _postValidatePurchase(address beneficiary, uint256 weiAmount) internal virtual view {... */\n    tag_73:\n      pop\n      pop\n      jump\t// out\n        /* \"@openzeppelin/contracts/security/ReentrancyGuard.sol\":2629:2838  function _nonReentrantAfter() private {... */\n    tag_75:\n        /* \"@openzeppelin/contracts/security/ReentrancyGuard.sol\":1716:1717  1 */\n      0x01\n        /* \"@openzeppelin/contracts/security/ReentrancyGuard.sol\":2809:2816  _status */\n      0x00\n        /* \"@openzeppelin/contracts/security/ReentrancyGuard.sol\":2809:2831  _status = _NOT_ENTERED */\n      dup2\n      swap1\n      sstore\n      pop\n        /* \"@openzeppelin/contracts/security/ReentrancyGuard.sol\":2629:2838  function _nonReentrantAfter() private {... */\n      jump\t// out\n        /* \"crowdsale/crowdsale.sol\":5464:5852  function _preValidatePurchase(address beneficiary, uint256 weiAmount) internal virtual view {... */\n    tag_89:\n        /* \"crowdsale/crowdsale.sol\":5598:5599  0 */\n      0x00\n        /* \"crowdsale/crowdsale.sol\":5575:5600  beneficiary != address(0) */\n      0xffffffffffffffffffffffffffffffffffffffff\n      and\n        /* \"crowdsale/crowdsale.sol\":5575:5586  beneficiary */\n      dup3\n        /* \"crowdsale/crowdsale.sol\":5575:5600  beneficiary != address(0) */\n      0xffffffffffffffffffffffffffffffffffffffff\n      and\n      sub\n        /* \"crowdsale/crowdsale.sol\":5567:5647  require(beneficiary != address(0), \"Crowdsale: beneficiary is the zero address\") */\n      tag_111\n      jumpi\n      mload(0x40)\n      0x08c379a000000000000000000000000000000000000000000000000000000000\n      dup2\n      mstore\n      0x04\n      add\n      tag_112\n      swap1\n      tag_113\n      jump\t// in\n    tag_112:\n      mload(0x40)\n      dup1\n      swap2\n      sub\n      swap1\n      revert\n    tag_111:\n        /* \"crowdsale/crowdsale.sol\":5679:5680  0 */\n      0x00\n        /* \"crowdsale/crowdsale.sol\":5666:5675  weiAmount */\n      dup2\n        /* \"crowdsale/crowdsale.sol\":5666:5680  weiAmount != 0 */\n      sub\n        /* \"crowdsale/crowdsale.sol\":5658:5710  require(weiAmount != 0, \"Crowdsale: weiAmount is 0\") */\n      tag_114\n      jumpi\n      mload(0x40)\n      0x08c379a000000000000000000000000000000000000000000000000000000000\n      dup2\n      mstore\n      0x04\n      add\n      tag_115\n      swap1\n      tag_116\n      jump\t// in\n    tag_115:\n      mload(0x40)\n      dup1\n      swap2\n      sub\n      swap1\n      revert\n    tag_114:\n        /* \"crowdsale/crowdsale.sol\":5464:5852  function _preValidatePurchase(address beneficiary, uint256 weiAmount) internal virtual view {... */\n      pop\n      pop\n      jump\t// out\n        /* \"@openzeppelin/contracts/utils/math/SafeMath.sol\":3465:3561  function mul(uint256 a, uint256 b) internal pure returns (uint256) {... */\n    tag_97:\n        /* \"@openzeppelin/contracts/utils/math/SafeMath.sol\":3523:3530  uint256 */\n      0x00\n        /* \"@openzeppelin/contracts/utils/math/SafeMath.sol\":3553:3554  b */\n      dup2\n        /* \"@openzeppelin/contracts/utils/math/SafeMath.sol\":3549:3550  a */\n      dup4\n        /* \"@openzeppelin/contracts/utils/math/SafeMath.sol\":3549:3554  a * b */\n      tag_118\n      swap2\n      swap1\n      tag_119\n      jump\t// in\n    tag_118:\n        /* \"@openzeppelin/contracts/utils/math/SafeMath.sol\":3542:3554  return a * b */\n      swap1\n      pop\n        /* \"@openzeppelin/contracts/utils/math/SafeMath.sol\":3465:3561  function mul(uint256 a, uint256 b) internal pure returns (uint256) {... */\n      swap3\n      swap2\n      pop\n      pop\n      jump\t// out\n        /* \"crowdsale/crowdsale.sol\":6602:6749  function _deliverTokens(address beneficiary, uint256 tokenAmount) internal virtual {... */\n    tag_103:\n        /* \"crowdsale/crowdsale.sol\":6696:6741  _token.safeTransfer(beneficiary, tokenAmount) */\n      tag_121\n        /* \"crowdsale/crowdsale.sol\":6716:6727  beneficiary */\n      dup3\n        /* \"crowdsale/crowdsale.sol\":6729:6740  tokenAmount */\n      dup3\n        /* \"crowdsale/crowdsale.sol\":6696:6702  _token */\n      0x01\n      0x00\n      swap1\n      sload\n      swap1\n      0x0100\n      exp\n      swap1\n      div\n      0xffffffffffffffffffffffffffffffffffffffff\n      and\n        /* \"crowdsale/crowdsale.sol\":6696:6715  _token.safeTransfer */\n      0xffffffffffffffffffffffffffffffffffffffff\n      and\n      tag_122\n      swap1\n        /* \"crowdsale/crowdsale.sol\":6696:6741  _token.safeTransfer(beneficiary, tokenAmount) */\n      swap3\n      swap2\n      swap1\n      0xffffffff\n      and\n      jump\t// in\n    tag_121:\n        /* \"crowdsale/crowdsale.sol\":6602:6749  function _deliverTokens(address beneficiary, uint256 tokenAmount) internal virtual {... */\n      pop\n      pop\n      jump\t// out\n        /* \"@openzeppelin/contracts/token/ERC20/utils/SafeERC20.sol\":941:1116  function safeTransfer(IERC20 token, address to, uint256 value) internal {... */\n    tag_122:\n        /* \"@openzeppelin/contracts/token/ERC20/utils/SafeERC20.sol\":1023:1109  _callOptionalReturn(token, abi.encodeWithSelector(token.transfer.selector, to, value)) */\n      tag_124\n        /* \"@openzeppelin/contracts/token/ERC20/utils/SafeERC20.sol\":1043:1048  token */\n      dup4\n        /* \"@openzeppelin/contracts/token/ERC20/utils/SafeERC20.sol\":1073:1096  token.transfer.selector */\n      shl(0xe0, 0xa9059cbb)\n        /* \"@openzeppelin/contracts/token/ERC20/utils/SafeERC20.sol\":1098:1100  to */\n      dup5\n        /* \"@openzeppelin/contracts/token/ERC20/utils/SafeERC20.sol\":1102:1107  value */\n      dup5\n        /* \"@openzeppelin/contracts/token/ERC20/utils/SafeERC20.sol\":1050:1108  abi.encodeWithSelector(token.transfer.selector, to, value) */\n      add(0x24, mload(0x40))\n      tag_125\n      swap3\n      swap2\n      swap1\n      tag_126\n      jump\t// in\n    tag_125:\n      mload(0x40)\n      0x20\n      dup2\n      dup4\n      sub\n      sub\n      dup2\n      mstore\n      swap1\n      0x40\n      mstore\n      swap1\n      not(0xffffffffffffffffffffffffffffffffffffffffffffffffffffffff)\n      and\n      0x20\n      dup3\n      add\n      dup1\n      mload\n      0xffffffffffffffffffffffffffffffffffffffffffffffffffffffff\n      dup4\n      dup2\n      dup4\n      and\n      or\n      dup4\n      mstore\n      pop\n      pop\n      pop\n      pop\n        /* \"@openzeppelin/contracts/token/ERC20/utils/SafeERC20.sol\":1023:1042  _callOptionalReturn */\n      tag_127\n        /* \"@openzeppelin/contracts/token/ERC20/utils/SafeERC20.sol\":1023:1109  _callOptionalReturn(token, abi.encodeWithSelector(token.transfer.selector, to, value)) */\n      jump\t// in\n    tag_124:\n        /* \"@openzeppelin/contracts/token/ERC20/utils/SafeERC20.sol\":941:1116  function safeTransfer(IERC20 token, address to, uint256 value) internal {... */\n      pop\n      pop\n      pop\n      jump\t// out\n        /* \"@openzeppelin/contracts/token/ERC20/utils/SafeERC20.sol\":5196:5838  function _callOptionalReturn(IERC20 token, bytes memory data) private {... */\n    tag_127:\n        /* \"@openzeppelin/contracts/token/ERC20/utils/SafeERC20.sol\":5615:5638  bytes memory returndata */\n      0x00\n        /* \"@openzeppelin/contracts/token/ERC20/utils/SafeERC20.sol\":5641:5710  address(token).functionCall(data, \"SafeERC20: low-level call failed\") */\n      tag_129\n        /* \"@openzeppelin/contracts/token/ERC20/utils/SafeERC20.sol\":5669:5673  data */\n      dup3\n        /* \"@openzeppelin/contracts/token/ERC20/utils/SafeERC20.sol\":5641:5710  address(token).functionCall(data, \"SafeERC20: low-level call failed\") */\n      mload(0x40)\n      dup1\n      0x40\n      add\n      0x40\n      mstore\n      dup1\n      0x20\n      dup2\n      mstore\n      0x20\n      add\n      0x5361666545524332303a206c6f772d6c6576656c2063616c6c206661696c6564\n      dup2\n      mstore\n      pop\n        /* \"@openzeppelin/contracts/token/ERC20/utils/SafeERC20.sol\":5649:5654  token */\n      dup6\n        /* \"@openzeppelin/contracts/token/ERC20/utils/SafeERC20.sol\":5641:5668  address(token).functionCall */\n      0xffffffffffffffffffffffffffffffffffffffff\n      and\n      tag_130\n      swap1\n        /* \"@openzeppelin/contracts/token/ERC20/utils/SafeERC20.sol\":5641:5710  address(token).functionCall(data, \"SafeERC20: low-level call failed\") */\n      swap3\n      swap2\n      swap1\n      0xffffffff\n      and\n      jump\t// in\n    tag_129:\n        /* \"@openzeppelin/contracts/token/ERC20/utils/SafeERC20.sol\":5615:5710  bytes memory returndata = address(token).functionCall(data, \"SafeERC20: low-level call failed\") */\n      swap1\n      pop\n        /* \"@openzeppelin/contracts/token/ERC20/utils/SafeERC20.sol\":5749:5750  0 */\n      0x00\n        /* \"@openzeppelin/contracts/token/ERC20/utils/SafeERC20.sol\":5728:5738  returndata */\n      dup2\n        /* \"@openzeppelin/contracts/token/ERC20/utils/SafeERC20.sol\":5728:5745  returndata.length */\n      mload\n        /* \"@openzeppelin/contracts/token/ERC20/utils/SafeERC20.sol\":5728:5750  returndata.length == 0 */\n      eq\n        /* \"@openzeppelin/contracts/token/ERC20/utils/SafeERC20.sol\":5728:5784  returndata.length == 0 || abi.decode(returndata, (bool)) */\n      dup1\n      tag_131\n      jumpi\n      pop\n        /* \"@openzeppelin/contracts/token/ERC20/utils/SafeERC20.sol\":5765:5775  returndata */\n      dup1\n        /* \"@openzeppelin/contracts/token/ERC20/utils/SafeERC20.sol\":5754:5784  abi.decode(returndata, (bool)) */\n      dup1\n      0x20\n      add\n      swap1\n      mload\n      dup2\n      add\n      swap1\n      tag_132\n      swap2\n      swap1\n      tag_133\n      jump\t// in\n    tag_132:\n        /* \"@openzeppelin/contracts/token/ERC20/utils/SafeERC20.sol\":5728:5784  returndata.length == 0 || abi.decode(returndata, (bool)) */\n    tag_131:\n        /* \"@openzeppelin/contracts/token/ERC20/utils/SafeERC20.sol\":5720:5831  require(returndata.length == 0 || abi.decode(returndata, (bool)), \"SafeERC20: ERC20 operation did not succeed\") */\n      tag_134\n      jumpi\n      mload(0x40)\n      0x08c379a000000000000000000000000000000000000000000000000000000000\n      dup2\n      mstore\n      0x04\n      add\n      tag_135\n      swap1\n      tag_136\n      jump\t// in\n    tag_135:\n      mload(0x40)\n      dup1\n      swap2\n      sub\n      swap1\n      revert\n    tag_134:\n        /* \"@openzeppelin/contracts/token/ERC20/utils/SafeERC20.sol\":5266:5838  {... */\n      pop\n        /* \"@openzeppelin/contracts/token/ERC20/utils/SafeERC20.sol\":5196:5838  function _callOptionalReturn(IERC20 token, bytes memory data) private {... */\n      pop\n      pop\n      jump\t// out\n        /* \"@openzeppelin/contracts/utils/Address.sol\":4108:4331  function functionCall(... */\n    tag_130:\n        /* \"@openzeppelin/contracts/utils/Address.sol\":4241:4253  bytes memory */\n      0x60\n        /* \"@openzeppelin/contracts/utils/Address.sol\":4272:4324  functionCallWithValue(target, data, 0, errorMessage) */\n      tag_138\n        /* \"@openzeppelin/contracts/utils/Address.sol\":4294:4300  target */\n      dup5\n        /* \"@openzeppelin/contracts/utils/Address.sol\":4302:4306  data */\n      dup5\n        /* \"@openzeppelin/contracts/utils/Address.sol\":4308:4309  0 */\n      0x00\n        /* \"@openzeppelin/contracts/utils/Address.sol\":4311:4323  errorMessage */\n      dup6\n        /* \"@openzeppelin/contracts/utils/Address.sol\":4272:4293  functionCallWithValue */\n      tag_139\n        /* \"@openzeppelin/contracts/utils/Address.sol\":4272:4324  functionCallWithValue(target, data, 0, errorMessage) */\n      jump\t// in\n    tag_138:\n        /* \"@openzeppelin/contracts/utils/Address.sol\":4265:4324  return functionCallWithValue(target, data, 0, errorMessage) */\n      swap1\n      pop\n        /* \"@openzeppelin/contracts/utils/Address.sol\":4108:4331  function functionCall(... */\n      swap4\n      swap3\n      pop\n      pop\n      pop\n      jump\t// out\n        /* \"@openzeppelin/contracts/utils/Address.sol\":5165:5611  function functionCallWithValue(... */\n    tag_139:\n        /* \"@openzeppelin/contracts/utils/Address.sol\":5330:5342  bytes memory */\n      0x60\n        /* \"@openzeppelin/contracts/utils/Address.sol\":5387:5392  value */\n      dup3\n        /* \"@openzeppelin/contracts/utils/Address.sol\":5362:5383  address(this).balance */\n      selfbalance\n        /* \"@openzeppelin/contracts/utils/Address.sol\":5362:5392  address(this).balance >= value */\n      lt\n      iszero\n        /* \"@openzeppelin/contracts/utils/Address.sol\":5354:5435  require(address(this).balance >= value, \"Address: insufficient balance for call\") */\n      tag_141\n      jumpi\n      mload(0x40)\n      0x08c379a000000000000000000000000000000000000000000000000000000000\n      dup2\n      mstore\n      0x04\n      add\n      tag_142\n      swap1\n      tag_143\n      jump\t// in\n    tag_142:\n      mload(0x40)\n      dup1\n      swap2\n      sub\n      swap1\n      revert\n    tag_141:\n        /* \"@openzeppelin/contracts/utils/Address.sol\":5446:5458  bool success */\n      0x00\n        /* \"@openzeppelin/contracts/utils/Address.sol\":5460:5483  bytes memory returndata */\n      dup1\n        /* \"@openzeppelin/contracts/utils/Address.sol\":5487:5493  target */\n      dup7\n        /* \"@openzeppelin/contracts/utils/Address.sol\":5487:5498  target.call */\n      0xffffffffffffffffffffffffffffffffffffffff\n      and\n        /* \"@openzeppelin/contracts/utils/Address.sol\":5506:5511  value */\n      dup6\n        /* \"@openzeppelin/contracts/utils/Address.sol\":5513:5517  data */\n      dup8\n        /* \"@openzeppelin/contracts/utils/Address.sol\":5487:5518  target.call{value: value}(data) */\n      mload(0x40)\n      tag_144\n      swap2\n      swap1\n      tag_145\n      jump\t// in\n    tag_144:\n      0x00\n      mload(0x40)\n      dup1\n      dup4\n      sub\n      dup2\n      dup6\n      dup8\n      gas\n      call\n      swap3\n      pop\n      pop\n      pop\n      returndatasize\n      dup1\n      0x00\n      dup2\n      eq\n      tag_148\n      jumpi\n      mload(0x40)\n      swap2\n      pop\n      and(add(returndatasize, 0x3f), not(0x1f))\n      dup3\n      add\n      0x40\n      mstore\n      returndatasize\n      dup3\n      mstore\n      returndatasize\n      0x00\n      0x20\n      dup5\n      add\n      returndatacopy\n      jump(tag_147)\n    tag_148:\n      0x60\n      swap2\n      pop\n    tag_147:\n      pop\n        /* \"@openzeppelin/contracts/utils/Address.sol\":5445:5518  (bool success, bytes memory returndata) = target.call{value: value}(data) */\n      swap2\n      pop\n      swap2\n      pop\n        /* \"@openzeppelin/contracts/utils/Address.sol\":5535:5604  verifyCallResultFromTarget(target, success, returndata, errorMessage) */\n      tag_149\n        /* \"@openzeppelin/contracts/utils/Address.sol\":5562:5568  target */\n      dup8\n        /* \"@openzeppelin/contracts/utils/Address.sol\":5570:5577  success */\n      dup4\n        /* \"@openzeppelin/contracts/utils/Address.sol\":5579:5589  returndata */\n      dup4\n        /* \"@openzeppelin/contracts/utils/Address.sol\":5591:5603  errorMessage */\n      dup8\n        /* \"@openzeppelin/contracts/utils/Address.sol\":5535:5561  verifyCallResultFromTarget */\n      tag_150\n        /* \"@openzeppelin/contracts/utils/Address.sol\":5535:5604  verifyCallResultFromTarget(target, success, returndata, errorMessage) */\n      jump\t// in\n    tag_149:\n        /* \"@openzeppelin/contracts/utils/Address.sol\":5528:5604  return verifyCallResultFromTarget(target, success, returndata, errorMessage) */\n      swap3\n      pop\n      pop\n      pop\n        /* \"@openzeppelin/contracts/utils/Address.sol\":5165:5611  function functionCallWithValue(... */\n      swap5\n      swap4\n      pop\n      pop\n      pop\n      pop\n      jump\t// out\n        /* \"@openzeppelin/contracts/utils/Address.sol\":7671:8299  function verifyCallResultFromTarget(... */\n    tag_150:\n        /* \"@openzeppelin/contracts/utils/Address.sol\":7851:7863  bytes memory */\n      0x60\n        /* \"@openzeppelin/contracts/utils/Address.sol\":7879:7886  success */\n      dup4\n        /* \"@openzeppelin/contracts/utils/Address.sol\":7875:8293  if (success) {... */\n      iszero\n      tag_152\n      jumpi\n        /* \"@openzeppelin/contracts/utils/Address.sol\":7927:7928  0 */\n      0x00\n        /* \"@openzeppelin/contracts/utils/Address.sol\":7906:7916  returndata */\n      dup4\n        /* \"@openzeppelin/contracts/utils/Address.sol\":7906:7923  returndata.length */\n      mload\n        /* \"@openzeppelin/contracts/utils/Address.sol\":7906:7928  returndata.length == 0 */\n      sub\n        /* \"@openzeppelin/contracts/utils/Address.sol\":7902:8188  if (returndata.length == 0) {... */\n      tag_153\n      jumpi\n        /* \"@openzeppelin/contracts/utils/Address.sol\":8121:8139  isContract(target) */\n      tag_154\n        /* \"@openzeppelin/contracts/utils/Address.sol\":8132:8138  target */\n      dup6\n        /* \"@openzeppelin/contracts/utils/Address.sol\":8121:8131  isContract */\n      tag_155\n        /* \"@openzeppelin/contracts/utils/Address.sol\":8121:8139  isContract(target) */\n      jump\t// in\n    tag_154:\n        /* \"@openzeppelin/contracts/utils/Address.sol\":8113:8173  require(isContract(target), \"Address: call to non-contract\") */\n      tag_156\n      jumpi\n      mload(0x40)\n      0x08c379a000000000000000000000000000000000000000000000000000000000\n      dup2\n      mstore\n      0x04\n      add\n      tag_157\n      swap1\n      tag_158\n      jump\t// in\n    tag_157:\n      mload(0x40)\n      dup1\n      swap2\n      sub\n      swap1\n      revert\n    tag_156:\n        /* \"@openzeppelin/contracts/utils/Address.sol\":7902:8188  if (returndata.length == 0) {... */\n    tag_153:\n        /* \"@openzeppelin/contracts/utils/Address.sol\":8208:8218  returndata */\n      dup3\n        /* \"@openzeppelin/contracts/utils/Address.sol\":8201:8218  return returndata */\n      swap1\n      pop\n      jump(tag_151)\n        /* \"@openzeppelin/contracts/utils/Address.sol\":7875:8293  if (success) {... */\n    tag_152:\n        /* \"@openzeppelin/contracts/utils/Address.sol\":8249:8282  _revert(returndata, errorMessage) */\n      tag_160\n        /* \"@openzeppelin/contracts/utils/Address.sol\":8257:8267  returndata */\n      dup4\n        /* \"@openzeppelin/contracts/utils/Address.sol\":8269:8281  errorMessage */\n      dup4\n        /* \"@openzeppelin/contracts/utils/Address.sol\":8249:8256  _revert */\n      tag_161\n        /* \"@openzeppelin/contracts/utils/Address.sol\":8249:8282  _revert(returndata, errorMessage) */\n      jump\t// in\n    tag_160:\n        /* \"@openzeppelin/contracts/utils/Address.sol\":7671:8299  function verifyCallResultFromTarget(... */\n    tag_151:\n      swap5\n      swap4\n      pop\n      pop\n      pop\n      pop\n      jump\t// out\n        /* \"@openzeppelin/contracts/utils/Address.sol\":1412:1732  function isContract(address account) internal view returns (bool) {... */\n    tag_155:\n        /* \"@openzeppelin/contracts/utils/Address.sol\":1472:1476  bool */\n      0x00\n        /* \"@openzeppelin/contracts/utils/Address.sol\":1724:1725  0 */\n      dup1\n        /* \"@openzeppelin/contracts/utils/Address.sol\":1702:1709  account */\n      dup3\n        /* \"@openzeppelin/contracts/utils/Address.sol\":1702:1721  account.code.length */\n      0xffffffffffffffffffffffffffffffffffffffff\n      and\n      extcodesize\n        /* \"@openzeppelin/contracts/utils/Address.sol\":1702:1725  account.code.length > 0 */\n      gt\n        /* \"@openzeppelin/contracts/utils/Address.sol\":1695:1725  return account.code.length > 0 */\n      swap1\n      pop\n        /* \"@openzeppelin/contracts/utils/Address.sol\":1412:1732  function isContract(address account) internal view returns (bool) {... */\n      swap2\n      swap1\n      pop\n      jump\t// out\n        /* \"@openzeppelin/contracts/utils/Address.sol\":8821:9361  function _revert(bytes memory returndata, string memory errorMessage) private pure {... */\n    tag_161:\n        /* \"@openzeppelin/contracts/utils/Address.sol\":9000:9001  0 */\n      0x00\n        /* \"@openzeppelin/contracts/utils/Address.sol\":8980:8990  returndata */\n      dup3\n        /* \"@openzeppelin/contracts/utils/Address.sol\":8980:8997  returndata.length */\n      mload\n        /* \"@openzeppelin/contracts/utils/Address.sol\":8980:9001  returndata.length > 0 */\n      gt\n        /* \"@openzeppelin/contracts/utils/Address.sol\":8976:9355  if (returndata.length > 0) {... */\n      iszero\n      tag_164\n      jumpi\n        /* \"@openzeppelin/contracts/utils/Address.sol\":9208:9218  returndata */\n      dup2\n        /* \"@openzeppelin/contracts/utils/Address.sol\":9202:9219  mload(returndata) */\n      mload\n        /* \"@openzeppelin/contracts/utils/Address.sol\":9264:9279  returndata_size */\n      dup1\n        /* \"@openzeppelin/contracts/utils/Address.sol\":9251:9261  returndata */\n      dup4\n        /* \"@openzeppelin/contracts/utils/Address.sol\":9247:9249  32 */\n      0x20\n        /* \"@openzeppelin/contracts/utils/Address.sol\":9243:9262  add(32, returndata) */\n      add\n        /* \"@openzeppelin/contracts/utils/Address.sol\":9236:9280  revert(add(32, returndata), returndata_size) */\n      revert\n        /* \"@openzeppelin/contracts/utils/Address.sol\":8976:9355  if (returndata.length > 0) {... */\n    tag_164:\n        /* \"@openzeppelin/contracts/utils/Address.sol\":9331:9343  errorMessage */\n      dup1\n        /* \"@openzeppelin/contracts/utils/Address.sol\":9324:9344  revert(errorMessage) */\n      mload(0x40)\n      0x08c379a000000000000000000000000000000000000000000000000000000000\n      dup2\n      mstore\n      0x04\n      add\n      tag_166\n      swap2\n      swap1\n      tag_167\n      jump\t// in\n    tag_166:\n      mload(0x40)\n      dup1\n      swap2\n      sub\n      swap1\n      revert\n        /* \"#utility.yul\":7:84   */\n    tag_168:\n        /* \"#utility.yul\":44:51   */\n      0x00\n        /* \"#utility.yul\":73:78   */\n      dup2\n        /* \"#utility.yul\":62:78   */\n      swap1\n      pop\n        /* \"#utility.yul\":7:84   */\n      swap2\n      swap1\n      pop\n      jump\t// out\n        /* \"#utility.yul\":90:208   */\n    tag_169:\n        /* \"#utility.yul\":177:201   */\n      tag_215\n        /* \"#utility.yul\":195:200   */\n      dup2\n        /* \"#utility.yul\":177:201   */\n      tag_168\n      jump\t// in\n    tag_215:\n        /* \"#utility.yul\":172:175   */\n      dup3\n        /* \"#utility.yul\":165:202   */\n      mstore\n        /* \"#utility.yul\":90:208   */\n      pop\n      pop\n      jump\t// out\n        /* \"#utility.yul\":214:436   */\n    tag_25:\n        /* \"#utility.yul\":307:311   */\n      0x00\n        /* \"#utility.yul\":345:347   */\n      0x20\n        /* \"#utility.yul\":334:343   */\n      dup3\n        /* \"#utility.yul\":330:348   */\n      add\n        /* \"#utility.yul\":322:348   */\n      swap1\n      pop\n        /* \"#utility.yul\":358:429   */\n      tag_217\n        /* \"#utility.yul\":426:427   */\n      0x00\n        /* \"#utility.yul\":415:424   */\n      dup4\n        /* \"#utility.yul\":411:428   */\n      add\n        /* \"#utility.yul\":402:408   */\n      dup5\n        /* \"#utility.yul\":358:429   */\n      tag_169\n      jump\t// in\n    tag_217:\n        /* \"#utility.yul\":214:436   */\n      swap3\n      swap2\n      pop\n      pop\n      jump\t// out\n        /* \"#utility.yul\":442:532   */\n    tag_170:\n        /* \"#utility.yul\":476:483   */\n      0x00\n        /* \"#utility.yul\":519:524   */\n      dup2\n        /* \"#utility.yul\":512:525   */\n      iszero\n        /* \"#utility.yul\":505:526   */\n      iszero\n        /* \"#utility.yul\":494:526   */\n      swap1\n      pop\n        /* \"#utility.yul\":442:532   */\n      swap2\n      swap1\n      pop\n      jump\t// out\n        /* \"#utility.yul\":538:647   */\n    tag_171:\n        /* \"#utility.yul\":619:640   */\n      tag_220\n        /* \"#utility.yul\":634:639   */\n      dup2\n        /* \"#utility.yul\":619:640   */\n      tag_170\n      jump\t// in\n    tag_220:\n        /* \"#utility.yul\":614:617   */\n      dup3\n        /* \"#utility.yul\":607:641   */\n      mstore\n        /* \"#utility.yul\":538:647   */\n      pop\n      pop\n      jump\t// out\n        /* \"#utility.yul\":653:863   */\n    tag_38:\n        /* \"#utility.yul\":740:744   */\n      0x00\n        /* \"#utility.yul\":778:780   */\n      0x20\n        /* \"#utility.yul\":767:776   */\n      dup3\n        /* \"#utility.yul\":763:781   */\n      add\n        /* \"#utility.yul\":755:781   */\n      swap1\n      pop\n        /* \"#utility.yul\":791:856   */\n      tag_222\n        /* \"#utility.yul\":853:854   */\n      0x00\n        /* \"#utility.yul\":842:851   */\n      dup4\n        /* \"#utility.yul\":838:855   */\n      add\n        /* \"#utility.yul\":829:835   */\n      dup5\n        /* \"#utility.yul\":791:856   */\n      tag_171\n      jump\t// in\n    tag_222:\n        /* \"#utility.yul\":653:863   */\n      swap3\n      swap2\n      pop\n      pop\n      jump\t// out\n        /* \"#utility.yul\":869:995   */\n    tag_172:\n        /* \"#utility.yul\":906:913   */\n      0x00\n        /* \"#utility.yul\":946:988   */\n      0xffffffffffffffffffffffffffffffffffffffff\n        /* \"#utility.yul\":939:944   */\n      dup3\n        /* \"#utility.yul\":935:989   */\n      and\n        /* \"#utility.yul\":924:989   */\n      swap1\n      pop\n        /* \"#utility.yul\":869:995   */\n      swap2\n      swap1\n      pop\n      jump\t// out\n        /* \"#utility.yul\":1001:1105   */\n    tag_173:\n        /* \"#utility.yul\":1046:1053   */\n      0x00\n        /* \"#utility.yul\":1075:1099   */\n      tag_225\n        /* \"#utility.yul\":1093:1098   */\n      dup3\n        /* \"#utility.yul\":1075:1099   */\n      tag_172\n      jump\t// in\n    tag_225:\n        /* \"#utility.yul\":1064:1099   */\n      swap1\n      pop\n        /* \"#utility.yul\":1001:1105   */\n      swap2\n      swap1\n      pop\n      jump\t// out\n        /* \"#utility.yul\":1111:1253   */\n    tag_174:\n        /* \"#utility.yul\":1214:1246   */\n      tag_227\n        /* \"#utility.yul\":1240:1245   */\n      dup2\n        /* \"#utility.yul\":1214:1246   */\n      tag_173\n      jump\t// in\n    tag_227:\n        /* \"#utility.yul\":1209:1212   */\n      dup3\n        /* \"#utility.yul\":1202:1247   */\n      mstore\n        /* \"#utility.yul\":1111:1253   */\n      pop\n      pop\n      jump\t// out\n        /* \"#utility.yul\":1259:1513   */\n    tag_43:\n        /* \"#utility.yul\":1368:1372   */\n      0x00\n        /* \"#utility.yul\":1406:1408   */\n      0x20\n        /* \"#utility.yul\":1395:1404   */\n      dup3\n        /* \"#utility.yul\":1391:1409   */\n      add\n        /* \"#utility.yul\":1383:1409   */\n      swap1\n      pop\n        /* \"#utility.yul\":1419:1506   */\n      tag_229\n        /* \"#utility.yul\":1503:1504   */\n      0x00\n        /* \"#utility.yul\":1492:1501   */\n      dup4\n        /* \"#utility.yul\":1488:1505   */\n      add\n        /* \"#utility.yul\":1479:1485   */\n      dup5\n        /* \"#utility.yul\":1419:1506   */\n      tag_174\n      jump\t// in\n    tag_229:\n        /* \"#utility.yul\":1259:1513   */\n      swap3\n      swap2\n      pop\n      pop\n      jump\t// out\n        /* \"#utility.yul\":1600:1717   */\n    tag_176:\n        /* \"#utility.yul\":1709:1710   */\n      0x00\n        /* \"#utility.yul\":1706:1707   */\n      dup1\n        /* \"#utility.yul\":1699:1711   */\n      revert\n        /* \"#utility.yul\":1846:1942   */\n    tag_178:\n        /* \"#utility.yul\":1883:1890   */\n      0x00\n        /* \"#utility.yul\":1912:1936   */\n      tag_234\n        /* \"#utility.yul\":1930:1935   */\n      dup3\n        /* \"#utility.yul\":1912:1936   */\n      tag_172\n      jump\t// in\n    tag_234:\n        /* \"#utility.yul\":1901:1936   */\n      swap1\n      pop\n        /* \"#utility.yul\":1846:1942   */\n      swap2\n      swap1\n      pop\n      jump\t// out\n        /* \"#utility.yul\":1948:2070   */\n    tag_179:\n        /* \"#utility.yul\":2021:2045   */\n      tag_236\n        /* \"#utility.yul\":2039:2044   */\n      dup2\n        /* \"#utility.yul\":2021:2045   */\n      tag_178\n      jump\t// in\n    tag_236:\n        /* \"#utility.yul\":2014:2019   */\n      dup2\n        /* \"#utility.yul\":2011:2046   */\n      eq\n        /* \"#utility.yul\":2001:2064   */\n      tag_237\n      jumpi\n        /* \"#utility.yul\":2060:2061   */\n      0x00\n        /* \"#utility.yul\":2057:2058   */\n      dup1\n        /* \"#utility.yul\":2050:2062   */\n      revert\n        /* \"#utility.yul\":2001:2064   */\n    tag_237:\n        /* \"#utility.yul\":1948:2070   */\n      pop\n      jump\t// out\n        /* \"#utility.yul\":2076:2215   */\n    tag_180:\n        /* \"#utility.yul\":2122:2127   */\n      0x00\n        /* \"#utility.yul\":2160:2166   */\n      dup2\n        /* \"#utility.yul\":2147:2167   */\n      calldataload\n        /* \"#utility.yul\":2138:2167   */\n      swap1\n      pop\n        /* \"#utility.yul\":2176:2209   */\n      tag_239\n        /* \"#utility.yul\":2203:2208   */\n      dup2\n        /* \"#utility.yul\":2176:2209   */\n      tag_179\n      jump\t// in\n    tag_239:\n        /* \"#utility.yul\":2076:2215   */\n      swap3\n      swap2\n      pop\n      pop\n      jump\t// out\n        /* \"#utility.yul\":2221:2550   */\n    tag_46:\n        /* \"#utility.yul\":2280:2286   */\n      0x00\n        /* \"#utility.yul\":2329:2331   */\n      0x20\n        /* \"#utility.yul\":2317:2326   */\n      dup3\n        /* \"#utility.yul\":2308:2315   */\n      dup5\n        /* \"#utility.yul\":2304:2327   */\n      sub\n        /* \"#utility.yul\":2300:2332   */\n      slt\n        /* \"#utility.yul\":2297:2416   */\n      iszero\n      tag_241\n      jumpi\n        /* \"#utility.yul\":2335:2414   */\n      tag_242\n      tag_176\n      jump\t// in\n    tag_242:\n        /* \"#utility.yul\":2297:2416   */\n    tag_241:\n        /* \"#utility.yul\":2455:2456   */\n      0x00\n        /* \"#utility.yul\":2480:2533   */\n      tag_243\n        /* \"#utility.yul\":2525:2532   */\n      dup5\n        /* \"#utility.yul\":2516:2522   */\n      dup3\n        /* \"#utility.yul\":2505:2514   */\n      dup6\n        /* \"#utility.yul\":2501:2523   */\n      add\n        /* \"#utility.yul\":2480:2533   */\n      tag_180\n      jump\t// in\n    tag_243:\n        /* \"#utility.yul\":2470:2533   */\n      swap2\n      pop\n        /* \"#utility.yul\":2426:2543   */\n      pop\n        /* \"#utility.yul\":2221:2550   */\n      swap3\n      swap2\n      pop\n      pop\n      jump\t// out\n        /* \"#utility.yul\":2556:2616   */\n    tag_181:\n        /* \"#utility.yul\":2584:2587   */\n      0x00\n        /* \"#utility.yul\":2605:2610   */\n      dup2\n        /* \"#utility.yul\":2598:2610   */\n      swap1\n      pop\n        /* \"#utility.yul\":2556:2616   */\n      swap2\n      swap1\n      pop\n      jump\t// out\n        /* \"#utility.yul\":2622:2764   */\n    tag_182:\n        /* \"#utility.yul\":2672:2681   */\n      0x00\n        /* \"#utility.yul\":2705:2758   */\n      tag_246\n        /* \"#utility.yul\":2723:2757   */\n      tag_247\n        /* \"#utility.yul\":2732:2756   */\n      tag_248\n        /* \"#utility.yul\":2750:2755   */\n      dup5\n        /* \"#utility.yul\":2732:2756   */\n      tag_172\n      jump\t// in\n    tag_248:\n        /* \"#utility.yul\":2723:2757   */\n      tag_181\n      jump\t// in\n    tag_247:\n        /* \"#utility.yul\":2705:2758   */\n      tag_172\n      jump\t// in\n    tag_246:\n        /* \"#utility.yul\":2692:2758   */\n      swap1\n      pop\n        /* \"#utility.yul\":2622:2764   */\n      swap2\n      swap1\n      pop\n      jump\t// out\n        /* \"#utility.yul\":2770:2896   */\n    tag_183:\n        /* \"#utility.yul\":2820:2829   */\n      0x00\n        /* \"#utility.yul\":2853:2890   */\n      tag_250\n        /* \"#utility.yul\":2884:2889   */\n      dup3\n        /* \"#utility.yul\":2853:2890   */\n      tag_182\n      jump\t// in\n    tag_250:\n        /* \"#utility.yul\":2840:2890   */\n      swap1\n      pop\n        /* \"#utility.yul\":2770:2896   */\n      swap2\n      swap1\n      pop\n      jump\t// out\n        /* \"#utility.yul\":2902:3042   */\n    tag_184:\n        /* \"#utility.yul\":2966:2975   */\n      0x00\n        /* \"#utility.yul\":2999:3036   */\n      tag_252\n        /* \"#utility.yul\":3030:3035   */\n      dup3\n        /* \"#utility.yul\":2999:3036   */\n      tag_183\n      jump\t// in\n    tag_252:\n        /* \"#utility.yul\":2986:3036   */\n      swap1\n      pop\n        /* \"#utility.yul\":2902:3042   */\n      swap2\n      swap1\n      pop\n      jump\t// out\n        /* \"#utility.yul\":3048:3207   */\n    tag_185:\n        /* \"#utility.yul\":3149:3200   */\n      tag_254\n        /* \"#utility.yul\":3194:3199   */\n      dup2\n        /* \"#utility.yul\":3149:3200   */\n      tag_184\n      jump\t// in\n    tag_254:\n        /* \"#utility.yul\":3144:3147   */\n      dup3\n        /* \"#utility.yul\":3137:3201   */\n      mstore\n        /* \"#utility.yul\":3048:3207   */\n      pop\n      pop\n      jump\t// out\n        /* \"#utility.yul\":3213:3463   */\n    tag_51:\n        /* \"#utility.yul\":3320:3324   */\n      0x00\n        /* \"#utility.yul\":3358:3360   */\n      0x20\n        /* \"#utility.yul\":3347:3356   */\n      dup3\n        /* \"#utility.yul\":3343:3361   */\n      add\n        /* \"#utility.yul\":3335:3361   */\n      swap1\n      pop\n        /* \"#utility.yul\":3371:3456   */\n      tag_256\n        /* \"#utility.yul\":3453:3454   */\n      0x00\n        /* \"#utility.yul\":3442:3451   */\n      dup4\n        /* \"#utility.yul\":3438:3455   */\n      add\n        /* \"#utility.yul\":3429:3435   */\n      dup5\n        /* \"#utility.yul\":3371:3456   */\n      tag_185\n      jump\t// in\n    tag_256:\n        /* \"#utility.yul\":3213:3463   */\n      swap3\n      swap2\n      pop\n      pop\n      jump\t// out\n        /* \"#utility.yul\":3469:3801   */\n    tag_67:\n        /* \"#utility.yul\":3590:3594   */\n      0x00\n        /* \"#utility.yul\":3628:3630   */\n      0x40\n        /* \"#utility.yul\":3617:3626   */\n      dup3\n        /* \"#utility.yul\":3613:3631   */\n      add\n        /* \"#utility.yul\":3605:3631   */\n      swap1\n      pop\n        /* \"#utility.yul\":3641:3712   */\n      tag_258\n        /* \"#utility.yul\":3709:3710   */\n      0x00\n        /* \"#utility.yul\":3698:3707   */\n      dup4\n        /* \"#utility.yul\":3694:3711   */\n      add\n        /* \"#utility.yul\":3685:3691   */\n      dup6\n        /* \"#utility.yul\":3641:3712   */\n      tag_169\n      jump\t// in\n    tag_258:\n        /* \"#utility.yul\":3722:3794   */\n      tag_259\n        /* \"#utility.yul\":3790:3792   */\n      0x20\n        /* \"#utility.yul\":3779:3788   */\n      dup4\n        /* \"#utility.yul\":3775:3793   */\n      add\n        /* \"#utility.yul\":3766:3772   */\n      dup5\n        /* \"#utility.yul\":3722:3794   */\n      tag_169\n      jump\t// in\n    tag_259:\n        /* \"#utility.yul\":3469:3801   */\n      swap4\n      swap3\n      pop\n      pop\n      pop\n      jump\t// out\n        /* \"#utility.yul\":3807:3976   */\n    tag_186:\n        /* \"#utility.yul\":3891:3902   */\n      0x00\n        /* \"#utility.yul\":3925:3931   */\n      dup3\n        /* \"#utility.yul\":3920:3923   */\n      dup3\n        /* \"#utility.yul\":3913:3932   */\n      mstore\n        /* \"#utility.yul\":3965:3969   */\n      0x20\n        /* \"#utility.yul\":3960:3963   */\n      dup3\n        /* \"#utility.yul\":3956:3970   */\n      add\n        /* \"#utility.yul\":3941:3970   */\n      swap1\n      pop\n        /* \"#utility.yul\":3807:3976   */\n      swap3\n      swap2\n      pop\n      pop\n      jump\t// out\n        /* \"#utility.yul\":3982:4163   */\n    tag_187:\n        /* \"#utility.yul\":4122:4155   */\n      0x5265656e7472616e637947756172643a207265656e7472616e742063616c6c00\n        /* \"#utility.yul\":4118:4119   */\n      0x00\n        /* \"#utility.yul\":4110:4116   */\n      dup3\n        /* \"#utility.yul\":4106:4120   */\n      add\n        /* \"#utility.yul\":4099:4156   */\n      mstore\n        /* \"#utility.yul\":3982:4163   */\n      pop\n      jump\t// out\n        /* \"#utility.yul\":4169:4535   */\n    tag_188:\n        /* \"#utility.yul\":4311:4314   */\n      0x00\n        /* \"#utility.yul\":4332:4399   */\n      tag_263\n        /* \"#utility.yul\":4396:4398   */\n      0x1f\n        /* \"#utility.yul\":4391:4394   */\n      dup4\n        /* \"#utility.yul\":4332:4399   */\n      tag_186\n      jump\t// in\n    tag_263:\n        /* \"#utility.yul\":4325:4399   */\n      swap2\n      pop\n        /* \"#utility.yul\":4408:4501   */\n      tag_264\n        /* \"#utility.yul\":4497:4500   */\n      dup3\n        /* \"#utility.yul\":4408:4501   */\n      tag_187\n      jump\t// in\n    tag_264:\n        /* \"#utility.yul\":4526:4528   */\n      0x20\n        /* \"#utility.yul\":4521:4524   */\n      dup3\n        /* \"#utility.yul\":4517:4529   */\n      add\n        /* \"#utility.yul\":4510:4529   */\n      swap1\n      pop\n        /* \"#utility.yul\":4169:4535   */\n      swap2\n      swap1\n      pop\n      jump\t// out\n        /* \"#utility.yul\":4541:4960   */\n    tag_86:\n        /* \"#utility.yul\":4707:4711   */\n      0x00\n        /* \"#utility.yul\":4745:4747   */\n      0x20\n        /* \"#utility.yul\":4734:4743   */\n      dup3\n        /* \"#utility.yul\":4730:4748   */\n      add\n        /* \"#utility.yul\":4722:4748   */\n      swap1\n      pop\n        /* \"#utility.yul\":4794:4803   */\n      dup2\n        /* \"#utility.yul\":4788:4792   */\n      dup2\n        /* \"#utility.yul\":4784:4804   */\n      sub\n        /* \"#utility.yul\":4780:4781   */\n      0x00\n        /* \"#utility.yul\":4769:4778   */\n      dup4\n        /* \"#utility.yul\":4765:4782   */\n      add\n        /* \"#utility.yul\":4758:4805   */\n      mstore\n        /* \"#utility.yul\":4822:4953   */\n      tag_266\n        /* \"#utility.yul\":4948:4952   */\n      dup2\n        /* \"#utility.yul\":4822:4953   */\n      tag_188\n      jump\t// in\n    tag_266:\n        /* \"#utility.yul\":4814:4953   */\n      swap1\n      pop\n        /* \"#utility.yul\":4541:4960   */\n      swap2\n      swap1\n      pop\n      jump\t// out\n        /* \"#utility.yul\":4966:5145   */\n    tag_189:\n        /* \"#utility.yul\":5106:5137   */\n      0x43617070656443726f776473616c653a20636170206578636565646564000000\n        /* \"#utility.yul\":5102:5103   */\n      0x00\n        /* \"#utility.yul\":5094:5100   */\n      dup3\n        /* \"#utility.yul\":5090:5104   */\n      add\n        /* \"#utility.yul\":5083:5138   */\n      mstore\n        /* \"#utility.yul\":4966:5145   */\n      pop\n      jump\t// out\n        /* \"#utility.yul\":5151:5517   */\n    tag_190:\n        /* \"#utility.yul\":5293:5296   */\n      0x00\n        /* \"#utility.yul\":5314:5381   */\n      tag_269\n        /* \"#utility.yul\":5378:5380   */\n      0x1d\n        /* \"#utility.yul\":5373:5376   */\n      dup4\n        /* \"#utility.yul\":5314:5381   */\n      tag_186\n      jump\t// in\n    tag_269:\n        /* \"#utility.yul\":5307:5381   */\n      swap2\n      pop\n        /* \"#utility.yul\":5390:5483   */\n      tag_270\n        /* \"#utility.yul\":5479:5482   */\n      dup3\n        /* \"#utility.yul\":5390:5483   */\n      tag_189\n      jump\t// in\n    tag_270:\n        /* \"#utility.yul\":5508:5510   */\n      0x20\n        /* \"#utility.yul\":5503:5506   */\n      dup3\n        /* \"#utility.yul\":5499:5511   */\n      add\n        /* \"#utility.yul\":5492:5511   */\n      swap1\n      pop\n        /* \"#utility.yul\":5151:5517   */\n      swap2\n      swap1\n      pop\n      jump\t// out\n        /* \"#utility.yul\":5523:5942   */\n    tag_94:\n        /* \"#utility.yul\":5689:5693   */\n      0x00\n        /* \"#utility.yul\":5727:5729   */\n      0x20\n        /* \"#utility.yul\":5716:5725   */\n      dup3\n        /* \"#utility.yul\":5712:5730   */\n      add\n        /* \"#utility.yul\":5704:5730   */\n      swap1\n      pop\n        /* \"#utility.yul\":5776:5785   */\n      dup2\n        /* \"#utility.yul\":5770:5774   */\n      dup2\n        /* \"#utility.yul\":5766:5786   */\n      sub\n        /* \"#utility.yul\":5762:5763   */\n      0x00\n        /* \"#utility.yul\":5751:5760   */\n      dup4\n        /* \"#utility.yul\":5747:5764   */\n      add\n        /* \"#utility.yul\":5740:5787   */\n      mstore\n        /* \"#utility.yul\":5804:5935   */\n      tag_272\n        /* \"#utility.yul\":5930:5934   */\n      dup2\n        /* \"#utility.yul\":5804:5935   */\n      tag_190\n      jump\t// in\n    tag_272:\n        /* \"#utility.yul\":5796:5935   */\n      swap1\n      pop\n        /* \"#utility.yul\":5523:5942   */\n      swap2\n      swap1\n      pop\n      jump\t// out\n        /* \"#utility.yul\":5948:6128   */\n    tag_191:\n        /* \"#utility.yul\":5996:6073   */\n      0x4e487b7100000000000000000000000000000000000000000000000000000000\n        /* \"#utility.yul\":5993:5994   */\n      0x00\n        /* \"#utility.yul\":5986:6074   */\n      mstore\n        /* \"#utility.yul\":6093:6097   */\n      0x11\n        /* \"#utility.yul\":6090:6091   */\n      0x04\n        /* \"#utility.yul\":6083:6098   */\n      mstore\n        /* \"#utility.yul\":6117:6121   */\n      0x24\n        /* \"#utility.yul\":6114:6115   */\n      0x00\n        /* \"#utility.yul\":6107:6122   */\n      revert\n        /* \"#utility.yul\":6134:6325   */\n    tag_100:\n        /* \"#utility.yul\":6174:6177   */\n      0x00\n        /* \"#utility.yul\":6193:6213   */\n      tag_275\n        /* \"#utility.yul\":6211:6212   */\n      dup3\n        /* \"#utility.yul\":6193:6213   */\n      tag_168\n      jump\t// in\n    tag_275:\n        /* \"#utility.yul\":6188:6213   */\n      swap2\n      pop\n        /* \"#utility.yul\":6227:6247   */\n      tag_276\n        /* \"#utility.yul\":6245:6246   */\n      dup4\n        /* \"#utility.yul\":6227:6247   */\n      tag_168\n      jump\t// in\n    tag_276:\n        /* \"#utility.yul\":6222:6247   */\n      swap3\n      pop\n        /* \"#utility.yul\":6270:6271   */\n      dup3\n        /* \"#utility.yul\":6267:6268   */\n      dup3\n        /* \"#utility.yul\":6263:6272   */\n      add\n        /* \"#utility.yul\":6256:6272   */\n      swap1\n      pop\n        /* \"#utility.yul\":6291:6294   */\n      dup1\n        /* \"#utility.yul\":6288:6289   */\n      dup3\n        /* \"#utility.yul\":6285:6295   */\n      gt\n        /* \"#utility.yul\":6282:6318   */\n      iszero\n      tag_277\n      jumpi\n        /* \"#utility.yul\":6298:6316   */\n      tag_278\n      tag_191\n      jump\t// in\n    tag_278:\n        /* \"#utility.yul\":6282:6318   */\n    tag_277:\n        /* \"#utility.yul\":6134:6325   */\n      swap3\n      swap2\n      pop\n      pop\n      jump\t// out\n        /* \"#utility.yul\":6331:6560   */\n    tag_192:\n        /* \"#utility.yul\":6471:6505   */\n      0x43726f776473616c653a2062656e656669636961727920697320746865207a65\n        /* \"#utility.yul\":6467:6468   */\n      0x00\n        /* \"#utility.yul\":6459:6465   */\n      dup3\n        /* \"#utility.yul\":6455:6469   */\n      add\n        /* \"#utility.yul\":6448:6506   */\n      mstore\n        /* \"#utility.yul\":6540:6552   */\n      0x726f206164647265737300000000000000000000000000000000000000000000\n        /* \"#utility.yul\":6535:6537   */\n      0x20\n        /* \"#utility.yul\":6527:6533   */\n      dup3\n        /* \"#utility.yul\":6523:6538   */\n      add\n        /* \"#utility.yul\":6516:6553   */\n      mstore\n        /* \"#utility.yul\":6331:6560   */\n      pop\n      jump\t// out\n        /* \"#utility.yul\":6566:6932   */\n    tag_193:\n        /* \"#utility.yul\":6708:6711   */\n      0x00\n        /* \"#utility.yul\":6729:6796   */\n      tag_281\n        /* \"#utility.yul\":6793:6795   */\n      0x2a\n        /* \"#utility.yul\":6788:6791   */\n      dup4\n        /* \"#utility.yul\":6729:6796   */\n      tag_186\n      jump\t// in\n    tag_281:\n        /* \"#utility.yul\":6722:6796   */\n      swap2\n      pop\n        /* \"#utility.yul\":6805:6898   */\n      tag_282\n        /* \"#utility.yul\":6894:6897   */\n      dup3\n        /* \"#utility.yul\":6805:6898   */\n      tag_192\n      jump\t// in\n    tag_282:\n        /* \"#utility.yul\":6923:6925   */\n      0x40\n        /* \"#utility.yul\":6918:6921   */\n      dup3\n        /* \"#utility.yul\":6914:6926   */\n      add\n        /* \"#utility.yul\":6907:6926   */\n      swap1\n      pop\n        /* \"#utility.yul\":6566:6932   */\n      swap2\n      swap1\n      pop\n      jump\t// out\n        /* \"#utility.yul\":6938:7357   */\n    tag_113:\n        /* \"#utility.yul\":7104:7108   */\n      0x00\n        /* \"#utility.yul\":7142:7144   */\n      0x20\n        /* \"#utility.yul\":7131:7140   */\n      dup3\n        /* \"#utility.yul\":7127:7145   */\n      add\n        /* \"#utility.yul\":7119:7145   */\n      swap1\n      pop\n        /* \"#utility.yul\":7191:7200   */\n      dup2\n        /* \"#utility.yul\":7185:7189   */\n      dup2\n        /* \"#utility.yul\":7181:7201   */\n      sub\n        /* \"#utility.yul\":7177:7178   */\n      0x00\n        /* \"#utility.yul\":7166:7175   */\n      dup4\n        /* \"#utility.yul\":7162:7179   */\n      add\n        /* \"#utility.yul\":7155:7202   */\n      mstore\n        /* \"#utility.yul\":7219:7350   */\n      tag_284\n        /* \"#utility.yul\":7345:7349   */\n      dup2\n        /* \"#utility.yul\":7219:7350   */\n      tag_193\n      jump\t// in\n    tag_284:\n        /* \"#utility.yul\":7211:7350   */\n      swap1\n      pop\n        /* \"#utility.yul\":6938:7357   */\n      swap2\n      swap1\n      pop\n      jump\t// out\n        /* \"#utility.yul\":7363:7538   */\n    tag_194:\n        /* \"#utility.yul\":7503:7530   */\n      0x43726f776473616c653a20776569416d6f756e74206973203000000000000000\n        /* \"#utility.yul\":7499:7500   */\n      0x00\n        /* \"#utility.yul\":7491:7497   */\n      dup3\n        /* \"#utility.yul\":7487:7501   */\n      add\n        /* \"#utility.yul\":7480:7531   */\n      mstore\n        /* \"#utility.yul\":7363:7538   */\n      pop\n      jump\t// out\n        /* \"#utility.yul\":7544:7910   */\n    tag_195:\n        /* \"#utility.yul\":7686:7689   */\n      0x00\n        /* \"#utility.yul\":7707:7774   */\n      tag_287\n        /* \"#utility.yul\":7771:7773   */\n      0x19\n        /* \"#utility.yul\":7766:7769   */\n      dup4\n        /* \"#utility.yul\":7707:7774   */\n      tag_186\n      jump\t// in\n    tag_287:\n        /* \"#utility.yul\":7700:7774   */\n      swap2\n      pop\n        /* \"#utility.yul\":7783:7876   */\n      tag_288\n        /* \"#utility.yul\":7872:7875   */\n      dup3\n        /* \"#utility.yul\":7783:7876   */\n      tag_194\n      jump\t// in\n    tag_288:\n        /* \"#utility.yul\":7901:7903   */\n      0x20\n        /* \"#utility.yul\":7896:7899   */\n      dup3\n        /* \"#utility.yul\":7892:7904   */\n      add\n        /* \"#utility.yul\":7885:7904   */\n      swap1\n      pop\n        /* \"#utility.yul\":7544:7910   */\n      swap2\n      swap1\n      pop\n      jump\t// out\n        /* \"#utility.yul\":7916:8335   */\n    tag_116:\n        /* \"#utility.yul\":8082:8086   */\n      0x00\n        /* \"#utility.yul\":8120:8122   */\n      0x20\n        /* \"#utility.yul\":8109:8118   */\n      dup3\n        /* \"#utility.yul\":8105:8123   */\n      add\n        /* \"#utility.yul\":8097:8123   */\n      swap1\n      pop\n        /* \"#utility.yul\":8169:8178   */\n      dup2\n        /* \"#utility.yul\":8163:8167   */\n      dup2\n        /* \"#utility.yul\":8159:8179   */\n      sub\n        /* \"#utility.yul\":8155:8156   */\n      0x00\n        /* \"#utility.yul\":8144:8153   */\n      dup4\n        /* \"#utility.yul\":8140:8157   */\n      add\n        /* \"#utility.yul\":8133:8180   */\n      mstore\n        /* \"#utility.yul\":8197:8328   */\n      tag_290\n        /* \"#utility.yul\":8323:8327   */\n      dup2\n        /* \"#utility.yul\":8197:8328   */\n      tag_195\n      jump\t// in\n    tag_290:\n        /* \"#utility.yul\":8189:8328   */\n      swap1\n      pop\n        /* \"#utility.yul\":7916:8335   */\n      swap2\n      swap1\n      pop\n      jump\t// out\n        /* \"#utility.yul\":8341:8751   */\n    tag_119:\n        /* \"#utility.yul\":8381:8388   */\n      0x00\n        /* \"#utility.yul\":8404:8424   */\n      tag_292\n        /* \"#utility.yul\":8422:8423   */\n      dup3\n        /* \"#utility.yul\":8404:8424   */\n      tag_168\n      jump\t// in\n    tag_292:\n        /* \"#utility.yul\":8399:8424   */\n      swap2\n      pop\n        /* \"#utility.yul\":8438:8458   */\n      tag_293\n        /* \"#utility.yul\":8456:8457   */\n      dup4\n        /* \"#utility.yul\":8438:8458   */\n      tag_168\n      jump\t// in\n    tag_293:\n        /* \"#utility.yul\":8433:8458   */\n      swap3\n      pop\n        /* \"#utility.yul\":8493:8494   */\n      dup3\n        /* \"#utility.yul\":8490:8491   */\n      dup3\n        /* \"#utility.yul\":8486:8495   */\n      mul\n        /* \"#utility.yul\":8515:8545   */\n      tag_294\n        /* \"#utility.yul\":8533:8544   */\n      dup2\n        /* \"#utility.yul\":8515:8545   */\n      tag_168\n      jump\t// in\n    tag_294:\n        /* \"#utility.yul\":8504:8545   */\n      swap2\n      pop\n        /* \"#utility.yul\":8694:8695   */\n      dup3\n        /* \"#utility.yul\":8685:8692   */\n      dup3\n        /* \"#utility.yul\":8681:8696   */\n      div\n        /* \"#utility.yul\":8678:8679   */\n      dup5\n        /* \"#utility.yul\":8675:8697   */\n      eq\n        /* \"#utility.yul\":8655:8656   */\n      dup4\n        /* \"#utility.yul\":8648:8657   */\n      iszero\n        /* \"#utility.yul\":8628:8711   */\n      or\n        /* \"#utility.yul\":8605:8744   */\n      tag_295\n      jumpi\n        /* \"#utility.yul\":8724:8742   */\n      tag_296\n      tag_191\n      jump\t// in\n    tag_296:\n        /* \"#utility.yul\":8605:8744   */\n    tag_295:\n        /* \"#utility.yul\":8389:8751   */\n      pop\n        /* \"#utility.yul\":8341:8751   */\n      swap3\n      swap2\n      pop\n      pop\n      jump\t// out\n        /* \"#utility.yul\":8757:8875   */\n    tag_196:\n        /* \"#utility.yul\":8844:8868   */\n      tag_298\n        /* \"#utility.yul\":8862:8867   */\n      dup2\n        /* \"#utility.yul\":8844:8868   */\n      tag_178\n      jump\t// in\n    tag_298:\n        /* \"#utility.yul\":8839:8842   */\n      dup3\n        /* \"#utility.yul\":8832:8869   */\n      mstore\n        /* \"#utility.yul\":8757:8875   */\n      pop\n      pop\n      jump\t// out\n        /* \"#utility.yul\":8881:9213   */\n    tag_126:\n        /* \"#utility.yul\":9002:9006   */\n      0x00\n        /* \"#utility.yul\":9040:9042   */\n      0x40\n        /* \"#utility.yul\":9029:9038   */\n      dup3\n        /* \"#utility.yul\":9025:9043   */\n      add\n        /* \"#utility.yul\":9017:9043   */\n      swap1\n      pop\n        /* \"#utility.yul\":9053:9124   */\n      tag_300\n        /* \"#utility.yul\":9121:9122   */\n      0x00\n        /* \"#utility.yul\":9110:9119   */\n      dup4\n        /* \"#utility.yul\":9106:9123   */\n      add\n        /* \"#utility.yul\":9097:9103   */\n      dup6\n        /* \"#utility.yul\":9053:9124   */\n      tag_196\n      jump\t// in\n    tag_300:\n        /* \"#utility.yul\":9134:9206   */\n      tag_301\n        /* \"#utility.yul\":9202:9204   */\n      0x20\n        /* \"#utility.yul\":9191:9200   */\n      dup4\n        /* \"#utility.yul\":9187:9205   */\n      add\n        /* \"#utility.yul\":9178:9184   */\n      dup5\n        /* \"#utility.yul\":9134:9206   */\n      tag_169\n      jump\t// in\n    tag_301:\n        /* \"#utility.yul\":8881:9213   */\n      swap4\n      swap3\n      pop\n      pop\n      pop\n      jump\t// out\n        /* \"#utility.yul\":9219:9335   */\n    tag_197:\n        /* \"#utility.yul\":9289:9310   */\n      tag_303\n        /* \"#utility.yul\":9304:9309   */\n      dup2\n        /* \"#utility.yul\":9289:9310   */\n      tag_170\n      jump\t// in\n    tag_303:\n        /* \"#utility.yul\":9282:9287   */\n      dup2\n        /* \"#utility.yul\":9279:9311   */\n      eq\n        /* \"#utility.yul\":9269:9329   */\n      tag_304\n      jumpi\n        /* \"#utility.yul\":9325:9326   */\n      0x00\n        /* \"#utility.yul\":9322:9323   */\n      dup1\n        /* \"#utility.yul\":9315:9327   */\n      revert\n        /* \"#utility.yul\":9269:9329   */\n    tag_304:\n        /* \"#utility.yul\":9219:9335   */\n      pop\n      jump\t// out\n        /* \"#utility.yul\":9341:9478   */\n    tag_198:\n        /* \"#utility.yul\":9395:9400   */\n      0x00\n        /* \"#utility.yul\":9426:9432   */\n      dup2\n        /* \"#utility.yul\":9420:9433   */\n      mload\n        /* \"#utility.yul\":9411:9433   */\n      swap1\n      pop\n        /* \"#utility.yul\":9442:9472   */\n      tag_306\n        /* \"#utility.yul\":9466:9471   */\n      dup2\n        /* \"#utility.yul\":9442:9472   */\n      tag_197\n      jump\t// in\n    tag_306:\n        /* \"#utility.yul\":9341:9478   */\n      swap3\n      swap2\n      pop\n      pop\n      jump\t// out\n        /* \"#utility.yul\":9484:9829   */\n    tag_133:\n        /* \"#utility.yul\":9551:9557   */\n      0x00\n        /* \"#utility.yul\":9600:9602   */\n      0x20\n        /* \"#utility.yul\":9588:9597   */\n      dup3\n        /* \"#utility.yul\":9579:9586   */\n      dup5\n        /* \"#utility.yul\":9575:9598   */\n      sub\n        /* \"#utility.yul\":9571:9603   */\n      slt\n        /* \"#utility.yul\":9568:9687   */\n      iszero\n      tag_308\n      jumpi\n        /* \"#utility.yul\":9606:9685   */\n      tag_309\n      tag_176\n      jump\t// in\n    tag_309:\n        /* \"#utility.yul\":9568:9687   */\n    tag_308:\n        /* \"#utility.yul\":9726:9727   */\n      0x00\n        /* \"#utility.yul\":9751:9812   */\n      tag_310\n        /* \"#utility.yul\":9804:9811   */\n      dup5\n        /* \"#utility.yul\":9795:9801   */\n      dup3\n        /* \"#utility.yul\":9784:9793   */\n      dup6\n        /* \"#utility.yul\":9780:9802   */\n      add\n        /* \"#utility.yul\":9751:9812   */\n      tag_198\n      jump\t// in\n    tag_310:\n        /* \"#utility.yul\":9741:9812   */\n      swap2\n      pop\n        /* \"#utility.yul\":9697:9822   */\n      pop\n        /* \"#utility.yul\":9484:9829   */\n      swap3\n      swap2\n      pop\n      pop\n      jump\t// out\n        /* \"#utility.yul\":9835:10064   */\n    tag_199:\n        /* \"#utility.yul\":9975:10009   */\n      0x5361666545524332303a204552433230206f7065726174696f6e20646964206e\n        /* \"#utility.yul\":9971:9972   */\n      0x00\n        /* \"#utility.yul\":9963:9969   */\n      dup3\n        /* \"#utility.yul\":9959:9973   */\n      add\n        /* \"#utility.yul\":9952:10010   */\n      mstore\n        /* \"#utility.yul\":10044:10056   */\n      0x6f74207375636365656400000000000000000000000000000000000000000000\n        /* \"#utility.yul\":10039:10041   */\n      0x20\n        /* \"#utility.yul\":10031:10037   */\n      dup3\n        /* \"#utility.yul\":10027:10042   */\n      add\n        /* \"#utility.yul\":10020:10057   */\n      mstore\n        /* \"#utility.yul\":9835:10064   */\n      pop\n      jump\t// out\n        /* \"#utility.yul\":10070:10436   */\n    tag_200:\n        /* \"#utility.yul\":10212:10215   */\n      0x00\n        /* \"#utility.yul\":10233:10300   */\n      tag_313\n        /* \"#utility.yul\":10297:10299   */\n      0x2a\n        /* \"#utility.yul\":10292:10295   */\n      dup4\n        /* \"#utility.yul\":10233:10300   */\n      tag_186\n      jump\t// in\n    tag_313:\n        /* \"#utility.yul\":10226:10300   */\n      swap2\n      pop\n        /* \"#utility.yul\":10309:10402   */\n      tag_314\n        /* \"#utility.yul\":10398:10401   */\n      dup3\n        /* \"#utility.yul\":10309:10402   */\n      tag_199\n      jump\t// in\n    tag_314:\n        /* \"#utility.yul\":10427:10429   */\n      0x40\n        /* \"#utility.yul\":10422:10425   */\n      dup3\n        /* \"#utility.yul\":10418:10430   */\n      add\n        /* \"#utility.yul\":10411:10430   */\n      swap1\n      pop\n        /* \"#utility.yul\":10070:10436   */\n      swap2\n      swap1\n      pop\n      jump\t// out\n        /* \"#utility.yul\":10442:10861   */\n    tag_136:\n        /* \"#utility.yul\":10608:10612   */\n      0x00\n        /* \"#utility.yul\":10646:10648   */\n      0x20\n        /* \"#utility.yul\":10635:10644   */\n      dup3\n        /* \"#utility.yul\":10631:10649   */\n      add\n        /* \"#utility.yul\":10623:10649   */\n      swap1\n      pop\n        /* \"#utility.yul\":10695:10704   */\n      dup2\n        /* \"#utility.yul\":10689:10693   */\n      dup2\n        /* \"#utility.yul\":10685:10705   */\n      sub\n        /* \"#utility.yul\":10681:10682   */\n      0x00\n        /* \"#utility.yul\":10670:10679   */\n      dup4\n        /* \"#utility.yul\":10666:10683   */\n      add\n        /* \"#utility.yul\":10659:10706   */\n      mstore\n        /* \"#utility.yul\":10723:10854   */\n      tag_316\n        /* \"#utility.yul\":10849:10853   */\n      dup2\n        /* \"#utility.yul\":10723:10854   */\n      tag_200\n      jump\t// in\n    tag_316:\n        /* \"#utility.yul\":10715:10854   */\n      swap1\n      pop\n        /* \"#utility.yul\":10442:10861   */\n      swap2\n      swap1\n      pop\n      jump\t// out\n        /* \"#utility.yul\":10867:11092   */\n    tag_201:\n        /* \"#utility.yul\":11007:11041   */\n      0x416464726573733a20696e73756666696369656e742062616c616e636520666f\n        /* \"#utility.yul\":11003:11004   */\n      0x00\n        /* \"#utility.yul\":10995:11001   */\n      dup3\n        /* \"#utility.yul\":10991:11005   */\n      add\n        /* \"#utility.yul\":10984:11042   */\n      mstore\n        /* \"#utility.yul\":11076:11084   */\n      0x722063616c6c0000000000000000000000000000000000000000000000000000\n        /* \"#utility.yul\":11071:11073   */\n      0x20\n        /* \"#utility.yul\":11063:11069   */\n      dup3\n        /* \"#utility.yul\":11059:11074   */\n      add\n        /* \"#utility.yul\":11052:11085   */\n      mstore\n        /* \"#utility.yul\":10867:11092   */\n      pop\n      jump\t// out\n        /* \"#utility.yul\":11098:11464   */\n    tag_202:\n        /* \"#utility.yul\":11240:11243   */\n      0x00\n        /* \"#utility.yul\":11261:11328   */\n      tag_319\n        /* \"#utility.yul\":11325:11327   */\n      0x26\n        /* \"#utility.yul\":11320:11323   */\n      dup4\n        /* \"#utility.yul\":11261:11328   */\n      tag_186\n      jump\t// in\n    tag_319:\n        /* \"#utility.yul\":11254:11328   */\n      swap2\n      pop\n        /* \"#utility.yul\":11337:11430   */\n      tag_320\n        /* \"#utility.yul\":11426:11429   */\n      dup3\n        /* \"#utility.yul\":11337:11430   */\n      tag_201\n      jump\t// in\n    tag_320:\n        /* \"#utility.yul\":11455:11457   */\n      0x40\n        /* \"#utility.yul\":11450:11453   */\n      dup3\n        /* \"#utility.yul\":11446:11458   */\n      add\n        /* \"#utility.yul\":11439:11458   */\n      swap1\n      pop\n        /* \"#utility.yul\":11098:11464   */\n      swap2\n      swap1\n      pop\n      jump\t// out\n        /* \"#utility.yul\":11470:11889   */\n    tag_143:\n        /* \"#utility.yul\":11636:11640   */\n      0x00\n        /* \"#utility.yul\":11674:11676   */\n      0x20\n        /* \"#utility.yul\":11663:11672   */\n      dup3\n        /* \"#utility.yul\":11659:11677   */\n      add\n        /* \"#utility.yul\":11651:11677   */\n      swap1\n      pop\n        /* \"#utility.yul\":11723:11732   */\n      dup2\n        /* \"#utility.yul\":11717:11721   */\n      dup2\n        /* \"#utility.yul\":11713:11733   */\n      sub\n        /* \"#utility.yul\":11709:11710   */\n      0x00\n        /* \"#utility.yul\":11698:11707   */\n      dup4\n        /* \"#utility.yul\":11694:11711   */\n      add\n        /* \"#utility.yul\":11687:11734   */\n      mstore\n        /* \"#utility.yul\":11751:11882   */\n      tag_322\n        /* \"#utility.yul\":11877:11881   */\n      dup2\n        /* \"#utility.yul\":11751:11882   */\n      tag_202\n      jump\t// in\n    tag_322:\n        /* \"#utility.yul\":11743:11882   */\n      swap1\n      pop\n        /* \"#utility.yul\":11470:11889   */\n      swap2\n      swap1\n      pop\n      jump\t// out\n        /* \"#utility.yul\":11895:11993   */\n    tag_203:\n        /* \"#utility.yul\":11946:11952   */\n      0x00\n        /* \"#utility.yul\":11980:11985   */\n      dup2\n        /* \"#utility.yul\":11974:11986   */\n      mload\n        /* \"#utility.yul\":11964:11986   */\n      swap1\n      pop\n        /* \"#utility.yul\":11895:11993   */\n      swap2\n      swap1\n      pop\n      jump\t// out\n        /* \"#utility.yul\":11999:12146   */\n    tag_204:\n        /* \"#utility.yul\":12100:12111   */\n      0x00\n        /* \"#utility.yul\":12137:12140   */\n      dup2\n        /* \"#utility.yul\":12122:12140   */\n      swap1\n      pop\n        /* \"#utility.yul\":11999:12146   */\n      swap3\n      swap2\n      pop\n      pop\n      jump\t// out\n        /* \"#utility.yul\":12152:12398   */\n    tag_205:\n        /* \"#utility.yul\":12233:12234   */\n      0x00\n        /* \"#utility.yul\":12243:12356   */\n    tag_326:\n        /* \"#utility.yul\":12257:12263   */\n      dup4\n        /* \"#utility.yul\":12254:12255   */\n      dup2\n        /* \"#utility.yul\":12251:12264   */\n      lt\n        /* \"#utility.yul\":12243:12356   */\n      iszero\n      tag_328\n      jumpi\n        /* \"#utility.yul\":12342:12343   */\n      dup1\n        /* \"#utility.yul\":12337:12340   */\n      dup3\n        /* \"#utility.yul\":12333:12344   */\n      add\n        /* \"#utility.yul\":12327:12345   */\n      mload\n        /* \"#utility.yul\":12323:12324   */\n      dup2\n        /* \"#utility.yul\":12318:12321   */\n      dup5\n        /* \"#utility.yul\":12314:12325   */\n      add\n        /* \"#utility.yul\":12307:12346   */\n      mstore\n        /* \"#utility.yul\":12279:12281   */\n      0x20\n        /* \"#utility.yul\":12276:12277   */\n      dup2\n        /* \"#utility.yul\":12272:12282   */\n      add\n        /* \"#utility.yul\":12267:12282   */\n      swap1\n      pop\n        /* \"#utility.yul\":12243:12356   */\n      jump(tag_326)\n    tag_328:\n        /* \"#utility.yul\":12390:12391   */\n      0x00\n        /* \"#utility.yul\":12381:12387   */\n      dup5\n        /* \"#utility.yul\":12376:12379   */\n      dup5\n        /* \"#utility.yul\":12372:12388   */\n      add\n        /* \"#utility.yul\":12365:12392   */\n      mstore\n        /* \"#utility.yul\":12214:12398   */\n      pop\n        /* \"#utility.yul\":12152:12398   */\n      pop\n      pop\n      pop\n      jump\t// out\n        /* \"#utility.yul\":12404:12790   */\n    tag_206:\n        /* \"#utility.yul\":12508:12511   */\n      0x00\n        /* \"#utility.yul\":12536:12574   */\n      tag_330\n        /* \"#utility.yul\":12568:12573   */\n      dup3\n        /* \"#utility.yul\":12536:12574   */\n      tag_203\n      jump\t// in\n    tag_330:\n        /* \"#utility.yul\":12590:12678   */\n      tag_331\n        /* \"#utility.yul\":12671:12677   */\n      dup2\n        /* \"#utility.yul\":12666:12669   */\n      dup6\n        /* \"#utility.yul\":12590:12678   */\n      tag_204\n      jump\t// in\n    tag_331:\n        /* \"#utility.yul\":12583:12678   */\n      swap4\n      pop\n        /* \"#utility.yul\":12687:12752   */\n      tag_332\n        /* \"#utility.yul\":12745:12751   */\n      dup2\n        /* \"#utility.yul\":12740:12743   */\n      dup6\n        /* \"#utility.yul\":12733:12737   */\n      0x20\n        /* \"#utility.yul\":12726:12731   */\n      dup7\n        /* \"#utility.yul\":12722:12738   */\n      add\n        /* \"#utility.yul\":12687:12752   */\n      tag_205\n      jump\t// in\n    tag_332:\n        /* \"#utility.yul\":12777:12783   */\n      dup1\n        /* \"#utility.yul\":12772:12775   */\n      dup5\n        /* \"#utility.yul\":12768:12784   */\n      add\n        /* \"#utility.yul\":12761:12784   */\n      swap2\n      pop\n        /* \"#utility.yul\":12512:12790   */\n      pop\n        /* \"#utility.yul\":12404:12790   */\n      swap3\n      swap2\n      pop\n      pop\n      jump\t// out\n        /* \"#utility.yul\":12796:13067   */\n    tag_145:\n        /* \"#utility.yul\":12926:12929   */\n      0x00\n        /* \"#utility.yul\":12948:13041   */\n      tag_334\n        /* \"#utility.yul\":13037:13040   */\n      dup3\n        /* \"#utility.yul\":13028:13034   */\n      dup5\n        /* \"#utility.yul\":12948:13041   */\n      tag_206\n      jump\t// in\n    tag_334:\n        /* \"#utility.yul\":12941:13041   */\n      swap2\n      pop\n        /* \"#utility.yul\":13058:13061   */\n      dup2\n        /* \"#utility.yul\":13051:13061   */\n      swap1\n      pop\n        /* \"#utility.yul\":12796:13067   */\n      swap3\n      swap2\n      pop\n      pop\n      jump\t// out\n        /* \"#utility.yul\":13073:13252   */\n    tag_207:\n        /* \"#utility.yul\":13213:13244   */\n      0x416464726573733a2063616c6c20746f206e6f6e2d636f6e7472616374000000\n        /* \"#utility.yul\":13209:13210   */\n      0x00\n        /* \"#utility.yul\":13201:13207   */\n      dup3\n        /* \"#utility.yul\":13197:13211   */\n      add\n        /* \"#utility.yul\":13190:13245   */\n      mstore\n        /* \"#utility.yul\":13073:13252   */\n      pop\n      jump\t// out\n        /* \"#utility.yul\":13258:13624   */\n    tag_208:\n        /* \"#utility.yul\":13400:13403   */\n      0x00\n        /* \"#utility.yul\":13421:13488   */\n      tag_337\n        /* \"#utility.yul\":13485:13487   */\n      0x1d\n        /* \"#utility.yul\":13480:13483   */\n      dup4\n        /* \"#utility.yul\":13421:13488   */\n      tag_186\n      jump\t// in\n    tag_337:\n        /* \"#utility.yul\":13414:13488   */\n      swap2\n      pop\n        /* \"#utility.yul\":13497:13590   */\n      tag_338\n        /* \"#utility.yul\":13586:13589   */\n      dup3\n        /* \"#utility.yul\":13497:13590   */\n      tag_207\n      jump\t// in\n    tag_338:\n        /* \"#utility.yul\":13615:13617   */\n      0x20\n        /* \"#utility.yul\":13610:13613   */\n      dup3\n        /* \"#utility.yul\":13606:13618   */\n      add\n        /* \"#utility.yul\":13599:13618   */\n      swap1\n      pop\n        /* \"#utility.yul\":13258:13624   */\n      swap2\n      swap1\n      pop\n      jump\t// out\n        /* \"#utility.yul\":13630:14049   */\n    tag_158:\n        /* \"#utility.yul\":13796:13800   */\n      0x00\n        /* \"#utility.yul\":13834:13836   */\n      0x20\n        /* \"#utility.yul\":13823:13832   */\n      dup3\n        /* \"#utility.yul\":13819:13837   */\n      add\n        /* \"#utility.yul\":13811:13837   */\n      swap1\n      pop\n        /* \"#utility.yul\":13883:13892   */\n      dup2\n        /* \"#utility.yul\":13877:13881   */\n      dup2\n        /* \"#utility.yul\":13873:13893   */\n      sub\n        /* \"#utility.yul\":13869:13870   */\n      0x00\n        /* \"#utility.yul\":13858:13867   */\n      dup4\n        /* \"#utility.yul\":13854:13871   */\n      add\n        /* \"#utility.yul\":13847:13894   */\n      mstore\n        /* \"#utility.yul\":13911:14042   */\n      tag_340\n        /* \"#utility.yul\":14037:14041   */\n      dup2\n        /* \"#utility.yul\":13911:14042   */\n      tag_208\n      jump\t// in\n    tag_340:\n        /* \"#utility.yul\":13903:14042   */\n      swap1\n      pop\n        /* \"#utility.yul\":13630:14049   */\n      swap2\n      swap1\n      pop\n      jump\t// out\n        /* \"#utility.yul\":14055:14154   */\n    tag_209:\n        /* \"#utility.yul\":14107:14113   */\n      0x00\n        /* \"#utility.yul\":14141:14146   */\n      dup2\n        /* \"#utility.yul\":14135:14147   */\n      mload\n        /* \"#utility.yul\":14125:14147   */\n      swap1\n      pop\n        /* \"#utility.yul\":14055:14154   */\n      swap2\n      swap1\n      pop\n      jump\t// out\n        /* \"#utility.yul\":14160:14262   */\n    tag_210:\n        /* \"#utility.yul\":14201:14207   */\n      0x00\n        /* \"#utility.yul\":14252:14254   */\n      0x1f\n        /* \"#utility.yul\":14248:14255   */\n      not\n        /* \"#utility.yul\":14243:14245   */\n      0x1f\n        /* \"#utility.yul\":14236:14241   */\n      dup4\n        /* \"#utility.yul\":14232:14246   */\n      add\n        /* \"#utility.yul\":14228:14256   */\n      and\n        /* \"#utility.yul\":14218:14256   */\n      swap1\n      pop\n        /* \"#utility.yul\":14160:14262   */\n      swap2\n      swap1\n      pop\n      jump\t// out\n        /* \"#utility.yul\":14268:14645   */\n    tag_211:\n        /* \"#utility.yul\":14356:14359   */\n      0x00\n        /* \"#utility.yul\":14384:14423   */\n      tag_344\n        /* \"#utility.yul\":14417:14422   */\n      dup3\n        /* \"#utility.yul\":14384:14423   */\n      tag_209\n      jump\t// in\n    tag_344:\n        /* \"#utility.yul\":14439:14510   */\n      tag_345\n        /* \"#utility.yul\":14503:14509   */\n      dup2\n        /* \"#utility.yul\":14498:14501   */\n      dup6\n        /* \"#utility.yul\":14439:14510   */\n      tag_186\n      jump\t// in\n    tag_345:\n        /* \"#utility.yul\":14432:14510   */\n      swap4\n      pop\n        /* \"#utility.yul\":14519:14584   */\n      tag_346\n        /* \"#utility.yul\":14577:14583   */\n      dup2\n        /* \"#utility.yul\":14572:14575   */\n      dup6\n        /* \"#utility.yul\":14565:14569   */\n      0x20\n        /* \"#utility.yul\":14558:14563   */\n      dup7\n        /* \"#utility.yul\":14554:14570   */\n      add\n        /* \"#utility.yul\":14519:14584   */\n      tag_205\n      jump\t// in\n    tag_346:\n        /* \"#utility.yul\":14609:14638   */\n      tag_347\n        /* \"#utility.yul\":14631:14637   */\n      dup2\n        /* \"#utility.yul\":14609:14638   */\n      tag_210\n      jump\t// in\n    tag_347:\n        /* \"#utility.yul\":14604:14607   */\n      dup5\n        /* \"#utility.yul\":14600:14639   */\n      add\n        /* \"#utility.yul\":14593:14639   */\n      swap2\n      pop\n        /* \"#utility.yul\":14360:14645   */\n      pop\n        /* \"#utility.yul\":14268:14645   */\n      swap3\n      swap2\n      pop\n      pop\n      jump\t// out\n        /* \"#utility.yul\":14651:14964   */\n    tag_167:\n        /* \"#utility.yul\":14764:14768   */\n      0x00\n        /* \"#utility.yul\":14802:14804   */\n      0x20\n        /* \"#utility.yul\":14791:14800   */\n      dup3\n        /* \"#utility.yul\":14787:14805   */\n      add\n        /* \"#utility.yul\":14779:14805   */\n      swap1\n      pop\n        /* \"#utility.yul\":14851:14860   */\n      dup2\n        /* \"#utility.yul\":14845:14849   */\n      dup2\n        /* \"#utility.yul\":14841:14861   */\n      sub\n        /* \"#utility.yul\":14837:14838   */\n      0x00\n        /* \"#utility.yul\":14826:14835   */\n      dup4\n        /* \"#utility.yul\":14822:14839   */\n      add\n        /* \"#utility.yul\":14815:14862   */\n      mstore\n        /* \"#utility.yul\":14879:14957   */\n      tag_349\n        /* \"#utility.yul\":14952:14956   */\n      dup2\n        /* \"#utility.yul\":14943:14949   */\n      dup5\n        /* \"#utility.yul\":14879:14957   */\n      tag_211\n      jump\t// in\n    tag_349:\n        /* \"#utility.yul\":14871:14957   */\n      swap1\n      pop\n        /* \"#utility.yul\":14651:14964   */\n      swap3\n      swap2\n      pop\n      pop\n      jump\t// out\n\n    auxdata: 0xa2646970667358221220bbeefd1359e4a6070e1ea042f164929a2027fda79e898fe73155b0c4a2ffb2c864736f6c63430008150033\n}\n",
				"bytecode": {
					"linkReferences": {},
					"object": "608060405234801562000010575f80fd5b50604051620015ed380380620015ed833981810160405281019062000036919062000339565b82828260015f819055505f831162000085576040517f08c379a00000000000000000000000000000000000000000000000000000000081526004016200007c9062000406565b60405180910390fd5b5f73ffffffffffffffffffffffffffffffffffffffff168273ffffffffffffffffffffffffffffffffffffffff1603620000f6576040517f08c379a0000000000000000000000000000000000000000000000000000000008152600401620000ed906200049a565b60405180910390fd5b5f73ffffffffffffffffffffffffffffffffffffffff168173ffffffffffffffffffffffffffffffffffffffff160362000167576040517f08c379a00000000000000000000000000000000000000000000000000000000081526004016200015e906200052e565b60405180910390fd5b826003819055508160025f6101000a81548173ffffffffffffffffffffffffffffffffffffffff021916908373ffffffffffffffffffffffffffffffffffffffff1602179055508060015f6101000a81548173ffffffffffffffffffffffffffffffffffffffff021916908373ffffffffffffffffffffffffffffffffffffffff1602179055505050505f841162000236576040517f08c379a00000000000000000000000000000000000000000000000000000000081526004016200022d906200059c565b60405180910390fd5b8360058190555050505050620005bc565b5f80fd5b5f819050919050565b6200025f816200024b565b81146200026a575f80fd5b50565b5f815190506200027d8162000254565b92915050565b5f73ffffffffffffffffffffffffffffffffffffffff82169050919050565b5f620002ae8262000283565b9050919050565b620002c081620002a2565b8114620002cb575f80fd5b50565b5f81519050620002de81620002b5565b92915050565b5f620002f08262000283565b9050919050565b5f6200030382620002e4565b9050919050565b6200031581620002f7565b811462000320575f80fd5b50565b5f8151905062000333816200030a565b92915050565b5f805f806080858703121562000354576200035362000247565b5b5f62000363878288016200026d565b945050602062000376878288016200026d565b93505060406200038987828801620002ce565b92505060606200039c8782880162000323565b91505092959194509250565b5f82825260208201905092915050565b7f43726f776473616c653a207261746520697320300000000000000000000000005f82015250565b5f620003ee601483620003a8565b9150620003fb82620003b8565b602082019050919050565b5f6020820190508181035f8301526200041f81620003e0565b9050919050565b7f43726f776473616c653a2077616c6c657420697320746865207a65726f2061645f8201527f6472657373000000000000000000000000000000000000000000000000000000602082015250565b5f62000482602583620003a8565b91506200048f8262000426565b604082019050919050565b5f6020820190508181035f830152620004b38162000474565b9050919050565b7f43726f776473616c653a20746f6b656e20697320746865207a65726f206164645f8201527f7265737300000000000000000000000000000000000000000000000000000000602082015250565b5f62000516602483620003a8565b91506200052382620004ba565b604082019050919050565b5f6020820190508181035f830152620005478162000508565b9050919050565b7f43617070656443726f776473616c653a206361702069732030000000000000005f82015250565b5f62000584601983620003a8565b915062000591826200054e565b602082019050919050565b5f6020820190508181035f830152620005b58162000576565b9050919050565b61102380620005ca5f395ff3fe608060405260043610610073575f3560e01c80634f9359451161004d5780634f9359451461011a578063521eb27314610144578063ec8ac4d81461016e578063fc0c546a1461018a5761008a565b80632c4e722e1461009c578063355274ea146100c65780634042b66f146100f05761008a565b3661008a576100886100836101b4565b6101bb565b005b61009a6100956101b4565b6101bb565b005b3480156100a7575f80fd5b506100b0610299565b6040516100bd91906108ca565b60405180910390f35b3480156100d1575f80fd5b506100da6102a2565b6040516100e791906108ca565b60405180910390f35b3480156100fb575f80fd5b506101046102ab565b60405161011191906108ca565b60405180910390f35b348015610125575f80fd5b5061012e6102b4565b60405161013b91906108fd565b60405180910390f35b34801561014f575f80fd5b506101586102c7565b6040516101659190610955565b60405180910390f35b610188600480360381019061018391906109ad565b6101bb565b005b348015610195575f80fd5b5061019e6102ef565b6040516101ab9190610a33565b60405180910390f35b5f33905090565b6101c3610317565b5f3490506101d18282610364565b5f6101db826103d0565b90506101f2826004546103ed90919063ffffffff16565b6004819055506102028382610402565b8273ffffffffffffffffffffffffffffffffffffffff166102216101b4565b73ffffffffffffffffffffffffffffffffffffffff167f6faf93231a456e552dbc9961f58d9713ee4f2e69d15f1975b050ef0911053a7b8484604051610268929190610a4c565b60405180910390a361027a8383610410565b610282610414565b61028c838361047b565b505061029661047f565b50565b5f600354905090565b5f600554905090565b5f600454905090565b5f6005546102c06102ab565b1015905090565b5f60025f9054906101000a900473ffffffffffffffffffffffffffffffffffffffff16905090565b5f60015f9054906101000a900473ffffffffffffffffffffffffffffffffffffffff16905090565b60025f540361035b576040517f08c379a000000000000000000000000000000000000000000000000000000000815260040161035290610acd565b60405180910390fd5b60025f81905550565b61036e8282610488565b60055461038b8261037d6102ab565b6103ed90919063ffffffff16565b11156103cc576040517f08c379a00000000000000000000000000000000000000000000000000000000081526004016103c390610b35565b60405180910390fd5b5050565b5f6103e66003548361053c90919063ffffffff16565b9050919050565b5f81836103fa9190610b80565b905092915050565b61040c8282610551565b5050565b5050565b60025f9054906101000a900473ffffffffffffffffffffffffffffffffffffffff1673ffffffffffffffffffffffffffffffffffffffff166108fc3490811502906040515f60405180830381858888f19350505050158015610478573d5f803e3d5ffd5b50565b5050565b60015f81905550565b5f73ffffffffffffffffffffffffffffffffffffffff168273ffffffffffffffffffffffffffffffffffffffff16036104f6576040517f08c379a00000000000000000000000000000000000000000000000000000000081526004016104ed90610c23565b60405180910390fd5b5f8103610538576040517f08c379a000000000000000000000000000000000000000000000000000000000815260040161052f90610c8b565b60405180910390fd5b5050565b5f81836105499190610ca9565b905092915050565b61059d828260015f9054906101000a900473ffffffffffffffffffffffffffffffffffffffff1673ffffffffffffffffffffffffffffffffffffffff166105a19092919063ffffffff16565b5050565b6106228363a9059cbb60e01b84846040516024016105c0929190610cf9565b604051602081830303815290604052907bffffffffffffffffffffffffffffffffffffffffffffffffffffffff19166020820180517bffffffffffffffffffffffffffffffffffffffffffffffffffffffff8381831617835250505050610627565b505050565b5f610688826040518060400160405280602081526020017f5361666545524332303a206c6f772d6c6576656c2063616c6c206661696c65648152508573ffffffffffffffffffffffffffffffffffffffff166106ed9092919063ffffffff16565b90505f815114806106a95750808060200190518101906106a89190610d4a565b5b6106e8576040517f08c379a00000000000000000000000000000000000000000000000000000000081526004016106df90610de5565b60405180910390fd5b505050565b60606106fb84845f85610704565b90509392505050565b606082471015610749576040517f08c379a000000000000000000000000000000000000000000000000000000000815260040161074090610e73565b60405180910390fd5b5f808673ffffffffffffffffffffffffffffffffffffffff1685876040516107719190610efd565b5f6040518083038185875af1925050503d805f81146107ab576040519150601f19603f3d011682016040523d82523d5f602084013e6107b0565b606091505b50915091506107c1878383876107cd565b92505050949350505050565b6060831561082e575f835103610826576107e685610841565b610825576040517f08c379a000000000000000000000000000000000000000000000000000000000815260040161081c90610f5d565b60405180910390fd5b5b829050610839565b6108388383610863565b5b949350505050565b5f808273ffffffffffffffffffffffffffffffffffffffff163b119050919050565b5f825111156108755781518083602001fd5b806040517f08c379a00000000000000000000000000000000000000000000000000000000081526004016108a99190610fcd565b60405180910390fd5b5f819050919050565b6108c4816108b2565b82525050565b5f6020820190506108dd5f8301846108bb565b92915050565b5f8115159050919050565b6108f7816108e3565b82525050565b5f6020820190506109105f8301846108ee565b92915050565b5f73ffffffffffffffffffffffffffffffffffffffff82169050919050565b5f61093f82610916565b9050919050565b61094f81610935565b82525050565b5f6020820190506109685f830184610946565b92915050565b5f80fd5b5f61097c82610916565b9050919050565b61098c81610972565b8114610996575f80fd5b50565b5f813590506109a781610983565b92915050565b5f602082840312156109c2576109c161096e565b5b5f6109cf84828501610999565b91505092915050565b5f819050919050565b5f6109fb6109f66109f184610916565b6109d8565b610916565b9050919050565b5f610a0c826109e1565b9050919050565b5f610a1d82610a02565b9050919050565b610a2d81610a13565b82525050565b5f602082019050610a465f830184610a24565b92915050565b5f604082019050610a5f5f8301856108bb565b610a6c60208301846108bb565b9392505050565b5f82825260208201905092915050565b7f5265656e7472616e637947756172643a207265656e7472616e742063616c6c005f82015250565b5f610ab7601f83610a73565b9150610ac282610a83565b602082019050919050565b5f6020820190508181035f830152610ae481610aab565b9050919050565b7f43617070656443726f776473616c653a206361702065786365656465640000005f82015250565b5f610b1f601d83610a73565b9150610b2a82610aeb565b602082019050919050565b5f6020820190508181035f830152610b4c81610b13565b9050919050565b7f4e487b71000000000000000000000000000000000000000000000000000000005f52601160045260245ffd5b5f610b8a826108b2565b9150610b95836108b2565b9250828201905080821115610bad57610bac610b53565b5b92915050565b7f43726f776473616c653a2062656e656669636961727920697320746865207a655f8201527f726f206164647265737300000000000000000000000000000000000000000000602082015250565b5f610c0d602a83610a73565b9150610c1882610bb3565b604082019050919050565b5f6020820190508181035f830152610c3a81610c01565b9050919050565b7f43726f776473616c653a20776569416d6f756e742069732030000000000000005f82015250565b5f610c75601983610a73565b9150610c8082610c41565b602082019050919050565b5f6020820190508181035f830152610ca281610c69565b9050919050565b5f610cb3826108b2565b9150610cbe836108b2565b9250828202610ccc816108b2565b91508282048414831517610ce357610ce2610b53565b5b5092915050565b610cf381610972565b82525050565b5f604082019050610d0c5f830185610cea565b610d1960208301846108bb565b9392505050565b610d29816108e3565b8114610d33575f80fd5b50565b5f81519050610d4481610d20565b92915050565b5f60208284031215610d5f57610d5e61096e565b5b5f610d6c84828501610d36565b91505092915050565b7f5361666545524332303a204552433230206f7065726174696f6e20646964206e5f8201527f6f74207375636365656400000000000000000000000000000000000000000000602082015250565b5f610dcf602a83610a73565b9150610dda82610d75565b604082019050919050565b5f6020820190508181035f830152610dfc81610dc3565b9050919050565b7f416464726573733a20696e73756666696369656e742062616c616e636520666f5f8201527f722063616c6c0000000000000000000000000000000000000000000000000000602082015250565b5f610e5d602683610a73565b9150610e6882610e03565b604082019050919050565b5f6020820190508181035f830152610e8a81610e51565b9050919050565b5f81519050919050565b5f81905092915050565b5f5b83811015610ec2578082015181840152602081019050610ea7565b5f8484015250505050565b5f610ed782610e91565b610ee18185610e9b565b9350610ef1818560208601610ea5565b80840191505092915050565b5f610f088284610ecd565b915081905092915050565b7f416464726573733a2063616c6c20746f206e6f6e2d636f6e74726163740000005f82015250565b5f610f47601d83610a73565b9150610f5282610f13565b602082019050919050565b5f6020820190508181035f830152610f7481610f3b565b9050919050565b5f81519050919050565b5f601f19601f8301169050919050565b5f610f9f82610f7b565b610fa98185610a73565b9350610fb9818560208601610ea5565b610fc281610f85565b840191505092915050565b5f6020820190508181035f830152610fe58184610f95565b90509291505056fea2646970667358221220bbeefd1359e4a6070e1ea042f164929a2027fda79e898fe73155b0c4a2ffb2c864736f6c63430008150033",
					"opcodes": "PUSH1 0x80 PUSH1 0x40 MSTORE CALLVALUE DUP1 ISZERO PUSH3 0x10 JUMPI PUSH0 DUP1 REVERT JUMPDEST POP PUSH1 0x40 MLOAD PUSH3 0x15ED CODESIZE SUB DUP1 PUSH3 0x15ED DUP4 CODECOPY DUP2 DUP2 ADD PUSH1 0x40 MSTORE DUP2 ADD SWAP1 PUSH3 0x36 SWAP2 SWAP1 PUSH3 0x339 JUMP JUMPDEST DUP3 DUP3 DUP3 PUSH1 0x1 PUSH0 DUP2 SWAP1 SSTORE POP PUSH0 DUP4 GT PUSH3 0x85 JUMPI PUSH1 0x40 MLOAD PUSH32 0x8C379A000000000000000000000000000000000000000000000000000000000 DUP2 MSTORE PUSH1 0x4 ADD PUSH3 0x7C SWAP1 PUSH3 0x406 JUMP JUMPDEST PUSH1 0x40 MLOAD DUP1 SWAP2 SUB SWAP1 REVERT JUMPDEST PUSH0 PUSH20 0xFFFFFFFFFFFFFFFFFFFFFFFFFFFFFFFFFFFFFFFF AND DUP3 PUSH20 0xFFFFFFFFFFFFFFFFFFFFFFFFFFFFFFFFFFFFFFFF AND SUB PUSH3 0xF6 JUMPI PUSH1 0x40 MLOAD PUSH32 0x8C379A000000000000000000000000000000000000000000000000000000000 DUP2 MSTORE PUSH1 0x4 ADD PUSH3 0xED SWAP1 PUSH3 0x49A JUMP JUMPDEST PUSH1 0x40 MLOAD DUP1 SWAP2 SUB SWAP1 REVERT JUMPDEST PUSH0 PUSH20 0xFFFFFFFFFFFFFFFFFFFFFFFFFFFFFFFFFFFFFFFF AND DUP2 PUSH20 0xFFFFFFFFFFFFFFFFFFFFFFFFFFFFFFFFFFFFFFFF AND SUB PUSH3 0x167 JUMPI PUSH1 0x40 MLOAD PUSH32 0x8C379A000000000000000000000000000000000000000000000000000000000 DUP2 MSTORE PUSH1 0x4 ADD PUSH3 0x15E SWAP1 PUSH3 0x52E JUMP JUMPDEST PUSH1 0x40 MLOAD DUP1 SWAP2 SUB SWAP1 REVERT JUMPDEST DUP3 PUSH1 0x3 DUP2 SWAP1 SSTORE POP DUP2 PUSH1 0x2 PUSH0 PUSH2 0x100 EXP DUP2 SLOAD DUP2 PUSH20 0xFFFFFFFFFFFFFFFFFFFFFFFFFFFFFFFFFFFFFFFF MUL NOT AND SWAP1 DUP4 PUSH20 0xFFFFFFFFFFFFFFFFFFFFFFFFFFFFFFFFFFFFFFFF AND MUL OR SWAP1 SSTORE POP DUP1 PUSH1 0x1 PUSH0 PUSH2 0x100 EXP DUP2 SLOAD DUP2 PUSH20 0xFFFFFFFFFFFFFFFFFFFFFFFFFFFFFFFFFFFFFFFF MUL NOT AND SWAP1 DUP4 PUSH20 0xFFFFFFFFFFFFFFFFFFFFFFFFFFFFFFFFFFFFFFFF AND MUL OR SWAP1 SSTORE POP POP POP POP PUSH0 DUP5 GT PUSH3 0x236 JUMPI PUSH1 0x40 MLOAD PUSH32 0x8C379A000000000000000000000000000000000000000000000000000000000 DUP2 MSTORE PUSH1 0x4 ADD PUSH3 0x22D SWAP1 PUSH3 0x59C JUMP JUMPDEST PUSH1 0x40 MLOAD DUP1 SWAP2 SUB SWAP1 REVERT JUMPDEST DUP4 PUSH1 0x5 DUP2 SWAP1 SSTORE POP POP POP POP POP PUSH3 0x5BC JUMP JUMPDEST PUSH0 DUP1 REVERT JUMPDEST PUSH0 DUP2 SWAP1 POP SWAP2 SWAP1 POP JUMP JUMPDEST PUSH3 0x25F DUP2 PUSH3 0x24B JUMP JUMPDEST DUP2 EQ PUSH3 0x26A JUMPI PUSH0 DUP1 REVERT JUMPDEST POP JUMP JUMPDEST PUSH0 DUP2 MLOAD SWAP1 POP PUSH3 0x27D DUP2 PUSH3 0x254 JUMP JUMPDEST SWAP3 SWAP2 POP POP JUMP JUMPDEST PUSH0 PUSH20 0xFFFFFFFFFFFFFFFFFFFFFFFFFFFFFFFFFFFFFFFF DUP3 AND SWAP1 POP SWAP2 SWAP1 POP JUMP JUMPDEST PUSH0 PUSH3 0x2AE DUP3 PUSH3 0x283 JUMP JUMPDEST SWAP1 POP SWAP2 SWAP1 POP JUMP JUMPDEST PUSH3 0x2C0 DUP2 PUSH3 0x2A2 JUMP JUMPDEST DUP2 EQ PUSH3 0x2CB JUMPI PUSH0 DUP1 REVERT JUMPDEST POP JUMP JUMPDEST PUSH0 DUP2 MLOAD SWAP1 POP PUSH3 0x2DE DUP2 PUSH3 0x2B5 JUMP JUMPDEST SWAP3 SWAP2 POP POP JUMP JUMPDEST PUSH0 PUSH3 0x2F0 DUP3 PUSH3 0x283 JUMP JUMPDEST SWAP1 POP SWAP2 SWAP1 POP JUMP JUMPDEST PUSH0 PUSH3 0x303 DUP3 PUSH3 0x2E4 JUMP JUMPDEST SWAP1 POP SWAP2 SWAP1 POP JUMP JUMPDEST PUSH3 0x315 DUP2 PUSH3 0x2F7 JUMP JUMPDEST DUP2 EQ PUSH3 0x320 JUMPI PUSH0 DUP1 REVERT JUMPDEST POP JUMP JUMPDEST PUSH0 DUP2 MLOAD SWAP1 POP PUSH3 0x333 DUP2 PUSH3 0x30A JUMP JUMPDEST SWAP3 SWAP2 POP POP JUMP JUMPDEST PUSH0 DUP1 PUSH0 DUP1 PUSH1 0x80 DUP6 DUP8 SUB SLT ISZERO PUSH3 0x354 JUMPI PUSH3 0x353 PUSH3 0x247 JUMP JUMPDEST JUMPDEST PUSH0 PUSH3 0x363 DUP8 DUP3 DUP9 ADD PUSH3 0x26D JUMP JUMPDEST SWAP5 POP POP PUSH1 0x20 PUSH3 0x376 DUP8 DUP3 DUP9 ADD PUSH3 0x26D JUMP JUMPDEST SWAP4 POP POP PUSH1 0x40 PUSH3 0x389 DUP8 DUP3 DUP9 ADD PUSH3 0x2CE JUMP JUMPDEST SWAP3 POP POP PUSH1 0x60 PUSH3 0x39C DUP8 DUP3 DUP9 ADD PUSH3 0x323 JUMP JUMPDEST SWAP2 POP POP SWAP3 SWAP6 SWAP2 SWAP5 POP SWAP3 POP JUMP JUMPDEST PUSH0 DUP3 DUP3 MSTORE PUSH1 0x20 DUP3 ADD SWAP1 POP SWAP3 SWAP2 POP POP JUMP JUMPDEST PUSH32 0x43726F776473616C653A20726174652069732030000000000000000000000000 PUSH0 DUP3 ADD MSTORE POP JUMP JUMPDEST PUSH0 PUSH3 0x3EE PUSH1 0x14 DUP4 PUSH3 0x3A8 JUMP JUMPDEST SWAP2 POP PUSH3 0x3FB DUP3 PUSH3 0x3B8 JUMP JUMPDEST PUSH1 0x20 DUP3 ADD SWAP1 POP SWAP2 SWAP1 POP JUMP JUMPDEST PUSH0 PUSH1 0x20 DUP3 ADD SWAP1 POP DUP2 DUP2 SUB PUSH0 DUP4 ADD MSTORE PUSH3 0x41F DUP2 PUSH3 0x3E0 JUMP JUMPDEST SWAP1 POP SWAP2 SWAP1 POP JUMP JUMPDEST PUSH32 0x43726F776473616C653A2077616C6C657420697320746865207A65726F206164 PUSH0 DUP3 ADD MSTORE PUSH32 0x6472657373000000000000000000000000000000000000000000000000000000 PUSH1 0x20 DUP3 ADD MSTORE POP JUMP JUMPDEST PUSH0 PUSH3 0x482 PUSH1 0x25 DUP4 PUSH3 0x3A8 JUMP JUMPDEST SWAP2 POP PUSH3 0x48F DUP3 PUSH3 0x426 JUMP JUMPDEST PUSH1 0x40 DUP3 ADD SWAP1 POP SWAP2 SWAP1 POP JUMP JUMPDEST PUSH0 PUSH1 0x20 DUP3 ADD SWAP1 POP DUP2 DUP2 SUB PUSH0 DUP4 ADD MSTORE PUSH3 0x4B3 DUP2 PUSH3 0x474 JUMP JUMPDEST SWAP1 POP SWAP2 SWAP1 POP JUMP JUMPDEST PUSH32 0x43726F776473616C653A20746F6B656E20697320746865207A65726F20616464 PUSH0 DUP3 ADD MSTORE PUSH32 0x7265737300000000000000000000000000000000000000000000000000000000 PUSH1 0x20 DUP3 ADD MSTORE POP JUMP JUMPDEST PUSH0 PUSH3 0x516 PUSH1 0x24 DUP4 PUSH3 0x3A8 JUMP JUMPDEST SWAP2 POP PUSH3 0x523 DUP3 PUSH3 0x4BA JUMP JUMPDEST PUSH1 0x40 DUP3 ADD SWAP1 POP SWAP2 SWAP1 POP JUMP JUMPDEST PUSH0 PUSH1 0x20 DUP3 ADD SWAP1 POP DUP2 DUP2 SUB PUSH0 DUP4 ADD MSTORE PUSH3 0x547 DUP2 PUSH3 0x508 JUMP JUMPDEST SWAP1 POP SWAP2 SWAP1 POP JUMP JUMPDEST PUSH32 0x43617070656443726F776473616C653A20636170206973203000000000000000 PUSH0 DUP3 ADD MSTORE POP JUMP JUMPDEST PUSH0 PUSH3 0x584 PUSH1 0x19 DUP4 PUSH3 0x3A8 JUMP JUMPDEST SWAP2 POP PUSH3 0x591 DUP3 PUSH3 0x54E JUMP JUMPDEST PUSH1 0x20 DUP3 ADD SWAP1 POP SWAP2 SWAP1 POP JUMP JUMPDEST PUSH0 PUSH1 0x20 DUP3 ADD SWAP1 POP DUP2 DUP2 SUB PUSH0 DUP4 ADD MSTORE PUSH3 0x5B5 DUP2 PUSH3 0x576 JUMP JUMPDEST SWAP1 POP SWAP2 SWAP1 POP JUMP JUMPDEST PUSH2 0x1023 DUP1 PUSH3 0x5CA PUSH0 CODECOPY PUSH0 RETURN INVALID PUSH1 0x80 PUSH1 0x40 MSTORE PUSH1 0x4 CALLDATASIZE LT PUSH2 0x73 JUMPI PUSH0 CALLDATALOAD PUSH1 0xE0 SHR DUP1 PUSH4 0x4F935945 GT PUSH2 0x4D JUMPI DUP1 PUSH4 0x4F935945 EQ PUSH2 0x11A JUMPI DUP1 PUSH4 0x521EB273 EQ PUSH2 0x144 JUMPI DUP1 PUSH4 0xEC8AC4D8 EQ PUSH2 0x16E JUMPI DUP1 PUSH4 0xFC0C546A EQ PUSH2 0x18A JUMPI PUSH2 0x8A JUMP JUMPDEST DUP1 PUSH4 0x2C4E722E EQ PUSH2 0x9C JUMPI DUP1 PUSH4 0x355274EA EQ PUSH2 0xC6 JUMPI DUP1 PUSH4 0x4042B66F EQ PUSH2 0xF0 JUMPI PUSH2 0x8A JUMP JUMPDEST CALLDATASIZE PUSH2 0x8A JUMPI PUSH2 0x88 PUSH2 0x83 PUSH2 0x1B4 JUMP JUMPDEST PUSH2 0x1BB JUMP JUMPDEST STOP JUMPDEST PUSH2 0x9A PUSH2 0x95 PUSH2 0x1B4 JUMP JUMPDEST PUSH2 0x1BB JUMP JUMPDEST STOP JUMPDEST CALLVALUE DUP1 ISZERO PUSH2 0xA7 JUMPI PUSH0 DUP1 REVERT JUMPDEST POP PUSH2 0xB0 PUSH2 0x299 JUMP JUMPDEST PUSH1 0x40 MLOAD PUSH2 0xBD SWAP2 SWAP1 PUSH2 0x8CA JUMP JUMPDEST PUSH1 0x40 MLOAD DUP1 SWAP2 SUB SWAP1 RETURN JUMPDEST CALLVALUE DUP1 ISZERO PUSH2 0xD1 JUMPI PUSH0 DUP1 REVERT JUMPDEST POP PUSH2 0xDA PUSH2 0x2A2 JUMP JUMPDEST PUSH1 0x40 MLOAD PUSH2 0xE7 SWAP2 SWAP1 PUSH2 0x8CA JUMP JUMPDEST PUSH1 0x40 MLOAD DUP1 SWAP2 SUB SWAP1 RETURN JUMPDEST CALLVALUE DUP1 ISZERO PUSH2 0xFB JUMPI PUSH0 DUP1 REVERT JUMPDEST POP PUSH2 0x104 PUSH2 0x2AB JUMP JUMPDEST PUSH1 0x40 MLOAD PUSH2 0x111 SWAP2 SWAP1 PUSH2 0x8CA JUMP JUMPDEST PUSH1 0x40 MLOAD DUP1 SWAP2 SUB SWAP1 RETURN JUMPDEST CALLVALUE DUP1 ISZERO PUSH2 0x125 JUMPI PUSH0 DUP1 REVERT JUMPDEST POP PUSH2 0x12E PUSH2 0x2B4 JUMP JUMPDEST PUSH1 0x40 MLOAD PUSH2 0x13B SWAP2 SWAP1 PUSH2 0x8FD JUMP JUMPDEST PUSH1 0x40 MLOAD DUP1 SWAP2 SUB SWAP1 RETURN JUMPDEST CALLVALUE DUP1 ISZERO PUSH2 0x14F JUMPI PUSH0 DUP1 REVERT JUMPDEST POP PUSH2 0x158 PUSH2 0x2C7 JUMP JUMPDEST PUSH1 0x40 MLOAD PUSH2 0x165 SWAP2 SWAP1 PUSH2 0x955 JUMP JUMPDEST PUSH1 0x40 MLOAD DUP1 SWAP2 SUB SWAP1 RETURN JUMPDEST PUSH2 0x188 PUSH1 0x4 DUP1 CALLDATASIZE SUB DUP2 ADD SWAP1 PUSH2 0x183 SWAP2 SWAP1 PUSH2 0x9AD JUMP JUMPDEST PUSH2 0x1BB JUMP JUMPDEST STOP JUMPDEST CALLVALUE DUP1 ISZERO PUSH2 0x195 JUMPI PUSH0 DUP1 REVERT JUMPDEST POP PUSH2 0x19E PUSH2 0x2EF JUMP JUMPDEST PUSH1 0x40 MLOAD PUSH2 0x1AB SWAP2 SWAP1 PUSH2 0xA33 JUMP JUMPDEST PUSH1 0x40 MLOAD DUP1 SWAP2 SUB SWAP1 RETURN JUMPDEST PUSH0 CALLER SWAP1 POP SWAP1 JUMP JUMPDEST PUSH2 0x1C3 PUSH2 0x317 JUMP JUMPDEST PUSH0 CALLVALUE SWAP1 POP PUSH2 0x1D1 DUP3 DUP3 PUSH2 0x364 JUMP JUMPDEST PUSH0 PUSH2 0x1DB DUP3 PUSH2 0x3D0 JUMP JUMPDEST SWAP1 POP PUSH2 0x1F2 DUP3 PUSH1 0x4 SLOAD PUSH2 0x3ED SWAP1 SWAP2 SWAP1 PUSH4 0xFFFFFFFF AND JUMP JUMPDEST PUSH1 0x4 DUP2 SWAP1 SSTORE POP PUSH2 0x202 DUP4 DUP3 PUSH2 0x402 JUMP JUMPDEST DUP3 PUSH20 0xFFFFFFFFFFFFFFFFFFFFFFFFFFFFFFFFFFFFFFFF AND PUSH2 0x221 PUSH2 0x1B4 JUMP JUMPDEST PUSH20 0xFFFFFFFFFFFFFFFFFFFFFFFFFFFFFFFFFFFFFFFF AND PUSH32 0x6FAF93231A456E552DBC9961F58D9713EE4F2E69D15F1975B050EF0911053A7B DUP5 DUP5 PUSH1 0x40 MLOAD PUSH2 0x268 SWAP3 SWAP2 SWAP1 PUSH2 0xA4C JUMP JUMPDEST PUSH1 0x40 MLOAD DUP1 SWAP2 SUB SWAP1 LOG3 PUSH2 0x27A DUP4 DUP4 PUSH2 0x410 JUMP JUMPDEST PUSH2 0x282 PUSH2 0x414 JUMP JUMPDEST PUSH2 0x28C DUP4 DUP4 PUSH2 0x47B JUMP JUMPDEST POP POP PUSH2 0x296 PUSH2 0x47F JUMP JUMPDEST POP JUMP JUMPDEST PUSH0 PUSH1 0x3 SLOAD SWAP1 POP SWAP1 JUMP JUMPDEST PUSH0 PUSH1 0x5 SLOAD SWAP1 POP SWAP1 JUMP JUMPDEST PUSH0 PUSH1 0x4 SLOAD SWAP1 POP SWAP1 JUMP JUMPDEST PUSH0 PUSH1 0x5 SLOAD PUSH2 0x2C0 PUSH2 0x2AB JUMP JUMPDEST LT ISZERO SWAP1 POP SWAP1 JUMP JUMPDEST PUSH0 PUSH1 0x2 PUSH0 SWAP1 SLOAD SWAP1 PUSH2 0x100 EXP SWAP1 DIV PUSH20 0xFFFFFFFFFFFFFFFFFFFFFFFFFFFFFFFFFFFFFFFF AND SWAP1 POP SWAP1 JUMP JUMPDEST PUSH0 PUSH1 0x1 PUSH0 SWAP1 SLOAD SWAP1 PUSH2 0x100 EXP SWAP1 DIV PUSH20 0xFFFFFFFFFFFFFFFFFFFFFFFFFFFFFFFFFFFFFFFF AND SWAP1 POP SWAP1 JUMP JUMPDEST PUSH1 0x2 PUSH0 SLOAD SUB PUSH2 0x35B JUMPI PUSH1 0x40 MLOAD PUSH32 0x8C379A000000000000000000000000000000000000000000000000000000000 DUP2 MSTORE PUSH1 0x4 ADD PUSH2 0x352 SWAP1 PUSH2 0xACD JUMP JUMPDEST PUSH1 0x40 MLOAD DUP1 SWAP2 SUB SWAP1 REVERT JUMPDEST PUSH1 0x2 PUSH0 DUP2 SWAP1 SSTORE POP JUMP JUMPDEST PUSH2 0x36E DUP3 DUP3 PUSH2 0x488 JUMP JUMPDEST PUSH1 0x5 SLOAD PUSH2 0x38B DUP3 PUSH2 0x37D PUSH2 0x2AB JUMP JUMPDEST PUSH2 0x3ED SWAP1 SWAP2 SWAP1 PUSH4 0xFFFFFFFF AND JUMP JUMPDEST GT ISZERO PUSH2 0x3CC JUMPI PUSH1 0x40 MLOAD PUSH32 0x8C379A000000000000000000000000000000000000000000000000000000000 DUP2 MSTORE PUSH1 0x4 ADD PUSH2 0x3C3 SWAP1 PUSH2 0xB35 JUMP JUMPDEST PUSH1 0x40 MLOAD DUP1 SWAP2 SUB SWAP1 REVERT JUMPDEST POP POP JUMP JUMPDEST PUSH0 PUSH2 0x3E6 PUSH1 0x3 SLOAD DUP4 PUSH2 0x53C SWAP1 SWAP2 SWAP1 PUSH4 0xFFFFFFFF AND JUMP JUMPDEST SWAP1 POP SWAP2 SWAP1 POP JUMP JUMPDEST PUSH0 DUP2 DUP4 PUSH2 0x3FA SWAP2 SWAP1 PUSH2 0xB80 JUMP JUMPDEST SWAP1 POP SWAP3 SWAP2 POP POP JUMP JUMPDEST PUSH2 0x40C DUP3 DUP3 PUSH2 0x551 JUMP JUMPDEST POP POP JUMP JUMPDEST POP POP JUMP JUMPDEST PUSH1 0x2 PUSH0 SWAP1 SLOAD SWAP1 PUSH2 0x100 EXP SWAP1 DIV PUSH20 0xFFFFFFFFFFFFFFFFFFFFFFFFFFFFFFFFFFFFFFFF AND PUSH20 0xFFFFFFFFFFFFFFFFFFFFFFFFFFFFFFFFFFFFFFFF AND PUSH2 0x8FC CALLVALUE SWAP1 DUP2 ISZERO MUL SWAP1 PUSH1 0x40 MLOAD PUSH0 PUSH1 0x40 MLOAD DUP1 DUP4 SUB DUP2 DUP6 DUP9 DUP9 CALL SWAP4 POP POP POP POP ISZERO DUP1 ISZERO PUSH2 0x478 JUMPI RETURNDATASIZE PUSH0 DUP1 RETURNDATACOPY RETURNDATASIZE PUSH0 REVERT JUMPDEST POP JUMP JUMPDEST POP POP JUMP JUMPDEST PUSH1 0x1 PUSH0 DUP2 SWAP1 SSTORE POP JUMP JUMPDEST PUSH0 PUSH20 0xFFFFFFFFFFFFFFFFFFFFFFFFFFFFFFFFFFFFFFFF AND DUP3 PUSH20 0xFFFFFFFFFFFFFFFFFFFFFFFFFFFFFFFFFFFFFFFF AND SUB PUSH2 0x4F6 JUMPI PUSH1 0x40 MLOAD PUSH32 0x8C379A000000000000000000000000000000000000000000000000000000000 DUP2 MSTORE PUSH1 0x4 ADD PUSH2 0x4ED SWAP1 PUSH2 0xC23 JUMP JUMPDEST PUSH1 0x40 MLOAD DUP1 SWAP2 SUB SWAP1 REVERT JUMPDEST PUSH0 DUP2 SUB PUSH2 0x538 JUMPI PUSH1 0x40 MLOAD PUSH32 0x8C379A000000000000000000000000000000000000000000000000000000000 DUP2 MSTORE PUSH1 0x4 ADD PUSH2 0x52F SWAP1 PUSH2 0xC8B JUMP JUMPDEST PUSH1 0x40 MLOAD DUP1 SWAP2 SUB SWAP1 REVERT JUMPDEST POP POP JUMP JUMPDEST PUSH0 DUP2 DUP4 PUSH2 0x549 SWAP2 SWAP1 PUSH2 0xCA9 JUMP JUMPDEST SWAP1 POP SWAP3 SWAP2 POP POP JUMP JUMPDEST PUSH2 0x59D DUP3 DUP3 PUSH1 0x1 PUSH0 SWAP1 SLOAD SWAP1 PUSH2 0x100 EXP SWAP1 DIV PUSH20 0xFFFFFFFFFFFFFFFFFFFFFFFFFFFFFFFFFFFFFFFF AND PUSH20 0xFFFFFFFFFFFFFFFFFFFFFFFFFFFFFFFFFFFFFFFF AND PUSH2 0x5A1 SWAP1 SWAP3 SWAP2 SWAP1 PUSH4 0xFFFFFFFF AND JUMP JUMPDEST POP POP JUMP JUMPDEST PUSH2 0x622 DUP4 PUSH4 0xA9059CBB PUSH1 0xE0 SHL DUP5 DUP5 PUSH1 0x40 MLOAD PUSH1 0x24 ADD PUSH2 0x5C0 SWAP3 SWAP2 SWAP1 PUSH2 0xCF9 JUMP JUMPDEST PUSH1 0x40 MLOAD PUSH1 0x20 DUP2 DUP4 SUB SUB DUP2 MSTORE SWAP1 PUSH1 0x40 MSTORE SWAP1 PUSH28 0xFFFFFFFFFFFFFFFFFFFFFFFFFFFFFFFFFFFFFFFFFFFFFFFFFFFFFFFF NOT AND PUSH1 0x20 DUP3 ADD DUP1 MLOAD PUSH28 0xFFFFFFFFFFFFFFFFFFFFFFFFFFFFFFFFFFFFFFFFFFFFFFFFFFFFFFFF DUP4 DUP2 DUP4 AND OR DUP4 MSTORE POP POP POP POP PUSH2 0x627 JUMP JUMPDEST POP POP POP JUMP JUMPDEST PUSH0 PUSH2 0x688 DUP3 PUSH1 0x40 MLOAD DUP1 PUSH1 0x40 ADD PUSH1 0x40 MSTORE DUP1 PUSH1 0x20 DUP2 MSTORE PUSH1 0x20 ADD PUSH32 0x5361666545524332303A206C6F772D6C6576656C2063616C6C206661696C6564 DUP2 MSTORE POP DUP6 PUSH20 0xFFFFFFFFFFFFFFFFFFFFFFFFFFFFFFFFFFFFFFFF AND PUSH2 0x6ED SWAP1 SWAP3 SWAP2 SWAP1 PUSH4 0xFFFFFFFF AND JUMP JUMPDEST SWAP1 POP PUSH0 DUP2 MLOAD EQ DUP1 PUSH2 0x6A9 JUMPI POP DUP1 DUP1 PUSH1 0x20 ADD SWAP1 MLOAD DUP2 ADD SWAP1 PUSH2 0x6A8 SWAP2 SWAP1 PUSH2 0xD4A JUMP JUMPDEST JUMPDEST PUSH2 0x6E8 JUMPI PUSH1 0x40 MLOAD PUSH32 0x8C379A000000000000000000000000000000000000000000000000000000000 DUP2 MSTORE PUSH1 0x4 ADD PUSH2 0x6DF SWAP1 PUSH2 0xDE5 JUMP JUMPDEST PUSH1 0x40 MLOAD DUP1 SWAP2 SUB SWAP1 REVERT JUMPDEST POP POP POP JUMP JUMPDEST PUSH1 0x60 PUSH2 0x6FB DUP5 DUP5 PUSH0 DUP6 PUSH2 0x704 JUMP JUMPDEST SWAP1 POP SWAP4 SWAP3 POP POP POP JUMP JUMPDEST PUSH1 0x60 DUP3 SELFBALANCE LT ISZERO PUSH2 0x749 JUMPI PUSH1 0x40 MLOAD PUSH32 0x8C379A000000000000000000000000000000000000000000000000000000000 DUP2 MSTORE PUSH1 0x4 ADD PUSH2 0x740 SWAP1 PUSH2 0xE73 JUMP JUMPDEST PUSH1 0x40 MLOAD DUP1 SWAP2 SUB SWAP1 REVERT JUMPDEST PUSH0 DUP1 DUP7 PUSH20 0xFFFFFFFFFFFFFFFFFFFFFFFFFFFFFFFFFFFFFFFF AND DUP6 DUP8 PUSH1 0x40 MLOAD PUSH2 0x771 SWAP2 SWAP1 PUSH2 0xEFD JUMP JUMPDEST PUSH0 PUSH1 0x40 MLOAD DUP1 DUP4 SUB DUP2 DUP6 DUP8 GAS CALL SWAP3 POP POP POP RETURNDATASIZE DUP1 PUSH0 DUP2 EQ PUSH2 0x7AB JUMPI PUSH1 0x40 MLOAD SWAP2 POP PUSH1 0x1F NOT PUSH1 0x3F RETURNDATASIZE ADD AND DUP3 ADD PUSH1 0x40 MSTORE RETURNDATASIZE DUP3 MSTORE RETURNDATASIZE PUSH0 PUSH1 0x20 DUP5 ADD RETURNDATACOPY PUSH2 0x7B0 JUMP JUMPDEST PUSH1 0x60 SWAP2 POP JUMPDEST POP SWAP2 POP SWAP2 POP PUSH2 0x7C1 DUP8 DUP4 DUP4 DUP8 PUSH2 0x7CD JUMP JUMPDEST SWAP3 POP POP POP SWAP5 SWAP4 POP POP POP POP JUMP JUMPDEST PUSH1 0x60 DUP4 ISZERO PUSH2 0x82E JUMPI PUSH0 DUP4 MLOAD SUB PUSH2 0x826 JUMPI PUSH2 0x7E6 DUP6 PUSH2 0x841 JUMP JUMPDEST PUSH2 0x825 JUMPI PUSH1 0x40 MLOAD PUSH32 0x8C379A000000000000000000000000000000000000000000000000000000000 DUP2 MSTORE PUSH1 0x4 ADD PUSH2 0x81C SWAP1 PUSH2 0xF5D JUMP JUMPDEST PUSH1 0x40 MLOAD DUP1 SWAP2 SUB SWAP1 REVERT JUMPDEST JUMPDEST DUP3 SWAP1 POP PUSH2 0x839 JUMP JUMPDEST PUSH2 0x838 DUP4 DUP4 PUSH2 0x863 JUMP JUMPDEST JUMPDEST SWAP5 SWAP4 POP POP POP POP JUMP JUMPDEST PUSH0 DUP1 DUP3 PUSH20 0xFFFFFFFFFFFFFFFFFFFFFFFFFFFFFFFFFFFFFFFF AND EXTCODESIZE GT SWAP1 POP SWAP2 SWAP1 POP JUMP JUMPDEST PUSH0 DUP3 MLOAD GT ISZERO PUSH2 0x875 JUMPI DUP2 MLOAD DUP1 DUP4 PUSH1 0x20 ADD REVERT JUMPDEST DUP1 PUSH1 0x40 MLOAD PUSH32 0x8C379A000000000000000000000000000000000000000000000000000000000 DUP2 MSTORE PUSH1 0x4 ADD PUSH2 0x8A9 SWAP2 SWAP1 PUSH2 0xFCD JUMP JUMPDEST PUSH1 0x40 MLOAD DUP1 SWAP2 SUB SWAP1 REVERT JUMPDEST PUSH0 DUP2 SWAP1 POP SWAP2 SWAP1 POP JUMP JUMPDEST PUSH2 0x8C4 DUP2 PUSH2 0x8B2 JUMP JUMPDEST DUP3 MSTORE POP POP JUMP JUMPDEST PUSH0 PUSH1 0x20 DUP3 ADD SWAP1 POP PUSH2 0x8DD PUSH0 DUP4 ADD DUP5 PUSH2 0x8BB JUMP JUMPDEST SWAP3 SWAP2 POP POP JUMP JUMPDEST PUSH0 DUP2 ISZERO ISZERO SWAP1 POP SWAP2 SWAP1 POP JUMP JUMPDEST PUSH2 0x8F7 DUP2 PUSH2 0x8E3 JUMP JUMPDEST DUP3 MSTORE POP POP JUMP JUMPDEST PUSH0 PUSH1 0x20 DUP3 ADD SWAP1 POP PUSH2 0x910 PUSH0 DUP4 ADD DUP5 PUSH2 0x8EE JUMP JUMPDEST SWAP3 SWAP2 POP POP JUMP JUMPDEST PUSH0 PUSH20 0xFFFFFFFFFFFFFFFFFFFFFFFFFFFFFFFFFFFFFFFF DUP3 AND SWAP1 POP SWAP2 SWAP1 POP JUMP JUMPDEST PUSH0 PUSH2 0x93F DUP3 PUSH2 0x916 JUMP JUMPDEST SWAP1 POP SWAP2 SWAP1 POP JUMP JUMPDEST PUSH2 0x94F DUP2 PUSH2 0x935 JUMP JUMPDEST DUP3 MSTORE POP POP JUMP JUMPDEST PUSH0 PUSH1 0x20 DUP3 ADD SWAP1 POP PUSH2 0x968 PUSH0 DUP4 ADD DUP5 PUSH2 0x946 JUMP JUMPDEST SWAP3 SWAP2 POP POP JUMP JUMPDEST PUSH0 DUP1 REVERT JUMPDEST PUSH0 PUSH2 0x97C DUP3 PUSH2 0x916 JUMP JUMPDEST SWAP1 POP SWAP2 SWAP1 POP JUMP JUMPDEST PUSH2 0x98C DUP2 PUSH2 0x972 JUMP JUMPDEST DUP2 EQ PUSH2 0x996 JUMPI PUSH0 DUP1 REVERT JUMPDEST POP JUMP JUMPDEST PUSH0 DUP2 CALLDATALOAD SWAP1 POP PUSH2 0x9A7 DUP2 PUSH2 0x983 JUMP JUMPDEST SWAP3 SWAP2 POP POP JUMP JUMPDEST PUSH0 PUSH1 0x20 DUP3 DUP5 SUB SLT ISZERO PUSH2 0x9C2 JUMPI PUSH2 0x9C1 PUSH2 0x96E JUMP JUMPDEST JUMPDEST PUSH0 PUSH2 0x9CF DUP5 DUP3 DUP6 ADD PUSH2 0x999 JUMP JUMPDEST SWAP2 POP POP SWAP3 SWAP2 POP POP JUMP JUMPDEST PUSH0 DUP2 SWAP1 POP SWAP2 SWAP1 POP JUMP JUMPDEST PUSH0 PUSH2 0x9FB PUSH2 0x9F6 PUSH2 0x9F1 DUP5 PUSH2 0x916 JUMP JUMPDEST PUSH2 0x9D8 JUMP JUMPDEST PUSH2 0x916 JUMP JUMPDEST SWAP1 POP SWAP2 SWAP1 POP JUMP JUMPDEST PUSH0 PUSH2 0xA0C DUP3 PUSH2 0x9E1 JUMP JUMPDEST SWAP1 POP SWAP2 SWAP1 POP JUMP JUMPDEST PUSH0 PUSH2 0xA1D DUP3 PUSH2 0xA02 JUMP JUMPDEST SWAP1 POP SWAP2 SWAP1 POP JUMP JUMPDEST PUSH2 0xA2D DUP2 PUSH2 0xA13 JUMP JUMPDEST DUP3 MSTORE POP POP JUMP JUMPDEST PUSH0 PUSH1 0x20 DUP3 ADD SWAP1 POP PUSH2 0xA46 PUSH0 DUP4 ADD DUP5 PUSH2 0xA24 JUMP JUMPDEST SWAP3 SWAP2 POP POP JUMP JUMPDEST PUSH0 PUSH1 0x40 DUP3 ADD SWAP1 POP PUSH2 0xA5F PUSH0 DUP4 ADD DUP6 PUSH2 0x8BB JUMP JUMPDEST PUSH2 0xA6C PUSH1 0x20 DUP4 ADD DUP5 PUSH2 0x8BB JUMP JUMPDEST SWAP4 SWAP3 POP POP POP JUMP JUMPDEST PUSH0 DUP3 DUP3 MSTORE PUSH1 0x20 DUP3 ADD SWAP1 POP SWAP3 SWAP2 POP POP JUMP JUMPDEST PUSH32 0x5265656E7472616E637947756172643A207265656E7472616E742063616C6C00 PUSH0 DUP3 ADD MSTORE POP JUMP JUMPDEST PUSH0 PUSH2 0xAB7 PUSH1 0x1F DUP4 PUSH2 0xA73 JUMP JUMPDEST SWAP2 POP PUSH2 0xAC2 DUP3 PUSH2 0xA83 JUMP JUMPDEST PUSH1 0x20 DUP3 ADD SWAP1 POP SWAP2 SWAP1 POP JUMP JUMPDEST PUSH0 PUSH1 0x20 DUP3 ADD SWAP1 POP DUP2 DUP2 SUB PUSH0 DUP4 ADD MSTORE PUSH2 0xAE4 DUP2 PUSH2 0xAAB JUMP JUMPDEST SWAP1 POP SWAP2 SWAP1 POP JUMP JUMPDEST PUSH32 0x43617070656443726F776473616C653A20636170206578636565646564000000 PUSH0 DUP3 ADD MSTORE POP JUMP JUMPDEST PUSH0 PUSH2 0xB1F PUSH1 0x1D DUP4 PUSH2 0xA73 JUMP JUMPDEST SWAP2 POP PUSH2 0xB2A DUP3 PUSH2 0xAEB JUMP JUMPDEST PUSH1 0x20 DUP3 ADD SWAP1 POP SWAP2 SWAP1 POP JUMP JUMPDEST PUSH0 PUSH1 0x20 DUP3 ADD SWAP1 POP DUP2 DUP2 SUB PUSH0 DUP4 ADD MSTORE PUSH2 0xB4C DUP2 PUSH2 0xB13 JUMP JUMPDEST SWAP1 POP SWAP2 SWAP1 POP JUMP JUMPDEST PUSH32 0x4E487B7100000000000000000000000000000000000000000000000000000000 PUSH0 MSTORE PUSH1 0x11 PUSH1 0x4 MSTORE PUSH1 0x24 PUSH0 REVERT JUMPDEST PUSH0 PUSH2 0xB8A DUP3 PUSH2 0x8B2 JUMP JUMPDEST SWAP2 POP PUSH2 0xB95 DUP4 PUSH2 0x8B2 JUMP JUMPDEST SWAP3 POP DUP3 DUP3 ADD SWAP1 POP DUP1 DUP3 GT ISZERO PUSH2 0xBAD JUMPI PUSH2 0xBAC PUSH2 0xB53 JUMP JUMPDEST JUMPDEST SWAP3 SWAP2 POP POP JUMP JUMPDEST PUSH32 0x43726F776473616C653A2062656E656669636961727920697320746865207A65 PUSH0 DUP3 ADD MSTORE PUSH32 0x726F206164647265737300000000000000000000000000000000000000000000 PUSH1 0x20 DUP3 ADD MSTORE POP JUMP JUMPDEST PUSH0 PUSH2 0xC0D PUSH1 0x2A DUP4 PUSH2 0xA73 JUMP JUMPDEST SWAP2 POP PUSH2 0xC18 DUP3 PUSH2 0xBB3 JUMP JUMPDEST PUSH1 0x40 DUP3 ADD SWAP1 POP SWAP2 SWAP1 POP JUMP JUMPDEST PUSH0 PUSH1 0x20 DUP3 ADD SWAP1 POP DUP2 DUP2 SUB PUSH0 DUP4 ADD MSTORE PUSH2 0xC3A DUP2 PUSH2 0xC01 JUMP JUMPDEST SWAP1 POP SWAP2 SWAP1 POP JUMP JUMPDEST PUSH32 0x43726F776473616C653A20776569416D6F756E74206973203000000000000000 PUSH0 DUP3 ADD MSTORE POP JUMP JUMPDEST PUSH0 PUSH2 0xC75 PUSH1 0x19 DUP4 PUSH2 0xA73 JUMP JUMPDEST SWAP2 POP PUSH2 0xC80 DUP3 PUSH2 0xC41 JUMP JUMPDEST PUSH1 0x20 DUP3 ADD SWAP1 POP SWAP2 SWAP1 POP JUMP JUMPDEST PUSH0 PUSH1 0x20 DUP3 ADD SWAP1 POP DUP2 DUP2 SUB PUSH0 DUP4 ADD MSTORE PUSH2 0xCA2 DUP2 PUSH2 0xC69 JUMP JUMPDEST SWAP1 POP SWAP2 SWAP1 POP JUMP JUMPDEST PUSH0 PUSH2 0xCB3 DUP3 PUSH2 0x8B2 JUMP JUMPDEST SWAP2 POP PUSH2 0xCBE DUP4 PUSH2 0x8B2 JUMP JUMPDEST SWAP3 POP DUP3 DUP3 MUL PUSH2 0xCCC DUP2 PUSH2 0x8B2 JUMP JUMPDEST SWAP2 POP DUP3 DUP3 DIV DUP5 EQ DUP4 ISZERO OR PUSH2 0xCE3 JUMPI PUSH2 0xCE2 PUSH2 0xB53 JUMP JUMPDEST JUMPDEST POP SWAP3 SWAP2 POP POP JUMP JUMPDEST PUSH2 0xCF3 DUP2 PUSH2 0x972 JUMP JUMPDEST DUP3 MSTORE POP POP JUMP JUMPDEST PUSH0 PUSH1 0x40 DUP3 ADD SWAP1 POP PUSH2 0xD0C PUSH0 DUP4 ADD DUP6 PUSH2 0xCEA JUMP JUMPDEST PUSH2 0xD19 PUSH1 0x20 DUP4 ADD DUP5 PUSH2 0x8BB JUMP JUMPDEST SWAP4 SWAP3 POP POP POP JUMP JUMPDEST PUSH2 0xD29 DUP2 PUSH2 0x8E3 JUMP JUMPDEST DUP2 EQ PUSH2 0xD33 JUMPI PUSH0 DUP1 REVERT JUMPDEST POP JUMP JUMPDEST PUSH0 DUP2 MLOAD SWAP1 POP PUSH2 0xD44 DUP2 PUSH2 0xD20 JUMP JUMPDEST SWAP3 SWAP2 POP POP JUMP JUMPDEST PUSH0 PUSH1 0x20 DUP3 DUP5 SUB SLT ISZERO PUSH2 0xD5F JUMPI PUSH2 0xD5E PUSH2 0x96E JUMP JUMPDEST JUMPDEST PUSH0 PUSH2 0xD6C DUP5 DUP3 DUP6 ADD PUSH2 0xD36 JUMP JUMPDEST SWAP2 POP POP SWAP3 SWAP2 POP POP JUMP JUMPDEST PUSH32 0x5361666545524332303A204552433230206F7065726174696F6E20646964206E PUSH0 DUP3 ADD MSTORE PUSH32 0x6F74207375636365656400000000000000000000000000000000000000000000 PUSH1 0x20 DUP3 ADD MSTORE POP JUMP JUMPDEST PUSH0 PUSH2 0xDCF PUSH1 0x2A DUP4 PUSH2 0xA73 JUMP JUMPDEST SWAP2 POP PUSH2 0xDDA DUP3 PUSH2 0xD75 JUMP JUMPDEST PUSH1 0x40 DUP3 ADD SWAP1 POP SWAP2 SWAP1 POP JUMP JUMPDEST PUSH0 PUSH1 0x20 DUP3 ADD SWAP1 POP DUP2 DUP2 SUB PUSH0 DUP4 ADD MSTORE PUSH2 0xDFC DUP2 PUSH2 0xDC3 JUMP JUMPDEST SWAP1 POP SWAP2 SWAP1 POP JUMP JUMPDEST PUSH32 0x416464726573733A20696E73756666696369656E742062616C616E636520666F PUSH0 DUP3 ADD MSTORE PUSH32 0x722063616C6C0000000000000000000000000000000000000000000000000000 PUSH1 0x20 DUP3 ADD MSTORE POP JUMP JUMPDEST PUSH0 PUSH2 0xE5D PUSH1 0x26 DUP4 PUSH2 0xA73 JUMP JUMPDEST SWAP2 POP PUSH2 0xE68 DUP3 PUSH2 0xE03 JUMP JUMPDEST PUSH1 0x40 DUP3 ADD SWAP1 POP SWAP2 SWAP1 POP JUMP JUMPDEST PUSH0 PUSH1 0x20 DUP3 ADD SWAP1 POP DUP2 DUP2 SUB PUSH0 DUP4 ADD MSTORE PUSH2 0xE8A DUP2 PUSH2 0xE51 JUMP JUMPDEST SWAP1 POP SWAP2 SWAP1 POP JUMP JUMPDEST PUSH0 DUP2 MLOAD SWAP1 POP SWAP2 SWAP1 POP JUMP JUMPDEST PUSH0 DUP2 SWAP1 POP SWAP3 SWAP2 POP POP JUMP JUMPDEST PUSH0 JUMPDEST DUP4 DUP2 LT ISZERO PUSH2 0xEC2 JUMPI DUP1 DUP3 ADD MLOAD DUP2 DUP5 ADD MSTORE PUSH1 0x20 DUP2 ADD SWAP1 POP PUSH2 0xEA7 JUMP JUMPDEST PUSH0 DUP5 DUP5 ADD MSTORE POP POP POP POP JUMP JUMPDEST PUSH0 PUSH2 0xED7 DUP3 PUSH2 0xE91 JUMP JUMPDEST PUSH2 0xEE1 DUP2 DUP6 PUSH2 0xE9B JUMP JUMPDEST SWAP4 POP PUSH2 0xEF1 DUP2 DUP6 PUSH1 0x20 DUP7 ADD PUSH2 0xEA5 JUMP JUMPDEST DUP1 DUP5 ADD SWAP2 POP POP SWAP3 SWAP2 POP POP JUMP JUMPDEST PUSH0 PUSH2 0xF08 DUP3 DUP5 PUSH2 0xECD JUMP JUMPDEST SWAP2 POP DUP2 SWAP1 POP SWAP3 SWAP2 POP POP JUMP JUMPDEST PUSH32 0x416464726573733A2063616C6C20746F206E6F6E2D636F6E7472616374000000 PUSH0 DUP3 ADD MSTORE POP JUMP JUMPDEST PUSH0 PUSH2 0xF47 PUSH1 0x1D DUP4 PUSH2 0xA73 JUMP JUMPDEST SWAP2 POP PUSH2 0xF52 DUP3 PUSH2 0xF13 JUMP JUMPDEST PUSH1 0x20 DUP3 ADD SWAP1 POP SWAP2 SWAP1 POP JUMP JUMPDEST PUSH0 PUSH1 0x20 DUP3 ADD SWAP1 POP DUP2 DUP2 SUB PUSH0 DUP4 ADD MSTORE PUSH2 0xF74 DUP2 PUSH2 0xF3B JUMP JUMPDEST SWAP1 POP SWAP2 SWAP1 POP JUMP JUMPDEST PUSH0 DUP2 MLOAD SWAP1 POP SWAP2 SWAP1 POP JUMP JUMPDEST PUSH0 PUSH1 0x1F NOT PUSH1 0x1F DUP4 ADD AND SWAP1 POP SWAP2 SWAP1 POP JUMP JUMPDEST PUSH0 PUSH2 0xF9F DUP3 PUSH2 0xF7B JUMP JUMPDEST PUSH2 0xFA9 DUP2 DUP6 PUSH2 0xA73 JUMP JUMPDEST SWAP4 POP PUSH2 0xFB9 DUP2 DUP6 PUSH1 0x20 DUP7 ADD PUSH2 0xEA5 JUMP JUMPDEST PUSH2 0xFC2 DUP2 PUSH2 0xF85 JUMP JUMPDEST DUP5 ADD SWAP2 POP POP SWAP3 SWAP2 POP POP JUMP JUMPDEST PUSH0 PUSH1 0x20 DUP3 ADD SWAP1 POP DUP2 DUP2 SUB PUSH0 DUP4 ADD MSTORE PUSH2 0xFE5 DUP2 DUP5 PUSH2 0xF95 JUMP JUMPDEST SWAP1 POP SWAP3 SWAP2 POP POP JUMP INVALID LOG2 PUSH5 0x6970667358 0x22 SLT KECCAK256 0xBB 0xEE REVERT SGT MSIZE 0xE4 0xA6 SMOD 0xE 0x1E LOG0 TIMESTAMP CALL PUSH5 0x929A2027FD 0xA7 SWAP15 DUP10 DUP16 0xE7 BALANCE SSTORE 0xB0 0xC4 LOG2 SELFDESTRUCT 0xB2 0xC8 PUSH5 0x736F6C6343 STOP ADDMOD ISZERO STOP CALLER "
				},
				"gasEstimates": {
					"creation": {
						"codeDepositCost": "826200",
						"executionCost": "infinite",
						"totalCost": "infinite"
					},
					"external": {
						"": "infinite",
						"buyTokens(address)": "infinite",
						"cap()": "2455",
						"capReached()": "4581",
						"rate()": "2433",
						"token()": "infinite",
						"wallet()": "2537",
						"weiRaised()": "2477"
					},
					"internal": {
						"_preValidatePurchase(address,uint256)": "infinite"
					}
				},
				"methodIdentifiers": {
					"buyTokens(address)": "ec8ac4d8",
					"cap()": "355274ea",
					"capReached()": "4f935945",
					"rate()": "2c4e722e",
					"token()": "fc0c546a",
					"wallet()": "521eb273",
					"weiRaised()": "4042b66f"
				}
			},
			"storageLayout": {
				"storage": [
					{
						"astId": 10,
						"contract": "crowdsale/validation/cappedCrowdsale.sol:CappedCrowdsale",
						"label": "_status",
						"offset": 0,
						"slot": "0",
						"type": "t_uint256"
					},
					{
						"astId": 1240,
						"contract": "crowdsale/validation/cappedCrowdsale.sol:CappedCrowdsale",
						"label": "_token",
						"offset": 0,
						"slot": "1",
						"type": "t_contract(IERC20)142"
					},
					{
						"astId": 1242,
						"contract": "crowdsale/validation/cappedCrowdsale.sol:CappedCrowdsale",
						"label": "_wallet",
						"offset": 0,
						"slot": "2",
						"type": "t_address_payable"
					},
					{
						"astId": 1244,
						"contract": "crowdsale/validation/cappedCrowdsale.sol:CappedCrowdsale",
						"label": "_rate",
						"offset": 0,
						"slot": "3",
						"type": "t_uint256"
					},
					{
						"astId": 1246,
						"contract": "crowdsale/validation/cappedCrowdsale.sol:CappedCrowdsale",
						"label": "_weiRaised",
						"offset": 0,
						"slot": "4",
						"type": "t_uint256"
					},
					{
						"astId": 1540,
						"contract": "crowdsale/validation/cappedCrowdsale.sol:CappedCrowdsale",
						"label": "_cap",
						"offset": 0,
						"slot": "5",
						"type": "t_uint256"
					}
				],
				"types": {
					"t_address_payable": {
						"encoding": "inplace",
						"label": "address payable",
						"numberOfBytes": "20"
					},
					"t_contract(IERC20)142": {
						"encoding": "inplace",
						"label": "contract IERC20",
						"numberOfBytes": "20"
					},
					"t_uint256": {
						"encoding": "inplace",
						"label": "uint256",
						"numberOfBytes": "32"
					}
				}
			},
			"userdoc": {
				"events": {
					"TokensPurchased(address,address,uint256,uint256)": {
						"notice": "Event for token purchase logging"
					}
				},
				"kind": "user",
				"methods": {},
				"version": 1
			}
		}
	}
}