{
	"crowdsale/validation/whitelistCrowdsale.sol": {
		"WhitelistCrowdsale": {
			"abi": [
				{
					"inputs": [
						{
							"internalType": "uint256",
							"name": "inRate",
							"type": "uint256"
						},
						{
							"internalType": "address payable",
							"name": "inWallet",
							"type": "address"
						},
						{
							"internalType": "contract IERC20",
							"name": "inToken",
							"type": "address"
						}
					],
					"stateMutability": "nonpayable",
					"type": "constructor"
				},
				{
					"anonymous": false,
					"inputs": [
						{
							"indexed": true,
							"internalType": "bytes32",
							"name": "role",
							"type": "bytes32"
						},
						{
							"indexed": true,
							"internalType": "bytes32",
							"name": "previousAdminRole",
							"type": "bytes32"
						},
						{
							"indexed": true,
							"internalType": "bytes32",
							"name": "newAdminRole",
							"type": "bytes32"
						}
					],
					"name": "RoleAdminChanged",
					"type": "event"
				},
				{
					"anonymous": false,
					"inputs": [
						{
							"indexed": true,
							"internalType": "bytes32",
							"name": "role",
							"type": "bytes32"
						},
						{
							"indexed": true,
							"internalType": "address",
							"name": "account",
							"type": "address"
						},
						{
							"indexed": true,
							"internalType": "address",
							"name": "sender",
							"type": "address"
						}
					],
					"name": "RoleGranted",
					"type": "event"
				},
				{
					"anonymous": false,
					"inputs": [
						{
							"indexed": true,
							"internalType": "bytes32",
							"name": "role",
							"type": "bytes32"
						},
						{
							"indexed": true,
							"internalType": "address",
							"name": "account",
							"type": "address"
						},
						{
							"indexed": true,
							"internalType": "address",
							"name": "sender",
							"type": "address"
						}
					],
					"name": "RoleRevoked",
					"type": "event"
				},
				{
					"anonymous": false,
					"inputs": [
						{
							"indexed": true,
							"internalType": "address",
							"name": "purchaser",
							"type": "address"
						},
						{
							"indexed": true,
							"internalType": "address",
							"name": "beneficiary",
							"type": "address"
						},
						{
							"indexed": false,
							"internalType": "uint256",
							"name": "value",
							"type": "uint256"
						},
						{
							"indexed": false,
							"internalType": "uint256",
							"name": "amount",
							"type": "uint256"
						}
					],
					"name": "TokensPurchased",
					"type": "event"
				},
				{
					"stateMutability": "payable",
					"type": "fallback"
				},
				{
					"inputs": [],
					"name": "DEFAULT_ADMIN_ROLE",
					"outputs": [
						{
							"internalType": "bytes32",
							"name": "",
							"type": "bytes32"
						}
					],
					"stateMutability": "view",
					"type": "function"
				},
				{
					"inputs": [],
					"name": "WHITELISTED_ROLE",
					"outputs": [
						{
							"internalType": "bytes32",
							"name": "",
							"type": "bytes32"
						}
					],
					"stateMutability": "view",
					"type": "function"
				},
				{
					"inputs": [],
					"name": "WHITELIST_ADMIN_ROLE",
					"outputs": [
						{
							"internalType": "bytes32",
							"name": "",
							"type": "bytes32"
						}
					],
					"stateMutability": "view",
					"type": "function"
				},
				{
					"inputs": [
						{
							"internalType": "address[]",
							"name": "addresses",
							"type": "address[]"
						}
					],
					"name": "addToWhitelist",
					"outputs": [],
					"stateMutability": "nonpayable",
					"type": "function"
				},
				{
					"inputs": [
						{
							"internalType": "address",
							"name": "candidate",
							"type": "address"
						}
					],
					"name": "addToWhitelist",
					"outputs": [],
					"stateMutability": "nonpayable",
					"type": "function"
				},
				{
					"inputs": [
						{
							"internalType": "address",
							"name": "beneficiary",
							"type": "address"
						}
					],
					"name": "buyTokens",
					"outputs": [],
					"stateMutability": "payable",
					"type": "function"
				},
				{
					"inputs": [
						{
							"internalType": "bytes32",
							"name": "role",
							"type": "bytes32"
						}
					],
					"name": "getRoleAdmin",
					"outputs": [
						{
							"internalType": "bytes32",
							"name": "",
							"type": "bytes32"
						}
					],
					"stateMutability": "view",
					"type": "function"
				},
				{
					"inputs": [
						{
							"internalType": "bytes32",
							"name": "role",
							"type": "bytes32"
						},
						{
							"internalType": "address",
							"name": "account",
							"type": "address"
						}
					],
					"name": "grantRole",
					"outputs": [],
					"stateMutability": "nonpayable",
					"type": "function"
				},
				{
					"inputs": [
						{
							"internalType": "bytes32",
							"name": "role",
							"type": "bytes32"
						},
						{
							"internalType": "address",
							"name": "account",
							"type": "address"
						}
					],
					"name": "hasRole",
					"outputs": [
						{
							"internalType": "bool",
							"name": "",
							"type": "bool"
						}
					],
					"stateMutability": "view",
					"type": "function"
				},
				{
					"inputs": [],
					"name": "rate",
					"outputs": [
						{
							"internalType": "uint256",
							"name": "",
							"type": "uint256"
						}
					],
					"stateMutability": "view",
					"type": "function"
				},
				{
					"inputs": [
						{
							"internalType": "address[]",
							"name": "addresses",
							"type": "address[]"
						}
					],
					"name": "removeFromWhitelist",
					"outputs": [],
					"stateMutability": "nonpayable",
					"type": "function"
				},
				{
					"inputs": [
						{
							"internalType": "address",
							"name": "candidate",
							"type": "address"
						}
					],
					"name": "removeFromWhitelist",
					"outputs": [],
					"stateMutability": "nonpayable",
					"type": "function"
				},
				{
					"inputs": [
						{
							"internalType": "bytes32",
							"name": "role",
							"type": "bytes32"
						},
						{
							"internalType": "address",
							"name": "account",
							"type": "address"
						}
					],
					"name": "renounceRole",
					"outputs": [],
					"stateMutability": "nonpayable",
					"type": "function"
				},
				{
					"inputs": [
						{
							"internalType": "bytes32",
							"name": "role",
							"type": "bytes32"
						},
						{
							"internalType": "address",
							"name": "account",
							"type": "address"
						}
					],
					"name": "revokeRole",
					"outputs": [],
					"stateMutability": "nonpayable",
					"type": "function"
				},
				{
					"inputs": [
						{
							"internalType": "bytes4",
							"name": "interfaceId",
							"type": "bytes4"
						}
					],
					"name": "supportsInterface",
					"outputs": [
						{
							"internalType": "bool",
							"name": "",
							"type": "bool"
						}
					],
					"stateMutability": "view",
					"type": "function"
				},
				{
					"inputs": [],
					"name": "token",
					"outputs": [
						{
							"internalType": "contract IERC20",
							"name": "",
							"type": "address"
						}
					],
					"stateMutability": "view",
					"type": "function"
				},
				{
					"inputs": [],
					"name": "wallet",
					"outputs": [
						{
							"internalType": "address payable",
							"name": "",
							"type": "address"
						}
					],
					"stateMutability": "view",
					"type": "function"
				},
				{
					"inputs": [],
					"name": "weiRaised",
					"outputs": [
						{
							"internalType": "uint256",
							"name": "",
							"type": "uint256"
						}
					],
					"stateMutability": "view",
					"type": "function"
				},
				{
					"stateMutability": "payable",
					"type": "receive"
				}
			],
			"devdoc": {
				"details": "Crowdsale in which only whitelisted users can contribute.",
				"events": {
					"RoleAdminChanged(bytes32,bytes32,bytes32)": {
						"details": "Emitted when `newAdminRole` is set as ``role``'s admin role, replacing `previousAdminRole` `DEFAULT_ADMIN_ROLE` is the starting admin for all roles, despite {RoleAdminChanged} not being emitted signaling this. _Available since v3.1._"
					},
					"RoleGranted(bytes32,address,address)": {
						"details": "Emitted when `account` is granted `role`. `sender` is the account that originated the contract call, an admin role bearer except when using {AccessControl-_setupRole}."
					},
					"RoleRevoked(bytes32,address,address)": {
						"details": "Emitted when `account` is revoked `role`. `sender` is the account that originated the contract call:   - if using `revokeRole`, it is the admin role bearer   - if using `renounceRole`, it is the role bearer (i.e. `account`)"
					},
					"TokensPurchased(address,address,uint256,uint256)": {
						"params": {
							"amount": "amount of tokens purchased",
							"beneficiary": "who got the tokens",
							"purchaser": "who paid for the tokens",
							"value": "weis paid for purchase"
						}
					}
				},
				"kind": "dev",
				"methods": {
					"buyTokens(address)": {
						"details": "low level token purchase ***DO NOT OVERRIDE*** This function has a non-reentrancy guard, so it shouldn't be called by another `nonReentrant` function.",
						"params": {
							"beneficiary": "Recipient of the token purchase"
						}
					},
					"getRoleAdmin(bytes32)": {
						"details": "Returns the admin role that controls `role`. See {grantRole} and {revokeRole}. To change a role's admin, use {_setRoleAdmin}."
					},
					"grantRole(bytes32,address)": {
						"details": "Grants `role` to `account`. If `account` had not been already granted `role`, emits a {RoleGranted} event. Requirements: - the caller must have ``role``'s admin role. May emit a {RoleGranted} event."
					},
					"hasRole(bytes32,address)": {
						"details": "Returns `true` if `account` has been granted `role`."
					},
					"rate()": {
						"returns": {
							"_0": "the number of token units a buyer gets per wei."
						}
					},
					"renounceRole(bytes32,address)": {
						"details": "Revokes `role` from the calling account. Roles are often managed via {grantRole} and {revokeRole}: this function's purpose is to provide a mechanism for accounts to lose their privileges if they are compromised (such as when a trusted device is misplaced). If the calling account had been revoked `role`, emits a {RoleRevoked} event. Requirements: - the caller must be `account`. May emit a {RoleRevoked} event."
					},
					"revokeRole(bytes32,address)": {
						"details": "Revokes `role` from `account`. If `account` had been granted `role`, emits a {RoleRevoked} event. Requirements: - the caller must have ``role``'s admin role. May emit a {RoleRevoked} event."
					},
					"supportsInterface(bytes4)": {
						"details": "See {IERC165-supportsInterface}."
					},
					"token()": {
						"returns": {
							"_0": "the token being sold."
						}
					},
					"wallet()": {
						"returns": {
							"_0": "the address where funds are collected."
						}
					},
					"weiRaised()": {
						"returns": {
							"_0": "the amount of wei raised."
						}
					}
				},
				"title": "WhitelistCrowdsale",
				"version": 1
			},
			"evm": {
				"assembly": "    /* \"crowdsale/validation/whitelistCrowdsale.sol\":266:2178  contract WhitelistCrowdsale is Crowdsale, AccessControl {... */\n  mstore(0x40, 0x80)\n    /* \"crowdsale/validation/whitelistCrowdsale.sol\":497:678  constructor (uint256 inRate, address payable inWallet, IERC20 inToken)... */\n  callvalue\n  dup1\n  iszero\n  tag_1\n  jumpi\n  0x00\n  dup1\n  revert\ntag_1:\n  pop\n  mload(0x40)\n  sub(codesize, bytecodeSize)\n  dup1\n  bytecodeSize\n  dup4\n  codecopy\n  dup2\n  dup2\n  add\n  0x40\n  mstore\n  dup2\n  add\n  swap1\n  tag_2\n  swap2\n  swap1\n  tag_3\n  jump\t// in\ntag_2:\n    /* \"crowdsale/validation/whitelistCrowdsale.sol\":587:593  inRate */\n  dup3\n    /* \"crowdsale/validation/whitelistCrowdsale.sol\":595:603  inWallet */\n  dup3\n    /* \"crowdsale/validation/whitelistCrowdsale.sol\":605:612  inToken */\n  dup3\n    /* \"@openzeppelin/contracts/security/ReentrancyGuard.sol\":1716:1717  1 */\n  0x01\n    /* \"@openzeppelin/contracts/security/ReentrancyGuard.sol\":1821:1828  _status */\n  0x00\n    /* \"@openzeppelin/contracts/security/ReentrancyGuard.sol\":1821:1843  _status = _NOT_ENTERED */\n  dup2\n  swap1\n  sstore\n  pop\n    /* \"crowdsale/crowdsale.sol\":2644:2645  0 */\n  0x00\n    /* \"crowdsale/crowdsale.sol\":2635:2641  inRate */\n  dup4\n    /* \"crowdsale/crowdsale.sol\":2635:2645  inRate > 0 */\n  gt\n    /* \"crowdsale/crowdsale.sol\":2627:2670  require(inRate > 0, \"Crowdsale: rate is 0\") */\n  tag_9\n  jumpi\n  mload(0x40)\n  0x08c379a000000000000000000000000000000000000000000000000000000000\n  dup2\n  mstore\n  0x04\n  add\n  tag_10\n  swap1\n  tag_11\n  jump\t// in\ntag_10:\n  mload(0x40)\n  dup1\n  swap2\n  sub\n  swap1\n  revert\ntag_9:\n    /* \"crowdsale/crowdsale.sol\":2709:2710  0 */\n  0x00\n    /* \"crowdsale/crowdsale.sol\":2689:2711  inWallet != address(0) */\n  0xffffffffffffffffffffffffffffffffffffffff\n  and\n    /* \"crowdsale/crowdsale.sol\":2689:2697  inWallet */\n  dup3\n    /* \"crowdsale/crowdsale.sol\":2689:2711  inWallet != address(0) */\n  0xffffffffffffffffffffffffffffffffffffffff\n  and\n  sub\n    /* \"crowdsale/crowdsale.sol\":2681:2753  require(inWallet != address(0), \"Crowdsale: wallet is the zero address\") */\n  tag_12\n  jumpi\n  mload(0x40)\n  0x08c379a000000000000000000000000000000000000000000000000000000000\n  dup2\n  mstore\n  0x04\n  add\n  tag_13\n  swap1\n  tag_14\n  jump\t// in\ntag_13:\n  mload(0x40)\n  dup1\n  swap2\n  sub\n  swap1\n  revert\ntag_12:\n    /* \"crowdsale/crowdsale.sol\":2800:2801  0 */\n  0x00\n    /* \"crowdsale/crowdsale.sol\":2772:2802  address(inToken) != address(0) */\n  0xffffffffffffffffffffffffffffffffffffffff\n  and\n    /* \"crowdsale/crowdsale.sol\":2780:2787  inToken */\n  dup2\n    /* \"crowdsale/crowdsale.sol\":2772:2802  address(inToken) != address(0) */\n  0xffffffffffffffffffffffffffffffffffffffff\n  and\n  sub\n    /* \"crowdsale/crowdsale.sol\":2764:2843  require(address(inToken) != address(0), \"Crowdsale: token is the zero address\") */\n  tag_15\n  jumpi\n  mload(0x40)\n  0x08c379a000000000000000000000000000000000000000000000000000000000\n  dup2\n  mstore\n  0x04\n  add\n  tag_16\n  swap1\n  tag_17\n  jump\t// in\ntag_16:\n  mload(0x40)\n  dup1\n  swap2\n  sub\n  swap1\n  revert\ntag_15:\n    /* \"crowdsale/crowdsale.sol\":2864:2870  inRate */\n  dup3\n    /* \"crowdsale/crowdsale.sol\":2856:2861  _rate */\n  0x03\n    /* \"crowdsale/crowdsale.sol\":2856:2870  _rate = inRate */\n  dup2\n  swap1\n  sstore\n  pop\n    /* \"crowdsale/crowdsale.sol\":2891:2899  inWallet */\n  dup2\n    /* \"crowdsale/crowdsale.sol\":2881:2888  _wallet */\n  0x02\n  0x00\n    /* \"crowdsale/crowdsale.sol\":2881:2899  _wallet = inWallet */\n  0x0100\n  exp\n  dup2\n  sload\n  dup2\n  0xffffffffffffffffffffffffffffffffffffffff\n  mul\n  not\n  and\n  swap1\n  dup4\n  0xffffffffffffffffffffffffffffffffffffffff\n  and\n  mul\n  or\n  swap1\n  sstore\n  pop\n    /* \"crowdsale/crowdsale.sol\":2919:2926  inToken */\n  dup1\n    /* \"crowdsale/crowdsale.sol\":2910:2916  _token */\n  0x01\n  0x00\n    /* \"crowdsale/crowdsale.sol\":2910:2926  _token = inToken */\n  0x0100\n  exp\n  dup2\n  sload\n  dup2\n  0xffffffffffffffffffffffffffffffffffffffff\n  mul\n  not\n  and\n  swap1\n  dup4\n  0xffffffffffffffffffffffffffffffffffffffff\n  and\n  mul\n  or\n  swap1\n  sstore\n  pop\n    /* \"crowdsale/crowdsale.sol\":2545:2934  constructor (uint256 inRate, address payable inWallet, IERC20 inToken) {... */\n  pop\n  pop\n  pop\n    /* \"crowdsale/validation/whitelistCrowdsale.sol\":630:670  _grantRole(DEFAULT_ADMIN_ROLE, inWallet) */\n  tag_19\n    /* \"@openzeppelin/contracts/access/AccessControl.sol\":2198:2202  0x00 */\n  0x00\n    /* \"crowdsale/validation/whitelistCrowdsale.sol\":641:659  DEFAULT_ADMIN_ROLE */\n  dup1\n  shl\n    /* \"crowdsale/validation/whitelistCrowdsale.sol\":661:669  inWallet */\n  dup4\n    /* \"crowdsale/validation/whitelistCrowdsale.sol\":630:640  _grantRole */\n  shl(0x20, tag_20)\n    /* \"crowdsale/validation/whitelistCrowdsale.sol\":630:670  _grantRole(DEFAULT_ADMIN_ROLE, inWallet) */\n  0x20\n  shr\n  jump\t// in\ntag_19:\n    /* \"crowdsale/validation/whitelistCrowdsale.sol\":497:678  constructor (uint256 inRate, address payable inWallet, IERC20 inToken)... */\n  pop\n  pop\n  pop\n    /* \"crowdsale/validation/whitelistCrowdsale.sol\":266:2178  contract WhitelistCrowdsale is Crowdsale, AccessControl {... */\n  jump(tag_21)\n    /* \"@openzeppelin/contracts/access/AccessControl.sol\":7587:7820  function _grantRole(bytes32 role, address account) internal virtual {... */\ntag_20:\n    /* \"@openzeppelin/contracts/access/AccessControl.sol\":7670:7692  hasRole(role, account) */\n  tag_23\n    /* \"@openzeppelin/contracts/access/AccessControl.sol\":7678:7682  role */\n  dup3\n    /* \"@openzeppelin/contracts/access/AccessControl.sol\":7684:7691  account */\n  dup3\n    /* \"@openzeppelin/contracts/access/AccessControl.sol\":7670:7677  hasRole */\n  shl(0x20, tag_24)\n    /* \"@openzeppelin/contracts/access/AccessControl.sol\":7670:7692  hasRole(role, account) */\n  0x20\n  shr\n  jump\t// in\ntag_23:\n    /* \"@openzeppelin/contracts/access/AccessControl.sol\":7665:7814  if (!hasRole(role, account)) {... */\n  tag_25\n  jumpi\n    /* \"@openzeppelin/contracts/access/AccessControl.sol\":7740:7744  true */\n  0x01\n    /* \"@openzeppelin/contracts/access/AccessControl.sol\":7708:7714  _roles */\n  0x05\n    /* \"@openzeppelin/contracts/access/AccessControl.sol\":7708:7720  _roles[role] */\n  0x00\n    /* \"@openzeppelin/contracts/access/AccessControl.sol\":7715:7719  role */\n  dup5\n    /* \"@openzeppelin/contracts/access/AccessControl.sol\":7708:7720  _roles[role] */\n  dup2\n  mstore\n  0x20\n  add\n  swap1\n  dup2\n  mstore\n  0x20\n  add\n  0x00\n  keccak256\n    /* \"@openzeppelin/contracts/access/AccessControl.sol\":7708:7728  _roles[role].members */\n  0x00\n  add\n    /* \"@openzeppelin/contracts/access/AccessControl.sol\":7708:7737  _roles[role].members[account] */\n  0x00\n    /* \"@openzeppelin/contracts/access/AccessControl.sol\":7729:7736  account */\n  dup4\n    /* \"@openzeppelin/contracts/access/AccessControl.sol\":7708:7737  _roles[role].members[account] */\n  0xffffffffffffffffffffffffffffffffffffffff\n  and\n  0xffffffffffffffffffffffffffffffffffffffff\n  and\n  dup2\n  mstore\n  0x20\n  add\n  swap1\n  dup2\n  mstore\n  0x20\n  add\n  0x00\n  keccak256\n  0x00\n    /* \"@openzeppelin/contracts/access/AccessControl.sol\":7708:7744  _roles[role].members[account] = true */\n  0x0100\n  exp\n  dup2\n  sload\n  dup2\n  0xff\n  mul\n  not\n  and\n  swap1\n  dup4\n  iszero\n  iszero\n  mul\n  or\n  swap1\n  sstore\n  pop\n    /* \"@openzeppelin/contracts/access/AccessControl.sol\":7790:7802  _msgSender() */\n  tag_26\n    /* \"@openzeppelin/contracts/access/AccessControl.sol\":7790:7800  _msgSender */\n  shl(0x20, tag_27)\n    /* \"@openzeppelin/contracts/access/AccessControl.sol\":7790:7802  _msgSender() */\n  0x20\n  shr\n  jump\t// in\ntag_26:\n    /* \"@openzeppelin/contracts/access/AccessControl.sol\":7763:7803  RoleGranted(role, account, _msgSender()) */\n  0xffffffffffffffffffffffffffffffffffffffff\n  and\n    /* \"@openzeppelin/contracts/access/AccessControl.sol\":7781:7788  account */\n  dup2\n    /* \"@openzeppelin/contracts/access/AccessControl.sol\":7763:7803  RoleGranted(role, account, _msgSender()) */\n  0xffffffffffffffffffffffffffffffffffffffff\n  and\n    /* \"@openzeppelin/contracts/access/AccessControl.sol\":7775:7779  role */\n  dup4\n    /* \"@openzeppelin/contracts/access/AccessControl.sol\":7763:7803  RoleGranted(role, account, _msgSender()) */\n  0x2f8788117e7eff1d82e926ec794901d17c78024a50270940304540a733656f0d\n  mload(0x40)\n  mload(0x40)\n  dup1\n  swap2\n  sub\n  swap1\n  log4\n    /* \"@openzeppelin/contracts/access/AccessControl.sol\":7665:7814  if (!hasRole(role, account)) {... */\ntag_25:\n    /* \"@openzeppelin/contracts/access/AccessControl.sol\":7587:7820  function _grantRole(bytes32 role, address account) internal virtual {... */\n  pop\n  pop\n  jump\t// out\n    /* \"@openzeppelin/contracts/access/AccessControl.sol\":3021:3166  function hasRole(bytes32 role, address account) public view virtual override returns (bool) {... */\ntag_24:\n    /* \"@openzeppelin/contracts/access/AccessControl.sol\":3107:3111  bool */\n  0x00\n    /* \"@openzeppelin/contracts/access/AccessControl.sol\":3130:3136  _roles */\n  0x05\n    /* \"@openzeppelin/contracts/access/AccessControl.sol\":3130:3142  _roles[role] */\n  0x00\n    /* \"@openzeppelin/contracts/access/AccessControl.sol\":3137:3141  role */\n  dup5\n    /* \"@openzeppelin/contracts/access/AccessControl.sol\":3130:3142  _roles[role] */\n  dup2\n  mstore\n  0x20\n  add\n  swap1\n  dup2\n  mstore\n  0x20\n  add\n  0x00\n  keccak256\n    /* \"@openzeppelin/contracts/access/AccessControl.sol\":3130:3150  _roles[role].members */\n  0x00\n  add\n    /* \"@openzeppelin/contracts/access/AccessControl.sol\":3130:3159  _roles[role].members[account] */\n  0x00\n    /* \"@openzeppelin/contracts/access/AccessControl.sol\":3151:3158  account */\n  dup4\n    /* \"@openzeppelin/contracts/access/AccessControl.sol\":3130:3159  _roles[role].members[account] */\n  0xffffffffffffffffffffffffffffffffffffffff\n  and\n  0xffffffffffffffffffffffffffffffffffffffff\n  and\n  dup2\n  mstore\n  0x20\n  add\n  swap1\n  dup2\n  mstore\n  0x20\n  add\n  0x00\n  keccak256\n  0x00\n  swap1\n  sload\n  swap1\n  0x0100\n  exp\n  swap1\n  div\n  0xff\n  and\n    /* \"@openzeppelin/contracts/access/AccessControl.sol\":3123:3159  return _roles[role].members[account] */\n  swap1\n  pop\n    /* \"@openzeppelin/contracts/access/AccessControl.sol\":3021:3166  function hasRole(bytes32 role, address account) public view virtual override returns (bool) {... */\n  swap3\n  swap2\n  pop\n  pop\n  jump\t// out\n    /* \"@openzeppelin/contracts/utils/Context.sol\":656:752  function _msgSender() internal view virtual returns (address) {... */\ntag_27:\n    /* \"@openzeppelin/contracts/utils/Context.sol\":709:716  address */\n  0x00\n    /* \"@openzeppelin/contracts/utils/Context.sol\":735:745  msg.sender */\n  caller\n    /* \"@openzeppelin/contracts/utils/Context.sol\":728:745  return msg.sender */\n  swap1\n  pop\n    /* \"@openzeppelin/contracts/utils/Context.sol\":656:752  function _msgSender() internal view virtual returns (address) {... */\n  swap1\n  jump\t// out\n    /* \"#utility.yul\":88:205   */\ntag_31:\n    /* \"#utility.yul\":197:198   */\n  0x00\n    /* \"#utility.yul\":194:195   */\n  dup1\n    /* \"#utility.yul\":187:199   */\n  revert\n    /* \"#utility.yul\":334:411   */\ntag_33:\n    /* \"#utility.yul\":371:378   */\n  0x00\n    /* \"#utility.yul\":400:405   */\n  dup2\n    /* \"#utility.yul\":389:405   */\n  swap1\n  pop\n    /* \"#utility.yul\":334:411   */\n  swap2\n  swap1\n  pop\n  jump\t// out\n    /* \"#utility.yul\":417:539   */\ntag_34:\n    /* \"#utility.yul\":490:514   */\n  tag_57\n    /* \"#utility.yul\":508:513   */\n  dup2\n    /* \"#utility.yul\":490:514   */\n  tag_33\n  jump\t// in\ntag_57:\n    /* \"#utility.yul\":483:488   */\n  dup2\n    /* \"#utility.yul\":480:515   */\n  eq\n    /* \"#utility.yul\":470:533   */\n  tag_58\n  jumpi\n    /* \"#utility.yul\":529:530   */\n  0x00\n    /* \"#utility.yul\":526:527   */\n  dup1\n    /* \"#utility.yul\":519:531   */\n  revert\n    /* \"#utility.yul\":470:533   */\ntag_58:\n    /* \"#utility.yul\":417:539   */\n  pop\n  jump\t// out\n    /* \"#utility.yul\":545:688   */\ntag_35:\n    /* \"#utility.yul\":602:607   */\n  0x00\n    /* \"#utility.yul\":633:639   */\n  dup2\n    /* \"#utility.yul\":627:640   */\n  mload\n    /* \"#utility.yul\":618:640   */\n  swap1\n  pop\n    /* \"#utility.yul\":649:682   */\n  tag_60\n    /* \"#utility.yul\":676:681   */\n  dup2\n    /* \"#utility.yul\":649:682   */\n  tag_34\n  jump\t// in\ntag_60:\n    /* \"#utility.yul\":545:688   */\n  swap3\n  swap2\n  pop\n  pop\n  jump\t// out\n    /* \"#utility.yul\":694:820   */\ntag_36:\n    /* \"#utility.yul\":731:738   */\n  0x00\n    /* \"#utility.yul\":771:813   */\n  0xffffffffffffffffffffffffffffffffffffffff\n    /* \"#utility.yul\":764:769   */\n  dup3\n    /* \"#utility.yul\":760:814   */\n  and\n    /* \"#utility.yul\":749:814   */\n  swap1\n  pop\n    /* \"#utility.yul\":694:820   */\n  swap2\n  swap1\n  pop\n  jump\t// out\n    /* \"#utility.yul\":826:930   */\ntag_37:\n    /* \"#utility.yul\":871:878   */\n  0x00\n    /* \"#utility.yul\":900:924   */\n  tag_63\n    /* \"#utility.yul\":918:923   */\n  dup3\n    /* \"#utility.yul\":900:924   */\n  tag_36\n  jump\t// in\ntag_63:\n    /* \"#utility.yul\":889:924   */\n  swap1\n  pop\n    /* \"#utility.yul\":826:930   */\n  swap2\n  swap1\n  pop\n  jump\t// out\n    /* \"#utility.yul\":936:1074   */\ntag_38:\n    /* \"#utility.yul\":1017:1049   */\n  tag_65\n    /* \"#utility.yul\":1043:1048   */\n  dup2\n    /* \"#utility.yul\":1017:1049   */\n  tag_37\n  jump\t// in\ntag_65:\n    /* \"#utility.yul\":1010:1015   */\n  dup2\n    /* \"#utility.yul\":1007:1050   */\n  eq\n    /* \"#utility.yul\":997:1068   */\n  tag_66\n  jumpi\n    /* \"#utility.yul\":1064:1065   */\n  0x00\n    /* \"#utility.yul\":1061:1062   */\n  dup1\n    /* \"#utility.yul\":1054:1066   */\n  revert\n    /* \"#utility.yul\":997:1068   */\ntag_66:\n    /* \"#utility.yul\":936:1074   */\n  pop\n  jump\t// out\n    /* \"#utility.yul\":1080:1239   */\ntag_39:\n    /* \"#utility.yul\":1145:1150   */\n  0x00\n    /* \"#utility.yul\":1176:1182   */\n  dup2\n    /* \"#utility.yul\":1170:1183   */\n  mload\n    /* \"#utility.yul\":1161:1183   */\n  swap1\n  pop\n    /* \"#utility.yul\":1192:1233   */\n  tag_68\n    /* \"#utility.yul\":1227:1232   */\n  dup2\n    /* \"#utility.yul\":1192:1233   */\n  tag_38\n  jump\t// in\ntag_68:\n    /* \"#utility.yul\":1080:1239   */\n  swap3\n  swap2\n  pop\n  pop\n  jump\t// out\n    /* \"#utility.yul\":1245:1341   */\ntag_40:\n    /* \"#utility.yul\":1282:1289   */\n  0x00\n    /* \"#utility.yul\":1311:1335   */\n  tag_70\n    /* \"#utility.yul\":1329:1334   */\n  dup3\n    /* \"#utility.yul\":1311:1335   */\n  tag_36\n  jump\t// in\ntag_70:\n    /* \"#utility.yul\":1300:1335   */\n  swap1\n  pop\n    /* \"#utility.yul\":1245:1341   */\n  swap2\n  swap1\n  pop\n  jump\t// out\n    /* \"#utility.yul\":1347:1457   */\ntag_41:\n    /* \"#utility.yul\":1398:1405   */\n  0x00\n    /* \"#utility.yul\":1427:1451   */\n  tag_72\n    /* \"#utility.yul\":1445:1450   */\n  dup3\n    /* \"#utility.yul\":1427:1451   */\n  tag_40\n  jump\t// in\ntag_72:\n    /* \"#utility.yul\":1416:1451   */\n  swap1\n  pop\n    /* \"#utility.yul\":1347:1457   */\n  swap2\n  swap1\n  pop\n  jump\t// out\n    /* \"#utility.yul\":1463:1613   */\ntag_42:\n    /* \"#utility.yul\":1550:1588   */\n  tag_74\n    /* \"#utility.yul\":1582:1587   */\n  dup2\n    /* \"#utility.yul\":1550:1588   */\n  tag_41\n  jump\t// in\ntag_74:\n    /* \"#utility.yul\":1543:1548   */\n  dup2\n    /* \"#utility.yul\":1540:1589   */\n  eq\n    /* \"#utility.yul\":1530:1607   */\n  tag_75\n  jumpi\n    /* \"#utility.yul\":1603:1604   */\n  0x00\n    /* \"#utility.yul\":1600:1601   */\n  dup1\n    /* \"#utility.yul\":1593:1605   */\n  revert\n    /* \"#utility.yul\":1530:1607   */\ntag_75:\n    /* \"#utility.yul\":1463:1613   */\n  pop\n  jump\t// out\n    /* \"#utility.yul\":1619:1790   */\ntag_43:\n    /* \"#utility.yul\":1690:1695   */\n  0x00\n    /* \"#utility.yul\":1721:1727   */\n  dup2\n    /* \"#utility.yul\":1715:1728   */\n  mload\n    /* \"#utility.yul\":1706:1728   */\n  swap1\n  pop\n    /* \"#utility.yul\":1737:1784   */\n  tag_77\n    /* \"#utility.yul\":1778:1783   */\n  dup2\n    /* \"#utility.yul\":1737:1784   */\n  tag_42\n  jump\t// in\ntag_77:\n    /* \"#utility.yul\":1619:1790   */\n  swap3\n  swap2\n  pop\n  pop\n  jump\t// out\n    /* \"#utility.yul\":1796:2503   */\ntag_3:\n    /* \"#utility.yul\":1906:1912   */\n  0x00\n    /* \"#utility.yul\":1914:1920   */\n  dup1\n    /* \"#utility.yul\":1922:1928   */\n  0x00\n    /* \"#utility.yul\":1971:1973   */\n  0x60\n    /* \"#utility.yul\":1959:1968   */\n  dup5\n    /* \"#utility.yul\":1950:1957   */\n  dup7\n    /* \"#utility.yul\":1946:1969   */\n  sub\n    /* \"#utility.yul\":1942:1974   */\n  slt\n    /* \"#utility.yul\":1939:2058   */\n  iszero\n  tag_79\n  jumpi\n    /* \"#utility.yul\":1977:2056   */\n  tag_80\n  tag_31\n  jump\t// in\ntag_80:\n    /* \"#utility.yul\":1939:2058   */\ntag_79:\n    /* \"#utility.yul\":2097:2098   */\n  0x00\n    /* \"#utility.yul\":2122:2186   */\n  tag_81\n    /* \"#utility.yul\":2178:2185   */\n  dup7\n    /* \"#utility.yul\":2169:2175   */\n  dup3\n    /* \"#utility.yul\":2158:2167   */\n  dup8\n    /* \"#utility.yul\":2154:2176   */\n  add\n    /* \"#utility.yul\":2122:2186   */\n  tag_35\n  jump\t// in\ntag_81:\n    /* \"#utility.yul\":2112:2186   */\n  swap4\n  pop\n    /* \"#utility.yul\":2068:2196   */\n  pop\n    /* \"#utility.yul\":2235:2237   */\n  0x20\n    /* \"#utility.yul\":2261:2333   */\n  tag_82\n    /* \"#utility.yul\":2325:2332   */\n  dup7\n    /* \"#utility.yul\":2316:2322   */\n  dup3\n    /* \"#utility.yul\":2305:2314   */\n  dup8\n    /* \"#utility.yul\":2301:2323   */\n  add\n    /* \"#utility.yul\":2261:2333   */\n  tag_39\n  jump\t// in\ntag_82:\n    /* \"#utility.yul\":2251:2333   */\n  swap3\n  pop\n    /* \"#utility.yul\":2206:2343   */\n  pop\n    /* \"#utility.yul\":2382:2384   */\n  0x40\n    /* \"#utility.yul\":2408:2486   */\n  tag_83\n    /* \"#utility.yul\":2478:2485   */\n  dup7\n    /* \"#utility.yul\":2469:2475   */\n  dup3\n    /* \"#utility.yul\":2458:2467   */\n  dup8\n    /* \"#utility.yul\":2454:2476   */\n  add\n    /* \"#utility.yul\":2408:2486   */\n  tag_43\n  jump\t// in\ntag_83:\n    /* \"#utility.yul\":2398:2486   */\n  swap2\n  pop\n    /* \"#utility.yul\":2353:2496   */\n  pop\n    /* \"#utility.yul\":1796:2503   */\n  swap3\n  pop\n  swap3\n  pop\n  swap3\n  jump\t// out\n    /* \"#utility.yul\":2509:2678   */\ntag_44:\n    /* \"#utility.yul\":2593:2604   */\n  0x00\n    /* \"#utility.yul\":2627:2633   */\n  dup3\n    /* \"#utility.yul\":2622:2625   */\n  dup3\n    /* \"#utility.yul\":2615:2634   */\n  mstore\n    /* \"#utility.yul\":2667:2671   */\n  0x20\n    /* \"#utility.yul\":2662:2665   */\n  dup3\n    /* \"#utility.yul\":2658:2672   */\n  add\n    /* \"#utility.yul\":2643:2672   */\n  swap1\n  pop\n    /* \"#utility.yul\":2509:2678   */\n  swap3\n  swap2\n  pop\n  pop\n  jump\t// out\n    /* \"#utility.yul\":2684:2854   */\ntag_45:\n    /* \"#utility.yul\":2824:2846   */\n  0x43726f776473616c653a20726174652069732030000000000000000000000000\n    /* \"#utility.yul\":2820:2821   */\n  0x00\n    /* \"#utility.yul\":2812:2818   */\n  dup3\n    /* \"#utility.yul\":2808:2822   */\n  add\n    /* \"#utility.yul\":2801:2847   */\n  mstore\n    /* \"#utility.yul\":2684:2854   */\n  pop\n  jump\t// out\n    /* \"#utility.yul\":2860:3226   */\ntag_46:\n    /* \"#utility.yul\":3002:3005   */\n  0x00\n    /* \"#utility.yul\":3023:3090   */\n  tag_87\n    /* \"#utility.yul\":3087:3089   */\n  0x14\n    /* \"#utility.yul\":3082:3085   */\n  dup4\n    /* \"#utility.yul\":3023:3090   */\n  tag_44\n  jump\t// in\ntag_87:\n    /* \"#utility.yul\":3016:3090   */\n  swap2\n  pop\n    /* \"#utility.yul\":3099:3192   */\n  tag_88\n    /* \"#utility.yul\":3188:3191   */\n  dup3\n    /* \"#utility.yul\":3099:3192   */\n  tag_45\n  jump\t// in\ntag_88:\n    /* \"#utility.yul\":3217:3219   */\n  0x20\n    /* \"#utility.yul\":3212:3215   */\n  dup3\n    /* \"#utility.yul\":3208:3220   */\n  add\n    /* \"#utility.yul\":3201:3220   */\n  swap1\n  pop\n    /* \"#utility.yul\":2860:3226   */\n  swap2\n  swap1\n  pop\n  jump\t// out\n    /* \"#utility.yul\":3232:3651   */\ntag_11:\n    /* \"#utility.yul\":3398:3402   */\n  0x00\n    /* \"#utility.yul\":3436:3438   */\n  0x20\n    /* \"#utility.yul\":3425:3434   */\n  dup3\n    /* \"#utility.yul\":3421:3439   */\n  add\n    /* \"#utility.yul\":3413:3439   */\n  swap1\n  pop\n    /* \"#utility.yul\":3485:3494   */\n  dup2\n    /* \"#utility.yul\":3479:3483   */\n  dup2\n    /* \"#utility.yul\":3475:3495   */\n  sub\n    /* \"#utility.yul\":3471:3472   */\n  0x00\n    /* \"#utility.yul\":3460:3469   */\n  dup4\n    /* \"#utility.yul\":3456:3473   */\n  add\n    /* \"#utility.yul\":3449:3496   */\n  mstore\n    /* \"#utility.yul\":3513:3644   */\n  tag_90\n    /* \"#utility.yul\":3639:3643   */\n  dup2\n    /* \"#utility.yul\":3513:3644   */\n  tag_46\n  jump\t// in\ntag_90:\n    /* \"#utility.yul\":3505:3644   */\n  swap1\n  pop\n    /* \"#utility.yul\":3232:3651   */\n  swap2\n  swap1\n  pop\n  jump\t// out\n    /* \"#utility.yul\":3657:3881   */\ntag_47:\n    /* \"#utility.yul\":3797:3831   */\n  0x43726f776473616c653a2077616c6c657420697320746865207a65726f206164\n    /* \"#utility.yul\":3793:3794   */\n  0x00\n    /* \"#utility.yul\":3785:3791   */\n  dup3\n    /* \"#utility.yul\":3781:3795   */\n  add\n    /* \"#utility.yul\":3774:3832   */\n  mstore\n    /* \"#utility.yul\":3866:3873   */\n  0x6472657373000000000000000000000000000000000000000000000000000000\n    /* \"#utility.yul\":3861:3863   */\n  0x20\n    /* \"#utility.yul\":3853:3859   */\n  dup3\n    /* \"#utility.yul\":3849:3864   */\n  add\n    /* \"#utility.yul\":3842:3874   */\n  mstore\n    /* \"#utility.yul\":3657:3881   */\n  pop\n  jump\t// out\n    /* \"#utility.yul\":3887:4253   */\ntag_48:\n    /* \"#utility.yul\":4029:4032   */\n  0x00\n    /* \"#utility.yul\":4050:4117   */\n  tag_93\n    /* \"#utility.yul\":4114:4116   */\n  0x25\n    /* \"#utility.yul\":4109:4112   */\n  dup4\n    /* \"#utility.yul\":4050:4117   */\n  tag_44\n  jump\t// in\ntag_93:\n    /* \"#utility.yul\":4043:4117   */\n  swap2\n  pop\n    /* \"#utility.yul\":4126:4219   */\n  tag_94\n    /* \"#utility.yul\":4215:4218   */\n  dup3\n    /* \"#utility.yul\":4126:4219   */\n  tag_47\n  jump\t// in\ntag_94:\n    /* \"#utility.yul\":4244:4246   */\n  0x40\n    /* \"#utility.yul\":4239:4242   */\n  dup3\n    /* \"#utility.yul\":4235:4247   */\n  add\n    /* \"#utility.yul\":4228:4247   */\n  swap1\n  pop\n    /* \"#utility.yul\":3887:4253   */\n  swap2\n  swap1\n  pop\n  jump\t// out\n    /* \"#utility.yul\":4259:4678   */\ntag_14:\n    /* \"#utility.yul\":4425:4429   */\n  0x00\n    /* \"#utility.yul\":4463:4465   */\n  0x20\n    /* \"#utility.yul\":4452:4461   */\n  dup3\n    /* \"#utility.yul\":4448:4466   */\n  add\n    /* \"#utility.yul\":4440:4466   */\n  swap1\n  pop\n    /* \"#utility.yul\":4512:4521   */\n  dup2\n    /* \"#utility.yul\":4506:4510   */\n  dup2\n    /* \"#utility.yul\":4502:4522   */\n  sub\n    /* \"#utility.yul\":4498:4499   */\n  0x00\n    /* \"#utility.yul\":4487:4496   */\n  dup4\n    /* \"#utility.yul\":4483:4500   */\n  add\n    /* \"#utility.yul\":4476:4523   */\n  mstore\n    /* \"#utility.yul\":4540:4671   */\n  tag_96\n    /* \"#utility.yul\":4666:4670   */\n  dup2\n    /* \"#utility.yul\":4540:4671   */\n  tag_48\n  jump\t// in\ntag_96:\n    /* \"#utility.yul\":4532:4671   */\n  swap1\n  pop\n    /* \"#utility.yul\":4259:4678   */\n  swap2\n  swap1\n  pop\n  jump\t// out\n    /* \"#utility.yul\":4684:4907   */\ntag_49:\n    /* \"#utility.yul\":4824:4858   */\n  0x43726f776473616c653a20746f6b656e20697320746865207a65726f20616464\n    /* \"#utility.yul\":4820:4821   */\n  0x00\n    /* \"#utility.yul\":4812:4818   */\n  dup3\n    /* \"#utility.yul\":4808:4822   */\n  add\n    /* \"#utility.yul\":4801:4859   */\n  mstore\n    /* \"#utility.yul\":4893:4899   */\n  0x7265737300000000000000000000000000000000000000000000000000000000\n    /* \"#utility.yul\":4888:4890   */\n  0x20\n    /* \"#utility.yul\":4880:4886   */\n  dup3\n    /* \"#utility.yul\":4876:4891   */\n  add\n    /* \"#utility.yul\":4869:4900   */\n  mstore\n    /* \"#utility.yul\":4684:4907   */\n  pop\n  jump\t// out\n    /* \"#utility.yul\":4913:5279   */\ntag_50:\n    /* \"#utility.yul\":5055:5058   */\n  0x00\n    /* \"#utility.yul\":5076:5143   */\n  tag_99\n    /* \"#utility.yul\":5140:5142   */\n  0x24\n    /* \"#utility.yul\":5135:5138   */\n  dup4\n    /* \"#utility.yul\":5076:5143   */\n  tag_44\n  jump\t// in\ntag_99:\n    /* \"#utility.yul\":5069:5143   */\n  swap2\n  pop\n    /* \"#utility.yul\":5152:5245   */\n  tag_100\n    /* \"#utility.yul\":5241:5244   */\n  dup3\n    /* \"#utility.yul\":5152:5245   */\n  tag_49\n  jump\t// in\ntag_100:\n    /* \"#utility.yul\":5270:5272   */\n  0x40\n    /* \"#utility.yul\":5265:5268   */\n  dup3\n    /* \"#utility.yul\":5261:5273   */\n  add\n    /* \"#utility.yul\":5254:5273   */\n  swap1\n  pop\n    /* \"#utility.yul\":4913:5279   */\n  swap2\n  swap1\n  pop\n  jump\t// out\n    /* \"#utility.yul\":5285:5704   */\ntag_17:\n    /* \"#utility.yul\":5451:5455   */\n  0x00\n    /* \"#utility.yul\":5489:5491   */\n  0x20\n    /* \"#utility.yul\":5478:5487   */\n  dup3\n    /* \"#utility.yul\":5474:5492   */\n  add\n    /* \"#utility.yul\":5466:5492   */\n  swap1\n  pop\n    /* \"#utility.yul\":5538:5547   */\n  dup2\n    /* \"#utility.yul\":5532:5536   */\n  dup2\n    /* \"#utility.yul\":5528:5548   */\n  sub\n    /* \"#utility.yul\":5524:5525   */\n  0x00\n    /* \"#utility.yul\":5513:5522   */\n  dup4\n    /* \"#utility.yul\":5509:5526   */\n  add\n    /* \"#utility.yul\":5502:5549   */\n  mstore\n    /* \"#utility.yul\":5566:5697   */\n  tag_102\n    /* \"#utility.yul\":5692:5696   */\n  dup2\n    /* \"#utility.yul\":5566:5697   */\n  tag_50\n  jump\t// in\ntag_102:\n    /* \"#utility.yul\":5558:5697   */\n  swap1\n  pop\n    /* \"#utility.yul\":5285:5704   */\n  swap2\n  swap1\n  pop\n  jump\t// out\n    /* \"crowdsale/validation/whitelistCrowdsale.sol\":266:2178  contract WhitelistCrowdsale is Crowdsale, AccessControl {... */\ntag_21:\n  dataSize(sub_0)\n  dup1\n  dataOffset(sub_0)\n  0x00\n  codecopy\n  0x00\n  return\nstop\n\nsub_0: assembly {\n        /* \"crowdsale/validation/whitelistCrowdsale.sol\":266:2178  contract WhitelistCrowdsale is Crowdsale, AccessControl {... */\n      mstore(0x40, 0x80)\n      jumpi(tag_1, lt(calldatasize, 0x04))\n      shr(0xe0, calldataload(0x00))\n      dup1\n      0x7a3226ec\n      gt\n      tag_21\n      jumpi\n      dup1\n      0xa217fddf\n      gt\n      tag_22\n      jumpi\n      dup1\n      0xa217fddf\n      eq\n      tag_16\n      jumpi\n      dup1\n      0xd547741f\n      eq\n      tag_17\n      jumpi\n      dup1\n      0xe43252d7\n      eq\n      tag_18\n      jumpi\n      dup1\n      0xec8ac4d8\n      eq\n      tag_19\n      jumpi\n      dup1\n      0xfc0c546a\n      eq\n      tag_20\n      jumpi\n      jump(tag_2)\n    tag_22:\n      dup1\n      0x7a3226ec\n      eq\n      tag_12\n      jumpi\n      dup1\n      0x7f649783\n      eq\n      tag_13\n      jumpi\n      dup1\n      0x8ab1d681\n      eq\n      tag_14\n      jumpi\n      dup1\n      0x91d14854\n      eq\n      tag_15\n      jumpi\n      jump(tag_2)\n    tag_21:\n      dup1\n      0x36568abe\n      gt\n      tag_23\n      jumpi\n      dup1\n      0x36568abe\n      eq\n      tag_7\n      jumpi\n      dup1\n      0x4042b66f\n      eq\n      tag_8\n      jumpi\n      dup1\n      0x521eb273\n      eq\n      tag_9\n      jumpi\n      dup1\n      0x54202c4e\n      eq\n      tag_10\n      jumpi\n      dup1\n      0x548db174\n      eq\n      tag_11\n      jumpi\n      jump(tag_2)\n    tag_23:\n      dup1\n      0x01ffc9a7\n      eq\n      tag_3\n      jumpi\n      dup1\n      0x248a9ca3\n      eq\n      tag_4\n      jumpi\n      dup1\n      0x2c4e722e\n      eq\n      tag_5\n      jumpi\n      dup1\n      0x2f2ff15d\n      eq\n      tag_6\n      jumpi\n      jump(tag_2)\n    tag_1:\n      jumpi(tag_2, calldatasize)\n        /* \"crowdsale/crowdsale.sol\":3351:3374  buyTokens(_msgSender()) */\n      tag_26\n        /* \"crowdsale/crowdsale.sol\":3361:3373  _msgSender() */\n      tag_27\n        /* \"crowdsale/crowdsale.sol\":3361:3371  _msgSender */\n      tag_28\n        /* \"crowdsale/crowdsale.sol\":3361:3373  _msgSender() */\n      jump\t// in\n    tag_27:\n        /* \"crowdsale/crowdsale.sol\":3351:3360  buyTokens */\n      tag_29\n        /* \"crowdsale/crowdsale.sol\":3351:3374  buyTokens(_msgSender()) */\n      jump\t// in\n    tag_26:\n        /* \"crowdsale/validation/whitelistCrowdsale.sol\":266:2178  contract WhitelistCrowdsale is Crowdsale, AccessControl {... */\n      stop\n    tag_2:\n        /* \"crowdsale/crowdsale.sol\":3270:3293  buyTokens(_msgSender()) */\n      tag_32\n        /* \"crowdsale/crowdsale.sol\":3280:3292  _msgSender() */\n      tag_33\n        /* \"crowdsale/crowdsale.sol\":3280:3290  _msgSender */\n      tag_28\n        /* \"crowdsale/crowdsale.sol\":3280:3292  _msgSender() */\n      jump\t// in\n    tag_33:\n        /* \"crowdsale/crowdsale.sol\":3270:3279  buyTokens */\n      tag_29\n        /* \"crowdsale/crowdsale.sol\":3270:3293  buyTokens(_msgSender()) */\n      jump\t// in\n    tag_32:\n        /* \"crowdsale/validation/whitelistCrowdsale.sol\":266:2178  contract WhitelistCrowdsale is Crowdsale, AccessControl {... */\n      stop\n        /* \"@openzeppelin/contracts/access/AccessControl.sol\":2732:2934  function supportsInterface(bytes4 interfaceId) public view virtual override returns (bool) {... */\n    tag_3:\n      callvalue\n      dup1\n      iszero\n      tag_34\n      jumpi\n      0x00\n      dup1\n      revert\n    tag_34:\n      pop\n      tag_35\n      0x04\n      dup1\n      calldatasize\n      sub\n      dup2\n      add\n      swap1\n      tag_36\n      swap2\n      swap1\n      tag_37\n      jump\t// in\n    tag_36:\n      tag_38\n      jump\t// in\n    tag_35:\n      mload(0x40)\n      tag_39\n      swap2\n      swap1\n      tag_40\n      jump\t// in\n    tag_39:\n      mload(0x40)\n      dup1\n      swap2\n      sub\n      swap1\n      return\n        /* \"@openzeppelin/contracts/access/AccessControl.sol\":4504:4633  function getRoleAdmin(bytes32 role) public view virtual override returns (bytes32) {... */\n    tag_4:\n      callvalue\n      dup1\n      iszero\n      tag_41\n      jumpi\n      0x00\n      dup1\n      revert\n    tag_41:\n      pop\n      tag_42\n      0x04\n      dup1\n      calldatasize\n      sub\n      dup2\n      add\n      swap1\n      tag_43\n      swap2\n      swap1\n      tag_44\n      jump\t// in\n    tag_43:\n      tag_45\n      jump\t// in\n    tag_42:\n      mload(0x40)\n      tag_46\n      swap2\n      swap1\n      tag_47\n      jump\t// in\n    tag_46:\n      mload(0x40)\n      dup1\n      swap2\n      sub\n      swap1\n      return\n        /* \"crowdsale/crowdsale.sol\":3784:3869  function rate() public virtual view returns (uint256) {... */\n    tag_5:\n      callvalue\n      dup1\n      iszero\n      tag_48\n      jumpi\n      0x00\n      dup1\n      revert\n    tag_48:\n      pop\n      tag_49\n      tag_50\n      jump\t// in\n    tag_49:\n      mload(0x40)\n      tag_51\n      swap2\n      swap1\n      tag_52\n      jump\t// in\n    tag_51:\n      mload(0x40)\n      dup1\n      swap2\n      sub\n      swap1\n      return\n        /* \"@openzeppelin/contracts/access/AccessControl.sol\":4929:5074  function grantRole(bytes32 role, address account) public virtual override onlyRole(getRoleAdmin(role)) {... */\n    tag_6:\n      callvalue\n      dup1\n      iszero\n      tag_53\n      jumpi\n      0x00\n      dup1\n      revert\n    tag_53:\n      pop\n      tag_54\n      0x04\n      dup1\n      calldatasize\n      sub\n      dup2\n      add\n      swap1\n      tag_55\n      swap2\n      swap1\n      tag_56\n      jump\t// in\n    tag_55:\n      tag_57\n      jump\t// in\n    tag_54:\n      stop\n        /* \"@openzeppelin/contracts/access/AccessControl.sol\":6038:6252  function renounceRole(bytes32 role, address account) public virtual override {... */\n    tag_7:\n      callvalue\n      dup1\n      iszero\n      tag_58\n      jumpi\n      0x00\n      dup1\n      revert\n    tag_58:\n      pop\n      tag_59\n      0x04\n      dup1\n      calldatasize\n      sub\n      dup2\n      add\n      swap1\n      tag_60\n      swap2\n      swap1\n      tag_56\n      jump\t// in\n    tag_60:\n      tag_61\n      jump\t// in\n    tag_59:\n      stop\n        /* \"crowdsale/crowdsale.sol\":3937:4024  function weiRaised() public view returns (uint256) {... */\n    tag_8:\n      callvalue\n      dup1\n      iszero\n      tag_62\n      jumpi\n      0x00\n      dup1\n      revert\n    tag_62:\n      pop\n      tag_63\n      tag_64\n      jump\t// in\n    tag_63:\n      mload(0x40)\n      tag_65\n      swap2\n      swap1\n      tag_52\n      jump\t// in\n    tag_65:\n      mload(0x40)\n      dup1\n      swap2\n      sub\n      swap1\n      return\n        /* \"crowdsale/crowdsale.sol\":3605:3694  function wallet() public view returns (address payable) {... */\n    tag_9:\n      callvalue\n      dup1\n      iszero\n      tag_66\n      jumpi\n      0x00\n      dup1\n      revert\n    tag_66:\n      pop\n      tag_67\n      tag_68\n      jump\t// in\n    tag_67:\n      mload(0x40)\n      tag_69\n      swap2\n      swap1\n      tag_70\n      jump\t// in\n    tag_69:\n      mload(0x40)\n      dup1\n      swap2\n      sub\n      swap1\n      return\n        /* \"crowdsale/validation/whitelistCrowdsale.sol\":408:488  bytes32 public constant WHITELIST_ADMIN_ROLE = keccak256(\"WHITELIST_ADMIN_ROLE\") */\n    tag_10:\n      callvalue\n      dup1\n      iszero\n      tag_71\n      jumpi\n      0x00\n      dup1\n      revert\n    tag_71:\n      pop\n      tag_72\n      tag_73\n      jump\t// in\n    tag_72:\n      mload(0x40)\n      tag_74\n      swap2\n      swap1\n      tag_47\n      jump\t// in\n    tag_74:\n      mload(0x40)\n      dup1\n      swap2\n      sub\n      swap1\n      return\n        /* \"crowdsale/validation/whitelistCrowdsale.sol\":1301:1596  function removeFromWhitelist(address[] memory addresses) public onlyRole(WHITELIST_ADMIN_ROLE) {... */\n    tag_11:\n      callvalue\n      dup1\n      iszero\n      tag_75\n      jumpi\n      0x00\n      dup1\n      revert\n    tag_75:\n      pop\n      tag_76\n      0x04\n      dup1\n      calldatasize\n      sub\n      dup2\n      add\n      swap1\n      tag_77\n      swap2\n      swap1\n      tag_78\n      jump\t// in\n    tag_77:\n      tag_79\n      jump\t// in\n    tag_76:\n      stop\n        /* \"crowdsale/validation/whitelistCrowdsale.sol\":329:401  bytes32 public constant WHITELISTED_ROLE = keccak256(\"WHITELISTED_ROLE\") */\n    tag_12:\n      callvalue\n      dup1\n      iszero\n      tag_80\n      jumpi\n      0x00\n      dup1\n      revert\n    tag_80:\n      pop\n      tag_81\n      tag_82\n      jump\t// in\n    tag_81:\n      mload(0x40)\n      tag_83\n      swap2\n      swap1\n      tag_47\n      jump\t// in\n    tag_83:\n      mload(0x40)\n      dup1\n      swap2\n      sub\n      swap1\n      return\n        /* \"crowdsale/validation/whitelistCrowdsale.sol\":842:1131  function addToWhitelist(address[] memory addresses) public onlyRole(WHITELIST_ADMIN_ROLE) {... */\n    tag_13:\n      callvalue\n      dup1\n      iszero\n      tag_84\n      jumpi\n      0x00\n      dup1\n      revert\n    tag_84:\n      pop\n      tag_85\n      0x04\n      dup1\n      calldatasize\n      sub\n      dup2\n      add\n      swap1\n      tag_86\n      swap2\n      swap1\n      tag_78\n      jump\t// in\n    tag_86:\n      tag_87\n      jump\t// in\n    tag_85:\n      stop\n        /* \"crowdsale/validation/whitelistCrowdsale.sol\":1139:1289  function removeFromWhitelist(address candidate) public onlyRole(WHITELIST_ADMIN_ROLE)... */\n    tag_14:\n      callvalue\n      dup1\n      iszero\n      tag_88\n      jumpi\n      0x00\n      dup1\n      revert\n    tag_88:\n      pop\n      tag_89\n      0x04\n      dup1\n      calldatasize\n      sub\n      dup2\n      add\n      swap1\n      tag_90\n      swap2\n      swap1\n      tag_91\n      jump\t// in\n    tag_90:\n      tag_92\n      jump\t// in\n    tag_89:\n      stop\n        /* \"@openzeppelin/contracts/access/AccessControl.sol\":3021:3166  function hasRole(bytes32 role, address account) public view virtual override returns (bool) {... */\n    tag_15:\n      callvalue\n      dup1\n      iszero\n      tag_93\n      jumpi\n      0x00\n      dup1\n      revert\n    tag_93:\n      pop\n      tag_94\n      0x04\n      dup1\n      calldatasize\n      sub\n      dup2\n      add\n      swap1\n      tag_95\n      swap2\n      swap1\n      tag_56\n      jump\t// in\n    tag_95:\n      tag_96\n      jump\t// in\n    tag_94:\n      mload(0x40)\n      tag_97\n      swap2\n      swap1\n      tag_40\n      jump\t// in\n    tag_97:\n      mload(0x40)\n      dup1\n      swap2\n      sub\n      swap1\n      return\n        /* \"@openzeppelin/contracts/access/AccessControl.sol\":2153:2202  bytes32 public constant DEFAULT_ADMIN_ROLE = 0x00 */\n    tag_16:\n      callvalue\n      dup1\n      iszero\n      tag_98\n      jumpi\n      0x00\n      dup1\n      revert\n    tag_98:\n      pop\n      tag_99\n      tag_100\n      jump\t// in\n    tag_99:\n      mload(0x40)\n      tag_101\n      swap2\n      swap1\n      tag_47\n      jump\t// in\n    tag_101:\n      mload(0x40)\n      dup1\n      swap2\n      sub\n      swap1\n      return\n        /* \"@openzeppelin/contracts/access/AccessControl.sol\":5354:5501  function revokeRole(bytes32 role, address account) public virtual override onlyRole(getRoleAdmin(role)) {... */\n    tag_17:\n      callvalue\n      dup1\n      iszero\n      tag_102\n      jumpi\n      0x00\n      dup1\n      revert\n    tag_102:\n      pop\n      tag_103\n      0x04\n      dup1\n      calldatasize\n      sub\n      dup2\n      add\n      swap1\n      tag_104\n      swap2\n      swap1\n      tag_56\n      jump\t// in\n    tag_104:\n      tag_105\n      jump\t// in\n    tag_103:\n      stop\n        /* \"crowdsale/validation/whitelistCrowdsale.sol\":690:834  function addToWhitelist(address candidate) public onlyRole(WHITELIST_ADMIN_ROLE)... */\n    tag_18:\n      callvalue\n      dup1\n      iszero\n      tag_106\n      jumpi\n      0x00\n      dup1\n      revert\n    tag_106:\n      pop\n      tag_107\n      0x04\n      dup1\n      calldatasize\n      sub\n      dup2\n      add\n      swap1\n      tag_108\n      swap2\n      swap1\n      tag_91\n      jump\t// in\n    tag_108:\n      tag_109\n      jump\t// in\n    tag_107:\n      stop\n        /* \"crowdsale/crowdsale.sol\":4289:4911  function buyTokens(address beneficiary) public nonReentrant payable {... */\n    tag_19:\n      tag_110\n      0x04\n      dup1\n      calldatasize\n      sub\n      dup2\n      add\n      swap1\n      tag_111\n      swap2\n      swap1\n      tag_91\n      jump\t// in\n    tag_111:\n      tag_29\n      jump\t// in\n    tag_110:\n      stop\n        /* \"crowdsale/crowdsale.sol\":3446:3524  function token() public view returns (IERC20) {... */\n    tag_20:\n      callvalue\n      dup1\n      iszero\n      tag_112\n      jumpi\n      0x00\n      dup1\n      revert\n    tag_112:\n      pop\n      tag_113\n      tag_114\n      jump\t// in\n    tag_113:\n      mload(0x40)\n      tag_115\n      swap2\n      swap1\n      tag_116\n      jump\t// in\n    tag_115:\n      mload(0x40)\n      dup1\n      swap2\n      sub\n      swap1\n      return\n        /* \"@openzeppelin/contracts/utils/Context.sol\":656:752  function _msgSender() internal view virtual returns (address) {... */\n    tag_28:\n        /* \"@openzeppelin/contracts/utils/Context.sol\":709:716  address */\n      0x00\n        /* \"@openzeppelin/contracts/utils/Context.sol\":735:745  msg.sender */\n      caller\n        /* \"@openzeppelin/contracts/utils/Context.sol\":728:745  return msg.sender */\n      swap1\n      pop\n        /* \"@openzeppelin/contracts/utils/Context.sol\":656:752  function _msgSender() internal view virtual returns (address) {... */\n      swap1\n      jump\t// out\n        /* \"crowdsale/crowdsale.sol\":4289:4911  function buyTokens(address beneficiary) public nonReentrant payable {... */\n    tag_29:\n        /* \"@openzeppelin/contracts/security/ReentrancyGuard.sol\":2261:2282  _nonReentrantBefore() */\n      tag_119\n        /* \"@openzeppelin/contracts/security/ReentrancyGuard.sol\":2261:2280  _nonReentrantBefore */\n      tag_120\n        /* \"@openzeppelin/contracts/security/ReentrancyGuard.sol\":2261:2282  _nonReentrantBefore() */\n      jump\t// in\n    tag_119:\n        /* \"crowdsale/crowdsale.sol\":4368:4385  uint256 weiAmount */\n      0x00\n        /* \"crowdsale/crowdsale.sol\":4388:4397  msg.value */\n      callvalue\n        /* \"crowdsale/crowdsale.sol\":4368:4397  uint256 weiAmount = msg.value */\n      swap1\n      pop\n        /* \"crowdsale/crowdsale.sol\":4408:4452  _preValidatePurchase(beneficiary, weiAmount) */\n      tag_122\n        /* \"crowdsale/crowdsale.sol\":4429:4440  beneficiary */\n      dup3\n        /* \"crowdsale/crowdsale.sol\":4442:4451  weiAmount */\n      dup3\n        /* \"crowdsale/crowdsale.sol\":4408:4428  _preValidatePurchase */\n      tag_123\n        /* \"crowdsale/crowdsale.sol\":4408:4452  _preValidatePurchase(beneficiary, weiAmount) */\n      jump\t// in\n    tag_122:\n        /* \"crowdsale/crowdsale.sol\":4514:4528  uint256 tokens */\n      0x00\n        /* \"crowdsale/crowdsale.sol\":4531:4557  _getTokenAmount(weiAmount) */\n      tag_124\n        /* \"crowdsale/crowdsale.sol\":4547:4556  weiAmount */\n      dup3\n        /* \"crowdsale/crowdsale.sol\":4531:4546  _getTokenAmount */\n      tag_125\n        /* \"crowdsale/crowdsale.sol\":4531:4557  _getTokenAmount(weiAmount) */\n      jump\t// in\n    tag_124:\n        /* \"crowdsale/crowdsale.sol\":4514:4557  uint256 tokens = _getTokenAmount(weiAmount) */\n      swap1\n      pop\n        /* \"crowdsale/crowdsale.sol\":4608:4633  _weiRaised.add(weiAmount) */\n      tag_126\n        /* \"crowdsale/crowdsale.sol\":4623:4632  weiAmount */\n      dup3\n        /* \"crowdsale/crowdsale.sol\":4608:4618  _weiRaised */\n      sload(0x04)\n        /* \"crowdsale/crowdsale.sol\":4608:4622  _weiRaised.add */\n      tag_127\n      swap1\n        /* \"crowdsale/crowdsale.sol\":4608:4633  _weiRaised.add(weiAmount) */\n      swap2\n      swap1\n      0xffffffff\n      and\n      jump\t// in\n    tag_126:\n        /* \"crowdsale/crowdsale.sol\":4595:4605  _weiRaised */\n      0x04\n        /* \"crowdsale/crowdsale.sol\":4595:4633  _weiRaised = _weiRaised.add(weiAmount) */\n      dup2\n      swap1\n      sstore\n      pop\n        /* \"crowdsale/crowdsale.sol\":4646:4683  _processPurchase(beneficiary, tokens) */\n      tag_128\n        /* \"crowdsale/crowdsale.sol\":4663:4674  beneficiary */\n      dup4\n        /* \"crowdsale/crowdsale.sol\":4676:4682  tokens */\n      dup3\n        /* \"crowdsale/crowdsale.sol\":4646:4662  _processPurchase */\n      tag_129\n        /* \"crowdsale/crowdsale.sol\":4646:4683  _processPurchase(beneficiary, tokens) */\n      jump\t// in\n    tag_128:\n        /* \"crowdsale/crowdsale.sol\":4729:4740  beneficiary */\n      dup3\n        /* \"crowdsale/crowdsale.sol\":4699:4760  TokensPurchased(_msgSender(), beneficiary, weiAmount, tokens) */\n      0xffffffffffffffffffffffffffffffffffffffff\n      and\n        /* \"crowdsale/crowdsale.sol\":4715:4727  _msgSender() */\n      tag_130\n        /* \"crowdsale/crowdsale.sol\":4715:4725  _msgSender */\n      tag_28\n        /* \"crowdsale/crowdsale.sol\":4715:4727  _msgSender() */\n      jump\t// in\n    tag_130:\n        /* \"crowdsale/crowdsale.sol\":4699:4760  TokensPurchased(_msgSender(), beneficiary, weiAmount, tokens) */\n      0xffffffffffffffffffffffffffffffffffffffff\n      and\n      0x6faf93231a456e552dbc9961f58d9713ee4f2e69d15f1975b050ef0911053a7b\n        /* \"crowdsale/crowdsale.sol\":4742:4751  weiAmount */\n      dup5\n        /* \"crowdsale/crowdsale.sol\":4753:4759  tokens */\n      dup5\n        /* \"crowdsale/crowdsale.sol\":4699:4760  TokensPurchased(_msgSender(), beneficiary, weiAmount, tokens) */\n      mload(0x40)\n      tag_131\n      swap3\n      swap2\n      swap1\n      tag_132\n      jump\t// in\n    tag_131:\n      mload(0x40)\n      dup1\n      swap2\n      sub\n      swap1\n      log3\n        /* \"crowdsale/crowdsale.sol\":4773:4819  _updatePurchasingState(beneficiary, weiAmount) */\n      tag_133\n        /* \"crowdsale/crowdsale.sol\":4796:4807  beneficiary */\n      dup4\n        /* \"crowdsale/crowdsale.sol\":4809:4818  weiAmount */\n      dup4\n        /* \"crowdsale/crowdsale.sol\":4773:4795  _updatePurchasingState */\n      tag_134\n        /* \"crowdsale/crowdsale.sol\":4773:4819  _updatePurchasingState(beneficiary, weiAmount) */\n      jump\t// in\n    tag_133:\n        /* \"crowdsale/crowdsale.sol\":4832:4847  _forwardFunds() */\n      tag_135\n        /* \"crowdsale/crowdsale.sol\":4832:4845  _forwardFunds */\n      tag_136\n        /* \"crowdsale/crowdsale.sol\":4832:4847  _forwardFunds() */\n      jump\t// in\n    tag_135:\n        /* \"crowdsale/crowdsale.sol\":4858:4903  _postValidatePurchase(beneficiary, weiAmount) */\n      tag_137\n        /* \"crowdsale/crowdsale.sol\":4880:4891  beneficiary */\n      dup4\n        /* \"crowdsale/crowdsale.sol\":4893:4902  weiAmount */\n      dup4\n        /* \"crowdsale/crowdsale.sol\":4858:4879  _postValidatePurchase */\n      tag_138\n        /* \"crowdsale/crowdsale.sol\":4858:4903  _postValidatePurchase(beneficiary, weiAmount) */\n      jump\t// in\n    tag_137:\n        /* \"crowdsale/crowdsale.sol\":4357:4911  {... */\n      pop\n      pop\n        /* \"@openzeppelin/contracts/security/ReentrancyGuard.sol\":2303:2323  _nonReentrantAfter() */\n      tag_139\n        /* \"@openzeppelin/contracts/security/ReentrancyGuard.sol\":2303:2321  _nonReentrantAfter */\n      tag_140\n        /* \"@openzeppelin/contracts/security/ReentrancyGuard.sol\":2303:2323  _nonReentrantAfter() */\n      jump\t// in\n    tag_139:\n        /* \"crowdsale/crowdsale.sol\":4289:4911  function buyTokens(address beneficiary) public nonReentrant payable {... */\n      pop\n      jump\t// out\n        /* \"@openzeppelin/contracts/access/AccessControl.sol\":2732:2934  function supportsInterface(bytes4 interfaceId) public view virtual override returns (bool) {... */\n    tag_38:\n        /* \"@openzeppelin/contracts/access/AccessControl.sol\":2817:2821  bool */\n      0x00\n        /* \"@openzeppelin/contracts/access/AccessControl.sol\":2855:2887  type(IAccessControl).interfaceId */\n      0x7965db0b00000000000000000000000000000000000000000000000000000000\n        /* \"@openzeppelin/contracts/access/AccessControl.sol\":2840:2887  interfaceId == type(IAccessControl).interfaceId */\n      not(0xffffffffffffffffffffffffffffffffffffffffffffffffffffffff)\n      and\n        /* \"@openzeppelin/contracts/access/AccessControl.sol\":2840:2851  interfaceId */\n      dup3\n        /* \"@openzeppelin/contracts/access/AccessControl.sol\":2840:2887  interfaceId == type(IAccessControl).interfaceId */\n      not(0xffffffffffffffffffffffffffffffffffffffffffffffffffffffff)\n      and\n      eq\n        /* \"@openzeppelin/contracts/access/AccessControl.sol\":2840:2927  interfaceId == type(IAccessControl).interfaceId || super.supportsInterface(interfaceId) */\n      dup1\n      tag_142\n      jumpi\n      pop\n        /* \"@openzeppelin/contracts/access/AccessControl.sol\":2891:2927  super.supportsInterface(interfaceId) */\n      tag_143\n        /* \"@openzeppelin/contracts/access/AccessControl.sol\":2915:2926  interfaceId */\n      dup3\n        /* \"@openzeppelin/contracts/access/AccessControl.sol\":2891:2914  super.supportsInterface */\n      tag_144\n        /* \"@openzeppelin/contracts/access/AccessControl.sol\":2891:2927  super.supportsInterface(interfaceId) */\n      jump\t// in\n    tag_143:\n        /* \"@openzeppelin/contracts/access/AccessControl.sol\":2840:2927  interfaceId == type(IAccessControl).interfaceId || super.supportsInterface(interfaceId) */\n    tag_142:\n        /* \"@openzeppelin/contracts/access/AccessControl.sol\":2833:2927  return interfaceId == type(IAccessControl).interfaceId || super.supportsInterface(interfaceId) */\n      swap1\n      pop\n        /* \"@openzeppelin/contracts/access/AccessControl.sol\":2732:2934  function supportsInterface(bytes4 interfaceId) public view virtual override returns (bool) {... */\n      swap2\n      swap1\n      pop\n      jump\t// out\n        /* \"@openzeppelin/contracts/access/AccessControl.sol\":4504:4633  function getRoleAdmin(bytes32 role) public view virtual override returns (bytes32) {... */\n    tag_45:\n        /* \"@openzeppelin/contracts/access/AccessControl.sol\":4578:4585  bytes32 */\n      0x00\n        /* \"@openzeppelin/contracts/access/AccessControl.sol\":4604:4610  _roles */\n      0x05\n        /* \"@openzeppelin/contracts/access/AccessControl.sol\":4604:4616  _roles[role] */\n      0x00\n        /* \"@openzeppelin/contracts/access/AccessControl.sol\":4611:4615  role */\n      dup4\n        /* \"@openzeppelin/contracts/access/AccessControl.sol\":4604:4616  _roles[role] */\n      dup2\n      mstore\n      0x20\n      add\n      swap1\n      dup2\n      mstore\n      0x20\n      add\n      0x00\n      keccak256\n        /* \"@openzeppelin/contracts/access/AccessControl.sol\":4604:4626  _roles[role].adminRole */\n      0x01\n      add\n      sload\n        /* \"@openzeppelin/contracts/access/AccessControl.sol\":4597:4626  return _roles[role].adminRole */\n      swap1\n      pop\n        /* \"@openzeppelin/contracts/access/AccessControl.sol\":4504:4633  function getRoleAdmin(bytes32 role) public view virtual override returns (bytes32) {... */\n      swap2\n      swap1\n      pop\n      jump\t// out\n        /* \"crowdsale/crowdsale.sol\":3784:3869  function rate() public virtual view returns (uint256) {... */\n    tag_50:\n        /* \"crowdsale/crowdsale.sol\":3829:3836  uint256 */\n      0x00\n        /* \"crowdsale/crowdsale.sol\":3856:3861  _rate */\n      sload(0x03)\n        /* \"crowdsale/crowdsale.sol\":3849:3861  return _rate */\n      swap1\n      pop\n        /* \"crowdsale/crowdsale.sol\":3784:3869  function rate() public virtual view returns (uint256) {... */\n      swap1\n      jump\t// out\n        /* \"@openzeppelin/contracts/access/AccessControl.sol\":4929:5074  function grantRole(bytes32 role, address account) public virtual override onlyRole(getRoleAdmin(role)) {... */\n    tag_57:\n        /* \"@openzeppelin/contracts/access/AccessControl.sol\":5012:5030  getRoleAdmin(role) */\n      tag_147\n        /* \"@openzeppelin/contracts/access/AccessControl.sol\":5025:5029  role */\n      dup3\n        /* \"@openzeppelin/contracts/access/AccessControl.sol\":5012:5024  getRoleAdmin */\n      tag_45\n        /* \"@openzeppelin/contracts/access/AccessControl.sol\":5012:5030  getRoleAdmin(role) */\n      jump\t// in\n    tag_147:\n        /* \"@openzeppelin/contracts/access/AccessControl.sol\":2631:2647  _checkRole(role) */\n      tag_149\n        /* \"@openzeppelin/contracts/access/AccessControl.sol\":2642:2646  role */\n      dup2\n        /* \"@openzeppelin/contracts/access/AccessControl.sol\":2631:2641  _checkRole */\n      tag_150\n        /* \"@openzeppelin/contracts/access/AccessControl.sol\":2631:2647  _checkRole(role) */\n      jump\t// in\n    tag_149:\n        /* \"@openzeppelin/contracts/access/AccessControl.sol\":5042:5067  _grantRole(role, account) */\n      tag_152\n        /* \"@openzeppelin/contracts/access/AccessControl.sol\":5053:5057  role */\n      dup4\n        /* \"@openzeppelin/contracts/access/AccessControl.sol\":5059:5066  account */\n      dup4\n        /* \"@openzeppelin/contracts/access/AccessControl.sol\":5042:5052  _grantRole */\n      tag_153\n        /* \"@openzeppelin/contracts/access/AccessControl.sol\":5042:5067  _grantRole(role, account) */\n      jump\t// in\n    tag_152:\n        /* \"@openzeppelin/contracts/access/AccessControl.sol\":4929:5074  function grantRole(bytes32 role, address account) public virtual override onlyRole(getRoleAdmin(role)) {... */\n      pop\n      pop\n      pop\n      jump\t// out\n        /* \"@openzeppelin/contracts/access/AccessControl.sol\":6038:6252  function renounceRole(bytes32 role, address account) public virtual override {... */\n    tag_61:\n        /* \"@openzeppelin/contracts/access/AccessControl.sol\":6144:6156  _msgSender() */\n      tag_155\n        /* \"@openzeppelin/contracts/access/AccessControl.sol\":6144:6154  _msgSender */\n      tag_28\n        /* \"@openzeppelin/contracts/access/AccessControl.sol\":6144:6156  _msgSender() */\n      jump\t// in\n    tag_155:\n        /* \"@openzeppelin/contracts/access/AccessControl.sol\":6133:6156  account == _msgSender() */\n      0xffffffffffffffffffffffffffffffffffffffff\n      and\n        /* \"@openzeppelin/contracts/access/AccessControl.sol\":6133:6140  account */\n      dup2\n        /* \"@openzeppelin/contracts/access/AccessControl.sol\":6133:6156  account == _msgSender() */\n      0xffffffffffffffffffffffffffffffffffffffff\n      and\n      eq\n        /* \"@openzeppelin/contracts/access/AccessControl.sol\":6125:6208  require(account == _msgSender(), \"AccessControl: can only renounce roles for self\") */\n      tag_156\n      jumpi\n      mload(0x40)\n      0x08c379a000000000000000000000000000000000000000000000000000000000\n      dup2\n      mstore\n      0x04\n      add\n      tag_157\n      swap1\n      tag_158\n      jump\t// in\n    tag_157:\n      mload(0x40)\n      dup1\n      swap2\n      sub\n      swap1\n      revert\n    tag_156:\n        /* \"@openzeppelin/contracts/access/AccessControl.sol\":6219:6245  _revokeRole(role, account) */\n      tag_159\n        /* \"@openzeppelin/contracts/access/AccessControl.sol\":6231:6235  role */\n      dup3\n        /* \"@openzeppelin/contracts/access/AccessControl.sol\":6237:6244  account */\n      dup3\n        /* \"@openzeppelin/contracts/access/AccessControl.sol\":6219:6230  _revokeRole */\n      tag_160\n        /* \"@openzeppelin/contracts/access/AccessControl.sol\":6219:6245  _revokeRole(role, account) */\n      jump\t// in\n    tag_159:\n        /* \"@openzeppelin/contracts/access/AccessControl.sol\":6038:6252  function renounceRole(bytes32 role, address account) public virtual override {... */\n      pop\n      pop\n      jump\t// out\n        /* \"crowdsale/crowdsale.sol\":3937:4024  function weiRaised() public view returns (uint256) {... */\n    tag_64:\n        /* \"crowdsale/crowdsale.sol\":3979:3986  uint256 */\n      0x00\n        /* \"crowdsale/crowdsale.sol\":4006:4016  _weiRaised */\n      sload(0x04)\n        /* \"crowdsale/crowdsale.sol\":3999:4016  return _weiRaised */\n      swap1\n      pop\n        /* \"crowdsale/crowdsale.sol\":3937:4024  function weiRaised() public view returns (uint256) {... */\n      swap1\n      jump\t// out\n        /* \"crowdsale/crowdsale.sol\":3605:3694  function wallet() public view returns (address payable) {... */\n    tag_68:\n        /* \"crowdsale/crowdsale.sol\":3644:3659  address payable */\n      0x00\n        /* \"crowdsale/crowdsale.sol\":3679:3686  _wallet */\n      0x02\n      0x00\n      swap1\n      sload\n      swap1\n      0x0100\n      exp\n      swap1\n      div\n      0xffffffffffffffffffffffffffffffffffffffff\n      and\n        /* \"crowdsale/crowdsale.sol\":3672:3686  return _wallet */\n      swap1\n      pop\n        /* \"crowdsale/crowdsale.sol\":3605:3694  function wallet() public view returns (address payable) {... */\n      swap1\n      jump\t// out\n        /* \"crowdsale/validation/whitelistCrowdsale.sol\":408:488  bytes32 public constant WHITELIST_ADMIN_ROLE = keccak256(\"WHITELIST_ADMIN_ROLE\") */\n    tag_73:\n        /* \"crowdsale/validation/whitelistCrowdsale.sol\":455:488  keccak256(\"WHITELIST_ADMIN_ROLE\") */\n      0x28f5a99355973cc89255b8c4ac88405f27c78ded7608b040ee77a8bdf44d15e2\n        /* \"crowdsale/validation/whitelistCrowdsale.sol\":408:488  bytes32 public constant WHITELIST_ADMIN_ROLE = keccak256(\"WHITELIST_ADMIN_ROLE\") */\n      dup2\n      jump\t// out\n        /* \"crowdsale/validation/whitelistCrowdsale.sol\":1301:1596  function removeFromWhitelist(address[] memory addresses) public onlyRole(WHITELIST_ADMIN_ROLE) {... */\n    tag_79:\n        /* \"crowdsale/validation/whitelistCrowdsale.sol\":455:488  keccak256(\"WHITELIST_ADMIN_ROLE\") */\n      0x28f5a99355973cc89255b8c4ac88405f27c78ded7608b040ee77a8bdf44d15e2\n        /* \"@openzeppelin/contracts/access/AccessControl.sol\":2631:2647  _checkRole(role) */\n      tag_164\n        /* \"@openzeppelin/contracts/access/AccessControl.sol\":2642:2646  role */\n      dup2\n        /* \"@openzeppelin/contracts/access/AccessControl.sol\":2631:2641  _checkRole */\n      tag_150\n        /* \"@openzeppelin/contracts/access/AccessControl.sol\":2631:2647  _checkRole(role) */\n      jump\t// in\n    tag_164:\n        /* \"crowdsale/validation/whitelistCrowdsale.sol\":1412:1418  uint i */\n      0x00\n        /* \"crowdsale/validation/whitelistCrowdsale.sol\":1407:1589  for (uint i = 0; i < addresses.length; i++) {... */\n    tag_166:\n        /* \"crowdsale/validation/whitelistCrowdsale.sol\":1428:1437  addresses */\n      dup3\n        /* \"crowdsale/validation/whitelistCrowdsale.sol\":1428:1444  addresses.length */\n      mload\n        /* \"crowdsale/validation/whitelistCrowdsale.sol\":1424:1425  i */\n      dup2\n        /* \"crowdsale/validation/whitelistCrowdsale.sol\":1424:1444  i < addresses.length */\n      lt\n        /* \"crowdsale/validation/whitelistCrowdsale.sol\":1407:1589  for (uint i = 0; i < addresses.length; i++) {... */\n      iszero\n      tag_167\n      jumpi\n        /* \"crowdsale/validation/whitelistCrowdsale.sol\":1534:1577  _revokeRole(WHITELISTED_ROLE, addresses[i]) */\n      tag_169\n        /* \"crowdsale/validation/whitelistCrowdsale.sol\":372:401  keccak256(\"WHITELISTED_ROLE\") */\n      0x8429d542926e6695b59ac6fbdcd9b37e8b1aeb757afab06ab60b1bb5878c3b49\n        /* \"crowdsale/validation/whitelistCrowdsale.sol\":1564:1573  addresses */\n      dup5\n        /* \"crowdsale/validation/whitelistCrowdsale.sol\":1574:1575  i */\n      dup4\n        /* \"crowdsale/validation/whitelistCrowdsale.sol\":1564:1576  addresses[i] */\n      dup2\n      mload\n      dup2\n      lt\n      tag_170\n      jumpi\n      tag_171\n      tag_172\n      jump\t// in\n    tag_171:\n    tag_170:\n      0x20\n      mul\n      0x20\n      add\n      add\n      mload\n        /* \"crowdsale/validation/whitelistCrowdsale.sol\":1534:1545  _revokeRole */\n      tag_160\n        /* \"crowdsale/validation/whitelistCrowdsale.sol\":1534:1577  _revokeRole(WHITELISTED_ROLE, addresses[i]) */\n      jump\t// in\n    tag_169:\n        /* \"crowdsale/validation/whitelistCrowdsale.sol\":1446:1449  i++ */\n      dup1\n      dup1\n      tag_173\n      swap1\n      tag_174\n      jump\t// in\n    tag_173:\n      swap2\n      pop\n      pop\n        /* \"crowdsale/validation/whitelistCrowdsale.sol\":1407:1589  for (uint i = 0; i < addresses.length; i++) {... */\n      jump(tag_166)\n    tag_167:\n      pop\n        /* \"crowdsale/validation/whitelistCrowdsale.sol\":1301:1596  function removeFromWhitelist(address[] memory addresses) public onlyRole(WHITELIST_ADMIN_ROLE) {... */\n      pop\n      pop\n      jump\t// out\n        /* \"crowdsale/validation/whitelistCrowdsale.sol\":329:401  bytes32 public constant WHITELISTED_ROLE = keccak256(\"WHITELISTED_ROLE\") */\n    tag_82:\n        /* \"crowdsale/validation/whitelistCrowdsale.sol\":372:401  keccak256(\"WHITELISTED_ROLE\") */\n      0x8429d542926e6695b59ac6fbdcd9b37e8b1aeb757afab06ab60b1bb5878c3b49\n        /* \"crowdsale/validation/whitelistCrowdsale.sol\":329:401  bytes32 public constant WHITELISTED_ROLE = keccak256(\"WHITELISTED_ROLE\") */\n      dup2\n      jump\t// out\n        /* \"crowdsale/validation/whitelistCrowdsale.sol\":842:1131  function addToWhitelist(address[] memory addresses) public onlyRole(WHITELIST_ADMIN_ROLE) {... */\n    tag_87:\n        /* \"crowdsale/validation/whitelistCrowdsale.sol\":455:488  keccak256(\"WHITELIST_ADMIN_ROLE\") */\n      0x28f5a99355973cc89255b8c4ac88405f27c78ded7608b040ee77a8bdf44d15e2\n        /* \"@openzeppelin/contracts/access/AccessControl.sol\":2631:2647  _checkRole(role) */\n      tag_176\n        /* \"@openzeppelin/contracts/access/AccessControl.sol\":2642:2646  role */\n      dup2\n        /* \"@openzeppelin/contracts/access/AccessControl.sol\":2631:2641  _checkRole */\n      tag_150\n        /* \"@openzeppelin/contracts/access/AccessControl.sol\":2631:2647  _checkRole(role) */\n      jump\t// in\n    tag_176:\n        /* \"crowdsale/validation/whitelistCrowdsale.sol\":948:954  uint i */\n      0x00\n        /* \"crowdsale/validation/whitelistCrowdsale.sol\":943:1124  for (uint i = 0; i < addresses.length; i++) {... */\n    tag_178:\n        /* \"crowdsale/validation/whitelistCrowdsale.sol\":964:973  addresses */\n      dup3\n        /* \"crowdsale/validation/whitelistCrowdsale.sol\":964:980  addresses.length */\n      mload\n        /* \"crowdsale/validation/whitelistCrowdsale.sol\":960:961  i */\n      dup2\n        /* \"crowdsale/validation/whitelistCrowdsale.sol\":960:980  i < addresses.length */\n      lt\n        /* \"crowdsale/validation/whitelistCrowdsale.sol\":943:1124  for (uint i = 0; i < addresses.length; i++) {... */\n      iszero\n      tag_179\n      jumpi\n        /* \"crowdsale/validation/whitelistCrowdsale.sol\":1070:1112  _grantRole(WHITELISTED_ROLE, addresses[i]) */\n      tag_181\n        /* \"crowdsale/validation/whitelistCrowdsale.sol\":372:401  keccak256(\"WHITELISTED_ROLE\") */\n      0x8429d542926e6695b59ac6fbdcd9b37e8b1aeb757afab06ab60b1bb5878c3b49\n        /* \"crowdsale/validation/whitelistCrowdsale.sol\":1099:1108  addresses */\n      dup5\n        /* \"crowdsale/validation/whitelistCrowdsale.sol\":1109:1110  i */\n      dup4\n        /* \"crowdsale/validation/whitelistCrowdsale.sol\":1099:1111  addresses[i] */\n      dup2\n      mload\n      dup2\n      lt\n      tag_182\n      jumpi\n      tag_183\n      tag_172\n      jump\t// in\n    tag_183:\n    tag_182:\n      0x20\n      mul\n      0x20\n      add\n      add\n      mload\n        /* \"crowdsale/validation/whitelistCrowdsale.sol\":1070:1080  _grantRole */\n      tag_153\n        /* \"crowdsale/validation/whitelistCrowdsale.sol\":1070:1112  _grantRole(WHITELISTED_ROLE, addresses[i]) */\n      jump\t// in\n    tag_181:\n        /* \"crowdsale/validation/whitelistCrowdsale.sol\":982:985  i++ */\n      dup1\n      dup1\n      tag_184\n      swap1\n      tag_174\n      jump\t// in\n    tag_184:\n      swap2\n      pop\n      pop\n        /* \"crowdsale/validation/whitelistCrowdsale.sol\":943:1124  for (uint i = 0; i < addresses.length; i++) {... */\n      jump(tag_178)\n    tag_179:\n      pop\n        /* \"crowdsale/validation/whitelistCrowdsale.sol\":842:1131  function addToWhitelist(address[] memory addresses) public onlyRole(WHITELIST_ADMIN_ROLE) {... */\n      pop\n      pop\n      jump\t// out\n        /* \"crowdsale/validation/whitelistCrowdsale.sol\":1139:1289  function removeFromWhitelist(address candidate) public onlyRole(WHITELIST_ADMIN_ROLE)... */\n    tag_92:\n        /* \"crowdsale/validation/whitelistCrowdsale.sol\":455:488  keccak256(\"WHITELIST_ADMIN_ROLE\") */\n      0x28f5a99355973cc89255b8c4ac88405f27c78ded7608b040ee77a8bdf44d15e2\n        /* \"@openzeppelin/contracts/access/AccessControl.sol\":2631:2647  _checkRole(role) */\n      tag_186\n        /* \"@openzeppelin/contracts/access/AccessControl.sol\":2642:2646  role */\n      dup2\n        /* \"@openzeppelin/contracts/access/AccessControl.sol\":2631:2641  _checkRole */\n      tag_150\n        /* \"@openzeppelin/contracts/access/AccessControl.sol\":2631:2647  _checkRole(role) */\n      jump\t// in\n    tag_186:\n        /* \"crowdsale/validation/whitelistCrowdsale.sol\":1241:1281  _revokeRole(WHITELISTED_ROLE, candidate) */\n      tag_188\n        /* \"crowdsale/validation/whitelistCrowdsale.sol\":372:401  keccak256(\"WHITELISTED_ROLE\") */\n      0x8429d542926e6695b59ac6fbdcd9b37e8b1aeb757afab06ab60b1bb5878c3b49\n        /* \"crowdsale/validation/whitelistCrowdsale.sol\":1271:1280  candidate */\n      dup4\n        /* \"crowdsale/validation/whitelistCrowdsale.sol\":1241:1252  _revokeRole */\n      tag_160\n        /* \"crowdsale/validation/whitelistCrowdsale.sol\":1241:1281  _revokeRole(WHITELISTED_ROLE, candidate) */\n      jump\t// in\n    tag_188:\n        /* \"crowdsale/validation/whitelistCrowdsale.sol\":1139:1289  function removeFromWhitelist(address candidate) public onlyRole(WHITELIST_ADMIN_ROLE)... */\n      pop\n      pop\n      jump\t// out\n        /* \"@openzeppelin/contracts/access/AccessControl.sol\":3021:3166  function hasRole(bytes32 role, address account) public view virtual override returns (bool) {... */\n    tag_96:\n        /* \"@openzeppelin/contracts/access/AccessControl.sol\":3107:3111  bool */\n      0x00\n        /* \"@openzeppelin/contracts/access/AccessControl.sol\":3130:3136  _roles */\n      0x05\n        /* \"@openzeppelin/contracts/access/AccessControl.sol\":3130:3142  _roles[role] */\n      0x00\n        /* \"@openzeppelin/contracts/access/AccessControl.sol\":3137:3141  role */\n      dup5\n        /* \"@openzeppelin/contracts/access/AccessControl.sol\":3130:3142  _roles[role] */\n      dup2\n      mstore\n      0x20\n      add\n      swap1\n      dup2\n      mstore\n      0x20\n      add\n      0x00\n      keccak256\n        /* \"@openzeppelin/contracts/access/AccessControl.sol\":3130:3150  _roles[role].members */\n      0x00\n      add\n        /* \"@openzeppelin/contracts/access/AccessControl.sol\":3130:3159  _roles[role].members[account] */\n      0x00\n        /* \"@openzeppelin/contracts/access/AccessControl.sol\":3151:3158  account */\n      dup4\n        /* \"@openzeppelin/contracts/access/AccessControl.sol\":3130:3159  _roles[role].members[account] */\n      0xffffffffffffffffffffffffffffffffffffffff\n      and\n      0xffffffffffffffffffffffffffffffffffffffff\n      and\n      dup2\n      mstore\n      0x20\n      add\n      swap1\n      dup2\n      mstore\n      0x20\n      add\n      0x00\n      keccak256\n      0x00\n      swap1\n      sload\n      swap1\n      0x0100\n      exp\n      swap1\n      div\n      0xff\n      and\n        /* \"@openzeppelin/contracts/access/AccessControl.sol\":3123:3159  return _roles[role].members[account] */\n      swap1\n      pop\n        /* \"@openzeppelin/contracts/access/AccessControl.sol\":3021:3166  function hasRole(bytes32 role, address account) public view virtual override returns (bool) {... */\n      swap3\n      swap2\n      pop\n      pop\n      jump\t// out\n        /* \"@openzeppelin/contracts/access/AccessControl.sol\":2153:2202  bytes32 public constant DEFAULT_ADMIN_ROLE = 0x00 */\n    tag_100:\n        /* \"@openzeppelin/contracts/access/AccessControl.sol\":2198:2202  0x00 */\n      0x00\n        /* \"@openzeppelin/contracts/access/AccessControl.sol\":2153:2202  bytes32 public constant DEFAULT_ADMIN_ROLE = 0x00 */\n      dup1\n      shl\n      dup2\n      jump\t// out\n        /* \"@openzeppelin/contracts/access/AccessControl.sol\":5354:5501  function revokeRole(bytes32 role, address account) public virtual override onlyRole(getRoleAdmin(role)) {... */\n    tag_105:\n        /* \"@openzeppelin/contracts/access/AccessControl.sol\":5438:5456  getRoleAdmin(role) */\n      tag_190\n        /* \"@openzeppelin/contracts/access/AccessControl.sol\":5451:5455  role */\n      dup3\n        /* \"@openzeppelin/contracts/access/AccessControl.sol\":5438:5450  getRoleAdmin */\n      tag_45\n        /* \"@openzeppelin/contracts/access/AccessControl.sol\":5438:5456  getRoleAdmin(role) */\n      jump\t// in\n    tag_190:\n        /* \"@openzeppelin/contracts/access/AccessControl.sol\":2631:2647  _checkRole(role) */\n      tag_192\n        /* \"@openzeppelin/contracts/access/AccessControl.sol\":2642:2646  role */\n      dup2\n        /* \"@openzeppelin/contracts/access/AccessControl.sol\":2631:2641  _checkRole */\n      tag_150\n        /* \"@openzeppelin/contracts/access/AccessControl.sol\":2631:2647  _checkRole(role) */\n      jump\t// in\n    tag_192:\n        /* \"@openzeppelin/contracts/access/AccessControl.sol\":5468:5494  _revokeRole(role, account) */\n      tag_194\n        /* \"@openzeppelin/contracts/access/AccessControl.sol\":5480:5484  role */\n      dup4\n        /* \"@openzeppelin/contracts/access/AccessControl.sol\":5486:5493  account */\n      dup4\n        /* \"@openzeppelin/contracts/access/AccessControl.sol\":5468:5479  _revokeRole */\n      tag_160\n        /* \"@openzeppelin/contracts/access/AccessControl.sol\":5468:5494  _revokeRole(role, account) */\n      jump\t// in\n    tag_194:\n        /* \"@openzeppelin/contracts/access/AccessControl.sol\":5354:5501  function revokeRole(bytes32 role, address account) public virtual override onlyRole(getRoleAdmin(role)) {... */\n      pop\n      pop\n      pop\n      jump\t// out\n        /* \"crowdsale/validation/whitelistCrowdsale.sol\":690:834  function addToWhitelist(address candidate) public onlyRole(WHITELIST_ADMIN_ROLE)... */\n    tag_109:\n        /* \"crowdsale/validation/whitelistCrowdsale.sol\":455:488  keccak256(\"WHITELIST_ADMIN_ROLE\") */\n      0x28f5a99355973cc89255b8c4ac88405f27c78ded7608b040ee77a8bdf44d15e2\n        /* \"@openzeppelin/contracts/access/AccessControl.sol\":2631:2647  _checkRole(role) */\n      tag_196\n        /* \"@openzeppelin/contracts/access/AccessControl.sol\":2642:2646  role */\n      dup2\n        /* \"@openzeppelin/contracts/access/AccessControl.sol\":2631:2641  _checkRole */\n      tag_150\n        /* \"@openzeppelin/contracts/access/AccessControl.sol\":2631:2647  _checkRole(role) */\n      jump\t// in\n    tag_196:\n        /* \"crowdsale/validation/whitelistCrowdsale.sol\":787:826  _grantRole(WHITELISTED_ROLE, candidate) */\n      tag_198\n        /* \"crowdsale/validation/whitelistCrowdsale.sol\":372:401  keccak256(\"WHITELISTED_ROLE\") */\n      0x8429d542926e6695b59ac6fbdcd9b37e8b1aeb757afab06ab60b1bb5878c3b49\n        /* \"crowdsale/validation/whitelistCrowdsale.sol\":816:825  candidate */\n      dup4\n        /* \"crowdsale/validation/whitelistCrowdsale.sol\":787:797  _grantRole */\n      tag_153\n        /* \"crowdsale/validation/whitelistCrowdsale.sol\":787:826  _grantRole(WHITELISTED_ROLE, candidate) */\n      jump\t// in\n    tag_198:\n        /* \"crowdsale/validation/whitelistCrowdsale.sol\":690:834  function addToWhitelist(address candidate) public onlyRole(WHITELIST_ADMIN_ROLE)... */\n      pop\n      pop\n      jump\t// out\n        /* \"crowdsale/crowdsale.sol\":3446:3524  function token() public view returns (IERC20) {... */\n    tag_114:\n        /* \"crowdsale/crowdsale.sol\":3484:3490  IERC20 */\n      0x00\n        /* \"crowdsale/crowdsale.sol\":3510:3516  _token */\n      0x01\n      0x00\n      swap1\n      sload\n      swap1\n      0x0100\n      exp\n      swap1\n      div\n      0xffffffffffffffffffffffffffffffffffffffff\n      and\n        /* \"crowdsale/crowdsale.sol\":3503:3516  return _token */\n      swap1\n      pop\n        /* \"crowdsale/crowdsale.sol\":3446:3524  function token() public view returns (IERC20) {... */\n      swap1\n      jump\t// out\n        /* \"@openzeppelin/contracts/security/ReentrancyGuard.sol\":2336:2623  function _nonReentrantBefore() private {... */\n    tag_120:\n        /* \"@openzeppelin/contracts/security/ReentrancyGuard.sol\":1759:1760  2 */\n      0x02\n        /* \"@openzeppelin/contracts/security/ReentrancyGuard.sol\":2468:2475  _status */\n      sload(0x00)\n        /* \"@openzeppelin/contracts/security/ReentrancyGuard.sol\":2468:2487  _status != _ENTERED */\n      sub\n        /* \"@openzeppelin/contracts/security/ReentrancyGuard.sol\":2460:2523  require(_status != _ENTERED, \"ReentrancyGuard: reentrant call\") */\n      tag_201\n      jumpi\n      mload(0x40)\n      0x08c379a000000000000000000000000000000000000000000000000000000000\n      dup2\n      mstore\n      0x04\n      add\n      tag_202\n      swap1\n      tag_203\n      jump\t// in\n    tag_202:\n      mload(0x40)\n      dup1\n      swap2\n      sub\n      swap1\n      revert\n    tag_201:\n        /* \"@openzeppelin/contracts/security/ReentrancyGuard.sol\":1759:1760  2 */\n      0x02\n        /* \"@openzeppelin/contracts/security/ReentrancyGuard.sol\":2598:2605  _status */\n      0x00\n        /* \"@openzeppelin/contracts/security/ReentrancyGuard.sol\":2598:2616  _status = _ENTERED */\n      dup2\n      swap1\n      sstore\n      pop\n        /* \"@openzeppelin/contracts/security/ReentrancyGuard.sol\":2336:2623  function _nonReentrantBefore() private {... */\n      jump\t// out\n        /* \"crowdsale/validation/whitelistCrowdsale.sol\":1881:2175  function _preValidatePurchase(address _beneficiary, uint256 _weiAmount) internal override view {... */\n    tag_123:\n        /* \"crowdsale/validation/whitelistCrowdsale.sol\":1995:2034  hasRole(WHITELISTED_ROLE, _beneficiary) */\n      tag_205\n        /* \"crowdsale/validation/whitelistCrowdsale.sol\":372:401  keccak256(\"WHITELISTED_ROLE\") */\n      0x8429d542926e6695b59ac6fbdcd9b37e8b1aeb757afab06ab60b1bb5878c3b49\n        /* \"crowdsale/validation/whitelistCrowdsale.sol\":2021:2033  _beneficiary */\n      dup4\n        /* \"crowdsale/validation/whitelistCrowdsale.sol\":1995:2002  hasRole */\n      tag_96\n        /* \"crowdsale/validation/whitelistCrowdsale.sol\":1995:2034  hasRole(WHITELISTED_ROLE, _beneficiary) */\n      jump\t// in\n    tag_205:\n        /* \"crowdsale/validation/whitelistCrowdsale.sol\":1987:2104  require(hasRole(WHITELISTED_ROLE, _beneficiary), \"WhitelistCrowdsale: beneficiary doesn't have the Whitelisted role\") */\n      tag_206\n      jumpi\n      mload(0x40)\n      0x08c379a000000000000000000000000000000000000000000000000000000000\n      dup2\n      mstore\n      0x04\n      add\n      tag_207\n      swap1\n      tag_208\n      jump\t// in\n    tag_207:\n      mload(0x40)\n      dup1\n      swap2\n      sub\n      swap1\n      revert\n    tag_206:\n        /* \"crowdsale/validation/whitelistCrowdsale.sol\":2115:2167  super._preValidatePurchase(_beneficiary, _weiAmount) */\n      tag_209\n        /* \"crowdsale/validation/whitelistCrowdsale.sol\":2142:2154  _beneficiary */\n      dup3\n        /* \"crowdsale/validation/whitelistCrowdsale.sol\":2156:2166  _weiAmount */\n      dup3\n        /* \"crowdsale/validation/whitelistCrowdsale.sol\":2115:2141  super._preValidatePurchase */\n      tag_210\n        /* \"crowdsale/validation/whitelistCrowdsale.sol\":2115:2167  super._preValidatePurchase(_beneficiary, _weiAmount) */\n      jump\t// in\n    tag_209:\n        /* \"crowdsale/validation/whitelistCrowdsale.sol\":1881:2175  function _preValidatePurchase(address _beneficiary, uint256 _weiAmount) internal override view {... */\n      pop\n      pop\n      jump\t// out\n        /* \"crowdsale/crowdsale.sol\":7856:7986  function _getTokenAmount(uint256 weiAmount) internal virtual view returns (uint256) {... */\n    tag_125:\n        /* \"crowdsale/crowdsale.sol\":7931:7938  uint256 */\n      0x00\n        /* \"crowdsale/crowdsale.sol\":7958:7978  weiAmount.mul(_rate) */\n      tag_212\n        /* \"crowdsale/crowdsale.sol\":7972:7977  _rate */\n      sload(0x03)\n        /* \"crowdsale/crowdsale.sol\":7958:7967  weiAmount */\n      dup4\n        /* \"crowdsale/crowdsale.sol\":7958:7971  weiAmount.mul */\n      tag_213\n      swap1\n        /* \"crowdsale/crowdsale.sol\":7958:7978  weiAmount.mul(_rate) */\n      swap2\n      swap1\n      0xffffffff\n      and\n      jump\t// in\n    tag_212:\n        /* \"crowdsale/crowdsale.sol\":7951:7978  return weiAmount.mul(_rate) */\n      swap1\n      pop\n        /* \"crowdsale/crowdsale.sol\":7856:7986  function _getTokenAmount(uint256 weiAmount) internal virtual view returns (uint256) {... */\n      swap2\n      swap1\n      pop\n      jump\t// out\n        /* \"@openzeppelin/contracts/utils/math/SafeMath.sol\":2755:2851  function add(uint256 a, uint256 b) internal pure returns (uint256) {... */\n    tag_127:\n        /* \"@openzeppelin/contracts/utils/math/SafeMath.sol\":2813:2820  uint256 */\n      0x00\n        /* \"@openzeppelin/contracts/utils/math/SafeMath.sol\":2843:2844  b */\n      dup2\n        /* \"@openzeppelin/contracts/utils/math/SafeMath.sol\":2839:2840  a */\n      dup4\n        /* \"@openzeppelin/contracts/utils/math/SafeMath.sol\":2839:2844  a + b */\n      tag_215\n      swap2\n      swap1\n      tag_216\n      jump\t// in\n    tag_215:\n        /* \"@openzeppelin/contracts/utils/math/SafeMath.sol\":2832:2844  return a + b */\n      swap1\n      pop\n        /* \"@openzeppelin/contracts/utils/math/SafeMath.sol\":2755:2851  function add(uint256 a, uint256 b) internal pure returns (uint256) {... */\n      swap3\n      swap2\n      pop\n      pop\n      jump\t// out\n        /* \"crowdsale/crowdsale.sol\":7023:7167  function _processPurchase(address beneficiary, uint256 tokenAmount) internal virtual {... */\n    tag_129:\n        /* \"crowdsale/crowdsale.sol\":7119:7159  _deliverTokens(beneficiary, tokenAmount) */\n      tag_218\n        /* \"crowdsale/crowdsale.sol\":7134:7145  beneficiary */\n      dup3\n        /* \"crowdsale/crowdsale.sol\":7147:7158  tokenAmount */\n      dup3\n        /* \"crowdsale/crowdsale.sol\":7119:7133  _deliverTokens */\n      tag_219\n        /* \"crowdsale/crowdsale.sol\":7119:7159  _deliverTokens(beneficiary, tokenAmount) */\n      jump\t// in\n    tag_218:\n        /* \"crowdsale/crowdsale.sol\":7023:7167  function _processPurchase(address beneficiary, uint256 tokenAmount) internal virtual {... */\n      pop\n      pop\n      jump\t// out\n        /* \"crowdsale/crowdsale.sol\":7445:7600  function _updatePurchasingState(address beneficiary, uint256 weiAmount) internal virtual {... */\n    tag_134:\n      pop\n      pop\n      jump\t// out\n        /* \"crowdsale/crowdsale.sol\":8078:8166  function _forwardFunds() internal virtual {... */\n    tag_136:\n        /* \"crowdsale/crowdsale.sol\":8131:8138  _wallet */\n      0x02\n      0x00\n      swap1\n      sload\n      swap1\n      0x0100\n      exp\n      swap1\n      div\n      0xffffffffffffffffffffffffffffffffffffffff\n      and\n        /* \"crowdsale/crowdsale.sol\":8131:8147  _wallet.transfer */\n      0xffffffffffffffffffffffffffffffffffffffff\n      and\n        /* \"crowdsale/crowdsale.sol\":8131:8158  _wallet.transfer(msg.value) */\n      0x08fc\n        /* \"crowdsale/crowdsale.sol\":8148:8157  msg.value */\n      callvalue\n        /* \"crowdsale/crowdsale.sol\":8131:8158  _wallet.transfer(msg.value) */\n      swap1\n      dup2\n      iszero\n      mul\n      swap1\n      mload(0x40)\n      0x00\n      mload(0x40)\n      dup1\n      dup4\n      sub\n      dup2\n      dup6\n      dup9\n      dup9\n      call\n      swap4\n      pop\n      pop\n      pop\n      pop\n      iszero\n      dup1\n      iszero\n      tag_223\n      jumpi\n      returndatasize\n      0x00\n      dup1\n      returndatacopy\n      revert(0x00, returndatasize)\n    tag_223:\n      pop\n        /* \"crowdsale/crowdsale.sol\":8078:8166  function _forwardFunds() internal virtual {... */\n      jump\t// out\n        /* \"crowdsale/crowdsale.sol\":6155:6314  function _postValidatePurchase(address beneficiary, uint256 weiAmount) internal virtual view {... */\n    tag_138:\n      pop\n      pop\n      jump\t// out\n        /* \"@openzeppelin/contracts/security/ReentrancyGuard.sol\":2629:2838  function _nonReentrantAfter() private {... */\n    tag_140:\n        /* \"@openzeppelin/contracts/security/ReentrancyGuard.sol\":1716:1717  1 */\n      0x01\n        /* \"@openzeppelin/contracts/security/ReentrancyGuard.sol\":2809:2816  _status */\n      0x00\n        /* \"@openzeppelin/contracts/security/ReentrancyGuard.sol\":2809:2831  _status = _NOT_ENTERED */\n      dup2\n      swap1\n      sstore\n      pop\n        /* \"@openzeppelin/contracts/security/ReentrancyGuard.sol\":2629:2838  function _nonReentrantAfter() private {... */\n      jump\t// out\n        /* \"@openzeppelin/contracts/utils/introspection/ERC165.sol\":829:984  function supportsInterface(bytes4 interfaceId) public view virtual override returns (bool) {... */\n    tag_144:\n        /* \"@openzeppelin/contracts/utils/introspection/ERC165.sol\":914:918  bool */\n      0x00\n        /* \"@openzeppelin/contracts/utils/introspection/ERC165.sol\":952:977  type(IERC165).interfaceId */\n      0x01ffc9a700000000000000000000000000000000000000000000000000000000\n        /* \"@openzeppelin/contracts/utils/introspection/ERC165.sol\":937:977  interfaceId == type(IERC165).interfaceId */\n      not(0xffffffffffffffffffffffffffffffffffffffffffffffffffffffff)\n      and\n        /* \"@openzeppelin/contracts/utils/introspection/ERC165.sol\":937:948  interfaceId */\n      dup3\n        /* \"@openzeppelin/contracts/utils/introspection/ERC165.sol\":937:977  interfaceId == type(IERC165).interfaceId */\n      not(0xffffffffffffffffffffffffffffffffffffffffffffffffffffffff)\n      and\n      eq\n        /* \"@openzeppelin/contracts/utils/introspection/ERC165.sol\":930:977  return interfaceId == type(IERC165).interfaceId */\n      swap1\n      pop\n        /* \"@openzeppelin/contracts/utils/introspection/ERC165.sol\":829:984  function supportsInterface(bytes4 interfaceId) public view virtual override returns (bool) {... */\n      swap2\n      swap1\n      pop\n      jump\t// out\n        /* \"@openzeppelin/contracts/access/AccessControl.sol\":3460:3563  function _checkRole(bytes32 role) internal view virtual {... */\n    tag_150:\n        /* \"@openzeppelin/contracts/access/AccessControl.sol\":3526:3556  _checkRole(role, _msgSender()) */\n      tag_228\n        /* \"@openzeppelin/contracts/access/AccessControl.sol\":3537:3541  role */\n      dup2\n        /* \"@openzeppelin/contracts/access/AccessControl.sol\":3543:3555  _msgSender() */\n      tag_229\n        /* \"@openzeppelin/contracts/access/AccessControl.sol\":3543:3553  _msgSender */\n      tag_28\n        /* \"@openzeppelin/contracts/access/AccessControl.sol\":3543:3555  _msgSender() */\n      jump\t// in\n    tag_229:\n        /* \"@openzeppelin/contracts/access/AccessControl.sol\":3526:3536  _checkRole */\n      tag_230\n        /* \"@openzeppelin/contracts/access/AccessControl.sol\":3526:3556  _checkRole(role, _msgSender()) */\n      jump\t// in\n    tag_228:\n        /* \"@openzeppelin/contracts/access/AccessControl.sol\":3460:3563  function _checkRole(bytes32 role) internal view virtual {... */\n      pop\n      jump\t// out\n        /* \"@openzeppelin/contracts/access/AccessControl.sol\":7587:7820  function _grantRole(bytes32 role, address account) internal virtual {... */\n    tag_153:\n        /* \"@openzeppelin/contracts/access/AccessControl.sol\":7670:7692  hasRole(role, account) */\n      tag_232\n        /* \"@openzeppelin/contracts/access/AccessControl.sol\":7678:7682  role */\n      dup3\n        /* \"@openzeppelin/contracts/access/AccessControl.sol\":7684:7691  account */\n      dup3\n        /* \"@openzeppelin/contracts/access/AccessControl.sol\":7670:7677  hasRole */\n      tag_96\n        /* \"@openzeppelin/contracts/access/AccessControl.sol\":7670:7692  hasRole(role, account) */\n      jump\t// in\n    tag_232:\n        /* \"@openzeppelin/contracts/access/AccessControl.sol\":7665:7814  if (!hasRole(role, account)) {... */\n      tag_233\n      jumpi\n        /* \"@openzeppelin/contracts/access/AccessControl.sol\":7740:7744  true */\n      0x01\n        /* \"@openzeppelin/contracts/access/AccessControl.sol\":7708:7714  _roles */\n      0x05\n        /* \"@openzeppelin/contracts/access/AccessControl.sol\":7708:7720  _roles[role] */\n      0x00\n        /* \"@openzeppelin/contracts/access/AccessControl.sol\":7715:7719  role */\n      dup5\n        /* \"@openzeppelin/contracts/access/AccessControl.sol\":7708:7720  _roles[role] */\n      dup2\n      mstore\n      0x20\n      add\n      swap1\n      dup2\n      mstore\n      0x20\n      add\n      0x00\n      keccak256\n        /* \"@openzeppelin/contracts/access/AccessControl.sol\":7708:7728  _roles[role].members */\n      0x00\n      add\n        /* \"@openzeppelin/contracts/access/AccessControl.sol\":7708:7737  _roles[role].members[account] */\n      0x00\n        /* \"@openzeppelin/contracts/access/AccessControl.sol\":7729:7736  account */\n      dup4\n        /* \"@openzeppelin/contracts/access/AccessControl.sol\":7708:7737  _roles[role].members[account] */\n      0xffffffffffffffffffffffffffffffffffffffff\n      and\n      0xffffffffffffffffffffffffffffffffffffffff\n      and\n      dup2\n      mstore\n      0x20\n      add\n      swap1\n      dup2\n      mstore\n      0x20\n      add\n      0x00\n      keccak256\n      0x00\n        /* \"@openzeppelin/contracts/access/AccessControl.sol\":7708:7744  _roles[role].members[account] = true */\n      0x0100\n      exp\n      dup2\n      sload\n      dup2\n      0xff\n      mul\n      not\n      and\n      swap1\n      dup4\n      iszero\n      iszero\n      mul\n      or\n      swap1\n      sstore\n      pop\n        /* \"@openzeppelin/contracts/access/AccessControl.sol\":7790:7802  _msgSender() */\n      tag_234\n        /* \"@openzeppelin/contracts/access/AccessControl.sol\":7790:7800  _msgSender */\n      tag_28\n        /* \"@openzeppelin/contracts/access/AccessControl.sol\":7790:7802  _msgSender() */\n      jump\t// in\n    tag_234:\n        /* \"@openzeppelin/contracts/access/AccessControl.sol\":7763:7803  RoleGranted(role, account, _msgSender()) */\n      0xffffffffffffffffffffffffffffffffffffffff\n      and\n        /* \"@openzeppelin/contracts/access/AccessControl.sol\":7781:7788  account */\n      dup2\n        /* \"@openzeppelin/contracts/access/AccessControl.sol\":7763:7803  RoleGranted(role, account, _msgSender()) */\n      0xffffffffffffffffffffffffffffffffffffffff\n      and\n        /* \"@openzeppelin/contracts/access/AccessControl.sol\":7775:7779  role */\n      dup4\n        /* \"@openzeppelin/contracts/access/AccessControl.sol\":7763:7803  RoleGranted(role, account, _msgSender()) */\n      0x2f8788117e7eff1d82e926ec794901d17c78024a50270940304540a733656f0d\n      mload(0x40)\n      mload(0x40)\n      dup1\n      swap2\n      sub\n      swap1\n      log4\n        /* \"@openzeppelin/contracts/access/AccessControl.sol\":7665:7814  if (!hasRole(role, account)) {... */\n    tag_233:\n        /* \"@openzeppelin/contracts/access/AccessControl.sol\":7587:7820  function _grantRole(bytes32 role, address account) internal virtual {... */\n      pop\n      pop\n      jump\t// out\n        /* \"@openzeppelin/contracts/access/AccessControl.sol\":7991:8225  function _revokeRole(bytes32 role, address account) internal virtual {... */\n    tag_160:\n        /* \"@openzeppelin/contracts/access/AccessControl.sol\":8074:8096  hasRole(role, account) */\n      tag_236\n        /* \"@openzeppelin/contracts/access/AccessControl.sol\":8082:8086  role */\n      dup3\n        /* \"@openzeppelin/contracts/access/AccessControl.sol\":8088:8095  account */\n      dup3\n        /* \"@openzeppelin/contracts/access/AccessControl.sol\":8074:8081  hasRole */\n      tag_96\n        /* \"@openzeppelin/contracts/access/AccessControl.sol\":8074:8096  hasRole(role, account) */\n      jump\t// in\n    tag_236:\n        /* \"@openzeppelin/contracts/access/AccessControl.sol\":8070:8219  if (hasRole(role, account)) {... */\n      iszero\n      tag_237\n      jumpi\n        /* \"@openzeppelin/contracts/access/AccessControl.sol\":8144:8149  false */\n      0x00\n        /* \"@openzeppelin/contracts/access/AccessControl.sol\":8112:8118  _roles */\n      0x05\n        /* \"@openzeppelin/contracts/access/AccessControl.sol\":8112:8124  _roles[role] */\n      0x00\n        /* \"@openzeppelin/contracts/access/AccessControl.sol\":8119:8123  role */\n      dup5\n        /* \"@openzeppelin/contracts/access/AccessControl.sol\":8112:8124  _roles[role] */\n      dup2\n      mstore\n      0x20\n      add\n      swap1\n      dup2\n      mstore\n      0x20\n      add\n      0x00\n      keccak256\n        /* \"@openzeppelin/contracts/access/AccessControl.sol\":8112:8132  _roles[role].members */\n      0x00\n      add\n        /* \"@openzeppelin/contracts/access/AccessControl.sol\":8112:8141  _roles[role].members[account] */\n      0x00\n        /* \"@openzeppelin/contracts/access/AccessControl.sol\":8133:8140  account */\n      dup4\n        /* \"@openzeppelin/contracts/access/AccessControl.sol\":8112:8141  _roles[role].members[account] */\n      0xffffffffffffffffffffffffffffffffffffffff\n      and\n      0xffffffffffffffffffffffffffffffffffffffff\n      and\n      dup2\n      mstore\n      0x20\n      add\n      swap1\n      dup2\n      mstore\n      0x20\n      add\n      0x00\n      keccak256\n      0x00\n        /* \"@openzeppelin/contracts/access/AccessControl.sol\":8112:8149  _roles[role].members[account] = false */\n      0x0100\n      exp\n      dup2\n      sload\n      dup2\n      0xff\n      mul\n      not\n      and\n      swap1\n      dup4\n      iszero\n      iszero\n      mul\n      or\n      swap1\n      sstore\n      pop\n        /* \"@openzeppelin/contracts/access/AccessControl.sol\":8195:8207  _msgSender() */\n      tag_238\n        /* \"@openzeppelin/contracts/access/AccessControl.sol\":8195:8205  _msgSender */\n      tag_28\n        /* \"@openzeppelin/contracts/access/AccessControl.sol\":8195:8207  _msgSender() */\n      jump\t// in\n    tag_238:\n        /* \"@openzeppelin/contracts/access/AccessControl.sol\":8168:8208  RoleRevoked(role, account, _msgSender()) */\n      0xffffffffffffffffffffffffffffffffffffffff\n      and\n        /* \"@openzeppelin/contracts/access/AccessControl.sol\":8186:8193  account */\n      dup2\n        /* \"@openzeppelin/contracts/access/AccessControl.sol\":8168:8208  RoleRevoked(role, account, _msgSender()) */\n      0xffffffffffffffffffffffffffffffffffffffff\n      and\n        /* \"@openzeppelin/contracts/access/AccessControl.sol\":8180:8184  role */\n      dup4\n        /* \"@openzeppelin/contracts/access/AccessControl.sol\":8168:8208  RoleRevoked(role, account, _msgSender()) */\n      0xf6391f5c32d9c69d2a47ea670b442974b53935d1edc7fd64eb21e047a839171b\n      mload(0x40)\n      mload(0x40)\n      dup1\n      swap2\n      sub\n      swap1\n      log4\n        /* \"@openzeppelin/contracts/access/AccessControl.sol\":8070:8219  if (hasRole(role, account)) {... */\n    tag_237:\n        /* \"@openzeppelin/contracts/access/AccessControl.sol\":7991:8225  function _revokeRole(bytes32 role, address account) internal virtual {... */\n      pop\n      pop\n      jump\t// out\n        /* \"crowdsale/crowdsale.sol\":5464:5852  function _preValidatePurchase(address beneficiary, uint256 weiAmount) internal virtual view {... */\n    tag_210:\n        /* \"crowdsale/crowdsale.sol\":5598:5599  0 */\n      0x00\n        /* \"crowdsale/crowdsale.sol\":5575:5600  beneficiary != address(0) */\n      0xffffffffffffffffffffffffffffffffffffffff\n      and\n        /* \"crowdsale/crowdsale.sol\":5575:5586  beneficiary */\n      dup3\n        /* \"crowdsale/crowdsale.sol\":5575:5600  beneficiary != address(0) */\n      0xffffffffffffffffffffffffffffffffffffffff\n      and\n      sub\n        /* \"crowdsale/crowdsale.sol\":5567:5647  require(beneficiary != address(0), \"Crowdsale: beneficiary is the zero address\") */\n      tag_240\n      jumpi\n      mload(0x40)\n      0x08c379a000000000000000000000000000000000000000000000000000000000\n      dup2\n      mstore\n      0x04\n      add\n      tag_241\n      swap1\n      tag_242\n      jump\t// in\n    tag_241:\n      mload(0x40)\n      dup1\n      swap2\n      sub\n      swap1\n      revert\n    tag_240:\n        /* \"crowdsale/crowdsale.sol\":5679:5680  0 */\n      0x00\n        /* \"crowdsale/crowdsale.sol\":5666:5675  weiAmount */\n      dup2\n        /* \"crowdsale/crowdsale.sol\":5666:5680  weiAmount != 0 */\n      sub\n        /* \"crowdsale/crowdsale.sol\":5658:5710  require(weiAmount != 0, \"Crowdsale: weiAmount is 0\") */\n      tag_243\n      jumpi\n      mload(0x40)\n      0x08c379a000000000000000000000000000000000000000000000000000000000\n      dup2\n      mstore\n      0x04\n      add\n      tag_244\n      swap1\n      tag_245\n      jump\t// in\n    tag_244:\n      mload(0x40)\n      dup1\n      swap2\n      sub\n      swap1\n      revert\n    tag_243:\n        /* \"crowdsale/crowdsale.sol\":5464:5852  function _preValidatePurchase(address beneficiary, uint256 weiAmount) internal virtual view {... */\n      pop\n      pop\n      jump\t// out\n        /* \"@openzeppelin/contracts/utils/math/SafeMath.sol\":3465:3561  function mul(uint256 a, uint256 b) internal pure returns (uint256) {... */\n    tag_213:\n        /* \"@openzeppelin/contracts/utils/math/SafeMath.sol\":3523:3530  uint256 */\n      0x00\n        /* \"@openzeppelin/contracts/utils/math/SafeMath.sol\":3553:3554  b */\n      dup2\n        /* \"@openzeppelin/contracts/utils/math/SafeMath.sol\":3549:3550  a */\n      dup4\n        /* \"@openzeppelin/contracts/utils/math/SafeMath.sol\":3549:3554  a * b */\n      tag_247\n      swap2\n      swap1\n      tag_248\n      jump\t// in\n    tag_247:\n        /* \"@openzeppelin/contracts/utils/math/SafeMath.sol\":3542:3554  return a * b */\n      swap1\n      pop\n        /* \"@openzeppelin/contracts/utils/math/SafeMath.sol\":3465:3561  function mul(uint256 a, uint256 b) internal pure returns (uint256) {... */\n      swap3\n      swap2\n      pop\n      pop\n      jump\t// out\n        /* \"crowdsale/crowdsale.sol\":6602:6749  function _deliverTokens(address beneficiary, uint256 tokenAmount) internal virtual {... */\n    tag_219:\n        /* \"crowdsale/crowdsale.sol\":6696:6741  _token.safeTransfer(beneficiary, tokenAmount) */\n      tag_250\n        /* \"crowdsale/crowdsale.sol\":6716:6727  beneficiary */\n      dup3\n        /* \"crowdsale/crowdsale.sol\":6729:6740  tokenAmount */\n      dup3\n        /* \"crowdsale/crowdsale.sol\":6696:6702  _token */\n      0x01\n      0x00\n      swap1\n      sload\n      swap1\n      0x0100\n      exp\n      swap1\n      div\n      0xffffffffffffffffffffffffffffffffffffffff\n      and\n        /* \"crowdsale/crowdsale.sol\":6696:6715  _token.safeTransfer */\n      0xffffffffffffffffffffffffffffffffffffffff\n      and\n      tag_251\n      swap1\n        /* \"crowdsale/crowdsale.sol\":6696:6741  _token.safeTransfer(beneficiary, tokenAmount) */\n      swap3\n      swap2\n      swap1\n      0xffffffff\n      and\n      jump\t// in\n    tag_250:\n        /* \"crowdsale/crowdsale.sol\":6602:6749  function _deliverTokens(address beneficiary, uint256 tokenAmount) internal virtual {... */\n      pop\n      pop\n      jump\t// out\n        /* \"@openzeppelin/contracts/access/AccessControl.sol\":3844:4323  function _checkRole(bytes32 role, address account) internal view virtual {... */\n    tag_230:\n        /* \"@openzeppelin/contracts/access/AccessControl.sol\":3932:3954  hasRole(role, account) */\n      tag_253\n        /* \"@openzeppelin/contracts/access/AccessControl.sol\":3940:3944  role */\n      dup3\n        /* \"@openzeppelin/contracts/access/AccessControl.sol\":3946:3953  account */\n      dup3\n        /* \"@openzeppelin/contracts/access/AccessControl.sol\":3932:3939  hasRole */\n      tag_96\n        /* \"@openzeppelin/contracts/access/AccessControl.sol\":3932:3954  hasRole(role, account) */\n      jump\t// in\n    tag_253:\n        /* \"@openzeppelin/contracts/access/AccessControl.sol\":3927:4317  if (!hasRole(role, account)) {... */\n      tag_254\n      jumpi\n        /* \"@openzeppelin/contracts/access/AccessControl.sol\":4115:4143  Strings.toHexString(account) */\n      tag_255\n        /* \"@openzeppelin/contracts/access/AccessControl.sol\":4135:4142  account */\n      dup2\n        /* \"@openzeppelin/contracts/access/AccessControl.sol\":4115:4134  Strings.toHexString */\n      tag_256\n        /* \"@openzeppelin/contracts/access/AccessControl.sol\":4115:4143  Strings.toHexString(account) */\n      jump\t// in\n    tag_255:\n        /* \"@openzeppelin/contracts/access/AccessControl.sol\":4214:4252  Strings.toHexString(uint256(role), 32) */\n      tag_257\n        /* \"@openzeppelin/contracts/access/AccessControl.sol\":4242:4246  role */\n      dup4\n        /* \"@openzeppelin/contracts/access/AccessControl.sol\":4234:4247  uint256(role) */\n      0x00\n      shr\n        /* \"@openzeppelin/contracts/access/AccessControl.sol\":4249:4251  32 */\n      0x20\n        /* \"@openzeppelin/contracts/access/AccessControl.sol\":4214:4233  Strings.toHexString */\n      tag_258\n        /* \"@openzeppelin/contracts/access/AccessControl.sol\":4214:4252  Strings.toHexString(uint256(role), 32) */\n      jump\t// in\n    tag_257:\n        /* \"@openzeppelin/contracts/access/AccessControl.sol\":4022:4274  abi.encodePacked(... */\n      add(0x20, mload(0x40))\n      tag_259\n      swap3\n      swap2\n      swap1\n      tag_260\n      jump\t// in\n    tag_259:\n      mload(0x40)\n      0x20\n      dup2\n      dup4\n      sub\n      sub\n      dup2\n      mstore\n      swap1\n      0x40\n      mstore\n        /* \"@openzeppelin/contracts/access/AccessControl.sol\":3970:4306  revert(... */\n      mload(0x40)\n      0x08c379a000000000000000000000000000000000000000000000000000000000\n      dup2\n      mstore\n      0x04\n      add\n      tag_261\n      swap2\n      swap1\n      tag_262\n      jump\t// in\n    tag_261:\n      mload(0x40)\n      dup1\n      swap2\n      sub\n      swap1\n      revert\n        /* \"@openzeppelin/contracts/access/AccessControl.sol\":3927:4317  if (!hasRole(role, account)) {... */\n    tag_254:\n        /* \"@openzeppelin/contracts/access/AccessControl.sol\":3844:4323  function _checkRole(bytes32 role, address account) internal view virtual {... */\n      pop\n      pop\n      jump\t// out\n        /* \"@openzeppelin/contracts/token/ERC20/utils/SafeERC20.sol\":941:1116  function safeTransfer(IERC20 token, address to, uint256 value) internal {... */\n    tag_251:\n        /* \"@openzeppelin/contracts/token/ERC20/utils/SafeERC20.sol\":1023:1109  _callOptionalReturn(token, abi.encodeWithSelector(token.transfer.selector, to, value)) */\n      tag_264\n        /* \"@openzeppelin/contracts/token/ERC20/utils/SafeERC20.sol\":1043:1048  token */\n      dup4\n        /* \"@openzeppelin/contracts/token/ERC20/utils/SafeERC20.sol\":1073:1096  token.transfer.selector */\n      shl(0xe0, 0xa9059cbb)\n        /* \"@openzeppelin/contracts/token/ERC20/utils/SafeERC20.sol\":1098:1100  to */\n      dup5\n        /* \"@openzeppelin/contracts/token/ERC20/utils/SafeERC20.sol\":1102:1107  value */\n      dup5\n        /* \"@openzeppelin/contracts/token/ERC20/utils/SafeERC20.sol\":1050:1108  abi.encodeWithSelector(token.transfer.selector, to, value) */\n      add(0x24, mload(0x40))\n      tag_265\n      swap3\n      swap2\n      swap1\n      tag_266\n      jump\t// in\n    tag_265:\n      mload(0x40)\n      0x20\n      dup2\n      dup4\n      sub\n      sub\n      dup2\n      mstore\n      swap1\n      0x40\n      mstore\n      swap1\n      not(0xffffffffffffffffffffffffffffffffffffffffffffffffffffffff)\n      and\n      0x20\n      dup3\n      add\n      dup1\n      mload\n      0xffffffffffffffffffffffffffffffffffffffffffffffffffffffff\n      dup4\n      dup2\n      dup4\n      and\n      or\n      dup4\n      mstore\n      pop\n      pop\n      pop\n      pop\n        /* \"@openzeppelin/contracts/token/ERC20/utils/SafeERC20.sol\":1023:1042  _callOptionalReturn */\n      tag_267\n        /* \"@openzeppelin/contracts/token/ERC20/utils/SafeERC20.sol\":1023:1109  _callOptionalReturn(token, abi.encodeWithSelector(token.transfer.selector, to, value)) */\n      jump\t// in\n    tag_264:\n        /* \"@openzeppelin/contracts/token/ERC20/utils/SafeERC20.sol\":941:1116  function safeTransfer(IERC20 token, address to, uint256 value) internal {... */\n      pop\n      pop\n      pop\n      jump\t// out\n        /* \"@openzeppelin/contracts/utils/Strings.sol\":2407:2556  function toHexString(address addr) internal pure returns (string memory) {... */\n    tag_256:\n        /* \"@openzeppelin/contracts/utils/Strings.sol\":2465:2478  string memory */\n      0x60\n        /* \"@openzeppelin/contracts/utils/Strings.sol\":2497:2549  toHexString(uint256(uint160(addr)), _ADDRESS_LENGTH) */\n      tag_269\n        /* \"@openzeppelin/contracts/utils/Strings.sol\":2525:2529  addr */\n      dup3\n        /* \"@openzeppelin/contracts/utils/Strings.sol\":2509:2531  uint256(uint160(addr)) */\n      0xffffffffffffffffffffffffffffffffffffffff\n      and\n        /* \"@openzeppelin/contracts/utils/Strings.sol\":343:345  20 */\n      0x14\n        /* \"@openzeppelin/contracts/utils/Strings.sol\":2497:2549  toHexString(uint256(uint160(addr)), _ADDRESS_LENGTH) */\n      0xff\n      and\n        /* \"@openzeppelin/contracts/utils/Strings.sol\":2497:2508  toHexString */\n      tag_258\n        /* \"@openzeppelin/contracts/utils/Strings.sol\":2497:2549  toHexString(uint256(uint160(addr)), _ADDRESS_LENGTH) */\n      jump\t// in\n    tag_269:\n        /* \"@openzeppelin/contracts/utils/Strings.sol\":2490:2549  return toHexString(uint256(uint160(addr)), _ADDRESS_LENGTH) */\n      swap1\n      pop\n        /* \"@openzeppelin/contracts/utils/Strings.sol\":2407:2556  function toHexString(address addr) internal pure returns (string memory) {... */\n      swap2\n      swap1\n      pop\n      jump\t// out\n        /* \"@openzeppelin/contracts/utils/Strings.sol\":1818:2255  function toHexString(uint256 value, uint256 length) internal pure returns (string memory) {... */\n    tag_258:\n        /* \"@openzeppelin/contracts/utils/Strings.sol\":1893:1906  string memory */\n      0x60\n        /* \"@openzeppelin/contracts/utils/Strings.sol\":1918:1937  bytes memory buffer */\n      0x00\n        /* \"@openzeppelin/contracts/utils/Strings.sol\":1963:1964  2 */\n      0x02\n        /* \"@openzeppelin/contracts/utils/Strings.sol\":1954:1960  length */\n      dup4\n        /* \"@openzeppelin/contracts/utils/Strings.sol\":1950:1951  2 */\n      0x02\n        /* \"@openzeppelin/contracts/utils/Strings.sol\":1950:1960  2 * length */\n      tag_271\n      swap2\n      swap1\n      tag_248\n      jump\t// in\n    tag_271:\n        /* \"@openzeppelin/contracts/utils/Strings.sol\":1950:1964  2 * length + 2 */\n      tag_272\n      swap2\n      swap1\n      tag_216\n      jump\t// in\n    tag_272:\n        /* \"@openzeppelin/contracts/utils/Strings.sol\":1940:1965  new bytes(2 * length + 2) */\n      0xffffffffffffffff\n      dup2\n      gt\n      iszero\n      tag_273\n      jumpi\n      tag_274\n      tag_275\n      jump\t// in\n    tag_274:\n    tag_273:\n      mload(0x40)\n      swap1\n      dup1\n      dup3\n      mstore\n      dup1\n      0x1f\n      add\n      not(0x1f)\n      and\n      0x20\n      add\n      dup3\n      add\n      0x40\n      mstore\n      dup1\n      iszero\n      tag_276\n      jumpi\n      dup2\n      0x20\n      add\n      0x01\n      dup3\n      mul\n      dup1\n      calldatasize\n      dup4\n      calldatacopy\n      dup1\n      dup3\n      add\n      swap2\n      pop\n      pop\n      swap1\n      pop\n    tag_276:\n      pop\n        /* \"@openzeppelin/contracts/utils/Strings.sol\":1918:1965  bytes memory buffer = new bytes(2 * length + 2) */\n      swap1\n      pop\n        /* \"@openzeppelin/contracts/utils/Strings.sol\":1975:1990  buffer[0] = \"0\" */\n      0x3000000000000000000000000000000000000000000000000000000000000000\n        /* \"@openzeppelin/contracts/utils/Strings.sol\":1975:1981  buffer */\n      dup2\n        /* \"@openzeppelin/contracts/utils/Strings.sol\":1982:1983  0 */\n      0x00\n        /* \"@openzeppelin/contracts/utils/Strings.sol\":1975:1984  buffer[0] */\n      dup2\n      mload\n      dup2\n      lt\n      tag_277\n      jumpi\n      tag_278\n      tag_172\n      jump\t// in\n    tag_278:\n    tag_277:\n      0x20\n      add\n      add\n        /* \"@openzeppelin/contracts/utils/Strings.sol\":1975:1990  buffer[0] = \"0\" */\n      swap1\n      not(0xffffffffffffffffffffffffffffffffffffffffffffffffffffffffffffff)\n      and\n      swap1\n      dup2\n      0x00\n      byte\n      swap1\n      mstore8\n      pop\n        /* \"@openzeppelin/contracts/utils/Strings.sol\":2000:2015  buffer[1] = \"x\" */\n      0x7800000000000000000000000000000000000000000000000000000000000000\n        /* \"@openzeppelin/contracts/utils/Strings.sol\":2000:2006  buffer */\n      dup2\n        /* \"@openzeppelin/contracts/utils/Strings.sol\":2007:2008  1 */\n      0x01\n        /* \"@openzeppelin/contracts/utils/Strings.sol\":2000:2009  buffer[1] */\n      dup2\n      mload\n      dup2\n      lt\n      tag_279\n      jumpi\n      tag_280\n      tag_172\n      jump\t// in\n    tag_280:\n    tag_279:\n      0x20\n      add\n      add\n        /* \"@openzeppelin/contracts/utils/Strings.sol\":2000:2015  buffer[1] = \"x\" */\n      swap1\n      not(0xffffffffffffffffffffffffffffffffffffffffffffffffffffffffffffff)\n      and\n      swap1\n      dup2\n      0x00\n      byte\n      swap1\n      mstore8\n      pop\n        /* \"@openzeppelin/contracts/utils/Strings.sol\":2030:2039  uint256 i */\n      0x00\n        /* \"@openzeppelin/contracts/utils/Strings.sol\":2055:2056  1 */\n      0x01\n        /* \"@openzeppelin/contracts/utils/Strings.sol\":2046:2052  length */\n      dup5\n        /* \"@openzeppelin/contracts/utils/Strings.sol\":2042:2043  2 */\n      0x02\n        /* \"@openzeppelin/contracts/utils/Strings.sol\":2042:2052  2 * length */\n      tag_284\n      swap2\n      swap1\n      tag_248\n      jump\t// in\n    tag_284:\n        /* \"@openzeppelin/contracts/utils/Strings.sol\":2042:2056  2 * length + 1 */\n      tag_285\n      swap2\n      swap1\n      tag_216\n      jump\t// in\n    tag_285:\n        /* \"@openzeppelin/contracts/utils/Strings.sol\":2030:2056  uint256 i = 2 * length + 1 */\n      swap1\n      pop\n        /* \"@openzeppelin/contracts/utils/Strings.sol\":2025:2153  for (uint256 i = 2 * length + 1; i > 1; --i) {... */\n    tag_281:\n        /* \"@openzeppelin/contracts/utils/Strings.sol\":2062:2063  1 */\n      0x01\n        /* \"@openzeppelin/contracts/utils/Strings.sol\":2058:2059  i */\n      dup2\n        /* \"@openzeppelin/contracts/utils/Strings.sol\":2058:2063  i > 1 */\n      gt\n        /* \"@openzeppelin/contracts/utils/Strings.sol\":2025:2153  for (uint256 i = 2 * length + 1; i > 1; --i) {... */\n      iszero\n      tag_282\n      jumpi\n        /* \"@openzeppelin/contracts/utils/Strings.sol\":2096:2104  _SYMBOLS */\n      0x3031323334353637383961626364656600000000000000000000000000000000\n        /* \"@openzeppelin/contracts/utils/Strings.sol\":2113:2116  0xf */\n      0x0f\n        /* \"@openzeppelin/contracts/utils/Strings.sol\":2105:2110  value */\n      dup7\n        /* \"@openzeppelin/contracts/utils/Strings.sol\":2105:2116  value & 0xf */\n      and\n        /* \"@openzeppelin/contracts/utils/Strings.sol\":2096:2117  _SYMBOLS[value & 0xf] */\n      0x10\n      dup2\n      lt\n      tag_286\n      jumpi\n      tag_287\n      tag_172\n      jump\t// in\n    tag_287:\n    tag_286:\n      byte\n      0xf8\n      shl\n        /* \"@openzeppelin/contracts/utils/Strings.sol\":2084:2090  buffer */\n      dup3\n        /* \"@openzeppelin/contracts/utils/Strings.sol\":2091:2092  i */\n      dup3\n        /* \"@openzeppelin/contracts/utils/Strings.sol\":2084:2093  buffer[i] */\n      dup2\n      mload\n      dup2\n      lt\n      tag_288\n      jumpi\n      tag_289\n      tag_172\n      jump\t// in\n    tag_289:\n    tag_288:\n      0x20\n      add\n      add\n        /* \"@openzeppelin/contracts/utils/Strings.sol\":2084:2117  buffer[i] = _SYMBOLS[value & 0xf] */\n      swap1\n      not(0xffffffffffffffffffffffffffffffffffffffffffffffffffffffffffffff)\n      and\n      swap1\n      dup2\n      0x00\n      byte\n      swap1\n      mstore8\n      pop\n        /* \"@openzeppelin/contracts/utils/Strings.sol\":2141:2142  4 */\n      0x04\n        /* \"@openzeppelin/contracts/utils/Strings.sol\":2131:2142  value >>= 4 */\n      dup6\n      swap1\n      shr\n      swap5\n      pop\n        /* \"@openzeppelin/contracts/utils/Strings.sol\":2065:2068  --i */\n      dup1\n      tag_290\n      swap1\n      tag_291\n      jump\t// in\n    tag_290:\n      swap1\n      pop\n        /* \"@openzeppelin/contracts/utils/Strings.sol\":2025:2153  for (uint256 i = 2 * length + 1; i > 1; --i) {... */\n      jump(tag_281)\n    tag_282:\n      pop\n        /* \"@openzeppelin/contracts/utils/Strings.sol\":2179:2180  0 */\n      0x00\n        /* \"@openzeppelin/contracts/utils/Strings.sol\":2170:2175  value */\n      dup5\n        /* \"@openzeppelin/contracts/utils/Strings.sol\":2170:2180  value == 0 */\n      eq\n        /* \"@openzeppelin/contracts/utils/Strings.sol\":2162:2217  require(value == 0, \"Strings: hex length insufficient\") */\n      tag_292\n      jumpi\n      mload(0x40)\n      0x08c379a000000000000000000000000000000000000000000000000000000000\n      dup2\n      mstore\n      0x04\n      add\n      tag_293\n      swap1\n      tag_294\n      jump\t// in\n    tag_293:\n      mload(0x40)\n      dup1\n      swap2\n      sub\n      swap1\n      revert\n    tag_292:\n        /* \"@openzeppelin/contracts/utils/Strings.sol\":2241:2247  buffer */\n      dup1\n        /* \"@openzeppelin/contracts/utils/Strings.sol\":2227:2248  return string(buffer) */\n      swap2\n      pop\n      pop\n        /* \"@openzeppelin/contracts/utils/Strings.sol\":1818:2255  function toHexString(uint256 value, uint256 length) internal pure returns (string memory) {... */\n      swap3\n      swap2\n      pop\n      pop\n      jump\t// out\n        /* \"@openzeppelin/contracts/token/ERC20/utils/SafeERC20.sol\":5196:5838  function _callOptionalReturn(IERC20 token, bytes memory data) private {... */\n    tag_267:\n        /* \"@openzeppelin/contracts/token/ERC20/utils/SafeERC20.sol\":5615:5638  bytes memory returndata */\n      0x00\n        /* \"@openzeppelin/contracts/token/ERC20/utils/SafeERC20.sol\":5641:5710  address(token).functionCall(data, \"SafeERC20: low-level call failed\") */\n      tag_296\n        /* \"@openzeppelin/contracts/token/ERC20/utils/SafeERC20.sol\":5669:5673  data */\n      dup3\n        /* \"@openzeppelin/contracts/token/ERC20/utils/SafeERC20.sol\":5641:5710  address(token).functionCall(data, \"SafeERC20: low-level call failed\") */\n      mload(0x40)\n      dup1\n      0x40\n      add\n      0x40\n      mstore\n      dup1\n      0x20\n      dup2\n      mstore\n      0x20\n      add\n      0x5361666545524332303a206c6f772d6c6576656c2063616c6c206661696c6564\n      dup2\n      mstore\n      pop\n        /* \"@openzeppelin/contracts/token/ERC20/utils/SafeERC20.sol\":5649:5654  token */\n      dup6\n        /* \"@openzeppelin/contracts/token/ERC20/utils/SafeERC20.sol\":5641:5668  address(token).functionCall */\n      0xffffffffffffffffffffffffffffffffffffffff\n      and\n      tag_297\n      swap1\n        /* \"@openzeppelin/contracts/token/ERC20/utils/SafeERC20.sol\":5641:5710  address(token).functionCall(data, \"SafeERC20: low-level call failed\") */\n      swap3\n      swap2\n      swap1\n      0xffffffff\n      and\n      jump\t// in\n    tag_296:\n        /* \"@openzeppelin/contracts/token/ERC20/utils/SafeERC20.sol\":5615:5710  bytes memory returndata = address(token).functionCall(data, \"SafeERC20: low-level call failed\") */\n      swap1\n      pop\n        /* \"@openzeppelin/contracts/token/ERC20/utils/SafeERC20.sol\":5749:5750  0 */\n      0x00\n        /* \"@openzeppelin/contracts/token/ERC20/utils/SafeERC20.sol\":5728:5738  returndata */\n      dup2\n        /* \"@openzeppelin/contracts/token/ERC20/utils/SafeERC20.sol\":5728:5745  returndata.length */\n      mload\n        /* \"@openzeppelin/contracts/token/ERC20/utils/SafeERC20.sol\":5728:5750  returndata.length == 0 */\n      eq\n        /* \"@openzeppelin/contracts/token/ERC20/utils/SafeERC20.sol\":5728:5784  returndata.length == 0 || abi.decode(returndata, (bool)) */\n      dup1\n      tag_298\n      jumpi\n      pop\n        /* \"@openzeppelin/contracts/token/ERC20/utils/SafeERC20.sol\":5765:5775  returndata */\n      dup1\n        /* \"@openzeppelin/contracts/token/ERC20/utils/SafeERC20.sol\":5754:5784  abi.decode(returndata, (bool)) */\n      dup1\n      0x20\n      add\n      swap1\n      mload\n      dup2\n      add\n      swap1\n      tag_299\n      swap2\n      swap1\n      tag_300\n      jump\t// in\n    tag_299:\n        /* \"@openzeppelin/contracts/token/ERC20/utils/SafeERC20.sol\":5728:5784  returndata.length == 0 || abi.decode(returndata, (bool)) */\n    tag_298:\n        /* \"@openzeppelin/contracts/token/ERC20/utils/SafeERC20.sol\":5720:5831  require(returndata.length == 0 || abi.decode(returndata, (bool)), \"SafeERC20: ERC20 operation did not succeed\") */\n      tag_301\n      jumpi\n      mload(0x40)\n      0x08c379a000000000000000000000000000000000000000000000000000000000\n      dup2\n      mstore\n      0x04\n      add\n      tag_302\n      swap1\n      tag_303\n      jump\t// in\n    tag_302:\n      mload(0x40)\n      dup1\n      swap2\n      sub\n      swap1\n      revert\n    tag_301:\n        /* \"@openzeppelin/contracts/token/ERC20/utils/SafeERC20.sol\":5266:5838  {... */\n      pop\n        /* \"@openzeppelin/contracts/token/ERC20/utils/SafeERC20.sol\":5196:5838  function _callOptionalReturn(IERC20 token, bytes memory data) private {... */\n      pop\n      pop\n      jump\t// out\n        /* \"@openzeppelin/contracts/utils/Address.sol\":4108:4331  function functionCall(... */\n    tag_297:\n        /* \"@openzeppelin/contracts/utils/Address.sol\":4241:4253  bytes memory */\n      0x60\n        /* \"@openzeppelin/contracts/utils/Address.sol\":4272:4324  functionCallWithValue(target, data, 0, errorMessage) */\n      tag_305\n        /* \"@openzeppelin/contracts/utils/Address.sol\":4294:4300  target */\n      dup5\n        /* \"@openzeppelin/contracts/utils/Address.sol\":4302:4306  data */\n      dup5\n        /* \"@openzeppelin/contracts/utils/Address.sol\":4308:4309  0 */\n      0x00\n        /* \"@openzeppelin/contracts/utils/Address.sol\":4311:4323  errorMessage */\n      dup6\n        /* \"@openzeppelin/contracts/utils/Address.sol\":4272:4293  functionCallWithValue */\n      tag_306\n        /* \"@openzeppelin/contracts/utils/Address.sol\":4272:4324  functionCallWithValue(target, data, 0, errorMessage) */\n      jump\t// in\n    tag_305:\n        /* \"@openzeppelin/contracts/utils/Address.sol\":4265:4324  return functionCallWithValue(target, data, 0, errorMessage) */\n      swap1\n      pop\n        /* \"@openzeppelin/contracts/utils/Address.sol\":4108:4331  function functionCall(... */\n      swap4\n      swap3\n      pop\n      pop\n      pop\n      jump\t// out\n        /* \"@openzeppelin/contracts/utils/Address.sol\":5165:5611  function functionCallWithValue(... */\n    tag_306:\n        /* \"@openzeppelin/contracts/utils/Address.sol\":5330:5342  bytes memory */\n      0x60\n        /* \"@openzeppelin/contracts/utils/Address.sol\":5387:5392  value */\n      dup3\n        /* \"@openzeppelin/contracts/utils/Address.sol\":5362:5383  address(this).balance */\n      selfbalance\n        /* \"@openzeppelin/contracts/utils/Address.sol\":5362:5392  address(this).balance >= value */\n      lt\n      iszero\n        /* \"@openzeppelin/contracts/utils/Address.sol\":5354:5435  require(address(this).balance >= value, \"Address: insufficient balance for call\") */\n      tag_308\n      jumpi\n      mload(0x40)\n      0x08c379a000000000000000000000000000000000000000000000000000000000\n      dup2\n      mstore\n      0x04\n      add\n      tag_309\n      swap1\n      tag_310\n      jump\t// in\n    tag_309:\n      mload(0x40)\n      dup1\n      swap2\n      sub\n      swap1\n      revert\n    tag_308:\n        /* \"@openzeppelin/contracts/utils/Address.sol\":5446:5458  bool success */\n      0x00\n        /* \"@openzeppelin/contracts/utils/Address.sol\":5460:5483  bytes memory returndata */\n      dup1\n        /* \"@openzeppelin/contracts/utils/Address.sol\":5487:5493  target */\n      dup7\n        /* \"@openzeppelin/contracts/utils/Address.sol\":5487:5498  target.call */\n      0xffffffffffffffffffffffffffffffffffffffff\n      and\n        /* \"@openzeppelin/contracts/utils/Address.sol\":5506:5511  value */\n      dup6\n        /* \"@openzeppelin/contracts/utils/Address.sol\":5513:5517  data */\n      dup8\n        /* \"@openzeppelin/contracts/utils/Address.sol\":5487:5518  target.call{value: value}(data) */\n      mload(0x40)\n      tag_311\n      swap2\n      swap1\n      tag_312\n      jump\t// in\n    tag_311:\n      0x00\n      mload(0x40)\n      dup1\n      dup4\n      sub\n      dup2\n      dup6\n      dup8\n      gas\n      call\n      swap3\n      pop\n      pop\n      pop\n      returndatasize\n      dup1\n      0x00\n      dup2\n      eq\n      tag_315\n      jumpi\n      mload(0x40)\n      swap2\n      pop\n      and(add(returndatasize, 0x3f), not(0x1f))\n      dup3\n      add\n      0x40\n      mstore\n      returndatasize\n      dup3\n      mstore\n      returndatasize\n      0x00\n      0x20\n      dup5\n      add\n      returndatacopy\n      jump(tag_314)\n    tag_315:\n      0x60\n      swap2\n      pop\n    tag_314:\n      pop\n        /* \"@openzeppelin/contracts/utils/Address.sol\":5445:5518  (bool success, bytes memory returndata) = target.call{value: value}(data) */\n      swap2\n      pop\n      swap2\n      pop\n        /* \"@openzeppelin/contracts/utils/Address.sol\":5535:5604  verifyCallResultFromTarget(target, success, returndata, errorMessage) */\n      tag_316\n        /* \"@openzeppelin/contracts/utils/Address.sol\":5562:5568  target */\n      dup8\n        /* \"@openzeppelin/contracts/utils/Address.sol\":5570:5577  success */\n      dup4\n        /* \"@openzeppelin/contracts/utils/Address.sol\":5579:5589  returndata */\n      dup4\n        /* \"@openzeppelin/contracts/utils/Address.sol\":5591:5603  errorMessage */\n      dup8\n        /* \"@openzeppelin/contracts/utils/Address.sol\":5535:5561  verifyCallResultFromTarget */\n      tag_317\n        /* \"@openzeppelin/contracts/utils/Address.sol\":5535:5604  verifyCallResultFromTarget(target, success, returndata, errorMessage) */\n      jump\t// in\n    tag_316:\n        /* \"@openzeppelin/contracts/utils/Address.sol\":5528:5604  return verifyCallResultFromTarget(target, success, returndata, errorMessage) */\n      swap3\n      pop\n      pop\n      pop\n        /* \"@openzeppelin/contracts/utils/Address.sol\":5165:5611  function functionCallWithValue(... */\n      swap5\n      swap4\n      pop\n      pop\n      pop\n      pop\n      jump\t// out\n        /* \"@openzeppelin/contracts/utils/Address.sol\":7671:8299  function verifyCallResultFromTarget(... */\n    tag_317:\n        /* \"@openzeppelin/contracts/utils/Address.sol\":7851:7863  bytes memory */\n      0x60\n        /* \"@openzeppelin/contracts/utils/Address.sol\":7879:7886  success */\n      dup4\n        /* \"@openzeppelin/contracts/utils/Address.sol\":7875:8293  if (success) {... */\n      iszero\n      tag_319\n      jumpi\n        /* \"@openzeppelin/contracts/utils/Address.sol\":7927:7928  0 */\n      0x00\n        /* \"@openzeppelin/contracts/utils/Address.sol\":7906:7916  returndata */\n      dup4\n        /* \"@openzeppelin/contracts/utils/Address.sol\":7906:7923  returndata.length */\n      mload\n        /* \"@openzeppelin/contracts/utils/Address.sol\":7906:7928  returndata.length == 0 */\n      sub\n        /* \"@openzeppelin/contracts/utils/Address.sol\":7902:8188  if (returndata.length == 0) {... */\n      tag_320\n      jumpi\n        /* \"@openzeppelin/contracts/utils/Address.sol\":8121:8139  isContract(target) */\n      tag_321\n        /* \"@openzeppelin/contracts/utils/Address.sol\":8132:8138  target */\n      dup6\n        /* \"@openzeppelin/contracts/utils/Address.sol\":8121:8131  isContract */\n      tag_322\n        /* \"@openzeppelin/contracts/utils/Address.sol\":8121:8139  isContract(target) */\n      jump\t// in\n    tag_321:\n        /* \"@openzeppelin/contracts/utils/Address.sol\":8113:8173  require(isContract(target), \"Address: call to non-contract\") */\n      tag_323\n      jumpi\n      mload(0x40)\n      0x08c379a000000000000000000000000000000000000000000000000000000000\n      dup2\n      mstore\n      0x04\n      add\n      tag_324\n      swap1\n      tag_325\n      jump\t// in\n    tag_324:\n      mload(0x40)\n      dup1\n      swap2\n      sub\n      swap1\n      revert\n    tag_323:\n        /* \"@openzeppelin/contracts/utils/Address.sol\":7902:8188  if (returndata.length == 0) {... */\n    tag_320:\n        /* \"@openzeppelin/contracts/utils/Address.sol\":8208:8218  returndata */\n      dup3\n        /* \"@openzeppelin/contracts/utils/Address.sol\":8201:8218  return returndata */\n      swap1\n      pop\n      jump(tag_318)\n        /* \"@openzeppelin/contracts/utils/Address.sol\":7875:8293  if (success) {... */\n    tag_319:\n        /* \"@openzeppelin/contracts/utils/Address.sol\":8249:8282  _revert(returndata, errorMessage) */\n      tag_327\n        /* \"@openzeppelin/contracts/utils/Address.sol\":8257:8267  returndata */\n      dup4\n        /* \"@openzeppelin/contracts/utils/Address.sol\":8269:8281  errorMessage */\n      dup4\n        /* \"@openzeppelin/contracts/utils/Address.sol\":8249:8256  _revert */\n      tag_328\n        /* \"@openzeppelin/contracts/utils/Address.sol\":8249:8282  _revert(returndata, errorMessage) */\n      jump\t// in\n    tag_327:\n        /* \"@openzeppelin/contracts/utils/Address.sol\":7671:8299  function verifyCallResultFromTarget(... */\n    tag_318:\n      swap5\n      swap4\n      pop\n      pop\n      pop\n      pop\n      jump\t// out\n        /* \"@openzeppelin/contracts/utils/Address.sol\":1412:1732  function isContract(address account) internal view returns (bool) {... */\n    tag_322:\n        /* \"@openzeppelin/contracts/utils/Address.sol\":1472:1476  bool */\n      0x00\n        /* \"@openzeppelin/contracts/utils/Address.sol\":1724:1725  0 */\n      dup1\n        /* \"@openzeppelin/contracts/utils/Address.sol\":1702:1709  account */\n      dup3\n        /* \"@openzeppelin/contracts/utils/Address.sol\":1702:1721  account.code.length */\n      0xffffffffffffffffffffffffffffffffffffffff\n      and\n      extcodesize\n        /* \"@openzeppelin/contracts/utils/Address.sol\":1702:1725  account.code.length > 0 */\n      gt\n        /* \"@openzeppelin/contracts/utils/Address.sol\":1695:1725  return account.code.length > 0 */\n      swap1\n      pop\n        /* \"@openzeppelin/contracts/utils/Address.sol\":1412:1732  function isContract(address account) internal view returns (bool) {... */\n      swap2\n      swap1\n      pop\n      jump\t// out\n        /* \"@openzeppelin/contracts/utils/Address.sol\":8821:9361  function _revert(bytes memory returndata, string memory errorMessage) private pure {... */\n    tag_328:\n        /* \"@openzeppelin/contracts/utils/Address.sol\":9000:9001  0 */\n      0x00\n        /* \"@openzeppelin/contracts/utils/Address.sol\":8980:8990  returndata */\n      dup3\n        /* \"@openzeppelin/contracts/utils/Address.sol\":8980:8997  returndata.length */\n      mload\n        /* \"@openzeppelin/contracts/utils/Address.sol\":8980:9001  returndata.length > 0 */\n      gt\n        /* \"@openzeppelin/contracts/utils/Address.sol\":8976:9355  if (returndata.length > 0) {... */\n      iszero\n      tag_331\n      jumpi\n        /* \"@openzeppelin/contracts/utils/Address.sol\":9208:9218  returndata */\n      dup2\n        /* \"@openzeppelin/contracts/utils/Address.sol\":9202:9219  mload(returndata) */\n      mload\n        /* \"@openzeppelin/contracts/utils/Address.sol\":9264:9279  returndata_size */\n      dup1\n        /* \"@openzeppelin/contracts/utils/Address.sol\":9251:9261  returndata */\n      dup4\n        /* \"@openzeppelin/contracts/utils/Address.sol\":9247:9249  32 */\n      0x20\n        /* \"@openzeppelin/contracts/utils/Address.sol\":9243:9262  add(32, returndata) */\n      add\n        /* \"@openzeppelin/contracts/utils/Address.sol\":9236:9280  revert(add(32, returndata), returndata_size) */\n      revert\n        /* \"@openzeppelin/contracts/utils/Address.sol\":8976:9355  if (returndata.length > 0) {... */\n    tag_331:\n        /* \"@openzeppelin/contracts/utils/Address.sol\":9331:9343  errorMessage */\n      dup1\n        /* \"@openzeppelin/contracts/utils/Address.sol\":9324:9344  revert(errorMessage) */\n      mload(0x40)\n      0x08c379a000000000000000000000000000000000000000000000000000000000\n      dup2\n      mstore\n      0x04\n      add\n      tag_333\n      swap2\n      swap1\n      tag_262\n      jump\t// in\n    tag_333:\n      mload(0x40)\n      dup1\n      swap2\n      sub\n      swap1\n      revert\n        /* \"#utility.yul\":7:82   */\n    tag_334:\n        /* \"#utility.yul\":40:46   */\n      0x00\n        /* \"#utility.yul\":73:75   */\n      0x40\n        /* \"#utility.yul\":67:76   */\n      mload\n        /* \"#utility.yul\":57:76   */\n      swap1\n      pop\n        /* \"#utility.yul\":7:82   */\n      swap1\n      jump\t// out\n        /* \"#utility.yul\":88:205   */\n    tag_335:\n        /* \"#utility.yul\":197:198   */\n      0x00\n        /* \"#utility.yul\":194:195   */\n      dup1\n        /* \"#utility.yul\":187:199   */\n      revert\n        /* \"#utility.yul\":211:328   */\n    tag_336:\n        /* \"#utility.yul\":320:321   */\n      0x00\n        /* \"#utility.yul\":317:318   */\n      dup1\n        /* \"#utility.yul\":310:322   */\n      revert\n        /* \"#utility.yul\":334:483   */\n    tag_337:\n        /* \"#utility.yul\":370:377   */\n      0x00\n        /* \"#utility.yul\":410:476   */\n      0xffffffff00000000000000000000000000000000000000000000000000000000\n        /* \"#utility.yul\":403:408   */\n      dup3\n        /* \"#utility.yul\":399:477   */\n      and\n        /* \"#utility.yul\":388:477   */\n      swap1\n      pop\n        /* \"#utility.yul\":334:483   */\n      swap2\n      swap1\n      pop\n      jump\t// out\n        /* \"#utility.yul\":489:609   */\n    tag_338:\n        /* \"#utility.yul\":561:584   */\n      tag_408\n        /* \"#utility.yul\":578:583   */\n      dup2\n        /* \"#utility.yul\":561:584   */\n      tag_337\n      jump\t// in\n    tag_408:\n        /* \"#utility.yul\":554:559   */\n      dup2\n        /* \"#utility.yul\":551:585   */\n      eq\n        /* \"#utility.yul\":541:603   */\n      tag_409\n      jumpi\n        /* \"#utility.yul\":599:600   */\n      0x00\n        /* \"#utility.yul\":596:597   */\n      dup1\n        /* \"#utility.yul\":589:601   */\n      revert\n        /* \"#utility.yul\":541:603   */\n    tag_409:\n        /* \"#utility.yul\":489:609   */\n      pop\n      jump\t// out\n        /* \"#utility.yul\":615:752   */\n    tag_339:\n        /* \"#utility.yul\":660:665   */\n      0x00\n        /* \"#utility.yul\":698:704   */\n      dup2\n        /* \"#utility.yul\":685:705   */\n      calldataload\n        /* \"#utility.yul\":676:705   */\n      swap1\n      pop\n        /* \"#utility.yul\":714:746   */\n      tag_411\n        /* \"#utility.yul\":740:745   */\n      dup2\n        /* \"#utility.yul\":714:746   */\n      tag_338\n      jump\t// in\n    tag_411:\n        /* \"#utility.yul\":615:752   */\n      swap3\n      swap2\n      pop\n      pop\n      jump\t// out\n        /* \"#utility.yul\":758:1085   */\n    tag_37:\n        /* \"#utility.yul\":816:822   */\n      0x00\n        /* \"#utility.yul\":865:867   */\n      0x20\n        /* \"#utility.yul\":853:862   */\n      dup3\n        /* \"#utility.yul\":844:851   */\n      dup5\n        /* \"#utility.yul\":840:863   */\n      sub\n        /* \"#utility.yul\":836:868   */\n      slt\n        /* \"#utility.yul\":833:952   */\n      iszero\n      tag_413\n      jumpi\n        /* \"#utility.yul\":871:950   */\n      tag_414\n      tag_335\n      jump\t// in\n    tag_414:\n        /* \"#utility.yul\":833:952   */\n    tag_413:\n        /* \"#utility.yul\":991:992   */\n      0x00\n        /* \"#utility.yul\":1016:1068   */\n      tag_415\n        /* \"#utility.yul\":1060:1067   */\n      dup5\n        /* \"#utility.yul\":1051:1057   */\n      dup3\n        /* \"#utility.yul\":1040:1049   */\n      dup6\n        /* \"#utility.yul\":1036:1058   */\n      add\n        /* \"#utility.yul\":1016:1068   */\n      tag_339\n      jump\t// in\n    tag_415:\n        /* \"#utility.yul\":1006:1068   */\n      swap2\n      pop\n        /* \"#utility.yul\":962:1078   */\n      pop\n        /* \"#utility.yul\":758:1085   */\n      swap3\n      swap2\n      pop\n      pop\n      jump\t// out\n        /* \"#utility.yul\":1091:1181   */\n    tag_340:\n        /* \"#utility.yul\":1125:1132   */\n      0x00\n        /* \"#utility.yul\":1168:1173   */\n      dup2\n        /* \"#utility.yul\":1161:1174   */\n      iszero\n        /* \"#utility.yul\":1154:1175   */\n      iszero\n        /* \"#utility.yul\":1143:1175   */\n      swap1\n      pop\n        /* \"#utility.yul\":1091:1181   */\n      swap2\n      swap1\n      pop\n      jump\t// out\n        /* \"#utility.yul\":1187:1296   */\n    tag_341:\n        /* \"#utility.yul\":1268:1289   */\n      tag_418\n        /* \"#utility.yul\":1283:1288   */\n      dup2\n        /* \"#utility.yul\":1268:1289   */\n      tag_340\n      jump\t// in\n    tag_418:\n        /* \"#utility.yul\":1263:1266   */\n      dup3\n        /* \"#utility.yul\":1256:1290   */\n      mstore\n        /* \"#utility.yul\":1187:1296   */\n      pop\n      pop\n      jump\t// out\n        /* \"#utility.yul\":1302:1512   */\n    tag_40:\n        /* \"#utility.yul\":1389:1393   */\n      0x00\n        /* \"#utility.yul\":1427:1429   */\n      0x20\n        /* \"#utility.yul\":1416:1425   */\n      dup3\n        /* \"#utility.yul\":1412:1430   */\n      add\n        /* \"#utility.yul\":1404:1430   */\n      swap1\n      pop\n        /* \"#utility.yul\":1440:1505   */\n      tag_420\n        /* \"#utility.yul\":1502:1503   */\n      0x00\n        /* \"#utility.yul\":1491:1500   */\n      dup4\n        /* \"#utility.yul\":1487:1504   */\n      add\n        /* \"#utility.yul\":1478:1484   */\n      dup5\n        /* \"#utility.yul\":1440:1505   */\n      tag_341\n      jump\t// in\n    tag_420:\n        /* \"#utility.yul\":1302:1512   */\n      swap3\n      swap2\n      pop\n      pop\n      jump\t// out\n        /* \"#utility.yul\":1518:1595   */\n    tag_342:\n        /* \"#utility.yul\":1555:1562   */\n      0x00\n        /* \"#utility.yul\":1584:1589   */\n      dup2\n        /* \"#utility.yul\":1573:1589   */\n      swap1\n      pop\n        /* \"#utility.yul\":1518:1595   */\n      swap2\n      swap1\n      pop\n      jump\t// out\n        /* \"#utility.yul\":1601:1723   */\n    tag_343:\n        /* \"#utility.yul\":1674:1698   */\n      tag_423\n        /* \"#utility.yul\":1692:1697   */\n      dup2\n        /* \"#utility.yul\":1674:1698   */\n      tag_342\n      jump\t// in\n    tag_423:\n        /* \"#utility.yul\":1667:1672   */\n      dup2\n        /* \"#utility.yul\":1664:1699   */\n      eq\n        /* \"#utility.yul\":1654:1717   */\n      tag_424\n      jumpi\n        /* \"#utility.yul\":1713:1714   */\n      0x00\n        /* \"#utility.yul\":1710:1711   */\n      dup1\n        /* \"#utility.yul\":1703:1715   */\n      revert\n        /* \"#utility.yul\":1654:1717   */\n    tag_424:\n        /* \"#utility.yul\":1601:1723   */\n      pop\n      jump\t// out\n        /* \"#utility.yul\":1729:1868   */\n    tag_344:\n        /* \"#utility.yul\":1775:1780   */\n      0x00\n        /* \"#utility.yul\":1813:1819   */\n      dup2\n        /* \"#utility.yul\":1800:1820   */\n      calldataload\n        /* \"#utility.yul\":1791:1820   */\n      swap1\n      pop\n        /* \"#utility.yul\":1829:1862   */\n      tag_426\n        /* \"#utility.yul\":1856:1861   */\n      dup2\n        /* \"#utility.yul\":1829:1862   */\n      tag_343\n      jump\t// in\n    tag_426:\n        /* \"#utility.yul\":1729:1868   */\n      swap3\n      swap2\n      pop\n      pop\n      jump\t// out\n        /* \"#utility.yul\":1874:2203   */\n    tag_44:\n        /* \"#utility.yul\":1933:1939   */\n      0x00\n        /* \"#utility.yul\":1982:1984   */\n      0x20\n        /* \"#utility.yul\":1970:1979   */\n      dup3\n        /* \"#utility.yul\":1961:1968   */\n      dup5\n        /* \"#utility.yul\":1957:1980   */\n      sub\n        /* \"#utility.yul\":1953:1985   */\n      slt\n        /* \"#utility.yul\":1950:2069   */\n      iszero\n      tag_428\n      jumpi\n        /* \"#utility.yul\":1988:2067   */\n      tag_429\n      tag_335\n      jump\t// in\n    tag_429:\n        /* \"#utility.yul\":1950:2069   */\n    tag_428:\n        /* \"#utility.yul\":2108:2109   */\n      0x00\n        /* \"#utility.yul\":2133:2186   */\n      tag_430\n        /* \"#utility.yul\":2178:2185   */\n      dup5\n        /* \"#utility.yul\":2169:2175   */\n      dup3\n        /* \"#utility.yul\":2158:2167   */\n      dup6\n        /* \"#utility.yul\":2154:2176   */\n      add\n        /* \"#utility.yul\":2133:2186   */\n      tag_344\n      jump\t// in\n    tag_430:\n        /* \"#utility.yul\":2123:2186   */\n      swap2\n      pop\n        /* \"#utility.yul\":2079:2196   */\n      pop\n        /* \"#utility.yul\":1874:2203   */\n      swap3\n      swap2\n      pop\n      pop\n      jump\t// out\n        /* \"#utility.yul\":2209:2327   */\n    tag_345:\n        /* \"#utility.yul\":2296:2320   */\n      tag_432\n        /* \"#utility.yul\":2314:2319   */\n      dup2\n        /* \"#utility.yul\":2296:2320   */\n      tag_342\n      jump\t// in\n    tag_432:\n        /* \"#utility.yul\":2291:2294   */\n      dup3\n        /* \"#utility.yul\":2284:2321   */\n      mstore\n        /* \"#utility.yul\":2209:2327   */\n      pop\n      pop\n      jump\t// out\n        /* \"#utility.yul\":2333:2555   */\n    tag_47:\n        /* \"#utility.yul\":2426:2430   */\n      0x00\n        /* \"#utility.yul\":2464:2466   */\n      0x20\n        /* \"#utility.yul\":2453:2462   */\n      dup3\n        /* \"#utility.yul\":2449:2467   */\n      add\n        /* \"#utility.yul\":2441:2467   */\n      swap1\n      pop\n        /* \"#utility.yul\":2477:2548   */\n      tag_434\n        /* \"#utility.yul\":2545:2546   */\n      0x00\n        /* \"#utility.yul\":2534:2543   */\n      dup4\n        /* \"#utility.yul\":2530:2547   */\n      add\n        /* \"#utility.yul\":2521:2527   */\n      dup5\n        /* \"#utility.yul\":2477:2548   */\n      tag_345\n      jump\t// in\n    tag_434:\n        /* \"#utility.yul\":2333:2555   */\n      swap3\n      swap2\n      pop\n      pop\n      jump\t// out\n        /* \"#utility.yul\":2561:2638   */\n    tag_346:\n        /* \"#utility.yul\":2598:2605   */\n      0x00\n        /* \"#utility.yul\":2627:2632   */\n      dup2\n        /* \"#utility.yul\":2616:2632   */\n      swap1\n      pop\n        /* \"#utility.yul\":2561:2638   */\n      swap2\n      swap1\n      pop\n      jump\t// out\n        /* \"#utility.yul\":2644:2762   */\n    tag_347:\n        /* \"#utility.yul\":2731:2755   */\n      tag_437\n        /* \"#utility.yul\":2749:2754   */\n      dup2\n        /* \"#utility.yul\":2731:2755   */\n      tag_346\n      jump\t// in\n    tag_437:\n        /* \"#utility.yul\":2726:2729   */\n      dup3\n        /* \"#utility.yul\":2719:2756   */\n      mstore\n        /* \"#utility.yul\":2644:2762   */\n      pop\n      pop\n      jump\t// out\n        /* \"#utility.yul\":2768:2990   */\n    tag_52:\n        /* \"#utility.yul\":2861:2865   */\n      0x00\n        /* \"#utility.yul\":2899:2901   */\n      0x20\n        /* \"#utility.yul\":2888:2897   */\n      dup3\n        /* \"#utility.yul\":2884:2902   */\n      add\n        /* \"#utility.yul\":2876:2902   */\n      swap1\n      pop\n        /* \"#utility.yul\":2912:2983   */\n      tag_439\n        /* \"#utility.yul\":2980:2981   */\n      0x00\n        /* \"#utility.yul\":2969:2978   */\n      dup4\n        /* \"#utility.yul\":2965:2982   */\n      add\n        /* \"#utility.yul\":2956:2962   */\n      dup5\n        /* \"#utility.yul\":2912:2983   */\n      tag_347\n      jump\t// in\n    tag_439:\n        /* \"#utility.yul\":2768:2990   */\n      swap3\n      swap2\n      pop\n      pop\n      jump\t// out\n        /* \"#utility.yul\":2996:3122   */\n    tag_348:\n        /* \"#utility.yul\":3033:3040   */\n      0x00\n        /* \"#utility.yul\":3073:3115   */\n      0xffffffffffffffffffffffffffffffffffffffff\n        /* \"#utility.yul\":3066:3071   */\n      dup3\n        /* \"#utility.yul\":3062:3116   */\n      and\n        /* \"#utility.yul\":3051:3116   */\n      swap1\n      pop\n        /* \"#utility.yul\":2996:3122   */\n      swap2\n      swap1\n      pop\n      jump\t// out\n        /* \"#utility.yul\":3128:3224   */\n    tag_349:\n        /* \"#utility.yul\":3165:3172   */\n      0x00\n        /* \"#utility.yul\":3194:3218   */\n      tag_442\n        /* \"#utility.yul\":3212:3217   */\n      dup3\n        /* \"#utility.yul\":3194:3218   */\n      tag_348\n      jump\t// in\n    tag_442:\n        /* \"#utility.yul\":3183:3218   */\n      swap1\n      pop\n        /* \"#utility.yul\":3128:3224   */\n      swap2\n      swap1\n      pop\n      jump\t// out\n        /* \"#utility.yul\":3230:3352   */\n    tag_350:\n        /* \"#utility.yul\":3303:3327   */\n      tag_444\n        /* \"#utility.yul\":3321:3326   */\n      dup2\n        /* \"#utility.yul\":3303:3327   */\n      tag_349\n      jump\t// in\n    tag_444:\n        /* \"#utility.yul\":3296:3301   */\n      dup2\n        /* \"#utility.yul\":3293:3328   */\n      eq\n        /* \"#utility.yul\":3283:3346   */\n      tag_445\n      jumpi\n        /* \"#utility.yul\":3342:3343   */\n      0x00\n        /* \"#utility.yul\":3339:3340   */\n      dup1\n        /* \"#utility.yul\":3332:3344   */\n      revert\n        /* \"#utility.yul\":3283:3346   */\n    tag_445:\n        /* \"#utility.yul\":3230:3352   */\n      pop\n      jump\t// out\n        /* \"#utility.yul\":3358:3497   */\n    tag_351:\n        /* \"#utility.yul\":3404:3409   */\n      0x00\n        /* \"#utility.yul\":3442:3448   */\n      dup2\n        /* \"#utility.yul\":3429:3449   */\n      calldataload\n        /* \"#utility.yul\":3420:3449   */\n      swap1\n      pop\n        /* \"#utility.yul\":3458:3491   */\n      tag_447\n        /* \"#utility.yul\":3485:3490   */\n      dup2\n        /* \"#utility.yul\":3458:3491   */\n      tag_350\n      jump\t// in\n    tag_447:\n        /* \"#utility.yul\":3358:3497   */\n      swap3\n      swap2\n      pop\n      pop\n      jump\t// out\n        /* \"#utility.yul\":3503:3977   */\n    tag_56:\n        /* \"#utility.yul\":3571:3577   */\n      0x00\n        /* \"#utility.yul\":3579:3585   */\n      dup1\n        /* \"#utility.yul\":3628:3630   */\n      0x40\n        /* \"#utility.yul\":3616:3625   */\n      dup4\n        /* \"#utility.yul\":3607:3614   */\n      dup6\n        /* \"#utility.yul\":3603:3626   */\n      sub\n        /* \"#utility.yul\":3599:3631   */\n      slt\n        /* \"#utility.yul\":3596:3715   */\n      iszero\n      tag_449\n      jumpi\n        /* \"#utility.yul\":3634:3713   */\n      tag_450\n      tag_335\n      jump\t// in\n    tag_450:\n        /* \"#utility.yul\":3596:3715   */\n    tag_449:\n        /* \"#utility.yul\":3754:3755   */\n      0x00\n        /* \"#utility.yul\":3779:3832   */\n      tag_451\n        /* \"#utility.yul\":3824:3831   */\n      dup6\n        /* \"#utility.yul\":3815:3821   */\n      dup3\n        /* \"#utility.yul\":3804:3813   */\n      dup7\n        /* \"#utility.yul\":3800:3822   */\n      add\n        /* \"#utility.yul\":3779:3832   */\n      tag_344\n      jump\t// in\n    tag_451:\n        /* \"#utility.yul\":3769:3832   */\n      swap3\n      pop\n        /* \"#utility.yul\":3725:3842   */\n      pop\n        /* \"#utility.yul\":3881:3883   */\n      0x20\n        /* \"#utility.yul\":3907:3960   */\n      tag_452\n        /* \"#utility.yul\":3952:3959   */\n      dup6\n        /* \"#utility.yul\":3943:3949   */\n      dup3\n        /* \"#utility.yul\":3932:3941   */\n      dup7\n        /* \"#utility.yul\":3928:3950   */\n      add\n        /* \"#utility.yul\":3907:3960   */\n      tag_351\n      jump\t// in\n    tag_452:\n        /* \"#utility.yul\":3897:3960   */\n      swap2\n      pop\n        /* \"#utility.yul\":3852:3970   */\n      pop\n        /* \"#utility.yul\":3503:3977   */\n      swap3\n      pop\n      swap3\n      swap1\n      pop\n      jump\t// out\n        /* \"#utility.yul\":3983:4087   */\n    tag_352:\n        /* \"#utility.yul\":4028:4035   */\n      0x00\n        /* \"#utility.yul\":4057:4081   */\n      tag_454\n        /* \"#utility.yul\":4075:4080   */\n      dup3\n        /* \"#utility.yul\":4057:4081   */\n      tag_348\n      jump\t// in\n    tag_454:\n        /* \"#utility.yul\":4046:4081   */\n      swap1\n      pop\n        /* \"#utility.yul\":3983:4087   */\n      swap2\n      swap1\n      pop\n      jump\t// out\n        /* \"#utility.yul\":4093:4235   */\n    tag_353:\n        /* \"#utility.yul\":4196:4228   */\n      tag_456\n        /* \"#utility.yul\":4222:4227   */\n      dup2\n        /* \"#utility.yul\":4196:4228   */\n      tag_352\n      jump\t// in\n    tag_456:\n        /* \"#utility.yul\":4191:4194   */\n      dup3\n        /* \"#utility.yul\":4184:4229   */\n      mstore\n        /* \"#utility.yul\":4093:4235   */\n      pop\n      pop\n      jump\t// out\n        /* \"#utility.yul\":4241:4495   */\n    tag_70:\n        /* \"#utility.yul\":4350:4354   */\n      0x00\n        /* \"#utility.yul\":4388:4390   */\n      0x20\n        /* \"#utility.yul\":4377:4386   */\n      dup3\n        /* \"#utility.yul\":4373:4391   */\n      add\n        /* \"#utility.yul\":4365:4391   */\n      swap1\n      pop\n        /* \"#utility.yul\":4401:4488   */\n      tag_458\n        /* \"#utility.yul\":4485:4486   */\n      0x00\n        /* \"#utility.yul\":4474:4483   */\n      dup4\n        /* \"#utility.yul\":4470:4487   */\n      add\n        /* \"#utility.yul\":4461:4467   */\n      dup5\n        /* \"#utility.yul\":4401:4488   */\n      tag_353\n      jump\t// in\n    tag_458:\n        /* \"#utility.yul\":4241:4495   */\n      swap3\n      swap2\n      pop\n      pop\n      jump\t// out\n        /* \"#utility.yul\":4501:4618   */\n    tag_354:\n        /* \"#utility.yul\":4610:4611   */\n      0x00\n        /* \"#utility.yul\":4607:4608   */\n      dup1\n        /* \"#utility.yul\":4600:4612   */\n      revert\n        /* \"#utility.yul\":4624:4726   */\n    tag_355:\n        /* \"#utility.yul\":4665:4671   */\n      0x00\n        /* \"#utility.yul\":4716:4718   */\n      0x1f\n        /* \"#utility.yul\":4712:4719   */\n      not\n        /* \"#utility.yul\":4707:4709   */\n      0x1f\n        /* \"#utility.yul\":4700:4705   */\n      dup4\n        /* \"#utility.yul\":4696:4710   */\n      add\n        /* \"#utility.yul\":4692:4720   */\n      and\n        /* \"#utility.yul\":4682:4720   */\n      swap1\n      pop\n        /* \"#utility.yul\":4624:4726   */\n      swap2\n      swap1\n      pop\n      jump\t// out\n        /* \"#utility.yul\":4732:4912   */\n    tag_275:\n        /* \"#utility.yul\":4780:4857   */\n      0x4e487b7100000000000000000000000000000000000000000000000000000000\n        /* \"#utility.yul\":4777:4778   */\n      0x00\n        /* \"#utility.yul\":4770:4858   */\n      mstore\n        /* \"#utility.yul\":4877:4881   */\n      0x41\n        /* \"#utility.yul\":4874:4875   */\n      0x04\n        /* \"#utility.yul\":4867:4882   */\n      mstore\n        /* \"#utility.yul\":4901:4905   */\n      0x24\n        /* \"#utility.yul\":4898:4899   */\n      0x00\n        /* \"#utility.yul\":4891:4906   */\n      revert\n        /* \"#utility.yul\":4918:5199   */\n    tag_356:\n        /* \"#utility.yul\":5001:5028   */\n      tag_463\n        /* \"#utility.yul\":5023:5027   */\n      dup3\n        /* \"#utility.yul\":5001:5028   */\n      tag_355\n      jump\t// in\n    tag_463:\n        /* \"#utility.yul\":4993:4999   */\n      dup2\n        /* \"#utility.yul\":4989:5029   */\n      add\n        /* \"#utility.yul\":5131:5137   */\n      dup2\n        /* \"#utility.yul\":5119:5129   */\n      dup2\n        /* \"#utility.yul\":5116:5138   */\n      lt\n        /* \"#utility.yul\":5095:5113   */\n      0xffffffffffffffff\n        /* \"#utility.yul\":5083:5093   */\n      dup3\n        /* \"#utility.yul\":5080:5114   */\n      gt\n        /* \"#utility.yul\":5077:5139   */\n      or\n        /* \"#utility.yul\":5074:5162   */\n      iszero\n      tag_464\n      jumpi\n        /* \"#utility.yul\":5142:5160   */\n      tag_465\n      tag_275\n      jump\t// in\n    tag_465:\n        /* \"#utility.yul\":5074:5162   */\n    tag_464:\n        /* \"#utility.yul\":5182:5192   */\n      dup1\n        /* \"#utility.yul\":5178:5180   */\n      0x40\n        /* \"#utility.yul\":5171:5193   */\n      mstore\n        /* \"#utility.yul\":4961:5199   */\n      pop\n        /* \"#utility.yul\":4918:5199   */\n      pop\n      pop\n      jump\t// out\n        /* \"#utility.yul\":5205:5334   */\n    tag_357:\n        /* \"#utility.yul\":5239:5245   */\n      0x00\n        /* \"#utility.yul\":5266:5286   */\n      tag_467\n      tag_334\n      jump\t// in\n    tag_467:\n        /* \"#utility.yul\":5256:5286   */\n      swap1\n      pop\n        /* \"#utility.yul\":5295:5328   */\n      tag_468\n        /* \"#utility.yul\":5323:5327   */\n      dup3\n        /* \"#utility.yul\":5315:5321   */\n      dup3\n        /* \"#utility.yul\":5295:5328   */\n      tag_356\n      jump\t// in\n    tag_468:\n        /* \"#utility.yul\":5205:5334   */\n      swap2\n      swap1\n      pop\n      jump\t// out\n        /* \"#utility.yul\":5340:5651   */\n    tag_358:\n        /* \"#utility.yul\":5417:5421   */\n      0x00\n        /* \"#utility.yul\":5507:5525   */\n      0xffffffffffffffff\n        /* \"#utility.yul\":5499:5505   */\n      dup3\n        /* \"#utility.yul\":5496:5526   */\n      gt\n        /* \"#utility.yul\":5493:5549   */\n      iszero\n      tag_470\n      jumpi\n        /* \"#utility.yul\":5529:5547   */\n      tag_471\n      tag_275\n      jump\t// in\n    tag_471:\n        /* \"#utility.yul\":5493:5549   */\n    tag_470:\n        /* \"#utility.yul\":5579:5583   */\n      0x20\n        /* \"#utility.yul\":5571:5577   */\n      dup3\n        /* \"#utility.yul\":5567:5584   */\n      mul\n        /* \"#utility.yul\":5559:5584   */\n      swap1\n      pop\n        /* \"#utility.yul\":5639:5643   */\n      0x20\n        /* \"#utility.yul\":5633:5637   */\n      dup2\n        /* \"#utility.yul\":5629:5644   */\n      add\n        /* \"#utility.yul\":5621:5644   */\n      swap1\n      pop\n        /* \"#utility.yul\":5340:5651   */\n      swap2\n      swap1\n      pop\n      jump\t// out\n        /* \"#utility.yul\":5657:5774   */\n    tag_359:\n        /* \"#utility.yul\":5766:5767   */\n      0x00\n        /* \"#utility.yul\":5763:5764   */\n      dup1\n        /* \"#utility.yul\":5756:5768   */\n      revert\n        /* \"#utility.yul\":5797:6507   */\n    tag_360:\n        /* \"#utility.yul\":5893:5898   */\n      0x00\n        /* \"#utility.yul\":5918:5999   */\n      tag_474\n        /* \"#utility.yul\":5934:5998   */\n      tag_475\n        /* \"#utility.yul\":5991:5997   */\n      dup5\n        /* \"#utility.yul\":5934:5998   */\n      tag_358\n      jump\t// in\n    tag_475:\n        /* \"#utility.yul\":5918:5999   */\n      tag_357\n      jump\t// in\n    tag_474:\n        /* \"#utility.yul\":5909:5999   */\n      swap1\n      pop\n        /* \"#utility.yul\":6019:6024   */\n      dup1\n        /* \"#utility.yul\":6048:6054   */\n      dup4\n        /* \"#utility.yul\":6041:6046   */\n      dup3\n        /* \"#utility.yul\":6034:6055   */\n      mstore\n        /* \"#utility.yul\":6082:6086   */\n      0x20\n        /* \"#utility.yul\":6075:6080   */\n      dup3\n        /* \"#utility.yul\":6071:6087   */\n      add\n        /* \"#utility.yul\":6064:6087   */\n      swap1\n      pop\n        /* \"#utility.yul\":6135:6139   */\n      0x20\n        /* \"#utility.yul\":6127:6133   */\n      dup5\n        /* \"#utility.yul\":6123:6140   */\n      mul\n        /* \"#utility.yul\":6115:6121   */\n      dup4\n        /* \"#utility.yul\":6111:6141   */\n      add\n        /* \"#utility.yul\":6164:6167   */\n      dup6\n        /* \"#utility.yul\":6156:6162   */\n      dup2\n        /* \"#utility.yul\":6153:6168   */\n      gt\n        /* \"#utility.yul\":6150:6272   */\n      iszero\n      tag_476\n      jumpi\n        /* \"#utility.yul\":6183:6262   */\n      tag_477\n      tag_359\n      jump\t// in\n    tag_477:\n        /* \"#utility.yul\":6150:6272   */\n    tag_476:\n        /* \"#utility.yul\":6298:6304   */\n      dup4\n        /* \"#utility.yul\":6281:6501   */\n    tag_478:\n        /* \"#utility.yul\":6315:6321   */\n      dup2\n        /* \"#utility.yul\":6310:6313   */\n      dup2\n        /* \"#utility.yul\":6307:6322   */\n      lt\n        /* \"#utility.yul\":6281:6501   */\n      iszero\n      tag_480\n      jumpi\n        /* \"#utility.yul\":6390:6393   */\n      dup1\n        /* \"#utility.yul\":6419:6456   */\n      tag_481\n        /* \"#utility.yul\":6452:6455   */\n      dup9\n        /* \"#utility.yul\":6440:6450   */\n      dup3\n        /* \"#utility.yul\":6419:6456   */\n      tag_351\n      jump\t// in\n    tag_481:\n        /* \"#utility.yul\":6414:6417   */\n      dup5\n        /* \"#utility.yul\":6407:6457   */\n      mstore\n        /* \"#utility.yul\":6486:6490   */\n      0x20\n        /* \"#utility.yul\":6481:6484   */\n      dup5\n        /* \"#utility.yul\":6477:6491   */\n      add\n        /* \"#utility.yul\":6470:6491   */\n      swap4\n      pop\n        /* \"#utility.yul\":6357:6501   */\n      pop\n        /* \"#utility.yul\":6341:6345   */\n      0x20\n        /* \"#utility.yul\":6336:6339   */\n      dup2\n        /* \"#utility.yul\":6332:6346   */\n      add\n        /* \"#utility.yul\":6325:6346   */\n      swap1\n      pop\n        /* \"#utility.yul\":6281:6501   */\n      jump(tag_478)\n    tag_480:\n        /* \"#utility.yul\":6285:6306   */\n      pop\n        /* \"#utility.yul\":5899:6507   */\n      pop\n      pop\n        /* \"#utility.yul\":5797:6507   */\n      swap4\n      swap3\n      pop\n      pop\n      pop\n      jump\t// out\n        /* \"#utility.yul\":6530:6900   */\n    tag_361:\n        /* \"#utility.yul\":6601:6606   */\n      0x00\n        /* \"#utility.yul\":6650:6653   */\n      dup3\n        /* \"#utility.yul\":6643:6647   */\n      0x1f\n        /* \"#utility.yul\":6635:6641   */\n      dup4\n        /* \"#utility.yul\":6631:6648   */\n      add\n        /* \"#utility.yul\":6627:6654   */\n      slt\n        /* \"#utility.yul\":6617:6739   */\n      tag_483\n      jumpi\n        /* \"#utility.yul\":6658:6737   */\n      tag_484\n      tag_354\n      jump\t// in\n    tag_484:\n        /* \"#utility.yul\":6617:6739   */\n    tag_483:\n        /* \"#utility.yul\":6775:6781   */\n      dup2\n        /* \"#utility.yul\":6762:6782   */\n      calldataload\n        /* \"#utility.yul\":6800:6894   */\n      tag_485\n        /* \"#utility.yul\":6890:6893   */\n      dup5\n        /* \"#utility.yul\":6882:6888   */\n      dup3\n        /* \"#utility.yul\":6875:6879   */\n      0x20\n        /* \"#utility.yul\":6867:6873   */\n      dup7\n        /* \"#utility.yul\":6863:6880   */\n      add\n        /* \"#utility.yul\":6800:6894   */\n      tag_360\n      jump\t// in\n    tag_485:\n        /* \"#utility.yul\":6791:6894   */\n      swap2\n      pop\n        /* \"#utility.yul\":6607:6900   */\n      pop\n        /* \"#utility.yul\":6530:6900   */\n      swap3\n      swap2\n      pop\n      pop\n      jump\t// out\n        /* \"#utility.yul\":6906:7445   */\n    tag_78:\n        /* \"#utility.yul\":6990:6996   */\n      0x00\n        /* \"#utility.yul\":7039:7041   */\n      0x20\n        /* \"#utility.yul\":7027:7036   */\n      dup3\n        /* \"#utility.yul\":7018:7025   */\n      dup5\n        /* \"#utility.yul\":7014:7037   */\n      sub\n        /* \"#utility.yul\":7010:7042   */\n      slt\n        /* \"#utility.yul\":7007:7126   */\n      iszero\n      tag_487\n      jumpi\n        /* \"#utility.yul\":7045:7124   */\n      tag_488\n      tag_335\n      jump\t// in\n    tag_488:\n        /* \"#utility.yul\":7007:7126   */\n    tag_487:\n        /* \"#utility.yul\":7193:7194   */\n      0x00\n        /* \"#utility.yul\":7182:7191   */\n      dup3\n        /* \"#utility.yul\":7178:7195   */\n      add\n        /* \"#utility.yul\":7165:7196   */\n      calldataload\n        /* \"#utility.yul\":7223:7241   */\n      0xffffffffffffffff\n        /* \"#utility.yul\":7215:7221   */\n      dup2\n        /* \"#utility.yul\":7212:7242   */\n      gt\n        /* \"#utility.yul\":7209:7326   */\n      iszero\n      tag_489\n      jumpi\n        /* \"#utility.yul\":7245:7324   */\n      tag_490\n      tag_336\n      jump\t// in\n    tag_490:\n        /* \"#utility.yul\":7209:7326   */\n    tag_489:\n        /* \"#utility.yul\":7350:7428   */\n      tag_491\n        /* \"#utility.yul\":7420:7427   */\n      dup5\n        /* \"#utility.yul\":7411:7417   */\n      dup3\n        /* \"#utility.yul\":7400:7409   */\n      dup6\n        /* \"#utility.yul\":7396:7418   */\n      add\n        /* \"#utility.yul\":7350:7428   */\n      tag_361\n      jump\t// in\n    tag_491:\n        /* \"#utility.yul\":7340:7428   */\n      swap2\n      pop\n        /* \"#utility.yul\":7136:7438   */\n      pop\n        /* \"#utility.yul\":6906:7445   */\n      swap3\n      swap2\n      pop\n      pop\n      jump\t// out\n        /* \"#utility.yul\":7451:7780   */\n    tag_91:\n        /* \"#utility.yul\":7510:7516   */\n      0x00\n        /* \"#utility.yul\":7559:7561   */\n      0x20\n        /* \"#utility.yul\":7547:7556   */\n      dup3\n        /* \"#utility.yul\":7538:7545   */\n      dup5\n        /* \"#utility.yul\":7534:7557   */\n      sub\n        /* \"#utility.yul\":7530:7562   */\n      slt\n        /* \"#utility.yul\":7527:7646   */\n      iszero\n      tag_493\n      jumpi\n        /* \"#utility.yul\":7565:7644   */\n      tag_494\n      tag_335\n      jump\t// in\n    tag_494:\n        /* \"#utility.yul\":7527:7646   */\n    tag_493:\n        /* \"#utility.yul\":7685:7686   */\n      0x00\n        /* \"#utility.yul\":7710:7763   */\n      tag_495\n        /* \"#utility.yul\":7755:7762   */\n      dup5\n        /* \"#utility.yul\":7746:7752   */\n      dup3\n        /* \"#utility.yul\":7735:7744   */\n      dup6\n        /* \"#utility.yul\":7731:7753   */\n      add\n        /* \"#utility.yul\":7710:7763   */\n      tag_351\n      jump\t// in\n    tag_495:\n        /* \"#utility.yul\":7700:7763   */\n      swap2\n      pop\n        /* \"#utility.yul\":7656:7773   */\n      pop\n        /* \"#utility.yul\":7451:7780   */\n      swap3\n      swap2\n      pop\n      pop\n      jump\t// out\n        /* \"#utility.yul\":7786:7846   */\n    tag_362:\n        /* \"#utility.yul\":7814:7817   */\n      0x00\n        /* \"#utility.yul\":7835:7840   */\n      dup2\n        /* \"#utility.yul\":7828:7840   */\n      swap1\n      pop\n        /* \"#utility.yul\":7786:7846   */\n      swap2\n      swap1\n      pop\n      jump\t// out\n        /* \"#utility.yul\":7852:7994   */\n    tag_363:\n        /* \"#utility.yul\":7902:7911   */\n      0x00\n        /* \"#utility.yul\":7935:7988   */\n      tag_498\n        /* \"#utility.yul\":7953:7987   */\n      tag_499\n        /* \"#utility.yul\":7962:7986   */\n      tag_500\n        /* \"#utility.yul\":7980:7985   */\n      dup5\n        /* \"#utility.yul\":7962:7986   */\n      tag_348\n      jump\t// in\n    tag_500:\n        /* \"#utility.yul\":7953:7987   */\n      tag_362\n      jump\t// in\n    tag_499:\n        /* \"#utility.yul\":7935:7988   */\n      tag_348\n      jump\t// in\n    tag_498:\n        /* \"#utility.yul\":7922:7988   */\n      swap1\n      pop\n        /* \"#utility.yul\":7852:7994   */\n      swap2\n      swap1\n      pop\n      jump\t// out\n        /* \"#utility.yul\":8000:8126   */\n    tag_364:\n        /* \"#utility.yul\":8050:8059   */\n      0x00\n        /* \"#utility.yul\":8083:8120   */\n      tag_502\n        /* \"#utility.yul\":8114:8119   */\n      dup3\n        /* \"#utility.yul\":8083:8120   */\n      tag_363\n      jump\t// in\n    tag_502:\n        /* \"#utility.yul\":8070:8120   */\n      swap1\n      pop\n        /* \"#utility.yul\":8000:8126   */\n      swap2\n      swap1\n      pop\n      jump\t// out\n        /* \"#utility.yul\":8132:8272   */\n    tag_365:\n        /* \"#utility.yul\":8196:8205   */\n      0x00\n        /* \"#utility.yul\":8229:8266   */\n      tag_504\n        /* \"#utility.yul\":8260:8265   */\n      dup3\n        /* \"#utility.yul\":8229:8266   */\n      tag_364\n      jump\t// in\n    tag_504:\n        /* \"#utility.yul\":8216:8266   */\n      swap1\n      pop\n        /* \"#utility.yul\":8132:8272   */\n      swap2\n      swap1\n      pop\n      jump\t// out\n        /* \"#utility.yul\":8278:8437   */\n    tag_366:\n        /* \"#utility.yul\":8379:8430   */\n      tag_506\n        /* \"#utility.yul\":8424:8429   */\n      dup2\n        /* \"#utility.yul\":8379:8430   */\n      tag_365\n      jump\t// in\n    tag_506:\n        /* \"#utility.yul\":8374:8377   */\n      dup3\n        /* \"#utility.yul\":8367:8431   */\n      mstore\n        /* \"#utility.yul\":8278:8437   */\n      pop\n      pop\n      jump\t// out\n        /* \"#utility.yul\":8443:8693   */\n    tag_116:\n        /* \"#utility.yul\":8550:8554   */\n      0x00\n        /* \"#utility.yul\":8588:8590   */\n      0x20\n        /* \"#utility.yul\":8577:8586   */\n      dup3\n        /* \"#utility.yul\":8573:8591   */\n      add\n        /* \"#utility.yul\":8565:8591   */\n      swap1\n      pop\n        /* \"#utility.yul\":8601:8686   */\n      tag_508\n        /* \"#utility.yul\":8683:8684   */\n      0x00\n        /* \"#utility.yul\":8672:8681   */\n      dup4\n        /* \"#utility.yul\":8668:8685   */\n      add\n        /* \"#utility.yul\":8659:8665   */\n      dup5\n        /* \"#utility.yul\":8601:8686   */\n      tag_366\n      jump\t// in\n    tag_508:\n        /* \"#utility.yul\":8443:8693   */\n      swap3\n      swap2\n      pop\n      pop\n      jump\t// out\n        /* \"#utility.yul\":8699:9031   */\n    tag_132:\n        /* \"#utility.yul\":8820:8824   */\n      0x00\n        /* \"#utility.yul\":8858:8860   */\n      0x40\n        /* \"#utility.yul\":8847:8856   */\n      dup3\n        /* \"#utility.yul\":8843:8861   */\n      add\n        /* \"#utility.yul\":8835:8861   */\n      swap1\n      pop\n        /* \"#utility.yul\":8871:8942   */\n      tag_510\n        /* \"#utility.yul\":8939:8940   */\n      0x00\n        /* \"#utility.yul\":8928:8937   */\n      dup4\n        /* \"#utility.yul\":8924:8941   */\n      add\n        /* \"#utility.yul\":8915:8921   */\n      dup6\n        /* \"#utility.yul\":8871:8942   */\n      tag_347\n      jump\t// in\n    tag_510:\n        /* \"#utility.yul\":8952:9024   */\n      tag_511\n        /* \"#utility.yul\":9020:9022   */\n      0x20\n        /* \"#utility.yul\":9009:9018   */\n      dup4\n        /* \"#utility.yul\":9005:9023   */\n      add\n        /* \"#utility.yul\":8996:9002   */\n      dup5\n        /* \"#utility.yul\":8952:9024   */\n      tag_347\n      jump\t// in\n    tag_511:\n        /* \"#utility.yul\":8699:9031   */\n      swap4\n      swap3\n      pop\n      pop\n      pop\n      jump\t// out\n        /* \"#utility.yul\":9037:9206   */\n    tag_367:\n        /* \"#utility.yul\":9121:9132   */\n      0x00\n        /* \"#utility.yul\":9155:9161   */\n      dup3\n        /* \"#utility.yul\":9150:9153   */\n      dup3\n        /* \"#utility.yul\":9143:9162   */\n      mstore\n        /* \"#utility.yul\":9195:9199   */\n      0x20\n        /* \"#utility.yul\":9190:9193   */\n      dup3\n        /* \"#utility.yul\":9186:9200   */\n      add\n        /* \"#utility.yul\":9171:9200   */\n      swap1\n      pop\n        /* \"#utility.yul\":9037:9206   */\n      swap3\n      swap2\n      pop\n      pop\n      jump\t// out\n        /* \"#utility.yul\":9212:9446   */\n    tag_368:\n        /* \"#utility.yul\":9352:9386   */\n      0x416363657373436f6e74726f6c3a2063616e206f6e6c792072656e6f756e6365\n        /* \"#utility.yul\":9348:9349   */\n      0x00\n        /* \"#utility.yul\":9340:9346   */\n      dup3\n        /* \"#utility.yul\":9336:9350   */\n      add\n        /* \"#utility.yul\":9329:9387   */\n      mstore\n        /* \"#utility.yul\":9421:9438   */\n      0x20726f6c657320666f722073656c660000000000000000000000000000000000\n        /* \"#utility.yul\":9416:9418   */\n      0x20\n        /* \"#utility.yul\":9408:9414   */\n      dup3\n        /* \"#utility.yul\":9404:9419   */\n      add\n        /* \"#utility.yul\":9397:9439   */\n      mstore\n        /* \"#utility.yul\":9212:9446   */\n      pop\n      jump\t// out\n        /* \"#utility.yul\":9452:9818   */\n    tag_369:\n        /* \"#utility.yul\":9594:9597   */\n      0x00\n        /* \"#utility.yul\":9615:9682   */\n      tag_515\n        /* \"#utility.yul\":9679:9681   */\n      0x2f\n        /* \"#utility.yul\":9674:9677   */\n      dup4\n        /* \"#utility.yul\":9615:9682   */\n      tag_367\n      jump\t// in\n    tag_515:\n        /* \"#utility.yul\":9608:9682   */\n      swap2\n      pop\n        /* \"#utility.yul\":9691:9784   */\n      tag_516\n        /* \"#utility.yul\":9780:9783   */\n      dup3\n        /* \"#utility.yul\":9691:9784   */\n      tag_368\n      jump\t// in\n    tag_516:\n        /* \"#utility.yul\":9809:9811   */\n      0x40\n        /* \"#utility.yul\":9804:9807   */\n      dup3\n        /* \"#utility.yul\":9800:9812   */\n      add\n        /* \"#utility.yul\":9793:9812   */\n      swap1\n      pop\n        /* \"#utility.yul\":9452:9818   */\n      swap2\n      swap1\n      pop\n      jump\t// out\n        /* \"#utility.yul\":9824:10243   */\n    tag_158:\n        /* \"#utility.yul\":9990:9994   */\n      0x00\n        /* \"#utility.yul\":10028:10030   */\n      0x20\n        /* \"#utility.yul\":10017:10026   */\n      dup3\n        /* \"#utility.yul\":10013:10031   */\n      add\n        /* \"#utility.yul\":10005:10031   */\n      swap1\n      pop\n        /* \"#utility.yul\":10077:10086   */\n      dup2\n        /* \"#utility.yul\":10071:10075   */\n      dup2\n        /* \"#utility.yul\":10067:10087   */\n      sub\n        /* \"#utility.yul\":10063:10064   */\n      0x00\n        /* \"#utility.yul\":10052:10061   */\n      dup4\n        /* \"#utility.yul\":10048:10065   */\n      add\n        /* \"#utility.yul\":10041:10088   */\n      mstore\n        /* \"#utility.yul\":10105:10236   */\n      tag_518\n        /* \"#utility.yul\":10231:10235   */\n      dup2\n        /* \"#utility.yul\":10105:10236   */\n      tag_369\n      jump\t// in\n    tag_518:\n        /* \"#utility.yul\":10097:10236   */\n      swap1\n      pop\n        /* \"#utility.yul\":9824:10243   */\n      swap2\n      swap1\n      pop\n      jump\t// out\n        /* \"#utility.yul\":10249:10429   */\n    tag_172:\n        /* \"#utility.yul\":10297:10374   */\n      0x4e487b7100000000000000000000000000000000000000000000000000000000\n        /* \"#utility.yul\":10294:10295   */\n      0x00\n        /* \"#utility.yul\":10287:10375   */\n      mstore\n        /* \"#utility.yul\":10394:10398   */\n      0x32\n        /* \"#utility.yul\":10391:10392   */\n      0x04\n        /* \"#utility.yul\":10384:10399   */\n      mstore\n        /* \"#utility.yul\":10418:10422   */\n      0x24\n        /* \"#utility.yul\":10415:10416   */\n      0x00\n        /* \"#utility.yul\":10408:10423   */\n      revert\n        /* \"#utility.yul\":10435:10615   */\n    tag_370:\n        /* \"#utility.yul\":10483:10560   */\n      0x4e487b7100000000000000000000000000000000000000000000000000000000\n        /* \"#utility.yul\":10480:10481   */\n      0x00\n        /* \"#utility.yul\":10473:10561   */\n      mstore\n        /* \"#utility.yul\":10580:10584   */\n      0x11\n        /* \"#utility.yul\":10577:10578   */\n      0x04\n        /* \"#utility.yul\":10570:10585   */\n      mstore\n        /* \"#utility.yul\":10604:10608   */\n      0x24\n        /* \"#utility.yul\":10601:10602   */\n      0x00\n        /* \"#utility.yul\":10594:10609   */\n      revert\n        /* \"#utility.yul\":10621:10854   */\n    tag_174:\n        /* \"#utility.yul\":10660:10663   */\n      0x00\n        /* \"#utility.yul\":10683:10707   */\n      tag_522\n        /* \"#utility.yul\":10701:10706   */\n      dup3\n        /* \"#utility.yul\":10683:10707   */\n      tag_346\n      jump\t// in\n    tag_522:\n        /* \"#utility.yul\":10674:10707   */\n      swap2\n      pop\n        /* \"#utility.yul\":10729:10795   */\n      0xffffffffffffffffffffffffffffffffffffffffffffffffffffffffffffffff\n        /* \"#utility.yul\":10722:10727   */\n      dup3\n        /* \"#utility.yul\":10719:10796   */\n      sub\n        /* \"#utility.yul\":10716:10819   */\n      tag_523\n      jumpi\n        /* \"#utility.yul\":10799:10817   */\n      tag_524\n      tag_370\n      jump\t// in\n    tag_524:\n        /* \"#utility.yul\":10716:10819   */\n    tag_523:\n        /* \"#utility.yul\":10846:10847   */\n      0x01\n        /* \"#utility.yul\":10839:10844   */\n      dup3\n        /* \"#utility.yul\":10835:10848   */\n      add\n        /* \"#utility.yul\":10828:10848   */\n      swap1\n      pop\n        /* \"#utility.yul\":10621:10854   */\n      swap2\n      swap1\n      pop\n      jump\t// out\n        /* \"#utility.yul\":10860:11041   */\n    tag_371:\n        /* \"#utility.yul\":11000:11033   */\n      0x5265656e7472616e637947756172643a207265656e7472616e742063616c6c00\n        /* \"#utility.yul\":10996:10997   */\n      0x00\n        /* \"#utility.yul\":10988:10994   */\n      dup3\n        /* \"#utility.yul\":10984:10998   */\n      add\n        /* \"#utility.yul\":10977:11034   */\n      mstore\n        /* \"#utility.yul\":10860:11041   */\n      pop\n      jump\t// out\n        /* \"#utility.yul\":11047:11413   */\n    tag_372:\n        /* \"#utility.yul\":11189:11192   */\n      0x00\n        /* \"#utility.yul\":11210:11277   */\n      tag_527\n        /* \"#utility.yul\":11274:11276   */\n      0x1f\n        /* \"#utility.yul\":11269:11272   */\n      dup4\n        /* \"#utility.yul\":11210:11277   */\n      tag_367\n      jump\t// in\n    tag_527:\n        /* \"#utility.yul\":11203:11277   */\n      swap2\n      pop\n        /* \"#utility.yul\":11286:11379   */\n      tag_528\n        /* \"#utility.yul\":11375:11378   */\n      dup3\n        /* \"#utility.yul\":11286:11379   */\n      tag_371\n      jump\t// in\n    tag_528:\n        /* \"#utility.yul\":11404:11406   */\n      0x20\n        /* \"#utility.yul\":11399:11402   */\n      dup3\n        /* \"#utility.yul\":11395:11407   */\n      add\n        /* \"#utility.yul\":11388:11407   */\n      swap1\n      pop\n        /* \"#utility.yul\":11047:11413   */\n      swap2\n      swap1\n      pop\n      jump\t// out\n        /* \"#utility.yul\":11419:11838   */\n    tag_203:\n        /* \"#utility.yul\":11585:11589   */\n      0x00\n        /* \"#utility.yul\":11623:11625   */\n      0x20\n        /* \"#utility.yul\":11612:11621   */\n      dup3\n        /* \"#utility.yul\":11608:11626   */\n      add\n        /* \"#utility.yul\":11600:11626   */\n      swap1\n      pop\n        /* \"#utility.yul\":11672:11681   */\n      dup2\n        /* \"#utility.yul\":11666:11670   */\n      dup2\n        /* \"#utility.yul\":11662:11682   */\n      sub\n        /* \"#utility.yul\":11658:11659   */\n      0x00\n        /* \"#utility.yul\":11647:11656   */\n      dup4\n        /* \"#utility.yul\":11643:11660   */\n      add\n        /* \"#utility.yul\":11636:11683   */\n      mstore\n        /* \"#utility.yul\":11700:11831   */\n      tag_530\n        /* \"#utility.yul\":11826:11830   */\n      dup2\n        /* \"#utility.yul\":11700:11831   */\n      tag_372\n      jump\t// in\n    tag_530:\n        /* \"#utility.yul\":11692:11831   */\n      swap1\n      pop\n        /* \"#utility.yul\":11419:11838   */\n      swap2\n      swap1\n      pop\n      jump\t// out\n        /* \"#utility.yul\":11844:12133   */\n    tag_373:\n        /* \"#utility.yul\":11984:12018   */\n      0x57686974656c69737443726f776473616c653a2062656e656669636961727920\n        /* \"#utility.yul\":11980:11981   */\n      0x00\n        /* \"#utility.yul\":11972:11978   */\n      dup3\n        /* \"#utility.yul\":11968:11982   */\n      add\n        /* \"#utility.yul\":11961:12019   */\n      mstore\n        /* \"#utility.yul\":12053:12087   */\n      0x646f65736e27742068617665207468652057686974656c697374656420726f6c\n        /* \"#utility.yul\":12048:12050   */\n      0x20\n        /* \"#utility.yul\":12040:12046   */\n      dup3\n        /* \"#utility.yul\":12036:12051   */\n      add\n        /* \"#utility.yul\":12029:12088   */\n      mstore\n        /* \"#utility.yul\":12122:12125   */\n      0x6500000000000000000000000000000000000000000000000000000000000000\n        /* \"#utility.yul\":12117:12119   */\n      0x40\n        /* \"#utility.yul\":12109:12115   */\n      dup3\n        /* \"#utility.yul\":12105:12120   */\n      add\n        /* \"#utility.yul\":12098:12126   */\n      mstore\n        /* \"#utility.yul\":11844:12133   */\n      pop\n      jump\t// out\n        /* \"#utility.yul\":12139:12505   */\n    tag_374:\n        /* \"#utility.yul\":12281:12284   */\n      0x00\n        /* \"#utility.yul\":12302:12369   */\n      tag_533\n        /* \"#utility.yul\":12366:12368   */\n      0x41\n        /* \"#utility.yul\":12361:12364   */\n      dup4\n        /* \"#utility.yul\":12302:12369   */\n      tag_367\n      jump\t// in\n    tag_533:\n        /* \"#utility.yul\":12295:12369   */\n      swap2\n      pop\n        /* \"#utility.yul\":12378:12471   */\n      tag_534\n        /* \"#utility.yul\":12467:12470   */\n      dup3\n        /* \"#utility.yul\":12378:12471   */\n      tag_373\n      jump\t// in\n    tag_534:\n        /* \"#utility.yul\":12496:12498   */\n      0x60\n        /* \"#utility.yul\":12491:12494   */\n      dup3\n        /* \"#utility.yul\":12487:12499   */\n      add\n        /* \"#utility.yul\":12480:12499   */\n      swap1\n      pop\n        /* \"#utility.yul\":12139:12505   */\n      swap2\n      swap1\n      pop\n      jump\t// out\n        /* \"#utility.yul\":12511:12930   */\n    tag_208:\n        /* \"#utility.yul\":12677:12681   */\n      0x00\n        /* \"#utility.yul\":12715:12717   */\n      0x20\n        /* \"#utility.yul\":12704:12713   */\n      dup3\n        /* \"#utility.yul\":12700:12718   */\n      add\n        /* \"#utility.yul\":12692:12718   */\n      swap1\n      pop\n        /* \"#utility.yul\":12764:12773   */\n      dup2\n        /* \"#utility.yul\":12758:12762   */\n      dup2\n        /* \"#utility.yul\":12754:12774   */\n      sub\n        /* \"#utility.yul\":12750:12751   */\n      0x00\n        /* \"#utility.yul\":12739:12748   */\n      dup4\n        /* \"#utility.yul\":12735:12752   */\n      add\n        /* \"#utility.yul\":12728:12775   */\n      mstore\n        /* \"#utility.yul\":12792:12923   */\n      tag_536\n        /* \"#utility.yul\":12918:12922   */\n      dup2\n        /* \"#utility.yul\":12792:12923   */\n      tag_374\n      jump\t// in\n    tag_536:\n        /* \"#utility.yul\":12784:12923   */\n      swap1\n      pop\n        /* \"#utility.yul\":12511:12930   */\n      swap2\n      swap1\n      pop\n      jump\t// out\n        /* \"#utility.yul\":12936:13127   */\n    tag_216:\n        /* \"#utility.yul\":12976:12979   */\n      0x00\n        /* \"#utility.yul\":12995:13015   */\n      tag_538\n        /* \"#utility.yul\":13013:13014   */\n      dup3\n        /* \"#utility.yul\":12995:13015   */\n      tag_346\n      jump\t// in\n    tag_538:\n        /* \"#utility.yul\":12990:13015   */\n      swap2\n      pop\n        /* \"#utility.yul\":13029:13049   */\n      tag_539\n        /* \"#utility.yul\":13047:13048   */\n      dup4\n        /* \"#utility.yul\":13029:13049   */\n      tag_346\n      jump\t// in\n    tag_539:\n        /* \"#utility.yul\":13024:13049   */\n      swap3\n      pop\n        /* \"#utility.yul\":13072:13073   */\n      dup3\n        /* \"#utility.yul\":13069:13070   */\n      dup3\n        /* \"#utility.yul\":13065:13074   */\n      add\n        /* \"#utility.yul\":13058:13074   */\n      swap1\n      pop\n        /* \"#utility.yul\":13093:13096   */\n      dup1\n        /* \"#utility.yul\":13090:13091   */\n      dup3\n        /* \"#utility.yul\":13087:13097   */\n      gt\n        /* \"#utility.yul\":13084:13120   */\n      iszero\n      tag_540\n      jumpi\n        /* \"#utility.yul\":13100:13118   */\n      tag_541\n      tag_370\n      jump\t// in\n    tag_541:\n        /* \"#utility.yul\":13084:13120   */\n    tag_540:\n        /* \"#utility.yul\":12936:13127   */\n      swap3\n      swap2\n      pop\n      pop\n      jump\t// out\n        /* \"#utility.yul\":13133:13362   */\n    tag_375:\n        /* \"#utility.yul\":13273:13307   */\n      0x43726f776473616c653a2062656e656669636961727920697320746865207a65\n        /* \"#utility.yul\":13269:13270   */\n      0x00\n        /* \"#utility.yul\":13261:13267   */\n      dup3\n        /* \"#utility.yul\":13257:13271   */\n      add\n        /* \"#utility.yul\":13250:13308   */\n      mstore\n        /* \"#utility.yul\":13342:13354   */\n      0x726f206164647265737300000000000000000000000000000000000000000000\n        /* \"#utility.yul\":13337:13339   */\n      0x20\n        /* \"#utility.yul\":13329:13335   */\n      dup3\n        /* \"#utility.yul\":13325:13340   */\n      add\n        /* \"#utility.yul\":13318:13355   */\n      mstore\n        /* \"#utility.yul\":13133:13362   */\n      pop\n      jump\t// out\n        /* \"#utility.yul\":13368:13734   */\n    tag_376:\n        /* \"#utility.yul\":13510:13513   */\n      0x00\n        /* \"#utility.yul\":13531:13598   */\n      tag_544\n        /* \"#utility.yul\":13595:13597   */\n      0x2a\n        /* \"#utility.yul\":13590:13593   */\n      dup4\n        /* \"#utility.yul\":13531:13598   */\n      tag_367\n      jump\t// in\n    tag_544:\n        /* \"#utility.yul\":13524:13598   */\n      swap2\n      pop\n        /* \"#utility.yul\":13607:13700   */\n      tag_545\n        /* \"#utility.yul\":13696:13699   */\n      dup3\n        /* \"#utility.yul\":13607:13700   */\n      tag_375\n      jump\t// in\n    tag_545:\n        /* \"#utility.yul\":13725:13727   */\n      0x40\n        /* \"#utility.yul\":13720:13723   */\n      dup3\n        /* \"#utility.yul\":13716:13728   */\n      add\n        /* \"#utility.yul\":13709:13728   */\n      swap1\n      pop\n        /* \"#utility.yul\":13368:13734   */\n      swap2\n      swap1\n      pop\n      jump\t// out\n        /* \"#utility.yul\":13740:14159   */\n    tag_242:\n        /* \"#utility.yul\":13906:13910   */\n      0x00\n        /* \"#utility.yul\":13944:13946   */\n      0x20\n        /* \"#utility.yul\":13933:13942   */\n      dup3\n        /* \"#utility.yul\":13929:13947   */\n      add\n        /* \"#utility.yul\":13921:13947   */\n      swap1\n      pop\n        /* \"#utility.yul\":13993:14002   */\n      dup2\n        /* \"#utility.yul\":13987:13991   */\n      dup2\n        /* \"#utility.yul\":13983:14003   */\n      sub\n        /* \"#utility.yul\":13979:13980   */\n      0x00\n        /* \"#utility.yul\":13968:13977   */\n      dup4\n        /* \"#utility.yul\":13964:13981   */\n      add\n        /* \"#utility.yul\":13957:14004   */\n      mstore\n        /* \"#utility.yul\":14021:14152   */\n      tag_547\n        /* \"#utility.yul\":14147:14151   */\n      dup2\n        /* \"#utility.yul\":14021:14152   */\n      tag_376\n      jump\t// in\n    tag_547:\n        /* \"#utility.yul\":14013:14152   */\n      swap1\n      pop\n        /* \"#utility.yul\":13740:14159   */\n      swap2\n      swap1\n      pop\n      jump\t// out\n        /* \"#utility.yul\":14165:14340   */\n    tag_377:\n        /* \"#utility.yul\":14305:14332   */\n      0x43726f776473616c653a20776569416d6f756e74206973203000000000000000\n        /* \"#utility.yul\":14301:14302   */\n      0x00\n        /* \"#utility.yul\":14293:14299   */\n      dup3\n        /* \"#utility.yul\":14289:14303   */\n      add\n        /* \"#utility.yul\":14282:14333   */\n      mstore\n        /* \"#utility.yul\":14165:14340   */\n      pop\n      jump\t// out\n        /* \"#utility.yul\":14346:14712   */\n    tag_378:\n        /* \"#utility.yul\":14488:14491   */\n      0x00\n        /* \"#utility.yul\":14509:14576   */\n      tag_550\n        /* \"#utility.yul\":14573:14575   */\n      0x19\n        /* \"#utility.yul\":14568:14571   */\n      dup4\n        /* \"#utility.yul\":14509:14576   */\n      tag_367\n      jump\t// in\n    tag_550:\n        /* \"#utility.yul\":14502:14576   */\n      swap2\n      pop\n        /* \"#utility.yul\":14585:14678   */\n      tag_551\n        /* \"#utility.yul\":14674:14677   */\n      dup3\n        /* \"#utility.yul\":14585:14678   */\n      tag_377\n      jump\t// in\n    tag_551:\n        /* \"#utility.yul\":14703:14705   */\n      0x20\n        /* \"#utility.yul\":14698:14701   */\n      dup3\n        /* \"#utility.yul\":14694:14706   */\n      add\n        /* \"#utility.yul\":14687:14706   */\n      swap1\n      pop\n        /* \"#utility.yul\":14346:14712   */\n      swap2\n      swap1\n      pop\n      jump\t// out\n        /* \"#utility.yul\":14718:15137   */\n    tag_245:\n        /* \"#utility.yul\":14884:14888   */\n      0x00\n        /* \"#utility.yul\":14922:14924   */\n      0x20\n        /* \"#utility.yul\":14911:14920   */\n      dup3\n        /* \"#utility.yul\":14907:14925   */\n      add\n        /* \"#utility.yul\":14899:14925   */\n      swap1\n      pop\n        /* \"#utility.yul\":14971:14980   */\n      dup2\n        /* \"#utility.yul\":14965:14969   */\n      dup2\n        /* \"#utility.yul\":14961:14981   */\n      sub\n        /* \"#utility.yul\":14957:14958   */\n      0x00\n        /* \"#utility.yul\":14946:14955   */\n      dup4\n        /* \"#utility.yul\":14942:14959   */\n      add\n        /* \"#utility.yul\":14935:14982   */\n      mstore\n        /* \"#utility.yul\":14999:15130   */\n      tag_553\n        /* \"#utility.yul\":15125:15129   */\n      dup2\n        /* \"#utility.yul\":14999:15130   */\n      tag_378\n      jump\t// in\n    tag_553:\n        /* \"#utility.yul\":14991:15130   */\n      swap1\n      pop\n        /* \"#utility.yul\":14718:15137   */\n      swap2\n      swap1\n      pop\n      jump\t// out\n        /* \"#utility.yul\":15143:15553   */\n    tag_248:\n        /* \"#utility.yul\":15183:15190   */\n      0x00\n        /* \"#utility.yul\":15206:15226   */\n      tag_555\n        /* \"#utility.yul\":15224:15225   */\n      dup3\n        /* \"#utility.yul\":15206:15226   */\n      tag_346\n      jump\t// in\n    tag_555:\n        /* \"#utility.yul\":15201:15226   */\n      swap2\n      pop\n        /* \"#utility.yul\":15240:15260   */\n      tag_556\n        /* \"#utility.yul\":15258:15259   */\n      dup4\n        /* \"#utility.yul\":15240:15260   */\n      tag_346\n      jump\t// in\n    tag_556:\n        /* \"#utility.yul\":15235:15260   */\n      swap3\n      pop\n        /* \"#utility.yul\":15295:15296   */\n      dup3\n        /* \"#utility.yul\":15292:15293   */\n      dup3\n        /* \"#utility.yul\":15288:15297   */\n      mul\n        /* \"#utility.yul\":15317:15347   */\n      tag_557\n        /* \"#utility.yul\":15335:15346   */\n      dup2\n        /* \"#utility.yul\":15317:15347   */\n      tag_346\n      jump\t// in\n    tag_557:\n        /* \"#utility.yul\":15306:15347   */\n      swap2\n      pop\n        /* \"#utility.yul\":15496:15497   */\n      dup3\n        /* \"#utility.yul\":15487:15494   */\n      dup3\n        /* \"#utility.yul\":15483:15498   */\n      div\n        /* \"#utility.yul\":15480:15481   */\n      dup5\n        /* \"#utility.yul\":15477:15499   */\n      eq\n        /* \"#utility.yul\":15457:15458   */\n      dup4\n        /* \"#utility.yul\":15450:15459   */\n      iszero\n        /* \"#utility.yul\":15430:15513   */\n      or\n        /* \"#utility.yul\":15407:15546   */\n      tag_558\n      jumpi\n        /* \"#utility.yul\":15526:15544   */\n      tag_559\n      tag_370\n      jump\t// in\n    tag_559:\n        /* \"#utility.yul\":15407:15546   */\n    tag_558:\n        /* \"#utility.yul\":15191:15553   */\n      pop\n        /* \"#utility.yul\":15143:15553   */\n      swap3\n      swap2\n      pop\n      pop\n      jump\t// out\n        /* \"#utility.yul\":15559:15707   */\n    tag_379:\n        /* \"#utility.yul\":15661:15672   */\n      0x00\n        /* \"#utility.yul\":15698:15701   */\n      dup2\n        /* \"#utility.yul\":15683:15701   */\n      swap1\n      pop\n        /* \"#utility.yul\":15559:15707   */\n      swap3\n      swap2\n      pop\n      pop\n      jump\t// out\n        /* \"#utility.yul\":15713:15886   */\n    tag_380:\n        /* \"#utility.yul\":15853:15878   */\n      0x416363657373436f6e74726f6c3a206163636f756e7420000000000000000000\n        /* \"#utility.yul\":15849:15850   */\n      0x00\n        /* \"#utility.yul\":15841:15847   */\n      dup3\n        /* \"#utility.yul\":15837:15851   */\n      add\n        /* \"#utility.yul\":15830:15879   */\n      mstore\n        /* \"#utility.yul\":15713:15886   */\n      pop\n      jump\t// out\n        /* \"#utility.yul\":15892:16294   */\n    tag_381:\n        /* \"#utility.yul\":16052:16055   */\n      0x00\n        /* \"#utility.yul\":16073:16158   */\n      tag_563\n        /* \"#utility.yul\":16155:16157   */\n      0x17\n        /* \"#utility.yul\":16150:16153   */\n      dup4\n        /* \"#utility.yul\":16073:16158   */\n      tag_379\n      jump\t// in\n    tag_563:\n        /* \"#utility.yul\":16066:16158   */\n      swap2\n      pop\n        /* \"#utility.yul\":16167:16260   */\n      tag_564\n        /* \"#utility.yul\":16256:16259   */\n      dup3\n        /* \"#utility.yul\":16167:16260   */\n      tag_380\n      jump\t// in\n    tag_564:\n        /* \"#utility.yul\":16285:16287   */\n      0x17\n        /* \"#utility.yul\":16280:16283   */\n      dup3\n        /* \"#utility.yul\":16276:16288   */\n      add\n        /* \"#utility.yul\":16269:16288   */\n      swap1\n      pop\n        /* \"#utility.yul\":15892:16294   */\n      swap2\n      swap1\n      pop\n      jump\t// out\n        /* \"#utility.yul\":16300:16399   */\n    tag_382:\n        /* \"#utility.yul\":16352:16358   */\n      0x00\n        /* \"#utility.yul\":16386:16391   */\n      dup2\n        /* \"#utility.yul\":16380:16392   */\n      mload\n        /* \"#utility.yul\":16370:16392   */\n      swap1\n      pop\n        /* \"#utility.yul\":16300:16399   */\n      swap2\n      swap1\n      pop\n      jump\t// out\n        /* \"#utility.yul\":16405:16651   */\n    tag_383:\n        /* \"#utility.yul\":16486:16487   */\n      0x00\n        /* \"#utility.yul\":16496:16609   */\n    tag_567:\n        /* \"#utility.yul\":16510:16516   */\n      dup4\n        /* \"#utility.yul\":16507:16508   */\n      dup2\n        /* \"#utility.yul\":16504:16517   */\n      lt\n        /* \"#utility.yul\":16496:16609   */\n      iszero\n      tag_569\n      jumpi\n        /* \"#utility.yul\":16595:16596   */\n      dup1\n        /* \"#utility.yul\":16590:16593   */\n      dup3\n        /* \"#utility.yul\":16586:16597   */\n      add\n        /* \"#utility.yul\":16580:16598   */\n      mload\n        /* \"#utility.yul\":16576:16577   */\n      dup2\n        /* \"#utility.yul\":16571:16574   */\n      dup5\n        /* \"#utility.yul\":16567:16578   */\n      add\n        /* \"#utility.yul\":16560:16599   */\n      mstore\n        /* \"#utility.yul\":16532:16534   */\n      0x20\n        /* \"#utility.yul\":16529:16530   */\n      dup2\n        /* \"#utility.yul\":16525:16535   */\n      add\n        /* \"#utility.yul\":16520:16535   */\n      swap1\n      pop\n        /* \"#utility.yul\":16496:16609   */\n      jump(tag_567)\n    tag_569:\n        /* \"#utility.yul\":16643:16644   */\n      0x00\n        /* \"#utility.yul\":16634:16640   */\n      dup5\n        /* \"#utility.yul\":16629:16632   */\n      dup5\n        /* \"#utility.yul\":16625:16641   */\n      add\n        /* \"#utility.yul\":16618:16645   */\n      mstore\n        /* \"#utility.yul\":16467:16651   */\n      pop\n        /* \"#utility.yul\":16405:16651   */\n      pop\n      pop\n      pop\n      jump\t// out\n        /* \"#utility.yul\":16657:17047   */\n    tag_384:\n        /* \"#utility.yul\":16763:16766   */\n      0x00\n        /* \"#utility.yul\":16791:16830   */\n      tag_571\n        /* \"#utility.yul\":16824:16829   */\n      dup3\n        /* \"#utility.yul\":16791:16830   */\n      tag_382\n      jump\t// in\n    tag_571:\n        /* \"#utility.yul\":16846:16935   */\n      tag_572\n        /* \"#utility.yul\":16928:16934   */\n      dup2\n        /* \"#utility.yul\":16923:16926   */\n      dup6\n        /* \"#utility.yul\":16846:16935   */\n      tag_379\n      jump\t// in\n    tag_572:\n        /* \"#utility.yul\":16839:16935   */\n      swap4\n      pop\n        /* \"#utility.yul\":16944:17009   */\n      tag_573\n        /* \"#utility.yul\":17002:17008   */\n      dup2\n        /* \"#utility.yul\":16997:17000   */\n      dup6\n        /* \"#utility.yul\":16990:16994   */\n      0x20\n        /* \"#utility.yul\":16983:16988   */\n      dup7\n        /* \"#utility.yul\":16979:16995   */\n      add\n        /* \"#utility.yul\":16944:17009   */\n      tag_383\n      jump\t// in\n    tag_573:\n        /* \"#utility.yul\":17034:17040   */\n      dup1\n        /* \"#utility.yul\":17029:17032   */\n      dup5\n        /* \"#utility.yul\":17025:17041   */\n      add\n        /* \"#utility.yul\":17018:17041   */\n      swap2\n      pop\n        /* \"#utility.yul\":16767:17047   */\n      pop\n        /* \"#utility.yul\":16657:17047   */\n      swap3\n      swap2\n      pop\n      pop\n      jump\t// out\n        /* \"#utility.yul\":17053:17220   */\n    tag_385:\n        /* \"#utility.yul\":17193:17212   */\n      0x206973206d697373696e6720726f6c6520000000000000000000000000000000\n        /* \"#utility.yul\":17189:17190   */\n      0x00\n        /* \"#utility.yul\":17181:17187   */\n      dup3\n        /* \"#utility.yul\":17177:17191   */\n      add\n        /* \"#utility.yul\":17170:17213   */\n      mstore\n        /* \"#utility.yul\":17053:17220   */\n      pop\n      jump\t// out\n        /* \"#utility.yul\":17226:17628   */\n    tag_386:\n        /* \"#utility.yul\":17386:17389   */\n      0x00\n        /* \"#utility.yul\":17407:17492   */\n      tag_576\n        /* \"#utility.yul\":17489:17491   */\n      0x11\n        /* \"#utility.yul\":17484:17487   */\n      dup4\n        /* \"#utility.yul\":17407:17492   */\n      tag_379\n      jump\t// in\n    tag_576:\n        /* \"#utility.yul\":17400:17492   */\n      swap2\n      pop\n        /* \"#utility.yul\":17501:17594   */\n      tag_577\n        /* \"#utility.yul\":17590:17593   */\n      dup3\n        /* \"#utility.yul\":17501:17594   */\n      tag_385\n      jump\t// in\n    tag_577:\n        /* \"#utility.yul\":17619:17621   */\n      0x11\n        /* \"#utility.yul\":17614:17617   */\n      dup3\n        /* \"#utility.yul\":17610:17622   */\n      add\n        /* \"#utility.yul\":17603:17622   */\n      swap1\n      pop\n        /* \"#utility.yul\":17226:17628   */\n      swap2\n      swap1\n      pop\n      jump\t// out\n        /* \"#utility.yul\":17634:18601   */\n    tag_260:\n        /* \"#utility.yul\":18016:18019   */\n      0x00\n        /* \"#utility.yul\":18038:18186   */\n      tag_579\n        /* \"#utility.yul\":18182:18185   */\n      dup3\n        /* \"#utility.yul\":18038:18186   */\n      tag_381\n      jump\t// in\n    tag_579:\n        /* \"#utility.yul\":18031:18186   */\n      swap2\n      pop\n        /* \"#utility.yul\":18203:18298   */\n      tag_580\n        /* \"#utility.yul\":18294:18297   */\n      dup3\n        /* \"#utility.yul\":18285:18291   */\n      dup6\n        /* \"#utility.yul\":18203:18298   */\n      tag_384\n      jump\t// in\n    tag_580:\n        /* \"#utility.yul\":18196:18298   */\n      swap2\n      pop\n        /* \"#utility.yul\":18315:18463   */\n      tag_581\n        /* \"#utility.yul\":18459:18462   */\n      dup3\n        /* \"#utility.yul\":18315:18463   */\n      tag_386\n      jump\t// in\n    tag_581:\n        /* \"#utility.yul\":18308:18463   */\n      swap2\n      pop\n        /* \"#utility.yul\":18480:18575   */\n      tag_582\n        /* \"#utility.yul\":18571:18574   */\n      dup3\n        /* \"#utility.yul\":18562:18568   */\n      dup5\n        /* \"#utility.yul\":18480:18575   */\n      tag_384\n      jump\t// in\n    tag_582:\n        /* \"#utility.yul\":18473:18575   */\n      swap2\n      pop\n        /* \"#utility.yul\":18592:18595   */\n      dup2\n        /* \"#utility.yul\":18585:18595   */\n      swap1\n      pop\n        /* \"#utility.yul\":17634:18601   */\n      swap4\n      swap3\n      pop\n      pop\n      pop\n      jump\t// out\n        /* \"#utility.yul\":18607:18984   */\n    tag_387:\n        /* \"#utility.yul\":18695:18698   */\n      0x00\n        /* \"#utility.yul\":18723:18762   */\n      tag_584\n        /* \"#utility.yul\":18756:18761   */\n      dup3\n        /* \"#utility.yul\":18723:18762   */\n      tag_382\n      jump\t// in\n    tag_584:\n        /* \"#utility.yul\":18778:18849   */\n      tag_585\n        /* \"#utility.yul\":18842:18848   */\n      dup2\n        /* \"#utility.yul\":18837:18840   */\n      dup6\n        /* \"#utility.yul\":18778:18849   */\n      tag_367\n      jump\t// in\n    tag_585:\n        /* \"#utility.yul\":18771:18849   */\n      swap4\n      pop\n        /* \"#utility.yul\":18858:18923   */\n      tag_586\n        /* \"#utility.yul\":18916:18922   */\n      dup2\n        /* \"#utility.yul\":18911:18914   */\n      dup6\n        /* \"#utility.yul\":18904:18908   */\n      0x20\n        /* \"#utility.yul\":18897:18902   */\n      dup7\n        /* \"#utility.yul\":18893:18909   */\n      add\n        /* \"#utility.yul\":18858:18923   */\n      tag_383\n      jump\t// in\n    tag_586:\n        /* \"#utility.yul\":18948:18977   */\n      tag_587\n        /* \"#utility.yul\":18970:18976   */\n      dup2\n        /* \"#utility.yul\":18948:18977   */\n      tag_355\n      jump\t// in\n    tag_587:\n        /* \"#utility.yul\":18943:18946   */\n      dup5\n        /* \"#utility.yul\":18939:18978   */\n      add\n        /* \"#utility.yul\":18932:18978   */\n      swap2\n      pop\n        /* \"#utility.yul\":18699:18984   */\n      pop\n        /* \"#utility.yul\":18607:18984   */\n      swap3\n      swap2\n      pop\n      pop\n      jump\t// out\n        /* \"#utility.yul\":18990:19303   */\n    tag_262:\n        /* \"#utility.yul\":19103:19107   */\n      0x00\n        /* \"#utility.yul\":19141:19143   */\n      0x20\n        /* \"#utility.yul\":19130:19139   */\n      dup3\n        /* \"#utility.yul\":19126:19144   */\n      add\n        /* \"#utility.yul\":19118:19144   */\n      swap1\n      pop\n        /* \"#utility.yul\":19190:19199   */\n      dup2\n        /* \"#utility.yul\":19184:19188   */\n      dup2\n        /* \"#utility.yul\":19180:19200   */\n      sub\n        /* \"#utility.yul\":19176:19177   */\n      0x00\n        /* \"#utility.yul\":19165:19174   */\n      dup4\n        /* \"#utility.yul\":19161:19178   */\n      add\n        /* \"#utility.yul\":19154:19201   */\n      mstore\n        /* \"#utility.yul\":19218:19296   */\n      tag_589\n        /* \"#utility.yul\":19291:19295   */\n      dup2\n        /* \"#utility.yul\":19282:19288   */\n      dup5\n        /* \"#utility.yul\":19218:19296   */\n      tag_387\n      jump\t// in\n    tag_589:\n        /* \"#utility.yul\":19210:19296   */\n      swap1\n      pop\n        /* \"#utility.yul\":18990:19303   */\n      swap3\n      swap2\n      pop\n      pop\n      jump\t// out\n        /* \"#utility.yul\":19309:19427   */\n    tag_388:\n        /* \"#utility.yul\":19396:19420   */\n      tag_591\n        /* \"#utility.yul\":19414:19419   */\n      dup2\n        /* \"#utility.yul\":19396:19420   */\n      tag_349\n      jump\t// in\n    tag_591:\n        /* \"#utility.yul\":19391:19394   */\n      dup3\n        /* \"#utility.yul\":19384:19421   */\n      mstore\n        /* \"#utility.yul\":19309:19427   */\n      pop\n      pop\n      jump\t// out\n        /* \"#utility.yul\":19433:19765   */\n    tag_266:\n        /* \"#utility.yul\":19554:19558   */\n      0x00\n        /* \"#utility.yul\":19592:19594   */\n      0x40\n        /* \"#utility.yul\":19581:19590   */\n      dup3\n        /* \"#utility.yul\":19577:19595   */\n      add\n        /* \"#utility.yul\":19569:19595   */\n      swap1\n      pop\n        /* \"#utility.yul\":19605:19676   */\n      tag_593\n        /* \"#utility.yul\":19673:19674   */\n      0x00\n        /* \"#utility.yul\":19662:19671   */\n      dup4\n        /* \"#utility.yul\":19658:19675   */\n      add\n        /* \"#utility.yul\":19649:19655   */\n      dup6\n        /* \"#utility.yul\":19605:19676   */\n      tag_388\n      jump\t// in\n    tag_593:\n        /* \"#utility.yul\":19686:19758   */\n      tag_594\n        /* \"#utility.yul\":19754:19756   */\n      0x20\n        /* \"#utility.yul\":19743:19752   */\n      dup4\n        /* \"#utility.yul\":19739:19757   */\n      add\n        /* \"#utility.yul\":19730:19736   */\n      dup5\n        /* \"#utility.yul\":19686:19758   */\n      tag_347\n      jump\t// in\n    tag_594:\n        /* \"#utility.yul\":19433:19765   */\n      swap4\n      swap3\n      pop\n      pop\n      pop\n      jump\t// out\n        /* \"#utility.yul\":19771:19942   */\n    tag_291:\n        /* \"#utility.yul\":19810:19813   */\n      0x00\n        /* \"#utility.yul\":19833:19857   */\n      tag_596\n        /* \"#utility.yul\":19851:19856   */\n      dup3\n        /* \"#utility.yul\":19833:19857   */\n      tag_346\n      jump\t// in\n    tag_596:\n        /* \"#utility.yul\":19824:19857   */\n      swap2\n      pop\n        /* \"#utility.yul\":19879:19883   */\n      0x00\n        /* \"#utility.yul\":19872:19877   */\n      dup3\n        /* \"#utility.yul\":19869:19884   */\n      sub\n        /* \"#utility.yul\":19866:19907   */\n      tag_597\n      jumpi\n        /* \"#utility.yul\":19887:19905   */\n      tag_598\n      tag_370\n      jump\t// in\n    tag_598:\n        /* \"#utility.yul\":19866:19907   */\n    tag_597:\n        /* \"#utility.yul\":19934:19935   */\n      0x01\n        /* \"#utility.yul\":19927:19932   */\n      dup3\n        /* \"#utility.yul\":19923:19936   */\n      sub\n        /* \"#utility.yul\":19916:19936   */\n      swap1\n      pop\n        /* \"#utility.yul\":19771:19942   */\n      swap2\n      swap1\n      pop\n      jump\t// out\n        /* \"#utility.yul\":19948:20130   */\n    tag_389:\n        /* \"#utility.yul\":20088:20122   */\n      0x537472696e67733a20686578206c656e67746820696e73756666696369656e74\n        /* \"#utility.yul\":20084:20085   */\n      0x00\n        /* \"#utility.yul\":20076:20082   */\n      dup3\n        /* \"#utility.yul\":20072:20086   */\n      add\n        /* \"#utility.yul\":20065:20123   */\n      mstore\n        /* \"#utility.yul\":19948:20130   */\n      pop\n      jump\t// out\n        /* \"#utility.yul\":20136:20502   */\n    tag_390:\n        /* \"#utility.yul\":20278:20281   */\n      0x00\n        /* \"#utility.yul\":20299:20366   */\n      tag_601\n        /* \"#utility.yul\":20363:20365   */\n      0x20\n        /* \"#utility.yul\":20358:20361   */\n      dup4\n        /* \"#utility.yul\":20299:20366   */\n      tag_367\n      jump\t// in\n    tag_601:\n        /* \"#utility.yul\":20292:20366   */\n      swap2\n      pop\n        /* \"#utility.yul\":20375:20468   */\n      tag_602\n        /* \"#utility.yul\":20464:20467   */\n      dup3\n        /* \"#utility.yul\":20375:20468   */\n      tag_389\n      jump\t// in\n    tag_602:\n        /* \"#utility.yul\":20493:20495   */\n      0x20\n        /* \"#utility.yul\":20488:20491   */\n      dup3\n        /* \"#utility.yul\":20484:20496   */\n      add\n        /* \"#utility.yul\":20477:20496   */\n      swap1\n      pop\n        /* \"#utility.yul\":20136:20502   */\n      swap2\n      swap1\n      pop\n      jump\t// out\n        /* \"#utility.yul\":20508:20927   */\n    tag_294:\n        /* \"#utility.yul\":20674:20678   */\n      0x00\n        /* \"#utility.yul\":20712:20714   */\n      0x20\n        /* \"#utility.yul\":20701:20710   */\n      dup3\n        /* \"#utility.yul\":20697:20715   */\n      add\n        /* \"#utility.yul\":20689:20715   */\n      swap1\n      pop\n        /* \"#utility.yul\":20761:20770   */\n      dup2\n        /* \"#utility.yul\":20755:20759   */\n      dup2\n        /* \"#utility.yul\":20751:20771   */\n      sub\n        /* \"#utility.yul\":20747:20748   */\n      0x00\n        /* \"#utility.yul\":20736:20745   */\n      dup4\n        /* \"#utility.yul\":20732:20749   */\n      add\n        /* \"#utility.yul\":20725:20772   */\n      mstore\n        /* \"#utility.yul\":20789:20920   */\n      tag_604\n        /* \"#utility.yul\":20915:20919   */\n      dup2\n        /* \"#utility.yul\":20789:20920   */\n      tag_390\n      jump\t// in\n    tag_604:\n        /* \"#utility.yul\":20781:20920   */\n      swap1\n      pop\n        /* \"#utility.yul\":20508:20927   */\n      swap2\n      swap1\n      pop\n      jump\t// out\n        /* \"#utility.yul\":20933:21049   */\n    tag_391:\n        /* \"#utility.yul\":21003:21024   */\n      tag_606\n        /* \"#utility.yul\":21018:21023   */\n      dup2\n        /* \"#utility.yul\":21003:21024   */\n      tag_340\n      jump\t// in\n    tag_606:\n        /* \"#utility.yul\":20996:21001   */\n      dup2\n        /* \"#utility.yul\":20993:21025   */\n      eq\n        /* \"#utility.yul\":20983:21043   */\n      tag_607\n      jumpi\n        /* \"#utility.yul\":21039:21040   */\n      0x00\n        /* \"#utility.yul\":21036:21037   */\n      dup1\n        /* \"#utility.yul\":21029:21041   */\n      revert\n        /* \"#utility.yul\":20983:21043   */\n    tag_607:\n        /* \"#utility.yul\":20933:21049   */\n      pop\n      jump\t// out\n        /* \"#utility.yul\":21055:21192   */\n    tag_392:\n        /* \"#utility.yul\":21109:21114   */\n      0x00\n        /* \"#utility.yul\":21140:21146   */\n      dup2\n        /* \"#utility.yul\":21134:21147   */\n      mload\n        /* \"#utility.yul\":21125:21147   */\n      swap1\n      pop\n        /* \"#utility.yul\":21156:21186   */\n      tag_609\n        /* \"#utility.yul\":21180:21185   */\n      dup2\n        /* \"#utility.yul\":21156:21186   */\n      tag_391\n      jump\t// in\n    tag_609:\n        /* \"#utility.yul\":21055:21192   */\n      swap3\n      swap2\n      pop\n      pop\n      jump\t// out\n        /* \"#utility.yul\":21198:21543   */\n    tag_300:\n        /* \"#utility.yul\":21265:21271   */\n      0x00\n        /* \"#utility.yul\":21314:21316   */\n      0x20\n        /* \"#utility.yul\":21302:21311   */\n      dup3\n        /* \"#utility.yul\":21293:21300   */\n      dup5\n        /* \"#utility.yul\":21289:21312   */\n      sub\n        /* \"#utility.yul\":21285:21317   */\n      slt\n        /* \"#utility.yul\":21282:21401   */\n      iszero\n      tag_611\n      jumpi\n        /* \"#utility.yul\":21320:21399   */\n      tag_612\n      tag_335\n      jump\t// in\n    tag_612:\n        /* \"#utility.yul\":21282:21401   */\n    tag_611:\n        /* \"#utility.yul\":21440:21441   */\n      0x00\n        /* \"#utility.yul\":21465:21526   */\n      tag_613\n        /* \"#utility.yul\":21518:21525   */\n      dup5\n        /* \"#utility.yul\":21509:21515   */\n      dup3\n        /* \"#utility.yul\":21498:21507   */\n      dup6\n        /* \"#utility.yul\":21494:21516   */\n      add\n        /* \"#utility.yul\":21465:21526   */\n      tag_392\n      jump\t// in\n    tag_613:\n        /* \"#utility.yul\":21455:21526   */\n      swap2\n      pop\n        /* \"#utility.yul\":21411:21536   */\n      pop\n        /* \"#utility.yul\":21198:21543   */\n      swap3\n      swap2\n      pop\n      pop\n      jump\t// out\n        /* \"#utility.yul\":21549:21778   */\n    tag_393:\n        /* \"#utility.yul\":21689:21723   */\n      0x5361666545524332303a204552433230206f7065726174696f6e20646964206e\n        /* \"#utility.yul\":21685:21686   */\n      0x00\n        /* \"#utility.yul\":21677:21683   */\n      dup3\n        /* \"#utility.yul\":21673:21687   */\n      add\n        /* \"#utility.yul\":21666:21724   */\n      mstore\n        /* \"#utility.yul\":21758:21770   */\n      0x6f74207375636365656400000000000000000000000000000000000000000000\n        /* \"#utility.yul\":21753:21755   */\n      0x20\n        /* \"#utility.yul\":21745:21751   */\n      dup3\n        /* \"#utility.yul\":21741:21756   */\n      add\n        /* \"#utility.yul\":21734:21771   */\n      mstore\n        /* \"#utility.yul\":21549:21778   */\n      pop\n      jump\t// out\n        /* \"#utility.yul\":21784:22150   */\n    tag_394:\n        /* \"#utility.yul\":21926:21929   */\n      0x00\n        /* \"#utility.yul\":21947:22014   */\n      tag_616\n        /* \"#utility.yul\":22011:22013   */\n      0x2a\n        /* \"#utility.yul\":22006:22009   */\n      dup4\n        /* \"#utility.yul\":21947:22014   */\n      tag_367\n      jump\t// in\n    tag_616:\n        /* \"#utility.yul\":21940:22014   */\n      swap2\n      pop\n        /* \"#utility.yul\":22023:22116   */\n      tag_617\n        /* \"#utility.yul\":22112:22115   */\n      dup3\n        /* \"#utility.yul\":22023:22116   */\n      tag_393\n      jump\t// in\n    tag_617:\n        /* \"#utility.yul\":22141:22143   */\n      0x40\n        /* \"#utility.yul\":22136:22139   */\n      dup3\n        /* \"#utility.yul\":22132:22144   */\n      add\n        /* \"#utility.yul\":22125:22144   */\n      swap1\n      pop\n        /* \"#utility.yul\":21784:22150   */\n      swap2\n      swap1\n      pop\n      jump\t// out\n        /* \"#utility.yul\":22156:22575   */\n    tag_303:\n        /* \"#utility.yul\":22322:22326   */\n      0x00\n        /* \"#utility.yul\":22360:22362   */\n      0x20\n        /* \"#utility.yul\":22349:22358   */\n      dup3\n        /* \"#utility.yul\":22345:22363   */\n      add\n        /* \"#utility.yul\":22337:22363   */\n      swap1\n      pop\n        /* \"#utility.yul\":22409:22418   */\n      dup2\n        /* \"#utility.yul\":22403:22407   */\n      dup2\n        /* \"#utility.yul\":22399:22419   */\n      sub\n        /* \"#utility.yul\":22395:22396   */\n      0x00\n        /* \"#utility.yul\":22384:22393   */\n      dup4\n        /* \"#utility.yul\":22380:22397   */\n      add\n        /* \"#utility.yul\":22373:22420   */\n      mstore\n        /* \"#utility.yul\":22437:22568   */\n      tag_619\n        /* \"#utility.yul\":22563:22567   */\n      dup2\n        /* \"#utility.yul\":22437:22568   */\n      tag_394\n      jump\t// in\n    tag_619:\n        /* \"#utility.yul\":22429:22568   */\n      swap1\n      pop\n        /* \"#utility.yul\":22156:22575   */\n      swap2\n      swap1\n      pop\n      jump\t// out\n        /* \"#utility.yul\":22581:22806   */\n    tag_395:\n        /* \"#utility.yul\":22721:22755   */\n      0x416464726573733a20696e73756666696369656e742062616c616e636520666f\n        /* \"#utility.yul\":22717:22718   */\n      0x00\n        /* \"#utility.yul\":22709:22715   */\n      dup3\n        /* \"#utility.yul\":22705:22719   */\n      add\n        /* \"#utility.yul\":22698:22756   */\n      mstore\n        /* \"#utility.yul\":22790:22798   */\n      0x722063616c6c0000000000000000000000000000000000000000000000000000\n        /* \"#utility.yul\":22785:22787   */\n      0x20\n        /* \"#utility.yul\":22777:22783   */\n      dup3\n        /* \"#utility.yul\":22773:22788   */\n      add\n        /* \"#utility.yul\":22766:22799   */\n      mstore\n        /* \"#utility.yul\":22581:22806   */\n      pop\n      jump\t// out\n        /* \"#utility.yul\":22812:23178   */\n    tag_396:\n        /* \"#utility.yul\":22954:22957   */\n      0x00\n        /* \"#utility.yul\":22975:23042   */\n      tag_622\n        /* \"#utility.yul\":23039:23041   */\n      0x26\n        /* \"#utility.yul\":23034:23037   */\n      dup4\n        /* \"#utility.yul\":22975:23042   */\n      tag_367\n      jump\t// in\n    tag_622:\n        /* \"#utility.yul\":22968:23042   */\n      swap2\n      pop\n        /* \"#utility.yul\":23051:23144   */\n      tag_623\n        /* \"#utility.yul\":23140:23143   */\n      dup3\n        /* \"#utility.yul\":23051:23144   */\n      tag_395\n      jump\t// in\n    tag_623:\n        /* \"#utility.yul\":23169:23171   */\n      0x40\n        /* \"#utility.yul\":23164:23167   */\n      dup3\n        /* \"#utility.yul\":23160:23172   */\n      add\n        /* \"#utility.yul\":23153:23172   */\n      swap1\n      pop\n        /* \"#utility.yul\":22812:23178   */\n      swap2\n      swap1\n      pop\n      jump\t// out\n        /* \"#utility.yul\":23184:23603   */\n    tag_310:\n        /* \"#utility.yul\":23350:23354   */\n      0x00\n        /* \"#utility.yul\":23388:23390   */\n      0x20\n        /* \"#utility.yul\":23377:23386   */\n      dup3\n        /* \"#utility.yul\":23373:23391   */\n      add\n        /* \"#utility.yul\":23365:23391   */\n      swap1\n      pop\n        /* \"#utility.yul\":23437:23446   */\n      dup2\n        /* \"#utility.yul\":23431:23435   */\n      dup2\n        /* \"#utility.yul\":23427:23447   */\n      sub\n        /* \"#utility.yul\":23423:23424   */\n      0x00\n        /* \"#utility.yul\":23412:23421   */\n      dup4\n        /* \"#utility.yul\":23408:23425   */\n      add\n        /* \"#utility.yul\":23401:23448   */\n      mstore\n        /* \"#utility.yul\":23465:23596   */\n      tag_625\n        /* \"#utility.yul\":23591:23595   */\n      dup2\n        /* \"#utility.yul\":23465:23596   */\n      tag_396\n      jump\t// in\n    tag_625:\n        /* \"#utility.yul\":23457:23596   */\n      swap1\n      pop\n        /* \"#utility.yul\":23184:23603   */\n      swap2\n      swap1\n      pop\n      jump\t// out\n        /* \"#utility.yul\":23609:23707   */\n    tag_397:\n        /* \"#utility.yul\":23660:23666   */\n      0x00\n        /* \"#utility.yul\":23694:23699   */\n      dup2\n        /* \"#utility.yul\":23688:23700   */\n      mload\n        /* \"#utility.yul\":23678:23700   */\n      swap1\n      pop\n        /* \"#utility.yul\":23609:23707   */\n      swap2\n      swap1\n      pop\n      jump\t// out\n        /* \"#utility.yul\":23713:23860   */\n    tag_398:\n        /* \"#utility.yul\":23814:23825   */\n      0x00\n        /* \"#utility.yul\":23851:23854   */\n      dup2\n        /* \"#utility.yul\":23836:23854   */\n      swap1\n      pop\n        /* \"#utility.yul\":23713:23860   */\n      swap3\n      swap2\n      pop\n      pop\n      jump\t// out\n        /* \"#utility.yul\":23866:24252   */\n    tag_399:\n        /* \"#utility.yul\":23970:23973   */\n      0x00\n        /* \"#utility.yul\":23998:24036   */\n      tag_629\n        /* \"#utility.yul\":24030:24035   */\n      dup3\n        /* \"#utility.yul\":23998:24036   */\n      tag_397\n      jump\t// in\n    tag_629:\n        /* \"#utility.yul\":24052:24140   */\n      tag_630\n        /* \"#utility.yul\":24133:24139   */\n      dup2\n        /* \"#utility.yul\":24128:24131   */\n      dup6\n        /* \"#utility.yul\":24052:24140   */\n      tag_398\n      jump\t// in\n    tag_630:\n        /* \"#utility.yul\":24045:24140   */\n      swap4\n      pop\n        /* \"#utility.yul\":24149:24214   */\n      tag_631\n        /* \"#utility.yul\":24207:24213   */\n      dup2\n        /* \"#utility.yul\":24202:24205   */\n      dup6\n        /* \"#utility.yul\":24195:24199   */\n      0x20\n        /* \"#utility.yul\":24188:24193   */\n      dup7\n        /* \"#utility.yul\":24184:24200   */\n      add\n        /* \"#utility.yul\":24149:24214   */\n      tag_383\n      jump\t// in\n    tag_631:\n        /* \"#utility.yul\":24239:24245   */\n      dup1\n        /* \"#utility.yul\":24234:24237   */\n      dup5\n        /* \"#utility.yul\":24230:24246   */\n      add\n        /* \"#utility.yul\":24223:24246   */\n      swap2\n      pop\n        /* \"#utility.yul\":23974:24252   */\n      pop\n        /* \"#utility.yul\":23866:24252   */\n      swap3\n      swap2\n      pop\n      pop\n      jump\t// out\n        /* \"#utility.yul\":24258:24529   */\n    tag_312:\n        /* \"#utility.yul\":24388:24391   */\n      0x00\n        /* \"#utility.yul\":24410:24503   */\n      tag_633\n        /* \"#utility.yul\":24499:24502   */\n      dup3\n        /* \"#utility.yul\":24490:24496   */\n      dup5\n        /* \"#utility.yul\":24410:24503   */\n      tag_399\n      jump\t// in\n    tag_633:\n        /* \"#utility.yul\":24403:24503   */\n      swap2\n      pop\n        /* \"#utility.yul\":24520:24523   */\n      dup2\n        /* \"#utility.yul\":24513:24523   */\n      swap1\n      pop\n        /* \"#utility.yul\":24258:24529   */\n      swap3\n      swap2\n      pop\n      pop\n      jump\t// out\n        /* \"#utility.yul\":24535:24714   */\n    tag_400:\n        /* \"#utility.yul\":24675:24706   */\n      0x416464726573733a2063616c6c20746f206e6f6e2d636f6e7472616374000000\n        /* \"#utility.yul\":24671:24672   */\n      0x00\n        /* \"#utility.yul\":24663:24669   */\n      dup3\n        /* \"#utility.yul\":24659:24673   */\n      add\n        /* \"#utility.yul\":24652:24707   */\n      mstore\n        /* \"#utility.yul\":24535:24714   */\n      pop\n      jump\t// out\n        /* \"#utility.yul\":24720:25086   */\n    tag_401:\n        /* \"#utility.yul\":24862:24865   */\n      0x00\n        /* \"#utility.yul\":24883:24950   */\n      tag_636\n        /* \"#utility.yul\":24947:24949   */\n      0x1d\n        /* \"#utility.yul\":24942:24945   */\n      dup4\n        /* \"#utility.yul\":24883:24950   */\n      tag_367\n      jump\t// in\n    tag_636:\n        /* \"#utility.yul\":24876:24950   */\n      swap2\n      pop\n        /* \"#utility.yul\":24959:25052   */\n      tag_637\n        /* \"#utility.yul\":25048:25051   */\n      dup3\n        /* \"#utility.yul\":24959:25052   */\n      tag_400\n      jump\t// in\n    tag_637:\n        /* \"#utility.yul\":25077:25079   */\n      0x20\n        /* \"#utility.yul\":25072:25075   */\n      dup3\n        /* \"#utility.yul\":25068:25080   */\n      add\n        /* \"#utility.yul\":25061:25080   */\n      swap1\n      pop\n        /* \"#utility.yul\":24720:25086   */\n      swap2\n      swap1\n      pop\n      jump\t// out\n        /* \"#utility.yul\":25092:25511   */\n    tag_325:\n        /* \"#utility.yul\":25258:25262   */\n      0x00\n        /* \"#utility.yul\":25296:25298   */\n      0x20\n        /* \"#utility.yul\":25285:25294   */\n      dup3\n        /* \"#utility.yul\":25281:25299   */\n      add\n        /* \"#utility.yul\":25273:25299   */\n      swap1\n      pop\n        /* \"#utility.yul\":25345:25354   */\n      dup2\n        /* \"#utility.yul\":25339:25343   */\n      dup2\n        /* \"#utility.yul\":25335:25355   */\n      sub\n        /* \"#utility.yul\":25331:25332   */\n      0x00\n        /* \"#utility.yul\":25320:25329   */\n      dup4\n        /* \"#utility.yul\":25316:25333   */\n      add\n        /* \"#utility.yul\":25309:25356   */\n      mstore\n        /* \"#utility.yul\":25373:25504   */\n      tag_639\n        /* \"#utility.yul\":25499:25503   */\n      dup2\n        /* \"#utility.yul\":25373:25504   */\n      tag_401\n      jump\t// in\n    tag_639:\n        /* \"#utility.yul\":25365:25504   */\n      swap1\n      pop\n        /* \"#utility.yul\":25092:25511   */\n      swap2\n      swap1\n      pop\n      jump\t// out\n\n    auxdata: 0xa2646970667358221220dd6984b3055296cee63dd0000b353c663d64c1e6bb869555be435a9371d5634d64736f6c63430008150033\n}\n",
				"bytecode": {
					"linkReferences": {},
					"object": "608060405234801562000010575f80fd5b50604051620027b9380380620027b9833981810160405281019062000036919062000457565b82828260015f819055505f831162000085576040517f08c379a00000000000000000000000000000000000000000000000000000000081526004016200007c906200050e565b60405180910390fd5b5f73ffffffffffffffffffffffffffffffffffffffff168273ffffffffffffffffffffffffffffffffffffffff1603620000f6576040517f08c379a0000000000000000000000000000000000000000000000000000000008152600401620000ed90620005a2565b60405180910390fd5b5f73ffffffffffffffffffffffffffffffffffffffff168173ffffffffffffffffffffffffffffffffffffffff160362000167576040517f08c379a00000000000000000000000000000000000000000000000000000000081526004016200015e9062000636565b60405180910390fd5b826003819055508160025f6101000a81548173ffffffffffffffffffffffffffffffffffffffff021916908373ffffffffffffffffffffffffffffffffffffffff1602179055508060015f6101000a81548173ffffffffffffffffffffffffffffffffffffffff021916908373ffffffffffffffffffffffffffffffffffffffff160217905550505050620002055f801b836200020e60201b60201c565b50505062000656565b620002208282620002fa60201b60201c565b620002f657600160055f8481526020019081526020015f205f015f8373ffffffffffffffffffffffffffffffffffffffff1673ffffffffffffffffffffffffffffffffffffffff1681526020019081526020015f205f6101000a81548160ff0219169083151502179055506200029b6200035e60201b60201c565b73ffffffffffffffffffffffffffffffffffffffff168173ffffffffffffffffffffffffffffffffffffffff16837f2f8788117e7eff1d82e926ec794901d17c78024a50270940304540a733656f0d60405160405180910390a45b5050565b5f60055f8481526020019081526020015f205f015f8373ffffffffffffffffffffffffffffffffffffffff1673ffffffffffffffffffffffffffffffffffffffff1681526020019081526020015f205f9054906101000a900460ff16905092915050565b5f33905090565b5f80fd5b5f819050919050565b6200037d8162000369565b811462000388575f80fd5b50565b5f815190506200039b8162000372565b92915050565b5f73ffffffffffffffffffffffffffffffffffffffff82169050919050565b5f620003cc82620003a1565b9050919050565b620003de81620003c0565b8114620003e9575f80fd5b50565b5f81519050620003fc81620003d3565b92915050565b5f6200040e82620003a1565b9050919050565b5f620004218262000402565b9050919050565b620004338162000415565b81146200043e575f80fd5b50565b5f81519050620004518162000428565b92915050565b5f805f6060848603121562000471576200047062000365565b5b5f62000480868287016200038b565b93505060206200049386828701620003ec565b9250506040620004a68682870162000441565b9150509250925092565b5f82825260208201905092915050565b7f43726f776473616c653a207261746520697320300000000000000000000000005f82015250565b5f620004f6601483620004b0565b91506200050382620004c0565b602082019050919050565b5f6020820190508181035f8301526200052781620004e8565b9050919050565b7f43726f776473616c653a2077616c6c657420697320746865207a65726f2061645f8201527f6472657373000000000000000000000000000000000000000000000000000000602082015250565b5f6200058a602583620004b0565b915062000597826200052e565b604082019050919050565b5f6020820190508181035f830152620005bb816200057c565b9050919050565b7f43726f776473616c653a20746f6b656e20697320746865207a65726f206164645f8201527f7265737300000000000000000000000000000000000000000000000000000000602082015250565b5f6200061e602483620004b0565b91506200062b82620005c2565b604082019050919050565b5f6020820190508181035f8301526200064f8162000610565b9050919050565b61215580620006645f395ff3fe60806040526004361061010c575f3560e01c80637a3226ec11610094578063a217fddf11610063578063a217fddf14610383578063d547741f146103ad578063e43252d7146103d5578063ec8ac4d8146103fd578063fc0c546a1461041957610123565b80637a3226ec146102cd5780637f649783146102f75780638ab1d6811461031f57806391d148541461034757610123565b806336568abe116100db57806336568abe146101ff5780634042b66f14610227578063521eb2731461025157806354202c4e1461027b578063548db174146102a557610123565b806301ffc9a714610135578063248a9ca3146101715780632c4e722e146101ad5780632f2ff15d146101d757610123565b366101235761012161011c610443565b61044a565b005b61013361012e610443565b61044a565b005b348015610140575f80fd5b5061015b6004803603810190610156919061148e565b610528565b60405161016891906114d3565b60405180910390f35b34801561017c575f80fd5b506101976004803603810190610192919061151f565b6105a1565b6040516101a49190611559565b60405180910390f35b3480156101b8575f80fd5b506101c16105be565b6040516101ce919061158a565b60405180910390f35b3480156101e2575f80fd5b506101fd60048036038101906101f891906115fd565b6105c7565b005b34801561020a575f80fd5b50610225600480360381019061022091906115fd565b6105e8565b005b348015610232575f80fd5b5061023b61066b565b604051610248919061158a565b60405180910390f35b34801561025c575f80fd5b50610265610674565b604051610272919061165b565b60405180910390f35b348015610286575f80fd5b5061028f61069c565b60405161029c9190611559565b60405180910390f35b3480156102b0575f80fd5b506102cb60048036038101906102c691906117c4565b6106c0565b005b3480156102d8575f80fd5b506102e1610751565b6040516102ee9190611559565b60405180910390f35b348015610302575f80fd5b5061031d600480360381019061031891906117c4565b610775565b005b34801561032a575f80fd5b506103456004803603810190610340919061180b565b610806565b005b348015610352575f80fd5b5061036d600480360381019061036891906115fd565b61085e565b60405161037a91906114d3565b60405180910390f35b34801561038e575f80fd5b506103976108c2565b6040516103a49190611559565b60405180910390f35b3480156103b8575f80fd5b506103d360048036038101906103ce91906115fd565b6108c8565b005b3480156103e0575f80fd5b506103fb60048036038101906103f6919061180b565b6108e9565b005b6104176004803603810190610412919061180b565b61044a565b005b348015610424575f80fd5b5061042d610941565b60405161043a9190611891565b60405180910390f35b5f33905090565b610452610969565b5f34905061046082826109b6565b5f61046a82610a2d565b905061048182600454610a4a90919063ffffffff16565b6004819055506104918382610a5f565b8273ffffffffffffffffffffffffffffffffffffffff166104b0610443565b73ffffffffffffffffffffffffffffffffffffffff167f6faf93231a456e552dbc9961f58d9713ee4f2e69d15f1975b050ef0911053a7b84846040516104f79291906118aa565b60405180910390a36105098383610a6d565b610511610a71565b61051b8383610ad8565b5050610525610adc565b50565b5f7f7965db0b000000000000000000000000000000000000000000000000000000007bffffffffffffffffffffffffffffffffffffffffffffffffffffffff1916827bffffffffffffffffffffffffffffffffffffffffffffffffffffffff1916148061059a575061059982610ae5565b5b9050919050565b5f60055f8381526020019081526020015f20600101549050919050565b5f600354905090565b6105d0826105a1565b6105d981610b4e565b6105e38383610b62565b505050565b6105f0610443565b73ffffffffffffffffffffffffffffffffffffffff168173ffffffffffffffffffffffffffffffffffffffff161461065d576040517f08c379a000000000000000000000000000000000000000000000000000000000815260040161065490611951565b60405180910390fd5b6106678282610c3d565b5050565b5f600454905090565b5f60025f9054906101000a900473ffffffffffffffffffffffffffffffffffffffff16905090565b7f28f5a99355973cc89255b8c4ac88405f27c78ded7608b040ee77a8bdf44d15e281565b7f28f5a99355973cc89255b8c4ac88405f27c78ded7608b040ee77a8bdf44d15e26106ea81610b4e565b5f5b825181101561074c576107397f8429d542926e6695b59ac6fbdcd9b37e8b1aeb757afab06ab60b1bb5878c3b4984838151811061072c5761072b61196f565b5b6020026020010151610c3d565b8080610744906119c9565b9150506106ec565b505050565b7f8429d542926e6695b59ac6fbdcd9b37e8b1aeb757afab06ab60b1bb5878c3b4981565b7f28f5a99355973cc89255b8c4ac88405f27c78ded7608b040ee77a8bdf44d15e261079f81610b4e565b5f5b8251811015610801576107ee7f8429d542926e6695b59ac6fbdcd9b37e8b1aeb757afab06ab60b1bb5878c3b498483815181106107e1576107e061196f565b5b6020026020010151610b62565b80806107f9906119c9565b9150506107a1565b505050565b7f28f5a99355973cc89255b8c4ac88405f27c78ded7608b040ee77a8bdf44d15e261083081610b4e565b61085a7f8429d542926e6695b59ac6fbdcd9b37e8b1aeb757afab06ab60b1bb5878c3b4983610c3d565b5050565b5f60055f8481526020019081526020015f205f015f8373ffffffffffffffffffffffffffffffffffffffff1673ffffffffffffffffffffffffffffffffffffffff1681526020019081526020015f205f9054906101000a900460ff16905092915050565b5f801b81565b6108d1826105a1565b6108da81610b4e565b6108e48383610c3d565b505050565b7f28f5a99355973cc89255b8c4ac88405f27c78ded7608b040ee77a8bdf44d15e261091381610b4e565b61093d7f8429d542926e6695b59ac6fbdcd9b37e8b1aeb757afab06ab60b1bb5878c3b4983610b62565b5050565b5f60015f9054906101000a900473ffffffffffffffffffffffffffffffffffffffff16905090565b60025f54036109ad576040517f08c379a00000000000000000000000000000000000000000000000000000000081526004016109a490611a5a565b60405180910390fd5b60025f81905550565b6109e07f8429d542926e6695b59ac6fbdcd9b37e8b1aeb757afab06ab60b1bb5878c3b498361085e565b610a1f576040517f08c379a0000000000000000000000000000000000000000000000000000000008152600401610a1690611b0e565b60405180910390fd5b610a298282610d18565b5050565b5f610a4360035483610dcc90919063ffffffff16565b9050919050565b5f8183610a579190611b2c565b905092915050565b610a698282610de1565b5050565b5050565b60025f9054906101000a900473ffffffffffffffffffffffffffffffffffffffff1673ffffffffffffffffffffffffffffffffffffffff166108fc3490811502906040515f60405180830381858888f19350505050158015610ad5573d5f803e3d5ffd5b50565b5050565b60015f81905550565b5f7f01ffc9a7000000000000000000000000000000000000000000000000000000007bffffffffffffffffffffffffffffffffffffffffffffffffffffffff1916827bffffffffffffffffffffffffffffffffffffffffffffffffffffffff1916149050919050565b610b5f81610b5a610443565b610e31565b50565b610b6c828261085e565b610c3957600160055f8481526020019081526020015f205f015f8373ffffffffffffffffffffffffffffffffffffffff1673ffffffffffffffffffffffffffffffffffffffff1681526020019081526020015f205f6101000a81548160ff021916908315150217905550610bde610443565b73ffffffffffffffffffffffffffffffffffffffff168173ffffffffffffffffffffffffffffffffffffffff16837f2f8788117e7eff1d82e926ec794901d17c78024a50270940304540a733656f0d60405160405180910390a45b5050565b610c47828261085e565b15610d14575f60055f8481526020019081526020015f205f015f8373ffffffffffffffffffffffffffffffffffffffff1673ffffffffffffffffffffffffffffffffffffffff1681526020019081526020015f205f6101000a81548160ff021916908315150217905550610cb9610443565b73ffffffffffffffffffffffffffffffffffffffff168173ffffffffffffffffffffffffffffffffffffffff16837ff6391f5c32d9c69d2a47ea670b442974b53935d1edc7fd64eb21e047a839171b60405160405180910390a45b5050565b5f73ffffffffffffffffffffffffffffffffffffffff168273ffffffffffffffffffffffffffffffffffffffff1603610d86576040517f08c379a0000000000000000000000000000000000000000000000000000000008152600401610d7d90611bcf565b60405180910390fd5b5f8103610dc8576040517f08c379a0000000000000000000000000000000000000000000000000000000008152600401610dbf90611c37565b60405180910390fd5b5050565b5f8183610dd99190611c55565b905092915050565b610e2d828260015f9054906101000a900473ffffffffffffffffffffffffffffffffffffffff1673ffffffffffffffffffffffffffffffffffffffff16610eb59092919063ffffffff16565b5050565b610e3b828261085e565b610eb157610e4881610f3b565b610e55835f1c6020610f68565b604051602001610e66929190611d96565b6040516020818303038152906040526040517f08c379a0000000000000000000000000000000000000000000000000000000008152600401610ea89190611e07565b60405180910390fd5b5050565b610f368363a9059cbb60e01b8484604051602401610ed4929190611e36565b604051602081830303815290604052907bffffffffffffffffffffffffffffffffffffffffffffffffffffffff19166020820180517bffffffffffffffffffffffffffffffffffffffffffffffffffffffff838183161783525050505061119d565b505050565b6060610f618273ffffffffffffffffffffffffffffffffffffffff16601460ff16610f68565b9050919050565b60605f6002836002610f7a9190611c55565b610f849190611b2c565b67ffffffffffffffff811115610f9d57610f9c611688565b5b6040519080825280601f01601f191660200182016040528015610fcf5781602001600182028036833780820191505090505b5090507f3000000000000000000000000000000000000000000000000000000000000000815f815181106110065761100561196f565b5b60200101907effffffffffffffffffffffffffffffffffffffffffffffffffffffffffffff191690815f1a9053507f7800000000000000000000000000000000000000000000000000000000000000816001815181106110695761106861196f565b5b60200101907effffffffffffffffffffffffffffffffffffffffffffffffffffffffffffff191690815f1a9053505f60018460026110a79190611c55565b6110b19190611b2c565b90505b6001811115611150577f3031323334353637383961626364656600000000000000000000000000000000600f8616601081106110f3576110f261196f565b5b1a60f81b82828151811061110a5761110961196f565b5b60200101907effffffffffffffffffffffffffffffffffffffffffffffffffffffffffffff191690815f1a905350600485901c94508061114990611e5d565b90506110b4565b505f8414611193576040517f08c379a000000000000000000000000000000000000000000000000000000000815260040161118a90611ece565b60405180910390fd5b8091505092915050565b5f6111fe826040518060400160405280602081526020017f5361666545524332303a206c6f772d6c6576656c2063616c6c206661696c65648152508573ffffffffffffffffffffffffffffffffffffffff166112639092919063ffffffff16565b90505f8151148061121f57508080602001905181019061121e9190611f16565b5b61125e576040517f08c379a000000000000000000000000000000000000000000000000000000000815260040161125590611fb1565b60405180910390fd5b505050565b606061127184845f8561127a565b90509392505050565b6060824710156112bf576040517f08c379a00000000000000000000000000000000000000000000000000000000081526004016112b69061203f565b60405180910390fd5b5f808673ffffffffffffffffffffffffffffffffffffffff1685876040516112e791906120a1565b5f6040518083038185875af1925050503d805f8114611321576040519150601f19603f3d011682016040523d82523d5f602084013e611326565b606091505b509150915061133787838387611343565b92505050949350505050565b606083156113a4575f83510361139c5761135c856113b7565b61139b576040517f08c379a000000000000000000000000000000000000000000000000000000000815260040161139290612101565b60405180910390fd5b5b8290506113af565b6113ae83836113d9565b5b949350505050565b5f808273ffffffffffffffffffffffffffffffffffffffff163b119050919050565b5f825111156113eb5781518083602001fd5b806040517f08c379a000000000000000000000000000000000000000000000000000000000815260040161141f9190611e07565b60405180910390fd5b5f604051905090565b5f80fd5b5f80fd5b5f7fffffffff0000000000000000000000000000000000000000000000000000000082169050919050565b61146d81611439565b8114611477575f80fd5b50565b5f8135905061148881611464565b92915050565b5f602082840312156114a3576114a2611431565b5b5f6114b08482850161147a565b91505092915050565b5f8115159050919050565b6114cd816114b9565b82525050565b5f6020820190506114e65f8301846114c4565b92915050565b5f819050919050565b6114fe816114ec565b8114611508575f80fd5b50565b5f81359050611519816114f5565b92915050565b5f6020828403121561153457611533611431565b5b5f6115418482850161150b565b91505092915050565b611553816114ec565b82525050565b5f60208201905061156c5f83018461154a565b92915050565b5f819050919050565b61158481611572565b82525050565b5f60208201905061159d5f83018461157b565b92915050565b5f73ffffffffffffffffffffffffffffffffffffffff82169050919050565b5f6115cc826115a3565b9050919050565b6115dc816115c2565b81146115e6575f80fd5b50565b5f813590506115f7816115d3565b92915050565b5f806040838503121561161357611612611431565b5b5f6116208582860161150b565b9250506020611631858286016115e9565b9150509250929050565b5f611645826115a3565b9050919050565b6116558161163b565b82525050565b5f60208201905061166e5f83018461164c565b92915050565b5f80fd5b5f601f19601f8301169050919050565b7f4e487b71000000000000000000000000000000000000000000000000000000005f52604160045260245ffd5b6116be82611678565b810181811067ffffffffffffffff821117156116dd576116dc611688565b5b80604052505050565b5f6116ef611428565b90506116fb82826116b5565b919050565b5f67ffffffffffffffff82111561171a57611719611688565b5b602082029050602081019050919050565b5f80fd5b5f61174161173c84611700565b6116e6565b905080838252602082019050602084028301858111156117645761176361172b565b5b835b8181101561178d578061177988826115e9565b845260208401935050602081019050611766565b5050509392505050565b5f82601f8301126117ab576117aa611674565b5b81356117bb84826020860161172f565b91505092915050565b5f602082840312156117d9576117d8611431565b5b5f82013567ffffffffffffffff8111156117f6576117f5611435565b5b61180284828501611797565b91505092915050565b5f602082840312156118205761181f611431565b5b5f61182d848285016115e9565b91505092915050565b5f819050919050565b5f61185961185461184f846115a3565b611836565b6115a3565b9050919050565b5f61186a8261183f565b9050919050565b5f61187b82611860565b9050919050565b61188b81611871565b82525050565b5f6020820190506118a45f830184611882565b92915050565b5f6040820190506118bd5f83018561157b565b6118ca602083018461157b565b9392505050565b5f82825260208201905092915050565b7f416363657373436f6e74726f6c3a2063616e206f6e6c792072656e6f756e63655f8201527f20726f6c657320666f722073656c660000000000000000000000000000000000602082015250565b5f61193b602f836118d1565b9150611946826118e1565b604082019050919050565b5f6020820190508181035f8301526119688161192f565b9050919050565b7f4e487b71000000000000000000000000000000000000000000000000000000005f52603260045260245ffd5b7f4e487b71000000000000000000000000000000000000000000000000000000005f52601160045260245ffd5b5f6119d382611572565b91507fffffffffffffffffffffffffffffffffffffffffffffffffffffffffffffffff8203611a0557611a0461199c565b5b600182019050919050565b7f5265656e7472616e637947756172643a207265656e7472616e742063616c6c005f82015250565b5f611a44601f836118d1565b9150611a4f82611a10565b602082019050919050565b5f6020820190508181035f830152611a7181611a38565b9050919050565b7f57686974656c69737443726f776473616c653a2062656e6566696369617279205f8201527f646f65736e27742068617665207468652057686974656c697374656420726f6c60208201527f6500000000000000000000000000000000000000000000000000000000000000604082015250565b5f611af86041836118d1565b9150611b0382611a78565b606082019050919050565b5f6020820190508181035f830152611b2581611aec565b9050919050565b5f611b3682611572565b9150611b4183611572565b9250828201905080821115611b5957611b5861199c565b5b92915050565b7f43726f776473616c653a2062656e656669636961727920697320746865207a655f8201527f726f206164647265737300000000000000000000000000000000000000000000602082015250565b5f611bb9602a836118d1565b9150611bc482611b5f565b604082019050919050565b5f6020820190508181035f830152611be681611bad565b9050919050565b7f43726f776473616c653a20776569416d6f756e742069732030000000000000005f82015250565b5f611c216019836118d1565b9150611c2c82611bed565b602082019050919050565b5f6020820190508181035f830152611c4e81611c15565b9050919050565b5f611c5f82611572565b9150611c6a83611572565b9250828202611c7881611572565b91508282048414831517611c8f57611c8e61199c565b5b5092915050565b5f81905092915050565b7f416363657373436f6e74726f6c3a206163636f756e74200000000000000000005f82015250565b5f611cd4601783611c96565b9150611cdf82611ca0565b601782019050919050565b5f81519050919050565b5f5b83811015611d11578082015181840152602081019050611cf6565b5f8484015250505050565b5f611d2682611cea565b611d308185611c96565b9350611d40818560208601611cf4565b80840191505092915050565b7f206973206d697373696e6720726f6c65200000000000000000000000000000005f82015250565b5f611d80601183611c96565b9150611d8b82611d4c565b601182019050919050565b5f611da082611cc8565b9150611dac8285611d1c565b9150611db782611d74565b9150611dc38284611d1c565b91508190509392505050565b5f611dd982611cea565b611de381856118d1565b9350611df3818560208601611cf4565b611dfc81611678565b840191505092915050565b5f6020820190508181035f830152611e1f8184611dcf565b905092915050565b611e30816115c2565b82525050565b5f604082019050611e495f830185611e27565b611e56602083018461157b565b9392505050565b5f611e6782611572565b91505f8203611e7957611e7861199c565b5b600182039050919050565b7f537472696e67733a20686578206c656e67746820696e73756666696369656e745f82015250565b5f611eb86020836118d1565b9150611ec382611e84565b602082019050919050565b5f6020820190508181035f830152611ee581611eac565b9050919050565b611ef5816114b9565b8114611eff575f80fd5b50565b5f81519050611f1081611eec565b92915050565b5f60208284031215611f2b57611f2a611431565b5b5f611f3884828501611f02565b91505092915050565b7f5361666545524332303a204552433230206f7065726174696f6e20646964206e5f8201527f6f74207375636365656400000000000000000000000000000000000000000000602082015250565b5f611f9b602a836118d1565b9150611fa682611f41565b604082019050919050565b5f6020820190508181035f830152611fc881611f8f565b9050919050565b7f416464726573733a20696e73756666696369656e742062616c616e636520666f5f8201527f722063616c6c0000000000000000000000000000000000000000000000000000602082015250565b5f6120296026836118d1565b915061203482611fcf565b604082019050919050565b5f6020820190508181035f8301526120568161201d565b9050919050565b5f81519050919050565b5f81905092915050565b5f61207b8261205d565b6120858185612067565b9350612095818560208601611cf4565b80840191505092915050565b5f6120ac8284612071565b915081905092915050565b7f416464726573733a2063616c6c20746f206e6f6e2d636f6e74726163740000005f82015250565b5f6120eb601d836118d1565b91506120f6826120b7565b602082019050919050565b5f6020820190508181035f830152612118816120df565b905091905056fea2646970667358221220dd6984b3055296cee63dd0000b353c663d64c1e6bb869555be435a9371d5634d64736f6c63430008150033",
					"opcodes": "PUSH1 0x80 PUSH1 0x40 MSTORE CALLVALUE DUP1 ISZERO PUSH3 0x10 JUMPI PUSH0 DUP1 REVERT JUMPDEST POP PUSH1 0x40 MLOAD PUSH3 0x27B9 CODESIZE SUB DUP1 PUSH3 0x27B9 DUP4 CODECOPY DUP2 DUP2 ADD PUSH1 0x40 MSTORE DUP2 ADD SWAP1 PUSH3 0x36 SWAP2 SWAP1 PUSH3 0x457 JUMP JUMPDEST DUP3 DUP3 DUP3 PUSH1 0x1 PUSH0 DUP2 SWAP1 SSTORE POP PUSH0 DUP4 GT PUSH3 0x85 JUMPI PUSH1 0x40 MLOAD PUSH32 0x8C379A000000000000000000000000000000000000000000000000000000000 DUP2 MSTORE PUSH1 0x4 ADD PUSH3 0x7C SWAP1 PUSH3 0x50E JUMP JUMPDEST PUSH1 0x40 MLOAD DUP1 SWAP2 SUB SWAP1 REVERT JUMPDEST PUSH0 PUSH20 0xFFFFFFFFFFFFFFFFFFFFFFFFFFFFFFFFFFFFFFFF AND DUP3 PUSH20 0xFFFFFFFFFFFFFFFFFFFFFFFFFFFFFFFFFFFFFFFF AND SUB PUSH3 0xF6 JUMPI PUSH1 0x40 MLOAD PUSH32 0x8C379A000000000000000000000000000000000000000000000000000000000 DUP2 MSTORE PUSH1 0x4 ADD PUSH3 0xED SWAP1 PUSH3 0x5A2 JUMP JUMPDEST PUSH1 0x40 MLOAD DUP1 SWAP2 SUB SWAP1 REVERT JUMPDEST PUSH0 PUSH20 0xFFFFFFFFFFFFFFFFFFFFFFFFFFFFFFFFFFFFFFFF AND DUP2 PUSH20 0xFFFFFFFFFFFFFFFFFFFFFFFFFFFFFFFFFFFFFFFF AND SUB PUSH3 0x167 JUMPI PUSH1 0x40 MLOAD PUSH32 0x8C379A000000000000000000000000000000000000000000000000000000000 DUP2 MSTORE PUSH1 0x4 ADD PUSH3 0x15E SWAP1 PUSH3 0x636 JUMP JUMPDEST PUSH1 0x40 MLOAD DUP1 SWAP2 SUB SWAP1 REVERT JUMPDEST DUP3 PUSH1 0x3 DUP2 SWAP1 SSTORE POP DUP2 PUSH1 0x2 PUSH0 PUSH2 0x100 EXP DUP2 SLOAD DUP2 PUSH20 0xFFFFFFFFFFFFFFFFFFFFFFFFFFFFFFFFFFFFFFFF MUL NOT AND SWAP1 DUP4 PUSH20 0xFFFFFFFFFFFFFFFFFFFFFFFFFFFFFFFFFFFFFFFF AND MUL OR SWAP1 SSTORE POP DUP1 PUSH1 0x1 PUSH0 PUSH2 0x100 EXP DUP2 SLOAD DUP2 PUSH20 0xFFFFFFFFFFFFFFFFFFFFFFFFFFFFFFFFFFFFFFFF MUL NOT AND SWAP1 DUP4 PUSH20 0xFFFFFFFFFFFFFFFFFFFFFFFFFFFFFFFFFFFFFFFF AND MUL OR SWAP1 SSTORE POP POP POP POP PUSH3 0x205 PUSH0 DUP1 SHL DUP4 PUSH3 0x20E PUSH1 0x20 SHL PUSH1 0x20 SHR JUMP JUMPDEST POP POP POP PUSH3 0x656 JUMP JUMPDEST PUSH3 0x220 DUP3 DUP3 PUSH3 0x2FA PUSH1 0x20 SHL PUSH1 0x20 SHR JUMP JUMPDEST PUSH3 0x2F6 JUMPI PUSH1 0x1 PUSH1 0x5 PUSH0 DUP5 DUP2 MSTORE PUSH1 0x20 ADD SWAP1 DUP2 MSTORE PUSH1 0x20 ADD PUSH0 KECCAK256 PUSH0 ADD PUSH0 DUP4 PUSH20 0xFFFFFFFFFFFFFFFFFFFFFFFFFFFFFFFFFFFFFFFF AND PUSH20 0xFFFFFFFFFFFFFFFFFFFFFFFFFFFFFFFFFFFFFFFF AND DUP2 MSTORE PUSH1 0x20 ADD SWAP1 DUP2 MSTORE PUSH1 0x20 ADD PUSH0 KECCAK256 PUSH0 PUSH2 0x100 EXP DUP2 SLOAD DUP2 PUSH1 0xFF MUL NOT AND SWAP1 DUP4 ISZERO ISZERO MUL OR SWAP1 SSTORE POP PUSH3 0x29B PUSH3 0x35E PUSH1 0x20 SHL PUSH1 0x20 SHR JUMP JUMPDEST PUSH20 0xFFFFFFFFFFFFFFFFFFFFFFFFFFFFFFFFFFFFFFFF AND DUP2 PUSH20 0xFFFFFFFFFFFFFFFFFFFFFFFFFFFFFFFFFFFFFFFF AND DUP4 PUSH32 0x2F8788117E7EFF1D82E926EC794901D17C78024A50270940304540A733656F0D PUSH1 0x40 MLOAD PUSH1 0x40 MLOAD DUP1 SWAP2 SUB SWAP1 LOG4 JUMPDEST POP POP JUMP JUMPDEST PUSH0 PUSH1 0x5 PUSH0 DUP5 DUP2 MSTORE PUSH1 0x20 ADD SWAP1 DUP2 MSTORE PUSH1 0x20 ADD PUSH0 KECCAK256 PUSH0 ADD PUSH0 DUP4 PUSH20 0xFFFFFFFFFFFFFFFFFFFFFFFFFFFFFFFFFFFFFFFF AND PUSH20 0xFFFFFFFFFFFFFFFFFFFFFFFFFFFFFFFFFFFFFFFF AND DUP2 MSTORE PUSH1 0x20 ADD SWAP1 DUP2 MSTORE PUSH1 0x20 ADD PUSH0 KECCAK256 PUSH0 SWAP1 SLOAD SWAP1 PUSH2 0x100 EXP SWAP1 DIV PUSH1 0xFF AND SWAP1 POP SWAP3 SWAP2 POP POP JUMP JUMPDEST PUSH0 CALLER SWAP1 POP SWAP1 JUMP JUMPDEST PUSH0 DUP1 REVERT JUMPDEST PUSH0 DUP2 SWAP1 POP SWAP2 SWAP1 POP JUMP JUMPDEST PUSH3 0x37D DUP2 PUSH3 0x369 JUMP JUMPDEST DUP2 EQ PUSH3 0x388 JUMPI PUSH0 DUP1 REVERT JUMPDEST POP JUMP JUMPDEST PUSH0 DUP2 MLOAD SWAP1 POP PUSH3 0x39B DUP2 PUSH3 0x372 JUMP JUMPDEST SWAP3 SWAP2 POP POP JUMP JUMPDEST PUSH0 PUSH20 0xFFFFFFFFFFFFFFFFFFFFFFFFFFFFFFFFFFFFFFFF DUP3 AND SWAP1 POP SWAP2 SWAP1 POP JUMP JUMPDEST PUSH0 PUSH3 0x3CC DUP3 PUSH3 0x3A1 JUMP JUMPDEST SWAP1 POP SWAP2 SWAP1 POP JUMP JUMPDEST PUSH3 0x3DE DUP2 PUSH3 0x3C0 JUMP JUMPDEST DUP2 EQ PUSH3 0x3E9 JUMPI PUSH0 DUP1 REVERT JUMPDEST POP JUMP JUMPDEST PUSH0 DUP2 MLOAD SWAP1 POP PUSH3 0x3FC DUP2 PUSH3 0x3D3 JUMP JUMPDEST SWAP3 SWAP2 POP POP JUMP JUMPDEST PUSH0 PUSH3 0x40E DUP3 PUSH3 0x3A1 JUMP JUMPDEST SWAP1 POP SWAP2 SWAP1 POP JUMP JUMPDEST PUSH0 PUSH3 0x421 DUP3 PUSH3 0x402 JUMP JUMPDEST SWAP1 POP SWAP2 SWAP1 POP JUMP JUMPDEST PUSH3 0x433 DUP2 PUSH3 0x415 JUMP JUMPDEST DUP2 EQ PUSH3 0x43E JUMPI PUSH0 DUP1 REVERT JUMPDEST POP JUMP JUMPDEST PUSH0 DUP2 MLOAD SWAP1 POP PUSH3 0x451 DUP2 PUSH3 0x428 JUMP JUMPDEST SWAP3 SWAP2 POP POP JUMP JUMPDEST PUSH0 DUP1 PUSH0 PUSH1 0x60 DUP5 DUP7 SUB SLT ISZERO PUSH3 0x471 JUMPI PUSH3 0x470 PUSH3 0x365 JUMP JUMPDEST JUMPDEST PUSH0 PUSH3 0x480 DUP7 DUP3 DUP8 ADD PUSH3 0x38B JUMP JUMPDEST SWAP4 POP POP PUSH1 0x20 PUSH3 0x493 DUP7 DUP3 DUP8 ADD PUSH3 0x3EC JUMP JUMPDEST SWAP3 POP POP PUSH1 0x40 PUSH3 0x4A6 DUP7 DUP3 DUP8 ADD PUSH3 0x441 JUMP JUMPDEST SWAP2 POP POP SWAP3 POP SWAP3 POP SWAP3 JUMP JUMPDEST PUSH0 DUP3 DUP3 MSTORE PUSH1 0x20 DUP3 ADD SWAP1 POP SWAP3 SWAP2 POP POP JUMP JUMPDEST PUSH32 0x43726F776473616C653A20726174652069732030000000000000000000000000 PUSH0 DUP3 ADD MSTORE POP JUMP JUMPDEST PUSH0 PUSH3 0x4F6 PUSH1 0x14 DUP4 PUSH3 0x4B0 JUMP JUMPDEST SWAP2 POP PUSH3 0x503 DUP3 PUSH3 0x4C0 JUMP JUMPDEST PUSH1 0x20 DUP3 ADD SWAP1 POP SWAP2 SWAP1 POP JUMP JUMPDEST PUSH0 PUSH1 0x20 DUP3 ADD SWAP1 POP DUP2 DUP2 SUB PUSH0 DUP4 ADD MSTORE PUSH3 0x527 DUP2 PUSH3 0x4E8 JUMP JUMPDEST SWAP1 POP SWAP2 SWAP1 POP JUMP JUMPDEST PUSH32 0x43726F776473616C653A2077616C6C657420697320746865207A65726F206164 PUSH0 DUP3 ADD MSTORE PUSH32 0x6472657373000000000000000000000000000000000000000000000000000000 PUSH1 0x20 DUP3 ADD MSTORE POP JUMP JUMPDEST PUSH0 PUSH3 0x58A PUSH1 0x25 DUP4 PUSH3 0x4B0 JUMP JUMPDEST SWAP2 POP PUSH3 0x597 DUP3 PUSH3 0x52E JUMP JUMPDEST PUSH1 0x40 DUP3 ADD SWAP1 POP SWAP2 SWAP1 POP JUMP JUMPDEST PUSH0 PUSH1 0x20 DUP3 ADD SWAP1 POP DUP2 DUP2 SUB PUSH0 DUP4 ADD MSTORE PUSH3 0x5BB DUP2 PUSH3 0x57C JUMP JUMPDEST SWAP1 POP SWAP2 SWAP1 POP JUMP JUMPDEST PUSH32 0x43726F776473616C653A20746F6B656E20697320746865207A65726F20616464 PUSH0 DUP3 ADD MSTORE PUSH32 0x7265737300000000000000000000000000000000000000000000000000000000 PUSH1 0x20 DUP3 ADD MSTORE POP JUMP JUMPDEST PUSH0 PUSH3 0x61E PUSH1 0x24 DUP4 PUSH3 0x4B0 JUMP JUMPDEST SWAP2 POP PUSH3 0x62B DUP3 PUSH3 0x5C2 JUMP JUMPDEST PUSH1 0x40 DUP3 ADD SWAP1 POP SWAP2 SWAP1 POP JUMP JUMPDEST PUSH0 PUSH1 0x20 DUP3 ADD SWAP1 POP DUP2 DUP2 SUB PUSH0 DUP4 ADD MSTORE PUSH3 0x64F DUP2 PUSH3 0x610 JUMP JUMPDEST SWAP1 POP SWAP2 SWAP1 POP JUMP JUMPDEST PUSH2 0x2155 DUP1 PUSH3 0x664 PUSH0 CODECOPY PUSH0 RETURN INVALID PUSH1 0x80 PUSH1 0x40 MSTORE PUSH1 0x4 CALLDATASIZE LT PUSH2 0x10C JUMPI PUSH0 CALLDATALOAD PUSH1 0xE0 SHR DUP1 PUSH4 0x7A3226EC GT PUSH2 0x94 JUMPI DUP1 PUSH4 0xA217FDDF GT PUSH2 0x63 JUMPI DUP1 PUSH4 0xA217FDDF EQ PUSH2 0x383 JUMPI DUP1 PUSH4 0xD547741F EQ PUSH2 0x3AD JUMPI DUP1 PUSH4 0xE43252D7 EQ PUSH2 0x3D5 JUMPI DUP1 PUSH4 0xEC8AC4D8 EQ PUSH2 0x3FD JUMPI DUP1 PUSH4 0xFC0C546A EQ PUSH2 0x419 JUMPI PUSH2 0x123 JUMP JUMPDEST DUP1 PUSH4 0x7A3226EC EQ PUSH2 0x2CD JUMPI DUP1 PUSH4 0x7F649783 EQ PUSH2 0x2F7 JUMPI DUP1 PUSH4 0x8AB1D681 EQ PUSH2 0x31F JUMPI DUP1 PUSH4 0x91D14854 EQ PUSH2 0x347 JUMPI PUSH2 0x123 JUMP JUMPDEST DUP1 PUSH4 0x36568ABE GT PUSH2 0xDB JUMPI DUP1 PUSH4 0x36568ABE EQ PUSH2 0x1FF JUMPI DUP1 PUSH4 0x4042B66F EQ PUSH2 0x227 JUMPI DUP1 PUSH4 0x521EB273 EQ PUSH2 0x251 JUMPI DUP1 PUSH4 0x54202C4E EQ PUSH2 0x27B JUMPI DUP1 PUSH4 0x548DB174 EQ PUSH2 0x2A5 JUMPI PUSH2 0x123 JUMP JUMPDEST DUP1 PUSH4 0x1FFC9A7 EQ PUSH2 0x135 JUMPI DUP1 PUSH4 0x248A9CA3 EQ PUSH2 0x171 JUMPI DUP1 PUSH4 0x2C4E722E EQ PUSH2 0x1AD JUMPI DUP1 PUSH4 0x2F2FF15D EQ PUSH2 0x1D7 JUMPI PUSH2 0x123 JUMP JUMPDEST CALLDATASIZE PUSH2 0x123 JUMPI PUSH2 0x121 PUSH2 0x11C PUSH2 0x443 JUMP JUMPDEST PUSH2 0x44A JUMP JUMPDEST STOP JUMPDEST PUSH2 0x133 PUSH2 0x12E PUSH2 0x443 JUMP JUMPDEST PUSH2 0x44A JUMP JUMPDEST STOP JUMPDEST CALLVALUE DUP1 ISZERO PUSH2 0x140 JUMPI PUSH0 DUP1 REVERT JUMPDEST POP PUSH2 0x15B PUSH1 0x4 DUP1 CALLDATASIZE SUB DUP2 ADD SWAP1 PUSH2 0x156 SWAP2 SWAP1 PUSH2 0x148E JUMP JUMPDEST PUSH2 0x528 JUMP JUMPDEST PUSH1 0x40 MLOAD PUSH2 0x168 SWAP2 SWAP1 PUSH2 0x14D3 JUMP JUMPDEST PUSH1 0x40 MLOAD DUP1 SWAP2 SUB SWAP1 RETURN JUMPDEST CALLVALUE DUP1 ISZERO PUSH2 0x17C JUMPI PUSH0 DUP1 REVERT JUMPDEST POP PUSH2 0x197 PUSH1 0x4 DUP1 CALLDATASIZE SUB DUP2 ADD SWAP1 PUSH2 0x192 SWAP2 SWAP1 PUSH2 0x151F JUMP JUMPDEST PUSH2 0x5A1 JUMP JUMPDEST PUSH1 0x40 MLOAD PUSH2 0x1A4 SWAP2 SWAP1 PUSH2 0x1559 JUMP JUMPDEST PUSH1 0x40 MLOAD DUP1 SWAP2 SUB SWAP1 RETURN JUMPDEST CALLVALUE DUP1 ISZERO PUSH2 0x1B8 JUMPI PUSH0 DUP1 REVERT JUMPDEST POP PUSH2 0x1C1 PUSH2 0x5BE JUMP JUMPDEST PUSH1 0x40 MLOAD PUSH2 0x1CE SWAP2 SWAP1 PUSH2 0x158A JUMP JUMPDEST PUSH1 0x40 MLOAD DUP1 SWAP2 SUB SWAP1 RETURN JUMPDEST CALLVALUE DUP1 ISZERO PUSH2 0x1E2 JUMPI PUSH0 DUP1 REVERT JUMPDEST POP PUSH2 0x1FD PUSH1 0x4 DUP1 CALLDATASIZE SUB DUP2 ADD SWAP1 PUSH2 0x1F8 SWAP2 SWAP1 PUSH2 0x15FD JUMP JUMPDEST PUSH2 0x5C7 JUMP JUMPDEST STOP JUMPDEST CALLVALUE DUP1 ISZERO PUSH2 0x20A JUMPI PUSH0 DUP1 REVERT JUMPDEST POP PUSH2 0x225 PUSH1 0x4 DUP1 CALLDATASIZE SUB DUP2 ADD SWAP1 PUSH2 0x220 SWAP2 SWAP1 PUSH2 0x15FD JUMP JUMPDEST PUSH2 0x5E8 JUMP JUMPDEST STOP JUMPDEST CALLVALUE DUP1 ISZERO PUSH2 0x232 JUMPI PUSH0 DUP1 REVERT JUMPDEST POP PUSH2 0x23B PUSH2 0x66B JUMP JUMPDEST PUSH1 0x40 MLOAD PUSH2 0x248 SWAP2 SWAP1 PUSH2 0x158A JUMP JUMPDEST PUSH1 0x40 MLOAD DUP1 SWAP2 SUB SWAP1 RETURN JUMPDEST CALLVALUE DUP1 ISZERO PUSH2 0x25C JUMPI PUSH0 DUP1 REVERT JUMPDEST POP PUSH2 0x265 PUSH2 0x674 JUMP JUMPDEST PUSH1 0x40 MLOAD PUSH2 0x272 SWAP2 SWAP1 PUSH2 0x165B JUMP JUMPDEST PUSH1 0x40 MLOAD DUP1 SWAP2 SUB SWAP1 RETURN JUMPDEST CALLVALUE DUP1 ISZERO PUSH2 0x286 JUMPI PUSH0 DUP1 REVERT JUMPDEST POP PUSH2 0x28F PUSH2 0x69C JUMP JUMPDEST PUSH1 0x40 MLOAD PUSH2 0x29C SWAP2 SWAP1 PUSH2 0x1559 JUMP JUMPDEST PUSH1 0x40 MLOAD DUP1 SWAP2 SUB SWAP1 RETURN JUMPDEST CALLVALUE DUP1 ISZERO PUSH2 0x2B0 JUMPI PUSH0 DUP1 REVERT JUMPDEST POP PUSH2 0x2CB PUSH1 0x4 DUP1 CALLDATASIZE SUB DUP2 ADD SWAP1 PUSH2 0x2C6 SWAP2 SWAP1 PUSH2 0x17C4 JUMP JUMPDEST PUSH2 0x6C0 JUMP JUMPDEST STOP JUMPDEST CALLVALUE DUP1 ISZERO PUSH2 0x2D8 JUMPI PUSH0 DUP1 REVERT JUMPDEST POP PUSH2 0x2E1 PUSH2 0x751 JUMP JUMPDEST PUSH1 0x40 MLOAD PUSH2 0x2EE SWAP2 SWAP1 PUSH2 0x1559 JUMP JUMPDEST PUSH1 0x40 MLOAD DUP1 SWAP2 SUB SWAP1 RETURN JUMPDEST CALLVALUE DUP1 ISZERO PUSH2 0x302 JUMPI PUSH0 DUP1 REVERT JUMPDEST POP PUSH2 0x31D PUSH1 0x4 DUP1 CALLDATASIZE SUB DUP2 ADD SWAP1 PUSH2 0x318 SWAP2 SWAP1 PUSH2 0x17C4 JUMP JUMPDEST PUSH2 0x775 JUMP JUMPDEST STOP JUMPDEST CALLVALUE DUP1 ISZERO PUSH2 0x32A JUMPI PUSH0 DUP1 REVERT JUMPDEST POP PUSH2 0x345 PUSH1 0x4 DUP1 CALLDATASIZE SUB DUP2 ADD SWAP1 PUSH2 0x340 SWAP2 SWAP1 PUSH2 0x180B JUMP JUMPDEST PUSH2 0x806 JUMP JUMPDEST STOP JUMPDEST CALLVALUE DUP1 ISZERO PUSH2 0x352 JUMPI PUSH0 DUP1 REVERT JUMPDEST POP PUSH2 0x36D PUSH1 0x4 DUP1 CALLDATASIZE SUB DUP2 ADD SWAP1 PUSH2 0x368 SWAP2 SWAP1 PUSH2 0x15FD JUMP JUMPDEST PUSH2 0x85E JUMP JUMPDEST PUSH1 0x40 MLOAD PUSH2 0x37A SWAP2 SWAP1 PUSH2 0x14D3 JUMP JUMPDEST PUSH1 0x40 MLOAD DUP1 SWAP2 SUB SWAP1 RETURN JUMPDEST CALLVALUE DUP1 ISZERO PUSH2 0x38E JUMPI PUSH0 DUP1 REVERT JUMPDEST POP PUSH2 0x397 PUSH2 0x8C2 JUMP JUMPDEST PUSH1 0x40 MLOAD PUSH2 0x3A4 SWAP2 SWAP1 PUSH2 0x1559 JUMP JUMPDEST PUSH1 0x40 MLOAD DUP1 SWAP2 SUB SWAP1 RETURN JUMPDEST CALLVALUE DUP1 ISZERO PUSH2 0x3B8 JUMPI PUSH0 DUP1 REVERT JUMPDEST POP PUSH2 0x3D3 PUSH1 0x4 DUP1 CALLDATASIZE SUB DUP2 ADD SWAP1 PUSH2 0x3CE SWAP2 SWAP1 PUSH2 0x15FD JUMP JUMPDEST PUSH2 0x8C8 JUMP JUMPDEST STOP JUMPDEST CALLVALUE DUP1 ISZERO PUSH2 0x3E0 JUMPI PUSH0 DUP1 REVERT JUMPDEST POP PUSH2 0x3FB PUSH1 0x4 DUP1 CALLDATASIZE SUB DUP2 ADD SWAP1 PUSH2 0x3F6 SWAP2 SWAP1 PUSH2 0x180B JUMP JUMPDEST PUSH2 0x8E9 JUMP JUMPDEST STOP JUMPDEST PUSH2 0x417 PUSH1 0x4 DUP1 CALLDATASIZE SUB DUP2 ADD SWAP1 PUSH2 0x412 SWAP2 SWAP1 PUSH2 0x180B JUMP JUMPDEST PUSH2 0x44A JUMP JUMPDEST STOP JUMPDEST CALLVALUE DUP1 ISZERO PUSH2 0x424 JUMPI PUSH0 DUP1 REVERT JUMPDEST POP PUSH2 0x42D PUSH2 0x941 JUMP JUMPDEST PUSH1 0x40 MLOAD PUSH2 0x43A SWAP2 SWAP1 PUSH2 0x1891 JUMP JUMPDEST PUSH1 0x40 MLOAD DUP1 SWAP2 SUB SWAP1 RETURN JUMPDEST PUSH0 CALLER SWAP1 POP SWAP1 JUMP JUMPDEST PUSH2 0x452 PUSH2 0x969 JUMP JUMPDEST PUSH0 CALLVALUE SWAP1 POP PUSH2 0x460 DUP3 DUP3 PUSH2 0x9B6 JUMP JUMPDEST PUSH0 PUSH2 0x46A DUP3 PUSH2 0xA2D JUMP JUMPDEST SWAP1 POP PUSH2 0x481 DUP3 PUSH1 0x4 SLOAD PUSH2 0xA4A SWAP1 SWAP2 SWAP1 PUSH4 0xFFFFFFFF AND JUMP JUMPDEST PUSH1 0x4 DUP2 SWAP1 SSTORE POP PUSH2 0x491 DUP4 DUP3 PUSH2 0xA5F JUMP JUMPDEST DUP3 PUSH20 0xFFFFFFFFFFFFFFFFFFFFFFFFFFFFFFFFFFFFFFFF AND PUSH2 0x4B0 PUSH2 0x443 JUMP JUMPDEST PUSH20 0xFFFFFFFFFFFFFFFFFFFFFFFFFFFFFFFFFFFFFFFF AND PUSH32 0x6FAF93231A456E552DBC9961F58D9713EE4F2E69D15F1975B050EF0911053A7B DUP5 DUP5 PUSH1 0x40 MLOAD PUSH2 0x4F7 SWAP3 SWAP2 SWAP1 PUSH2 0x18AA JUMP JUMPDEST PUSH1 0x40 MLOAD DUP1 SWAP2 SUB SWAP1 LOG3 PUSH2 0x509 DUP4 DUP4 PUSH2 0xA6D JUMP JUMPDEST PUSH2 0x511 PUSH2 0xA71 JUMP JUMPDEST PUSH2 0x51B DUP4 DUP4 PUSH2 0xAD8 JUMP JUMPDEST POP POP PUSH2 0x525 PUSH2 0xADC JUMP JUMPDEST POP JUMP JUMPDEST PUSH0 PUSH32 0x7965DB0B00000000000000000000000000000000000000000000000000000000 PUSH28 0xFFFFFFFFFFFFFFFFFFFFFFFFFFFFFFFFFFFFFFFFFFFFFFFFFFFFFFFF NOT AND DUP3 PUSH28 0xFFFFFFFFFFFFFFFFFFFFFFFFFFFFFFFFFFFFFFFFFFFFFFFFFFFFFFFF NOT AND EQ DUP1 PUSH2 0x59A JUMPI POP PUSH2 0x599 DUP3 PUSH2 0xAE5 JUMP JUMPDEST JUMPDEST SWAP1 POP SWAP2 SWAP1 POP JUMP JUMPDEST PUSH0 PUSH1 0x5 PUSH0 DUP4 DUP2 MSTORE PUSH1 0x20 ADD SWAP1 DUP2 MSTORE PUSH1 0x20 ADD PUSH0 KECCAK256 PUSH1 0x1 ADD SLOAD SWAP1 POP SWAP2 SWAP1 POP JUMP JUMPDEST PUSH0 PUSH1 0x3 SLOAD SWAP1 POP SWAP1 JUMP JUMPDEST PUSH2 0x5D0 DUP3 PUSH2 0x5A1 JUMP JUMPDEST PUSH2 0x5D9 DUP2 PUSH2 0xB4E JUMP JUMPDEST PUSH2 0x5E3 DUP4 DUP4 PUSH2 0xB62 JUMP JUMPDEST POP POP POP JUMP JUMPDEST PUSH2 0x5F0 PUSH2 0x443 JUMP JUMPDEST PUSH20 0xFFFFFFFFFFFFFFFFFFFFFFFFFFFFFFFFFFFFFFFF AND DUP2 PUSH20 0xFFFFFFFFFFFFFFFFFFFFFFFFFFFFFFFFFFFFFFFF AND EQ PUSH2 0x65D JUMPI PUSH1 0x40 MLOAD PUSH32 0x8C379A000000000000000000000000000000000000000000000000000000000 DUP2 MSTORE PUSH1 0x4 ADD PUSH2 0x654 SWAP1 PUSH2 0x1951 JUMP JUMPDEST PUSH1 0x40 MLOAD DUP1 SWAP2 SUB SWAP1 REVERT JUMPDEST PUSH2 0x667 DUP3 DUP3 PUSH2 0xC3D JUMP JUMPDEST POP POP JUMP JUMPDEST PUSH0 PUSH1 0x4 SLOAD SWAP1 POP SWAP1 JUMP JUMPDEST PUSH0 PUSH1 0x2 PUSH0 SWAP1 SLOAD SWAP1 PUSH2 0x100 EXP SWAP1 DIV PUSH20 0xFFFFFFFFFFFFFFFFFFFFFFFFFFFFFFFFFFFFFFFF AND SWAP1 POP SWAP1 JUMP JUMPDEST PUSH32 0x28F5A99355973CC89255B8C4AC88405F27C78DED7608B040EE77A8BDF44D15E2 DUP2 JUMP JUMPDEST PUSH32 0x28F5A99355973CC89255B8C4AC88405F27C78DED7608B040EE77A8BDF44D15E2 PUSH2 0x6EA DUP2 PUSH2 0xB4E JUMP JUMPDEST PUSH0 JUMPDEST DUP3 MLOAD DUP2 LT ISZERO PUSH2 0x74C JUMPI PUSH2 0x739 PUSH32 0x8429D542926E6695B59AC6FBDCD9B37E8B1AEB757AFAB06AB60B1BB5878C3B49 DUP5 DUP4 DUP2 MLOAD DUP2 LT PUSH2 0x72C JUMPI PUSH2 0x72B PUSH2 0x196F JUMP JUMPDEST JUMPDEST PUSH1 0x20 MUL PUSH1 0x20 ADD ADD MLOAD PUSH2 0xC3D JUMP JUMPDEST DUP1 DUP1 PUSH2 0x744 SWAP1 PUSH2 0x19C9 JUMP JUMPDEST SWAP2 POP POP PUSH2 0x6EC JUMP JUMPDEST POP POP POP JUMP JUMPDEST PUSH32 0x8429D542926E6695B59AC6FBDCD9B37E8B1AEB757AFAB06AB60B1BB5878C3B49 DUP2 JUMP JUMPDEST PUSH32 0x28F5A99355973CC89255B8C4AC88405F27C78DED7608B040EE77A8BDF44D15E2 PUSH2 0x79F DUP2 PUSH2 0xB4E JUMP JUMPDEST PUSH0 JUMPDEST DUP3 MLOAD DUP2 LT ISZERO PUSH2 0x801 JUMPI PUSH2 0x7EE PUSH32 0x8429D542926E6695B59AC6FBDCD9B37E8B1AEB757AFAB06AB60B1BB5878C3B49 DUP5 DUP4 DUP2 MLOAD DUP2 LT PUSH2 0x7E1 JUMPI PUSH2 0x7E0 PUSH2 0x196F JUMP JUMPDEST JUMPDEST PUSH1 0x20 MUL PUSH1 0x20 ADD ADD MLOAD PUSH2 0xB62 JUMP JUMPDEST DUP1 DUP1 PUSH2 0x7F9 SWAP1 PUSH2 0x19C9 JUMP JUMPDEST SWAP2 POP POP PUSH2 0x7A1 JUMP JUMPDEST POP POP POP JUMP JUMPDEST PUSH32 0x28F5A99355973CC89255B8C4AC88405F27C78DED7608B040EE77A8BDF44D15E2 PUSH2 0x830 DUP2 PUSH2 0xB4E JUMP JUMPDEST PUSH2 0x85A PUSH32 0x8429D542926E6695B59AC6FBDCD9B37E8B1AEB757AFAB06AB60B1BB5878C3B49 DUP4 PUSH2 0xC3D JUMP JUMPDEST POP POP JUMP JUMPDEST PUSH0 PUSH1 0x5 PUSH0 DUP5 DUP2 MSTORE PUSH1 0x20 ADD SWAP1 DUP2 MSTORE PUSH1 0x20 ADD PUSH0 KECCAK256 PUSH0 ADD PUSH0 DUP4 PUSH20 0xFFFFFFFFFFFFFFFFFFFFFFFFFFFFFFFFFFFFFFFF AND PUSH20 0xFFFFFFFFFFFFFFFFFFFFFFFFFFFFFFFFFFFFFFFF AND DUP2 MSTORE PUSH1 0x20 ADD SWAP1 DUP2 MSTORE PUSH1 0x20 ADD PUSH0 KECCAK256 PUSH0 SWAP1 SLOAD SWAP1 PUSH2 0x100 EXP SWAP1 DIV PUSH1 0xFF AND SWAP1 POP SWAP3 SWAP2 POP POP JUMP JUMPDEST PUSH0 DUP1 SHL DUP2 JUMP JUMPDEST PUSH2 0x8D1 DUP3 PUSH2 0x5A1 JUMP JUMPDEST PUSH2 0x8DA DUP2 PUSH2 0xB4E JUMP JUMPDEST PUSH2 0x8E4 DUP4 DUP4 PUSH2 0xC3D JUMP JUMPDEST POP POP POP JUMP JUMPDEST PUSH32 0x28F5A99355973CC89255B8C4AC88405F27C78DED7608B040EE77A8BDF44D15E2 PUSH2 0x913 DUP2 PUSH2 0xB4E JUMP JUMPDEST PUSH2 0x93D PUSH32 0x8429D542926E6695B59AC6FBDCD9B37E8B1AEB757AFAB06AB60B1BB5878C3B49 DUP4 PUSH2 0xB62 JUMP JUMPDEST POP POP JUMP JUMPDEST PUSH0 PUSH1 0x1 PUSH0 SWAP1 SLOAD SWAP1 PUSH2 0x100 EXP SWAP1 DIV PUSH20 0xFFFFFFFFFFFFFFFFFFFFFFFFFFFFFFFFFFFFFFFF AND SWAP1 POP SWAP1 JUMP JUMPDEST PUSH1 0x2 PUSH0 SLOAD SUB PUSH2 0x9AD JUMPI PUSH1 0x40 MLOAD PUSH32 0x8C379A000000000000000000000000000000000000000000000000000000000 DUP2 MSTORE PUSH1 0x4 ADD PUSH2 0x9A4 SWAP1 PUSH2 0x1A5A JUMP JUMPDEST PUSH1 0x40 MLOAD DUP1 SWAP2 SUB SWAP1 REVERT JUMPDEST PUSH1 0x2 PUSH0 DUP2 SWAP1 SSTORE POP JUMP JUMPDEST PUSH2 0x9E0 PUSH32 0x8429D542926E6695B59AC6FBDCD9B37E8B1AEB757AFAB06AB60B1BB5878C3B49 DUP4 PUSH2 0x85E JUMP JUMPDEST PUSH2 0xA1F JUMPI PUSH1 0x40 MLOAD PUSH32 0x8C379A000000000000000000000000000000000000000000000000000000000 DUP2 MSTORE PUSH1 0x4 ADD PUSH2 0xA16 SWAP1 PUSH2 0x1B0E JUMP JUMPDEST PUSH1 0x40 MLOAD DUP1 SWAP2 SUB SWAP1 REVERT JUMPDEST PUSH2 0xA29 DUP3 DUP3 PUSH2 0xD18 JUMP JUMPDEST POP POP JUMP JUMPDEST PUSH0 PUSH2 0xA43 PUSH1 0x3 SLOAD DUP4 PUSH2 0xDCC SWAP1 SWAP2 SWAP1 PUSH4 0xFFFFFFFF AND JUMP JUMPDEST SWAP1 POP SWAP2 SWAP1 POP JUMP JUMPDEST PUSH0 DUP2 DUP4 PUSH2 0xA57 SWAP2 SWAP1 PUSH2 0x1B2C JUMP JUMPDEST SWAP1 POP SWAP3 SWAP2 POP POP JUMP JUMPDEST PUSH2 0xA69 DUP3 DUP3 PUSH2 0xDE1 JUMP JUMPDEST POP POP JUMP JUMPDEST POP POP JUMP JUMPDEST PUSH1 0x2 PUSH0 SWAP1 SLOAD SWAP1 PUSH2 0x100 EXP SWAP1 DIV PUSH20 0xFFFFFFFFFFFFFFFFFFFFFFFFFFFFFFFFFFFFFFFF AND PUSH20 0xFFFFFFFFFFFFFFFFFFFFFFFFFFFFFFFFFFFFFFFF AND PUSH2 0x8FC CALLVALUE SWAP1 DUP2 ISZERO MUL SWAP1 PUSH1 0x40 MLOAD PUSH0 PUSH1 0x40 MLOAD DUP1 DUP4 SUB DUP2 DUP6 DUP9 DUP9 CALL SWAP4 POP POP POP POP ISZERO DUP1 ISZERO PUSH2 0xAD5 JUMPI RETURNDATASIZE PUSH0 DUP1 RETURNDATACOPY RETURNDATASIZE PUSH0 REVERT JUMPDEST POP JUMP JUMPDEST POP POP JUMP JUMPDEST PUSH1 0x1 PUSH0 DUP2 SWAP1 SSTORE POP JUMP JUMPDEST PUSH0 PUSH32 0x1FFC9A700000000000000000000000000000000000000000000000000000000 PUSH28 0xFFFFFFFFFFFFFFFFFFFFFFFFFFFFFFFFFFFFFFFFFFFFFFFFFFFFFFFF NOT AND DUP3 PUSH28 0xFFFFFFFFFFFFFFFFFFFFFFFFFFFFFFFFFFFFFFFFFFFFFFFFFFFFFFFF NOT AND EQ SWAP1 POP SWAP2 SWAP1 POP JUMP JUMPDEST PUSH2 0xB5F DUP2 PUSH2 0xB5A PUSH2 0x443 JUMP JUMPDEST PUSH2 0xE31 JUMP JUMPDEST POP JUMP JUMPDEST PUSH2 0xB6C DUP3 DUP3 PUSH2 0x85E JUMP JUMPDEST PUSH2 0xC39 JUMPI PUSH1 0x1 PUSH1 0x5 PUSH0 DUP5 DUP2 MSTORE PUSH1 0x20 ADD SWAP1 DUP2 MSTORE PUSH1 0x20 ADD PUSH0 KECCAK256 PUSH0 ADD PUSH0 DUP4 PUSH20 0xFFFFFFFFFFFFFFFFFFFFFFFFFFFFFFFFFFFFFFFF AND PUSH20 0xFFFFFFFFFFFFFFFFFFFFFFFFFFFFFFFFFFFFFFFF AND DUP2 MSTORE PUSH1 0x20 ADD SWAP1 DUP2 MSTORE PUSH1 0x20 ADD PUSH0 KECCAK256 PUSH0 PUSH2 0x100 EXP DUP2 SLOAD DUP2 PUSH1 0xFF MUL NOT AND SWAP1 DUP4 ISZERO ISZERO MUL OR SWAP1 SSTORE POP PUSH2 0xBDE PUSH2 0x443 JUMP JUMPDEST PUSH20 0xFFFFFFFFFFFFFFFFFFFFFFFFFFFFFFFFFFFFFFFF AND DUP2 PUSH20 0xFFFFFFFFFFFFFFFFFFFFFFFFFFFFFFFFFFFFFFFF AND DUP4 PUSH32 0x2F8788117E7EFF1D82E926EC794901D17C78024A50270940304540A733656F0D PUSH1 0x40 MLOAD PUSH1 0x40 MLOAD DUP1 SWAP2 SUB SWAP1 LOG4 JUMPDEST POP POP JUMP JUMPDEST PUSH2 0xC47 DUP3 DUP3 PUSH2 0x85E JUMP JUMPDEST ISZERO PUSH2 0xD14 JUMPI PUSH0 PUSH1 0x5 PUSH0 DUP5 DUP2 MSTORE PUSH1 0x20 ADD SWAP1 DUP2 MSTORE PUSH1 0x20 ADD PUSH0 KECCAK256 PUSH0 ADD PUSH0 DUP4 PUSH20 0xFFFFFFFFFFFFFFFFFFFFFFFFFFFFFFFFFFFFFFFF AND PUSH20 0xFFFFFFFFFFFFFFFFFFFFFFFFFFFFFFFFFFFFFFFF AND DUP2 MSTORE PUSH1 0x20 ADD SWAP1 DUP2 MSTORE PUSH1 0x20 ADD PUSH0 KECCAK256 PUSH0 PUSH2 0x100 EXP DUP2 SLOAD DUP2 PUSH1 0xFF MUL NOT AND SWAP1 DUP4 ISZERO ISZERO MUL OR SWAP1 SSTORE POP PUSH2 0xCB9 PUSH2 0x443 JUMP JUMPDEST PUSH20 0xFFFFFFFFFFFFFFFFFFFFFFFFFFFFFFFFFFFFFFFF AND DUP2 PUSH20 0xFFFFFFFFFFFFFFFFFFFFFFFFFFFFFFFFFFFFFFFF AND DUP4 PUSH32 0xF6391F5C32D9C69D2A47EA670B442974B53935D1EDC7FD64EB21E047A839171B PUSH1 0x40 MLOAD PUSH1 0x40 MLOAD DUP1 SWAP2 SUB SWAP1 LOG4 JUMPDEST POP POP JUMP JUMPDEST PUSH0 PUSH20 0xFFFFFFFFFFFFFFFFFFFFFFFFFFFFFFFFFFFFFFFF AND DUP3 PUSH20 0xFFFFFFFFFFFFFFFFFFFFFFFFFFFFFFFFFFFFFFFF AND SUB PUSH2 0xD86 JUMPI PUSH1 0x40 MLOAD PUSH32 0x8C379A000000000000000000000000000000000000000000000000000000000 DUP2 MSTORE PUSH1 0x4 ADD PUSH2 0xD7D SWAP1 PUSH2 0x1BCF JUMP JUMPDEST PUSH1 0x40 MLOAD DUP1 SWAP2 SUB SWAP1 REVERT JUMPDEST PUSH0 DUP2 SUB PUSH2 0xDC8 JUMPI PUSH1 0x40 MLOAD PUSH32 0x8C379A000000000000000000000000000000000000000000000000000000000 DUP2 MSTORE PUSH1 0x4 ADD PUSH2 0xDBF SWAP1 PUSH2 0x1C37 JUMP JUMPDEST PUSH1 0x40 MLOAD DUP1 SWAP2 SUB SWAP1 REVERT JUMPDEST POP POP JUMP JUMPDEST PUSH0 DUP2 DUP4 PUSH2 0xDD9 SWAP2 SWAP1 PUSH2 0x1C55 JUMP JUMPDEST SWAP1 POP SWAP3 SWAP2 POP POP JUMP JUMPDEST PUSH2 0xE2D DUP3 DUP3 PUSH1 0x1 PUSH0 SWAP1 SLOAD SWAP1 PUSH2 0x100 EXP SWAP1 DIV PUSH20 0xFFFFFFFFFFFFFFFFFFFFFFFFFFFFFFFFFFFFFFFF AND PUSH20 0xFFFFFFFFFFFFFFFFFFFFFFFFFFFFFFFFFFFFFFFF AND PUSH2 0xEB5 SWAP1 SWAP3 SWAP2 SWAP1 PUSH4 0xFFFFFFFF AND JUMP JUMPDEST POP POP JUMP JUMPDEST PUSH2 0xE3B DUP3 DUP3 PUSH2 0x85E JUMP JUMPDEST PUSH2 0xEB1 JUMPI PUSH2 0xE48 DUP2 PUSH2 0xF3B JUMP JUMPDEST PUSH2 0xE55 DUP4 PUSH0 SHR PUSH1 0x20 PUSH2 0xF68 JUMP JUMPDEST PUSH1 0x40 MLOAD PUSH1 0x20 ADD PUSH2 0xE66 SWAP3 SWAP2 SWAP1 PUSH2 0x1D96 JUMP JUMPDEST PUSH1 0x40 MLOAD PUSH1 0x20 DUP2 DUP4 SUB SUB DUP2 MSTORE SWAP1 PUSH1 0x40 MSTORE PUSH1 0x40 MLOAD PUSH32 0x8C379A000000000000000000000000000000000000000000000000000000000 DUP2 MSTORE PUSH1 0x4 ADD PUSH2 0xEA8 SWAP2 SWAP1 PUSH2 0x1E07 JUMP JUMPDEST PUSH1 0x40 MLOAD DUP1 SWAP2 SUB SWAP1 REVERT JUMPDEST POP POP JUMP JUMPDEST PUSH2 0xF36 DUP4 PUSH4 0xA9059CBB PUSH1 0xE0 SHL DUP5 DUP5 PUSH1 0x40 MLOAD PUSH1 0x24 ADD PUSH2 0xED4 SWAP3 SWAP2 SWAP1 PUSH2 0x1E36 JUMP JUMPDEST PUSH1 0x40 MLOAD PUSH1 0x20 DUP2 DUP4 SUB SUB DUP2 MSTORE SWAP1 PUSH1 0x40 MSTORE SWAP1 PUSH28 0xFFFFFFFFFFFFFFFFFFFFFFFFFFFFFFFFFFFFFFFFFFFFFFFFFFFFFFFF NOT AND PUSH1 0x20 DUP3 ADD DUP1 MLOAD PUSH28 0xFFFFFFFFFFFFFFFFFFFFFFFFFFFFFFFFFFFFFFFFFFFFFFFFFFFFFFFF DUP4 DUP2 DUP4 AND OR DUP4 MSTORE POP POP POP POP PUSH2 0x119D JUMP JUMPDEST POP POP POP JUMP JUMPDEST PUSH1 0x60 PUSH2 0xF61 DUP3 PUSH20 0xFFFFFFFFFFFFFFFFFFFFFFFFFFFFFFFFFFFFFFFF AND PUSH1 0x14 PUSH1 0xFF AND PUSH2 0xF68 JUMP JUMPDEST SWAP1 POP SWAP2 SWAP1 POP JUMP JUMPDEST PUSH1 0x60 PUSH0 PUSH1 0x2 DUP4 PUSH1 0x2 PUSH2 0xF7A SWAP2 SWAP1 PUSH2 0x1C55 JUMP JUMPDEST PUSH2 0xF84 SWAP2 SWAP1 PUSH2 0x1B2C JUMP JUMPDEST PUSH8 0xFFFFFFFFFFFFFFFF DUP2 GT ISZERO PUSH2 0xF9D JUMPI PUSH2 0xF9C PUSH2 0x1688 JUMP JUMPDEST JUMPDEST PUSH1 0x40 MLOAD SWAP1 DUP1 DUP3 MSTORE DUP1 PUSH1 0x1F ADD PUSH1 0x1F NOT AND PUSH1 0x20 ADD DUP3 ADD PUSH1 0x40 MSTORE DUP1 ISZERO PUSH2 0xFCF JUMPI DUP2 PUSH1 0x20 ADD PUSH1 0x1 DUP3 MUL DUP1 CALLDATASIZE DUP4 CALLDATACOPY DUP1 DUP3 ADD SWAP2 POP POP SWAP1 POP JUMPDEST POP SWAP1 POP PUSH32 0x3000000000000000000000000000000000000000000000000000000000000000 DUP2 PUSH0 DUP2 MLOAD DUP2 LT PUSH2 0x1006 JUMPI PUSH2 0x1005 PUSH2 0x196F JUMP JUMPDEST JUMPDEST PUSH1 0x20 ADD ADD SWAP1 PUSH31 0xFFFFFFFFFFFFFFFFFFFFFFFFFFFFFFFFFFFFFFFFFFFFFFFFFFFFFFFFFFFFFF NOT AND SWAP1 DUP2 PUSH0 BYTE SWAP1 MSTORE8 POP PUSH32 0x7800000000000000000000000000000000000000000000000000000000000000 DUP2 PUSH1 0x1 DUP2 MLOAD DUP2 LT PUSH2 0x1069 JUMPI PUSH2 0x1068 PUSH2 0x196F JUMP JUMPDEST JUMPDEST PUSH1 0x20 ADD ADD SWAP1 PUSH31 0xFFFFFFFFFFFFFFFFFFFFFFFFFFFFFFFFFFFFFFFFFFFFFFFFFFFFFFFFFFFFFF NOT AND SWAP1 DUP2 PUSH0 BYTE SWAP1 MSTORE8 POP PUSH0 PUSH1 0x1 DUP5 PUSH1 0x2 PUSH2 0x10A7 SWAP2 SWAP1 PUSH2 0x1C55 JUMP JUMPDEST PUSH2 0x10B1 SWAP2 SWAP1 PUSH2 0x1B2C JUMP JUMPDEST SWAP1 POP JUMPDEST PUSH1 0x1 DUP2 GT ISZERO PUSH2 0x1150 JUMPI PUSH32 0x3031323334353637383961626364656600000000000000000000000000000000 PUSH1 0xF DUP7 AND PUSH1 0x10 DUP2 LT PUSH2 0x10F3 JUMPI PUSH2 0x10F2 PUSH2 0x196F JUMP JUMPDEST JUMPDEST BYTE PUSH1 0xF8 SHL DUP3 DUP3 DUP2 MLOAD DUP2 LT PUSH2 0x110A JUMPI PUSH2 0x1109 PUSH2 0x196F JUMP JUMPDEST JUMPDEST PUSH1 0x20 ADD ADD SWAP1 PUSH31 0xFFFFFFFFFFFFFFFFFFFFFFFFFFFFFFFFFFFFFFFFFFFFFFFFFFFFFFFFFFFFFF NOT AND SWAP1 DUP2 PUSH0 BYTE SWAP1 MSTORE8 POP PUSH1 0x4 DUP6 SWAP1 SHR SWAP5 POP DUP1 PUSH2 0x1149 SWAP1 PUSH2 0x1E5D JUMP JUMPDEST SWAP1 POP PUSH2 0x10B4 JUMP JUMPDEST POP PUSH0 DUP5 EQ PUSH2 0x1193 JUMPI PUSH1 0x40 MLOAD PUSH32 0x8C379A000000000000000000000000000000000000000000000000000000000 DUP2 MSTORE PUSH1 0x4 ADD PUSH2 0x118A SWAP1 PUSH2 0x1ECE JUMP JUMPDEST PUSH1 0x40 MLOAD DUP1 SWAP2 SUB SWAP1 REVERT JUMPDEST DUP1 SWAP2 POP POP SWAP3 SWAP2 POP POP JUMP JUMPDEST PUSH0 PUSH2 0x11FE DUP3 PUSH1 0x40 MLOAD DUP1 PUSH1 0x40 ADD PUSH1 0x40 MSTORE DUP1 PUSH1 0x20 DUP2 MSTORE PUSH1 0x20 ADD PUSH32 0x5361666545524332303A206C6F772D6C6576656C2063616C6C206661696C6564 DUP2 MSTORE POP DUP6 PUSH20 0xFFFFFFFFFFFFFFFFFFFFFFFFFFFFFFFFFFFFFFFF AND PUSH2 0x1263 SWAP1 SWAP3 SWAP2 SWAP1 PUSH4 0xFFFFFFFF AND JUMP JUMPDEST SWAP1 POP PUSH0 DUP2 MLOAD EQ DUP1 PUSH2 0x121F JUMPI POP DUP1 DUP1 PUSH1 0x20 ADD SWAP1 MLOAD DUP2 ADD SWAP1 PUSH2 0x121E SWAP2 SWAP1 PUSH2 0x1F16 JUMP JUMPDEST JUMPDEST PUSH2 0x125E JUMPI PUSH1 0x40 MLOAD PUSH32 0x8C379A000000000000000000000000000000000000000000000000000000000 DUP2 MSTORE PUSH1 0x4 ADD PUSH2 0x1255 SWAP1 PUSH2 0x1FB1 JUMP JUMPDEST PUSH1 0x40 MLOAD DUP1 SWAP2 SUB SWAP1 REVERT JUMPDEST POP POP POP JUMP JUMPDEST PUSH1 0x60 PUSH2 0x1271 DUP5 DUP5 PUSH0 DUP6 PUSH2 0x127A JUMP JUMPDEST SWAP1 POP SWAP4 SWAP3 POP POP POP JUMP JUMPDEST PUSH1 0x60 DUP3 SELFBALANCE LT ISZERO PUSH2 0x12BF JUMPI PUSH1 0x40 MLOAD PUSH32 0x8C379A000000000000000000000000000000000000000000000000000000000 DUP2 MSTORE PUSH1 0x4 ADD PUSH2 0x12B6 SWAP1 PUSH2 0x203F JUMP JUMPDEST PUSH1 0x40 MLOAD DUP1 SWAP2 SUB SWAP1 REVERT JUMPDEST PUSH0 DUP1 DUP7 PUSH20 0xFFFFFFFFFFFFFFFFFFFFFFFFFFFFFFFFFFFFFFFF AND DUP6 DUP8 PUSH1 0x40 MLOAD PUSH2 0x12E7 SWAP2 SWAP1 PUSH2 0x20A1 JUMP JUMPDEST PUSH0 PUSH1 0x40 MLOAD DUP1 DUP4 SUB DUP2 DUP6 DUP8 GAS CALL SWAP3 POP POP POP RETURNDATASIZE DUP1 PUSH0 DUP2 EQ PUSH2 0x1321 JUMPI PUSH1 0x40 MLOAD SWAP2 POP PUSH1 0x1F NOT PUSH1 0x3F RETURNDATASIZE ADD AND DUP3 ADD PUSH1 0x40 MSTORE RETURNDATASIZE DUP3 MSTORE RETURNDATASIZE PUSH0 PUSH1 0x20 DUP5 ADD RETURNDATACOPY PUSH2 0x1326 JUMP JUMPDEST PUSH1 0x60 SWAP2 POP JUMPDEST POP SWAP2 POP SWAP2 POP PUSH2 0x1337 DUP8 DUP4 DUP4 DUP8 PUSH2 0x1343 JUMP JUMPDEST SWAP3 POP POP POP SWAP5 SWAP4 POP POP POP POP JUMP JUMPDEST PUSH1 0x60 DUP4 ISZERO PUSH2 0x13A4 JUMPI PUSH0 DUP4 MLOAD SUB PUSH2 0x139C JUMPI PUSH2 0x135C DUP6 PUSH2 0x13B7 JUMP JUMPDEST PUSH2 0x139B JUMPI PUSH1 0x40 MLOAD PUSH32 0x8C379A000000000000000000000000000000000000000000000000000000000 DUP2 MSTORE PUSH1 0x4 ADD PUSH2 0x1392 SWAP1 PUSH2 0x2101 JUMP JUMPDEST PUSH1 0x40 MLOAD DUP1 SWAP2 SUB SWAP1 REVERT JUMPDEST JUMPDEST DUP3 SWAP1 POP PUSH2 0x13AF JUMP JUMPDEST PUSH2 0x13AE DUP4 DUP4 PUSH2 0x13D9 JUMP JUMPDEST JUMPDEST SWAP5 SWAP4 POP POP POP POP JUMP JUMPDEST PUSH0 DUP1 DUP3 PUSH20 0xFFFFFFFFFFFFFFFFFFFFFFFFFFFFFFFFFFFFFFFF AND EXTCODESIZE GT SWAP1 POP SWAP2 SWAP1 POP JUMP JUMPDEST PUSH0 DUP3 MLOAD GT ISZERO PUSH2 0x13EB JUMPI DUP2 MLOAD DUP1 DUP4 PUSH1 0x20 ADD REVERT JUMPDEST DUP1 PUSH1 0x40 MLOAD PUSH32 0x8C379A000000000000000000000000000000000000000000000000000000000 DUP2 MSTORE PUSH1 0x4 ADD PUSH2 0x141F SWAP2 SWAP1 PUSH2 0x1E07 JUMP JUMPDEST PUSH1 0x40 MLOAD DUP1 SWAP2 SUB SWAP1 REVERT JUMPDEST PUSH0 PUSH1 0x40 MLOAD SWAP1 POP SWAP1 JUMP JUMPDEST PUSH0 DUP1 REVERT JUMPDEST PUSH0 DUP1 REVERT JUMPDEST PUSH0 PUSH32 0xFFFFFFFF00000000000000000000000000000000000000000000000000000000 DUP3 AND SWAP1 POP SWAP2 SWAP1 POP JUMP JUMPDEST PUSH2 0x146D DUP2 PUSH2 0x1439 JUMP JUMPDEST DUP2 EQ PUSH2 0x1477 JUMPI PUSH0 DUP1 REVERT JUMPDEST POP JUMP JUMPDEST PUSH0 DUP2 CALLDATALOAD SWAP1 POP PUSH2 0x1488 DUP2 PUSH2 0x1464 JUMP JUMPDEST SWAP3 SWAP2 POP POP JUMP JUMPDEST PUSH0 PUSH1 0x20 DUP3 DUP5 SUB SLT ISZERO PUSH2 0x14A3 JUMPI PUSH2 0x14A2 PUSH2 0x1431 JUMP JUMPDEST JUMPDEST PUSH0 PUSH2 0x14B0 DUP5 DUP3 DUP6 ADD PUSH2 0x147A JUMP JUMPDEST SWAP2 POP POP SWAP3 SWAP2 POP POP JUMP JUMPDEST PUSH0 DUP2 ISZERO ISZERO SWAP1 POP SWAP2 SWAP1 POP JUMP JUMPDEST PUSH2 0x14CD DUP2 PUSH2 0x14B9 JUMP JUMPDEST DUP3 MSTORE POP POP JUMP JUMPDEST PUSH0 PUSH1 0x20 DUP3 ADD SWAP1 POP PUSH2 0x14E6 PUSH0 DUP4 ADD DUP5 PUSH2 0x14C4 JUMP JUMPDEST SWAP3 SWAP2 POP POP JUMP JUMPDEST PUSH0 DUP2 SWAP1 POP SWAP2 SWAP1 POP JUMP JUMPDEST PUSH2 0x14FE DUP2 PUSH2 0x14EC JUMP JUMPDEST DUP2 EQ PUSH2 0x1508 JUMPI PUSH0 DUP1 REVERT JUMPDEST POP JUMP JUMPDEST PUSH0 DUP2 CALLDATALOAD SWAP1 POP PUSH2 0x1519 DUP2 PUSH2 0x14F5 JUMP JUMPDEST SWAP3 SWAP2 POP POP JUMP JUMPDEST PUSH0 PUSH1 0x20 DUP3 DUP5 SUB SLT ISZERO PUSH2 0x1534 JUMPI PUSH2 0x1533 PUSH2 0x1431 JUMP JUMPDEST JUMPDEST PUSH0 PUSH2 0x1541 DUP5 DUP3 DUP6 ADD PUSH2 0x150B JUMP JUMPDEST SWAP2 POP POP SWAP3 SWAP2 POP POP JUMP JUMPDEST PUSH2 0x1553 DUP2 PUSH2 0x14EC JUMP JUMPDEST DUP3 MSTORE POP POP JUMP JUMPDEST PUSH0 PUSH1 0x20 DUP3 ADD SWAP1 POP PUSH2 0x156C PUSH0 DUP4 ADD DUP5 PUSH2 0x154A JUMP JUMPDEST SWAP3 SWAP2 POP POP JUMP JUMPDEST PUSH0 DUP2 SWAP1 POP SWAP2 SWAP1 POP JUMP JUMPDEST PUSH2 0x1584 DUP2 PUSH2 0x1572 JUMP JUMPDEST DUP3 MSTORE POP POP JUMP JUMPDEST PUSH0 PUSH1 0x20 DUP3 ADD SWAP1 POP PUSH2 0x159D PUSH0 DUP4 ADD DUP5 PUSH2 0x157B JUMP JUMPDEST SWAP3 SWAP2 POP POP JUMP JUMPDEST PUSH0 PUSH20 0xFFFFFFFFFFFFFFFFFFFFFFFFFFFFFFFFFFFFFFFF DUP3 AND SWAP1 POP SWAP2 SWAP1 POP JUMP JUMPDEST PUSH0 PUSH2 0x15CC DUP3 PUSH2 0x15A3 JUMP JUMPDEST SWAP1 POP SWAP2 SWAP1 POP JUMP JUMPDEST PUSH2 0x15DC DUP2 PUSH2 0x15C2 JUMP JUMPDEST DUP2 EQ PUSH2 0x15E6 JUMPI PUSH0 DUP1 REVERT JUMPDEST POP JUMP JUMPDEST PUSH0 DUP2 CALLDATALOAD SWAP1 POP PUSH2 0x15F7 DUP2 PUSH2 0x15D3 JUMP JUMPDEST SWAP3 SWAP2 POP POP JUMP JUMPDEST PUSH0 DUP1 PUSH1 0x40 DUP4 DUP6 SUB SLT ISZERO PUSH2 0x1613 JUMPI PUSH2 0x1612 PUSH2 0x1431 JUMP JUMPDEST JUMPDEST PUSH0 PUSH2 0x1620 DUP6 DUP3 DUP7 ADD PUSH2 0x150B JUMP JUMPDEST SWAP3 POP POP PUSH1 0x20 PUSH2 0x1631 DUP6 DUP3 DUP7 ADD PUSH2 0x15E9 JUMP JUMPDEST SWAP2 POP POP SWAP3 POP SWAP3 SWAP1 POP JUMP JUMPDEST PUSH0 PUSH2 0x1645 DUP3 PUSH2 0x15A3 JUMP JUMPDEST SWAP1 POP SWAP2 SWAP1 POP JUMP JUMPDEST PUSH2 0x1655 DUP2 PUSH2 0x163B JUMP JUMPDEST DUP3 MSTORE POP POP JUMP JUMPDEST PUSH0 PUSH1 0x20 DUP3 ADD SWAP1 POP PUSH2 0x166E PUSH0 DUP4 ADD DUP5 PUSH2 0x164C JUMP JUMPDEST SWAP3 SWAP2 POP POP JUMP JUMPDEST PUSH0 DUP1 REVERT JUMPDEST PUSH0 PUSH1 0x1F NOT PUSH1 0x1F DUP4 ADD AND SWAP1 POP SWAP2 SWAP1 POP JUMP JUMPDEST PUSH32 0x4E487B7100000000000000000000000000000000000000000000000000000000 PUSH0 MSTORE PUSH1 0x41 PUSH1 0x4 MSTORE PUSH1 0x24 PUSH0 REVERT JUMPDEST PUSH2 0x16BE DUP3 PUSH2 0x1678 JUMP JUMPDEST DUP2 ADD DUP2 DUP2 LT PUSH8 0xFFFFFFFFFFFFFFFF DUP3 GT OR ISZERO PUSH2 0x16DD JUMPI PUSH2 0x16DC PUSH2 0x1688 JUMP JUMPDEST JUMPDEST DUP1 PUSH1 0x40 MSTORE POP POP POP JUMP JUMPDEST PUSH0 PUSH2 0x16EF PUSH2 0x1428 JUMP JUMPDEST SWAP1 POP PUSH2 0x16FB DUP3 DUP3 PUSH2 0x16B5 JUMP JUMPDEST SWAP2 SWAP1 POP JUMP JUMPDEST PUSH0 PUSH8 0xFFFFFFFFFFFFFFFF DUP3 GT ISZERO PUSH2 0x171A JUMPI PUSH2 0x1719 PUSH2 0x1688 JUMP JUMPDEST JUMPDEST PUSH1 0x20 DUP3 MUL SWAP1 POP PUSH1 0x20 DUP2 ADD SWAP1 POP SWAP2 SWAP1 POP JUMP JUMPDEST PUSH0 DUP1 REVERT JUMPDEST PUSH0 PUSH2 0x1741 PUSH2 0x173C DUP5 PUSH2 0x1700 JUMP JUMPDEST PUSH2 0x16E6 JUMP JUMPDEST SWAP1 POP DUP1 DUP4 DUP3 MSTORE PUSH1 0x20 DUP3 ADD SWAP1 POP PUSH1 0x20 DUP5 MUL DUP4 ADD DUP6 DUP2 GT ISZERO PUSH2 0x1764 JUMPI PUSH2 0x1763 PUSH2 0x172B JUMP JUMPDEST JUMPDEST DUP4 JUMPDEST DUP2 DUP2 LT ISZERO PUSH2 0x178D JUMPI DUP1 PUSH2 0x1779 DUP9 DUP3 PUSH2 0x15E9 JUMP JUMPDEST DUP5 MSTORE PUSH1 0x20 DUP5 ADD SWAP4 POP POP PUSH1 0x20 DUP2 ADD SWAP1 POP PUSH2 0x1766 JUMP JUMPDEST POP POP POP SWAP4 SWAP3 POP POP POP JUMP JUMPDEST PUSH0 DUP3 PUSH1 0x1F DUP4 ADD SLT PUSH2 0x17AB JUMPI PUSH2 0x17AA PUSH2 0x1674 JUMP JUMPDEST JUMPDEST DUP2 CALLDATALOAD PUSH2 0x17BB DUP5 DUP3 PUSH1 0x20 DUP7 ADD PUSH2 0x172F JUMP JUMPDEST SWAP2 POP POP SWAP3 SWAP2 POP POP JUMP JUMPDEST PUSH0 PUSH1 0x20 DUP3 DUP5 SUB SLT ISZERO PUSH2 0x17D9 JUMPI PUSH2 0x17D8 PUSH2 0x1431 JUMP JUMPDEST JUMPDEST PUSH0 DUP3 ADD CALLDATALOAD PUSH8 0xFFFFFFFFFFFFFFFF DUP2 GT ISZERO PUSH2 0x17F6 JUMPI PUSH2 0x17F5 PUSH2 0x1435 JUMP JUMPDEST JUMPDEST PUSH2 0x1802 DUP5 DUP3 DUP6 ADD PUSH2 0x1797 JUMP JUMPDEST SWAP2 POP POP SWAP3 SWAP2 POP POP JUMP JUMPDEST PUSH0 PUSH1 0x20 DUP3 DUP5 SUB SLT ISZERO PUSH2 0x1820 JUMPI PUSH2 0x181F PUSH2 0x1431 JUMP JUMPDEST JUMPDEST PUSH0 PUSH2 0x182D DUP5 DUP3 DUP6 ADD PUSH2 0x15E9 JUMP JUMPDEST SWAP2 POP POP SWAP3 SWAP2 POP POP JUMP JUMPDEST PUSH0 DUP2 SWAP1 POP SWAP2 SWAP1 POP JUMP JUMPDEST PUSH0 PUSH2 0x1859 PUSH2 0x1854 PUSH2 0x184F DUP5 PUSH2 0x15A3 JUMP JUMPDEST PUSH2 0x1836 JUMP JUMPDEST PUSH2 0x15A3 JUMP JUMPDEST SWAP1 POP SWAP2 SWAP1 POP JUMP JUMPDEST PUSH0 PUSH2 0x186A DUP3 PUSH2 0x183F JUMP JUMPDEST SWAP1 POP SWAP2 SWAP1 POP JUMP JUMPDEST PUSH0 PUSH2 0x187B DUP3 PUSH2 0x1860 JUMP JUMPDEST SWAP1 POP SWAP2 SWAP1 POP JUMP JUMPDEST PUSH2 0x188B DUP2 PUSH2 0x1871 JUMP JUMPDEST DUP3 MSTORE POP POP JUMP JUMPDEST PUSH0 PUSH1 0x20 DUP3 ADD SWAP1 POP PUSH2 0x18A4 PUSH0 DUP4 ADD DUP5 PUSH2 0x1882 JUMP JUMPDEST SWAP3 SWAP2 POP POP JUMP JUMPDEST PUSH0 PUSH1 0x40 DUP3 ADD SWAP1 POP PUSH2 0x18BD PUSH0 DUP4 ADD DUP6 PUSH2 0x157B JUMP JUMPDEST PUSH2 0x18CA PUSH1 0x20 DUP4 ADD DUP5 PUSH2 0x157B JUMP JUMPDEST SWAP4 SWAP3 POP POP POP JUMP JUMPDEST PUSH0 DUP3 DUP3 MSTORE PUSH1 0x20 DUP3 ADD SWAP1 POP SWAP3 SWAP2 POP POP JUMP JUMPDEST PUSH32 0x416363657373436F6E74726F6C3A2063616E206F6E6C792072656E6F756E6365 PUSH0 DUP3 ADD MSTORE PUSH32 0x20726F6C657320666F722073656C660000000000000000000000000000000000 PUSH1 0x20 DUP3 ADD MSTORE POP JUMP JUMPDEST PUSH0 PUSH2 0x193B PUSH1 0x2F DUP4 PUSH2 0x18D1 JUMP JUMPDEST SWAP2 POP PUSH2 0x1946 DUP3 PUSH2 0x18E1 JUMP JUMPDEST PUSH1 0x40 DUP3 ADD SWAP1 POP SWAP2 SWAP1 POP JUMP JUMPDEST PUSH0 PUSH1 0x20 DUP3 ADD SWAP1 POP DUP2 DUP2 SUB PUSH0 DUP4 ADD MSTORE PUSH2 0x1968 DUP2 PUSH2 0x192F JUMP JUMPDEST SWAP1 POP SWAP2 SWAP1 POP JUMP JUMPDEST PUSH32 0x4E487B7100000000000000000000000000000000000000000000000000000000 PUSH0 MSTORE PUSH1 0x32 PUSH1 0x4 MSTORE PUSH1 0x24 PUSH0 REVERT JUMPDEST PUSH32 0x4E487B7100000000000000000000000000000000000000000000000000000000 PUSH0 MSTORE PUSH1 0x11 PUSH1 0x4 MSTORE PUSH1 0x24 PUSH0 REVERT JUMPDEST PUSH0 PUSH2 0x19D3 DUP3 PUSH2 0x1572 JUMP JUMPDEST SWAP2 POP PUSH32 0xFFFFFFFFFFFFFFFFFFFFFFFFFFFFFFFFFFFFFFFFFFFFFFFFFFFFFFFFFFFFFFFF DUP3 SUB PUSH2 0x1A05 JUMPI PUSH2 0x1A04 PUSH2 0x199C JUMP JUMPDEST JUMPDEST PUSH1 0x1 DUP3 ADD SWAP1 POP SWAP2 SWAP1 POP JUMP JUMPDEST PUSH32 0x5265656E7472616E637947756172643A207265656E7472616E742063616C6C00 PUSH0 DUP3 ADD MSTORE POP JUMP JUMPDEST PUSH0 PUSH2 0x1A44 PUSH1 0x1F DUP4 PUSH2 0x18D1 JUMP JUMPDEST SWAP2 POP PUSH2 0x1A4F DUP3 PUSH2 0x1A10 JUMP JUMPDEST PUSH1 0x20 DUP3 ADD SWAP1 POP SWAP2 SWAP1 POP JUMP JUMPDEST PUSH0 PUSH1 0x20 DUP3 ADD SWAP1 POP DUP2 DUP2 SUB PUSH0 DUP4 ADD MSTORE PUSH2 0x1A71 DUP2 PUSH2 0x1A38 JUMP JUMPDEST SWAP1 POP SWAP2 SWAP1 POP JUMP JUMPDEST PUSH32 0x57686974656C69737443726F776473616C653A2062656E656669636961727920 PUSH0 DUP3 ADD MSTORE PUSH32 0x646F65736E27742068617665207468652057686974656C697374656420726F6C PUSH1 0x20 DUP3 ADD MSTORE PUSH32 0x6500000000000000000000000000000000000000000000000000000000000000 PUSH1 0x40 DUP3 ADD MSTORE POP JUMP JUMPDEST PUSH0 PUSH2 0x1AF8 PUSH1 0x41 DUP4 PUSH2 0x18D1 JUMP JUMPDEST SWAP2 POP PUSH2 0x1B03 DUP3 PUSH2 0x1A78 JUMP JUMPDEST PUSH1 0x60 DUP3 ADD SWAP1 POP SWAP2 SWAP1 POP JUMP JUMPDEST PUSH0 PUSH1 0x20 DUP3 ADD SWAP1 POP DUP2 DUP2 SUB PUSH0 DUP4 ADD MSTORE PUSH2 0x1B25 DUP2 PUSH2 0x1AEC JUMP JUMPDEST SWAP1 POP SWAP2 SWAP1 POP JUMP JUMPDEST PUSH0 PUSH2 0x1B36 DUP3 PUSH2 0x1572 JUMP JUMPDEST SWAP2 POP PUSH2 0x1B41 DUP4 PUSH2 0x1572 JUMP JUMPDEST SWAP3 POP DUP3 DUP3 ADD SWAP1 POP DUP1 DUP3 GT ISZERO PUSH2 0x1B59 JUMPI PUSH2 0x1B58 PUSH2 0x199C JUMP JUMPDEST JUMPDEST SWAP3 SWAP2 POP POP JUMP JUMPDEST PUSH32 0x43726F776473616C653A2062656E656669636961727920697320746865207A65 PUSH0 DUP3 ADD MSTORE PUSH32 0x726F206164647265737300000000000000000000000000000000000000000000 PUSH1 0x20 DUP3 ADD MSTORE POP JUMP JUMPDEST PUSH0 PUSH2 0x1BB9 PUSH1 0x2A DUP4 PUSH2 0x18D1 JUMP JUMPDEST SWAP2 POP PUSH2 0x1BC4 DUP3 PUSH2 0x1B5F JUMP JUMPDEST PUSH1 0x40 DUP3 ADD SWAP1 POP SWAP2 SWAP1 POP JUMP JUMPDEST PUSH0 PUSH1 0x20 DUP3 ADD SWAP1 POP DUP2 DUP2 SUB PUSH0 DUP4 ADD MSTORE PUSH2 0x1BE6 DUP2 PUSH2 0x1BAD JUMP JUMPDEST SWAP1 POP SWAP2 SWAP1 POP JUMP JUMPDEST PUSH32 0x43726F776473616C653A20776569416D6F756E74206973203000000000000000 PUSH0 DUP3 ADD MSTORE POP JUMP JUMPDEST PUSH0 PUSH2 0x1C21 PUSH1 0x19 DUP4 PUSH2 0x18D1 JUMP JUMPDEST SWAP2 POP PUSH2 0x1C2C DUP3 PUSH2 0x1BED JUMP JUMPDEST PUSH1 0x20 DUP3 ADD SWAP1 POP SWAP2 SWAP1 POP JUMP JUMPDEST PUSH0 PUSH1 0x20 DUP3 ADD SWAP1 POP DUP2 DUP2 SUB PUSH0 DUP4 ADD MSTORE PUSH2 0x1C4E DUP2 PUSH2 0x1C15 JUMP JUMPDEST SWAP1 POP SWAP2 SWAP1 POP JUMP JUMPDEST PUSH0 PUSH2 0x1C5F DUP3 PUSH2 0x1572 JUMP JUMPDEST SWAP2 POP PUSH2 0x1C6A DUP4 PUSH2 0x1572 JUMP JUMPDEST SWAP3 POP DUP3 DUP3 MUL PUSH2 0x1C78 DUP2 PUSH2 0x1572 JUMP JUMPDEST SWAP2 POP DUP3 DUP3 DIV DUP5 EQ DUP4 ISZERO OR PUSH2 0x1C8F JUMPI PUSH2 0x1C8E PUSH2 0x199C JUMP JUMPDEST JUMPDEST POP SWAP3 SWAP2 POP POP JUMP JUMPDEST PUSH0 DUP2 SWAP1 POP SWAP3 SWAP2 POP POP JUMP JUMPDEST PUSH32 0x416363657373436F6E74726F6C3A206163636F756E7420000000000000000000 PUSH0 DUP3 ADD MSTORE POP JUMP JUMPDEST PUSH0 PUSH2 0x1CD4 PUSH1 0x17 DUP4 PUSH2 0x1C96 JUMP JUMPDEST SWAP2 POP PUSH2 0x1CDF DUP3 PUSH2 0x1CA0 JUMP JUMPDEST PUSH1 0x17 DUP3 ADD SWAP1 POP SWAP2 SWAP1 POP JUMP JUMPDEST PUSH0 DUP2 MLOAD SWAP1 POP SWAP2 SWAP1 POP JUMP JUMPDEST PUSH0 JUMPDEST DUP4 DUP2 LT ISZERO PUSH2 0x1D11 JUMPI DUP1 DUP3 ADD MLOAD DUP2 DUP5 ADD MSTORE PUSH1 0x20 DUP2 ADD SWAP1 POP PUSH2 0x1CF6 JUMP JUMPDEST PUSH0 DUP5 DUP5 ADD MSTORE POP POP POP POP JUMP JUMPDEST PUSH0 PUSH2 0x1D26 DUP3 PUSH2 0x1CEA JUMP JUMPDEST PUSH2 0x1D30 DUP2 DUP6 PUSH2 0x1C96 JUMP JUMPDEST SWAP4 POP PUSH2 0x1D40 DUP2 DUP6 PUSH1 0x20 DUP7 ADD PUSH2 0x1CF4 JUMP JUMPDEST DUP1 DUP5 ADD SWAP2 POP POP SWAP3 SWAP2 POP POP JUMP JUMPDEST PUSH32 0x206973206D697373696E6720726F6C6520000000000000000000000000000000 PUSH0 DUP3 ADD MSTORE POP JUMP JUMPDEST PUSH0 PUSH2 0x1D80 PUSH1 0x11 DUP4 PUSH2 0x1C96 JUMP JUMPDEST SWAP2 POP PUSH2 0x1D8B DUP3 PUSH2 0x1D4C JUMP JUMPDEST PUSH1 0x11 DUP3 ADD SWAP1 POP SWAP2 SWAP1 POP JUMP JUMPDEST PUSH0 PUSH2 0x1DA0 DUP3 PUSH2 0x1CC8 JUMP JUMPDEST SWAP2 POP PUSH2 0x1DAC DUP3 DUP6 PUSH2 0x1D1C JUMP JUMPDEST SWAP2 POP PUSH2 0x1DB7 DUP3 PUSH2 0x1D74 JUMP JUMPDEST SWAP2 POP PUSH2 0x1DC3 DUP3 DUP5 PUSH2 0x1D1C JUMP JUMPDEST SWAP2 POP DUP2 SWAP1 POP SWAP4 SWAP3 POP POP POP JUMP JUMPDEST PUSH0 PUSH2 0x1DD9 DUP3 PUSH2 0x1CEA JUMP JUMPDEST PUSH2 0x1DE3 DUP2 DUP6 PUSH2 0x18D1 JUMP JUMPDEST SWAP4 POP PUSH2 0x1DF3 DUP2 DUP6 PUSH1 0x20 DUP7 ADD PUSH2 0x1CF4 JUMP JUMPDEST PUSH2 0x1DFC DUP2 PUSH2 0x1678 JUMP JUMPDEST DUP5 ADD SWAP2 POP POP SWAP3 SWAP2 POP POP JUMP JUMPDEST PUSH0 PUSH1 0x20 DUP3 ADD SWAP1 POP DUP2 DUP2 SUB PUSH0 DUP4 ADD MSTORE PUSH2 0x1E1F DUP2 DUP5 PUSH2 0x1DCF JUMP JUMPDEST SWAP1 POP SWAP3 SWAP2 POP POP JUMP JUMPDEST PUSH2 0x1E30 DUP2 PUSH2 0x15C2 JUMP JUMPDEST DUP3 MSTORE POP POP JUMP JUMPDEST PUSH0 PUSH1 0x40 DUP3 ADD SWAP1 POP PUSH2 0x1E49 PUSH0 DUP4 ADD DUP6 PUSH2 0x1E27 JUMP JUMPDEST PUSH2 0x1E56 PUSH1 0x20 DUP4 ADD DUP5 PUSH2 0x157B JUMP JUMPDEST SWAP4 SWAP3 POP POP POP JUMP JUMPDEST PUSH0 PUSH2 0x1E67 DUP3 PUSH2 0x1572 JUMP JUMPDEST SWAP2 POP PUSH0 DUP3 SUB PUSH2 0x1E79 JUMPI PUSH2 0x1E78 PUSH2 0x199C JUMP JUMPDEST JUMPDEST PUSH1 0x1 DUP3 SUB SWAP1 POP SWAP2 SWAP1 POP JUMP JUMPDEST PUSH32 0x537472696E67733A20686578206C656E67746820696E73756666696369656E74 PUSH0 DUP3 ADD MSTORE POP JUMP JUMPDEST PUSH0 PUSH2 0x1EB8 PUSH1 0x20 DUP4 PUSH2 0x18D1 JUMP JUMPDEST SWAP2 POP PUSH2 0x1EC3 DUP3 PUSH2 0x1E84 JUMP JUMPDEST PUSH1 0x20 DUP3 ADD SWAP1 POP SWAP2 SWAP1 POP JUMP JUMPDEST PUSH0 PUSH1 0x20 DUP3 ADD SWAP1 POP DUP2 DUP2 SUB PUSH0 DUP4 ADD MSTORE PUSH2 0x1EE5 DUP2 PUSH2 0x1EAC JUMP JUMPDEST SWAP1 POP SWAP2 SWAP1 POP JUMP JUMPDEST PUSH2 0x1EF5 DUP2 PUSH2 0x14B9 JUMP JUMPDEST DUP2 EQ PUSH2 0x1EFF JUMPI PUSH0 DUP1 REVERT JUMPDEST POP JUMP JUMPDEST PUSH0 DUP2 MLOAD SWAP1 POP PUSH2 0x1F10 DUP2 PUSH2 0x1EEC JUMP JUMPDEST SWAP3 SWAP2 POP POP JUMP JUMPDEST PUSH0 PUSH1 0x20 DUP3 DUP5 SUB SLT ISZERO PUSH2 0x1F2B JUMPI PUSH2 0x1F2A PUSH2 0x1431 JUMP JUMPDEST JUMPDEST PUSH0 PUSH2 0x1F38 DUP5 DUP3 DUP6 ADD PUSH2 0x1F02 JUMP JUMPDEST SWAP2 POP POP SWAP3 SWAP2 POP POP JUMP JUMPDEST PUSH32 0x5361666545524332303A204552433230206F7065726174696F6E20646964206E PUSH0 DUP3 ADD MSTORE PUSH32 0x6F74207375636365656400000000000000000000000000000000000000000000 PUSH1 0x20 DUP3 ADD MSTORE POP JUMP JUMPDEST PUSH0 PUSH2 0x1F9B PUSH1 0x2A DUP4 PUSH2 0x18D1 JUMP JUMPDEST SWAP2 POP PUSH2 0x1FA6 DUP3 PUSH2 0x1F41 JUMP JUMPDEST PUSH1 0x40 DUP3 ADD SWAP1 POP SWAP2 SWAP1 POP JUMP JUMPDEST PUSH0 PUSH1 0x20 DUP3 ADD SWAP1 POP DUP2 DUP2 SUB PUSH0 DUP4 ADD MSTORE PUSH2 0x1FC8 DUP2 PUSH2 0x1F8F JUMP JUMPDEST SWAP1 POP SWAP2 SWAP1 POP JUMP JUMPDEST PUSH32 0x416464726573733A20696E73756666696369656E742062616C616E636520666F PUSH0 DUP3 ADD MSTORE PUSH32 0x722063616C6C0000000000000000000000000000000000000000000000000000 PUSH1 0x20 DUP3 ADD MSTORE POP JUMP JUMPDEST PUSH0 PUSH2 0x2029 PUSH1 0x26 DUP4 PUSH2 0x18D1 JUMP JUMPDEST SWAP2 POP PUSH2 0x2034 DUP3 PUSH2 0x1FCF JUMP JUMPDEST PUSH1 0x40 DUP3 ADD SWAP1 POP SWAP2 SWAP1 POP JUMP JUMPDEST PUSH0 PUSH1 0x20 DUP3 ADD SWAP1 POP DUP2 DUP2 SUB PUSH0 DUP4 ADD MSTORE PUSH2 0x2056 DUP2 PUSH2 0x201D JUMP JUMPDEST SWAP1 POP SWAP2 SWAP1 POP JUMP JUMPDEST PUSH0 DUP2 MLOAD SWAP1 POP SWAP2 SWAP1 POP JUMP JUMPDEST PUSH0 DUP2 SWAP1 POP SWAP3 SWAP2 POP POP JUMP JUMPDEST PUSH0 PUSH2 0x207B DUP3 PUSH2 0x205D JUMP JUMPDEST PUSH2 0x2085 DUP2 DUP6 PUSH2 0x2067 JUMP JUMPDEST SWAP4 POP PUSH2 0x2095 DUP2 DUP6 PUSH1 0x20 DUP7 ADD PUSH2 0x1CF4 JUMP JUMPDEST DUP1 DUP5 ADD SWAP2 POP POP SWAP3 SWAP2 POP POP JUMP JUMPDEST PUSH0 PUSH2 0x20AC DUP3 DUP5 PUSH2 0x2071 JUMP JUMPDEST SWAP2 POP DUP2 SWAP1 POP SWAP3 SWAP2 POP POP JUMP JUMPDEST PUSH32 0x416464726573733A2063616C6C20746F206E6F6E2D636F6E7472616374000000 PUSH0 DUP3 ADD MSTORE POP JUMP JUMPDEST PUSH0 PUSH2 0x20EB PUSH1 0x1D DUP4 PUSH2 0x18D1 JUMP JUMPDEST SWAP2 POP PUSH2 0x20F6 DUP3 PUSH2 0x20B7 JUMP JUMPDEST PUSH1 0x20 DUP3 ADD SWAP1 POP SWAP2 SWAP1 POP JUMP JUMPDEST PUSH0 PUSH1 0x20 DUP3 ADD SWAP1 POP DUP2 DUP2 SUB PUSH0 DUP4 ADD MSTORE PUSH2 0x2118 DUP2 PUSH2 0x20DF JUMP JUMPDEST SWAP1 POP SWAP2 SWAP1 POP JUMP INVALID LOG2 PUSH5 0x6970667358 0x22 SLT KECCAK256 0xDD PUSH10 0x84B3055296CEE63DD000 SIGNEXTEND CALLDATALOAD EXTCODECOPY PUSH7 0x3D64C1E6BB8695 SSTORE 0xBE NUMBER GAS SWAP4 PUSH18 0xD5634D64736F6C6343000815003300000000 "
				},
				"gasEstimates": {
					"creation": {
						"codeDepositCost": "1706600",
						"executionCost": "infinite",
						"totalCost": "infinite"
					},
					"external": {
						"": "infinite",
						"DEFAULT_ADMIN_ROLE()": "352",
						"WHITELISTED_ROLE()": "348",
						"WHITELIST_ADMIN_ROLE()": "414",
						"addToWhitelist(address)": "infinite",
						"addToWhitelist(address[])": "infinite",
						"buyTokens(address)": "infinite",
						"getRoleAdmin(bytes32)": "infinite",
						"grantRole(bytes32,address)": "infinite",
						"hasRole(bytes32,address)": "3211",
						"rate()": "2500",
						"removeFromWhitelist(address)": "infinite",
						"removeFromWhitelist(address[])": "infinite",
						"renounceRole(bytes32,address)": "infinite",
						"revokeRole(bytes32,address)": "infinite",
						"supportsInterface(bytes4)": "741",
						"token()": "infinite",
						"wallet()": "2582",
						"weiRaised()": "2477"
					},
					"internal": {
						"_preValidatePurchase(address,uint256)": "infinite"
					}
				},
				"methodIdentifiers": {
					"DEFAULT_ADMIN_ROLE()": "a217fddf",
					"WHITELISTED_ROLE()": "7a3226ec",
					"WHITELIST_ADMIN_ROLE()": "54202c4e",
					"addToWhitelist(address)": "e43252d7",
					"addToWhitelist(address[])": "7f649783",
					"buyTokens(address)": "ec8ac4d8",
					"getRoleAdmin(bytes32)": "248a9ca3",
					"grantRole(bytes32,address)": "2f2ff15d",
					"hasRole(bytes32,address)": "91d14854",
					"rate()": "2c4e722e",
					"removeFromWhitelist(address)": "8ab1d681",
					"removeFromWhitelist(address[])": "548db174",
					"renounceRole(bytes32,address)": "36568abe",
					"revokeRole(bytes32,address)": "d547741f",
					"supportsInterface(bytes4)": "01ffc9a7",
					"token()": "fc0c546a",
					"wallet()": "521eb273",
					"weiRaised()": "4042b66f"
				}
			},
			"storageLayout": {
				"storage": [
					{
						"astId": 399,
						"contract": "crowdsale/validation/whitelistCrowdsale.sol:WhitelistCrowdsale",
						"label": "_status",
						"offset": 0,
						"slot": "0",
						"type": "t_uint256"
					},
					{
						"astId": 2865,
						"contract": "crowdsale/validation/whitelistCrowdsale.sol:WhitelistCrowdsale",
						"label": "_token",
						"offset": 0,
						"slot": "1",
						"type": "t_contract(IERC20)531"
					},
					{
						"astId": 2867,
						"contract": "crowdsale/validation/whitelistCrowdsale.sol:WhitelistCrowdsale",
						"label": "_wallet",
						"offset": 0,
						"slot": "2",
						"type": "t_address_payable"
					},
					{
						"astId": 2869,
						"contract": "crowdsale/validation/whitelistCrowdsale.sol:WhitelistCrowdsale",
						"label": "_rate",
						"offset": 0,
						"slot": "3",
						"type": "t_uint256"
					},
					{
						"astId": 2871,
						"contract": "crowdsale/validation/whitelistCrowdsale.sol:WhitelistCrowdsale",
						"label": "_weiRaised",
						"offset": 0,
						"slot": "4",
						"type": "t_uint256"
					},
					{
						"astId": 24,
						"contract": "crowdsale/validation/whitelistCrowdsale.sol:WhitelistCrowdsale",
						"label": "_roles",
						"offset": 0,
						"slot": "5",
						"type": "t_mapping(t_bytes32,t_struct(RoleData)19_storage)"
					}
				],
				"types": {
					"t_address": {
						"encoding": "inplace",
						"label": "address",
						"numberOfBytes": "20"
					},
					"t_address_payable": {
						"encoding": "inplace",
						"label": "address payable",
						"numberOfBytes": "20"
					},
					"t_bool": {
						"encoding": "inplace",
						"label": "bool",
						"numberOfBytes": "1"
					},
					"t_bytes32": {
						"encoding": "inplace",
						"label": "bytes32",
						"numberOfBytes": "32"
					},
					"t_contract(IERC20)531": {
						"encoding": "inplace",
						"label": "contract IERC20",
						"numberOfBytes": "20"
					},
					"t_mapping(t_address,t_bool)": {
						"encoding": "mapping",
						"key": "t_address",
						"label": "mapping(address => bool)",
						"numberOfBytes": "32",
						"value": "t_bool"
					},
					"t_mapping(t_bytes32,t_struct(RoleData)19_storage)": {
						"encoding": "mapping",
						"key": "t_bytes32",
						"label": "mapping(bytes32 => struct AccessControl.RoleData)",
						"numberOfBytes": "32",
						"value": "t_struct(RoleData)19_storage"
					},
					"t_struct(RoleData)19_storage": {
						"encoding": "inplace",
						"label": "struct AccessControl.RoleData",
						"members": [
							{
								"astId": 16,
								"contract": "crowdsale/validation/whitelistCrowdsale.sol:WhitelistCrowdsale",
								"label": "members",
								"offset": 0,
								"slot": "0",
								"type": "t_mapping(t_address,t_bool)"
							},
							{
								"astId": 18,
								"contract": "crowdsale/validation/whitelistCrowdsale.sol:WhitelistCrowdsale",
								"label": "adminRole",
								"offset": 0,
								"slot": "1",
								"type": "t_bytes32"
							}
						],
						"numberOfBytes": "64"
					},
					"t_uint256": {
						"encoding": "inplace",
						"label": "uint256",
						"numberOfBytes": "32"
					}
				}
			},
			"userdoc": {
				"events": {
					"TokensPurchased(address,address,uint256,uint256)": {
						"notice": "Event for token purchase logging"
					}
				},
				"kind": "user",
				"methods": {},
				"version": 1
			}
		}
	}
}