{
	"crowdsale/validation/pausableCrowdsale.sol": {
		"PausableCrowdsale": {
			"abi": [
				{
					"inputs": [
						{
							"internalType": "uint256",
							"name": "inRate",
							"type": "uint256"
						},
						{
							"internalType": "address payable",
							"name": "inWallet",
							"type": "address"
						},
						{
							"internalType": "contract IERC20",
							"name": "inToken",
							"type": "address"
						}
					],
					"stateMutability": "nonpayable",
					"type": "constructor"
				},
				{
					"anonymous": false,
					"inputs": [
						{
							"indexed": false,
							"internalType": "address",
							"name": "account",
							"type": "address"
						}
					],
					"name": "Paused",
					"type": "event"
				},
				{
					"anonymous": false,
					"inputs": [
						{
							"indexed": true,
							"internalType": "address",
							"name": "purchaser",
							"type": "address"
						},
						{
							"indexed": true,
							"internalType": "address",
							"name": "beneficiary",
							"type": "address"
						},
						{
							"indexed": false,
							"internalType": "uint256",
							"name": "value",
							"type": "uint256"
						},
						{
							"indexed": false,
							"internalType": "uint256",
							"name": "amount",
							"type": "uint256"
						}
					],
					"name": "TokensPurchased",
					"type": "event"
				},
				{
					"anonymous": false,
					"inputs": [
						{
							"indexed": false,
							"internalType": "address",
							"name": "account",
							"type": "address"
						}
					],
					"name": "Unpaused",
					"type": "event"
				},
				{
					"stateMutability": "payable",
					"type": "fallback"
				},
				{
					"inputs": [
						{
							"internalType": "address",
							"name": "beneficiary",
							"type": "address"
						}
					],
					"name": "buyTokens",
					"outputs": [],
					"stateMutability": "payable",
					"type": "function"
				},
				{
					"inputs": [],
					"name": "paused",
					"outputs": [
						{
							"internalType": "bool",
							"name": "",
							"type": "bool"
						}
					],
					"stateMutability": "view",
					"type": "function"
				},
				{
					"inputs": [],
					"name": "rate",
					"outputs": [
						{
							"internalType": "uint256",
							"name": "",
							"type": "uint256"
						}
					],
					"stateMutability": "view",
					"type": "function"
				},
				{
					"inputs": [],
					"name": "token",
					"outputs": [
						{
							"internalType": "contract IERC20",
							"name": "",
							"type": "address"
						}
					],
					"stateMutability": "view",
					"type": "function"
				},
				{
					"inputs": [],
					"name": "wallet",
					"outputs": [
						{
							"internalType": "address payable",
							"name": "",
							"type": "address"
						}
					],
					"stateMutability": "view",
					"type": "function"
				},
				{
					"inputs": [],
					"name": "weiRaised",
					"outputs": [
						{
							"internalType": "uint256",
							"name": "",
							"type": "uint256"
						}
					],
					"stateMutability": "view",
					"type": "function"
				},
				{
					"stateMutability": "payable",
					"type": "receive"
				}
			],
			"devdoc": {
				"details": "Extension of Crowdsale contract where purchases can be paused and unpaused by the pauser role.",
				"events": {
					"Paused(address)": {
						"details": "Emitted when the pause is triggered by `account`."
					},
					"TokensPurchased(address,address,uint256,uint256)": {
						"params": {
							"amount": "amount of tokens purchased",
							"beneficiary": "who got the tokens",
							"purchaser": "who paid for the tokens",
							"value": "weis paid for purchase"
						}
					},
					"Unpaused(address)": {
						"details": "Emitted when the pause is lifted by `account`."
					}
				},
				"kind": "dev",
				"methods": {
					"buyTokens(address)": {
						"details": "low level token purchase ***DO NOT OVERRIDE*** This function has a non-reentrancy guard, so it shouldn't be called by another `nonReentrant` function.",
						"params": {
							"beneficiary": "Recipient of the token purchase"
						}
					},
					"paused()": {
						"details": "Returns true if the contract is paused, and false otherwise."
					},
					"rate()": {
						"returns": {
							"_0": "the number of token units a buyer gets per wei."
						}
					},
					"token()": {
						"returns": {
							"_0": "the token being sold."
						}
					},
					"wallet()": {
						"returns": {
							"_0": "the address where funds are collected."
						}
					},
					"weiRaised()": {
						"returns": {
							"_0": "the amount of wei raised."
						}
					}
				},
				"title": "PausableCrowdsale",
				"version": 1
			},
			"evm": {
				"assembly": "    /* \"crowdsale/validation/pausableCrowdsale.sol\":299:1051  contract PausableCrowdsale is Crowdsale, Pausable {... */\n  mstore(0x40, 0x80)\n    /* \"crowdsale/validation/pausableCrowdsale.sol\":356:477  constructor(uint256 inRate, address payable inWallet, IERC20 inToken) ... */\n  callvalue\n  dup1\n  iszero\n  tag_1\n  jumpi\n  0x00\n  dup1\n  revert\ntag_1:\n  pop\n  mload(0x40)\n  sub(codesize, bytecodeSize)\n  dup1\n  bytecodeSize\n  dup4\n  codecopy\n  dup2\n  dup2\n  add\n  0x40\n  mstore\n  dup2\n  add\n  swap1\n  tag_2\n  swap2\n  swap1\n  tag_3\n  jump\t// in\ntag_2:\n    /* \"crowdsale/validation/pausableCrowdsale.sol\":442:448  inRate */\n  dup3\n    /* \"crowdsale/validation/pausableCrowdsale.sol\":450:458  inWallet */\n  dup3\n    /* \"crowdsale/validation/pausableCrowdsale.sol\":460:467  inToken */\n  dup3\n    /* \"@openzeppelin/contracts/security/ReentrancyGuard.sol\":1716:1717  1 */\n  0x01\n    /* \"@openzeppelin/contracts/security/ReentrancyGuard.sol\":1821:1828  _status */\n  0x00\n    /* \"@openzeppelin/contracts/security/ReentrancyGuard.sol\":1821:1843  _status = _NOT_ENTERED */\n  dup2\n  swap1\n  sstore\n  pop\n    /* \"crowdsale/crowdsale.sol\":2644:2645  0 */\n  0x00\n    /* \"crowdsale/crowdsale.sol\":2635:2641  inRate */\n  dup4\n    /* \"crowdsale/crowdsale.sol\":2635:2645  inRate > 0 */\n  gt\n    /* \"crowdsale/crowdsale.sol\":2627:2670  require(inRate > 0, \"Crowdsale: rate is 0\") */\n  tag_10\n  jumpi\n  mload(0x40)\n  0x08c379a000000000000000000000000000000000000000000000000000000000\n  dup2\n  mstore\n  0x04\n  add\n  tag_11\n  swap1\n  tag_12\n  jump\t// in\ntag_11:\n  mload(0x40)\n  dup1\n  swap2\n  sub\n  swap1\n  revert\ntag_10:\n    /* \"crowdsale/crowdsale.sol\":2709:2710  0 */\n  0x00\n    /* \"crowdsale/crowdsale.sol\":2689:2711  inWallet != address(0) */\n  0xffffffffffffffffffffffffffffffffffffffff\n  and\n    /* \"crowdsale/crowdsale.sol\":2689:2697  inWallet */\n  dup3\n    /* \"crowdsale/crowdsale.sol\":2689:2711  inWallet != address(0) */\n  0xffffffffffffffffffffffffffffffffffffffff\n  and\n  sub\n    /* \"crowdsale/crowdsale.sol\":2681:2753  require(inWallet != address(0), \"Crowdsale: wallet is the zero address\") */\n  tag_13\n  jumpi\n  mload(0x40)\n  0x08c379a000000000000000000000000000000000000000000000000000000000\n  dup2\n  mstore\n  0x04\n  add\n  tag_14\n  swap1\n  tag_15\n  jump\t// in\ntag_14:\n  mload(0x40)\n  dup1\n  swap2\n  sub\n  swap1\n  revert\ntag_13:\n    /* \"crowdsale/crowdsale.sol\":2800:2801  0 */\n  0x00\n    /* \"crowdsale/crowdsale.sol\":2772:2802  address(inToken) != address(0) */\n  0xffffffffffffffffffffffffffffffffffffffff\n  and\n    /* \"crowdsale/crowdsale.sol\":2780:2787  inToken */\n  dup2\n    /* \"crowdsale/crowdsale.sol\":2772:2802  address(inToken) != address(0) */\n  0xffffffffffffffffffffffffffffffffffffffff\n  and\n  sub\n    /* \"crowdsale/crowdsale.sol\":2764:2843  require(address(inToken) != address(0), \"Crowdsale: token is the zero address\") */\n  tag_16\n  jumpi\n  mload(0x40)\n  0x08c379a000000000000000000000000000000000000000000000000000000000\n  dup2\n  mstore\n  0x04\n  add\n  tag_17\n  swap1\n  tag_18\n  jump\t// in\ntag_17:\n  mload(0x40)\n  dup1\n  swap2\n  sub\n  swap1\n  revert\ntag_16:\n    /* \"crowdsale/crowdsale.sol\":2864:2870  inRate */\n  dup3\n    /* \"crowdsale/crowdsale.sol\":2856:2861  _rate */\n  0x03\n    /* \"crowdsale/crowdsale.sol\":2856:2870  _rate = inRate */\n  dup2\n  swap1\n  sstore\n  pop\n    /* \"crowdsale/crowdsale.sol\":2891:2899  inWallet */\n  dup2\n    /* \"crowdsale/crowdsale.sol\":2881:2888  _wallet */\n  0x02\n  0x00\n    /* \"crowdsale/crowdsale.sol\":2881:2899  _wallet = inWallet */\n  0x0100\n  exp\n  dup2\n  sload\n  dup2\n  0xffffffffffffffffffffffffffffffffffffffff\n  mul\n  not\n  and\n  swap1\n  dup4\n  0xffffffffffffffffffffffffffffffffffffffff\n  and\n  mul\n  or\n  swap1\n  sstore\n  pop\n    /* \"crowdsale/crowdsale.sol\":2919:2926  inToken */\n  dup1\n    /* \"crowdsale/crowdsale.sol\":2910:2916  _token */\n  0x01\n  0x00\n    /* \"crowdsale/crowdsale.sol\":2910:2926  _token = inToken */\n  0x0100\n  exp\n  dup2\n  sload\n  dup2\n  0xffffffffffffffffffffffffffffffffffffffff\n  mul\n  not\n  and\n  swap1\n  dup4\n  0xffffffffffffffffffffffffffffffffffffffff\n  and\n  mul\n  or\n  swap1\n  sstore\n  pop\n    /* \"crowdsale/crowdsale.sol\":2545:2934  constructor (uint256 inRate, address payable inWallet, IERC20 inToken) {... */\n  pop\n  pop\n  pop\n    /* \"@openzeppelin/contracts/security/Pausable.sol\":1006:1011  false */\n  0x00\n    /* \"@openzeppelin/contracts/security/Pausable.sol\":996:1003  _paused */\n  0x05\n  0x00\n    /* \"@openzeppelin/contracts/security/Pausable.sol\":996:1011  _paused = false */\n  0x0100\n  exp\n  dup2\n  sload\n  dup2\n  0xff\n  mul\n  not\n  and\n  swap1\n  dup4\n  iszero\n  iszero\n  mul\n  or\n  swap1\n  sstore\n  pop\n    /* \"crowdsale/validation/pausableCrowdsale.sol\":356:477  constructor(uint256 inRate, address payable inWallet, IERC20 inToken) ... */\n  pop\n  pop\n  pop\n    /* \"crowdsale/validation/pausableCrowdsale.sol\":299:1051  contract PausableCrowdsale is Crowdsale, Pausable {... */\n  jump(tag_21)\n    /* \"#utility.yul\":88:205   */\ntag_23:\n    /* \"#utility.yul\":197:198   */\n  0x00\n    /* \"#utility.yul\":194:195   */\n  dup1\n    /* \"#utility.yul\":187:199   */\n  revert\n    /* \"#utility.yul\":334:411   */\ntag_25:\n    /* \"#utility.yul\":371:378   */\n  0x00\n    /* \"#utility.yul\":400:405   */\n  dup2\n    /* \"#utility.yul\":389:405   */\n  swap1\n  pop\n    /* \"#utility.yul\":334:411   */\n  swap2\n  swap1\n  pop\n  jump\t// out\n    /* \"#utility.yul\":417:539   */\ntag_26:\n    /* \"#utility.yul\":490:514   */\n  tag_49\n    /* \"#utility.yul\":508:513   */\n  dup2\n    /* \"#utility.yul\":490:514   */\n  tag_25\n  jump\t// in\ntag_49:\n    /* \"#utility.yul\":483:488   */\n  dup2\n    /* \"#utility.yul\":480:515   */\n  eq\n    /* \"#utility.yul\":470:533   */\n  tag_50\n  jumpi\n    /* \"#utility.yul\":529:530   */\n  0x00\n    /* \"#utility.yul\":526:527   */\n  dup1\n    /* \"#utility.yul\":519:531   */\n  revert\n    /* \"#utility.yul\":470:533   */\ntag_50:\n    /* \"#utility.yul\":417:539   */\n  pop\n  jump\t// out\n    /* \"#utility.yul\":545:688   */\ntag_27:\n    /* \"#utility.yul\":602:607   */\n  0x00\n    /* \"#utility.yul\":633:639   */\n  dup2\n    /* \"#utility.yul\":627:640   */\n  mload\n    /* \"#utility.yul\":618:640   */\n  swap1\n  pop\n    /* \"#utility.yul\":649:682   */\n  tag_52\n    /* \"#utility.yul\":676:681   */\n  dup2\n    /* \"#utility.yul\":649:682   */\n  tag_26\n  jump\t// in\ntag_52:\n    /* \"#utility.yul\":545:688   */\n  swap3\n  swap2\n  pop\n  pop\n  jump\t// out\n    /* \"#utility.yul\":694:820   */\ntag_28:\n    /* \"#utility.yul\":731:738   */\n  0x00\n    /* \"#utility.yul\":771:813   */\n  0xffffffffffffffffffffffffffffffffffffffff\n    /* \"#utility.yul\":764:769   */\n  dup3\n    /* \"#utility.yul\":760:814   */\n  and\n    /* \"#utility.yul\":749:814   */\n  swap1\n  pop\n    /* \"#utility.yul\":694:820   */\n  swap2\n  swap1\n  pop\n  jump\t// out\n    /* \"#utility.yul\":826:930   */\ntag_29:\n    /* \"#utility.yul\":871:878   */\n  0x00\n    /* \"#utility.yul\":900:924   */\n  tag_55\n    /* \"#utility.yul\":918:923   */\n  dup3\n    /* \"#utility.yul\":900:924   */\n  tag_28\n  jump\t// in\ntag_55:\n    /* \"#utility.yul\":889:924   */\n  swap1\n  pop\n    /* \"#utility.yul\":826:930   */\n  swap2\n  swap1\n  pop\n  jump\t// out\n    /* \"#utility.yul\":936:1074   */\ntag_30:\n    /* \"#utility.yul\":1017:1049   */\n  tag_57\n    /* \"#utility.yul\":1043:1048   */\n  dup2\n    /* \"#utility.yul\":1017:1049   */\n  tag_29\n  jump\t// in\ntag_57:\n    /* \"#utility.yul\":1010:1015   */\n  dup2\n    /* \"#utility.yul\":1007:1050   */\n  eq\n    /* \"#utility.yul\":997:1068   */\n  tag_58\n  jumpi\n    /* \"#utility.yul\":1064:1065   */\n  0x00\n    /* \"#utility.yul\":1061:1062   */\n  dup1\n    /* \"#utility.yul\":1054:1066   */\n  revert\n    /* \"#utility.yul\":997:1068   */\ntag_58:\n    /* \"#utility.yul\":936:1074   */\n  pop\n  jump\t// out\n    /* \"#utility.yul\":1080:1239   */\ntag_31:\n    /* \"#utility.yul\":1145:1150   */\n  0x00\n    /* \"#utility.yul\":1176:1182   */\n  dup2\n    /* \"#utility.yul\":1170:1183   */\n  mload\n    /* \"#utility.yul\":1161:1183   */\n  swap1\n  pop\n    /* \"#utility.yul\":1192:1233   */\n  tag_60\n    /* \"#utility.yul\":1227:1232   */\n  dup2\n    /* \"#utility.yul\":1192:1233   */\n  tag_30\n  jump\t// in\ntag_60:\n    /* \"#utility.yul\":1080:1239   */\n  swap3\n  swap2\n  pop\n  pop\n  jump\t// out\n    /* \"#utility.yul\":1245:1341   */\ntag_32:\n    /* \"#utility.yul\":1282:1289   */\n  0x00\n    /* \"#utility.yul\":1311:1335   */\n  tag_62\n    /* \"#utility.yul\":1329:1334   */\n  dup3\n    /* \"#utility.yul\":1311:1335   */\n  tag_28\n  jump\t// in\ntag_62:\n    /* \"#utility.yul\":1300:1335   */\n  swap1\n  pop\n    /* \"#utility.yul\":1245:1341   */\n  swap2\n  swap1\n  pop\n  jump\t// out\n    /* \"#utility.yul\":1347:1457   */\ntag_33:\n    /* \"#utility.yul\":1398:1405   */\n  0x00\n    /* \"#utility.yul\":1427:1451   */\n  tag_64\n    /* \"#utility.yul\":1445:1450   */\n  dup3\n    /* \"#utility.yul\":1427:1451   */\n  tag_32\n  jump\t// in\ntag_64:\n    /* \"#utility.yul\":1416:1451   */\n  swap1\n  pop\n    /* \"#utility.yul\":1347:1457   */\n  swap2\n  swap1\n  pop\n  jump\t// out\n    /* \"#utility.yul\":1463:1613   */\ntag_34:\n    /* \"#utility.yul\":1550:1588   */\n  tag_66\n    /* \"#utility.yul\":1582:1587   */\n  dup2\n    /* \"#utility.yul\":1550:1588   */\n  tag_33\n  jump\t// in\ntag_66:\n    /* \"#utility.yul\":1543:1548   */\n  dup2\n    /* \"#utility.yul\":1540:1589   */\n  eq\n    /* \"#utility.yul\":1530:1607   */\n  tag_67\n  jumpi\n    /* \"#utility.yul\":1603:1604   */\n  0x00\n    /* \"#utility.yul\":1600:1601   */\n  dup1\n    /* \"#utility.yul\":1593:1605   */\n  revert\n    /* \"#utility.yul\":1530:1607   */\ntag_67:\n    /* \"#utility.yul\":1463:1613   */\n  pop\n  jump\t// out\n    /* \"#utility.yul\":1619:1790   */\ntag_35:\n    /* \"#utility.yul\":1690:1695   */\n  0x00\n    /* \"#utility.yul\":1721:1727   */\n  dup2\n    /* \"#utility.yul\":1715:1728   */\n  mload\n    /* \"#utility.yul\":1706:1728   */\n  swap1\n  pop\n    /* \"#utility.yul\":1737:1784   */\n  tag_69\n    /* \"#utility.yul\":1778:1783   */\n  dup2\n    /* \"#utility.yul\":1737:1784   */\n  tag_34\n  jump\t// in\ntag_69:\n    /* \"#utility.yul\":1619:1790   */\n  swap3\n  swap2\n  pop\n  pop\n  jump\t// out\n    /* \"#utility.yul\":1796:2503   */\ntag_3:\n    /* \"#utility.yul\":1906:1912   */\n  0x00\n    /* \"#utility.yul\":1914:1920   */\n  dup1\n    /* \"#utility.yul\":1922:1928   */\n  0x00\n    /* \"#utility.yul\":1971:1973   */\n  0x60\n    /* \"#utility.yul\":1959:1968   */\n  dup5\n    /* \"#utility.yul\":1950:1957   */\n  dup7\n    /* \"#utility.yul\":1946:1969   */\n  sub\n    /* \"#utility.yul\":1942:1974   */\n  slt\n    /* \"#utility.yul\":1939:2058   */\n  iszero\n  tag_71\n  jumpi\n    /* \"#utility.yul\":1977:2056   */\n  tag_72\n  tag_23\n  jump\t// in\ntag_72:\n    /* \"#utility.yul\":1939:2058   */\ntag_71:\n    /* \"#utility.yul\":2097:2098   */\n  0x00\n    /* \"#utility.yul\":2122:2186   */\n  tag_73\n    /* \"#utility.yul\":2178:2185   */\n  dup7\n    /* \"#utility.yul\":2169:2175   */\n  dup3\n    /* \"#utility.yul\":2158:2167   */\n  dup8\n    /* \"#utility.yul\":2154:2176   */\n  add\n    /* \"#utility.yul\":2122:2186   */\n  tag_27\n  jump\t// in\ntag_73:\n    /* \"#utility.yul\":2112:2186   */\n  swap4\n  pop\n    /* \"#utility.yul\":2068:2196   */\n  pop\n    /* \"#utility.yul\":2235:2237   */\n  0x20\n    /* \"#utility.yul\":2261:2333   */\n  tag_74\n    /* \"#utility.yul\":2325:2332   */\n  dup7\n    /* \"#utility.yul\":2316:2322   */\n  dup3\n    /* \"#utility.yul\":2305:2314   */\n  dup8\n    /* \"#utility.yul\":2301:2323   */\n  add\n    /* \"#utility.yul\":2261:2333   */\n  tag_31\n  jump\t// in\ntag_74:\n    /* \"#utility.yul\":2251:2333   */\n  swap3\n  pop\n    /* \"#utility.yul\":2206:2343   */\n  pop\n    /* \"#utility.yul\":2382:2384   */\n  0x40\n    /* \"#utility.yul\":2408:2486   */\n  tag_75\n    /* \"#utility.yul\":2478:2485   */\n  dup7\n    /* \"#utility.yul\":2469:2475   */\n  dup3\n    /* \"#utility.yul\":2458:2467   */\n  dup8\n    /* \"#utility.yul\":2454:2476   */\n  add\n    /* \"#utility.yul\":2408:2486   */\n  tag_35\n  jump\t// in\ntag_75:\n    /* \"#utility.yul\":2398:2486   */\n  swap2\n  pop\n    /* \"#utility.yul\":2353:2496   */\n  pop\n    /* \"#utility.yul\":1796:2503   */\n  swap3\n  pop\n  swap3\n  pop\n  swap3\n  jump\t// out\n    /* \"#utility.yul\":2509:2678   */\ntag_36:\n    /* \"#utility.yul\":2593:2604   */\n  0x00\n    /* \"#utility.yul\":2627:2633   */\n  dup3\n    /* \"#utility.yul\":2622:2625   */\n  dup3\n    /* \"#utility.yul\":2615:2634   */\n  mstore\n    /* \"#utility.yul\":2667:2671   */\n  0x20\n    /* \"#utility.yul\":2662:2665   */\n  dup3\n    /* \"#utility.yul\":2658:2672   */\n  add\n    /* \"#utility.yul\":2643:2672   */\n  swap1\n  pop\n    /* \"#utility.yul\":2509:2678   */\n  swap3\n  swap2\n  pop\n  pop\n  jump\t// out\n    /* \"#utility.yul\":2684:2854   */\ntag_37:\n    /* \"#utility.yul\":2824:2846   */\n  0x43726f776473616c653a20726174652069732030000000000000000000000000\n    /* \"#utility.yul\":2820:2821   */\n  0x00\n    /* \"#utility.yul\":2812:2818   */\n  dup3\n    /* \"#utility.yul\":2808:2822   */\n  add\n    /* \"#utility.yul\":2801:2847   */\n  mstore\n    /* \"#utility.yul\":2684:2854   */\n  pop\n  jump\t// out\n    /* \"#utility.yul\":2860:3226   */\ntag_38:\n    /* \"#utility.yul\":3002:3005   */\n  0x00\n    /* \"#utility.yul\":3023:3090   */\n  tag_79\n    /* \"#utility.yul\":3087:3089   */\n  0x14\n    /* \"#utility.yul\":3082:3085   */\n  dup4\n    /* \"#utility.yul\":3023:3090   */\n  tag_36\n  jump\t// in\ntag_79:\n    /* \"#utility.yul\":3016:3090   */\n  swap2\n  pop\n    /* \"#utility.yul\":3099:3192   */\n  tag_80\n    /* \"#utility.yul\":3188:3191   */\n  dup3\n    /* \"#utility.yul\":3099:3192   */\n  tag_37\n  jump\t// in\ntag_80:\n    /* \"#utility.yul\":3217:3219   */\n  0x20\n    /* \"#utility.yul\":3212:3215   */\n  dup3\n    /* \"#utility.yul\":3208:3220   */\n  add\n    /* \"#utility.yul\":3201:3220   */\n  swap1\n  pop\n    /* \"#utility.yul\":2860:3226   */\n  swap2\n  swap1\n  pop\n  jump\t// out\n    /* \"#utility.yul\":3232:3651   */\ntag_12:\n    /* \"#utility.yul\":3398:3402   */\n  0x00\n    /* \"#utility.yul\":3436:3438   */\n  0x20\n    /* \"#utility.yul\":3425:3434   */\n  dup3\n    /* \"#utility.yul\":3421:3439   */\n  add\n    /* \"#utility.yul\":3413:3439   */\n  swap1\n  pop\n    /* \"#utility.yul\":3485:3494   */\n  dup2\n    /* \"#utility.yul\":3479:3483   */\n  dup2\n    /* \"#utility.yul\":3475:3495   */\n  sub\n    /* \"#utility.yul\":3471:3472   */\n  0x00\n    /* \"#utility.yul\":3460:3469   */\n  dup4\n    /* \"#utility.yul\":3456:3473   */\n  add\n    /* \"#utility.yul\":3449:3496   */\n  mstore\n    /* \"#utility.yul\":3513:3644   */\n  tag_82\n    /* \"#utility.yul\":3639:3643   */\n  dup2\n    /* \"#utility.yul\":3513:3644   */\n  tag_38\n  jump\t// in\ntag_82:\n    /* \"#utility.yul\":3505:3644   */\n  swap1\n  pop\n    /* \"#utility.yul\":3232:3651   */\n  swap2\n  swap1\n  pop\n  jump\t// out\n    /* \"#utility.yul\":3657:3881   */\ntag_39:\n    /* \"#utility.yul\":3797:3831   */\n  0x43726f776473616c653a2077616c6c657420697320746865207a65726f206164\n    /* \"#utility.yul\":3793:3794   */\n  0x00\n    /* \"#utility.yul\":3785:3791   */\n  dup3\n    /* \"#utility.yul\":3781:3795   */\n  add\n    /* \"#utility.yul\":3774:3832   */\n  mstore\n    /* \"#utility.yul\":3866:3873   */\n  0x6472657373000000000000000000000000000000000000000000000000000000\n    /* \"#utility.yul\":3861:3863   */\n  0x20\n    /* \"#utility.yul\":3853:3859   */\n  dup3\n    /* \"#utility.yul\":3849:3864   */\n  add\n    /* \"#utility.yul\":3842:3874   */\n  mstore\n    /* \"#utility.yul\":3657:3881   */\n  pop\n  jump\t// out\n    /* \"#utility.yul\":3887:4253   */\ntag_40:\n    /* \"#utility.yul\":4029:4032   */\n  0x00\n    /* \"#utility.yul\":4050:4117   */\n  tag_85\n    /* \"#utility.yul\":4114:4116   */\n  0x25\n    /* \"#utility.yul\":4109:4112   */\n  dup4\n    /* \"#utility.yul\":4050:4117   */\n  tag_36\n  jump\t// in\ntag_85:\n    /* \"#utility.yul\":4043:4117   */\n  swap2\n  pop\n    /* \"#utility.yul\":4126:4219   */\n  tag_86\n    /* \"#utility.yul\":4215:4218   */\n  dup3\n    /* \"#utility.yul\":4126:4219   */\n  tag_39\n  jump\t// in\ntag_86:\n    /* \"#utility.yul\":4244:4246   */\n  0x40\n    /* \"#utility.yul\":4239:4242   */\n  dup3\n    /* \"#utility.yul\":4235:4247   */\n  add\n    /* \"#utility.yul\":4228:4247   */\n  swap1\n  pop\n    /* \"#utility.yul\":3887:4253   */\n  swap2\n  swap1\n  pop\n  jump\t// out\n    /* \"#utility.yul\":4259:4678   */\ntag_15:\n    /* \"#utility.yul\":4425:4429   */\n  0x00\n    /* \"#utility.yul\":4463:4465   */\n  0x20\n    /* \"#utility.yul\":4452:4461   */\n  dup3\n    /* \"#utility.yul\":4448:4466   */\n  add\n    /* \"#utility.yul\":4440:4466   */\n  swap1\n  pop\n    /* \"#utility.yul\":4512:4521   */\n  dup2\n    /* \"#utility.yul\":4506:4510   */\n  dup2\n    /* \"#utility.yul\":4502:4522   */\n  sub\n    /* \"#utility.yul\":4498:4499   */\n  0x00\n    /* \"#utility.yul\":4487:4496   */\n  dup4\n    /* \"#utility.yul\":4483:4500   */\n  add\n    /* \"#utility.yul\":4476:4523   */\n  mstore\n    /* \"#utility.yul\":4540:4671   */\n  tag_88\n    /* \"#utility.yul\":4666:4670   */\n  dup2\n    /* \"#utility.yul\":4540:4671   */\n  tag_40\n  jump\t// in\ntag_88:\n    /* \"#utility.yul\":4532:4671   */\n  swap1\n  pop\n    /* \"#utility.yul\":4259:4678   */\n  swap2\n  swap1\n  pop\n  jump\t// out\n    /* \"#utility.yul\":4684:4907   */\ntag_41:\n    /* \"#utility.yul\":4824:4858   */\n  0x43726f776473616c653a20746f6b656e20697320746865207a65726f20616464\n    /* \"#utility.yul\":4820:4821   */\n  0x00\n    /* \"#utility.yul\":4812:4818   */\n  dup3\n    /* \"#utility.yul\":4808:4822   */\n  add\n    /* \"#utility.yul\":4801:4859   */\n  mstore\n    /* \"#utility.yul\":4893:4899   */\n  0x7265737300000000000000000000000000000000000000000000000000000000\n    /* \"#utility.yul\":4888:4890   */\n  0x20\n    /* \"#utility.yul\":4880:4886   */\n  dup3\n    /* \"#utility.yul\":4876:4891   */\n  add\n    /* \"#utility.yul\":4869:4900   */\n  mstore\n    /* \"#utility.yul\":4684:4907   */\n  pop\n  jump\t// out\n    /* \"#utility.yul\":4913:5279   */\ntag_42:\n    /* \"#utility.yul\":5055:5058   */\n  0x00\n    /* \"#utility.yul\":5076:5143   */\n  tag_91\n    /* \"#utility.yul\":5140:5142   */\n  0x24\n    /* \"#utility.yul\":5135:5138   */\n  dup4\n    /* \"#utility.yul\":5076:5143   */\n  tag_36\n  jump\t// in\ntag_91:\n    /* \"#utility.yul\":5069:5143   */\n  swap2\n  pop\n    /* \"#utility.yul\":5152:5245   */\n  tag_92\n    /* \"#utility.yul\":5241:5244   */\n  dup3\n    /* \"#utility.yul\":5152:5245   */\n  tag_41\n  jump\t// in\ntag_92:\n    /* \"#utility.yul\":5270:5272   */\n  0x40\n    /* \"#utility.yul\":5265:5268   */\n  dup3\n    /* \"#utility.yul\":5261:5273   */\n  add\n    /* \"#utility.yul\":5254:5273   */\n  swap1\n  pop\n    /* \"#utility.yul\":4913:5279   */\n  swap2\n  swap1\n  pop\n  jump\t// out\n    /* \"#utility.yul\":5285:5704   */\ntag_18:\n    /* \"#utility.yul\":5451:5455   */\n  0x00\n    /* \"#utility.yul\":5489:5491   */\n  0x20\n    /* \"#utility.yul\":5478:5487   */\n  dup3\n    /* \"#utility.yul\":5474:5492   */\n  add\n    /* \"#utility.yul\":5466:5492   */\n  swap1\n  pop\n    /* \"#utility.yul\":5538:5547   */\n  dup2\n    /* \"#utility.yul\":5532:5536   */\n  dup2\n    /* \"#utility.yul\":5528:5548   */\n  sub\n    /* \"#utility.yul\":5524:5525   */\n  0x00\n    /* \"#utility.yul\":5513:5522   */\n  dup4\n    /* \"#utility.yul\":5509:5526   */\n  add\n    /* \"#utility.yul\":5502:5549   */\n  mstore\n    /* \"#utility.yul\":5566:5697   */\n  tag_94\n    /* \"#utility.yul\":5692:5696   */\n  dup2\n    /* \"#utility.yul\":5566:5697   */\n  tag_42\n  jump\t// in\ntag_94:\n    /* \"#utility.yul\":5558:5697   */\n  swap1\n  pop\n    /* \"#utility.yul\":5285:5704   */\n  swap2\n  swap1\n  pop\n  jump\t// out\n    /* \"crowdsale/validation/pausableCrowdsale.sol\":299:1051  contract PausableCrowdsale is Crowdsale, Pausable {... */\ntag_21:\n  dataSize(sub_0)\n  dup1\n  dataOffset(sub_0)\n  0x00\n  codecopy\n  0x00\n  return\nstop\n\nsub_0: assembly {\n        /* \"crowdsale/validation/pausableCrowdsale.sol\":299:1051  contract PausableCrowdsale is Crowdsale, Pausable {... */\n      mstore(0x40, 0x80)\n      jumpi(tag_1, lt(calldatasize, 0x04))\n      shr(0xe0, calldataload(0x00))\n      dup1\n      0x2c4e722e\n      eq\n      tag_3\n      jumpi\n      dup1\n      0x4042b66f\n      eq\n      tag_4\n      jumpi\n      dup1\n      0x521eb273\n      eq\n      tag_5\n      jumpi\n      dup1\n      0x5c975abb\n      eq\n      tag_6\n      jumpi\n      dup1\n      0xec8ac4d8\n      eq\n      tag_7\n      jumpi\n      dup1\n      0xfc0c546a\n      eq\n      tag_8\n      jumpi\n      jump(tag_2)\n    tag_1:\n      jumpi(tag_2, calldatasize)\n        /* \"crowdsale/crowdsale.sol\":3351:3374  buyTokens(_msgSender()) */\n      tag_11\n        /* \"crowdsale/crowdsale.sol\":3361:3373  _msgSender() */\n      tag_12\n        /* \"crowdsale/crowdsale.sol\":3361:3371  _msgSender */\n      tag_13\n        /* \"crowdsale/crowdsale.sol\":3361:3373  _msgSender() */\n      jump\t// in\n    tag_12:\n        /* \"crowdsale/crowdsale.sol\":3351:3360  buyTokens */\n      tag_14\n        /* \"crowdsale/crowdsale.sol\":3351:3374  buyTokens(_msgSender()) */\n      jump\t// in\n    tag_11:\n        /* \"crowdsale/validation/pausableCrowdsale.sol\":299:1051  contract PausableCrowdsale is Crowdsale, Pausable {... */\n      stop\n    tag_2:\n        /* \"crowdsale/crowdsale.sol\":3270:3293  buyTokens(_msgSender()) */\n      tag_17\n        /* \"crowdsale/crowdsale.sol\":3280:3292  _msgSender() */\n      tag_18\n        /* \"crowdsale/crowdsale.sol\":3280:3290  _msgSender */\n      tag_13\n        /* \"crowdsale/crowdsale.sol\":3280:3292  _msgSender() */\n      jump\t// in\n    tag_18:\n        /* \"crowdsale/crowdsale.sol\":3270:3279  buyTokens */\n      tag_14\n        /* \"crowdsale/crowdsale.sol\":3270:3293  buyTokens(_msgSender()) */\n      jump\t// in\n    tag_17:\n        /* \"crowdsale/validation/pausableCrowdsale.sol\":299:1051  contract PausableCrowdsale is Crowdsale, Pausable {... */\n      stop\n        /* \"crowdsale/crowdsale.sol\":3784:3869  function rate() public virtual view returns (uint256) {... */\n    tag_3:\n      callvalue\n      dup1\n      iszero\n      tag_19\n      jumpi\n      0x00\n      dup1\n      revert\n    tag_19:\n      pop\n      tag_20\n      tag_21\n      jump\t// in\n    tag_20:\n      mload(0x40)\n      tag_22\n      swap2\n      swap1\n      tag_23\n      jump\t// in\n    tag_22:\n      mload(0x40)\n      dup1\n      swap2\n      sub\n      swap1\n      return\n        /* \"crowdsale/crowdsale.sol\":3937:4024  function weiRaised() public view returns (uint256) {... */\n    tag_4:\n      callvalue\n      dup1\n      iszero\n      tag_24\n      jumpi\n      0x00\n      dup1\n      revert\n    tag_24:\n      pop\n      tag_25\n      tag_26\n      jump\t// in\n    tag_25:\n      mload(0x40)\n      tag_27\n      swap2\n      swap1\n      tag_23\n      jump\t// in\n    tag_27:\n      mload(0x40)\n      dup1\n      swap2\n      sub\n      swap1\n      return\n        /* \"crowdsale/crowdsale.sol\":3605:3694  function wallet() public view returns (address payable) {... */\n    tag_5:\n      callvalue\n      dup1\n      iszero\n      tag_28\n      jumpi\n      0x00\n      dup1\n      revert\n    tag_28:\n      pop\n      tag_29\n      tag_30\n      jump\t// in\n    tag_29:\n      mload(0x40)\n      tag_31\n      swap2\n      swap1\n      tag_32\n      jump\t// in\n    tag_31:\n      mload(0x40)\n      dup1\n      swap2\n      sub\n      swap1\n      return\n        /* \"@openzeppelin/contracts/security/Pausable.sol\":1615:1699  function paused() public view virtual returns (bool) {... */\n    tag_6:\n      callvalue\n      dup1\n      iszero\n      tag_33\n      jumpi\n      0x00\n      dup1\n      revert\n    tag_33:\n      pop\n      tag_34\n      tag_35\n      jump\t// in\n    tag_34:\n      mload(0x40)\n      tag_36\n      swap2\n      swap1\n      tag_37\n      jump\t// in\n    tag_36:\n      mload(0x40)\n      dup1\n      swap2\n      sub\n      swap1\n      return\n        /* \"crowdsale/crowdsale.sol\":4289:4911  function buyTokens(address beneficiary) public nonReentrant payable {... */\n    tag_7:\n      tag_38\n      0x04\n      dup1\n      calldatasize\n      sub\n      dup2\n      add\n      swap1\n      tag_39\n      swap2\n      swap1\n      tag_40\n      jump\t// in\n    tag_39:\n      tag_14\n      jump\t// in\n    tag_38:\n      stop\n        /* \"crowdsale/crowdsale.sol\":3446:3524  function token() public view returns (IERC20) {... */\n    tag_8:\n      callvalue\n      dup1\n      iszero\n      tag_41\n      jumpi\n      0x00\n      dup1\n      revert\n    tag_41:\n      pop\n      tag_42\n      tag_43\n      jump\t// in\n    tag_42:\n      mload(0x40)\n      tag_44\n      swap2\n      swap1\n      tag_45\n      jump\t// in\n    tag_44:\n      mload(0x40)\n      dup1\n      swap2\n      sub\n      swap1\n      return\n        /* \"@openzeppelin/contracts/utils/Context.sol\":656:752  function _msgSender() internal view virtual returns (address) {... */\n    tag_13:\n        /* \"@openzeppelin/contracts/utils/Context.sol\":709:716  address */\n      0x00\n        /* \"@openzeppelin/contracts/utils/Context.sol\":735:745  msg.sender */\n      caller\n        /* \"@openzeppelin/contracts/utils/Context.sol\":728:745  return msg.sender */\n      swap1\n      pop\n        /* \"@openzeppelin/contracts/utils/Context.sol\":656:752  function _msgSender() internal view virtual returns (address) {... */\n      swap1\n      jump\t// out\n        /* \"crowdsale/crowdsale.sol\":4289:4911  function buyTokens(address beneficiary) public nonReentrant payable {... */\n    tag_14:\n        /* \"@openzeppelin/contracts/security/ReentrancyGuard.sol\":2261:2282  _nonReentrantBefore() */\n      tag_48\n        /* \"@openzeppelin/contracts/security/ReentrancyGuard.sol\":2261:2280  _nonReentrantBefore */\n      tag_49\n        /* \"@openzeppelin/contracts/security/ReentrancyGuard.sol\":2261:2282  _nonReentrantBefore() */\n      jump\t// in\n    tag_48:\n        /* \"crowdsale/crowdsale.sol\":4368:4385  uint256 weiAmount */\n      0x00\n        /* \"crowdsale/crowdsale.sol\":4388:4397  msg.value */\n      callvalue\n        /* \"crowdsale/crowdsale.sol\":4368:4397  uint256 weiAmount = msg.value */\n      swap1\n      pop\n        /* \"crowdsale/crowdsale.sol\":4408:4452  _preValidatePurchase(beneficiary, weiAmount) */\n      tag_51\n        /* \"crowdsale/crowdsale.sol\":4429:4440  beneficiary */\n      dup3\n        /* \"crowdsale/crowdsale.sol\":4442:4451  weiAmount */\n      dup3\n        /* \"crowdsale/crowdsale.sol\":4408:4428  _preValidatePurchase */\n      tag_52\n        /* \"crowdsale/crowdsale.sol\":4408:4452  _preValidatePurchase(beneficiary, weiAmount) */\n      jump\t// in\n    tag_51:\n        /* \"crowdsale/crowdsale.sol\":4514:4528  uint256 tokens */\n      0x00\n        /* \"crowdsale/crowdsale.sol\":4531:4557  _getTokenAmount(weiAmount) */\n      tag_53\n        /* \"crowdsale/crowdsale.sol\":4547:4556  weiAmount */\n      dup3\n        /* \"crowdsale/crowdsale.sol\":4531:4546  _getTokenAmount */\n      tag_54\n        /* \"crowdsale/crowdsale.sol\":4531:4557  _getTokenAmount(weiAmount) */\n      jump\t// in\n    tag_53:\n        /* \"crowdsale/crowdsale.sol\":4514:4557  uint256 tokens = _getTokenAmount(weiAmount) */\n      swap1\n      pop\n        /* \"crowdsale/crowdsale.sol\":4608:4633  _weiRaised.add(weiAmount) */\n      tag_55\n        /* \"crowdsale/crowdsale.sol\":4623:4632  weiAmount */\n      dup3\n        /* \"crowdsale/crowdsale.sol\":4608:4618  _weiRaised */\n      sload(0x04)\n        /* \"crowdsale/crowdsale.sol\":4608:4622  _weiRaised.add */\n      tag_56\n      swap1\n        /* \"crowdsale/crowdsale.sol\":4608:4633  _weiRaised.add(weiAmount) */\n      swap2\n      swap1\n      0xffffffff\n      and\n      jump\t// in\n    tag_55:\n        /* \"crowdsale/crowdsale.sol\":4595:4605  _weiRaised */\n      0x04\n        /* \"crowdsale/crowdsale.sol\":4595:4633  _weiRaised = _weiRaised.add(weiAmount) */\n      dup2\n      swap1\n      sstore\n      pop\n        /* \"crowdsale/crowdsale.sol\":4646:4683  _processPurchase(beneficiary, tokens) */\n      tag_57\n        /* \"crowdsale/crowdsale.sol\":4663:4674  beneficiary */\n      dup4\n        /* \"crowdsale/crowdsale.sol\":4676:4682  tokens */\n      dup3\n        /* \"crowdsale/crowdsale.sol\":4646:4662  _processPurchase */\n      tag_58\n        /* \"crowdsale/crowdsale.sol\":4646:4683  _processPurchase(beneficiary, tokens) */\n      jump\t// in\n    tag_57:\n        /* \"crowdsale/crowdsale.sol\":4729:4740  beneficiary */\n      dup3\n        /* \"crowdsale/crowdsale.sol\":4699:4760  TokensPurchased(_msgSender(), beneficiary, weiAmount, tokens) */\n      0xffffffffffffffffffffffffffffffffffffffff\n      and\n        /* \"crowdsale/crowdsale.sol\":4715:4727  _msgSender() */\n      tag_59\n        /* \"crowdsale/crowdsale.sol\":4715:4725  _msgSender */\n      tag_13\n        /* \"crowdsale/crowdsale.sol\":4715:4727  _msgSender() */\n      jump\t// in\n    tag_59:\n        /* \"crowdsale/crowdsale.sol\":4699:4760  TokensPurchased(_msgSender(), beneficiary, weiAmount, tokens) */\n      0xffffffffffffffffffffffffffffffffffffffff\n      and\n      0x6faf93231a456e552dbc9961f58d9713ee4f2e69d15f1975b050ef0911053a7b\n        /* \"crowdsale/crowdsale.sol\":4742:4751  weiAmount */\n      dup5\n        /* \"crowdsale/crowdsale.sol\":4753:4759  tokens */\n      dup5\n        /* \"crowdsale/crowdsale.sol\":4699:4760  TokensPurchased(_msgSender(), beneficiary, weiAmount, tokens) */\n      mload(0x40)\n      tag_60\n      swap3\n      swap2\n      swap1\n      tag_61\n      jump\t// in\n    tag_60:\n      mload(0x40)\n      dup1\n      swap2\n      sub\n      swap1\n      log3\n        /* \"crowdsale/crowdsale.sol\":4773:4819  _updatePurchasingState(beneficiary, weiAmount) */\n      tag_62\n        /* \"crowdsale/crowdsale.sol\":4796:4807  beneficiary */\n      dup4\n        /* \"crowdsale/crowdsale.sol\":4809:4818  weiAmount */\n      dup4\n        /* \"crowdsale/crowdsale.sol\":4773:4795  _updatePurchasingState */\n      tag_63\n        /* \"crowdsale/crowdsale.sol\":4773:4819  _updatePurchasingState(beneficiary, weiAmount) */\n      jump\t// in\n    tag_62:\n        /* \"crowdsale/crowdsale.sol\":4832:4847  _forwardFunds() */\n      tag_64\n        /* \"crowdsale/crowdsale.sol\":4832:4845  _forwardFunds */\n      tag_65\n        /* \"crowdsale/crowdsale.sol\":4832:4847  _forwardFunds() */\n      jump\t// in\n    tag_64:\n        /* \"crowdsale/crowdsale.sol\":4858:4903  _postValidatePurchase(beneficiary, weiAmount) */\n      tag_66\n        /* \"crowdsale/crowdsale.sol\":4880:4891  beneficiary */\n      dup4\n        /* \"crowdsale/crowdsale.sol\":4893:4902  weiAmount */\n      dup4\n        /* \"crowdsale/crowdsale.sol\":4858:4879  _postValidatePurchase */\n      tag_67\n        /* \"crowdsale/crowdsale.sol\":4858:4903  _postValidatePurchase(beneficiary, weiAmount) */\n      jump\t// in\n    tag_66:\n        /* \"crowdsale/crowdsale.sol\":4357:4911  {... */\n      pop\n      pop\n        /* \"@openzeppelin/contracts/security/ReentrancyGuard.sol\":2303:2323  _nonReentrantAfter() */\n      tag_68\n        /* \"@openzeppelin/contracts/security/ReentrancyGuard.sol\":2303:2321  _nonReentrantAfter */\n      tag_69\n        /* \"@openzeppelin/contracts/security/ReentrancyGuard.sol\":2303:2323  _nonReentrantAfter() */\n      jump\t// in\n    tag_68:\n        /* \"crowdsale/crowdsale.sol\":4289:4911  function buyTokens(address beneficiary) public nonReentrant payable {... */\n      pop\n      jump\t// out\n        /* \"crowdsale/crowdsale.sol\":3784:3869  function rate() public virtual view returns (uint256) {... */\n    tag_21:\n        /* \"crowdsale/crowdsale.sol\":3829:3836  uint256 */\n      0x00\n        /* \"crowdsale/crowdsale.sol\":3856:3861  _rate */\n      sload(0x03)\n        /* \"crowdsale/crowdsale.sol\":3849:3861  return _rate */\n      swap1\n      pop\n        /* \"crowdsale/crowdsale.sol\":3784:3869  function rate() public virtual view returns (uint256) {... */\n      swap1\n      jump\t// out\n        /* \"crowdsale/crowdsale.sol\":3937:4024  function weiRaised() public view returns (uint256) {... */\n    tag_26:\n        /* \"crowdsale/crowdsale.sol\":3979:3986  uint256 */\n      0x00\n        /* \"crowdsale/crowdsale.sol\":4006:4016  _weiRaised */\n      sload(0x04)\n        /* \"crowdsale/crowdsale.sol\":3999:4016  return _weiRaised */\n      swap1\n      pop\n        /* \"crowdsale/crowdsale.sol\":3937:4024  function weiRaised() public view returns (uint256) {... */\n      swap1\n      jump\t// out\n        /* \"crowdsale/crowdsale.sol\":3605:3694  function wallet() public view returns (address payable) {... */\n    tag_30:\n        /* \"crowdsale/crowdsale.sol\":3644:3659  address payable */\n      0x00\n        /* \"crowdsale/crowdsale.sol\":3679:3686  _wallet */\n      0x02\n      0x00\n      swap1\n      sload\n      swap1\n      0x0100\n      exp\n      swap1\n      div\n      0xffffffffffffffffffffffffffffffffffffffff\n      and\n        /* \"crowdsale/crowdsale.sol\":3672:3686  return _wallet */\n      swap1\n      pop\n        /* \"crowdsale/crowdsale.sol\":3605:3694  function wallet() public view returns (address payable) {... */\n      swap1\n      jump\t// out\n        /* \"@openzeppelin/contracts/security/Pausable.sol\":1615:1699  function paused() public view virtual returns (bool) {... */\n    tag_35:\n        /* \"@openzeppelin/contracts/security/Pausable.sol\":1662:1666  bool */\n      0x00\n        /* \"@openzeppelin/contracts/security/Pausable.sol\":1685:1692  _paused */\n      0x05\n      0x00\n      swap1\n      sload\n      swap1\n      0x0100\n      exp\n      swap1\n      div\n      0xff\n      and\n        /* \"@openzeppelin/contracts/security/Pausable.sol\":1678:1692  return _paused */\n      swap1\n      pop\n        /* \"@openzeppelin/contracts/security/Pausable.sol\":1615:1699  function paused() public view virtual returns (bool) {... */\n      swap1\n      jump\t// out\n        /* \"crowdsale/crowdsale.sol\":3446:3524  function token() public view returns (IERC20) {... */\n    tag_43:\n        /* \"crowdsale/crowdsale.sol\":3484:3490  IERC20 */\n      0x00\n        /* \"crowdsale/crowdsale.sol\":3510:3516  _token */\n      0x01\n      0x00\n      swap1\n      sload\n      swap1\n      0x0100\n      exp\n      swap1\n      div\n      0xffffffffffffffffffffffffffffffffffffffff\n      and\n        /* \"crowdsale/crowdsale.sol\":3503:3516  return _token */\n      swap1\n      pop\n        /* \"crowdsale/crowdsale.sol\":3446:3524  function token() public view returns (IERC20) {... */\n      swap1\n      jump\t// out\n        /* \"@openzeppelin/contracts/security/ReentrancyGuard.sol\":2336:2623  function _nonReentrantBefore() private {... */\n    tag_49:\n        /* \"@openzeppelin/contracts/security/ReentrancyGuard.sol\":1759:1760  2 */\n      0x02\n        /* \"@openzeppelin/contracts/security/ReentrancyGuard.sol\":2468:2475  _status */\n      sload(0x00)\n        /* \"@openzeppelin/contracts/security/ReentrancyGuard.sol\":2468:2487  _status != _ENTERED */\n      sub\n        /* \"@openzeppelin/contracts/security/ReentrancyGuard.sol\":2460:2523  require(_status != _ENTERED, \"ReentrancyGuard: reentrant call\") */\n      tag_76\n      jumpi\n      mload(0x40)\n      0x08c379a000000000000000000000000000000000000000000000000000000000\n      dup2\n      mstore\n      0x04\n      add\n      tag_77\n      swap1\n      tag_78\n      jump\t// in\n    tag_77:\n      mload(0x40)\n      dup1\n      swap2\n      sub\n      swap1\n      revert\n    tag_76:\n        /* \"@openzeppelin/contracts/security/ReentrancyGuard.sol\":1759:1760  2 */\n      0x02\n        /* \"@openzeppelin/contracts/security/ReentrancyGuard.sol\":2598:2605  _status */\n      0x00\n        /* \"@openzeppelin/contracts/security/ReentrancyGuard.sol\":2598:2616  _status = _ENTERED */\n      dup2\n      swap1\n      sstore\n      pop\n        /* \"@openzeppelin/contracts/security/ReentrancyGuard.sol\":2336:2623  function _nonReentrantBefore() private {... */\n      jump\t// out\n        /* \"crowdsale/validation/pausableCrowdsale.sol\":861:1048  function _preValidatePurchase(address _beneficiary, uint256 _weiAmount) internal override view whenNotPaused {... */\n    tag_52:\n        /* \"@openzeppelin/contracts/security/Pausable.sol\":1239:1258  _requireNotPaused() */\n      tag_80\n        /* \"@openzeppelin/contracts/security/Pausable.sol\":1239:1256  _requireNotPaused */\n      tag_81\n        /* \"@openzeppelin/contracts/security/Pausable.sol\":1239:1258  _requireNotPaused() */\n      jump\t// in\n    tag_80:\n        /* \"crowdsale/validation/pausableCrowdsale.sol\":988:1040  super._preValidatePurchase(_beneficiary, _weiAmount) */\n      tag_83\n        /* \"crowdsale/validation/pausableCrowdsale.sol\":1015:1027  _beneficiary */\n      dup3\n        /* \"crowdsale/validation/pausableCrowdsale.sol\":1029:1039  _weiAmount */\n      dup3\n        /* \"crowdsale/validation/pausableCrowdsale.sol\":988:1014  super._preValidatePurchase */\n      tag_84\n        /* \"crowdsale/validation/pausableCrowdsale.sol\":988:1040  super._preValidatePurchase(_beneficiary, _weiAmount) */\n      jump\t// in\n    tag_83:\n        /* \"crowdsale/validation/pausableCrowdsale.sol\":861:1048  function _preValidatePurchase(address _beneficiary, uint256 _weiAmount) internal override view whenNotPaused {... */\n      pop\n      pop\n      jump\t// out\n        /* \"crowdsale/crowdsale.sol\":7856:7986  function _getTokenAmount(uint256 weiAmount) internal virtual view returns (uint256) {... */\n    tag_54:\n        /* \"crowdsale/crowdsale.sol\":7931:7938  uint256 */\n      0x00\n        /* \"crowdsale/crowdsale.sol\":7958:7978  weiAmount.mul(_rate) */\n      tag_86\n        /* \"crowdsale/crowdsale.sol\":7972:7977  _rate */\n      sload(0x03)\n        /* \"crowdsale/crowdsale.sol\":7958:7967  weiAmount */\n      dup4\n        /* \"crowdsale/crowdsale.sol\":7958:7971  weiAmount.mul */\n      tag_87\n      swap1\n        /* \"crowdsale/crowdsale.sol\":7958:7978  weiAmount.mul(_rate) */\n      swap2\n      swap1\n      0xffffffff\n      and\n      jump\t// in\n    tag_86:\n        /* \"crowdsale/crowdsale.sol\":7951:7978  return weiAmount.mul(_rate) */\n      swap1\n      pop\n        /* \"crowdsale/crowdsale.sol\":7856:7986  function _getTokenAmount(uint256 weiAmount) internal virtual view returns (uint256) {... */\n      swap2\n      swap1\n      pop\n      jump\t// out\n        /* \"@openzeppelin/contracts/utils/math/SafeMath.sol\":2755:2851  function add(uint256 a, uint256 b) internal pure returns (uint256) {... */\n    tag_56:\n        /* \"@openzeppelin/contracts/utils/math/SafeMath.sol\":2813:2820  uint256 */\n      0x00\n        /* \"@openzeppelin/contracts/utils/math/SafeMath.sol\":2843:2844  b */\n      dup2\n        /* \"@openzeppelin/contracts/utils/math/SafeMath.sol\":2839:2840  a */\n      dup4\n        /* \"@openzeppelin/contracts/utils/math/SafeMath.sol\":2839:2844  a + b */\n      tag_89\n      swap2\n      swap1\n      tag_90\n      jump\t// in\n    tag_89:\n        /* \"@openzeppelin/contracts/utils/math/SafeMath.sol\":2832:2844  return a + b */\n      swap1\n      pop\n        /* \"@openzeppelin/contracts/utils/math/SafeMath.sol\":2755:2851  function add(uint256 a, uint256 b) internal pure returns (uint256) {... */\n      swap3\n      swap2\n      pop\n      pop\n      jump\t// out\n        /* \"crowdsale/crowdsale.sol\":7023:7167  function _processPurchase(address beneficiary, uint256 tokenAmount) internal virtual {... */\n    tag_58:\n        /* \"crowdsale/crowdsale.sol\":7119:7159  _deliverTokens(beneficiary, tokenAmount) */\n      tag_92\n        /* \"crowdsale/crowdsale.sol\":7134:7145  beneficiary */\n      dup3\n        /* \"crowdsale/crowdsale.sol\":7147:7158  tokenAmount */\n      dup3\n        /* \"crowdsale/crowdsale.sol\":7119:7133  _deliverTokens */\n      tag_93\n        /* \"crowdsale/crowdsale.sol\":7119:7159  _deliverTokens(beneficiary, tokenAmount) */\n      jump\t// in\n    tag_92:\n        /* \"crowdsale/crowdsale.sol\":7023:7167  function _processPurchase(address beneficiary, uint256 tokenAmount) internal virtual {... */\n      pop\n      pop\n      jump\t// out\n        /* \"crowdsale/crowdsale.sol\":7445:7600  function _updatePurchasingState(address beneficiary, uint256 weiAmount) internal virtual {... */\n    tag_63:\n      pop\n      pop\n      jump\t// out\n        /* \"crowdsale/crowdsale.sol\":8078:8166  function _forwardFunds() internal virtual {... */\n    tag_65:\n        /* \"crowdsale/crowdsale.sol\":8131:8138  _wallet */\n      0x02\n      0x00\n      swap1\n      sload\n      swap1\n      0x0100\n      exp\n      swap1\n      div\n      0xffffffffffffffffffffffffffffffffffffffff\n      and\n        /* \"crowdsale/crowdsale.sol\":8131:8147  _wallet.transfer */\n      0xffffffffffffffffffffffffffffffffffffffff\n      and\n        /* \"crowdsale/crowdsale.sol\":8131:8158  _wallet.transfer(msg.value) */\n      0x08fc\n        /* \"crowdsale/crowdsale.sol\":8148:8157  msg.value */\n      callvalue\n        /* \"crowdsale/crowdsale.sol\":8131:8158  _wallet.transfer(msg.value) */\n      swap1\n      dup2\n      iszero\n      mul\n      swap1\n      mload(0x40)\n      0x00\n      mload(0x40)\n      dup1\n      dup4\n      sub\n      dup2\n      dup6\n      dup9\n      dup9\n      call\n      swap4\n      pop\n      pop\n      pop\n      pop\n      iszero\n      dup1\n      iszero\n      tag_97\n      jumpi\n      returndatasize\n      0x00\n      dup1\n      returndatacopy\n      revert(0x00, returndatasize)\n    tag_97:\n      pop\n        /* \"crowdsale/crowdsale.sol\":8078:8166  function _forwardFunds() internal virtual {... */\n      jump\t// out\n        /* \"crowdsale/crowdsale.sol\":6155:6314  function _postValidatePurchase(address beneficiary, uint256 weiAmount) internal virtual view {... */\n    tag_67:\n      pop\n      pop\n      jump\t// out\n        /* \"@openzeppelin/contracts/security/ReentrancyGuard.sol\":2629:2838  function _nonReentrantAfter() private {... */\n    tag_69:\n        /* \"@openzeppelin/contracts/security/ReentrancyGuard.sol\":1716:1717  1 */\n      0x01\n        /* \"@openzeppelin/contracts/security/ReentrancyGuard.sol\":2809:2816  _status */\n      0x00\n        /* \"@openzeppelin/contracts/security/ReentrancyGuard.sol\":2809:2831  _status = _NOT_ENTERED */\n      dup2\n      swap1\n      sstore\n      pop\n        /* \"@openzeppelin/contracts/security/ReentrancyGuard.sol\":2629:2838  function _nonReentrantAfter() private {... */\n      jump\t// out\n        /* \"@openzeppelin/contracts/security/Pausable.sol\":1767:1873  function _requireNotPaused() internal view virtual {... */\n    tag_81:\n        /* \"@openzeppelin/contracts/security/Pausable.sol\":1837:1845  paused() */\n      tag_101\n        /* \"@openzeppelin/contracts/security/Pausable.sol\":1837:1843  paused */\n      tag_35\n        /* \"@openzeppelin/contracts/security/Pausable.sol\":1837:1845  paused() */\n      jump\t// in\n    tag_101:\n        /* \"@openzeppelin/contracts/security/Pausable.sol\":1836:1845  !paused() */\n      iszero\n        /* \"@openzeppelin/contracts/security/Pausable.sol\":1828:1866  require(!paused(), \"Pausable: paused\") */\n      tag_102\n      jumpi\n      mload(0x40)\n      0x08c379a000000000000000000000000000000000000000000000000000000000\n      dup2\n      mstore\n      0x04\n      add\n      tag_103\n      swap1\n      tag_104\n      jump\t// in\n    tag_103:\n      mload(0x40)\n      dup1\n      swap2\n      sub\n      swap1\n      revert\n    tag_102:\n        /* \"@openzeppelin/contracts/security/Pausable.sol\":1767:1873  function _requireNotPaused() internal view virtual {... */\n      jump\t// out\n        /* \"crowdsale/crowdsale.sol\":5464:5852  function _preValidatePurchase(address beneficiary, uint256 weiAmount) internal virtual view {... */\n    tag_84:\n        /* \"crowdsale/crowdsale.sol\":5598:5599  0 */\n      0x00\n        /* \"crowdsale/crowdsale.sol\":5575:5600  beneficiary != address(0) */\n      0xffffffffffffffffffffffffffffffffffffffff\n      and\n        /* \"crowdsale/crowdsale.sol\":5575:5586  beneficiary */\n      dup3\n        /* \"crowdsale/crowdsale.sol\":5575:5600  beneficiary != address(0) */\n      0xffffffffffffffffffffffffffffffffffffffff\n      and\n      sub\n        /* \"crowdsale/crowdsale.sol\":5567:5647  require(beneficiary != address(0), \"Crowdsale: beneficiary is the zero address\") */\n      tag_106\n      jumpi\n      mload(0x40)\n      0x08c379a000000000000000000000000000000000000000000000000000000000\n      dup2\n      mstore\n      0x04\n      add\n      tag_107\n      swap1\n      tag_108\n      jump\t// in\n    tag_107:\n      mload(0x40)\n      dup1\n      swap2\n      sub\n      swap1\n      revert\n    tag_106:\n        /* \"crowdsale/crowdsale.sol\":5679:5680  0 */\n      0x00\n        /* \"crowdsale/crowdsale.sol\":5666:5675  weiAmount */\n      dup2\n        /* \"crowdsale/crowdsale.sol\":5666:5680  weiAmount != 0 */\n      sub\n        /* \"crowdsale/crowdsale.sol\":5658:5710  require(weiAmount != 0, \"Crowdsale: weiAmount is 0\") */\n      tag_109\n      jumpi\n      mload(0x40)\n      0x08c379a000000000000000000000000000000000000000000000000000000000\n      dup2\n      mstore\n      0x04\n      add\n      tag_110\n      swap1\n      tag_111\n      jump\t// in\n    tag_110:\n      mload(0x40)\n      dup1\n      swap2\n      sub\n      swap1\n      revert\n    tag_109:\n        /* \"crowdsale/crowdsale.sol\":5464:5852  function _preValidatePurchase(address beneficiary, uint256 weiAmount) internal virtual view {... */\n      pop\n      pop\n      jump\t// out\n        /* \"@openzeppelin/contracts/utils/math/SafeMath.sol\":3465:3561  function mul(uint256 a, uint256 b) internal pure returns (uint256) {... */\n    tag_87:\n        /* \"@openzeppelin/contracts/utils/math/SafeMath.sol\":3523:3530  uint256 */\n      0x00\n        /* \"@openzeppelin/contracts/utils/math/SafeMath.sol\":3553:3554  b */\n      dup2\n        /* \"@openzeppelin/contracts/utils/math/SafeMath.sol\":3549:3550  a */\n      dup4\n        /* \"@openzeppelin/contracts/utils/math/SafeMath.sol\":3549:3554  a * b */\n      tag_113\n      swap2\n      swap1\n      tag_114\n      jump\t// in\n    tag_113:\n        /* \"@openzeppelin/contracts/utils/math/SafeMath.sol\":3542:3554  return a * b */\n      swap1\n      pop\n        /* \"@openzeppelin/contracts/utils/math/SafeMath.sol\":3465:3561  function mul(uint256 a, uint256 b) internal pure returns (uint256) {... */\n      swap3\n      swap2\n      pop\n      pop\n      jump\t// out\n        /* \"crowdsale/crowdsale.sol\":6602:6749  function _deliverTokens(address beneficiary, uint256 tokenAmount) internal virtual {... */\n    tag_93:\n        /* \"crowdsale/crowdsale.sol\":6696:6741  _token.safeTransfer(beneficiary, tokenAmount) */\n      tag_116\n        /* \"crowdsale/crowdsale.sol\":6716:6727  beneficiary */\n      dup3\n        /* \"crowdsale/crowdsale.sol\":6729:6740  tokenAmount */\n      dup3\n        /* \"crowdsale/crowdsale.sol\":6696:6702  _token */\n      0x01\n      0x00\n      swap1\n      sload\n      swap1\n      0x0100\n      exp\n      swap1\n      div\n      0xffffffffffffffffffffffffffffffffffffffff\n      and\n        /* \"crowdsale/crowdsale.sol\":6696:6715  _token.safeTransfer */\n      0xffffffffffffffffffffffffffffffffffffffff\n      and\n      tag_117\n      swap1\n        /* \"crowdsale/crowdsale.sol\":6696:6741  _token.safeTransfer(beneficiary, tokenAmount) */\n      swap3\n      swap2\n      swap1\n      0xffffffff\n      and\n      jump\t// in\n    tag_116:\n        /* \"crowdsale/crowdsale.sol\":6602:6749  function _deliverTokens(address beneficiary, uint256 tokenAmount) internal virtual {... */\n      pop\n      pop\n      jump\t// out\n        /* \"@openzeppelin/contracts/token/ERC20/utils/SafeERC20.sol\":941:1116  function safeTransfer(IERC20 token, address to, uint256 value) internal {... */\n    tag_117:\n        /* \"@openzeppelin/contracts/token/ERC20/utils/SafeERC20.sol\":1023:1109  _callOptionalReturn(token, abi.encodeWithSelector(token.transfer.selector, to, value)) */\n      tag_119\n        /* \"@openzeppelin/contracts/token/ERC20/utils/SafeERC20.sol\":1043:1048  token */\n      dup4\n        /* \"@openzeppelin/contracts/token/ERC20/utils/SafeERC20.sol\":1073:1096  token.transfer.selector */\n      shl(0xe0, 0xa9059cbb)\n        /* \"@openzeppelin/contracts/token/ERC20/utils/SafeERC20.sol\":1098:1100  to */\n      dup5\n        /* \"@openzeppelin/contracts/token/ERC20/utils/SafeERC20.sol\":1102:1107  value */\n      dup5\n        /* \"@openzeppelin/contracts/token/ERC20/utils/SafeERC20.sol\":1050:1108  abi.encodeWithSelector(token.transfer.selector, to, value) */\n      add(0x24, mload(0x40))\n      tag_120\n      swap3\n      swap2\n      swap1\n      tag_121\n      jump\t// in\n    tag_120:\n      mload(0x40)\n      0x20\n      dup2\n      dup4\n      sub\n      sub\n      dup2\n      mstore\n      swap1\n      0x40\n      mstore\n      swap1\n      not(0xffffffffffffffffffffffffffffffffffffffffffffffffffffffff)\n      and\n      0x20\n      dup3\n      add\n      dup1\n      mload\n      0xffffffffffffffffffffffffffffffffffffffffffffffffffffffff\n      dup4\n      dup2\n      dup4\n      and\n      or\n      dup4\n      mstore\n      pop\n      pop\n      pop\n      pop\n        /* \"@openzeppelin/contracts/token/ERC20/utils/SafeERC20.sol\":1023:1042  _callOptionalReturn */\n      tag_122\n        /* \"@openzeppelin/contracts/token/ERC20/utils/SafeERC20.sol\":1023:1109  _callOptionalReturn(token, abi.encodeWithSelector(token.transfer.selector, to, value)) */\n      jump\t// in\n    tag_119:\n        /* \"@openzeppelin/contracts/token/ERC20/utils/SafeERC20.sol\":941:1116  function safeTransfer(IERC20 token, address to, uint256 value) internal {... */\n      pop\n      pop\n      pop\n      jump\t// out\n        /* \"@openzeppelin/contracts/token/ERC20/utils/SafeERC20.sol\":5196:5838  function _callOptionalReturn(IERC20 token, bytes memory data) private {... */\n    tag_122:\n        /* \"@openzeppelin/contracts/token/ERC20/utils/SafeERC20.sol\":5615:5638  bytes memory returndata */\n      0x00\n        /* \"@openzeppelin/contracts/token/ERC20/utils/SafeERC20.sol\":5641:5710  address(token).functionCall(data, \"SafeERC20: low-level call failed\") */\n      tag_124\n        /* \"@openzeppelin/contracts/token/ERC20/utils/SafeERC20.sol\":5669:5673  data */\n      dup3\n        /* \"@openzeppelin/contracts/token/ERC20/utils/SafeERC20.sol\":5641:5710  address(token).functionCall(data, \"SafeERC20: low-level call failed\") */\n      mload(0x40)\n      dup1\n      0x40\n      add\n      0x40\n      mstore\n      dup1\n      0x20\n      dup2\n      mstore\n      0x20\n      add\n      0x5361666545524332303a206c6f772d6c6576656c2063616c6c206661696c6564\n      dup2\n      mstore\n      pop\n        /* \"@openzeppelin/contracts/token/ERC20/utils/SafeERC20.sol\":5649:5654  token */\n      dup6\n        /* \"@openzeppelin/contracts/token/ERC20/utils/SafeERC20.sol\":5641:5668  address(token).functionCall */\n      0xffffffffffffffffffffffffffffffffffffffff\n      and\n      tag_125\n      swap1\n        /* \"@openzeppelin/contracts/token/ERC20/utils/SafeERC20.sol\":5641:5710  address(token).functionCall(data, \"SafeERC20: low-level call failed\") */\n      swap3\n      swap2\n      swap1\n      0xffffffff\n      and\n      jump\t// in\n    tag_124:\n        /* \"@openzeppelin/contracts/token/ERC20/utils/SafeERC20.sol\":5615:5710  bytes memory returndata = address(token).functionCall(data, \"SafeERC20: low-level call failed\") */\n      swap1\n      pop\n        /* \"@openzeppelin/contracts/token/ERC20/utils/SafeERC20.sol\":5749:5750  0 */\n      0x00\n        /* \"@openzeppelin/contracts/token/ERC20/utils/SafeERC20.sol\":5728:5738  returndata */\n      dup2\n        /* \"@openzeppelin/contracts/token/ERC20/utils/SafeERC20.sol\":5728:5745  returndata.length */\n      mload\n        /* \"@openzeppelin/contracts/token/ERC20/utils/SafeERC20.sol\":5728:5750  returndata.length == 0 */\n      eq\n        /* \"@openzeppelin/contracts/token/ERC20/utils/SafeERC20.sol\":5728:5784  returndata.length == 0 || abi.decode(returndata, (bool)) */\n      dup1\n      tag_126\n      jumpi\n      pop\n        /* \"@openzeppelin/contracts/token/ERC20/utils/SafeERC20.sol\":5765:5775  returndata */\n      dup1\n        /* \"@openzeppelin/contracts/token/ERC20/utils/SafeERC20.sol\":5754:5784  abi.decode(returndata, (bool)) */\n      dup1\n      0x20\n      add\n      swap1\n      mload\n      dup2\n      add\n      swap1\n      tag_127\n      swap2\n      swap1\n      tag_128\n      jump\t// in\n    tag_127:\n        /* \"@openzeppelin/contracts/token/ERC20/utils/SafeERC20.sol\":5728:5784  returndata.length == 0 || abi.decode(returndata, (bool)) */\n    tag_126:\n        /* \"@openzeppelin/contracts/token/ERC20/utils/SafeERC20.sol\":5720:5831  require(returndata.length == 0 || abi.decode(returndata, (bool)), \"SafeERC20: ERC20 operation did not succeed\") */\n      tag_129\n      jumpi\n      mload(0x40)\n      0x08c379a000000000000000000000000000000000000000000000000000000000\n      dup2\n      mstore\n      0x04\n      add\n      tag_130\n      swap1\n      tag_131\n      jump\t// in\n    tag_130:\n      mload(0x40)\n      dup1\n      swap2\n      sub\n      swap1\n      revert\n    tag_129:\n        /* \"@openzeppelin/contracts/token/ERC20/utils/SafeERC20.sol\":5266:5838  {... */\n      pop\n        /* \"@openzeppelin/contracts/token/ERC20/utils/SafeERC20.sol\":5196:5838  function _callOptionalReturn(IERC20 token, bytes memory data) private {... */\n      pop\n      pop\n      jump\t// out\n        /* \"@openzeppelin/contracts/utils/Address.sol\":4108:4331  function functionCall(... */\n    tag_125:\n        /* \"@openzeppelin/contracts/utils/Address.sol\":4241:4253  bytes memory */\n      0x60\n        /* \"@openzeppelin/contracts/utils/Address.sol\":4272:4324  functionCallWithValue(target, data, 0, errorMessage) */\n      tag_133\n        /* \"@openzeppelin/contracts/utils/Address.sol\":4294:4300  target */\n      dup5\n        /* \"@openzeppelin/contracts/utils/Address.sol\":4302:4306  data */\n      dup5\n        /* \"@openzeppelin/contracts/utils/Address.sol\":4308:4309  0 */\n      0x00\n        /* \"@openzeppelin/contracts/utils/Address.sol\":4311:4323  errorMessage */\n      dup6\n        /* \"@openzeppelin/contracts/utils/Address.sol\":4272:4293  functionCallWithValue */\n      tag_134\n        /* \"@openzeppelin/contracts/utils/Address.sol\":4272:4324  functionCallWithValue(target, data, 0, errorMessage) */\n      jump\t// in\n    tag_133:\n        /* \"@openzeppelin/contracts/utils/Address.sol\":4265:4324  return functionCallWithValue(target, data, 0, errorMessage) */\n      swap1\n      pop\n        /* \"@openzeppelin/contracts/utils/Address.sol\":4108:4331  function functionCall(... */\n      swap4\n      swap3\n      pop\n      pop\n      pop\n      jump\t// out\n        /* \"@openzeppelin/contracts/utils/Address.sol\":5165:5611  function functionCallWithValue(... */\n    tag_134:\n        /* \"@openzeppelin/contracts/utils/Address.sol\":5330:5342  bytes memory */\n      0x60\n        /* \"@openzeppelin/contracts/utils/Address.sol\":5387:5392  value */\n      dup3\n        /* \"@openzeppelin/contracts/utils/Address.sol\":5362:5383  address(this).balance */\n      selfbalance\n        /* \"@openzeppelin/contracts/utils/Address.sol\":5362:5392  address(this).balance >= value */\n      lt\n      iszero\n        /* \"@openzeppelin/contracts/utils/Address.sol\":5354:5435  require(address(this).balance >= value, \"Address: insufficient balance for call\") */\n      tag_136\n      jumpi\n      mload(0x40)\n      0x08c379a000000000000000000000000000000000000000000000000000000000\n      dup2\n      mstore\n      0x04\n      add\n      tag_137\n      swap1\n      tag_138\n      jump\t// in\n    tag_137:\n      mload(0x40)\n      dup1\n      swap2\n      sub\n      swap1\n      revert\n    tag_136:\n        /* \"@openzeppelin/contracts/utils/Address.sol\":5446:5458  bool success */\n      0x00\n        /* \"@openzeppelin/contracts/utils/Address.sol\":5460:5483  bytes memory returndata */\n      dup1\n        /* \"@openzeppelin/contracts/utils/Address.sol\":5487:5493  target */\n      dup7\n        /* \"@openzeppelin/contracts/utils/Address.sol\":5487:5498  target.call */\n      0xffffffffffffffffffffffffffffffffffffffff\n      and\n        /* \"@openzeppelin/contracts/utils/Address.sol\":5506:5511  value */\n      dup6\n        /* \"@openzeppelin/contracts/utils/Address.sol\":5513:5517  data */\n      dup8\n        /* \"@openzeppelin/contracts/utils/Address.sol\":5487:5518  target.call{value: value}(data) */\n      mload(0x40)\n      tag_139\n      swap2\n      swap1\n      tag_140\n      jump\t// in\n    tag_139:\n      0x00\n      mload(0x40)\n      dup1\n      dup4\n      sub\n      dup2\n      dup6\n      dup8\n      gas\n      call\n      swap3\n      pop\n      pop\n      pop\n      returndatasize\n      dup1\n      0x00\n      dup2\n      eq\n      tag_143\n      jumpi\n      mload(0x40)\n      swap2\n      pop\n      and(add(returndatasize, 0x3f), not(0x1f))\n      dup3\n      add\n      0x40\n      mstore\n      returndatasize\n      dup3\n      mstore\n      returndatasize\n      0x00\n      0x20\n      dup5\n      add\n      returndatacopy\n      jump(tag_142)\n    tag_143:\n      0x60\n      swap2\n      pop\n    tag_142:\n      pop\n        /* \"@openzeppelin/contracts/utils/Address.sol\":5445:5518  (bool success, bytes memory returndata) = target.call{value: value}(data) */\n      swap2\n      pop\n      swap2\n      pop\n        /* \"@openzeppelin/contracts/utils/Address.sol\":5535:5604  verifyCallResultFromTarget(target, success, returndata, errorMessage) */\n      tag_144\n        /* \"@openzeppelin/contracts/utils/Address.sol\":5562:5568  target */\n      dup8\n        /* \"@openzeppelin/contracts/utils/Address.sol\":5570:5577  success */\n      dup4\n        /* \"@openzeppelin/contracts/utils/Address.sol\":5579:5589  returndata */\n      dup4\n        /* \"@openzeppelin/contracts/utils/Address.sol\":5591:5603  errorMessage */\n      dup8\n        /* \"@openzeppelin/contracts/utils/Address.sol\":5535:5561  verifyCallResultFromTarget */\n      tag_145\n        /* \"@openzeppelin/contracts/utils/Address.sol\":5535:5604  verifyCallResultFromTarget(target, success, returndata, errorMessage) */\n      jump\t// in\n    tag_144:\n        /* \"@openzeppelin/contracts/utils/Address.sol\":5528:5604  return verifyCallResultFromTarget(target, success, returndata, errorMessage) */\n      swap3\n      pop\n      pop\n      pop\n        /* \"@openzeppelin/contracts/utils/Address.sol\":5165:5611  function functionCallWithValue(... */\n      swap5\n      swap4\n      pop\n      pop\n      pop\n      pop\n      jump\t// out\n        /* \"@openzeppelin/contracts/utils/Address.sol\":7671:8299  function verifyCallResultFromTarget(... */\n    tag_145:\n        /* \"@openzeppelin/contracts/utils/Address.sol\":7851:7863  bytes memory */\n      0x60\n        /* \"@openzeppelin/contracts/utils/Address.sol\":7879:7886  success */\n      dup4\n        /* \"@openzeppelin/contracts/utils/Address.sol\":7875:8293  if (success) {... */\n      iszero\n      tag_147\n      jumpi\n        /* \"@openzeppelin/contracts/utils/Address.sol\":7927:7928  0 */\n      0x00\n        /* \"@openzeppelin/contracts/utils/Address.sol\":7906:7916  returndata */\n      dup4\n        /* \"@openzeppelin/contracts/utils/Address.sol\":7906:7923  returndata.length */\n      mload\n        /* \"@openzeppelin/contracts/utils/Address.sol\":7906:7928  returndata.length == 0 */\n      sub\n        /* \"@openzeppelin/contracts/utils/Address.sol\":7902:8188  if (returndata.length == 0) {... */\n      tag_148\n      jumpi\n        /* \"@openzeppelin/contracts/utils/Address.sol\":8121:8139  isContract(target) */\n      tag_149\n        /* \"@openzeppelin/contracts/utils/Address.sol\":8132:8138  target */\n      dup6\n        /* \"@openzeppelin/contracts/utils/Address.sol\":8121:8131  isContract */\n      tag_150\n        /* \"@openzeppelin/contracts/utils/Address.sol\":8121:8139  isContract(target) */\n      jump\t// in\n    tag_149:\n        /* \"@openzeppelin/contracts/utils/Address.sol\":8113:8173  require(isContract(target), \"Address: call to non-contract\") */\n      tag_151\n      jumpi\n      mload(0x40)\n      0x08c379a000000000000000000000000000000000000000000000000000000000\n      dup2\n      mstore\n      0x04\n      add\n      tag_152\n      swap1\n      tag_153\n      jump\t// in\n    tag_152:\n      mload(0x40)\n      dup1\n      swap2\n      sub\n      swap1\n      revert\n    tag_151:\n        /* \"@openzeppelin/contracts/utils/Address.sol\":7902:8188  if (returndata.length == 0) {... */\n    tag_148:\n        /* \"@openzeppelin/contracts/utils/Address.sol\":8208:8218  returndata */\n      dup3\n        /* \"@openzeppelin/contracts/utils/Address.sol\":8201:8218  return returndata */\n      swap1\n      pop\n      jump(tag_146)\n        /* \"@openzeppelin/contracts/utils/Address.sol\":7875:8293  if (success) {... */\n    tag_147:\n        /* \"@openzeppelin/contracts/utils/Address.sol\":8249:8282  _revert(returndata, errorMessage) */\n      tag_155\n        /* \"@openzeppelin/contracts/utils/Address.sol\":8257:8267  returndata */\n      dup4\n        /* \"@openzeppelin/contracts/utils/Address.sol\":8269:8281  errorMessage */\n      dup4\n        /* \"@openzeppelin/contracts/utils/Address.sol\":8249:8256  _revert */\n      tag_156\n        /* \"@openzeppelin/contracts/utils/Address.sol\":8249:8282  _revert(returndata, errorMessage) */\n      jump\t// in\n    tag_155:\n        /* \"@openzeppelin/contracts/utils/Address.sol\":7671:8299  function verifyCallResultFromTarget(... */\n    tag_146:\n      swap5\n      swap4\n      pop\n      pop\n      pop\n      pop\n      jump\t// out\n        /* \"@openzeppelin/contracts/utils/Address.sol\":1412:1732  function isContract(address account) internal view returns (bool) {... */\n    tag_150:\n        /* \"@openzeppelin/contracts/utils/Address.sol\":1472:1476  bool */\n      0x00\n        /* \"@openzeppelin/contracts/utils/Address.sol\":1724:1725  0 */\n      dup1\n        /* \"@openzeppelin/contracts/utils/Address.sol\":1702:1709  account */\n      dup3\n        /* \"@openzeppelin/contracts/utils/Address.sol\":1702:1721  account.code.length */\n      0xffffffffffffffffffffffffffffffffffffffff\n      and\n      extcodesize\n        /* \"@openzeppelin/contracts/utils/Address.sol\":1702:1725  account.code.length > 0 */\n      gt\n        /* \"@openzeppelin/contracts/utils/Address.sol\":1695:1725  return account.code.length > 0 */\n      swap1\n      pop\n        /* \"@openzeppelin/contracts/utils/Address.sol\":1412:1732  function isContract(address account) internal view returns (bool) {... */\n      swap2\n      swap1\n      pop\n      jump\t// out\n        /* \"@openzeppelin/contracts/utils/Address.sol\":8821:9361  function _revert(bytes memory returndata, string memory errorMessage) private pure {... */\n    tag_156:\n        /* \"@openzeppelin/contracts/utils/Address.sol\":9000:9001  0 */\n      0x00\n        /* \"@openzeppelin/contracts/utils/Address.sol\":8980:8990  returndata */\n      dup3\n        /* \"@openzeppelin/contracts/utils/Address.sol\":8980:8997  returndata.length */\n      mload\n        /* \"@openzeppelin/contracts/utils/Address.sol\":8980:9001  returndata.length > 0 */\n      gt\n        /* \"@openzeppelin/contracts/utils/Address.sol\":8976:9355  if (returndata.length > 0) {... */\n      iszero\n      tag_159\n      jumpi\n        /* \"@openzeppelin/contracts/utils/Address.sol\":9208:9218  returndata */\n      dup2\n        /* \"@openzeppelin/contracts/utils/Address.sol\":9202:9219  mload(returndata) */\n      mload\n        /* \"@openzeppelin/contracts/utils/Address.sol\":9264:9279  returndata_size */\n      dup1\n        /* \"@openzeppelin/contracts/utils/Address.sol\":9251:9261  returndata */\n      dup4\n        /* \"@openzeppelin/contracts/utils/Address.sol\":9247:9249  32 */\n      0x20\n        /* \"@openzeppelin/contracts/utils/Address.sol\":9243:9262  add(32, returndata) */\n      add\n        /* \"@openzeppelin/contracts/utils/Address.sol\":9236:9280  revert(add(32, returndata), returndata_size) */\n      revert\n        /* \"@openzeppelin/contracts/utils/Address.sol\":8976:9355  if (returndata.length > 0) {... */\n    tag_159:\n        /* \"@openzeppelin/contracts/utils/Address.sol\":9331:9343  errorMessage */\n      dup1\n        /* \"@openzeppelin/contracts/utils/Address.sol\":9324:9344  revert(errorMessage) */\n      mload(0x40)\n      0x08c379a000000000000000000000000000000000000000000000000000000000\n      dup2\n      mstore\n      0x04\n      add\n      tag_161\n      swap2\n      swap1\n      tag_162\n      jump\t// in\n    tag_161:\n      mload(0x40)\n      dup1\n      swap2\n      sub\n      swap1\n      revert\n        /* \"#utility.yul\":7:84   */\n    tag_163:\n        /* \"#utility.yul\":44:51   */\n      0x00\n        /* \"#utility.yul\":73:78   */\n      dup2\n        /* \"#utility.yul\":62:78   */\n      swap1\n      pop\n        /* \"#utility.yul\":7:84   */\n      swap2\n      swap1\n      pop\n      jump\t// out\n        /* \"#utility.yul\":90:208   */\n    tag_164:\n        /* \"#utility.yul\":177:201   */\n      tag_210\n        /* \"#utility.yul\":195:200   */\n      dup2\n        /* \"#utility.yul\":177:201   */\n      tag_163\n      jump\t// in\n    tag_210:\n        /* \"#utility.yul\":172:175   */\n      dup3\n        /* \"#utility.yul\":165:202   */\n      mstore\n        /* \"#utility.yul\":90:208   */\n      pop\n      pop\n      jump\t// out\n        /* \"#utility.yul\":214:436   */\n    tag_23:\n        /* \"#utility.yul\":307:311   */\n      0x00\n        /* \"#utility.yul\":345:347   */\n      0x20\n        /* \"#utility.yul\":334:343   */\n      dup3\n        /* \"#utility.yul\":330:348   */\n      add\n        /* \"#utility.yul\":322:348   */\n      swap1\n      pop\n        /* \"#utility.yul\":358:429   */\n      tag_212\n        /* \"#utility.yul\":426:427   */\n      0x00\n        /* \"#utility.yul\":415:424   */\n      dup4\n        /* \"#utility.yul\":411:428   */\n      add\n        /* \"#utility.yul\":402:408   */\n      dup5\n        /* \"#utility.yul\":358:429   */\n      tag_164\n      jump\t// in\n    tag_212:\n        /* \"#utility.yul\":214:436   */\n      swap3\n      swap2\n      pop\n      pop\n      jump\t// out\n        /* \"#utility.yul\":442:568   */\n    tag_165:\n        /* \"#utility.yul\":479:486   */\n      0x00\n        /* \"#utility.yul\":519:561   */\n      0xffffffffffffffffffffffffffffffffffffffff\n        /* \"#utility.yul\":512:517   */\n      dup3\n        /* \"#utility.yul\":508:562   */\n      and\n        /* \"#utility.yul\":497:562   */\n      swap1\n      pop\n        /* \"#utility.yul\":442:568   */\n      swap2\n      swap1\n      pop\n      jump\t// out\n        /* \"#utility.yul\":574:678   */\n    tag_166:\n        /* \"#utility.yul\":619:626   */\n      0x00\n        /* \"#utility.yul\":648:672   */\n      tag_215\n        /* \"#utility.yul\":666:671   */\n      dup3\n        /* \"#utility.yul\":648:672   */\n      tag_165\n      jump\t// in\n    tag_215:\n        /* \"#utility.yul\":637:672   */\n      swap1\n      pop\n        /* \"#utility.yul\":574:678   */\n      swap2\n      swap1\n      pop\n      jump\t// out\n        /* \"#utility.yul\":684:826   */\n    tag_167:\n        /* \"#utility.yul\":787:819   */\n      tag_217\n        /* \"#utility.yul\":813:818   */\n      dup2\n        /* \"#utility.yul\":787:819   */\n      tag_166\n      jump\t// in\n    tag_217:\n        /* \"#utility.yul\":782:785   */\n      dup3\n        /* \"#utility.yul\":775:820   */\n      mstore\n        /* \"#utility.yul\":684:826   */\n      pop\n      pop\n      jump\t// out\n        /* \"#utility.yul\":832:1086   */\n    tag_32:\n        /* \"#utility.yul\":941:945   */\n      0x00\n        /* \"#utility.yul\":979:981   */\n      0x20\n        /* \"#utility.yul\":968:977   */\n      dup3\n        /* \"#utility.yul\":964:982   */\n      add\n        /* \"#utility.yul\":956:982   */\n      swap1\n      pop\n        /* \"#utility.yul\":992:1079   */\n      tag_219\n        /* \"#utility.yul\":1076:1077   */\n      0x00\n        /* \"#utility.yul\":1065:1074   */\n      dup4\n        /* \"#utility.yul\":1061:1078   */\n      add\n        /* \"#utility.yul\":1052:1058   */\n      dup5\n        /* \"#utility.yul\":992:1079   */\n      tag_167\n      jump\t// in\n    tag_219:\n        /* \"#utility.yul\":832:1086   */\n      swap3\n      swap2\n      pop\n      pop\n      jump\t// out\n        /* \"#utility.yul\":1092:1182   */\n    tag_168:\n        /* \"#utility.yul\":1126:1133   */\n      0x00\n        /* \"#utility.yul\":1169:1174   */\n      dup2\n        /* \"#utility.yul\":1162:1175   */\n      iszero\n        /* \"#utility.yul\":1155:1176   */\n      iszero\n        /* \"#utility.yul\":1144:1176   */\n      swap1\n      pop\n        /* \"#utility.yul\":1092:1182   */\n      swap2\n      swap1\n      pop\n      jump\t// out\n        /* \"#utility.yul\":1188:1297   */\n    tag_169:\n        /* \"#utility.yul\":1269:1290   */\n      tag_222\n        /* \"#utility.yul\":1284:1289   */\n      dup2\n        /* \"#utility.yul\":1269:1290   */\n      tag_168\n      jump\t// in\n    tag_222:\n        /* \"#utility.yul\":1264:1267   */\n      dup3\n        /* \"#utility.yul\":1257:1291   */\n      mstore\n        /* \"#utility.yul\":1188:1297   */\n      pop\n      pop\n      jump\t// out\n        /* \"#utility.yul\":1303:1513   */\n    tag_37:\n        /* \"#utility.yul\":1390:1394   */\n      0x00\n        /* \"#utility.yul\":1428:1430   */\n      0x20\n        /* \"#utility.yul\":1417:1426   */\n      dup3\n        /* \"#utility.yul\":1413:1431   */\n      add\n        /* \"#utility.yul\":1405:1431   */\n      swap1\n      pop\n        /* \"#utility.yul\":1441:1506   */\n      tag_224\n        /* \"#utility.yul\":1503:1504   */\n      0x00\n        /* \"#utility.yul\":1492:1501   */\n      dup4\n        /* \"#utility.yul\":1488:1505   */\n      add\n        /* \"#utility.yul\":1479:1485   */\n      dup5\n        /* \"#utility.yul\":1441:1506   */\n      tag_169\n      jump\t// in\n    tag_224:\n        /* \"#utility.yul\":1303:1513   */\n      swap3\n      swap2\n      pop\n      pop\n      jump\t// out\n        /* \"#utility.yul\":1600:1717   */\n    tag_171:\n        /* \"#utility.yul\":1709:1710   */\n      0x00\n        /* \"#utility.yul\":1706:1707   */\n      dup1\n        /* \"#utility.yul\":1699:1711   */\n      revert\n        /* \"#utility.yul\":1846:1942   */\n    tag_173:\n        /* \"#utility.yul\":1883:1890   */\n      0x00\n        /* \"#utility.yul\":1912:1936   */\n      tag_229\n        /* \"#utility.yul\":1930:1935   */\n      dup3\n        /* \"#utility.yul\":1912:1936   */\n      tag_165\n      jump\t// in\n    tag_229:\n        /* \"#utility.yul\":1901:1936   */\n      swap1\n      pop\n        /* \"#utility.yul\":1846:1942   */\n      swap2\n      swap1\n      pop\n      jump\t// out\n        /* \"#utility.yul\":1948:2070   */\n    tag_174:\n        /* \"#utility.yul\":2021:2045   */\n      tag_231\n        /* \"#utility.yul\":2039:2044   */\n      dup2\n        /* \"#utility.yul\":2021:2045   */\n      tag_173\n      jump\t// in\n    tag_231:\n        /* \"#utility.yul\":2014:2019   */\n      dup2\n        /* \"#utility.yul\":2011:2046   */\n      eq\n        /* \"#utility.yul\":2001:2064   */\n      tag_232\n      jumpi\n        /* \"#utility.yul\":2060:2061   */\n      0x00\n        /* \"#utility.yul\":2057:2058   */\n      dup1\n        /* \"#utility.yul\":2050:2062   */\n      revert\n        /* \"#utility.yul\":2001:2064   */\n    tag_232:\n        /* \"#utility.yul\":1948:2070   */\n      pop\n      jump\t// out\n        /* \"#utility.yul\":2076:2215   */\n    tag_175:\n        /* \"#utility.yul\":2122:2127   */\n      0x00\n        /* \"#utility.yul\":2160:2166   */\n      dup2\n        /* \"#utility.yul\":2147:2167   */\n      calldataload\n        /* \"#utility.yul\":2138:2167   */\n      swap1\n      pop\n        /* \"#utility.yul\":2176:2209   */\n      tag_234\n        /* \"#utility.yul\":2203:2208   */\n      dup2\n        /* \"#utility.yul\":2176:2209   */\n      tag_174\n      jump\t// in\n    tag_234:\n        /* \"#utility.yul\":2076:2215   */\n      swap3\n      swap2\n      pop\n      pop\n      jump\t// out\n        /* \"#utility.yul\":2221:2550   */\n    tag_40:\n        /* \"#utility.yul\":2280:2286   */\n      0x00\n        /* \"#utility.yul\":2329:2331   */\n      0x20\n        /* \"#utility.yul\":2317:2326   */\n      dup3\n        /* \"#utility.yul\":2308:2315   */\n      dup5\n        /* \"#utility.yul\":2304:2327   */\n      sub\n        /* \"#utility.yul\":2300:2332   */\n      slt\n        /* \"#utility.yul\":2297:2416   */\n      iszero\n      tag_236\n      jumpi\n        /* \"#utility.yul\":2335:2414   */\n      tag_237\n      tag_171\n      jump\t// in\n    tag_237:\n        /* \"#utility.yul\":2297:2416   */\n    tag_236:\n        /* \"#utility.yul\":2455:2456   */\n      0x00\n        /* \"#utility.yul\":2480:2533   */\n      tag_238\n        /* \"#utility.yul\":2525:2532   */\n      dup5\n        /* \"#utility.yul\":2516:2522   */\n      dup3\n        /* \"#utility.yul\":2505:2514   */\n      dup6\n        /* \"#utility.yul\":2501:2523   */\n      add\n        /* \"#utility.yul\":2480:2533   */\n      tag_175\n      jump\t// in\n    tag_238:\n        /* \"#utility.yul\":2470:2533   */\n      swap2\n      pop\n        /* \"#utility.yul\":2426:2543   */\n      pop\n        /* \"#utility.yul\":2221:2550   */\n      swap3\n      swap2\n      pop\n      pop\n      jump\t// out\n        /* \"#utility.yul\":2556:2616   */\n    tag_176:\n        /* \"#utility.yul\":2584:2587   */\n      0x00\n        /* \"#utility.yul\":2605:2610   */\n      dup2\n        /* \"#utility.yul\":2598:2610   */\n      swap1\n      pop\n        /* \"#utility.yul\":2556:2616   */\n      swap2\n      swap1\n      pop\n      jump\t// out\n        /* \"#utility.yul\":2622:2764   */\n    tag_177:\n        /* \"#utility.yul\":2672:2681   */\n      0x00\n        /* \"#utility.yul\":2705:2758   */\n      tag_241\n        /* \"#utility.yul\":2723:2757   */\n      tag_242\n        /* \"#utility.yul\":2732:2756   */\n      tag_243\n        /* \"#utility.yul\":2750:2755   */\n      dup5\n        /* \"#utility.yul\":2732:2756   */\n      tag_165\n      jump\t// in\n    tag_243:\n        /* \"#utility.yul\":2723:2757   */\n      tag_176\n      jump\t// in\n    tag_242:\n        /* \"#utility.yul\":2705:2758   */\n      tag_165\n      jump\t// in\n    tag_241:\n        /* \"#utility.yul\":2692:2758   */\n      swap1\n      pop\n        /* \"#utility.yul\":2622:2764   */\n      swap2\n      swap1\n      pop\n      jump\t// out\n        /* \"#utility.yul\":2770:2896   */\n    tag_178:\n        /* \"#utility.yul\":2820:2829   */\n      0x00\n        /* \"#utility.yul\":2853:2890   */\n      tag_245\n        /* \"#utility.yul\":2884:2889   */\n      dup3\n        /* \"#utility.yul\":2853:2890   */\n      tag_177\n      jump\t// in\n    tag_245:\n        /* \"#utility.yul\":2840:2890   */\n      swap1\n      pop\n        /* \"#utility.yul\":2770:2896   */\n      swap2\n      swap1\n      pop\n      jump\t// out\n        /* \"#utility.yul\":2902:3042   */\n    tag_179:\n        /* \"#utility.yul\":2966:2975   */\n      0x00\n        /* \"#utility.yul\":2999:3036   */\n      tag_247\n        /* \"#utility.yul\":3030:3035   */\n      dup3\n        /* \"#utility.yul\":2999:3036   */\n      tag_178\n      jump\t// in\n    tag_247:\n        /* \"#utility.yul\":2986:3036   */\n      swap1\n      pop\n        /* \"#utility.yul\":2902:3042   */\n      swap2\n      swap1\n      pop\n      jump\t// out\n        /* \"#utility.yul\":3048:3207   */\n    tag_180:\n        /* \"#utility.yul\":3149:3200   */\n      tag_249\n        /* \"#utility.yul\":3194:3199   */\n      dup2\n        /* \"#utility.yul\":3149:3200   */\n      tag_179\n      jump\t// in\n    tag_249:\n        /* \"#utility.yul\":3144:3147   */\n      dup3\n        /* \"#utility.yul\":3137:3201   */\n      mstore\n        /* \"#utility.yul\":3048:3207   */\n      pop\n      pop\n      jump\t// out\n        /* \"#utility.yul\":3213:3463   */\n    tag_45:\n        /* \"#utility.yul\":3320:3324   */\n      0x00\n        /* \"#utility.yul\":3358:3360   */\n      0x20\n        /* \"#utility.yul\":3347:3356   */\n      dup3\n        /* \"#utility.yul\":3343:3361   */\n      add\n        /* \"#utility.yul\":3335:3361   */\n      swap1\n      pop\n        /* \"#utility.yul\":3371:3456   */\n      tag_251\n        /* \"#utility.yul\":3453:3454   */\n      0x00\n        /* \"#utility.yul\":3442:3451   */\n      dup4\n        /* \"#utility.yul\":3438:3455   */\n      add\n        /* \"#utility.yul\":3429:3435   */\n      dup5\n        /* \"#utility.yul\":3371:3456   */\n      tag_180\n      jump\t// in\n    tag_251:\n        /* \"#utility.yul\":3213:3463   */\n      swap3\n      swap2\n      pop\n      pop\n      jump\t// out\n        /* \"#utility.yul\":3469:3801   */\n    tag_61:\n        /* \"#utility.yul\":3590:3594   */\n      0x00\n        /* \"#utility.yul\":3628:3630   */\n      0x40\n        /* \"#utility.yul\":3617:3626   */\n      dup3\n        /* \"#utility.yul\":3613:3631   */\n      add\n        /* \"#utility.yul\":3605:3631   */\n      swap1\n      pop\n        /* \"#utility.yul\":3641:3712   */\n      tag_253\n        /* \"#utility.yul\":3709:3710   */\n      0x00\n        /* \"#utility.yul\":3698:3707   */\n      dup4\n        /* \"#utility.yul\":3694:3711   */\n      add\n        /* \"#utility.yul\":3685:3691   */\n      dup6\n        /* \"#utility.yul\":3641:3712   */\n      tag_164\n      jump\t// in\n    tag_253:\n        /* \"#utility.yul\":3722:3794   */\n      tag_254\n        /* \"#utility.yul\":3790:3792   */\n      0x20\n        /* \"#utility.yul\":3779:3788   */\n      dup4\n        /* \"#utility.yul\":3775:3793   */\n      add\n        /* \"#utility.yul\":3766:3772   */\n      dup5\n        /* \"#utility.yul\":3722:3794   */\n      tag_164\n      jump\t// in\n    tag_254:\n        /* \"#utility.yul\":3469:3801   */\n      swap4\n      swap3\n      pop\n      pop\n      pop\n      jump\t// out\n        /* \"#utility.yul\":3807:3976   */\n    tag_181:\n        /* \"#utility.yul\":3891:3902   */\n      0x00\n        /* \"#utility.yul\":3925:3931   */\n      dup3\n        /* \"#utility.yul\":3920:3923   */\n      dup3\n        /* \"#utility.yul\":3913:3932   */\n      mstore\n        /* \"#utility.yul\":3965:3969   */\n      0x20\n        /* \"#utility.yul\":3960:3963   */\n      dup3\n        /* \"#utility.yul\":3956:3970   */\n      add\n        /* \"#utility.yul\":3941:3970   */\n      swap1\n      pop\n        /* \"#utility.yul\":3807:3976   */\n      swap3\n      swap2\n      pop\n      pop\n      jump\t// out\n        /* \"#utility.yul\":3982:4163   */\n    tag_182:\n        /* \"#utility.yul\":4122:4155   */\n      0x5265656e7472616e637947756172643a207265656e7472616e742063616c6c00\n        /* \"#utility.yul\":4118:4119   */\n      0x00\n        /* \"#utility.yul\":4110:4116   */\n      dup3\n        /* \"#utility.yul\":4106:4120   */\n      add\n        /* \"#utility.yul\":4099:4156   */\n      mstore\n        /* \"#utility.yul\":3982:4163   */\n      pop\n      jump\t// out\n        /* \"#utility.yul\":4169:4535   */\n    tag_183:\n        /* \"#utility.yul\":4311:4314   */\n      0x00\n        /* \"#utility.yul\":4332:4399   */\n      tag_258\n        /* \"#utility.yul\":4396:4398   */\n      0x1f\n        /* \"#utility.yul\":4391:4394   */\n      dup4\n        /* \"#utility.yul\":4332:4399   */\n      tag_181\n      jump\t// in\n    tag_258:\n        /* \"#utility.yul\":4325:4399   */\n      swap2\n      pop\n        /* \"#utility.yul\":4408:4501   */\n      tag_259\n        /* \"#utility.yul\":4497:4500   */\n      dup3\n        /* \"#utility.yul\":4408:4501   */\n      tag_182\n      jump\t// in\n    tag_259:\n        /* \"#utility.yul\":4526:4528   */\n      0x20\n        /* \"#utility.yul\":4521:4524   */\n      dup3\n        /* \"#utility.yul\":4517:4529   */\n      add\n        /* \"#utility.yul\":4510:4529   */\n      swap1\n      pop\n        /* \"#utility.yul\":4169:4535   */\n      swap2\n      swap1\n      pop\n      jump\t// out\n        /* \"#utility.yul\":4541:4960   */\n    tag_78:\n        /* \"#utility.yul\":4707:4711   */\n      0x00\n        /* \"#utility.yul\":4745:4747   */\n      0x20\n        /* \"#utility.yul\":4734:4743   */\n      dup3\n        /* \"#utility.yul\":4730:4748   */\n      add\n        /* \"#utility.yul\":4722:4748   */\n      swap1\n      pop\n        /* \"#utility.yul\":4794:4803   */\n      dup2\n        /* \"#utility.yul\":4788:4792   */\n      dup2\n        /* \"#utility.yul\":4784:4804   */\n      sub\n        /* \"#utility.yul\":4780:4781   */\n      0x00\n        /* \"#utility.yul\":4769:4778   */\n      dup4\n        /* \"#utility.yul\":4765:4782   */\n      add\n        /* \"#utility.yul\":4758:4805   */\n      mstore\n        /* \"#utility.yul\":4822:4953   */\n      tag_261\n        /* \"#utility.yul\":4948:4952   */\n      dup2\n        /* \"#utility.yul\":4822:4953   */\n      tag_183\n      jump\t// in\n    tag_261:\n        /* \"#utility.yul\":4814:4953   */\n      swap1\n      pop\n        /* \"#utility.yul\":4541:4960   */\n      swap2\n      swap1\n      pop\n      jump\t// out\n        /* \"#utility.yul\":4966:5146   */\n    tag_184:\n        /* \"#utility.yul\":5014:5091   */\n      0x4e487b7100000000000000000000000000000000000000000000000000000000\n        /* \"#utility.yul\":5011:5012   */\n      0x00\n        /* \"#utility.yul\":5004:5092   */\n      mstore\n        /* \"#utility.yul\":5111:5115   */\n      0x11\n        /* \"#utility.yul\":5108:5109   */\n      0x04\n        /* \"#utility.yul\":5101:5116   */\n      mstore\n        /* \"#utility.yul\":5135:5139   */\n      0x24\n        /* \"#utility.yul\":5132:5133   */\n      0x00\n        /* \"#utility.yul\":5125:5140   */\n      revert\n        /* \"#utility.yul\":5152:5343   */\n    tag_90:\n        /* \"#utility.yul\":5192:5195   */\n      0x00\n        /* \"#utility.yul\":5211:5231   */\n      tag_264\n        /* \"#utility.yul\":5229:5230   */\n      dup3\n        /* \"#utility.yul\":5211:5231   */\n      tag_163\n      jump\t// in\n    tag_264:\n        /* \"#utility.yul\":5206:5231   */\n      swap2\n      pop\n        /* \"#utility.yul\":5245:5265   */\n      tag_265\n        /* \"#utility.yul\":5263:5264   */\n      dup4\n        /* \"#utility.yul\":5245:5265   */\n      tag_163\n      jump\t// in\n    tag_265:\n        /* \"#utility.yul\":5240:5265   */\n      swap3\n      pop\n        /* \"#utility.yul\":5288:5289   */\n      dup3\n        /* \"#utility.yul\":5285:5286   */\n      dup3\n        /* \"#utility.yul\":5281:5290   */\n      add\n        /* \"#utility.yul\":5274:5290   */\n      swap1\n      pop\n        /* \"#utility.yul\":5309:5312   */\n      dup1\n        /* \"#utility.yul\":5306:5307   */\n      dup3\n        /* \"#utility.yul\":5303:5313   */\n      gt\n        /* \"#utility.yul\":5300:5336   */\n      iszero\n      tag_266\n      jumpi\n        /* \"#utility.yul\":5316:5334   */\n      tag_267\n      tag_184\n      jump\t// in\n    tag_267:\n        /* \"#utility.yul\":5300:5336   */\n    tag_266:\n        /* \"#utility.yul\":5152:5343   */\n      swap3\n      swap2\n      pop\n      pop\n      jump\t// out\n        /* \"#utility.yul\":5349:5515   */\n    tag_185:\n        /* \"#utility.yul\":5489:5507   */\n      0x5061757361626c653a2070617573656400000000000000000000000000000000\n        /* \"#utility.yul\":5485:5486   */\n      0x00\n        /* \"#utility.yul\":5477:5483   */\n      dup3\n        /* \"#utility.yul\":5473:5487   */\n      add\n        /* \"#utility.yul\":5466:5508   */\n      mstore\n        /* \"#utility.yul\":5349:5515   */\n      pop\n      jump\t// out\n        /* \"#utility.yul\":5521:5887   */\n    tag_186:\n        /* \"#utility.yul\":5663:5666   */\n      0x00\n        /* \"#utility.yul\":5684:5751   */\n      tag_270\n        /* \"#utility.yul\":5748:5750   */\n      0x10\n        /* \"#utility.yul\":5743:5746   */\n      dup4\n        /* \"#utility.yul\":5684:5751   */\n      tag_181\n      jump\t// in\n    tag_270:\n        /* \"#utility.yul\":5677:5751   */\n      swap2\n      pop\n        /* \"#utility.yul\":5760:5853   */\n      tag_271\n        /* \"#utility.yul\":5849:5852   */\n      dup3\n        /* \"#utility.yul\":5760:5853   */\n      tag_185\n      jump\t// in\n    tag_271:\n        /* \"#utility.yul\":5878:5880   */\n      0x20\n        /* \"#utility.yul\":5873:5876   */\n      dup3\n        /* \"#utility.yul\":5869:5881   */\n      add\n        /* \"#utility.yul\":5862:5881   */\n      swap1\n      pop\n        /* \"#utility.yul\":5521:5887   */\n      swap2\n      swap1\n      pop\n      jump\t// out\n        /* \"#utility.yul\":5893:6312   */\n    tag_104:\n        /* \"#utility.yul\":6059:6063   */\n      0x00\n        /* \"#utility.yul\":6097:6099   */\n      0x20\n        /* \"#utility.yul\":6086:6095   */\n      dup3\n        /* \"#utility.yul\":6082:6100   */\n      add\n        /* \"#utility.yul\":6074:6100   */\n      swap1\n      pop\n        /* \"#utility.yul\":6146:6155   */\n      dup2\n        /* \"#utility.yul\":6140:6144   */\n      dup2\n        /* \"#utility.yul\":6136:6156   */\n      sub\n        /* \"#utility.yul\":6132:6133   */\n      0x00\n        /* \"#utility.yul\":6121:6130   */\n      dup4\n        /* \"#utility.yul\":6117:6134   */\n      add\n        /* \"#utility.yul\":6110:6157   */\n      mstore\n        /* \"#utility.yul\":6174:6305   */\n      tag_273\n        /* \"#utility.yul\":6300:6304   */\n      dup2\n        /* \"#utility.yul\":6174:6305   */\n      tag_186\n      jump\t// in\n    tag_273:\n        /* \"#utility.yul\":6166:6305   */\n      swap1\n      pop\n        /* \"#utility.yul\":5893:6312   */\n      swap2\n      swap1\n      pop\n      jump\t// out\n        /* \"#utility.yul\":6318:6547   */\n    tag_187:\n        /* \"#utility.yul\":6458:6492   */\n      0x43726f776473616c653a2062656e656669636961727920697320746865207a65\n        /* \"#utility.yul\":6454:6455   */\n      0x00\n        /* \"#utility.yul\":6446:6452   */\n      dup3\n        /* \"#utility.yul\":6442:6456   */\n      add\n        /* \"#utility.yul\":6435:6493   */\n      mstore\n        /* \"#utility.yul\":6527:6539   */\n      0x726f206164647265737300000000000000000000000000000000000000000000\n        /* \"#utility.yul\":6522:6524   */\n      0x20\n        /* \"#utility.yul\":6514:6520   */\n      dup3\n        /* \"#utility.yul\":6510:6525   */\n      add\n        /* \"#utility.yul\":6503:6540   */\n      mstore\n        /* \"#utility.yul\":6318:6547   */\n      pop\n      jump\t// out\n        /* \"#utility.yul\":6553:6919   */\n    tag_188:\n        /* \"#utility.yul\":6695:6698   */\n      0x00\n        /* \"#utility.yul\":6716:6783   */\n      tag_276\n        /* \"#utility.yul\":6780:6782   */\n      0x2a\n        /* \"#utility.yul\":6775:6778   */\n      dup4\n        /* \"#utility.yul\":6716:6783   */\n      tag_181\n      jump\t// in\n    tag_276:\n        /* \"#utility.yul\":6709:6783   */\n      swap2\n      pop\n        /* \"#utility.yul\":6792:6885   */\n      tag_277\n        /* \"#utility.yul\":6881:6884   */\n      dup3\n        /* \"#utility.yul\":6792:6885   */\n      tag_187\n      jump\t// in\n    tag_277:\n        /* \"#utility.yul\":6910:6912   */\n      0x40\n        /* \"#utility.yul\":6905:6908   */\n      dup3\n        /* \"#utility.yul\":6901:6913   */\n      add\n        /* \"#utility.yul\":6894:6913   */\n      swap1\n      pop\n        /* \"#utility.yul\":6553:6919   */\n      swap2\n      swap1\n      pop\n      jump\t// out\n        /* \"#utility.yul\":6925:7344   */\n    tag_108:\n        /* \"#utility.yul\":7091:7095   */\n      0x00\n        /* \"#utility.yul\":7129:7131   */\n      0x20\n        /* \"#utility.yul\":7118:7127   */\n      dup3\n        /* \"#utility.yul\":7114:7132   */\n      add\n        /* \"#utility.yul\":7106:7132   */\n      swap1\n      pop\n        /* \"#utility.yul\":7178:7187   */\n      dup2\n        /* \"#utility.yul\":7172:7176   */\n      dup2\n        /* \"#utility.yul\":7168:7188   */\n      sub\n        /* \"#utility.yul\":7164:7165   */\n      0x00\n        /* \"#utility.yul\":7153:7162   */\n      dup4\n        /* \"#utility.yul\":7149:7166   */\n      add\n        /* \"#utility.yul\":7142:7189   */\n      mstore\n        /* \"#utility.yul\":7206:7337   */\n      tag_279\n        /* \"#utility.yul\":7332:7336   */\n      dup2\n        /* \"#utility.yul\":7206:7337   */\n      tag_188\n      jump\t// in\n    tag_279:\n        /* \"#utility.yul\":7198:7337   */\n      swap1\n      pop\n        /* \"#utility.yul\":6925:7344   */\n      swap2\n      swap1\n      pop\n      jump\t// out\n        /* \"#utility.yul\":7350:7525   */\n    tag_189:\n        /* \"#utility.yul\":7490:7517   */\n      0x43726f776473616c653a20776569416d6f756e74206973203000000000000000\n        /* \"#utility.yul\":7486:7487   */\n      0x00\n        /* \"#utility.yul\":7478:7484   */\n      dup3\n        /* \"#utility.yul\":7474:7488   */\n      add\n        /* \"#utility.yul\":7467:7518   */\n      mstore\n        /* \"#utility.yul\":7350:7525   */\n      pop\n      jump\t// out\n        /* \"#utility.yul\":7531:7897   */\n    tag_190:\n        /* \"#utility.yul\":7673:7676   */\n      0x00\n        /* \"#utility.yul\":7694:7761   */\n      tag_282\n        /* \"#utility.yul\":7758:7760   */\n      0x19\n        /* \"#utility.yul\":7753:7756   */\n      dup4\n        /* \"#utility.yul\":7694:7761   */\n      tag_181\n      jump\t// in\n    tag_282:\n        /* \"#utility.yul\":7687:7761   */\n      swap2\n      pop\n        /* \"#utility.yul\":7770:7863   */\n      tag_283\n        /* \"#utility.yul\":7859:7862   */\n      dup3\n        /* \"#utility.yul\":7770:7863   */\n      tag_189\n      jump\t// in\n    tag_283:\n        /* \"#utility.yul\":7888:7890   */\n      0x20\n        /* \"#utility.yul\":7883:7886   */\n      dup3\n        /* \"#utility.yul\":7879:7891   */\n      add\n        /* \"#utility.yul\":7872:7891   */\n      swap1\n      pop\n        /* \"#utility.yul\":7531:7897   */\n      swap2\n      swap1\n      pop\n      jump\t// out\n        /* \"#utility.yul\":7903:8322   */\n    tag_111:\n        /* \"#utility.yul\":8069:8073   */\n      0x00\n        /* \"#utility.yul\":8107:8109   */\n      0x20\n        /* \"#utility.yul\":8096:8105   */\n      dup3\n        /* \"#utility.yul\":8092:8110   */\n      add\n        /* \"#utility.yul\":8084:8110   */\n      swap1\n      pop\n        /* \"#utility.yul\":8156:8165   */\n      dup2\n        /* \"#utility.yul\":8150:8154   */\n      dup2\n        /* \"#utility.yul\":8146:8166   */\n      sub\n        /* \"#utility.yul\":8142:8143   */\n      0x00\n        /* \"#utility.yul\":8131:8140   */\n      dup4\n        /* \"#utility.yul\":8127:8144   */\n      add\n        /* \"#utility.yul\":8120:8167   */\n      mstore\n        /* \"#utility.yul\":8184:8315   */\n      tag_285\n        /* \"#utility.yul\":8310:8314   */\n      dup2\n        /* \"#utility.yul\":8184:8315   */\n      tag_190\n      jump\t// in\n    tag_285:\n        /* \"#utility.yul\":8176:8315   */\n      swap1\n      pop\n        /* \"#utility.yul\":7903:8322   */\n      swap2\n      swap1\n      pop\n      jump\t// out\n        /* \"#utility.yul\":8328:8738   */\n    tag_114:\n        /* \"#utility.yul\":8368:8375   */\n      0x00\n        /* \"#utility.yul\":8391:8411   */\n      tag_287\n        /* \"#utility.yul\":8409:8410   */\n      dup3\n        /* \"#utility.yul\":8391:8411   */\n      tag_163\n      jump\t// in\n    tag_287:\n        /* \"#utility.yul\":8386:8411   */\n      swap2\n      pop\n        /* \"#utility.yul\":8425:8445   */\n      tag_288\n        /* \"#utility.yul\":8443:8444   */\n      dup4\n        /* \"#utility.yul\":8425:8445   */\n      tag_163\n      jump\t// in\n    tag_288:\n        /* \"#utility.yul\":8420:8445   */\n      swap3\n      pop\n        /* \"#utility.yul\":8480:8481   */\n      dup3\n        /* \"#utility.yul\":8477:8478   */\n      dup3\n        /* \"#utility.yul\":8473:8482   */\n      mul\n        /* \"#utility.yul\":8502:8532   */\n      tag_289\n        /* \"#utility.yul\":8520:8531   */\n      dup2\n        /* \"#utility.yul\":8502:8532   */\n      tag_163\n      jump\t// in\n    tag_289:\n        /* \"#utility.yul\":8491:8532   */\n      swap2\n      pop\n        /* \"#utility.yul\":8681:8682   */\n      dup3\n        /* \"#utility.yul\":8672:8679   */\n      dup3\n        /* \"#utility.yul\":8668:8683   */\n      div\n        /* \"#utility.yul\":8665:8666   */\n      dup5\n        /* \"#utility.yul\":8662:8684   */\n      eq\n        /* \"#utility.yul\":8642:8643   */\n      dup4\n        /* \"#utility.yul\":8635:8644   */\n      iszero\n        /* \"#utility.yul\":8615:8698   */\n      or\n        /* \"#utility.yul\":8592:8731   */\n      tag_290\n      jumpi\n        /* \"#utility.yul\":8711:8729   */\n      tag_291\n      tag_184\n      jump\t// in\n    tag_291:\n        /* \"#utility.yul\":8592:8731   */\n    tag_290:\n        /* \"#utility.yul\":8376:8738   */\n      pop\n        /* \"#utility.yul\":8328:8738   */\n      swap3\n      swap2\n      pop\n      pop\n      jump\t// out\n        /* \"#utility.yul\":8744:8862   */\n    tag_191:\n        /* \"#utility.yul\":8831:8855   */\n      tag_293\n        /* \"#utility.yul\":8849:8854   */\n      dup2\n        /* \"#utility.yul\":8831:8855   */\n      tag_173\n      jump\t// in\n    tag_293:\n        /* \"#utility.yul\":8826:8829   */\n      dup3\n        /* \"#utility.yul\":8819:8856   */\n      mstore\n        /* \"#utility.yul\":8744:8862   */\n      pop\n      pop\n      jump\t// out\n        /* \"#utility.yul\":8868:9200   */\n    tag_121:\n        /* \"#utility.yul\":8989:8993   */\n      0x00\n        /* \"#utility.yul\":9027:9029   */\n      0x40\n        /* \"#utility.yul\":9016:9025   */\n      dup3\n        /* \"#utility.yul\":9012:9030   */\n      add\n        /* \"#utility.yul\":9004:9030   */\n      swap1\n      pop\n        /* \"#utility.yul\":9040:9111   */\n      tag_295\n        /* \"#utility.yul\":9108:9109   */\n      0x00\n        /* \"#utility.yul\":9097:9106   */\n      dup4\n        /* \"#utility.yul\":9093:9110   */\n      add\n        /* \"#utility.yul\":9084:9090   */\n      dup6\n        /* \"#utility.yul\":9040:9111   */\n      tag_191\n      jump\t// in\n    tag_295:\n        /* \"#utility.yul\":9121:9193   */\n      tag_296\n        /* \"#utility.yul\":9189:9191   */\n      0x20\n        /* \"#utility.yul\":9178:9187   */\n      dup4\n        /* \"#utility.yul\":9174:9192   */\n      add\n        /* \"#utility.yul\":9165:9171   */\n      dup5\n        /* \"#utility.yul\":9121:9193   */\n      tag_164\n      jump\t// in\n    tag_296:\n        /* \"#utility.yul\":8868:9200   */\n      swap4\n      swap3\n      pop\n      pop\n      pop\n      jump\t// out\n        /* \"#utility.yul\":9206:9322   */\n    tag_192:\n        /* \"#utility.yul\":9276:9297   */\n      tag_298\n        /* \"#utility.yul\":9291:9296   */\n      dup2\n        /* \"#utility.yul\":9276:9297   */\n      tag_168\n      jump\t// in\n    tag_298:\n        /* \"#utility.yul\":9269:9274   */\n      dup2\n        /* \"#utility.yul\":9266:9298   */\n      eq\n        /* \"#utility.yul\":9256:9316   */\n      tag_299\n      jumpi\n        /* \"#utility.yul\":9312:9313   */\n      0x00\n        /* \"#utility.yul\":9309:9310   */\n      dup1\n        /* \"#utility.yul\":9302:9314   */\n      revert\n        /* \"#utility.yul\":9256:9316   */\n    tag_299:\n        /* \"#utility.yul\":9206:9322   */\n      pop\n      jump\t// out\n        /* \"#utility.yul\":9328:9465   */\n    tag_193:\n        /* \"#utility.yul\":9382:9387   */\n      0x00\n        /* \"#utility.yul\":9413:9419   */\n      dup2\n        /* \"#utility.yul\":9407:9420   */\n      mload\n        /* \"#utility.yul\":9398:9420   */\n      swap1\n      pop\n        /* \"#utility.yul\":9429:9459   */\n      tag_301\n        /* \"#utility.yul\":9453:9458   */\n      dup2\n        /* \"#utility.yul\":9429:9459   */\n      tag_192\n      jump\t// in\n    tag_301:\n        /* \"#utility.yul\":9328:9465   */\n      swap3\n      swap2\n      pop\n      pop\n      jump\t// out\n        /* \"#utility.yul\":9471:9816   */\n    tag_128:\n        /* \"#utility.yul\":9538:9544   */\n      0x00\n        /* \"#utility.yul\":9587:9589   */\n      0x20\n        /* \"#utility.yul\":9575:9584   */\n      dup3\n        /* \"#utility.yul\":9566:9573   */\n      dup5\n        /* \"#utility.yul\":9562:9585   */\n      sub\n        /* \"#utility.yul\":9558:9590   */\n      slt\n        /* \"#utility.yul\":9555:9674   */\n      iszero\n      tag_303\n      jumpi\n        /* \"#utility.yul\":9593:9672   */\n      tag_304\n      tag_171\n      jump\t// in\n    tag_304:\n        /* \"#utility.yul\":9555:9674   */\n    tag_303:\n        /* \"#utility.yul\":9713:9714   */\n      0x00\n        /* \"#utility.yul\":9738:9799   */\n      tag_305\n        /* \"#utility.yul\":9791:9798   */\n      dup5\n        /* \"#utility.yul\":9782:9788   */\n      dup3\n        /* \"#utility.yul\":9771:9780   */\n      dup6\n        /* \"#utility.yul\":9767:9789   */\n      add\n        /* \"#utility.yul\":9738:9799   */\n      tag_193\n      jump\t// in\n    tag_305:\n        /* \"#utility.yul\":9728:9799   */\n      swap2\n      pop\n        /* \"#utility.yul\":9684:9809   */\n      pop\n        /* \"#utility.yul\":9471:9816   */\n      swap3\n      swap2\n      pop\n      pop\n      jump\t// out\n        /* \"#utility.yul\":9822:10051   */\n    tag_194:\n        /* \"#utility.yul\":9962:9996   */\n      0x5361666545524332303a204552433230206f7065726174696f6e20646964206e\n        /* \"#utility.yul\":9958:9959   */\n      0x00\n        /* \"#utility.yul\":9950:9956   */\n      dup3\n        /* \"#utility.yul\":9946:9960   */\n      add\n        /* \"#utility.yul\":9939:9997   */\n      mstore\n        /* \"#utility.yul\":10031:10043   */\n      0x6f74207375636365656400000000000000000000000000000000000000000000\n        /* \"#utility.yul\":10026:10028   */\n      0x20\n        /* \"#utility.yul\":10018:10024   */\n      dup3\n        /* \"#utility.yul\":10014:10029   */\n      add\n        /* \"#utility.yul\":10007:10044   */\n      mstore\n        /* \"#utility.yul\":9822:10051   */\n      pop\n      jump\t// out\n        /* \"#utility.yul\":10057:10423   */\n    tag_195:\n        /* \"#utility.yul\":10199:10202   */\n      0x00\n        /* \"#utility.yul\":10220:10287   */\n      tag_308\n        /* \"#utility.yul\":10284:10286   */\n      0x2a\n        /* \"#utility.yul\":10279:10282   */\n      dup4\n        /* \"#utility.yul\":10220:10287   */\n      tag_181\n      jump\t// in\n    tag_308:\n        /* \"#utility.yul\":10213:10287   */\n      swap2\n      pop\n        /* \"#utility.yul\":10296:10389   */\n      tag_309\n        /* \"#utility.yul\":10385:10388   */\n      dup3\n        /* \"#utility.yul\":10296:10389   */\n      tag_194\n      jump\t// in\n    tag_309:\n        /* \"#utility.yul\":10414:10416   */\n      0x40\n        /* \"#utility.yul\":10409:10412   */\n      dup3\n        /* \"#utility.yul\":10405:10417   */\n      add\n        /* \"#utility.yul\":10398:10417   */\n      swap1\n      pop\n        /* \"#utility.yul\":10057:10423   */\n      swap2\n      swap1\n      pop\n      jump\t// out\n        /* \"#utility.yul\":10429:10848   */\n    tag_131:\n        /* \"#utility.yul\":10595:10599   */\n      0x00\n        /* \"#utility.yul\":10633:10635   */\n      0x20\n        /* \"#utility.yul\":10622:10631   */\n      dup3\n        /* \"#utility.yul\":10618:10636   */\n      add\n        /* \"#utility.yul\":10610:10636   */\n      swap1\n      pop\n        /* \"#utility.yul\":10682:10691   */\n      dup2\n        /* \"#utility.yul\":10676:10680   */\n      dup2\n        /* \"#utility.yul\":10672:10692   */\n      sub\n        /* \"#utility.yul\":10668:10669   */\n      0x00\n        /* \"#utility.yul\":10657:10666   */\n      dup4\n        /* \"#utility.yul\":10653:10670   */\n      add\n        /* \"#utility.yul\":10646:10693   */\n      mstore\n        /* \"#utility.yul\":10710:10841   */\n      tag_311\n        /* \"#utility.yul\":10836:10840   */\n      dup2\n        /* \"#utility.yul\":10710:10841   */\n      tag_195\n      jump\t// in\n    tag_311:\n        /* \"#utility.yul\":10702:10841   */\n      swap1\n      pop\n        /* \"#utility.yul\":10429:10848   */\n      swap2\n      swap1\n      pop\n      jump\t// out\n        /* \"#utility.yul\":10854:11079   */\n    tag_196:\n        /* \"#utility.yul\":10994:11028   */\n      0x416464726573733a20696e73756666696369656e742062616c616e636520666f\n        /* \"#utility.yul\":10990:10991   */\n      0x00\n        /* \"#utility.yul\":10982:10988   */\n      dup3\n        /* \"#utility.yul\":10978:10992   */\n      add\n        /* \"#utility.yul\":10971:11029   */\n      mstore\n        /* \"#utility.yul\":11063:11071   */\n      0x722063616c6c0000000000000000000000000000000000000000000000000000\n        /* \"#utility.yul\":11058:11060   */\n      0x20\n        /* \"#utility.yul\":11050:11056   */\n      dup3\n        /* \"#utility.yul\":11046:11061   */\n      add\n        /* \"#utility.yul\":11039:11072   */\n      mstore\n        /* \"#utility.yul\":10854:11079   */\n      pop\n      jump\t// out\n        /* \"#utility.yul\":11085:11451   */\n    tag_197:\n        /* \"#utility.yul\":11227:11230   */\n      0x00\n        /* \"#utility.yul\":11248:11315   */\n      tag_314\n        /* \"#utility.yul\":11312:11314   */\n      0x26\n        /* \"#utility.yul\":11307:11310   */\n      dup4\n        /* \"#utility.yul\":11248:11315   */\n      tag_181\n      jump\t// in\n    tag_314:\n        /* \"#utility.yul\":11241:11315   */\n      swap2\n      pop\n        /* \"#utility.yul\":11324:11417   */\n      tag_315\n        /* \"#utility.yul\":11413:11416   */\n      dup3\n        /* \"#utility.yul\":11324:11417   */\n      tag_196\n      jump\t// in\n    tag_315:\n        /* \"#utility.yul\":11442:11444   */\n      0x40\n        /* \"#utility.yul\":11437:11440   */\n      dup3\n        /* \"#utility.yul\":11433:11445   */\n      add\n        /* \"#utility.yul\":11426:11445   */\n      swap1\n      pop\n        /* \"#utility.yul\":11085:11451   */\n      swap2\n      swap1\n      pop\n      jump\t// out\n        /* \"#utility.yul\":11457:11876   */\n    tag_138:\n        /* \"#utility.yul\":11623:11627   */\n      0x00\n        /* \"#utility.yul\":11661:11663   */\n      0x20\n        /* \"#utility.yul\":11650:11659   */\n      dup3\n        /* \"#utility.yul\":11646:11664   */\n      add\n        /* \"#utility.yul\":11638:11664   */\n      swap1\n      pop\n        /* \"#utility.yul\":11710:11719   */\n      dup2\n        /* \"#utility.yul\":11704:11708   */\n      dup2\n        /* \"#utility.yul\":11700:11720   */\n      sub\n        /* \"#utility.yul\":11696:11697   */\n      0x00\n        /* \"#utility.yul\":11685:11694   */\n      dup4\n        /* \"#utility.yul\":11681:11698   */\n      add\n        /* \"#utility.yul\":11674:11721   */\n      mstore\n        /* \"#utility.yul\":11738:11869   */\n      tag_317\n        /* \"#utility.yul\":11864:11868   */\n      dup2\n        /* \"#utility.yul\":11738:11869   */\n      tag_197\n      jump\t// in\n    tag_317:\n        /* \"#utility.yul\":11730:11869   */\n      swap1\n      pop\n        /* \"#utility.yul\":11457:11876   */\n      swap2\n      swap1\n      pop\n      jump\t// out\n        /* \"#utility.yul\":11882:11980   */\n    tag_198:\n        /* \"#utility.yul\":11933:11939   */\n      0x00\n        /* \"#utility.yul\":11967:11972   */\n      dup2\n        /* \"#utility.yul\":11961:11973   */\n      mload\n        /* \"#utility.yul\":11951:11973   */\n      swap1\n      pop\n        /* \"#utility.yul\":11882:11980   */\n      swap2\n      swap1\n      pop\n      jump\t// out\n        /* \"#utility.yul\":11986:12133   */\n    tag_199:\n        /* \"#utility.yul\":12087:12098   */\n      0x00\n        /* \"#utility.yul\":12124:12127   */\n      dup2\n        /* \"#utility.yul\":12109:12127   */\n      swap1\n      pop\n        /* \"#utility.yul\":11986:12133   */\n      swap3\n      swap2\n      pop\n      pop\n      jump\t// out\n        /* \"#utility.yul\":12139:12385   */\n    tag_200:\n        /* \"#utility.yul\":12220:12221   */\n      0x00\n        /* \"#utility.yul\":12230:12343   */\n    tag_321:\n        /* \"#utility.yul\":12244:12250   */\n      dup4\n        /* \"#utility.yul\":12241:12242   */\n      dup2\n        /* \"#utility.yul\":12238:12251   */\n      lt\n        /* \"#utility.yul\":12230:12343   */\n      iszero\n      tag_323\n      jumpi\n        /* \"#utility.yul\":12329:12330   */\n      dup1\n        /* \"#utility.yul\":12324:12327   */\n      dup3\n        /* \"#utility.yul\":12320:12331   */\n      add\n        /* \"#utility.yul\":12314:12332   */\n      mload\n        /* \"#utility.yul\":12310:12311   */\n      dup2\n        /* \"#utility.yul\":12305:12308   */\n      dup5\n        /* \"#utility.yul\":12301:12312   */\n      add\n        /* \"#utility.yul\":12294:12333   */\n      mstore\n        /* \"#utility.yul\":12266:12268   */\n      0x20\n        /* \"#utility.yul\":12263:12264   */\n      dup2\n        /* \"#utility.yul\":12259:12269   */\n      add\n        /* \"#utility.yul\":12254:12269   */\n      swap1\n      pop\n        /* \"#utility.yul\":12230:12343   */\n      jump(tag_321)\n    tag_323:\n        /* \"#utility.yul\":12377:12378   */\n      0x00\n        /* \"#utility.yul\":12368:12374   */\n      dup5\n        /* \"#utility.yul\":12363:12366   */\n      dup5\n        /* \"#utility.yul\":12359:12375   */\n      add\n        /* \"#utility.yul\":12352:12379   */\n      mstore\n        /* \"#utility.yul\":12201:12385   */\n      pop\n        /* \"#utility.yul\":12139:12385   */\n      pop\n      pop\n      pop\n      jump\t// out\n        /* \"#utility.yul\":12391:12777   */\n    tag_201:\n        /* \"#utility.yul\":12495:12498   */\n      0x00\n        /* \"#utility.yul\":12523:12561   */\n      tag_325\n        /* \"#utility.yul\":12555:12560   */\n      dup3\n        /* \"#utility.yul\":12523:12561   */\n      tag_198\n      jump\t// in\n    tag_325:\n        /* \"#utility.yul\":12577:12665   */\n      tag_326\n        /* \"#utility.yul\":12658:12664   */\n      dup2\n        /* \"#utility.yul\":12653:12656   */\n      dup6\n        /* \"#utility.yul\":12577:12665   */\n      tag_199\n      jump\t// in\n    tag_326:\n        /* \"#utility.yul\":12570:12665   */\n      swap4\n      pop\n        /* \"#utility.yul\":12674:12739   */\n      tag_327\n        /* \"#utility.yul\":12732:12738   */\n      dup2\n        /* \"#utility.yul\":12727:12730   */\n      dup6\n        /* \"#utility.yul\":12720:12724   */\n      0x20\n        /* \"#utility.yul\":12713:12718   */\n      dup7\n        /* \"#utility.yul\":12709:12725   */\n      add\n        /* \"#utility.yul\":12674:12739   */\n      tag_200\n      jump\t// in\n    tag_327:\n        /* \"#utility.yul\":12764:12770   */\n      dup1\n        /* \"#utility.yul\":12759:12762   */\n      dup5\n        /* \"#utility.yul\":12755:12771   */\n      add\n        /* \"#utility.yul\":12748:12771   */\n      swap2\n      pop\n        /* \"#utility.yul\":12499:12777   */\n      pop\n        /* \"#utility.yul\":12391:12777   */\n      swap3\n      swap2\n      pop\n      pop\n      jump\t// out\n        /* \"#utility.yul\":12783:13054   */\n    tag_140:\n        /* \"#utility.yul\":12913:12916   */\n      0x00\n        /* \"#utility.yul\":12935:13028   */\n      tag_329\n        /* \"#utility.yul\":13024:13027   */\n      dup3\n        /* \"#utility.yul\":13015:13021   */\n      dup5\n        /* \"#utility.yul\":12935:13028   */\n      tag_201\n      jump\t// in\n    tag_329:\n        /* \"#utility.yul\":12928:13028   */\n      swap2\n      pop\n        /* \"#utility.yul\":13045:13048   */\n      dup2\n        /* \"#utility.yul\":13038:13048   */\n      swap1\n      pop\n        /* \"#utility.yul\":12783:13054   */\n      swap3\n      swap2\n      pop\n      pop\n      jump\t// out\n        /* \"#utility.yul\":13060:13239   */\n    tag_202:\n        /* \"#utility.yul\":13200:13231   */\n      0x416464726573733a2063616c6c20746f206e6f6e2d636f6e7472616374000000\n        /* \"#utility.yul\":13196:13197   */\n      0x00\n        /* \"#utility.yul\":13188:13194   */\n      dup3\n        /* \"#utility.yul\":13184:13198   */\n      add\n        /* \"#utility.yul\":13177:13232   */\n      mstore\n        /* \"#utility.yul\":13060:13239   */\n      pop\n      jump\t// out\n        /* \"#utility.yul\":13245:13611   */\n    tag_203:\n        /* \"#utility.yul\":13387:13390   */\n      0x00\n        /* \"#utility.yul\":13408:13475   */\n      tag_332\n        /* \"#utility.yul\":13472:13474   */\n      0x1d\n        /* \"#utility.yul\":13467:13470   */\n      dup4\n        /* \"#utility.yul\":13408:13475   */\n      tag_181\n      jump\t// in\n    tag_332:\n        /* \"#utility.yul\":13401:13475   */\n      swap2\n      pop\n        /* \"#utility.yul\":13484:13577   */\n      tag_333\n        /* \"#utility.yul\":13573:13576   */\n      dup3\n        /* \"#utility.yul\":13484:13577   */\n      tag_202\n      jump\t// in\n    tag_333:\n        /* \"#utility.yul\":13602:13604   */\n      0x20\n        /* \"#utility.yul\":13597:13600   */\n      dup3\n        /* \"#utility.yul\":13593:13605   */\n      add\n        /* \"#utility.yul\":13586:13605   */\n      swap1\n      pop\n        /* \"#utility.yul\":13245:13611   */\n      swap2\n      swap1\n      pop\n      jump\t// out\n        /* \"#utility.yul\":13617:14036   */\n    tag_153:\n        /* \"#utility.yul\":13783:13787   */\n      0x00\n        /* \"#utility.yul\":13821:13823   */\n      0x20\n        /* \"#utility.yul\":13810:13819   */\n      dup3\n        /* \"#utility.yul\":13806:13824   */\n      add\n        /* \"#utility.yul\":13798:13824   */\n      swap1\n      pop\n        /* \"#utility.yul\":13870:13879   */\n      dup2\n        /* \"#utility.yul\":13864:13868   */\n      dup2\n        /* \"#utility.yul\":13860:13880   */\n      sub\n        /* \"#utility.yul\":13856:13857   */\n      0x00\n        /* \"#utility.yul\":13845:13854   */\n      dup4\n        /* \"#utility.yul\":13841:13858   */\n      add\n        /* \"#utility.yul\":13834:13881   */\n      mstore\n        /* \"#utility.yul\":13898:14029   */\n      tag_335\n        /* \"#utility.yul\":14024:14028   */\n      dup2\n        /* \"#utility.yul\":13898:14029   */\n      tag_203\n      jump\t// in\n    tag_335:\n        /* \"#utility.yul\":13890:14029   */\n      swap1\n      pop\n        /* \"#utility.yul\":13617:14036   */\n      swap2\n      swap1\n      pop\n      jump\t// out\n        /* \"#utility.yul\":14042:14141   */\n    tag_204:\n        /* \"#utility.yul\":14094:14100   */\n      0x00\n        /* \"#utility.yul\":14128:14133   */\n      dup2\n        /* \"#utility.yul\":14122:14134   */\n      mload\n        /* \"#utility.yul\":14112:14134   */\n      swap1\n      pop\n        /* \"#utility.yul\":14042:14141   */\n      swap2\n      swap1\n      pop\n      jump\t// out\n        /* \"#utility.yul\":14147:14249   */\n    tag_205:\n        /* \"#utility.yul\":14188:14194   */\n      0x00\n        /* \"#utility.yul\":14239:14241   */\n      0x1f\n        /* \"#utility.yul\":14235:14242   */\n      not\n        /* \"#utility.yul\":14230:14232   */\n      0x1f\n        /* \"#utility.yul\":14223:14228   */\n      dup4\n        /* \"#utility.yul\":14219:14233   */\n      add\n        /* \"#utility.yul\":14215:14243   */\n      and\n        /* \"#utility.yul\":14205:14243   */\n      swap1\n      pop\n        /* \"#utility.yul\":14147:14249   */\n      swap2\n      swap1\n      pop\n      jump\t// out\n        /* \"#utility.yul\":14255:14632   */\n    tag_206:\n        /* \"#utility.yul\":14343:14346   */\n      0x00\n        /* \"#utility.yul\":14371:14410   */\n      tag_339\n        /* \"#utility.yul\":14404:14409   */\n      dup3\n        /* \"#utility.yul\":14371:14410   */\n      tag_204\n      jump\t// in\n    tag_339:\n        /* \"#utility.yul\":14426:14497   */\n      tag_340\n        /* \"#utility.yul\":14490:14496   */\n      dup2\n        /* \"#utility.yul\":14485:14488   */\n      dup6\n        /* \"#utility.yul\":14426:14497   */\n      tag_181\n      jump\t// in\n    tag_340:\n        /* \"#utility.yul\":14419:14497   */\n      swap4\n      pop\n        /* \"#utility.yul\":14506:14571   */\n      tag_341\n        /* \"#utility.yul\":14564:14570   */\n      dup2\n        /* \"#utility.yul\":14559:14562   */\n      dup6\n        /* \"#utility.yul\":14552:14556   */\n      0x20\n        /* \"#utility.yul\":14545:14550   */\n      dup7\n        /* \"#utility.yul\":14541:14557   */\n      add\n        /* \"#utility.yul\":14506:14571   */\n      tag_200\n      jump\t// in\n    tag_341:\n        /* \"#utility.yul\":14596:14625   */\n      tag_342\n        /* \"#utility.yul\":14618:14624   */\n      dup2\n        /* \"#utility.yul\":14596:14625   */\n      tag_205\n      jump\t// in\n    tag_342:\n        /* \"#utility.yul\":14591:14594   */\n      dup5\n        /* \"#utility.yul\":14587:14626   */\n      add\n        /* \"#utility.yul\":14580:14626   */\n      swap2\n      pop\n        /* \"#utility.yul\":14347:14632   */\n      pop\n        /* \"#utility.yul\":14255:14632   */\n      swap3\n      swap2\n      pop\n      pop\n      jump\t// out\n        /* \"#utility.yul\":14638:14951   */\n    tag_162:\n        /* \"#utility.yul\":14751:14755   */\n      0x00\n        /* \"#utility.yul\":14789:14791   */\n      0x20\n        /* \"#utility.yul\":14778:14787   */\n      dup3\n        /* \"#utility.yul\":14774:14792   */\n      add\n        /* \"#utility.yul\":14766:14792   */\n      swap1\n      pop\n        /* \"#utility.yul\":14838:14847   */\n      dup2\n        /* \"#utility.yul\":14832:14836   */\n      dup2\n        /* \"#utility.yul\":14828:14848   */\n      sub\n        /* \"#utility.yul\":14824:14825   */\n      0x00\n        /* \"#utility.yul\":14813:14822   */\n      dup4\n        /* \"#utility.yul\":14809:14826   */\n      add\n        /* \"#utility.yul\":14802:14849   */\n      mstore\n        /* \"#utility.yul\":14866:14944   */\n      tag_344\n        /* \"#utility.yul\":14939:14943   */\n      dup2\n        /* \"#utility.yul\":14930:14936   */\n      dup5\n        /* \"#utility.yul\":14866:14944   */\n      tag_206\n      jump\t// in\n    tag_344:\n        /* \"#utility.yul\":14858:14944   */\n      swap1\n      pop\n        /* \"#utility.yul\":14638:14951   */\n      swap3\n      swap2\n      pop\n      pop\n      jump\t// out\n\n    auxdata: 0xa2646970667358221220925233c303a213629dfe6087883130e2016c4688609b517f1d7df84bd344eac364736f6c63430008150033\n}\n",
				"bytecode": {
					"linkReferences": {},
					"object": "608060405234801562000010575f80fd5b50604051620014dd380380620014dd833981810160405281019062000036919062000305565b82828260015f819055505f831162000085576040517f08c379a00000000000000000000000000000000000000000000000000000000081526004016200007c90620003bc565b60405180910390fd5b5f73ffffffffffffffffffffffffffffffffffffffff168273ffffffffffffffffffffffffffffffffffffffff1603620000f6576040517f08c379a0000000000000000000000000000000000000000000000000000000008152600401620000ed9062000450565b60405180910390fd5b5f73ffffffffffffffffffffffffffffffffffffffff168173ffffffffffffffffffffffffffffffffffffffff160362000167576040517f08c379a00000000000000000000000000000000000000000000000000000000081526004016200015e90620004e4565b60405180910390fd5b826003819055508160025f6101000a81548173ffffffffffffffffffffffffffffffffffffffff021916908373ffffffffffffffffffffffffffffffffffffffff1602179055508060015f6101000a81548173ffffffffffffffffffffffffffffffffffffffff021916908373ffffffffffffffffffffffffffffffffffffffff1602179055505050505f60055f6101000a81548160ff02191690831515021790555050505062000504565b5f80fd5b5f819050919050565b6200022b8162000217565b811462000236575f80fd5b50565b5f81519050620002498162000220565b92915050565b5f73ffffffffffffffffffffffffffffffffffffffff82169050919050565b5f6200027a826200024f565b9050919050565b6200028c816200026e565b811462000297575f80fd5b50565b5f81519050620002aa8162000281565b92915050565b5f620002bc826200024f565b9050919050565b5f620002cf82620002b0565b9050919050565b620002e181620002c3565b8114620002ec575f80fd5b50565b5f81519050620002ff81620002d6565b92915050565b5f805f606084860312156200031f576200031e62000213565b5b5f6200032e8682870162000239565b935050602062000341868287016200029a565b92505060406200035486828701620002ef565b9150509250925092565b5f82825260208201905092915050565b7f43726f776473616c653a207261746520697320300000000000000000000000005f82015250565b5f620003a46014836200035e565b9150620003b1826200036e565b602082019050919050565b5f6020820190508181035f830152620003d58162000396565b9050919050565b7f43726f776473616c653a2077616c6c657420697320746865207a65726f2061645f8201527f6472657373000000000000000000000000000000000000000000000000000000602082015250565b5f620004386025836200035e565b91506200044582620003dc565b604082019050919050565b5f6020820190508181035f83015262000469816200042a565b9050919050565b7f43726f776473616c653a20746f6b656e20697320746865207a65726f206164645f8201527f7265737300000000000000000000000000000000000000000000000000000000602082015250565b5f620004cc6024836200035e565b9150620004d98262000470565b604082019050919050565b5f6020820190508181035f830152620004fd81620004be565b9050919050565b610fcb80620005125f395ff3fe608060405260043610610058575f3560e01c80632c4e722e146100815780634042b66f146100ab578063521eb273146100d55780635c975abb146100ff578063ec8ac4d814610129578063fc0c546a146101455761006f565b3661006f5761006d61006861016f565b610176565b005b61007f61007a61016f565b610176565b005b34801561008c575f80fd5b50610095610254565b6040516100a29190610872565b60405180910390f35b3480156100b6575f80fd5b506100bf61025d565b6040516100cc9190610872565b60405180910390f35b3480156100e0575f80fd5b506100e9610266565b6040516100f691906108ca565b60405180910390f35b34801561010a575f80fd5b5061011361028e565b60405161012091906108fd565b60405180910390f35b610143600480360381019061013e9190610955565b610176565b005b348015610150575f80fd5b506101596102a3565b60405161016691906109db565b60405180910390f35b5f33905090565b61017e6102cb565b5f34905061018c8282610318565b5f6101968261032e565b90506101ad8260045461034b90919063ffffffff16565b6004819055506101bd8382610360565b8273ffffffffffffffffffffffffffffffffffffffff166101dc61016f565b73ffffffffffffffffffffffffffffffffffffffff167f6faf93231a456e552dbc9961f58d9713ee4f2e69d15f1975b050ef0911053a7b84846040516102239291906109f4565b60405180910390a3610235838361036e565b61023d610372565b61024783836103d9565b50506102516103dd565b50565b5f600354905090565b5f600454905090565b5f60025f9054906101000a900473ffffffffffffffffffffffffffffffffffffffff16905090565b5f60055f9054906101000a900460ff16905090565b5f60015f9054906101000a900473ffffffffffffffffffffffffffffffffffffffff16905090565b60025f540361030f576040517f08c379a000000000000000000000000000000000000000000000000000000000815260040161030690610a75565b60405180910390fd5b60025f81905550565b6103206103e6565b61032a8282610430565b5050565b5f610344600354836104e490919063ffffffff16565b9050919050565b5f81836103589190610ac0565b905092915050565b61036a82826104f9565b5050565b5050565b60025f9054906101000a900473ffffffffffffffffffffffffffffffffffffffff1673ffffffffffffffffffffffffffffffffffffffff166108fc3490811502906040515f60405180830381858888f193505050501580156103d6573d5f803e3d5ffd5b50565b5050565b60015f81905550565b6103ee61028e565b1561042e576040517f08c379a000000000000000000000000000000000000000000000000000000000815260040161042590610b3d565b60405180910390fd5b565b5f73ffffffffffffffffffffffffffffffffffffffff168273ffffffffffffffffffffffffffffffffffffffff160361049e576040517f08c379a000000000000000000000000000000000000000000000000000000000815260040161049590610bcb565b60405180910390fd5b5f81036104e0576040517f08c379a00000000000000000000000000000000000000000000000000000000081526004016104d790610c33565b60405180910390fd5b5050565b5f81836104f19190610c51565b905092915050565b610545828260015f9054906101000a900473ffffffffffffffffffffffffffffffffffffffff1673ffffffffffffffffffffffffffffffffffffffff166105499092919063ffffffff16565b5050565b6105ca8363a9059cbb60e01b8484604051602401610568929190610ca1565b604051602081830303815290604052907bffffffffffffffffffffffffffffffffffffffffffffffffffffffff19166020820180517bffffffffffffffffffffffffffffffffffffffffffffffffffffffff83818316178352505050506105cf565b505050565b5f610630826040518060400160405280602081526020017f5361666545524332303a206c6f772d6c6576656c2063616c6c206661696c65648152508573ffffffffffffffffffffffffffffffffffffffff166106959092919063ffffffff16565b90505f815114806106515750808060200190518101906106509190610cf2565b5b610690576040517f08c379a000000000000000000000000000000000000000000000000000000000815260040161068790610d8d565b60405180910390fd5b505050565b60606106a384845f856106ac565b90509392505050565b6060824710156106f1576040517f08c379a00000000000000000000000000000000000000000000000000000000081526004016106e890610e1b565b60405180910390fd5b5f808673ffffffffffffffffffffffffffffffffffffffff1685876040516107199190610ea5565b5f6040518083038185875af1925050503d805f8114610753576040519150601f19603f3d011682016040523d82523d5f602084013e610758565b606091505b509150915061076987838387610775565b92505050949350505050565b606083156107d6575f8351036107ce5761078e856107e9565b6107cd576040517f08c379a00000000000000000000000000000000000000000000000000000000081526004016107c490610f05565b60405180910390fd5b5b8290506107e1565b6107e0838361080b565b5b949350505050565b5f808273ffffffffffffffffffffffffffffffffffffffff163b119050919050565b5f8251111561081d5781518083602001fd5b806040517f08c379a00000000000000000000000000000000000000000000000000000000081526004016108519190610f75565b60405180910390fd5b5f819050919050565b61086c8161085a565b82525050565b5f6020820190506108855f830184610863565b92915050565b5f73ffffffffffffffffffffffffffffffffffffffff82169050919050565b5f6108b48261088b565b9050919050565b6108c4816108aa565b82525050565b5f6020820190506108dd5f8301846108bb565b92915050565b5f8115159050919050565b6108f7816108e3565b82525050565b5f6020820190506109105f8301846108ee565b92915050565b5f80fd5b5f6109248261088b565b9050919050565b6109348161091a565b811461093e575f80fd5b50565b5f8135905061094f8161092b565b92915050565b5f6020828403121561096a57610969610916565b5b5f61097784828501610941565b91505092915050565b5f819050919050565b5f6109a361099e6109998461088b565b610980565b61088b565b9050919050565b5f6109b482610989565b9050919050565b5f6109c5826109aa565b9050919050565b6109d5816109bb565b82525050565b5f6020820190506109ee5f8301846109cc565b92915050565b5f604082019050610a075f830185610863565b610a146020830184610863565b9392505050565b5f82825260208201905092915050565b7f5265656e7472616e637947756172643a207265656e7472616e742063616c6c005f82015250565b5f610a5f601f83610a1b565b9150610a6a82610a2b565b602082019050919050565b5f6020820190508181035f830152610a8c81610a53565b9050919050565b7f4e487b71000000000000000000000000000000000000000000000000000000005f52601160045260245ffd5b5f610aca8261085a565b9150610ad58361085a565b9250828201905080821115610aed57610aec610a93565b5b92915050565b7f5061757361626c653a20706175736564000000000000000000000000000000005f82015250565b5f610b27601083610a1b565b9150610b3282610af3565b602082019050919050565b5f6020820190508181035f830152610b5481610b1b565b9050919050565b7f43726f776473616c653a2062656e656669636961727920697320746865207a655f8201527f726f206164647265737300000000000000000000000000000000000000000000602082015250565b5f610bb5602a83610a1b565b9150610bc082610b5b565b604082019050919050565b5f6020820190508181035f830152610be281610ba9565b9050919050565b7f43726f776473616c653a20776569416d6f756e742069732030000000000000005f82015250565b5f610c1d601983610a1b565b9150610c2882610be9565b602082019050919050565b5f6020820190508181035f830152610c4a81610c11565b9050919050565b5f610c5b8261085a565b9150610c668361085a565b9250828202610c748161085a565b91508282048414831517610c8b57610c8a610a93565b5b5092915050565b610c9b8161091a565b82525050565b5f604082019050610cb45f830185610c92565b610cc16020830184610863565b9392505050565b610cd1816108e3565b8114610cdb575f80fd5b50565b5f81519050610cec81610cc8565b92915050565b5f60208284031215610d0757610d06610916565b5b5f610d1484828501610cde565b91505092915050565b7f5361666545524332303a204552433230206f7065726174696f6e20646964206e5f8201527f6f74207375636365656400000000000000000000000000000000000000000000602082015250565b5f610d77602a83610a1b565b9150610d8282610d1d565b604082019050919050565b5f6020820190508181035f830152610da481610d6b565b9050919050565b7f416464726573733a20696e73756666696369656e742062616c616e636520666f5f8201527f722063616c6c0000000000000000000000000000000000000000000000000000602082015250565b5f610e05602683610a1b565b9150610e1082610dab565b604082019050919050565b5f6020820190508181035f830152610e3281610df9565b9050919050565b5f81519050919050565b5f81905092915050565b5f5b83811015610e6a578082015181840152602081019050610e4f565b5f8484015250505050565b5f610e7f82610e39565b610e898185610e43565b9350610e99818560208601610e4d565b80840191505092915050565b5f610eb08284610e75565b915081905092915050565b7f416464726573733a2063616c6c20746f206e6f6e2d636f6e74726163740000005f82015250565b5f610eef601d83610a1b565b9150610efa82610ebb565b602082019050919050565b5f6020820190508181035f830152610f1c81610ee3565b9050919050565b5f81519050919050565b5f601f19601f8301169050919050565b5f610f4782610f23565b610f518185610a1b565b9350610f61818560208601610e4d565b610f6a81610f2d565b840191505092915050565b5f6020820190508181035f830152610f8d8184610f3d565b90509291505056fea2646970667358221220925233c303a213629dfe6087883130e2016c4688609b517f1d7df84bd344eac364736f6c63430008150033",
					"opcodes": "PUSH1 0x80 PUSH1 0x40 MSTORE CALLVALUE DUP1 ISZERO PUSH3 0x10 JUMPI PUSH0 DUP1 REVERT JUMPDEST POP PUSH1 0x40 MLOAD PUSH3 0x14DD CODESIZE SUB DUP1 PUSH3 0x14DD DUP4 CODECOPY DUP2 DUP2 ADD PUSH1 0x40 MSTORE DUP2 ADD SWAP1 PUSH3 0x36 SWAP2 SWAP1 PUSH3 0x305 JUMP JUMPDEST DUP3 DUP3 DUP3 PUSH1 0x1 PUSH0 DUP2 SWAP1 SSTORE POP PUSH0 DUP4 GT PUSH3 0x85 JUMPI PUSH1 0x40 MLOAD PUSH32 0x8C379A000000000000000000000000000000000000000000000000000000000 DUP2 MSTORE PUSH1 0x4 ADD PUSH3 0x7C SWAP1 PUSH3 0x3BC JUMP JUMPDEST PUSH1 0x40 MLOAD DUP1 SWAP2 SUB SWAP1 REVERT JUMPDEST PUSH0 PUSH20 0xFFFFFFFFFFFFFFFFFFFFFFFFFFFFFFFFFFFFFFFF AND DUP3 PUSH20 0xFFFFFFFFFFFFFFFFFFFFFFFFFFFFFFFFFFFFFFFF AND SUB PUSH3 0xF6 JUMPI PUSH1 0x40 MLOAD PUSH32 0x8C379A000000000000000000000000000000000000000000000000000000000 DUP2 MSTORE PUSH1 0x4 ADD PUSH3 0xED SWAP1 PUSH3 0x450 JUMP JUMPDEST PUSH1 0x40 MLOAD DUP1 SWAP2 SUB SWAP1 REVERT JUMPDEST PUSH0 PUSH20 0xFFFFFFFFFFFFFFFFFFFFFFFFFFFFFFFFFFFFFFFF AND DUP2 PUSH20 0xFFFFFFFFFFFFFFFFFFFFFFFFFFFFFFFFFFFFFFFF AND SUB PUSH3 0x167 JUMPI PUSH1 0x40 MLOAD PUSH32 0x8C379A000000000000000000000000000000000000000000000000000000000 DUP2 MSTORE PUSH1 0x4 ADD PUSH3 0x15E SWAP1 PUSH3 0x4E4 JUMP JUMPDEST PUSH1 0x40 MLOAD DUP1 SWAP2 SUB SWAP1 REVERT JUMPDEST DUP3 PUSH1 0x3 DUP2 SWAP1 SSTORE POP DUP2 PUSH1 0x2 PUSH0 PUSH2 0x100 EXP DUP2 SLOAD DUP2 PUSH20 0xFFFFFFFFFFFFFFFFFFFFFFFFFFFFFFFFFFFFFFFF MUL NOT AND SWAP1 DUP4 PUSH20 0xFFFFFFFFFFFFFFFFFFFFFFFFFFFFFFFFFFFFFFFF AND MUL OR SWAP1 SSTORE POP DUP1 PUSH1 0x1 PUSH0 PUSH2 0x100 EXP DUP2 SLOAD DUP2 PUSH20 0xFFFFFFFFFFFFFFFFFFFFFFFFFFFFFFFFFFFFFFFF MUL NOT AND SWAP1 DUP4 PUSH20 0xFFFFFFFFFFFFFFFFFFFFFFFFFFFFFFFFFFFFFFFF AND MUL OR SWAP1 SSTORE POP POP POP POP PUSH0 PUSH1 0x5 PUSH0 PUSH2 0x100 EXP DUP2 SLOAD DUP2 PUSH1 0xFF MUL NOT AND SWAP1 DUP4 ISZERO ISZERO MUL OR SWAP1 SSTORE POP POP POP POP PUSH3 0x504 JUMP JUMPDEST PUSH0 DUP1 REVERT JUMPDEST PUSH0 DUP2 SWAP1 POP SWAP2 SWAP1 POP JUMP JUMPDEST PUSH3 0x22B DUP2 PUSH3 0x217 JUMP JUMPDEST DUP2 EQ PUSH3 0x236 JUMPI PUSH0 DUP1 REVERT JUMPDEST POP JUMP JUMPDEST PUSH0 DUP2 MLOAD SWAP1 POP PUSH3 0x249 DUP2 PUSH3 0x220 JUMP JUMPDEST SWAP3 SWAP2 POP POP JUMP JUMPDEST PUSH0 PUSH20 0xFFFFFFFFFFFFFFFFFFFFFFFFFFFFFFFFFFFFFFFF DUP3 AND SWAP1 POP SWAP2 SWAP1 POP JUMP JUMPDEST PUSH0 PUSH3 0x27A DUP3 PUSH3 0x24F JUMP JUMPDEST SWAP1 POP SWAP2 SWAP1 POP JUMP JUMPDEST PUSH3 0x28C DUP2 PUSH3 0x26E JUMP JUMPDEST DUP2 EQ PUSH3 0x297 JUMPI PUSH0 DUP1 REVERT JUMPDEST POP JUMP JUMPDEST PUSH0 DUP2 MLOAD SWAP1 POP PUSH3 0x2AA DUP2 PUSH3 0x281 JUMP JUMPDEST SWAP3 SWAP2 POP POP JUMP JUMPDEST PUSH0 PUSH3 0x2BC DUP3 PUSH3 0x24F JUMP JUMPDEST SWAP1 POP SWAP2 SWAP1 POP JUMP JUMPDEST PUSH0 PUSH3 0x2CF DUP3 PUSH3 0x2B0 JUMP JUMPDEST SWAP1 POP SWAP2 SWAP1 POP JUMP JUMPDEST PUSH3 0x2E1 DUP2 PUSH3 0x2C3 JUMP JUMPDEST DUP2 EQ PUSH3 0x2EC JUMPI PUSH0 DUP1 REVERT JUMPDEST POP JUMP JUMPDEST PUSH0 DUP2 MLOAD SWAP1 POP PUSH3 0x2FF DUP2 PUSH3 0x2D6 JUMP JUMPDEST SWAP3 SWAP2 POP POP JUMP JUMPDEST PUSH0 DUP1 PUSH0 PUSH1 0x60 DUP5 DUP7 SUB SLT ISZERO PUSH3 0x31F JUMPI PUSH3 0x31E PUSH3 0x213 JUMP JUMPDEST JUMPDEST PUSH0 PUSH3 0x32E DUP7 DUP3 DUP8 ADD PUSH3 0x239 JUMP JUMPDEST SWAP4 POP POP PUSH1 0x20 PUSH3 0x341 DUP7 DUP3 DUP8 ADD PUSH3 0x29A JUMP JUMPDEST SWAP3 POP POP PUSH1 0x40 PUSH3 0x354 DUP7 DUP3 DUP8 ADD PUSH3 0x2EF JUMP JUMPDEST SWAP2 POP POP SWAP3 POP SWAP3 POP SWAP3 JUMP JUMPDEST PUSH0 DUP3 DUP3 MSTORE PUSH1 0x20 DUP3 ADD SWAP1 POP SWAP3 SWAP2 POP POP JUMP JUMPDEST PUSH32 0x43726F776473616C653A20726174652069732030000000000000000000000000 PUSH0 DUP3 ADD MSTORE POP JUMP JUMPDEST PUSH0 PUSH3 0x3A4 PUSH1 0x14 DUP4 PUSH3 0x35E JUMP JUMPDEST SWAP2 POP PUSH3 0x3B1 DUP3 PUSH3 0x36E JUMP JUMPDEST PUSH1 0x20 DUP3 ADD SWAP1 POP SWAP2 SWAP1 POP JUMP JUMPDEST PUSH0 PUSH1 0x20 DUP3 ADD SWAP1 POP DUP2 DUP2 SUB PUSH0 DUP4 ADD MSTORE PUSH3 0x3D5 DUP2 PUSH3 0x396 JUMP JUMPDEST SWAP1 POP SWAP2 SWAP1 POP JUMP JUMPDEST PUSH32 0x43726F776473616C653A2077616C6C657420697320746865207A65726F206164 PUSH0 DUP3 ADD MSTORE PUSH32 0x6472657373000000000000000000000000000000000000000000000000000000 PUSH1 0x20 DUP3 ADD MSTORE POP JUMP JUMPDEST PUSH0 PUSH3 0x438 PUSH1 0x25 DUP4 PUSH3 0x35E JUMP JUMPDEST SWAP2 POP PUSH3 0x445 DUP3 PUSH3 0x3DC JUMP JUMPDEST PUSH1 0x40 DUP3 ADD SWAP1 POP SWAP2 SWAP1 POP JUMP JUMPDEST PUSH0 PUSH1 0x20 DUP3 ADD SWAP1 POP DUP2 DUP2 SUB PUSH0 DUP4 ADD MSTORE PUSH3 0x469 DUP2 PUSH3 0x42A JUMP JUMPDEST SWAP1 POP SWAP2 SWAP1 POP JUMP JUMPDEST PUSH32 0x43726F776473616C653A20746F6B656E20697320746865207A65726F20616464 PUSH0 DUP3 ADD MSTORE PUSH32 0x7265737300000000000000000000000000000000000000000000000000000000 PUSH1 0x20 DUP3 ADD MSTORE POP JUMP JUMPDEST PUSH0 PUSH3 0x4CC PUSH1 0x24 DUP4 PUSH3 0x35E JUMP JUMPDEST SWAP2 POP PUSH3 0x4D9 DUP3 PUSH3 0x470 JUMP JUMPDEST PUSH1 0x40 DUP3 ADD SWAP1 POP SWAP2 SWAP1 POP JUMP JUMPDEST PUSH0 PUSH1 0x20 DUP3 ADD SWAP1 POP DUP2 DUP2 SUB PUSH0 DUP4 ADD MSTORE PUSH3 0x4FD DUP2 PUSH3 0x4BE JUMP JUMPDEST SWAP1 POP SWAP2 SWAP1 POP JUMP JUMPDEST PUSH2 0xFCB DUP1 PUSH3 0x512 PUSH0 CODECOPY PUSH0 RETURN INVALID PUSH1 0x80 PUSH1 0x40 MSTORE PUSH1 0x4 CALLDATASIZE LT PUSH2 0x58 JUMPI PUSH0 CALLDATALOAD PUSH1 0xE0 SHR DUP1 PUSH4 0x2C4E722E EQ PUSH2 0x81 JUMPI DUP1 PUSH4 0x4042B66F EQ PUSH2 0xAB JUMPI DUP1 PUSH4 0x521EB273 EQ PUSH2 0xD5 JUMPI DUP1 PUSH4 0x5C975ABB EQ PUSH2 0xFF JUMPI DUP1 PUSH4 0xEC8AC4D8 EQ PUSH2 0x129 JUMPI DUP1 PUSH4 0xFC0C546A EQ PUSH2 0x145 JUMPI PUSH2 0x6F JUMP JUMPDEST CALLDATASIZE PUSH2 0x6F JUMPI PUSH2 0x6D PUSH2 0x68 PUSH2 0x16F JUMP JUMPDEST PUSH2 0x176 JUMP JUMPDEST STOP JUMPDEST PUSH2 0x7F PUSH2 0x7A PUSH2 0x16F JUMP JUMPDEST PUSH2 0x176 JUMP JUMPDEST STOP JUMPDEST CALLVALUE DUP1 ISZERO PUSH2 0x8C JUMPI PUSH0 DUP1 REVERT JUMPDEST POP PUSH2 0x95 PUSH2 0x254 JUMP JUMPDEST PUSH1 0x40 MLOAD PUSH2 0xA2 SWAP2 SWAP1 PUSH2 0x872 JUMP JUMPDEST PUSH1 0x40 MLOAD DUP1 SWAP2 SUB SWAP1 RETURN JUMPDEST CALLVALUE DUP1 ISZERO PUSH2 0xB6 JUMPI PUSH0 DUP1 REVERT JUMPDEST POP PUSH2 0xBF PUSH2 0x25D JUMP JUMPDEST PUSH1 0x40 MLOAD PUSH2 0xCC SWAP2 SWAP1 PUSH2 0x872 JUMP JUMPDEST PUSH1 0x40 MLOAD DUP1 SWAP2 SUB SWAP1 RETURN JUMPDEST CALLVALUE DUP1 ISZERO PUSH2 0xE0 JUMPI PUSH0 DUP1 REVERT JUMPDEST POP PUSH2 0xE9 PUSH2 0x266 JUMP JUMPDEST PUSH1 0x40 MLOAD PUSH2 0xF6 SWAP2 SWAP1 PUSH2 0x8CA JUMP JUMPDEST PUSH1 0x40 MLOAD DUP1 SWAP2 SUB SWAP1 RETURN JUMPDEST CALLVALUE DUP1 ISZERO PUSH2 0x10A JUMPI PUSH0 DUP1 REVERT JUMPDEST POP PUSH2 0x113 PUSH2 0x28E JUMP JUMPDEST PUSH1 0x40 MLOAD PUSH2 0x120 SWAP2 SWAP1 PUSH2 0x8FD JUMP JUMPDEST PUSH1 0x40 MLOAD DUP1 SWAP2 SUB SWAP1 RETURN JUMPDEST PUSH2 0x143 PUSH1 0x4 DUP1 CALLDATASIZE SUB DUP2 ADD SWAP1 PUSH2 0x13E SWAP2 SWAP1 PUSH2 0x955 JUMP JUMPDEST PUSH2 0x176 JUMP JUMPDEST STOP JUMPDEST CALLVALUE DUP1 ISZERO PUSH2 0x150 JUMPI PUSH0 DUP1 REVERT JUMPDEST POP PUSH2 0x159 PUSH2 0x2A3 JUMP JUMPDEST PUSH1 0x40 MLOAD PUSH2 0x166 SWAP2 SWAP1 PUSH2 0x9DB JUMP JUMPDEST PUSH1 0x40 MLOAD DUP1 SWAP2 SUB SWAP1 RETURN JUMPDEST PUSH0 CALLER SWAP1 POP SWAP1 JUMP JUMPDEST PUSH2 0x17E PUSH2 0x2CB JUMP JUMPDEST PUSH0 CALLVALUE SWAP1 POP PUSH2 0x18C DUP3 DUP3 PUSH2 0x318 JUMP JUMPDEST PUSH0 PUSH2 0x196 DUP3 PUSH2 0x32E JUMP JUMPDEST SWAP1 POP PUSH2 0x1AD DUP3 PUSH1 0x4 SLOAD PUSH2 0x34B SWAP1 SWAP2 SWAP1 PUSH4 0xFFFFFFFF AND JUMP JUMPDEST PUSH1 0x4 DUP2 SWAP1 SSTORE POP PUSH2 0x1BD DUP4 DUP3 PUSH2 0x360 JUMP JUMPDEST DUP3 PUSH20 0xFFFFFFFFFFFFFFFFFFFFFFFFFFFFFFFFFFFFFFFF AND PUSH2 0x1DC PUSH2 0x16F JUMP JUMPDEST PUSH20 0xFFFFFFFFFFFFFFFFFFFFFFFFFFFFFFFFFFFFFFFF AND PUSH32 0x6FAF93231A456E552DBC9961F58D9713EE4F2E69D15F1975B050EF0911053A7B DUP5 DUP5 PUSH1 0x40 MLOAD PUSH2 0x223 SWAP3 SWAP2 SWAP1 PUSH2 0x9F4 JUMP JUMPDEST PUSH1 0x40 MLOAD DUP1 SWAP2 SUB SWAP1 LOG3 PUSH2 0x235 DUP4 DUP4 PUSH2 0x36E JUMP JUMPDEST PUSH2 0x23D PUSH2 0x372 JUMP JUMPDEST PUSH2 0x247 DUP4 DUP4 PUSH2 0x3D9 JUMP JUMPDEST POP POP PUSH2 0x251 PUSH2 0x3DD JUMP JUMPDEST POP JUMP JUMPDEST PUSH0 PUSH1 0x3 SLOAD SWAP1 POP SWAP1 JUMP JUMPDEST PUSH0 PUSH1 0x4 SLOAD SWAP1 POP SWAP1 JUMP JUMPDEST PUSH0 PUSH1 0x2 PUSH0 SWAP1 SLOAD SWAP1 PUSH2 0x100 EXP SWAP1 DIV PUSH20 0xFFFFFFFFFFFFFFFFFFFFFFFFFFFFFFFFFFFFFFFF AND SWAP1 POP SWAP1 JUMP JUMPDEST PUSH0 PUSH1 0x5 PUSH0 SWAP1 SLOAD SWAP1 PUSH2 0x100 EXP SWAP1 DIV PUSH1 0xFF AND SWAP1 POP SWAP1 JUMP JUMPDEST PUSH0 PUSH1 0x1 PUSH0 SWAP1 SLOAD SWAP1 PUSH2 0x100 EXP SWAP1 DIV PUSH20 0xFFFFFFFFFFFFFFFFFFFFFFFFFFFFFFFFFFFFFFFF AND SWAP1 POP SWAP1 JUMP JUMPDEST PUSH1 0x2 PUSH0 SLOAD SUB PUSH2 0x30F JUMPI PUSH1 0x40 MLOAD PUSH32 0x8C379A000000000000000000000000000000000000000000000000000000000 DUP2 MSTORE PUSH1 0x4 ADD PUSH2 0x306 SWAP1 PUSH2 0xA75 JUMP JUMPDEST PUSH1 0x40 MLOAD DUP1 SWAP2 SUB SWAP1 REVERT JUMPDEST PUSH1 0x2 PUSH0 DUP2 SWAP1 SSTORE POP JUMP JUMPDEST PUSH2 0x320 PUSH2 0x3E6 JUMP JUMPDEST PUSH2 0x32A DUP3 DUP3 PUSH2 0x430 JUMP JUMPDEST POP POP JUMP JUMPDEST PUSH0 PUSH2 0x344 PUSH1 0x3 SLOAD DUP4 PUSH2 0x4E4 SWAP1 SWAP2 SWAP1 PUSH4 0xFFFFFFFF AND JUMP JUMPDEST SWAP1 POP SWAP2 SWAP1 POP JUMP JUMPDEST PUSH0 DUP2 DUP4 PUSH2 0x358 SWAP2 SWAP1 PUSH2 0xAC0 JUMP JUMPDEST SWAP1 POP SWAP3 SWAP2 POP POP JUMP JUMPDEST PUSH2 0x36A DUP3 DUP3 PUSH2 0x4F9 JUMP JUMPDEST POP POP JUMP JUMPDEST POP POP JUMP JUMPDEST PUSH1 0x2 PUSH0 SWAP1 SLOAD SWAP1 PUSH2 0x100 EXP SWAP1 DIV PUSH20 0xFFFFFFFFFFFFFFFFFFFFFFFFFFFFFFFFFFFFFFFF AND PUSH20 0xFFFFFFFFFFFFFFFFFFFFFFFFFFFFFFFFFFFFFFFF AND PUSH2 0x8FC CALLVALUE SWAP1 DUP2 ISZERO MUL SWAP1 PUSH1 0x40 MLOAD PUSH0 PUSH1 0x40 MLOAD DUP1 DUP4 SUB DUP2 DUP6 DUP9 DUP9 CALL SWAP4 POP POP POP POP ISZERO DUP1 ISZERO PUSH2 0x3D6 JUMPI RETURNDATASIZE PUSH0 DUP1 RETURNDATACOPY RETURNDATASIZE PUSH0 REVERT JUMPDEST POP JUMP JUMPDEST POP POP JUMP JUMPDEST PUSH1 0x1 PUSH0 DUP2 SWAP1 SSTORE POP JUMP JUMPDEST PUSH2 0x3EE PUSH2 0x28E JUMP JUMPDEST ISZERO PUSH2 0x42E JUMPI PUSH1 0x40 MLOAD PUSH32 0x8C379A000000000000000000000000000000000000000000000000000000000 DUP2 MSTORE PUSH1 0x4 ADD PUSH2 0x425 SWAP1 PUSH2 0xB3D JUMP JUMPDEST PUSH1 0x40 MLOAD DUP1 SWAP2 SUB SWAP1 REVERT JUMPDEST JUMP JUMPDEST PUSH0 PUSH20 0xFFFFFFFFFFFFFFFFFFFFFFFFFFFFFFFFFFFFFFFF AND DUP3 PUSH20 0xFFFFFFFFFFFFFFFFFFFFFFFFFFFFFFFFFFFFFFFF AND SUB PUSH2 0x49E JUMPI PUSH1 0x40 MLOAD PUSH32 0x8C379A000000000000000000000000000000000000000000000000000000000 DUP2 MSTORE PUSH1 0x4 ADD PUSH2 0x495 SWAP1 PUSH2 0xBCB JUMP JUMPDEST PUSH1 0x40 MLOAD DUP1 SWAP2 SUB SWAP1 REVERT JUMPDEST PUSH0 DUP2 SUB PUSH2 0x4E0 JUMPI PUSH1 0x40 MLOAD PUSH32 0x8C379A000000000000000000000000000000000000000000000000000000000 DUP2 MSTORE PUSH1 0x4 ADD PUSH2 0x4D7 SWAP1 PUSH2 0xC33 JUMP JUMPDEST PUSH1 0x40 MLOAD DUP1 SWAP2 SUB SWAP1 REVERT JUMPDEST POP POP JUMP JUMPDEST PUSH0 DUP2 DUP4 PUSH2 0x4F1 SWAP2 SWAP1 PUSH2 0xC51 JUMP JUMPDEST SWAP1 POP SWAP3 SWAP2 POP POP JUMP JUMPDEST PUSH2 0x545 DUP3 DUP3 PUSH1 0x1 PUSH0 SWAP1 SLOAD SWAP1 PUSH2 0x100 EXP SWAP1 DIV PUSH20 0xFFFFFFFFFFFFFFFFFFFFFFFFFFFFFFFFFFFFFFFF AND PUSH20 0xFFFFFFFFFFFFFFFFFFFFFFFFFFFFFFFFFFFFFFFF AND PUSH2 0x549 SWAP1 SWAP3 SWAP2 SWAP1 PUSH4 0xFFFFFFFF AND JUMP JUMPDEST POP POP JUMP JUMPDEST PUSH2 0x5CA DUP4 PUSH4 0xA9059CBB PUSH1 0xE0 SHL DUP5 DUP5 PUSH1 0x40 MLOAD PUSH1 0x24 ADD PUSH2 0x568 SWAP3 SWAP2 SWAP1 PUSH2 0xCA1 JUMP JUMPDEST PUSH1 0x40 MLOAD PUSH1 0x20 DUP2 DUP4 SUB SUB DUP2 MSTORE SWAP1 PUSH1 0x40 MSTORE SWAP1 PUSH28 0xFFFFFFFFFFFFFFFFFFFFFFFFFFFFFFFFFFFFFFFFFFFFFFFFFFFFFFFF NOT AND PUSH1 0x20 DUP3 ADD DUP1 MLOAD PUSH28 0xFFFFFFFFFFFFFFFFFFFFFFFFFFFFFFFFFFFFFFFFFFFFFFFFFFFFFFFF DUP4 DUP2 DUP4 AND OR DUP4 MSTORE POP POP POP POP PUSH2 0x5CF JUMP JUMPDEST POP POP POP JUMP JUMPDEST PUSH0 PUSH2 0x630 DUP3 PUSH1 0x40 MLOAD DUP1 PUSH1 0x40 ADD PUSH1 0x40 MSTORE DUP1 PUSH1 0x20 DUP2 MSTORE PUSH1 0x20 ADD PUSH32 0x5361666545524332303A206C6F772D6C6576656C2063616C6C206661696C6564 DUP2 MSTORE POP DUP6 PUSH20 0xFFFFFFFFFFFFFFFFFFFFFFFFFFFFFFFFFFFFFFFF AND PUSH2 0x695 SWAP1 SWAP3 SWAP2 SWAP1 PUSH4 0xFFFFFFFF AND JUMP JUMPDEST SWAP1 POP PUSH0 DUP2 MLOAD EQ DUP1 PUSH2 0x651 JUMPI POP DUP1 DUP1 PUSH1 0x20 ADD SWAP1 MLOAD DUP2 ADD SWAP1 PUSH2 0x650 SWAP2 SWAP1 PUSH2 0xCF2 JUMP JUMPDEST JUMPDEST PUSH2 0x690 JUMPI PUSH1 0x40 MLOAD PUSH32 0x8C379A000000000000000000000000000000000000000000000000000000000 DUP2 MSTORE PUSH1 0x4 ADD PUSH2 0x687 SWAP1 PUSH2 0xD8D JUMP JUMPDEST PUSH1 0x40 MLOAD DUP1 SWAP2 SUB SWAP1 REVERT JUMPDEST POP POP POP JUMP JUMPDEST PUSH1 0x60 PUSH2 0x6A3 DUP5 DUP5 PUSH0 DUP6 PUSH2 0x6AC JUMP JUMPDEST SWAP1 POP SWAP4 SWAP3 POP POP POP JUMP JUMPDEST PUSH1 0x60 DUP3 SELFBALANCE LT ISZERO PUSH2 0x6F1 JUMPI PUSH1 0x40 MLOAD PUSH32 0x8C379A000000000000000000000000000000000000000000000000000000000 DUP2 MSTORE PUSH1 0x4 ADD PUSH2 0x6E8 SWAP1 PUSH2 0xE1B JUMP JUMPDEST PUSH1 0x40 MLOAD DUP1 SWAP2 SUB SWAP1 REVERT JUMPDEST PUSH0 DUP1 DUP7 PUSH20 0xFFFFFFFFFFFFFFFFFFFFFFFFFFFFFFFFFFFFFFFF AND DUP6 DUP8 PUSH1 0x40 MLOAD PUSH2 0x719 SWAP2 SWAP1 PUSH2 0xEA5 JUMP JUMPDEST PUSH0 PUSH1 0x40 MLOAD DUP1 DUP4 SUB DUP2 DUP6 DUP8 GAS CALL SWAP3 POP POP POP RETURNDATASIZE DUP1 PUSH0 DUP2 EQ PUSH2 0x753 JUMPI PUSH1 0x40 MLOAD SWAP2 POP PUSH1 0x1F NOT PUSH1 0x3F RETURNDATASIZE ADD AND DUP3 ADD PUSH1 0x40 MSTORE RETURNDATASIZE DUP3 MSTORE RETURNDATASIZE PUSH0 PUSH1 0x20 DUP5 ADD RETURNDATACOPY PUSH2 0x758 JUMP JUMPDEST PUSH1 0x60 SWAP2 POP JUMPDEST POP SWAP2 POP SWAP2 POP PUSH2 0x769 DUP8 DUP4 DUP4 DUP8 PUSH2 0x775 JUMP JUMPDEST SWAP3 POP POP POP SWAP5 SWAP4 POP POP POP POP JUMP JUMPDEST PUSH1 0x60 DUP4 ISZERO PUSH2 0x7D6 JUMPI PUSH0 DUP4 MLOAD SUB PUSH2 0x7CE JUMPI PUSH2 0x78E DUP6 PUSH2 0x7E9 JUMP JUMPDEST PUSH2 0x7CD JUMPI PUSH1 0x40 MLOAD PUSH32 0x8C379A000000000000000000000000000000000000000000000000000000000 DUP2 MSTORE PUSH1 0x4 ADD PUSH2 0x7C4 SWAP1 PUSH2 0xF05 JUMP JUMPDEST PUSH1 0x40 MLOAD DUP1 SWAP2 SUB SWAP1 REVERT JUMPDEST JUMPDEST DUP3 SWAP1 POP PUSH2 0x7E1 JUMP JUMPDEST PUSH2 0x7E0 DUP4 DUP4 PUSH2 0x80B JUMP JUMPDEST JUMPDEST SWAP5 SWAP4 POP POP POP POP JUMP JUMPDEST PUSH0 DUP1 DUP3 PUSH20 0xFFFFFFFFFFFFFFFFFFFFFFFFFFFFFFFFFFFFFFFF AND EXTCODESIZE GT SWAP1 POP SWAP2 SWAP1 POP JUMP JUMPDEST PUSH0 DUP3 MLOAD GT ISZERO PUSH2 0x81D JUMPI DUP2 MLOAD DUP1 DUP4 PUSH1 0x20 ADD REVERT JUMPDEST DUP1 PUSH1 0x40 MLOAD PUSH32 0x8C379A000000000000000000000000000000000000000000000000000000000 DUP2 MSTORE PUSH1 0x4 ADD PUSH2 0x851 SWAP2 SWAP1 PUSH2 0xF75 JUMP JUMPDEST PUSH1 0x40 MLOAD DUP1 SWAP2 SUB SWAP1 REVERT JUMPDEST PUSH0 DUP2 SWAP1 POP SWAP2 SWAP1 POP JUMP JUMPDEST PUSH2 0x86C DUP2 PUSH2 0x85A JUMP JUMPDEST DUP3 MSTORE POP POP JUMP JUMPDEST PUSH0 PUSH1 0x20 DUP3 ADD SWAP1 POP PUSH2 0x885 PUSH0 DUP4 ADD DUP5 PUSH2 0x863 JUMP JUMPDEST SWAP3 SWAP2 POP POP JUMP JUMPDEST PUSH0 PUSH20 0xFFFFFFFFFFFFFFFFFFFFFFFFFFFFFFFFFFFFFFFF DUP3 AND SWAP1 POP SWAP2 SWAP1 POP JUMP JUMPDEST PUSH0 PUSH2 0x8B4 DUP3 PUSH2 0x88B JUMP JUMPDEST SWAP1 POP SWAP2 SWAP1 POP JUMP JUMPDEST PUSH2 0x8C4 DUP2 PUSH2 0x8AA JUMP JUMPDEST DUP3 MSTORE POP POP JUMP JUMPDEST PUSH0 PUSH1 0x20 DUP3 ADD SWAP1 POP PUSH2 0x8DD PUSH0 DUP4 ADD DUP5 PUSH2 0x8BB JUMP JUMPDEST SWAP3 SWAP2 POP POP JUMP JUMPDEST PUSH0 DUP2 ISZERO ISZERO SWAP1 POP SWAP2 SWAP1 POP JUMP JUMPDEST PUSH2 0x8F7 DUP2 PUSH2 0x8E3 JUMP JUMPDEST DUP3 MSTORE POP POP JUMP JUMPDEST PUSH0 PUSH1 0x20 DUP3 ADD SWAP1 POP PUSH2 0x910 PUSH0 DUP4 ADD DUP5 PUSH2 0x8EE JUMP JUMPDEST SWAP3 SWAP2 POP POP JUMP JUMPDEST PUSH0 DUP1 REVERT JUMPDEST PUSH0 PUSH2 0x924 DUP3 PUSH2 0x88B JUMP JUMPDEST SWAP1 POP SWAP2 SWAP1 POP JUMP JUMPDEST PUSH2 0x934 DUP2 PUSH2 0x91A JUMP JUMPDEST DUP2 EQ PUSH2 0x93E JUMPI PUSH0 DUP1 REVERT JUMPDEST POP JUMP JUMPDEST PUSH0 DUP2 CALLDATALOAD SWAP1 POP PUSH2 0x94F DUP2 PUSH2 0x92B JUMP JUMPDEST SWAP3 SWAP2 POP POP JUMP JUMPDEST PUSH0 PUSH1 0x20 DUP3 DUP5 SUB SLT ISZERO PUSH2 0x96A JUMPI PUSH2 0x969 PUSH2 0x916 JUMP JUMPDEST JUMPDEST PUSH0 PUSH2 0x977 DUP5 DUP3 DUP6 ADD PUSH2 0x941 JUMP JUMPDEST SWAP2 POP POP SWAP3 SWAP2 POP POP JUMP JUMPDEST PUSH0 DUP2 SWAP1 POP SWAP2 SWAP1 POP JUMP JUMPDEST PUSH0 PUSH2 0x9A3 PUSH2 0x99E PUSH2 0x999 DUP5 PUSH2 0x88B JUMP JUMPDEST PUSH2 0x980 JUMP JUMPDEST PUSH2 0x88B JUMP JUMPDEST SWAP1 POP SWAP2 SWAP1 POP JUMP JUMPDEST PUSH0 PUSH2 0x9B4 DUP3 PUSH2 0x989 JUMP JUMPDEST SWAP1 POP SWAP2 SWAP1 POP JUMP JUMPDEST PUSH0 PUSH2 0x9C5 DUP3 PUSH2 0x9AA JUMP JUMPDEST SWAP1 POP SWAP2 SWAP1 POP JUMP JUMPDEST PUSH2 0x9D5 DUP2 PUSH2 0x9BB JUMP JUMPDEST DUP3 MSTORE POP POP JUMP JUMPDEST PUSH0 PUSH1 0x20 DUP3 ADD SWAP1 POP PUSH2 0x9EE PUSH0 DUP4 ADD DUP5 PUSH2 0x9CC JUMP JUMPDEST SWAP3 SWAP2 POP POP JUMP JUMPDEST PUSH0 PUSH1 0x40 DUP3 ADD SWAP1 POP PUSH2 0xA07 PUSH0 DUP4 ADD DUP6 PUSH2 0x863 JUMP JUMPDEST PUSH2 0xA14 PUSH1 0x20 DUP4 ADD DUP5 PUSH2 0x863 JUMP JUMPDEST SWAP4 SWAP3 POP POP POP JUMP JUMPDEST PUSH0 DUP3 DUP3 MSTORE PUSH1 0x20 DUP3 ADD SWAP1 POP SWAP3 SWAP2 POP POP JUMP JUMPDEST PUSH32 0x5265656E7472616E637947756172643A207265656E7472616E742063616C6C00 PUSH0 DUP3 ADD MSTORE POP JUMP JUMPDEST PUSH0 PUSH2 0xA5F PUSH1 0x1F DUP4 PUSH2 0xA1B JUMP JUMPDEST SWAP2 POP PUSH2 0xA6A DUP3 PUSH2 0xA2B JUMP JUMPDEST PUSH1 0x20 DUP3 ADD SWAP1 POP SWAP2 SWAP1 POP JUMP JUMPDEST PUSH0 PUSH1 0x20 DUP3 ADD SWAP1 POP DUP2 DUP2 SUB PUSH0 DUP4 ADD MSTORE PUSH2 0xA8C DUP2 PUSH2 0xA53 JUMP JUMPDEST SWAP1 POP SWAP2 SWAP1 POP JUMP JUMPDEST PUSH32 0x4E487B7100000000000000000000000000000000000000000000000000000000 PUSH0 MSTORE PUSH1 0x11 PUSH1 0x4 MSTORE PUSH1 0x24 PUSH0 REVERT JUMPDEST PUSH0 PUSH2 0xACA DUP3 PUSH2 0x85A JUMP JUMPDEST SWAP2 POP PUSH2 0xAD5 DUP4 PUSH2 0x85A JUMP JUMPDEST SWAP3 POP DUP3 DUP3 ADD SWAP1 POP DUP1 DUP3 GT ISZERO PUSH2 0xAED JUMPI PUSH2 0xAEC PUSH2 0xA93 JUMP JUMPDEST JUMPDEST SWAP3 SWAP2 POP POP JUMP JUMPDEST PUSH32 0x5061757361626C653A2070617573656400000000000000000000000000000000 PUSH0 DUP3 ADD MSTORE POP JUMP JUMPDEST PUSH0 PUSH2 0xB27 PUSH1 0x10 DUP4 PUSH2 0xA1B JUMP JUMPDEST SWAP2 POP PUSH2 0xB32 DUP3 PUSH2 0xAF3 JUMP JUMPDEST PUSH1 0x20 DUP3 ADD SWAP1 POP SWAP2 SWAP1 POP JUMP JUMPDEST PUSH0 PUSH1 0x20 DUP3 ADD SWAP1 POP DUP2 DUP2 SUB PUSH0 DUP4 ADD MSTORE PUSH2 0xB54 DUP2 PUSH2 0xB1B JUMP JUMPDEST SWAP1 POP SWAP2 SWAP1 POP JUMP JUMPDEST PUSH32 0x43726F776473616C653A2062656E656669636961727920697320746865207A65 PUSH0 DUP3 ADD MSTORE PUSH32 0x726F206164647265737300000000000000000000000000000000000000000000 PUSH1 0x20 DUP3 ADD MSTORE POP JUMP JUMPDEST PUSH0 PUSH2 0xBB5 PUSH1 0x2A DUP4 PUSH2 0xA1B JUMP JUMPDEST SWAP2 POP PUSH2 0xBC0 DUP3 PUSH2 0xB5B JUMP JUMPDEST PUSH1 0x40 DUP3 ADD SWAP1 POP SWAP2 SWAP1 POP JUMP JUMPDEST PUSH0 PUSH1 0x20 DUP3 ADD SWAP1 POP DUP2 DUP2 SUB PUSH0 DUP4 ADD MSTORE PUSH2 0xBE2 DUP2 PUSH2 0xBA9 JUMP JUMPDEST SWAP1 POP SWAP2 SWAP1 POP JUMP JUMPDEST PUSH32 0x43726F776473616C653A20776569416D6F756E74206973203000000000000000 PUSH0 DUP3 ADD MSTORE POP JUMP JUMPDEST PUSH0 PUSH2 0xC1D PUSH1 0x19 DUP4 PUSH2 0xA1B JUMP JUMPDEST SWAP2 POP PUSH2 0xC28 DUP3 PUSH2 0xBE9 JUMP JUMPDEST PUSH1 0x20 DUP3 ADD SWAP1 POP SWAP2 SWAP1 POP JUMP JUMPDEST PUSH0 PUSH1 0x20 DUP3 ADD SWAP1 POP DUP2 DUP2 SUB PUSH0 DUP4 ADD MSTORE PUSH2 0xC4A DUP2 PUSH2 0xC11 JUMP JUMPDEST SWAP1 POP SWAP2 SWAP1 POP JUMP JUMPDEST PUSH0 PUSH2 0xC5B DUP3 PUSH2 0x85A JUMP JUMPDEST SWAP2 POP PUSH2 0xC66 DUP4 PUSH2 0x85A JUMP JUMPDEST SWAP3 POP DUP3 DUP3 MUL PUSH2 0xC74 DUP2 PUSH2 0x85A JUMP JUMPDEST SWAP2 POP DUP3 DUP3 DIV DUP5 EQ DUP4 ISZERO OR PUSH2 0xC8B JUMPI PUSH2 0xC8A PUSH2 0xA93 JUMP JUMPDEST JUMPDEST POP SWAP3 SWAP2 POP POP JUMP JUMPDEST PUSH2 0xC9B DUP2 PUSH2 0x91A JUMP JUMPDEST DUP3 MSTORE POP POP JUMP JUMPDEST PUSH0 PUSH1 0x40 DUP3 ADD SWAP1 POP PUSH2 0xCB4 PUSH0 DUP4 ADD DUP6 PUSH2 0xC92 JUMP JUMPDEST PUSH2 0xCC1 PUSH1 0x20 DUP4 ADD DUP5 PUSH2 0x863 JUMP JUMPDEST SWAP4 SWAP3 POP POP POP JUMP JUMPDEST PUSH2 0xCD1 DUP2 PUSH2 0x8E3 JUMP JUMPDEST DUP2 EQ PUSH2 0xCDB JUMPI PUSH0 DUP1 REVERT JUMPDEST POP JUMP JUMPDEST PUSH0 DUP2 MLOAD SWAP1 POP PUSH2 0xCEC DUP2 PUSH2 0xCC8 JUMP JUMPDEST SWAP3 SWAP2 POP POP JUMP JUMPDEST PUSH0 PUSH1 0x20 DUP3 DUP5 SUB SLT ISZERO PUSH2 0xD07 JUMPI PUSH2 0xD06 PUSH2 0x916 JUMP JUMPDEST JUMPDEST PUSH0 PUSH2 0xD14 DUP5 DUP3 DUP6 ADD PUSH2 0xCDE JUMP JUMPDEST SWAP2 POP POP SWAP3 SWAP2 POP POP JUMP JUMPDEST PUSH32 0x5361666545524332303A204552433230206F7065726174696F6E20646964206E PUSH0 DUP3 ADD MSTORE PUSH32 0x6F74207375636365656400000000000000000000000000000000000000000000 PUSH1 0x20 DUP3 ADD MSTORE POP JUMP JUMPDEST PUSH0 PUSH2 0xD77 PUSH1 0x2A DUP4 PUSH2 0xA1B JUMP JUMPDEST SWAP2 POP PUSH2 0xD82 DUP3 PUSH2 0xD1D JUMP JUMPDEST PUSH1 0x40 DUP3 ADD SWAP1 POP SWAP2 SWAP1 POP JUMP JUMPDEST PUSH0 PUSH1 0x20 DUP3 ADD SWAP1 POP DUP2 DUP2 SUB PUSH0 DUP4 ADD MSTORE PUSH2 0xDA4 DUP2 PUSH2 0xD6B JUMP JUMPDEST SWAP1 POP SWAP2 SWAP1 POP JUMP JUMPDEST PUSH32 0x416464726573733A20696E73756666696369656E742062616C616E636520666F PUSH0 DUP3 ADD MSTORE PUSH32 0x722063616C6C0000000000000000000000000000000000000000000000000000 PUSH1 0x20 DUP3 ADD MSTORE POP JUMP JUMPDEST PUSH0 PUSH2 0xE05 PUSH1 0x26 DUP4 PUSH2 0xA1B JUMP JUMPDEST SWAP2 POP PUSH2 0xE10 DUP3 PUSH2 0xDAB JUMP JUMPDEST PUSH1 0x40 DUP3 ADD SWAP1 POP SWAP2 SWAP1 POP JUMP JUMPDEST PUSH0 PUSH1 0x20 DUP3 ADD SWAP1 POP DUP2 DUP2 SUB PUSH0 DUP4 ADD MSTORE PUSH2 0xE32 DUP2 PUSH2 0xDF9 JUMP JUMPDEST SWAP1 POP SWAP2 SWAP1 POP JUMP JUMPDEST PUSH0 DUP2 MLOAD SWAP1 POP SWAP2 SWAP1 POP JUMP JUMPDEST PUSH0 DUP2 SWAP1 POP SWAP3 SWAP2 POP POP JUMP JUMPDEST PUSH0 JUMPDEST DUP4 DUP2 LT ISZERO PUSH2 0xE6A JUMPI DUP1 DUP3 ADD MLOAD DUP2 DUP5 ADD MSTORE PUSH1 0x20 DUP2 ADD SWAP1 POP PUSH2 0xE4F JUMP JUMPDEST PUSH0 DUP5 DUP5 ADD MSTORE POP POP POP POP JUMP JUMPDEST PUSH0 PUSH2 0xE7F DUP3 PUSH2 0xE39 JUMP JUMPDEST PUSH2 0xE89 DUP2 DUP6 PUSH2 0xE43 JUMP JUMPDEST SWAP4 POP PUSH2 0xE99 DUP2 DUP6 PUSH1 0x20 DUP7 ADD PUSH2 0xE4D JUMP JUMPDEST DUP1 DUP5 ADD SWAP2 POP POP SWAP3 SWAP2 POP POP JUMP JUMPDEST PUSH0 PUSH2 0xEB0 DUP3 DUP5 PUSH2 0xE75 JUMP JUMPDEST SWAP2 POP DUP2 SWAP1 POP SWAP3 SWAP2 POP POP JUMP JUMPDEST PUSH32 0x416464726573733A2063616C6C20746F206E6F6E2D636F6E7472616374000000 PUSH0 DUP3 ADD MSTORE POP JUMP JUMPDEST PUSH0 PUSH2 0xEEF PUSH1 0x1D DUP4 PUSH2 0xA1B JUMP JUMPDEST SWAP2 POP PUSH2 0xEFA DUP3 PUSH2 0xEBB JUMP JUMPDEST PUSH1 0x20 DUP3 ADD SWAP1 POP SWAP2 SWAP1 POP JUMP JUMPDEST PUSH0 PUSH1 0x20 DUP3 ADD SWAP1 POP DUP2 DUP2 SUB PUSH0 DUP4 ADD MSTORE PUSH2 0xF1C DUP2 PUSH2 0xEE3 JUMP JUMPDEST SWAP1 POP SWAP2 SWAP1 POP JUMP JUMPDEST PUSH0 DUP2 MLOAD SWAP1 POP SWAP2 SWAP1 POP JUMP JUMPDEST PUSH0 PUSH1 0x1F NOT PUSH1 0x1F DUP4 ADD AND SWAP1 POP SWAP2 SWAP1 POP JUMP JUMPDEST PUSH0 PUSH2 0xF47 DUP3 PUSH2 0xF23 JUMP JUMPDEST PUSH2 0xF51 DUP2 DUP6 PUSH2 0xA1B JUMP JUMPDEST SWAP4 POP PUSH2 0xF61 DUP2 DUP6 PUSH1 0x20 DUP7 ADD PUSH2 0xE4D JUMP JUMPDEST PUSH2 0xF6A DUP2 PUSH2 0xF2D JUMP JUMPDEST DUP5 ADD SWAP2 POP POP SWAP3 SWAP2 POP POP JUMP JUMPDEST PUSH0 PUSH1 0x20 DUP3 ADD SWAP1 POP DUP2 DUP2 SUB PUSH0 DUP4 ADD MSTORE PUSH2 0xF8D DUP2 DUP5 PUSH2 0xF3D JUMP JUMPDEST SWAP1 POP SWAP3 SWAP2 POP POP JUMP INVALID LOG2 PUSH5 0x6970667358 0x22 SLT KECCAK256 SWAP3 MSTORE CALLER 0xC3 SUB LOG2 SGT PUSH3 0x9DFE60 DUP8 DUP9 BALANCE ADDRESS 0xE2 ADD PUSH13 0x4688609B517F1D7DF84BD344EA 0xC3 PUSH5 0x736F6C6343 STOP ADDMOD ISZERO STOP CALLER "
				},
				"gasEstimates": {
					"creation": {
						"codeDepositCost": "808600",
						"executionCost": "infinite",
						"totalCost": "infinite"
					},
					"external": {
						"": "infinite",
						"buyTokens(address)": "infinite",
						"paused()": "2517",
						"rate()": "2410",
						"token()": "infinite",
						"wallet()": "2537",
						"weiRaised()": "2432"
					},
					"internal": {
						"_preValidatePurchase(address,uint256)": "infinite"
					}
				},
				"methodIdentifiers": {
					"buyTokens(address)": "ec8ac4d8",
					"paused()": "5c975abb",
					"rate()": "2c4e722e",
					"token()": "fc0c546a",
					"wallet()": "521eb273",
					"weiRaised()": "4042b66f"
				}
			},
			"storageLayout": {
				"storage": [
					{
						"astId": 118,
						"contract": "crowdsale/validation/pausableCrowdsale.sol:PausableCrowdsale",
						"label": "_status",
						"offset": 0,
						"slot": "0",
						"type": "t_uint256"
					},
					{
						"astId": 1348,
						"contract": "crowdsale/validation/pausableCrowdsale.sol:PausableCrowdsale",
						"label": "_token",
						"offset": 0,
						"slot": "1",
						"type": "t_contract(IERC20)250"
					},
					{
						"astId": 1350,
						"contract": "crowdsale/validation/pausableCrowdsale.sol:PausableCrowdsale",
						"label": "_wallet",
						"offset": 0,
						"slot": "2",
						"type": "t_address_payable"
					},
					{
						"astId": 1352,
						"contract": "crowdsale/validation/pausableCrowdsale.sol:PausableCrowdsale",
						"label": "_rate",
						"offset": 0,
						"slot": "3",
						"type": "t_uint256"
					},
					{
						"astId": 1354,
						"contract": "crowdsale/validation/pausableCrowdsale.sol:PausableCrowdsale",
						"label": "_weiRaised",
						"offset": 0,
						"slot": "4",
						"type": "t_uint256"
					},
					{
						"astId": 17,
						"contract": "crowdsale/validation/pausableCrowdsale.sol:PausableCrowdsale",
						"label": "_paused",
						"offset": 0,
						"slot": "5",
						"type": "t_bool"
					}
				],
				"types": {
					"t_address_payable": {
						"encoding": "inplace",
						"label": "address payable",
						"numberOfBytes": "20"
					},
					"t_bool": {
						"encoding": "inplace",
						"label": "bool",
						"numberOfBytes": "1"
					},
					"t_contract(IERC20)250": {
						"encoding": "inplace",
						"label": "contract IERC20",
						"numberOfBytes": "20"
					},
					"t_uint256": {
						"encoding": "inplace",
						"label": "uint256",
						"numberOfBytes": "32"
					}
				}
			},
			"userdoc": {
				"events": {
					"TokensPurchased(address,address,uint256,uint256)": {
						"notice": "Event for token purchase logging"
					}
				},
				"kind": "user",
				"methods": {},
				"version": 1
			}
		}
	}
}