{
	"crowdsale/validation/individuallyCappedCrowdsale.sol": {
		"IndividuallyCappedCrowdsale": {
			"abi": [
				{
					"inputs": [
						{
							"internalType": "uint256",
							"name": "inRate",
							"type": "uint256"
						},
						{
							"internalType": "address payable",
							"name": "inWallet",
							"type": "address"
						},
						{
							"internalType": "contract IERC20",
							"name": "inToken",
							"type": "address"
						}
					],
					"stateMutability": "nonpayable",
					"type": "constructor"
				},
				{
					"anonymous": false,
					"inputs": [
						{
							"indexed": true,
							"internalType": "bytes32",
							"name": "role",
							"type": "bytes32"
						},
						{
							"indexed": true,
							"internalType": "bytes32",
							"name": "previousAdminRole",
							"type": "bytes32"
						},
						{
							"indexed": true,
							"internalType": "bytes32",
							"name": "newAdminRole",
							"type": "bytes32"
						}
					],
					"name": "RoleAdminChanged",
					"type": "event"
				},
				{
					"anonymous": false,
					"inputs": [
						{
							"indexed": true,
							"internalType": "bytes32",
							"name": "role",
							"type": "bytes32"
						},
						{
							"indexed": true,
							"internalType": "address",
							"name": "account",
							"type": "address"
						},
						{
							"indexed": true,
							"internalType": "address",
							"name": "sender",
							"type": "address"
						}
					],
					"name": "RoleGranted",
					"type": "event"
				},
				{
					"anonymous": false,
					"inputs": [
						{
							"indexed": true,
							"internalType": "bytes32",
							"name": "role",
							"type": "bytes32"
						},
						{
							"indexed": true,
							"internalType": "address",
							"name": "account",
							"type": "address"
						},
						{
							"indexed": true,
							"internalType": "address",
							"name": "sender",
							"type": "address"
						}
					],
					"name": "RoleRevoked",
					"type": "event"
				},
				{
					"anonymous": false,
					"inputs": [
						{
							"indexed": true,
							"internalType": "address",
							"name": "purchaser",
							"type": "address"
						},
						{
							"indexed": true,
							"internalType": "address",
							"name": "beneficiary",
							"type": "address"
						},
						{
							"indexed": false,
							"internalType": "uint256",
							"name": "value",
							"type": "uint256"
						},
						{
							"indexed": false,
							"internalType": "uint256",
							"name": "amount",
							"type": "uint256"
						}
					],
					"name": "TokensPurchased",
					"type": "event"
				},
				{
					"stateMutability": "payable",
					"type": "fallback"
				},
				{
					"inputs": [],
					"name": "DEFAULT_ADMIN_ROLE",
					"outputs": [
						{
							"internalType": "bytes32",
							"name": "",
							"type": "bytes32"
						}
					],
					"stateMutability": "view",
					"type": "function"
				},
				{
					"inputs": [
						{
							"internalType": "address",
							"name": "beneficiary",
							"type": "address"
						}
					],
					"name": "buyTokens",
					"outputs": [],
					"stateMutability": "payable",
					"type": "function"
				},
				{
					"inputs": [
						{
							"internalType": "address",
							"name": "beneficiary",
							"type": "address"
						}
					],
					"name": "getCap",
					"outputs": [
						{
							"internalType": "uint256",
							"name": "",
							"type": "uint256"
						}
					],
					"stateMutability": "view",
					"type": "function"
				},
				{
					"inputs": [
						{
							"internalType": "address",
							"name": "beneficiary",
							"type": "address"
						}
					],
					"name": "getContribution",
					"outputs": [
						{
							"internalType": "uint256",
							"name": "",
							"type": "uint256"
						}
					],
					"stateMutability": "view",
					"type": "function"
				},
				{
					"inputs": [
						{
							"internalType": "bytes32",
							"name": "role",
							"type": "bytes32"
						}
					],
					"name": "getRoleAdmin",
					"outputs": [
						{
							"internalType": "bytes32",
							"name": "",
							"type": "bytes32"
						}
					],
					"stateMutability": "view",
					"type": "function"
				},
				{
					"inputs": [
						{
							"internalType": "bytes32",
							"name": "role",
							"type": "bytes32"
						},
						{
							"internalType": "address",
							"name": "account",
							"type": "address"
						}
					],
					"name": "grantRole",
					"outputs": [],
					"stateMutability": "nonpayable",
					"type": "function"
				},
				{
					"inputs": [
						{
							"internalType": "bytes32",
							"name": "role",
							"type": "bytes32"
						},
						{
							"internalType": "address",
							"name": "account",
							"type": "address"
						}
					],
					"name": "hasRole",
					"outputs": [
						{
							"internalType": "bool",
							"name": "",
							"type": "bool"
						}
					],
					"stateMutability": "view",
					"type": "function"
				},
				{
					"inputs": [],
					"name": "rate",
					"outputs": [
						{
							"internalType": "uint256",
							"name": "",
							"type": "uint256"
						}
					],
					"stateMutability": "view",
					"type": "function"
				},
				{
					"inputs": [
						{
							"internalType": "bytes32",
							"name": "role",
							"type": "bytes32"
						},
						{
							"internalType": "address",
							"name": "account",
							"type": "address"
						}
					],
					"name": "renounceRole",
					"outputs": [],
					"stateMutability": "nonpayable",
					"type": "function"
				},
				{
					"inputs": [
						{
							"internalType": "bytes32",
							"name": "role",
							"type": "bytes32"
						},
						{
							"internalType": "address",
							"name": "account",
							"type": "address"
						}
					],
					"name": "revokeRole",
					"outputs": [],
					"stateMutability": "nonpayable",
					"type": "function"
				},
				{
					"inputs": [
						{
							"internalType": "address",
							"name": "beneficiary",
							"type": "address"
						},
						{
							"internalType": "uint256",
							"name": "cap",
							"type": "uint256"
						}
					],
					"name": "setCap",
					"outputs": [],
					"stateMutability": "nonpayable",
					"type": "function"
				},
				{
					"inputs": [
						{
							"internalType": "bytes4",
							"name": "interfaceId",
							"type": "bytes4"
						}
					],
					"name": "supportsInterface",
					"outputs": [
						{
							"internalType": "bool",
							"name": "",
							"type": "bool"
						}
					],
					"stateMutability": "view",
					"type": "function"
				},
				{
					"inputs": [],
					"name": "token",
					"outputs": [
						{
							"internalType": "contract IERC20",
							"name": "",
							"type": "address"
						}
					],
					"stateMutability": "view",
					"type": "function"
				},
				{
					"inputs": [],
					"name": "wallet",
					"outputs": [
						{
							"internalType": "address payable",
							"name": "",
							"type": "address"
						}
					],
					"stateMutability": "view",
					"type": "function"
				},
				{
					"inputs": [],
					"name": "weiRaised",
					"outputs": [
						{
							"internalType": "uint256",
							"name": "",
							"type": "uint256"
						}
					],
					"stateMutability": "view",
					"type": "function"
				},
				{
					"stateMutability": "payable",
					"type": "receive"
				}
			],
			"devdoc": {
				"details": "Crowdsale with per-beneficiary caps.",
				"events": {
					"RoleAdminChanged(bytes32,bytes32,bytes32)": {
						"details": "Emitted when `newAdminRole` is set as ``role``'s admin role, replacing `previousAdminRole` `DEFAULT_ADMIN_ROLE` is the starting admin for all roles, despite {RoleAdminChanged} not being emitted signaling this. _Available since v3.1._"
					},
					"RoleGranted(bytes32,address,address)": {
						"details": "Emitted when `account` is granted `role`. `sender` is the account that originated the contract call, an admin role bearer except when using {AccessControl-_setupRole}."
					},
					"RoleRevoked(bytes32,address,address)": {
						"details": "Emitted when `account` is revoked `role`. `sender` is the account that originated the contract call:   - if using `revokeRole`, it is the admin role bearer   - if using `renounceRole`, it is the role bearer (i.e. `account`)"
					},
					"TokensPurchased(address,address,uint256,uint256)": {
						"params": {
							"amount": "amount of tokens purchased",
							"beneficiary": "who got the tokens",
							"purchaser": "who paid for the tokens",
							"value": "weis paid for purchase"
						}
					}
				},
				"kind": "dev",
				"methods": {
					"buyTokens(address)": {
						"details": "low level token purchase ***DO NOT OVERRIDE*** This function has a non-reentrancy guard, so it shouldn't be called by another `nonReentrant` function.",
						"params": {
							"beneficiary": "Recipient of the token purchase"
						}
					},
					"getCap(address)": {
						"details": "Returns the cap of a specific beneficiary.",
						"params": {
							"beneficiary": "Address whose cap is to be checked"
						},
						"returns": {
							"_0": "Current cap for individual beneficiary"
						}
					},
					"getContribution(address)": {
						"details": "Returns the amount contributed so far by a specific beneficiary.",
						"params": {
							"beneficiary": "Address of contributor"
						},
						"returns": {
							"_0": "Beneficiary contribution so far"
						}
					},
					"getRoleAdmin(bytes32)": {
						"details": "Returns the admin role that controls `role`. See {grantRole} and {revokeRole}. To change a role's admin, use {_setRoleAdmin}."
					},
					"grantRole(bytes32,address)": {
						"details": "Grants `role` to `account`. If `account` had not been already granted `role`, emits a {RoleGranted} event. Requirements: - the caller must have ``role``'s admin role. May emit a {RoleGranted} event."
					},
					"hasRole(bytes32,address)": {
						"details": "Returns `true` if `account` has been granted `role`."
					},
					"rate()": {
						"returns": {
							"_0": "the number of token units a buyer gets per wei."
						}
					},
					"renounceRole(bytes32,address)": {
						"details": "Revokes `role` from the calling account. Roles are often managed via {grantRole} and {revokeRole}: this function's purpose is to provide a mechanism for accounts to lose their privileges if they are compromised (such as when a trusted device is misplaced). If the calling account had been revoked `role`, emits a {RoleRevoked} event. Requirements: - the caller must be `account`. May emit a {RoleRevoked} event."
					},
					"revokeRole(bytes32,address)": {
						"details": "Revokes `role` from `account`. If `account` had been granted `role`, emits a {RoleRevoked} event. Requirements: - the caller must have ``role``'s admin role. May emit a {RoleRevoked} event."
					},
					"setCap(address,uint256)": {
						"details": "Sets a specific beneficiary's maximum contribution.",
						"params": {
							"beneficiary": "Address to be capped",
							"cap": "Wei limit for individual contribution"
						}
					},
					"supportsInterface(bytes4)": {
						"details": "See {IERC165-supportsInterface}."
					},
					"token()": {
						"returns": {
							"_0": "the token being sold."
						}
					},
					"wallet()": {
						"returns": {
							"_0": "the address where funds are collected."
						}
					},
					"weiRaised()": {
						"returns": {
							"_0": "the amount of wei raised."
						}
					}
				},
				"title": "IndividuallyCappedCrowdsale",
				"version": 1
			},
			"evm": {
				"assembly": "    /* \"crowdsale/validation/individuallyCappedCrowdsale.sol\":313:2659  contract IndividuallyCappedCrowdsale is Crowdsale, AccessControl {... */\n  mstore(0x40, 0x80)\n    /* \"crowdsale/validation/individuallyCappedCrowdsale.sol\":531:677  constructor (... */\n  callvalue\n  dup1\n  iszero\n  tag_1\n  jumpi\n  0x00\n  dup1\n  revert\ntag_1:\n  pop\n  mload(0x40)\n  sub(codesize, bytecodeSize)\n  dup1\n  bytecodeSize\n  dup4\n  codecopy\n  dup2\n  dup2\n  add\n  0x40\n  mstore\n  dup2\n  add\n  swap1\n  tag_2\n  swap2\n  swap1\n  tag_3\n  jump\t// in\ntag_2:\n    /* \"crowdsale/validation/individuallyCappedCrowdsale.sol\":648:654  inRate */\n  dup3\n    /* \"crowdsale/validation/individuallyCappedCrowdsale.sol\":656:664  inWallet */\n  dup3\n    /* \"crowdsale/validation/individuallyCappedCrowdsale.sol\":666:673  inToken */\n  dup3\n    /* \"@openzeppelin/contracts/security/ReentrancyGuard.sol\":1716:1717  1 */\n  0x01\n    /* \"@openzeppelin/contracts/security/ReentrancyGuard.sol\":1821:1828  _status */\n  0x00\n    /* \"@openzeppelin/contracts/security/ReentrancyGuard.sol\":1821:1843  _status = _NOT_ENTERED */\n  dup2\n  swap1\n  sstore\n  pop\n    /* \"crowdsale/crowdsale.sol\":2644:2645  0 */\n  0x00\n    /* \"crowdsale/crowdsale.sol\":2635:2641  inRate */\n  dup4\n    /* \"crowdsale/crowdsale.sol\":2635:2645  inRate > 0 */\n  gt\n    /* \"crowdsale/crowdsale.sol\":2627:2670  require(inRate > 0, \"Crowdsale: rate is 0\") */\n  tag_9\n  jumpi\n  mload(0x40)\n  0x08c379a000000000000000000000000000000000000000000000000000000000\n  dup2\n  mstore\n  0x04\n  add\n  tag_10\n  swap1\n  tag_11\n  jump\t// in\ntag_10:\n  mload(0x40)\n  dup1\n  swap2\n  sub\n  swap1\n  revert\ntag_9:\n    /* \"crowdsale/crowdsale.sol\":2709:2710  0 */\n  0x00\n    /* \"crowdsale/crowdsale.sol\":2689:2711  inWallet != address(0) */\n  0xffffffffffffffffffffffffffffffffffffffff\n  and\n    /* \"crowdsale/crowdsale.sol\":2689:2697  inWallet */\n  dup3\n    /* \"crowdsale/crowdsale.sol\":2689:2711  inWallet != address(0) */\n  0xffffffffffffffffffffffffffffffffffffffff\n  and\n  sub\n    /* \"crowdsale/crowdsale.sol\":2681:2753  require(inWallet != address(0), \"Crowdsale: wallet is the zero address\") */\n  tag_12\n  jumpi\n  mload(0x40)\n  0x08c379a000000000000000000000000000000000000000000000000000000000\n  dup2\n  mstore\n  0x04\n  add\n  tag_13\n  swap1\n  tag_14\n  jump\t// in\ntag_13:\n  mload(0x40)\n  dup1\n  swap2\n  sub\n  swap1\n  revert\ntag_12:\n    /* \"crowdsale/crowdsale.sol\":2800:2801  0 */\n  0x00\n    /* \"crowdsale/crowdsale.sol\":2772:2802  address(inToken) != address(0) */\n  0xffffffffffffffffffffffffffffffffffffffff\n  and\n    /* \"crowdsale/crowdsale.sol\":2780:2787  inToken */\n  dup2\n    /* \"crowdsale/crowdsale.sol\":2772:2802  address(inToken) != address(0) */\n  0xffffffffffffffffffffffffffffffffffffffff\n  and\n  sub\n    /* \"crowdsale/crowdsale.sol\":2764:2843  require(address(inToken) != address(0), \"Crowdsale: token is the zero address\") */\n  tag_15\n  jumpi\n  mload(0x40)\n  0x08c379a000000000000000000000000000000000000000000000000000000000\n  dup2\n  mstore\n  0x04\n  add\n  tag_16\n  swap1\n  tag_17\n  jump\t// in\ntag_16:\n  mload(0x40)\n  dup1\n  swap2\n  sub\n  swap1\n  revert\ntag_15:\n    /* \"crowdsale/crowdsale.sol\":2864:2870  inRate */\n  dup3\n    /* \"crowdsale/crowdsale.sol\":2856:2861  _rate */\n  0x03\n    /* \"crowdsale/crowdsale.sol\":2856:2870  _rate = inRate */\n  dup2\n  swap1\n  sstore\n  pop\n    /* \"crowdsale/crowdsale.sol\":2891:2899  inWallet */\n  dup2\n    /* \"crowdsale/crowdsale.sol\":2881:2888  _wallet */\n  0x02\n  0x00\n    /* \"crowdsale/crowdsale.sol\":2881:2899  _wallet = inWallet */\n  0x0100\n  exp\n  dup2\n  sload\n  dup2\n  0xffffffffffffffffffffffffffffffffffffffff\n  mul\n  not\n  and\n  swap1\n  dup4\n  0xffffffffffffffffffffffffffffffffffffffff\n  and\n  mul\n  or\n  swap1\n  sstore\n  pop\n    /* \"crowdsale/crowdsale.sol\":2919:2926  inToken */\n  dup1\n    /* \"crowdsale/crowdsale.sol\":2910:2916  _token */\n  0x01\n  0x00\n    /* \"crowdsale/crowdsale.sol\":2910:2926  _token = inToken */\n  0x0100\n  exp\n  dup2\n  sload\n  dup2\n  0xffffffffffffffffffffffffffffffffffffffff\n  mul\n  not\n  and\n  swap1\n  dup4\n  0xffffffffffffffffffffffffffffffffffffffff\n  and\n  mul\n  or\n  swap1\n  sstore\n  pop\n    /* \"crowdsale/crowdsale.sol\":2545:2934  constructor (uint256 inRate, address payable inWallet, IERC20 inToken) {... */\n  pop\n  pop\n  pop\n    /* \"crowdsale/validation/individuallyCappedCrowdsale.sol\":531:677  constructor (... */\n  pop\n  pop\n  pop\n    /* \"crowdsale/validation/individuallyCappedCrowdsale.sol\":313:2659  contract IndividuallyCappedCrowdsale is Crowdsale, AccessControl {... */\n  jump(tag_19)\n    /* \"#utility.yul\":88:205   */\ntag_21:\n    /* \"#utility.yul\":197:198   */\n  0x00\n    /* \"#utility.yul\":194:195   */\n  dup1\n    /* \"#utility.yul\":187:199   */\n  revert\n    /* \"#utility.yul\":334:411   */\ntag_23:\n    /* \"#utility.yul\":371:378   */\n  0x00\n    /* \"#utility.yul\":400:405   */\n  dup2\n    /* \"#utility.yul\":389:405   */\n  swap1\n  pop\n    /* \"#utility.yul\":334:411   */\n  swap2\n  swap1\n  pop\n  jump\t// out\n    /* \"#utility.yul\":417:539   */\ntag_24:\n    /* \"#utility.yul\":490:514   */\n  tag_47\n    /* \"#utility.yul\":508:513   */\n  dup2\n    /* \"#utility.yul\":490:514   */\n  tag_23\n  jump\t// in\ntag_47:\n    /* \"#utility.yul\":483:488   */\n  dup2\n    /* \"#utility.yul\":480:515   */\n  eq\n    /* \"#utility.yul\":470:533   */\n  tag_48\n  jumpi\n    /* \"#utility.yul\":529:530   */\n  0x00\n    /* \"#utility.yul\":526:527   */\n  dup1\n    /* \"#utility.yul\":519:531   */\n  revert\n    /* \"#utility.yul\":470:533   */\ntag_48:\n    /* \"#utility.yul\":417:539   */\n  pop\n  jump\t// out\n    /* \"#utility.yul\":545:688   */\ntag_25:\n    /* \"#utility.yul\":602:607   */\n  0x00\n    /* \"#utility.yul\":633:639   */\n  dup2\n    /* \"#utility.yul\":627:640   */\n  mload\n    /* \"#utility.yul\":618:640   */\n  swap1\n  pop\n    /* \"#utility.yul\":649:682   */\n  tag_50\n    /* \"#utility.yul\":676:681   */\n  dup2\n    /* \"#utility.yul\":649:682   */\n  tag_24\n  jump\t// in\ntag_50:\n    /* \"#utility.yul\":545:688   */\n  swap3\n  swap2\n  pop\n  pop\n  jump\t// out\n    /* \"#utility.yul\":694:820   */\ntag_26:\n    /* \"#utility.yul\":731:738   */\n  0x00\n    /* \"#utility.yul\":771:813   */\n  0xffffffffffffffffffffffffffffffffffffffff\n    /* \"#utility.yul\":764:769   */\n  dup3\n    /* \"#utility.yul\":760:814   */\n  and\n    /* \"#utility.yul\":749:814   */\n  swap1\n  pop\n    /* \"#utility.yul\":694:820   */\n  swap2\n  swap1\n  pop\n  jump\t// out\n    /* \"#utility.yul\":826:930   */\ntag_27:\n    /* \"#utility.yul\":871:878   */\n  0x00\n    /* \"#utility.yul\":900:924   */\n  tag_53\n    /* \"#utility.yul\":918:923   */\n  dup3\n    /* \"#utility.yul\":900:924   */\n  tag_26\n  jump\t// in\ntag_53:\n    /* \"#utility.yul\":889:924   */\n  swap1\n  pop\n    /* \"#utility.yul\":826:930   */\n  swap2\n  swap1\n  pop\n  jump\t// out\n    /* \"#utility.yul\":936:1074   */\ntag_28:\n    /* \"#utility.yul\":1017:1049   */\n  tag_55\n    /* \"#utility.yul\":1043:1048   */\n  dup2\n    /* \"#utility.yul\":1017:1049   */\n  tag_27\n  jump\t// in\ntag_55:\n    /* \"#utility.yul\":1010:1015   */\n  dup2\n    /* \"#utility.yul\":1007:1050   */\n  eq\n    /* \"#utility.yul\":997:1068   */\n  tag_56\n  jumpi\n    /* \"#utility.yul\":1064:1065   */\n  0x00\n    /* \"#utility.yul\":1061:1062   */\n  dup1\n    /* \"#utility.yul\":1054:1066   */\n  revert\n    /* \"#utility.yul\":997:1068   */\ntag_56:\n    /* \"#utility.yul\":936:1074   */\n  pop\n  jump\t// out\n    /* \"#utility.yul\":1080:1239   */\ntag_29:\n    /* \"#utility.yul\":1145:1150   */\n  0x00\n    /* \"#utility.yul\":1176:1182   */\n  dup2\n    /* \"#utility.yul\":1170:1183   */\n  mload\n    /* \"#utility.yul\":1161:1183   */\n  swap1\n  pop\n    /* \"#utility.yul\":1192:1233   */\n  tag_58\n    /* \"#utility.yul\":1227:1232   */\n  dup2\n    /* \"#utility.yul\":1192:1233   */\n  tag_28\n  jump\t// in\ntag_58:\n    /* \"#utility.yul\":1080:1239   */\n  swap3\n  swap2\n  pop\n  pop\n  jump\t// out\n    /* \"#utility.yul\":1245:1341   */\ntag_30:\n    /* \"#utility.yul\":1282:1289   */\n  0x00\n    /* \"#utility.yul\":1311:1335   */\n  tag_60\n    /* \"#utility.yul\":1329:1334   */\n  dup3\n    /* \"#utility.yul\":1311:1335   */\n  tag_26\n  jump\t// in\ntag_60:\n    /* \"#utility.yul\":1300:1335   */\n  swap1\n  pop\n    /* \"#utility.yul\":1245:1341   */\n  swap2\n  swap1\n  pop\n  jump\t// out\n    /* \"#utility.yul\":1347:1457   */\ntag_31:\n    /* \"#utility.yul\":1398:1405   */\n  0x00\n    /* \"#utility.yul\":1427:1451   */\n  tag_62\n    /* \"#utility.yul\":1445:1450   */\n  dup3\n    /* \"#utility.yul\":1427:1451   */\n  tag_30\n  jump\t// in\ntag_62:\n    /* \"#utility.yul\":1416:1451   */\n  swap1\n  pop\n    /* \"#utility.yul\":1347:1457   */\n  swap2\n  swap1\n  pop\n  jump\t// out\n    /* \"#utility.yul\":1463:1613   */\ntag_32:\n    /* \"#utility.yul\":1550:1588   */\n  tag_64\n    /* \"#utility.yul\":1582:1587   */\n  dup2\n    /* \"#utility.yul\":1550:1588   */\n  tag_31\n  jump\t// in\ntag_64:\n    /* \"#utility.yul\":1543:1548   */\n  dup2\n    /* \"#utility.yul\":1540:1589   */\n  eq\n    /* \"#utility.yul\":1530:1607   */\n  tag_65\n  jumpi\n    /* \"#utility.yul\":1603:1604   */\n  0x00\n    /* \"#utility.yul\":1600:1601   */\n  dup1\n    /* \"#utility.yul\":1593:1605   */\n  revert\n    /* \"#utility.yul\":1530:1607   */\ntag_65:\n    /* \"#utility.yul\":1463:1613   */\n  pop\n  jump\t// out\n    /* \"#utility.yul\":1619:1790   */\ntag_33:\n    /* \"#utility.yul\":1690:1695   */\n  0x00\n    /* \"#utility.yul\":1721:1727   */\n  dup2\n    /* \"#utility.yul\":1715:1728   */\n  mload\n    /* \"#utility.yul\":1706:1728   */\n  swap1\n  pop\n    /* \"#utility.yul\":1737:1784   */\n  tag_67\n    /* \"#utility.yul\":1778:1783   */\n  dup2\n    /* \"#utility.yul\":1737:1784   */\n  tag_32\n  jump\t// in\ntag_67:\n    /* \"#utility.yul\":1619:1790   */\n  swap3\n  swap2\n  pop\n  pop\n  jump\t// out\n    /* \"#utility.yul\":1796:2503   */\ntag_3:\n    /* \"#utility.yul\":1906:1912   */\n  0x00\n    /* \"#utility.yul\":1914:1920   */\n  dup1\n    /* \"#utility.yul\":1922:1928   */\n  0x00\n    /* \"#utility.yul\":1971:1973   */\n  0x60\n    /* \"#utility.yul\":1959:1968   */\n  dup5\n    /* \"#utility.yul\":1950:1957   */\n  dup7\n    /* \"#utility.yul\":1946:1969   */\n  sub\n    /* \"#utility.yul\":1942:1974   */\n  slt\n    /* \"#utility.yul\":1939:2058   */\n  iszero\n  tag_69\n  jumpi\n    /* \"#utility.yul\":1977:2056   */\n  tag_70\n  tag_21\n  jump\t// in\ntag_70:\n    /* \"#utility.yul\":1939:2058   */\ntag_69:\n    /* \"#utility.yul\":2097:2098   */\n  0x00\n    /* \"#utility.yul\":2122:2186   */\n  tag_71\n    /* \"#utility.yul\":2178:2185   */\n  dup7\n    /* \"#utility.yul\":2169:2175   */\n  dup3\n    /* \"#utility.yul\":2158:2167   */\n  dup8\n    /* \"#utility.yul\":2154:2176   */\n  add\n    /* \"#utility.yul\":2122:2186   */\n  tag_25\n  jump\t// in\ntag_71:\n    /* \"#utility.yul\":2112:2186   */\n  swap4\n  pop\n    /* \"#utility.yul\":2068:2196   */\n  pop\n    /* \"#utility.yul\":2235:2237   */\n  0x20\n    /* \"#utility.yul\":2261:2333   */\n  tag_72\n    /* \"#utility.yul\":2325:2332   */\n  dup7\n    /* \"#utility.yul\":2316:2322   */\n  dup3\n    /* \"#utility.yul\":2305:2314   */\n  dup8\n    /* \"#utility.yul\":2301:2323   */\n  add\n    /* \"#utility.yul\":2261:2333   */\n  tag_29\n  jump\t// in\ntag_72:\n    /* \"#utility.yul\":2251:2333   */\n  swap3\n  pop\n    /* \"#utility.yul\":2206:2343   */\n  pop\n    /* \"#utility.yul\":2382:2384   */\n  0x40\n    /* \"#utility.yul\":2408:2486   */\n  tag_73\n    /* \"#utility.yul\":2478:2485   */\n  dup7\n    /* \"#utility.yul\":2469:2475   */\n  dup3\n    /* \"#utility.yul\":2458:2467   */\n  dup8\n    /* \"#utility.yul\":2454:2476   */\n  add\n    /* \"#utility.yul\":2408:2486   */\n  tag_33\n  jump\t// in\ntag_73:\n    /* \"#utility.yul\":2398:2486   */\n  swap2\n  pop\n    /* \"#utility.yul\":2353:2496   */\n  pop\n    /* \"#utility.yul\":1796:2503   */\n  swap3\n  pop\n  swap3\n  pop\n  swap3\n  jump\t// out\n    /* \"#utility.yul\":2509:2678   */\ntag_34:\n    /* \"#utility.yul\":2593:2604   */\n  0x00\n    /* \"#utility.yul\":2627:2633   */\n  dup3\n    /* \"#utility.yul\":2622:2625   */\n  dup3\n    /* \"#utility.yul\":2615:2634   */\n  mstore\n    /* \"#utility.yul\":2667:2671   */\n  0x20\n    /* \"#utility.yul\":2662:2665   */\n  dup3\n    /* \"#utility.yul\":2658:2672   */\n  add\n    /* \"#utility.yul\":2643:2672   */\n  swap1\n  pop\n    /* \"#utility.yul\":2509:2678   */\n  swap3\n  swap2\n  pop\n  pop\n  jump\t// out\n    /* \"#utility.yul\":2684:2854   */\ntag_35:\n    /* \"#utility.yul\":2824:2846   */\n  0x43726f776473616c653a20726174652069732030000000000000000000000000\n    /* \"#utility.yul\":2820:2821   */\n  0x00\n    /* \"#utility.yul\":2812:2818   */\n  dup3\n    /* \"#utility.yul\":2808:2822   */\n  add\n    /* \"#utility.yul\":2801:2847   */\n  mstore\n    /* \"#utility.yul\":2684:2854   */\n  pop\n  jump\t// out\n    /* \"#utility.yul\":2860:3226   */\ntag_36:\n    /* \"#utility.yul\":3002:3005   */\n  0x00\n    /* \"#utility.yul\":3023:3090   */\n  tag_77\n    /* \"#utility.yul\":3087:3089   */\n  0x14\n    /* \"#utility.yul\":3082:3085   */\n  dup4\n    /* \"#utility.yul\":3023:3090   */\n  tag_34\n  jump\t// in\ntag_77:\n    /* \"#utility.yul\":3016:3090   */\n  swap2\n  pop\n    /* \"#utility.yul\":3099:3192   */\n  tag_78\n    /* \"#utility.yul\":3188:3191   */\n  dup3\n    /* \"#utility.yul\":3099:3192   */\n  tag_35\n  jump\t// in\ntag_78:\n    /* \"#utility.yul\":3217:3219   */\n  0x20\n    /* \"#utility.yul\":3212:3215   */\n  dup3\n    /* \"#utility.yul\":3208:3220   */\n  add\n    /* \"#utility.yul\":3201:3220   */\n  swap1\n  pop\n    /* \"#utility.yul\":2860:3226   */\n  swap2\n  swap1\n  pop\n  jump\t// out\n    /* \"#utility.yul\":3232:3651   */\ntag_11:\n    /* \"#utility.yul\":3398:3402   */\n  0x00\n    /* \"#utility.yul\":3436:3438   */\n  0x20\n    /* \"#utility.yul\":3425:3434   */\n  dup3\n    /* \"#utility.yul\":3421:3439   */\n  add\n    /* \"#utility.yul\":3413:3439   */\n  swap1\n  pop\n    /* \"#utility.yul\":3485:3494   */\n  dup2\n    /* \"#utility.yul\":3479:3483   */\n  dup2\n    /* \"#utility.yul\":3475:3495   */\n  sub\n    /* \"#utility.yul\":3471:3472   */\n  0x00\n    /* \"#utility.yul\":3460:3469   */\n  dup4\n    /* \"#utility.yul\":3456:3473   */\n  add\n    /* \"#utility.yul\":3449:3496   */\n  mstore\n    /* \"#utility.yul\":3513:3644   */\n  tag_80\n    /* \"#utility.yul\":3639:3643   */\n  dup2\n    /* \"#utility.yul\":3513:3644   */\n  tag_36\n  jump\t// in\ntag_80:\n    /* \"#utility.yul\":3505:3644   */\n  swap1\n  pop\n    /* \"#utility.yul\":3232:3651   */\n  swap2\n  swap1\n  pop\n  jump\t// out\n    /* \"#utility.yul\":3657:3881   */\ntag_37:\n    /* \"#utility.yul\":3797:3831   */\n  0x43726f776473616c653a2077616c6c657420697320746865207a65726f206164\n    /* \"#utility.yul\":3793:3794   */\n  0x00\n    /* \"#utility.yul\":3785:3791   */\n  dup3\n    /* \"#utility.yul\":3781:3795   */\n  add\n    /* \"#utility.yul\":3774:3832   */\n  mstore\n    /* \"#utility.yul\":3866:3873   */\n  0x6472657373000000000000000000000000000000000000000000000000000000\n    /* \"#utility.yul\":3861:3863   */\n  0x20\n    /* \"#utility.yul\":3853:3859   */\n  dup3\n    /* \"#utility.yul\":3849:3864   */\n  add\n    /* \"#utility.yul\":3842:3874   */\n  mstore\n    /* \"#utility.yul\":3657:3881   */\n  pop\n  jump\t// out\n    /* \"#utility.yul\":3887:4253   */\ntag_38:\n    /* \"#utility.yul\":4029:4032   */\n  0x00\n    /* \"#utility.yul\":4050:4117   */\n  tag_83\n    /* \"#utility.yul\":4114:4116   */\n  0x25\n    /* \"#utility.yul\":4109:4112   */\n  dup4\n    /* \"#utility.yul\":4050:4117   */\n  tag_34\n  jump\t// in\ntag_83:\n    /* \"#utility.yul\":4043:4117   */\n  swap2\n  pop\n    /* \"#utility.yul\":4126:4219   */\n  tag_84\n    /* \"#utility.yul\":4215:4218   */\n  dup3\n    /* \"#utility.yul\":4126:4219   */\n  tag_37\n  jump\t// in\ntag_84:\n    /* \"#utility.yul\":4244:4246   */\n  0x40\n    /* \"#utility.yul\":4239:4242   */\n  dup3\n    /* \"#utility.yul\":4235:4247   */\n  add\n    /* \"#utility.yul\":4228:4247   */\n  swap1\n  pop\n    /* \"#utility.yul\":3887:4253   */\n  swap2\n  swap1\n  pop\n  jump\t// out\n    /* \"#utility.yul\":4259:4678   */\ntag_14:\n    /* \"#utility.yul\":4425:4429   */\n  0x00\n    /* \"#utility.yul\":4463:4465   */\n  0x20\n    /* \"#utility.yul\":4452:4461   */\n  dup3\n    /* \"#utility.yul\":4448:4466   */\n  add\n    /* \"#utility.yul\":4440:4466   */\n  swap1\n  pop\n    /* \"#utility.yul\":4512:4521   */\n  dup2\n    /* \"#utility.yul\":4506:4510   */\n  dup2\n    /* \"#utility.yul\":4502:4522   */\n  sub\n    /* \"#utility.yul\":4498:4499   */\n  0x00\n    /* \"#utility.yul\":4487:4496   */\n  dup4\n    /* \"#utility.yul\":4483:4500   */\n  add\n    /* \"#utility.yul\":4476:4523   */\n  mstore\n    /* \"#utility.yul\":4540:4671   */\n  tag_86\n    /* \"#utility.yul\":4666:4670   */\n  dup2\n    /* \"#utility.yul\":4540:4671   */\n  tag_38\n  jump\t// in\ntag_86:\n    /* \"#utility.yul\":4532:4671   */\n  swap1\n  pop\n    /* \"#utility.yul\":4259:4678   */\n  swap2\n  swap1\n  pop\n  jump\t// out\n    /* \"#utility.yul\":4684:4907   */\ntag_39:\n    /* \"#utility.yul\":4824:4858   */\n  0x43726f776473616c653a20746f6b656e20697320746865207a65726f20616464\n    /* \"#utility.yul\":4820:4821   */\n  0x00\n    /* \"#utility.yul\":4812:4818   */\n  dup3\n    /* \"#utility.yul\":4808:4822   */\n  add\n    /* \"#utility.yul\":4801:4859   */\n  mstore\n    /* \"#utility.yul\":4893:4899   */\n  0x7265737300000000000000000000000000000000000000000000000000000000\n    /* \"#utility.yul\":4888:4890   */\n  0x20\n    /* \"#utility.yul\":4880:4886   */\n  dup3\n    /* \"#utility.yul\":4876:4891   */\n  add\n    /* \"#utility.yul\":4869:4900   */\n  mstore\n    /* \"#utility.yul\":4684:4907   */\n  pop\n  jump\t// out\n    /* \"#utility.yul\":4913:5279   */\ntag_40:\n    /* \"#utility.yul\":5055:5058   */\n  0x00\n    /* \"#utility.yul\":5076:5143   */\n  tag_89\n    /* \"#utility.yul\":5140:5142   */\n  0x24\n    /* \"#utility.yul\":5135:5138   */\n  dup4\n    /* \"#utility.yul\":5076:5143   */\n  tag_34\n  jump\t// in\ntag_89:\n    /* \"#utility.yul\":5069:5143   */\n  swap2\n  pop\n    /* \"#utility.yul\":5152:5245   */\n  tag_90\n    /* \"#utility.yul\":5241:5244   */\n  dup3\n    /* \"#utility.yul\":5152:5245   */\n  tag_39\n  jump\t// in\ntag_90:\n    /* \"#utility.yul\":5270:5272   */\n  0x40\n    /* \"#utility.yul\":5265:5268   */\n  dup3\n    /* \"#utility.yul\":5261:5273   */\n  add\n    /* \"#utility.yul\":5254:5273   */\n  swap1\n  pop\n    /* \"#utility.yul\":4913:5279   */\n  swap2\n  swap1\n  pop\n  jump\t// out\n    /* \"#utility.yul\":5285:5704   */\ntag_17:\n    /* \"#utility.yul\":5451:5455   */\n  0x00\n    /* \"#utility.yul\":5489:5491   */\n  0x20\n    /* \"#utility.yul\":5478:5487   */\n  dup3\n    /* \"#utility.yul\":5474:5492   */\n  add\n    /* \"#utility.yul\":5466:5492   */\n  swap1\n  pop\n    /* \"#utility.yul\":5538:5547   */\n  dup2\n    /* \"#utility.yul\":5532:5536   */\n  dup2\n    /* \"#utility.yul\":5528:5548   */\n  sub\n    /* \"#utility.yul\":5524:5525   */\n  0x00\n    /* \"#utility.yul\":5513:5522   */\n  dup4\n    /* \"#utility.yul\":5509:5526   */\n  add\n    /* \"#utility.yul\":5502:5549   */\n  mstore\n    /* \"#utility.yul\":5566:5697   */\n  tag_92\n    /* \"#utility.yul\":5692:5696   */\n  dup2\n    /* \"#utility.yul\":5566:5697   */\n  tag_40\n  jump\t// in\ntag_92:\n    /* \"#utility.yul\":5558:5697   */\n  swap1\n  pop\n    /* \"#utility.yul\":5285:5704   */\n  swap2\n  swap1\n  pop\n  jump\t// out\n    /* \"crowdsale/validation/individuallyCappedCrowdsale.sol\":313:2659  contract IndividuallyCappedCrowdsale is Crowdsale, AccessControl {... */\ntag_19:\n  dataSize(sub_0)\n  dup1\n  dataOffset(sub_0)\n  0x00\n  codecopy\n  0x00\n  return\nstop\n\nsub_0: assembly {\n        /* \"crowdsale/validation/individuallyCappedCrowdsale.sol\":313:2659  contract IndividuallyCappedCrowdsale is Crowdsale, AccessControl {... */\n      mstore(0x40, 0x80)\n      jumpi(tag_1, lt(calldatasize, 0x04))\n      shr(0xe0, calldataload(0x00))\n      dup1\n      0x521eb273\n      gt\n      tag_18\n      jumpi\n      dup1\n      0xb3aefb75\n      gt\n      tag_19\n      jumpi\n      dup1\n      0xb3aefb75\n      eq\n      tag_14\n      jumpi\n      dup1\n      0xd547741f\n      eq\n      tag_15\n      jumpi\n      dup1\n      0xec8ac4d8\n      eq\n      tag_16\n      jumpi\n      dup1\n      0xfc0c546a\n      eq\n      tag_17\n      jumpi\n      jump(tag_2)\n    tag_19:\n      dup1\n      0x521eb273\n      eq\n      tag_10\n      jumpi\n      dup1\n      0x80ad2cf3\n      eq\n      tag_11\n      jumpi\n      dup1\n      0x91d14854\n      eq\n      tag_12\n      jumpi\n      dup1\n      0xa217fddf\n      eq\n      tag_13\n      jumpi\n      jump(tag_2)\n    tag_18:\n      dup1\n      0x2c4e722e\n      gt\n      tag_20\n      jumpi\n      dup1\n      0x2c4e722e\n      eq\n      tag_6\n      jumpi\n      dup1\n      0x2f2ff15d\n      eq\n      tag_7\n      jumpi\n      dup1\n      0x36568abe\n      eq\n      tag_8\n      jumpi\n      dup1\n      0x4042b66f\n      eq\n      tag_9\n      jumpi\n      jump(tag_2)\n    tag_20:\n      dup1\n      0x01ffc9a7\n      eq\n      tag_3\n      jumpi\n      dup1\n      0x21eff7fc\n      eq\n      tag_4\n      jumpi\n      dup1\n      0x248a9ca3\n      eq\n      tag_5\n      jumpi\n      jump(tag_2)\n    tag_1:\n      jumpi(tag_2, calldatasize)\n        /* \"crowdsale/crowdsale.sol\":3351:3374  buyTokens(_msgSender()) */\n      tag_23\n        /* \"crowdsale/crowdsale.sol\":3361:3373  _msgSender() */\n      tag_24\n        /* \"crowdsale/crowdsale.sol\":3361:3371  _msgSender */\n      tag_25\n        /* \"crowdsale/crowdsale.sol\":3361:3373  _msgSender() */\n      jump\t// in\n    tag_24:\n        /* \"crowdsale/crowdsale.sol\":3351:3360  buyTokens */\n      tag_26\n        /* \"crowdsale/crowdsale.sol\":3351:3374  buyTokens(_msgSender()) */\n      jump\t// in\n    tag_23:\n        /* \"crowdsale/validation/individuallyCappedCrowdsale.sol\":313:2659  contract IndividuallyCappedCrowdsale is Crowdsale, AccessControl {... */\n      stop\n    tag_2:\n        /* \"crowdsale/crowdsale.sol\":3270:3293  buyTokens(_msgSender()) */\n      tag_29\n        /* \"crowdsale/crowdsale.sol\":3280:3292  _msgSender() */\n      tag_30\n        /* \"crowdsale/crowdsale.sol\":3280:3290  _msgSender */\n      tag_25\n        /* \"crowdsale/crowdsale.sol\":3280:3292  _msgSender() */\n      jump\t// in\n    tag_30:\n        /* \"crowdsale/crowdsale.sol\":3270:3279  buyTokens */\n      tag_26\n        /* \"crowdsale/crowdsale.sol\":3270:3293  buyTokens(_msgSender()) */\n      jump\t// in\n    tag_29:\n        /* \"crowdsale/validation/individuallyCappedCrowdsale.sol\":313:2659  contract IndividuallyCappedCrowdsale is Crowdsale, AccessControl {... */\n      stop\n        /* \"@openzeppelin/contracts/access/AccessControl.sol\":2732:2934  function supportsInterface(bytes4 interfaceId) public view virtual override returns (bool) {... */\n    tag_3:\n      callvalue\n      dup1\n      iszero\n      tag_31\n      jumpi\n      0x00\n      dup1\n      revert\n    tag_31:\n      pop\n      tag_32\n      0x04\n      dup1\n      calldatasize\n      sub\n      dup2\n      add\n      swap1\n      tag_33\n      swap2\n      swap1\n      tag_34\n      jump\t// in\n    tag_33:\n      tag_35\n      jump\t// in\n    tag_32:\n      mload(0x40)\n      tag_36\n      swap2\n      swap1\n      tag_37\n      jump\t// in\n    tag_36:\n      mload(0x40)\n      dup1\n      swap2\n      sub\n      swap1\n      return\n        /* \"crowdsale/validation/individuallyCappedCrowdsale.sol\":1514:1643  function getContribution(address beneficiary) public view returns (uint256) {... */\n    tag_4:\n      callvalue\n      dup1\n      iszero\n      tag_38\n      jumpi\n      0x00\n      dup1\n      revert\n    tag_38:\n      pop\n      tag_39\n      0x04\n      dup1\n      calldatasize\n      sub\n      dup2\n      add\n      swap1\n      tag_40\n      swap2\n      swap1\n      tag_41\n      jump\t// in\n    tag_40:\n      tag_42\n      jump\t// in\n    tag_39:\n      mload(0x40)\n      tag_43\n      swap2\n      swap1\n      tag_44\n      jump\t// in\n    tag_43:\n      mload(0x40)\n      dup1\n      swap2\n      sub\n      swap1\n      return\n        /* \"@openzeppelin/contracts/access/AccessControl.sol\":4504:4633  function getRoleAdmin(bytes32 role) public view virtual override returns (bytes32) {... */\n    tag_5:\n      callvalue\n      dup1\n      iszero\n      tag_45\n      jumpi\n      0x00\n      dup1\n      revert\n    tag_45:\n      pop\n      tag_46\n      0x04\n      dup1\n      calldatasize\n      sub\n      dup2\n      add\n      swap1\n      tag_47\n      swap2\n      swap1\n      tag_48\n      jump\t// in\n    tag_47:\n      tag_49\n      jump\t// in\n    tag_46:\n      mload(0x40)\n      tag_50\n      swap2\n      swap1\n      tag_51\n      jump\t// in\n    tag_50:\n      mload(0x40)\n      dup1\n      swap2\n      sub\n      swap1\n      return\n        /* \"crowdsale/crowdsale.sol\":3784:3869  function rate() public virtual view returns (uint256) {... */\n    tag_6:\n      callvalue\n      dup1\n      iszero\n      tag_52\n      jumpi\n      0x00\n      dup1\n      revert\n    tag_52:\n      pop\n      tag_53\n      tag_54\n      jump\t// in\n    tag_53:\n      mload(0x40)\n      tag_55\n      swap2\n      swap1\n      tag_44\n      jump\t// in\n    tag_55:\n      mload(0x40)\n      dup1\n      swap2\n      sub\n      swap1\n      return\n        /* \"@openzeppelin/contracts/access/AccessControl.sol\":4929:5074  function grantRole(bytes32 role, address account) public virtual override onlyRole(getRoleAdmin(role)) {... */\n    tag_7:\n      callvalue\n      dup1\n      iszero\n      tag_56\n      jumpi\n      0x00\n      dup1\n      revert\n    tag_56:\n      pop\n      tag_57\n      0x04\n      dup1\n      calldatasize\n      sub\n      dup2\n      add\n      swap1\n      tag_58\n      swap2\n      swap1\n      tag_59\n      jump\t// in\n    tag_58:\n      tag_60\n      jump\t// in\n    tag_57:\n      stop\n        /* \"@openzeppelin/contracts/access/AccessControl.sol\":6038:6252  function renounceRole(bytes32 role, address account) public virtual override {... */\n    tag_8:\n      callvalue\n      dup1\n      iszero\n      tag_61\n      jumpi\n      0x00\n      dup1\n      revert\n    tag_61:\n      pop\n      tag_62\n      0x04\n      dup1\n      calldatasize\n      sub\n      dup2\n      add\n      swap1\n      tag_63\n      swap2\n      swap1\n      tag_59\n      jump\t// in\n    tag_63:\n      tag_64\n      jump\t// in\n    tag_62:\n      stop\n        /* \"crowdsale/crowdsale.sol\":3937:4024  function weiRaised() public view returns (uint256) {... */\n    tag_9:\n      callvalue\n      dup1\n      iszero\n      tag_65\n      jumpi\n      0x00\n      dup1\n      revert\n    tag_65:\n      pop\n      tag_66\n      tag_67\n      jump\t// in\n    tag_66:\n      mload(0x40)\n      tag_68\n      swap2\n      swap1\n      tag_44\n      jump\t// in\n    tag_68:\n      mload(0x40)\n      dup1\n      swap2\n      sub\n      swap1\n      return\n        /* \"crowdsale/crowdsale.sol\":3605:3694  function wallet() public view returns (address payable) {... */\n    tag_10:\n      callvalue\n      dup1\n      iszero\n      tag_69\n      jumpi\n      0x00\n      dup1\n      revert\n    tag_69:\n      pop\n      tag_70\n      tag_71\n      jump\t// in\n    tag_70:\n      mload(0x40)\n      tag_72\n      swap2\n      swap1\n      tag_73\n      jump\t// in\n    tag_72:\n      mload(0x40)\n      dup1\n      swap2\n      sub\n      swap1\n      return\n        /* \"crowdsale/validation/individuallyCappedCrowdsale.sol\":871:1002  function setCap(address beneficiary, uint256 cap) external onlyRole(DEFAULT_ADMIN_ROLE) {... */\n    tag_11:\n      callvalue\n      dup1\n      iszero\n      tag_74\n      jumpi\n      0x00\n      dup1\n      revert\n    tag_74:\n      pop\n      tag_75\n      0x04\n      dup1\n      calldatasize\n      sub\n      dup2\n      add\n      swap1\n      tag_76\n      swap2\n      swap1\n      tag_77\n      jump\t// in\n    tag_76:\n      tag_78\n      jump\t// in\n    tag_75:\n      stop\n        /* \"@openzeppelin/contracts/access/AccessControl.sol\":3021:3166  function hasRole(bytes32 role, address account) public view virtual override returns (bool) {... */\n    tag_12:\n      callvalue\n      dup1\n      iszero\n      tag_79\n      jumpi\n      0x00\n      dup1\n      revert\n    tag_79:\n      pop\n      tag_80\n      0x04\n      dup1\n      calldatasize\n      sub\n      dup2\n      add\n      swap1\n      tag_81\n      swap2\n      swap1\n      tag_59\n      jump\t// in\n    tag_81:\n      tag_82\n      jump\t// in\n    tag_80:\n      mload(0x40)\n      tag_83\n      swap2\n      swap1\n      tag_37\n      jump\t// in\n    tag_83:\n      mload(0x40)\n      dup1\n      swap2\n      sub\n      swap1\n      return\n        /* \"@openzeppelin/contracts/access/AccessControl.sol\":2153:2202  bytes32 public constant DEFAULT_ADMIN_ROLE = 0x00 */\n    tag_13:\n      callvalue\n      dup1\n      iszero\n      tag_84\n      jumpi\n      0x00\n      dup1\n      revert\n    tag_84:\n      pop\n      tag_85\n      tag_86\n      jump\t// in\n    tag_85:\n      mload(0x40)\n      tag_87\n      swap2\n      swap1\n      tag_51\n      jump\t// in\n    tag_87:\n      mload(0x40)\n      dup1\n      swap2\n      sub\n      swap1\n      return\n        /* \"crowdsale/validation/individuallyCappedCrowdsale.sol\":1201:1312  function getCap(address beneficiary) public view returns (uint256) {... */\n    tag_14:\n      callvalue\n      dup1\n      iszero\n      tag_88\n      jumpi\n      0x00\n      dup1\n      revert\n    tag_88:\n      pop\n      tag_89\n      0x04\n      dup1\n      calldatasize\n      sub\n      dup2\n      add\n      swap1\n      tag_90\n      swap2\n      swap1\n      tag_41\n      jump\t// in\n    tag_90:\n      tag_91\n      jump\t// in\n    tag_89:\n      mload(0x40)\n      tag_92\n      swap2\n      swap1\n      tag_44\n      jump\t// in\n    tag_92:\n      mload(0x40)\n      dup1\n      swap2\n      sub\n      swap1\n      return\n        /* \"@openzeppelin/contracts/access/AccessControl.sol\":5354:5501  function revokeRole(bytes32 role, address account) public virtual override onlyRole(getRoleAdmin(role)) {... */\n    tag_15:\n      callvalue\n      dup1\n      iszero\n      tag_93\n      jumpi\n      0x00\n      dup1\n      revert\n    tag_93:\n      pop\n      tag_94\n      0x04\n      dup1\n      calldatasize\n      sub\n      dup2\n      add\n      swap1\n      tag_95\n      swap2\n      swap1\n      tag_59\n      jump\t// in\n    tag_95:\n      tag_96\n      jump\t// in\n    tag_94:\n      stop\n        /* \"crowdsale/crowdsale.sol\":4289:4911  function buyTokens(address beneficiary) public nonReentrant payable {... */\n    tag_16:\n      tag_97\n      0x04\n      dup1\n      calldatasize\n      sub\n      dup2\n      add\n      swap1\n      tag_98\n      swap2\n      swap1\n      tag_41\n      jump\t// in\n    tag_98:\n      tag_26\n      jump\t// in\n    tag_97:\n      stop\n        /* \"crowdsale/crowdsale.sol\":3446:3524  function token() public view returns (IERC20) {... */\n    tag_17:\n      callvalue\n      dup1\n      iszero\n      tag_99\n      jumpi\n      0x00\n      dup1\n      revert\n    tag_99:\n      pop\n      tag_100\n      tag_101\n      jump\t// in\n    tag_100:\n      mload(0x40)\n      tag_102\n      swap2\n      swap1\n      tag_103\n      jump\t// in\n    tag_102:\n      mload(0x40)\n      dup1\n      swap2\n      sub\n      swap1\n      return\n        /* \"@openzeppelin/contracts/utils/Context.sol\":656:752  function _msgSender() internal view virtual returns (address) {... */\n    tag_25:\n        /* \"@openzeppelin/contracts/utils/Context.sol\":709:716  address */\n      0x00\n        /* \"@openzeppelin/contracts/utils/Context.sol\":735:745  msg.sender */\n      caller\n        /* \"@openzeppelin/contracts/utils/Context.sol\":728:745  return msg.sender */\n      swap1\n      pop\n        /* \"@openzeppelin/contracts/utils/Context.sol\":656:752  function _msgSender() internal view virtual returns (address) {... */\n      swap1\n      jump\t// out\n        /* \"crowdsale/crowdsale.sol\":4289:4911  function buyTokens(address beneficiary) public nonReentrant payable {... */\n    tag_26:\n        /* \"@openzeppelin/contracts/security/ReentrancyGuard.sol\":2261:2282  _nonReentrantBefore() */\n      tag_106\n        /* \"@openzeppelin/contracts/security/ReentrancyGuard.sol\":2261:2280  _nonReentrantBefore */\n      tag_107\n        /* \"@openzeppelin/contracts/security/ReentrancyGuard.sol\":2261:2282  _nonReentrantBefore() */\n      jump\t// in\n    tag_106:\n        /* \"crowdsale/crowdsale.sol\":4368:4385  uint256 weiAmount */\n      0x00\n        /* \"crowdsale/crowdsale.sol\":4388:4397  msg.value */\n      callvalue\n        /* \"crowdsale/crowdsale.sol\":4368:4397  uint256 weiAmount = msg.value */\n      swap1\n      pop\n        /* \"crowdsale/crowdsale.sol\":4408:4452  _preValidatePurchase(beneficiary, weiAmount) */\n      tag_109\n        /* \"crowdsale/crowdsale.sol\":4429:4440  beneficiary */\n      dup3\n        /* \"crowdsale/crowdsale.sol\":4442:4451  weiAmount */\n      dup3\n        /* \"crowdsale/crowdsale.sol\":4408:4428  _preValidatePurchase */\n      tag_110\n        /* \"crowdsale/crowdsale.sol\":4408:4452  _preValidatePurchase(beneficiary, weiAmount) */\n      jump\t// in\n    tag_109:\n        /* \"crowdsale/crowdsale.sol\":4514:4528  uint256 tokens */\n      0x00\n        /* \"crowdsale/crowdsale.sol\":4531:4557  _getTokenAmount(weiAmount) */\n      tag_111\n        /* \"crowdsale/crowdsale.sol\":4547:4556  weiAmount */\n      dup3\n        /* \"crowdsale/crowdsale.sol\":4531:4546  _getTokenAmount */\n      tag_112\n        /* \"crowdsale/crowdsale.sol\":4531:4557  _getTokenAmount(weiAmount) */\n      jump\t// in\n    tag_111:\n        /* \"crowdsale/crowdsale.sol\":4514:4557  uint256 tokens = _getTokenAmount(weiAmount) */\n      swap1\n      pop\n        /* \"crowdsale/crowdsale.sol\":4608:4633  _weiRaised.add(weiAmount) */\n      tag_113\n        /* \"crowdsale/crowdsale.sol\":4623:4632  weiAmount */\n      dup3\n        /* \"crowdsale/crowdsale.sol\":4608:4618  _weiRaised */\n      sload(0x04)\n        /* \"crowdsale/crowdsale.sol\":4608:4622  _weiRaised.add */\n      tag_114\n      swap1\n        /* \"crowdsale/crowdsale.sol\":4608:4633  _weiRaised.add(weiAmount) */\n      swap2\n      swap1\n      0xffffffff\n      and\n      jump\t// in\n    tag_113:\n        /* \"crowdsale/crowdsale.sol\":4595:4605  _weiRaised */\n      0x04\n        /* \"crowdsale/crowdsale.sol\":4595:4633  _weiRaised = _weiRaised.add(weiAmount) */\n      dup2\n      swap1\n      sstore\n      pop\n        /* \"crowdsale/crowdsale.sol\":4646:4683  _processPurchase(beneficiary, tokens) */\n      tag_115\n        /* \"crowdsale/crowdsale.sol\":4663:4674  beneficiary */\n      dup4\n        /* \"crowdsale/crowdsale.sol\":4676:4682  tokens */\n      dup3\n        /* \"crowdsale/crowdsale.sol\":4646:4662  _processPurchase */\n      tag_116\n        /* \"crowdsale/crowdsale.sol\":4646:4683  _processPurchase(beneficiary, tokens) */\n      jump\t// in\n    tag_115:\n        /* \"crowdsale/crowdsale.sol\":4729:4740  beneficiary */\n      dup3\n        /* \"crowdsale/crowdsale.sol\":4699:4760  TokensPurchased(_msgSender(), beneficiary, weiAmount, tokens) */\n      0xffffffffffffffffffffffffffffffffffffffff\n      and\n        /* \"crowdsale/crowdsale.sol\":4715:4727  _msgSender() */\n      tag_117\n        /* \"crowdsale/crowdsale.sol\":4715:4725  _msgSender */\n      tag_25\n        /* \"crowdsale/crowdsale.sol\":4715:4727  _msgSender() */\n      jump\t// in\n    tag_117:\n        /* \"crowdsale/crowdsale.sol\":4699:4760  TokensPurchased(_msgSender(), beneficiary, weiAmount, tokens) */\n      0xffffffffffffffffffffffffffffffffffffffff\n      and\n      0x6faf93231a456e552dbc9961f58d9713ee4f2e69d15f1975b050ef0911053a7b\n        /* \"crowdsale/crowdsale.sol\":4742:4751  weiAmount */\n      dup5\n        /* \"crowdsale/crowdsale.sol\":4753:4759  tokens */\n      dup5\n        /* \"crowdsale/crowdsale.sol\":4699:4760  TokensPurchased(_msgSender(), beneficiary, weiAmount, tokens) */\n      mload(0x40)\n      tag_118\n      swap3\n      swap2\n      swap1\n      tag_119\n      jump\t// in\n    tag_118:\n      mload(0x40)\n      dup1\n      swap2\n      sub\n      swap1\n      log3\n        /* \"crowdsale/crowdsale.sol\":4773:4819  _updatePurchasingState(beneficiary, weiAmount) */\n      tag_120\n        /* \"crowdsale/crowdsale.sol\":4796:4807  beneficiary */\n      dup4\n        /* \"crowdsale/crowdsale.sol\":4809:4818  weiAmount */\n      dup4\n        /* \"crowdsale/crowdsale.sol\":4773:4795  _updatePurchasingState */\n      tag_121\n        /* \"crowdsale/crowdsale.sol\":4773:4819  _updatePurchasingState(beneficiary, weiAmount) */\n      jump\t// in\n    tag_120:\n        /* \"crowdsale/crowdsale.sol\":4832:4847  _forwardFunds() */\n      tag_122\n        /* \"crowdsale/crowdsale.sol\":4832:4845  _forwardFunds */\n      tag_123\n        /* \"crowdsale/crowdsale.sol\":4832:4847  _forwardFunds() */\n      jump\t// in\n    tag_122:\n        /* \"crowdsale/crowdsale.sol\":4858:4903  _postValidatePurchase(beneficiary, weiAmount) */\n      tag_124\n        /* \"crowdsale/crowdsale.sol\":4880:4891  beneficiary */\n      dup4\n        /* \"crowdsale/crowdsale.sol\":4893:4902  weiAmount */\n      dup4\n        /* \"crowdsale/crowdsale.sol\":4858:4879  _postValidatePurchase */\n      tag_125\n        /* \"crowdsale/crowdsale.sol\":4858:4903  _postValidatePurchase(beneficiary, weiAmount) */\n      jump\t// in\n    tag_124:\n        /* \"crowdsale/crowdsale.sol\":4357:4911  {... */\n      pop\n      pop\n        /* \"@openzeppelin/contracts/security/ReentrancyGuard.sol\":2303:2323  _nonReentrantAfter() */\n      tag_126\n        /* \"@openzeppelin/contracts/security/ReentrancyGuard.sol\":2303:2321  _nonReentrantAfter */\n      tag_127\n        /* \"@openzeppelin/contracts/security/ReentrancyGuard.sol\":2303:2323  _nonReentrantAfter() */\n      jump\t// in\n    tag_126:\n        /* \"crowdsale/crowdsale.sol\":4289:4911  function buyTokens(address beneficiary) public nonReentrant payable {... */\n      pop\n      jump\t// out\n        /* \"@openzeppelin/contracts/access/AccessControl.sol\":2732:2934  function supportsInterface(bytes4 interfaceId) public view virtual override returns (bool) {... */\n    tag_35:\n        /* \"@openzeppelin/contracts/access/AccessControl.sol\":2817:2821  bool */\n      0x00\n        /* \"@openzeppelin/contracts/access/AccessControl.sol\":2855:2887  type(IAccessControl).interfaceId */\n      0x7965db0b00000000000000000000000000000000000000000000000000000000\n        /* \"@openzeppelin/contracts/access/AccessControl.sol\":2840:2887  interfaceId == type(IAccessControl).interfaceId */\n      not(0xffffffffffffffffffffffffffffffffffffffffffffffffffffffff)\n      and\n        /* \"@openzeppelin/contracts/access/AccessControl.sol\":2840:2851  interfaceId */\n      dup3\n        /* \"@openzeppelin/contracts/access/AccessControl.sol\":2840:2887  interfaceId == type(IAccessControl).interfaceId */\n      not(0xffffffffffffffffffffffffffffffffffffffffffffffffffffffff)\n      and\n      eq\n        /* \"@openzeppelin/contracts/access/AccessControl.sol\":2840:2927  interfaceId == type(IAccessControl).interfaceId || super.supportsInterface(interfaceId) */\n      dup1\n      tag_129\n      jumpi\n      pop\n        /* \"@openzeppelin/contracts/access/AccessControl.sol\":2891:2927  super.supportsInterface(interfaceId) */\n      tag_130\n        /* \"@openzeppelin/contracts/access/AccessControl.sol\":2915:2926  interfaceId */\n      dup3\n        /* \"@openzeppelin/contracts/access/AccessControl.sol\":2891:2914  super.supportsInterface */\n      tag_131\n        /* \"@openzeppelin/contracts/access/AccessControl.sol\":2891:2927  super.supportsInterface(interfaceId) */\n      jump\t// in\n    tag_130:\n        /* \"@openzeppelin/contracts/access/AccessControl.sol\":2840:2927  interfaceId == type(IAccessControl).interfaceId || super.supportsInterface(interfaceId) */\n    tag_129:\n        /* \"@openzeppelin/contracts/access/AccessControl.sol\":2833:2927  return interfaceId == type(IAccessControl).interfaceId || super.supportsInterface(interfaceId) */\n      swap1\n      pop\n        /* \"@openzeppelin/contracts/access/AccessControl.sol\":2732:2934  function supportsInterface(bytes4 interfaceId) public view virtual override returns (bool) {... */\n      swap2\n      swap1\n      pop\n      jump\t// out\n        /* \"crowdsale/validation/individuallyCappedCrowdsale.sol\":1514:1643  function getContribution(address beneficiary) public view returns (uint256) {... */\n    tag_42:\n        /* \"crowdsale/validation/individuallyCappedCrowdsale.sol\":1581:1588  uint256 */\n      0x00\n        /* \"crowdsale/validation/individuallyCappedCrowdsale.sol\":1608:1622  _contributions */\n      0x06\n        /* \"crowdsale/validation/individuallyCappedCrowdsale.sol\":1608:1635  _contributions[beneficiary] */\n      0x00\n        /* \"crowdsale/validation/individuallyCappedCrowdsale.sol\":1623:1634  beneficiary */\n      dup4\n        /* \"crowdsale/validation/individuallyCappedCrowdsale.sol\":1608:1635  _contributions[beneficiary] */\n      0xffffffffffffffffffffffffffffffffffffffff\n      and\n      0xffffffffffffffffffffffffffffffffffffffff\n      and\n      dup2\n      mstore\n      0x20\n      add\n      swap1\n      dup2\n      mstore\n      0x20\n      add\n      0x00\n      keccak256\n      sload\n        /* \"crowdsale/validation/individuallyCappedCrowdsale.sol\":1601:1635  return _contributions[beneficiary] */\n      swap1\n      pop\n        /* \"crowdsale/validation/individuallyCappedCrowdsale.sol\":1514:1643  function getContribution(address beneficiary) public view returns (uint256) {... */\n      swap2\n      swap1\n      pop\n      jump\t// out\n        /* \"@openzeppelin/contracts/access/AccessControl.sol\":4504:4633  function getRoleAdmin(bytes32 role) public view virtual override returns (bytes32) {... */\n    tag_49:\n        /* \"@openzeppelin/contracts/access/AccessControl.sol\":4578:4585  bytes32 */\n      0x00\n        /* \"@openzeppelin/contracts/access/AccessControl.sol\":4604:4610  _roles */\n      0x05\n        /* \"@openzeppelin/contracts/access/AccessControl.sol\":4604:4616  _roles[role] */\n      0x00\n        /* \"@openzeppelin/contracts/access/AccessControl.sol\":4611:4615  role */\n      dup4\n        /* \"@openzeppelin/contracts/access/AccessControl.sol\":4604:4616  _roles[role] */\n      dup2\n      mstore\n      0x20\n      add\n      swap1\n      dup2\n      mstore\n      0x20\n      add\n      0x00\n      keccak256\n        /* \"@openzeppelin/contracts/access/AccessControl.sol\":4604:4626  _roles[role].adminRole */\n      0x01\n      add\n      sload\n        /* \"@openzeppelin/contracts/access/AccessControl.sol\":4597:4626  return _roles[role].adminRole */\n      swap1\n      pop\n        /* \"@openzeppelin/contracts/access/AccessControl.sol\":4504:4633  function getRoleAdmin(bytes32 role) public view virtual override returns (bytes32) {... */\n      swap2\n      swap1\n      pop\n      jump\t// out\n        /* \"crowdsale/crowdsale.sol\":3784:3869  function rate() public virtual view returns (uint256) {... */\n    tag_54:\n        /* \"crowdsale/crowdsale.sol\":3829:3836  uint256 */\n      0x00\n        /* \"crowdsale/crowdsale.sol\":3856:3861  _rate */\n      sload(0x03)\n        /* \"crowdsale/crowdsale.sol\":3849:3861  return _rate */\n      swap1\n      pop\n        /* \"crowdsale/crowdsale.sol\":3784:3869  function rate() public virtual view returns (uint256) {... */\n      swap1\n      jump\t// out\n        /* \"@openzeppelin/contracts/access/AccessControl.sol\":4929:5074  function grantRole(bytes32 role, address account) public virtual override onlyRole(getRoleAdmin(role)) {... */\n    tag_60:\n        /* \"@openzeppelin/contracts/access/AccessControl.sol\":5012:5030  getRoleAdmin(role) */\n      tag_135\n        /* \"@openzeppelin/contracts/access/AccessControl.sol\":5025:5029  role */\n      dup3\n        /* \"@openzeppelin/contracts/access/AccessControl.sol\":5012:5024  getRoleAdmin */\n      tag_49\n        /* \"@openzeppelin/contracts/access/AccessControl.sol\":5012:5030  getRoleAdmin(role) */\n      jump\t// in\n    tag_135:\n        /* \"@openzeppelin/contracts/access/AccessControl.sol\":2631:2647  _checkRole(role) */\n      tag_137\n        /* \"@openzeppelin/contracts/access/AccessControl.sol\":2642:2646  role */\n      dup2\n        /* \"@openzeppelin/contracts/access/AccessControl.sol\":2631:2641  _checkRole */\n      tag_138\n        /* \"@openzeppelin/contracts/access/AccessControl.sol\":2631:2647  _checkRole(role) */\n      jump\t// in\n    tag_137:\n        /* \"@openzeppelin/contracts/access/AccessControl.sol\":5042:5067  _grantRole(role, account) */\n      tag_140\n        /* \"@openzeppelin/contracts/access/AccessControl.sol\":5053:5057  role */\n      dup4\n        /* \"@openzeppelin/contracts/access/AccessControl.sol\":5059:5066  account */\n      dup4\n        /* \"@openzeppelin/contracts/access/AccessControl.sol\":5042:5052  _grantRole */\n      tag_141\n        /* \"@openzeppelin/contracts/access/AccessControl.sol\":5042:5067  _grantRole(role, account) */\n      jump\t// in\n    tag_140:\n        /* \"@openzeppelin/contracts/access/AccessControl.sol\":4929:5074  function grantRole(bytes32 role, address account) public virtual override onlyRole(getRoleAdmin(role)) {... */\n      pop\n      pop\n      pop\n      jump\t// out\n        /* \"@openzeppelin/contracts/access/AccessControl.sol\":6038:6252  function renounceRole(bytes32 role, address account) public virtual override {... */\n    tag_64:\n        /* \"@openzeppelin/contracts/access/AccessControl.sol\":6144:6156  _msgSender() */\n      tag_143\n        /* \"@openzeppelin/contracts/access/AccessControl.sol\":6144:6154  _msgSender */\n      tag_25\n        /* \"@openzeppelin/contracts/access/AccessControl.sol\":6144:6156  _msgSender() */\n      jump\t// in\n    tag_143:\n        /* \"@openzeppelin/contracts/access/AccessControl.sol\":6133:6156  account == _msgSender() */\n      0xffffffffffffffffffffffffffffffffffffffff\n      and\n        /* \"@openzeppelin/contracts/access/AccessControl.sol\":6133:6140  account */\n      dup2\n        /* \"@openzeppelin/contracts/access/AccessControl.sol\":6133:6156  account == _msgSender() */\n      0xffffffffffffffffffffffffffffffffffffffff\n      and\n      eq\n        /* \"@openzeppelin/contracts/access/AccessControl.sol\":6125:6208  require(account == _msgSender(), \"AccessControl: can only renounce roles for self\") */\n      tag_144\n      jumpi\n      mload(0x40)\n      0x08c379a000000000000000000000000000000000000000000000000000000000\n      dup2\n      mstore\n      0x04\n      add\n      tag_145\n      swap1\n      tag_146\n      jump\t// in\n    tag_145:\n      mload(0x40)\n      dup1\n      swap2\n      sub\n      swap1\n      revert\n    tag_144:\n        /* \"@openzeppelin/contracts/access/AccessControl.sol\":6219:6245  _revokeRole(role, account) */\n      tag_147\n        /* \"@openzeppelin/contracts/access/AccessControl.sol\":6231:6235  role */\n      dup3\n        /* \"@openzeppelin/contracts/access/AccessControl.sol\":6237:6244  account */\n      dup3\n        /* \"@openzeppelin/contracts/access/AccessControl.sol\":6219:6230  _revokeRole */\n      tag_148\n        /* \"@openzeppelin/contracts/access/AccessControl.sol\":6219:6245  _revokeRole(role, account) */\n      jump\t// in\n    tag_147:\n        /* \"@openzeppelin/contracts/access/AccessControl.sol\":6038:6252  function renounceRole(bytes32 role, address account) public virtual override {... */\n      pop\n      pop\n      jump\t// out\n        /* \"crowdsale/crowdsale.sol\":3937:4024  function weiRaised() public view returns (uint256) {... */\n    tag_67:\n        /* \"crowdsale/crowdsale.sol\":3979:3986  uint256 */\n      0x00\n        /* \"crowdsale/crowdsale.sol\":4006:4016  _weiRaised */\n      sload(0x04)\n        /* \"crowdsale/crowdsale.sol\":3999:4016  return _weiRaised */\n      swap1\n      pop\n        /* \"crowdsale/crowdsale.sol\":3937:4024  function weiRaised() public view returns (uint256) {... */\n      swap1\n      jump\t// out\n        /* \"crowdsale/crowdsale.sol\":3605:3694  function wallet() public view returns (address payable) {... */\n    tag_71:\n        /* \"crowdsale/crowdsale.sol\":3644:3659  address payable */\n      0x00\n        /* \"crowdsale/crowdsale.sol\":3679:3686  _wallet */\n      0x02\n      0x00\n      swap1\n      sload\n      swap1\n      0x0100\n      exp\n      swap1\n      div\n      0xffffffffffffffffffffffffffffffffffffffff\n      and\n        /* \"crowdsale/crowdsale.sol\":3672:3686  return _wallet */\n      swap1\n      pop\n        /* \"crowdsale/crowdsale.sol\":3605:3694  function wallet() public view returns (address payable) {... */\n      swap1\n      jump\t// out\n        /* \"crowdsale/validation/individuallyCappedCrowdsale.sol\":871:1002  function setCap(address beneficiary, uint256 cap) external onlyRole(DEFAULT_ADMIN_ROLE) {... */\n    tag_78:\n        /* \"@openzeppelin/contracts/access/AccessControl.sol\":2198:2202  0x00 */\n      0x00\n        /* \"crowdsale/validation/individuallyCappedCrowdsale.sol\":939:957  DEFAULT_ADMIN_ROLE */\n      dup1\n      shl\n        /* \"@openzeppelin/contracts/access/AccessControl.sol\":2631:2647  _checkRole(role) */\n      tag_152\n        /* \"@openzeppelin/contracts/access/AccessControl.sol\":2642:2646  role */\n      dup2\n        /* \"@openzeppelin/contracts/access/AccessControl.sol\":2631:2641  _checkRole */\n      tag_138\n        /* \"@openzeppelin/contracts/access/AccessControl.sol\":2631:2647  _checkRole(role) */\n      jump\t// in\n    tag_152:\n        /* \"crowdsale/validation/individuallyCappedCrowdsale.sol\":991:994  cap */\n      dup2\n        /* \"crowdsale/validation/individuallyCappedCrowdsale.sol\":970:975  _caps */\n      0x07\n        /* \"crowdsale/validation/individuallyCappedCrowdsale.sol\":970:988  _caps[beneficiary] */\n      0x00\n        /* \"crowdsale/validation/individuallyCappedCrowdsale.sol\":976:987  beneficiary */\n      dup6\n        /* \"crowdsale/validation/individuallyCappedCrowdsale.sol\":970:988  _caps[beneficiary] */\n      0xffffffffffffffffffffffffffffffffffffffff\n      and\n      0xffffffffffffffffffffffffffffffffffffffff\n      and\n      dup2\n      mstore\n      0x20\n      add\n      swap1\n      dup2\n      mstore\n      0x20\n      add\n      0x00\n      keccak256\n        /* \"crowdsale/validation/individuallyCappedCrowdsale.sol\":970:994  _caps[beneficiary] = cap */\n      dup2\n      swap1\n      sstore\n      pop\n        /* \"crowdsale/validation/individuallyCappedCrowdsale.sol\":871:1002  function setCap(address beneficiary, uint256 cap) external onlyRole(DEFAULT_ADMIN_ROLE) {... */\n      pop\n      pop\n      pop\n      jump\t// out\n        /* \"@openzeppelin/contracts/access/AccessControl.sol\":3021:3166  function hasRole(bytes32 role, address account) public view virtual override returns (bool) {... */\n    tag_82:\n        /* \"@openzeppelin/contracts/access/AccessControl.sol\":3107:3111  bool */\n      0x00\n        /* \"@openzeppelin/contracts/access/AccessControl.sol\":3130:3136  _roles */\n      0x05\n        /* \"@openzeppelin/contracts/access/AccessControl.sol\":3130:3142  _roles[role] */\n      0x00\n        /* \"@openzeppelin/contracts/access/AccessControl.sol\":3137:3141  role */\n      dup5\n        /* \"@openzeppelin/contracts/access/AccessControl.sol\":3130:3142  _roles[role] */\n      dup2\n      mstore\n      0x20\n      add\n      swap1\n      dup2\n      mstore\n      0x20\n      add\n      0x00\n      keccak256\n        /* \"@openzeppelin/contracts/access/AccessControl.sol\":3130:3150  _roles[role].members */\n      0x00\n      add\n        /* \"@openzeppelin/contracts/access/AccessControl.sol\":3130:3159  _roles[role].members[account] */\n      0x00\n        /* \"@openzeppelin/contracts/access/AccessControl.sol\":3151:3158  account */\n      dup4\n        /* \"@openzeppelin/contracts/access/AccessControl.sol\":3130:3159  _roles[role].members[account] */\n      0xffffffffffffffffffffffffffffffffffffffff\n      and\n      0xffffffffffffffffffffffffffffffffffffffff\n      and\n      dup2\n      mstore\n      0x20\n      add\n      swap1\n      dup2\n      mstore\n      0x20\n      add\n      0x00\n      keccak256\n      0x00\n      swap1\n      sload\n      swap1\n      0x0100\n      exp\n      swap1\n      div\n      0xff\n      and\n        /* \"@openzeppelin/contracts/access/AccessControl.sol\":3123:3159  return _roles[role].members[account] */\n      swap1\n      pop\n        /* \"@openzeppelin/contracts/access/AccessControl.sol\":3021:3166  function hasRole(bytes32 role, address account) public view virtual override returns (bool) {... */\n      swap3\n      swap2\n      pop\n      pop\n      jump\t// out\n        /* \"@openzeppelin/contracts/access/AccessControl.sol\":2153:2202  bytes32 public constant DEFAULT_ADMIN_ROLE = 0x00 */\n    tag_86:\n        /* \"@openzeppelin/contracts/access/AccessControl.sol\":2198:2202  0x00 */\n      0x00\n        /* \"@openzeppelin/contracts/access/AccessControl.sol\":2153:2202  bytes32 public constant DEFAULT_ADMIN_ROLE = 0x00 */\n      dup1\n      shl\n      dup2\n      jump\t// out\n        /* \"crowdsale/validation/individuallyCappedCrowdsale.sol\":1201:1312  function getCap(address beneficiary) public view returns (uint256) {... */\n    tag_91:\n        /* \"crowdsale/validation/individuallyCappedCrowdsale.sol\":1259:1266  uint256 */\n      0x00\n        /* \"crowdsale/validation/individuallyCappedCrowdsale.sol\":1286:1291  _caps */\n      0x07\n        /* \"crowdsale/validation/individuallyCappedCrowdsale.sol\":1286:1304  _caps[beneficiary] */\n      0x00\n        /* \"crowdsale/validation/individuallyCappedCrowdsale.sol\":1292:1303  beneficiary */\n      dup4\n        /* \"crowdsale/validation/individuallyCappedCrowdsale.sol\":1286:1304  _caps[beneficiary] */\n      0xffffffffffffffffffffffffffffffffffffffff\n      and\n      0xffffffffffffffffffffffffffffffffffffffff\n      and\n      dup2\n      mstore\n      0x20\n      add\n      swap1\n      dup2\n      mstore\n      0x20\n      add\n      0x00\n      keccak256\n      sload\n        /* \"crowdsale/validation/individuallyCappedCrowdsale.sol\":1279:1304  return _caps[beneficiary] */\n      swap1\n      pop\n        /* \"crowdsale/validation/individuallyCappedCrowdsale.sol\":1201:1312  function getCap(address beneficiary) public view returns (uint256) {... */\n      swap2\n      swap1\n      pop\n      jump\t// out\n        /* \"@openzeppelin/contracts/access/AccessControl.sol\":5354:5501  function revokeRole(bytes32 role, address account) public virtual override onlyRole(getRoleAdmin(role)) {... */\n    tag_96:\n        /* \"@openzeppelin/contracts/access/AccessControl.sol\":5438:5456  getRoleAdmin(role) */\n      tag_156\n        /* \"@openzeppelin/contracts/access/AccessControl.sol\":5451:5455  role */\n      dup3\n        /* \"@openzeppelin/contracts/access/AccessControl.sol\":5438:5450  getRoleAdmin */\n      tag_49\n        /* \"@openzeppelin/contracts/access/AccessControl.sol\":5438:5456  getRoleAdmin(role) */\n      jump\t// in\n    tag_156:\n        /* \"@openzeppelin/contracts/access/AccessControl.sol\":2631:2647  _checkRole(role) */\n      tag_158\n        /* \"@openzeppelin/contracts/access/AccessControl.sol\":2642:2646  role */\n      dup2\n        /* \"@openzeppelin/contracts/access/AccessControl.sol\":2631:2641  _checkRole */\n      tag_138\n        /* \"@openzeppelin/contracts/access/AccessControl.sol\":2631:2647  _checkRole(role) */\n      jump\t// in\n    tag_158:\n        /* \"@openzeppelin/contracts/access/AccessControl.sol\":5468:5494  _revokeRole(role, account) */\n      tag_160\n        /* \"@openzeppelin/contracts/access/AccessControl.sol\":5480:5484  role */\n      dup4\n        /* \"@openzeppelin/contracts/access/AccessControl.sol\":5486:5493  account */\n      dup4\n        /* \"@openzeppelin/contracts/access/AccessControl.sol\":5468:5479  _revokeRole */\n      tag_148\n        /* \"@openzeppelin/contracts/access/AccessControl.sol\":5468:5494  _revokeRole(role, account) */\n      jump\t// in\n    tag_160:\n        /* \"@openzeppelin/contracts/access/AccessControl.sol\":5354:5501  function revokeRole(bytes32 role, address account) public virtual override onlyRole(getRoleAdmin(role)) {... */\n      pop\n      pop\n      pop\n      jump\t// out\n        /* \"crowdsale/crowdsale.sol\":3446:3524  function token() public view returns (IERC20) {... */\n    tag_101:\n        /* \"crowdsale/crowdsale.sol\":3484:3490  IERC20 */\n      0x00\n        /* \"crowdsale/crowdsale.sol\":3510:3516  _token */\n      0x01\n      0x00\n      swap1\n      sload\n      swap1\n      0x0100\n      exp\n      swap1\n      div\n      0xffffffffffffffffffffffffffffffffffffffff\n      and\n        /* \"crowdsale/crowdsale.sol\":3503:3516  return _token */\n      swap1\n      pop\n        /* \"crowdsale/crowdsale.sol\":3446:3524  function token() public view returns (IERC20) {... */\n      swap1\n      jump\t// out\n        /* \"@openzeppelin/contracts/security/ReentrancyGuard.sol\":2336:2623  function _nonReentrantBefore() private {... */\n    tag_107:\n        /* \"@openzeppelin/contracts/security/ReentrancyGuard.sol\":1759:1760  2 */\n      0x02\n        /* \"@openzeppelin/contracts/security/ReentrancyGuard.sol\":2468:2475  _status */\n      sload(0x00)\n        /* \"@openzeppelin/contracts/security/ReentrancyGuard.sol\":2468:2487  _status != _ENTERED */\n      sub\n        /* \"@openzeppelin/contracts/security/ReentrancyGuard.sol\":2460:2523  require(_status != _ENTERED, \"ReentrancyGuard: reentrant call\") */\n      tag_163\n      jumpi\n      mload(0x40)\n      0x08c379a000000000000000000000000000000000000000000000000000000000\n      dup2\n      mstore\n      0x04\n      add\n      tag_164\n      swap1\n      tag_165\n      jump\t// in\n    tag_164:\n      mload(0x40)\n      dup1\n      swap2\n      sub\n      swap1\n      revert\n    tag_163:\n        /* \"@openzeppelin/contracts/security/ReentrancyGuard.sol\":1759:1760  2 */\n      0x02\n        /* \"@openzeppelin/contracts/security/ReentrancyGuard.sol\":2598:2605  _status */\n      0x00\n        /* \"@openzeppelin/contracts/security/ReentrancyGuard.sol\":2598:2616  _status = _ENTERED */\n      dup2\n      swap1\n      sstore\n      pop\n        /* \"@openzeppelin/contracts/security/ReentrancyGuard.sol\":2336:2623  function _nonReentrantBefore() private {... */\n      jump\t// out\n        /* \"crowdsale/validation/individuallyCappedCrowdsale.sol\":1860:2219  function _preValidatePurchase(address beneficiary, uint256 weiAmount) internal override view {... */\n    tag_110:\n        /* \"crowdsale/validation/individuallyCappedCrowdsale.sol\":1964:2014  super._preValidatePurchase(beneficiary, weiAmount) */\n      tag_167\n        /* \"crowdsale/validation/individuallyCappedCrowdsale.sol\":1991:2002  beneficiary */\n      dup3\n        /* \"crowdsale/validation/individuallyCappedCrowdsale.sol\":2004:2013  weiAmount */\n      dup3\n        /* \"crowdsale/validation/individuallyCappedCrowdsale.sol\":1964:1990  super._preValidatePurchase */\n      tag_168\n        /* \"crowdsale/validation/individuallyCappedCrowdsale.sol\":1964:2014  super._preValidatePurchase(beneficiary, weiAmount) */\n      jump\t// in\n    tag_167:\n        /* \"crowdsale/validation/individuallyCappedCrowdsale.sol\":2133:2138  _caps */\n      0x07\n        /* \"crowdsale/validation/individuallyCappedCrowdsale.sol\":2133:2151  _caps[beneficiary] */\n      0x00\n        /* \"crowdsale/validation/individuallyCappedCrowdsale.sol\":2139:2150  beneficiary */\n      dup4\n        /* \"crowdsale/validation/individuallyCappedCrowdsale.sol\":2133:2151  _caps[beneficiary] */\n      0xffffffffffffffffffffffffffffffffffffffff\n      and\n      0xffffffffffffffffffffffffffffffffffffffff\n      and\n      dup2\n      mstore\n      0x20\n      add\n      swap1\n      dup2\n      mstore\n      0x20\n      add\n      0x00\n      keccak256\n      sload\n        /* \"crowdsale/validation/individuallyCappedCrowdsale.sol\":2087:2129  _contributions[beneficiary].add(weiAmount) */\n      tag_169\n        /* \"crowdsale/validation/individuallyCappedCrowdsale.sol\":2119:2128  weiAmount */\n      dup3\n        /* \"crowdsale/validation/individuallyCappedCrowdsale.sol\":2087:2101  _contributions */\n      0x06\n        /* \"crowdsale/validation/individuallyCappedCrowdsale.sol\":2087:2114  _contributions[beneficiary] */\n      0x00\n        /* \"crowdsale/validation/individuallyCappedCrowdsale.sol\":2102:2113  beneficiary */\n      dup7\n        /* \"crowdsale/validation/individuallyCappedCrowdsale.sol\":2087:2114  _contributions[beneficiary] */\n      0xffffffffffffffffffffffffffffffffffffffff\n      and\n      0xffffffffffffffffffffffffffffffffffffffff\n      and\n      dup2\n      mstore\n      0x20\n      add\n      swap1\n      dup2\n      mstore\n      0x20\n      add\n      0x00\n      keccak256\n      sload\n        /* \"crowdsale/validation/individuallyCappedCrowdsale.sol\":2087:2118  _contributions[beneficiary].add */\n      tag_114\n      swap1\n        /* \"crowdsale/validation/individuallyCappedCrowdsale.sol\":2087:2129  _contributions[beneficiary].add(weiAmount) */\n      swap2\n      swap1\n      0xffffffff\n      and\n      jump\t// in\n    tag_169:\n        /* \"crowdsale/validation/individuallyCappedCrowdsale.sol\":2087:2151  _contributions[beneficiary].add(weiAmount) <= _caps[beneficiary] */\n      gt\n      iszero\n        /* \"crowdsale/validation/individuallyCappedCrowdsale.sol\":2079:2211  require(_contributions[beneficiary].add(weiAmount) <= _caps[beneficiary], \"IndividuallyCappedCrowdsale: beneficiary's cap exceeded\") */\n      tag_170\n      jumpi\n      mload(0x40)\n      0x08c379a000000000000000000000000000000000000000000000000000000000\n      dup2\n      mstore\n      0x04\n      add\n      tag_171\n      swap1\n      tag_172\n      jump\t// in\n    tag_171:\n      mload(0x40)\n      dup1\n      swap2\n      sub\n      swap1\n      revert\n    tag_170:\n        /* \"crowdsale/validation/individuallyCappedCrowdsale.sol\":1860:2219  function _preValidatePurchase(address beneficiary, uint256 weiAmount) internal override view {... */\n      pop\n      pop\n      jump\t// out\n        /* \"crowdsale/crowdsale.sol\":7856:7986  function _getTokenAmount(uint256 weiAmount) internal virtual view returns (uint256) {... */\n    tag_112:\n        /* \"crowdsale/crowdsale.sol\":7931:7938  uint256 */\n      0x00\n        /* \"crowdsale/crowdsale.sol\":7958:7978  weiAmount.mul(_rate) */\n      tag_174\n        /* \"crowdsale/crowdsale.sol\":7972:7977  _rate */\n      sload(0x03)\n        /* \"crowdsale/crowdsale.sol\":7958:7967  weiAmount */\n      dup4\n        /* \"crowdsale/crowdsale.sol\":7958:7971  weiAmount.mul */\n      tag_175\n      swap1\n        /* \"crowdsale/crowdsale.sol\":7958:7978  weiAmount.mul(_rate) */\n      swap2\n      swap1\n      0xffffffff\n      and\n      jump\t// in\n    tag_174:\n        /* \"crowdsale/crowdsale.sol\":7951:7978  return weiAmount.mul(_rate) */\n      swap1\n      pop\n        /* \"crowdsale/crowdsale.sol\":7856:7986  function _getTokenAmount(uint256 weiAmount) internal virtual view returns (uint256) {... */\n      swap2\n      swap1\n      pop\n      jump\t// out\n        /* \"@openzeppelin/contracts/utils/math/SafeMath.sol\":2755:2851  function add(uint256 a, uint256 b) internal pure returns (uint256) {... */\n    tag_114:\n        /* \"@openzeppelin/contracts/utils/math/SafeMath.sol\":2813:2820  uint256 */\n      0x00\n        /* \"@openzeppelin/contracts/utils/math/SafeMath.sol\":2843:2844  b */\n      dup2\n        /* \"@openzeppelin/contracts/utils/math/SafeMath.sol\":2839:2840  a */\n      dup4\n        /* \"@openzeppelin/contracts/utils/math/SafeMath.sol\":2839:2844  a + b */\n      tag_177\n      swap2\n      swap1\n      tag_178\n      jump\t// in\n    tag_177:\n        /* \"@openzeppelin/contracts/utils/math/SafeMath.sol\":2832:2844  return a + b */\n      swap1\n      pop\n        /* \"@openzeppelin/contracts/utils/math/SafeMath.sol\":2755:2851  function add(uint256 a, uint256 b) internal pure returns (uint256) {... */\n      swap3\n      swap2\n      pop\n      pop\n      jump\t// out\n        /* \"crowdsale/crowdsale.sol\":7023:7167  function _processPurchase(address beneficiary, uint256 tokenAmount) internal virtual {... */\n    tag_116:\n        /* \"crowdsale/crowdsale.sol\":7119:7159  _deliverTokens(beneficiary, tokenAmount) */\n      tag_180\n        /* \"crowdsale/crowdsale.sol\":7134:7145  beneficiary */\n      dup3\n        /* \"crowdsale/crowdsale.sol\":7147:7158  tokenAmount */\n      dup3\n        /* \"crowdsale/crowdsale.sol\":7119:7133  _deliverTokens */\n      tag_181\n        /* \"crowdsale/crowdsale.sol\":7119:7159  _deliverTokens(beneficiary, tokenAmount) */\n      jump\t// in\n    tag_180:\n        /* \"crowdsale/crowdsale.sol\":7023:7167  function _processPurchase(address beneficiary, uint256 tokenAmount) internal virtual {... */\n      pop\n      pop\n      jump\t// out\n        /* \"crowdsale/validation/individuallyCappedCrowdsale.sol\":2412:2656  function _updatePurchasingState(address beneficiary, uint256 weiAmount) internal override {... */\n    tag_121:\n        /* \"crowdsale/validation/individuallyCappedCrowdsale.sol\":2513:2565  super._updatePurchasingState(beneficiary, weiAmount) */\n      tag_183\n        /* \"crowdsale/validation/individuallyCappedCrowdsale.sol\":2542:2553  beneficiary */\n      dup3\n        /* \"crowdsale/validation/individuallyCappedCrowdsale.sol\":2555:2564  weiAmount */\n      dup3\n        /* \"crowdsale/validation/individuallyCappedCrowdsale.sol\":2513:2541  super._updatePurchasingState */\n      tag_184\n        /* \"crowdsale/validation/individuallyCappedCrowdsale.sol\":2513:2565  super._updatePurchasingState(beneficiary, weiAmount) */\n      jump\t// in\n    tag_183:\n        /* \"crowdsale/validation/individuallyCappedCrowdsale.sol\":2606:2648  _contributions[beneficiary].add(weiAmount) */\n      tag_185\n        /* \"crowdsale/validation/individuallyCappedCrowdsale.sol\":2638:2647  weiAmount */\n      dup2\n        /* \"crowdsale/validation/individuallyCappedCrowdsale.sol\":2606:2620  _contributions */\n      0x06\n        /* \"crowdsale/validation/individuallyCappedCrowdsale.sol\":2606:2633  _contributions[beneficiary] */\n      0x00\n        /* \"crowdsale/validation/individuallyCappedCrowdsale.sol\":2621:2632  beneficiary */\n      dup6\n        /* \"crowdsale/validation/individuallyCappedCrowdsale.sol\":2606:2633  _contributions[beneficiary] */\n      0xffffffffffffffffffffffffffffffffffffffff\n      and\n      0xffffffffffffffffffffffffffffffffffffffff\n      and\n      dup2\n      mstore\n      0x20\n      add\n      swap1\n      dup2\n      mstore\n      0x20\n      add\n      0x00\n      keccak256\n      sload\n        /* \"crowdsale/validation/individuallyCappedCrowdsale.sol\":2606:2637  _contributions[beneficiary].add */\n      tag_114\n      swap1\n        /* \"crowdsale/validation/individuallyCappedCrowdsale.sol\":2606:2648  _contributions[beneficiary].add(weiAmount) */\n      swap2\n      swap1\n      0xffffffff\n      and\n      jump\t// in\n    tag_185:\n        /* \"crowdsale/validation/individuallyCappedCrowdsale.sol\":2576:2590  _contributions */\n      0x06\n        /* \"crowdsale/validation/individuallyCappedCrowdsale.sol\":2576:2603  _contributions[beneficiary] */\n      0x00\n        /* \"crowdsale/validation/individuallyCappedCrowdsale.sol\":2591:2602  beneficiary */\n      dup5\n        /* \"crowdsale/validation/individuallyCappedCrowdsale.sol\":2576:2603  _contributions[beneficiary] */\n      0xffffffffffffffffffffffffffffffffffffffff\n      and\n      0xffffffffffffffffffffffffffffffffffffffff\n      and\n      dup2\n      mstore\n      0x20\n      add\n      swap1\n      dup2\n      mstore\n      0x20\n      add\n      0x00\n      keccak256\n        /* \"crowdsale/validation/individuallyCappedCrowdsale.sol\":2576:2648  _contributions[beneficiary] = _contributions[beneficiary].add(weiAmount) */\n      dup2\n      swap1\n      sstore\n      pop\n        /* \"crowdsale/validation/individuallyCappedCrowdsale.sol\":2412:2656  function _updatePurchasingState(address beneficiary, uint256 weiAmount) internal override {... */\n      pop\n      pop\n      jump\t// out\n        /* \"crowdsale/crowdsale.sol\":8078:8166  function _forwardFunds() internal virtual {... */\n    tag_123:\n        /* \"crowdsale/crowdsale.sol\":8131:8138  _wallet */\n      0x02\n      0x00\n      swap1\n      sload\n      swap1\n      0x0100\n      exp\n      swap1\n      div\n      0xffffffffffffffffffffffffffffffffffffffff\n      and\n        /* \"crowdsale/crowdsale.sol\":8131:8147  _wallet.transfer */\n      0xffffffffffffffffffffffffffffffffffffffff\n      and\n        /* \"crowdsale/crowdsale.sol\":8131:8158  _wallet.transfer(msg.value) */\n      0x08fc\n        /* \"crowdsale/crowdsale.sol\":8148:8157  msg.value */\n      callvalue\n        /* \"crowdsale/crowdsale.sol\":8131:8158  _wallet.transfer(msg.value) */\n      swap1\n      dup2\n      iszero\n      mul\n      swap1\n      mload(0x40)\n      0x00\n      mload(0x40)\n      dup1\n      dup4\n      sub\n      dup2\n      dup6\n      dup9\n      dup9\n      call\n      swap4\n      pop\n      pop\n      pop\n      pop\n      iszero\n      dup1\n      iszero\n      tag_188\n      jumpi\n      returndatasize\n      0x00\n      dup1\n      returndatacopy\n      revert(0x00, returndatasize)\n    tag_188:\n      pop\n        /* \"crowdsale/crowdsale.sol\":8078:8166  function _forwardFunds() internal virtual {... */\n      jump\t// out\n        /* \"crowdsale/crowdsale.sol\":6155:6314  function _postValidatePurchase(address beneficiary, uint256 weiAmount) internal virtual view {... */\n    tag_125:\n      pop\n      pop\n      jump\t// out\n        /* \"@openzeppelin/contracts/security/ReentrancyGuard.sol\":2629:2838  function _nonReentrantAfter() private {... */\n    tag_127:\n        /* \"@openzeppelin/contracts/security/ReentrancyGuard.sol\":1716:1717  1 */\n      0x01\n        /* \"@openzeppelin/contracts/security/ReentrancyGuard.sol\":2809:2816  _status */\n      0x00\n        /* \"@openzeppelin/contracts/security/ReentrancyGuard.sol\":2809:2831  _status = _NOT_ENTERED */\n      dup2\n      swap1\n      sstore\n      pop\n        /* \"@openzeppelin/contracts/security/ReentrancyGuard.sol\":2629:2838  function _nonReentrantAfter() private {... */\n      jump\t// out\n        /* \"@openzeppelin/contracts/utils/introspection/ERC165.sol\":829:984  function supportsInterface(bytes4 interfaceId) public view virtual override returns (bool) {... */\n    tag_131:\n        /* \"@openzeppelin/contracts/utils/introspection/ERC165.sol\":914:918  bool */\n      0x00\n        /* \"@openzeppelin/contracts/utils/introspection/ERC165.sol\":952:977  type(IERC165).interfaceId */\n      0x01ffc9a700000000000000000000000000000000000000000000000000000000\n        /* \"@openzeppelin/contracts/utils/introspection/ERC165.sol\":937:977  interfaceId == type(IERC165).interfaceId */\n      not(0xffffffffffffffffffffffffffffffffffffffffffffffffffffffff)\n      and\n        /* \"@openzeppelin/contracts/utils/introspection/ERC165.sol\":937:948  interfaceId */\n      dup3\n        /* \"@openzeppelin/contracts/utils/introspection/ERC165.sol\":937:977  interfaceId == type(IERC165).interfaceId */\n      not(0xffffffffffffffffffffffffffffffffffffffffffffffffffffffff)\n      and\n      eq\n        /* \"@openzeppelin/contracts/utils/introspection/ERC165.sol\":930:977  return interfaceId == type(IERC165).interfaceId */\n      swap1\n      pop\n        /* \"@openzeppelin/contracts/utils/introspection/ERC165.sol\":829:984  function supportsInterface(bytes4 interfaceId) public view virtual override returns (bool) {... */\n      swap2\n      swap1\n      pop\n      jump\t// out\n        /* \"@openzeppelin/contracts/access/AccessControl.sol\":3460:3563  function _checkRole(bytes32 role) internal view virtual {... */\n    tag_138:\n        /* \"@openzeppelin/contracts/access/AccessControl.sol\":3526:3556  _checkRole(role, _msgSender()) */\n      tag_193\n        /* \"@openzeppelin/contracts/access/AccessControl.sol\":3537:3541  role */\n      dup2\n        /* \"@openzeppelin/contracts/access/AccessControl.sol\":3543:3555  _msgSender() */\n      tag_194\n        /* \"@openzeppelin/contracts/access/AccessControl.sol\":3543:3553  _msgSender */\n      tag_25\n        /* \"@openzeppelin/contracts/access/AccessControl.sol\":3543:3555  _msgSender() */\n      jump\t// in\n    tag_194:\n        /* \"@openzeppelin/contracts/access/AccessControl.sol\":3526:3536  _checkRole */\n      tag_195\n        /* \"@openzeppelin/contracts/access/AccessControl.sol\":3526:3556  _checkRole(role, _msgSender()) */\n      jump\t// in\n    tag_193:\n        /* \"@openzeppelin/contracts/access/AccessControl.sol\":3460:3563  function _checkRole(bytes32 role) internal view virtual {... */\n      pop\n      jump\t// out\n        /* \"@openzeppelin/contracts/access/AccessControl.sol\":7587:7820  function _grantRole(bytes32 role, address account) internal virtual {... */\n    tag_141:\n        /* \"@openzeppelin/contracts/access/AccessControl.sol\":7670:7692  hasRole(role, account) */\n      tag_197\n        /* \"@openzeppelin/contracts/access/AccessControl.sol\":7678:7682  role */\n      dup3\n        /* \"@openzeppelin/contracts/access/AccessControl.sol\":7684:7691  account */\n      dup3\n        /* \"@openzeppelin/contracts/access/AccessControl.sol\":7670:7677  hasRole */\n      tag_82\n        /* \"@openzeppelin/contracts/access/AccessControl.sol\":7670:7692  hasRole(role, account) */\n      jump\t// in\n    tag_197:\n        /* \"@openzeppelin/contracts/access/AccessControl.sol\":7665:7814  if (!hasRole(role, account)) {... */\n      tag_198\n      jumpi\n        /* \"@openzeppelin/contracts/access/AccessControl.sol\":7740:7744  true */\n      0x01\n        /* \"@openzeppelin/contracts/access/AccessControl.sol\":7708:7714  _roles */\n      0x05\n        /* \"@openzeppelin/contracts/access/AccessControl.sol\":7708:7720  _roles[role] */\n      0x00\n        /* \"@openzeppelin/contracts/access/AccessControl.sol\":7715:7719  role */\n      dup5\n        /* \"@openzeppelin/contracts/access/AccessControl.sol\":7708:7720  _roles[role] */\n      dup2\n      mstore\n      0x20\n      add\n      swap1\n      dup2\n      mstore\n      0x20\n      add\n      0x00\n      keccak256\n        /* \"@openzeppelin/contracts/access/AccessControl.sol\":7708:7728  _roles[role].members */\n      0x00\n      add\n        /* \"@openzeppelin/contracts/access/AccessControl.sol\":7708:7737  _roles[role].members[account] */\n      0x00\n        /* \"@openzeppelin/contracts/access/AccessControl.sol\":7729:7736  account */\n      dup4\n        /* \"@openzeppelin/contracts/access/AccessControl.sol\":7708:7737  _roles[role].members[account] */\n      0xffffffffffffffffffffffffffffffffffffffff\n      and\n      0xffffffffffffffffffffffffffffffffffffffff\n      and\n      dup2\n      mstore\n      0x20\n      add\n      swap1\n      dup2\n      mstore\n      0x20\n      add\n      0x00\n      keccak256\n      0x00\n        /* \"@openzeppelin/contracts/access/AccessControl.sol\":7708:7744  _roles[role].members[account] = true */\n      0x0100\n      exp\n      dup2\n      sload\n      dup2\n      0xff\n      mul\n      not\n      and\n      swap1\n      dup4\n      iszero\n      iszero\n      mul\n      or\n      swap1\n      sstore\n      pop\n        /* \"@openzeppelin/contracts/access/AccessControl.sol\":7790:7802  _msgSender() */\n      tag_199\n        /* \"@openzeppelin/contracts/access/AccessControl.sol\":7790:7800  _msgSender */\n      tag_25\n        /* \"@openzeppelin/contracts/access/AccessControl.sol\":7790:7802  _msgSender() */\n      jump\t// in\n    tag_199:\n        /* \"@openzeppelin/contracts/access/AccessControl.sol\":7763:7803  RoleGranted(role, account, _msgSender()) */\n      0xffffffffffffffffffffffffffffffffffffffff\n      and\n        /* \"@openzeppelin/contracts/access/AccessControl.sol\":7781:7788  account */\n      dup2\n        /* \"@openzeppelin/contracts/access/AccessControl.sol\":7763:7803  RoleGranted(role, account, _msgSender()) */\n      0xffffffffffffffffffffffffffffffffffffffff\n      and\n        /* \"@openzeppelin/contracts/access/AccessControl.sol\":7775:7779  role */\n      dup4\n        /* \"@openzeppelin/contracts/access/AccessControl.sol\":7763:7803  RoleGranted(role, account, _msgSender()) */\n      0x2f8788117e7eff1d82e926ec794901d17c78024a50270940304540a733656f0d\n      mload(0x40)\n      mload(0x40)\n      dup1\n      swap2\n      sub\n      swap1\n      log4\n        /* \"@openzeppelin/contracts/access/AccessControl.sol\":7665:7814  if (!hasRole(role, account)) {... */\n    tag_198:\n        /* \"@openzeppelin/contracts/access/AccessControl.sol\":7587:7820  function _grantRole(bytes32 role, address account) internal virtual {... */\n      pop\n      pop\n      jump\t// out\n        /* \"@openzeppelin/contracts/access/AccessControl.sol\":7991:8225  function _revokeRole(bytes32 role, address account) internal virtual {... */\n    tag_148:\n        /* \"@openzeppelin/contracts/access/AccessControl.sol\":8074:8096  hasRole(role, account) */\n      tag_201\n        /* \"@openzeppelin/contracts/access/AccessControl.sol\":8082:8086  role */\n      dup3\n        /* \"@openzeppelin/contracts/access/AccessControl.sol\":8088:8095  account */\n      dup3\n        /* \"@openzeppelin/contracts/access/AccessControl.sol\":8074:8081  hasRole */\n      tag_82\n        /* \"@openzeppelin/contracts/access/AccessControl.sol\":8074:8096  hasRole(role, account) */\n      jump\t// in\n    tag_201:\n        /* \"@openzeppelin/contracts/access/AccessControl.sol\":8070:8219  if (hasRole(role, account)) {... */\n      iszero\n      tag_202\n      jumpi\n        /* \"@openzeppelin/contracts/access/AccessControl.sol\":8144:8149  false */\n      0x00\n        /* \"@openzeppelin/contracts/access/AccessControl.sol\":8112:8118  _roles */\n      0x05\n        /* \"@openzeppelin/contracts/access/AccessControl.sol\":8112:8124  _roles[role] */\n      0x00\n        /* \"@openzeppelin/contracts/access/AccessControl.sol\":8119:8123  role */\n      dup5\n        /* \"@openzeppelin/contracts/access/AccessControl.sol\":8112:8124  _roles[role] */\n      dup2\n      mstore\n      0x20\n      add\n      swap1\n      dup2\n      mstore\n      0x20\n      add\n      0x00\n      keccak256\n        /* \"@openzeppelin/contracts/access/AccessControl.sol\":8112:8132  _roles[role].members */\n      0x00\n      add\n        /* \"@openzeppelin/contracts/access/AccessControl.sol\":8112:8141  _roles[role].members[account] */\n      0x00\n        /* \"@openzeppelin/contracts/access/AccessControl.sol\":8133:8140  account */\n      dup4\n        /* \"@openzeppelin/contracts/access/AccessControl.sol\":8112:8141  _roles[role].members[account] */\n      0xffffffffffffffffffffffffffffffffffffffff\n      and\n      0xffffffffffffffffffffffffffffffffffffffff\n      and\n      dup2\n      mstore\n      0x20\n      add\n      swap1\n      dup2\n      mstore\n      0x20\n      add\n      0x00\n      keccak256\n      0x00\n        /* \"@openzeppelin/contracts/access/AccessControl.sol\":8112:8149  _roles[role].members[account] = false */\n      0x0100\n      exp\n      dup2\n      sload\n      dup2\n      0xff\n      mul\n      not\n      and\n      swap1\n      dup4\n      iszero\n      iszero\n      mul\n      or\n      swap1\n      sstore\n      pop\n        /* \"@openzeppelin/contracts/access/AccessControl.sol\":8195:8207  _msgSender() */\n      tag_203\n        /* \"@openzeppelin/contracts/access/AccessControl.sol\":8195:8205  _msgSender */\n      tag_25\n        /* \"@openzeppelin/contracts/access/AccessControl.sol\":8195:8207  _msgSender() */\n      jump\t// in\n    tag_203:\n        /* \"@openzeppelin/contracts/access/AccessControl.sol\":8168:8208  RoleRevoked(role, account, _msgSender()) */\n      0xffffffffffffffffffffffffffffffffffffffff\n      and\n        /* \"@openzeppelin/contracts/access/AccessControl.sol\":8186:8193  account */\n      dup2\n        /* \"@openzeppelin/contracts/access/AccessControl.sol\":8168:8208  RoleRevoked(role, account, _msgSender()) */\n      0xffffffffffffffffffffffffffffffffffffffff\n      and\n        /* \"@openzeppelin/contracts/access/AccessControl.sol\":8180:8184  role */\n      dup4\n        /* \"@openzeppelin/contracts/access/AccessControl.sol\":8168:8208  RoleRevoked(role, account, _msgSender()) */\n      0xf6391f5c32d9c69d2a47ea670b442974b53935d1edc7fd64eb21e047a839171b\n      mload(0x40)\n      mload(0x40)\n      dup1\n      swap2\n      sub\n      swap1\n      log4\n        /* \"@openzeppelin/contracts/access/AccessControl.sol\":8070:8219  if (hasRole(role, account)) {... */\n    tag_202:\n        /* \"@openzeppelin/contracts/access/AccessControl.sol\":7991:8225  function _revokeRole(bytes32 role, address account) internal virtual {... */\n      pop\n      pop\n      jump\t// out\n        /* \"crowdsale/crowdsale.sol\":5464:5852  function _preValidatePurchase(address beneficiary, uint256 weiAmount) internal virtual view {... */\n    tag_168:\n        /* \"crowdsale/crowdsale.sol\":5598:5599  0 */\n      0x00\n        /* \"crowdsale/crowdsale.sol\":5575:5600  beneficiary != address(0) */\n      0xffffffffffffffffffffffffffffffffffffffff\n      and\n        /* \"crowdsale/crowdsale.sol\":5575:5586  beneficiary */\n      dup3\n        /* \"crowdsale/crowdsale.sol\":5575:5600  beneficiary != address(0) */\n      0xffffffffffffffffffffffffffffffffffffffff\n      and\n      sub\n        /* \"crowdsale/crowdsale.sol\":5567:5647  require(beneficiary != address(0), \"Crowdsale: beneficiary is the zero address\") */\n      tag_205\n      jumpi\n      mload(0x40)\n      0x08c379a000000000000000000000000000000000000000000000000000000000\n      dup2\n      mstore\n      0x04\n      add\n      tag_206\n      swap1\n      tag_207\n      jump\t// in\n    tag_206:\n      mload(0x40)\n      dup1\n      swap2\n      sub\n      swap1\n      revert\n    tag_205:\n        /* \"crowdsale/crowdsale.sol\":5679:5680  0 */\n      0x00\n        /* \"crowdsale/crowdsale.sol\":5666:5675  weiAmount */\n      dup2\n        /* \"crowdsale/crowdsale.sol\":5666:5680  weiAmount != 0 */\n      sub\n        /* \"crowdsale/crowdsale.sol\":5658:5710  require(weiAmount != 0, \"Crowdsale: weiAmount is 0\") */\n      tag_208\n      jumpi\n      mload(0x40)\n      0x08c379a000000000000000000000000000000000000000000000000000000000\n      dup2\n      mstore\n      0x04\n      add\n      tag_209\n      swap1\n      tag_210\n      jump\t// in\n    tag_209:\n      mload(0x40)\n      dup1\n      swap2\n      sub\n      swap1\n      revert\n    tag_208:\n        /* \"crowdsale/crowdsale.sol\":5464:5852  function _preValidatePurchase(address beneficiary, uint256 weiAmount) internal virtual view {... */\n      pop\n      pop\n      jump\t// out\n        /* \"@openzeppelin/contracts/utils/math/SafeMath.sol\":3465:3561  function mul(uint256 a, uint256 b) internal pure returns (uint256) {... */\n    tag_175:\n        /* \"@openzeppelin/contracts/utils/math/SafeMath.sol\":3523:3530  uint256 */\n      0x00\n        /* \"@openzeppelin/contracts/utils/math/SafeMath.sol\":3553:3554  b */\n      dup2\n        /* \"@openzeppelin/contracts/utils/math/SafeMath.sol\":3549:3550  a */\n      dup4\n        /* \"@openzeppelin/contracts/utils/math/SafeMath.sol\":3549:3554  a * b */\n      tag_212\n      swap2\n      swap1\n      tag_213\n      jump\t// in\n    tag_212:\n        /* \"@openzeppelin/contracts/utils/math/SafeMath.sol\":3542:3554  return a * b */\n      swap1\n      pop\n        /* \"@openzeppelin/contracts/utils/math/SafeMath.sol\":3465:3561  function mul(uint256 a, uint256 b) internal pure returns (uint256) {... */\n      swap3\n      swap2\n      pop\n      pop\n      jump\t// out\n        /* \"crowdsale/crowdsale.sol\":6602:6749  function _deliverTokens(address beneficiary, uint256 tokenAmount) internal virtual {... */\n    tag_181:\n        /* \"crowdsale/crowdsale.sol\":6696:6741  _token.safeTransfer(beneficiary, tokenAmount) */\n      tag_215\n        /* \"crowdsale/crowdsale.sol\":6716:6727  beneficiary */\n      dup3\n        /* \"crowdsale/crowdsale.sol\":6729:6740  tokenAmount */\n      dup3\n        /* \"crowdsale/crowdsale.sol\":6696:6702  _token */\n      0x01\n      0x00\n      swap1\n      sload\n      swap1\n      0x0100\n      exp\n      swap1\n      div\n      0xffffffffffffffffffffffffffffffffffffffff\n      and\n        /* \"crowdsale/crowdsale.sol\":6696:6715  _token.safeTransfer */\n      0xffffffffffffffffffffffffffffffffffffffff\n      and\n      tag_216\n      swap1\n        /* \"crowdsale/crowdsale.sol\":6696:6741  _token.safeTransfer(beneficiary, tokenAmount) */\n      swap3\n      swap2\n      swap1\n      0xffffffff\n      and\n      jump\t// in\n    tag_215:\n        /* \"crowdsale/crowdsale.sol\":6602:6749  function _deliverTokens(address beneficiary, uint256 tokenAmount) internal virtual {... */\n      pop\n      pop\n      jump\t// out\n        /* \"crowdsale/crowdsale.sol\":7445:7600  function _updatePurchasingState(address beneficiary, uint256 weiAmount) internal virtual {... */\n    tag_184:\n      pop\n      pop\n      jump\t// out\n        /* \"@openzeppelin/contracts/access/AccessControl.sol\":3844:4323  function _checkRole(bytes32 role, address account) internal view virtual {... */\n    tag_195:\n        /* \"@openzeppelin/contracts/access/AccessControl.sol\":3932:3954  hasRole(role, account) */\n      tag_219\n        /* \"@openzeppelin/contracts/access/AccessControl.sol\":3940:3944  role */\n      dup3\n        /* \"@openzeppelin/contracts/access/AccessControl.sol\":3946:3953  account */\n      dup3\n        /* \"@openzeppelin/contracts/access/AccessControl.sol\":3932:3939  hasRole */\n      tag_82\n        /* \"@openzeppelin/contracts/access/AccessControl.sol\":3932:3954  hasRole(role, account) */\n      jump\t// in\n    tag_219:\n        /* \"@openzeppelin/contracts/access/AccessControl.sol\":3927:4317  if (!hasRole(role, account)) {... */\n      tag_220\n      jumpi\n        /* \"@openzeppelin/contracts/access/AccessControl.sol\":4115:4143  Strings.toHexString(account) */\n      tag_221\n        /* \"@openzeppelin/contracts/access/AccessControl.sol\":4135:4142  account */\n      dup2\n        /* \"@openzeppelin/contracts/access/AccessControl.sol\":4115:4134  Strings.toHexString */\n      tag_222\n        /* \"@openzeppelin/contracts/access/AccessControl.sol\":4115:4143  Strings.toHexString(account) */\n      jump\t// in\n    tag_221:\n        /* \"@openzeppelin/contracts/access/AccessControl.sol\":4214:4252  Strings.toHexString(uint256(role), 32) */\n      tag_223\n        /* \"@openzeppelin/contracts/access/AccessControl.sol\":4242:4246  role */\n      dup4\n        /* \"@openzeppelin/contracts/access/AccessControl.sol\":4234:4247  uint256(role) */\n      0x00\n      shr\n        /* \"@openzeppelin/contracts/access/AccessControl.sol\":4249:4251  32 */\n      0x20\n        /* \"@openzeppelin/contracts/access/AccessControl.sol\":4214:4233  Strings.toHexString */\n      tag_224\n        /* \"@openzeppelin/contracts/access/AccessControl.sol\":4214:4252  Strings.toHexString(uint256(role), 32) */\n      jump\t// in\n    tag_223:\n        /* \"@openzeppelin/contracts/access/AccessControl.sol\":4022:4274  abi.encodePacked(... */\n      add(0x20, mload(0x40))\n      tag_225\n      swap3\n      swap2\n      swap1\n      tag_226\n      jump\t// in\n    tag_225:\n      mload(0x40)\n      0x20\n      dup2\n      dup4\n      sub\n      sub\n      dup2\n      mstore\n      swap1\n      0x40\n      mstore\n        /* \"@openzeppelin/contracts/access/AccessControl.sol\":3970:4306  revert(... */\n      mload(0x40)\n      0x08c379a000000000000000000000000000000000000000000000000000000000\n      dup2\n      mstore\n      0x04\n      add\n      tag_227\n      swap2\n      swap1\n      tag_228\n      jump\t// in\n    tag_227:\n      mload(0x40)\n      dup1\n      swap2\n      sub\n      swap1\n      revert\n        /* \"@openzeppelin/contracts/access/AccessControl.sol\":3927:4317  if (!hasRole(role, account)) {... */\n    tag_220:\n        /* \"@openzeppelin/contracts/access/AccessControl.sol\":3844:4323  function _checkRole(bytes32 role, address account) internal view virtual {... */\n      pop\n      pop\n      jump\t// out\n        /* \"@openzeppelin/contracts/token/ERC20/utils/SafeERC20.sol\":941:1116  function safeTransfer(IERC20 token, address to, uint256 value) internal {... */\n    tag_216:\n        /* \"@openzeppelin/contracts/token/ERC20/utils/SafeERC20.sol\":1023:1109  _callOptionalReturn(token, abi.encodeWithSelector(token.transfer.selector, to, value)) */\n      tag_230\n        /* \"@openzeppelin/contracts/token/ERC20/utils/SafeERC20.sol\":1043:1048  token */\n      dup4\n        /* \"@openzeppelin/contracts/token/ERC20/utils/SafeERC20.sol\":1073:1096  token.transfer.selector */\n      shl(0xe0, 0xa9059cbb)\n        /* \"@openzeppelin/contracts/token/ERC20/utils/SafeERC20.sol\":1098:1100  to */\n      dup5\n        /* \"@openzeppelin/contracts/token/ERC20/utils/SafeERC20.sol\":1102:1107  value */\n      dup5\n        /* \"@openzeppelin/contracts/token/ERC20/utils/SafeERC20.sol\":1050:1108  abi.encodeWithSelector(token.transfer.selector, to, value) */\n      add(0x24, mload(0x40))\n      tag_231\n      swap3\n      swap2\n      swap1\n      tag_232\n      jump\t// in\n    tag_231:\n      mload(0x40)\n      0x20\n      dup2\n      dup4\n      sub\n      sub\n      dup2\n      mstore\n      swap1\n      0x40\n      mstore\n      swap1\n      not(0xffffffffffffffffffffffffffffffffffffffffffffffffffffffff)\n      and\n      0x20\n      dup3\n      add\n      dup1\n      mload\n      0xffffffffffffffffffffffffffffffffffffffffffffffffffffffff\n      dup4\n      dup2\n      dup4\n      and\n      or\n      dup4\n      mstore\n      pop\n      pop\n      pop\n      pop\n        /* \"@openzeppelin/contracts/token/ERC20/utils/SafeERC20.sol\":1023:1042  _callOptionalReturn */\n      tag_233\n        /* \"@openzeppelin/contracts/token/ERC20/utils/SafeERC20.sol\":1023:1109  _callOptionalReturn(token, abi.encodeWithSelector(token.transfer.selector, to, value)) */\n      jump\t// in\n    tag_230:\n        /* \"@openzeppelin/contracts/token/ERC20/utils/SafeERC20.sol\":941:1116  function safeTransfer(IERC20 token, address to, uint256 value) internal {... */\n      pop\n      pop\n      pop\n      jump\t// out\n        /* \"@openzeppelin/contracts/utils/Strings.sol\":2407:2556  function toHexString(address addr) internal pure returns (string memory) {... */\n    tag_222:\n        /* \"@openzeppelin/contracts/utils/Strings.sol\":2465:2478  string memory */\n      0x60\n        /* \"@openzeppelin/contracts/utils/Strings.sol\":2497:2549  toHexString(uint256(uint160(addr)), _ADDRESS_LENGTH) */\n      tag_235\n        /* \"@openzeppelin/contracts/utils/Strings.sol\":2525:2529  addr */\n      dup3\n        /* \"@openzeppelin/contracts/utils/Strings.sol\":2509:2531  uint256(uint160(addr)) */\n      0xffffffffffffffffffffffffffffffffffffffff\n      and\n        /* \"@openzeppelin/contracts/utils/Strings.sol\":343:345  20 */\n      0x14\n        /* \"@openzeppelin/contracts/utils/Strings.sol\":2497:2549  toHexString(uint256(uint160(addr)), _ADDRESS_LENGTH) */\n      0xff\n      and\n        /* \"@openzeppelin/contracts/utils/Strings.sol\":2497:2508  toHexString */\n      tag_224\n        /* \"@openzeppelin/contracts/utils/Strings.sol\":2497:2549  toHexString(uint256(uint160(addr)), _ADDRESS_LENGTH) */\n      jump\t// in\n    tag_235:\n        /* \"@openzeppelin/contracts/utils/Strings.sol\":2490:2549  return toHexString(uint256(uint160(addr)), _ADDRESS_LENGTH) */\n      swap1\n      pop\n        /* \"@openzeppelin/contracts/utils/Strings.sol\":2407:2556  function toHexString(address addr) internal pure returns (string memory) {... */\n      swap2\n      swap1\n      pop\n      jump\t// out\n        /* \"@openzeppelin/contracts/utils/Strings.sol\":1818:2255  function toHexString(uint256 value, uint256 length) internal pure returns (string memory) {... */\n    tag_224:\n        /* \"@openzeppelin/contracts/utils/Strings.sol\":1893:1906  string memory */\n      0x60\n        /* \"@openzeppelin/contracts/utils/Strings.sol\":1918:1937  bytes memory buffer */\n      0x00\n        /* \"@openzeppelin/contracts/utils/Strings.sol\":1963:1964  2 */\n      0x02\n        /* \"@openzeppelin/contracts/utils/Strings.sol\":1954:1960  length */\n      dup4\n        /* \"@openzeppelin/contracts/utils/Strings.sol\":1950:1951  2 */\n      0x02\n        /* \"@openzeppelin/contracts/utils/Strings.sol\":1950:1960  2 * length */\n      tag_237\n      swap2\n      swap1\n      tag_213\n      jump\t// in\n    tag_237:\n        /* \"@openzeppelin/contracts/utils/Strings.sol\":1950:1964  2 * length + 2 */\n      tag_238\n      swap2\n      swap1\n      tag_178\n      jump\t// in\n    tag_238:\n        /* \"@openzeppelin/contracts/utils/Strings.sol\":1940:1965  new bytes(2 * length + 2) */\n      0xffffffffffffffff\n      dup2\n      gt\n      iszero\n      tag_239\n      jumpi\n      tag_240\n      tag_241\n      jump\t// in\n    tag_240:\n    tag_239:\n      mload(0x40)\n      swap1\n      dup1\n      dup3\n      mstore\n      dup1\n      0x1f\n      add\n      not(0x1f)\n      and\n      0x20\n      add\n      dup3\n      add\n      0x40\n      mstore\n      dup1\n      iszero\n      tag_242\n      jumpi\n      dup2\n      0x20\n      add\n      0x01\n      dup3\n      mul\n      dup1\n      calldatasize\n      dup4\n      calldatacopy\n      dup1\n      dup3\n      add\n      swap2\n      pop\n      pop\n      swap1\n      pop\n    tag_242:\n      pop\n        /* \"@openzeppelin/contracts/utils/Strings.sol\":1918:1965  bytes memory buffer = new bytes(2 * length + 2) */\n      swap1\n      pop\n        /* \"@openzeppelin/contracts/utils/Strings.sol\":1975:1990  buffer[0] = \"0\" */\n      0x3000000000000000000000000000000000000000000000000000000000000000\n        /* \"@openzeppelin/contracts/utils/Strings.sol\":1975:1981  buffer */\n      dup2\n        /* \"@openzeppelin/contracts/utils/Strings.sol\":1982:1983  0 */\n      0x00\n        /* \"@openzeppelin/contracts/utils/Strings.sol\":1975:1984  buffer[0] */\n      dup2\n      mload\n      dup2\n      lt\n      tag_243\n      jumpi\n      tag_244\n      tag_245\n      jump\t// in\n    tag_244:\n    tag_243:\n      0x20\n      add\n      add\n        /* \"@openzeppelin/contracts/utils/Strings.sol\":1975:1990  buffer[0] = \"0\" */\n      swap1\n      not(0xffffffffffffffffffffffffffffffffffffffffffffffffffffffffffffff)\n      and\n      swap1\n      dup2\n      0x00\n      byte\n      swap1\n      mstore8\n      pop\n        /* \"@openzeppelin/contracts/utils/Strings.sol\":2000:2015  buffer[1] = \"x\" */\n      0x7800000000000000000000000000000000000000000000000000000000000000\n        /* \"@openzeppelin/contracts/utils/Strings.sol\":2000:2006  buffer */\n      dup2\n        /* \"@openzeppelin/contracts/utils/Strings.sol\":2007:2008  1 */\n      0x01\n        /* \"@openzeppelin/contracts/utils/Strings.sol\":2000:2009  buffer[1] */\n      dup2\n      mload\n      dup2\n      lt\n      tag_246\n      jumpi\n      tag_247\n      tag_245\n      jump\t// in\n    tag_247:\n    tag_246:\n      0x20\n      add\n      add\n        /* \"@openzeppelin/contracts/utils/Strings.sol\":2000:2015  buffer[1] = \"x\" */\n      swap1\n      not(0xffffffffffffffffffffffffffffffffffffffffffffffffffffffffffffff)\n      and\n      swap1\n      dup2\n      0x00\n      byte\n      swap1\n      mstore8\n      pop\n        /* \"@openzeppelin/contracts/utils/Strings.sol\":2030:2039  uint256 i */\n      0x00\n        /* \"@openzeppelin/contracts/utils/Strings.sol\":2055:2056  1 */\n      0x01\n        /* \"@openzeppelin/contracts/utils/Strings.sol\":2046:2052  length */\n      dup5\n        /* \"@openzeppelin/contracts/utils/Strings.sol\":2042:2043  2 */\n      0x02\n        /* \"@openzeppelin/contracts/utils/Strings.sol\":2042:2052  2 * length */\n      tag_251\n      swap2\n      swap1\n      tag_213\n      jump\t// in\n    tag_251:\n        /* \"@openzeppelin/contracts/utils/Strings.sol\":2042:2056  2 * length + 1 */\n      tag_252\n      swap2\n      swap1\n      tag_178\n      jump\t// in\n    tag_252:\n        /* \"@openzeppelin/contracts/utils/Strings.sol\":2030:2056  uint256 i = 2 * length + 1 */\n      swap1\n      pop\n        /* \"@openzeppelin/contracts/utils/Strings.sol\":2025:2153  for (uint256 i = 2 * length + 1; i > 1; --i) {... */\n    tag_248:\n        /* \"@openzeppelin/contracts/utils/Strings.sol\":2062:2063  1 */\n      0x01\n        /* \"@openzeppelin/contracts/utils/Strings.sol\":2058:2059  i */\n      dup2\n        /* \"@openzeppelin/contracts/utils/Strings.sol\":2058:2063  i > 1 */\n      gt\n        /* \"@openzeppelin/contracts/utils/Strings.sol\":2025:2153  for (uint256 i = 2 * length + 1; i > 1; --i) {... */\n      iszero\n      tag_249\n      jumpi\n        /* \"@openzeppelin/contracts/utils/Strings.sol\":2096:2104  _SYMBOLS */\n      0x3031323334353637383961626364656600000000000000000000000000000000\n        /* \"@openzeppelin/contracts/utils/Strings.sol\":2113:2116  0xf */\n      0x0f\n        /* \"@openzeppelin/contracts/utils/Strings.sol\":2105:2110  value */\n      dup7\n        /* \"@openzeppelin/contracts/utils/Strings.sol\":2105:2116  value & 0xf */\n      and\n        /* \"@openzeppelin/contracts/utils/Strings.sol\":2096:2117  _SYMBOLS[value & 0xf] */\n      0x10\n      dup2\n      lt\n      tag_253\n      jumpi\n      tag_254\n      tag_245\n      jump\t// in\n    tag_254:\n    tag_253:\n      byte\n      0xf8\n      shl\n        /* \"@openzeppelin/contracts/utils/Strings.sol\":2084:2090  buffer */\n      dup3\n        /* \"@openzeppelin/contracts/utils/Strings.sol\":2091:2092  i */\n      dup3\n        /* \"@openzeppelin/contracts/utils/Strings.sol\":2084:2093  buffer[i] */\n      dup2\n      mload\n      dup2\n      lt\n      tag_255\n      jumpi\n      tag_256\n      tag_245\n      jump\t// in\n    tag_256:\n    tag_255:\n      0x20\n      add\n      add\n        /* \"@openzeppelin/contracts/utils/Strings.sol\":2084:2117  buffer[i] = _SYMBOLS[value & 0xf] */\n      swap1\n      not(0xffffffffffffffffffffffffffffffffffffffffffffffffffffffffffffff)\n      and\n      swap1\n      dup2\n      0x00\n      byte\n      swap1\n      mstore8\n      pop\n        /* \"@openzeppelin/contracts/utils/Strings.sol\":2141:2142  4 */\n      0x04\n        /* \"@openzeppelin/contracts/utils/Strings.sol\":2131:2142  value >>= 4 */\n      dup6\n      swap1\n      shr\n      swap5\n      pop\n        /* \"@openzeppelin/contracts/utils/Strings.sol\":2065:2068  --i */\n      dup1\n      tag_257\n      swap1\n      tag_258\n      jump\t// in\n    tag_257:\n      swap1\n      pop\n        /* \"@openzeppelin/contracts/utils/Strings.sol\":2025:2153  for (uint256 i = 2 * length + 1; i > 1; --i) {... */\n      jump(tag_248)\n    tag_249:\n      pop\n        /* \"@openzeppelin/contracts/utils/Strings.sol\":2179:2180  0 */\n      0x00\n        /* \"@openzeppelin/contracts/utils/Strings.sol\":2170:2175  value */\n      dup5\n        /* \"@openzeppelin/contracts/utils/Strings.sol\":2170:2180  value == 0 */\n      eq\n        /* \"@openzeppelin/contracts/utils/Strings.sol\":2162:2217  require(value == 0, \"Strings: hex length insufficient\") */\n      tag_259\n      jumpi\n      mload(0x40)\n      0x08c379a000000000000000000000000000000000000000000000000000000000\n      dup2\n      mstore\n      0x04\n      add\n      tag_260\n      swap1\n      tag_261\n      jump\t// in\n    tag_260:\n      mload(0x40)\n      dup1\n      swap2\n      sub\n      swap1\n      revert\n    tag_259:\n        /* \"@openzeppelin/contracts/utils/Strings.sol\":2241:2247  buffer */\n      dup1\n        /* \"@openzeppelin/contracts/utils/Strings.sol\":2227:2248  return string(buffer) */\n      swap2\n      pop\n      pop\n        /* \"@openzeppelin/contracts/utils/Strings.sol\":1818:2255  function toHexString(uint256 value, uint256 length) internal pure returns (string memory) {... */\n      swap3\n      swap2\n      pop\n      pop\n      jump\t// out\n        /* \"@openzeppelin/contracts/token/ERC20/utils/SafeERC20.sol\":5196:5838  function _callOptionalReturn(IERC20 token, bytes memory data) private {... */\n    tag_233:\n        /* \"@openzeppelin/contracts/token/ERC20/utils/SafeERC20.sol\":5615:5638  bytes memory returndata */\n      0x00\n        /* \"@openzeppelin/contracts/token/ERC20/utils/SafeERC20.sol\":5641:5710  address(token).functionCall(data, \"SafeERC20: low-level call failed\") */\n      tag_263\n        /* \"@openzeppelin/contracts/token/ERC20/utils/SafeERC20.sol\":5669:5673  data */\n      dup3\n        /* \"@openzeppelin/contracts/token/ERC20/utils/SafeERC20.sol\":5641:5710  address(token).functionCall(data, \"SafeERC20: low-level call failed\") */\n      mload(0x40)\n      dup1\n      0x40\n      add\n      0x40\n      mstore\n      dup1\n      0x20\n      dup2\n      mstore\n      0x20\n      add\n      0x5361666545524332303a206c6f772d6c6576656c2063616c6c206661696c6564\n      dup2\n      mstore\n      pop\n        /* \"@openzeppelin/contracts/token/ERC20/utils/SafeERC20.sol\":5649:5654  token */\n      dup6\n        /* \"@openzeppelin/contracts/token/ERC20/utils/SafeERC20.sol\":5641:5668  address(token).functionCall */\n      0xffffffffffffffffffffffffffffffffffffffff\n      and\n      tag_264\n      swap1\n        /* \"@openzeppelin/contracts/token/ERC20/utils/SafeERC20.sol\":5641:5710  address(token).functionCall(data, \"SafeERC20: low-level call failed\") */\n      swap3\n      swap2\n      swap1\n      0xffffffff\n      and\n      jump\t// in\n    tag_263:\n        /* \"@openzeppelin/contracts/token/ERC20/utils/SafeERC20.sol\":5615:5710  bytes memory returndata = address(token).functionCall(data, \"SafeERC20: low-level call failed\") */\n      swap1\n      pop\n        /* \"@openzeppelin/contracts/token/ERC20/utils/SafeERC20.sol\":5749:5750  0 */\n      0x00\n        /* \"@openzeppelin/contracts/token/ERC20/utils/SafeERC20.sol\":5728:5738  returndata */\n      dup2\n        /* \"@openzeppelin/contracts/token/ERC20/utils/SafeERC20.sol\":5728:5745  returndata.length */\n      mload\n        /* \"@openzeppelin/contracts/token/ERC20/utils/SafeERC20.sol\":5728:5750  returndata.length == 0 */\n      eq\n        /* \"@openzeppelin/contracts/token/ERC20/utils/SafeERC20.sol\":5728:5784  returndata.length == 0 || abi.decode(returndata, (bool)) */\n      dup1\n      tag_265\n      jumpi\n      pop\n        /* \"@openzeppelin/contracts/token/ERC20/utils/SafeERC20.sol\":5765:5775  returndata */\n      dup1\n        /* \"@openzeppelin/contracts/token/ERC20/utils/SafeERC20.sol\":5754:5784  abi.decode(returndata, (bool)) */\n      dup1\n      0x20\n      add\n      swap1\n      mload\n      dup2\n      add\n      swap1\n      tag_266\n      swap2\n      swap1\n      tag_267\n      jump\t// in\n    tag_266:\n        /* \"@openzeppelin/contracts/token/ERC20/utils/SafeERC20.sol\":5728:5784  returndata.length == 0 || abi.decode(returndata, (bool)) */\n    tag_265:\n        /* \"@openzeppelin/contracts/token/ERC20/utils/SafeERC20.sol\":5720:5831  require(returndata.length == 0 || abi.decode(returndata, (bool)), \"SafeERC20: ERC20 operation did not succeed\") */\n      tag_268\n      jumpi\n      mload(0x40)\n      0x08c379a000000000000000000000000000000000000000000000000000000000\n      dup2\n      mstore\n      0x04\n      add\n      tag_269\n      swap1\n      tag_270\n      jump\t// in\n    tag_269:\n      mload(0x40)\n      dup1\n      swap2\n      sub\n      swap1\n      revert\n    tag_268:\n        /* \"@openzeppelin/contracts/token/ERC20/utils/SafeERC20.sol\":5266:5838  {... */\n      pop\n        /* \"@openzeppelin/contracts/token/ERC20/utils/SafeERC20.sol\":5196:5838  function _callOptionalReturn(IERC20 token, bytes memory data) private {... */\n      pop\n      pop\n      jump\t// out\n        /* \"@openzeppelin/contracts/utils/Address.sol\":4108:4331  function functionCall(... */\n    tag_264:\n        /* \"@openzeppelin/contracts/utils/Address.sol\":4241:4253  bytes memory */\n      0x60\n        /* \"@openzeppelin/contracts/utils/Address.sol\":4272:4324  functionCallWithValue(target, data, 0, errorMessage) */\n      tag_272\n        /* \"@openzeppelin/contracts/utils/Address.sol\":4294:4300  target */\n      dup5\n        /* \"@openzeppelin/contracts/utils/Address.sol\":4302:4306  data */\n      dup5\n        /* \"@openzeppelin/contracts/utils/Address.sol\":4308:4309  0 */\n      0x00\n        /* \"@openzeppelin/contracts/utils/Address.sol\":4311:4323  errorMessage */\n      dup6\n        /* \"@openzeppelin/contracts/utils/Address.sol\":4272:4293  functionCallWithValue */\n      tag_273\n        /* \"@openzeppelin/contracts/utils/Address.sol\":4272:4324  functionCallWithValue(target, data, 0, errorMessage) */\n      jump\t// in\n    tag_272:\n        /* \"@openzeppelin/contracts/utils/Address.sol\":4265:4324  return functionCallWithValue(target, data, 0, errorMessage) */\n      swap1\n      pop\n        /* \"@openzeppelin/contracts/utils/Address.sol\":4108:4331  function functionCall(... */\n      swap4\n      swap3\n      pop\n      pop\n      pop\n      jump\t// out\n        /* \"@openzeppelin/contracts/utils/Address.sol\":5165:5611  function functionCallWithValue(... */\n    tag_273:\n        /* \"@openzeppelin/contracts/utils/Address.sol\":5330:5342  bytes memory */\n      0x60\n        /* \"@openzeppelin/contracts/utils/Address.sol\":5387:5392  value */\n      dup3\n        /* \"@openzeppelin/contracts/utils/Address.sol\":5362:5383  address(this).balance */\n      selfbalance\n        /* \"@openzeppelin/contracts/utils/Address.sol\":5362:5392  address(this).balance >= value */\n      lt\n      iszero\n        /* \"@openzeppelin/contracts/utils/Address.sol\":5354:5435  require(address(this).balance >= value, \"Address: insufficient balance for call\") */\n      tag_275\n      jumpi\n      mload(0x40)\n      0x08c379a000000000000000000000000000000000000000000000000000000000\n      dup2\n      mstore\n      0x04\n      add\n      tag_276\n      swap1\n      tag_277\n      jump\t// in\n    tag_276:\n      mload(0x40)\n      dup1\n      swap2\n      sub\n      swap1\n      revert\n    tag_275:\n        /* \"@openzeppelin/contracts/utils/Address.sol\":5446:5458  bool success */\n      0x00\n        /* \"@openzeppelin/contracts/utils/Address.sol\":5460:5483  bytes memory returndata */\n      dup1\n        /* \"@openzeppelin/contracts/utils/Address.sol\":5487:5493  target */\n      dup7\n        /* \"@openzeppelin/contracts/utils/Address.sol\":5487:5498  target.call */\n      0xffffffffffffffffffffffffffffffffffffffff\n      and\n        /* \"@openzeppelin/contracts/utils/Address.sol\":5506:5511  value */\n      dup6\n        /* \"@openzeppelin/contracts/utils/Address.sol\":5513:5517  data */\n      dup8\n        /* \"@openzeppelin/contracts/utils/Address.sol\":5487:5518  target.call{value: value}(data) */\n      mload(0x40)\n      tag_278\n      swap2\n      swap1\n      tag_279\n      jump\t// in\n    tag_278:\n      0x00\n      mload(0x40)\n      dup1\n      dup4\n      sub\n      dup2\n      dup6\n      dup8\n      gas\n      call\n      swap3\n      pop\n      pop\n      pop\n      returndatasize\n      dup1\n      0x00\n      dup2\n      eq\n      tag_282\n      jumpi\n      mload(0x40)\n      swap2\n      pop\n      and(add(returndatasize, 0x3f), not(0x1f))\n      dup3\n      add\n      0x40\n      mstore\n      returndatasize\n      dup3\n      mstore\n      returndatasize\n      0x00\n      0x20\n      dup5\n      add\n      returndatacopy\n      jump(tag_281)\n    tag_282:\n      0x60\n      swap2\n      pop\n    tag_281:\n      pop\n        /* \"@openzeppelin/contracts/utils/Address.sol\":5445:5518  (bool success, bytes memory returndata) = target.call{value: value}(data) */\n      swap2\n      pop\n      swap2\n      pop\n        /* \"@openzeppelin/contracts/utils/Address.sol\":5535:5604  verifyCallResultFromTarget(target, success, returndata, errorMessage) */\n      tag_283\n        /* \"@openzeppelin/contracts/utils/Address.sol\":5562:5568  target */\n      dup8\n        /* \"@openzeppelin/contracts/utils/Address.sol\":5570:5577  success */\n      dup4\n        /* \"@openzeppelin/contracts/utils/Address.sol\":5579:5589  returndata */\n      dup4\n        /* \"@openzeppelin/contracts/utils/Address.sol\":5591:5603  errorMessage */\n      dup8\n        /* \"@openzeppelin/contracts/utils/Address.sol\":5535:5561  verifyCallResultFromTarget */\n      tag_284\n        /* \"@openzeppelin/contracts/utils/Address.sol\":5535:5604  verifyCallResultFromTarget(target, success, returndata, errorMessage) */\n      jump\t// in\n    tag_283:\n        /* \"@openzeppelin/contracts/utils/Address.sol\":5528:5604  return verifyCallResultFromTarget(target, success, returndata, errorMessage) */\n      swap3\n      pop\n      pop\n      pop\n        /* \"@openzeppelin/contracts/utils/Address.sol\":5165:5611  function functionCallWithValue(... */\n      swap5\n      swap4\n      pop\n      pop\n      pop\n      pop\n      jump\t// out\n        /* \"@openzeppelin/contracts/utils/Address.sol\":7671:8299  function verifyCallResultFromTarget(... */\n    tag_284:\n        /* \"@openzeppelin/contracts/utils/Address.sol\":7851:7863  bytes memory */\n      0x60\n        /* \"@openzeppelin/contracts/utils/Address.sol\":7879:7886  success */\n      dup4\n        /* \"@openzeppelin/contracts/utils/Address.sol\":7875:8293  if (success) {... */\n      iszero\n      tag_286\n      jumpi\n        /* \"@openzeppelin/contracts/utils/Address.sol\":7927:7928  0 */\n      0x00\n        /* \"@openzeppelin/contracts/utils/Address.sol\":7906:7916  returndata */\n      dup4\n        /* \"@openzeppelin/contracts/utils/Address.sol\":7906:7923  returndata.length */\n      mload\n        /* \"@openzeppelin/contracts/utils/Address.sol\":7906:7928  returndata.length == 0 */\n      sub\n        /* \"@openzeppelin/contracts/utils/Address.sol\":7902:8188  if (returndata.length == 0) {... */\n      tag_287\n      jumpi\n        /* \"@openzeppelin/contracts/utils/Address.sol\":8121:8139  isContract(target) */\n      tag_288\n        /* \"@openzeppelin/contracts/utils/Address.sol\":8132:8138  target */\n      dup6\n        /* \"@openzeppelin/contracts/utils/Address.sol\":8121:8131  isContract */\n      tag_289\n        /* \"@openzeppelin/contracts/utils/Address.sol\":8121:8139  isContract(target) */\n      jump\t// in\n    tag_288:\n        /* \"@openzeppelin/contracts/utils/Address.sol\":8113:8173  require(isContract(target), \"Address: call to non-contract\") */\n      tag_290\n      jumpi\n      mload(0x40)\n      0x08c379a000000000000000000000000000000000000000000000000000000000\n      dup2\n      mstore\n      0x04\n      add\n      tag_291\n      swap1\n      tag_292\n      jump\t// in\n    tag_291:\n      mload(0x40)\n      dup1\n      swap2\n      sub\n      swap1\n      revert\n    tag_290:\n        /* \"@openzeppelin/contracts/utils/Address.sol\":7902:8188  if (returndata.length == 0) {... */\n    tag_287:\n        /* \"@openzeppelin/contracts/utils/Address.sol\":8208:8218  returndata */\n      dup3\n        /* \"@openzeppelin/contracts/utils/Address.sol\":8201:8218  return returndata */\n      swap1\n      pop\n      jump(tag_285)\n        /* \"@openzeppelin/contracts/utils/Address.sol\":7875:8293  if (success) {... */\n    tag_286:\n        /* \"@openzeppelin/contracts/utils/Address.sol\":8249:8282  _revert(returndata, errorMessage) */\n      tag_294\n        /* \"@openzeppelin/contracts/utils/Address.sol\":8257:8267  returndata */\n      dup4\n        /* \"@openzeppelin/contracts/utils/Address.sol\":8269:8281  errorMessage */\n      dup4\n        /* \"@openzeppelin/contracts/utils/Address.sol\":8249:8256  _revert */\n      tag_295\n        /* \"@openzeppelin/contracts/utils/Address.sol\":8249:8282  _revert(returndata, errorMessage) */\n      jump\t// in\n    tag_294:\n        /* \"@openzeppelin/contracts/utils/Address.sol\":7671:8299  function verifyCallResultFromTarget(... */\n    tag_285:\n      swap5\n      swap4\n      pop\n      pop\n      pop\n      pop\n      jump\t// out\n        /* \"@openzeppelin/contracts/utils/Address.sol\":1412:1732  function isContract(address account) internal view returns (bool) {... */\n    tag_289:\n        /* \"@openzeppelin/contracts/utils/Address.sol\":1472:1476  bool */\n      0x00\n        /* \"@openzeppelin/contracts/utils/Address.sol\":1724:1725  0 */\n      dup1\n        /* \"@openzeppelin/contracts/utils/Address.sol\":1702:1709  account */\n      dup3\n        /* \"@openzeppelin/contracts/utils/Address.sol\":1702:1721  account.code.length */\n      0xffffffffffffffffffffffffffffffffffffffff\n      and\n      extcodesize\n        /* \"@openzeppelin/contracts/utils/Address.sol\":1702:1725  account.code.length > 0 */\n      gt\n        /* \"@openzeppelin/contracts/utils/Address.sol\":1695:1725  return account.code.length > 0 */\n      swap1\n      pop\n        /* \"@openzeppelin/contracts/utils/Address.sol\":1412:1732  function isContract(address account) internal view returns (bool) {... */\n      swap2\n      swap1\n      pop\n      jump\t// out\n        /* \"@openzeppelin/contracts/utils/Address.sol\":8821:9361  function _revert(bytes memory returndata, string memory errorMessage) private pure {... */\n    tag_295:\n        /* \"@openzeppelin/contracts/utils/Address.sol\":9000:9001  0 */\n      0x00\n        /* \"@openzeppelin/contracts/utils/Address.sol\":8980:8990  returndata */\n      dup3\n        /* \"@openzeppelin/contracts/utils/Address.sol\":8980:8997  returndata.length */\n      mload\n        /* \"@openzeppelin/contracts/utils/Address.sol\":8980:9001  returndata.length > 0 */\n      gt\n        /* \"@openzeppelin/contracts/utils/Address.sol\":8976:9355  if (returndata.length > 0) {... */\n      iszero\n      tag_298\n      jumpi\n        /* \"@openzeppelin/contracts/utils/Address.sol\":9208:9218  returndata */\n      dup2\n        /* \"@openzeppelin/contracts/utils/Address.sol\":9202:9219  mload(returndata) */\n      mload\n        /* \"@openzeppelin/contracts/utils/Address.sol\":9264:9279  returndata_size */\n      dup1\n        /* \"@openzeppelin/contracts/utils/Address.sol\":9251:9261  returndata */\n      dup4\n        /* \"@openzeppelin/contracts/utils/Address.sol\":9247:9249  32 */\n      0x20\n        /* \"@openzeppelin/contracts/utils/Address.sol\":9243:9262  add(32, returndata) */\n      add\n        /* \"@openzeppelin/contracts/utils/Address.sol\":9236:9280  revert(add(32, returndata), returndata_size) */\n      revert\n        /* \"@openzeppelin/contracts/utils/Address.sol\":8976:9355  if (returndata.length > 0) {... */\n    tag_298:\n        /* \"@openzeppelin/contracts/utils/Address.sol\":9331:9343  errorMessage */\n      dup1\n        /* \"@openzeppelin/contracts/utils/Address.sol\":9324:9344  revert(errorMessage) */\n      mload(0x40)\n      0x08c379a000000000000000000000000000000000000000000000000000000000\n      dup2\n      mstore\n      0x04\n      add\n      tag_300\n      swap2\n      swap1\n      tag_228\n      jump\t// in\n    tag_300:\n      mload(0x40)\n      dup1\n      swap2\n      sub\n      swap1\n      revert\n        /* \"#utility.yul\":88:205   */\n    tag_302:\n        /* \"#utility.yul\":197:198   */\n      0x00\n        /* \"#utility.yul\":194:195   */\n      dup1\n        /* \"#utility.yul\":187:199   */\n      revert\n        /* \"#utility.yul\":334:483   */\n    tag_304:\n        /* \"#utility.yul\":370:377   */\n      0x00\n        /* \"#utility.yul\":410:476   */\n      0xffffffff00000000000000000000000000000000000000000000000000000000\n        /* \"#utility.yul\":403:408   */\n      dup3\n        /* \"#utility.yul\":399:477   */\n      and\n        /* \"#utility.yul\":388:477   */\n      swap1\n      pop\n        /* \"#utility.yul\":334:483   */\n      swap2\n      swap1\n      pop\n      jump\t// out\n        /* \"#utility.yul\":489:609   */\n    tag_305:\n        /* \"#utility.yul\":561:584   */\n      tag_370\n        /* \"#utility.yul\":578:583   */\n      dup2\n        /* \"#utility.yul\":561:584   */\n      tag_304\n      jump\t// in\n    tag_370:\n        /* \"#utility.yul\":554:559   */\n      dup2\n        /* \"#utility.yul\":551:585   */\n      eq\n        /* \"#utility.yul\":541:603   */\n      tag_371\n      jumpi\n        /* \"#utility.yul\":599:600   */\n      0x00\n        /* \"#utility.yul\":596:597   */\n      dup1\n        /* \"#utility.yul\":589:601   */\n      revert\n        /* \"#utility.yul\":541:603   */\n    tag_371:\n        /* \"#utility.yul\":489:609   */\n      pop\n      jump\t// out\n        /* \"#utility.yul\":615:752   */\n    tag_306:\n        /* \"#utility.yul\":660:665   */\n      0x00\n        /* \"#utility.yul\":698:704   */\n      dup2\n        /* \"#utility.yul\":685:705   */\n      calldataload\n        /* \"#utility.yul\":676:705   */\n      swap1\n      pop\n        /* \"#utility.yul\":714:746   */\n      tag_373\n        /* \"#utility.yul\":740:745   */\n      dup2\n        /* \"#utility.yul\":714:746   */\n      tag_305\n      jump\t// in\n    tag_373:\n        /* \"#utility.yul\":615:752   */\n      swap3\n      swap2\n      pop\n      pop\n      jump\t// out\n        /* \"#utility.yul\":758:1085   */\n    tag_34:\n        /* \"#utility.yul\":816:822   */\n      0x00\n        /* \"#utility.yul\":865:867   */\n      0x20\n        /* \"#utility.yul\":853:862   */\n      dup3\n        /* \"#utility.yul\":844:851   */\n      dup5\n        /* \"#utility.yul\":840:863   */\n      sub\n        /* \"#utility.yul\":836:868   */\n      slt\n        /* \"#utility.yul\":833:952   */\n      iszero\n      tag_375\n      jumpi\n        /* \"#utility.yul\":871:950   */\n      tag_376\n      tag_302\n      jump\t// in\n    tag_376:\n        /* \"#utility.yul\":833:952   */\n    tag_375:\n        /* \"#utility.yul\":991:992   */\n      0x00\n        /* \"#utility.yul\":1016:1068   */\n      tag_377\n        /* \"#utility.yul\":1060:1067   */\n      dup5\n        /* \"#utility.yul\":1051:1057   */\n      dup3\n        /* \"#utility.yul\":1040:1049   */\n      dup6\n        /* \"#utility.yul\":1036:1058   */\n      add\n        /* \"#utility.yul\":1016:1068   */\n      tag_306\n      jump\t// in\n    tag_377:\n        /* \"#utility.yul\":1006:1068   */\n      swap2\n      pop\n        /* \"#utility.yul\":962:1078   */\n      pop\n        /* \"#utility.yul\":758:1085   */\n      swap3\n      swap2\n      pop\n      pop\n      jump\t// out\n        /* \"#utility.yul\":1091:1181   */\n    tag_307:\n        /* \"#utility.yul\":1125:1132   */\n      0x00\n        /* \"#utility.yul\":1168:1173   */\n      dup2\n        /* \"#utility.yul\":1161:1174   */\n      iszero\n        /* \"#utility.yul\":1154:1175   */\n      iszero\n        /* \"#utility.yul\":1143:1175   */\n      swap1\n      pop\n        /* \"#utility.yul\":1091:1181   */\n      swap2\n      swap1\n      pop\n      jump\t// out\n        /* \"#utility.yul\":1187:1296   */\n    tag_308:\n        /* \"#utility.yul\":1268:1289   */\n      tag_380\n        /* \"#utility.yul\":1283:1288   */\n      dup2\n        /* \"#utility.yul\":1268:1289   */\n      tag_307\n      jump\t// in\n    tag_380:\n        /* \"#utility.yul\":1263:1266   */\n      dup3\n        /* \"#utility.yul\":1256:1290   */\n      mstore\n        /* \"#utility.yul\":1187:1296   */\n      pop\n      pop\n      jump\t// out\n        /* \"#utility.yul\":1302:1512   */\n    tag_37:\n        /* \"#utility.yul\":1389:1393   */\n      0x00\n        /* \"#utility.yul\":1427:1429   */\n      0x20\n        /* \"#utility.yul\":1416:1425   */\n      dup3\n        /* \"#utility.yul\":1412:1430   */\n      add\n        /* \"#utility.yul\":1404:1430   */\n      swap1\n      pop\n        /* \"#utility.yul\":1440:1505   */\n      tag_382\n        /* \"#utility.yul\":1502:1503   */\n      0x00\n        /* \"#utility.yul\":1491:1500   */\n      dup4\n        /* \"#utility.yul\":1487:1504   */\n      add\n        /* \"#utility.yul\":1478:1484   */\n      dup5\n        /* \"#utility.yul\":1440:1505   */\n      tag_308\n      jump\t// in\n    tag_382:\n        /* \"#utility.yul\":1302:1512   */\n      swap3\n      swap2\n      pop\n      pop\n      jump\t// out\n        /* \"#utility.yul\":1518:1644   */\n    tag_309:\n        /* \"#utility.yul\":1555:1562   */\n      0x00\n        /* \"#utility.yul\":1595:1637   */\n      0xffffffffffffffffffffffffffffffffffffffff\n        /* \"#utility.yul\":1588:1593   */\n      dup3\n        /* \"#utility.yul\":1584:1638   */\n      and\n        /* \"#utility.yul\":1573:1638   */\n      swap1\n      pop\n        /* \"#utility.yul\":1518:1644   */\n      swap2\n      swap1\n      pop\n      jump\t// out\n        /* \"#utility.yul\":1650:1746   */\n    tag_310:\n        /* \"#utility.yul\":1687:1694   */\n      0x00\n        /* \"#utility.yul\":1716:1740   */\n      tag_385\n        /* \"#utility.yul\":1734:1739   */\n      dup3\n        /* \"#utility.yul\":1716:1740   */\n      tag_309\n      jump\t// in\n    tag_385:\n        /* \"#utility.yul\":1705:1740   */\n      swap1\n      pop\n        /* \"#utility.yul\":1650:1746   */\n      swap2\n      swap1\n      pop\n      jump\t// out\n        /* \"#utility.yul\":1752:1874   */\n    tag_311:\n        /* \"#utility.yul\":1825:1849   */\n      tag_387\n        /* \"#utility.yul\":1843:1848   */\n      dup2\n        /* \"#utility.yul\":1825:1849   */\n      tag_310\n      jump\t// in\n    tag_387:\n        /* \"#utility.yul\":1818:1823   */\n      dup2\n        /* \"#utility.yul\":1815:1850   */\n      eq\n        /* \"#utility.yul\":1805:1868   */\n      tag_388\n      jumpi\n        /* \"#utility.yul\":1864:1865   */\n      0x00\n        /* \"#utility.yul\":1861:1862   */\n      dup1\n        /* \"#utility.yul\":1854:1866   */\n      revert\n        /* \"#utility.yul\":1805:1868   */\n    tag_388:\n        /* \"#utility.yul\":1752:1874   */\n      pop\n      jump\t// out\n        /* \"#utility.yul\":1880:2019   */\n    tag_312:\n        /* \"#utility.yul\":1926:1931   */\n      0x00\n        /* \"#utility.yul\":1964:1970   */\n      dup2\n        /* \"#utility.yul\":1951:1971   */\n      calldataload\n        /* \"#utility.yul\":1942:1971   */\n      swap1\n      pop\n        /* \"#utility.yul\":1980:2013   */\n      tag_390\n        /* \"#utility.yul\":2007:2012   */\n      dup2\n        /* \"#utility.yul\":1980:2013   */\n      tag_311\n      jump\t// in\n    tag_390:\n        /* \"#utility.yul\":1880:2019   */\n      swap3\n      swap2\n      pop\n      pop\n      jump\t// out\n        /* \"#utility.yul\":2025:2354   */\n    tag_41:\n        /* \"#utility.yul\":2084:2090   */\n      0x00\n        /* \"#utility.yul\":2133:2135   */\n      0x20\n        /* \"#utility.yul\":2121:2130   */\n      dup3\n        /* \"#utility.yul\":2112:2119   */\n      dup5\n        /* \"#utility.yul\":2108:2131   */\n      sub\n        /* \"#utility.yul\":2104:2136   */\n      slt\n        /* \"#utility.yul\":2101:2220   */\n      iszero\n      tag_392\n      jumpi\n        /* \"#utility.yul\":2139:2218   */\n      tag_393\n      tag_302\n      jump\t// in\n    tag_393:\n        /* \"#utility.yul\":2101:2220   */\n    tag_392:\n        /* \"#utility.yul\":2259:2260   */\n      0x00\n        /* \"#utility.yul\":2284:2337   */\n      tag_394\n        /* \"#utility.yul\":2329:2336   */\n      dup5\n        /* \"#utility.yul\":2320:2326   */\n      dup3\n        /* \"#utility.yul\":2309:2318   */\n      dup6\n        /* \"#utility.yul\":2305:2327   */\n      add\n        /* \"#utility.yul\":2284:2337   */\n      tag_312\n      jump\t// in\n    tag_394:\n        /* \"#utility.yul\":2274:2337   */\n      swap2\n      pop\n        /* \"#utility.yul\":2230:2347   */\n      pop\n        /* \"#utility.yul\":2025:2354   */\n      swap3\n      swap2\n      pop\n      pop\n      jump\t// out\n        /* \"#utility.yul\":2360:2437   */\n    tag_313:\n        /* \"#utility.yul\":2397:2404   */\n      0x00\n        /* \"#utility.yul\":2426:2431   */\n      dup2\n        /* \"#utility.yul\":2415:2431   */\n      swap1\n      pop\n        /* \"#utility.yul\":2360:2437   */\n      swap2\n      swap1\n      pop\n      jump\t// out\n        /* \"#utility.yul\":2443:2561   */\n    tag_314:\n        /* \"#utility.yul\":2530:2554   */\n      tag_397\n        /* \"#utility.yul\":2548:2553   */\n      dup2\n        /* \"#utility.yul\":2530:2554   */\n      tag_313\n      jump\t// in\n    tag_397:\n        /* \"#utility.yul\":2525:2528   */\n      dup3\n        /* \"#utility.yul\":2518:2555   */\n      mstore\n        /* \"#utility.yul\":2443:2561   */\n      pop\n      pop\n      jump\t// out\n        /* \"#utility.yul\":2567:2789   */\n    tag_44:\n        /* \"#utility.yul\":2660:2664   */\n      0x00\n        /* \"#utility.yul\":2698:2700   */\n      0x20\n        /* \"#utility.yul\":2687:2696   */\n      dup3\n        /* \"#utility.yul\":2683:2701   */\n      add\n        /* \"#utility.yul\":2675:2701   */\n      swap1\n      pop\n        /* \"#utility.yul\":2711:2782   */\n      tag_399\n        /* \"#utility.yul\":2779:2780   */\n      0x00\n        /* \"#utility.yul\":2768:2777   */\n      dup4\n        /* \"#utility.yul\":2764:2781   */\n      add\n        /* \"#utility.yul\":2755:2761   */\n      dup5\n        /* \"#utility.yul\":2711:2782   */\n      tag_314\n      jump\t// in\n    tag_399:\n        /* \"#utility.yul\":2567:2789   */\n      swap3\n      swap2\n      pop\n      pop\n      jump\t// out\n        /* \"#utility.yul\":2795:2872   */\n    tag_315:\n        /* \"#utility.yul\":2832:2839   */\n      0x00\n        /* \"#utility.yul\":2861:2866   */\n      dup2\n        /* \"#utility.yul\":2850:2866   */\n      swap1\n      pop\n        /* \"#utility.yul\":2795:2872   */\n      swap2\n      swap1\n      pop\n      jump\t// out\n        /* \"#utility.yul\":2878:3000   */\n    tag_316:\n        /* \"#utility.yul\":2951:2975   */\n      tag_402\n        /* \"#utility.yul\":2969:2974   */\n      dup2\n        /* \"#utility.yul\":2951:2975   */\n      tag_315\n      jump\t// in\n    tag_402:\n        /* \"#utility.yul\":2944:2949   */\n      dup2\n        /* \"#utility.yul\":2941:2976   */\n      eq\n        /* \"#utility.yul\":2931:2994   */\n      tag_403\n      jumpi\n        /* \"#utility.yul\":2990:2991   */\n      0x00\n        /* \"#utility.yul\":2987:2988   */\n      dup1\n        /* \"#utility.yul\":2980:2992   */\n      revert\n        /* \"#utility.yul\":2931:2994   */\n    tag_403:\n        /* \"#utility.yul\":2878:3000   */\n      pop\n      jump\t// out\n        /* \"#utility.yul\":3006:3145   */\n    tag_317:\n        /* \"#utility.yul\":3052:3057   */\n      0x00\n        /* \"#utility.yul\":3090:3096   */\n      dup2\n        /* \"#utility.yul\":3077:3097   */\n      calldataload\n        /* \"#utility.yul\":3068:3097   */\n      swap1\n      pop\n        /* \"#utility.yul\":3106:3139   */\n      tag_405\n        /* \"#utility.yul\":3133:3138   */\n      dup2\n        /* \"#utility.yul\":3106:3139   */\n      tag_316\n      jump\t// in\n    tag_405:\n        /* \"#utility.yul\":3006:3145   */\n      swap3\n      swap2\n      pop\n      pop\n      jump\t// out\n        /* \"#utility.yul\":3151:3480   */\n    tag_48:\n        /* \"#utility.yul\":3210:3216   */\n      0x00\n        /* \"#utility.yul\":3259:3261   */\n      0x20\n        /* \"#utility.yul\":3247:3256   */\n      dup3\n        /* \"#utility.yul\":3238:3245   */\n      dup5\n        /* \"#utility.yul\":3234:3257   */\n      sub\n        /* \"#utility.yul\":3230:3262   */\n      slt\n        /* \"#utility.yul\":3227:3346   */\n      iszero\n      tag_407\n      jumpi\n        /* \"#utility.yul\":3265:3344   */\n      tag_408\n      tag_302\n      jump\t// in\n    tag_408:\n        /* \"#utility.yul\":3227:3346   */\n    tag_407:\n        /* \"#utility.yul\":3385:3386   */\n      0x00\n        /* \"#utility.yul\":3410:3463   */\n      tag_409\n        /* \"#utility.yul\":3455:3462   */\n      dup5\n        /* \"#utility.yul\":3446:3452   */\n      dup3\n        /* \"#utility.yul\":3435:3444   */\n      dup6\n        /* \"#utility.yul\":3431:3453   */\n      add\n        /* \"#utility.yul\":3410:3463   */\n      tag_317\n      jump\t// in\n    tag_409:\n        /* \"#utility.yul\":3400:3463   */\n      swap2\n      pop\n        /* \"#utility.yul\":3356:3473   */\n      pop\n        /* \"#utility.yul\":3151:3480   */\n      swap3\n      swap2\n      pop\n      pop\n      jump\t// out\n        /* \"#utility.yul\":3486:3604   */\n    tag_318:\n        /* \"#utility.yul\":3573:3597   */\n      tag_411\n        /* \"#utility.yul\":3591:3596   */\n      dup2\n        /* \"#utility.yul\":3573:3597   */\n      tag_315\n      jump\t// in\n    tag_411:\n        /* \"#utility.yul\":3568:3571   */\n      dup3\n        /* \"#utility.yul\":3561:3598   */\n      mstore\n        /* \"#utility.yul\":3486:3604   */\n      pop\n      pop\n      jump\t// out\n        /* \"#utility.yul\":3610:3832   */\n    tag_51:\n        /* \"#utility.yul\":3703:3707   */\n      0x00\n        /* \"#utility.yul\":3741:3743   */\n      0x20\n        /* \"#utility.yul\":3730:3739   */\n      dup3\n        /* \"#utility.yul\":3726:3744   */\n      add\n        /* \"#utility.yul\":3718:3744   */\n      swap1\n      pop\n        /* \"#utility.yul\":3754:3825   */\n      tag_413\n        /* \"#utility.yul\":3822:3823   */\n      0x00\n        /* \"#utility.yul\":3811:3820   */\n      dup4\n        /* \"#utility.yul\":3807:3824   */\n      add\n        /* \"#utility.yul\":3798:3804   */\n      dup5\n        /* \"#utility.yul\":3754:3825   */\n      tag_318\n      jump\t// in\n    tag_413:\n        /* \"#utility.yul\":3610:3832   */\n      swap3\n      swap2\n      pop\n      pop\n      jump\t// out\n        /* \"#utility.yul\":3838:4312   */\n    tag_59:\n        /* \"#utility.yul\":3906:3912   */\n      0x00\n        /* \"#utility.yul\":3914:3920   */\n      dup1\n        /* \"#utility.yul\":3963:3965   */\n      0x40\n        /* \"#utility.yul\":3951:3960   */\n      dup4\n        /* \"#utility.yul\":3942:3949   */\n      dup6\n        /* \"#utility.yul\":3938:3961   */\n      sub\n        /* \"#utility.yul\":3934:3966   */\n      slt\n        /* \"#utility.yul\":3931:4050   */\n      iszero\n      tag_415\n      jumpi\n        /* \"#utility.yul\":3969:4048   */\n      tag_416\n      tag_302\n      jump\t// in\n    tag_416:\n        /* \"#utility.yul\":3931:4050   */\n    tag_415:\n        /* \"#utility.yul\":4089:4090   */\n      0x00\n        /* \"#utility.yul\":4114:4167   */\n      tag_417\n        /* \"#utility.yul\":4159:4166   */\n      dup6\n        /* \"#utility.yul\":4150:4156   */\n      dup3\n        /* \"#utility.yul\":4139:4148   */\n      dup7\n        /* \"#utility.yul\":4135:4157   */\n      add\n        /* \"#utility.yul\":4114:4167   */\n      tag_317\n      jump\t// in\n    tag_417:\n        /* \"#utility.yul\":4104:4167   */\n      swap3\n      pop\n        /* \"#utility.yul\":4060:4177   */\n      pop\n        /* \"#utility.yul\":4216:4218   */\n      0x20\n        /* \"#utility.yul\":4242:4295   */\n      tag_418\n        /* \"#utility.yul\":4287:4294   */\n      dup6\n        /* \"#utility.yul\":4278:4284   */\n      dup3\n        /* \"#utility.yul\":4267:4276   */\n      dup7\n        /* \"#utility.yul\":4263:4285   */\n      add\n        /* \"#utility.yul\":4242:4295   */\n      tag_312\n      jump\t// in\n    tag_418:\n        /* \"#utility.yul\":4232:4295   */\n      swap2\n      pop\n        /* \"#utility.yul\":4187:4305   */\n      pop\n        /* \"#utility.yul\":3838:4312   */\n      swap3\n      pop\n      swap3\n      swap1\n      pop\n      jump\t// out\n        /* \"#utility.yul\":4318:4422   */\n    tag_319:\n        /* \"#utility.yul\":4363:4370   */\n      0x00\n        /* \"#utility.yul\":4392:4416   */\n      tag_420\n        /* \"#utility.yul\":4410:4415   */\n      dup3\n        /* \"#utility.yul\":4392:4416   */\n      tag_309\n      jump\t// in\n    tag_420:\n        /* \"#utility.yul\":4381:4416   */\n      swap1\n      pop\n        /* \"#utility.yul\":4318:4422   */\n      swap2\n      swap1\n      pop\n      jump\t// out\n        /* \"#utility.yul\":4428:4570   */\n    tag_320:\n        /* \"#utility.yul\":4531:4563   */\n      tag_422\n        /* \"#utility.yul\":4557:4562   */\n      dup2\n        /* \"#utility.yul\":4531:4563   */\n      tag_319\n      jump\t// in\n    tag_422:\n        /* \"#utility.yul\":4526:4529   */\n      dup3\n        /* \"#utility.yul\":4519:4564   */\n      mstore\n        /* \"#utility.yul\":4428:4570   */\n      pop\n      pop\n      jump\t// out\n        /* \"#utility.yul\":4576:4830   */\n    tag_73:\n        /* \"#utility.yul\":4685:4689   */\n      0x00\n        /* \"#utility.yul\":4723:4725   */\n      0x20\n        /* \"#utility.yul\":4712:4721   */\n      dup3\n        /* \"#utility.yul\":4708:4726   */\n      add\n        /* \"#utility.yul\":4700:4726   */\n      swap1\n      pop\n        /* \"#utility.yul\":4736:4823   */\n      tag_424\n        /* \"#utility.yul\":4820:4821   */\n      0x00\n        /* \"#utility.yul\":4809:4818   */\n      dup4\n        /* \"#utility.yul\":4805:4822   */\n      add\n        /* \"#utility.yul\":4796:4802   */\n      dup5\n        /* \"#utility.yul\":4736:4823   */\n      tag_320\n      jump\t// in\n    tag_424:\n        /* \"#utility.yul\":4576:4830   */\n      swap3\n      swap2\n      pop\n      pop\n      jump\t// out\n        /* \"#utility.yul\":4836:4958   */\n    tag_321:\n        /* \"#utility.yul\":4909:4933   */\n      tag_426\n        /* \"#utility.yul\":4927:4932   */\n      dup2\n        /* \"#utility.yul\":4909:4933   */\n      tag_313\n      jump\t// in\n    tag_426:\n        /* \"#utility.yul\":4902:4907   */\n      dup2\n        /* \"#utility.yul\":4899:4934   */\n      eq\n        /* \"#utility.yul\":4889:4952   */\n      tag_427\n      jumpi\n        /* \"#utility.yul\":4948:4949   */\n      0x00\n        /* \"#utility.yul\":4945:4946   */\n      dup1\n        /* \"#utility.yul\":4938:4950   */\n      revert\n        /* \"#utility.yul\":4889:4952   */\n    tag_427:\n        /* \"#utility.yul\":4836:4958   */\n      pop\n      jump\t// out\n        /* \"#utility.yul\":4964:5103   */\n    tag_322:\n        /* \"#utility.yul\":5010:5015   */\n      0x00\n        /* \"#utility.yul\":5048:5054   */\n      dup2\n        /* \"#utility.yul\":5035:5055   */\n      calldataload\n        /* \"#utility.yul\":5026:5055   */\n      swap1\n      pop\n        /* \"#utility.yul\":5064:5097   */\n      tag_429\n        /* \"#utility.yul\":5091:5096   */\n      dup2\n        /* \"#utility.yul\":5064:5097   */\n      tag_321\n      jump\t// in\n    tag_429:\n        /* \"#utility.yul\":4964:5103   */\n      swap3\n      swap2\n      pop\n      pop\n      jump\t// out\n        /* \"#utility.yul\":5109:5583   */\n    tag_77:\n        /* \"#utility.yul\":5177:5183   */\n      0x00\n        /* \"#utility.yul\":5185:5191   */\n      dup1\n        /* \"#utility.yul\":5234:5236   */\n      0x40\n        /* \"#utility.yul\":5222:5231   */\n      dup4\n        /* \"#utility.yul\":5213:5220   */\n      dup6\n        /* \"#utility.yul\":5209:5232   */\n      sub\n        /* \"#utility.yul\":5205:5237   */\n      slt\n        /* \"#utility.yul\":5202:5321   */\n      iszero\n      tag_431\n      jumpi\n        /* \"#utility.yul\":5240:5319   */\n      tag_432\n      tag_302\n      jump\t// in\n    tag_432:\n        /* \"#utility.yul\":5202:5321   */\n    tag_431:\n        /* \"#utility.yul\":5360:5361   */\n      0x00\n        /* \"#utility.yul\":5385:5438   */\n      tag_433\n        /* \"#utility.yul\":5430:5437   */\n      dup6\n        /* \"#utility.yul\":5421:5427   */\n      dup3\n        /* \"#utility.yul\":5410:5419   */\n      dup7\n        /* \"#utility.yul\":5406:5428   */\n      add\n        /* \"#utility.yul\":5385:5438   */\n      tag_312\n      jump\t// in\n    tag_433:\n        /* \"#utility.yul\":5375:5438   */\n      swap3\n      pop\n        /* \"#utility.yul\":5331:5448   */\n      pop\n        /* \"#utility.yul\":5487:5489   */\n      0x20\n        /* \"#utility.yul\":5513:5566   */\n      tag_434\n        /* \"#utility.yul\":5558:5565   */\n      dup6\n        /* \"#utility.yul\":5549:5555   */\n      dup3\n        /* \"#utility.yul\":5538:5547   */\n      dup7\n        /* \"#utility.yul\":5534:5556   */\n      add\n        /* \"#utility.yul\":5513:5566   */\n      tag_322\n      jump\t// in\n    tag_434:\n        /* \"#utility.yul\":5503:5566   */\n      swap2\n      pop\n        /* \"#utility.yul\":5458:5576   */\n      pop\n        /* \"#utility.yul\":5109:5583   */\n      swap3\n      pop\n      swap3\n      swap1\n      pop\n      jump\t// out\n        /* \"#utility.yul\":5589:5649   */\n    tag_323:\n        /* \"#utility.yul\":5617:5620   */\n      0x00\n        /* \"#utility.yul\":5638:5643   */\n      dup2\n        /* \"#utility.yul\":5631:5643   */\n      swap1\n      pop\n        /* \"#utility.yul\":5589:5649   */\n      swap2\n      swap1\n      pop\n      jump\t// out\n        /* \"#utility.yul\":5655:5797   */\n    tag_324:\n        /* \"#utility.yul\":5705:5714   */\n      0x00\n        /* \"#utility.yul\":5738:5791   */\n      tag_437\n        /* \"#utility.yul\":5756:5790   */\n      tag_438\n        /* \"#utility.yul\":5765:5789   */\n      tag_439\n        /* \"#utility.yul\":5783:5788   */\n      dup5\n        /* \"#utility.yul\":5765:5789   */\n      tag_309\n      jump\t// in\n    tag_439:\n        /* \"#utility.yul\":5756:5790   */\n      tag_323\n      jump\t// in\n    tag_438:\n        /* \"#utility.yul\":5738:5791   */\n      tag_309\n      jump\t// in\n    tag_437:\n        /* \"#utility.yul\":5725:5791   */\n      swap1\n      pop\n        /* \"#utility.yul\":5655:5797   */\n      swap2\n      swap1\n      pop\n      jump\t// out\n        /* \"#utility.yul\":5803:5929   */\n    tag_325:\n        /* \"#utility.yul\":5853:5862   */\n      0x00\n        /* \"#utility.yul\":5886:5923   */\n      tag_441\n        /* \"#utility.yul\":5917:5922   */\n      dup3\n        /* \"#utility.yul\":5886:5923   */\n      tag_324\n      jump\t// in\n    tag_441:\n        /* \"#utility.yul\":5873:5923   */\n      swap1\n      pop\n        /* \"#utility.yul\":5803:5929   */\n      swap2\n      swap1\n      pop\n      jump\t// out\n        /* \"#utility.yul\":5935:6075   */\n    tag_326:\n        /* \"#utility.yul\":5999:6008   */\n      0x00\n        /* \"#utility.yul\":6032:6069   */\n      tag_443\n        /* \"#utility.yul\":6063:6068   */\n      dup3\n        /* \"#utility.yul\":6032:6069   */\n      tag_325\n      jump\t// in\n    tag_443:\n        /* \"#utility.yul\":6019:6069   */\n      swap1\n      pop\n        /* \"#utility.yul\":5935:6075   */\n      swap2\n      swap1\n      pop\n      jump\t// out\n        /* \"#utility.yul\":6081:6240   */\n    tag_327:\n        /* \"#utility.yul\":6182:6233   */\n      tag_445\n        /* \"#utility.yul\":6227:6232   */\n      dup2\n        /* \"#utility.yul\":6182:6233   */\n      tag_326\n      jump\t// in\n    tag_445:\n        /* \"#utility.yul\":6177:6180   */\n      dup3\n        /* \"#utility.yul\":6170:6234   */\n      mstore\n        /* \"#utility.yul\":6081:6240   */\n      pop\n      pop\n      jump\t// out\n        /* \"#utility.yul\":6246:6496   */\n    tag_103:\n        /* \"#utility.yul\":6353:6357   */\n      0x00\n        /* \"#utility.yul\":6391:6393   */\n      0x20\n        /* \"#utility.yul\":6380:6389   */\n      dup3\n        /* \"#utility.yul\":6376:6394   */\n      add\n        /* \"#utility.yul\":6368:6394   */\n      swap1\n      pop\n        /* \"#utility.yul\":6404:6489   */\n      tag_447\n        /* \"#utility.yul\":6486:6487   */\n      0x00\n        /* \"#utility.yul\":6475:6484   */\n      dup4\n        /* \"#utility.yul\":6471:6488   */\n      add\n        /* \"#utility.yul\":6462:6468   */\n      dup5\n        /* \"#utility.yul\":6404:6489   */\n      tag_327\n      jump\t// in\n    tag_447:\n        /* \"#utility.yul\":6246:6496   */\n      swap3\n      swap2\n      pop\n      pop\n      jump\t// out\n        /* \"#utility.yul\":6502:6834   */\n    tag_119:\n        /* \"#utility.yul\":6623:6627   */\n      0x00\n        /* \"#utility.yul\":6661:6663   */\n      0x40\n        /* \"#utility.yul\":6650:6659   */\n      dup3\n        /* \"#utility.yul\":6646:6664   */\n      add\n        /* \"#utility.yul\":6638:6664   */\n      swap1\n      pop\n        /* \"#utility.yul\":6674:6745   */\n      tag_449\n        /* \"#utility.yul\":6742:6743   */\n      0x00\n        /* \"#utility.yul\":6731:6740   */\n      dup4\n        /* \"#utility.yul\":6727:6744   */\n      add\n        /* \"#utility.yul\":6718:6724   */\n      dup6\n        /* \"#utility.yul\":6674:6745   */\n      tag_314\n      jump\t// in\n    tag_449:\n        /* \"#utility.yul\":6755:6827   */\n      tag_450\n        /* \"#utility.yul\":6823:6825   */\n      0x20\n        /* \"#utility.yul\":6812:6821   */\n      dup4\n        /* \"#utility.yul\":6808:6826   */\n      add\n        /* \"#utility.yul\":6799:6805   */\n      dup5\n        /* \"#utility.yul\":6755:6827   */\n      tag_314\n      jump\t// in\n    tag_450:\n        /* \"#utility.yul\":6502:6834   */\n      swap4\n      swap3\n      pop\n      pop\n      pop\n      jump\t// out\n        /* \"#utility.yul\":6840:7009   */\n    tag_328:\n        /* \"#utility.yul\":6924:6935   */\n      0x00\n        /* \"#utility.yul\":6958:6964   */\n      dup3\n        /* \"#utility.yul\":6953:6956   */\n      dup3\n        /* \"#utility.yul\":6946:6965   */\n      mstore\n        /* \"#utility.yul\":6998:7002   */\n      0x20\n        /* \"#utility.yul\":6993:6996   */\n      dup3\n        /* \"#utility.yul\":6989:7003   */\n      add\n        /* \"#utility.yul\":6974:7003   */\n      swap1\n      pop\n        /* \"#utility.yul\":6840:7009   */\n      swap3\n      swap2\n      pop\n      pop\n      jump\t// out\n        /* \"#utility.yul\":7015:7249   */\n    tag_329:\n        /* \"#utility.yul\":7155:7189   */\n      0x416363657373436f6e74726f6c3a2063616e206f6e6c792072656e6f756e6365\n        /* \"#utility.yul\":7151:7152   */\n      0x00\n        /* \"#utility.yul\":7143:7149   */\n      dup3\n        /* \"#utility.yul\":7139:7153   */\n      add\n        /* \"#utility.yul\":7132:7190   */\n      mstore\n        /* \"#utility.yul\":7224:7241   */\n      0x20726f6c657320666f722073656c660000000000000000000000000000000000\n        /* \"#utility.yul\":7219:7221   */\n      0x20\n        /* \"#utility.yul\":7211:7217   */\n      dup3\n        /* \"#utility.yul\":7207:7222   */\n      add\n        /* \"#utility.yul\":7200:7242   */\n      mstore\n        /* \"#utility.yul\":7015:7249   */\n      pop\n      jump\t// out\n        /* \"#utility.yul\":7255:7621   */\n    tag_330:\n        /* \"#utility.yul\":7397:7400   */\n      0x00\n        /* \"#utility.yul\":7418:7485   */\n      tag_454\n        /* \"#utility.yul\":7482:7484   */\n      0x2f\n        /* \"#utility.yul\":7477:7480   */\n      dup4\n        /* \"#utility.yul\":7418:7485   */\n      tag_328\n      jump\t// in\n    tag_454:\n        /* \"#utility.yul\":7411:7485   */\n      swap2\n      pop\n        /* \"#utility.yul\":7494:7587   */\n      tag_455\n        /* \"#utility.yul\":7583:7586   */\n      dup3\n        /* \"#utility.yul\":7494:7587   */\n      tag_329\n      jump\t// in\n    tag_455:\n        /* \"#utility.yul\":7612:7614   */\n      0x40\n        /* \"#utility.yul\":7607:7610   */\n      dup3\n        /* \"#utility.yul\":7603:7615   */\n      add\n        /* \"#utility.yul\":7596:7615   */\n      swap1\n      pop\n        /* \"#utility.yul\":7255:7621   */\n      swap2\n      swap1\n      pop\n      jump\t// out\n        /* \"#utility.yul\":7627:8046   */\n    tag_146:\n        /* \"#utility.yul\":7793:7797   */\n      0x00\n        /* \"#utility.yul\":7831:7833   */\n      0x20\n        /* \"#utility.yul\":7820:7829   */\n      dup3\n        /* \"#utility.yul\":7816:7834   */\n      add\n        /* \"#utility.yul\":7808:7834   */\n      swap1\n      pop\n        /* \"#utility.yul\":7880:7889   */\n      dup2\n        /* \"#utility.yul\":7874:7878   */\n      dup2\n        /* \"#utility.yul\":7870:7890   */\n      sub\n        /* \"#utility.yul\":7866:7867   */\n      0x00\n        /* \"#utility.yul\":7855:7864   */\n      dup4\n        /* \"#utility.yul\":7851:7868   */\n      add\n        /* \"#utility.yul\":7844:7891   */\n      mstore\n        /* \"#utility.yul\":7908:8039   */\n      tag_457\n        /* \"#utility.yul\":8034:8038   */\n      dup2\n        /* \"#utility.yul\":7908:8039   */\n      tag_330\n      jump\t// in\n    tag_457:\n        /* \"#utility.yul\":7900:8039   */\n      swap1\n      pop\n        /* \"#utility.yul\":7627:8046   */\n      swap2\n      swap1\n      pop\n      jump\t// out\n        /* \"#utility.yul\":8052:8233   */\n    tag_331:\n        /* \"#utility.yul\":8192:8225   */\n      0x5265656e7472616e637947756172643a207265656e7472616e742063616c6c00\n        /* \"#utility.yul\":8188:8189   */\n      0x00\n        /* \"#utility.yul\":8180:8186   */\n      dup3\n        /* \"#utility.yul\":8176:8190   */\n      add\n        /* \"#utility.yul\":8169:8226   */\n      mstore\n        /* \"#utility.yul\":8052:8233   */\n      pop\n      jump\t// out\n        /* \"#utility.yul\":8239:8605   */\n    tag_332:\n        /* \"#utility.yul\":8381:8384   */\n      0x00\n        /* \"#utility.yul\":8402:8469   */\n      tag_460\n        /* \"#utility.yul\":8466:8468   */\n      0x1f\n        /* \"#utility.yul\":8461:8464   */\n      dup4\n        /* \"#utility.yul\":8402:8469   */\n      tag_328\n      jump\t// in\n    tag_460:\n        /* \"#utility.yul\":8395:8469   */\n      swap2\n      pop\n        /* \"#utility.yul\":8478:8571   */\n      tag_461\n        /* \"#utility.yul\":8567:8570   */\n      dup3\n        /* \"#utility.yul\":8478:8571   */\n      tag_331\n      jump\t// in\n    tag_461:\n        /* \"#utility.yul\":8596:8598   */\n      0x20\n        /* \"#utility.yul\":8591:8594   */\n      dup3\n        /* \"#utility.yul\":8587:8599   */\n      add\n        /* \"#utility.yul\":8580:8599   */\n      swap1\n      pop\n        /* \"#utility.yul\":8239:8605   */\n      swap2\n      swap1\n      pop\n      jump\t// out\n        /* \"#utility.yul\":8611:9030   */\n    tag_165:\n        /* \"#utility.yul\":8777:8781   */\n      0x00\n        /* \"#utility.yul\":8815:8817   */\n      0x20\n        /* \"#utility.yul\":8804:8813   */\n      dup3\n        /* \"#utility.yul\":8800:8818   */\n      add\n        /* \"#utility.yul\":8792:8818   */\n      swap1\n      pop\n        /* \"#utility.yul\":8864:8873   */\n      dup2\n        /* \"#utility.yul\":8858:8862   */\n      dup2\n        /* \"#utility.yul\":8854:8874   */\n      sub\n        /* \"#utility.yul\":8850:8851   */\n      0x00\n        /* \"#utility.yul\":8839:8848   */\n      dup4\n        /* \"#utility.yul\":8835:8852   */\n      add\n        /* \"#utility.yul\":8828:8875   */\n      mstore\n        /* \"#utility.yul\":8892:9023   */\n      tag_463\n        /* \"#utility.yul\":9018:9022   */\n      dup2\n        /* \"#utility.yul\":8892:9023   */\n      tag_332\n      jump\t// in\n    tag_463:\n        /* \"#utility.yul\":8884:9023   */\n      swap1\n      pop\n        /* \"#utility.yul\":8611:9030   */\n      swap2\n      swap1\n      pop\n      jump\t// out\n        /* \"#utility.yul\":9036:9278   */\n    tag_333:\n        /* \"#utility.yul\":9176:9210   */\n      0x496e646976696475616c6c7943617070656443726f776473616c653a2062656e\n        /* \"#utility.yul\":9172:9173   */\n      0x00\n        /* \"#utility.yul\":9164:9170   */\n      dup3\n        /* \"#utility.yul\":9160:9174   */\n      add\n        /* \"#utility.yul\":9153:9211   */\n      mstore\n        /* \"#utility.yul\":9245:9270   */\n      0x6566696369617279277320636170206578636565646564000000000000000000\n        /* \"#utility.yul\":9240:9242   */\n      0x20\n        /* \"#utility.yul\":9232:9238   */\n      dup3\n        /* \"#utility.yul\":9228:9243   */\n      add\n        /* \"#utility.yul\":9221:9271   */\n      mstore\n        /* \"#utility.yul\":9036:9278   */\n      pop\n      jump\t// out\n        /* \"#utility.yul\":9284:9650   */\n    tag_334:\n        /* \"#utility.yul\":9426:9429   */\n      0x00\n        /* \"#utility.yul\":9447:9514   */\n      tag_466\n        /* \"#utility.yul\":9511:9513   */\n      0x37\n        /* \"#utility.yul\":9506:9509   */\n      dup4\n        /* \"#utility.yul\":9447:9514   */\n      tag_328\n      jump\t// in\n    tag_466:\n        /* \"#utility.yul\":9440:9514   */\n      swap2\n      pop\n        /* \"#utility.yul\":9523:9616   */\n      tag_467\n        /* \"#utility.yul\":9612:9615   */\n      dup3\n        /* \"#utility.yul\":9523:9616   */\n      tag_333\n      jump\t// in\n    tag_467:\n        /* \"#utility.yul\":9641:9643   */\n      0x40\n        /* \"#utility.yul\":9636:9639   */\n      dup3\n        /* \"#utility.yul\":9632:9644   */\n      add\n        /* \"#utility.yul\":9625:9644   */\n      swap1\n      pop\n        /* \"#utility.yul\":9284:9650   */\n      swap2\n      swap1\n      pop\n      jump\t// out\n        /* \"#utility.yul\":9656:10075   */\n    tag_172:\n        /* \"#utility.yul\":9822:9826   */\n      0x00\n        /* \"#utility.yul\":9860:9862   */\n      0x20\n        /* \"#utility.yul\":9849:9858   */\n      dup3\n        /* \"#utility.yul\":9845:9863   */\n      add\n        /* \"#utility.yul\":9837:9863   */\n      swap1\n      pop\n        /* \"#utility.yul\":9909:9918   */\n      dup2\n        /* \"#utility.yul\":9903:9907   */\n      dup2\n        /* \"#utility.yul\":9899:9919   */\n      sub\n        /* \"#utility.yul\":9895:9896   */\n      0x00\n        /* \"#utility.yul\":9884:9893   */\n      dup4\n        /* \"#utility.yul\":9880:9897   */\n      add\n        /* \"#utility.yul\":9873:9920   */\n      mstore\n        /* \"#utility.yul\":9937:10068   */\n      tag_469\n        /* \"#utility.yul\":10063:10067   */\n      dup2\n        /* \"#utility.yul\":9937:10068   */\n      tag_334\n      jump\t// in\n    tag_469:\n        /* \"#utility.yul\":9929:10068   */\n      swap1\n      pop\n        /* \"#utility.yul\":9656:10075   */\n      swap2\n      swap1\n      pop\n      jump\t// out\n        /* \"#utility.yul\":10081:10261   */\n    tag_335:\n        /* \"#utility.yul\":10129:10206   */\n      0x4e487b7100000000000000000000000000000000000000000000000000000000\n        /* \"#utility.yul\":10126:10127   */\n      0x00\n        /* \"#utility.yul\":10119:10207   */\n      mstore\n        /* \"#utility.yul\":10226:10230   */\n      0x11\n        /* \"#utility.yul\":10223:10224   */\n      0x04\n        /* \"#utility.yul\":10216:10231   */\n      mstore\n        /* \"#utility.yul\":10250:10254   */\n      0x24\n        /* \"#utility.yul\":10247:10248   */\n      0x00\n        /* \"#utility.yul\":10240:10255   */\n      revert\n        /* \"#utility.yul\":10267:10458   */\n    tag_178:\n        /* \"#utility.yul\":10307:10310   */\n      0x00\n        /* \"#utility.yul\":10326:10346   */\n      tag_472\n        /* \"#utility.yul\":10344:10345   */\n      dup3\n        /* \"#utility.yul\":10326:10346   */\n      tag_313\n      jump\t// in\n    tag_472:\n        /* \"#utility.yul\":10321:10346   */\n      swap2\n      pop\n        /* \"#utility.yul\":10360:10380   */\n      tag_473\n        /* \"#utility.yul\":10378:10379   */\n      dup4\n        /* \"#utility.yul\":10360:10380   */\n      tag_313\n      jump\t// in\n    tag_473:\n        /* \"#utility.yul\":10355:10380   */\n      swap3\n      pop\n        /* \"#utility.yul\":10403:10404   */\n      dup3\n        /* \"#utility.yul\":10400:10401   */\n      dup3\n        /* \"#utility.yul\":10396:10405   */\n      add\n        /* \"#utility.yul\":10389:10405   */\n      swap1\n      pop\n        /* \"#utility.yul\":10424:10427   */\n      dup1\n        /* \"#utility.yul\":10421:10422   */\n      dup3\n        /* \"#utility.yul\":10418:10428   */\n      gt\n        /* \"#utility.yul\":10415:10451   */\n      iszero\n      tag_474\n      jumpi\n        /* \"#utility.yul\":10431:10449   */\n      tag_475\n      tag_335\n      jump\t// in\n    tag_475:\n        /* \"#utility.yul\":10415:10451   */\n    tag_474:\n        /* \"#utility.yul\":10267:10458   */\n      swap3\n      swap2\n      pop\n      pop\n      jump\t// out\n        /* \"#utility.yul\":10464:10693   */\n    tag_336:\n        /* \"#utility.yul\":10604:10638   */\n      0x43726f776473616c653a2062656e656669636961727920697320746865207a65\n        /* \"#utility.yul\":10600:10601   */\n      0x00\n        /* \"#utility.yul\":10592:10598   */\n      dup3\n        /* \"#utility.yul\":10588:10602   */\n      add\n        /* \"#utility.yul\":10581:10639   */\n      mstore\n        /* \"#utility.yul\":10673:10685   */\n      0x726f206164647265737300000000000000000000000000000000000000000000\n        /* \"#utility.yul\":10668:10670   */\n      0x20\n        /* \"#utility.yul\":10660:10666   */\n      dup3\n        /* \"#utility.yul\":10656:10671   */\n      add\n        /* \"#utility.yul\":10649:10686   */\n      mstore\n        /* \"#utility.yul\":10464:10693   */\n      pop\n      jump\t// out\n        /* \"#utility.yul\":10699:11065   */\n    tag_337:\n        /* \"#utility.yul\":10841:10844   */\n      0x00\n        /* \"#utility.yul\":10862:10929   */\n      tag_478\n        /* \"#utility.yul\":10926:10928   */\n      0x2a\n        /* \"#utility.yul\":10921:10924   */\n      dup4\n        /* \"#utility.yul\":10862:10929   */\n      tag_328\n      jump\t// in\n    tag_478:\n        /* \"#utility.yul\":10855:10929   */\n      swap2\n      pop\n        /* \"#utility.yul\":10938:11031   */\n      tag_479\n        /* \"#utility.yul\":11027:11030   */\n      dup3\n        /* \"#utility.yul\":10938:11031   */\n      tag_336\n      jump\t// in\n    tag_479:\n        /* \"#utility.yul\":11056:11058   */\n      0x40\n        /* \"#utility.yul\":11051:11054   */\n      dup3\n        /* \"#utility.yul\":11047:11059   */\n      add\n        /* \"#utility.yul\":11040:11059   */\n      swap1\n      pop\n        /* \"#utility.yul\":10699:11065   */\n      swap2\n      swap1\n      pop\n      jump\t// out\n        /* \"#utility.yul\":11071:11490   */\n    tag_207:\n        /* \"#utility.yul\":11237:11241   */\n      0x00\n        /* \"#utility.yul\":11275:11277   */\n      0x20\n        /* \"#utility.yul\":11264:11273   */\n      dup3\n        /* \"#utility.yul\":11260:11278   */\n      add\n        /* \"#utility.yul\":11252:11278   */\n      swap1\n      pop\n        /* \"#utility.yul\":11324:11333   */\n      dup2\n        /* \"#utility.yul\":11318:11322   */\n      dup2\n        /* \"#utility.yul\":11314:11334   */\n      sub\n        /* \"#utility.yul\":11310:11311   */\n      0x00\n        /* \"#utility.yul\":11299:11308   */\n      dup4\n        /* \"#utility.yul\":11295:11312   */\n      add\n        /* \"#utility.yul\":11288:11335   */\n      mstore\n        /* \"#utility.yul\":11352:11483   */\n      tag_481\n        /* \"#utility.yul\":11478:11482   */\n      dup2\n        /* \"#utility.yul\":11352:11483   */\n      tag_337\n      jump\t// in\n    tag_481:\n        /* \"#utility.yul\":11344:11483   */\n      swap1\n      pop\n        /* \"#utility.yul\":11071:11490   */\n      swap2\n      swap1\n      pop\n      jump\t// out\n        /* \"#utility.yul\":11496:11671   */\n    tag_338:\n        /* \"#utility.yul\":11636:11663   */\n      0x43726f776473616c653a20776569416d6f756e74206973203000000000000000\n        /* \"#utility.yul\":11632:11633   */\n      0x00\n        /* \"#utility.yul\":11624:11630   */\n      dup3\n        /* \"#utility.yul\":11620:11634   */\n      add\n        /* \"#utility.yul\":11613:11664   */\n      mstore\n        /* \"#utility.yul\":11496:11671   */\n      pop\n      jump\t// out\n        /* \"#utility.yul\":11677:12043   */\n    tag_339:\n        /* \"#utility.yul\":11819:11822   */\n      0x00\n        /* \"#utility.yul\":11840:11907   */\n      tag_484\n        /* \"#utility.yul\":11904:11906   */\n      0x19\n        /* \"#utility.yul\":11899:11902   */\n      dup4\n        /* \"#utility.yul\":11840:11907   */\n      tag_328\n      jump\t// in\n    tag_484:\n        /* \"#utility.yul\":11833:11907   */\n      swap2\n      pop\n        /* \"#utility.yul\":11916:12009   */\n      tag_485\n        /* \"#utility.yul\":12005:12008   */\n      dup3\n        /* \"#utility.yul\":11916:12009   */\n      tag_338\n      jump\t// in\n    tag_485:\n        /* \"#utility.yul\":12034:12036   */\n      0x20\n        /* \"#utility.yul\":12029:12032   */\n      dup3\n        /* \"#utility.yul\":12025:12037   */\n      add\n        /* \"#utility.yul\":12018:12037   */\n      swap1\n      pop\n        /* \"#utility.yul\":11677:12043   */\n      swap2\n      swap1\n      pop\n      jump\t// out\n        /* \"#utility.yul\":12049:12468   */\n    tag_210:\n        /* \"#utility.yul\":12215:12219   */\n      0x00\n        /* \"#utility.yul\":12253:12255   */\n      0x20\n        /* \"#utility.yul\":12242:12251   */\n      dup3\n        /* \"#utility.yul\":12238:12256   */\n      add\n        /* \"#utility.yul\":12230:12256   */\n      swap1\n      pop\n        /* \"#utility.yul\":12302:12311   */\n      dup2\n        /* \"#utility.yul\":12296:12300   */\n      dup2\n        /* \"#utility.yul\":12292:12312   */\n      sub\n        /* \"#utility.yul\":12288:12289   */\n      0x00\n        /* \"#utility.yul\":12277:12286   */\n      dup4\n        /* \"#utility.yul\":12273:12290   */\n      add\n        /* \"#utility.yul\":12266:12313   */\n      mstore\n        /* \"#utility.yul\":12330:12461   */\n      tag_487\n        /* \"#utility.yul\":12456:12460   */\n      dup2\n        /* \"#utility.yul\":12330:12461   */\n      tag_339\n      jump\t// in\n    tag_487:\n        /* \"#utility.yul\":12322:12461   */\n      swap1\n      pop\n        /* \"#utility.yul\":12049:12468   */\n      swap2\n      swap1\n      pop\n      jump\t// out\n        /* \"#utility.yul\":12474:12884   */\n    tag_213:\n        /* \"#utility.yul\":12514:12521   */\n      0x00\n        /* \"#utility.yul\":12537:12557   */\n      tag_489\n        /* \"#utility.yul\":12555:12556   */\n      dup3\n        /* \"#utility.yul\":12537:12557   */\n      tag_313\n      jump\t// in\n    tag_489:\n        /* \"#utility.yul\":12532:12557   */\n      swap2\n      pop\n        /* \"#utility.yul\":12571:12591   */\n      tag_490\n        /* \"#utility.yul\":12589:12590   */\n      dup4\n        /* \"#utility.yul\":12571:12591   */\n      tag_313\n      jump\t// in\n    tag_490:\n        /* \"#utility.yul\":12566:12591   */\n      swap3\n      pop\n        /* \"#utility.yul\":12626:12627   */\n      dup3\n        /* \"#utility.yul\":12623:12624   */\n      dup3\n        /* \"#utility.yul\":12619:12628   */\n      mul\n        /* \"#utility.yul\":12648:12678   */\n      tag_491\n        /* \"#utility.yul\":12666:12677   */\n      dup2\n        /* \"#utility.yul\":12648:12678   */\n      tag_313\n      jump\t// in\n    tag_491:\n        /* \"#utility.yul\":12637:12678   */\n      swap2\n      pop\n        /* \"#utility.yul\":12827:12828   */\n      dup3\n        /* \"#utility.yul\":12818:12825   */\n      dup3\n        /* \"#utility.yul\":12814:12829   */\n      div\n        /* \"#utility.yul\":12811:12812   */\n      dup5\n        /* \"#utility.yul\":12808:12830   */\n      eq\n        /* \"#utility.yul\":12788:12789   */\n      dup4\n        /* \"#utility.yul\":12781:12790   */\n      iszero\n        /* \"#utility.yul\":12761:12844   */\n      or\n        /* \"#utility.yul\":12738:12877   */\n      tag_492\n      jumpi\n        /* \"#utility.yul\":12857:12875   */\n      tag_493\n      tag_335\n      jump\t// in\n    tag_493:\n        /* \"#utility.yul\":12738:12877   */\n    tag_492:\n        /* \"#utility.yul\":12522:12884   */\n      pop\n        /* \"#utility.yul\":12474:12884   */\n      swap3\n      swap2\n      pop\n      pop\n      jump\t// out\n        /* \"#utility.yul\":12890:13038   */\n    tag_340:\n        /* \"#utility.yul\":12992:13003   */\n      0x00\n        /* \"#utility.yul\":13029:13032   */\n      dup2\n        /* \"#utility.yul\":13014:13032   */\n      swap1\n      pop\n        /* \"#utility.yul\":12890:13038   */\n      swap3\n      swap2\n      pop\n      pop\n      jump\t// out\n        /* \"#utility.yul\":13044:13217   */\n    tag_341:\n        /* \"#utility.yul\":13184:13209   */\n      0x416363657373436f6e74726f6c3a206163636f756e7420000000000000000000\n        /* \"#utility.yul\":13180:13181   */\n      0x00\n        /* \"#utility.yul\":13172:13178   */\n      dup3\n        /* \"#utility.yul\":13168:13182   */\n      add\n        /* \"#utility.yul\":13161:13210   */\n      mstore\n        /* \"#utility.yul\":13044:13217   */\n      pop\n      jump\t// out\n        /* \"#utility.yul\":13223:13625   */\n    tag_342:\n        /* \"#utility.yul\":13383:13386   */\n      0x00\n        /* \"#utility.yul\":13404:13489   */\n      tag_497\n        /* \"#utility.yul\":13486:13488   */\n      0x17\n        /* \"#utility.yul\":13481:13484   */\n      dup4\n        /* \"#utility.yul\":13404:13489   */\n      tag_340\n      jump\t// in\n    tag_497:\n        /* \"#utility.yul\":13397:13489   */\n      swap2\n      pop\n        /* \"#utility.yul\":13498:13591   */\n      tag_498\n        /* \"#utility.yul\":13587:13590   */\n      dup3\n        /* \"#utility.yul\":13498:13591   */\n      tag_341\n      jump\t// in\n    tag_498:\n        /* \"#utility.yul\":13616:13618   */\n      0x17\n        /* \"#utility.yul\":13611:13614   */\n      dup3\n        /* \"#utility.yul\":13607:13619   */\n      add\n        /* \"#utility.yul\":13600:13619   */\n      swap1\n      pop\n        /* \"#utility.yul\":13223:13625   */\n      swap2\n      swap1\n      pop\n      jump\t// out\n        /* \"#utility.yul\":13631:13730   */\n    tag_343:\n        /* \"#utility.yul\":13683:13689   */\n      0x00\n        /* \"#utility.yul\":13717:13722   */\n      dup2\n        /* \"#utility.yul\":13711:13723   */\n      mload\n        /* \"#utility.yul\":13701:13723   */\n      swap1\n      pop\n        /* \"#utility.yul\":13631:13730   */\n      swap2\n      swap1\n      pop\n      jump\t// out\n        /* \"#utility.yul\":13736:13982   */\n    tag_344:\n        /* \"#utility.yul\":13817:13818   */\n      0x00\n        /* \"#utility.yul\":13827:13940   */\n    tag_501:\n        /* \"#utility.yul\":13841:13847   */\n      dup4\n        /* \"#utility.yul\":13838:13839   */\n      dup2\n        /* \"#utility.yul\":13835:13848   */\n      lt\n        /* \"#utility.yul\":13827:13940   */\n      iszero\n      tag_503\n      jumpi\n        /* \"#utility.yul\":13926:13927   */\n      dup1\n        /* \"#utility.yul\":13921:13924   */\n      dup3\n        /* \"#utility.yul\":13917:13928   */\n      add\n        /* \"#utility.yul\":13911:13929   */\n      mload\n        /* \"#utility.yul\":13907:13908   */\n      dup2\n        /* \"#utility.yul\":13902:13905   */\n      dup5\n        /* \"#utility.yul\":13898:13909   */\n      add\n        /* \"#utility.yul\":13891:13930   */\n      mstore\n        /* \"#utility.yul\":13863:13865   */\n      0x20\n        /* \"#utility.yul\":13860:13861   */\n      dup2\n        /* \"#utility.yul\":13856:13866   */\n      add\n        /* \"#utility.yul\":13851:13866   */\n      swap1\n      pop\n        /* \"#utility.yul\":13827:13940   */\n      jump(tag_501)\n    tag_503:\n        /* \"#utility.yul\":13974:13975   */\n      0x00\n        /* \"#utility.yul\":13965:13971   */\n      dup5\n        /* \"#utility.yul\":13960:13963   */\n      dup5\n        /* \"#utility.yul\":13956:13972   */\n      add\n        /* \"#utility.yul\":13949:13976   */\n      mstore\n        /* \"#utility.yul\":13798:13982   */\n      pop\n        /* \"#utility.yul\":13736:13982   */\n      pop\n      pop\n      pop\n      jump\t// out\n        /* \"#utility.yul\":13988:14378   */\n    tag_345:\n        /* \"#utility.yul\":14094:14097   */\n      0x00\n        /* \"#utility.yul\":14122:14161   */\n      tag_505\n        /* \"#utility.yul\":14155:14160   */\n      dup3\n        /* \"#utility.yul\":14122:14161   */\n      tag_343\n      jump\t// in\n    tag_505:\n        /* \"#utility.yul\":14177:14266   */\n      tag_506\n        /* \"#utility.yul\":14259:14265   */\n      dup2\n        /* \"#utility.yul\":14254:14257   */\n      dup6\n        /* \"#utility.yul\":14177:14266   */\n      tag_340\n      jump\t// in\n    tag_506:\n        /* \"#utility.yul\":14170:14266   */\n      swap4\n      pop\n        /* \"#utility.yul\":14275:14340   */\n      tag_507\n        /* \"#utility.yul\":14333:14339   */\n      dup2\n        /* \"#utility.yul\":14328:14331   */\n      dup6\n        /* \"#utility.yul\":14321:14325   */\n      0x20\n        /* \"#utility.yul\":14314:14319   */\n      dup7\n        /* \"#utility.yul\":14310:14326   */\n      add\n        /* \"#utility.yul\":14275:14340   */\n      tag_344\n      jump\t// in\n    tag_507:\n        /* \"#utility.yul\":14365:14371   */\n      dup1\n        /* \"#utility.yul\":14360:14363   */\n      dup5\n        /* \"#utility.yul\":14356:14372   */\n      add\n        /* \"#utility.yul\":14349:14372   */\n      swap2\n      pop\n        /* \"#utility.yul\":14098:14378   */\n      pop\n        /* \"#utility.yul\":13988:14378   */\n      swap3\n      swap2\n      pop\n      pop\n      jump\t// out\n        /* \"#utility.yul\":14384:14551   */\n    tag_346:\n        /* \"#utility.yul\":14524:14543   */\n      0x206973206d697373696e6720726f6c6520000000000000000000000000000000\n        /* \"#utility.yul\":14520:14521   */\n      0x00\n        /* \"#utility.yul\":14512:14518   */\n      dup3\n        /* \"#utility.yul\":14508:14522   */\n      add\n        /* \"#utility.yul\":14501:14544   */\n      mstore\n        /* \"#utility.yul\":14384:14551   */\n      pop\n      jump\t// out\n        /* \"#utility.yul\":14557:14959   */\n    tag_347:\n        /* \"#utility.yul\":14717:14720   */\n      0x00\n        /* \"#utility.yul\":14738:14823   */\n      tag_510\n        /* \"#utility.yul\":14820:14822   */\n      0x11\n        /* \"#utility.yul\":14815:14818   */\n      dup4\n        /* \"#utility.yul\":14738:14823   */\n      tag_340\n      jump\t// in\n    tag_510:\n        /* \"#utility.yul\":14731:14823   */\n      swap2\n      pop\n        /* \"#utility.yul\":14832:14925   */\n      tag_511\n        /* \"#utility.yul\":14921:14924   */\n      dup3\n        /* \"#utility.yul\":14832:14925   */\n      tag_346\n      jump\t// in\n    tag_511:\n        /* \"#utility.yul\":14950:14952   */\n      0x11\n        /* \"#utility.yul\":14945:14948   */\n      dup3\n        /* \"#utility.yul\":14941:14953   */\n      add\n        /* \"#utility.yul\":14934:14953   */\n      swap1\n      pop\n        /* \"#utility.yul\":14557:14959   */\n      swap2\n      swap1\n      pop\n      jump\t// out\n        /* \"#utility.yul\":14965:15932   */\n    tag_226:\n        /* \"#utility.yul\":15347:15350   */\n      0x00\n        /* \"#utility.yul\":15369:15517   */\n      tag_513\n        /* \"#utility.yul\":15513:15516   */\n      dup3\n        /* \"#utility.yul\":15369:15517   */\n      tag_342\n      jump\t// in\n    tag_513:\n        /* \"#utility.yul\":15362:15517   */\n      swap2\n      pop\n        /* \"#utility.yul\":15534:15629   */\n      tag_514\n        /* \"#utility.yul\":15625:15628   */\n      dup3\n        /* \"#utility.yul\":15616:15622   */\n      dup6\n        /* \"#utility.yul\":15534:15629   */\n      tag_345\n      jump\t// in\n    tag_514:\n        /* \"#utility.yul\":15527:15629   */\n      swap2\n      pop\n        /* \"#utility.yul\":15646:15794   */\n      tag_515\n        /* \"#utility.yul\":15790:15793   */\n      dup3\n        /* \"#utility.yul\":15646:15794   */\n      tag_347\n      jump\t// in\n    tag_515:\n        /* \"#utility.yul\":15639:15794   */\n      swap2\n      pop\n        /* \"#utility.yul\":15811:15906   */\n      tag_516\n        /* \"#utility.yul\":15902:15905   */\n      dup3\n        /* \"#utility.yul\":15893:15899   */\n      dup5\n        /* \"#utility.yul\":15811:15906   */\n      tag_345\n      jump\t// in\n    tag_516:\n        /* \"#utility.yul\":15804:15906   */\n      swap2\n      pop\n        /* \"#utility.yul\":15923:15926   */\n      dup2\n        /* \"#utility.yul\":15916:15926   */\n      swap1\n      pop\n        /* \"#utility.yul\":14965:15932   */\n      swap4\n      swap3\n      pop\n      pop\n      pop\n      jump\t// out\n        /* \"#utility.yul\":15938:16040   */\n    tag_348:\n        /* \"#utility.yul\":15979:15985   */\n      0x00\n        /* \"#utility.yul\":16030:16032   */\n      0x1f\n        /* \"#utility.yul\":16026:16033   */\n      not\n        /* \"#utility.yul\":16021:16023   */\n      0x1f\n        /* \"#utility.yul\":16014:16019   */\n      dup4\n        /* \"#utility.yul\":16010:16024   */\n      add\n        /* \"#utility.yul\":16006:16034   */\n      and\n        /* \"#utility.yul\":15996:16034   */\n      swap1\n      pop\n        /* \"#utility.yul\":15938:16040   */\n      swap2\n      swap1\n      pop\n      jump\t// out\n        /* \"#utility.yul\":16046:16423   */\n    tag_349:\n        /* \"#utility.yul\":16134:16137   */\n      0x00\n        /* \"#utility.yul\":16162:16201   */\n      tag_519\n        /* \"#utility.yul\":16195:16200   */\n      dup3\n        /* \"#utility.yul\":16162:16201   */\n      tag_343\n      jump\t// in\n    tag_519:\n        /* \"#utility.yul\":16217:16288   */\n      tag_520\n        /* \"#utility.yul\":16281:16287   */\n      dup2\n        /* \"#utility.yul\":16276:16279   */\n      dup6\n        /* \"#utility.yul\":16217:16288   */\n      tag_328\n      jump\t// in\n    tag_520:\n        /* \"#utility.yul\":16210:16288   */\n      swap4\n      pop\n        /* \"#utility.yul\":16297:16362   */\n      tag_521\n        /* \"#utility.yul\":16355:16361   */\n      dup2\n        /* \"#utility.yul\":16350:16353   */\n      dup6\n        /* \"#utility.yul\":16343:16347   */\n      0x20\n        /* \"#utility.yul\":16336:16341   */\n      dup7\n        /* \"#utility.yul\":16332:16348   */\n      add\n        /* \"#utility.yul\":16297:16362   */\n      tag_344\n      jump\t// in\n    tag_521:\n        /* \"#utility.yul\":16387:16416   */\n      tag_522\n        /* \"#utility.yul\":16409:16415   */\n      dup2\n        /* \"#utility.yul\":16387:16416   */\n      tag_348\n      jump\t// in\n    tag_522:\n        /* \"#utility.yul\":16382:16385   */\n      dup5\n        /* \"#utility.yul\":16378:16417   */\n      add\n        /* \"#utility.yul\":16371:16417   */\n      swap2\n      pop\n        /* \"#utility.yul\":16138:16423   */\n      pop\n        /* \"#utility.yul\":16046:16423   */\n      swap3\n      swap2\n      pop\n      pop\n      jump\t// out\n        /* \"#utility.yul\":16429:16742   */\n    tag_228:\n        /* \"#utility.yul\":16542:16546   */\n      0x00\n        /* \"#utility.yul\":16580:16582   */\n      0x20\n        /* \"#utility.yul\":16569:16578   */\n      dup3\n        /* \"#utility.yul\":16565:16583   */\n      add\n        /* \"#utility.yul\":16557:16583   */\n      swap1\n      pop\n        /* \"#utility.yul\":16629:16638   */\n      dup2\n        /* \"#utility.yul\":16623:16627   */\n      dup2\n        /* \"#utility.yul\":16619:16639   */\n      sub\n        /* \"#utility.yul\":16615:16616   */\n      0x00\n        /* \"#utility.yul\":16604:16613   */\n      dup4\n        /* \"#utility.yul\":16600:16617   */\n      add\n        /* \"#utility.yul\":16593:16640   */\n      mstore\n        /* \"#utility.yul\":16657:16735   */\n      tag_524\n        /* \"#utility.yul\":16730:16734   */\n      dup2\n        /* \"#utility.yul\":16721:16727   */\n      dup5\n        /* \"#utility.yul\":16657:16735   */\n      tag_349\n      jump\t// in\n    tag_524:\n        /* \"#utility.yul\":16649:16735   */\n      swap1\n      pop\n        /* \"#utility.yul\":16429:16742   */\n      swap3\n      swap2\n      pop\n      pop\n      jump\t// out\n        /* \"#utility.yul\":16748:16866   */\n    tag_350:\n        /* \"#utility.yul\":16835:16859   */\n      tag_526\n        /* \"#utility.yul\":16853:16858   */\n      dup2\n        /* \"#utility.yul\":16835:16859   */\n      tag_310\n      jump\t// in\n    tag_526:\n        /* \"#utility.yul\":16830:16833   */\n      dup3\n        /* \"#utility.yul\":16823:16860   */\n      mstore\n        /* \"#utility.yul\":16748:16866   */\n      pop\n      pop\n      jump\t// out\n        /* \"#utility.yul\":16872:17204   */\n    tag_232:\n        /* \"#utility.yul\":16993:16997   */\n      0x00\n        /* \"#utility.yul\":17031:17033   */\n      0x40\n        /* \"#utility.yul\":17020:17029   */\n      dup3\n        /* \"#utility.yul\":17016:17034   */\n      add\n        /* \"#utility.yul\":17008:17034   */\n      swap1\n      pop\n        /* \"#utility.yul\":17044:17115   */\n      tag_528\n        /* \"#utility.yul\":17112:17113   */\n      0x00\n        /* \"#utility.yul\":17101:17110   */\n      dup4\n        /* \"#utility.yul\":17097:17114   */\n      add\n        /* \"#utility.yul\":17088:17094   */\n      dup6\n        /* \"#utility.yul\":17044:17115   */\n      tag_350\n      jump\t// in\n    tag_528:\n        /* \"#utility.yul\":17125:17197   */\n      tag_529\n        /* \"#utility.yul\":17193:17195   */\n      0x20\n        /* \"#utility.yul\":17182:17191   */\n      dup4\n        /* \"#utility.yul\":17178:17196   */\n      add\n        /* \"#utility.yul\":17169:17175   */\n      dup5\n        /* \"#utility.yul\":17125:17197   */\n      tag_314\n      jump\t// in\n    tag_529:\n        /* \"#utility.yul\":16872:17204   */\n      swap4\n      swap3\n      pop\n      pop\n      pop\n      jump\t// out\n        /* \"#utility.yul\":17210:17390   */\n    tag_241:\n        /* \"#utility.yul\":17258:17335   */\n      0x4e487b7100000000000000000000000000000000000000000000000000000000\n        /* \"#utility.yul\":17255:17256   */\n      0x00\n        /* \"#utility.yul\":17248:17336   */\n      mstore\n        /* \"#utility.yul\":17355:17359   */\n      0x41\n        /* \"#utility.yul\":17352:17353   */\n      0x04\n        /* \"#utility.yul\":17345:17360   */\n      mstore\n        /* \"#utility.yul\":17379:17383   */\n      0x24\n        /* \"#utility.yul\":17376:17377   */\n      0x00\n        /* \"#utility.yul\":17369:17384   */\n      revert\n        /* \"#utility.yul\":17396:17576   */\n    tag_245:\n        /* \"#utility.yul\":17444:17521   */\n      0x4e487b7100000000000000000000000000000000000000000000000000000000\n        /* \"#utility.yul\":17441:17442   */\n      0x00\n        /* \"#utility.yul\":17434:17522   */\n      mstore\n        /* \"#utility.yul\":17541:17545   */\n      0x32\n        /* \"#utility.yul\":17538:17539   */\n      0x04\n        /* \"#utility.yul\":17531:17546   */\n      mstore\n        /* \"#utility.yul\":17565:17569   */\n      0x24\n        /* \"#utility.yul\":17562:17563   */\n      0x00\n        /* \"#utility.yul\":17555:17570   */\n      revert\n        /* \"#utility.yul\":17582:17753   */\n    tag_258:\n        /* \"#utility.yul\":17621:17624   */\n      0x00\n        /* \"#utility.yul\":17644:17668   */\n      tag_533\n        /* \"#utility.yul\":17662:17667   */\n      dup3\n        /* \"#utility.yul\":17644:17668   */\n      tag_313\n      jump\t// in\n    tag_533:\n        /* \"#utility.yul\":17635:17668   */\n      swap2\n      pop\n        /* \"#utility.yul\":17690:17694   */\n      0x00\n        /* \"#utility.yul\":17683:17688   */\n      dup3\n        /* \"#utility.yul\":17680:17695   */\n      sub\n        /* \"#utility.yul\":17677:17718   */\n      tag_534\n      jumpi\n        /* \"#utility.yul\":17698:17716   */\n      tag_535\n      tag_335\n      jump\t// in\n    tag_535:\n        /* \"#utility.yul\":17677:17718   */\n    tag_534:\n        /* \"#utility.yul\":17745:17746   */\n      0x01\n        /* \"#utility.yul\":17738:17743   */\n      dup3\n        /* \"#utility.yul\":17734:17747   */\n      sub\n        /* \"#utility.yul\":17727:17747   */\n      swap1\n      pop\n        /* \"#utility.yul\":17582:17753   */\n      swap2\n      swap1\n      pop\n      jump\t// out\n        /* \"#utility.yul\":17759:17941   */\n    tag_351:\n        /* \"#utility.yul\":17899:17933   */\n      0x537472696e67733a20686578206c656e67746820696e73756666696369656e74\n        /* \"#utility.yul\":17895:17896   */\n      0x00\n        /* \"#utility.yul\":17887:17893   */\n      dup3\n        /* \"#utility.yul\":17883:17897   */\n      add\n        /* \"#utility.yul\":17876:17934   */\n      mstore\n        /* \"#utility.yul\":17759:17941   */\n      pop\n      jump\t// out\n        /* \"#utility.yul\":17947:18313   */\n    tag_352:\n        /* \"#utility.yul\":18089:18092   */\n      0x00\n        /* \"#utility.yul\":18110:18177   */\n      tag_538\n        /* \"#utility.yul\":18174:18176   */\n      0x20\n        /* \"#utility.yul\":18169:18172   */\n      dup4\n        /* \"#utility.yul\":18110:18177   */\n      tag_328\n      jump\t// in\n    tag_538:\n        /* \"#utility.yul\":18103:18177   */\n      swap2\n      pop\n        /* \"#utility.yul\":18186:18279   */\n      tag_539\n        /* \"#utility.yul\":18275:18278   */\n      dup3\n        /* \"#utility.yul\":18186:18279   */\n      tag_351\n      jump\t// in\n    tag_539:\n        /* \"#utility.yul\":18304:18306   */\n      0x20\n        /* \"#utility.yul\":18299:18302   */\n      dup3\n        /* \"#utility.yul\":18295:18307   */\n      add\n        /* \"#utility.yul\":18288:18307   */\n      swap1\n      pop\n        /* \"#utility.yul\":17947:18313   */\n      swap2\n      swap1\n      pop\n      jump\t// out\n        /* \"#utility.yul\":18319:18738   */\n    tag_261:\n        /* \"#utility.yul\":18485:18489   */\n      0x00\n        /* \"#utility.yul\":18523:18525   */\n      0x20\n        /* \"#utility.yul\":18512:18521   */\n      dup3\n        /* \"#utility.yul\":18508:18526   */\n      add\n        /* \"#utility.yul\":18500:18526   */\n      swap1\n      pop\n        /* \"#utility.yul\":18572:18581   */\n      dup2\n        /* \"#utility.yul\":18566:18570   */\n      dup2\n        /* \"#utility.yul\":18562:18582   */\n      sub\n        /* \"#utility.yul\":18558:18559   */\n      0x00\n        /* \"#utility.yul\":18547:18556   */\n      dup4\n        /* \"#utility.yul\":18543:18560   */\n      add\n        /* \"#utility.yul\":18536:18583   */\n      mstore\n        /* \"#utility.yul\":18600:18731   */\n      tag_541\n        /* \"#utility.yul\":18726:18730   */\n      dup2\n        /* \"#utility.yul\":18600:18731   */\n      tag_352\n      jump\t// in\n    tag_541:\n        /* \"#utility.yul\":18592:18731   */\n      swap1\n      pop\n        /* \"#utility.yul\":18319:18738   */\n      swap2\n      swap1\n      pop\n      jump\t// out\n        /* \"#utility.yul\":18744:18860   */\n    tag_353:\n        /* \"#utility.yul\":18814:18835   */\n      tag_543\n        /* \"#utility.yul\":18829:18834   */\n      dup2\n        /* \"#utility.yul\":18814:18835   */\n      tag_307\n      jump\t// in\n    tag_543:\n        /* \"#utility.yul\":18807:18812   */\n      dup2\n        /* \"#utility.yul\":18804:18836   */\n      eq\n        /* \"#utility.yul\":18794:18854   */\n      tag_544\n      jumpi\n        /* \"#utility.yul\":18850:18851   */\n      0x00\n        /* \"#utility.yul\":18847:18848   */\n      dup1\n        /* \"#utility.yul\":18840:18852   */\n      revert\n        /* \"#utility.yul\":18794:18854   */\n    tag_544:\n        /* \"#utility.yul\":18744:18860   */\n      pop\n      jump\t// out\n        /* \"#utility.yul\":18866:19003   */\n    tag_354:\n        /* \"#utility.yul\":18920:18925   */\n      0x00\n        /* \"#utility.yul\":18951:18957   */\n      dup2\n        /* \"#utility.yul\":18945:18958   */\n      mload\n        /* \"#utility.yul\":18936:18958   */\n      swap1\n      pop\n        /* \"#utility.yul\":18967:18997   */\n      tag_546\n        /* \"#utility.yul\":18991:18996   */\n      dup2\n        /* \"#utility.yul\":18967:18997   */\n      tag_353\n      jump\t// in\n    tag_546:\n        /* \"#utility.yul\":18866:19003   */\n      swap3\n      swap2\n      pop\n      pop\n      jump\t// out\n        /* \"#utility.yul\":19009:19354   */\n    tag_267:\n        /* \"#utility.yul\":19076:19082   */\n      0x00\n        /* \"#utility.yul\":19125:19127   */\n      0x20\n        /* \"#utility.yul\":19113:19122   */\n      dup3\n        /* \"#utility.yul\":19104:19111   */\n      dup5\n        /* \"#utility.yul\":19100:19123   */\n      sub\n        /* \"#utility.yul\":19096:19128   */\n      slt\n        /* \"#utility.yul\":19093:19212   */\n      iszero\n      tag_548\n      jumpi\n        /* \"#utility.yul\":19131:19210   */\n      tag_549\n      tag_302\n      jump\t// in\n    tag_549:\n        /* \"#utility.yul\":19093:19212   */\n    tag_548:\n        /* \"#utility.yul\":19251:19252   */\n      0x00\n        /* \"#utility.yul\":19276:19337   */\n      tag_550\n        /* \"#utility.yul\":19329:19336   */\n      dup5\n        /* \"#utility.yul\":19320:19326   */\n      dup3\n        /* \"#utility.yul\":19309:19318   */\n      dup6\n        /* \"#utility.yul\":19305:19327   */\n      add\n        /* \"#utility.yul\":19276:19337   */\n      tag_354\n      jump\t// in\n    tag_550:\n        /* \"#utility.yul\":19266:19337   */\n      swap2\n      pop\n        /* \"#utility.yul\":19222:19347   */\n      pop\n        /* \"#utility.yul\":19009:19354   */\n      swap3\n      swap2\n      pop\n      pop\n      jump\t// out\n        /* \"#utility.yul\":19360:19589   */\n    tag_355:\n        /* \"#utility.yul\":19500:19534   */\n      0x5361666545524332303a204552433230206f7065726174696f6e20646964206e\n        /* \"#utility.yul\":19496:19497   */\n      0x00\n        /* \"#utility.yul\":19488:19494   */\n      dup3\n        /* \"#utility.yul\":19484:19498   */\n      add\n        /* \"#utility.yul\":19477:19535   */\n      mstore\n        /* \"#utility.yul\":19569:19581   */\n      0x6f74207375636365656400000000000000000000000000000000000000000000\n        /* \"#utility.yul\":19564:19566   */\n      0x20\n        /* \"#utility.yul\":19556:19562   */\n      dup3\n        /* \"#utility.yul\":19552:19567   */\n      add\n        /* \"#utility.yul\":19545:19582   */\n      mstore\n        /* \"#utility.yul\":19360:19589   */\n      pop\n      jump\t// out\n        /* \"#utility.yul\":19595:19961   */\n    tag_356:\n        /* \"#utility.yul\":19737:19740   */\n      0x00\n        /* \"#utility.yul\":19758:19825   */\n      tag_553\n        /* \"#utility.yul\":19822:19824   */\n      0x2a\n        /* \"#utility.yul\":19817:19820   */\n      dup4\n        /* \"#utility.yul\":19758:19825   */\n      tag_328\n      jump\t// in\n    tag_553:\n        /* \"#utility.yul\":19751:19825   */\n      swap2\n      pop\n        /* \"#utility.yul\":19834:19927   */\n      tag_554\n        /* \"#utility.yul\":19923:19926   */\n      dup3\n        /* \"#utility.yul\":19834:19927   */\n      tag_355\n      jump\t// in\n    tag_554:\n        /* \"#utility.yul\":19952:19954   */\n      0x40\n        /* \"#utility.yul\":19947:19950   */\n      dup3\n        /* \"#utility.yul\":19943:19955   */\n      add\n        /* \"#utility.yul\":19936:19955   */\n      swap1\n      pop\n        /* \"#utility.yul\":19595:19961   */\n      swap2\n      swap1\n      pop\n      jump\t// out\n        /* \"#utility.yul\":19967:20386   */\n    tag_270:\n        /* \"#utility.yul\":20133:20137   */\n      0x00\n        /* \"#utility.yul\":20171:20173   */\n      0x20\n        /* \"#utility.yul\":20160:20169   */\n      dup3\n        /* \"#utility.yul\":20156:20174   */\n      add\n        /* \"#utility.yul\":20148:20174   */\n      swap1\n      pop\n        /* \"#utility.yul\":20220:20229   */\n      dup2\n        /* \"#utility.yul\":20214:20218   */\n      dup2\n        /* \"#utility.yul\":20210:20230   */\n      sub\n        /* \"#utility.yul\":20206:20207   */\n      0x00\n        /* \"#utility.yul\":20195:20204   */\n      dup4\n        /* \"#utility.yul\":20191:20208   */\n      add\n        /* \"#utility.yul\":20184:20231   */\n      mstore\n        /* \"#utility.yul\":20248:20379   */\n      tag_556\n        /* \"#utility.yul\":20374:20378   */\n      dup2\n        /* \"#utility.yul\":20248:20379   */\n      tag_356\n      jump\t// in\n    tag_556:\n        /* \"#utility.yul\":20240:20379   */\n      swap1\n      pop\n        /* \"#utility.yul\":19967:20386   */\n      swap2\n      swap1\n      pop\n      jump\t// out\n        /* \"#utility.yul\":20392:20617   */\n    tag_357:\n        /* \"#utility.yul\":20532:20566   */\n      0x416464726573733a20696e73756666696369656e742062616c616e636520666f\n        /* \"#utility.yul\":20528:20529   */\n      0x00\n        /* \"#utility.yul\":20520:20526   */\n      dup3\n        /* \"#utility.yul\":20516:20530   */\n      add\n        /* \"#utility.yul\":20509:20567   */\n      mstore\n        /* \"#utility.yul\":20601:20609   */\n      0x722063616c6c0000000000000000000000000000000000000000000000000000\n        /* \"#utility.yul\":20596:20598   */\n      0x20\n        /* \"#utility.yul\":20588:20594   */\n      dup3\n        /* \"#utility.yul\":20584:20599   */\n      add\n        /* \"#utility.yul\":20577:20610   */\n      mstore\n        /* \"#utility.yul\":20392:20617   */\n      pop\n      jump\t// out\n        /* \"#utility.yul\":20623:20989   */\n    tag_358:\n        /* \"#utility.yul\":20765:20768   */\n      0x00\n        /* \"#utility.yul\":20786:20853   */\n      tag_559\n        /* \"#utility.yul\":20850:20852   */\n      0x26\n        /* \"#utility.yul\":20845:20848   */\n      dup4\n        /* \"#utility.yul\":20786:20853   */\n      tag_328\n      jump\t// in\n    tag_559:\n        /* \"#utility.yul\":20779:20853   */\n      swap2\n      pop\n        /* \"#utility.yul\":20862:20955   */\n      tag_560\n        /* \"#utility.yul\":20951:20954   */\n      dup3\n        /* \"#utility.yul\":20862:20955   */\n      tag_357\n      jump\t// in\n    tag_560:\n        /* \"#utility.yul\":20980:20982   */\n      0x40\n        /* \"#utility.yul\":20975:20978   */\n      dup3\n        /* \"#utility.yul\":20971:20983   */\n      add\n        /* \"#utility.yul\":20964:20983   */\n      swap1\n      pop\n        /* \"#utility.yul\":20623:20989   */\n      swap2\n      swap1\n      pop\n      jump\t// out\n        /* \"#utility.yul\":20995:21414   */\n    tag_277:\n        /* \"#utility.yul\":21161:21165   */\n      0x00\n        /* \"#utility.yul\":21199:21201   */\n      0x20\n        /* \"#utility.yul\":21188:21197   */\n      dup3\n        /* \"#utility.yul\":21184:21202   */\n      add\n        /* \"#utility.yul\":21176:21202   */\n      swap1\n      pop\n        /* \"#utility.yul\":21248:21257   */\n      dup2\n        /* \"#utility.yul\":21242:21246   */\n      dup2\n        /* \"#utility.yul\":21238:21258   */\n      sub\n        /* \"#utility.yul\":21234:21235   */\n      0x00\n        /* \"#utility.yul\":21223:21232   */\n      dup4\n        /* \"#utility.yul\":21219:21236   */\n      add\n        /* \"#utility.yul\":21212:21259   */\n      mstore\n        /* \"#utility.yul\":21276:21407   */\n      tag_562\n        /* \"#utility.yul\":21402:21406   */\n      dup2\n        /* \"#utility.yul\":21276:21407   */\n      tag_358\n      jump\t// in\n    tag_562:\n        /* \"#utility.yul\":21268:21407   */\n      swap1\n      pop\n        /* \"#utility.yul\":20995:21414   */\n      swap2\n      swap1\n      pop\n      jump\t// out\n        /* \"#utility.yul\":21420:21518   */\n    tag_359:\n        /* \"#utility.yul\":21471:21477   */\n      0x00\n        /* \"#utility.yul\":21505:21510   */\n      dup2\n        /* \"#utility.yul\":21499:21511   */\n      mload\n        /* \"#utility.yul\":21489:21511   */\n      swap1\n      pop\n        /* \"#utility.yul\":21420:21518   */\n      swap2\n      swap1\n      pop\n      jump\t// out\n        /* \"#utility.yul\":21524:21671   */\n    tag_360:\n        /* \"#utility.yul\":21625:21636   */\n      0x00\n        /* \"#utility.yul\":21662:21665   */\n      dup2\n        /* \"#utility.yul\":21647:21665   */\n      swap1\n      pop\n        /* \"#utility.yul\":21524:21671   */\n      swap3\n      swap2\n      pop\n      pop\n      jump\t// out\n        /* \"#utility.yul\":21677:22063   */\n    tag_361:\n        /* \"#utility.yul\":21781:21784   */\n      0x00\n        /* \"#utility.yul\":21809:21847   */\n      tag_566\n        /* \"#utility.yul\":21841:21846   */\n      dup3\n        /* \"#utility.yul\":21809:21847   */\n      tag_359\n      jump\t// in\n    tag_566:\n        /* \"#utility.yul\":21863:21951   */\n      tag_567\n        /* \"#utility.yul\":21944:21950   */\n      dup2\n        /* \"#utility.yul\":21939:21942   */\n      dup6\n        /* \"#utility.yul\":21863:21951   */\n      tag_360\n      jump\t// in\n    tag_567:\n        /* \"#utility.yul\":21856:21951   */\n      swap4\n      pop\n        /* \"#utility.yul\":21960:22025   */\n      tag_568\n        /* \"#utility.yul\":22018:22024   */\n      dup2\n        /* \"#utility.yul\":22013:22016   */\n      dup6\n        /* \"#utility.yul\":22006:22010   */\n      0x20\n        /* \"#utility.yul\":21999:22004   */\n      dup7\n        /* \"#utility.yul\":21995:22011   */\n      add\n        /* \"#utility.yul\":21960:22025   */\n      tag_344\n      jump\t// in\n    tag_568:\n        /* \"#utility.yul\":22050:22056   */\n      dup1\n        /* \"#utility.yul\":22045:22048   */\n      dup5\n        /* \"#utility.yul\":22041:22057   */\n      add\n        /* \"#utility.yul\":22034:22057   */\n      swap2\n      pop\n        /* \"#utility.yul\":21785:22063   */\n      pop\n        /* \"#utility.yul\":21677:22063   */\n      swap3\n      swap2\n      pop\n      pop\n      jump\t// out\n        /* \"#utility.yul\":22069:22340   */\n    tag_279:\n        /* \"#utility.yul\":22199:22202   */\n      0x00\n        /* \"#utility.yul\":22221:22314   */\n      tag_570\n        /* \"#utility.yul\":22310:22313   */\n      dup3\n        /* \"#utility.yul\":22301:22307   */\n      dup5\n        /* \"#utility.yul\":22221:22314   */\n      tag_361\n      jump\t// in\n    tag_570:\n        /* \"#utility.yul\":22214:22314   */\n      swap2\n      pop\n        /* \"#utility.yul\":22331:22334   */\n      dup2\n        /* \"#utility.yul\":22324:22334   */\n      swap1\n      pop\n        /* \"#utility.yul\":22069:22340   */\n      swap3\n      swap2\n      pop\n      pop\n      jump\t// out\n        /* \"#utility.yul\":22346:22525   */\n    tag_362:\n        /* \"#utility.yul\":22486:22517   */\n      0x416464726573733a2063616c6c20746f206e6f6e2d636f6e7472616374000000\n        /* \"#utility.yul\":22482:22483   */\n      0x00\n        /* \"#utility.yul\":22474:22480   */\n      dup3\n        /* \"#utility.yul\":22470:22484   */\n      add\n        /* \"#utility.yul\":22463:22518   */\n      mstore\n        /* \"#utility.yul\":22346:22525   */\n      pop\n      jump\t// out\n        /* \"#utility.yul\":22531:22897   */\n    tag_363:\n        /* \"#utility.yul\":22673:22676   */\n      0x00\n        /* \"#utility.yul\":22694:22761   */\n      tag_573\n        /* \"#utility.yul\":22758:22760   */\n      0x1d\n        /* \"#utility.yul\":22753:22756   */\n      dup4\n        /* \"#utility.yul\":22694:22761   */\n      tag_328\n      jump\t// in\n    tag_573:\n        /* \"#utility.yul\":22687:22761   */\n      swap2\n      pop\n        /* \"#utility.yul\":22770:22863   */\n      tag_574\n        /* \"#utility.yul\":22859:22862   */\n      dup3\n        /* \"#utility.yul\":22770:22863   */\n      tag_362\n      jump\t// in\n    tag_574:\n        /* \"#utility.yul\":22888:22890   */\n      0x20\n        /* \"#utility.yul\":22883:22886   */\n      dup3\n        /* \"#utility.yul\":22879:22891   */\n      add\n        /* \"#utility.yul\":22872:22891   */\n      swap1\n      pop\n        /* \"#utility.yul\":22531:22897   */\n      swap2\n      swap1\n      pop\n      jump\t// out\n        /* \"#utility.yul\":22903:23322   */\n    tag_292:\n        /* \"#utility.yul\":23069:23073   */\n      0x00\n        /* \"#utility.yul\":23107:23109   */\n      0x20\n        /* \"#utility.yul\":23096:23105   */\n      dup3\n        /* \"#utility.yul\":23092:23110   */\n      add\n        /* \"#utility.yul\":23084:23110   */\n      swap1\n      pop\n        /* \"#utility.yul\":23156:23165   */\n      dup2\n        /* \"#utility.yul\":23150:23154   */\n      dup2\n        /* \"#utility.yul\":23146:23166   */\n      sub\n        /* \"#utility.yul\":23142:23143   */\n      0x00\n        /* \"#utility.yul\":23131:23140   */\n      dup4\n        /* \"#utility.yul\":23127:23144   */\n      add\n        /* \"#utility.yul\":23120:23167   */\n      mstore\n        /* \"#utility.yul\":23184:23315   */\n      tag_576\n        /* \"#utility.yul\":23310:23314   */\n      dup2\n        /* \"#utility.yul\":23184:23315   */\n      tag_363\n      jump\t// in\n    tag_576:\n        /* \"#utility.yul\":23176:23315   */\n      swap1\n      pop\n        /* \"#utility.yul\":22903:23322   */\n      swap2\n      swap1\n      pop\n      jump\t// out\n\n    auxdata: 0xa2646970667358221220373a380c0b3933f7bb6f6df5430e2b4785ea7ea9bf1108c9471d24962d4cfd7064736f6c63430008150033\n}\n",
				"bytecode": {
					"linkReferences": {},
					"object": "608060405234801562000010575f80fd5b5060405162002437380380620024378339818101604052810190620000369190620002ec565b82828260015f819055505f831162000085576040517f08c379a00000000000000000000000000000000000000000000000000000000081526004016200007c90620003a3565b60405180910390fd5b5f73ffffffffffffffffffffffffffffffffffffffff168273ffffffffffffffffffffffffffffffffffffffff1603620000f6576040517f08c379a0000000000000000000000000000000000000000000000000000000008152600401620000ed9062000437565b60405180910390fd5b5f73ffffffffffffffffffffffffffffffffffffffff168173ffffffffffffffffffffffffffffffffffffffff160362000167576040517f08c379a00000000000000000000000000000000000000000000000000000000081526004016200015e90620004cb565b60405180910390fd5b826003819055508160025f6101000a81548173ffffffffffffffffffffffffffffffffffffffff021916908373ffffffffffffffffffffffffffffffffffffffff1602179055508060015f6101000a81548173ffffffffffffffffffffffffffffffffffffffff021916908373ffffffffffffffffffffffffffffffffffffffff160217905550505050505050620004eb565b5f80fd5b5f819050919050565b6200021281620001fe565b81146200021d575f80fd5b50565b5f81519050620002308162000207565b92915050565b5f73ffffffffffffffffffffffffffffffffffffffff82169050919050565b5f620002618262000236565b9050919050565b620002738162000255565b81146200027e575f80fd5b50565b5f81519050620002918162000268565b92915050565b5f620002a38262000236565b9050919050565b5f620002b68262000297565b9050919050565b620002c881620002aa565b8114620002d3575f80fd5b50565b5f81519050620002e681620002bd565b92915050565b5f805f60608486031215620003065762000305620001fa565b5b5f620003158682870162000220565b9350506020620003288682870162000281565b92505060406200033b86828701620002d6565b9150509250925092565b5f82825260208201905092915050565b7f43726f776473616c653a207261746520697320300000000000000000000000005f82015250565b5f6200038b60148362000345565b9150620003988262000355565b602082019050919050565b5f6020820190508181035f830152620003bc816200037d565b9050919050565b7f43726f776473616c653a2077616c6c657420697320746865207a65726f2061645f8201527f6472657373000000000000000000000000000000000000000000000000000000602082015250565b5f6200041f60258362000345565b91506200042c82620003c3565b604082019050919050565b5f6020820190508181035f830152620004508162000411565b9050919050565b7f43726f776473616c653a20746f6b656e20697320746865207a65726f206164645f8201527f7265737300000000000000000000000000000000000000000000000000000000602082015250565b5f620004b360248362000345565b9150620004c08262000457565b604082019050919050565b5f6020820190508181035f830152620004e481620004a5565b9050919050565b611f3e80620004f95f395ff3fe6080604052600436106100eb575f3560e01c8063521eb27311610089578063b3aefb7511610058578063b3aefb7514610324578063d547741f14610360578063ec8ac4d814610388578063fc0c546a146103a457610102565b8063521eb2731461026c57806380ad2cf31461029657806391d14854146102be578063a217fddf146102fa57610102565b80632c4e722e116100c55780632c4e722e146101c85780632f2ff15d146101f257806336568abe1461021a5780634042b66f1461024257610102565b806301ffc9a71461011457806321eff7fc14610150578063248a9ca31461018c57610102565b36610102576101006100fb6103ce565b6103d5565b005b61011261010d6103ce565b6103d5565b005b34801561011f575f80fd5b5061013a600480360381019061013591906113d6565b6104b3565b604051610147919061141b565b60405180910390f35b34801561015b575f80fd5b506101766004803603810190610171919061148e565b61052c565b60405161018391906114d1565b60405180910390f35b348015610197575f80fd5b506101b260048036038101906101ad919061151d565b610572565b6040516101bf9190611557565b60405180910390f35b3480156101d3575f80fd5b506101dc61058f565b6040516101e991906114d1565b60405180910390f35b3480156101fd575f80fd5b5061021860048036038101906102139190611570565b610598565b005b348015610225575f80fd5b50610240600480360381019061023b9190611570565b6105b9565b005b34801561024d575f80fd5b5061025661063c565b60405161026391906114d1565b60405180910390f35b348015610277575f80fd5b50610280610645565b60405161028d91906115ce565b60405180910390f35b3480156102a1575f80fd5b506102bc60048036038101906102b79190611611565b61066d565b005b3480156102c9575f80fd5b506102e460048036038101906102df9190611570565b6106c0565b6040516102f1919061141b565b60405180910390f35b348015610305575f80fd5b5061030e610724565b60405161031b9190611557565b60405180910390f35b34801561032f575f80fd5b5061034a6004803603810190610345919061148e565b61072a565b60405161035791906114d1565b60405180910390f35b34801561036b575f80fd5b5061038660048036038101906103819190611570565b610770565b005b6103a2600480360381019061039d919061148e565b6103d5565b005b3480156103af575f80fd5b506103b8610791565b6040516103c591906116aa565b60405180910390f35b5f33905090565b6103dd6107b9565b5f3490506103eb8282610806565b5f6103f5826108e3565b905061040c8260045461090090919063ffffffff16565b60048190555061041c8382610915565b8273ffffffffffffffffffffffffffffffffffffffff1661043b6103ce565b73ffffffffffffffffffffffffffffffffffffffff167f6faf93231a456e552dbc9961f58d9713ee4f2e69d15f1975b050ef0911053a7b84846040516104829291906116c3565b60405180910390a36104948383610923565b61049c6109c2565b6104a68383610a29565b50506104b0610a2d565b50565b5f7f7965db0b000000000000000000000000000000000000000000000000000000007bffffffffffffffffffffffffffffffffffffffffffffffffffffffff1916827bffffffffffffffffffffffffffffffffffffffffffffffffffffffff19161480610525575061052482610a36565b5b9050919050565b5f60065f8373ffffffffffffffffffffffffffffffffffffffff1673ffffffffffffffffffffffffffffffffffffffff1681526020019081526020015f20549050919050565b5f60055f8381526020019081526020015f20600101549050919050565b5f600354905090565b6105a182610572565b6105aa81610a9f565b6105b48383610ab3565b505050565b6105c16103ce565b73ffffffffffffffffffffffffffffffffffffffff168173ffffffffffffffffffffffffffffffffffffffff161461062e576040517f08c379a00000000000000000000000000000000000000000000000000000000081526004016106259061176a565b60405180910390fd5b6106388282610b8e565b5050565b5f600454905090565b5f60025f9054906101000a900473ffffffffffffffffffffffffffffffffffffffff16905090565b5f801b61067981610a9f565b8160075f8573ffffffffffffffffffffffffffffffffffffffff1673ffffffffffffffffffffffffffffffffffffffff1681526020019081526020015f2081905550505050565b5f60055f8481526020019081526020015f205f015f8373ffffffffffffffffffffffffffffffffffffffff1673ffffffffffffffffffffffffffffffffffffffff1681526020019081526020015f205f9054906101000a900460ff16905092915050565b5f801b81565b5f60075f8373ffffffffffffffffffffffffffffffffffffffff1673ffffffffffffffffffffffffffffffffffffffff1681526020019081526020015f20549050919050565b61077982610572565b61078281610a9f565b61078c8383610b8e565b505050565b5f60015f9054906101000a900473ffffffffffffffffffffffffffffffffffffffff16905090565b60025f54036107fd576040517f08c379a00000000000000000000000000000000000000000000000000000000081526004016107f4906117d2565b60405180910390fd5b60025f81905550565b6108108282610c69565b60075f8373ffffffffffffffffffffffffffffffffffffffff1673ffffffffffffffffffffffffffffffffffffffff1681526020019081526020015f205461089e8260065f8673ffffffffffffffffffffffffffffffffffffffff1673ffffffffffffffffffffffffffffffffffffffff1681526020019081526020015f205461090090919063ffffffff16565b11156108df576040517f08c379a00000000000000000000000000000000000000000000000000000000081526004016108d690611860565b60405180910390fd5b5050565b5f6108f960035483610d1d90919063ffffffff16565b9050919050565b5f818361090d91906118ab565b905092915050565b61091f8282610d32565b5050565b61092d8282610d82565b61097d8160065f8573ffffffffffffffffffffffffffffffffffffffff1673ffffffffffffffffffffffffffffffffffffffff1681526020019081526020015f205461090090919063ffffffff16565b60065f8473ffffffffffffffffffffffffffffffffffffffff1673ffffffffffffffffffffffffffffffffffffffff1681526020019081526020015f20819055505050565b60025f9054906101000a900473ffffffffffffffffffffffffffffffffffffffff1673ffffffffffffffffffffffffffffffffffffffff166108fc3490811502906040515f60405180830381858888f19350505050158015610a26573d5f803e3d5ffd5b50565b5050565b60015f81905550565b5f7f01ffc9a7000000000000000000000000000000000000000000000000000000007bffffffffffffffffffffffffffffffffffffffffffffffffffffffff1916827bffffffffffffffffffffffffffffffffffffffffffffffffffffffff1916149050919050565b610ab081610aab6103ce565b610d86565b50565b610abd82826106c0565b610b8a57600160055f8481526020019081526020015f205f015f8373ffffffffffffffffffffffffffffffffffffffff1673ffffffffffffffffffffffffffffffffffffffff1681526020019081526020015f205f6101000a81548160ff021916908315150217905550610b2f6103ce565b73ffffffffffffffffffffffffffffffffffffffff168173ffffffffffffffffffffffffffffffffffffffff16837f2f8788117e7eff1d82e926ec794901d17c78024a50270940304540a733656f0d60405160405180910390a45b5050565b610b9882826106c0565b15610c65575f60055f8481526020019081526020015f205f015f8373ffffffffffffffffffffffffffffffffffffffff1673ffffffffffffffffffffffffffffffffffffffff1681526020019081526020015f205f6101000a81548160ff021916908315150217905550610c0a6103ce565b73ffffffffffffffffffffffffffffffffffffffff168173ffffffffffffffffffffffffffffffffffffffff16837ff6391f5c32d9c69d2a47ea670b442974b53935d1edc7fd64eb21e047a839171b60405160405180910390a45b5050565b5f73ffffffffffffffffffffffffffffffffffffffff168273ffffffffffffffffffffffffffffffffffffffff1603610cd7576040517f08c379a0000000000000000000000000000000000000000000000000000000008152600401610cce9061194e565b60405180910390fd5b5f8103610d19576040517f08c379a0000000000000000000000000000000000000000000000000000000008152600401610d10906119b6565b60405180910390fd5b5050565b5f8183610d2a91906119d4565b905092915050565b610d7e828260015f9054906101000a900473ffffffffffffffffffffffffffffffffffffffff1673ffffffffffffffffffffffffffffffffffffffff16610e0a9092919063ffffffff16565b5050565b5050565b610d9082826106c0565b610e0657610d9d81610e90565b610daa835f1c6020610ebd565b604051602001610dbb929190611b15565b6040516020818303038152906040526040517f08c379a0000000000000000000000000000000000000000000000000000000008152600401610dfd9190611b96565b60405180910390fd5b5050565b610e8b8363a9059cbb60e01b8484604051602401610e29929190611bc5565b604051602081830303815290604052907bffffffffffffffffffffffffffffffffffffffffffffffffffffffff19166020820180517bffffffffffffffffffffffffffffffffffffffffffffffffffffffff83818316178352505050506110f2565b505050565b6060610eb68273ffffffffffffffffffffffffffffffffffffffff16601460ff16610ebd565b9050919050565b60605f6002836002610ecf91906119d4565b610ed991906118ab565b67ffffffffffffffff811115610ef257610ef1611bec565b5b6040519080825280601f01601f191660200182016040528015610f245781602001600182028036833780820191505090505b5090507f3000000000000000000000000000000000000000000000000000000000000000815f81518110610f5b57610f5a611c19565b5b60200101907effffffffffffffffffffffffffffffffffffffffffffffffffffffffffffff191690815f1a9053507f780000000000000000000000000000000000000000000000000000000000000081600181518110610fbe57610fbd611c19565b5b60200101907effffffffffffffffffffffffffffffffffffffffffffffffffffffffffffff191690815f1a9053505f6001846002610ffc91906119d4565b61100691906118ab565b90505b60018111156110a5577f3031323334353637383961626364656600000000000000000000000000000000600f86166010811061104857611047611c19565b5b1a60f81b82828151811061105f5761105e611c19565b5b60200101907effffffffffffffffffffffffffffffffffffffffffffffffffffffffffffff191690815f1a905350600485901c94508061109e90611c46565b9050611009565b505f84146110e8576040517f08c379a00000000000000000000000000000000000000000000000000000000081526004016110df90611cb7565b60405180910390fd5b8091505092915050565b5f611153826040518060400160405280602081526020017f5361666545524332303a206c6f772d6c6576656c2063616c6c206661696c65648152508573ffffffffffffffffffffffffffffffffffffffff166111b89092919063ffffffff16565b90505f815114806111745750808060200190518101906111739190611cff565b5b6111b3576040517f08c379a00000000000000000000000000000000000000000000000000000000081526004016111aa90611d9a565b60405180910390fd5b505050565b60606111c684845f856111cf565b90509392505050565b606082471015611214576040517f08c379a000000000000000000000000000000000000000000000000000000000815260040161120b90611e28565b60405180910390fd5b5f808673ffffffffffffffffffffffffffffffffffffffff16858760405161123c9190611e8a565b5f6040518083038185875af1925050503d805f8114611276576040519150601f19603f3d011682016040523d82523d5f602084013e61127b565b606091505b509150915061128c87838387611298565b92505050949350505050565b606083156112f9575f8351036112f1576112b18561130c565b6112f0576040517f08c379a00000000000000000000000000000000000000000000000000000000081526004016112e790611eea565b60405180910390fd5b5b829050611304565b611303838361132e565b5b949350505050565b5f808273ffffffffffffffffffffffffffffffffffffffff163b119050919050565b5f825111156113405781518083602001fd5b806040517f08c379a00000000000000000000000000000000000000000000000000000000081526004016113749190611b96565b60405180910390fd5b5f80fd5b5f7fffffffff0000000000000000000000000000000000000000000000000000000082169050919050565b6113b581611381565b81146113bf575f80fd5b50565b5f813590506113d0816113ac565b92915050565b5f602082840312156113eb576113ea61137d565b5b5f6113f8848285016113c2565b91505092915050565b5f8115159050919050565b61141581611401565b82525050565b5f60208201905061142e5f83018461140c565b92915050565b5f73ffffffffffffffffffffffffffffffffffffffff82169050919050565b5f61145d82611434565b9050919050565b61146d81611453565b8114611477575f80fd5b50565b5f8135905061148881611464565b92915050565b5f602082840312156114a3576114a261137d565b5b5f6114b08482850161147a565b91505092915050565b5f819050919050565b6114cb816114b9565b82525050565b5f6020820190506114e45f8301846114c2565b92915050565b5f819050919050565b6114fc816114ea565b8114611506575f80fd5b50565b5f81359050611517816114f3565b92915050565b5f602082840312156115325761153161137d565b5b5f61153f84828501611509565b91505092915050565b611551816114ea565b82525050565b5f60208201905061156a5f830184611548565b92915050565b5f80604083850312156115865761158561137d565b5b5f61159385828601611509565b92505060206115a48582860161147a565b9150509250929050565b5f6115b882611434565b9050919050565b6115c8816115ae565b82525050565b5f6020820190506115e15f8301846115bf565b92915050565b6115f0816114b9565b81146115fa575f80fd5b50565b5f8135905061160b816115e7565b92915050565b5f80604083850312156116275761162661137d565b5b5f6116348582860161147a565b9250506020611645858286016115fd565b9150509250929050565b5f819050919050565b5f61167261166d61166884611434565b61164f565b611434565b9050919050565b5f61168382611658565b9050919050565b5f61169482611679565b9050919050565b6116a48161168a565b82525050565b5f6020820190506116bd5f83018461169b565b92915050565b5f6040820190506116d65f8301856114c2565b6116e360208301846114c2565b9392505050565b5f82825260208201905092915050565b7f416363657373436f6e74726f6c3a2063616e206f6e6c792072656e6f756e63655f8201527f20726f6c657320666f722073656c660000000000000000000000000000000000602082015250565b5f611754602f836116ea565b915061175f826116fa565b604082019050919050565b5f6020820190508181035f83015261178181611748565b9050919050565b7f5265656e7472616e637947756172643a207265656e7472616e742063616c6c005f82015250565b5f6117bc601f836116ea565b91506117c782611788565b602082019050919050565b5f6020820190508181035f8301526117e9816117b0565b9050919050565b7f496e646976696475616c6c7943617070656443726f776473616c653a2062656e5f8201527f6566696369617279277320636170206578636565646564000000000000000000602082015250565b5f61184a6037836116ea565b9150611855826117f0565b604082019050919050565b5f6020820190508181035f8301526118778161183e565b9050919050565b7f4e487b71000000000000000000000000000000000000000000000000000000005f52601160045260245ffd5b5f6118b5826114b9565b91506118c0836114b9565b92508282019050808211156118d8576118d761187e565b5b92915050565b7f43726f776473616c653a2062656e656669636961727920697320746865207a655f8201527f726f206164647265737300000000000000000000000000000000000000000000602082015250565b5f611938602a836116ea565b9150611943826118de565b604082019050919050565b5f6020820190508181035f8301526119658161192c565b9050919050565b7f43726f776473616c653a20776569416d6f756e742069732030000000000000005f82015250565b5f6119a06019836116ea565b91506119ab8261196c565b602082019050919050565b5f6020820190508181035f8301526119cd81611994565b9050919050565b5f6119de826114b9565b91506119e9836114b9565b92508282026119f7816114b9565b91508282048414831517611a0e57611a0d61187e565b5b5092915050565b5f81905092915050565b7f416363657373436f6e74726f6c3a206163636f756e74200000000000000000005f82015250565b5f611a53601783611a15565b9150611a5e82611a1f565b601782019050919050565b5f81519050919050565b5f5b83811015611a90578082015181840152602081019050611a75565b5f8484015250505050565b5f611aa582611a69565b611aaf8185611a15565b9350611abf818560208601611a73565b80840191505092915050565b7f206973206d697373696e6720726f6c65200000000000000000000000000000005f82015250565b5f611aff601183611a15565b9150611b0a82611acb565b601182019050919050565b5f611b1f82611a47565b9150611b2b8285611a9b565b9150611b3682611af3565b9150611b428284611a9b565b91508190509392505050565b5f601f19601f8301169050919050565b5f611b6882611a69565b611b7281856116ea565b9350611b82818560208601611a73565b611b8b81611b4e565b840191505092915050565b5f6020820190508181035f830152611bae8184611b5e565b905092915050565b611bbf81611453565b82525050565b5f604082019050611bd85f830185611bb6565b611be560208301846114c2565b9392505050565b7f4e487b71000000000000000000000000000000000000000000000000000000005f52604160045260245ffd5b7f4e487b71000000000000000000000000000000000000000000000000000000005f52603260045260245ffd5b5f611c50826114b9565b91505f8203611c6257611c6161187e565b5b600182039050919050565b7f537472696e67733a20686578206c656e67746820696e73756666696369656e745f82015250565b5f611ca16020836116ea565b9150611cac82611c6d565b602082019050919050565b5f6020820190508181035f830152611cce81611c95565b9050919050565b611cde81611401565b8114611ce8575f80fd5b50565b5f81519050611cf981611cd5565b92915050565b5f60208284031215611d1457611d1361137d565b5b5f611d2184828501611ceb565b91505092915050565b7f5361666545524332303a204552433230206f7065726174696f6e20646964206e5f8201527f6f74207375636365656400000000000000000000000000000000000000000000602082015250565b5f611d84602a836116ea565b9150611d8f82611d2a565b604082019050919050565b5f6020820190508181035f830152611db181611d78565b9050919050565b7f416464726573733a20696e73756666696369656e742062616c616e636520666f5f8201527f722063616c6c0000000000000000000000000000000000000000000000000000602082015250565b5f611e126026836116ea565b9150611e1d82611db8565b604082019050919050565b5f6020820190508181035f830152611e3f81611e06565b9050919050565b5f81519050919050565b5f81905092915050565b5f611e6482611e46565b611e6e8185611e50565b9350611e7e818560208601611a73565b80840191505092915050565b5f611e958284611e5a565b915081905092915050565b7f416464726573733a2063616c6c20746f206e6f6e2d636f6e74726163740000005f82015250565b5f611ed4601d836116ea565b9150611edf82611ea0565b602082019050919050565b5f6020820190508181035f830152611f0181611ec8565b905091905056fea2646970667358221220373a380c0b3933f7bb6f6df5430e2b4785ea7ea9bf1108c9471d24962d4cfd7064736f6c63430008150033",
					"opcodes": "PUSH1 0x80 PUSH1 0x40 MSTORE CALLVALUE DUP1 ISZERO PUSH3 0x10 JUMPI PUSH0 DUP1 REVERT JUMPDEST POP PUSH1 0x40 MLOAD PUSH3 0x2437 CODESIZE SUB DUP1 PUSH3 0x2437 DUP4 CODECOPY DUP2 DUP2 ADD PUSH1 0x40 MSTORE DUP2 ADD SWAP1 PUSH3 0x36 SWAP2 SWAP1 PUSH3 0x2EC JUMP JUMPDEST DUP3 DUP3 DUP3 PUSH1 0x1 PUSH0 DUP2 SWAP1 SSTORE POP PUSH0 DUP4 GT PUSH3 0x85 JUMPI PUSH1 0x40 MLOAD PUSH32 0x8C379A000000000000000000000000000000000000000000000000000000000 DUP2 MSTORE PUSH1 0x4 ADD PUSH3 0x7C SWAP1 PUSH3 0x3A3 JUMP JUMPDEST PUSH1 0x40 MLOAD DUP1 SWAP2 SUB SWAP1 REVERT JUMPDEST PUSH0 PUSH20 0xFFFFFFFFFFFFFFFFFFFFFFFFFFFFFFFFFFFFFFFF AND DUP3 PUSH20 0xFFFFFFFFFFFFFFFFFFFFFFFFFFFFFFFFFFFFFFFF AND SUB PUSH3 0xF6 JUMPI PUSH1 0x40 MLOAD PUSH32 0x8C379A000000000000000000000000000000000000000000000000000000000 DUP2 MSTORE PUSH1 0x4 ADD PUSH3 0xED SWAP1 PUSH3 0x437 JUMP JUMPDEST PUSH1 0x40 MLOAD DUP1 SWAP2 SUB SWAP1 REVERT JUMPDEST PUSH0 PUSH20 0xFFFFFFFFFFFFFFFFFFFFFFFFFFFFFFFFFFFFFFFF AND DUP2 PUSH20 0xFFFFFFFFFFFFFFFFFFFFFFFFFFFFFFFFFFFFFFFF AND SUB PUSH3 0x167 JUMPI PUSH1 0x40 MLOAD PUSH32 0x8C379A000000000000000000000000000000000000000000000000000000000 DUP2 MSTORE PUSH1 0x4 ADD PUSH3 0x15E SWAP1 PUSH3 0x4CB JUMP JUMPDEST PUSH1 0x40 MLOAD DUP1 SWAP2 SUB SWAP1 REVERT JUMPDEST DUP3 PUSH1 0x3 DUP2 SWAP1 SSTORE POP DUP2 PUSH1 0x2 PUSH0 PUSH2 0x100 EXP DUP2 SLOAD DUP2 PUSH20 0xFFFFFFFFFFFFFFFFFFFFFFFFFFFFFFFFFFFFFFFF MUL NOT AND SWAP1 DUP4 PUSH20 0xFFFFFFFFFFFFFFFFFFFFFFFFFFFFFFFFFFFFFFFF AND MUL OR SWAP1 SSTORE POP DUP1 PUSH1 0x1 PUSH0 PUSH2 0x100 EXP DUP2 SLOAD DUP2 PUSH20 0xFFFFFFFFFFFFFFFFFFFFFFFFFFFFFFFFFFFFFFFF MUL NOT AND SWAP1 DUP4 PUSH20 0xFFFFFFFFFFFFFFFFFFFFFFFFFFFFFFFFFFFFFFFF AND MUL OR SWAP1 SSTORE POP POP POP POP POP POP POP PUSH3 0x4EB JUMP JUMPDEST PUSH0 DUP1 REVERT JUMPDEST PUSH0 DUP2 SWAP1 POP SWAP2 SWAP1 POP JUMP JUMPDEST PUSH3 0x212 DUP2 PUSH3 0x1FE JUMP JUMPDEST DUP2 EQ PUSH3 0x21D JUMPI PUSH0 DUP1 REVERT JUMPDEST POP JUMP JUMPDEST PUSH0 DUP2 MLOAD SWAP1 POP PUSH3 0x230 DUP2 PUSH3 0x207 JUMP JUMPDEST SWAP3 SWAP2 POP POP JUMP JUMPDEST PUSH0 PUSH20 0xFFFFFFFFFFFFFFFFFFFFFFFFFFFFFFFFFFFFFFFF DUP3 AND SWAP1 POP SWAP2 SWAP1 POP JUMP JUMPDEST PUSH0 PUSH3 0x261 DUP3 PUSH3 0x236 JUMP JUMPDEST SWAP1 POP SWAP2 SWAP1 POP JUMP JUMPDEST PUSH3 0x273 DUP2 PUSH3 0x255 JUMP JUMPDEST DUP2 EQ PUSH3 0x27E JUMPI PUSH0 DUP1 REVERT JUMPDEST POP JUMP JUMPDEST PUSH0 DUP2 MLOAD SWAP1 POP PUSH3 0x291 DUP2 PUSH3 0x268 JUMP JUMPDEST SWAP3 SWAP2 POP POP JUMP JUMPDEST PUSH0 PUSH3 0x2A3 DUP3 PUSH3 0x236 JUMP JUMPDEST SWAP1 POP SWAP2 SWAP1 POP JUMP JUMPDEST PUSH0 PUSH3 0x2B6 DUP3 PUSH3 0x297 JUMP JUMPDEST SWAP1 POP SWAP2 SWAP1 POP JUMP JUMPDEST PUSH3 0x2C8 DUP2 PUSH3 0x2AA JUMP JUMPDEST DUP2 EQ PUSH3 0x2D3 JUMPI PUSH0 DUP1 REVERT JUMPDEST POP JUMP JUMPDEST PUSH0 DUP2 MLOAD SWAP1 POP PUSH3 0x2E6 DUP2 PUSH3 0x2BD JUMP JUMPDEST SWAP3 SWAP2 POP POP JUMP JUMPDEST PUSH0 DUP1 PUSH0 PUSH1 0x60 DUP5 DUP7 SUB SLT ISZERO PUSH3 0x306 JUMPI PUSH3 0x305 PUSH3 0x1FA JUMP JUMPDEST JUMPDEST PUSH0 PUSH3 0x315 DUP7 DUP3 DUP8 ADD PUSH3 0x220 JUMP JUMPDEST SWAP4 POP POP PUSH1 0x20 PUSH3 0x328 DUP7 DUP3 DUP8 ADD PUSH3 0x281 JUMP JUMPDEST SWAP3 POP POP PUSH1 0x40 PUSH3 0x33B DUP7 DUP3 DUP8 ADD PUSH3 0x2D6 JUMP JUMPDEST SWAP2 POP POP SWAP3 POP SWAP3 POP SWAP3 JUMP JUMPDEST PUSH0 DUP3 DUP3 MSTORE PUSH1 0x20 DUP3 ADD SWAP1 POP SWAP3 SWAP2 POP POP JUMP JUMPDEST PUSH32 0x43726F776473616C653A20726174652069732030000000000000000000000000 PUSH0 DUP3 ADD MSTORE POP JUMP JUMPDEST PUSH0 PUSH3 0x38B PUSH1 0x14 DUP4 PUSH3 0x345 JUMP JUMPDEST SWAP2 POP PUSH3 0x398 DUP3 PUSH3 0x355 JUMP JUMPDEST PUSH1 0x20 DUP3 ADD SWAP1 POP SWAP2 SWAP1 POP JUMP JUMPDEST PUSH0 PUSH1 0x20 DUP3 ADD SWAP1 POP DUP2 DUP2 SUB PUSH0 DUP4 ADD MSTORE PUSH3 0x3BC DUP2 PUSH3 0x37D JUMP JUMPDEST SWAP1 POP SWAP2 SWAP1 POP JUMP JUMPDEST PUSH32 0x43726F776473616C653A2077616C6C657420697320746865207A65726F206164 PUSH0 DUP3 ADD MSTORE PUSH32 0x6472657373000000000000000000000000000000000000000000000000000000 PUSH1 0x20 DUP3 ADD MSTORE POP JUMP JUMPDEST PUSH0 PUSH3 0x41F PUSH1 0x25 DUP4 PUSH3 0x345 JUMP JUMPDEST SWAP2 POP PUSH3 0x42C DUP3 PUSH3 0x3C3 JUMP JUMPDEST PUSH1 0x40 DUP3 ADD SWAP1 POP SWAP2 SWAP1 POP JUMP JUMPDEST PUSH0 PUSH1 0x20 DUP3 ADD SWAP1 POP DUP2 DUP2 SUB PUSH0 DUP4 ADD MSTORE PUSH3 0x450 DUP2 PUSH3 0x411 JUMP JUMPDEST SWAP1 POP SWAP2 SWAP1 POP JUMP JUMPDEST PUSH32 0x43726F776473616C653A20746F6B656E20697320746865207A65726F20616464 PUSH0 DUP3 ADD MSTORE PUSH32 0x7265737300000000000000000000000000000000000000000000000000000000 PUSH1 0x20 DUP3 ADD MSTORE POP JUMP JUMPDEST PUSH0 PUSH3 0x4B3 PUSH1 0x24 DUP4 PUSH3 0x345 JUMP JUMPDEST SWAP2 POP PUSH3 0x4C0 DUP3 PUSH3 0x457 JUMP JUMPDEST PUSH1 0x40 DUP3 ADD SWAP1 POP SWAP2 SWAP1 POP JUMP JUMPDEST PUSH0 PUSH1 0x20 DUP3 ADD SWAP1 POP DUP2 DUP2 SUB PUSH0 DUP4 ADD MSTORE PUSH3 0x4E4 DUP2 PUSH3 0x4A5 JUMP JUMPDEST SWAP1 POP SWAP2 SWAP1 POP JUMP JUMPDEST PUSH2 0x1F3E DUP1 PUSH3 0x4F9 PUSH0 CODECOPY PUSH0 RETURN INVALID PUSH1 0x80 PUSH1 0x40 MSTORE PUSH1 0x4 CALLDATASIZE LT PUSH2 0xEB JUMPI PUSH0 CALLDATALOAD PUSH1 0xE0 SHR DUP1 PUSH4 0x521EB273 GT PUSH2 0x89 JUMPI DUP1 PUSH4 0xB3AEFB75 GT PUSH2 0x58 JUMPI DUP1 PUSH4 0xB3AEFB75 EQ PUSH2 0x324 JUMPI DUP1 PUSH4 0xD547741F EQ PUSH2 0x360 JUMPI DUP1 PUSH4 0xEC8AC4D8 EQ PUSH2 0x388 JUMPI DUP1 PUSH4 0xFC0C546A EQ PUSH2 0x3A4 JUMPI PUSH2 0x102 JUMP JUMPDEST DUP1 PUSH4 0x521EB273 EQ PUSH2 0x26C JUMPI DUP1 PUSH4 0x80AD2CF3 EQ PUSH2 0x296 JUMPI DUP1 PUSH4 0x91D14854 EQ PUSH2 0x2BE JUMPI DUP1 PUSH4 0xA217FDDF EQ PUSH2 0x2FA JUMPI PUSH2 0x102 JUMP JUMPDEST DUP1 PUSH4 0x2C4E722E GT PUSH2 0xC5 JUMPI DUP1 PUSH4 0x2C4E722E EQ PUSH2 0x1C8 JUMPI DUP1 PUSH4 0x2F2FF15D EQ PUSH2 0x1F2 JUMPI DUP1 PUSH4 0x36568ABE EQ PUSH2 0x21A JUMPI DUP1 PUSH4 0x4042B66F EQ PUSH2 0x242 JUMPI PUSH2 0x102 JUMP JUMPDEST DUP1 PUSH4 0x1FFC9A7 EQ PUSH2 0x114 JUMPI DUP1 PUSH4 0x21EFF7FC EQ PUSH2 0x150 JUMPI DUP1 PUSH4 0x248A9CA3 EQ PUSH2 0x18C JUMPI PUSH2 0x102 JUMP JUMPDEST CALLDATASIZE PUSH2 0x102 JUMPI PUSH2 0x100 PUSH2 0xFB PUSH2 0x3CE JUMP JUMPDEST PUSH2 0x3D5 JUMP JUMPDEST STOP JUMPDEST PUSH2 0x112 PUSH2 0x10D PUSH2 0x3CE JUMP JUMPDEST PUSH2 0x3D5 JUMP JUMPDEST STOP JUMPDEST CALLVALUE DUP1 ISZERO PUSH2 0x11F JUMPI PUSH0 DUP1 REVERT JUMPDEST POP PUSH2 0x13A PUSH1 0x4 DUP1 CALLDATASIZE SUB DUP2 ADD SWAP1 PUSH2 0x135 SWAP2 SWAP1 PUSH2 0x13D6 JUMP JUMPDEST PUSH2 0x4B3 JUMP JUMPDEST PUSH1 0x40 MLOAD PUSH2 0x147 SWAP2 SWAP1 PUSH2 0x141B JUMP JUMPDEST PUSH1 0x40 MLOAD DUP1 SWAP2 SUB SWAP1 RETURN JUMPDEST CALLVALUE DUP1 ISZERO PUSH2 0x15B JUMPI PUSH0 DUP1 REVERT JUMPDEST POP PUSH2 0x176 PUSH1 0x4 DUP1 CALLDATASIZE SUB DUP2 ADD SWAP1 PUSH2 0x171 SWAP2 SWAP1 PUSH2 0x148E JUMP JUMPDEST PUSH2 0x52C JUMP JUMPDEST PUSH1 0x40 MLOAD PUSH2 0x183 SWAP2 SWAP1 PUSH2 0x14D1 JUMP JUMPDEST PUSH1 0x40 MLOAD DUP1 SWAP2 SUB SWAP1 RETURN JUMPDEST CALLVALUE DUP1 ISZERO PUSH2 0x197 JUMPI PUSH0 DUP1 REVERT JUMPDEST POP PUSH2 0x1B2 PUSH1 0x4 DUP1 CALLDATASIZE SUB DUP2 ADD SWAP1 PUSH2 0x1AD SWAP2 SWAP1 PUSH2 0x151D JUMP JUMPDEST PUSH2 0x572 JUMP JUMPDEST PUSH1 0x40 MLOAD PUSH2 0x1BF SWAP2 SWAP1 PUSH2 0x1557 JUMP JUMPDEST PUSH1 0x40 MLOAD DUP1 SWAP2 SUB SWAP1 RETURN JUMPDEST CALLVALUE DUP1 ISZERO PUSH2 0x1D3 JUMPI PUSH0 DUP1 REVERT JUMPDEST POP PUSH2 0x1DC PUSH2 0x58F JUMP JUMPDEST PUSH1 0x40 MLOAD PUSH2 0x1E9 SWAP2 SWAP1 PUSH2 0x14D1 JUMP JUMPDEST PUSH1 0x40 MLOAD DUP1 SWAP2 SUB SWAP1 RETURN JUMPDEST CALLVALUE DUP1 ISZERO PUSH2 0x1FD JUMPI PUSH0 DUP1 REVERT JUMPDEST POP PUSH2 0x218 PUSH1 0x4 DUP1 CALLDATASIZE SUB DUP2 ADD SWAP1 PUSH2 0x213 SWAP2 SWAP1 PUSH2 0x1570 JUMP JUMPDEST PUSH2 0x598 JUMP JUMPDEST STOP JUMPDEST CALLVALUE DUP1 ISZERO PUSH2 0x225 JUMPI PUSH0 DUP1 REVERT JUMPDEST POP PUSH2 0x240 PUSH1 0x4 DUP1 CALLDATASIZE SUB DUP2 ADD SWAP1 PUSH2 0x23B SWAP2 SWAP1 PUSH2 0x1570 JUMP JUMPDEST PUSH2 0x5B9 JUMP JUMPDEST STOP JUMPDEST CALLVALUE DUP1 ISZERO PUSH2 0x24D JUMPI PUSH0 DUP1 REVERT JUMPDEST POP PUSH2 0x256 PUSH2 0x63C JUMP JUMPDEST PUSH1 0x40 MLOAD PUSH2 0x263 SWAP2 SWAP1 PUSH2 0x14D1 JUMP JUMPDEST PUSH1 0x40 MLOAD DUP1 SWAP2 SUB SWAP1 RETURN JUMPDEST CALLVALUE DUP1 ISZERO PUSH2 0x277 JUMPI PUSH0 DUP1 REVERT JUMPDEST POP PUSH2 0x280 PUSH2 0x645 JUMP JUMPDEST PUSH1 0x40 MLOAD PUSH2 0x28D SWAP2 SWAP1 PUSH2 0x15CE JUMP JUMPDEST PUSH1 0x40 MLOAD DUP1 SWAP2 SUB SWAP1 RETURN JUMPDEST CALLVALUE DUP1 ISZERO PUSH2 0x2A1 JUMPI PUSH0 DUP1 REVERT JUMPDEST POP PUSH2 0x2BC PUSH1 0x4 DUP1 CALLDATASIZE SUB DUP2 ADD SWAP1 PUSH2 0x2B7 SWAP2 SWAP1 PUSH2 0x1611 JUMP JUMPDEST PUSH2 0x66D JUMP JUMPDEST STOP JUMPDEST CALLVALUE DUP1 ISZERO PUSH2 0x2C9 JUMPI PUSH0 DUP1 REVERT JUMPDEST POP PUSH2 0x2E4 PUSH1 0x4 DUP1 CALLDATASIZE SUB DUP2 ADD SWAP1 PUSH2 0x2DF SWAP2 SWAP1 PUSH2 0x1570 JUMP JUMPDEST PUSH2 0x6C0 JUMP JUMPDEST PUSH1 0x40 MLOAD PUSH2 0x2F1 SWAP2 SWAP1 PUSH2 0x141B JUMP JUMPDEST PUSH1 0x40 MLOAD DUP1 SWAP2 SUB SWAP1 RETURN JUMPDEST CALLVALUE DUP1 ISZERO PUSH2 0x305 JUMPI PUSH0 DUP1 REVERT JUMPDEST POP PUSH2 0x30E PUSH2 0x724 JUMP JUMPDEST PUSH1 0x40 MLOAD PUSH2 0x31B SWAP2 SWAP1 PUSH2 0x1557 JUMP JUMPDEST PUSH1 0x40 MLOAD DUP1 SWAP2 SUB SWAP1 RETURN JUMPDEST CALLVALUE DUP1 ISZERO PUSH2 0x32F JUMPI PUSH0 DUP1 REVERT JUMPDEST POP PUSH2 0x34A PUSH1 0x4 DUP1 CALLDATASIZE SUB DUP2 ADD SWAP1 PUSH2 0x345 SWAP2 SWAP1 PUSH2 0x148E JUMP JUMPDEST PUSH2 0x72A JUMP JUMPDEST PUSH1 0x40 MLOAD PUSH2 0x357 SWAP2 SWAP1 PUSH2 0x14D1 JUMP JUMPDEST PUSH1 0x40 MLOAD DUP1 SWAP2 SUB SWAP1 RETURN JUMPDEST CALLVALUE DUP1 ISZERO PUSH2 0x36B JUMPI PUSH0 DUP1 REVERT JUMPDEST POP PUSH2 0x386 PUSH1 0x4 DUP1 CALLDATASIZE SUB DUP2 ADD SWAP1 PUSH2 0x381 SWAP2 SWAP1 PUSH2 0x1570 JUMP JUMPDEST PUSH2 0x770 JUMP JUMPDEST STOP JUMPDEST PUSH2 0x3A2 PUSH1 0x4 DUP1 CALLDATASIZE SUB DUP2 ADD SWAP1 PUSH2 0x39D SWAP2 SWAP1 PUSH2 0x148E JUMP JUMPDEST PUSH2 0x3D5 JUMP JUMPDEST STOP JUMPDEST CALLVALUE DUP1 ISZERO PUSH2 0x3AF JUMPI PUSH0 DUP1 REVERT JUMPDEST POP PUSH2 0x3B8 PUSH2 0x791 JUMP JUMPDEST PUSH1 0x40 MLOAD PUSH2 0x3C5 SWAP2 SWAP1 PUSH2 0x16AA JUMP JUMPDEST PUSH1 0x40 MLOAD DUP1 SWAP2 SUB SWAP1 RETURN JUMPDEST PUSH0 CALLER SWAP1 POP SWAP1 JUMP JUMPDEST PUSH2 0x3DD PUSH2 0x7B9 JUMP JUMPDEST PUSH0 CALLVALUE SWAP1 POP PUSH2 0x3EB DUP3 DUP3 PUSH2 0x806 JUMP JUMPDEST PUSH0 PUSH2 0x3F5 DUP3 PUSH2 0x8E3 JUMP JUMPDEST SWAP1 POP PUSH2 0x40C DUP3 PUSH1 0x4 SLOAD PUSH2 0x900 SWAP1 SWAP2 SWAP1 PUSH4 0xFFFFFFFF AND JUMP JUMPDEST PUSH1 0x4 DUP2 SWAP1 SSTORE POP PUSH2 0x41C DUP4 DUP3 PUSH2 0x915 JUMP JUMPDEST DUP3 PUSH20 0xFFFFFFFFFFFFFFFFFFFFFFFFFFFFFFFFFFFFFFFF AND PUSH2 0x43B PUSH2 0x3CE JUMP JUMPDEST PUSH20 0xFFFFFFFFFFFFFFFFFFFFFFFFFFFFFFFFFFFFFFFF AND PUSH32 0x6FAF93231A456E552DBC9961F58D9713EE4F2E69D15F1975B050EF0911053A7B DUP5 DUP5 PUSH1 0x40 MLOAD PUSH2 0x482 SWAP3 SWAP2 SWAP1 PUSH2 0x16C3 JUMP JUMPDEST PUSH1 0x40 MLOAD DUP1 SWAP2 SUB SWAP1 LOG3 PUSH2 0x494 DUP4 DUP4 PUSH2 0x923 JUMP JUMPDEST PUSH2 0x49C PUSH2 0x9C2 JUMP JUMPDEST PUSH2 0x4A6 DUP4 DUP4 PUSH2 0xA29 JUMP JUMPDEST POP POP PUSH2 0x4B0 PUSH2 0xA2D JUMP JUMPDEST POP JUMP JUMPDEST PUSH0 PUSH32 0x7965DB0B00000000000000000000000000000000000000000000000000000000 PUSH28 0xFFFFFFFFFFFFFFFFFFFFFFFFFFFFFFFFFFFFFFFFFFFFFFFFFFFFFFFF NOT AND DUP3 PUSH28 0xFFFFFFFFFFFFFFFFFFFFFFFFFFFFFFFFFFFFFFFFFFFFFFFFFFFFFFFF NOT AND EQ DUP1 PUSH2 0x525 JUMPI POP PUSH2 0x524 DUP3 PUSH2 0xA36 JUMP JUMPDEST JUMPDEST SWAP1 POP SWAP2 SWAP1 POP JUMP JUMPDEST PUSH0 PUSH1 0x6 PUSH0 DUP4 PUSH20 0xFFFFFFFFFFFFFFFFFFFFFFFFFFFFFFFFFFFFFFFF AND PUSH20 0xFFFFFFFFFFFFFFFFFFFFFFFFFFFFFFFFFFFFFFFF AND DUP2 MSTORE PUSH1 0x20 ADD SWAP1 DUP2 MSTORE PUSH1 0x20 ADD PUSH0 KECCAK256 SLOAD SWAP1 POP SWAP2 SWAP1 POP JUMP JUMPDEST PUSH0 PUSH1 0x5 PUSH0 DUP4 DUP2 MSTORE PUSH1 0x20 ADD SWAP1 DUP2 MSTORE PUSH1 0x20 ADD PUSH0 KECCAK256 PUSH1 0x1 ADD SLOAD SWAP1 POP SWAP2 SWAP1 POP JUMP JUMPDEST PUSH0 PUSH1 0x3 SLOAD SWAP1 POP SWAP1 JUMP JUMPDEST PUSH2 0x5A1 DUP3 PUSH2 0x572 JUMP JUMPDEST PUSH2 0x5AA DUP2 PUSH2 0xA9F JUMP JUMPDEST PUSH2 0x5B4 DUP4 DUP4 PUSH2 0xAB3 JUMP JUMPDEST POP POP POP JUMP JUMPDEST PUSH2 0x5C1 PUSH2 0x3CE JUMP JUMPDEST PUSH20 0xFFFFFFFFFFFFFFFFFFFFFFFFFFFFFFFFFFFFFFFF AND DUP2 PUSH20 0xFFFFFFFFFFFFFFFFFFFFFFFFFFFFFFFFFFFFFFFF AND EQ PUSH2 0x62E JUMPI PUSH1 0x40 MLOAD PUSH32 0x8C379A000000000000000000000000000000000000000000000000000000000 DUP2 MSTORE PUSH1 0x4 ADD PUSH2 0x625 SWAP1 PUSH2 0x176A JUMP JUMPDEST PUSH1 0x40 MLOAD DUP1 SWAP2 SUB SWAP1 REVERT JUMPDEST PUSH2 0x638 DUP3 DUP3 PUSH2 0xB8E JUMP JUMPDEST POP POP JUMP JUMPDEST PUSH0 PUSH1 0x4 SLOAD SWAP1 POP SWAP1 JUMP JUMPDEST PUSH0 PUSH1 0x2 PUSH0 SWAP1 SLOAD SWAP1 PUSH2 0x100 EXP SWAP1 DIV PUSH20 0xFFFFFFFFFFFFFFFFFFFFFFFFFFFFFFFFFFFFFFFF AND SWAP1 POP SWAP1 JUMP JUMPDEST PUSH0 DUP1 SHL PUSH2 0x679 DUP2 PUSH2 0xA9F JUMP JUMPDEST DUP2 PUSH1 0x7 PUSH0 DUP6 PUSH20 0xFFFFFFFFFFFFFFFFFFFFFFFFFFFFFFFFFFFFFFFF AND PUSH20 0xFFFFFFFFFFFFFFFFFFFFFFFFFFFFFFFFFFFFFFFF AND DUP2 MSTORE PUSH1 0x20 ADD SWAP1 DUP2 MSTORE PUSH1 0x20 ADD PUSH0 KECCAK256 DUP2 SWAP1 SSTORE POP POP POP POP JUMP JUMPDEST PUSH0 PUSH1 0x5 PUSH0 DUP5 DUP2 MSTORE PUSH1 0x20 ADD SWAP1 DUP2 MSTORE PUSH1 0x20 ADD PUSH0 KECCAK256 PUSH0 ADD PUSH0 DUP4 PUSH20 0xFFFFFFFFFFFFFFFFFFFFFFFFFFFFFFFFFFFFFFFF AND PUSH20 0xFFFFFFFFFFFFFFFFFFFFFFFFFFFFFFFFFFFFFFFF AND DUP2 MSTORE PUSH1 0x20 ADD SWAP1 DUP2 MSTORE PUSH1 0x20 ADD PUSH0 KECCAK256 PUSH0 SWAP1 SLOAD SWAP1 PUSH2 0x100 EXP SWAP1 DIV PUSH1 0xFF AND SWAP1 POP SWAP3 SWAP2 POP POP JUMP JUMPDEST PUSH0 DUP1 SHL DUP2 JUMP JUMPDEST PUSH0 PUSH1 0x7 PUSH0 DUP4 PUSH20 0xFFFFFFFFFFFFFFFFFFFFFFFFFFFFFFFFFFFFFFFF AND PUSH20 0xFFFFFFFFFFFFFFFFFFFFFFFFFFFFFFFFFFFFFFFF AND DUP2 MSTORE PUSH1 0x20 ADD SWAP1 DUP2 MSTORE PUSH1 0x20 ADD PUSH0 KECCAK256 SLOAD SWAP1 POP SWAP2 SWAP1 POP JUMP JUMPDEST PUSH2 0x779 DUP3 PUSH2 0x572 JUMP JUMPDEST PUSH2 0x782 DUP2 PUSH2 0xA9F JUMP JUMPDEST PUSH2 0x78C DUP4 DUP4 PUSH2 0xB8E JUMP JUMPDEST POP POP POP JUMP JUMPDEST PUSH0 PUSH1 0x1 PUSH0 SWAP1 SLOAD SWAP1 PUSH2 0x100 EXP SWAP1 DIV PUSH20 0xFFFFFFFFFFFFFFFFFFFFFFFFFFFFFFFFFFFFFFFF AND SWAP1 POP SWAP1 JUMP JUMPDEST PUSH1 0x2 PUSH0 SLOAD SUB PUSH2 0x7FD JUMPI PUSH1 0x40 MLOAD PUSH32 0x8C379A000000000000000000000000000000000000000000000000000000000 DUP2 MSTORE PUSH1 0x4 ADD PUSH2 0x7F4 SWAP1 PUSH2 0x17D2 JUMP JUMPDEST PUSH1 0x40 MLOAD DUP1 SWAP2 SUB SWAP1 REVERT JUMPDEST PUSH1 0x2 PUSH0 DUP2 SWAP1 SSTORE POP JUMP JUMPDEST PUSH2 0x810 DUP3 DUP3 PUSH2 0xC69 JUMP JUMPDEST PUSH1 0x7 PUSH0 DUP4 PUSH20 0xFFFFFFFFFFFFFFFFFFFFFFFFFFFFFFFFFFFFFFFF AND PUSH20 0xFFFFFFFFFFFFFFFFFFFFFFFFFFFFFFFFFFFFFFFF AND DUP2 MSTORE PUSH1 0x20 ADD SWAP1 DUP2 MSTORE PUSH1 0x20 ADD PUSH0 KECCAK256 SLOAD PUSH2 0x89E DUP3 PUSH1 0x6 PUSH0 DUP7 PUSH20 0xFFFFFFFFFFFFFFFFFFFFFFFFFFFFFFFFFFFFFFFF AND PUSH20 0xFFFFFFFFFFFFFFFFFFFFFFFFFFFFFFFFFFFFFFFF AND DUP2 MSTORE PUSH1 0x20 ADD SWAP1 DUP2 MSTORE PUSH1 0x20 ADD PUSH0 KECCAK256 SLOAD PUSH2 0x900 SWAP1 SWAP2 SWAP1 PUSH4 0xFFFFFFFF AND JUMP JUMPDEST GT ISZERO PUSH2 0x8DF JUMPI PUSH1 0x40 MLOAD PUSH32 0x8C379A000000000000000000000000000000000000000000000000000000000 DUP2 MSTORE PUSH1 0x4 ADD PUSH2 0x8D6 SWAP1 PUSH2 0x1860 JUMP JUMPDEST PUSH1 0x40 MLOAD DUP1 SWAP2 SUB SWAP1 REVERT JUMPDEST POP POP JUMP JUMPDEST PUSH0 PUSH2 0x8F9 PUSH1 0x3 SLOAD DUP4 PUSH2 0xD1D SWAP1 SWAP2 SWAP1 PUSH4 0xFFFFFFFF AND JUMP JUMPDEST SWAP1 POP SWAP2 SWAP1 POP JUMP JUMPDEST PUSH0 DUP2 DUP4 PUSH2 0x90D SWAP2 SWAP1 PUSH2 0x18AB JUMP JUMPDEST SWAP1 POP SWAP3 SWAP2 POP POP JUMP JUMPDEST PUSH2 0x91F DUP3 DUP3 PUSH2 0xD32 JUMP JUMPDEST POP POP JUMP JUMPDEST PUSH2 0x92D DUP3 DUP3 PUSH2 0xD82 JUMP JUMPDEST PUSH2 0x97D DUP2 PUSH1 0x6 PUSH0 DUP6 PUSH20 0xFFFFFFFFFFFFFFFFFFFFFFFFFFFFFFFFFFFFFFFF AND PUSH20 0xFFFFFFFFFFFFFFFFFFFFFFFFFFFFFFFFFFFFFFFF AND DUP2 MSTORE PUSH1 0x20 ADD SWAP1 DUP2 MSTORE PUSH1 0x20 ADD PUSH0 KECCAK256 SLOAD PUSH2 0x900 SWAP1 SWAP2 SWAP1 PUSH4 0xFFFFFFFF AND JUMP JUMPDEST PUSH1 0x6 PUSH0 DUP5 PUSH20 0xFFFFFFFFFFFFFFFFFFFFFFFFFFFFFFFFFFFFFFFF AND PUSH20 0xFFFFFFFFFFFFFFFFFFFFFFFFFFFFFFFFFFFFFFFF AND DUP2 MSTORE PUSH1 0x20 ADD SWAP1 DUP2 MSTORE PUSH1 0x20 ADD PUSH0 KECCAK256 DUP2 SWAP1 SSTORE POP POP POP JUMP JUMPDEST PUSH1 0x2 PUSH0 SWAP1 SLOAD SWAP1 PUSH2 0x100 EXP SWAP1 DIV PUSH20 0xFFFFFFFFFFFFFFFFFFFFFFFFFFFFFFFFFFFFFFFF AND PUSH20 0xFFFFFFFFFFFFFFFFFFFFFFFFFFFFFFFFFFFFFFFF AND PUSH2 0x8FC CALLVALUE SWAP1 DUP2 ISZERO MUL SWAP1 PUSH1 0x40 MLOAD PUSH0 PUSH1 0x40 MLOAD DUP1 DUP4 SUB DUP2 DUP6 DUP9 DUP9 CALL SWAP4 POP POP POP POP ISZERO DUP1 ISZERO PUSH2 0xA26 JUMPI RETURNDATASIZE PUSH0 DUP1 RETURNDATACOPY RETURNDATASIZE PUSH0 REVERT JUMPDEST POP JUMP JUMPDEST POP POP JUMP JUMPDEST PUSH1 0x1 PUSH0 DUP2 SWAP1 SSTORE POP JUMP JUMPDEST PUSH0 PUSH32 0x1FFC9A700000000000000000000000000000000000000000000000000000000 PUSH28 0xFFFFFFFFFFFFFFFFFFFFFFFFFFFFFFFFFFFFFFFFFFFFFFFFFFFFFFFF NOT AND DUP3 PUSH28 0xFFFFFFFFFFFFFFFFFFFFFFFFFFFFFFFFFFFFFFFFFFFFFFFFFFFFFFFF NOT AND EQ SWAP1 POP SWAP2 SWAP1 POP JUMP JUMPDEST PUSH2 0xAB0 DUP2 PUSH2 0xAAB PUSH2 0x3CE JUMP JUMPDEST PUSH2 0xD86 JUMP JUMPDEST POP JUMP JUMPDEST PUSH2 0xABD DUP3 DUP3 PUSH2 0x6C0 JUMP JUMPDEST PUSH2 0xB8A JUMPI PUSH1 0x1 PUSH1 0x5 PUSH0 DUP5 DUP2 MSTORE PUSH1 0x20 ADD SWAP1 DUP2 MSTORE PUSH1 0x20 ADD PUSH0 KECCAK256 PUSH0 ADD PUSH0 DUP4 PUSH20 0xFFFFFFFFFFFFFFFFFFFFFFFFFFFFFFFFFFFFFFFF AND PUSH20 0xFFFFFFFFFFFFFFFFFFFFFFFFFFFFFFFFFFFFFFFF AND DUP2 MSTORE PUSH1 0x20 ADD SWAP1 DUP2 MSTORE PUSH1 0x20 ADD PUSH0 KECCAK256 PUSH0 PUSH2 0x100 EXP DUP2 SLOAD DUP2 PUSH1 0xFF MUL NOT AND SWAP1 DUP4 ISZERO ISZERO MUL OR SWAP1 SSTORE POP PUSH2 0xB2F PUSH2 0x3CE JUMP JUMPDEST PUSH20 0xFFFFFFFFFFFFFFFFFFFFFFFFFFFFFFFFFFFFFFFF AND DUP2 PUSH20 0xFFFFFFFFFFFFFFFFFFFFFFFFFFFFFFFFFFFFFFFF AND DUP4 PUSH32 0x2F8788117E7EFF1D82E926EC794901D17C78024A50270940304540A733656F0D PUSH1 0x40 MLOAD PUSH1 0x40 MLOAD DUP1 SWAP2 SUB SWAP1 LOG4 JUMPDEST POP POP JUMP JUMPDEST PUSH2 0xB98 DUP3 DUP3 PUSH2 0x6C0 JUMP JUMPDEST ISZERO PUSH2 0xC65 JUMPI PUSH0 PUSH1 0x5 PUSH0 DUP5 DUP2 MSTORE PUSH1 0x20 ADD SWAP1 DUP2 MSTORE PUSH1 0x20 ADD PUSH0 KECCAK256 PUSH0 ADD PUSH0 DUP4 PUSH20 0xFFFFFFFFFFFFFFFFFFFFFFFFFFFFFFFFFFFFFFFF AND PUSH20 0xFFFFFFFFFFFFFFFFFFFFFFFFFFFFFFFFFFFFFFFF AND DUP2 MSTORE PUSH1 0x20 ADD SWAP1 DUP2 MSTORE PUSH1 0x20 ADD PUSH0 KECCAK256 PUSH0 PUSH2 0x100 EXP DUP2 SLOAD DUP2 PUSH1 0xFF MUL NOT AND SWAP1 DUP4 ISZERO ISZERO MUL OR SWAP1 SSTORE POP PUSH2 0xC0A PUSH2 0x3CE JUMP JUMPDEST PUSH20 0xFFFFFFFFFFFFFFFFFFFFFFFFFFFFFFFFFFFFFFFF AND DUP2 PUSH20 0xFFFFFFFFFFFFFFFFFFFFFFFFFFFFFFFFFFFFFFFF AND DUP4 PUSH32 0xF6391F5C32D9C69D2A47EA670B442974B53935D1EDC7FD64EB21E047A839171B PUSH1 0x40 MLOAD PUSH1 0x40 MLOAD DUP1 SWAP2 SUB SWAP1 LOG4 JUMPDEST POP POP JUMP JUMPDEST PUSH0 PUSH20 0xFFFFFFFFFFFFFFFFFFFFFFFFFFFFFFFFFFFFFFFF AND DUP3 PUSH20 0xFFFFFFFFFFFFFFFFFFFFFFFFFFFFFFFFFFFFFFFF AND SUB PUSH2 0xCD7 JUMPI PUSH1 0x40 MLOAD PUSH32 0x8C379A000000000000000000000000000000000000000000000000000000000 DUP2 MSTORE PUSH1 0x4 ADD PUSH2 0xCCE SWAP1 PUSH2 0x194E JUMP JUMPDEST PUSH1 0x40 MLOAD DUP1 SWAP2 SUB SWAP1 REVERT JUMPDEST PUSH0 DUP2 SUB PUSH2 0xD19 JUMPI PUSH1 0x40 MLOAD PUSH32 0x8C379A000000000000000000000000000000000000000000000000000000000 DUP2 MSTORE PUSH1 0x4 ADD PUSH2 0xD10 SWAP1 PUSH2 0x19B6 JUMP JUMPDEST PUSH1 0x40 MLOAD DUP1 SWAP2 SUB SWAP1 REVERT JUMPDEST POP POP JUMP JUMPDEST PUSH0 DUP2 DUP4 PUSH2 0xD2A SWAP2 SWAP1 PUSH2 0x19D4 JUMP JUMPDEST SWAP1 POP SWAP3 SWAP2 POP POP JUMP JUMPDEST PUSH2 0xD7E DUP3 DUP3 PUSH1 0x1 PUSH0 SWAP1 SLOAD SWAP1 PUSH2 0x100 EXP SWAP1 DIV PUSH20 0xFFFFFFFFFFFFFFFFFFFFFFFFFFFFFFFFFFFFFFFF AND PUSH20 0xFFFFFFFFFFFFFFFFFFFFFFFFFFFFFFFFFFFFFFFF AND PUSH2 0xE0A SWAP1 SWAP3 SWAP2 SWAP1 PUSH4 0xFFFFFFFF AND JUMP JUMPDEST POP POP JUMP JUMPDEST POP POP JUMP JUMPDEST PUSH2 0xD90 DUP3 DUP3 PUSH2 0x6C0 JUMP JUMPDEST PUSH2 0xE06 JUMPI PUSH2 0xD9D DUP2 PUSH2 0xE90 JUMP JUMPDEST PUSH2 0xDAA DUP4 PUSH0 SHR PUSH1 0x20 PUSH2 0xEBD JUMP JUMPDEST PUSH1 0x40 MLOAD PUSH1 0x20 ADD PUSH2 0xDBB SWAP3 SWAP2 SWAP1 PUSH2 0x1B15 JUMP JUMPDEST PUSH1 0x40 MLOAD PUSH1 0x20 DUP2 DUP4 SUB SUB DUP2 MSTORE SWAP1 PUSH1 0x40 MSTORE PUSH1 0x40 MLOAD PUSH32 0x8C379A000000000000000000000000000000000000000000000000000000000 DUP2 MSTORE PUSH1 0x4 ADD PUSH2 0xDFD SWAP2 SWAP1 PUSH2 0x1B96 JUMP JUMPDEST PUSH1 0x40 MLOAD DUP1 SWAP2 SUB SWAP1 REVERT JUMPDEST POP POP JUMP JUMPDEST PUSH2 0xE8B DUP4 PUSH4 0xA9059CBB PUSH1 0xE0 SHL DUP5 DUP5 PUSH1 0x40 MLOAD PUSH1 0x24 ADD PUSH2 0xE29 SWAP3 SWAP2 SWAP1 PUSH2 0x1BC5 JUMP JUMPDEST PUSH1 0x40 MLOAD PUSH1 0x20 DUP2 DUP4 SUB SUB DUP2 MSTORE SWAP1 PUSH1 0x40 MSTORE SWAP1 PUSH28 0xFFFFFFFFFFFFFFFFFFFFFFFFFFFFFFFFFFFFFFFFFFFFFFFFFFFFFFFF NOT AND PUSH1 0x20 DUP3 ADD DUP1 MLOAD PUSH28 0xFFFFFFFFFFFFFFFFFFFFFFFFFFFFFFFFFFFFFFFFFFFFFFFFFFFFFFFF DUP4 DUP2 DUP4 AND OR DUP4 MSTORE POP POP POP POP PUSH2 0x10F2 JUMP JUMPDEST POP POP POP JUMP JUMPDEST PUSH1 0x60 PUSH2 0xEB6 DUP3 PUSH20 0xFFFFFFFFFFFFFFFFFFFFFFFFFFFFFFFFFFFFFFFF AND PUSH1 0x14 PUSH1 0xFF AND PUSH2 0xEBD JUMP JUMPDEST SWAP1 POP SWAP2 SWAP1 POP JUMP JUMPDEST PUSH1 0x60 PUSH0 PUSH1 0x2 DUP4 PUSH1 0x2 PUSH2 0xECF SWAP2 SWAP1 PUSH2 0x19D4 JUMP JUMPDEST PUSH2 0xED9 SWAP2 SWAP1 PUSH2 0x18AB JUMP JUMPDEST PUSH8 0xFFFFFFFFFFFFFFFF DUP2 GT ISZERO PUSH2 0xEF2 JUMPI PUSH2 0xEF1 PUSH2 0x1BEC JUMP JUMPDEST JUMPDEST PUSH1 0x40 MLOAD SWAP1 DUP1 DUP3 MSTORE DUP1 PUSH1 0x1F ADD PUSH1 0x1F NOT AND PUSH1 0x20 ADD DUP3 ADD PUSH1 0x40 MSTORE DUP1 ISZERO PUSH2 0xF24 JUMPI DUP2 PUSH1 0x20 ADD PUSH1 0x1 DUP3 MUL DUP1 CALLDATASIZE DUP4 CALLDATACOPY DUP1 DUP3 ADD SWAP2 POP POP SWAP1 POP JUMPDEST POP SWAP1 POP PUSH32 0x3000000000000000000000000000000000000000000000000000000000000000 DUP2 PUSH0 DUP2 MLOAD DUP2 LT PUSH2 0xF5B JUMPI PUSH2 0xF5A PUSH2 0x1C19 JUMP JUMPDEST JUMPDEST PUSH1 0x20 ADD ADD SWAP1 PUSH31 0xFFFFFFFFFFFFFFFFFFFFFFFFFFFFFFFFFFFFFFFFFFFFFFFFFFFFFFFFFFFFFF NOT AND SWAP1 DUP2 PUSH0 BYTE SWAP1 MSTORE8 POP PUSH32 0x7800000000000000000000000000000000000000000000000000000000000000 DUP2 PUSH1 0x1 DUP2 MLOAD DUP2 LT PUSH2 0xFBE JUMPI PUSH2 0xFBD PUSH2 0x1C19 JUMP JUMPDEST JUMPDEST PUSH1 0x20 ADD ADD SWAP1 PUSH31 0xFFFFFFFFFFFFFFFFFFFFFFFFFFFFFFFFFFFFFFFFFFFFFFFFFFFFFFFFFFFFFF NOT AND SWAP1 DUP2 PUSH0 BYTE SWAP1 MSTORE8 POP PUSH0 PUSH1 0x1 DUP5 PUSH1 0x2 PUSH2 0xFFC SWAP2 SWAP1 PUSH2 0x19D4 JUMP JUMPDEST PUSH2 0x1006 SWAP2 SWAP1 PUSH2 0x18AB JUMP JUMPDEST SWAP1 POP JUMPDEST PUSH1 0x1 DUP2 GT ISZERO PUSH2 0x10A5 JUMPI PUSH32 0x3031323334353637383961626364656600000000000000000000000000000000 PUSH1 0xF DUP7 AND PUSH1 0x10 DUP2 LT PUSH2 0x1048 JUMPI PUSH2 0x1047 PUSH2 0x1C19 JUMP JUMPDEST JUMPDEST BYTE PUSH1 0xF8 SHL DUP3 DUP3 DUP2 MLOAD DUP2 LT PUSH2 0x105F JUMPI PUSH2 0x105E PUSH2 0x1C19 JUMP JUMPDEST JUMPDEST PUSH1 0x20 ADD ADD SWAP1 PUSH31 0xFFFFFFFFFFFFFFFFFFFFFFFFFFFFFFFFFFFFFFFFFFFFFFFFFFFFFFFFFFFFFF NOT AND SWAP1 DUP2 PUSH0 BYTE SWAP1 MSTORE8 POP PUSH1 0x4 DUP6 SWAP1 SHR SWAP5 POP DUP1 PUSH2 0x109E SWAP1 PUSH2 0x1C46 JUMP JUMPDEST SWAP1 POP PUSH2 0x1009 JUMP JUMPDEST POP PUSH0 DUP5 EQ PUSH2 0x10E8 JUMPI PUSH1 0x40 MLOAD PUSH32 0x8C379A000000000000000000000000000000000000000000000000000000000 DUP2 MSTORE PUSH1 0x4 ADD PUSH2 0x10DF SWAP1 PUSH2 0x1CB7 JUMP JUMPDEST PUSH1 0x40 MLOAD DUP1 SWAP2 SUB SWAP1 REVERT JUMPDEST DUP1 SWAP2 POP POP SWAP3 SWAP2 POP POP JUMP JUMPDEST PUSH0 PUSH2 0x1153 DUP3 PUSH1 0x40 MLOAD DUP1 PUSH1 0x40 ADD PUSH1 0x40 MSTORE DUP1 PUSH1 0x20 DUP2 MSTORE PUSH1 0x20 ADD PUSH32 0x5361666545524332303A206C6F772D6C6576656C2063616C6C206661696C6564 DUP2 MSTORE POP DUP6 PUSH20 0xFFFFFFFFFFFFFFFFFFFFFFFFFFFFFFFFFFFFFFFF AND PUSH2 0x11B8 SWAP1 SWAP3 SWAP2 SWAP1 PUSH4 0xFFFFFFFF AND JUMP JUMPDEST SWAP1 POP PUSH0 DUP2 MLOAD EQ DUP1 PUSH2 0x1174 JUMPI POP DUP1 DUP1 PUSH1 0x20 ADD SWAP1 MLOAD DUP2 ADD SWAP1 PUSH2 0x1173 SWAP2 SWAP1 PUSH2 0x1CFF JUMP JUMPDEST JUMPDEST PUSH2 0x11B3 JUMPI PUSH1 0x40 MLOAD PUSH32 0x8C379A000000000000000000000000000000000000000000000000000000000 DUP2 MSTORE PUSH1 0x4 ADD PUSH2 0x11AA SWAP1 PUSH2 0x1D9A JUMP JUMPDEST PUSH1 0x40 MLOAD DUP1 SWAP2 SUB SWAP1 REVERT JUMPDEST POP POP POP JUMP JUMPDEST PUSH1 0x60 PUSH2 0x11C6 DUP5 DUP5 PUSH0 DUP6 PUSH2 0x11CF JUMP JUMPDEST SWAP1 POP SWAP4 SWAP3 POP POP POP JUMP JUMPDEST PUSH1 0x60 DUP3 SELFBALANCE LT ISZERO PUSH2 0x1214 JUMPI PUSH1 0x40 MLOAD PUSH32 0x8C379A000000000000000000000000000000000000000000000000000000000 DUP2 MSTORE PUSH1 0x4 ADD PUSH2 0x120B SWAP1 PUSH2 0x1E28 JUMP JUMPDEST PUSH1 0x40 MLOAD DUP1 SWAP2 SUB SWAP1 REVERT JUMPDEST PUSH0 DUP1 DUP7 PUSH20 0xFFFFFFFFFFFFFFFFFFFFFFFFFFFFFFFFFFFFFFFF AND DUP6 DUP8 PUSH1 0x40 MLOAD PUSH2 0x123C SWAP2 SWAP1 PUSH2 0x1E8A JUMP JUMPDEST PUSH0 PUSH1 0x40 MLOAD DUP1 DUP4 SUB DUP2 DUP6 DUP8 GAS CALL SWAP3 POP POP POP RETURNDATASIZE DUP1 PUSH0 DUP2 EQ PUSH2 0x1276 JUMPI PUSH1 0x40 MLOAD SWAP2 POP PUSH1 0x1F NOT PUSH1 0x3F RETURNDATASIZE ADD AND DUP3 ADD PUSH1 0x40 MSTORE RETURNDATASIZE DUP3 MSTORE RETURNDATASIZE PUSH0 PUSH1 0x20 DUP5 ADD RETURNDATACOPY PUSH2 0x127B JUMP JUMPDEST PUSH1 0x60 SWAP2 POP JUMPDEST POP SWAP2 POP SWAP2 POP PUSH2 0x128C DUP8 DUP4 DUP4 DUP8 PUSH2 0x1298 JUMP JUMPDEST SWAP3 POP POP POP SWAP5 SWAP4 POP POP POP POP JUMP JUMPDEST PUSH1 0x60 DUP4 ISZERO PUSH2 0x12F9 JUMPI PUSH0 DUP4 MLOAD SUB PUSH2 0x12F1 JUMPI PUSH2 0x12B1 DUP6 PUSH2 0x130C JUMP JUMPDEST PUSH2 0x12F0 JUMPI PUSH1 0x40 MLOAD PUSH32 0x8C379A000000000000000000000000000000000000000000000000000000000 DUP2 MSTORE PUSH1 0x4 ADD PUSH2 0x12E7 SWAP1 PUSH2 0x1EEA JUMP JUMPDEST PUSH1 0x40 MLOAD DUP1 SWAP2 SUB SWAP1 REVERT JUMPDEST JUMPDEST DUP3 SWAP1 POP PUSH2 0x1304 JUMP JUMPDEST PUSH2 0x1303 DUP4 DUP4 PUSH2 0x132E JUMP JUMPDEST JUMPDEST SWAP5 SWAP4 POP POP POP POP JUMP JUMPDEST PUSH0 DUP1 DUP3 PUSH20 0xFFFFFFFFFFFFFFFFFFFFFFFFFFFFFFFFFFFFFFFF AND EXTCODESIZE GT SWAP1 POP SWAP2 SWAP1 POP JUMP JUMPDEST PUSH0 DUP3 MLOAD GT ISZERO PUSH2 0x1340 JUMPI DUP2 MLOAD DUP1 DUP4 PUSH1 0x20 ADD REVERT JUMPDEST DUP1 PUSH1 0x40 MLOAD PUSH32 0x8C379A000000000000000000000000000000000000000000000000000000000 DUP2 MSTORE PUSH1 0x4 ADD PUSH2 0x1374 SWAP2 SWAP1 PUSH2 0x1B96 JUMP JUMPDEST PUSH1 0x40 MLOAD DUP1 SWAP2 SUB SWAP1 REVERT JUMPDEST PUSH0 DUP1 REVERT JUMPDEST PUSH0 PUSH32 0xFFFFFFFF00000000000000000000000000000000000000000000000000000000 DUP3 AND SWAP1 POP SWAP2 SWAP1 POP JUMP JUMPDEST PUSH2 0x13B5 DUP2 PUSH2 0x1381 JUMP JUMPDEST DUP2 EQ PUSH2 0x13BF JUMPI PUSH0 DUP1 REVERT JUMPDEST POP JUMP JUMPDEST PUSH0 DUP2 CALLDATALOAD SWAP1 POP PUSH2 0x13D0 DUP2 PUSH2 0x13AC JUMP JUMPDEST SWAP3 SWAP2 POP POP JUMP JUMPDEST PUSH0 PUSH1 0x20 DUP3 DUP5 SUB SLT ISZERO PUSH2 0x13EB JUMPI PUSH2 0x13EA PUSH2 0x137D JUMP JUMPDEST JUMPDEST PUSH0 PUSH2 0x13F8 DUP5 DUP3 DUP6 ADD PUSH2 0x13C2 JUMP JUMPDEST SWAP2 POP POP SWAP3 SWAP2 POP POP JUMP JUMPDEST PUSH0 DUP2 ISZERO ISZERO SWAP1 POP SWAP2 SWAP1 POP JUMP JUMPDEST PUSH2 0x1415 DUP2 PUSH2 0x1401 JUMP JUMPDEST DUP3 MSTORE POP POP JUMP JUMPDEST PUSH0 PUSH1 0x20 DUP3 ADD SWAP1 POP PUSH2 0x142E PUSH0 DUP4 ADD DUP5 PUSH2 0x140C JUMP JUMPDEST SWAP3 SWAP2 POP POP JUMP JUMPDEST PUSH0 PUSH20 0xFFFFFFFFFFFFFFFFFFFFFFFFFFFFFFFFFFFFFFFF DUP3 AND SWAP1 POP SWAP2 SWAP1 POP JUMP JUMPDEST PUSH0 PUSH2 0x145D DUP3 PUSH2 0x1434 JUMP JUMPDEST SWAP1 POP SWAP2 SWAP1 POP JUMP JUMPDEST PUSH2 0x146D DUP2 PUSH2 0x1453 JUMP JUMPDEST DUP2 EQ PUSH2 0x1477 JUMPI PUSH0 DUP1 REVERT JUMPDEST POP JUMP JUMPDEST PUSH0 DUP2 CALLDATALOAD SWAP1 POP PUSH2 0x1488 DUP2 PUSH2 0x1464 JUMP JUMPDEST SWAP3 SWAP2 POP POP JUMP JUMPDEST PUSH0 PUSH1 0x20 DUP3 DUP5 SUB SLT ISZERO PUSH2 0x14A3 JUMPI PUSH2 0x14A2 PUSH2 0x137D JUMP JUMPDEST JUMPDEST PUSH0 PUSH2 0x14B0 DUP5 DUP3 DUP6 ADD PUSH2 0x147A JUMP JUMPDEST SWAP2 POP POP SWAP3 SWAP2 POP POP JUMP JUMPDEST PUSH0 DUP2 SWAP1 POP SWAP2 SWAP1 POP JUMP JUMPDEST PUSH2 0x14CB DUP2 PUSH2 0x14B9 JUMP JUMPDEST DUP3 MSTORE POP POP JUMP JUMPDEST PUSH0 PUSH1 0x20 DUP3 ADD SWAP1 POP PUSH2 0x14E4 PUSH0 DUP4 ADD DUP5 PUSH2 0x14C2 JUMP JUMPDEST SWAP3 SWAP2 POP POP JUMP JUMPDEST PUSH0 DUP2 SWAP1 POP SWAP2 SWAP1 POP JUMP JUMPDEST PUSH2 0x14FC DUP2 PUSH2 0x14EA JUMP JUMPDEST DUP2 EQ PUSH2 0x1506 JUMPI PUSH0 DUP1 REVERT JUMPDEST POP JUMP JUMPDEST PUSH0 DUP2 CALLDATALOAD SWAP1 POP PUSH2 0x1517 DUP2 PUSH2 0x14F3 JUMP JUMPDEST SWAP3 SWAP2 POP POP JUMP JUMPDEST PUSH0 PUSH1 0x20 DUP3 DUP5 SUB SLT ISZERO PUSH2 0x1532 JUMPI PUSH2 0x1531 PUSH2 0x137D JUMP JUMPDEST JUMPDEST PUSH0 PUSH2 0x153F DUP5 DUP3 DUP6 ADD PUSH2 0x1509 JUMP JUMPDEST SWAP2 POP POP SWAP3 SWAP2 POP POP JUMP JUMPDEST PUSH2 0x1551 DUP2 PUSH2 0x14EA JUMP JUMPDEST DUP3 MSTORE POP POP JUMP JUMPDEST PUSH0 PUSH1 0x20 DUP3 ADD SWAP1 POP PUSH2 0x156A PUSH0 DUP4 ADD DUP5 PUSH2 0x1548 JUMP JUMPDEST SWAP3 SWAP2 POP POP JUMP JUMPDEST PUSH0 DUP1 PUSH1 0x40 DUP4 DUP6 SUB SLT ISZERO PUSH2 0x1586 JUMPI PUSH2 0x1585 PUSH2 0x137D JUMP JUMPDEST JUMPDEST PUSH0 PUSH2 0x1593 DUP6 DUP3 DUP7 ADD PUSH2 0x1509 JUMP JUMPDEST SWAP3 POP POP PUSH1 0x20 PUSH2 0x15A4 DUP6 DUP3 DUP7 ADD PUSH2 0x147A JUMP JUMPDEST SWAP2 POP POP SWAP3 POP SWAP3 SWAP1 POP JUMP JUMPDEST PUSH0 PUSH2 0x15B8 DUP3 PUSH2 0x1434 JUMP JUMPDEST SWAP1 POP SWAP2 SWAP1 POP JUMP JUMPDEST PUSH2 0x15C8 DUP2 PUSH2 0x15AE JUMP JUMPDEST DUP3 MSTORE POP POP JUMP JUMPDEST PUSH0 PUSH1 0x20 DUP3 ADD SWAP1 POP PUSH2 0x15E1 PUSH0 DUP4 ADD DUP5 PUSH2 0x15BF JUMP JUMPDEST SWAP3 SWAP2 POP POP JUMP JUMPDEST PUSH2 0x15F0 DUP2 PUSH2 0x14B9 JUMP JUMPDEST DUP2 EQ PUSH2 0x15FA JUMPI PUSH0 DUP1 REVERT JUMPDEST POP JUMP JUMPDEST PUSH0 DUP2 CALLDATALOAD SWAP1 POP PUSH2 0x160B DUP2 PUSH2 0x15E7 JUMP JUMPDEST SWAP3 SWAP2 POP POP JUMP JUMPDEST PUSH0 DUP1 PUSH1 0x40 DUP4 DUP6 SUB SLT ISZERO PUSH2 0x1627 JUMPI PUSH2 0x1626 PUSH2 0x137D JUMP JUMPDEST JUMPDEST PUSH0 PUSH2 0x1634 DUP6 DUP3 DUP7 ADD PUSH2 0x147A JUMP JUMPDEST SWAP3 POP POP PUSH1 0x20 PUSH2 0x1645 DUP6 DUP3 DUP7 ADD PUSH2 0x15FD JUMP JUMPDEST SWAP2 POP POP SWAP3 POP SWAP3 SWAP1 POP JUMP JUMPDEST PUSH0 DUP2 SWAP1 POP SWAP2 SWAP1 POP JUMP JUMPDEST PUSH0 PUSH2 0x1672 PUSH2 0x166D PUSH2 0x1668 DUP5 PUSH2 0x1434 JUMP JUMPDEST PUSH2 0x164F JUMP JUMPDEST PUSH2 0x1434 JUMP JUMPDEST SWAP1 POP SWAP2 SWAP1 POP JUMP JUMPDEST PUSH0 PUSH2 0x1683 DUP3 PUSH2 0x1658 JUMP JUMPDEST SWAP1 POP SWAP2 SWAP1 POP JUMP JUMPDEST PUSH0 PUSH2 0x1694 DUP3 PUSH2 0x1679 JUMP JUMPDEST SWAP1 POP SWAP2 SWAP1 POP JUMP JUMPDEST PUSH2 0x16A4 DUP2 PUSH2 0x168A JUMP JUMPDEST DUP3 MSTORE POP POP JUMP JUMPDEST PUSH0 PUSH1 0x20 DUP3 ADD SWAP1 POP PUSH2 0x16BD PUSH0 DUP4 ADD DUP5 PUSH2 0x169B JUMP JUMPDEST SWAP3 SWAP2 POP POP JUMP JUMPDEST PUSH0 PUSH1 0x40 DUP3 ADD SWAP1 POP PUSH2 0x16D6 PUSH0 DUP4 ADD DUP6 PUSH2 0x14C2 JUMP JUMPDEST PUSH2 0x16E3 PUSH1 0x20 DUP4 ADD DUP5 PUSH2 0x14C2 JUMP JUMPDEST SWAP4 SWAP3 POP POP POP JUMP JUMPDEST PUSH0 DUP3 DUP3 MSTORE PUSH1 0x20 DUP3 ADD SWAP1 POP SWAP3 SWAP2 POP POP JUMP JUMPDEST PUSH32 0x416363657373436F6E74726F6C3A2063616E206F6E6C792072656E6F756E6365 PUSH0 DUP3 ADD MSTORE PUSH32 0x20726F6C657320666F722073656C660000000000000000000000000000000000 PUSH1 0x20 DUP3 ADD MSTORE POP JUMP JUMPDEST PUSH0 PUSH2 0x1754 PUSH1 0x2F DUP4 PUSH2 0x16EA JUMP JUMPDEST SWAP2 POP PUSH2 0x175F DUP3 PUSH2 0x16FA JUMP JUMPDEST PUSH1 0x40 DUP3 ADD SWAP1 POP SWAP2 SWAP1 POP JUMP JUMPDEST PUSH0 PUSH1 0x20 DUP3 ADD SWAP1 POP DUP2 DUP2 SUB PUSH0 DUP4 ADD MSTORE PUSH2 0x1781 DUP2 PUSH2 0x1748 JUMP JUMPDEST SWAP1 POP SWAP2 SWAP1 POP JUMP JUMPDEST PUSH32 0x5265656E7472616E637947756172643A207265656E7472616E742063616C6C00 PUSH0 DUP3 ADD MSTORE POP JUMP JUMPDEST PUSH0 PUSH2 0x17BC PUSH1 0x1F DUP4 PUSH2 0x16EA JUMP JUMPDEST SWAP2 POP PUSH2 0x17C7 DUP3 PUSH2 0x1788 JUMP JUMPDEST PUSH1 0x20 DUP3 ADD SWAP1 POP SWAP2 SWAP1 POP JUMP JUMPDEST PUSH0 PUSH1 0x20 DUP3 ADD SWAP1 POP DUP2 DUP2 SUB PUSH0 DUP4 ADD MSTORE PUSH2 0x17E9 DUP2 PUSH2 0x17B0 JUMP JUMPDEST SWAP1 POP SWAP2 SWAP1 POP JUMP JUMPDEST PUSH32 0x496E646976696475616C6C7943617070656443726F776473616C653A2062656E PUSH0 DUP3 ADD MSTORE PUSH32 0x6566696369617279277320636170206578636565646564000000000000000000 PUSH1 0x20 DUP3 ADD MSTORE POP JUMP JUMPDEST PUSH0 PUSH2 0x184A PUSH1 0x37 DUP4 PUSH2 0x16EA JUMP JUMPDEST SWAP2 POP PUSH2 0x1855 DUP3 PUSH2 0x17F0 JUMP JUMPDEST PUSH1 0x40 DUP3 ADD SWAP1 POP SWAP2 SWAP1 POP JUMP JUMPDEST PUSH0 PUSH1 0x20 DUP3 ADD SWAP1 POP DUP2 DUP2 SUB PUSH0 DUP4 ADD MSTORE PUSH2 0x1877 DUP2 PUSH2 0x183E JUMP JUMPDEST SWAP1 POP SWAP2 SWAP1 POP JUMP JUMPDEST PUSH32 0x4E487B7100000000000000000000000000000000000000000000000000000000 PUSH0 MSTORE PUSH1 0x11 PUSH1 0x4 MSTORE PUSH1 0x24 PUSH0 REVERT JUMPDEST PUSH0 PUSH2 0x18B5 DUP3 PUSH2 0x14B9 JUMP JUMPDEST SWAP2 POP PUSH2 0x18C0 DUP4 PUSH2 0x14B9 JUMP JUMPDEST SWAP3 POP DUP3 DUP3 ADD SWAP1 POP DUP1 DUP3 GT ISZERO PUSH2 0x18D8 JUMPI PUSH2 0x18D7 PUSH2 0x187E JUMP JUMPDEST JUMPDEST SWAP3 SWAP2 POP POP JUMP JUMPDEST PUSH32 0x43726F776473616C653A2062656E656669636961727920697320746865207A65 PUSH0 DUP3 ADD MSTORE PUSH32 0x726F206164647265737300000000000000000000000000000000000000000000 PUSH1 0x20 DUP3 ADD MSTORE POP JUMP JUMPDEST PUSH0 PUSH2 0x1938 PUSH1 0x2A DUP4 PUSH2 0x16EA JUMP JUMPDEST SWAP2 POP PUSH2 0x1943 DUP3 PUSH2 0x18DE JUMP JUMPDEST PUSH1 0x40 DUP3 ADD SWAP1 POP SWAP2 SWAP1 POP JUMP JUMPDEST PUSH0 PUSH1 0x20 DUP3 ADD SWAP1 POP DUP2 DUP2 SUB PUSH0 DUP4 ADD MSTORE PUSH2 0x1965 DUP2 PUSH2 0x192C JUMP JUMPDEST SWAP1 POP SWAP2 SWAP1 POP JUMP JUMPDEST PUSH32 0x43726F776473616C653A20776569416D6F756E74206973203000000000000000 PUSH0 DUP3 ADD MSTORE POP JUMP JUMPDEST PUSH0 PUSH2 0x19A0 PUSH1 0x19 DUP4 PUSH2 0x16EA JUMP JUMPDEST SWAP2 POP PUSH2 0x19AB DUP3 PUSH2 0x196C JUMP JUMPDEST PUSH1 0x20 DUP3 ADD SWAP1 POP SWAP2 SWAP1 POP JUMP JUMPDEST PUSH0 PUSH1 0x20 DUP3 ADD SWAP1 POP DUP2 DUP2 SUB PUSH0 DUP4 ADD MSTORE PUSH2 0x19CD DUP2 PUSH2 0x1994 JUMP JUMPDEST SWAP1 POP SWAP2 SWAP1 POP JUMP JUMPDEST PUSH0 PUSH2 0x19DE DUP3 PUSH2 0x14B9 JUMP JUMPDEST SWAP2 POP PUSH2 0x19E9 DUP4 PUSH2 0x14B9 JUMP JUMPDEST SWAP3 POP DUP3 DUP3 MUL PUSH2 0x19F7 DUP2 PUSH2 0x14B9 JUMP JUMPDEST SWAP2 POP DUP3 DUP3 DIV DUP5 EQ DUP4 ISZERO OR PUSH2 0x1A0E JUMPI PUSH2 0x1A0D PUSH2 0x187E JUMP JUMPDEST JUMPDEST POP SWAP3 SWAP2 POP POP JUMP JUMPDEST PUSH0 DUP2 SWAP1 POP SWAP3 SWAP2 POP POP JUMP JUMPDEST PUSH32 0x416363657373436F6E74726F6C3A206163636F756E7420000000000000000000 PUSH0 DUP3 ADD MSTORE POP JUMP JUMPDEST PUSH0 PUSH2 0x1A53 PUSH1 0x17 DUP4 PUSH2 0x1A15 JUMP JUMPDEST SWAP2 POP PUSH2 0x1A5E DUP3 PUSH2 0x1A1F JUMP JUMPDEST PUSH1 0x17 DUP3 ADD SWAP1 POP SWAP2 SWAP1 POP JUMP JUMPDEST PUSH0 DUP2 MLOAD SWAP1 POP SWAP2 SWAP1 POP JUMP JUMPDEST PUSH0 JUMPDEST DUP4 DUP2 LT ISZERO PUSH2 0x1A90 JUMPI DUP1 DUP3 ADD MLOAD DUP2 DUP5 ADD MSTORE PUSH1 0x20 DUP2 ADD SWAP1 POP PUSH2 0x1A75 JUMP JUMPDEST PUSH0 DUP5 DUP5 ADD MSTORE POP POP POP POP JUMP JUMPDEST PUSH0 PUSH2 0x1AA5 DUP3 PUSH2 0x1A69 JUMP JUMPDEST PUSH2 0x1AAF DUP2 DUP6 PUSH2 0x1A15 JUMP JUMPDEST SWAP4 POP PUSH2 0x1ABF DUP2 DUP6 PUSH1 0x20 DUP7 ADD PUSH2 0x1A73 JUMP JUMPDEST DUP1 DUP5 ADD SWAP2 POP POP SWAP3 SWAP2 POP POP JUMP JUMPDEST PUSH32 0x206973206D697373696E6720726F6C6520000000000000000000000000000000 PUSH0 DUP3 ADD MSTORE POP JUMP JUMPDEST PUSH0 PUSH2 0x1AFF PUSH1 0x11 DUP4 PUSH2 0x1A15 JUMP JUMPDEST SWAP2 POP PUSH2 0x1B0A DUP3 PUSH2 0x1ACB JUMP JUMPDEST PUSH1 0x11 DUP3 ADD SWAP1 POP SWAP2 SWAP1 POP JUMP JUMPDEST PUSH0 PUSH2 0x1B1F DUP3 PUSH2 0x1A47 JUMP JUMPDEST SWAP2 POP PUSH2 0x1B2B DUP3 DUP6 PUSH2 0x1A9B JUMP JUMPDEST SWAP2 POP PUSH2 0x1B36 DUP3 PUSH2 0x1AF3 JUMP JUMPDEST SWAP2 POP PUSH2 0x1B42 DUP3 DUP5 PUSH2 0x1A9B JUMP JUMPDEST SWAP2 POP DUP2 SWAP1 POP SWAP4 SWAP3 POP POP POP JUMP JUMPDEST PUSH0 PUSH1 0x1F NOT PUSH1 0x1F DUP4 ADD AND SWAP1 POP SWAP2 SWAP1 POP JUMP JUMPDEST PUSH0 PUSH2 0x1B68 DUP3 PUSH2 0x1A69 JUMP JUMPDEST PUSH2 0x1B72 DUP2 DUP6 PUSH2 0x16EA JUMP JUMPDEST SWAP4 POP PUSH2 0x1B82 DUP2 DUP6 PUSH1 0x20 DUP7 ADD PUSH2 0x1A73 JUMP JUMPDEST PUSH2 0x1B8B DUP2 PUSH2 0x1B4E JUMP JUMPDEST DUP5 ADD SWAP2 POP POP SWAP3 SWAP2 POP POP JUMP JUMPDEST PUSH0 PUSH1 0x20 DUP3 ADD SWAP1 POP DUP2 DUP2 SUB PUSH0 DUP4 ADD MSTORE PUSH2 0x1BAE DUP2 DUP5 PUSH2 0x1B5E JUMP JUMPDEST SWAP1 POP SWAP3 SWAP2 POP POP JUMP JUMPDEST PUSH2 0x1BBF DUP2 PUSH2 0x1453 JUMP JUMPDEST DUP3 MSTORE POP POP JUMP JUMPDEST PUSH0 PUSH1 0x40 DUP3 ADD SWAP1 POP PUSH2 0x1BD8 PUSH0 DUP4 ADD DUP6 PUSH2 0x1BB6 JUMP JUMPDEST PUSH2 0x1BE5 PUSH1 0x20 DUP4 ADD DUP5 PUSH2 0x14C2 JUMP JUMPDEST SWAP4 SWAP3 POP POP POP JUMP JUMPDEST PUSH32 0x4E487B7100000000000000000000000000000000000000000000000000000000 PUSH0 MSTORE PUSH1 0x41 PUSH1 0x4 MSTORE PUSH1 0x24 PUSH0 REVERT JUMPDEST PUSH32 0x4E487B7100000000000000000000000000000000000000000000000000000000 PUSH0 MSTORE PUSH1 0x32 PUSH1 0x4 MSTORE PUSH1 0x24 PUSH0 REVERT JUMPDEST PUSH0 PUSH2 0x1C50 DUP3 PUSH2 0x14B9 JUMP JUMPDEST SWAP2 POP PUSH0 DUP3 SUB PUSH2 0x1C62 JUMPI PUSH2 0x1C61 PUSH2 0x187E JUMP JUMPDEST JUMPDEST PUSH1 0x1 DUP3 SUB SWAP1 POP SWAP2 SWAP1 POP JUMP JUMPDEST PUSH32 0x537472696E67733A20686578206C656E67746820696E73756666696369656E74 PUSH0 DUP3 ADD MSTORE POP JUMP JUMPDEST PUSH0 PUSH2 0x1CA1 PUSH1 0x20 DUP4 PUSH2 0x16EA JUMP JUMPDEST SWAP2 POP PUSH2 0x1CAC DUP3 PUSH2 0x1C6D JUMP JUMPDEST PUSH1 0x20 DUP3 ADD SWAP1 POP SWAP2 SWAP1 POP JUMP JUMPDEST PUSH0 PUSH1 0x20 DUP3 ADD SWAP1 POP DUP2 DUP2 SUB PUSH0 DUP4 ADD MSTORE PUSH2 0x1CCE DUP2 PUSH2 0x1C95 JUMP JUMPDEST SWAP1 POP SWAP2 SWAP1 POP JUMP JUMPDEST PUSH2 0x1CDE DUP2 PUSH2 0x1401 JUMP JUMPDEST DUP2 EQ PUSH2 0x1CE8 JUMPI PUSH0 DUP1 REVERT JUMPDEST POP JUMP JUMPDEST PUSH0 DUP2 MLOAD SWAP1 POP PUSH2 0x1CF9 DUP2 PUSH2 0x1CD5 JUMP JUMPDEST SWAP3 SWAP2 POP POP JUMP JUMPDEST PUSH0 PUSH1 0x20 DUP3 DUP5 SUB SLT ISZERO PUSH2 0x1D14 JUMPI PUSH2 0x1D13 PUSH2 0x137D JUMP JUMPDEST JUMPDEST PUSH0 PUSH2 0x1D21 DUP5 DUP3 DUP6 ADD PUSH2 0x1CEB JUMP JUMPDEST SWAP2 POP POP SWAP3 SWAP2 POP POP JUMP JUMPDEST PUSH32 0x5361666545524332303A204552433230206F7065726174696F6E20646964206E PUSH0 DUP3 ADD MSTORE PUSH32 0x6F74207375636365656400000000000000000000000000000000000000000000 PUSH1 0x20 DUP3 ADD MSTORE POP JUMP JUMPDEST PUSH0 PUSH2 0x1D84 PUSH1 0x2A DUP4 PUSH2 0x16EA JUMP JUMPDEST SWAP2 POP PUSH2 0x1D8F DUP3 PUSH2 0x1D2A JUMP JUMPDEST PUSH1 0x40 DUP3 ADD SWAP1 POP SWAP2 SWAP1 POP JUMP JUMPDEST PUSH0 PUSH1 0x20 DUP3 ADD SWAP1 POP DUP2 DUP2 SUB PUSH0 DUP4 ADD MSTORE PUSH2 0x1DB1 DUP2 PUSH2 0x1D78 JUMP JUMPDEST SWAP1 POP SWAP2 SWAP1 POP JUMP JUMPDEST PUSH32 0x416464726573733A20696E73756666696369656E742062616C616E636520666F PUSH0 DUP3 ADD MSTORE PUSH32 0x722063616C6C0000000000000000000000000000000000000000000000000000 PUSH1 0x20 DUP3 ADD MSTORE POP JUMP JUMPDEST PUSH0 PUSH2 0x1E12 PUSH1 0x26 DUP4 PUSH2 0x16EA JUMP JUMPDEST SWAP2 POP PUSH2 0x1E1D DUP3 PUSH2 0x1DB8 JUMP JUMPDEST PUSH1 0x40 DUP3 ADD SWAP1 POP SWAP2 SWAP1 POP JUMP JUMPDEST PUSH0 PUSH1 0x20 DUP3 ADD SWAP1 POP DUP2 DUP2 SUB PUSH0 DUP4 ADD MSTORE PUSH2 0x1E3F DUP2 PUSH2 0x1E06 JUMP JUMPDEST SWAP1 POP SWAP2 SWAP1 POP JUMP JUMPDEST PUSH0 DUP2 MLOAD SWAP1 POP SWAP2 SWAP1 POP JUMP JUMPDEST PUSH0 DUP2 SWAP1 POP SWAP3 SWAP2 POP POP JUMP JUMPDEST PUSH0 PUSH2 0x1E64 DUP3 PUSH2 0x1E46 JUMP JUMPDEST PUSH2 0x1E6E DUP2 DUP6 PUSH2 0x1E50 JUMP JUMPDEST SWAP4 POP PUSH2 0x1E7E DUP2 DUP6 PUSH1 0x20 DUP7 ADD PUSH2 0x1A73 JUMP JUMPDEST DUP1 DUP5 ADD SWAP2 POP POP SWAP3 SWAP2 POP POP JUMP JUMPDEST PUSH0 PUSH2 0x1E95 DUP3 DUP5 PUSH2 0x1E5A JUMP JUMPDEST SWAP2 POP DUP2 SWAP1 POP SWAP3 SWAP2 POP POP JUMP JUMPDEST PUSH32 0x416464726573733A2063616C6C20746F206E6F6E2D636F6E7472616374000000 PUSH0 DUP3 ADD MSTORE POP JUMP JUMPDEST PUSH0 PUSH2 0x1ED4 PUSH1 0x1D DUP4 PUSH2 0x16EA JUMP JUMPDEST SWAP2 POP PUSH2 0x1EDF DUP3 PUSH2 0x1EA0 JUMP JUMPDEST PUSH1 0x20 DUP3 ADD SWAP1 POP SWAP2 SWAP1 POP JUMP JUMPDEST PUSH0 PUSH1 0x20 DUP3 ADD SWAP1 POP DUP2 DUP2 SUB PUSH0 DUP4 ADD MSTORE PUSH2 0x1F01 DUP2 PUSH2 0x1EC8 JUMP JUMPDEST SWAP1 POP SWAP2 SWAP1 POP JUMP INVALID LOG2 PUSH5 0x6970667358 0x22 SLT KECCAK256 CALLDATACOPY GASPRICE CODESIZE 0xC SIGNEXTEND CODECOPY CALLER 0xF7 0xBB PUSH16 0x6DF5430E2B4785EA7EA9BF1108C9471D 0x24 SWAP7 0x2D 0x4C REVERT PUSH17 0x64736F6C63430008150033000000000000 "
				},
				"gasEstimates": {
					"creation": {
						"codeDepositCost": "1599600",
						"executionCost": "infinite",
						"totalCost": "infinite"
					},
					"external": {
						"": "infinite",
						"DEFAULT_ADMIN_ROLE()": "419",
						"buyTokens(address)": "infinite",
						"getCap(address)": "2851",
						"getContribution(address)": "2875",
						"getRoleAdmin(bytes32)": "infinite",
						"grantRole(bytes32,address)": "infinite",
						"hasRole(bytes32,address)": "3189",
						"rate()": "2455",
						"renounceRole(bytes32,address)": "infinite",
						"revokeRole(bytes32,address)": "infinite",
						"setCap(address,uint256)": "infinite",
						"supportsInterface(bytes4)": "741",
						"token()": "infinite",
						"wallet()": "2538",
						"weiRaised()": "2521"
					},
					"internal": {
						"_preValidatePurchase(address,uint256)": "infinite",
						"_updatePurchasingState(address,uint256)": "infinite"
					}
				},
				"methodIdentifiers": {
					"DEFAULT_ADMIN_ROLE()": "a217fddf",
					"buyTokens(address)": "ec8ac4d8",
					"getCap(address)": "b3aefb75",
					"getContribution(address)": "21eff7fc",
					"getRoleAdmin(bytes32)": "248a9ca3",
					"grantRole(bytes32,address)": "2f2ff15d",
					"hasRole(bytes32,address)": "91d14854",
					"rate()": "2c4e722e",
					"renounceRole(bytes32,address)": "36568abe",
					"revokeRole(bytes32,address)": "d547741f",
					"setCap(address,uint256)": "80ad2cf3",
					"supportsInterface(bytes4)": "01ffc9a7",
					"token()": "fc0c546a",
					"wallet()": "521eb273",
					"weiRaised()": "4042b66f"
				}
			},
			"storageLayout": {
				"storage": [
					{
						"astId": 399,
						"contract": "crowdsale/validation/individuallyCappedCrowdsale.sol:IndividuallyCappedCrowdsale",
						"label": "_status",
						"offset": 0,
						"slot": "0",
						"type": "t_uint256"
					},
					{
						"astId": 2865,
						"contract": "crowdsale/validation/individuallyCappedCrowdsale.sol:IndividuallyCappedCrowdsale",
						"label": "_token",
						"offset": 0,
						"slot": "1",
						"type": "t_contract(IERC20)531"
					},
					{
						"astId": 2867,
						"contract": "crowdsale/validation/individuallyCappedCrowdsale.sol:IndividuallyCappedCrowdsale",
						"label": "_wallet",
						"offset": 0,
						"slot": "2",
						"type": "t_address_payable"
					},
					{
						"astId": 2869,
						"contract": "crowdsale/validation/individuallyCappedCrowdsale.sol:IndividuallyCappedCrowdsale",
						"label": "_rate",
						"offset": 0,
						"slot": "3",
						"type": "t_uint256"
					},
					{
						"astId": 2871,
						"contract": "crowdsale/validation/individuallyCappedCrowdsale.sol:IndividuallyCappedCrowdsale",
						"label": "_weiRaised",
						"offset": 0,
						"slot": "4",
						"type": "t_uint256"
					},
					{
						"astId": 24,
						"contract": "crowdsale/validation/individuallyCappedCrowdsale.sol:IndividuallyCappedCrowdsale",
						"label": "_roles",
						"offset": 0,
						"slot": "5",
						"type": "t_mapping(t_bytes32,t_struct(RoleData)19_storage)"
					},
					{
						"astId": 3170,
						"contract": "crowdsale/validation/individuallyCappedCrowdsale.sol:IndividuallyCappedCrowdsale",
						"label": "_contributions",
						"offset": 0,
						"slot": "6",
						"type": "t_mapping(t_address,t_uint256)"
					},
					{
						"astId": 3174,
						"contract": "crowdsale/validation/individuallyCappedCrowdsale.sol:IndividuallyCappedCrowdsale",
						"label": "_caps",
						"offset": 0,
						"slot": "7",
						"type": "t_mapping(t_address,t_uint256)"
					}
				],
				"types": {
					"t_address": {
						"encoding": "inplace",
						"label": "address",
						"numberOfBytes": "20"
					},
					"t_address_payable": {
						"encoding": "inplace",
						"label": "address payable",
						"numberOfBytes": "20"
					},
					"t_bool": {
						"encoding": "inplace",
						"label": "bool",
						"numberOfBytes": "1"
					},
					"t_bytes32": {
						"encoding": "inplace",
						"label": "bytes32",
						"numberOfBytes": "32"
					},
					"t_contract(IERC20)531": {
						"encoding": "inplace",
						"label": "contract IERC20",
						"numberOfBytes": "20"
					},
					"t_mapping(t_address,t_bool)": {
						"encoding": "mapping",
						"key": "t_address",
						"label": "mapping(address => bool)",
						"numberOfBytes": "32",
						"value": "t_bool"
					},
					"t_mapping(t_address,t_uint256)": {
						"encoding": "mapping",
						"key": "t_address",
						"label": "mapping(address => uint256)",
						"numberOfBytes": "32",
						"value": "t_uint256"
					},
					"t_mapping(t_bytes32,t_struct(RoleData)19_storage)": {
						"encoding": "mapping",
						"key": "t_bytes32",
						"label": "mapping(bytes32 => struct AccessControl.RoleData)",
						"numberOfBytes": "32",
						"value": "t_struct(RoleData)19_storage"
					},
					"t_struct(RoleData)19_storage": {
						"encoding": "inplace",
						"label": "struct AccessControl.RoleData",
						"members": [
							{
								"astId": 16,
								"contract": "crowdsale/validation/individuallyCappedCrowdsale.sol:IndividuallyCappedCrowdsale",
								"label": "members",
								"offset": 0,
								"slot": "0",
								"type": "t_mapping(t_address,t_bool)"
							},
							{
								"astId": 18,
								"contract": "crowdsale/validation/individuallyCappedCrowdsale.sol:IndividuallyCappedCrowdsale",
								"label": "adminRole",
								"offset": 0,
								"slot": "1",
								"type": "t_bytes32"
							}
						],
						"numberOfBytes": "64"
					},
					"t_uint256": {
						"encoding": "inplace",
						"label": "uint256",
						"numberOfBytes": "32"
					}
				}
			},
			"userdoc": {
				"events": {
					"TokensPurchased(address,address,uint256,uint256)": {
						"notice": "Event for token purchase logging"
					}
				},
				"kind": "user",
				"methods": {},
				"version": 1
			}
		}
	}
}