{
	"crowdsale/price/increasingPriceCrowdsale.sol": {
		"IncreasingPriceCrowdsale": {
			"abi": [
				{
					"inputs": [
						{
							"internalType": "uint256",
							"name": "inInitialRate",
							"type": "uint256"
						},
						{
							"internalType": "uint256",
							"name": "inFinalRate",
							"type": "uint256"
						},
						{
							"internalType": "uint256",
							"name": "inOpeningTime",
							"type": "uint256"
						},
						{
							"internalType": "uint256",
							"name": "inClosingTime",
							"type": "uint256"
						},
						{
							"internalType": "address payable",
							"name": "inWallet",
							"type": "address"
						},
						{
							"internalType": "contract IERC20",
							"name": "inToken",
							"type": "address"
						}
					],
					"stateMutability": "nonpayable",
					"type": "constructor"
				},
				{
					"anonymous": false,
					"inputs": [
						{
							"indexed": false,
							"internalType": "uint256",
							"name": "prevClosingTime",
							"type": "uint256"
						},
						{
							"indexed": false,
							"internalType": "uint256",
							"name": "newClosingTime",
							"type": "uint256"
						}
					],
					"name": "TimedCrowdsaleExtended",
					"type": "event"
				},
				{
					"anonymous": false,
					"inputs": [
						{
							"indexed": true,
							"internalType": "address",
							"name": "purchaser",
							"type": "address"
						},
						{
							"indexed": true,
							"internalType": "address",
							"name": "beneficiary",
							"type": "address"
						},
						{
							"indexed": false,
							"internalType": "uint256",
							"name": "value",
							"type": "uint256"
						},
						{
							"indexed": false,
							"internalType": "uint256",
							"name": "amount",
							"type": "uint256"
						}
					],
					"name": "TokensPurchased",
					"type": "event"
				},
				{
					"stateMutability": "payable",
					"type": "fallback"
				},
				{
					"inputs": [
						{
							"internalType": "address",
							"name": "beneficiary",
							"type": "address"
						}
					],
					"name": "buyTokens",
					"outputs": [],
					"stateMutability": "payable",
					"type": "function"
				},
				{
					"inputs": [],
					"name": "closingTime",
					"outputs": [
						{
							"internalType": "uint256",
							"name": "",
							"type": "uint256"
						}
					],
					"stateMutability": "view",
					"type": "function"
				},
				{
					"inputs": [],
					"name": "finalRate",
					"outputs": [
						{
							"internalType": "uint256",
							"name": "",
							"type": "uint256"
						}
					],
					"stateMutability": "view",
					"type": "function"
				},
				{
					"inputs": [],
					"name": "hasClosed",
					"outputs": [
						{
							"internalType": "bool",
							"name": "",
							"type": "bool"
						}
					],
					"stateMutability": "view",
					"type": "function"
				},
				{
					"inputs": [],
					"name": "initialRate",
					"outputs": [
						{
							"internalType": "uint256",
							"name": "",
							"type": "uint256"
						}
					],
					"stateMutability": "view",
					"type": "function"
				},
				{
					"inputs": [],
					"name": "isOpen",
					"outputs": [
						{
							"internalType": "bool",
							"name": "",
							"type": "bool"
						}
					],
					"stateMutability": "view",
					"type": "function"
				},
				{
					"inputs": [],
					"name": "openingTime",
					"outputs": [
						{
							"internalType": "uint256",
							"name": "",
							"type": "uint256"
						}
					],
					"stateMutability": "view",
					"type": "function"
				},
				{
					"inputs": [],
					"name": "rate",
					"outputs": [
						{
							"internalType": "uint256",
							"name": "",
							"type": "uint256"
						}
					],
					"stateMutability": "view",
					"type": "function"
				},
				{
					"inputs": [],
					"name": "token",
					"outputs": [
						{
							"internalType": "contract IERC20",
							"name": "",
							"type": "address"
						}
					],
					"stateMutability": "view",
					"type": "function"
				},
				{
					"inputs": [],
					"name": "wallet",
					"outputs": [
						{
							"internalType": "address payable",
							"name": "",
							"type": "address"
						}
					],
					"stateMutability": "view",
					"type": "function"
				},
				{
					"inputs": [],
					"name": "weiRaised",
					"outputs": [
						{
							"internalType": "uint256",
							"name": "",
							"type": "uint256"
						}
					],
					"stateMutability": "view",
					"type": "function"
				},
				{
					"stateMutability": "payable",
					"type": "receive"
				}
			],
			"devdoc": {
				"details": "Extension of Crowdsale contract that increases the price of tokens linearly in time. Note that what should be provided to the constructor is the initial and final _rates_, that is, the amount of tokens per wei contributed. Thus, the initial rate must be greater than the final rate.",
				"events": {
					"TimedCrowdsaleExtended(uint256,uint256)": {
						"params": {
							"newClosingTime": "new closing time",
							"prevClosingTime": "old closing time"
						}
					},
					"TokensPurchased(address,address,uint256,uint256)": {
						"params": {
							"amount": "amount of tokens purchased",
							"beneficiary": "who got the tokens",
							"purchaser": "who paid for the tokens",
							"value": "weis paid for purchase"
						}
					}
				},
				"kind": "dev",
				"methods": {
					"buyTokens(address)": {
						"details": "low level token purchase ***DO NOT OVERRIDE*** This function has a non-reentrancy guard, so it shouldn't be called by another `nonReentrant` function.",
						"params": {
							"beneficiary": "Recipient of the token purchase"
						}
					},
					"closingTime()": {
						"returns": {
							"_0": "the crowdsale closing time."
						}
					},
					"constructor": {
						"details": "Constructor, takes initial and final rates of tokens received per wei contributed.",
						"params": {
							"inClosingTime": "crowdsale closing time",
							"inFinalRate": "Number of tokens a buyer gets per wei at the end of the crowdsale",
							"inInitialRate": "Number of tokens a buyer gets per wei at the start of the crowdsale",
							"inOpeningTime": "crowdsale opening time",
							"inToken": "crowdsale token",
							"inWallet": "crowdsale wallet"
						}
					},
					"finalRate()": {
						"returns": {
							"_0": "the final rate of the crowdsale."
						}
					},
					"hasClosed()": {
						"details": "Checks whether the period in which the crowdsale is open has already elapsed.",
						"returns": {
							"_0": "Whether crowdsale period has elapsed"
						}
					},
					"initialRate()": {
						"returns": {
							"_0": "the initial rate of the crowdsale."
						}
					},
					"isOpen()": {
						"returns": {
							"_0": "true if the crowdsale is open, false otherwise."
						}
					},
					"openingTime()": {
						"returns": {
							"_0": "the crowdsale opening time."
						}
					},
					"rate()": {
						"details": "The base rate function is overridden to return the rate of tokens per wei at the present time. Note that, as price _increases_ with time, the rate _decreases_.",
						"returns": {
							"_0": "The number of tokens a buyer gets per wei at a given time"
						}
					},
					"token()": {
						"returns": {
							"_0": "the token being sold."
						}
					},
					"wallet()": {
						"returns": {
							"_0": "the address where funds are collected."
						}
					},
					"weiRaised()": {
						"returns": {
							"_0": "the amount of wei raised."
						}
					}
				},
				"title": "IncreasingPriceCrowdsale",
				"version": 1
			},
			"evm": {
				"assembly": "    /* \"crowdsale/price/increasingPriceCrowdsale.sol\":518:3280  contract IncreasingPriceCrowdsale is TimedCrowdsale {... */\n  mstore(0x40, 0x80)\n    /* \"crowdsale/price/increasingPriceCrowdsale.sol\":1170:1799  constructor (uint256 inInitialRate,... */\n  callvalue\n  dup1\n  iszero\n  tag_1\n  jumpi\n  0x00\n  dup1\n  revert\ntag_1:\n  pop\n  mload(0x40)\n  sub(codesize, bytecodeSize)\n  dup1\n  bytecodeSize\n  dup4\n  codecopy\n  dup2\n  dup2\n  add\n  0x40\n  mstore\n  dup2\n  add\n  swap1\n  tag_2\n  swap2\n  swap1\n  tag_3\n  jump\t// in\ntag_2:\n    /* \"crowdsale/price/increasingPriceCrowdsale.sol\":1390:1403  inOpeningTime */\n  dup4\n    /* \"crowdsale/price/increasingPriceCrowdsale.sol\":1405:1418  inClosingTime */\n  dup4\n    /* \"crowdsale/price/increasingPriceCrowdsale.sol\":1420:1433  inInitialRate */\n  dup8\n    /* \"crowdsale/price/increasingPriceCrowdsale.sol\":1435:1443  inWallet */\n  dup5\n    /* \"crowdsale/price/increasingPriceCrowdsale.sol\":1445:1452  inToken */\n  dup5\n    /* \"crowdsale/validation/timedCrowdsale.sol\":1204:1210  inRate */\n  dup3\n    /* \"crowdsale/validation/timedCrowdsale.sol\":1212:1220  inWallet */\n  dup3\n    /* \"crowdsale/validation/timedCrowdsale.sol\":1222:1229  inToken */\n  dup3\n    /* \"@openzeppelin/contracts/security/ReentrancyGuard.sol\":1716:1717  1 */\n  0x01\n    /* \"@openzeppelin/contracts/security/ReentrancyGuard.sol\":1821:1828  _status */\n  0x00\n    /* \"@openzeppelin/contracts/security/ReentrancyGuard.sol\":1821:1843  _status = _NOT_ENTERED */\n  dup2\n  swap1\n  sstore\n  pop\n    /* \"crowdsale/crowdsale.sol\":2644:2645  0 */\n  0x00\n    /* \"crowdsale/crowdsale.sol\":2635:2641  inRate */\n  dup4\n    /* \"crowdsale/crowdsale.sol\":2635:2645  inRate > 0 */\n  gt\n    /* \"crowdsale/crowdsale.sol\":2627:2670  require(inRate > 0, \"Crowdsale: rate is 0\") */\n  tag_10\n  jumpi\n  mload(0x40)\n  0x08c379a000000000000000000000000000000000000000000000000000000000\n  dup2\n  mstore\n  0x04\n  add\n  tag_11\n  swap1\n  tag_12\n  jump\t// in\ntag_11:\n  mload(0x40)\n  dup1\n  swap2\n  sub\n  swap1\n  revert\ntag_10:\n    /* \"crowdsale/crowdsale.sol\":2709:2710  0 */\n  0x00\n    /* \"crowdsale/crowdsale.sol\":2689:2711  inWallet != address(0) */\n  0xffffffffffffffffffffffffffffffffffffffff\n  and\n    /* \"crowdsale/crowdsale.sol\":2689:2697  inWallet */\n  dup3\n    /* \"crowdsale/crowdsale.sol\":2689:2711  inWallet != address(0) */\n  0xffffffffffffffffffffffffffffffffffffffff\n  and\n  sub\n    /* \"crowdsale/crowdsale.sol\":2681:2753  require(inWallet != address(0), \"Crowdsale: wallet is the zero address\") */\n  tag_13\n  jumpi\n  mload(0x40)\n  0x08c379a000000000000000000000000000000000000000000000000000000000\n  dup2\n  mstore\n  0x04\n  add\n  tag_14\n  swap1\n  tag_15\n  jump\t// in\ntag_14:\n  mload(0x40)\n  dup1\n  swap2\n  sub\n  swap1\n  revert\ntag_13:\n    /* \"crowdsale/crowdsale.sol\":2800:2801  0 */\n  0x00\n    /* \"crowdsale/crowdsale.sol\":2772:2802  address(inToken) != address(0) */\n  0xffffffffffffffffffffffffffffffffffffffff\n  and\n    /* \"crowdsale/crowdsale.sol\":2780:2787  inToken */\n  dup2\n    /* \"crowdsale/crowdsale.sol\":2772:2802  address(inToken) != address(0) */\n  0xffffffffffffffffffffffffffffffffffffffff\n  and\n  sub\n    /* \"crowdsale/crowdsale.sol\":2764:2843  require(address(inToken) != address(0), \"Crowdsale: token is the zero address\") */\n  tag_16\n  jumpi\n  mload(0x40)\n  0x08c379a000000000000000000000000000000000000000000000000000000000\n  dup2\n  mstore\n  0x04\n  add\n  tag_17\n  swap1\n  tag_18\n  jump\t// in\ntag_17:\n  mload(0x40)\n  dup1\n  swap2\n  sub\n  swap1\n  revert\ntag_16:\n    /* \"crowdsale/crowdsale.sol\":2864:2870  inRate */\n  dup3\n    /* \"crowdsale/crowdsale.sol\":2856:2861  _rate */\n  0x03\n    /* \"crowdsale/crowdsale.sol\":2856:2870  _rate = inRate */\n  dup2\n  swap1\n  sstore\n  pop\n    /* \"crowdsale/crowdsale.sol\":2891:2899  inWallet */\n  dup2\n    /* \"crowdsale/crowdsale.sol\":2881:2888  _wallet */\n  0x02\n  0x00\n    /* \"crowdsale/crowdsale.sol\":2881:2899  _wallet = inWallet */\n  0x0100\n  exp\n  dup2\n  sload\n  dup2\n  0xffffffffffffffffffffffffffffffffffffffff\n  mul\n  not\n  and\n  swap1\n  dup4\n  0xffffffffffffffffffffffffffffffffffffffff\n  and\n  mul\n  or\n  swap1\n  sstore\n  pop\n    /* \"crowdsale/crowdsale.sol\":2919:2926  inToken */\n  dup1\n    /* \"crowdsale/crowdsale.sol\":2910:2916  _token */\n  0x01\n  0x00\n    /* \"crowdsale/crowdsale.sol\":2910:2926  _token = inToken */\n  0x0100\n  exp\n  dup2\n  sload\n  dup2\n  0xffffffffffffffffffffffffffffffffffffffff\n  mul\n  not\n  and\n  swap1\n  dup4\n  0xffffffffffffffffffffffffffffffffffffffff\n  and\n  mul\n  or\n  swap1\n  sstore\n  pop\n    /* \"crowdsale/crowdsale.sol\":2545:2934  constructor (uint256 inRate, address payable inWallet, IERC20 inToken) {... */\n  pop\n  pop\n  pop\n    /* \"crowdsale/validation/timedCrowdsale.sol\":1322:1337  block.timestamp */\n  timestamp\n    /* \"crowdsale/validation/timedCrowdsale.sol\":1305:1318  inOpeningTime */\n  dup6\n    /* \"crowdsale/validation/timedCrowdsale.sol\":1305:1337  inOpeningTime >= block.timestamp */\n  lt\n  iszero\n    /* \"crowdsale/validation/timedCrowdsale.sol\":1297:1393  require(inOpeningTime >= block.timestamp, \"TimedCrowdsale: opening time is before current time\") */\n  tag_20\n  jumpi\n  mload(0x40)\n  0x08c379a000000000000000000000000000000000000000000000000000000000\n  dup2\n  mstore\n  0x04\n  add\n  tag_21\n  swap1\n  tag_22\n  jump\t// in\ntag_21:\n  mload(0x40)\n  dup1\n  swap2\n  sub\n  swap1\n  revert\ntag_20:\n    /* \"crowdsale/validation/timedCrowdsale.sol\":1482:1495  inOpeningTime */\n  dup5\n    /* \"crowdsale/validation/timedCrowdsale.sol\":1466:1479  inClosingTime */\n  dup5\n    /* \"crowdsale/validation/timedCrowdsale.sol\":1466:1495  inClosingTime > inOpeningTime */\n  gt\n    /* \"crowdsale/validation/timedCrowdsale.sol\":1458:1555  require(inClosingTime > inOpeningTime, \"TimedCrowdsale: opening time is not before closing time\") */\n  tag_23\n  jumpi\n  mload(0x40)\n  0x08c379a000000000000000000000000000000000000000000000000000000000\n  dup2\n  mstore\n  0x04\n  add\n  tag_24\n  swap1\n  tag_25\n  jump\t// in\ntag_24:\n  mload(0x40)\n  dup1\n  swap2\n  sub\n  swap1\n  revert\ntag_23:\n    /* \"crowdsale/validation/timedCrowdsale.sol\":1583:1596  inOpeningTime */\n  dup5\n    /* \"crowdsale/validation/timedCrowdsale.sol\":1568:1580  _openingTime */\n  0x05\n    /* \"crowdsale/validation/timedCrowdsale.sol\":1568:1596  _openingTime = inOpeningTime */\n  dup2\n  swap1\n  sstore\n  pop\n    /* \"crowdsale/validation/timedCrowdsale.sol\":1622:1635  inClosingTime */\n  dup4\n    /* \"crowdsale/validation/timedCrowdsale.sol\":1607:1619  _closingTime */\n  0x06\n    /* \"crowdsale/validation/timedCrowdsale.sol\":1607:1635  _closingTime = inClosingTime */\n  dup2\n  swap1\n  sstore\n  pop\n    /* \"crowdsale/validation/timedCrowdsale.sol\":1077:1643  constructor (uint256 inOpeningTime, uint256 inClosingTime, uint256 inRate, address payable inWallet, IERC20 inToken) Crowdsale(inRate, inWallet, inToken) {... */\n  pop\n  pop\n  pop\n  pop\n  pop\n    /* \"crowdsale/price/increasingPriceCrowdsale.sol\":1496:1497  0 */\n  0x00\n    /* \"crowdsale/price/increasingPriceCrowdsale.sol\":1482:1493  inFinalRate */\n  dup6\n    /* \"crowdsale/price/increasingPriceCrowdsale.sol\":1482:1497  inFinalRate > 0 */\n  gt\n    /* \"crowdsale/price/increasingPriceCrowdsale.sol\":1474:1543  require(inFinalRate > 0, \"IncreasingPriceCrowdsale: final rate is 0\") */\n  tag_27\n  jumpi\n  mload(0x40)\n  0x08c379a000000000000000000000000000000000000000000000000000000000\n  dup2\n  mstore\n  0x04\n  add\n  tag_28\n  swap1\n  tag_29\n  jump\t// in\ntag_28:\n  mload(0x40)\n  dup1\n  swap2\n  sub\n  swap1\n  revert\ntag_27:\n    /* \"crowdsale/price/increasingPriceCrowdsale.sol\":1632:1643  inFinalRate */\n  dup5\n    /* \"crowdsale/price/increasingPriceCrowdsale.sol\":1616:1629  inInitialRate */\n  dup7\n    /* \"crowdsale/price/increasingPriceCrowdsale.sol\":1616:1643  inInitialRate > inFinalRate */\n  gt\n    /* \"crowdsale/price/increasingPriceCrowdsale.sol\":1608:1717  require(inInitialRate > inFinalRate, \"IncreasingPriceCrowdsale: initial rate is not greater than final rate\") */\n  tag_30\n  jumpi\n  mload(0x40)\n  0x08c379a000000000000000000000000000000000000000000000000000000000\n  dup2\n  mstore\n  0x04\n  add\n  tag_31\n  swap1\n  tag_32\n  jump\t// in\ntag_31:\n  mload(0x40)\n  dup1\n  swap2\n  sub\n  swap1\n  revert\ntag_30:\n    /* \"crowdsale/price/increasingPriceCrowdsale.sol\":1743:1756  inInitialRate */\n  dup6\n    /* \"crowdsale/price/increasingPriceCrowdsale.sol\":1728:1740  _initialRate */\n  0x07\n    /* \"crowdsale/price/increasingPriceCrowdsale.sol\":1728:1756  _initialRate = inInitialRate */\n  dup2\n  swap1\n  sstore\n  pop\n    /* \"crowdsale/price/increasingPriceCrowdsale.sol\":1780:1791  inFinalRate */\n  dup5\n    /* \"crowdsale/price/increasingPriceCrowdsale.sol\":1767:1777  _finalRate */\n  0x08\n    /* \"crowdsale/price/increasingPriceCrowdsale.sol\":1767:1791  _finalRate = inFinalRate */\n  dup2\n  swap1\n  sstore\n  pop\n    /* \"crowdsale/price/increasingPriceCrowdsale.sol\":1170:1799  constructor (uint256 inInitialRate,... */\n  pop\n  pop\n  pop\n  pop\n  pop\n  pop\n    /* \"crowdsale/price/increasingPriceCrowdsale.sol\":518:3280  contract IncreasingPriceCrowdsale is TimedCrowdsale {... */\n  jump(tag_33)\n    /* \"#utility.yul\":88:205   */\ntag_35:\n    /* \"#utility.yul\":197:198   */\n  0x00\n    /* \"#utility.yul\":194:195   */\n  dup1\n    /* \"#utility.yul\":187:199   */\n  revert\n    /* \"#utility.yul\":334:411   */\ntag_37:\n    /* \"#utility.yul\":371:378   */\n  0x00\n    /* \"#utility.yul\":400:405   */\n  dup2\n    /* \"#utility.yul\":389:405   */\n  swap1\n  pop\n    /* \"#utility.yul\":334:411   */\n  swap2\n  swap1\n  pop\n  jump\t// out\n    /* \"#utility.yul\":417:539   */\ntag_38:\n    /* \"#utility.yul\":490:514   */\n  tag_69\n    /* \"#utility.yul\":508:513   */\n  dup2\n    /* \"#utility.yul\":490:514   */\n  tag_37\n  jump\t// in\ntag_69:\n    /* \"#utility.yul\":483:488   */\n  dup2\n    /* \"#utility.yul\":480:515   */\n  eq\n    /* \"#utility.yul\":470:533   */\n  tag_70\n  jumpi\n    /* \"#utility.yul\":529:530   */\n  0x00\n    /* \"#utility.yul\":526:527   */\n  dup1\n    /* \"#utility.yul\":519:531   */\n  revert\n    /* \"#utility.yul\":470:533   */\ntag_70:\n    /* \"#utility.yul\":417:539   */\n  pop\n  jump\t// out\n    /* \"#utility.yul\":545:688   */\ntag_39:\n    /* \"#utility.yul\":602:607   */\n  0x00\n    /* \"#utility.yul\":633:639   */\n  dup2\n    /* \"#utility.yul\":627:640   */\n  mload\n    /* \"#utility.yul\":618:640   */\n  swap1\n  pop\n    /* \"#utility.yul\":649:682   */\n  tag_72\n    /* \"#utility.yul\":676:681   */\n  dup2\n    /* \"#utility.yul\":649:682   */\n  tag_38\n  jump\t// in\ntag_72:\n    /* \"#utility.yul\":545:688   */\n  swap3\n  swap2\n  pop\n  pop\n  jump\t// out\n    /* \"#utility.yul\":694:820   */\ntag_40:\n    /* \"#utility.yul\":731:738   */\n  0x00\n    /* \"#utility.yul\":771:813   */\n  0xffffffffffffffffffffffffffffffffffffffff\n    /* \"#utility.yul\":764:769   */\n  dup3\n    /* \"#utility.yul\":760:814   */\n  and\n    /* \"#utility.yul\":749:814   */\n  swap1\n  pop\n    /* \"#utility.yul\":694:820   */\n  swap2\n  swap1\n  pop\n  jump\t// out\n    /* \"#utility.yul\":826:930   */\ntag_41:\n    /* \"#utility.yul\":871:878   */\n  0x00\n    /* \"#utility.yul\":900:924   */\n  tag_75\n    /* \"#utility.yul\":918:923   */\n  dup3\n    /* \"#utility.yul\":900:924   */\n  tag_40\n  jump\t// in\ntag_75:\n    /* \"#utility.yul\":889:924   */\n  swap1\n  pop\n    /* \"#utility.yul\":826:930   */\n  swap2\n  swap1\n  pop\n  jump\t// out\n    /* \"#utility.yul\":936:1074   */\ntag_42:\n    /* \"#utility.yul\":1017:1049   */\n  tag_77\n    /* \"#utility.yul\":1043:1048   */\n  dup2\n    /* \"#utility.yul\":1017:1049   */\n  tag_41\n  jump\t// in\ntag_77:\n    /* \"#utility.yul\":1010:1015   */\n  dup2\n    /* \"#utility.yul\":1007:1050   */\n  eq\n    /* \"#utility.yul\":997:1068   */\n  tag_78\n  jumpi\n    /* \"#utility.yul\":1064:1065   */\n  0x00\n    /* \"#utility.yul\":1061:1062   */\n  dup1\n    /* \"#utility.yul\":1054:1066   */\n  revert\n    /* \"#utility.yul\":997:1068   */\ntag_78:\n    /* \"#utility.yul\":936:1074   */\n  pop\n  jump\t// out\n    /* \"#utility.yul\":1080:1239   */\ntag_43:\n    /* \"#utility.yul\":1145:1150   */\n  0x00\n    /* \"#utility.yul\":1176:1182   */\n  dup2\n    /* \"#utility.yul\":1170:1183   */\n  mload\n    /* \"#utility.yul\":1161:1183   */\n  swap1\n  pop\n    /* \"#utility.yul\":1192:1233   */\n  tag_80\n    /* \"#utility.yul\":1227:1232   */\n  dup2\n    /* \"#utility.yul\":1192:1233   */\n  tag_42\n  jump\t// in\ntag_80:\n    /* \"#utility.yul\":1080:1239   */\n  swap3\n  swap2\n  pop\n  pop\n  jump\t// out\n    /* \"#utility.yul\":1245:1341   */\ntag_44:\n    /* \"#utility.yul\":1282:1289   */\n  0x00\n    /* \"#utility.yul\":1311:1335   */\n  tag_82\n    /* \"#utility.yul\":1329:1334   */\n  dup3\n    /* \"#utility.yul\":1311:1335   */\n  tag_40\n  jump\t// in\ntag_82:\n    /* \"#utility.yul\":1300:1335   */\n  swap1\n  pop\n    /* \"#utility.yul\":1245:1341   */\n  swap2\n  swap1\n  pop\n  jump\t// out\n    /* \"#utility.yul\":1347:1457   */\ntag_45:\n    /* \"#utility.yul\":1398:1405   */\n  0x00\n    /* \"#utility.yul\":1427:1451   */\n  tag_84\n    /* \"#utility.yul\":1445:1450   */\n  dup3\n    /* \"#utility.yul\":1427:1451   */\n  tag_44\n  jump\t// in\ntag_84:\n    /* \"#utility.yul\":1416:1451   */\n  swap1\n  pop\n    /* \"#utility.yul\":1347:1457   */\n  swap2\n  swap1\n  pop\n  jump\t// out\n    /* \"#utility.yul\":1463:1613   */\ntag_46:\n    /* \"#utility.yul\":1550:1588   */\n  tag_86\n    /* \"#utility.yul\":1582:1587   */\n  dup2\n    /* \"#utility.yul\":1550:1588   */\n  tag_45\n  jump\t// in\ntag_86:\n    /* \"#utility.yul\":1543:1548   */\n  dup2\n    /* \"#utility.yul\":1540:1589   */\n  eq\n    /* \"#utility.yul\":1530:1607   */\n  tag_87\n  jumpi\n    /* \"#utility.yul\":1603:1604   */\n  0x00\n    /* \"#utility.yul\":1600:1601   */\n  dup1\n    /* \"#utility.yul\":1593:1605   */\n  revert\n    /* \"#utility.yul\":1530:1607   */\ntag_87:\n    /* \"#utility.yul\":1463:1613   */\n  pop\n  jump\t// out\n    /* \"#utility.yul\":1619:1790   */\ntag_47:\n    /* \"#utility.yul\":1690:1695   */\n  0x00\n    /* \"#utility.yul\":1721:1727   */\n  dup2\n    /* \"#utility.yul\":1715:1728   */\n  mload\n    /* \"#utility.yul\":1706:1728   */\n  swap1\n  pop\n    /* \"#utility.yul\":1737:1784   */\n  tag_89\n    /* \"#utility.yul\":1778:1783   */\n  dup2\n    /* \"#utility.yul\":1737:1784   */\n  tag_46\n  jump\t// in\ntag_89:\n    /* \"#utility.yul\":1619:1790   */\n  swap3\n  swap2\n  pop\n  pop\n  jump\t// out\n    /* \"#utility.yul\":1796:2974   */\ntag_3:\n    /* \"#utility.yul\":1933:1939   */\n  0x00\n    /* \"#utility.yul\":1941:1947   */\n  dup1\n    /* \"#utility.yul\":1949:1955   */\n  0x00\n    /* \"#utility.yul\":1957:1963   */\n  dup1\n    /* \"#utility.yul\":1965:1971   */\n  0x00\n    /* \"#utility.yul\":1973:1979   */\n  dup1\n    /* \"#utility.yul\":2022:2025   */\n  0xc0\n    /* \"#utility.yul\":2010:2019   */\n  dup8\n    /* \"#utility.yul\":2001:2008   */\n  dup10\n    /* \"#utility.yul\":1997:2020   */\n  sub\n    /* \"#utility.yul\":1993:2026   */\n  slt\n    /* \"#utility.yul\":1990:2110   */\n  iszero\n  tag_91\n  jumpi\n    /* \"#utility.yul\":2029:2108   */\n  tag_92\n  tag_35\n  jump\t// in\ntag_92:\n    /* \"#utility.yul\":1990:2110   */\ntag_91:\n    /* \"#utility.yul\":2149:2150   */\n  0x00\n    /* \"#utility.yul\":2174:2238   */\n  tag_93\n    /* \"#utility.yul\":2230:2237   */\n  dup10\n    /* \"#utility.yul\":2221:2227   */\n  dup3\n    /* \"#utility.yul\":2210:2219   */\n  dup11\n    /* \"#utility.yul\":2206:2228   */\n  add\n    /* \"#utility.yul\":2174:2238   */\n  tag_39\n  jump\t// in\ntag_93:\n    /* \"#utility.yul\":2164:2238   */\n  swap7\n  pop\n    /* \"#utility.yul\":2120:2248   */\n  pop\n    /* \"#utility.yul\":2287:2289   */\n  0x20\n    /* \"#utility.yul\":2313:2377   */\n  tag_94\n    /* \"#utility.yul\":2369:2376   */\n  dup10\n    /* \"#utility.yul\":2360:2366   */\n  dup3\n    /* \"#utility.yul\":2349:2358   */\n  dup11\n    /* \"#utility.yul\":2345:2367   */\n  add\n    /* \"#utility.yul\":2313:2377   */\n  tag_39\n  jump\t// in\ntag_94:\n    /* \"#utility.yul\":2303:2377   */\n  swap6\n  pop\n    /* \"#utility.yul\":2258:2387   */\n  pop\n    /* \"#utility.yul\":2426:2428   */\n  0x40\n    /* \"#utility.yul\":2452:2516   */\n  tag_95\n    /* \"#utility.yul\":2508:2515   */\n  dup10\n    /* \"#utility.yul\":2499:2505   */\n  dup3\n    /* \"#utility.yul\":2488:2497   */\n  dup11\n    /* \"#utility.yul\":2484:2506   */\n  add\n    /* \"#utility.yul\":2452:2516   */\n  tag_39\n  jump\t// in\ntag_95:\n    /* \"#utility.yul\":2442:2516   */\n  swap5\n  pop\n    /* \"#utility.yul\":2397:2526   */\n  pop\n    /* \"#utility.yul\":2565:2567   */\n  0x60\n    /* \"#utility.yul\":2591:2655   */\n  tag_96\n    /* \"#utility.yul\":2647:2654   */\n  dup10\n    /* \"#utility.yul\":2638:2644   */\n  dup3\n    /* \"#utility.yul\":2627:2636   */\n  dup11\n    /* \"#utility.yul\":2623:2645   */\n  add\n    /* \"#utility.yul\":2591:2655   */\n  tag_39\n  jump\t// in\ntag_96:\n    /* \"#utility.yul\":2581:2655   */\n  swap4\n  pop\n    /* \"#utility.yul\":2536:2665   */\n  pop\n    /* \"#utility.yul\":2704:2707   */\n  0x80\n    /* \"#utility.yul\":2731:2803   */\n  tag_97\n    /* \"#utility.yul\":2795:2802   */\n  dup10\n    /* \"#utility.yul\":2786:2792   */\n  dup3\n    /* \"#utility.yul\":2775:2784   */\n  dup11\n    /* \"#utility.yul\":2771:2793   */\n  add\n    /* \"#utility.yul\":2731:2803   */\n  tag_43\n  jump\t// in\ntag_97:\n    /* \"#utility.yul\":2721:2803   */\n  swap3\n  pop\n    /* \"#utility.yul\":2675:2813   */\n  pop\n    /* \"#utility.yul\":2852:2855   */\n  0xa0\n    /* \"#utility.yul\":2879:2957   */\n  tag_98\n    /* \"#utility.yul\":2949:2956   */\n  dup10\n    /* \"#utility.yul\":2940:2946   */\n  dup3\n    /* \"#utility.yul\":2929:2938   */\n  dup11\n    /* \"#utility.yul\":2925:2947   */\n  add\n    /* \"#utility.yul\":2879:2957   */\n  tag_47\n  jump\t// in\ntag_98:\n    /* \"#utility.yul\":2869:2957   */\n  swap2\n  pop\n    /* \"#utility.yul\":2823:2967   */\n  pop\n    /* \"#utility.yul\":1796:2974   */\n  swap3\n  swap6\n  pop\n  swap3\n  swap6\n  pop\n  swap3\n  swap6\n  jump\t// out\n    /* \"#utility.yul\":2980:3149   */\ntag_48:\n    /* \"#utility.yul\":3064:3075   */\n  0x00\n    /* \"#utility.yul\":3098:3104   */\n  dup3\n    /* \"#utility.yul\":3093:3096   */\n  dup3\n    /* \"#utility.yul\":3086:3105   */\n  mstore\n    /* \"#utility.yul\":3138:3142   */\n  0x20\n    /* \"#utility.yul\":3133:3136   */\n  dup3\n    /* \"#utility.yul\":3129:3143   */\n  add\n    /* \"#utility.yul\":3114:3143   */\n  swap1\n  pop\n    /* \"#utility.yul\":2980:3149   */\n  swap3\n  swap2\n  pop\n  pop\n  jump\t// out\n    /* \"#utility.yul\":3155:3325   */\ntag_49:\n    /* \"#utility.yul\":3295:3317   */\n  0x43726f776473616c653a20726174652069732030000000000000000000000000\n    /* \"#utility.yul\":3291:3292   */\n  0x00\n    /* \"#utility.yul\":3283:3289   */\n  dup3\n    /* \"#utility.yul\":3279:3293   */\n  add\n    /* \"#utility.yul\":3272:3318   */\n  mstore\n    /* \"#utility.yul\":3155:3325   */\n  pop\n  jump\t// out\n    /* \"#utility.yul\":3331:3697   */\ntag_50:\n    /* \"#utility.yul\":3473:3476   */\n  0x00\n    /* \"#utility.yul\":3494:3561   */\n  tag_102\n    /* \"#utility.yul\":3558:3560   */\n  0x14\n    /* \"#utility.yul\":3553:3556   */\n  dup4\n    /* \"#utility.yul\":3494:3561   */\n  tag_48\n  jump\t// in\ntag_102:\n    /* \"#utility.yul\":3487:3561   */\n  swap2\n  pop\n    /* \"#utility.yul\":3570:3663   */\n  tag_103\n    /* \"#utility.yul\":3659:3662   */\n  dup3\n    /* \"#utility.yul\":3570:3663   */\n  tag_49\n  jump\t// in\ntag_103:\n    /* \"#utility.yul\":3688:3690   */\n  0x20\n    /* \"#utility.yul\":3683:3686   */\n  dup3\n    /* \"#utility.yul\":3679:3691   */\n  add\n    /* \"#utility.yul\":3672:3691   */\n  swap1\n  pop\n    /* \"#utility.yul\":3331:3697   */\n  swap2\n  swap1\n  pop\n  jump\t// out\n    /* \"#utility.yul\":3703:4122   */\ntag_12:\n    /* \"#utility.yul\":3869:3873   */\n  0x00\n    /* \"#utility.yul\":3907:3909   */\n  0x20\n    /* \"#utility.yul\":3896:3905   */\n  dup3\n    /* \"#utility.yul\":3892:3910   */\n  add\n    /* \"#utility.yul\":3884:3910   */\n  swap1\n  pop\n    /* \"#utility.yul\":3956:3965   */\n  dup2\n    /* \"#utility.yul\":3950:3954   */\n  dup2\n    /* \"#utility.yul\":3946:3966   */\n  sub\n    /* \"#utility.yul\":3942:3943   */\n  0x00\n    /* \"#utility.yul\":3931:3940   */\n  dup4\n    /* \"#utility.yul\":3927:3944   */\n  add\n    /* \"#utility.yul\":3920:3967   */\n  mstore\n    /* \"#utility.yul\":3984:4115   */\n  tag_105\n    /* \"#utility.yul\":4110:4114   */\n  dup2\n    /* \"#utility.yul\":3984:4115   */\n  tag_50\n  jump\t// in\ntag_105:\n    /* \"#utility.yul\":3976:4115   */\n  swap1\n  pop\n    /* \"#utility.yul\":3703:4122   */\n  swap2\n  swap1\n  pop\n  jump\t// out\n    /* \"#utility.yul\":4128:4352   */\ntag_51:\n    /* \"#utility.yul\":4268:4302   */\n  0x43726f776473616c653a2077616c6c657420697320746865207a65726f206164\n    /* \"#utility.yul\":4264:4265   */\n  0x00\n    /* \"#utility.yul\":4256:4262   */\n  dup3\n    /* \"#utility.yul\":4252:4266   */\n  add\n    /* \"#utility.yul\":4245:4303   */\n  mstore\n    /* \"#utility.yul\":4337:4344   */\n  0x6472657373000000000000000000000000000000000000000000000000000000\n    /* \"#utility.yul\":4332:4334   */\n  0x20\n    /* \"#utility.yul\":4324:4330   */\n  dup3\n    /* \"#utility.yul\":4320:4335   */\n  add\n    /* \"#utility.yul\":4313:4345   */\n  mstore\n    /* \"#utility.yul\":4128:4352   */\n  pop\n  jump\t// out\n    /* \"#utility.yul\":4358:4724   */\ntag_52:\n    /* \"#utility.yul\":4500:4503   */\n  0x00\n    /* \"#utility.yul\":4521:4588   */\n  tag_108\n    /* \"#utility.yul\":4585:4587   */\n  0x25\n    /* \"#utility.yul\":4580:4583   */\n  dup4\n    /* \"#utility.yul\":4521:4588   */\n  tag_48\n  jump\t// in\ntag_108:\n    /* \"#utility.yul\":4514:4588   */\n  swap2\n  pop\n    /* \"#utility.yul\":4597:4690   */\n  tag_109\n    /* \"#utility.yul\":4686:4689   */\n  dup3\n    /* \"#utility.yul\":4597:4690   */\n  tag_51\n  jump\t// in\ntag_109:\n    /* \"#utility.yul\":4715:4717   */\n  0x40\n    /* \"#utility.yul\":4710:4713   */\n  dup3\n    /* \"#utility.yul\":4706:4718   */\n  add\n    /* \"#utility.yul\":4699:4718   */\n  swap1\n  pop\n    /* \"#utility.yul\":4358:4724   */\n  swap2\n  swap1\n  pop\n  jump\t// out\n    /* \"#utility.yul\":4730:5149   */\ntag_15:\n    /* \"#utility.yul\":4896:4900   */\n  0x00\n    /* \"#utility.yul\":4934:4936   */\n  0x20\n    /* \"#utility.yul\":4923:4932   */\n  dup3\n    /* \"#utility.yul\":4919:4937   */\n  add\n    /* \"#utility.yul\":4911:4937   */\n  swap1\n  pop\n    /* \"#utility.yul\":4983:4992   */\n  dup2\n    /* \"#utility.yul\":4977:4981   */\n  dup2\n    /* \"#utility.yul\":4973:4993   */\n  sub\n    /* \"#utility.yul\":4969:4970   */\n  0x00\n    /* \"#utility.yul\":4958:4967   */\n  dup4\n    /* \"#utility.yul\":4954:4971   */\n  add\n    /* \"#utility.yul\":4947:4994   */\n  mstore\n    /* \"#utility.yul\":5011:5142   */\n  tag_111\n    /* \"#utility.yul\":5137:5141   */\n  dup2\n    /* \"#utility.yul\":5011:5142   */\n  tag_52\n  jump\t// in\ntag_111:\n    /* \"#utility.yul\":5003:5142   */\n  swap1\n  pop\n    /* \"#utility.yul\":4730:5149   */\n  swap2\n  swap1\n  pop\n  jump\t// out\n    /* \"#utility.yul\":5155:5378   */\ntag_53:\n    /* \"#utility.yul\":5295:5329   */\n  0x43726f776473616c653a20746f6b656e20697320746865207a65726f20616464\n    /* \"#utility.yul\":5291:5292   */\n  0x00\n    /* \"#utility.yul\":5283:5289   */\n  dup3\n    /* \"#utility.yul\":5279:5293   */\n  add\n    /* \"#utility.yul\":5272:5330   */\n  mstore\n    /* \"#utility.yul\":5364:5370   */\n  0x7265737300000000000000000000000000000000000000000000000000000000\n    /* \"#utility.yul\":5359:5361   */\n  0x20\n    /* \"#utility.yul\":5351:5357   */\n  dup3\n    /* \"#utility.yul\":5347:5362   */\n  add\n    /* \"#utility.yul\":5340:5371   */\n  mstore\n    /* \"#utility.yul\":5155:5378   */\n  pop\n  jump\t// out\n    /* \"#utility.yul\":5384:5750   */\ntag_54:\n    /* \"#utility.yul\":5526:5529   */\n  0x00\n    /* \"#utility.yul\":5547:5614   */\n  tag_114\n    /* \"#utility.yul\":5611:5613   */\n  0x24\n    /* \"#utility.yul\":5606:5609   */\n  dup4\n    /* \"#utility.yul\":5547:5614   */\n  tag_48\n  jump\t// in\ntag_114:\n    /* \"#utility.yul\":5540:5614   */\n  swap2\n  pop\n    /* \"#utility.yul\":5623:5716   */\n  tag_115\n    /* \"#utility.yul\":5712:5715   */\n  dup3\n    /* \"#utility.yul\":5623:5716   */\n  tag_53\n  jump\t// in\ntag_115:\n    /* \"#utility.yul\":5741:5743   */\n  0x40\n    /* \"#utility.yul\":5736:5739   */\n  dup3\n    /* \"#utility.yul\":5732:5744   */\n  add\n    /* \"#utility.yul\":5725:5744   */\n  swap1\n  pop\n    /* \"#utility.yul\":5384:5750   */\n  swap2\n  swap1\n  pop\n  jump\t// out\n    /* \"#utility.yul\":5756:6175   */\ntag_18:\n    /* \"#utility.yul\":5922:5926   */\n  0x00\n    /* \"#utility.yul\":5960:5962   */\n  0x20\n    /* \"#utility.yul\":5949:5958   */\n  dup3\n    /* \"#utility.yul\":5945:5963   */\n  add\n    /* \"#utility.yul\":5937:5963   */\n  swap1\n  pop\n    /* \"#utility.yul\":6009:6018   */\n  dup2\n    /* \"#utility.yul\":6003:6007   */\n  dup2\n    /* \"#utility.yul\":5999:6019   */\n  sub\n    /* \"#utility.yul\":5995:5996   */\n  0x00\n    /* \"#utility.yul\":5984:5993   */\n  dup4\n    /* \"#utility.yul\":5980:5997   */\n  add\n    /* \"#utility.yul\":5973:6020   */\n  mstore\n    /* \"#utility.yul\":6037:6168   */\n  tag_117\n    /* \"#utility.yul\":6163:6167   */\n  dup2\n    /* \"#utility.yul\":6037:6168   */\n  tag_54\n  jump\t// in\ntag_117:\n    /* \"#utility.yul\":6029:6168   */\n  swap1\n  pop\n    /* \"#utility.yul\":5756:6175   */\n  swap2\n  swap1\n  pop\n  jump\t// out\n    /* \"#utility.yul\":6181:6419   */\ntag_55:\n    /* \"#utility.yul\":6321:6355   */\n  0x54696d656443726f776473616c653a206f70656e696e672074696d6520697320\n    /* \"#utility.yul\":6317:6318   */\n  0x00\n    /* \"#utility.yul\":6309:6315   */\n  dup3\n    /* \"#utility.yul\":6305:6319   */\n  add\n    /* \"#utility.yul\":6298:6356   */\n  mstore\n    /* \"#utility.yul\":6390:6411   */\n  0x6265666f72652063757272656e742074696d6500000000000000000000000000\n    /* \"#utility.yul\":6385:6387   */\n  0x20\n    /* \"#utility.yul\":6377:6383   */\n  dup3\n    /* \"#utility.yul\":6373:6388   */\n  add\n    /* \"#utility.yul\":6366:6412   */\n  mstore\n    /* \"#utility.yul\":6181:6419   */\n  pop\n  jump\t// out\n    /* \"#utility.yul\":6425:6791   */\ntag_56:\n    /* \"#utility.yul\":6567:6570   */\n  0x00\n    /* \"#utility.yul\":6588:6655   */\n  tag_120\n    /* \"#utility.yul\":6652:6654   */\n  0x33\n    /* \"#utility.yul\":6647:6650   */\n  dup4\n    /* \"#utility.yul\":6588:6655   */\n  tag_48\n  jump\t// in\ntag_120:\n    /* \"#utility.yul\":6581:6655   */\n  swap2\n  pop\n    /* \"#utility.yul\":6664:6757   */\n  tag_121\n    /* \"#utility.yul\":6753:6756   */\n  dup3\n    /* \"#utility.yul\":6664:6757   */\n  tag_55\n  jump\t// in\ntag_121:\n    /* \"#utility.yul\":6782:6784   */\n  0x40\n    /* \"#utility.yul\":6777:6780   */\n  dup3\n    /* \"#utility.yul\":6773:6785   */\n  add\n    /* \"#utility.yul\":6766:6785   */\n  swap1\n  pop\n    /* \"#utility.yul\":6425:6791   */\n  swap2\n  swap1\n  pop\n  jump\t// out\n    /* \"#utility.yul\":6797:7216   */\ntag_22:\n    /* \"#utility.yul\":6963:6967   */\n  0x00\n    /* \"#utility.yul\":7001:7003   */\n  0x20\n    /* \"#utility.yul\":6990:6999   */\n  dup3\n    /* \"#utility.yul\":6986:7004   */\n  add\n    /* \"#utility.yul\":6978:7004   */\n  swap1\n  pop\n    /* \"#utility.yul\":7050:7059   */\n  dup2\n    /* \"#utility.yul\":7044:7048   */\n  dup2\n    /* \"#utility.yul\":7040:7060   */\n  sub\n    /* \"#utility.yul\":7036:7037   */\n  0x00\n    /* \"#utility.yul\":7025:7034   */\n  dup4\n    /* \"#utility.yul\":7021:7038   */\n  add\n    /* \"#utility.yul\":7014:7061   */\n  mstore\n    /* \"#utility.yul\":7078:7209   */\n  tag_123\n    /* \"#utility.yul\":7204:7208   */\n  dup2\n    /* \"#utility.yul\":7078:7209   */\n  tag_56\n  jump\t// in\ntag_123:\n    /* \"#utility.yul\":7070:7209   */\n  swap1\n  pop\n    /* \"#utility.yul\":6797:7216   */\n  swap2\n  swap1\n  pop\n  jump\t// out\n    /* \"#utility.yul\":7222:7464   */\ntag_57:\n    /* \"#utility.yul\":7362:7396   */\n  0x54696d656443726f776473616c653a206f70656e696e672074696d6520697320\n    /* \"#utility.yul\":7358:7359   */\n  0x00\n    /* \"#utility.yul\":7350:7356   */\n  dup3\n    /* \"#utility.yul\":7346:7360   */\n  add\n    /* \"#utility.yul\":7339:7397   */\n  mstore\n    /* \"#utility.yul\":7431:7456   */\n  0x6e6f74206265666f726520636c6f73696e672074696d65000000000000000000\n    /* \"#utility.yul\":7426:7428   */\n  0x20\n    /* \"#utility.yul\":7418:7424   */\n  dup3\n    /* \"#utility.yul\":7414:7429   */\n  add\n    /* \"#utility.yul\":7407:7457   */\n  mstore\n    /* \"#utility.yul\":7222:7464   */\n  pop\n  jump\t// out\n    /* \"#utility.yul\":7470:7836   */\ntag_58:\n    /* \"#utility.yul\":7612:7615   */\n  0x00\n    /* \"#utility.yul\":7633:7700   */\n  tag_126\n    /* \"#utility.yul\":7697:7699   */\n  0x37\n    /* \"#utility.yul\":7692:7695   */\n  dup4\n    /* \"#utility.yul\":7633:7700   */\n  tag_48\n  jump\t// in\ntag_126:\n    /* \"#utility.yul\":7626:7700   */\n  swap2\n  pop\n    /* \"#utility.yul\":7709:7802   */\n  tag_127\n    /* \"#utility.yul\":7798:7801   */\n  dup3\n    /* \"#utility.yul\":7709:7802   */\n  tag_57\n  jump\t// in\ntag_127:\n    /* \"#utility.yul\":7827:7829   */\n  0x40\n    /* \"#utility.yul\":7822:7825   */\n  dup3\n    /* \"#utility.yul\":7818:7830   */\n  add\n    /* \"#utility.yul\":7811:7830   */\n  swap1\n  pop\n    /* \"#utility.yul\":7470:7836   */\n  swap2\n  swap1\n  pop\n  jump\t// out\n    /* \"#utility.yul\":7842:8261   */\ntag_25:\n    /* \"#utility.yul\":8008:8012   */\n  0x00\n    /* \"#utility.yul\":8046:8048   */\n  0x20\n    /* \"#utility.yul\":8035:8044   */\n  dup3\n    /* \"#utility.yul\":8031:8049   */\n  add\n    /* \"#utility.yul\":8023:8049   */\n  swap1\n  pop\n    /* \"#utility.yul\":8095:8104   */\n  dup2\n    /* \"#utility.yul\":8089:8093   */\n  dup2\n    /* \"#utility.yul\":8085:8105   */\n  sub\n    /* \"#utility.yul\":8081:8082   */\n  0x00\n    /* \"#utility.yul\":8070:8079   */\n  dup4\n    /* \"#utility.yul\":8066:8083   */\n  add\n    /* \"#utility.yul\":8059:8106   */\n  mstore\n    /* \"#utility.yul\":8123:8254   */\n  tag_129\n    /* \"#utility.yul\":8249:8253   */\n  dup2\n    /* \"#utility.yul\":8123:8254   */\n  tag_58\n  jump\t// in\ntag_129:\n    /* \"#utility.yul\":8115:8254   */\n  swap1\n  pop\n    /* \"#utility.yul\":7842:8261   */\n  swap2\n  swap1\n  pop\n  jump\t// out\n    /* \"#utility.yul\":8267:8495   */\ntag_59:\n    /* \"#utility.yul\":8407:8441   */\n  0x496e6372656173696e67507269636543726f776473616c653a2066696e616c20\n    /* \"#utility.yul\":8403:8404   */\n  0x00\n    /* \"#utility.yul\":8395:8401   */\n  dup3\n    /* \"#utility.yul\":8391:8405   */\n  add\n    /* \"#utility.yul\":8384:8442   */\n  mstore\n    /* \"#utility.yul\":8476:8487   */\n  0x7261746520697320300000000000000000000000000000000000000000000000\n    /* \"#utility.yul\":8471:8473   */\n  0x20\n    /* \"#utility.yul\":8463:8469   */\n  dup3\n    /* \"#utility.yul\":8459:8474   */\n  add\n    /* \"#utility.yul\":8452:8488   */\n  mstore\n    /* \"#utility.yul\":8267:8495   */\n  pop\n  jump\t// out\n    /* \"#utility.yul\":8501:8867   */\ntag_60:\n    /* \"#utility.yul\":8643:8646   */\n  0x00\n    /* \"#utility.yul\":8664:8731   */\n  tag_132\n    /* \"#utility.yul\":8728:8730   */\n  0x29\n    /* \"#utility.yul\":8723:8726   */\n  dup4\n    /* \"#utility.yul\":8664:8731   */\n  tag_48\n  jump\t// in\ntag_132:\n    /* \"#utility.yul\":8657:8731   */\n  swap2\n  pop\n    /* \"#utility.yul\":8740:8833   */\n  tag_133\n    /* \"#utility.yul\":8829:8832   */\n  dup3\n    /* \"#utility.yul\":8740:8833   */\n  tag_59\n  jump\t// in\ntag_133:\n    /* \"#utility.yul\":8858:8860   */\n  0x40\n    /* \"#utility.yul\":8853:8856   */\n  dup3\n    /* \"#utility.yul\":8849:8861   */\n  add\n    /* \"#utility.yul\":8842:8861   */\n  swap1\n  pop\n    /* \"#utility.yul\":8501:8867   */\n  swap2\n  swap1\n  pop\n  jump\t// out\n    /* \"#utility.yul\":8873:9292   */\ntag_29:\n    /* \"#utility.yul\":9039:9043   */\n  0x00\n    /* \"#utility.yul\":9077:9079   */\n  0x20\n    /* \"#utility.yul\":9066:9075   */\n  dup3\n    /* \"#utility.yul\":9062:9080   */\n  add\n    /* \"#utility.yul\":9054:9080   */\n  swap1\n  pop\n    /* \"#utility.yul\":9126:9135   */\n  dup2\n    /* \"#utility.yul\":9120:9124   */\n  dup2\n    /* \"#utility.yul\":9116:9136   */\n  sub\n    /* \"#utility.yul\":9112:9113   */\n  0x00\n    /* \"#utility.yul\":9101:9110   */\n  dup4\n    /* \"#utility.yul\":9097:9114   */\n  add\n    /* \"#utility.yul\":9090:9137   */\n  mstore\n    /* \"#utility.yul\":9154:9285   */\n  tag_135\n    /* \"#utility.yul\":9280:9284   */\n  dup2\n    /* \"#utility.yul\":9154:9285   */\n  tag_60\n  jump\t// in\ntag_135:\n    /* \"#utility.yul\":9146:9285   */\n  swap1\n  pop\n    /* \"#utility.yul\":8873:9292   */\n  swap2\n  swap1\n  pop\n  jump\t// out\n    /* \"#utility.yul\":9298:9591   */\ntag_61:\n    /* \"#utility.yul\":9438:9472   */\n  0x496e6372656173696e67507269636543726f776473616c653a20696e69746961\n    /* \"#utility.yul\":9434:9435   */\n  0x00\n    /* \"#utility.yul\":9426:9432   */\n  dup3\n    /* \"#utility.yul\":9422:9436   */\n  add\n    /* \"#utility.yul\":9415:9473   */\n  mstore\n    /* \"#utility.yul\":9507:9541   */\n  0x6c2072617465206973206e6f742067726561746572207468616e2066696e616c\n    /* \"#utility.yul\":9502:9504   */\n  0x20\n    /* \"#utility.yul\":9494:9500   */\n  dup3\n    /* \"#utility.yul\":9490:9505   */\n  add\n    /* \"#utility.yul\":9483:9542   */\n  mstore\n    /* \"#utility.yul\":9576:9583   */\n  0x2072617465000000000000000000000000000000000000000000000000000000\n    /* \"#utility.yul\":9571:9573   */\n  0x40\n    /* \"#utility.yul\":9563:9569   */\n  dup3\n    /* \"#utility.yul\":9559:9574   */\n  add\n    /* \"#utility.yul\":9552:9584   */\n  mstore\n    /* \"#utility.yul\":9298:9591   */\n  pop\n  jump\t// out\n    /* \"#utility.yul\":9597:9963   */\ntag_62:\n    /* \"#utility.yul\":9739:9742   */\n  0x00\n    /* \"#utility.yul\":9760:9827   */\n  tag_138\n    /* \"#utility.yul\":9824:9826   */\n  0x45\n    /* \"#utility.yul\":9819:9822   */\n  dup4\n    /* \"#utility.yul\":9760:9827   */\n  tag_48\n  jump\t// in\ntag_138:\n    /* \"#utility.yul\":9753:9827   */\n  swap2\n  pop\n    /* \"#utility.yul\":9836:9929   */\n  tag_139\n    /* \"#utility.yul\":9925:9928   */\n  dup3\n    /* \"#utility.yul\":9836:9929   */\n  tag_61\n  jump\t// in\ntag_139:\n    /* \"#utility.yul\":9954:9956   */\n  0x60\n    /* \"#utility.yul\":9949:9952   */\n  dup3\n    /* \"#utility.yul\":9945:9957   */\n  add\n    /* \"#utility.yul\":9938:9957   */\n  swap1\n  pop\n    /* \"#utility.yul\":9597:9963   */\n  swap2\n  swap1\n  pop\n  jump\t// out\n    /* \"#utility.yul\":9969:10388   */\ntag_32:\n    /* \"#utility.yul\":10135:10139   */\n  0x00\n    /* \"#utility.yul\":10173:10175   */\n  0x20\n    /* \"#utility.yul\":10162:10171   */\n  dup3\n    /* \"#utility.yul\":10158:10176   */\n  add\n    /* \"#utility.yul\":10150:10176   */\n  swap1\n  pop\n    /* \"#utility.yul\":10222:10231   */\n  dup2\n    /* \"#utility.yul\":10216:10220   */\n  dup2\n    /* \"#utility.yul\":10212:10232   */\n  sub\n    /* \"#utility.yul\":10208:10209   */\n  0x00\n    /* \"#utility.yul\":10197:10206   */\n  dup4\n    /* \"#utility.yul\":10193:10210   */\n  add\n    /* \"#utility.yul\":10186:10233   */\n  mstore\n    /* \"#utility.yul\":10250:10381   */\n  tag_141\n    /* \"#utility.yul\":10376:10380   */\n  dup2\n    /* \"#utility.yul\":10250:10381   */\n  tag_62\n  jump\t// in\ntag_141:\n    /* \"#utility.yul\":10242:10381   */\n  swap1\n  pop\n    /* \"#utility.yul\":9969:10388   */\n  swap2\n  swap1\n  pop\n  jump\t// out\n    /* \"crowdsale/price/increasingPriceCrowdsale.sol\":518:3280  contract IncreasingPriceCrowdsale is TimedCrowdsale {... */\ntag_33:\n  dataSize(sub_0)\n  dup1\n  dataOffset(sub_0)\n  0x00\n  codecopy\n  0x00\n  return\nstop\n\nsub_0: assembly {\n        /* \"crowdsale/price/increasingPriceCrowdsale.sol\":518:3280  contract IncreasingPriceCrowdsale is TimedCrowdsale {... */\n      mstore(0x40, 0x80)\n      jumpi(tag_1, lt(calldatasize, 0x04))\n      shr(0xe0, calldataload(0x00))\n      dup1\n      0x4b6753bc\n      gt\n      tag_14\n      jumpi\n      dup1\n      0x4b6753bc\n      eq\n      tag_8\n      jumpi\n      dup1\n      0x521eb273\n      eq\n      tag_9\n      jumpi\n      dup1\n      0x9e51051f\n      eq\n      tag_10\n      jumpi\n      dup1\n      0xb7a8807c\n      eq\n      tag_11\n      jumpi\n      dup1\n      0xec8ac4d8\n      eq\n      tag_12\n      jumpi\n      dup1\n      0xfc0c546a\n      eq\n      tag_13\n      jumpi\n      jump(tag_2)\n    tag_14:\n      dup1\n      0x1515bc2b\n      eq\n      tag_3\n      jumpi\n      dup1\n      0x21106109\n      eq\n      tag_4\n      jumpi\n      dup1\n      0x2c4e722e\n      eq\n      tag_5\n      jumpi\n      dup1\n      0x4042b66f\n      eq\n      tag_6\n      jumpi\n      dup1\n      0x47535d7b\n      eq\n      tag_7\n      jumpi\n      jump(tag_2)\n    tag_1:\n      jumpi(tag_2, calldatasize)\n        /* \"crowdsale/crowdsale.sol\":3351:3374  buyTokens(_msgSender()) */\n      tag_17\n        /* \"crowdsale/crowdsale.sol\":3361:3373  _msgSender() */\n      tag_18\n        /* \"crowdsale/crowdsale.sol\":3361:3371  _msgSender */\n      tag_19\n        /* \"crowdsale/crowdsale.sol\":3361:3373  _msgSender() */\n      jump\t// in\n    tag_18:\n        /* \"crowdsale/crowdsale.sol\":3351:3360  buyTokens */\n      tag_20\n        /* \"crowdsale/crowdsale.sol\":3351:3374  buyTokens(_msgSender()) */\n      jump\t// in\n    tag_17:\n        /* \"crowdsale/price/increasingPriceCrowdsale.sol\":518:3280  contract IncreasingPriceCrowdsale is TimedCrowdsale {... */\n      stop\n    tag_2:\n        /* \"crowdsale/crowdsale.sol\":3270:3293  buyTokens(_msgSender()) */\n      tag_23\n        /* \"crowdsale/crowdsale.sol\":3280:3292  _msgSender() */\n      tag_24\n        /* \"crowdsale/crowdsale.sol\":3280:3290  _msgSender */\n      tag_19\n        /* \"crowdsale/crowdsale.sol\":3280:3292  _msgSender() */\n      jump\t// in\n    tag_24:\n        /* \"crowdsale/crowdsale.sol\":3270:3279  buyTokens */\n      tag_20\n        /* \"crowdsale/crowdsale.sol\":3270:3293  buyTokens(_msgSender()) */\n      jump\t// in\n    tag_23:\n        /* \"crowdsale/price/increasingPriceCrowdsale.sol\":518:3280  contract IncreasingPriceCrowdsale is TimedCrowdsale {... */\n      stop\n        /* \"crowdsale/validation/timedCrowdsale.sol\":2417:2576  function hasClosed() public view returns (bool) {... */\n    tag_3:\n      callvalue\n      dup1\n      iszero\n      tag_25\n      jumpi\n      0x00\n      dup1\n      revert\n    tag_25:\n      pop\n      tag_26\n      tag_27\n      jump\t// in\n    tag_26:\n      mload(0x40)\n      tag_28\n      swap2\n      swap1\n      tag_29\n      jump\t// in\n    tag_28:\n      mload(0x40)\n      dup1\n      swap2\n      sub\n      swap1\n      return\n        /* \"crowdsale/price/increasingPriceCrowdsale.sol\":2769:2856  function finalRate() public view returns (uint256) {... */\n    tag_4:\n      callvalue\n      dup1\n      iszero\n      tag_30\n      jumpi\n      0x00\n      dup1\n      revert\n    tag_30:\n      pop\n      tag_31\n      tag_32\n      jump\t// in\n    tag_31:\n      mload(0x40)\n      tag_33\n      swap2\n      swap1\n      tag_34\n      jump\t// in\n    tag_33:\n      mload(0x40)\n      dup1\n      swap2\n      sub\n      swap1\n      return\n        /* \"crowdsale/price/increasingPriceCrowdsale.sol\":2080:2526  function rate() public override view returns (uint256) {... */\n    tag_5:\n      callvalue\n      dup1\n      iszero\n      tag_35\n      jumpi\n      0x00\n      dup1\n      revert\n    tag_35:\n      pop\n      tag_36\n      tag_37\n      jump\t// in\n    tag_36:\n      mload(0x40)\n      tag_38\n      swap2\n      swap1\n      tag_34\n      jump\t// in\n    tag_38:\n      mload(0x40)\n      dup1\n      swap2\n      sub\n      swap1\n      return\n        /* \"crowdsale/crowdsale.sol\":3937:4024  function weiRaised() public view returns (uint256) {... */\n    tag_6:\n      callvalue\n      dup1\n      iszero\n      tag_39\n      jumpi\n      0x00\n      dup1\n      revert\n    tag_39:\n      pop\n      tag_40\n      tag_41\n      jump\t// in\n    tag_40:\n      mload(0x40)\n      tag_42\n      swap2\n      swap1\n      tag_34\n      jump\t// in\n    tag_42:\n      mload(0x40)\n      dup1\n      swap2\n      sub\n      swap1\n      return\n        /* \"crowdsale/validation/timedCrowdsale.sol\":2055:2247  function isOpen() public view returns (bool) {... */\n    tag_7:\n      callvalue\n      dup1\n      iszero\n      tag_43\n      jumpi\n      0x00\n      dup1\n      revert\n    tag_43:\n      pop\n      tag_44\n      tag_45\n      jump\t// in\n    tag_44:\n      mload(0x40)\n      tag_46\n      swap2\n      swap1\n      tag_29\n      jump\t// in\n    tag_46:\n      mload(0x40)\n      dup1\n      swap2\n      sub\n      swap1\n      return\n        /* \"crowdsale/validation/timedCrowdsale.sol\":1874:1965  function closingTime() public view returns (uint256) {... */\n    tag_8:\n      callvalue\n      dup1\n      iszero\n      tag_47\n      jumpi\n      0x00\n      dup1\n      revert\n    tag_47:\n      pop\n      tag_48\n      tag_49\n      jump\t// in\n    tag_48:\n      mload(0x40)\n      tag_50\n      swap2\n      swap1\n      tag_34\n      jump\t// in\n    tag_50:\n      mload(0x40)\n      dup1\n      swap2\n      sub\n      swap1\n      return\n        /* \"crowdsale/crowdsale.sol\":3605:3694  function wallet() public view returns (address payable) {... */\n    tag_9:\n      callvalue\n      dup1\n      iszero\n      tag_51\n      jumpi\n      0x00\n      dup1\n      revert\n    tag_51:\n      pop\n      tag_52\n      tag_53\n      jump\t// in\n    tag_52:\n      mload(0x40)\n      tag_54\n      swap2\n      swap1\n      tag_55\n      jump\t// in\n    tag_54:\n      mload(0x40)\n      dup1\n      swap2\n      sub\n      swap1\n      return\n        /* \"crowdsale/price/increasingPriceCrowdsale.sol\":2603:2694  function initialRate() public view returns (uint256) {... */\n    tag_10:\n      callvalue\n      dup1\n      iszero\n      tag_56\n      jumpi\n      0x00\n      dup1\n      revert\n    tag_56:\n      pop\n      tag_57\n      tag_58\n      jump\t// in\n    tag_57:\n      mload(0x40)\n      tag_59\n      swap2\n      swap1\n      tag_34\n      jump\t// in\n    tag_59:\n      mload(0x40)\n      dup1\n      swap2\n      sub\n      swap1\n      return\n        /* \"crowdsale/validation/timedCrowdsale.sol\":1713:1804  function openingTime() public view returns (uint256) {... */\n    tag_11:\n      callvalue\n      dup1\n      iszero\n      tag_60\n      jumpi\n      0x00\n      dup1\n      revert\n    tag_60:\n      pop\n      tag_61\n      tag_62\n      jump\t// in\n    tag_61:\n      mload(0x40)\n      tag_63\n      swap2\n      swap1\n      tag_34\n      jump\t// in\n    tag_63:\n      mload(0x40)\n      dup1\n      swap2\n      sub\n      swap1\n      return\n        /* \"crowdsale/crowdsale.sol\":4289:4911  function buyTokens(address beneficiary) public nonReentrant payable {... */\n    tag_12:\n      tag_64\n      0x04\n      dup1\n      calldatasize\n      sub\n      dup2\n      add\n      swap1\n      tag_65\n      swap2\n      swap1\n      tag_66\n      jump\t// in\n    tag_65:\n      tag_20\n      jump\t// in\n    tag_64:\n      stop\n        /* \"crowdsale/crowdsale.sol\":3446:3524  function token() public view returns (IERC20) {... */\n    tag_13:\n      callvalue\n      dup1\n      iszero\n      tag_67\n      jumpi\n      0x00\n      dup1\n      revert\n    tag_67:\n      pop\n      tag_68\n      tag_69\n      jump\t// in\n    tag_68:\n      mload(0x40)\n      tag_70\n      swap2\n      swap1\n      tag_71\n      jump\t// in\n    tag_70:\n      mload(0x40)\n      dup1\n      swap2\n      sub\n      swap1\n      return\n        /* \"@openzeppelin/contracts/utils/Context.sol\":656:752  function _msgSender() internal view virtual returns (address) {... */\n    tag_19:\n        /* \"@openzeppelin/contracts/utils/Context.sol\":709:716  address */\n      0x00\n        /* \"@openzeppelin/contracts/utils/Context.sol\":735:745  msg.sender */\n      caller\n        /* \"@openzeppelin/contracts/utils/Context.sol\":728:745  return msg.sender */\n      swap1\n      pop\n        /* \"@openzeppelin/contracts/utils/Context.sol\":656:752  function _msgSender() internal view virtual returns (address) {... */\n      swap1\n      jump\t// out\n        /* \"crowdsale/crowdsale.sol\":4289:4911  function buyTokens(address beneficiary) public nonReentrant payable {... */\n    tag_20:\n        /* \"@openzeppelin/contracts/security/ReentrancyGuard.sol\":2261:2282  _nonReentrantBefore() */\n      tag_74\n        /* \"@openzeppelin/contracts/security/ReentrancyGuard.sol\":2261:2280  _nonReentrantBefore */\n      tag_75\n        /* \"@openzeppelin/contracts/security/ReentrancyGuard.sol\":2261:2282  _nonReentrantBefore() */\n      jump\t// in\n    tag_74:\n        /* \"crowdsale/crowdsale.sol\":4368:4385  uint256 weiAmount */\n      0x00\n        /* \"crowdsale/crowdsale.sol\":4388:4397  msg.value */\n      callvalue\n        /* \"crowdsale/crowdsale.sol\":4368:4397  uint256 weiAmount = msg.value */\n      swap1\n      pop\n        /* \"crowdsale/crowdsale.sol\":4408:4452  _preValidatePurchase(beneficiary, weiAmount) */\n      tag_77\n        /* \"crowdsale/crowdsale.sol\":4429:4440  beneficiary */\n      dup3\n        /* \"crowdsale/crowdsale.sol\":4442:4451  weiAmount */\n      dup3\n        /* \"crowdsale/crowdsale.sol\":4408:4428  _preValidatePurchase */\n      tag_78\n        /* \"crowdsale/crowdsale.sol\":4408:4452  _preValidatePurchase(beneficiary, weiAmount) */\n      jump\t// in\n    tag_77:\n        /* \"crowdsale/crowdsale.sol\":4514:4528  uint256 tokens */\n      0x00\n        /* \"crowdsale/crowdsale.sol\":4531:4557  _getTokenAmount(weiAmount) */\n      tag_79\n        /* \"crowdsale/crowdsale.sol\":4547:4556  weiAmount */\n      dup3\n        /* \"crowdsale/crowdsale.sol\":4531:4546  _getTokenAmount */\n      tag_80\n        /* \"crowdsale/crowdsale.sol\":4531:4557  _getTokenAmount(weiAmount) */\n      jump\t// in\n    tag_79:\n        /* \"crowdsale/crowdsale.sol\":4514:4557  uint256 tokens = _getTokenAmount(weiAmount) */\n      swap1\n      pop\n        /* \"crowdsale/crowdsale.sol\":4608:4633  _weiRaised.add(weiAmount) */\n      tag_81\n        /* \"crowdsale/crowdsale.sol\":4623:4632  weiAmount */\n      dup3\n        /* \"crowdsale/crowdsale.sol\":4608:4618  _weiRaised */\n      sload(0x04)\n        /* \"crowdsale/crowdsale.sol\":4608:4622  _weiRaised.add */\n      tag_82\n      swap1\n        /* \"crowdsale/crowdsale.sol\":4608:4633  _weiRaised.add(weiAmount) */\n      swap2\n      swap1\n      0xffffffff\n      and\n      jump\t// in\n    tag_81:\n        /* \"crowdsale/crowdsale.sol\":4595:4605  _weiRaised */\n      0x04\n        /* \"crowdsale/crowdsale.sol\":4595:4633  _weiRaised = _weiRaised.add(weiAmount) */\n      dup2\n      swap1\n      sstore\n      pop\n        /* \"crowdsale/crowdsale.sol\":4646:4683  _processPurchase(beneficiary, tokens) */\n      tag_83\n        /* \"crowdsale/crowdsale.sol\":4663:4674  beneficiary */\n      dup4\n        /* \"crowdsale/crowdsale.sol\":4676:4682  tokens */\n      dup3\n        /* \"crowdsale/crowdsale.sol\":4646:4662  _processPurchase */\n      tag_84\n        /* \"crowdsale/crowdsale.sol\":4646:4683  _processPurchase(beneficiary, tokens) */\n      jump\t// in\n    tag_83:\n        /* \"crowdsale/crowdsale.sol\":4729:4740  beneficiary */\n      dup3\n        /* \"crowdsale/crowdsale.sol\":4699:4760  TokensPurchased(_msgSender(), beneficiary, weiAmount, tokens) */\n      0xffffffffffffffffffffffffffffffffffffffff\n      and\n        /* \"crowdsale/crowdsale.sol\":4715:4727  _msgSender() */\n      tag_85\n        /* \"crowdsale/crowdsale.sol\":4715:4725  _msgSender */\n      tag_19\n        /* \"crowdsale/crowdsale.sol\":4715:4727  _msgSender() */\n      jump\t// in\n    tag_85:\n        /* \"crowdsale/crowdsale.sol\":4699:4760  TokensPurchased(_msgSender(), beneficiary, weiAmount, tokens) */\n      0xffffffffffffffffffffffffffffffffffffffff\n      and\n      0x6faf93231a456e552dbc9961f58d9713ee4f2e69d15f1975b050ef0911053a7b\n        /* \"crowdsale/crowdsale.sol\":4742:4751  weiAmount */\n      dup5\n        /* \"crowdsale/crowdsale.sol\":4753:4759  tokens */\n      dup5\n        /* \"crowdsale/crowdsale.sol\":4699:4760  TokensPurchased(_msgSender(), beneficiary, weiAmount, tokens) */\n      mload(0x40)\n      tag_86\n      swap3\n      swap2\n      swap1\n      tag_87\n      jump\t// in\n    tag_86:\n      mload(0x40)\n      dup1\n      swap2\n      sub\n      swap1\n      log3\n        /* \"crowdsale/crowdsale.sol\":4773:4819  _updatePurchasingState(beneficiary, weiAmount) */\n      tag_88\n        /* \"crowdsale/crowdsale.sol\":4796:4807  beneficiary */\n      dup4\n        /* \"crowdsale/crowdsale.sol\":4809:4818  weiAmount */\n      dup4\n        /* \"crowdsale/crowdsale.sol\":4773:4795  _updatePurchasingState */\n      tag_89\n        /* \"crowdsale/crowdsale.sol\":4773:4819  _updatePurchasingState(beneficiary, weiAmount) */\n      jump\t// in\n    tag_88:\n        /* \"crowdsale/crowdsale.sol\":4832:4847  _forwardFunds() */\n      tag_90\n        /* \"crowdsale/crowdsale.sol\":4832:4845  _forwardFunds */\n      tag_91\n        /* \"crowdsale/crowdsale.sol\":4832:4847  _forwardFunds() */\n      jump\t// in\n    tag_90:\n        /* \"crowdsale/crowdsale.sol\":4858:4903  _postValidatePurchase(beneficiary, weiAmount) */\n      tag_92\n        /* \"crowdsale/crowdsale.sol\":4880:4891  beneficiary */\n      dup4\n        /* \"crowdsale/crowdsale.sol\":4893:4902  weiAmount */\n      dup4\n        /* \"crowdsale/crowdsale.sol\":4858:4879  _postValidatePurchase */\n      tag_93\n        /* \"crowdsale/crowdsale.sol\":4858:4903  _postValidatePurchase(beneficiary, weiAmount) */\n      jump\t// in\n    tag_92:\n        /* \"crowdsale/crowdsale.sol\":4357:4911  {... */\n      pop\n      pop\n        /* \"@openzeppelin/contracts/security/ReentrancyGuard.sol\":2303:2323  _nonReentrantAfter() */\n      tag_94\n        /* \"@openzeppelin/contracts/security/ReentrancyGuard.sol\":2303:2321  _nonReentrantAfter */\n      tag_95\n        /* \"@openzeppelin/contracts/security/ReentrancyGuard.sol\":2303:2323  _nonReentrantAfter() */\n      jump\t// in\n    tag_94:\n        /* \"crowdsale/crowdsale.sol\":4289:4911  function buyTokens(address beneficiary) public nonReentrant payable {... */\n      pop\n      jump\t// out\n        /* \"crowdsale/validation/timedCrowdsale.sol\":2417:2576  function hasClosed() public view returns (bool) {... */\n    tag_27:\n        /* \"crowdsale/validation/timedCrowdsale.sol\":2459:2463  bool */\n      0x00\n        /* \"crowdsale/validation/timedCrowdsale.sol\":2556:2568  _closingTime */\n      sload(0x06)\n        /* \"crowdsale/validation/timedCrowdsale.sol\":2538:2553  block.timestamp */\n      timestamp\n        /* \"crowdsale/validation/timedCrowdsale.sol\":2538:2568  block.timestamp > _closingTime */\n      gt\n        /* \"crowdsale/validation/timedCrowdsale.sol\":2531:2568  return block.timestamp > _closingTime */\n      swap1\n      pop\n        /* \"crowdsale/validation/timedCrowdsale.sol\":2417:2576  function hasClosed() public view returns (bool) {... */\n      swap1\n      jump\t// out\n        /* \"crowdsale/price/increasingPriceCrowdsale.sol\":2769:2856  function finalRate() public view returns (uint256) {... */\n    tag_32:\n        /* \"crowdsale/price/increasingPriceCrowdsale.sol\":2811:2818  uint256 */\n      0x00\n        /* \"crowdsale/price/increasingPriceCrowdsale.sol\":2838:2848  _finalRate */\n      sload(0x08)\n        /* \"crowdsale/price/increasingPriceCrowdsale.sol\":2831:2848  return _finalRate */\n      swap1\n      pop\n        /* \"crowdsale/price/increasingPriceCrowdsale.sol\":2769:2856  function finalRate() public view returns (uint256) {... */\n      swap1\n      jump\t// out\n        /* \"crowdsale/price/increasingPriceCrowdsale.sol\":2080:2526  function rate() public override view returns (uint256) {... */\n    tag_37:\n        /* \"crowdsale/price/increasingPriceCrowdsale.sol\":2126:2133  uint256 */\n      0x00\n        /* \"crowdsale/price/increasingPriceCrowdsale.sol\":2151:2159  isOpen() */\n      tag_99\n        /* \"crowdsale/price/increasingPriceCrowdsale.sol\":2151:2157  isOpen */\n      tag_45\n        /* \"crowdsale/price/increasingPriceCrowdsale.sol\":2151:2159  isOpen() */\n      jump\t// in\n    tag_99:\n        /* \"crowdsale/price/increasingPriceCrowdsale.sol\":2146:2196  if (!isOpen()) {... */\n      tag_100\n      jumpi\n        /* \"crowdsale/price/increasingPriceCrowdsale.sol\":2183:2184  0 */\n      0x00\n        /* \"crowdsale/price/increasingPriceCrowdsale.sol\":2176:2184  return 0 */\n      swap1\n      pop\n      jump(tag_98)\n        /* \"crowdsale/price/increasingPriceCrowdsale.sol\":2146:2196  if (!isOpen()) {... */\n    tag_100:\n        /* \"crowdsale/price/increasingPriceCrowdsale.sol\":2263:2282  uint256 elapsedTime */\n      0x00\n        /* \"crowdsale/price/increasingPriceCrowdsale.sol\":2285:2319  block.timestamp.sub(openingTime()) */\n      tag_101\n        /* \"crowdsale/price/increasingPriceCrowdsale.sol\":2305:2318  openingTime() */\n      tag_102\n        /* \"crowdsale/price/increasingPriceCrowdsale.sol\":2305:2316  openingTime */\n      tag_62\n        /* \"crowdsale/price/increasingPriceCrowdsale.sol\":2305:2318  openingTime() */\n      jump\t// in\n    tag_102:\n        /* \"crowdsale/price/increasingPriceCrowdsale.sol\":2285:2300  block.timestamp */\n      timestamp\n        /* \"crowdsale/price/increasingPriceCrowdsale.sol\":2285:2304  block.timestamp.sub */\n      tag_103\n      swap1\n        /* \"crowdsale/price/increasingPriceCrowdsale.sol\":2285:2319  block.timestamp.sub(openingTime()) */\n      swap2\n      swap1\n      0xffffffff\n      and\n      jump\t// in\n    tag_101:\n        /* \"crowdsale/price/increasingPriceCrowdsale.sol\":2263:2319  uint256 elapsedTime = block.timestamp.sub(openingTime()) */\n      swap1\n      pop\n        /* \"crowdsale/price/increasingPriceCrowdsale.sol\":2330:2347  uint256 timeRange */\n      0x00\n        /* \"crowdsale/price/increasingPriceCrowdsale.sol\":2350:2382  closingTime().sub(openingTime()) */\n      tag_104\n        /* \"crowdsale/price/increasingPriceCrowdsale.sol\":2368:2381  openingTime() */\n      tag_105\n        /* \"crowdsale/price/increasingPriceCrowdsale.sol\":2368:2379  openingTime */\n      tag_62\n        /* \"crowdsale/price/increasingPriceCrowdsale.sol\":2368:2381  openingTime() */\n      jump\t// in\n    tag_105:\n        /* \"crowdsale/price/increasingPriceCrowdsale.sol\":2350:2363  closingTime() */\n      tag_106\n        /* \"crowdsale/price/increasingPriceCrowdsale.sol\":2350:2361  closingTime */\n      tag_49\n        /* \"crowdsale/price/increasingPriceCrowdsale.sol\":2350:2363  closingTime() */\n      jump\t// in\n    tag_106:\n        /* \"crowdsale/price/increasingPriceCrowdsale.sol\":2350:2367  closingTime().sub */\n      tag_103\n      swap1\n        /* \"crowdsale/price/increasingPriceCrowdsale.sol\":2350:2382  closingTime().sub(openingTime()) */\n      swap2\n      swap1\n      0xffffffff\n      and\n      jump\t// in\n    tag_104:\n        /* \"crowdsale/price/increasingPriceCrowdsale.sol\":2330:2382  uint256 timeRange = closingTime().sub(openingTime()) */\n      swap1\n      pop\n        /* \"crowdsale/price/increasingPriceCrowdsale.sol\":2393:2410  uint256 rateRange */\n      0x00\n        /* \"crowdsale/price/increasingPriceCrowdsale.sol\":2413:2441  _initialRate.sub(_finalRate) */\n      tag_107\n        /* \"crowdsale/price/increasingPriceCrowdsale.sol\":2430:2440  _finalRate */\n      sload(0x08)\n        /* \"crowdsale/price/increasingPriceCrowdsale.sol\":2413:2425  _initialRate */\n      sload(0x07)\n        /* \"crowdsale/price/increasingPriceCrowdsale.sol\":2413:2429  _initialRate.sub */\n      tag_103\n      swap1\n        /* \"crowdsale/price/increasingPriceCrowdsale.sol\":2413:2441  _initialRate.sub(_finalRate) */\n      swap2\n      swap1\n      0xffffffff\n      and\n      jump\t// in\n    tag_107:\n        /* \"crowdsale/price/increasingPriceCrowdsale.sol\":2393:2441  uint256 rateRange = _initialRate.sub(_finalRate) */\n      swap1\n      pop\n        /* \"crowdsale/price/increasingPriceCrowdsale.sol\":2459:2518  _initialRate.sub(elapsedTime.mul(rateRange).div(timeRange)) */\n      tag_108\n        /* \"crowdsale/price/increasingPriceCrowdsale.sol\":2476:2517  elapsedTime.mul(rateRange).div(timeRange) */\n      tag_109\n        /* \"crowdsale/price/increasingPriceCrowdsale.sol\":2507:2516  timeRange */\n      dup4\n        /* \"crowdsale/price/increasingPriceCrowdsale.sol\":2476:2502  elapsedTime.mul(rateRange) */\n      tag_110\n        /* \"crowdsale/price/increasingPriceCrowdsale.sol\":2492:2501  rateRange */\n      dup5\n        /* \"crowdsale/price/increasingPriceCrowdsale.sol\":2476:2487  elapsedTime */\n      dup8\n        /* \"crowdsale/price/increasingPriceCrowdsale.sol\":2476:2491  elapsedTime.mul */\n      tag_111\n      swap1\n        /* \"crowdsale/price/increasingPriceCrowdsale.sol\":2476:2502  elapsedTime.mul(rateRange) */\n      swap2\n      swap1\n      0xffffffff\n      and\n      jump\t// in\n    tag_110:\n        /* \"crowdsale/price/increasingPriceCrowdsale.sol\":2476:2506  elapsedTime.mul(rateRange).div */\n      tag_112\n      swap1\n        /* \"crowdsale/price/increasingPriceCrowdsale.sol\":2476:2517  elapsedTime.mul(rateRange).div(timeRange) */\n      swap2\n      swap1\n      0xffffffff\n      and\n      jump\t// in\n    tag_109:\n        /* \"crowdsale/price/increasingPriceCrowdsale.sol\":2459:2471  _initialRate */\n      sload(0x07)\n        /* \"crowdsale/price/increasingPriceCrowdsale.sol\":2459:2475  _initialRate.sub */\n      tag_103\n      swap1\n        /* \"crowdsale/price/increasingPriceCrowdsale.sol\":2459:2518  _initialRate.sub(elapsedTime.mul(rateRange).div(timeRange)) */\n      swap2\n      swap1\n      0xffffffff\n      and\n      jump\t// in\n    tag_108:\n        /* \"crowdsale/price/increasingPriceCrowdsale.sol\":2452:2518  return _initialRate.sub(elapsedTime.mul(rateRange).div(timeRange)) */\n      swap4\n      pop\n      pop\n      pop\n      pop\n        /* \"crowdsale/price/increasingPriceCrowdsale.sol\":2080:2526  function rate() public override view returns (uint256) {... */\n    tag_98:\n      swap1\n      jump\t// out\n        /* \"crowdsale/crowdsale.sol\":3937:4024  function weiRaised() public view returns (uint256) {... */\n    tag_41:\n        /* \"crowdsale/crowdsale.sol\":3979:3986  uint256 */\n      0x00\n        /* \"crowdsale/crowdsale.sol\":4006:4016  _weiRaised */\n      sload(0x04)\n        /* \"crowdsale/crowdsale.sol\":3999:4016  return _weiRaised */\n      swap1\n      pop\n        /* \"crowdsale/crowdsale.sol\":3937:4024  function weiRaised() public view returns (uint256) {... */\n      swap1\n      jump\t// out\n        /* \"crowdsale/validation/timedCrowdsale.sol\":2055:2247  function isOpen() public view returns (bool) {... */\n    tag_45:\n        /* \"crowdsale/validation/timedCrowdsale.sol\":2094:2098  bool */\n      0x00\n        /* \"crowdsale/validation/timedCrowdsale.sol\":2192:2204  _openingTime */\n      sload(0x05)\n        /* \"crowdsale/validation/timedCrowdsale.sol\":2173:2188  block.timestamp */\n      timestamp\n        /* \"crowdsale/validation/timedCrowdsale.sol\":2173:2204  block.timestamp >= _openingTime */\n      lt\n      iszero\n        /* \"crowdsale/validation/timedCrowdsale.sol\":2173:2239  block.timestamp >= _openingTime && block.timestamp <= _closingTime */\n      dup1\n      iszero\n      tag_115\n      jumpi\n      pop\n        /* \"crowdsale/validation/timedCrowdsale.sol\":2227:2239  _closingTime */\n      sload(0x06)\n        /* \"crowdsale/validation/timedCrowdsale.sol\":2208:2223  block.timestamp */\n      timestamp\n        /* \"crowdsale/validation/timedCrowdsale.sol\":2208:2239  block.timestamp <= _closingTime */\n      gt\n      iszero\n        /* \"crowdsale/validation/timedCrowdsale.sol\":2173:2239  block.timestamp >= _openingTime && block.timestamp <= _closingTime */\n    tag_115:\n        /* \"crowdsale/validation/timedCrowdsale.sol\":2166:2239  return block.timestamp >= _openingTime && block.timestamp <= _closingTime */\n      swap1\n      pop\n        /* \"crowdsale/validation/timedCrowdsale.sol\":2055:2247  function isOpen() public view returns (bool) {... */\n      swap1\n      jump\t// out\n        /* \"crowdsale/validation/timedCrowdsale.sol\":1874:1965  function closingTime() public view returns (uint256) {... */\n    tag_49:\n        /* \"crowdsale/validation/timedCrowdsale.sol\":1918:1925  uint256 */\n      0x00\n        /* \"crowdsale/validation/timedCrowdsale.sol\":1945:1957  _closingTime */\n      sload(0x06)\n        /* \"crowdsale/validation/timedCrowdsale.sol\":1938:1957  return _closingTime */\n      swap1\n      pop\n        /* \"crowdsale/validation/timedCrowdsale.sol\":1874:1965  function closingTime() public view returns (uint256) {... */\n      swap1\n      jump\t// out\n        /* \"crowdsale/crowdsale.sol\":3605:3694  function wallet() public view returns (address payable) {... */\n    tag_53:\n        /* \"crowdsale/crowdsale.sol\":3644:3659  address payable */\n      0x00\n        /* \"crowdsale/crowdsale.sol\":3679:3686  _wallet */\n      0x02\n      0x00\n      swap1\n      sload\n      swap1\n      0x0100\n      exp\n      swap1\n      div\n      0xffffffffffffffffffffffffffffffffffffffff\n      and\n        /* \"crowdsale/crowdsale.sol\":3672:3686  return _wallet */\n      swap1\n      pop\n        /* \"crowdsale/crowdsale.sol\":3605:3694  function wallet() public view returns (address payable) {... */\n      swap1\n      jump\t// out\n        /* \"crowdsale/price/increasingPriceCrowdsale.sol\":2603:2694  function initialRate() public view returns (uint256) {... */\n    tag_58:\n        /* \"crowdsale/price/increasingPriceCrowdsale.sol\":2647:2654  uint256 */\n      0x00\n        /* \"crowdsale/price/increasingPriceCrowdsale.sol\":2674:2686  _initialRate */\n      sload(0x07)\n        /* \"crowdsale/price/increasingPriceCrowdsale.sol\":2667:2686  return _initialRate */\n      swap1\n      pop\n        /* \"crowdsale/price/increasingPriceCrowdsale.sol\":2603:2694  function initialRate() public view returns (uint256) {... */\n      swap1\n      jump\t// out\n        /* \"crowdsale/validation/timedCrowdsale.sol\":1713:1804  function openingTime() public view returns (uint256) {... */\n    tag_62:\n        /* \"crowdsale/validation/timedCrowdsale.sol\":1757:1764  uint256 */\n      0x00\n        /* \"crowdsale/validation/timedCrowdsale.sol\":1784:1796  _openingTime */\n      sload(0x05)\n        /* \"crowdsale/validation/timedCrowdsale.sol\":1777:1796  return _openingTime */\n      swap1\n      pop\n        /* \"crowdsale/validation/timedCrowdsale.sol\":1713:1804  function openingTime() public view returns (uint256) {... */\n      swap1\n      jump\t// out\n        /* \"crowdsale/crowdsale.sol\":3446:3524  function token() public view returns (IERC20) {... */\n    tag_69:\n        /* \"crowdsale/crowdsale.sol\":3484:3490  IERC20 */\n      0x00\n        /* \"crowdsale/crowdsale.sol\":3510:3516  _token */\n      0x01\n      0x00\n      swap1\n      sload\n      swap1\n      0x0100\n      exp\n      swap1\n      div\n      0xffffffffffffffffffffffffffffffffffffffff\n      and\n        /* \"crowdsale/crowdsale.sol\":3503:3516  return _token */\n      swap1\n      pop\n        /* \"crowdsale/crowdsale.sol\":3446:3524  function token() public view returns (IERC20) {... */\n      swap1\n      jump\t// out\n        /* \"@openzeppelin/contracts/security/ReentrancyGuard.sol\":2336:2623  function _nonReentrantBefore() private {... */\n    tag_75:\n        /* \"@openzeppelin/contracts/security/ReentrancyGuard.sol\":1759:1760  2 */\n      0x02\n        /* \"@openzeppelin/contracts/security/ReentrancyGuard.sol\":2468:2475  _status */\n      sload(0x00)\n        /* \"@openzeppelin/contracts/security/ReentrancyGuard.sol\":2468:2487  _status != _ENTERED */\n      sub\n        /* \"@openzeppelin/contracts/security/ReentrancyGuard.sol\":2460:2523  require(_status != _ENTERED, \"ReentrancyGuard: reentrant call\") */\n      tag_122\n      jumpi\n      mload(0x40)\n      0x08c379a000000000000000000000000000000000000000000000000000000000\n      dup2\n      mstore\n      0x04\n      add\n      tag_123\n      swap1\n      tag_124\n      jump\t// in\n    tag_123:\n      mload(0x40)\n      dup1\n      swap2\n      sub\n      swap1\n      revert\n    tag_122:\n        /* \"@openzeppelin/contracts/security/ReentrancyGuard.sol\":1759:1760  2 */\n      0x02\n        /* \"@openzeppelin/contracts/security/ReentrancyGuard.sol\":2598:2605  _status */\n      0x00\n        /* \"@openzeppelin/contracts/security/ReentrancyGuard.sol\":2598:2616  _status = _ENTERED */\n      dup2\n      swap1\n      sstore\n      pop\n        /* \"@openzeppelin/contracts/security/ReentrancyGuard.sol\":2336:2623  function _nonReentrantBefore() private {... */\n      jump\t// out\n        /* \"crowdsale/validation/timedCrowdsale.sol\":2776:2952  function _preValidatePurchase(address beneficiary, uint256 weiAmount) internal override onlyWhileOpen view {... */\n    tag_78:\n        /* \"crowdsale/validation/timedCrowdsale.sol\":821:829  isOpen() */\n      tag_126\n        /* \"crowdsale/validation/timedCrowdsale.sol\":821:827  isOpen */\n      tag_45\n        /* \"crowdsale/validation/timedCrowdsale.sol\":821:829  isOpen() */\n      jump\t// in\n    tag_126:\n        /* \"crowdsale/validation/timedCrowdsale.sol\":813:858  require(isOpen(), \"TimedCrowdsale: not open\") */\n      tag_127\n      jumpi\n      mload(0x40)\n      0x08c379a000000000000000000000000000000000000000000000000000000000\n      dup2\n      mstore\n      0x04\n      add\n      tag_128\n      swap1\n      tag_129\n      jump\t// in\n    tag_128:\n      mload(0x40)\n      dup1\n      swap2\n      sub\n      swap1\n      revert\n    tag_127:\n        /* \"crowdsale/validation/timedCrowdsale.sol\":2894:2944  super._preValidatePurchase(beneficiary, weiAmount) */\n      tag_131\n        /* \"crowdsale/validation/timedCrowdsale.sol\":2921:2932  beneficiary */\n      dup3\n        /* \"crowdsale/validation/timedCrowdsale.sol\":2934:2943  weiAmount */\n      dup3\n        /* \"crowdsale/validation/timedCrowdsale.sol\":2894:2920  super._preValidatePurchase */\n      tag_132\n        /* \"crowdsale/validation/timedCrowdsale.sol\":2894:2944  super._preValidatePurchase(beneficiary, weiAmount) */\n      jump\t// in\n    tag_131:\n        /* \"crowdsale/validation/timedCrowdsale.sol\":2776:2952  function _preValidatePurchase(address beneficiary, uint256 weiAmount) internal override onlyWhileOpen view {... */\n      pop\n      pop\n      jump\t// out\n        /* \"crowdsale/price/increasingPriceCrowdsale.sol\":3101:3277  function _getTokenAmount(uint256 weiAmount) internal override view returns (uint256) {... */\n    tag_80:\n        /* \"crowdsale/price/increasingPriceCrowdsale.sol\":3177:3184  uint256 */\n      0x00\n        /* \"crowdsale/price/increasingPriceCrowdsale.sol\":3197:3216  uint256 currentRate */\n      dup1\n        /* \"crowdsale/price/increasingPriceCrowdsale.sol\":3219:3225  rate() */\n      tag_134\n        /* \"crowdsale/price/increasingPriceCrowdsale.sol\":3219:3223  rate */\n      tag_37\n        /* \"crowdsale/price/increasingPriceCrowdsale.sol\":3219:3225  rate() */\n      jump\t// in\n    tag_134:\n        /* \"crowdsale/price/increasingPriceCrowdsale.sol\":3197:3225  uint256 currentRate = rate() */\n      swap1\n      pop\n        /* \"crowdsale/price/increasingPriceCrowdsale.sol\":3243:3269  currentRate.mul(weiAmount) */\n      tag_135\n        /* \"crowdsale/price/increasingPriceCrowdsale.sol\":3259:3268  weiAmount */\n      dup4\n        /* \"crowdsale/price/increasingPriceCrowdsale.sol\":3243:3254  currentRate */\n      dup3\n        /* \"crowdsale/price/increasingPriceCrowdsale.sol\":3243:3258  currentRate.mul */\n      tag_111\n      swap1\n        /* \"crowdsale/price/increasingPriceCrowdsale.sol\":3243:3269  currentRate.mul(weiAmount) */\n      swap2\n      swap1\n      0xffffffff\n      and\n      jump\t// in\n    tag_135:\n        /* \"crowdsale/price/increasingPriceCrowdsale.sol\":3236:3269  return currentRate.mul(weiAmount) */\n      swap2\n      pop\n      pop\n        /* \"crowdsale/price/increasingPriceCrowdsale.sol\":3101:3277  function _getTokenAmount(uint256 weiAmount) internal override view returns (uint256) {... */\n      swap2\n      swap1\n      pop\n      jump\t// out\n        /* \"@openzeppelin/contracts/utils/math/SafeMath.sol\":2755:2851  function add(uint256 a, uint256 b) internal pure returns (uint256) {... */\n    tag_82:\n        /* \"@openzeppelin/contracts/utils/math/SafeMath.sol\":2813:2820  uint256 */\n      0x00\n        /* \"@openzeppelin/contracts/utils/math/SafeMath.sol\":2843:2844  b */\n      dup2\n        /* \"@openzeppelin/contracts/utils/math/SafeMath.sol\":2839:2840  a */\n      dup4\n        /* \"@openzeppelin/contracts/utils/math/SafeMath.sol\":2839:2844  a + b */\n      tag_137\n      swap2\n      swap1\n      tag_138\n      jump\t// in\n    tag_137:\n        /* \"@openzeppelin/contracts/utils/math/SafeMath.sol\":2832:2844  return a + b */\n      swap1\n      pop\n        /* \"@openzeppelin/contracts/utils/math/SafeMath.sol\":2755:2851  function add(uint256 a, uint256 b) internal pure returns (uint256) {... */\n      swap3\n      swap2\n      pop\n      pop\n      jump\t// out\n        /* \"crowdsale/crowdsale.sol\":7023:7167  function _processPurchase(address beneficiary, uint256 tokenAmount) internal virtual {... */\n    tag_84:\n        /* \"crowdsale/crowdsale.sol\":7119:7159  _deliverTokens(beneficiary, tokenAmount) */\n      tag_140\n        /* \"crowdsale/crowdsale.sol\":7134:7145  beneficiary */\n      dup3\n        /* \"crowdsale/crowdsale.sol\":7147:7158  tokenAmount */\n      dup3\n        /* \"crowdsale/crowdsale.sol\":7119:7133  _deliverTokens */\n      tag_141\n        /* \"crowdsale/crowdsale.sol\":7119:7159  _deliverTokens(beneficiary, tokenAmount) */\n      jump\t// in\n    tag_140:\n        /* \"crowdsale/crowdsale.sol\":7023:7167  function _processPurchase(address beneficiary, uint256 tokenAmount) internal virtual {... */\n      pop\n      pop\n      jump\t// out\n        /* \"crowdsale/crowdsale.sol\":7445:7600  function _updatePurchasingState(address beneficiary, uint256 weiAmount) internal virtual {... */\n    tag_89:\n      pop\n      pop\n      jump\t// out\n        /* \"crowdsale/crowdsale.sol\":8078:8166  function _forwardFunds() internal virtual {... */\n    tag_91:\n        /* \"crowdsale/crowdsale.sol\":8131:8138  _wallet */\n      0x02\n      0x00\n      swap1\n      sload\n      swap1\n      0x0100\n      exp\n      swap1\n      div\n      0xffffffffffffffffffffffffffffffffffffffff\n      and\n        /* \"crowdsale/crowdsale.sol\":8131:8147  _wallet.transfer */\n      0xffffffffffffffffffffffffffffffffffffffff\n      and\n        /* \"crowdsale/crowdsale.sol\":8131:8158  _wallet.transfer(msg.value) */\n      0x08fc\n        /* \"crowdsale/crowdsale.sol\":8148:8157  msg.value */\n      callvalue\n        /* \"crowdsale/crowdsale.sol\":8131:8158  _wallet.transfer(msg.value) */\n      swap1\n      dup2\n      iszero\n      mul\n      swap1\n      mload(0x40)\n      0x00\n      mload(0x40)\n      dup1\n      dup4\n      sub\n      dup2\n      dup6\n      dup9\n      dup9\n      call\n      swap4\n      pop\n      pop\n      pop\n      pop\n      iszero\n      dup1\n      iszero\n      tag_145\n      jumpi\n      returndatasize\n      0x00\n      dup1\n      returndatacopy\n      revert(0x00, returndatasize)\n    tag_145:\n      pop\n        /* \"crowdsale/crowdsale.sol\":8078:8166  function _forwardFunds() internal virtual {... */\n      jump\t// out\n        /* \"crowdsale/crowdsale.sol\":6155:6314  function _postValidatePurchase(address beneficiary, uint256 weiAmount) internal virtual view {... */\n    tag_93:\n      pop\n      pop\n      jump\t// out\n        /* \"@openzeppelin/contracts/security/ReentrancyGuard.sol\":2629:2838  function _nonReentrantAfter() private {... */\n    tag_95:\n        /* \"@openzeppelin/contracts/security/ReentrancyGuard.sol\":1716:1717  1 */\n      0x01\n        /* \"@openzeppelin/contracts/security/ReentrancyGuard.sol\":2809:2816  _status */\n      0x00\n        /* \"@openzeppelin/contracts/security/ReentrancyGuard.sol\":2809:2831  _status = _NOT_ENTERED */\n      dup2\n      swap1\n      sstore\n      pop\n        /* \"@openzeppelin/contracts/security/ReentrancyGuard.sol\":2629:2838  function _nonReentrantAfter() private {... */\n      jump\t// out\n        /* \"@openzeppelin/contracts/utils/math/SafeMath.sol\":3122:3218  function sub(uint256 a, uint256 b) internal pure returns (uint256) {... */\n    tag_103:\n        /* \"@openzeppelin/contracts/utils/math/SafeMath.sol\":3180:3187  uint256 */\n      0x00\n        /* \"@openzeppelin/contracts/utils/math/SafeMath.sol\":3210:3211  b */\n      dup2\n        /* \"@openzeppelin/contracts/utils/math/SafeMath.sol\":3206:3207  a */\n      dup4\n        /* \"@openzeppelin/contracts/utils/math/SafeMath.sol\":3206:3211  a - b */\n      tag_149\n      swap2\n      swap1\n      tag_150\n      jump\t// in\n    tag_149:\n        /* \"@openzeppelin/contracts/utils/math/SafeMath.sol\":3199:3211  return a - b */\n      swap1\n      pop\n        /* \"@openzeppelin/contracts/utils/math/SafeMath.sol\":3122:3218  function sub(uint256 a, uint256 b) internal pure returns (uint256) {... */\n      swap3\n      swap2\n      pop\n      pop\n      jump\t// out\n        /* \"@openzeppelin/contracts/utils/math/SafeMath.sol\":3465:3561  function mul(uint256 a, uint256 b) internal pure returns (uint256) {... */\n    tag_111:\n        /* \"@openzeppelin/contracts/utils/math/SafeMath.sol\":3523:3530  uint256 */\n      0x00\n        /* \"@openzeppelin/contracts/utils/math/SafeMath.sol\":3553:3554  b */\n      dup2\n        /* \"@openzeppelin/contracts/utils/math/SafeMath.sol\":3549:3550  a */\n      dup4\n        /* \"@openzeppelin/contracts/utils/math/SafeMath.sol\":3549:3554  a * b */\n      tag_152\n      swap2\n      swap1\n      tag_153\n      jump\t// in\n    tag_152:\n        /* \"@openzeppelin/contracts/utils/math/SafeMath.sol\":3542:3554  return a * b */\n      swap1\n      pop\n        /* \"@openzeppelin/contracts/utils/math/SafeMath.sol\":3465:3561  function mul(uint256 a, uint256 b) internal pure returns (uint256) {... */\n      swap3\n      swap2\n      pop\n      pop\n      jump\t// out\n        /* \"@openzeppelin/contracts/utils/math/SafeMath.sol\":3850:3946  function div(uint256 a, uint256 b) internal pure returns (uint256) {... */\n    tag_112:\n        /* \"@openzeppelin/contracts/utils/math/SafeMath.sol\":3908:3915  uint256 */\n      0x00\n        /* \"@openzeppelin/contracts/utils/math/SafeMath.sol\":3938:3939  b */\n      dup2\n        /* \"@openzeppelin/contracts/utils/math/SafeMath.sol\":3934:3935  a */\n      dup4\n        /* \"@openzeppelin/contracts/utils/math/SafeMath.sol\":3934:3939  a / b */\n      tag_155\n      swap2\n      swap1\n      tag_156\n      jump\t// in\n    tag_155:\n        /* \"@openzeppelin/contracts/utils/math/SafeMath.sol\":3927:3939  return a / b */\n      swap1\n      pop\n        /* \"@openzeppelin/contracts/utils/math/SafeMath.sol\":3850:3946  function div(uint256 a, uint256 b) internal pure returns (uint256) {... */\n      swap3\n      swap2\n      pop\n      pop\n      jump\t// out\n        /* \"crowdsale/crowdsale.sol\":5464:5852  function _preValidatePurchase(address beneficiary, uint256 weiAmount) internal virtual view {... */\n    tag_132:\n        /* \"crowdsale/crowdsale.sol\":5598:5599  0 */\n      0x00\n        /* \"crowdsale/crowdsale.sol\":5575:5600  beneficiary != address(0) */\n      0xffffffffffffffffffffffffffffffffffffffff\n      and\n        /* \"crowdsale/crowdsale.sol\":5575:5586  beneficiary */\n      dup3\n        /* \"crowdsale/crowdsale.sol\":5575:5600  beneficiary != address(0) */\n      0xffffffffffffffffffffffffffffffffffffffff\n      and\n      sub\n        /* \"crowdsale/crowdsale.sol\":5567:5647  require(beneficiary != address(0), \"Crowdsale: beneficiary is the zero address\") */\n      tag_158\n      jumpi\n      mload(0x40)\n      0x08c379a000000000000000000000000000000000000000000000000000000000\n      dup2\n      mstore\n      0x04\n      add\n      tag_159\n      swap1\n      tag_160\n      jump\t// in\n    tag_159:\n      mload(0x40)\n      dup1\n      swap2\n      sub\n      swap1\n      revert\n    tag_158:\n        /* \"crowdsale/crowdsale.sol\":5679:5680  0 */\n      0x00\n        /* \"crowdsale/crowdsale.sol\":5666:5675  weiAmount */\n      dup2\n        /* \"crowdsale/crowdsale.sol\":5666:5680  weiAmount != 0 */\n      sub\n        /* \"crowdsale/crowdsale.sol\":5658:5710  require(weiAmount != 0, \"Crowdsale: weiAmount is 0\") */\n      tag_161\n      jumpi\n      mload(0x40)\n      0x08c379a000000000000000000000000000000000000000000000000000000000\n      dup2\n      mstore\n      0x04\n      add\n      tag_162\n      swap1\n      tag_163\n      jump\t// in\n    tag_162:\n      mload(0x40)\n      dup1\n      swap2\n      sub\n      swap1\n      revert\n    tag_161:\n        /* \"crowdsale/crowdsale.sol\":5464:5852  function _preValidatePurchase(address beneficiary, uint256 weiAmount) internal virtual view {... */\n      pop\n      pop\n      jump\t// out\n        /* \"crowdsale/crowdsale.sol\":6602:6749  function _deliverTokens(address beneficiary, uint256 tokenAmount) internal virtual {... */\n    tag_141:\n        /* \"crowdsale/crowdsale.sol\":6696:6741  _token.safeTransfer(beneficiary, tokenAmount) */\n      tag_165\n        /* \"crowdsale/crowdsale.sol\":6716:6727  beneficiary */\n      dup3\n        /* \"crowdsale/crowdsale.sol\":6729:6740  tokenAmount */\n      dup3\n        /* \"crowdsale/crowdsale.sol\":6696:6702  _token */\n      0x01\n      0x00\n      swap1\n      sload\n      swap1\n      0x0100\n      exp\n      swap1\n      div\n      0xffffffffffffffffffffffffffffffffffffffff\n      and\n        /* \"crowdsale/crowdsale.sol\":6696:6715  _token.safeTransfer */\n      0xffffffffffffffffffffffffffffffffffffffff\n      and\n      tag_166\n      swap1\n        /* \"crowdsale/crowdsale.sol\":6696:6741  _token.safeTransfer(beneficiary, tokenAmount) */\n      swap3\n      swap2\n      swap1\n      0xffffffff\n      and\n      jump\t// in\n    tag_165:\n        /* \"crowdsale/crowdsale.sol\":6602:6749  function _deliverTokens(address beneficiary, uint256 tokenAmount) internal virtual {... */\n      pop\n      pop\n      jump\t// out\n        /* \"@openzeppelin/contracts/token/ERC20/utils/SafeERC20.sol\":941:1116  function safeTransfer(IERC20 token, address to, uint256 value) internal {... */\n    tag_166:\n        /* \"@openzeppelin/contracts/token/ERC20/utils/SafeERC20.sol\":1023:1109  _callOptionalReturn(token, abi.encodeWithSelector(token.transfer.selector, to, value)) */\n      tag_168\n        /* \"@openzeppelin/contracts/token/ERC20/utils/SafeERC20.sol\":1043:1048  token */\n      dup4\n        /* \"@openzeppelin/contracts/token/ERC20/utils/SafeERC20.sol\":1073:1096  token.transfer.selector */\n      shl(0xe0, 0xa9059cbb)\n        /* \"@openzeppelin/contracts/token/ERC20/utils/SafeERC20.sol\":1098:1100  to */\n      dup5\n        /* \"@openzeppelin/contracts/token/ERC20/utils/SafeERC20.sol\":1102:1107  value */\n      dup5\n        /* \"@openzeppelin/contracts/token/ERC20/utils/SafeERC20.sol\":1050:1108  abi.encodeWithSelector(token.transfer.selector, to, value) */\n      add(0x24, mload(0x40))\n      tag_169\n      swap3\n      swap2\n      swap1\n      tag_170\n      jump\t// in\n    tag_169:\n      mload(0x40)\n      0x20\n      dup2\n      dup4\n      sub\n      sub\n      dup2\n      mstore\n      swap1\n      0x40\n      mstore\n      swap1\n      not(0xffffffffffffffffffffffffffffffffffffffffffffffffffffffff)\n      and\n      0x20\n      dup3\n      add\n      dup1\n      mload\n      0xffffffffffffffffffffffffffffffffffffffffffffffffffffffff\n      dup4\n      dup2\n      dup4\n      and\n      or\n      dup4\n      mstore\n      pop\n      pop\n      pop\n      pop\n        /* \"@openzeppelin/contracts/token/ERC20/utils/SafeERC20.sol\":1023:1042  _callOptionalReturn */\n      tag_171\n        /* \"@openzeppelin/contracts/token/ERC20/utils/SafeERC20.sol\":1023:1109  _callOptionalReturn(token, abi.encodeWithSelector(token.transfer.selector, to, value)) */\n      jump\t// in\n    tag_168:\n        /* \"@openzeppelin/contracts/token/ERC20/utils/SafeERC20.sol\":941:1116  function safeTransfer(IERC20 token, address to, uint256 value) internal {... */\n      pop\n      pop\n      pop\n      jump\t// out\n        /* \"@openzeppelin/contracts/token/ERC20/utils/SafeERC20.sol\":5196:5838  function _callOptionalReturn(IERC20 token, bytes memory data) private {... */\n    tag_171:\n        /* \"@openzeppelin/contracts/token/ERC20/utils/SafeERC20.sol\":5615:5638  bytes memory returndata */\n      0x00\n        /* \"@openzeppelin/contracts/token/ERC20/utils/SafeERC20.sol\":5641:5710  address(token).functionCall(data, \"SafeERC20: low-level call failed\") */\n      tag_173\n        /* \"@openzeppelin/contracts/token/ERC20/utils/SafeERC20.sol\":5669:5673  data */\n      dup3\n        /* \"@openzeppelin/contracts/token/ERC20/utils/SafeERC20.sol\":5641:5710  address(token).functionCall(data, \"SafeERC20: low-level call failed\") */\n      mload(0x40)\n      dup1\n      0x40\n      add\n      0x40\n      mstore\n      dup1\n      0x20\n      dup2\n      mstore\n      0x20\n      add\n      0x5361666545524332303a206c6f772d6c6576656c2063616c6c206661696c6564\n      dup2\n      mstore\n      pop\n        /* \"@openzeppelin/contracts/token/ERC20/utils/SafeERC20.sol\":5649:5654  token */\n      dup6\n        /* \"@openzeppelin/contracts/token/ERC20/utils/SafeERC20.sol\":5641:5668  address(token).functionCall */\n      0xffffffffffffffffffffffffffffffffffffffff\n      and\n      tag_174\n      swap1\n        /* \"@openzeppelin/contracts/token/ERC20/utils/SafeERC20.sol\":5641:5710  address(token).functionCall(data, \"SafeERC20: low-level call failed\") */\n      swap3\n      swap2\n      swap1\n      0xffffffff\n      and\n      jump\t// in\n    tag_173:\n        /* \"@openzeppelin/contracts/token/ERC20/utils/SafeERC20.sol\":5615:5710  bytes memory returndata = address(token).functionCall(data, \"SafeERC20: low-level call failed\") */\n      swap1\n      pop\n        /* \"@openzeppelin/contracts/token/ERC20/utils/SafeERC20.sol\":5749:5750  0 */\n      0x00\n        /* \"@openzeppelin/contracts/token/ERC20/utils/SafeERC20.sol\":5728:5738  returndata */\n      dup2\n        /* \"@openzeppelin/contracts/token/ERC20/utils/SafeERC20.sol\":5728:5745  returndata.length */\n      mload\n        /* \"@openzeppelin/contracts/token/ERC20/utils/SafeERC20.sol\":5728:5750  returndata.length == 0 */\n      eq\n        /* \"@openzeppelin/contracts/token/ERC20/utils/SafeERC20.sol\":5728:5784  returndata.length == 0 || abi.decode(returndata, (bool)) */\n      dup1\n      tag_175\n      jumpi\n      pop\n        /* \"@openzeppelin/contracts/token/ERC20/utils/SafeERC20.sol\":5765:5775  returndata */\n      dup1\n        /* \"@openzeppelin/contracts/token/ERC20/utils/SafeERC20.sol\":5754:5784  abi.decode(returndata, (bool)) */\n      dup1\n      0x20\n      add\n      swap1\n      mload\n      dup2\n      add\n      swap1\n      tag_176\n      swap2\n      swap1\n      tag_177\n      jump\t// in\n    tag_176:\n        /* \"@openzeppelin/contracts/token/ERC20/utils/SafeERC20.sol\":5728:5784  returndata.length == 0 || abi.decode(returndata, (bool)) */\n    tag_175:\n        /* \"@openzeppelin/contracts/token/ERC20/utils/SafeERC20.sol\":5720:5831  require(returndata.length == 0 || abi.decode(returndata, (bool)), \"SafeERC20: ERC20 operation did not succeed\") */\n      tag_178\n      jumpi\n      mload(0x40)\n      0x08c379a000000000000000000000000000000000000000000000000000000000\n      dup2\n      mstore\n      0x04\n      add\n      tag_179\n      swap1\n      tag_180\n      jump\t// in\n    tag_179:\n      mload(0x40)\n      dup1\n      swap2\n      sub\n      swap1\n      revert\n    tag_178:\n        /* \"@openzeppelin/contracts/token/ERC20/utils/SafeERC20.sol\":5266:5838  {... */\n      pop\n        /* \"@openzeppelin/contracts/token/ERC20/utils/SafeERC20.sol\":5196:5838  function _callOptionalReturn(IERC20 token, bytes memory data) private {... */\n      pop\n      pop\n      jump\t// out\n        /* \"@openzeppelin/contracts/utils/Address.sol\":4108:4331  function functionCall(... */\n    tag_174:\n        /* \"@openzeppelin/contracts/utils/Address.sol\":4241:4253  bytes memory */\n      0x60\n        /* \"@openzeppelin/contracts/utils/Address.sol\":4272:4324  functionCallWithValue(target, data, 0, errorMessage) */\n      tag_182\n        /* \"@openzeppelin/contracts/utils/Address.sol\":4294:4300  target */\n      dup5\n        /* \"@openzeppelin/contracts/utils/Address.sol\":4302:4306  data */\n      dup5\n        /* \"@openzeppelin/contracts/utils/Address.sol\":4308:4309  0 */\n      0x00\n        /* \"@openzeppelin/contracts/utils/Address.sol\":4311:4323  errorMessage */\n      dup6\n        /* \"@openzeppelin/contracts/utils/Address.sol\":4272:4293  functionCallWithValue */\n      tag_183\n        /* \"@openzeppelin/contracts/utils/Address.sol\":4272:4324  functionCallWithValue(target, data, 0, errorMessage) */\n      jump\t// in\n    tag_182:\n        /* \"@openzeppelin/contracts/utils/Address.sol\":4265:4324  return functionCallWithValue(target, data, 0, errorMessage) */\n      swap1\n      pop\n        /* \"@openzeppelin/contracts/utils/Address.sol\":4108:4331  function functionCall(... */\n      swap4\n      swap3\n      pop\n      pop\n      pop\n      jump\t// out\n        /* \"@openzeppelin/contracts/utils/Address.sol\":5165:5611  function functionCallWithValue(... */\n    tag_183:\n        /* \"@openzeppelin/contracts/utils/Address.sol\":5330:5342  bytes memory */\n      0x60\n        /* \"@openzeppelin/contracts/utils/Address.sol\":5387:5392  value */\n      dup3\n        /* \"@openzeppelin/contracts/utils/Address.sol\":5362:5383  address(this).balance */\n      selfbalance\n        /* \"@openzeppelin/contracts/utils/Address.sol\":5362:5392  address(this).balance >= value */\n      lt\n      iszero\n        /* \"@openzeppelin/contracts/utils/Address.sol\":5354:5435  require(address(this).balance >= value, \"Address: insufficient balance for call\") */\n      tag_185\n      jumpi\n      mload(0x40)\n      0x08c379a000000000000000000000000000000000000000000000000000000000\n      dup2\n      mstore\n      0x04\n      add\n      tag_186\n      swap1\n      tag_187\n      jump\t// in\n    tag_186:\n      mload(0x40)\n      dup1\n      swap2\n      sub\n      swap1\n      revert\n    tag_185:\n        /* \"@openzeppelin/contracts/utils/Address.sol\":5446:5458  bool success */\n      0x00\n        /* \"@openzeppelin/contracts/utils/Address.sol\":5460:5483  bytes memory returndata */\n      dup1\n        /* \"@openzeppelin/contracts/utils/Address.sol\":5487:5493  target */\n      dup7\n        /* \"@openzeppelin/contracts/utils/Address.sol\":5487:5498  target.call */\n      0xffffffffffffffffffffffffffffffffffffffff\n      and\n        /* \"@openzeppelin/contracts/utils/Address.sol\":5506:5511  value */\n      dup6\n        /* \"@openzeppelin/contracts/utils/Address.sol\":5513:5517  data */\n      dup8\n        /* \"@openzeppelin/contracts/utils/Address.sol\":5487:5518  target.call{value: value}(data) */\n      mload(0x40)\n      tag_188\n      swap2\n      swap1\n      tag_189\n      jump\t// in\n    tag_188:\n      0x00\n      mload(0x40)\n      dup1\n      dup4\n      sub\n      dup2\n      dup6\n      dup8\n      gas\n      call\n      swap3\n      pop\n      pop\n      pop\n      returndatasize\n      dup1\n      0x00\n      dup2\n      eq\n      tag_192\n      jumpi\n      mload(0x40)\n      swap2\n      pop\n      and(add(returndatasize, 0x3f), not(0x1f))\n      dup3\n      add\n      0x40\n      mstore\n      returndatasize\n      dup3\n      mstore\n      returndatasize\n      0x00\n      0x20\n      dup5\n      add\n      returndatacopy\n      jump(tag_191)\n    tag_192:\n      0x60\n      swap2\n      pop\n    tag_191:\n      pop\n        /* \"@openzeppelin/contracts/utils/Address.sol\":5445:5518  (bool success, bytes memory returndata) = target.call{value: value}(data) */\n      swap2\n      pop\n      swap2\n      pop\n        /* \"@openzeppelin/contracts/utils/Address.sol\":5535:5604  verifyCallResultFromTarget(target, success, returndata, errorMessage) */\n      tag_193\n        /* \"@openzeppelin/contracts/utils/Address.sol\":5562:5568  target */\n      dup8\n        /* \"@openzeppelin/contracts/utils/Address.sol\":5570:5577  success */\n      dup4\n        /* \"@openzeppelin/contracts/utils/Address.sol\":5579:5589  returndata */\n      dup4\n        /* \"@openzeppelin/contracts/utils/Address.sol\":5591:5603  errorMessage */\n      dup8\n        /* \"@openzeppelin/contracts/utils/Address.sol\":5535:5561  verifyCallResultFromTarget */\n      tag_194\n        /* \"@openzeppelin/contracts/utils/Address.sol\":5535:5604  verifyCallResultFromTarget(target, success, returndata, errorMessage) */\n      jump\t// in\n    tag_193:\n        /* \"@openzeppelin/contracts/utils/Address.sol\":5528:5604  return verifyCallResultFromTarget(target, success, returndata, errorMessage) */\n      swap3\n      pop\n      pop\n      pop\n        /* \"@openzeppelin/contracts/utils/Address.sol\":5165:5611  function functionCallWithValue(... */\n      swap5\n      swap4\n      pop\n      pop\n      pop\n      pop\n      jump\t// out\n        /* \"@openzeppelin/contracts/utils/Address.sol\":7671:8299  function verifyCallResultFromTarget(... */\n    tag_194:\n        /* \"@openzeppelin/contracts/utils/Address.sol\":7851:7863  bytes memory */\n      0x60\n        /* \"@openzeppelin/contracts/utils/Address.sol\":7879:7886  success */\n      dup4\n        /* \"@openzeppelin/contracts/utils/Address.sol\":7875:8293  if (success) {... */\n      iszero\n      tag_196\n      jumpi\n        /* \"@openzeppelin/contracts/utils/Address.sol\":7927:7928  0 */\n      0x00\n        /* \"@openzeppelin/contracts/utils/Address.sol\":7906:7916  returndata */\n      dup4\n        /* \"@openzeppelin/contracts/utils/Address.sol\":7906:7923  returndata.length */\n      mload\n        /* \"@openzeppelin/contracts/utils/Address.sol\":7906:7928  returndata.length == 0 */\n      sub\n        /* \"@openzeppelin/contracts/utils/Address.sol\":7902:8188  if (returndata.length == 0) {... */\n      tag_197\n      jumpi\n        /* \"@openzeppelin/contracts/utils/Address.sol\":8121:8139  isContract(target) */\n      tag_198\n        /* \"@openzeppelin/contracts/utils/Address.sol\":8132:8138  target */\n      dup6\n        /* \"@openzeppelin/contracts/utils/Address.sol\":8121:8131  isContract */\n      tag_199\n        /* \"@openzeppelin/contracts/utils/Address.sol\":8121:8139  isContract(target) */\n      jump\t// in\n    tag_198:\n        /* \"@openzeppelin/contracts/utils/Address.sol\":8113:8173  require(isContract(target), \"Address: call to non-contract\") */\n      tag_200\n      jumpi\n      mload(0x40)\n      0x08c379a000000000000000000000000000000000000000000000000000000000\n      dup2\n      mstore\n      0x04\n      add\n      tag_201\n      swap1\n      tag_202\n      jump\t// in\n    tag_201:\n      mload(0x40)\n      dup1\n      swap2\n      sub\n      swap1\n      revert\n    tag_200:\n        /* \"@openzeppelin/contracts/utils/Address.sol\":7902:8188  if (returndata.length == 0) {... */\n    tag_197:\n        /* \"@openzeppelin/contracts/utils/Address.sol\":8208:8218  returndata */\n      dup3\n        /* \"@openzeppelin/contracts/utils/Address.sol\":8201:8218  return returndata */\n      swap1\n      pop\n      jump(tag_195)\n        /* \"@openzeppelin/contracts/utils/Address.sol\":7875:8293  if (success) {... */\n    tag_196:\n        /* \"@openzeppelin/contracts/utils/Address.sol\":8249:8282  _revert(returndata, errorMessage) */\n      tag_204\n        /* \"@openzeppelin/contracts/utils/Address.sol\":8257:8267  returndata */\n      dup4\n        /* \"@openzeppelin/contracts/utils/Address.sol\":8269:8281  errorMessage */\n      dup4\n        /* \"@openzeppelin/contracts/utils/Address.sol\":8249:8256  _revert */\n      tag_205\n        /* \"@openzeppelin/contracts/utils/Address.sol\":8249:8282  _revert(returndata, errorMessage) */\n      jump\t// in\n    tag_204:\n        /* \"@openzeppelin/contracts/utils/Address.sol\":7671:8299  function verifyCallResultFromTarget(... */\n    tag_195:\n      swap5\n      swap4\n      pop\n      pop\n      pop\n      pop\n      jump\t// out\n        /* \"@openzeppelin/contracts/utils/Address.sol\":1412:1732  function isContract(address account) internal view returns (bool) {... */\n    tag_199:\n        /* \"@openzeppelin/contracts/utils/Address.sol\":1472:1476  bool */\n      0x00\n        /* \"@openzeppelin/contracts/utils/Address.sol\":1724:1725  0 */\n      dup1\n        /* \"@openzeppelin/contracts/utils/Address.sol\":1702:1709  account */\n      dup3\n        /* \"@openzeppelin/contracts/utils/Address.sol\":1702:1721  account.code.length */\n      0xffffffffffffffffffffffffffffffffffffffff\n      and\n      extcodesize\n        /* \"@openzeppelin/contracts/utils/Address.sol\":1702:1725  account.code.length > 0 */\n      gt\n        /* \"@openzeppelin/contracts/utils/Address.sol\":1695:1725  return account.code.length > 0 */\n      swap1\n      pop\n        /* \"@openzeppelin/contracts/utils/Address.sol\":1412:1732  function isContract(address account) internal view returns (bool) {... */\n      swap2\n      swap1\n      pop\n      jump\t// out\n        /* \"@openzeppelin/contracts/utils/Address.sol\":8821:9361  function _revert(bytes memory returndata, string memory errorMessage) private pure {... */\n    tag_205:\n        /* \"@openzeppelin/contracts/utils/Address.sol\":9000:9001  0 */\n      0x00\n        /* \"@openzeppelin/contracts/utils/Address.sol\":8980:8990  returndata */\n      dup3\n        /* \"@openzeppelin/contracts/utils/Address.sol\":8980:8997  returndata.length */\n      mload\n        /* \"@openzeppelin/contracts/utils/Address.sol\":8980:9001  returndata.length > 0 */\n      gt\n        /* \"@openzeppelin/contracts/utils/Address.sol\":8976:9355  if (returndata.length > 0) {... */\n      iszero\n      tag_208\n      jumpi\n        /* \"@openzeppelin/contracts/utils/Address.sol\":9208:9218  returndata */\n      dup2\n        /* \"@openzeppelin/contracts/utils/Address.sol\":9202:9219  mload(returndata) */\n      mload\n        /* \"@openzeppelin/contracts/utils/Address.sol\":9264:9279  returndata_size */\n      dup1\n        /* \"@openzeppelin/contracts/utils/Address.sol\":9251:9261  returndata */\n      dup4\n        /* \"@openzeppelin/contracts/utils/Address.sol\":9247:9249  32 */\n      0x20\n        /* \"@openzeppelin/contracts/utils/Address.sol\":9243:9262  add(32, returndata) */\n      add\n        /* \"@openzeppelin/contracts/utils/Address.sol\":9236:9280  revert(add(32, returndata), returndata_size) */\n      revert\n        /* \"@openzeppelin/contracts/utils/Address.sol\":8976:9355  if (returndata.length > 0) {... */\n    tag_208:\n        /* \"@openzeppelin/contracts/utils/Address.sol\":9331:9343  errorMessage */\n      dup1\n        /* \"@openzeppelin/contracts/utils/Address.sol\":9324:9344  revert(errorMessage) */\n      mload(0x40)\n      0x08c379a000000000000000000000000000000000000000000000000000000000\n      dup2\n      mstore\n      0x04\n      add\n      tag_210\n      swap2\n      swap1\n      tag_211\n      jump\t// in\n    tag_210:\n      mload(0x40)\n      dup1\n      swap2\n      sub\n      swap1\n      revert\n        /* \"#utility.yul\":7:97   */\n    tag_212:\n        /* \"#utility.yul\":41:48   */\n      0x00\n        /* \"#utility.yul\":84:89   */\n      dup2\n        /* \"#utility.yul\":77:90   */\n      iszero\n        /* \"#utility.yul\":70:91   */\n      iszero\n        /* \"#utility.yul\":59:91   */\n      swap1\n      pop\n        /* \"#utility.yul\":7:97   */\n      swap2\n      swap1\n      pop\n      jump\t// out\n        /* \"#utility.yul\":103:212   */\n    tag_213:\n        /* \"#utility.yul\":184:205   */\n      tag_260\n        /* \"#utility.yul\":199:204   */\n      dup2\n        /* \"#utility.yul\":184:205   */\n      tag_212\n      jump\t// in\n    tag_260:\n        /* \"#utility.yul\":179:182   */\n      dup3\n        /* \"#utility.yul\":172:206   */\n      mstore\n        /* \"#utility.yul\":103:212   */\n      pop\n      pop\n      jump\t// out\n        /* \"#utility.yul\":218:428   */\n    tag_29:\n        /* \"#utility.yul\":305:309   */\n      0x00\n        /* \"#utility.yul\":343:345   */\n      0x20\n        /* \"#utility.yul\":332:341   */\n      dup3\n        /* \"#utility.yul\":328:346   */\n      add\n        /* \"#utility.yul\":320:346   */\n      swap1\n      pop\n        /* \"#utility.yul\":356:421   */\n      tag_262\n        /* \"#utility.yul\":418:419   */\n      0x00\n        /* \"#utility.yul\":407:416   */\n      dup4\n        /* \"#utility.yul\":403:420   */\n      add\n        /* \"#utility.yul\":394:400   */\n      dup5\n        /* \"#utility.yul\":356:421   */\n      tag_213\n      jump\t// in\n    tag_262:\n        /* \"#utility.yul\":218:428   */\n      swap3\n      swap2\n      pop\n      pop\n      jump\t// out\n        /* \"#utility.yul\":434:511   */\n    tag_214:\n        /* \"#utility.yul\":471:478   */\n      0x00\n        /* \"#utility.yul\":500:505   */\n      dup2\n        /* \"#utility.yul\":489:505   */\n      swap1\n      pop\n        /* \"#utility.yul\":434:511   */\n      swap2\n      swap1\n      pop\n      jump\t// out\n        /* \"#utility.yul\":517:635   */\n    tag_215:\n        /* \"#utility.yul\":604:628   */\n      tag_265\n        /* \"#utility.yul\":622:627   */\n      dup2\n        /* \"#utility.yul\":604:628   */\n      tag_214\n      jump\t// in\n    tag_265:\n        /* \"#utility.yul\":599:602   */\n      dup3\n        /* \"#utility.yul\":592:629   */\n      mstore\n        /* \"#utility.yul\":517:635   */\n      pop\n      pop\n      jump\t// out\n        /* \"#utility.yul\":641:863   */\n    tag_34:\n        /* \"#utility.yul\":734:738   */\n      0x00\n        /* \"#utility.yul\":772:774   */\n      0x20\n        /* \"#utility.yul\":761:770   */\n      dup3\n        /* \"#utility.yul\":757:775   */\n      add\n        /* \"#utility.yul\":749:775   */\n      swap1\n      pop\n        /* \"#utility.yul\":785:856   */\n      tag_267\n        /* \"#utility.yul\":853:854   */\n      0x00\n        /* \"#utility.yul\":842:851   */\n      dup4\n        /* \"#utility.yul\":838:855   */\n      add\n        /* \"#utility.yul\":829:835   */\n      dup5\n        /* \"#utility.yul\":785:856   */\n      tag_215\n      jump\t// in\n    tag_267:\n        /* \"#utility.yul\":641:863   */\n      swap3\n      swap2\n      pop\n      pop\n      jump\t// out\n        /* \"#utility.yul\":869:995   */\n    tag_216:\n        /* \"#utility.yul\":906:913   */\n      0x00\n        /* \"#utility.yul\":946:988   */\n      0xffffffffffffffffffffffffffffffffffffffff\n        /* \"#utility.yul\":939:944   */\n      dup3\n        /* \"#utility.yul\":935:989   */\n      and\n        /* \"#utility.yul\":924:989   */\n      swap1\n      pop\n        /* \"#utility.yul\":869:995   */\n      swap2\n      swap1\n      pop\n      jump\t// out\n        /* \"#utility.yul\":1001:1105   */\n    tag_217:\n        /* \"#utility.yul\":1046:1053   */\n      0x00\n        /* \"#utility.yul\":1075:1099   */\n      tag_270\n        /* \"#utility.yul\":1093:1098   */\n      dup3\n        /* \"#utility.yul\":1075:1099   */\n      tag_216\n      jump\t// in\n    tag_270:\n        /* \"#utility.yul\":1064:1099   */\n      swap1\n      pop\n        /* \"#utility.yul\":1001:1105   */\n      swap2\n      swap1\n      pop\n      jump\t// out\n        /* \"#utility.yul\":1111:1253   */\n    tag_218:\n        /* \"#utility.yul\":1214:1246   */\n      tag_272\n        /* \"#utility.yul\":1240:1245   */\n      dup2\n        /* \"#utility.yul\":1214:1246   */\n      tag_217\n      jump\t// in\n    tag_272:\n        /* \"#utility.yul\":1209:1212   */\n      dup3\n        /* \"#utility.yul\":1202:1247   */\n      mstore\n        /* \"#utility.yul\":1111:1253   */\n      pop\n      pop\n      jump\t// out\n        /* \"#utility.yul\":1259:1513   */\n    tag_55:\n        /* \"#utility.yul\":1368:1372   */\n      0x00\n        /* \"#utility.yul\":1406:1408   */\n      0x20\n        /* \"#utility.yul\":1395:1404   */\n      dup3\n        /* \"#utility.yul\":1391:1409   */\n      add\n        /* \"#utility.yul\":1383:1409   */\n      swap1\n      pop\n        /* \"#utility.yul\":1419:1506   */\n      tag_274\n        /* \"#utility.yul\":1503:1504   */\n      0x00\n        /* \"#utility.yul\":1492:1501   */\n      dup4\n        /* \"#utility.yul\":1488:1505   */\n      add\n        /* \"#utility.yul\":1479:1485   */\n      dup5\n        /* \"#utility.yul\":1419:1506   */\n      tag_218\n      jump\t// in\n    tag_274:\n        /* \"#utility.yul\":1259:1513   */\n      swap3\n      swap2\n      pop\n      pop\n      jump\t// out\n        /* \"#utility.yul\":1600:1717   */\n    tag_220:\n        /* \"#utility.yul\":1709:1710   */\n      0x00\n        /* \"#utility.yul\":1706:1707   */\n      dup1\n        /* \"#utility.yul\":1699:1711   */\n      revert\n        /* \"#utility.yul\":1846:1942   */\n    tag_222:\n        /* \"#utility.yul\":1883:1890   */\n      0x00\n        /* \"#utility.yul\":1912:1936   */\n      tag_279\n        /* \"#utility.yul\":1930:1935   */\n      dup3\n        /* \"#utility.yul\":1912:1936   */\n      tag_216\n      jump\t// in\n    tag_279:\n        /* \"#utility.yul\":1901:1936   */\n      swap1\n      pop\n        /* \"#utility.yul\":1846:1942   */\n      swap2\n      swap1\n      pop\n      jump\t// out\n        /* \"#utility.yul\":1948:2070   */\n    tag_223:\n        /* \"#utility.yul\":2021:2045   */\n      tag_281\n        /* \"#utility.yul\":2039:2044   */\n      dup2\n        /* \"#utility.yul\":2021:2045   */\n      tag_222\n      jump\t// in\n    tag_281:\n        /* \"#utility.yul\":2014:2019   */\n      dup2\n        /* \"#utility.yul\":2011:2046   */\n      eq\n        /* \"#utility.yul\":2001:2064   */\n      tag_282\n      jumpi\n        /* \"#utility.yul\":2060:2061   */\n      0x00\n        /* \"#utility.yul\":2057:2058   */\n      dup1\n        /* \"#utility.yul\":2050:2062   */\n      revert\n        /* \"#utility.yul\":2001:2064   */\n    tag_282:\n        /* \"#utility.yul\":1948:2070   */\n      pop\n      jump\t// out\n        /* \"#utility.yul\":2076:2215   */\n    tag_224:\n        /* \"#utility.yul\":2122:2127   */\n      0x00\n        /* \"#utility.yul\":2160:2166   */\n      dup2\n        /* \"#utility.yul\":2147:2167   */\n      calldataload\n        /* \"#utility.yul\":2138:2167   */\n      swap1\n      pop\n        /* \"#utility.yul\":2176:2209   */\n      tag_284\n        /* \"#utility.yul\":2203:2208   */\n      dup2\n        /* \"#utility.yul\":2176:2209   */\n      tag_223\n      jump\t// in\n    tag_284:\n        /* \"#utility.yul\":2076:2215   */\n      swap3\n      swap2\n      pop\n      pop\n      jump\t// out\n        /* \"#utility.yul\":2221:2550   */\n    tag_66:\n        /* \"#utility.yul\":2280:2286   */\n      0x00\n        /* \"#utility.yul\":2329:2331   */\n      0x20\n        /* \"#utility.yul\":2317:2326   */\n      dup3\n        /* \"#utility.yul\":2308:2315   */\n      dup5\n        /* \"#utility.yul\":2304:2327   */\n      sub\n        /* \"#utility.yul\":2300:2332   */\n      slt\n        /* \"#utility.yul\":2297:2416   */\n      iszero\n      tag_286\n      jumpi\n        /* \"#utility.yul\":2335:2414   */\n      tag_287\n      tag_220\n      jump\t// in\n    tag_287:\n        /* \"#utility.yul\":2297:2416   */\n    tag_286:\n        /* \"#utility.yul\":2455:2456   */\n      0x00\n        /* \"#utility.yul\":2480:2533   */\n      tag_288\n        /* \"#utility.yul\":2525:2532   */\n      dup5\n        /* \"#utility.yul\":2516:2522   */\n      dup3\n        /* \"#utility.yul\":2505:2514   */\n      dup6\n        /* \"#utility.yul\":2501:2523   */\n      add\n        /* \"#utility.yul\":2480:2533   */\n      tag_224\n      jump\t// in\n    tag_288:\n        /* \"#utility.yul\":2470:2533   */\n      swap2\n      pop\n        /* \"#utility.yul\":2426:2543   */\n      pop\n        /* \"#utility.yul\":2221:2550   */\n      swap3\n      swap2\n      pop\n      pop\n      jump\t// out\n        /* \"#utility.yul\":2556:2616   */\n    tag_225:\n        /* \"#utility.yul\":2584:2587   */\n      0x00\n        /* \"#utility.yul\":2605:2610   */\n      dup2\n        /* \"#utility.yul\":2598:2610   */\n      swap1\n      pop\n        /* \"#utility.yul\":2556:2616   */\n      swap2\n      swap1\n      pop\n      jump\t// out\n        /* \"#utility.yul\":2622:2764   */\n    tag_226:\n        /* \"#utility.yul\":2672:2681   */\n      0x00\n        /* \"#utility.yul\":2705:2758   */\n      tag_291\n        /* \"#utility.yul\":2723:2757   */\n      tag_292\n        /* \"#utility.yul\":2732:2756   */\n      tag_293\n        /* \"#utility.yul\":2750:2755   */\n      dup5\n        /* \"#utility.yul\":2732:2756   */\n      tag_216\n      jump\t// in\n    tag_293:\n        /* \"#utility.yul\":2723:2757   */\n      tag_225\n      jump\t// in\n    tag_292:\n        /* \"#utility.yul\":2705:2758   */\n      tag_216\n      jump\t// in\n    tag_291:\n        /* \"#utility.yul\":2692:2758   */\n      swap1\n      pop\n        /* \"#utility.yul\":2622:2764   */\n      swap2\n      swap1\n      pop\n      jump\t// out\n        /* \"#utility.yul\":2770:2896   */\n    tag_227:\n        /* \"#utility.yul\":2820:2829   */\n      0x00\n        /* \"#utility.yul\":2853:2890   */\n      tag_295\n        /* \"#utility.yul\":2884:2889   */\n      dup3\n        /* \"#utility.yul\":2853:2890   */\n      tag_226\n      jump\t// in\n    tag_295:\n        /* \"#utility.yul\":2840:2890   */\n      swap1\n      pop\n        /* \"#utility.yul\":2770:2896   */\n      swap2\n      swap1\n      pop\n      jump\t// out\n        /* \"#utility.yul\":2902:3042   */\n    tag_228:\n        /* \"#utility.yul\":2966:2975   */\n      0x00\n        /* \"#utility.yul\":2999:3036   */\n      tag_297\n        /* \"#utility.yul\":3030:3035   */\n      dup3\n        /* \"#utility.yul\":2999:3036   */\n      tag_227\n      jump\t// in\n    tag_297:\n        /* \"#utility.yul\":2986:3036   */\n      swap1\n      pop\n        /* \"#utility.yul\":2902:3042   */\n      swap2\n      swap1\n      pop\n      jump\t// out\n        /* \"#utility.yul\":3048:3207   */\n    tag_229:\n        /* \"#utility.yul\":3149:3200   */\n      tag_299\n        /* \"#utility.yul\":3194:3199   */\n      dup2\n        /* \"#utility.yul\":3149:3200   */\n      tag_228\n      jump\t// in\n    tag_299:\n        /* \"#utility.yul\":3144:3147   */\n      dup3\n        /* \"#utility.yul\":3137:3201   */\n      mstore\n        /* \"#utility.yul\":3048:3207   */\n      pop\n      pop\n      jump\t// out\n        /* \"#utility.yul\":3213:3463   */\n    tag_71:\n        /* \"#utility.yul\":3320:3324   */\n      0x00\n        /* \"#utility.yul\":3358:3360   */\n      0x20\n        /* \"#utility.yul\":3347:3356   */\n      dup3\n        /* \"#utility.yul\":3343:3361   */\n      add\n        /* \"#utility.yul\":3335:3361   */\n      swap1\n      pop\n        /* \"#utility.yul\":3371:3456   */\n      tag_301\n        /* \"#utility.yul\":3453:3454   */\n      0x00\n        /* \"#utility.yul\":3442:3451   */\n      dup4\n        /* \"#utility.yul\":3438:3455   */\n      add\n        /* \"#utility.yul\":3429:3435   */\n      dup5\n        /* \"#utility.yul\":3371:3456   */\n      tag_229\n      jump\t// in\n    tag_301:\n        /* \"#utility.yul\":3213:3463   */\n      swap3\n      swap2\n      pop\n      pop\n      jump\t// out\n        /* \"#utility.yul\":3469:3801   */\n    tag_87:\n        /* \"#utility.yul\":3590:3594   */\n      0x00\n        /* \"#utility.yul\":3628:3630   */\n      0x40\n        /* \"#utility.yul\":3617:3626   */\n      dup3\n        /* \"#utility.yul\":3613:3631   */\n      add\n        /* \"#utility.yul\":3605:3631   */\n      swap1\n      pop\n        /* \"#utility.yul\":3641:3712   */\n      tag_303\n        /* \"#utility.yul\":3709:3710   */\n      0x00\n        /* \"#utility.yul\":3698:3707   */\n      dup4\n        /* \"#utility.yul\":3694:3711   */\n      add\n        /* \"#utility.yul\":3685:3691   */\n      dup6\n        /* \"#utility.yul\":3641:3712   */\n      tag_215\n      jump\t// in\n    tag_303:\n        /* \"#utility.yul\":3722:3794   */\n      tag_304\n        /* \"#utility.yul\":3790:3792   */\n      0x20\n        /* \"#utility.yul\":3779:3788   */\n      dup4\n        /* \"#utility.yul\":3775:3793   */\n      add\n        /* \"#utility.yul\":3766:3772   */\n      dup5\n        /* \"#utility.yul\":3722:3794   */\n      tag_215\n      jump\t// in\n    tag_304:\n        /* \"#utility.yul\":3469:3801   */\n      swap4\n      swap3\n      pop\n      pop\n      pop\n      jump\t// out\n        /* \"#utility.yul\":3807:3976   */\n    tag_230:\n        /* \"#utility.yul\":3891:3902   */\n      0x00\n        /* \"#utility.yul\":3925:3931   */\n      dup3\n        /* \"#utility.yul\":3920:3923   */\n      dup3\n        /* \"#utility.yul\":3913:3932   */\n      mstore\n        /* \"#utility.yul\":3965:3969   */\n      0x20\n        /* \"#utility.yul\":3960:3963   */\n      dup3\n        /* \"#utility.yul\":3956:3970   */\n      add\n        /* \"#utility.yul\":3941:3970   */\n      swap1\n      pop\n        /* \"#utility.yul\":3807:3976   */\n      swap3\n      swap2\n      pop\n      pop\n      jump\t// out\n        /* \"#utility.yul\":3982:4163   */\n    tag_231:\n        /* \"#utility.yul\":4122:4155   */\n      0x5265656e7472616e637947756172643a207265656e7472616e742063616c6c00\n        /* \"#utility.yul\":4118:4119   */\n      0x00\n        /* \"#utility.yul\":4110:4116   */\n      dup3\n        /* \"#utility.yul\":4106:4120   */\n      add\n        /* \"#utility.yul\":4099:4156   */\n      mstore\n        /* \"#utility.yul\":3982:4163   */\n      pop\n      jump\t// out\n        /* \"#utility.yul\":4169:4535   */\n    tag_232:\n        /* \"#utility.yul\":4311:4314   */\n      0x00\n        /* \"#utility.yul\":4332:4399   */\n      tag_308\n        /* \"#utility.yul\":4396:4398   */\n      0x1f\n        /* \"#utility.yul\":4391:4394   */\n      dup4\n        /* \"#utility.yul\":4332:4399   */\n      tag_230\n      jump\t// in\n    tag_308:\n        /* \"#utility.yul\":4325:4399   */\n      swap2\n      pop\n        /* \"#utility.yul\":4408:4501   */\n      tag_309\n        /* \"#utility.yul\":4497:4500   */\n      dup3\n        /* \"#utility.yul\":4408:4501   */\n      tag_231\n      jump\t// in\n    tag_309:\n        /* \"#utility.yul\":4526:4528   */\n      0x20\n        /* \"#utility.yul\":4521:4524   */\n      dup3\n        /* \"#utility.yul\":4517:4529   */\n      add\n        /* \"#utility.yul\":4510:4529   */\n      swap1\n      pop\n        /* \"#utility.yul\":4169:4535   */\n      swap2\n      swap1\n      pop\n      jump\t// out\n        /* \"#utility.yul\":4541:4960   */\n    tag_124:\n        /* \"#utility.yul\":4707:4711   */\n      0x00\n        /* \"#utility.yul\":4745:4747   */\n      0x20\n        /* \"#utility.yul\":4734:4743   */\n      dup3\n        /* \"#utility.yul\":4730:4748   */\n      add\n        /* \"#utility.yul\":4722:4748   */\n      swap1\n      pop\n        /* \"#utility.yul\":4794:4803   */\n      dup2\n        /* \"#utility.yul\":4788:4792   */\n      dup2\n        /* \"#utility.yul\":4784:4804   */\n      sub\n        /* \"#utility.yul\":4780:4781   */\n      0x00\n        /* \"#utility.yul\":4769:4778   */\n      dup4\n        /* \"#utility.yul\":4765:4782   */\n      add\n        /* \"#utility.yul\":4758:4805   */\n      mstore\n        /* \"#utility.yul\":4822:4953   */\n      tag_311\n        /* \"#utility.yul\":4948:4952   */\n      dup2\n        /* \"#utility.yul\":4822:4953   */\n      tag_232\n      jump\t// in\n    tag_311:\n        /* \"#utility.yul\":4814:4953   */\n      swap1\n      pop\n        /* \"#utility.yul\":4541:4960   */\n      swap2\n      swap1\n      pop\n      jump\t// out\n        /* \"#utility.yul\":4966:5140   */\n    tag_233:\n        /* \"#utility.yul\":5106:5132   */\n      0x54696d656443726f776473616c653a206e6f74206f70656e0000000000000000\n        /* \"#utility.yul\":5102:5103   */\n      0x00\n        /* \"#utility.yul\":5094:5100   */\n      dup3\n        /* \"#utility.yul\":5090:5104   */\n      add\n        /* \"#utility.yul\":5083:5133   */\n      mstore\n        /* \"#utility.yul\":4966:5140   */\n      pop\n      jump\t// out\n        /* \"#utility.yul\":5146:5512   */\n    tag_234:\n        /* \"#utility.yul\":5288:5291   */\n      0x00\n        /* \"#utility.yul\":5309:5376   */\n      tag_314\n        /* \"#utility.yul\":5373:5375   */\n      0x18\n        /* \"#utility.yul\":5368:5371   */\n      dup4\n        /* \"#utility.yul\":5309:5376   */\n      tag_230\n      jump\t// in\n    tag_314:\n        /* \"#utility.yul\":5302:5376   */\n      swap2\n      pop\n        /* \"#utility.yul\":5385:5478   */\n      tag_315\n        /* \"#utility.yul\":5474:5477   */\n      dup3\n        /* \"#utility.yul\":5385:5478   */\n      tag_233\n      jump\t// in\n    tag_315:\n        /* \"#utility.yul\":5503:5505   */\n      0x20\n        /* \"#utility.yul\":5498:5501   */\n      dup3\n        /* \"#utility.yul\":5494:5506   */\n      add\n        /* \"#utility.yul\":5487:5506   */\n      swap1\n      pop\n        /* \"#utility.yul\":5146:5512   */\n      swap2\n      swap1\n      pop\n      jump\t// out\n        /* \"#utility.yul\":5518:5937   */\n    tag_129:\n        /* \"#utility.yul\":5684:5688   */\n      0x00\n        /* \"#utility.yul\":5722:5724   */\n      0x20\n        /* \"#utility.yul\":5711:5720   */\n      dup3\n        /* \"#utility.yul\":5707:5725   */\n      add\n        /* \"#utility.yul\":5699:5725   */\n      swap1\n      pop\n        /* \"#utility.yul\":5771:5780   */\n      dup2\n        /* \"#utility.yul\":5765:5769   */\n      dup2\n        /* \"#utility.yul\":5761:5781   */\n      sub\n        /* \"#utility.yul\":5757:5758   */\n      0x00\n        /* \"#utility.yul\":5746:5755   */\n      dup4\n        /* \"#utility.yul\":5742:5759   */\n      add\n        /* \"#utility.yul\":5735:5782   */\n      mstore\n        /* \"#utility.yul\":5799:5930   */\n      tag_317\n        /* \"#utility.yul\":5925:5929   */\n      dup2\n        /* \"#utility.yul\":5799:5930   */\n      tag_234\n      jump\t// in\n    tag_317:\n        /* \"#utility.yul\":5791:5930   */\n      swap1\n      pop\n        /* \"#utility.yul\":5518:5937   */\n      swap2\n      swap1\n      pop\n      jump\t// out\n        /* \"#utility.yul\":5943:6123   */\n    tag_235:\n        /* \"#utility.yul\":5991:6068   */\n      0x4e487b7100000000000000000000000000000000000000000000000000000000\n        /* \"#utility.yul\":5988:5989   */\n      0x00\n        /* \"#utility.yul\":5981:6069   */\n      mstore\n        /* \"#utility.yul\":6088:6092   */\n      0x11\n        /* \"#utility.yul\":6085:6086   */\n      0x04\n        /* \"#utility.yul\":6078:6093   */\n      mstore\n        /* \"#utility.yul\":6112:6116   */\n      0x24\n        /* \"#utility.yul\":6109:6110   */\n      0x00\n        /* \"#utility.yul\":6102:6117   */\n      revert\n        /* \"#utility.yul\":6129:6320   */\n    tag_138:\n        /* \"#utility.yul\":6169:6172   */\n      0x00\n        /* \"#utility.yul\":6188:6208   */\n      tag_320\n        /* \"#utility.yul\":6206:6207   */\n      dup3\n        /* \"#utility.yul\":6188:6208   */\n      tag_214\n      jump\t// in\n    tag_320:\n        /* \"#utility.yul\":6183:6208   */\n      swap2\n      pop\n        /* \"#utility.yul\":6222:6242   */\n      tag_321\n        /* \"#utility.yul\":6240:6241   */\n      dup4\n        /* \"#utility.yul\":6222:6242   */\n      tag_214\n      jump\t// in\n    tag_321:\n        /* \"#utility.yul\":6217:6242   */\n      swap3\n      pop\n        /* \"#utility.yul\":6265:6266   */\n      dup3\n        /* \"#utility.yul\":6262:6263   */\n      dup3\n        /* \"#utility.yul\":6258:6267   */\n      add\n        /* \"#utility.yul\":6251:6267   */\n      swap1\n      pop\n        /* \"#utility.yul\":6286:6289   */\n      dup1\n        /* \"#utility.yul\":6283:6284   */\n      dup3\n        /* \"#utility.yul\":6280:6290   */\n      gt\n        /* \"#utility.yul\":6277:6313   */\n      iszero\n      tag_322\n      jumpi\n        /* \"#utility.yul\":6293:6311   */\n      tag_323\n      tag_235\n      jump\t// in\n    tag_323:\n        /* \"#utility.yul\":6277:6313   */\n    tag_322:\n        /* \"#utility.yul\":6129:6320   */\n      swap3\n      swap2\n      pop\n      pop\n      jump\t// out\n        /* \"#utility.yul\":6326:6520   */\n    tag_150:\n        /* \"#utility.yul\":6366:6370   */\n      0x00\n        /* \"#utility.yul\":6386:6406   */\n      tag_325\n        /* \"#utility.yul\":6404:6405   */\n      dup3\n        /* \"#utility.yul\":6386:6406   */\n      tag_214\n      jump\t// in\n    tag_325:\n        /* \"#utility.yul\":6381:6406   */\n      swap2\n      pop\n        /* \"#utility.yul\":6420:6440   */\n      tag_326\n        /* \"#utility.yul\":6438:6439   */\n      dup4\n        /* \"#utility.yul\":6420:6440   */\n      tag_214\n      jump\t// in\n    tag_326:\n        /* \"#utility.yul\":6415:6440   */\n      swap3\n      pop\n        /* \"#utility.yul\":6464:6465   */\n      dup3\n        /* \"#utility.yul\":6461:6462   */\n      dup3\n        /* \"#utility.yul\":6457:6466   */\n      sub\n        /* \"#utility.yul\":6449:6466   */\n      swap1\n      pop\n        /* \"#utility.yul\":6488:6489   */\n      dup2\n        /* \"#utility.yul\":6482:6486   */\n      dup2\n        /* \"#utility.yul\":6479:6490   */\n      gt\n        /* \"#utility.yul\":6476:6513   */\n      iszero\n      tag_327\n      jumpi\n        /* \"#utility.yul\":6493:6511   */\n      tag_328\n      tag_235\n      jump\t// in\n    tag_328:\n        /* \"#utility.yul\":6476:6513   */\n    tag_327:\n        /* \"#utility.yul\":6326:6520   */\n      swap3\n      swap2\n      pop\n      pop\n      jump\t// out\n        /* \"#utility.yul\":6526:6936   */\n    tag_153:\n        /* \"#utility.yul\":6566:6573   */\n      0x00\n        /* \"#utility.yul\":6589:6609   */\n      tag_330\n        /* \"#utility.yul\":6607:6608   */\n      dup3\n        /* \"#utility.yul\":6589:6609   */\n      tag_214\n      jump\t// in\n    tag_330:\n        /* \"#utility.yul\":6584:6609   */\n      swap2\n      pop\n        /* \"#utility.yul\":6623:6643   */\n      tag_331\n        /* \"#utility.yul\":6641:6642   */\n      dup4\n        /* \"#utility.yul\":6623:6643   */\n      tag_214\n      jump\t// in\n    tag_331:\n        /* \"#utility.yul\":6618:6643   */\n      swap3\n      pop\n        /* \"#utility.yul\":6678:6679   */\n      dup3\n        /* \"#utility.yul\":6675:6676   */\n      dup3\n        /* \"#utility.yul\":6671:6680   */\n      mul\n        /* \"#utility.yul\":6700:6730   */\n      tag_332\n        /* \"#utility.yul\":6718:6729   */\n      dup2\n        /* \"#utility.yul\":6700:6730   */\n      tag_214\n      jump\t// in\n    tag_332:\n        /* \"#utility.yul\":6689:6730   */\n      swap2\n      pop\n        /* \"#utility.yul\":6879:6880   */\n      dup3\n        /* \"#utility.yul\":6870:6877   */\n      dup3\n        /* \"#utility.yul\":6866:6881   */\n      div\n        /* \"#utility.yul\":6863:6864   */\n      dup5\n        /* \"#utility.yul\":6860:6882   */\n      eq\n        /* \"#utility.yul\":6840:6841   */\n      dup4\n        /* \"#utility.yul\":6833:6842   */\n      iszero\n        /* \"#utility.yul\":6813:6896   */\n      or\n        /* \"#utility.yul\":6790:6929   */\n      tag_333\n      jumpi\n        /* \"#utility.yul\":6909:6927   */\n      tag_334\n      tag_235\n      jump\t// in\n    tag_334:\n        /* \"#utility.yul\":6790:6929   */\n    tag_333:\n        /* \"#utility.yul\":6574:6936   */\n      pop\n        /* \"#utility.yul\":6526:6936   */\n      swap3\n      swap2\n      pop\n      pop\n      jump\t// out\n        /* \"#utility.yul\":6942:7122   */\n    tag_236:\n        /* \"#utility.yul\":6990:7067   */\n      0x4e487b7100000000000000000000000000000000000000000000000000000000\n        /* \"#utility.yul\":6987:6988   */\n      0x00\n        /* \"#utility.yul\":6980:7068   */\n      mstore\n        /* \"#utility.yul\":7087:7091   */\n      0x12\n        /* \"#utility.yul\":7084:7085   */\n      0x04\n        /* \"#utility.yul\":7077:7092   */\n      mstore\n        /* \"#utility.yul\":7111:7115   */\n      0x24\n        /* \"#utility.yul\":7108:7109   */\n      0x00\n        /* \"#utility.yul\":7101:7116   */\n      revert\n        /* \"#utility.yul\":7128:7313   */\n    tag_156:\n        /* \"#utility.yul\":7168:7169   */\n      0x00\n        /* \"#utility.yul\":7185:7205   */\n      tag_337\n        /* \"#utility.yul\":7203:7204   */\n      dup3\n        /* \"#utility.yul\":7185:7205   */\n      tag_214\n      jump\t// in\n    tag_337:\n        /* \"#utility.yul\":7180:7205   */\n      swap2\n      pop\n        /* \"#utility.yul\":7219:7239   */\n      tag_338\n        /* \"#utility.yul\":7237:7238   */\n      dup4\n        /* \"#utility.yul\":7219:7239   */\n      tag_214\n      jump\t// in\n    tag_338:\n        /* \"#utility.yul\":7214:7239   */\n      swap3\n      pop\n        /* \"#utility.yul\":7258:7259   */\n      dup3\n        /* \"#utility.yul\":7248:7283   */\n      tag_339\n      jumpi\n        /* \"#utility.yul\":7263:7281   */\n      tag_340\n      tag_236\n      jump\t// in\n    tag_340:\n        /* \"#utility.yul\":7248:7283   */\n    tag_339:\n        /* \"#utility.yul\":7305:7306   */\n      dup3\n        /* \"#utility.yul\":7302:7303   */\n      dup3\n        /* \"#utility.yul\":7298:7307   */\n      div\n        /* \"#utility.yul\":7293:7307   */\n      swap1\n      pop\n        /* \"#utility.yul\":7128:7313   */\n      swap3\n      swap2\n      pop\n      pop\n      jump\t// out\n        /* \"#utility.yul\":7319:7548   */\n    tag_237:\n        /* \"#utility.yul\":7459:7493   */\n      0x43726f776473616c653a2062656e656669636961727920697320746865207a65\n        /* \"#utility.yul\":7455:7456   */\n      0x00\n        /* \"#utility.yul\":7447:7453   */\n      dup3\n        /* \"#utility.yul\":7443:7457   */\n      add\n        /* \"#utility.yul\":7436:7494   */\n      mstore\n        /* \"#utility.yul\":7528:7540   */\n      0x726f206164647265737300000000000000000000000000000000000000000000\n        /* \"#utility.yul\":7523:7525   */\n      0x20\n        /* \"#utility.yul\":7515:7521   */\n      dup3\n        /* \"#utility.yul\":7511:7526   */\n      add\n        /* \"#utility.yul\":7504:7541   */\n      mstore\n        /* \"#utility.yul\":7319:7548   */\n      pop\n      jump\t// out\n        /* \"#utility.yul\":7554:7920   */\n    tag_238:\n        /* \"#utility.yul\":7696:7699   */\n      0x00\n        /* \"#utility.yul\":7717:7784   */\n      tag_343\n        /* \"#utility.yul\":7781:7783   */\n      0x2a\n        /* \"#utility.yul\":7776:7779   */\n      dup4\n        /* \"#utility.yul\":7717:7784   */\n      tag_230\n      jump\t// in\n    tag_343:\n        /* \"#utility.yul\":7710:7784   */\n      swap2\n      pop\n        /* \"#utility.yul\":7793:7886   */\n      tag_344\n        /* \"#utility.yul\":7882:7885   */\n      dup3\n        /* \"#utility.yul\":7793:7886   */\n      tag_237\n      jump\t// in\n    tag_344:\n        /* \"#utility.yul\":7911:7913   */\n      0x40\n        /* \"#utility.yul\":7906:7909   */\n      dup3\n        /* \"#utility.yul\":7902:7914   */\n      add\n        /* \"#utility.yul\":7895:7914   */\n      swap1\n      pop\n        /* \"#utility.yul\":7554:7920   */\n      swap2\n      swap1\n      pop\n      jump\t// out\n        /* \"#utility.yul\":7926:8345   */\n    tag_160:\n        /* \"#utility.yul\":8092:8096   */\n      0x00\n        /* \"#utility.yul\":8130:8132   */\n      0x20\n        /* \"#utility.yul\":8119:8128   */\n      dup3\n        /* \"#utility.yul\":8115:8133   */\n      add\n        /* \"#utility.yul\":8107:8133   */\n      swap1\n      pop\n        /* \"#utility.yul\":8179:8188   */\n      dup2\n        /* \"#utility.yul\":8173:8177   */\n      dup2\n        /* \"#utility.yul\":8169:8189   */\n      sub\n        /* \"#utility.yul\":8165:8166   */\n      0x00\n        /* \"#utility.yul\":8154:8163   */\n      dup4\n        /* \"#utility.yul\":8150:8167   */\n      add\n        /* \"#utility.yul\":8143:8190   */\n      mstore\n        /* \"#utility.yul\":8207:8338   */\n      tag_346\n        /* \"#utility.yul\":8333:8337   */\n      dup2\n        /* \"#utility.yul\":8207:8338   */\n      tag_238\n      jump\t// in\n    tag_346:\n        /* \"#utility.yul\":8199:8338   */\n      swap1\n      pop\n        /* \"#utility.yul\":7926:8345   */\n      swap2\n      swap1\n      pop\n      jump\t// out\n        /* \"#utility.yul\":8351:8526   */\n    tag_239:\n        /* \"#utility.yul\":8491:8518   */\n      0x43726f776473616c653a20776569416d6f756e74206973203000000000000000\n        /* \"#utility.yul\":8487:8488   */\n      0x00\n        /* \"#utility.yul\":8479:8485   */\n      dup3\n        /* \"#utility.yul\":8475:8489   */\n      add\n        /* \"#utility.yul\":8468:8519   */\n      mstore\n        /* \"#utility.yul\":8351:8526   */\n      pop\n      jump\t// out\n        /* \"#utility.yul\":8532:8898   */\n    tag_240:\n        /* \"#utility.yul\":8674:8677   */\n      0x00\n        /* \"#utility.yul\":8695:8762   */\n      tag_349\n        /* \"#utility.yul\":8759:8761   */\n      0x19\n        /* \"#utility.yul\":8754:8757   */\n      dup4\n        /* \"#utility.yul\":8695:8762   */\n      tag_230\n      jump\t// in\n    tag_349:\n        /* \"#utility.yul\":8688:8762   */\n      swap2\n      pop\n        /* \"#utility.yul\":8771:8864   */\n      tag_350\n        /* \"#utility.yul\":8860:8863   */\n      dup3\n        /* \"#utility.yul\":8771:8864   */\n      tag_239\n      jump\t// in\n    tag_350:\n        /* \"#utility.yul\":8889:8891   */\n      0x20\n        /* \"#utility.yul\":8884:8887   */\n      dup3\n        /* \"#utility.yul\":8880:8892   */\n      add\n        /* \"#utility.yul\":8873:8892   */\n      swap1\n      pop\n        /* \"#utility.yul\":8532:8898   */\n      swap2\n      swap1\n      pop\n      jump\t// out\n        /* \"#utility.yul\":8904:9323   */\n    tag_163:\n        /* \"#utility.yul\":9070:9074   */\n      0x00\n        /* \"#utility.yul\":9108:9110   */\n      0x20\n        /* \"#utility.yul\":9097:9106   */\n      dup3\n        /* \"#utility.yul\":9093:9111   */\n      add\n        /* \"#utility.yul\":9085:9111   */\n      swap1\n      pop\n        /* \"#utility.yul\":9157:9166   */\n      dup2\n        /* \"#utility.yul\":9151:9155   */\n      dup2\n        /* \"#utility.yul\":9147:9167   */\n      sub\n        /* \"#utility.yul\":9143:9144   */\n      0x00\n        /* \"#utility.yul\":9132:9141   */\n      dup4\n        /* \"#utility.yul\":9128:9145   */\n      add\n        /* \"#utility.yul\":9121:9168   */\n      mstore\n        /* \"#utility.yul\":9185:9316   */\n      tag_352\n        /* \"#utility.yul\":9311:9315   */\n      dup2\n        /* \"#utility.yul\":9185:9316   */\n      tag_240\n      jump\t// in\n    tag_352:\n        /* \"#utility.yul\":9177:9316   */\n      swap1\n      pop\n        /* \"#utility.yul\":8904:9323   */\n      swap2\n      swap1\n      pop\n      jump\t// out\n        /* \"#utility.yul\":9329:9447   */\n    tag_241:\n        /* \"#utility.yul\":9416:9440   */\n      tag_354\n        /* \"#utility.yul\":9434:9439   */\n      dup2\n        /* \"#utility.yul\":9416:9440   */\n      tag_222\n      jump\t// in\n    tag_354:\n        /* \"#utility.yul\":9411:9414   */\n      dup3\n        /* \"#utility.yul\":9404:9441   */\n      mstore\n        /* \"#utility.yul\":9329:9447   */\n      pop\n      pop\n      jump\t// out\n        /* \"#utility.yul\":9453:9785   */\n    tag_170:\n        /* \"#utility.yul\":9574:9578   */\n      0x00\n        /* \"#utility.yul\":9612:9614   */\n      0x40\n        /* \"#utility.yul\":9601:9610   */\n      dup3\n        /* \"#utility.yul\":9597:9615   */\n      add\n        /* \"#utility.yul\":9589:9615   */\n      swap1\n      pop\n        /* \"#utility.yul\":9625:9696   */\n      tag_356\n        /* \"#utility.yul\":9693:9694   */\n      0x00\n        /* \"#utility.yul\":9682:9691   */\n      dup4\n        /* \"#utility.yul\":9678:9695   */\n      add\n        /* \"#utility.yul\":9669:9675   */\n      dup6\n        /* \"#utility.yul\":9625:9696   */\n      tag_241\n      jump\t// in\n    tag_356:\n        /* \"#utility.yul\":9706:9778   */\n      tag_357\n        /* \"#utility.yul\":9774:9776   */\n      0x20\n        /* \"#utility.yul\":9763:9772   */\n      dup4\n        /* \"#utility.yul\":9759:9777   */\n      add\n        /* \"#utility.yul\":9750:9756   */\n      dup5\n        /* \"#utility.yul\":9706:9778   */\n      tag_215\n      jump\t// in\n    tag_357:\n        /* \"#utility.yul\":9453:9785   */\n      swap4\n      swap3\n      pop\n      pop\n      pop\n      jump\t// out\n        /* \"#utility.yul\":9791:9907   */\n    tag_242:\n        /* \"#utility.yul\":9861:9882   */\n      tag_359\n        /* \"#utility.yul\":9876:9881   */\n      dup2\n        /* \"#utility.yul\":9861:9882   */\n      tag_212\n      jump\t// in\n    tag_359:\n        /* \"#utility.yul\":9854:9859   */\n      dup2\n        /* \"#utility.yul\":9851:9883   */\n      eq\n        /* \"#utility.yul\":9841:9901   */\n      tag_360\n      jumpi\n        /* \"#utility.yul\":9897:9898   */\n      0x00\n        /* \"#utility.yul\":9894:9895   */\n      dup1\n        /* \"#utility.yul\":9887:9899   */\n      revert\n        /* \"#utility.yul\":9841:9901   */\n    tag_360:\n        /* \"#utility.yul\":9791:9907   */\n      pop\n      jump\t// out\n        /* \"#utility.yul\":9913:10050   */\n    tag_243:\n        /* \"#utility.yul\":9967:9972   */\n      0x00\n        /* \"#utility.yul\":9998:10004   */\n      dup2\n        /* \"#utility.yul\":9992:10005   */\n      mload\n        /* \"#utility.yul\":9983:10005   */\n      swap1\n      pop\n        /* \"#utility.yul\":10014:10044   */\n      tag_362\n        /* \"#utility.yul\":10038:10043   */\n      dup2\n        /* \"#utility.yul\":10014:10044   */\n      tag_242\n      jump\t// in\n    tag_362:\n        /* \"#utility.yul\":9913:10050   */\n      swap3\n      swap2\n      pop\n      pop\n      jump\t// out\n        /* \"#utility.yul\":10056:10401   */\n    tag_177:\n        /* \"#utility.yul\":10123:10129   */\n      0x00\n        /* \"#utility.yul\":10172:10174   */\n      0x20\n        /* \"#utility.yul\":10160:10169   */\n      dup3\n        /* \"#utility.yul\":10151:10158   */\n      dup5\n        /* \"#utility.yul\":10147:10170   */\n      sub\n        /* \"#utility.yul\":10143:10175   */\n      slt\n        /* \"#utility.yul\":10140:10259   */\n      iszero\n      tag_364\n      jumpi\n        /* \"#utility.yul\":10178:10257   */\n      tag_365\n      tag_220\n      jump\t// in\n    tag_365:\n        /* \"#utility.yul\":10140:10259   */\n    tag_364:\n        /* \"#utility.yul\":10298:10299   */\n      0x00\n        /* \"#utility.yul\":10323:10384   */\n      tag_366\n        /* \"#utility.yul\":10376:10383   */\n      dup5\n        /* \"#utility.yul\":10367:10373   */\n      dup3\n        /* \"#utility.yul\":10356:10365   */\n      dup6\n        /* \"#utility.yul\":10352:10374   */\n      add\n        /* \"#utility.yul\":10323:10384   */\n      tag_243\n      jump\t// in\n    tag_366:\n        /* \"#utility.yul\":10313:10384   */\n      swap2\n      pop\n        /* \"#utility.yul\":10269:10394   */\n      pop\n        /* \"#utility.yul\":10056:10401   */\n      swap3\n      swap2\n      pop\n      pop\n      jump\t// out\n        /* \"#utility.yul\":10407:10636   */\n    tag_244:\n        /* \"#utility.yul\":10547:10581   */\n      0x5361666545524332303a204552433230206f7065726174696f6e20646964206e\n        /* \"#utility.yul\":10543:10544   */\n      0x00\n        /* \"#utility.yul\":10535:10541   */\n      dup3\n        /* \"#utility.yul\":10531:10545   */\n      add\n        /* \"#utility.yul\":10524:10582   */\n      mstore\n        /* \"#utility.yul\":10616:10628   */\n      0x6f74207375636365656400000000000000000000000000000000000000000000\n        /* \"#utility.yul\":10611:10613   */\n      0x20\n        /* \"#utility.yul\":10603:10609   */\n      dup3\n        /* \"#utility.yul\":10599:10614   */\n      add\n        /* \"#utility.yul\":10592:10629   */\n      mstore\n        /* \"#utility.yul\":10407:10636   */\n      pop\n      jump\t// out\n        /* \"#utility.yul\":10642:11008   */\n    tag_245:\n        /* \"#utility.yul\":10784:10787   */\n      0x00\n        /* \"#utility.yul\":10805:10872   */\n      tag_369\n        /* \"#utility.yul\":10869:10871   */\n      0x2a\n        /* \"#utility.yul\":10864:10867   */\n      dup4\n        /* \"#utility.yul\":10805:10872   */\n      tag_230\n      jump\t// in\n    tag_369:\n        /* \"#utility.yul\":10798:10872   */\n      swap2\n      pop\n        /* \"#utility.yul\":10881:10974   */\n      tag_370\n        /* \"#utility.yul\":10970:10973   */\n      dup3\n        /* \"#utility.yul\":10881:10974   */\n      tag_244\n      jump\t// in\n    tag_370:\n        /* \"#utility.yul\":10999:11001   */\n      0x40\n        /* \"#utility.yul\":10994:10997   */\n      dup3\n        /* \"#utility.yul\":10990:11002   */\n      add\n        /* \"#utility.yul\":10983:11002   */\n      swap1\n      pop\n        /* \"#utility.yul\":10642:11008   */\n      swap2\n      swap1\n      pop\n      jump\t// out\n        /* \"#utility.yul\":11014:11433   */\n    tag_180:\n        /* \"#utility.yul\":11180:11184   */\n      0x00\n        /* \"#utility.yul\":11218:11220   */\n      0x20\n        /* \"#utility.yul\":11207:11216   */\n      dup3\n        /* \"#utility.yul\":11203:11221   */\n      add\n        /* \"#utility.yul\":11195:11221   */\n      swap1\n      pop\n        /* \"#utility.yul\":11267:11276   */\n      dup2\n        /* \"#utility.yul\":11261:11265   */\n      dup2\n        /* \"#utility.yul\":11257:11277   */\n      sub\n        /* \"#utility.yul\":11253:11254   */\n      0x00\n        /* \"#utility.yul\":11242:11251   */\n      dup4\n        /* \"#utility.yul\":11238:11255   */\n      add\n        /* \"#utility.yul\":11231:11278   */\n      mstore\n        /* \"#utility.yul\":11295:11426   */\n      tag_372\n        /* \"#utility.yul\":11421:11425   */\n      dup2\n        /* \"#utility.yul\":11295:11426   */\n      tag_245\n      jump\t// in\n    tag_372:\n        /* \"#utility.yul\":11287:11426   */\n      swap1\n      pop\n        /* \"#utility.yul\":11014:11433   */\n      swap2\n      swap1\n      pop\n      jump\t// out\n        /* \"#utility.yul\":11439:11664   */\n    tag_246:\n        /* \"#utility.yul\":11579:11613   */\n      0x416464726573733a20696e73756666696369656e742062616c616e636520666f\n        /* \"#utility.yul\":11575:11576   */\n      0x00\n        /* \"#utility.yul\":11567:11573   */\n      dup3\n        /* \"#utility.yul\":11563:11577   */\n      add\n        /* \"#utility.yul\":11556:11614   */\n      mstore\n        /* \"#utility.yul\":11648:11656   */\n      0x722063616c6c0000000000000000000000000000000000000000000000000000\n        /* \"#utility.yul\":11643:11645   */\n      0x20\n        /* \"#utility.yul\":11635:11641   */\n      dup3\n        /* \"#utility.yul\":11631:11646   */\n      add\n        /* \"#utility.yul\":11624:11657   */\n      mstore\n        /* \"#utility.yul\":11439:11664   */\n      pop\n      jump\t// out\n        /* \"#utility.yul\":11670:12036   */\n    tag_247:\n        /* \"#utility.yul\":11812:11815   */\n      0x00\n        /* \"#utility.yul\":11833:11900   */\n      tag_375\n        /* \"#utility.yul\":11897:11899   */\n      0x26\n        /* \"#utility.yul\":11892:11895   */\n      dup4\n        /* \"#utility.yul\":11833:11900   */\n      tag_230\n      jump\t// in\n    tag_375:\n        /* \"#utility.yul\":11826:11900   */\n      swap2\n      pop\n        /* \"#utility.yul\":11909:12002   */\n      tag_376\n        /* \"#utility.yul\":11998:12001   */\n      dup3\n        /* \"#utility.yul\":11909:12002   */\n      tag_246\n      jump\t// in\n    tag_376:\n        /* \"#utility.yul\":12027:12029   */\n      0x40\n        /* \"#utility.yul\":12022:12025   */\n      dup3\n        /* \"#utility.yul\":12018:12030   */\n      add\n        /* \"#utility.yul\":12011:12030   */\n      swap1\n      pop\n        /* \"#utility.yul\":11670:12036   */\n      swap2\n      swap1\n      pop\n      jump\t// out\n        /* \"#utility.yul\":12042:12461   */\n    tag_187:\n        /* \"#utility.yul\":12208:12212   */\n      0x00\n        /* \"#utility.yul\":12246:12248   */\n      0x20\n        /* \"#utility.yul\":12235:12244   */\n      dup3\n        /* \"#utility.yul\":12231:12249   */\n      add\n        /* \"#utility.yul\":12223:12249   */\n      swap1\n      pop\n        /* \"#utility.yul\":12295:12304   */\n      dup2\n        /* \"#utility.yul\":12289:12293   */\n      dup2\n        /* \"#utility.yul\":12285:12305   */\n      sub\n        /* \"#utility.yul\":12281:12282   */\n      0x00\n        /* \"#utility.yul\":12270:12279   */\n      dup4\n        /* \"#utility.yul\":12266:12283   */\n      add\n        /* \"#utility.yul\":12259:12306   */\n      mstore\n        /* \"#utility.yul\":12323:12454   */\n      tag_378\n        /* \"#utility.yul\":12449:12453   */\n      dup2\n        /* \"#utility.yul\":12323:12454   */\n      tag_247\n      jump\t// in\n    tag_378:\n        /* \"#utility.yul\":12315:12454   */\n      swap1\n      pop\n        /* \"#utility.yul\":12042:12461   */\n      swap2\n      swap1\n      pop\n      jump\t// out\n        /* \"#utility.yul\":12467:12565   */\n    tag_248:\n        /* \"#utility.yul\":12518:12524   */\n      0x00\n        /* \"#utility.yul\":12552:12557   */\n      dup2\n        /* \"#utility.yul\":12546:12558   */\n      mload\n        /* \"#utility.yul\":12536:12558   */\n      swap1\n      pop\n        /* \"#utility.yul\":12467:12565   */\n      swap2\n      swap1\n      pop\n      jump\t// out\n        /* \"#utility.yul\":12571:12718   */\n    tag_249:\n        /* \"#utility.yul\":12672:12683   */\n      0x00\n        /* \"#utility.yul\":12709:12712   */\n      dup2\n        /* \"#utility.yul\":12694:12712   */\n      swap1\n      pop\n        /* \"#utility.yul\":12571:12718   */\n      swap3\n      swap2\n      pop\n      pop\n      jump\t// out\n        /* \"#utility.yul\":12724:12970   */\n    tag_250:\n        /* \"#utility.yul\":12805:12806   */\n      0x00\n        /* \"#utility.yul\":12815:12928   */\n    tag_382:\n        /* \"#utility.yul\":12829:12835   */\n      dup4\n        /* \"#utility.yul\":12826:12827   */\n      dup2\n        /* \"#utility.yul\":12823:12836   */\n      lt\n        /* \"#utility.yul\":12815:12928   */\n      iszero\n      tag_384\n      jumpi\n        /* \"#utility.yul\":12914:12915   */\n      dup1\n        /* \"#utility.yul\":12909:12912   */\n      dup3\n        /* \"#utility.yul\":12905:12916   */\n      add\n        /* \"#utility.yul\":12899:12917   */\n      mload\n        /* \"#utility.yul\":12895:12896   */\n      dup2\n        /* \"#utility.yul\":12890:12893   */\n      dup5\n        /* \"#utility.yul\":12886:12897   */\n      add\n        /* \"#utility.yul\":12879:12918   */\n      mstore\n        /* \"#utility.yul\":12851:12853   */\n      0x20\n        /* \"#utility.yul\":12848:12849   */\n      dup2\n        /* \"#utility.yul\":12844:12854   */\n      add\n        /* \"#utility.yul\":12839:12854   */\n      swap1\n      pop\n        /* \"#utility.yul\":12815:12928   */\n      jump(tag_382)\n    tag_384:\n        /* \"#utility.yul\":12962:12963   */\n      0x00\n        /* \"#utility.yul\":12953:12959   */\n      dup5\n        /* \"#utility.yul\":12948:12951   */\n      dup5\n        /* \"#utility.yul\":12944:12960   */\n      add\n        /* \"#utility.yul\":12937:12964   */\n      mstore\n        /* \"#utility.yul\":12786:12970   */\n      pop\n        /* \"#utility.yul\":12724:12970   */\n      pop\n      pop\n      pop\n      jump\t// out\n        /* \"#utility.yul\":12976:13362   */\n    tag_251:\n        /* \"#utility.yul\":13080:13083   */\n      0x00\n        /* \"#utility.yul\":13108:13146   */\n      tag_386\n        /* \"#utility.yul\":13140:13145   */\n      dup3\n        /* \"#utility.yul\":13108:13146   */\n      tag_248\n      jump\t// in\n    tag_386:\n        /* \"#utility.yul\":13162:13250   */\n      tag_387\n        /* \"#utility.yul\":13243:13249   */\n      dup2\n        /* \"#utility.yul\":13238:13241   */\n      dup6\n        /* \"#utility.yul\":13162:13250   */\n      tag_249\n      jump\t// in\n    tag_387:\n        /* \"#utility.yul\":13155:13250   */\n      swap4\n      pop\n        /* \"#utility.yul\":13259:13324   */\n      tag_388\n        /* \"#utility.yul\":13317:13323   */\n      dup2\n        /* \"#utility.yul\":13312:13315   */\n      dup6\n        /* \"#utility.yul\":13305:13309   */\n      0x20\n        /* \"#utility.yul\":13298:13303   */\n      dup7\n        /* \"#utility.yul\":13294:13310   */\n      add\n        /* \"#utility.yul\":13259:13324   */\n      tag_250\n      jump\t// in\n    tag_388:\n        /* \"#utility.yul\":13349:13355   */\n      dup1\n        /* \"#utility.yul\":13344:13347   */\n      dup5\n        /* \"#utility.yul\":13340:13356   */\n      add\n        /* \"#utility.yul\":13333:13356   */\n      swap2\n      pop\n        /* \"#utility.yul\":13084:13362   */\n      pop\n        /* \"#utility.yul\":12976:13362   */\n      swap3\n      swap2\n      pop\n      pop\n      jump\t// out\n        /* \"#utility.yul\":13368:13639   */\n    tag_189:\n        /* \"#utility.yul\":13498:13501   */\n      0x00\n        /* \"#utility.yul\":13520:13613   */\n      tag_390\n        /* \"#utility.yul\":13609:13612   */\n      dup3\n        /* \"#utility.yul\":13600:13606   */\n      dup5\n        /* \"#utility.yul\":13520:13613   */\n      tag_251\n      jump\t// in\n    tag_390:\n        /* \"#utility.yul\":13513:13613   */\n      swap2\n      pop\n        /* \"#utility.yul\":13630:13633   */\n      dup2\n        /* \"#utility.yul\":13623:13633   */\n      swap1\n      pop\n        /* \"#utility.yul\":13368:13639   */\n      swap3\n      swap2\n      pop\n      pop\n      jump\t// out\n        /* \"#utility.yul\":13645:13824   */\n    tag_252:\n        /* \"#utility.yul\":13785:13816   */\n      0x416464726573733a2063616c6c20746f206e6f6e2d636f6e7472616374000000\n        /* \"#utility.yul\":13781:13782   */\n      0x00\n        /* \"#utility.yul\":13773:13779   */\n      dup3\n        /* \"#utility.yul\":13769:13783   */\n      add\n        /* \"#utility.yul\":13762:13817   */\n      mstore\n        /* \"#utility.yul\":13645:13824   */\n      pop\n      jump\t// out\n        /* \"#utility.yul\":13830:14196   */\n    tag_253:\n        /* \"#utility.yul\":13972:13975   */\n      0x00\n        /* \"#utility.yul\":13993:14060   */\n      tag_393\n        /* \"#utility.yul\":14057:14059   */\n      0x1d\n        /* \"#utility.yul\":14052:14055   */\n      dup4\n        /* \"#utility.yul\":13993:14060   */\n      tag_230\n      jump\t// in\n    tag_393:\n        /* \"#utility.yul\":13986:14060   */\n      swap2\n      pop\n        /* \"#utility.yul\":14069:14162   */\n      tag_394\n        /* \"#utility.yul\":14158:14161   */\n      dup3\n        /* \"#utility.yul\":14069:14162   */\n      tag_252\n      jump\t// in\n    tag_394:\n        /* \"#utility.yul\":14187:14189   */\n      0x20\n        /* \"#utility.yul\":14182:14185   */\n      dup3\n        /* \"#utility.yul\":14178:14190   */\n      add\n        /* \"#utility.yul\":14171:14190   */\n      swap1\n      pop\n        /* \"#utility.yul\":13830:14196   */\n      swap2\n      swap1\n      pop\n      jump\t// out\n        /* \"#utility.yul\":14202:14621   */\n    tag_202:\n        /* \"#utility.yul\":14368:14372   */\n      0x00\n        /* \"#utility.yul\":14406:14408   */\n      0x20\n        /* \"#utility.yul\":14395:14404   */\n      dup3\n        /* \"#utility.yul\":14391:14409   */\n      add\n        /* \"#utility.yul\":14383:14409   */\n      swap1\n      pop\n        /* \"#utility.yul\":14455:14464   */\n      dup2\n        /* \"#utility.yul\":14449:14453   */\n      dup2\n        /* \"#utility.yul\":14445:14465   */\n      sub\n        /* \"#utility.yul\":14441:14442   */\n      0x00\n        /* \"#utility.yul\":14430:14439   */\n      dup4\n        /* \"#utility.yul\":14426:14443   */\n      add\n        /* \"#utility.yul\":14419:14466   */\n      mstore\n        /* \"#utility.yul\":14483:14614   */\n      tag_396\n        /* \"#utility.yul\":14609:14613   */\n      dup2\n        /* \"#utility.yul\":14483:14614   */\n      tag_253\n      jump\t// in\n    tag_396:\n        /* \"#utility.yul\":14475:14614   */\n      swap1\n      pop\n        /* \"#utility.yul\":14202:14621   */\n      swap2\n      swap1\n      pop\n      jump\t// out\n        /* \"#utility.yul\":14627:14726   */\n    tag_254:\n        /* \"#utility.yul\":14679:14685   */\n      0x00\n        /* \"#utility.yul\":14713:14718   */\n      dup2\n        /* \"#utility.yul\":14707:14719   */\n      mload\n        /* \"#utility.yul\":14697:14719   */\n      swap1\n      pop\n        /* \"#utility.yul\":14627:14726   */\n      swap2\n      swap1\n      pop\n      jump\t// out\n        /* \"#utility.yul\":14732:14834   */\n    tag_255:\n        /* \"#utility.yul\":14773:14779   */\n      0x00\n        /* \"#utility.yul\":14824:14826   */\n      0x1f\n        /* \"#utility.yul\":14820:14827   */\n      not\n        /* \"#utility.yul\":14815:14817   */\n      0x1f\n        /* \"#utility.yul\":14808:14813   */\n      dup4\n        /* \"#utility.yul\":14804:14818   */\n      add\n        /* \"#utility.yul\":14800:14828   */\n      and\n        /* \"#utility.yul\":14790:14828   */\n      swap1\n      pop\n        /* \"#utility.yul\":14732:14834   */\n      swap2\n      swap1\n      pop\n      jump\t// out\n        /* \"#utility.yul\":14840:15217   */\n    tag_256:\n        /* \"#utility.yul\":14928:14931   */\n      0x00\n        /* \"#utility.yul\":14956:14995   */\n      tag_400\n        /* \"#utility.yul\":14989:14994   */\n      dup3\n        /* \"#utility.yul\":14956:14995   */\n      tag_254\n      jump\t// in\n    tag_400:\n        /* \"#utility.yul\":15011:15082   */\n      tag_401\n        /* \"#utility.yul\":15075:15081   */\n      dup2\n        /* \"#utility.yul\":15070:15073   */\n      dup6\n        /* \"#utility.yul\":15011:15082   */\n      tag_230\n      jump\t// in\n    tag_401:\n        /* \"#utility.yul\":15004:15082   */\n      swap4\n      pop\n        /* \"#utility.yul\":15091:15156   */\n      tag_402\n        /* \"#utility.yul\":15149:15155   */\n      dup2\n        /* \"#utility.yul\":15144:15147   */\n      dup6\n        /* \"#utility.yul\":15137:15141   */\n      0x20\n        /* \"#utility.yul\":15130:15135   */\n      dup7\n        /* \"#utility.yul\":15126:15142   */\n      add\n        /* \"#utility.yul\":15091:15156   */\n      tag_250\n      jump\t// in\n    tag_402:\n        /* \"#utility.yul\":15181:15210   */\n      tag_403\n        /* \"#utility.yul\":15203:15209   */\n      dup2\n        /* \"#utility.yul\":15181:15210   */\n      tag_255\n      jump\t// in\n    tag_403:\n        /* \"#utility.yul\":15176:15179   */\n      dup5\n        /* \"#utility.yul\":15172:15211   */\n      add\n        /* \"#utility.yul\":15165:15211   */\n      swap2\n      pop\n        /* \"#utility.yul\":14932:15217   */\n      pop\n        /* \"#utility.yul\":14840:15217   */\n      swap3\n      swap2\n      pop\n      pop\n      jump\t// out\n        /* \"#utility.yul\":15223:15536   */\n    tag_211:\n        /* \"#utility.yul\":15336:15340   */\n      0x00\n        /* \"#utility.yul\":15374:15376   */\n      0x20\n        /* \"#utility.yul\":15363:15372   */\n      dup3\n        /* \"#utility.yul\":15359:15377   */\n      add\n        /* \"#utility.yul\":15351:15377   */\n      swap1\n      pop\n        /* \"#utility.yul\":15423:15432   */\n      dup2\n        /* \"#utility.yul\":15417:15421   */\n      dup2\n        /* \"#utility.yul\":15413:15433   */\n      sub\n        /* \"#utility.yul\":15409:15410   */\n      0x00\n        /* \"#utility.yul\":15398:15407   */\n      dup4\n        /* \"#utility.yul\":15394:15411   */\n      add\n        /* \"#utility.yul\":15387:15434   */\n      mstore\n        /* \"#utility.yul\":15451:15529   */\n      tag_405\n        /* \"#utility.yul\":15524:15528   */\n      dup2\n        /* \"#utility.yul\":15515:15521   */\n      dup5\n        /* \"#utility.yul\":15451:15529   */\n      tag_256\n      jump\t// in\n    tag_405:\n        /* \"#utility.yul\":15443:15529   */\n      swap1\n      pop\n        /* \"#utility.yul\":15223:15536   */\n      swap3\n      swap2\n      pop\n      pop\n      jump\t// out\n\n    auxdata: 0xa2646970667358221220e86828afda2baf7d38b7bb4cf5af5a871578df49e5ae2a1fbf5e21917b6c3cae64736f6c63430008150033\n}\n",
				"bytecode": {
					"linkReferences": {},
					"object": "608060405234801562000010575f80fd5b5060405162001b6638038062001b6683398181016040528101906200003691906200042a565b838387848482828260015f819055505f83116200008a576040517f08c379a0000000000000000000000000000000000000000000000000000000008152600401620000819062000520565b60405180910390fd5b5f73ffffffffffffffffffffffffffffffffffffffff168273ffffffffffffffffffffffffffffffffffffffff1603620000fb576040517f08c379a0000000000000000000000000000000000000000000000000000000008152600401620000f290620005b4565b60405180910390fd5b5f73ffffffffffffffffffffffffffffffffffffffff168173ffffffffffffffffffffffffffffffffffffffff16036200016c576040517f08c379a0000000000000000000000000000000000000000000000000000000008152600401620001639062000648565b60405180910390fd5b826003819055508160025f6101000a81548173ffffffffffffffffffffffffffffffffffffffff021916908373ffffffffffffffffffffffffffffffffffffffff1602179055508060015f6101000a81548173ffffffffffffffffffffffffffffffffffffffff021916908373ffffffffffffffffffffffffffffffffffffffff160217905550505050428510156200023c576040517f08c379a00000000000000000000000000000000000000000000000000000000081526004016200023390620006dc565b60405180910390fd5b84841162000281576040517f08c379a0000000000000000000000000000000000000000000000000000000008152600401620002789062000770565b60405180910390fd5b846005819055508360068190555050505050505f8511620002d9576040517f08c379a0000000000000000000000000000000000000000000000000000000008152600401620002d09062000804565b60405180910390fd5b8486116200031e576040517f08c379a00000000000000000000000000000000000000000000000000000000081526004016200031590620008be565b60405180910390fd5b8560078190555084600881905550505050505050620008de565b5f80fd5b5f819050919050565b62000350816200033c565b81146200035b575f80fd5b50565b5f815190506200036e8162000345565b92915050565b5f73ffffffffffffffffffffffffffffffffffffffff82169050919050565b5f6200039f8262000374565b9050919050565b620003b18162000393565b8114620003bc575f80fd5b50565b5f81519050620003cf81620003a6565b92915050565b5f620003e18262000374565b9050919050565b5f620003f482620003d5565b9050919050565b6200040681620003e8565b811462000411575f80fd5b50565b5f815190506200042481620003fb565b92915050565b5f805f805f8060c0878903121562000447576200044662000338565b5b5f6200045689828a016200035e565b96505060206200046989828a016200035e565b95505060406200047c89828a016200035e565b94505060606200048f89828a016200035e565b9350506080620004a289828a01620003bf565b92505060a0620004b589828a0162000414565b9150509295509295509295565b5f82825260208201905092915050565b7f43726f776473616c653a207261746520697320300000000000000000000000005f82015250565b5f62000508601483620004c2565b91506200051582620004d2565b602082019050919050565b5f6020820190508181035f8301526200053981620004fa565b9050919050565b7f43726f776473616c653a2077616c6c657420697320746865207a65726f2061645f8201527f6472657373000000000000000000000000000000000000000000000000000000602082015250565b5f6200059c602583620004c2565b9150620005a98262000540565b604082019050919050565b5f6020820190508181035f830152620005cd816200058e565b9050919050565b7f43726f776473616c653a20746f6b656e20697320746865207a65726f206164645f8201527f7265737300000000000000000000000000000000000000000000000000000000602082015250565b5f62000630602483620004c2565b91506200063d82620005d4565b604082019050919050565b5f6020820190508181035f830152620006618162000622565b9050919050565b7f54696d656443726f776473616c653a206f70656e696e672074696d65206973205f8201527f6265666f72652063757272656e742074696d6500000000000000000000000000602082015250565b5f620006c4603383620004c2565b9150620006d18262000668565b604082019050919050565b5f6020820190508181035f830152620006f581620006b6565b9050919050565b7f54696d656443726f776473616c653a206f70656e696e672074696d65206973205f8201527f6e6f74206265666f726520636c6f73696e672074696d65000000000000000000602082015250565b5f62000758603783620004c2565b91506200076582620006fc565b604082019050919050565b5f6020820190508181035f83015262000789816200074a565b9050919050565b7f496e6372656173696e67507269636543726f776473616c653a2066696e616c205f8201527f7261746520697320300000000000000000000000000000000000000000000000602082015250565b5f620007ec602983620004c2565b9150620007f98262000790565b604082019050919050565b5f6020820190508181035f8301526200081d81620007de565b9050919050565b7f496e6372656173696e67507269636543726f776473616c653a20696e697469615f8201527f6c2072617465206973206e6f742067726561746572207468616e2066696e616c60208201527f2072617465000000000000000000000000000000000000000000000000000000604082015250565b5f620008a6604583620004c2565b9150620008b38262000824565b606082019050919050565b5f6020820190508181035f830152620008d78162000898565b9050919050565b61127a80620008ec5f395ff3fe60806040526004361061009f575f3560e01c80634b6753bc116100635780634b6753bc1461019a578063521eb273146101c45780639e51051f146101ee578063b7a8807c14610218578063ec8ac4d814610242578063fc0c546a1461025e576100b6565b80631515bc2b146100c857806321106109146100f25780632c4e722e1461011c5780634042b66f1461014657806347535d7b14610170576100b6565b366100b6576100b46100af610288565b61028f565b005b6100c66100c1610288565b61028f565b005b3480156100d3575f80fd5b506100dc61036d565b6040516100e99190610a93565b60405180910390f35b3480156100fd575f80fd5b50610106610378565b6040516101139190610ac4565b60405180910390f35b348015610127575f80fd5b50610130610381565b60405161013d9190610ac4565b60405180910390f35b348015610151575f80fd5b5061015a610433565b6040516101679190610ac4565b60405180910390f35b34801561017b575f80fd5b5061018461043c565b6040516101919190610a93565b60405180910390f35b3480156101a5575f80fd5b506101ae610456565b6040516101bb9190610ac4565b60405180910390f35b3480156101cf575f80fd5b506101d861045f565b6040516101e59190610b1c565b60405180910390f35b3480156101f9575f80fd5b50610202610487565b60405161020f9190610ac4565b60405180910390f35b348015610223575f80fd5b5061022c610490565b6040516102399190610ac4565b60405180910390f35b61025c60048036038101906102579190610b74565b61028f565b005b348015610269575f80fd5b50610272610499565b60405161027f9190610bfa565b60405180910390f35b5f33905090565b6102976104c1565b5f3490506102a5828261050e565b5f6102af82610563565b90506102c68260045461058a90919063ffffffff16565b6004819055506102d6838261059f565b8273ffffffffffffffffffffffffffffffffffffffff166102f5610288565b73ffffffffffffffffffffffffffffffffffffffff167f6faf93231a456e552dbc9961f58d9713ee4f2e69d15f1975b050ef0911053a7b848460405161033c929190610c13565b60405180910390a361034e83836105ad565b6103566105b1565b6103608383610618565b505061036a61061c565b50565b5f6006544211905090565b5f600854905090565b5f61038a61043c565b610396575f9050610430565b5f6103b16103a2610490565b4261062590919063ffffffff16565b90505f6103d56103bf610490565b6103c7610456565b61062590919063ffffffff16565b90505f6103ef60085460075461062590919063ffffffff16565b905061042a6104198361040b848761063a90919063ffffffff16565b61064f90919063ffffffff16565b60075461062590919063ffffffff16565b93505050505b90565b5f600454905090565b5f600554421015801561045157506006544211155b905090565b5f600654905090565b5f60025f9054906101000a900473ffffffffffffffffffffffffffffffffffffffff16905090565b5f600754905090565b5f600554905090565b5f60015f9054906101000a900473ffffffffffffffffffffffffffffffffffffffff16905090565b60025f5403610505576040517f08c379a00000000000000000000000000000000000000000000000000000000081526004016104fc90610c94565b60405180910390fd5b60025f81905550565b61051661043c565b610555576040517f08c379a000000000000000000000000000000000000000000000000000000000815260040161054c90610cfc565b60405180910390fd5b61055f8282610664565b5050565b5f8061056d610381565b9050610582838261063a90919063ffffffff16565b915050919050565b5f81836105979190610d47565b905092915050565b6105a98282610718565b5050565b5050565b60025f9054906101000a900473ffffffffffffffffffffffffffffffffffffffff1673ffffffffffffffffffffffffffffffffffffffff166108fc3490811502906040515f60405180830381858888f19350505050158015610615573d5f803e3d5ffd5b50565b5050565b60015f81905550565b5f81836106329190610d7a565b905092915050565b5f81836106479190610dad565b905092915050565b5f818361065c9190610e1b565b905092915050565b5f73ffffffffffffffffffffffffffffffffffffffff168273ffffffffffffffffffffffffffffffffffffffff16036106d2576040517f08c379a00000000000000000000000000000000000000000000000000000000081526004016106c990610ebb565b60405180910390fd5b5f8103610714576040517f08c379a000000000000000000000000000000000000000000000000000000000815260040161070b90610f23565b60405180910390fd5b5050565b610764828260015f9054906101000a900473ffffffffffffffffffffffffffffffffffffffff1673ffffffffffffffffffffffffffffffffffffffff166107689092919063ffffffff16565b5050565b6107e98363a9059cbb60e01b8484604051602401610787929190610f50565b604051602081830303815290604052907bffffffffffffffffffffffffffffffffffffffffffffffffffffffff19166020820180517bffffffffffffffffffffffffffffffffffffffffffffffffffffffff83818316178352505050506107ee565b505050565b5f61084f826040518060400160405280602081526020017f5361666545524332303a206c6f772d6c6576656c2063616c6c206661696c65648152508573ffffffffffffffffffffffffffffffffffffffff166108b49092919063ffffffff16565b90505f8151148061087057508080602001905181019061086f9190610fa1565b5b6108af576040517f08c379a00000000000000000000000000000000000000000000000000000000081526004016108a69061103c565b60405180910390fd5b505050565b60606108c284845f856108cb565b90509392505050565b606082471015610910576040517f08c379a0000000000000000000000000000000000000000000000000000000008152600401610907906110ca565b60405180910390fd5b5f808673ffffffffffffffffffffffffffffffffffffffff1685876040516109389190611154565b5f6040518083038185875af1925050503d805f8114610972576040519150601f19603f3d011682016040523d82523d5f602084013e610977565b606091505b509150915061098887838387610994565b92505050949350505050565b606083156109f5575f8351036109ed576109ad85610a08565b6109ec576040517f08c379a00000000000000000000000000000000000000000000000000000000081526004016109e3906111b4565b60405180910390fd5b5b829050610a00565b6109ff8383610a2a565b5b949350505050565b5f808273ffffffffffffffffffffffffffffffffffffffff163b119050919050565b5f82511115610a3c5781518083602001fd5b806040517f08c379a0000000000000000000000000000000000000000000000000000000008152600401610a709190611224565b60405180910390fd5b5f8115159050919050565b610a8d81610a79565b82525050565b5f602082019050610aa65f830184610a84565b92915050565b5f819050919050565b610abe81610aac565b82525050565b5f602082019050610ad75f830184610ab5565b92915050565b5f73ffffffffffffffffffffffffffffffffffffffff82169050919050565b5f610b0682610add565b9050919050565b610b1681610afc565b82525050565b5f602082019050610b2f5f830184610b0d565b92915050565b5f80fd5b5f610b4382610add565b9050919050565b610b5381610b39565b8114610b5d575f80fd5b50565b5f81359050610b6e81610b4a565b92915050565b5f60208284031215610b8957610b88610b35565b5b5f610b9684828501610b60565b91505092915050565b5f819050919050565b5f610bc2610bbd610bb884610add565b610b9f565b610add565b9050919050565b5f610bd382610ba8565b9050919050565b5f610be482610bc9565b9050919050565b610bf481610bda565b82525050565b5f602082019050610c0d5f830184610beb565b92915050565b5f604082019050610c265f830185610ab5565b610c336020830184610ab5565b9392505050565b5f82825260208201905092915050565b7f5265656e7472616e637947756172643a207265656e7472616e742063616c6c005f82015250565b5f610c7e601f83610c3a565b9150610c8982610c4a565b602082019050919050565b5f6020820190508181035f830152610cab81610c72565b9050919050565b7f54696d656443726f776473616c653a206e6f74206f70656e00000000000000005f82015250565b5f610ce6601883610c3a565b9150610cf182610cb2565b602082019050919050565b5f6020820190508181035f830152610d1381610cda565b9050919050565b7f4e487b71000000000000000000000000000000000000000000000000000000005f52601160045260245ffd5b5f610d5182610aac565b9150610d5c83610aac565b9250828201905080821115610d7457610d73610d1a565b5b92915050565b5f610d8482610aac565b9150610d8f83610aac565b9250828203905081811115610da757610da6610d1a565b5b92915050565b5f610db782610aac565b9150610dc283610aac565b9250828202610dd081610aac565b91508282048414831517610de757610de6610d1a565b5b5092915050565b7f4e487b71000000000000000000000000000000000000000000000000000000005f52601260045260245ffd5b5f610e2582610aac565b9150610e3083610aac565b925082610e4057610e3f610dee565b5b828204905092915050565b7f43726f776473616c653a2062656e656669636961727920697320746865207a655f8201527f726f206164647265737300000000000000000000000000000000000000000000602082015250565b5f610ea5602a83610c3a565b9150610eb082610e4b565b604082019050919050565b5f6020820190508181035f830152610ed281610e99565b9050919050565b7f43726f776473616c653a20776569416d6f756e742069732030000000000000005f82015250565b5f610f0d601983610c3a565b9150610f1882610ed9565b602082019050919050565b5f6020820190508181035f830152610f3a81610f01565b9050919050565b610f4a81610b39565b82525050565b5f604082019050610f635f830185610f41565b610f706020830184610ab5565b9392505050565b610f8081610a79565b8114610f8a575f80fd5b50565b5f81519050610f9b81610f77565b92915050565b5f60208284031215610fb657610fb5610b35565b5b5f610fc384828501610f8d565b91505092915050565b7f5361666545524332303a204552433230206f7065726174696f6e20646964206e5f8201527f6f74207375636365656400000000000000000000000000000000000000000000602082015250565b5f611026602a83610c3a565b915061103182610fcc565b604082019050919050565b5f6020820190508181035f8301526110538161101a565b9050919050565b7f416464726573733a20696e73756666696369656e742062616c616e636520666f5f8201527f722063616c6c0000000000000000000000000000000000000000000000000000602082015250565b5f6110b4602683610c3a565b91506110bf8261105a565b604082019050919050565b5f6020820190508181035f8301526110e1816110a8565b9050919050565b5f81519050919050565b5f81905092915050565b5f5b838110156111195780820151818401526020810190506110fe565b5f8484015250505050565b5f61112e826110e8565b61113881856110f2565b93506111488185602086016110fc565b80840191505092915050565b5f61115f8284611124565b915081905092915050565b7f416464726573733a2063616c6c20746f206e6f6e2d636f6e74726163740000005f82015250565b5f61119e601d83610c3a565b91506111a98261116a565b602082019050919050565b5f6020820190508181035f8301526111cb81611192565b9050919050565b5f81519050919050565b5f601f19601f8301169050919050565b5f6111f6826111d2565b6112008185610c3a565b93506112108185602086016110fc565b611219816111dc565b840191505092915050565b5f6020820190508181035f83015261123c81846111ec565b90509291505056fea2646970667358221220e86828afda2baf7d38b7bb4cf5af5a871578df49e5ae2a1fbf5e21917b6c3cae64736f6c63430008150033",
					"opcodes": "PUSH1 0x80 PUSH1 0x40 MSTORE CALLVALUE DUP1 ISZERO PUSH3 0x10 JUMPI PUSH0 DUP1 REVERT JUMPDEST POP PUSH1 0x40 MLOAD PUSH3 0x1B66 CODESIZE SUB DUP1 PUSH3 0x1B66 DUP4 CODECOPY DUP2 DUP2 ADD PUSH1 0x40 MSTORE DUP2 ADD SWAP1 PUSH3 0x36 SWAP2 SWAP1 PUSH3 0x42A JUMP JUMPDEST DUP4 DUP4 DUP8 DUP5 DUP5 DUP3 DUP3 DUP3 PUSH1 0x1 PUSH0 DUP2 SWAP1 SSTORE POP PUSH0 DUP4 GT PUSH3 0x8A JUMPI PUSH1 0x40 MLOAD PUSH32 0x8C379A000000000000000000000000000000000000000000000000000000000 DUP2 MSTORE PUSH1 0x4 ADD PUSH3 0x81 SWAP1 PUSH3 0x520 JUMP JUMPDEST PUSH1 0x40 MLOAD DUP1 SWAP2 SUB SWAP1 REVERT JUMPDEST PUSH0 PUSH20 0xFFFFFFFFFFFFFFFFFFFFFFFFFFFFFFFFFFFFFFFF AND DUP3 PUSH20 0xFFFFFFFFFFFFFFFFFFFFFFFFFFFFFFFFFFFFFFFF AND SUB PUSH3 0xFB JUMPI PUSH1 0x40 MLOAD PUSH32 0x8C379A000000000000000000000000000000000000000000000000000000000 DUP2 MSTORE PUSH1 0x4 ADD PUSH3 0xF2 SWAP1 PUSH3 0x5B4 JUMP JUMPDEST PUSH1 0x40 MLOAD DUP1 SWAP2 SUB SWAP1 REVERT JUMPDEST PUSH0 PUSH20 0xFFFFFFFFFFFFFFFFFFFFFFFFFFFFFFFFFFFFFFFF AND DUP2 PUSH20 0xFFFFFFFFFFFFFFFFFFFFFFFFFFFFFFFFFFFFFFFF AND SUB PUSH3 0x16C JUMPI PUSH1 0x40 MLOAD PUSH32 0x8C379A000000000000000000000000000000000000000000000000000000000 DUP2 MSTORE PUSH1 0x4 ADD PUSH3 0x163 SWAP1 PUSH3 0x648 JUMP JUMPDEST PUSH1 0x40 MLOAD DUP1 SWAP2 SUB SWAP1 REVERT JUMPDEST DUP3 PUSH1 0x3 DUP2 SWAP1 SSTORE POP DUP2 PUSH1 0x2 PUSH0 PUSH2 0x100 EXP DUP2 SLOAD DUP2 PUSH20 0xFFFFFFFFFFFFFFFFFFFFFFFFFFFFFFFFFFFFFFFF MUL NOT AND SWAP1 DUP4 PUSH20 0xFFFFFFFFFFFFFFFFFFFFFFFFFFFFFFFFFFFFFFFF AND MUL OR SWAP1 SSTORE POP DUP1 PUSH1 0x1 PUSH0 PUSH2 0x100 EXP DUP2 SLOAD DUP2 PUSH20 0xFFFFFFFFFFFFFFFFFFFFFFFFFFFFFFFFFFFFFFFF MUL NOT AND SWAP1 DUP4 PUSH20 0xFFFFFFFFFFFFFFFFFFFFFFFFFFFFFFFFFFFFFFFF AND MUL OR SWAP1 SSTORE POP POP POP POP TIMESTAMP DUP6 LT ISZERO PUSH3 0x23C JUMPI PUSH1 0x40 MLOAD PUSH32 0x8C379A000000000000000000000000000000000000000000000000000000000 DUP2 MSTORE PUSH1 0x4 ADD PUSH3 0x233 SWAP1 PUSH3 0x6DC JUMP JUMPDEST PUSH1 0x40 MLOAD DUP1 SWAP2 SUB SWAP1 REVERT JUMPDEST DUP5 DUP5 GT PUSH3 0x281 JUMPI PUSH1 0x40 MLOAD PUSH32 0x8C379A000000000000000000000000000000000000000000000000000000000 DUP2 MSTORE PUSH1 0x4 ADD PUSH3 0x278 SWAP1 PUSH3 0x770 JUMP JUMPDEST PUSH1 0x40 MLOAD DUP1 SWAP2 SUB SWAP1 REVERT JUMPDEST DUP5 PUSH1 0x5 DUP2 SWAP1 SSTORE POP DUP4 PUSH1 0x6 DUP2 SWAP1 SSTORE POP POP POP POP POP POP PUSH0 DUP6 GT PUSH3 0x2D9 JUMPI PUSH1 0x40 MLOAD PUSH32 0x8C379A000000000000000000000000000000000000000000000000000000000 DUP2 MSTORE PUSH1 0x4 ADD PUSH3 0x2D0 SWAP1 PUSH3 0x804 JUMP JUMPDEST PUSH1 0x40 MLOAD DUP1 SWAP2 SUB SWAP1 REVERT JUMPDEST DUP5 DUP7 GT PUSH3 0x31E JUMPI PUSH1 0x40 MLOAD PUSH32 0x8C379A000000000000000000000000000000000000000000000000000000000 DUP2 MSTORE PUSH1 0x4 ADD PUSH3 0x315 SWAP1 PUSH3 0x8BE JUMP JUMPDEST PUSH1 0x40 MLOAD DUP1 SWAP2 SUB SWAP1 REVERT JUMPDEST DUP6 PUSH1 0x7 DUP2 SWAP1 SSTORE POP DUP5 PUSH1 0x8 DUP2 SWAP1 SSTORE POP POP POP POP POP POP POP PUSH3 0x8DE JUMP JUMPDEST PUSH0 DUP1 REVERT JUMPDEST PUSH0 DUP2 SWAP1 POP SWAP2 SWAP1 POP JUMP JUMPDEST PUSH3 0x350 DUP2 PUSH3 0x33C JUMP JUMPDEST DUP2 EQ PUSH3 0x35B JUMPI PUSH0 DUP1 REVERT JUMPDEST POP JUMP JUMPDEST PUSH0 DUP2 MLOAD SWAP1 POP PUSH3 0x36E DUP2 PUSH3 0x345 JUMP JUMPDEST SWAP3 SWAP2 POP POP JUMP JUMPDEST PUSH0 PUSH20 0xFFFFFFFFFFFFFFFFFFFFFFFFFFFFFFFFFFFFFFFF DUP3 AND SWAP1 POP SWAP2 SWAP1 POP JUMP JUMPDEST PUSH0 PUSH3 0x39F DUP3 PUSH3 0x374 JUMP JUMPDEST SWAP1 POP SWAP2 SWAP1 POP JUMP JUMPDEST PUSH3 0x3B1 DUP2 PUSH3 0x393 JUMP JUMPDEST DUP2 EQ PUSH3 0x3BC JUMPI PUSH0 DUP1 REVERT JUMPDEST POP JUMP JUMPDEST PUSH0 DUP2 MLOAD SWAP1 POP PUSH3 0x3CF DUP2 PUSH3 0x3A6 JUMP JUMPDEST SWAP3 SWAP2 POP POP JUMP JUMPDEST PUSH0 PUSH3 0x3E1 DUP3 PUSH3 0x374 JUMP JUMPDEST SWAP1 POP SWAP2 SWAP1 POP JUMP JUMPDEST PUSH0 PUSH3 0x3F4 DUP3 PUSH3 0x3D5 JUMP JUMPDEST SWAP1 POP SWAP2 SWAP1 POP JUMP JUMPDEST PUSH3 0x406 DUP2 PUSH3 0x3E8 JUMP JUMPDEST DUP2 EQ PUSH3 0x411 JUMPI PUSH0 DUP1 REVERT JUMPDEST POP JUMP JUMPDEST PUSH0 DUP2 MLOAD SWAP1 POP PUSH3 0x424 DUP2 PUSH3 0x3FB JUMP JUMPDEST SWAP3 SWAP2 POP POP JUMP JUMPDEST PUSH0 DUP1 PUSH0 DUP1 PUSH0 DUP1 PUSH1 0xC0 DUP8 DUP10 SUB SLT ISZERO PUSH3 0x447 JUMPI PUSH3 0x446 PUSH3 0x338 JUMP JUMPDEST JUMPDEST PUSH0 PUSH3 0x456 DUP10 DUP3 DUP11 ADD PUSH3 0x35E JUMP JUMPDEST SWAP7 POP POP PUSH1 0x20 PUSH3 0x469 DUP10 DUP3 DUP11 ADD PUSH3 0x35E JUMP JUMPDEST SWAP6 POP POP PUSH1 0x40 PUSH3 0x47C DUP10 DUP3 DUP11 ADD PUSH3 0x35E JUMP JUMPDEST SWAP5 POP POP PUSH1 0x60 PUSH3 0x48F DUP10 DUP3 DUP11 ADD PUSH3 0x35E JUMP JUMPDEST SWAP4 POP POP PUSH1 0x80 PUSH3 0x4A2 DUP10 DUP3 DUP11 ADD PUSH3 0x3BF JUMP JUMPDEST SWAP3 POP POP PUSH1 0xA0 PUSH3 0x4B5 DUP10 DUP3 DUP11 ADD PUSH3 0x414 JUMP JUMPDEST SWAP2 POP POP SWAP3 SWAP6 POP SWAP3 SWAP6 POP SWAP3 SWAP6 JUMP JUMPDEST PUSH0 DUP3 DUP3 MSTORE PUSH1 0x20 DUP3 ADD SWAP1 POP SWAP3 SWAP2 POP POP JUMP JUMPDEST PUSH32 0x43726F776473616C653A20726174652069732030000000000000000000000000 PUSH0 DUP3 ADD MSTORE POP JUMP JUMPDEST PUSH0 PUSH3 0x508 PUSH1 0x14 DUP4 PUSH3 0x4C2 JUMP JUMPDEST SWAP2 POP PUSH3 0x515 DUP3 PUSH3 0x4D2 JUMP JUMPDEST PUSH1 0x20 DUP3 ADD SWAP1 POP SWAP2 SWAP1 POP JUMP JUMPDEST PUSH0 PUSH1 0x20 DUP3 ADD SWAP1 POP DUP2 DUP2 SUB PUSH0 DUP4 ADD MSTORE PUSH3 0x539 DUP2 PUSH3 0x4FA JUMP JUMPDEST SWAP1 POP SWAP2 SWAP1 POP JUMP JUMPDEST PUSH32 0x43726F776473616C653A2077616C6C657420697320746865207A65726F206164 PUSH0 DUP3 ADD MSTORE PUSH32 0x6472657373000000000000000000000000000000000000000000000000000000 PUSH1 0x20 DUP3 ADD MSTORE POP JUMP JUMPDEST PUSH0 PUSH3 0x59C PUSH1 0x25 DUP4 PUSH3 0x4C2 JUMP JUMPDEST SWAP2 POP PUSH3 0x5A9 DUP3 PUSH3 0x540 JUMP JUMPDEST PUSH1 0x40 DUP3 ADD SWAP1 POP SWAP2 SWAP1 POP JUMP JUMPDEST PUSH0 PUSH1 0x20 DUP3 ADD SWAP1 POP DUP2 DUP2 SUB PUSH0 DUP4 ADD MSTORE PUSH3 0x5CD DUP2 PUSH3 0x58E JUMP JUMPDEST SWAP1 POP SWAP2 SWAP1 POP JUMP JUMPDEST PUSH32 0x43726F776473616C653A20746F6B656E20697320746865207A65726F20616464 PUSH0 DUP3 ADD MSTORE PUSH32 0x7265737300000000000000000000000000000000000000000000000000000000 PUSH1 0x20 DUP3 ADD MSTORE POP JUMP JUMPDEST PUSH0 PUSH3 0x630 PUSH1 0x24 DUP4 PUSH3 0x4C2 JUMP JUMPDEST SWAP2 POP PUSH3 0x63D DUP3 PUSH3 0x5D4 JUMP JUMPDEST PUSH1 0x40 DUP3 ADD SWAP1 POP SWAP2 SWAP1 POP JUMP JUMPDEST PUSH0 PUSH1 0x20 DUP3 ADD SWAP1 POP DUP2 DUP2 SUB PUSH0 DUP4 ADD MSTORE PUSH3 0x661 DUP2 PUSH3 0x622 JUMP JUMPDEST SWAP1 POP SWAP2 SWAP1 POP JUMP JUMPDEST PUSH32 0x54696D656443726F776473616C653A206F70656E696E672074696D6520697320 PUSH0 DUP3 ADD MSTORE PUSH32 0x6265666F72652063757272656E742074696D6500000000000000000000000000 PUSH1 0x20 DUP3 ADD MSTORE POP JUMP JUMPDEST PUSH0 PUSH3 0x6C4 PUSH1 0x33 DUP4 PUSH3 0x4C2 JUMP JUMPDEST SWAP2 POP PUSH3 0x6D1 DUP3 PUSH3 0x668 JUMP JUMPDEST PUSH1 0x40 DUP3 ADD SWAP1 POP SWAP2 SWAP1 POP JUMP JUMPDEST PUSH0 PUSH1 0x20 DUP3 ADD SWAP1 POP DUP2 DUP2 SUB PUSH0 DUP4 ADD MSTORE PUSH3 0x6F5 DUP2 PUSH3 0x6B6 JUMP JUMPDEST SWAP1 POP SWAP2 SWAP1 POP JUMP JUMPDEST PUSH32 0x54696D656443726F776473616C653A206F70656E696E672074696D6520697320 PUSH0 DUP3 ADD MSTORE PUSH32 0x6E6F74206265666F726520636C6F73696E672074696D65000000000000000000 PUSH1 0x20 DUP3 ADD MSTORE POP JUMP JUMPDEST PUSH0 PUSH3 0x758 PUSH1 0x37 DUP4 PUSH3 0x4C2 JUMP JUMPDEST SWAP2 POP PUSH3 0x765 DUP3 PUSH3 0x6FC JUMP JUMPDEST PUSH1 0x40 DUP3 ADD SWAP1 POP SWAP2 SWAP1 POP JUMP JUMPDEST PUSH0 PUSH1 0x20 DUP3 ADD SWAP1 POP DUP2 DUP2 SUB PUSH0 DUP4 ADD MSTORE PUSH3 0x789 DUP2 PUSH3 0x74A JUMP JUMPDEST SWAP1 POP SWAP2 SWAP1 POP JUMP JUMPDEST PUSH32 0x496E6372656173696E67507269636543726F776473616C653A2066696E616C20 PUSH0 DUP3 ADD MSTORE PUSH32 0x7261746520697320300000000000000000000000000000000000000000000000 PUSH1 0x20 DUP3 ADD MSTORE POP JUMP JUMPDEST PUSH0 PUSH3 0x7EC PUSH1 0x29 DUP4 PUSH3 0x4C2 JUMP JUMPDEST SWAP2 POP PUSH3 0x7F9 DUP3 PUSH3 0x790 JUMP JUMPDEST PUSH1 0x40 DUP3 ADD SWAP1 POP SWAP2 SWAP1 POP JUMP JUMPDEST PUSH0 PUSH1 0x20 DUP3 ADD SWAP1 POP DUP2 DUP2 SUB PUSH0 DUP4 ADD MSTORE PUSH3 0x81D DUP2 PUSH3 0x7DE JUMP JUMPDEST SWAP1 POP SWAP2 SWAP1 POP JUMP JUMPDEST PUSH32 0x496E6372656173696E67507269636543726F776473616C653A20696E69746961 PUSH0 DUP3 ADD MSTORE PUSH32 0x6C2072617465206973206E6F742067726561746572207468616E2066696E616C PUSH1 0x20 DUP3 ADD MSTORE PUSH32 0x2072617465000000000000000000000000000000000000000000000000000000 PUSH1 0x40 DUP3 ADD MSTORE POP JUMP JUMPDEST PUSH0 PUSH3 0x8A6 PUSH1 0x45 DUP4 PUSH3 0x4C2 JUMP JUMPDEST SWAP2 POP PUSH3 0x8B3 DUP3 PUSH3 0x824 JUMP JUMPDEST PUSH1 0x60 DUP3 ADD SWAP1 POP SWAP2 SWAP1 POP JUMP JUMPDEST PUSH0 PUSH1 0x20 DUP3 ADD SWAP1 POP DUP2 DUP2 SUB PUSH0 DUP4 ADD MSTORE PUSH3 0x8D7 DUP2 PUSH3 0x898 JUMP JUMPDEST SWAP1 POP SWAP2 SWAP1 POP JUMP JUMPDEST PUSH2 0x127A DUP1 PUSH3 0x8EC PUSH0 CODECOPY PUSH0 RETURN INVALID PUSH1 0x80 PUSH1 0x40 MSTORE PUSH1 0x4 CALLDATASIZE LT PUSH2 0x9F JUMPI PUSH0 CALLDATALOAD PUSH1 0xE0 SHR DUP1 PUSH4 0x4B6753BC GT PUSH2 0x63 JUMPI DUP1 PUSH4 0x4B6753BC EQ PUSH2 0x19A JUMPI DUP1 PUSH4 0x521EB273 EQ PUSH2 0x1C4 JUMPI DUP1 PUSH4 0x9E51051F EQ PUSH2 0x1EE JUMPI DUP1 PUSH4 0xB7A8807C EQ PUSH2 0x218 JUMPI DUP1 PUSH4 0xEC8AC4D8 EQ PUSH2 0x242 JUMPI DUP1 PUSH4 0xFC0C546A EQ PUSH2 0x25E JUMPI PUSH2 0xB6 JUMP JUMPDEST DUP1 PUSH4 0x1515BC2B EQ PUSH2 0xC8 JUMPI DUP1 PUSH4 0x21106109 EQ PUSH2 0xF2 JUMPI DUP1 PUSH4 0x2C4E722E EQ PUSH2 0x11C JUMPI DUP1 PUSH4 0x4042B66F EQ PUSH2 0x146 JUMPI DUP1 PUSH4 0x47535D7B EQ PUSH2 0x170 JUMPI PUSH2 0xB6 JUMP JUMPDEST CALLDATASIZE PUSH2 0xB6 JUMPI PUSH2 0xB4 PUSH2 0xAF PUSH2 0x288 JUMP JUMPDEST PUSH2 0x28F JUMP JUMPDEST STOP JUMPDEST PUSH2 0xC6 PUSH2 0xC1 PUSH2 0x288 JUMP JUMPDEST PUSH2 0x28F JUMP JUMPDEST STOP JUMPDEST CALLVALUE DUP1 ISZERO PUSH2 0xD3 JUMPI PUSH0 DUP1 REVERT JUMPDEST POP PUSH2 0xDC PUSH2 0x36D JUMP JUMPDEST PUSH1 0x40 MLOAD PUSH2 0xE9 SWAP2 SWAP1 PUSH2 0xA93 JUMP JUMPDEST PUSH1 0x40 MLOAD DUP1 SWAP2 SUB SWAP1 RETURN JUMPDEST CALLVALUE DUP1 ISZERO PUSH2 0xFD JUMPI PUSH0 DUP1 REVERT JUMPDEST POP PUSH2 0x106 PUSH2 0x378 JUMP JUMPDEST PUSH1 0x40 MLOAD PUSH2 0x113 SWAP2 SWAP1 PUSH2 0xAC4 JUMP JUMPDEST PUSH1 0x40 MLOAD DUP1 SWAP2 SUB SWAP1 RETURN JUMPDEST CALLVALUE DUP1 ISZERO PUSH2 0x127 JUMPI PUSH0 DUP1 REVERT JUMPDEST POP PUSH2 0x130 PUSH2 0x381 JUMP JUMPDEST PUSH1 0x40 MLOAD PUSH2 0x13D SWAP2 SWAP1 PUSH2 0xAC4 JUMP JUMPDEST PUSH1 0x40 MLOAD DUP1 SWAP2 SUB SWAP1 RETURN JUMPDEST CALLVALUE DUP1 ISZERO PUSH2 0x151 JUMPI PUSH0 DUP1 REVERT JUMPDEST POP PUSH2 0x15A PUSH2 0x433 JUMP JUMPDEST PUSH1 0x40 MLOAD PUSH2 0x167 SWAP2 SWAP1 PUSH2 0xAC4 JUMP JUMPDEST PUSH1 0x40 MLOAD DUP1 SWAP2 SUB SWAP1 RETURN JUMPDEST CALLVALUE DUP1 ISZERO PUSH2 0x17B JUMPI PUSH0 DUP1 REVERT JUMPDEST POP PUSH2 0x184 PUSH2 0x43C JUMP JUMPDEST PUSH1 0x40 MLOAD PUSH2 0x191 SWAP2 SWAP1 PUSH2 0xA93 JUMP JUMPDEST PUSH1 0x40 MLOAD DUP1 SWAP2 SUB SWAP1 RETURN JUMPDEST CALLVALUE DUP1 ISZERO PUSH2 0x1A5 JUMPI PUSH0 DUP1 REVERT JUMPDEST POP PUSH2 0x1AE PUSH2 0x456 JUMP JUMPDEST PUSH1 0x40 MLOAD PUSH2 0x1BB SWAP2 SWAP1 PUSH2 0xAC4 JUMP JUMPDEST PUSH1 0x40 MLOAD DUP1 SWAP2 SUB SWAP1 RETURN JUMPDEST CALLVALUE DUP1 ISZERO PUSH2 0x1CF JUMPI PUSH0 DUP1 REVERT JUMPDEST POP PUSH2 0x1D8 PUSH2 0x45F JUMP JUMPDEST PUSH1 0x40 MLOAD PUSH2 0x1E5 SWAP2 SWAP1 PUSH2 0xB1C JUMP JUMPDEST PUSH1 0x40 MLOAD DUP1 SWAP2 SUB SWAP1 RETURN JUMPDEST CALLVALUE DUP1 ISZERO PUSH2 0x1F9 JUMPI PUSH0 DUP1 REVERT JUMPDEST POP PUSH2 0x202 PUSH2 0x487 JUMP JUMPDEST PUSH1 0x40 MLOAD PUSH2 0x20F SWAP2 SWAP1 PUSH2 0xAC4 JUMP JUMPDEST PUSH1 0x40 MLOAD DUP1 SWAP2 SUB SWAP1 RETURN JUMPDEST CALLVALUE DUP1 ISZERO PUSH2 0x223 JUMPI PUSH0 DUP1 REVERT JUMPDEST POP PUSH2 0x22C PUSH2 0x490 JUMP JUMPDEST PUSH1 0x40 MLOAD PUSH2 0x239 SWAP2 SWAP1 PUSH2 0xAC4 JUMP JUMPDEST PUSH1 0x40 MLOAD DUP1 SWAP2 SUB SWAP1 RETURN JUMPDEST PUSH2 0x25C PUSH1 0x4 DUP1 CALLDATASIZE SUB DUP2 ADD SWAP1 PUSH2 0x257 SWAP2 SWAP1 PUSH2 0xB74 JUMP JUMPDEST PUSH2 0x28F JUMP JUMPDEST STOP JUMPDEST CALLVALUE DUP1 ISZERO PUSH2 0x269 JUMPI PUSH0 DUP1 REVERT JUMPDEST POP PUSH2 0x272 PUSH2 0x499 JUMP JUMPDEST PUSH1 0x40 MLOAD PUSH2 0x27F SWAP2 SWAP1 PUSH2 0xBFA JUMP JUMPDEST PUSH1 0x40 MLOAD DUP1 SWAP2 SUB SWAP1 RETURN JUMPDEST PUSH0 CALLER SWAP1 POP SWAP1 JUMP JUMPDEST PUSH2 0x297 PUSH2 0x4C1 JUMP JUMPDEST PUSH0 CALLVALUE SWAP1 POP PUSH2 0x2A5 DUP3 DUP3 PUSH2 0x50E JUMP JUMPDEST PUSH0 PUSH2 0x2AF DUP3 PUSH2 0x563 JUMP JUMPDEST SWAP1 POP PUSH2 0x2C6 DUP3 PUSH1 0x4 SLOAD PUSH2 0x58A SWAP1 SWAP2 SWAP1 PUSH4 0xFFFFFFFF AND JUMP JUMPDEST PUSH1 0x4 DUP2 SWAP1 SSTORE POP PUSH2 0x2D6 DUP4 DUP3 PUSH2 0x59F JUMP JUMPDEST DUP3 PUSH20 0xFFFFFFFFFFFFFFFFFFFFFFFFFFFFFFFFFFFFFFFF AND PUSH2 0x2F5 PUSH2 0x288 JUMP JUMPDEST PUSH20 0xFFFFFFFFFFFFFFFFFFFFFFFFFFFFFFFFFFFFFFFF AND PUSH32 0x6FAF93231A456E552DBC9961F58D9713EE4F2E69D15F1975B050EF0911053A7B DUP5 DUP5 PUSH1 0x40 MLOAD PUSH2 0x33C SWAP3 SWAP2 SWAP1 PUSH2 0xC13 JUMP JUMPDEST PUSH1 0x40 MLOAD DUP1 SWAP2 SUB SWAP1 LOG3 PUSH2 0x34E DUP4 DUP4 PUSH2 0x5AD JUMP JUMPDEST PUSH2 0x356 PUSH2 0x5B1 JUMP JUMPDEST PUSH2 0x360 DUP4 DUP4 PUSH2 0x618 JUMP JUMPDEST POP POP PUSH2 0x36A PUSH2 0x61C JUMP JUMPDEST POP JUMP JUMPDEST PUSH0 PUSH1 0x6 SLOAD TIMESTAMP GT SWAP1 POP SWAP1 JUMP JUMPDEST PUSH0 PUSH1 0x8 SLOAD SWAP1 POP SWAP1 JUMP JUMPDEST PUSH0 PUSH2 0x38A PUSH2 0x43C JUMP JUMPDEST PUSH2 0x396 JUMPI PUSH0 SWAP1 POP PUSH2 0x430 JUMP JUMPDEST PUSH0 PUSH2 0x3B1 PUSH2 0x3A2 PUSH2 0x490 JUMP JUMPDEST TIMESTAMP PUSH2 0x625 SWAP1 SWAP2 SWAP1 PUSH4 0xFFFFFFFF AND JUMP JUMPDEST SWAP1 POP PUSH0 PUSH2 0x3D5 PUSH2 0x3BF PUSH2 0x490 JUMP JUMPDEST PUSH2 0x3C7 PUSH2 0x456 JUMP JUMPDEST PUSH2 0x625 SWAP1 SWAP2 SWAP1 PUSH4 0xFFFFFFFF AND JUMP JUMPDEST SWAP1 POP PUSH0 PUSH2 0x3EF PUSH1 0x8 SLOAD PUSH1 0x7 SLOAD PUSH2 0x625 SWAP1 SWAP2 SWAP1 PUSH4 0xFFFFFFFF AND JUMP JUMPDEST SWAP1 POP PUSH2 0x42A PUSH2 0x419 DUP4 PUSH2 0x40B DUP5 DUP8 PUSH2 0x63A SWAP1 SWAP2 SWAP1 PUSH4 0xFFFFFFFF AND JUMP JUMPDEST PUSH2 0x64F SWAP1 SWAP2 SWAP1 PUSH4 0xFFFFFFFF AND JUMP JUMPDEST PUSH1 0x7 SLOAD PUSH2 0x625 SWAP1 SWAP2 SWAP1 PUSH4 0xFFFFFFFF AND JUMP JUMPDEST SWAP4 POP POP POP POP JUMPDEST SWAP1 JUMP JUMPDEST PUSH0 PUSH1 0x4 SLOAD SWAP1 POP SWAP1 JUMP JUMPDEST PUSH0 PUSH1 0x5 SLOAD TIMESTAMP LT ISZERO DUP1 ISZERO PUSH2 0x451 JUMPI POP PUSH1 0x6 SLOAD TIMESTAMP GT ISZERO JUMPDEST SWAP1 POP SWAP1 JUMP JUMPDEST PUSH0 PUSH1 0x6 SLOAD SWAP1 POP SWAP1 JUMP JUMPDEST PUSH0 PUSH1 0x2 PUSH0 SWAP1 SLOAD SWAP1 PUSH2 0x100 EXP SWAP1 DIV PUSH20 0xFFFFFFFFFFFFFFFFFFFFFFFFFFFFFFFFFFFFFFFF AND SWAP1 POP SWAP1 JUMP JUMPDEST PUSH0 PUSH1 0x7 SLOAD SWAP1 POP SWAP1 JUMP JUMPDEST PUSH0 PUSH1 0x5 SLOAD SWAP1 POP SWAP1 JUMP JUMPDEST PUSH0 PUSH1 0x1 PUSH0 SWAP1 SLOAD SWAP1 PUSH2 0x100 EXP SWAP1 DIV PUSH20 0xFFFFFFFFFFFFFFFFFFFFFFFFFFFFFFFFFFFFFFFF AND SWAP1 POP SWAP1 JUMP JUMPDEST PUSH1 0x2 PUSH0 SLOAD SUB PUSH2 0x505 JUMPI PUSH1 0x40 MLOAD PUSH32 0x8C379A000000000000000000000000000000000000000000000000000000000 DUP2 MSTORE PUSH1 0x4 ADD PUSH2 0x4FC SWAP1 PUSH2 0xC94 JUMP JUMPDEST PUSH1 0x40 MLOAD DUP1 SWAP2 SUB SWAP1 REVERT JUMPDEST PUSH1 0x2 PUSH0 DUP2 SWAP1 SSTORE POP JUMP JUMPDEST PUSH2 0x516 PUSH2 0x43C JUMP JUMPDEST PUSH2 0x555 JUMPI PUSH1 0x40 MLOAD PUSH32 0x8C379A000000000000000000000000000000000000000000000000000000000 DUP2 MSTORE PUSH1 0x4 ADD PUSH2 0x54C SWAP1 PUSH2 0xCFC JUMP JUMPDEST PUSH1 0x40 MLOAD DUP1 SWAP2 SUB SWAP1 REVERT JUMPDEST PUSH2 0x55F DUP3 DUP3 PUSH2 0x664 JUMP JUMPDEST POP POP JUMP JUMPDEST PUSH0 DUP1 PUSH2 0x56D PUSH2 0x381 JUMP JUMPDEST SWAP1 POP PUSH2 0x582 DUP4 DUP3 PUSH2 0x63A SWAP1 SWAP2 SWAP1 PUSH4 0xFFFFFFFF AND JUMP JUMPDEST SWAP2 POP POP SWAP2 SWAP1 POP JUMP JUMPDEST PUSH0 DUP2 DUP4 PUSH2 0x597 SWAP2 SWAP1 PUSH2 0xD47 JUMP JUMPDEST SWAP1 POP SWAP3 SWAP2 POP POP JUMP JUMPDEST PUSH2 0x5A9 DUP3 DUP3 PUSH2 0x718 JUMP JUMPDEST POP POP JUMP JUMPDEST POP POP JUMP JUMPDEST PUSH1 0x2 PUSH0 SWAP1 SLOAD SWAP1 PUSH2 0x100 EXP SWAP1 DIV PUSH20 0xFFFFFFFFFFFFFFFFFFFFFFFFFFFFFFFFFFFFFFFF AND PUSH20 0xFFFFFFFFFFFFFFFFFFFFFFFFFFFFFFFFFFFFFFFF AND PUSH2 0x8FC CALLVALUE SWAP1 DUP2 ISZERO MUL SWAP1 PUSH1 0x40 MLOAD PUSH0 PUSH1 0x40 MLOAD DUP1 DUP4 SUB DUP2 DUP6 DUP9 DUP9 CALL SWAP4 POP POP POP POP ISZERO DUP1 ISZERO PUSH2 0x615 JUMPI RETURNDATASIZE PUSH0 DUP1 RETURNDATACOPY RETURNDATASIZE PUSH0 REVERT JUMPDEST POP JUMP JUMPDEST POP POP JUMP JUMPDEST PUSH1 0x1 PUSH0 DUP2 SWAP1 SSTORE POP JUMP JUMPDEST PUSH0 DUP2 DUP4 PUSH2 0x632 SWAP2 SWAP1 PUSH2 0xD7A JUMP JUMPDEST SWAP1 POP SWAP3 SWAP2 POP POP JUMP JUMPDEST PUSH0 DUP2 DUP4 PUSH2 0x647 SWAP2 SWAP1 PUSH2 0xDAD JUMP JUMPDEST SWAP1 POP SWAP3 SWAP2 POP POP JUMP JUMPDEST PUSH0 DUP2 DUP4 PUSH2 0x65C SWAP2 SWAP1 PUSH2 0xE1B JUMP JUMPDEST SWAP1 POP SWAP3 SWAP2 POP POP JUMP JUMPDEST PUSH0 PUSH20 0xFFFFFFFFFFFFFFFFFFFFFFFFFFFFFFFFFFFFFFFF AND DUP3 PUSH20 0xFFFFFFFFFFFFFFFFFFFFFFFFFFFFFFFFFFFFFFFF AND SUB PUSH2 0x6D2 JUMPI PUSH1 0x40 MLOAD PUSH32 0x8C379A000000000000000000000000000000000000000000000000000000000 DUP2 MSTORE PUSH1 0x4 ADD PUSH2 0x6C9 SWAP1 PUSH2 0xEBB JUMP JUMPDEST PUSH1 0x40 MLOAD DUP1 SWAP2 SUB SWAP1 REVERT JUMPDEST PUSH0 DUP2 SUB PUSH2 0x714 JUMPI PUSH1 0x40 MLOAD PUSH32 0x8C379A000000000000000000000000000000000000000000000000000000000 DUP2 MSTORE PUSH1 0x4 ADD PUSH2 0x70B SWAP1 PUSH2 0xF23 JUMP JUMPDEST PUSH1 0x40 MLOAD DUP1 SWAP2 SUB SWAP1 REVERT JUMPDEST POP POP JUMP JUMPDEST PUSH2 0x764 DUP3 DUP3 PUSH1 0x1 PUSH0 SWAP1 SLOAD SWAP1 PUSH2 0x100 EXP SWAP1 DIV PUSH20 0xFFFFFFFFFFFFFFFFFFFFFFFFFFFFFFFFFFFFFFFF AND PUSH20 0xFFFFFFFFFFFFFFFFFFFFFFFFFFFFFFFFFFFFFFFF AND PUSH2 0x768 SWAP1 SWAP3 SWAP2 SWAP1 PUSH4 0xFFFFFFFF AND JUMP JUMPDEST POP POP JUMP JUMPDEST PUSH2 0x7E9 DUP4 PUSH4 0xA9059CBB PUSH1 0xE0 SHL DUP5 DUP5 PUSH1 0x40 MLOAD PUSH1 0x24 ADD PUSH2 0x787 SWAP3 SWAP2 SWAP1 PUSH2 0xF50 JUMP JUMPDEST PUSH1 0x40 MLOAD PUSH1 0x20 DUP2 DUP4 SUB SUB DUP2 MSTORE SWAP1 PUSH1 0x40 MSTORE SWAP1 PUSH28 0xFFFFFFFFFFFFFFFFFFFFFFFFFFFFFFFFFFFFFFFFFFFFFFFFFFFFFFFF NOT AND PUSH1 0x20 DUP3 ADD DUP1 MLOAD PUSH28 0xFFFFFFFFFFFFFFFFFFFFFFFFFFFFFFFFFFFFFFFFFFFFFFFFFFFFFFFF DUP4 DUP2 DUP4 AND OR DUP4 MSTORE POP POP POP POP PUSH2 0x7EE JUMP JUMPDEST POP POP POP JUMP JUMPDEST PUSH0 PUSH2 0x84F DUP3 PUSH1 0x40 MLOAD DUP1 PUSH1 0x40 ADD PUSH1 0x40 MSTORE DUP1 PUSH1 0x20 DUP2 MSTORE PUSH1 0x20 ADD PUSH32 0x5361666545524332303A206C6F772D6C6576656C2063616C6C206661696C6564 DUP2 MSTORE POP DUP6 PUSH20 0xFFFFFFFFFFFFFFFFFFFFFFFFFFFFFFFFFFFFFFFF AND PUSH2 0x8B4 SWAP1 SWAP3 SWAP2 SWAP1 PUSH4 0xFFFFFFFF AND JUMP JUMPDEST SWAP1 POP PUSH0 DUP2 MLOAD EQ DUP1 PUSH2 0x870 JUMPI POP DUP1 DUP1 PUSH1 0x20 ADD SWAP1 MLOAD DUP2 ADD SWAP1 PUSH2 0x86F SWAP2 SWAP1 PUSH2 0xFA1 JUMP JUMPDEST JUMPDEST PUSH2 0x8AF JUMPI PUSH1 0x40 MLOAD PUSH32 0x8C379A000000000000000000000000000000000000000000000000000000000 DUP2 MSTORE PUSH1 0x4 ADD PUSH2 0x8A6 SWAP1 PUSH2 0x103C JUMP JUMPDEST PUSH1 0x40 MLOAD DUP1 SWAP2 SUB SWAP1 REVERT JUMPDEST POP POP POP JUMP JUMPDEST PUSH1 0x60 PUSH2 0x8C2 DUP5 DUP5 PUSH0 DUP6 PUSH2 0x8CB JUMP JUMPDEST SWAP1 POP SWAP4 SWAP3 POP POP POP JUMP JUMPDEST PUSH1 0x60 DUP3 SELFBALANCE LT ISZERO PUSH2 0x910 JUMPI PUSH1 0x40 MLOAD PUSH32 0x8C379A000000000000000000000000000000000000000000000000000000000 DUP2 MSTORE PUSH1 0x4 ADD PUSH2 0x907 SWAP1 PUSH2 0x10CA JUMP JUMPDEST PUSH1 0x40 MLOAD DUP1 SWAP2 SUB SWAP1 REVERT JUMPDEST PUSH0 DUP1 DUP7 PUSH20 0xFFFFFFFFFFFFFFFFFFFFFFFFFFFFFFFFFFFFFFFF AND DUP6 DUP8 PUSH1 0x40 MLOAD PUSH2 0x938 SWAP2 SWAP1 PUSH2 0x1154 JUMP JUMPDEST PUSH0 PUSH1 0x40 MLOAD DUP1 DUP4 SUB DUP2 DUP6 DUP8 GAS CALL SWAP3 POP POP POP RETURNDATASIZE DUP1 PUSH0 DUP2 EQ PUSH2 0x972 JUMPI PUSH1 0x40 MLOAD SWAP2 POP PUSH1 0x1F NOT PUSH1 0x3F RETURNDATASIZE ADD AND DUP3 ADD PUSH1 0x40 MSTORE RETURNDATASIZE DUP3 MSTORE RETURNDATASIZE PUSH0 PUSH1 0x20 DUP5 ADD RETURNDATACOPY PUSH2 0x977 JUMP JUMPDEST PUSH1 0x60 SWAP2 POP JUMPDEST POP SWAP2 POP SWAP2 POP PUSH2 0x988 DUP8 DUP4 DUP4 DUP8 PUSH2 0x994 JUMP JUMPDEST SWAP3 POP POP POP SWAP5 SWAP4 POP POP POP POP JUMP JUMPDEST PUSH1 0x60 DUP4 ISZERO PUSH2 0x9F5 JUMPI PUSH0 DUP4 MLOAD SUB PUSH2 0x9ED JUMPI PUSH2 0x9AD DUP6 PUSH2 0xA08 JUMP JUMPDEST PUSH2 0x9EC JUMPI PUSH1 0x40 MLOAD PUSH32 0x8C379A000000000000000000000000000000000000000000000000000000000 DUP2 MSTORE PUSH1 0x4 ADD PUSH2 0x9E3 SWAP1 PUSH2 0x11B4 JUMP JUMPDEST PUSH1 0x40 MLOAD DUP1 SWAP2 SUB SWAP1 REVERT JUMPDEST JUMPDEST DUP3 SWAP1 POP PUSH2 0xA00 JUMP JUMPDEST PUSH2 0x9FF DUP4 DUP4 PUSH2 0xA2A JUMP JUMPDEST JUMPDEST SWAP5 SWAP4 POP POP POP POP JUMP JUMPDEST PUSH0 DUP1 DUP3 PUSH20 0xFFFFFFFFFFFFFFFFFFFFFFFFFFFFFFFFFFFFFFFF AND EXTCODESIZE GT SWAP1 POP SWAP2 SWAP1 POP JUMP JUMPDEST PUSH0 DUP3 MLOAD GT ISZERO PUSH2 0xA3C JUMPI DUP2 MLOAD DUP1 DUP4 PUSH1 0x20 ADD REVERT JUMPDEST DUP1 PUSH1 0x40 MLOAD PUSH32 0x8C379A000000000000000000000000000000000000000000000000000000000 DUP2 MSTORE PUSH1 0x4 ADD PUSH2 0xA70 SWAP2 SWAP1 PUSH2 0x1224 JUMP JUMPDEST PUSH1 0x40 MLOAD DUP1 SWAP2 SUB SWAP1 REVERT JUMPDEST PUSH0 DUP2 ISZERO ISZERO SWAP1 POP SWAP2 SWAP1 POP JUMP JUMPDEST PUSH2 0xA8D DUP2 PUSH2 0xA79 JUMP JUMPDEST DUP3 MSTORE POP POP JUMP JUMPDEST PUSH0 PUSH1 0x20 DUP3 ADD SWAP1 POP PUSH2 0xAA6 PUSH0 DUP4 ADD DUP5 PUSH2 0xA84 JUMP JUMPDEST SWAP3 SWAP2 POP POP JUMP JUMPDEST PUSH0 DUP2 SWAP1 POP SWAP2 SWAP1 POP JUMP JUMPDEST PUSH2 0xABE DUP2 PUSH2 0xAAC JUMP JUMPDEST DUP3 MSTORE POP POP JUMP JUMPDEST PUSH0 PUSH1 0x20 DUP3 ADD SWAP1 POP PUSH2 0xAD7 PUSH0 DUP4 ADD DUP5 PUSH2 0xAB5 JUMP JUMPDEST SWAP3 SWAP2 POP POP JUMP JUMPDEST PUSH0 PUSH20 0xFFFFFFFFFFFFFFFFFFFFFFFFFFFFFFFFFFFFFFFF DUP3 AND SWAP1 POP SWAP2 SWAP1 POP JUMP JUMPDEST PUSH0 PUSH2 0xB06 DUP3 PUSH2 0xADD JUMP JUMPDEST SWAP1 POP SWAP2 SWAP1 POP JUMP JUMPDEST PUSH2 0xB16 DUP2 PUSH2 0xAFC JUMP JUMPDEST DUP3 MSTORE POP POP JUMP JUMPDEST PUSH0 PUSH1 0x20 DUP3 ADD SWAP1 POP PUSH2 0xB2F PUSH0 DUP4 ADD DUP5 PUSH2 0xB0D JUMP JUMPDEST SWAP3 SWAP2 POP POP JUMP JUMPDEST PUSH0 DUP1 REVERT JUMPDEST PUSH0 PUSH2 0xB43 DUP3 PUSH2 0xADD JUMP JUMPDEST SWAP1 POP SWAP2 SWAP1 POP JUMP JUMPDEST PUSH2 0xB53 DUP2 PUSH2 0xB39 JUMP JUMPDEST DUP2 EQ PUSH2 0xB5D JUMPI PUSH0 DUP1 REVERT JUMPDEST POP JUMP JUMPDEST PUSH0 DUP2 CALLDATALOAD SWAP1 POP PUSH2 0xB6E DUP2 PUSH2 0xB4A JUMP JUMPDEST SWAP3 SWAP2 POP POP JUMP JUMPDEST PUSH0 PUSH1 0x20 DUP3 DUP5 SUB SLT ISZERO PUSH2 0xB89 JUMPI PUSH2 0xB88 PUSH2 0xB35 JUMP JUMPDEST JUMPDEST PUSH0 PUSH2 0xB96 DUP5 DUP3 DUP6 ADD PUSH2 0xB60 JUMP JUMPDEST SWAP2 POP POP SWAP3 SWAP2 POP POP JUMP JUMPDEST PUSH0 DUP2 SWAP1 POP SWAP2 SWAP1 POP JUMP JUMPDEST PUSH0 PUSH2 0xBC2 PUSH2 0xBBD PUSH2 0xBB8 DUP5 PUSH2 0xADD JUMP JUMPDEST PUSH2 0xB9F JUMP JUMPDEST PUSH2 0xADD JUMP JUMPDEST SWAP1 POP SWAP2 SWAP1 POP JUMP JUMPDEST PUSH0 PUSH2 0xBD3 DUP3 PUSH2 0xBA8 JUMP JUMPDEST SWAP1 POP SWAP2 SWAP1 POP JUMP JUMPDEST PUSH0 PUSH2 0xBE4 DUP3 PUSH2 0xBC9 JUMP JUMPDEST SWAP1 POP SWAP2 SWAP1 POP JUMP JUMPDEST PUSH2 0xBF4 DUP2 PUSH2 0xBDA JUMP JUMPDEST DUP3 MSTORE POP POP JUMP JUMPDEST PUSH0 PUSH1 0x20 DUP3 ADD SWAP1 POP PUSH2 0xC0D PUSH0 DUP4 ADD DUP5 PUSH2 0xBEB JUMP JUMPDEST SWAP3 SWAP2 POP POP JUMP JUMPDEST PUSH0 PUSH1 0x40 DUP3 ADD SWAP1 POP PUSH2 0xC26 PUSH0 DUP4 ADD DUP6 PUSH2 0xAB5 JUMP JUMPDEST PUSH2 0xC33 PUSH1 0x20 DUP4 ADD DUP5 PUSH2 0xAB5 JUMP JUMPDEST SWAP4 SWAP3 POP POP POP JUMP JUMPDEST PUSH0 DUP3 DUP3 MSTORE PUSH1 0x20 DUP3 ADD SWAP1 POP SWAP3 SWAP2 POP POP JUMP JUMPDEST PUSH32 0x5265656E7472616E637947756172643A207265656E7472616E742063616C6C00 PUSH0 DUP3 ADD MSTORE POP JUMP JUMPDEST PUSH0 PUSH2 0xC7E PUSH1 0x1F DUP4 PUSH2 0xC3A JUMP JUMPDEST SWAP2 POP PUSH2 0xC89 DUP3 PUSH2 0xC4A JUMP JUMPDEST PUSH1 0x20 DUP3 ADD SWAP1 POP SWAP2 SWAP1 POP JUMP JUMPDEST PUSH0 PUSH1 0x20 DUP3 ADD SWAP1 POP DUP2 DUP2 SUB PUSH0 DUP4 ADD MSTORE PUSH2 0xCAB DUP2 PUSH2 0xC72 JUMP JUMPDEST SWAP1 POP SWAP2 SWAP1 POP JUMP JUMPDEST PUSH32 0x54696D656443726F776473616C653A206E6F74206F70656E0000000000000000 PUSH0 DUP3 ADD MSTORE POP JUMP JUMPDEST PUSH0 PUSH2 0xCE6 PUSH1 0x18 DUP4 PUSH2 0xC3A JUMP JUMPDEST SWAP2 POP PUSH2 0xCF1 DUP3 PUSH2 0xCB2 JUMP JUMPDEST PUSH1 0x20 DUP3 ADD SWAP1 POP SWAP2 SWAP1 POP JUMP JUMPDEST PUSH0 PUSH1 0x20 DUP3 ADD SWAP1 POP DUP2 DUP2 SUB PUSH0 DUP4 ADD MSTORE PUSH2 0xD13 DUP2 PUSH2 0xCDA JUMP JUMPDEST SWAP1 POP SWAP2 SWAP1 POP JUMP JUMPDEST PUSH32 0x4E487B7100000000000000000000000000000000000000000000000000000000 PUSH0 MSTORE PUSH1 0x11 PUSH1 0x4 MSTORE PUSH1 0x24 PUSH0 REVERT JUMPDEST PUSH0 PUSH2 0xD51 DUP3 PUSH2 0xAAC JUMP JUMPDEST SWAP2 POP PUSH2 0xD5C DUP4 PUSH2 0xAAC JUMP JUMPDEST SWAP3 POP DUP3 DUP3 ADD SWAP1 POP DUP1 DUP3 GT ISZERO PUSH2 0xD74 JUMPI PUSH2 0xD73 PUSH2 0xD1A JUMP JUMPDEST JUMPDEST SWAP3 SWAP2 POP POP JUMP JUMPDEST PUSH0 PUSH2 0xD84 DUP3 PUSH2 0xAAC JUMP JUMPDEST SWAP2 POP PUSH2 0xD8F DUP4 PUSH2 0xAAC JUMP JUMPDEST SWAP3 POP DUP3 DUP3 SUB SWAP1 POP DUP2 DUP2 GT ISZERO PUSH2 0xDA7 JUMPI PUSH2 0xDA6 PUSH2 0xD1A JUMP JUMPDEST JUMPDEST SWAP3 SWAP2 POP POP JUMP JUMPDEST PUSH0 PUSH2 0xDB7 DUP3 PUSH2 0xAAC JUMP JUMPDEST SWAP2 POP PUSH2 0xDC2 DUP4 PUSH2 0xAAC JUMP JUMPDEST SWAP3 POP DUP3 DUP3 MUL PUSH2 0xDD0 DUP2 PUSH2 0xAAC JUMP JUMPDEST SWAP2 POP DUP3 DUP3 DIV DUP5 EQ DUP4 ISZERO OR PUSH2 0xDE7 JUMPI PUSH2 0xDE6 PUSH2 0xD1A JUMP JUMPDEST JUMPDEST POP SWAP3 SWAP2 POP POP JUMP JUMPDEST PUSH32 0x4E487B7100000000000000000000000000000000000000000000000000000000 PUSH0 MSTORE PUSH1 0x12 PUSH1 0x4 MSTORE PUSH1 0x24 PUSH0 REVERT JUMPDEST PUSH0 PUSH2 0xE25 DUP3 PUSH2 0xAAC JUMP JUMPDEST SWAP2 POP PUSH2 0xE30 DUP4 PUSH2 0xAAC JUMP JUMPDEST SWAP3 POP DUP3 PUSH2 0xE40 JUMPI PUSH2 0xE3F PUSH2 0xDEE JUMP JUMPDEST JUMPDEST DUP3 DUP3 DIV SWAP1 POP SWAP3 SWAP2 POP POP JUMP JUMPDEST PUSH32 0x43726F776473616C653A2062656E656669636961727920697320746865207A65 PUSH0 DUP3 ADD MSTORE PUSH32 0x726F206164647265737300000000000000000000000000000000000000000000 PUSH1 0x20 DUP3 ADD MSTORE POP JUMP JUMPDEST PUSH0 PUSH2 0xEA5 PUSH1 0x2A DUP4 PUSH2 0xC3A JUMP JUMPDEST SWAP2 POP PUSH2 0xEB0 DUP3 PUSH2 0xE4B JUMP JUMPDEST PUSH1 0x40 DUP3 ADD SWAP1 POP SWAP2 SWAP1 POP JUMP JUMPDEST PUSH0 PUSH1 0x20 DUP3 ADD SWAP1 POP DUP2 DUP2 SUB PUSH0 DUP4 ADD MSTORE PUSH2 0xED2 DUP2 PUSH2 0xE99 JUMP JUMPDEST SWAP1 POP SWAP2 SWAP1 POP JUMP JUMPDEST PUSH32 0x43726F776473616C653A20776569416D6F756E74206973203000000000000000 PUSH0 DUP3 ADD MSTORE POP JUMP JUMPDEST PUSH0 PUSH2 0xF0D PUSH1 0x19 DUP4 PUSH2 0xC3A JUMP JUMPDEST SWAP2 POP PUSH2 0xF18 DUP3 PUSH2 0xED9 JUMP JUMPDEST PUSH1 0x20 DUP3 ADD SWAP1 POP SWAP2 SWAP1 POP JUMP JUMPDEST PUSH0 PUSH1 0x20 DUP3 ADD SWAP1 POP DUP2 DUP2 SUB PUSH0 DUP4 ADD MSTORE PUSH2 0xF3A DUP2 PUSH2 0xF01 JUMP JUMPDEST SWAP1 POP SWAP2 SWAP1 POP JUMP JUMPDEST PUSH2 0xF4A DUP2 PUSH2 0xB39 JUMP JUMPDEST DUP3 MSTORE POP POP JUMP JUMPDEST PUSH0 PUSH1 0x40 DUP3 ADD SWAP1 POP PUSH2 0xF63 PUSH0 DUP4 ADD DUP6 PUSH2 0xF41 JUMP JUMPDEST PUSH2 0xF70 PUSH1 0x20 DUP4 ADD DUP5 PUSH2 0xAB5 JUMP JUMPDEST SWAP4 SWAP3 POP POP POP JUMP JUMPDEST PUSH2 0xF80 DUP2 PUSH2 0xA79 JUMP JUMPDEST DUP2 EQ PUSH2 0xF8A JUMPI PUSH0 DUP1 REVERT JUMPDEST POP JUMP JUMPDEST PUSH0 DUP2 MLOAD SWAP1 POP PUSH2 0xF9B DUP2 PUSH2 0xF77 JUMP JUMPDEST SWAP3 SWAP2 POP POP JUMP JUMPDEST PUSH0 PUSH1 0x20 DUP3 DUP5 SUB SLT ISZERO PUSH2 0xFB6 JUMPI PUSH2 0xFB5 PUSH2 0xB35 JUMP JUMPDEST JUMPDEST PUSH0 PUSH2 0xFC3 DUP5 DUP3 DUP6 ADD PUSH2 0xF8D JUMP JUMPDEST SWAP2 POP POP SWAP3 SWAP2 POP POP JUMP JUMPDEST PUSH32 0x5361666545524332303A204552433230206F7065726174696F6E20646964206E PUSH0 DUP3 ADD MSTORE PUSH32 0x6F74207375636365656400000000000000000000000000000000000000000000 PUSH1 0x20 DUP3 ADD MSTORE POP JUMP JUMPDEST PUSH0 PUSH2 0x1026 PUSH1 0x2A DUP4 PUSH2 0xC3A JUMP JUMPDEST SWAP2 POP PUSH2 0x1031 DUP3 PUSH2 0xFCC JUMP JUMPDEST PUSH1 0x40 DUP3 ADD SWAP1 POP SWAP2 SWAP1 POP JUMP JUMPDEST PUSH0 PUSH1 0x20 DUP3 ADD SWAP1 POP DUP2 DUP2 SUB PUSH0 DUP4 ADD MSTORE PUSH2 0x1053 DUP2 PUSH2 0x101A JUMP JUMPDEST SWAP1 POP SWAP2 SWAP1 POP JUMP JUMPDEST PUSH32 0x416464726573733A20696E73756666696369656E742062616C616E636520666F PUSH0 DUP3 ADD MSTORE PUSH32 0x722063616C6C0000000000000000000000000000000000000000000000000000 PUSH1 0x20 DUP3 ADD MSTORE POP JUMP JUMPDEST PUSH0 PUSH2 0x10B4 PUSH1 0x26 DUP4 PUSH2 0xC3A JUMP JUMPDEST SWAP2 POP PUSH2 0x10BF DUP3 PUSH2 0x105A JUMP JUMPDEST PUSH1 0x40 DUP3 ADD SWAP1 POP SWAP2 SWAP1 POP JUMP JUMPDEST PUSH0 PUSH1 0x20 DUP3 ADD SWAP1 POP DUP2 DUP2 SUB PUSH0 DUP4 ADD MSTORE PUSH2 0x10E1 DUP2 PUSH2 0x10A8 JUMP JUMPDEST SWAP1 POP SWAP2 SWAP1 POP JUMP JUMPDEST PUSH0 DUP2 MLOAD SWAP1 POP SWAP2 SWAP1 POP JUMP JUMPDEST PUSH0 DUP2 SWAP1 POP SWAP3 SWAP2 POP POP JUMP JUMPDEST PUSH0 JUMPDEST DUP4 DUP2 LT ISZERO PUSH2 0x1119 JUMPI DUP1 DUP3 ADD MLOAD DUP2 DUP5 ADD MSTORE PUSH1 0x20 DUP2 ADD SWAP1 POP PUSH2 0x10FE JUMP JUMPDEST PUSH0 DUP5 DUP5 ADD MSTORE POP POP POP POP JUMP JUMPDEST PUSH0 PUSH2 0x112E DUP3 PUSH2 0x10E8 JUMP JUMPDEST PUSH2 0x1138 DUP2 DUP6 PUSH2 0x10F2 JUMP JUMPDEST SWAP4 POP PUSH2 0x1148 DUP2 DUP6 PUSH1 0x20 DUP7 ADD PUSH2 0x10FC JUMP JUMPDEST DUP1 DUP5 ADD SWAP2 POP POP SWAP3 SWAP2 POP POP JUMP JUMPDEST PUSH0 PUSH2 0x115F DUP3 DUP5 PUSH2 0x1124 JUMP JUMPDEST SWAP2 POP DUP2 SWAP1 POP SWAP3 SWAP2 POP POP JUMP JUMPDEST PUSH32 0x416464726573733A2063616C6C20746F206E6F6E2D636F6E7472616374000000 PUSH0 DUP3 ADD MSTORE POP JUMP JUMPDEST PUSH0 PUSH2 0x119E PUSH1 0x1D DUP4 PUSH2 0xC3A JUMP JUMPDEST SWAP2 POP PUSH2 0x11A9 DUP3 PUSH2 0x116A JUMP JUMPDEST PUSH1 0x20 DUP3 ADD SWAP1 POP SWAP2 SWAP1 POP JUMP JUMPDEST PUSH0 PUSH1 0x20 DUP3 ADD SWAP1 POP DUP2 DUP2 SUB PUSH0 DUP4 ADD MSTORE PUSH2 0x11CB DUP2 PUSH2 0x1192 JUMP JUMPDEST SWAP1 POP SWAP2 SWAP1 POP JUMP JUMPDEST PUSH0 DUP2 MLOAD SWAP1 POP SWAP2 SWAP1 POP JUMP JUMPDEST PUSH0 PUSH1 0x1F NOT PUSH1 0x1F DUP4 ADD AND SWAP1 POP SWAP2 SWAP1 POP JUMP JUMPDEST PUSH0 PUSH2 0x11F6 DUP3 PUSH2 0x11D2 JUMP JUMPDEST PUSH2 0x1200 DUP2 DUP6 PUSH2 0xC3A JUMP JUMPDEST SWAP4 POP PUSH2 0x1210 DUP2 DUP6 PUSH1 0x20 DUP7 ADD PUSH2 0x10FC JUMP JUMPDEST PUSH2 0x1219 DUP2 PUSH2 0x11DC JUMP JUMPDEST DUP5 ADD SWAP2 POP POP SWAP3 SWAP2 POP POP JUMP JUMPDEST PUSH0 PUSH1 0x20 DUP3 ADD SWAP1 POP DUP2 DUP2 SUB PUSH0 DUP4 ADD MSTORE PUSH2 0x123C DUP2 DUP5 PUSH2 0x11EC JUMP JUMPDEST SWAP1 POP SWAP3 SWAP2 POP POP JUMP INVALID LOG2 PUSH5 0x6970667358 0x22 SLT KECCAK256 0xE8 PUSH9 0x28AFDA2BAF7D38B7BB 0x4C CREATE2 0xAF GAS DUP8 ISZERO PUSH25 0xDF49E5AE2A1FBF5E21917B6C3CAE64736F6C63430008150033 "
				},
				"gasEstimates": {
					"creation": {
						"codeDepositCost": "946000",
						"executionCost": "infinite",
						"totalCost": "infinite"
					},
					"external": {
						"": "infinite",
						"buyTokens(address)": "infinite",
						"closingTime()": "2432",
						"finalRate()": "2455",
						"hasClosed()": "2444",
						"initialRate()": "2476",
						"isOpen()": "4668",
						"openingTime()": "2498",
						"rate()": "infinite",
						"token()": "infinite",
						"wallet()": "2537",
						"weiRaised()": "2499"
					},
					"internal": {
						"_getTokenAmount(uint256)": "infinite"
					}
				},
				"methodIdentifiers": {
					"buyTokens(address)": "ec8ac4d8",
					"closingTime()": "4b6753bc",
					"finalRate()": "21106109",
					"hasClosed()": "1515bc2b",
					"initialRate()": "9e51051f",
					"isOpen()": "47535d7b",
					"openingTime()": "b7a8807c",
					"rate()": "2c4e722e",
					"token()": "fc0c546a",
					"wallet()": "521eb273",
					"weiRaised()": "4042b66f"
				}
			},
			"storageLayout": {
				"storage": [
					{
						"astId": 118,
						"contract": "crowdsale/price/increasingPriceCrowdsale.sol:IncreasingPriceCrowdsale",
						"label": "_status",
						"offset": 0,
						"slot": "0",
						"type": "t_uint256"
					},
					{
						"astId": 1348,
						"contract": "crowdsale/price/increasingPriceCrowdsale.sol:IncreasingPriceCrowdsale",
						"label": "_token",
						"offset": 0,
						"slot": "1",
						"type": "t_contract(IERC20)250"
					},
					{
						"astId": 1350,
						"contract": "crowdsale/price/increasingPriceCrowdsale.sol:IncreasingPriceCrowdsale",
						"label": "_wallet",
						"offset": 0,
						"slot": "2",
						"type": "t_address_payable"
					},
					{
						"astId": 1352,
						"contract": "crowdsale/price/increasingPriceCrowdsale.sol:IncreasingPriceCrowdsale",
						"label": "_rate",
						"offset": 0,
						"slot": "3",
						"type": "t_uint256"
					},
					{
						"astId": 1354,
						"contract": "crowdsale/price/increasingPriceCrowdsale.sol:IncreasingPriceCrowdsale",
						"label": "_weiRaised",
						"offset": 0,
						"slot": "4",
						"type": "t_uint256"
					},
					{
						"astId": 1800,
						"contract": "crowdsale/price/increasingPriceCrowdsale.sol:IncreasingPriceCrowdsale",
						"label": "_openingTime",
						"offset": 0,
						"slot": "5",
						"type": "t_uint256"
					},
					{
						"astId": 1802,
						"contract": "crowdsale/price/increasingPriceCrowdsale.sol:IncreasingPriceCrowdsale",
						"label": "_closingTime",
						"offset": 0,
						"slot": "6",
						"type": "t_uint256"
					},
					{
						"astId": 1648,
						"contract": "crowdsale/price/increasingPriceCrowdsale.sol:IncreasingPriceCrowdsale",
						"label": "_initialRate",
						"offset": 0,
						"slot": "7",
						"type": "t_uint256"
					},
					{
						"astId": 1650,
						"contract": "crowdsale/price/increasingPriceCrowdsale.sol:IncreasingPriceCrowdsale",
						"label": "_finalRate",
						"offset": 0,
						"slot": "8",
						"type": "t_uint256"
					}
				],
				"types": {
					"t_address_payable": {
						"encoding": "inplace",
						"label": "address payable",
						"numberOfBytes": "20"
					},
					"t_contract(IERC20)250": {
						"encoding": "inplace",
						"label": "contract IERC20",
						"numberOfBytes": "20"
					},
					"t_uint256": {
						"encoding": "inplace",
						"label": "uint256",
						"numberOfBytes": "32"
					}
				}
			},
			"userdoc": {
				"events": {
					"TimedCrowdsaleExtended(uint256,uint256)": {
						"notice": "Event for crowdsale extending"
					},
					"TokensPurchased(address,address,uint256,uint256)": {
						"notice": "Event for token purchase logging"
					}
				},
				"kind": "user",
				"methods": {},
				"version": 1
			}
		}
	}
}