{
	"crowdsale/emission/allowanceCrowdsale.sol": {
		"AllowanceCrowdsale": {
			"abi": [
				{
					"inputs": [
						{
							"internalType": "address",
							"name": "inTokenWallet",
							"type": "address"
						},
						{
							"internalType": "uint256",
							"name": "inRate",
							"type": "uint256"
						},
						{
							"internalType": "address payable",
							"name": "inWallet",
							"type": "address"
						},
						{
							"internalType": "contract IERC20",
							"name": "inToken",
							"type": "address"
						}
					],
					"stateMutability": "nonpayable",
					"type": "constructor"
				},
				{
					"anonymous": false,
					"inputs": [
						{
							"indexed": true,
							"internalType": "address",
							"name": "purchaser",
							"type": "address"
						},
						{
							"indexed": true,
							"internalType": "address",
							"name": "beneficiary",
							"type": "address"
						},
						{
							"indexed": false,
							"internalType": "uint256",
							"name": "value",
							"type": "uint256"
						},
						{
							"indexed": false,
							"internalType": "uint256",
							"name": "amount",
							"type": "uint256"
						}
					],
					"name": "TokensPurchased",
					"type": "event"
				},
				{
					"stateMutability": "payable",
					"type": "fallback"
				},
				{
					"inputs": [
						{
							"internalType": "address",
							"name": "beneficiary",
							"type": "address"
						}
					],
					"name": "buyTokens",
					"outputs": [],
					"stateMutability": "payable",
					"type": "function"
				},
				{
					"inputs": [],
					"name": "rate",
					"outputs": [
						{
							"internalType": "uint256",
							"name": "",
							"type": "uint256"
						}
					],
					"stateMutability": "view",
					"type": "function"
				},
				{
					"inputs": [],
					"name": "remainingTokens",
					"outputs": [
						{
							"internalType": "uint256",
							"name": "",
							"type": "uint256"
						}
					],
					"stateMutability": "view",
					"type": "function"
				},
				{
					"inputs": [],
					"name": "token",
					"outputs": [
						{
							"internalType": "contract IERC20",
							"name": "",
							"type": "address"
						}
					],
					"stateMutability": "view",
					"type": "function"
				},
				{
					"inputs": [],
					"name": "tokenWallet",
					"outputs": [
						{
							"internalType": "address",
							"name": "",
							"type": "address"
						}
					],
					"stateMutability": "view",
					"type": "function"
				},
				{
					"inputs": [],
					"name": "wallet",
					"outputs": [
						{
							"internalType": "address payable",
							"name": "",
							"type": "address"
						}
					],
					"stateMutability": "view",
					"type": "function"
				},
				{
					"inputs": [],
					"name": "weiRaised",
					"outputs": [
						{
							"internalType": "uint256",
							"name": "",
							"type": "uint256"
						}
					],
					"stateMutability": "view",
					"type": "function"
				},
				{
					"stateMutability": "payable",
					"type": "receive"
				}
			],
			"devdoc": {
				"details": "Extension of Crowdsale where tokens are held by a wallet, which approves an allowance to the crowdsale.",
				"events": {
					"TokensPurchased(address,address,uint256,uint256)": {
						"params": {
							"amount": "amount of tokens purchased",
							"beneficiary": "who got the tokens",
							"purchaser": "who paid for the tokens",
							"value": "weis paid for purchase"
						}
					}
				},
				"kind": "dev",
				"methods": {
					"buyTokens(address)": {
						"details": "low level token purchase ***DO NOT OVERRIDE*** This function has a non-reentrancy guard, so it shouldn't be called by another `nonReentrant` function.",
						"params": {
							"beneficiary": "Recipient of the token purchase"
						}
					},
					"constructor": {
						"details": "Constructor, takes token wallet address.",
						"params": {
							"inRate": "rate.",
							"inToken": "crowdsale token.",
							"inTokenWallet": "Address holding the tokens, which has approved allowance to the crowdsale.",
							"inWallet": "crowdsale wallet."
						}
					},
					"rate()": {
						"returns": {
							"_0": "the number of token units a buyer gets per wei."
						}
					},
					"remainingTokens()": {
						"details": "Checks the amount of tokens left in the allowance.",
						"returns": {
							"_0": "Amount of tokens left in the allowance"
						}
					},
					"token()": {
						"returns": {
							"_0": "the token being sold."
						}
					},
					"tokenWallet()": {
						"returns": {
							"_0": "the address of the wallet that will hold the tokens."
						}
					},
					"wallet()": {
						"returns": {
							"_0": "the address where funds are collected."
						}
					},
					"weiRaised()": {
						"returns": {
							"_0": "the amount of wei raised."
						}
					}
				},
				"title": "AllowanceCrowdsale",
				"version": 1
			},
			"evm": {
				"assembly": "    /* \"crowdsale/emission/allowanceCrowdsale.sol\":487:2112  contract AllowanceCrowdsale is Crowdsale {... */\n  mstore(0x40, 0x80)\n    /* \"crowdsale/emission/allowanceCrowdsale.sol\":926:1240  constructor (address inTokenWallet,... */\n  callvalue\n  dup1\n  iszero\n  tag_1\n  jumpi\n  0x00\n  dup1\n  revert\ntag_1:\n  pop\n  mload(0x40)\n  sub(codesize, bytecodeSize)\n  dup1\n  bytecodeSize\n  dup4\n  codecopy\n  dup2\n  dup2\n  add\n  0x40\n  mstore\n  dup2\n  add\n  swap1\n  tag_2\n  swap2\n  swap1\n  tag_3\n  jump\t// in\ntag_2:\n    /* \"crowdsale/emission/allowanceCrowdsale.sol\":1063:1069  inRate */\n  dup3\n    /* \"crowdsale/emission/allowanceCrowdsale.sol\":1071:1079  inWallet */\n  dup3\n    /* \"crowdsale/emission/allowanceCrowdsale.sol\":1081:1088  inToken */\n  dup3\n    /* \"@openzeppelin/contracts/security/ReentrancyGuard.sol\":1716:1717  1 */\n  0x01\n    /* \"@openzeppelin/contracts/security/ReentrancyGuard.sol\":1821:1828  _status */\n  0x00\n    /* \"@openzeppelin/contracts/security/ReentrancyGuard.sol\":1821:1843  _status = _NOT_ENTERED */\n  dup2\n  swap1\n  sstore\n  pop\n    /* \"crowdsale/crowdsale.sol\":2644:2645  0 */\n  0x00\n    /* \"crowdsale/crowdsale.sol\":2635:2641  inRate */\n  dup4\n    /* \"crowdsale/crowdsale.sol\":2635:2645  inRate > 0 */\n  gt\n    /* \"crowdsale/crowdsale.sol\":2627:2670  require(inRate > 0, \"Crowdsale: rate is 0\") */\n  tag_9\n  jumpi\n  mload(0x40)\n  0x08c379a000000000000000000000000000000000000000000000000000000000\n  dup2\n  mstore\n  0x04\n  add\n  tag_10\n  swap1\n  tag_11\n  jump\t// in\ntag_10:\n  mload(0x40)\n  dup1\n  swap2\n  sub\n  swap1\n  revert\ntag_9:\n    /* \"crowdsale/crowdsale.sol\":2709:2710  0 */\n  0x00\n    /* \"crowdsale/crowdsale.sol\":2689:2711  inWallet != address(0) */\n  0xffffffffffffffffffffffffffffffffffffffff\n  and\n    /* \"crowdsale/crowdsale.sol\":2689:2697  inWallet */\n  dup3\n    /* \"crowdsale/crowdsale.sol\":2689:2711  inWallet != address(0) */\n  0xffffffffffffffffffffffffffffffffffffffff\n  and\n  sub\n    /* \"crowdsale/crowdsale.sol\":2681:2753  require(inWallet != address(0), \"Crowdsale: wallet is the zero address\") */\n  tag_12\n  jumpi\n  mload(0x40)\n  0x08c379a000000000000000000000000000000000000000000000000000000000\n  dup2\n  mstore\n  0x04\n  add\n  tag_13\n  swap1\n  tag_14\n  jump\t// in\ntag_13:\n  mload(0x40)\n  dup1\n  swap2\n  sub\n  swap1\n  revert\ntag_12:\n    /* \"crowdsale/crowdsale.sol\":2800:2801  0 */\n  0x00\n    /* \"crowdsale/crowdsale.sol\":2772:2802  address(inToken) != address(0) */\n  0xffffffffffffffffffffffffffffffffffffffff\n  and\n    /* \"crowdsale/crowdsale.sol\":2780:2787  inToken */\n  dup2\n    /* \"crowdsale/crowdsale.sol\":2772:2802  address(inToken) != address(0) */\n  0xffffffffffffffffffffffffffffffffffffffff\n  and\n  sub\n    /* \"crowdsale/crowdsale.sol\":2764:2843  require(address(inToken) != address(0), \"Crowdsale: token is the zero address\") */\n  tag_15\n  jumpi\n  mload(0x40)\n  0x08c379a000000000000000000000000000000000000000000000000000000000\n  dup2\n  mstore\n  0x04\n  add\n  tag_16\n  swap1\n  tag_17\n  jump\t// in\ntag_16:\n  mload(0x40)\n  dup1\n  swap2\n  sub\n  swap1\n  revert\ntag_15:\n    /* \"crowdsale/crowdsale.sol\":2864:2870  inRate */\n  dup3\n    /* \"crowdsale/crowdsale.sol\":2856:2861  _rate */\n  0x03\n    /* \"crowdsale/crowdsale.sol\":2856:2870  _rate = inRate */\n  dup2\n  swap1\n  sstore\n  pop\n    /* \"crowdsale/crowdsale.sol\":2891:2899  inWallet */\n  dup2\n    /* \"crowdsale/crowdsale.sol\":2881:2888  _wallet */\n  0x02\n  0x00\n    /* \"crowdsale/crowdsale.sol\":2881:2899  _wallet = inWallet */\n  0x0100\n  exp\n  dup2\n  sload\n  dup2\n  0xffffffffffffffffffffffffffffffffffffffff\n  mul\n  not\n  and\n  swap1\n  dup4\n  0xffffffffffffffffffffffffffffffffffffffff\n  and\n  mul\n  or\n  swap1\n  sstore\n  pop\n    /* \"crowdsale/crowdsale.sol\":2919:2926  inToken */\n  dup1\n    /* \"crowdsale/crowdsale.sol\":2910:2916  _token */\n  0x01\n  0x00\n    /* \"crowdsale/crowdsale.sol\":2910:2926  _token = inToken */\n  0x0100\n  exp\n  dup2\n  sload\n  dup2\n  0xffffffffffffffffffffffffffffffffffffffff\n  mul\n  not\n  and\n  swap1\n  dup4\n  0xffffffffffffffffffffffffffffffffffffffff\n  and\n  mul\n  or\n  swap1\n  sstore\n  pop\n    /* \"crowdsale/crowdsale.sol\":2545:2934  constructor (uint256 inRate, address payable inWallet, IERC20 inToken) {... */\n  pop\n  pop\n  pop\n    /* \"crowdsale/emission/allowanceCrowdsale.sol\":1134:1135  0 */\n  0x00\n    /* \"crowdsale/emission/allowanceCrowdsale.sol\":1109:1136  inTokenWallet != address(0) */\n  0xffffffffffffffffffffffffffffffffffffffff\n  and\n    /* \"crowdsale/emission/allowanceCrowdsale.sol\":1109:1122  inTokenWallet */\n  dup5\n    /* \"crowdsale/emission/allowanceCrowdsale.sol\":1109:1136  inTokenWallet != address(0) */\n  0xffffffffffffffffffffffffffffffffffffffff\n  and\n  sub\n    /* \"crowdsale/emission/allowanceCrowdsale.sol\":1101:1193  require(inTokenWallet != address(0), \"AllowanceCrowdsale: token wallet is the zero address\") */\n  tag_19\n  jumpi\n  mload(0x40)\n  0x08c379a000000000000000000000000000000000000000000000000000000000\n  dup2\n  mstore\n  0x04\n  add\n  tag_20\n  swap1\n  tag_21\n  jump\t// in\ntag_20:\n  mload(0x40)\n  dup1\n  swap2\n  sub\n  swap1\n  revert\ntag_19:\n    /* \"crowdsale/emission/allowanceCrowdsale.sol\":1219:1232  inTokenWallet */\n  dup4\n    /* \"crowdsale/emission/allowanceCrowdsale.sol\":1204:1216  _tokenWallet */\n  0x05\n  0x00\n    /* \"crowdsale/emission/allowanceCrowdsale.sol\":1204:1232  _tokenWallet = inTokenWallet */\n  0x0100\n  exp\n  dup2\n  sload\n  dup2\n  0xffffffffffffffffffffffffffffffffffffffff\n  mul\n  not\n  and\n  swap1\n  dup4\n  0xffffffffffffffffffffffffffffffffffffffff\n  and\n  mul\n  or\n  swap1\n  sstore\n  pop\n    /* \"crowdsale/emission/allowanceCrowdsale.sol\":926:1240  constructor (address inTokenWallet,... */\n  pop\n  pop\n  pop\n  pop\n    /* \"crowdsale/emission/allowanceCrowdsale.sol\":487:2112  contract AllowanceCrowdsale is Crowdsale {... */\n  jump(tag_22)\n    /* \"#utility.yul\":88:205   */\ntag_24:\n    /* \"#utility.yul\":197:198   */\n  0x00\n    /* \"#utility.yul\":194:195   */\n  dup1\n    /* \"#utility.yul\":187:199   */\n  revert\n    /* \"#utility.yul\":334:460   */\ntag_26:\n    /* \"#utility.yul\":371:378   */\n  0x00\n    /* \"#utility.yul\":411:453   */\n  0xffffffffffffffffffffffffffffffffffffffff\n    /* \"#utility.yul\":404:409   */\n  dup3\n    /* \"#utility.yul\":400:454   */\n  and\n    /* \"#utility.yul\":389:454   */\n  swap1\n  pop\n    /* \"#utility.yul\":334:460   */\n  swap2\n  swap1\n  pop\n  jump\t// out\n    /* \"#utility.yul\":466:562   */\ntag_27:\n    /* \"#utility.yul\":503:510   */\n  0x00\n    /* \"#utility.yul\":532:556   */\n  tag_54\n    /* \"#utility.yul\":550:555   */\n  dup3\n    /* \"#utility.yul\":532:556   */\n  tag_26\n  jump\t// in\ntag_54:\n    /* \"#utility.yul\":521:556   */\n  swap1\n  pop\n    /* \"#utility.yul\":466:562   */\n  swap2\n  swap1\n  pop\n  jump\t// out\n    /* \"#utility.yul\":568:690   */\ntag_28:\n    /* \"#utility.yul\":641:665   */\n  tag_56\n    /* \"#utility.yul\":659:664   */\n  dup2\n    /* \"#utility.yul\":641:665   */\n  tag_27\n  jump\t// in\ntag_56:\n    /* \"#utility.yul\":634:639   */\n  dup2\n    /* \"#utility.yul\":631:666   */\n  eq\n    /* \"#utility.yul\":621:684   */\n  tag_57\n  jumpi\n    /* \"#utility.yul\":680:681   */\n  0x00\n    /* \"#utility.yul\":677:678   */\n  dup1\n    /* \"#utility.yul\":670:682   */\n  revert\n    /* \"#utility.yul\":621:684   */\ntag_57:\n    /* \"#utility.yul\":568:690   */\n  pop\n  jump\t// out\n    /* \"#utility.yul\":696:839   */\ntag_29:\n    /* \"#utility.yul\":753:758   */\n  0x00\n    /* \"#utility.yul\":784:790   */\n  dup2\n    /* \"#utility.yul\":778:791   */\n  mload\n    /* \"#utility.yul\":769:791   */\n  swap1\n  pop\n    /* \"#utility.yul\":800:833   */\n  tag_59\n    /* \"#utility.yul\":827:832   */\n  dup2\n    /* \"#utility.yul\":800:833   */\n  tag_28\n  jump\t// in\ntag_59:\n    /* \"#utility.yul\":696:839   */\n  swap3\n  swap2\n  pop\n  pop\n  jump\t// out\n    /* \"#utility.yul\":845:922   */\ntag_30:\n    /* \"#utility.yul\":882:889   */\n  0x00\n    /* \"#utility.yul\":911:916   */\n  dup2\n    /* \"#utility.yul\":900:916   */\n  swap1\n  pop\n    /* \"#utility.yul\":845:922   */\n  swap2\n  swap1\n  pop\n  jump\t// out\n    /* \"#utility.yul\":928:1050   */\ntag_31:\n    /* \"#utility.yul\":1001:1025   */\n  tag_62\n    /* \"#utility.yul\":1019:1024   */\n  dup2\n    /* \"#utility.yul\":1001:1025   */\n  tag_30\n  jump\t// in\ntag_62:\n    /* \"#utility.yul\":994:999   */\n  dup2\n    /* \"#utility.yul\":991:1026   */\n  eq\n    /* \"#utility.yul\":981:1044   */\n  tag_63\n  jumpi\n    /* \"#utility.yul\":1040:1041   */\n  0x00\n    /* \"#utility.yul\":1037:1038   */\n  dup1\n    /* \"#utility.yul\":1030:1042   */\n  revert\n    /* \"#utility.yul\":981:1044   */\ntag_63:\n    /* \"#utility.yul\":928:1050   */\n  pop\n  jump\t// out\n    /* \"#utility.yul\":1056:1199   */\ntag_32:\n    /* \"#utility.yul\":1113:1118   */\n  0x00\n    /* \"#utility.yul\":1144:1150   */\n  dup2\n    /* \"#utility.yul\":1138:1151   */\n  mload\n    /* \"#utility.yul\":1129:1151   */\n  swap1\n  pop\n    /* \"#utility.yul\":1160:1193   */\n  tag_65\n    /* \"#utility.yul\":1187:1192   */\n  dup2\n    /* \"#utility.yul\":1160:1193   */\n  tag_31\n  jump\t// in\ntag_65:\n    /* \"#utility.yul\":1056:1199   */\n  swap3\n  swap2\n  pop\n  pop\n  jump\t// out\n    /* \"#utility.yul\":1205:1309   */\ntag_33:\n    /* \"#utility.yul\":1250:1257   */\n  0x00\n    /* \"#utility.yul\":1279:1303   */\n  tag_67\n    /* \"#utility.yul\":1297:1302   */\n  dup3\n    /* \"#utility.yul\":1279:1303   */\n  tag_26\n  jump\t// in\ntag_67:\n    /* \"#utility.yul\":1268:1303   */\n  swap1\n  pop\n    /* \"#utility.yul\":1205:1309   */\n  swap2\n  swap1\n  pop\n  jump\t// out\n    /* \"#utility.yul\":1315:1453   */\ntag_34:\n    /* \"#utility.yul\":1396:1428   */\n  tag_69\n    /* \"#utility.yul\":1422:1427   */\n  dup2\n    /* \"#utility.yul\":1396:1428   */\n  tag_33\n  jump\t// in\ntag_69:\n    /* \"#utility.yul\":1389:1394   */\n  dup2\n    /* \"#utility.yul\":1386:1429   */\n  eq\n    /* \"#utility.yul\":1376:1447   */\n  tag_70\n  jumpi\n    /* \"#utility.yul\":1443:1444   */\n  0x00\n    /* \"#utility.yul\":1440:1441   */\n  dup1\n    /* \"#utility.yul\":1433:1445   */\n  revert\n    /* \"#utility.yul\":1376:1447   */\ntag_70:\n    /* \"#utility.yul\":1315:1453   */\n  pop\n  jump\t// out\n    /* \"#utility.yul\":1459:1618   */\ntag_35:\n    /* \"#utility.yul\":1524:1529   */\n  0x00\n    /* \"#utility.yul\":1555:1561   */\n  dup2\n    /* \"#utility.yul\":1549:1562   */\n  mload\n    /* \"#utility.yul\":1540:1562   */\n  swap1\n  pop\n    /* \"#utility.yul\":1571:1612   */\n  tag_72\n    /* \"#utility.yul\":1606:1611   */\n  dup2\n    /* \"#utility.yul\":1571:1612   */\n  tag_34\n  jump\t// in\ntag_72:\n    /* \"#utility.yul\":1459:1618   */\n  swap3\n  swap2\n  pop\n  pop\n  jump\t// out\n    /* \"#utility.yul\":1624:1734   */\ntag_36:\n    /* \"#utility.yul\":1675:1682   */\n  0x00\n    /* \"#utility.yul\":1704:1728   */\n  tag_74\n    /* \"#utility.yul\":1722:1727   */\n  dup3\n    /* \"#utility.yul\":1704:1728   */\n  tag_27\n  jump\t// in\ntag_74:\n    /* \"#utility.yul\":1693:1728   */\n  swap1\n  pop\n    /* \"#utility.yul\":1624:1734   */\n  swap2\n  swap1\n  pop\n  jump\t// out\n    /* \"#utility.yul\":1740:1890   */\ntag_37:\n    /* \"#utility.yul\":1827:1865   */\n  tag_76\n    /* \"#utility.yul\":1859:1864   */\n  dup2\n    /* \"#utility.yul\":1827:1865   */\n  tag_36\n  jump\t// in\ntag_76:\n    /* \"#utility.yul\":1820:1825   */\n  dup2\n    /* \"#utility.yul\":1817:1866   */\n  eq\n    /* \"#utility.yul\":1807:1884   */\n  tag_77\n  jumpi\n    /* \"#utility.yul\":1880:1881   */\n  0x00\n    /* \"#utility.yul\":1877:1878   */\n  dup1\n    /* \"#utility.yul\":1870:1882   */\n  revert\n    /* \"#utility.yul\":1807:1884   */\ntag_77:\n    /* \"#utility.yul\":1740:1890   */\n  pop\n  jump\t// out\n    /* \"#utility.yul\":1896:2067   */\ntag_38:\n    /* \"#utility.yul\":1967:1972   */\n  0x00\n    /* \"#utility.yul\":1998:2004   */\n  dup2\n    /* \"#utility.yul\":1992:2005   */\n  mload\n    /* \"#utility.yul\":1983:2005   */\n  swap1\n  pop\n    /* \"#utility.yul\":2014:2061   */\n  tag_79\n    /* \"#utility.yul\":2055:2060   */\n  dup2\n    /* \"#utility.yul\":2014:2061   */\n  tag_37\n  jump\t// in\ntag_79:\n    /* \"#utility.yul\":1896:2067   */\n  swap3\n  swap2\n  pop\n  pop\n  jump\t// out\n    /* \"#utility.yul\":2073:2937   */\ntag_3:\n    /* \"#utility.yul\":2192:2198   */\n  0x00\n    /* \"#utility.yul\":2200:2206   */\n  dup1\n    /* \"#utility.yul\":2208:2214   */\n  0x00\n    /* \"#utility.yul\":2216:2222   */\n  dup1\n    /* \"#utility.yul\":2265:2268   */\n  0x80\n    /* \"#utility.yul\":2253:2262   */\n  dup6\n    /* \"#utility.yul\":2244:2251   */\n  dup8\n    /* \"#utility.yul\":2240:2263   */\n  sub\n    /* \"#utility.yul\":2236:2269   */\n  slt\n    /* \"#utility.yul\":2233:2353   */\n  iszero\n  tag_81\n  jumpi\n    /* \"#utility.yul\":2272:2351   */\n  tag_82\n  tag_24\n  jump\t// in\ntag_82:\n    /* \"#utility.yul\":2233:2353   */\ntag_81:\n    /* \"#utility.yul\":2392:2393   */\n  0x00\n    /* \"#utility.yul\":2417:2481   */\n  tag_83\n    /* \"#utility.yul\":2473:2480   */\n  dup8\n    /* \"#utility.yul\":2464:2470   */\n  dup3\n    /* \"#utility.yul\":2453:2462   */\n  dup9\n    /* \"#utility.yul\":2449:2471   */\n  add\n    /* \"#utility.yul\":2417:2481   */\n  tag_29\n  jump\t// in\ntag_83:\n    /* \"#utility.yul\":2407:2481   */\n  swap5\n  pop\n    /* \"#utility.yul\":2363:2491   */\n  pop\n    /* \"#utility.yul\":2530:2532   */\n  0x20\n    /* \"#utility.yul\":2556:2620   */\n  tag_84\n    /* \"#utility.yul\":2612:2619   */\n  dup8\n    /* \"#utility.yul\":2603:2609   */\n  dup3\n    /* \"#utility.yul\":2592:2601   */\n  dup9\n    /* \"#utility.yul\":2588:2610   */\n  add\n    /* \"#utility.yul\":2556:2620   */\n  tag_32\n  jump\t// in\ntag_84:\n    /* \"#utility.yul\":2546:2620   */\n  swap4\n  pop\n    /* \"#utility.yul\":2501:2630   */\n  pop\n    /* \"#utility.yul\":2669:2671   */\n  0x40\n    /* \"#utility.yul\":2695:2767   */\n  tag_85\n    /* \"#utility.yul\":2759:2766   */\n  dup8\n    /* \"#utility.yul\":2750:2756   */\n  dup3\n    /* \"#utility.yul\":2739:2748   */\n  dup9\n    /* \"#utility.yul\":2735:2757   */\n  add\n    /* \"#utility.yul\":2695:2767   */\n  tag_35\n  jump\t// in\ntag_85:\n    /* \"#utility.yul\":2685:2767   */\n  swap3\n  pop\n    /* \"#utility.yul\":2640:2777   */\n  pop\n    /* \"#utility.yul\":2816:2818   */\n  0x60\n    /* \"#utility.yul\":2842:2920   */\n  tag_86\n    /* \"#utility.yul\":2912:2919   */\n  dup8\n    /* \"#utility.yul\":2903:2909   */\n  dup3\n    /* \"#utility.yul\":2892:2901   */\n  dup9\n    /* \"#utility.yul\":2888:2910   */\n  add\n    /* \"#utility.yul\":2842:2920   */\n  tag_38\n  jump\t// in\ntag_86:\n    /* \"#utility.yul\":2832:2920   */\n  swap2\n  pop\n    /* \"#utility.yul\":2787:2930   */\n  pop\n    /* \"#utility.yul\":2073:2937   */\n  swap3\n  swap6\n  swap2\n  swap5\n  pop\n  swap3\n  pop\n  jump\t// out\n    /* \"#utility.yul\":2943:3112   */\ntag_39:\n    /* \"#utility.yul\":3027:3038   */\n  0x00\n    /* \"#utility.yul\":3061:3067   */\n  dup3\n    /* \"#utility.yul\":3056:3059   */\n  dup3\n    /* \"#utility.yul\":3049:3068   */\n  mstore\n    /* \"#utility.yul\":3101:3105   */\n  0x20\n    /* \"#utility.yul\":3096:3099   */\n  dup3\n    /* \"#utility.yul\":3092:3106   */\n  add\n    /* \"#utility.yul\":3077:3106   */\n  swap1\n  pop\n    /* \"#utility.yul\":2943:3112   */\n  swap3\n  swap2\n  pop\n  pop\n  jump\t// out\n    /* \"#utility.yul\":3118:3288   */\ntag_40:\n    /* \"#utility.yul\":3258:3280   */\n  0x43726f776473616c653a20726174652069732030000000000000000000000000\n    /* \"#utility.yul\":3254:3255   */\n  0x00\n    /* \"#utility.yul\":3246:3252   */\n  dup3\n    /* \"#utility.yul\":3242:3256   */\n  add\n    /* \"#utility.yul\":3235:3281   */\n  mstore\n    /* \"#utility.yul\":3118:3288   */\n  pop\n  jump\t// out\n    /* \"#utility.yul\":3294:3660   */\ntag_41:\n    /* \"#utility.yul\":3436:3439   */\n  0x00\n    /* \"#utility.yul\":3457:3524   */\n  tag_90\n    /* \"#utility.yul\":3521:3523   */\n  0x14\n    /* \"#utility.yul\":3516:3519   */\n  dup4\n    /* \"#utility.yul\":3457:3524   */\n  tag_39\n  jump\t// in\ntag_90:\n    /* \"#utility.yul\":3450:3524   */\n  swap2\n  pop\n    /* \"#utility.yul\":3533:3626   */\n  tag_91\n    /* \"#utility.yul\":3622:3625   */\n  dup3\n    /* \"#utility.yul\":3533:3626   */\n  tag_40\n  jump\t// in\ntag_91:\n    /* \"#utility.yul\":3651:3653   */\n  0x20\n    /* \"#utility.yul\":3646:3649   */\n  dup3\n    /* \"#utility.yul\":3642:3654   */\n  add\n    /* \"#utility.yul\":3635:3654   */\n  swap1\n  pop\n    /* \"#utility.yul\":3294:3660   */\n  swap2\n  swap1\n  pop\n  jump\t// out\n    /* \"#utility.yul\":3666:4085   */\ntag_11:\n    /* \"#utility.yul\":3832:3836   */\n  0x00\n    /* \"#utility.yul\":3870:3872   */\n  0x20\n    /* \"#utility.yul\":3859:3868   */\n  dup3\n    /* \"#utility.yul\":3855:3873   */\n  add\n    /* \"#utility.yul\":3847:3873   */\n  swap1\n  pop\n    /* \"#utility.yul\":3919:3928   */\n  dup2\n    /* \"#utility.yul\":3913:3917   */\n  dup2\n    /* \"#utility.yul\":3909:3929   */\n  sub\n    /* \"#utility.yul\":3905:3906   */\n  0x00\n    /* \"#utility.yul\":3894:3903   */\n  dup4\n    /* \"#utility.yul\":3890:3907   */\n  add\n    /* \"#utility.yul\":3883:3930   */\n  mstore\n    /* \"#utility.yul\":3947:4078   */\n  tag_93\n    /* \"#utility.yul\":4073:4077   */\n  dup2\n    /* \"#utility.yul\":3947:4078   */\n  tag_41\n  jump\t// in\ntag_93:\n    /* \"#utility.yul\":3939:4078   */\n  swap1\n  pop\n    /* \"#utility.yul\":3666:4085   */\n  swap2\n  swap1\n  pop\n  jump\t// out\n    /* \"#utility.yul\":4091:4315   */\ntag_42:\n    /* \"#utility.yul\":4231:4265   */\n  0x43726f776473616c653a2077616c6c657420697320746865207a65726f206164\n    /* \"#utility.yul\":4227:4228   */\n  0x00\n    /* \"#utility.yul\":4219:4225   */\n  dup3\n    /* \"#utility.yul\":4215:4229   */\n  add\n    /* \"#utility.yul\":4208:4266   */\n  mstore\n    /* \"#utility.yul\":4300:4307   */\n  0x6472657373000000000000000000000000000000000000000000000000000000\n    /* \"#utility.yul\":4295:4297   */\n  0x20\n    /* \"#utility.yul\":4287:4293   */\n  dup3\n    /* \"#utility.yul\":4283:4298   */\n  add\n    /* \"#utility.yul\":4276:4308   */\n  mstore\n    /* \"#utility.yul\":4091:4315   */\n  pop\n  jump\t// out\n    /* \"#utility.yul\":4321:4687   */\ntag_43:\n    /* \"#utility.yul\":4463:4466   */\n  0x00\n    /* \"#utility.yul\":4484:4551   */\n  tag_96\n    /* \"#utility.yul\":4548:4550   */\n  0x25\n    /* \"#utility.yul\":4543:4546   */\n  dup4\n    /* \"#utility.yul\":4484:4551   */\n  tag_39\n  jump\t// in\ntag_96:\n    /* \"#utility.yul\":4477:4551   */\n  swap2\n  pop\n    /* \"#utility.yul\":4560:4653   */\n  tag_97\n    /* \"#utility.yul\":4649:4652   */\n  dup3\n    /* \"#utility.yul\":4560:4653   */\n  tag_42\n  jump\t// in\ntag_97:\n    /* \"#utility.yul\":4678:4680   */\n  0x40\n    /* \"#utility.yul\":4673:4676   */\n  dup3\n    /* \"#utility.yul\":4669:4681   */\n  add\n    /* \"#utility.yul\":4662:4681   */\n  swap1\n  pop\n    /* \"#utility.yul\":4321:4687   */\n  swap2\n  swap1\n  pop\n  jump\t// out\n    /* \"#utility.yul\":4693:5112   */\ntag_14:\n    /* \"#utility.yul\":4859:4863   */\n  0x00\n    /* \"#utility.yul\":4897:4899   */\n  0x20\n    /* \"#utility.yul\":4886:4895   */\n  dup3\n    /* \"#utility.yul\":4882:4900   */\n  add\n    /* \"#utility.yul\":4874:4900   */\n  swap1\n  pop\n    /* \"#utility.yul\":4946:4955   */\n  dup2\n    /* \"#utility.yul\":4940:4944   */\n  dup2\n    /* \"#utility.yul\":4936:4956   */\n  sub\n    /* \"#utility.yul\":4932:4933   */\n  0x00\n    /* \"#utility.yul\":4921:4930   */\n  dup4\n    /* \"#utility.yul\":4917:4934   */\n  add\n    /* \"#utility.yul\":4910:4957   */\n  mstore\n    /* \"#utility.yul\":4974:5105   */\n  tag_99\n    /* \"#utility.yul\":5100:5104   */\n  dup2\n    /* \"#utility.yul\":4974:5105   */\n  tag_43\n  jump\t// in\ntag_99:\n    /* \"#utility.yul\":4966:5105   */\n  swap1\n  pop\n    /* \"#utility.yul\":4693:5112   */\n  swap2\n  swap1\n  pop\n  jump\t// out\n    /* \"#utility.yul\":5118:5341   */\ntag_44:\n    /* \"#utility.yul\":5258:5292   */\n  0x43726f776473616c653a20746f6b656e20697320746865207a65726f20616464\n    /* \"#utility.yul\":5254:5255   */\n  0x00\n    /* \"#utility.yul\":5246:5252   */\n  dup3\n    /* \"#utility.yul\":5242:5256   */\n  add\n    /* \"#utility.yul\":5235:5293   */\n  mstore\n    /* \"#utility.yul\":5327:5333   */\n  0x7265737300000000000000000000000000000000000000000000000000000000\n    /* \"#utility.yul\":5322:5324   */\n  0x20\n    /* \"#utility.yul\":5314:5320   */\n  dup3\n    /* \"#utility.yul\":5310:5325   */\n  add\n    /* \"#utility.yul\":5303:5334   */\n  mstore\n    /* \"#utility.yul\":5118:5341   */\n  pop\n  jump\t// out\n    /* \"#utility.yul\":5347:5713   */\ntag_45:\n    /* \"#utility.yul\":5489:5492   */\n  0x00\n    /* \"#utility.yul\":5510:5577   */\n  tag_102\n    /* \"#utility.yul\":5574:5576   */\n  0x24\n    /* \"#utility.yul\":5569:5572   */\n  dup4\n    /* \"#utility.yul\":5510:5577   */\n  tag_39\n  jump\t// in\ntag_102:\n    /* \"#utility.yul\":5503:5577   */\n  swap2\n  pop\n    /* \"#utility.yul\":5586:5679   */\n  tag_103\n    /* \"#utility.yul\":5675:5678   */\n  dup3\n    /* \"#utility.yul\":5586:5679   */\n  tag_44\n  jump\t// in\ntag_103:\n    /* \"#utility.yul\":5704:5706   */\n  0x40\n    /* \"#utility.yul\":5699:5702   */\n  dup3\n    /* \"#utility.yul\":5695:5707   */\n  add\n    /* \"#utility.yul\":5688:5707   */\n  swap1\n  pop\n    /* \"#utility.yul\":5347:5713   */\n  swap2\n  swap1\n  pop\n  jump\t// out\n    /* \"#utility.yul\":5719:6138   */\ntag_17:\n    /* \"#utility.yul\":5885:5889   */\n  0x00\n    /* \"#utility.yul\":5923:5925   */\n  0x20\n    /* \"#utility.yul\":5912:5921   */\n  dup3\n    /* \"#utility.yul\":5908:5926   */\n  add\n    /* \"#utility.yul\":5900:5926   */\n  swap1\n  pop\n    /* \"#utility.yul\":5972:5981   */\n  dup2\n    /* \"#utility.yul\":5966:5970   */\n  dup2\n    /* \"#utility.yul\":5962:5982   */\n  sub\n    /* \"#utility.yul\":5958:5959   */\n  0x00\n    /* \"#utility.yul\":5947:5956   */\n  dup4\n    /* \"#utility.yul\":5943:5960   */\n  add\n    /* \"#utility.yul\":5936:5983   */\n  mstore\n    /* \"#utility.yul\":6000:6131   */\n  tag_105\n    /* \"#utility.yul\":6126:6130   */\n  dup2\n    /* \"#utility.yul\":6000:6131   */\n  tag_45\n  jump\t// in\ntag_105:\n    /* \"#utility.yul\":5992:6131   */\n  swap1\n  pop\n    /* \"#utility.yul\":5719:6138   */\n  swap2\n  swap1\n  pop\n  jump\t// out\n    /* \"#utility.yul\":6144:6383   */\ntag_46:\n    /* \"#utility.yul\":6284:6318   */\n  0x416c6c6f77616e636543726f776473616c653a20746f6b656e2077616c6c6574\n    /* \"#utility.yul\":6280:6281   */\n  0x00\n    /* \"#utility.yul\":6272:6278   */\n  dup3\n    /* \"#utility.yul\":6268:6282   */\n  add\n    /* \"#utility.yul\":6261:6319   */\n  mstore\n    /* \"#utility.yul\":6353:6375   */\n  0x20697320746865207a65726f2061646472657373000000000000000000000000\n    /* \"#utility.yul\":6348:6350   */\n  0x20\n    /* \"#utility.yul\":6340:6346   */\n  dup3\n    /* \"#utility.yul\":6336:6351   */\n  add\n    /* \"#utility.yul\":6329:6376   */\n  mstore\n    /* \"#utility.yul\":6144:6383   */\n  pop\n  jump\t// out\n    /* \"#utility.yul\":6389:6755   */\ntag_47:\n    /* \"#utility.yul\":6531:6534   */\n  0x00\n    /* \"#utility.yul\":6552:6619   */\n  tag_108\n    /* \"#utility.yul\":6616:6618   */\n  0x34\n    /* \"#utility.yul\":6611:6614   */\n  dup4\n    /* \"#utility.yul\":6552:6619   */\n  tag_39\n  jump\t// in\ntag_108:\n    /* \"#utility.yul\":6545:6619   */\n  swap2\n  pop\n    /* \"#utility.yul\":6628:6721   */\n  tag_109\n    /* \"#utility.yul\":6717:6720   */\n  dup3\n    /* \"#utility.yul\":6628:6721   */\n  tag_46\n  jump\t// in\ntag_109:\n    /* \"#utility.yul\":6746:6748   */\n  0x40\n    /* \"#utility.yul\":6741:6744   */\n  dup3\n    /* \"#utility.yul\":6737:6749   */\n  add\n    /* \"#utility.yul\":6730:6749   */\n  swap1\n  pop\n    /* \"#utility.yul\":6389:6755   */\n  swap2\n  swap1\n  pop\n  jump\t// out\n    /* \"#utility.yul\":6761:7180   */\ntag_21:\n    /* \"#utility.yul\":6927:6931   */\n  0x00\n    /* \"#utility.yul\":6965:6967   */\n  0x20\n    /* \"#utility.yul\":6954:6963   */\n  dup3\n    /* \"#utility.yul\":6950:6968   */\n  add\n    /* \"#utility.yul\":6942:6968   */\n  swap1\n  pop\n    /* \"#utility.yul\":7014:7023   */\n  dup2\n    /* \"#utility.yul\":7008:7012   */\n  dup2\n    /* \"#utility.yul\":7004:7024   */\n  sub\n    /* \"#utility.yul\":7000:7001   */\n  0x00\n    /* \"#utility.yul\":6989:6998   */\n  dup4\n    /* \"#utility.yul\":6985:7002   */\n  add\n    /* \"#utility.yul\":6978:7025   */\n  mstore\n    /* \"#utility.yul\":7042:7173   */\n  tag_111\n    /* \"#utility.yul\":7168:7172   */\n  dup2\n    /* \"#utility.yul\":7042:7173   */\n  tag_47\n  jump\t// in\ntag_111:\n    /* \"#utility.yul\":7034:7173   */\n  swap1\n  pop\n    /* \"#utility.yul\":6761:7180   */\n  swap2\n  swap1\n  pop\n  jump\t// out\n    /* \"crowdsale/emission/allowanceCrowdsale.sol\":487:2112  contract AllowanceCrowdsale is Crowdsale {... */\ntag_22:\n  dataSize(sub_0)\n  dup1\n  dataOffset(sub_0)\n  0x00\n  codecopy\n  0x00\n  return\nstop\n\nsub_0: assembly {\n        /* \"crowdsale/emission/allowanceCrowdsale.sol\":487:2112  contract AllowanceCrowdsale is Crowdsale {... */\n      mstore(0x40, 0x80)\n      jumpi(tag_1, lt(calldatasize, 0x04))\n      shr(0xe0, calldataload(0x00))\n      dup1\n      0xbf583903\n      gt\n      tag_10\n      jumpi\n      dup1\n      0xbf583903\n      eq\n      tag_6\n      jumpi\n      dup1\n      0xbff99c6c\n      eq\n      tag_7\n      jumpi\n      dup1\n      0xec8ac4d8\n      eq\n      tag_8\n      jumpi\n      dup1\n      0xfc0c546a\n      eq\n      tag_9\n      jumpi\n      jump(tag_2)\n    tag_10:\n      dup1\n      0x2c4e722e\n      eq\n      tag_3\n      jumpi\n      dup1\n      0x4042b66f\n      eq\n      tag_4\n      jumpi\n      dup1\n      0x521eb273\n      eq\n      tag_5\n      jumpi\n      jump(tag_2)\n    tag_1:\n      jumpi(tag_2, calldatasize)\n        /* \"crowdsale/crowdsale.sol\":3351:3374  buyTokens(_msgSender()) */\n      tag_13\n        /* \"crowdsale/crowdsale.sol\":3361:3373  _msgSender() */\n      tag_14\n        /* \"crowdsale/crowdsale.sol\":3361:3371  _msgSender */\n      tag_15\n        /* \"crowdsale/crowdsale.sol\":3361:3373  _msgSender() */\n      jump\t// in\n    tag_14:\n        /* \"crowdsale/crowdsale.sol\":3351:3360  buyTokens */\n      tag_16\n        /* \"crowdsale/crowdsale.sol\":3351:3374  buyTokens(_msgSender()) */\n      jump\t// in\n    tag_13:\n        /* \"crowdsale/emission/allowanceCrowdsale.sol\":487:2112  contract AllowanceCrowdsale is Crowdsale {... */\n      stop\n    tag_2:\n        /* \"crowdsale/crowdsale.sol\":3270:3293  buyTokens(_msgSender()) */\n      tag_19\n        /* \"crowdsale/crowdsale.sol\":3280:3292  _msgSender() */\n      tag_20\n        /* \"crowdsale/crowdsale.sol\":3280:3290  _msgSender */\n      tag_15\n        /* \"crowdsale/crowdsale.sol\":3280:3292  _msgSender() */\n      jump\t// in\n    tag_20:\n        /* \"crowdsale/crowdsale.sol\":3270:3279  buyTokens */\n      tag_16\n        /* \"crowdsale/crowdsale.sol\":3270:3293  buyTokens(_msgSender()) */\n      jump\t// in\n    tag_19:\n        /* \"crowdsale/emission/allowanceCrowdsale.sol\":487:2112  contract AllowanceCrowdsale is Crowdsale {... */\n      stop\n        /* \"crowdsale/crowdsale.sol\":3784:3869  function rate() public virtual view returns (uint256) {... */\n    tag_3:\n      callvalue\n      dup1\n      iszero\n      tag_21\n      jumpi\n      0x00\n      dup1\n      revert\n    tag_21:\n      pop\n      tag_22\n      tag_23\n      jump\t// in\n    tag_22:\n      mload(0x40)\n      tag_24\n      swap2\n      swap1\n      tag_25\n      jump\t// in\n    tag_24:\n      mload(0x40)\n      dup1\n      swap2\n      sub\n      swap1\n      return\n        /* \"crowdsale/crowdsale.sol\":3937:4024  function weiRaised() public view returns (uint256) {... */\n    tag_4:\n      callvalue\n      dup1\n      iszero\n      tag_26\n      jumpi\n      0x00\n      dup1\n      revert\n    tag_26:\n      pop\n      tag_27\n      tag_28\n      jump\t// in\n    tag_27:\n      mload(0x40)\n      tag_29\n      swap2\n      swap1\n      tag_25\n      jump\t// in\n    tag_29:\n      mload(0x40)\n      dup1\n      swap2\n      sub\n      swap1\n      return\n        /* \"crowdsale/crowdsale.sol\":3605:3694  function wallet() public view returns (address payable) {... */\n    tag_5:\n      callvalue\n      dup1\n      iszero\n      tag_30\n      jumpi\n      0x00\n      dup1\n      revert\n    tag_30:\n      pop\n      tag_31\n      tag_32\n      jump\t// in\n    tag_31:\n      mload(0x40)\n      tag_33\n      swap2\n      swap1\n      tag_34\n      jump\t// in\n    tag_33:\n      mload(0x40)\n      dup1\n      swap2\n      sub\n      swap1\n      return\n        /* \"crowdsale/emission/allowanceCrowdsale.sol\":1571:1743  function remainingTokens() public view returns (uint256) {... */\n    tag_6:\n      callvalue\n      dup1\n      iszero\n      tag_35\n      jumpi\n      0x00\n      dup1\n      revert\n    tag_35:\n      pop\n      tag_36\n      tag_37\n      jump\t// in\n    tag_36:\n      mload(0x40)\n      tag_38\n      swap2\n      swap1\n      tag_25\n      jump\t// in\n    tag_38:\n      mload(0x40)\n      dup1\n      swap2\n      sub\n      swap1\n      return\n        /* \"crowdsale/emission/allowanceCrowdsale.sol\":1335:1426  function tokenWallet() public view returns (address) {... */\n    tag_7:\n      callvalue\n      dup1\n      iszero\n      tag_39\n      jumpi\n      0x00\n      dup1\n      revert\n    tag_39:\n      pop\n      tag_40\n      tag_41\n      jump\t// in\n    tag_40:\n      mload(0x40)\n      tag_42\n      swap2\n      swap1\n      tag_43\n      jump\t// in\n    tag_42:\n      mload(0x40)\n      dup1\n      swap2\n      sub\n      swap1\n      return\n        /* \"crowdsale/crowdsale.sol\":4289:4911  function buyTokens(address beneficiary) public nonReentrant payable {... */\n    tag_8:\n      tag_44\n      0x04\n      dup1\n      calldatasize\n      sub\n      dup2\n      add\n      swap1\n      tag_45\n      swap2\n      swap1\n      tag_46\n      jump\t// in\n    tag_45:\n      tag_16\n      jump\t// in\n    tag_44:\n      stop\n        /* \"crowdsale/crowdsale.sol\":3446:3524  function token() public view returns (IERC20) {... */\n    tag_9:\n      callvalue\n      dup1\n      iszero\n      tag_47\n      jumpi\n      0x00\n      dup1\n      revert\n    tag_47:\n      pop\n      tag_48\n      tag_49\n      jump\t// in\n    tag_48:\n      mload(0x40)\n      tag_50\n      swap2\n      swap1\n      tag_51\n      jump\t// in\n    tag_50:\n      mload(0x40)\n      dup1\n      swap2\n      sub\n      swap1\n      return\n        /* \"@openzeppelin/contracts/utils/Context.sol\":656:752  function _msgSender() internal view virtual returns (address) {... */\n    tag_15:\n        /* \"@openzeppelin/contracts/utils/Context.sol\":709:716  address */\n      0x00\n        /* \"@openzeppelin/contracts/utils/Context.sol\":735:745  msg.sender */\n      caller\n        /* \"@openzeppelin/contracts/utils/Context.sol\":728:745  return msg.sender */\n      swap1\n      pop\n        /* \"@openzeppelin/contracts/utils/Context.sol\":656:752  function _msgSender() internal view virtual returns (address) {... */\n      swap1\n      jump\t// out\n        /* \"crowdsale/crowdsale.sol\":4289:4911  function buyTokens(address beneficiary) public nonReentrant payable {... */\n    tag_16:\n        /* \"@openzeppelin/contracts/security/ReentrancyGuard.sol\":2261:2282  _nonReentrantBefore() */\n      tag_54\n        /* \"@openzeppelin/contracts/security/ReentrancyGuard.sol\":2261:2280  _nonReentrantBefore */\n      tag_55\n        /* \"@openzeppelin/contracts/security/ReentrancyGuard.sol\":2261:2282  _nonReentrantBefore() */\n      jump\t// in\n    tag_54:\n        /* \"crowdsale/crowdsale.sol\":4368:4385  uint256 weiAmount */\n      0x00\n        /* \"crowdsale/crowdsale.sol\":4388:4397  msg.value */\n      callvalue\n        /* \"crowdsale/crowdsale.sol\":4368:4397  uint256 weiAmount = msg.value */\n      swap1\n      pop\n        /* \"crowdsale/crowdsale.sol\":4408:4452  _preValidatePurchase(beneficiary, weiAmount) */\n      tag_57\n        /* \"crowdsale/crowdsale.sol\":4429:4440  beneficiary */\n      dup3\n        /* \"crowdsale/crowdsale.sol\":4442:4451  weiAmount */\n      dup3\n        /* \"crowdsale/crowdsale.sol\":4408:4428  _preValidatePurchase */\n      tag_58\n        /* \"crowdsale/crowdsale.sol\":4408:4452  _preValidatePurchase(beneficiary, weiAmount) */\n      jump\t// in\n    tag_57:\n        /* \"crowdsale/crowdsale.sol\":4514:4528  uint256 tokens */\n      0x00\n        /* \"crowdsale/crowdsale.sol\":4531:4557  _getTokenAmount(weiAmount) */\n      tag_59\n        /* \"crowdsale/crowdsale.sol\":4547:4556  weiAmount */\n      dup3\n        /* \"crowdsale/crowdsale.sol\":4531:4546  _getTokenAmount */\n      tag_60\n        /* \"crowdsale/crowdsale.sol\":4531:4557  _getTokenAmount(weiAmount) */\n      jump\t// in\n    tag_59:\n        /* \"crowdsale/crowdsale.sol\":4514:4557  uint256 tokens = _getTokenAmount(weiAmount) */\n      swap1\n      pop\n        /* \"crowdsale/crowdsale.sol\":4608:4633  _weiRaised.add(weiAmount) */\n      tag_61\n        /* \"crowdsale/crowdsale.sol\":4623:4632  weiAmount */\n      dup3\n        /* \"crowdsale/crowdsale.sol\":4608:4618  _weiRaised */\n      sload(0x04)\n        /* \"crowdsale/crowdsale.sol\":4608:4622  _weiRaised.add */\n      tag_62\n      swap1\n        /* \"crowdsale/crowdsale.sol\":4608:4633  _weiRaised.add(weiAmount) */\n      swap2\n      swap1\n      0xffffffff\n      and\n      jump\t// in\n    tag_61:\n        /* \"crowdsale/crowdsale.sol\":4595:4605  _weiRaised */\n      0x04\n        /* \"crowdsale/crowdsale.sol\":4595:4633  _weiRaised = _weiRaised.add(weiAmount) */\n      dup2\n      swap1\n      sstore\n      pop\n        /* \"crowdsale/crowdsale.sol\":4646:4683  _processPurchase(beneficiary, tokens) */\n      tag_63\n        /* \"crowdsale/crowdsale.sol\":4663:4674  beneficiary */\n      dup4\n        /* \"crowdsale/crowdsale.sol\":4676:4682  tokens */\n      dup3\n        /* \"crowdsale/crowdsale.sol\":4646:4662  _processPurchase */\n      tag_64\n        /* \"crowdsale/crowdsale.sol\":4646:4683  _processPurchase(beneficiary, tokens) */\n      jump\t// in\n    tag_63:\n        /* \"crowdsale/crowdsale.sol\":4729:4740  beneficiary */\n      dup3\n        /* \"crowdsale/crowdsale.sol\":4699:4760  TokensPurchased(_msgSender(), beneficiary, weiAmount, tokens) */\n      0xffffffffffffffffffffffffffffffffffffffff\n      and\n        /* \"crowdsale/crowdsale.sol\":4715:4727  _msgSender() */\n      tag_65\n        /* \"crowdsale/crowdsale.sol\":4715:4725  _msgSender */\n      tag_15\n        /* \"crowdsale/crowdsale.sol\":4715:4727  _msgSender() */\n      jump\t// in\n    tag_65:\n        /* \"crowdsale/crowdsale.sol\":4699:4760  TokensPurchased(_msgSender(), beneficiary, weiAmount, tokens) */\n      0xffffffffffffffffffffffffffffffffffffffff\n      and\n      0x6faf93231a456e552dbc9961f58d9713ee4f2e69d15f1975b050ef0911053a7b\n        /* \"crowdsale/crowdsale.sol\":4742:4751  weiAmount */\n      dup5\n        /* \"crowdsale/crowdsale.sol\":4753:4759  tokens */\n      dup5\n        /* \"crowdsale/crowdsale.sol\":4699:4760  TokensPurchased(_msgSender(), beneficiary, weiAmount, tokens) */\n      mload(0x40)\n      tag_66\n      swap3\n      swap2\n      swap1\n      tag_67\n      jump\t// in\n    tag_66:\n      mload(0x40)\n      dup1\n      swap2\n      sub\n      swap1\n      log3\n        /* \"crowdsale/crowdsale.sol\":4773:4819  _updatePurchasingState(beneficiary, weiAmount) */\n      tag_68\n        /* \"crowdsale/crowdsale.sol\":4796:4807  beneficiary */\n      dup4\n        /* \"crowdsale/crowdsale.sol\":4809:4818  weiAmount */\n      dup4\n        /* \"crowdsale/crowdsale.sol\":4773:4795  _updatePurchasingState */\n      tag_69\n        /* \"crowdsale/crowdsale.sol\":4773:4819  _updatePurchasingState(beneficiary, weiAmount) */\n      jump\t// in\n    tag_68:\n        /* \"crowdsale/crowdsale.sol\":4832:4847  _forwardFunds() */\n      tag_70\n        /* \"crowdsale/crowdsale.sol\":4832:4845  _forwardFunds */\n      tag_71\n        /* \"crowdsale/crowdsale.sol\":4832:4847  _forwardFunds() */\n      jump\t// in\n    tag_70:\n        /* \"crowdsale/crowdsale.sol\":4858:4903  _postValidatePurchase(beneficiary, weiAmount) */\n      tag_72\n        /* \"crowdsale/crowdsale.sol\":4880:4891  beneficiary */\n      dup4\n        /* \"crowdsale/crowdsale.sol\":4893:4902  weiAmount */\n      dup4\n        /* \"crowdsale/crowdsale.sol\":4858:4879  _postValidatePurchase */\n      tag_73\n        /* \"crowdsale/crowdsale.sol\":4858:4903  _postValidatePurchase(beneficiary, weiAmount) */\n      jump\t// in\n    tag_72:\n        /* \"crowdsale/crowdsale.sol\":4357:4911  {... */\n      pop\n      pop\n        /* \"@openzeppelin/contracts/security/ReentrancyGuard.sol\":2303:2323  _nonReentrantAfter() */\n      tag_74\n        /* \"@openzeppelin/contracts/security/ReentrancyGuard.sol\":2303:2321  _nonReentrantAfter */\n      tag_75\n        /* \"@openzeppelin/contracts/security/ReentrancyGuard.sol\":2303:2323  _nonReentrantAfter() */\n      jump\t// in\n    tag_74:\n        /* \"crowdsale/crowdsale.sol\":4289:4911  function buyTokens(address beneficiary) public nonReentrant payable {... */\n      pop\n      jump\t// out\n        /* \"crowdsale/crowdsale.sol\":3784:3869  function rate() public virtual view returns (uint256) {... */\n    tag_23:\n        /* \"crowdsale/crowdsale.sol\":3829:3836  uint256 */\n      0x00\n        /* \"crowdsale/crowdsale.sol\":3856:3861  _rate */\n      sload(0x03)\n        /* \"crowdsale/crowdsale.sol\":3849:3861  return _rate */\n      swap1\n      pop\n        /* \"crowdsale/crowdsale.sol\":3784:3869  function rate() public virtual view returns (uint256) {... */\n      swap1\n      jump\t// out\n        /* \"crowdsale/crowdsale.sol\":3937:4024  function weiRaised() public view returns (uint256) {... */\n    tag_28:\n        /* \"crowdsale/crowdsale.sol\":3979:3986  uint256 */\n      0x00\n        /* \"crowdsale/crowdsale.sol\":4006:4016  _weiRaised */\n      sload(0x04)\n        /* \"crowdsale/crowdsale.sol\":3999:4016  return _weiRaised */\n      swap1\n      pop\n        /* \"crowdsale/crowdsale.sol\":3937:4024  function weiRaised() public view returns (uint256) {... */\n      swap1\n      jump\t// out\n        /* \"crowdsale/crowdsale.sol\":3605:3694  function wallet() public view returns (address payable) {... */\n    tag_32:\n        /* \"crowdsale/crowdsale.sol\":3644:3659  address payable */\n      0x00\n        /* \"crowdsale/crowdsale.sol\":3679:3686  _wallet */\n      0x02\n      0x00\n      swap1\n      sload\n      swap1\n      0x0100\n      exp\n      swap1\n      div\n      0xffffffffffffffffffffffffffffffffffffffff\n      and\n        /* \"crowdsale/crowdsale.sol\":3672:3686  return _wallet */\n      swap1\n      pop\n        /* \"crowdsale/crowdsale.sol\":3605:3694  function wallet() public view returns (address payable) {... */\n      swap1\n      jump\t// out\n        /* \"crowdsale/emission/allowanceCrowdsale.sol\":1571:1743  function remainingTokens() public view returns (uint256) {... */\n    tag_37:\n        /* \"crowdsale/emission/allowanceCrowdsale.sol\":1619:1626  uint256 */\n      0x00\n        /* \"crowdsale/emission/allowanceCrowdsale.sol\":1646:1735  Math.min(token().balanceOf(_tokenWallet), token().allowance(_tokenWallet, address(this))) */\n      tag_80\n        /* \"crowdsale/emission/allowanceCrowdsale.sol\":1655:1662  token() */\n      tag_81\n        /* \"crowdsale/emission/allowanceCrowdsale.sol\":1655:1660  token */\n      tag_49\n        /* \"crowdsale/emission/allowanceCrowdsale.sol\":1655:1662  token() */\n      jump\t// in\n    tag_81:\n        /* \"crowdsale/emission/allowanceCrowdsale.sol\":1655:1672  token().balanceOf */\n      0xffffffffffffffffffffffffffffffffffffffff\n      and\n      0x70a08231\n        /* \"crowdsale/emission/allowanceCrowdsale.sol\":1673:1685  _tokenWallet */\n      0x05\n      0x00\n      swap1\n      sload\n      swap1\n      0x0100\n      exp\n      swap1\n      div\n      0xffffffffffffffffffffffffffffffffffffffff\n      and\n        /* \"crowdsale/emission/allowanceCrowdsale.sol\":1655:1686  token().balanceOf(_tokenWallet) */\n      mload(0x40)\n      dup3\n      0xffffffff\n      and\n      0xe0\n      shl\n      dup2\n      mstore\n      0x04\n      add\n      tag_82\n      swap2\n      swap1\n      tag_43\n      jump\t// in\n    tag_82:\n      0x20\n      mload(0x40)\n      dup1\n      dup4\n      sub\n      dup2\n      dup7\n      gas\n      staticcall\n      iszero\n      dup1\n      iszero\n      tag_84\n      jumpi\n      returndatasize\n      0x00\n      dup1\n      returndatacopy\n      revert(0x00, returndatasize)\n    tag_84:\n      pop\n      pop\n      pop\n      pop\n      mload(0x40)\n      returndatasize\n      not(0x1f)\n      0x1f\n      dup3\n      add\n      and\n      dup3\n      add\n      dup1\n      0x40\n      mstore\n      pop\n      dup2\n      add\n      swap1\n      tag_85\n      swap2\n      swap1\n      tag_86\n      jump\t// in\n    tag_85:\n        /* \"crowdsale/emission/allowanceCrowdsale.sol\":1688:1695  token() */\n      tag_87\n        /* \"crowdsale/emission/allowanceCrowdsale.sol\":1688:1693  token */\n      tag_49\n        /* \"crowdsale/emission/allowanceCrowdsale.sol\":1688:1695  token() */\n      jump\t// in\n    tag_87:\n        /* \"crowdsale/emission/allowanceCrowdsale.sol\":1688:1705  token().allowance */\n      0xffffffffffffffffffffffffffffffffffffffff\n      and\n      0xdd62ed3e\n        /* \"crowdsale/emission/allowanceCrowdsale.sol\":1706:1718  _tokenWallet */\n      0x05\n      0x00\n      swap1\n      sload\n      swap1\n      0x0100\n      exp\n      swap1\n      div\n      0xffffffffffffffffffffffffffffffffffffffff\n      and\n        /* \"crowdsale/emission/allowanceCrowdsale.sol\":1728:1732  this */\n      address\n        /* \"crowdsale/emission/allowanceCrowdsale.sol\":1688:1734  token().allowance(_tokenWallet, address(this)) */\n      mload(0x40)\n      dup4\n      0xffffffff\n      and\n      0xe0\n      shl\n      dup2\n      mstore\n      0x04\n      add\n      tag_88\n      swap3\n      swap2\n      swap1\n      tag_89\n      jump\t// in\n    tag_88:\n      0x20\n      mload(0x40)\n      dup1\n      dup4\n      sub\n      dup2\n      dup7\n      gas\n      staticcall\n      iszero\n      dup1\n      iszero\n      tag_91\n      jumpi\n      returndatasize\n      0x00\n      dup1\n      returndatacopy\n      revert(0x00, returndatasize)\n    tag_91:\n      pop\n      pop\n      pop\n      pop\n      mload(0x40)\n      returndatasize\n      not(0x1f)\n      0x1f\n      dup3\n      add\n      and\n      dup3\n      add\n      dup1\n      0x40\n      mstore\n      pop\n      dup2\n      add\n      swap1\n      tag_92\n      swap2\n      swap1\n      tag_86\n      jump\t// in\n    tag_92:\n        /* \"crowdsale/emission/allowanceCrowdsale.sol\":1646:1654  Math.min */\n      tag_93\n        /* \"crowdsale/emission/allowanceCrowdsale.sol\":1646:1735  Math.min(token().balanceOf(_tokenWallet), token().allowance(_tokenWallet, address(this))) */\n      jump\t// in\n    tag_80:\n        /* \"crowdsale/emission/allowanceCrowdsale.sol\":1639:1735  return Math.min(token().balanceOf(_tokenWallet), token().allowance(_tokenWallet, address(this))) */\n      swap1\n      pop\n        /* \"crowdsale/emission/allowanceCrowdsale.sol\":1571:1743  function remainingTokens() public view returns (uint256) {... */\n      swap1\n      jump\t// out\n        /* \"crowdsale/emission/allowanceCrowdsale.sol\":1335:1426  function tokenWallet() public view returns (address) {... */\n    tag_41:\n        /* \"crowdsale/emission/allowanceCrowdsale.sol\":1379:1386  address */\n      0x00\n        /* \"crowdsale/emission/allowanceCrowdsale.sol\":1406:1418  _tokenWallet */\n      0x05\n      0x00\n      swap1\n      sload\n      swap1\n      0x0100\n      exp\n      swap1\n      div\n      0xffffffffffffffffffffffffffffffffffffffff\n      and\n        /* \"crowdsale/emission/allowanceCrowdsale.sol\":1399:1418  return _tokenWallet */\n      swap1\n      pop\n        /* \"crowdsale/emission/allowanceCrowdsale.sol\":1335:1426  function tokenWallet() public view returns (address) {... */\n      swap1\n      jump\t// out\n        /* \"crowdsale/crowdsale.sol\":3446:3524  function token() public view returns (IERC20) {... */\n    tag_49:\n        /* \"crowdsale/crowdsale.sol\":3484:3490  IERC20 */\n      0x00\n        /* \"crowdsale/crowdsale.sol\":3510:3516  _token */\n      0x01\n      0x00\n      swap1\n      sload\n      swap1\n      0x0100\n      exp\n      swap1\n      div\n      0xffffffffffffffffffffffffffffffffffffffff\n      and\n        /* \"crowdsale/crowdsale.sol\":3503:3516  return _token */\n      swap1\n      pop\n        /* \"crowdsale/crowdsale.sol\":3446:3524  function token() public view returns (IERC20) {... */\n      swap1\n      jump\t// out\n        /* \"@openzeppelin/contracts/security/ReentrancyGuard.sol\":2336:2623  function _nonReentrantBefore() private {... */\n    tag_55:\n        /* \"@openzeppelin/contracts/security/ReentrancyGuard.sol\":1759:1760  2 */\n      0x02\n        /* \"@openzeppelin/contracts/security/ReentrancyGuard.sol\":2468:2475  _status */\n      sload(0x00)\n        /* \"@openzeppelin/contracts/security/ReentrancyGuard.sol\":2468:2487  _status != _ENTERED */\n      sub\n        /* \"@openzeppelin/contracts/security/ReentrancyGuard.sol\":2460:2523  require(_status != _ENTERED, \"ReentrancyGuard: reentrant call\") */\n      tag_97\n      jumpi\n      mload(0x40)\n      0x08c379a000000000000000000000000000000000000000000000000000000000\n      dup2\n      mstore\n      0x04\n      add\n      tag_98\n      swap1\n      tag_99\n      jump\t// in\n    tag_98:\n      mload(0x40)\n      dup1\n      swap2\n      sub\n      swap1\n      revert\n    tag_97:\n        /* \"@openzeppelin/contracts/security/ReentrancyGuard.sol\":1759:1760  2 */\n      0x02\n        /* \"@openzeppelin/contracts/security/ReentrancyGuard.sol\":2598:2605  _status */\n      0x00\n        /* \"@openzeppelin/contracts/security/ReentrancyGuard.sol\":2598:2616  _status = _ENTERED */\n      dup2\n      swap1\n      sstore\n      pop\n        /* \"@openzeppelin/contracts/security/ReentrancyGuard.sol\":2336:2623  function _nonReentrantBefore() private {... */\n      jump\t// out\n        /* \"crowdsale/crowdsale.sol\":5464:5852  function _preValidatePurchase(address beneficiary, uint256 weiAmount) internal virtual view {... */\n    tag_58:\n        /* \"crowdsale/crowdsale.sol\":5598:5599  0 */\n      0x00\n        /* \"crowdsale/crowdsale.sol\":5575:5600  beneficiary != address(0) */\n      0xffffffffffffffffffffffffffffffffffffffff\n      and\n        /* \"crowdsale/crowdsale.sol\":5575:5586  beneficiary */\n      dup3\n        /* \"crowdsale/crowdsale.sol\":5575:5600  beneficiary != address(0) */\n      0xffffffffffffffffffffffffffffffffffffffff\n      and\n      sub\n        /* \"crowdsale/crowdsale.sol\":5567:5647  require(beneficiary != address(0), \"Crowdsale: beneficiary is the zero address\") */\n      tag_101\n      jumpi\n      mload(0x40)\n      0x08c379a000000000000000000000000000000000000000000000000000000000\n      dup2\n      mstore\n      0x04\n      add\n      tag_102\n      swap1\n      tag_103\n      jump\t// in\n    tag_102:\n      mload(0x40)\n      dup1\n      swap2\n      sub\n      swap1\n      revert\n    tag_101:\n        /* \"crowdsale/crowdsale.sol\":5679:5680  0 */\n      0x00\n        /* \"crowdsale/crowdsale.sol\":5666:5675  weiAmount */\n      dup2\n        /* \"crowdsale/crowdsale.sol\":5666:5680  weiAmount != 0 */\n      sub\n        /* \"crowdsale/crowdsale.sol\":5658:5710  require(weiAmount != 0, \"Crowdsale: weiAmount is 0\") */\n      tag_104\n      jumpi\n      mload(0x40)\n      0x08c379a000000000000000000000000000000000000000000000000000000000\n      dup2\n      mstore\n      0x04\n      add\n      tag_105\n      swap1\n      tag_106\n      jump\t// in\n    tag_105:\n      mload(0x40)\n      dup1\n      swap2\n      sub\n      swap1\n      revert\n    tag_104:\n        /* \"crowdsale/crowdsale.sol\":5464:5852  function _preValidatePurchase(address beneficiary, uint256 weiAmount) internal virtual view {... */\n      pop\n      pop\n      jump\t// out\n        /* \"crowdsale/crowdsale.sol\":7856:7986  function _getTokenAmount(uint256 weiAmount) internal virtual view returns (uint256) {... */\n    tag_60:\n        /* \"crowdsale/crowdsale.sol\":7931:7938  uint256 */\n      0x00\n        /* \"crowdsale/crowdsale.sol\":7958:7978  weiAmount.mul(_rate) */\n      tag_108\n        /* \"crowdsale/crowdsale.sol\":7972:7977  _rate */\n      sload(0x03)\n        /* \"crowdsale/crowdsale.sol\":7958:7967  weiAmount */\n      dup4\n        /* \"crowdsale/crowdsale.sol\":7958:7971  weiAmount.mul */\n      tag_109\n      swap1\n        /* \"crowdsale/crowdsale.sol\":7958:7978  weiAmount.mul(_rate) */\n      swap2\n      swap1\n      0xffffffff\n      and\n      jump\t// in\n    tag_108:\n        /* \"crowdsale/crowdsale.sol\":7951:7978  return weiAmount.mul(_rate) */\n      swap1\n      pop\n        /* \"crowdsale/crowdsale.sol\":7856:7986  function _getTokenAmount(uint256 weiAmount) internal virtual view returns (uint256) {... */\n      swap2\n      swap1\n      pop\n      jump\t// out\n        /* \"@openzeppelin/contracts/utils/math/SafeMath.sol\":2755:2851  function add(uint256 a, uint256 b) internal pure returns (uint256) {... */\n    tag_62:\n        /* \"@openzeppelin/contracts/utils/math/SafeMath.sol\":2813:2820  uint256 */\n      0x00\n        /* \"@openzeppelin/contracts/utils/math/SafeMath.sol\":2843:2844  b */\n      dup2\n        /* \"@openzeppelin/contracts/utils/math/SafeMath.sol\":2839:2840  a */\n      dup4\n        /* \"@openzeppelin/contracts/utils/math/SafeMath.sol\":2839:2844  a + b */\n      tag_111\n      swap2\n      swap1\n      tag_112\n      jump\t// in\n    tag_111:\n        /* \"@openzeppelin/contracts/utils/math/SafeMath.sol\":2832:2844  return a + b */\n      swap1\n      pop\n        /* \"@openzeppelin/contracts/utils/math/SafeMath.sol\":2755:2851  function add(uint256 a, uint256 b) internal pure returns (uint256) {... */\n      swap3\n      swap2\n      pop\n      pop\n      jump\t// out\n        /* \"crowdsale/crowdsale.sol\":7023:7167  function _processPurchase(address beneficiary, uint256 tokenAmount) internal virtual {... */\n    tag_64:\n        /* \"crowdsale/crowdsale.sol\":7119:7159  _deliverTokens(beneficiary, tokenAmount) */\n      tag_114\n        /* \"crowdsale/crowdsale.sol\":7134:7145  beneficiary */\n      dup3\n        /* \"crowdsale/crowdsale.sol\":7147:7158  tokenAmount */\n      dup3\n        /* \"crowdsale/crowdsale.sol\":7119:7133  _deliverTokens */\n      tag_115\n        /* \"crowdsale/crowdsale.sol\":7119:7159  _deliverTokens(beneficiary, tokenAmount) */\n      jump\t// in\n    tag_114:\n        /* \"crowdsale/crowdsale.sol\":7023:7167  function _processPurchase(address beneficiary, uint256 tokenAmount) internal virtual {... */\n      pop\n      pop\n      jump\t// out\n        /* \"crowdsale/crowdsale.sol\":7445:7600  function _updatePurchasingState(address beneficiary, uint256 weiAmount) internal virtual {... */\n    tag_69:\n      pop\n      pop\n      jump\t// out\n        /* \"crowdsale/crowdsale.sol\":8078:8166  function _forwardFunds() internal virtual {... */\n    tag_71:\n        /* \"crowdsale/crowdsale.sol\":8131:8138  _wallet */\n      0x02\n      0x00\n      swap1\n      sload\n      swap1\n      0x0100\n      exp\n      swap1\n      div\n      0xffffffffffffffffffffffffffffffffffffffff\n      and\n        /* \"crowdsale/crowdsale.sol\":8131:8147  _wallet.transfer */\n      0xffffffffffffffffffffffffffffffffffffffff\n      and\n        /* \"crowdsale/crowdsale.sol\":8131:8158  _wallet.transfer(msg.value) */\n      0x08fc\n        /* \"crowdsale/crowdsale.sol\":8148:8157  msg.value */\n      callvalue\n        /* \"crowdsale/crowdsale.sol\":8131:8158  _wallet.transfer(msg.value) */\n      swap1\n      dup2\n      iszero\n      mul\n      swap1\n      mload(0x40)\n      0x00\n      mload(0x40)\n      dup1\n      dup4\n      sub\n      dup2\n      dup6\n      dup9\n      dup9\n      call\n      swap4\n      pop\n      pop\n      pop\n      pop\n      iszero\n      dup1\n      iszero\n      tag_119\n      jumpi\n      returndatasize\n      0x00\n      dup1\n      returndatacopy\n      revert(0x00, returndatasize)\n    tag_119:\n      pop\n        /* \"crowdsale/crowdsale.sol\":8078:8166  function _forwardFunds() internal virtual {... */\n      jump\t// out\n        /* \"crowdsale/crowdsale.sol\":6155:6314  function _postValidatePurchase(address beneficiary, uint256 weiAmount) internal virtual view {... */\n    tag_73:\n      pop\n      pop\n      jump\t// out\n        /* \"@openzeppelin/contracts/security/ReentrancyGuard.sol\":2629:2838  function _nonReentrantAfter() private {... */\n    tag_75:\n        /* \"@openzeppelin/contracts/security/ReentrancyGuard.sol\":1716:1717  1 */\n      0x01\n        /* \"@openzeppelin/contracts/security/ReentrancyGuard.sol\":2809:2816  _status */\n      0x00\n        /* \"@openzeppelin/contracts/security/ReentrancyGuard.sol\":2809:2831  _status = _NOT_ENTERED */\n      dup2\n      swap1\n      sstore\n      pop\n        /* \"@openzeppelin/contracts/security/ReentrancyGuard.sol\":2629:2838  function _nonReentrantAfter() private {... */\n      jump\t// out\n        /* \"@openzeppelin/contracts/utils/math/Math.sol\":588:692  function min(uint256 a, uint256 b) internal pure returns (uint256) {... */\n    tag_93:\n        /* \"@openzeppelin/contracts/utils/math/Math.sol\":646:653  uint256 */\n      0x00\n        /* \"@openzeppelin/contracts/utils/math/Math.sol\":676:677  b */\n      dup2\n        /* \"@openzeppelin/contracts/utils/math/Math.sol\":672:673  a */\n      dup4\n        /* \"@openzeppelin/contracts/utils/math/Math.sol\":672:677  a < b */\n      lt\n        /* \"@openzeppelin/contracts/utils/math/Math.sol\":672:685  a < b ? a : b */\n      tag_123\n      jumpi\n        /* \"@openzeppelin/contracts/utils/math/Math.sol\":684:685  b */\n      dup2\n        /* \"@openzeppelin/contracts/utils/math/Math.sol\":672:685  a < b ? a : b */\n      jump(tag_124)\n    tag_123:\n        /* \"@openzeppelin/contracts/utils/math/Math.sol\":680:681  a */\n      dup3\n        /* \"@openzeppelin/contracts/utils/math/Math.sol\":672:685  a < b ? a : b */\n    tag_124:\n        /* \"@openzeppelin/contracts/utils/math/Math.sol\":665:685  return a < b ? a : b */\n      swap1\n      pop\n        /* \"@openzeppelin/contracts/utils/math/Math.sol\":588:692  function min(uint256 a, uint256 b) internal pure returns (uint256) {... */\n      swap3\n      swap2\n      pop\n      pop\n      jump\t// out\n        /* \"@openzeppelin/contracts/utils/math/SafeMath.sol\":3465:3561  function mul(uint256 a, uint256 b) internal pure returns (uint256) {... */\n    tag_109:\n        /* \"@openzeppelin/contracts/utils/math/SafeMath.sol\":3523:3530  uint256 */\n      0x00\n        /* \"@openzeppelin/contracts/utils/math/SafeMath.sol\":3553:3554  b */\n      dup2\n        /* \"@openzeppelin/contracts/utils/math/SafeMath.sol\":3549:3550  a */\n      dup4\n        /* \"@openzeppelin/contracts/utils/math/SafeMath.sol\":3549:3554  a * b */\n      tag_126\n      swap2\n      swap1\n      tag_127\n      jump\t// in\n    tag_126:\n        /* \"@openzeppelin/contracts/utils/math/SafeMath.sol\":3542:3554  return a * b */\n      swap1\n      pop\n        /* \"@openzeppelin/contracts/utils/math/SafeMath.sol\":3465:3561  function mul(uint256 a, uint256 b) internal pure returns (uint256) {... */\n      swap3\n      swap2\n      pop\n      pop\n      jump\t// out\n        /* \"crowdsale/emission/allowanceCrowdsale.sol\":1941:2109  function _deliverTokens(address beneficiary, uint256 tokenAmount) internal override  {... */\n    tag_115:\n        /* \"crowdsale/emission/allowanceCrowdsale.sol\":2037:2101  token().safeTransferFrom(_tokenWallet, beneficiary, tokenAmount) */\n      tag_129\n        /* \"crowdsale/emission/allowanceCrowdsale.sol\":2062:2074  _tokenWallet */\n      0x05\n      0x00\n      swap1\n      sload\n      swap1\n      0x0100\n      exp\n      swap1\n      div\n      0xffffffffffffffffffffffffffffffffffffffff\n      and\n        /* \"crowdsale/emission/allowanceCrowdsale.sol\":2076:2087  beneficiary */\n      dup4\n        /* \"crowdsale/emission/allowanceCrowdsale.sol\":2089:2100  tokenAmount */\n      dup4\n        /* \"crowdsale/emission/allowanceCrowdsale.sol\":2037:2044  token() */\n      tag_130\n        /* \"crowdsale/emission/allowanceCrowdsale.sol\":2037:2042  token */\n      tag_49\n        /* \"crowdsale/emission/allowanceCrowdsale.sol\":2037:2044  token() */\n      jump\t// in\n    tag_130:\n        /* \"crowdsale/emission/allowanceCrowdsale.sol\":2037:2061  token().safeTransferFrom */\n      0xffffffffffffffffffffffffffffffffffffffff\n      and\n      tag_131\n      swap1\n        /* \"crowdsale/emission/allowanceCrowdsale.sol\":2037:2101  token().safeTransferFrom(_tokenWallet, beneficiary, tokenAmount) */\n      swap4\n      swap3\n      swap2\n      swap1\n      0xffffffff\n      and\n      jump\t// in\n    tag_129:\n        /* \"crowdsale/emission/allowanceCrowdsale.sol\":1941:2109  function _deliverTokens(address beneficiary, uint256 tokenAmount) internal override  {... */\n      pop\n      pop\n      jump\t// out\n        /* \"@openzeppelin/contracts/token/ERC20/utils/SafeERC20.sol\":1355:1558  function safeTransferFrom(IERC20 token, address from, address to, uint256 value) internal {... */\n    tag_131:\n        /* \"@openzeppelin/contracts/token/ERC20/utils/SafeERC20.sol\":1455:1551  _callOptionalReturn(token, abi.encodeWithSelector(token.transferFrom.selector, from, to, value)) */\n      tag_133\n        /* \"@openzeppelin/contracts/token/ERC20/utils/SafeERC20.sol\":1475:1480  token */\n      dup5\n        /* \"@openzeppelin/contracts/token/ERC20/utils/SafeERC20.sol\":1505:1532  token.transferFrom.selector */\n      shl(0xe0, 0x23b872dd)\n        /* \"@openzeppelin/contracts/token/ERC20/utils/SafeERC20.sol\":1534:1538  from */\n      dup6\n        /* \"@openzeppelin/contracts/token/ERC20/utils/SafeERC20.sol\":1540:1542  to */\n      dup6\n        /* \"@openzeppelin/contracts/token/ERC20/utils/SafeERC20.sol\":1544:1549  value */\n      dup6\n        /* \"@openzeppelin/contracts/token/ERC20/utils/SafeERC20.sol\":1482:1550  abi.encodeWithSelector(token.transferFrom.selector, from, to, value) */\n      add(0x24, mload(0x40))\n      tag_134\n      swap4\n      swap3\n      swap2\n      swap1\n      tag_135\n      jump\t// in\n    tag_134:\n      mload(0x40)\n      0x20\n      dup2\n      dup4\n      sub\n      sub\n      dup2\n      mstore\n      swap1\n      0x40\n      mstore\n      swap1\n      not(0xffffffffffffffffffffffffffffffffffffffffffffffffffffffff)\n      and\n      0x20\n      dup3\n      add\n      dup1\n      mload\n      0xffffffffffffffffffffffffffffffffffffffffffffffffffffffff\n      dup4\n      dup2\n      dup4\n      and\n      or\n      dup4\n      mstore\n      pop\n      pop\n      pop\n      pop\n        /* \"@openzeppelin/contracts/token/ERC20/utils/SafeERC20.sol\":1455:1474  _callOptionalReturn */\n      tag_136\n        /* \"@openzeppelin/contracts/token/ERC20/utils/SafeERC20.sol\":1455:1551  _callOptionalReturn(token, abi.encodeWithSelector(token.transferFrom.selector, from, to, value)) */\n      jump\t// in\n    tag_133:\n        /* \"@openzeppelin/contracts/token/ERC20/utils/SafeERC20.sol\":1355:1558  function safeTransferFrom(IERC20 token, address from, address to, uint256 value) internal {... */\n      pop\n      pop\n      pop\n      pop\n      jump\t// out\n        /* \"@openzeppelin/contracts/token/ERC20/utils/SafeERC20.sol\":5196:5838  function _callOptionalReturn(IERC20 token, bytes memory data) private {... */\n    tag_136:\n        /* \"@openzeppelin/contracts/token/ERC20/utils/SafeERC20.sol\":5615:5638  bytes memory returndata */\n      0x00\n        /* \"@openzeppelin/contracts/token/ERC20/utils/SafeERC20.sol\":5641:5710  address(token).functionCall(data, \"SafeERC20: low-level call failed\") */\n      tag_138\n        /* \"@openzeppelin/contracts/token/ERC20/utils/SafeERC20.sol\":5669:5673  data */\n      dup3\n        /* \"@openzeppelin/contracts/token/ERC20/utils/SafeERC20.sol\":5641:5710  address(token).functionCall(data, \"SafeERC20: low-level call failed\") */\n      mload(0x40)\n      dup1\n      0x40\n      add\n      0x40\n      mstore\n      dup1\n      0x20\n      dup2\n      mstore\n      0x20\n      add\n      0x5361666545524332303a206c6f772d6c6576656c2063616c6c206661696c6564\n      dup2\n      mstore\n      pop\n        /* \"@openzeppelin/contracts/token/ERC20/utils/SafeERC20.sol\":5649:5654  token */\n      dup6\n        /* \"@openzeppelin/contracts/token/ERC20/utils/SafeERC20.sol\":5641:5668  address(token).functionCall */\n      0xffffffffffffffffffffffffffffffffffffffff\n      and\n      tag_139\n      swap1\n        /* \"@openzeppelin/contracts/token/ERC20/utils/SafeERC20.sol\":5641:5710  address(token).functionCall(data, \"SafeERC20: low-level call failed\") */\n      swap3\n      swap2\n      swap1\n      0xffffffff\n      and\n      jump\t// in\n    tag_138:\n        /* \"@openzeppelin/contracts/token/ERC20/utils/SafeERC20.sol\":5615:5710  bytes memory returndata = address(token).functionCall(data, \"SafeERC20: low-level call failed\") */\n      swap1\n      pop\n        /* \"@openzeppelin/contracts/token/ERC20/utils/SafeERC20.sol\":5749:5750  0 */\n      0x00\n        /* \"@openzeppelin/contracts/token/ERC20/utils/SafeERC20.sol\":5728:5738  returndata */\n      dup2\n        /* \"@openzeppelin/contracts/token/ERC20/utils/SafeERC20.sol\":5728:5745  returndata.length */\n      mload\n        /* \"@openzeppelin/contracts/token/ERC20/utils/SafeERC20.sol\":5728:5750  returndata.length == 0 */\n      eq\n        /* \"@openzeppelin/contracts/token/ERC20/utils/SafeERC20.sol\":5728:5784  returndata.length == 0 || abi.decode(returndata, (bool)) */\n      dup1\n      tag_140\n      jumpi\n      pop\n        /* \"@openzeppelin/contracts/token/ERC20/utils/SafeERC20.sol\":5765:5775  returndata */\n      dup1\n        /* \"@openzeppelin/contracts/token/ERC20/utils/SafeERC20.sol\":5754:5784  abi.decode(returndata, (bool)) */\n      dup1\n      0x20\n      add\n      swap1\n      mload\n      dup2\n      add\n      swap1\n      tag_141\n      swap2\n      swap1\n      tag_142\n      jump\t// in\n    tag_141:\n        /* \"@openzeppelin/contracts/token/ERC20/utils/SafeERC20.sol\":5728:5784  returndata.length == 0 || abi.decode(returndata, (bool)) */\n    tag_140:\n        /* \"@openzeppelin/contracts/token/ERC20/utils/SafeERC20.sol\":5720:5831  require(returndata.length == 0 || abi.decode(returndata, (bool)), \"SafeERC20: ERC20 operation did not succeed\") */\n      tag_143\n      jumpi\n      mload(0x40)\n      0x08c379a000000000000000000000000000000000000000000000000000000000\n      dup2\n      mstore\n      0x04\n      add\n      tag_144\n      swap1\n      tag_145\n      jump\t// in\n    tag_144:\n      mload(0x40)\n      dup1\n      swap2\n      sub\n      swap1\n      revert\n    tag_143:\n        /* \"@openzeppelin/contracts/token/ERC20/utils/SafeERC20.sol\":5266:5838  {... */\n      pop\n        /* \"@openzeppelin/contracts/token/ERC20/utils/SafeERC20.sol\":5196:5838  function _callOptionalReturn(IERC20 token, bytes memory data) private {... */\n      pop\n      pop\n      jump\t// out\n        /* \"@openzeppelin/contracts/utils/Address.sol\":4108:4331  function functionCall(... */\n    tag_139:\n        /* \"@openzeppelin/contracts/utils/Address.sol\":4241:4253  bytes memory */\n      0x60\n        /* \"@openzeppelin/contracts/utils/Address.sol\":4272:4324  functionCallWithValue(target, data, 0, errorMessage) */\n      tag_147\n        /* \"@openzeppelin/contracts/utils/Address.sol\":4294:4300  target */\n      dup5\n        /* \"@openzeppelin/contracts/utils/Address.sol\":4302:4306  data */\n      dup5\n        /* \"@openzeppelin/contracts/utils/Address.sol\":4308:4309  0 */\n      0x00\n        /* \"@openzeppelin/contracts/utils/Address.sol\":4311:4323  errorMessage */\n      dup6\n        /* \"@openzeppelin/contracts/utils/Address.sol\":4272:4293  functionCallWithValue */\n      tag_148\n        /* \"@openzeppelin/contracts/utils/Address.sol\":4272:4324  functionCallWithValue(target, data, 0, errorMessage) */\n      jump\t// in\n    tag_147:\n        /* \"@openzeppelin/contracts/utils/Address.sol\":4265:4324  return functionCallWithValue(target, data, 0, errorMessage) */\n      swap1\n      pop\n        /* \"@openzeppelin/contracts/utils/Address.sol\":4108:4331  function functionCall(... */\n      swap4\n      swap3\n      pop\n      pop\n      pop\n      jump\t// out\n        /* \"@openzeppelin/contracts/utils/Address.sol\":5165:5611  function functionCallWithValue(... */\n    tag_148:\n        /* \"@openzeppelin/contracts/utils/Address.sol\":5330:5342  bytes memory */\n      0x60\n        /* \"@openzeppelin/contracts/utils/Address.sol\":5387:5392  value */\n      dup3\n        /* \"@openzeppelin/contracts/utils/Address.sol\":5362:5383  address(this).balance */\n      selfbalance\n        /* \"@openzeppelin/contracts/utils/Address.sol\":5362:5392  address(this).balance >= value */\n      lt\n      iszero\n        /* \"@openzeppelin/contracts/utils/Address.sol\":5354:5435  require(address(this).balance >= value, \"Address: insufficient balance for call\") */\n      tag_150\n      jumpi\n      mload(0x40)\n      0x08c379a000000000000000000000000000000000000000000000000000000000\n      dup2\n      mstore\n      0x04\n      add\n      tag_151\n      swap1\n      tag_152\n      jump\t// in\n    tag_151:\n      mload(0x40)\n      dup1\n      swap2\n      sub\n      swap1\n      revert\n    tag_150:\n        /* \"@openzeppelin/contracts/utils/Address.sol\":5446:5458  bool success */\n      0x00\n        /* \"@openzeppelin/contracts/utils/Address.sol\":5460:5483  bytes memory returndata */\n      dup1\n        /* \"@openzeppelin/contracts/utils/Address.sol\":5487:5493  target */\n      dup7\n        /* \"@openzeppelin/contracts/utils/Address.sol\":5487:5498  target.call */\n      0xffffffffffffffffffffffffffffffffffffffff\n      and\n        /* \"@openzeppelin/contracts/utils/Address.sol\":5506:5511  value */\n      dup6\n        /* \"@openzeppelin/contracts/utils/Address.sol\":5513:5517  data */\n      dup8\n        /* \"@openzeppelin/contracts/utils/Address.sol\":5487:5518  target.call{value: value}(data) */\n      mload(0x40)\n      tag_153\n      swap2\n      swap1\n      tag_154\n      jump\t// in\n    tag_153:\n      0x00\n      mload(0x40)\n      dup1\n      dup4\n      sub\n      dup2\n      dup6\n      dup8\n      gas\n      call\n      swap3\n      pop\n      pop\n      pop\n      returndatasize\n      dup1\n      0x00\n      dup2\n      eq\n      tag_157\n      jumpi\n      mload(0x40)\n      swap2\n      pop\n      and(add(returndatasize, 0x3f), not(0x1f))\n      dup3\n      add\n      0x40\n      mstore\n      returndatasize\n      dup3\n      mstore\n      returndatasize\n      0x00\n      0x20\n      dup5\n      add\n      returndatacopy\n      jump(tag_156)\n    tag_157:\n      0x60\n      swap2\n      pop\n    tag_156:\n      pop\n        /* \"@openzeppelin/contracts/utils/Address.sol\":5445:5518  (bool success, bytes memory returndata) = target.call{value: value}(data) */\n      swap2\n      pop\n      swap2\n      pop\n        /* \"@openzeppelin/contracts/utils/Address.sol\":5535:5604  verifyCallResultFromTarget(target, success, returndata, errorMessage) */\n      tag_158\n        /* \"@openzeppelin/contracts/utils/Address.sol\":5562:5568  target */\n      dup8\n        /* \"@openzeppelin/contracts/utils/Address.sol\":5570:5577  success */\n      dup4\n        /* \"@openzeppelin/contracts/utils/Address.sol\":5579:5589  returndata */\n      dup4\n        /* \"@openzeppelin/contracts/utils/Address.sol\":5591:5603  errorMessage */\n      dup8\n        /* \"@openzeppelin/contracts/utils/Address.sol\":5535:5561  verifyCallResultFromTarget */\n      tag_159\n        /* \"@openzeppelin/contracts/utils/Address.sol\":5535:5604  verifyCallResultFromTarget(target, success, returndata, errorMessage) */\n      jump\t// in\n    tag_158:\n        /* \"@openzeppelin/contracts/utils/Address.sol\":5528:5604  return verifyCallResultFromTarget(target, success, returndata, errorMessage) */\n      swap3\n      pop\n      pop\n      pop\n        /* \"@openzeppelin/contracts/utils/Address.sol\":5165:5611  function functionCallWithValue(... */\n      swap5\n      swap4\n      pop\n      pop\n      pop\n      pop\n      jump\t// out\n        /* \"@openzeppelin/contracts/utils/Address.sol\":7671:8299  function verifyCallResultFromTarget(... */\n    tag_159:\n        /* \"@openzeppelin/contracts/utils/Address.sol\":7851:7863  bytes memory */\n      0x60\n        /* \"@openzeppelin/contracts/utils/Address.sol\":7879:7886  success */\n      dup4\n        /* \"@openzeppelin/contracts/utils/Address.sol\":7875:8293  if (success) {... */\n      iszero\n      tag_161\n      jumpi\n        /* \"@openzeppelin/contracts/utils/Address.sol\":7927:7928  0 */\n      0x00\n        /* \"@openzeppelin/contracts/utils/Address.sol\":7906:7916  returndata */\n      dup4\n        /* \"@openzeppelin/contracts/utils/Address.sol\":7906:7923  returndata.length */\n      mload\n        /* \"@openzeppelin/contracts/utils/Address.sol\":7906:7928  returndata.length == 0 */\n      sub\n        /* \"@openzeppelin/contracts/utils/Address.sol\":7902:8188  if (returndata.length == 0) {... */\n      tag_162\n      jumpi\n        /* \"@openzeppelin/contracts/utils/Address.sol\":8121:8139  isContract(target) */\n      tag_163\n        /* \"@openzeppelin/contracts/utils/Address.sol\":8132:8138  target */\n      dup6\n        /* \"@openzeppelin/contracts/utils/Address.sol\":8121:8131  isContract */\n      tag_164\n        /* \"@openzeppelin/contracts/utils/Address.sol\":8121:8139  isContract(target) */\n      jump\t// in\n    tag_163:\n        /* \"@openzeppelin/contracts/utils/Address.sol\":8113:8173  require(isContract(target), \"Address: call to non-contract\") */\n      tag_165\n      jumpi\n      mload(0x40)\n      0x08c379a000000000000000000000000000000000000000000000000000000000\n      dup2\n      mstore\n      0x04\n      add\n      tag_166\n      swap1\n      tag_167\n      jump\t// in\n    tag_166:\n      mload(0x40)\n      dup1\n      swap2\n      sub\n      swap1\n      revert\n    tag_165:\n        /* \"@openzeppelin/contracts/utils/Address.sol\":7902:8188  if (returndata.length == 0) {... */\n    tag_162:\n        /* \"@openzeppelin/contracts/utils/Address.sol\":8208:8218  returndata */\n      dup3\n        /* \"@openzeppelin/contracts/utils/Address.sol\":8201:8218  return returndata */\n      swap1\n      pop\n      jump(tag_160)\n        /* \"@openzeppelin/contracts/utils/Address.sol\":7875:8293  if (success) {... */\n    tag_161:\n        /* \"@openzeppelin/contracts/utils/Address.sol\":8249:8282  _revert(returndata, errorMessage) */\n      tag_169\n        /* \"@openzeppelin/contracts/utils/Address.sol\":8257:8267  returndata */\n      dup4\n        /* \"@openzeppelin/contracts/utils/Address.sol\":8269:8281  errorMessage */\n      dup4\n        /* \"@openzeppelin/contracts/utils/Address.sol\":8249:8256  _revert */\n      tag_170\n        /* \"@openzeppelin/contracts/utils/Address.sol\":8249:8282  _revert(returndata, errorMessage) */\n      jump\t// in\n    tag_169:\n        /* \"@openzeppelin/contracts/utils/Address.sol\":7671:8299  function verifyCallResultFromTarget(... */\n    tag_160:\n      swap5\n      swap4\n      pop\n      pop\n      pop\n      pop\n      jump\t// out\n        /* \"@openzeppelin/contracts/utils/Address.sol\":1412:1732  function isContract(address account) internal view returns (bool) {... */\n    tag_164:\n        /* \"@openzeppelin/contracts/utils/Address.sol\":1472:1476  bool */\n      0x00\n        /* \"@openzeppelin/contracts/utils/Address.sol\":1724:1725  0 */\n      dup1\n        /* \"@openzeppelin/contracts/utils/Address.sol\":1702:1709  account */\n      dup3\n        /* \"@openzeppelin/contracts/utils/Address.sol\":1702:1721  account.code.length */\n      0xffffffffffffffffffffffffffffffffffffffff\n      and\n      extcodesize\n        /* \"@openzeppelin/contracts/utils/Address.sol\":1702:1725  account.code.length > 0 */\n      gt\n        /* \"@openzeppelin/contracts/utils/Address.sol\":1695:1725  return account.code.length > 0 */\n      swap1\n      pop\n        /* \"@openzeppelin/contracts/utils/Address.sol\":1412:1732  function isContract(address account) internal view returns (bool) {... */\n      swap2\n      swap1\n      pop\n      jump\t// out\n        /* \"@openzeppelin/contracts/utils/Address.sol\":8821:9361  function _revert(bytes memory returndata, string memory errorMessage) private pure {... */\n    tag_170:\n        /* \"@openzeppelin/contracts/utils/Address.sol\":9000:9001  0 */\n      0x00\n        /* \"@openzeppelin/contracts/utils/Address.sol\":8980:8990  returndata */\n      dup3\n        /* \"@openzeppelin/contracts/utils/Address.sol\":8980:8997  returndata.length */\n      mload\n        /* \"@openzeppelin/contracts/utils/Address.sol\":8980:9001  returndata.length > 0 */\n      gt\n        /* \"@openzeppelin/contracts/utils/Address.sol\":8976:9355  if (returndata.length > 0) {... */\n      iszero\n      tag_173\n      jumpi\n        /* \"@openzeppelin/contracts/utils/Address.sol\":9208:9218  returndata */\n      dup2\n        /* \"@openzeppelin/contracts/utils/Address.sol\":9202:9219  mload(returndata) */\n      mload\n        /* \"@openzeppelin/contracts/utils/Address.sol\":9264:9279  returndata_size */\n      dup1\n        /* \"@openzeppelin/contracts/utils/Address.sol\":9251:9261  returndata */\n      dup4\n        /* \"@openzeppelin/contracts/utils/Address.sol\":9247:9249  32 */\n      0x20\n        /* \"@openzeppelin/contracts/utils/Address.sol\":9243:9262  add(32, returndata) */\n      add\n        /* \"@openzeppelin/contracts/utils/Address.sol\":9236:9280  revert(add(32, returndata), returndata_size) */\n      revert\n        /* \"@openzeppelin/contracts/utils/Address.sol\":8976:9355  if (returndata.length > 0) {... */\n    tag_173:\n        /* \"@openzeppelin/contracts/utils/Address.sol\":9331:9343  errorMessage */\n      dup1\n        /* \"@openzeppelin/contracts/utils/Address.sol\":9324:9344  revert(errorMessage) */\n      mload(0x40)\n      0x08c379a000000000000000000000000000000000000000000000000000000000\n      dup2\n      mstore\n      0x04\n      add\n      tag_175\n      swap2\n      swap1\n      tag_176\n      jump\t// in\n    tag_175:\n      mload(0x40)\n      dup1\n      swap2\n      sub\n      swap1\n      revert\n        /* \"#utility.yul\":7:84   */\n    tag_177:\n        /* \"#utility.yul\":44:51   */\n      0x00\n        /* \"#utility.yul\":73:78   */\n      dup2\n        /* \"#utility.yul\":62:78   */\n      swap1\n      pop\n        /* \"#utility.yul\":7:84   */\n      swap2\n      swap1\n      pop\n      jump\t// out\n        /* \"#utility.yul\":90:208   */\n    tag_178:\n        /* \"#utility.yul\":177:201   */\n      tag_223\n        /* \"#utility.yul\":195:200   */\n      dup2\n        /* \"#utility.yul\":177:201   */\n      tag_177\n      jump\t// in\n    tag_223:\n        /* \"#utility.yul\":172:175   */\n      dup3\n        /* \"#utility.yul\":165:202   */\n      mstore\n        /* \"#utility.yul\":90:208   */\n      pop\n      pop\n      jump\t// out\n        /* \"#utility.yul\":214:436   */\n    tag_25:\n        /* \"#utility.yul\":307:311   */\n      0x00\n        /* \"#utility.yul\":345:347   */\n      0x20\n        /* \"#utility.yul\":334:343   */\n      dup3\n        /* \"#utility.yul\":330:348   */\n      add\n        /* \"#utility.yul\":322:348   */\n      swap1\n      pop\n        /* \"#utility.yul\":358:429   */\n      tag_225\n        /* \"#utility.yul\":426:427   */\n      0x00\n        /* \"#utility.yul\":415:424   */\n      dup4\n        /* \"#utility.yul\":411:428   */\n      add\n        /* \"#utility.yul\":402:408   */\n      dup5\n        /* \"#utility.yul\":358:429   */\n      tag_178\n      jump\t// in\n    tag_225:\n        /* \"#utility.yul\":214:436   */\n      swap3\n      swap2\n      pop\n      pop\n      jump\t// out\n        /* \"#utility.yul\":442:568   */\n    tag_179:\n        /* \"#utility.yul\":479:486   */\n      0x00\n        /* \"#utility.yul\":519:561   */\n      0xffffffffffffffffffffffffffffffffffffffff\n        /* \"#utility.yul\":512:517   */\n      dup3\n        /* \"#utility.yul\":508:562   */\n      and\n        /* \"#utility.yul\":497:562   */\n      swap1\n      pop\n        /* \"#utility.yul\":442:568   */\n      swap2\n      swap1\n      pop\n      jump\t// out\n        /* \"#utility.yul\":574:678   */\n    tag_180:\n        /* \"#utility.yul\":619:626   */\n      0x00\n        /* \"#utility.yul\":648:672   */\n      tag_228\n        /* \"#utility.yul\":666:671   */\n      dup3\n        /* \"#utility.yul\":648:672   */\n      tag_179\n      jump\t// in\n    tag_228:\n        /* \"#utility.yul\":637:672   */\n      swap1\n      pop\n        /* \"#utility.yul\":574:678   */\n      swap2\n      swap1\n      pop\n      jump\t// out\n        /* \"#utility.yul\":684:826   */\n    tag_181:\n        /* \"#utility.yul\":787:819   */\n      tag_230\n        /* \"#utility.yul\":813:818   */\n      dup2\n        /* \"#utility.yul\":787:819   */\n      tag_180\n      jump\t// in\n    tag_230:\n        /* \"#utility.yul\":782:785   */\n      dup3\n        /* \"#utility.yul\":775:820   */\n      mstore\n        /* \"#utility.yul\":684:826   */\n      pop\n      pop\n      jump\t// out\n        /* \"#utility.yul\":832:1086   */\n    tag_34:\n        /* \"#utility.yul\":941:945   */\n      0x00\n        /* \"#utility.yul\":979:981   */\n      0x20\n        /* \"#utility.yul\":968:977   */\n      dup3\n        /* \"#utility.yul\":964:982   */\n      add\n        /* \"#utility.yul\":956:982   */\n      swap1\n      pop\n        /* \"#utility.yul\":992:1079   */\n      tag_232\n        /* \"#utility.yul\":1076:1077   */\n      0x00\n        /* \"#utility.yul\":1065:1074   */\n      dup4\n        /* \"#utility.yul\":1061:1078   */\n      add\n        /* \"#utility.yul\":1052:1058   */\n      dup5\n        /* \"#utility.yul\":992:1079   */\n      tag_181\n      jump\t// in\n    tag_232:\n        /* \"#utility.yul\":832:1086   */\n      swap3\n      swap2\n      pop\n      pop\n      jump\t// out\n        /* \"#utility.yul\":1092:1188   */\n    tag_182:\n        /* \"#utility.yul\":1129:1136   */\n      0x00\n        /* \"#utility.yul\":1158:1182   */\n      tag_234\n        /* \"#utility.yul\":1176:1181   */\n      dup3\n        /* \"#utility.yul\":1158:1182   */\n      tag_179\n      jump\t// in\n    tag_234:\n        /* \"#utility.yul\":1147:1182   */\n      swap1\n      pop\n        /* \"#utility.yul\":1092:1188   */\n      swap2\n      swap1\n      pop\n      jump\t// out\n        /* \"#utility.yul\":1194:1312   */\n    tag_183:\n        /* \"#utility.yul\":1281:1305   */\n      tag_236\n        /* \"#utility.yul\":1299:1304   */\n      dup2\n        /* \"#utility.yul\":1281:1305   */\n      tag_182\n      jump\t// in\n    tag_236:\n        /* \"#utility.yul\":1276:1279   */\n      dup3\n        /* \"#utility.yul\":1269:1306   */\n      mstore\n        /* \"#utility.yul\":1194:1312   */\n      pop\n      pop\n      jump\t// out\n        /* \"#utility.yul\":1318:1540   */\n    tag_43:\n        /* \"#utility.yul\":1411:1415   */\n      0x00\n        /* \"#utility.yul\":1449:1451   */\n      0x20\n        /* \"#utility.yul\":1438:1447   */\n      dup3\n        /* \"#utility.yul\":1434:1452   */\n      add\n        /* \"#utility.yul\":1426:1452   */\n      swap1\n      pop\n        /* \"#utility.yul\":1462:1533   */\n      tag_238\n        /* \"#utility.yul\":1530:1531   */\n      0x00\n        /* \"#utility.yul\":1519:1528   */\n      dup4\n        /* \"#utility.yul\":1515:1532   */\n      add\n        /* \"#utility.yul\":1506:1512   */\n      dup5\n        /* \"#utility.yul\":1462:1533   */\n      tag_183\n      jump\t// in\n    tag_238:\n        /* \"#utility.yul\":1318:1540   */\n      swap3\n      swap2\n      pop\n      pop\n      jump\t// out\n        /* \"#utility.yul\":1627:1744   */\n    tag_185:\n        /* \"#utility.yul\":1736:1737   */\n      0x00\n        /* \"#utility.yul\":1733:1734   */\n      dup1\n        /* \"#utility.yul\":1726:1738   */\n      revert\n        /* \"#utility.yul\":1873:1995   */\n    tag_187:\n        /* \"#utility.yul\":1946:1970   */\n      tag_243\n        /* \"#utility.yul\":1964:1969   */\n      dup2\n        /* \"#utility.yul\":1946:1970   */\n      tag_182\n      jump\t// in\n    tag_243:\n        /* \"#utility.yul\":1939:1944   */\n      dup2\n        /* \"#utility.yul\":1936:1971   */\n      eq\n        /* \"#utility.yul\":1926:1989   */\n      tag_244\n      jumpi\n        /* \"#utility.yul\":1985:1986   */\n      0x00\n        /* \"#utility.yul\":1982:1983   */\n      dup1\n        /* \"#utility.yul\":1975:1987   */\n      revert\n        /* \"#utility.yul\":1926:1989   */\n    tag_244:\n        /* \"#utility.yul\":1873:1995   */\n      pop\n      jump\t// out\n        /* \"#utility.yul\":2001:2140   */\n    tag_188:\n        /* \"#utility.yul\":2047:2052   */\n      0x00\n        /* \"#utility.yul\":2085:2091   */\n      dup2\n        /* \"#utility.yul\":2072:2092   */\n      calldataload\n        /* \"#utility.yul\":2063:2092   */\n      swap1\n      pop\n        /* \"#utility.yul\":2101:2134   */\n      tag_246\n        /* \"#utility.yul\":2128:2133   */\n      dup2\n        /* \"#utility.yul\":2101:2134   */\n      tag_187\n      jump\t// in\n    tag_246:\n        /* \"#utility.yul\":2001:2140   */\n      swap3\n      swap2\n      pop\n      pop\n      jump\t// out\n        /* \"#utility.yul\":2146:2475   */\n    tag_46:\n        /* \"#utility.yul\":2205:2211   */\n      0x00\n        /* \"#utility.yul\":2254:2256   */\n      0x20\n        /* \"#utility.yul\":2242:2251   */\n      dup3\n        /* \"#utility.yul\":2233:2240   */\n      dup5\n        /* \"#utility.yul\":2229:2252   */\n      sub\n        /* \"#utility.yul\":2225:2257   */\n      slt\n        /* \"#utility.yul\":2222:2341   */\n      iszero\n      tag_248\n      jumpi\n        /* \"#utility.yul\":2260:2339   */\n      tag_249\n      tag_185\n      jump\t// in\n    tag_249:\n        /* \"#utility.yul\":2222:2341   */\n    tag_248:\n        /* \"#utility.yul\":2380:2381   */\n      0x00\n        /* \"#utility.yul\":2405:2458   */\n      tag_250\n        /* \"#utility.yul\":2450:2457   */\n      dup5\n        /* \"#utility.yul\":2441:2447   */\n      dup3\n        /* \"#utility.yul\":2430:2439   */\n      dup6\n        /* \"#utility.yul\":2426:2448   */\n      add\n        /* \"#utility.yul\":2405:2458   */\n      tag_188\n      jump\t// in\n    tag_250:\n        /* \"#utility.yul\":2395:2458   */\n      swap2\n      pop\n        /* \"#utility.yul\":2351:2468   */\n      pop\n        /* \"#utility.yul\":2146:2475   */\n      swap3\n      swap2\n      pop\n      pop\n      jump\t// out\n        /* \"#utility.yul\":2481:2541   */\n    tag_189:\n        /* \"#utility.yul\":2509:2512   */\n      0x00\n        /* \"#utility.yul\":2530:2535   */\n      dup2\n        /* \"#utility.yul\":2523:2535   */\n      swap1\n      pop\n        /* \"#utility.yul\":2481:2541   */\n      swap2\n      swap1\n      pop\n      jump\t// out\n        /* \"#utility.yul\":2547:2689   */\n    tag_190:\n        /* \"#utility.yul\":2597:2606   */\n      0x00\n        /* \"#utility.yul\":2630:2683   */\n      tag_253\n        /* \"#utility.yul\":2648:2682   */\n      tag_254\n        /* \"#utility.yul\":2657:2681   */\n      tag_255\n        /* \"#utility.yul\":2675:2680   */\n      dup5\n        /* \"#utility.yul\":2657:2681   */\n      tag_179\n      jump\t// in\n    tag_255:\n        /* \"#utility.yul\":2648:2682   */\n      tag_189\n      jump\t// in\n    tag_254:\n        /* \"#utility.yul\":2630:2683   */\n      tag_179\n      jump\t// in\n    tag_253:\n        /* \"#utility.yul\":2617:2683   */\n      swap1\n      pop\n        /* \"#utility.yul\":2547:2689   */\n      swap2\n      swap1\n      pop\n      jump\t// out\n        /* \"#utility.yul\":2695:2821   */\n    tag_191:\n        /* \"#utility.yul\":2745:2754   */\n      0x00\n        /* \"#utility.yul\":2778:2815   */\n      tag_257\n        /* \"#utility.yul\":2809:2814   */\n      dup3\n        /* \"#utility.yul\":2778:2815   */\n      tag_190\n      jump\t// in\n    tag_257:\n        /* \"#utility.yul\":2765:2815   */\n      swap1\n      pop\n        /* \"#utility.yul\":2695:2821   */\n      swap2\n      swap1\n      pop\n      jump\t// out\n        /* \"#utility.yul\":2827:2967   */\n    tag_192:\n        /* \"#utility.yul\":2891:2900   */\n      0x00\n        /* \"#utility.yul\":2924:2961   */\n      tag_259\n        /* \"#utility.yul\":2955:2960   */\n      dup3\n        /* \"#utility.yul\":2924:2961   */\n      tag_191\n      jump\t// in\n    tag_259:\n        /* \"#utility.yul\":2911:2961   */\n      swap1\n      pop\n        /* \"#utility.yul\":2827:2967   */\n      swap2\n      swap1\n      pop\n      jump\t// out\n        /* \"#utility.yul\":2973:3132   */\n    tag_193:\n        /* \"#utility.yul\":3074:3125   */\n      tag_261\n        /* \"#utility.yul\":3119:3124   */\n      dup2\n        /* \"#utility.yul\":3074:3125   */\n      tag_192\n      jump\t// in\n    tag_261:\n        /* \"#utility.yul\":3069:3072   */\n      dup3\n        /* \"#utility.yul\":3062:3126   */\n      mstore\n        /* \"#utility.yul\":2973:3132   */\n      pop\n      pop\n      jump\t// out\n        /* \"#utility.yul\":3138:3388   */\n    tag_51:\n        /* \"#utility.yul\":3245:3249   */\n      0x00\n        /* \"#utility.yul\":3283:3285   */\n      0x20\n        /* \"#utility.yul\":3272:3281   */\n      dup3\n        /* \"#utility.yul\":3268:3286   */\n      add\n        /* \"#utility.yul\":3260:3286   */\n      swap1\n      pop\n        /* \"#utility.yul\":3296:3381   */\n      tag_263\n        /* \"#utility.yul\":3378:3379   */\n      0x00\n        /* \"#utility.yul\":3367:3376   */\n      dup4\n        /* \"#utility.yul\":3363:3380   */\n      add\n        /* \"#utility.yul\":3354:3360   */\n      dup5\n        /* \"#utility.yul\":3296:3381   */\n      tag_193\n      jump\t// in\n    tag_263:\n        /* \"#utility.yul\":3138:3388   */\n      swap3\n      swap2\n      pop\n      pop\n      jump\t// out\n        /* \"#utility.yul\":3394:3726   */\n    tag_67:\n        /* \"#utility.yul\":3515:3519   */\n      0x00\n        /* \"#utility.yul\":3553:3555   */\n      0x40\n        /* \"#utility.yul\":3542:3551   */\n      dup3\n        /* \"#utility.yul\":3538:3556   */\n      add\n        /* \"#utility.yul\":3530:3556   */\n      swap1\n      pop\n        /* \"#utility.yul\":3566:3637   */\n      tag_265\n        /* \"#utility.yul\":3634:3635   */\n      0x00\n        /* \"#utility.yul\":3623:3632   */\n      dup4\n        /* \"#utility.yul\":3619:3636   */\n      add\n        /* \"#utility.yul\":3610:3616   */\n      dup6\n        /* \"#utility.yul\":3566:3637   */\n      tag_178\n      jump\t// in\n    tag_265:\n        /* \"#utility.yul\":3647:3719   */\n      tag_266\n        /* \"#utility.yul\":3715:3717   */\n      0x20\n        /* \"#utility.yul\":3704:3713   */\n      dup4\n        /* \"#utility.yul\":3700:3718   */\n      add\n        /* \"#utility.yul\":3691:3697   */\n      dup5\n        /* \"#utility.yul\":3647:3719   */\n      tag_178\n      jump\t// in\n    tag_266:\n        /* \"#utility.yul\":3394:3726   */\n      swap4\n      swap3\n      pop\n      pop\n      pop\n      jump\t// out\n        /* \"#utility.yul\":3732:3854   */\n    tag_194:\n        /* \"#utility.yul\":3805:3829   */\n      tag_268\n        /* \"#utility.yul\":3823:3828   */\n      dup2\n        /* \"#utility.yul\":3805:3829   */\n      tag_177\n      jump\t// in\n    tag_268:\n        /* \"#utility.yul\":3798:3803   */\n      dup2\n        /* \"#utility.yul\":3795:3830   */\n      eq\n        /* \"#utility.yul\":3785:3848   */\n      tag_269\n      jumpi\n        /* \"#utility.yul\":3844:3845   */\n      0x00\n        /* \"#utility.yul\":3841:3842   */\n      dup1\n        /* \"#utility.yul\":3834:3846   */\n      revert\n        /* \"#utility.yul\":3785:3848   */\n    tag_269:\n        /* \"#utility.yul\":3732:3854   */\n      pop\n      jump\t// out\n        /* \"#utility.yul\":3860:4003   */\n    tag_195:\n        /* \"#utility.yul\":3917:3922   */\n      0x00\n        /* \"#utility.yul\":3948:3954   */\n      dup2\n        /* \"#utility.yul\":3942:3955   */\n      mload\n        /* \"#utility.yul\":3933:3955   */\n      swap1\n      pop\n        /* \"#utility.yul\":3964:3997   */\n      tag_271\n        /* \"#utility.yul\":3991:3996   */\n      dup2\n        /* \"#utility.yul\":3964:3997   */\n      tag_194\n      jump\t// in\n    tag_271:\n        /* \"#utility.yul\":3860:4003   */\n      swap3\n      swap2\n      pop\n      pop\n      jump\t// out\n        /* \"#utility.yul\":4009:4360   */\n    tag_86:\n        /* \"#utility.yul\":4079:4085   */\n      0x00\n        /* \"#utility.yul\":4128:4130   */\n      0x20\n        /* \"#utility.yul\":4116:4125   */\n      dup3\n        /* \"#utility.yul\":4107:4114   */\n      dup5\n        /* \"#utility.yul\":4103:4126   */\n      sub\n        /* \"#utility.yul\":4099:4131   */\n      slt\n        /* \"#utility.yul\":4096:4215   */\n      iszero\n      tag_273\n      jumpi\n        /* \"#utility.yul\":4134:4213   */\n      tag_274\n      tag_185\n      jump\t// in\n    tag_274:\n        /* \"#utility.yul\":4096:4215   */\n    tag_273:\n        /* \"#utility.yul\":4254:4255   */\n      0x00\n        /* \"#utility.yul\":4279:4343   */\n      tag_275\n        /* \"#utility.yul\":4335:4342   */\n      dup5\n        /* \"#utility.yul\":4326:4332   */\n      dup3\n        /* \"#utility.yul\":4315:4324   */\n      dup6\n        /* \"#utility.yul\":4311:4333   */\n      add\n        /* \"#utility.yul\":4279:4343   */\n      tag_195\n      jump\t// in\n    tag_275:\n        /* \"#utility.yul\":4269:4343   */\n      swap2\n      pop\n        /* \"#utility.yul\":4225:4353   */\n      pop\n        /* \"#utility.yul\":4009:4360   */\n      swap3\n      swap2\n      pop\n      pop\n      jump\t// out\n        /* \"#utility.yul\":4366:4698   */\n    tag_89:\n        /* \"#utility.yul\":4487:4491   */\n      0x00\n        /* \"#utility.yul\":4525:4527   */\n      0x40\n        /* \"#utility.yul\":4514:4523   */\n      dup3\n        /* \"#utility.yul\":4510:4528   */\n      add\n        /* \"#utility.yul\":4502:4528   */\n      swap1\n      pop\n        /* \"#utility.yul\":4538:4609   */\n      tag_277\n        /* \"#utility.yul\":4606:4607   */\n      0x00\n        /* \"#utility.yul\":4595:4604   */\n      dup4\n        /* \"#utility.yul\":4591:4608   */\n      add\n        /* \"#utility.yul\":4582:4588   */\n      dup6\n        /* \"#utility.yul\":4538:4609   */\n      tag_183\n      jump\t// in\n    tag_277:\n        /* \"#utility.yul\":4619:4691   */\n      tag_278\n        /* \"#utility.yul\":4687:4689   */\n      0x20\n        /* \"#utility.yul\":4676:4685   */\n      dup4\n        /* \"#utility.yul\":4672:4690   */\n      add\n        /* \"#utility.yul\":4663:4669   */\n      dup5\n        /* \"#utility.yul\":4619:4691   */\n      tag_183\n      jump\t// in\n    tag_278:\n        /* \"#utility.yul\":4366:4698   */\n      swap4\n      swap3\n      pop\n      pop\n      pop\n      jump\t// out\n        /* \"#utility.yul\":4704:4873   */\n    tag_196:\n        /* \"#utility.yul\":4788:4799   */\n      0x00\n        /* \"#utility.yul\":4822:4828   */\n      dup3\n        /* \"#utility.yul\":4817:4820   */\n      dup3\n        /* \"#utility.yul\":4810:4829   */\n      mstore\n        /* \"#utility.yul\":4862:4866   */\n      0x20\n        /* \"#utility.yul\":4857:4860   */\n      dup3\n        /* \"#utility.yul\":4853:4867   */\n      add\n        /* \"#utility.yul\":4838:4867   */\n      swap1\n      pop\n        /* \"#utility.yul\":4704:4873   */\n      swap3\n      swap2\n      pop\n      pop\n      jump\t// out\n        /* \"#utility.yul\":4879:5060   */\n    tag_197:\n        /* \"#utility.yul\":5019:5052   */\n      0x5265656e7472616e637947756172643a207265656e7472616e742063616c6c00\n        /* \"#utility.yul\":5015:5016   */\n      0x00\n        /* \"#utility.yul\":5007:5013   */\n      dup3\n        /* \"#utility.yul\":5003:5017   */\n      add\n        /* \"#utility.yul\":4996:5053   */\n      mstore\n        /* \"#utility.yul\":4879:5060   */\n      pop\n      jump\t// out\n        /* \"#utility.yul\":5066:5432   */\n    tag_198:\n        /* \"#utility.yul\":5208:5211   */\n      0x00\n        /* \"#utility.yul\":5229:5296   */\n      tag_282\n        /* \"#utility.yul\":5293:5295   */\n      0x1f\n        /* \"#utility.yul\":5288:5291   */\n      dup4\n        /* \"#utility.yul\":5229:5296   */\n      tag_196\n      jump\t// in\n    tag_282:\n        /* \"#utility.yul\":5222:5296   */\n      swap2\n      pop\n        /* \"#utility.yul\":5305:5398   */\n      tag_283\n        /* \"#utility.yul\":5394:5397   */\n      dup3\n        /* \"#utility.yul\":5305:5398   */\n      tag_197\n      jump\t// in\n    tag_283:\n        /* \"#utility.yul\":5423:5425   */\n      0x20\n        /* \"#utility.yul\":5418:5421   */\n      dup3\n        /* \"#utility.yul\":5414:5426   */\n      add\n        /* \"#utility.yul\":5407:5426   */\n      swap1\n      pop\n        /* \"#utility.yul\":5066:5432   */\n      swap2\n      swap1\n      pop\n      jump\t// out\n        /* \"#utility.yul\":5438:5857   */\n    tag_99:\n        /* \"#utility.yul\":5604:5608   */\n      0x00\n        /* \"#utility.yul\":5642:5644   */\n      0x20\n        /* \"#utility.yul\":5631:5640   */\n      dup3\n        /* \"#utility.yul\":5627:5645   */\n      add\n        /* \"#utility.yul\":5619:5645   */\n      swap1\n      pop\n        /* \"#utility.yul\":5691:5700   */\n      dup2\n        /* \"#utility.yul\":5685:5689   */\n      dup2\n        /* \"#utility.yul\":5681:5701   */\n      sub\n        /* \"#utility.yul\":5677:5678   */\n      0x00\n        /* \"#utility.yul\":5666:5675   */\n      dup4\n        /* \"#utility.yul\":5662:5679   */\n      add\n        /* \"#utility.yul\":5655:5702   */\n      mstore\n        /* \"#utility.yul\":5719:5850   */\n      tag_285\n        /* \"#utility.yul\":5845:5849   */\n      dup2\n        /* \"#utility.yul\":5719:5850   */\n      tag_198\n      jump\t// in\n    tag_285:\n        /* \"#utility.yul\":5711:5850   */\n      swap1\n      pop\n        /* \"#utility.yul\":5438:5857   */\n      swap2\n      swap1\n      pop\n      jump\t// out\n        /* \"#utility.yul\":5863:6092   */\n    tag_199:\n        /* \"#utility.yul\":6003:6037   */\n      0x43726f776473616c653a2062656e656669636961727920697320746865207a65\n        /* \"#utility.yul\":5999:6000   */\n      0x00\n        /* \"#utility.yul\":5991:5997   */\n      dup3\n        /* \"#utility.yul\":5987:6001   */\n      add\n        /* \"#utility.yul\":5980:6038   */\n      mstore\n        /* \"#utility.yul\":6072:6084   */\n      0x726f206164647265737300000000000000000000000000000000000000000000\n        /* \"#utility.yul\":6067:6069   */\n      0x20\n        /* \"#utility.yul\":6059:6065   */\n      dup3\n        /* \"#utility.yul\":6055:6070   */\n      add\n        /* \"#utility.yul\":6048:6085   */\n      mstore\n        /* \"#utility.yul\":5863:6092   */\n      pop\n      jump\t// out\n        /* \"#utility.yul\":6098:6464   */\n    tag_200:\n        /* \"#utility.yul\":6240:6243   */\n      0x00\n        /* \"#utility.yul\":6261:6328   */\n      tag_288\n        /* \"#utility.yul\":6325:6327   */\n      0x2a\n        /* \"#utility.yul\":6320:6323   */\n      dup4\n        /* \"#utility.yul\":6261:6328   */\n      tag_196\n      jump\t// in\n    tag_288:\n        /* \"#utility.yul\":6254:6328   */\n      swap2\n      pop\n        /* \"#utility.yul\":6337:6430   */\n      tag_289\n        /* \"#utility.yul\":6426:6429   */\n      dup3\n        /* \"#utility.yul\":6337:6430   */\n      tag_199\n      jump\t// in\n    tag_289:\n        /* \"#utility.yul\":6455:6457   */\n      0x40\n        /* \"#utility.yul\":6450:6453   */\n      dup3\n        /* \"#utility.yul\":6446:6458   */\n      add\n        /* \"#utility.yul\":6439:6458   */\n      swap1\n      pop\n        /* \"#utility.yul\":6098:6464   */\n      swap2\n      swap1\n      pop\n      jump\t// out\n        /* \"#utility.yul\":6470:6889   */\n    tag_103:\n        /* \"#utility.yul\":6636:6640   */\n      0x00\n        /* \"#utility.yul\":6674:6676   */\n      0x20\n        /* \"#utility.yul\":6663:6672   */\n      dup3\n        /* \"#utility.yul\":6659:6677   */\n      add\n        /* \"#utility.yul\":6651:6677   */\n      swap1\n      pop\n        /* \"#utility.yul\":6723:6732   */\n      dup2\n        /* \"#utility.yul\":6717:6721   */\n      dup2\n        /* \"#utility.yul\":6713:6733   */\n      sub\n        /* \"#utility.yul\":6709:6710   */\n      0x00\n        /* \"#utility.yul\":6698:6707   */\n      dup4\n        /* \"#utility.yul\":6694:6711   */\n      add\n        /* \"#utility.yul\":6687:6734   */\n      mstore\n        /* \"#utility.yul\":6751:6882   */\n      tag_291\n        /* \"#utility.yul\":6877:6881   */\n      dup2\n        /* \"#utility.yul\":6751:6882   */\n      tag_200\n      jump\t// in\n    tag_291:\n        /* \"#utility.yul\":6743:6882   */\n      swap1\n      pop\n        /* \"#utility.yul\":6470:6889   */\n      swap2\n      swap1\n      pop\n      jump\t// out\n        /* \"#utility.yul\":6895:7070   */\n    tag_201:\n        /* \"#utility.yul\":7035:7062   */\n      0x43726f776473616c653a20776569416d6f756e74206973203000000000000000\n        /* \"#utility.yul\":7031:7032   */\n      0x00\n        /* \"#utility.yul\":7023:7029   */\n      dup3\n        /* \"#utility.yul\":7019:7033   */\n      add\n        /* \"#utility.yul\":7012:7063   */\n      mstore\n        /* \"#utility.yul\":6895:7070   */\n      pop\n      jump\t// out\n        /* \"#utility.yul\":7076:7442   */\n    tag_202:\n        /* \"#utility.yul\":7218:7221   */\n      0x00\n        /* \"#utility.yul\":7239:7306   */\n      tag_294\n        /* \"#utility.yul\":7303:7305   */\n      0x19\n        /* \"#utility.yul\":7298:7301   */\n      dup4\n        /* \"#utility.yul\":7239:7306   */\n      tag_196\n      jump\t// in\n    tag_294:\n        /* \"#utility.yul\":7232:7306   */\n      swap2\n      pop\n        /* \"#utility.yul\":7315:7408   */\n      tag_295\n        /* \"#utility.yul\":7404:7407   */\n      dup3\n        /* \"#utility.yul\":7315:7408   */\n      tag_201\n      jump\t// in\n    tag_295:\n        /* \"#utility.yul\":7433:7435   */\n      0x20\n        /* \"#utility.yul\":7428:7431   */\n      dup3\n        /* \"#utility.yul\":7424:7436   */\n      add\n        /* \"#utility.yul\":7417:7436   */\n      swap1\n      pop\n        /* \"#utility.yul\":7076:7442   */\n      swap2\n      swap1\n      pop\n      jump\t// out\n        /* \"#utility.yul\":7448:7867   */\n    tag_106:\n        /* \"#utility.yul\":7614:7618   */\n      0x00\n        /* \"#utility.yul\":7652:7654   */\n      0x20\n        /* \"#utility.yul\":7641:7650   */\n      dup3\n        /* \"#utility.yul\":7637:7655   */\n      add\n        /* \"#utility.yul\":7629:7655   */\n      swap1\n      pop\n        /* \"#utility.yul\":7701:7710   */\n      dup2\n        /* \"#utility.yul\":7695:7699   */\n      dup2\n        /* \"#utility.yul\":7691:7711   */\n      sub\n        /* \"#utility.yul\":7687:7688   */\n      0x00\n        /* \"#utility.yul\":7676:7685   */\n      dup4\n        /* \"#utility.yul\":7672:7689   */\n      add\n        /* \"#utility.yul\":7665:7712   */\n      mstore\n        /* \"#utility.yul\":7729:7860   */\n      tag_297\n        /* \"#utility.yul\":7855:7859   */\n      dup2\n        /* \"#utility.yul\":7729:7860   */\n      tag_202\n      jump\t// in\n    tag_297:\n        /* \"#utility.yul\":7721:7860   */\n      swap1\n      pop\n        /* \"#utility.yul\":7448:7867   */\n      swap2\n      swap1\n      pop\n      jump\t// out\n        /* \"#utility.yul\":7873:8053   */\n    tag_203:\n        /* \"#utility.yul\":7921:7998   */\n      0x4e487b7100000000000000000000000000000000000000000000000000000000\n        /* \"#utility.yul\":7918:7919   */\n      0x00\n        /* \"#utility.yul\":7911:7999   */\n      mstore\n        /* \"#utility.yul\":8018:8022   */\n      0x11\n        /* \"#utility.yul\":8015:8016   */\n      0x04\n        /* \"#utility.yul\":8008:8023   */\n      mstore\n        /* \"#utility.yul\":8042:8046   */\n      0x24\n        /* \"#utility.yul\":8039:8040   */\n      0x00\n        /* \"#utility.yul\":8032:8047   */\n      revert\n        /* \"#utility.yul\":8059:8250   */\n    tag_112:\n        /* \"#utility.yul\":8099:8102   */\n      0x00\n        /* \"#utility.yul\":8118:8138   */\n      tag_300\n        /* \"#utility.yul\":8136:8137   */\n      dup3\n        /* \"#utility.yul\":8118:8138   */\n      tag_177\n      jump\t// in\n    tag_300:\n        /* \"#utility.yul\":8113:8138   */\n      swap2\n      pop\n        /* \"#utility.yul\":8152:8172   */\n      tag_301\n        /* \"#utility.yul\":8170:8171   */\n      dup4\n        /* \"#utility.yul\":8152:8172   */\n      tag_177\n      jump\t// in\n    tag_301:\n        /* \"#utility.yul\":8147:8172   */\n      swap3\n      pop\n        /* \"#utility.yul\":8195:8196   */\n      dup3\n        /* \"#utility.yul\":8192:8193   */\n      dup3\n        /* \"#utility.yul\":8188:8197   */\n      add\n        /* \"#utility.yul\":8181:8197   */\n      swap1\n      pop\n        /* \"#utility.yul\":8216:8219   */\n      dup1\n        /* \"#utility.yul\":8213:8214   */\n      dup3\n        /* \"#utility.yul\":8210:8220   */\n      gt\n        /* \"#utility.yul\":8207:8243   */\n      iszero\n      tag_302\n      jumpi\n        /* \"#utility.yul\":8223:8241   */\n      tag_303\n      tag_203\n      jump\t// in\n    tag_303:\n        /* \"#utility.yul\":8207:8243   */\n    tag_302:\n        /* \"#utility.yul\":8059:8250   */\n      swap3\n      swap2\n      pop\n      pop\n      jump\t// out\n        /* \"#utility.yul\":8256:8666   */\n    tag_127:\n        /* \"#utility.yul\":8296:8303   */\n      0x00\n        /* \"#utility.yul\":8319:8339   */\n      tag_305\n        /* \"#utility.yul\":8337:8338   */\n      dup3\n        /* \"#utility.yul\":8319:8339   */\n      tag_177\n      jump\t// in\n    tag_305:\n        /* \"#utility.yul\":8314:8339   */\n      swap2\n      pop\n        /* \"#utility.yul\":8353:8373   */\n      tag_306\n        /* \"#utility.yul\":8371:8372   */\n      dup4\n        /* \"#utility.yul\":8353:8373   */\n      tag_177\n      jump\t// in\n    tag_306:\n        /* \"#utility.yul\":8348:8373   */\n      swap3\n      pop\n        /* \"#utility.yul\":8408:8409   */\n      dup3\n        /* \"#utility.yul\":8405:8406   */\n      dup3\n        /* \"#utility.yul\":8401:8410   */\n      mul\n        /* \"#utility.yul\":8430:8460   */\n      tag_307\n        /* \"#utility.yul\":8448:8459   */\n      dup2\n        /* \"#utility.yul\":8430:8460   */\n      tag_177\n      jump\t// in\n    tag_307:\n        /* \"#utility.yul\":8419:8460   */\n      swap2\n      pop\n        /* \"#utility.yul\":8609:8610   */\n      dup3\n        /* \"#utility.yul\":8600:8607   */\n      dup3\n        /* \"#utility.yul\":8596:8611   */\n      div\n        /* \"#utility.yul\":8593:8594   */\n      dup5\n        /* \"#utility.yul\":8590:8612   */\n      eq\n        /* \"#utility.yul\":8570:8571   */\n      dup4\n        /* \"#utility.yul\":8563:8572   */\n      iszero\n        /* \"#utility.yul\":8543:8626   */\n      or\n        /* \"#utility.yul\":8520:8659   */\n      tag_308\n      jumpi\n        /* \"#utility.yul\":8639:8657   */\n      tag_309\n      tag_203\n      jump\t// in\n    tag_309:\n        /* \"#utility.yul\":8520:8659   */\n    tag_308:\n        /* \"#utility.yul\":8304:8666   */\n      pop\n        /* \"#utility.yul\":8256:8666   */\n      swap3\n      swap2\n      pop\n      pop\n      jump\t// out\n        /* \"#utility.yul\":8672:9114   */\n    tag_135:\n        /* \"#utility.yul\":8821:8825   */\n      0x00\n        /* \"#utility.yul\":8859:8861   */\n      0x60\n        /* \"#utility.yul\":8848:8857   */\n      dup3\n        /* \"#utility.yul\":8844:8862   */\n      add\n        /* \"#utility.yul\":8836:8862   */\n      swap1\n      pop\n        /* \"#utility.yul\":8872:8943   */\n      tag_311\n        /* \"#utility.yul\":8940:8941   */\n      0x00\n        /* \"#utility.yul\":8929:8938   */\n      dup4\n        /* \"#utility.yul\":8925:8942   */\n      add\n        /* \"#utility.yul\":8916:8922   */\n      dup7\n        /* \"#utility.yul\":8872:8943   */\n      tag_183\n      jump\t// in\n    tag_311:\n        /* \"#utility.yul\":8953:9025   */\n      tag_312\n        /* \"#utility.yul\":9021:9023   */\n      0x20\n        /* \"#utility.yul\":9010:9019   */\n      dup4\n        /* \"#utility.yul\":9006:9024   */\n      add\n        /* \"#utility.yul\":8997:9003   */\n      dup6\n        /* \"#utility.yul\":8953:9025   */\n      tag_183\n      jump\t// in\n    tag_312:\n        /* \"#utility.yul\":9035:9107   */\n      tag_313\n        /* \"#utility.yul\":9103:9105   */\n      0x40\n        /* \"#utility.yul\":9092:9101   */\n      dup4\n        /* \"#utility.yul\":9088:9106   */\n      add\n        /* \"#utility.yul\":9079:9085   */\n      dup5\n        /* \"#utility.yul\":9035:9107   */\n      tag_178\n      jump\t// in\n    tag_313:\n        /* \"#utility.yul\":8672:9114   */\n      swap5\n      swap4\n      pop\n      pop\n      pop\n      pop\n      jump\t// out\n        /* \"#utility.yul\":9120:9210   */\n    tag_204:\n        /* \"#utility.yul\":9154:9161   */\n      0x00\n        /* \"#utility.yul\":9197:9202   */\n      dup2\n        /* \"#utility.yul\":9190:9203   */\n      iszero\n        /* \"#utility.yul\":9183:9204   */\n      iszero\n        /* \"#utility.yul\":9172:9204   */\n      swap1\n      pop\n        /* \"#utility.yul\":9120:9210   */\n      swap2\n      swap1\n      pop\n      jump\t// out\n        /* \"#utility.yul\":9216:9332   */\n    tag_205:\n        /* \"#utility.yul\":9286:9307   */\n      tag_316\n        /* \"#utility.yul\":9301:9306   */\n      dup2\n        /* \"#utility.yul\":9286:9307   */\n      tag_204\n      jump\t// in\n    tag_316:\n        /* \"#utility.yul\":9279:9284   */\n      dup2\n        /* \"#utility.yul\":9276:9308   */\n      eq\n        /* \"#utility.yul\":9266:9326   */\n      tag_317\n      jumpi\n        /* \"#utility.yul\":9322:9323   */\n      0x00\n        /* \"#utility.yul\":9319:9320   */\n      dup1\n        /* \"#utility.yul\":9312:9324   */\n      revert\n        /* \"#utility.yul\":9266:9326   */\n    tag_317:\n        /* \"#utility.yul\":9216:9332   */\n      pop\n      jump\t// out\n        /* \"#utility.yul\":9338:9475   */\n    tag_206:\n        /* \"#utility.yul\":9392:9397   */\n      0x00\n        /* \"#utility.yul\":9423:9429   */\n      dup2\n        /* \"#utility.yul\":9417:9430   */\n      mload\n        /* \"#utility.yul\":9408:9430   */\n      swap1\n      pop\n        /* \"#utility.yul\":9439:9469   */\n      tag_319\n        /* \"#utility.yul\":9463:9468   */\n      dup2\n        /* \"#utility.yul\":9439:9469   */\n      tag_205\n      jump\t// in\n    tag_319:\n        /* \"#utility.yul\":9338:9475   */\n      swap3\n      swap2\n      pop\n      pop\n      jump\t// out\n        /* \"#utility.yul\":9481:9826   */\n    tag_142:\n        /* \"#utility.yul\":9548:9554   */\n      0x00\n        /* \"#utility.yul\":9597:9599   */\n      0x20\n        /* \"#utility.yul\":9585:9594   */\n      dup3\n        /* \"#utility.yul\":9576:9583   */\n      dup5\n        /* \"#utility.yul\":9572:9595   */\n      sub\n        /* \"#utility.yul\":9568:9600   */\n      slt\n        /* \"#utility.yul\":9565:9684   */\n      iszero\n      tag_321\n      jumpi\n        /* \"#utility.yul\":9603:9682   */\n      tag_322\n      tag_185\n      jump\t// in\n    tag_322:\n        /* \"#utility.yul\":9565:9684   */\n    tag_321:\n        /* \"#utility.yul\":9723:9724   */\n      0x00\n        /* \"#utility.yul\":9748:9809   */\n      tag_323\n        /* \"#utility.yul\":9801:9808   */\n      dup5\n        /* \"#utility.yul\":9792:9798   */\n      dup3\n        /* \"#utility.yul\":9781:9790   */\n      dup6\n        /* \"#utility.yul\":9777:9799   */\n      add\n        /* \"#utility.yul\":9748:9809   */\n      tag_206\n      jump\t// in\n    tag_323:\n        /* \"#utility.yul\":9738:9809   */\n      swap2\n      pop\n        /* \"#utility.yul\":9694:9819   */\n      pop\n        /* \"#utility.yul\":9481:9826   */\n      swap3\n      swap2\n      pop\n      pop\n      jump\t// out\n        /* \"#utility.yul\":9832:10061   */\n    tag_207:\n        /* \"#utility.yul\":9972:10006   */\n      0x5361666545524332303a204552433230206f7065726174696f6e20646964206e\n        /* \"#utility.yul\":9968:9969   */\n      0x00\n        /* \"#utility.yul\":9960:9966   */\n      dup3\n        /* \"#utility.yul\":9956:9970   */\n      add\n        /* \"#utility.yul\":9949:10007   */\n      mstore\n        /* \"#utility.yul\":10041:10053   */\n      0x6f74207375636365656400000000000000000000000000000000000000000000\n        /* \"#utility.yul\":10036:10038   */\n      0x20\n        /* \"#utility.yul\":10028:10034   */\n      dup3\n        /* \"#utility.yul\":10024:10039   */\n      add\n        /* \"#utility.yul\":10017:10054   */\n      mstore\n        /* \"#utility.yul\":9832:10061   */\n      pop\n      jump\t// out\n        /* \"#utility.yul\":10067:10433   */\n    tag_208:\n        /* \"#utility.yul\":10209:10212   */\n      0x00\n        /* \"#utility.yul\":10230:10297   */\n      tag_326\n        /* \"#utility.yul\":10294:10296   */\n      0x2a\n        /* \"#utility.yul\":10289:10292   */\n      dup4\n        /* \"#utility.yul\":10230:10297   */\n      tag_196\n      jump\t// in\n    tag_326:\n        /* \"#utility.yul\":10223:10297   */\n      swap2\n      pop\n        /* \"#utility.yul\":10306:10399   */\n      tag_327\n        /* \"#utility.yul\":10395:10398   */\n      dup3\n        /* \"#utility.yul\":10306:10399   */\n      tag_207\n      jump\t// in\n    tag_327:\n        /* \"#utility.yul\":10424:10426   */\n      0x40\n        /* \"#utility.yul\":10419:10422   */\n      dup3\n        /* \"#utility.yul\":10415:10427   */\n      add\n        /* \"#utility.yul\":10408:10427   */\n      swap1\n      pop\n        /* \"#utility.yul\":10067:10433   */\n      swap2\n      swap1\n      pop\n      jump\t// out\n        /* \"#utility.yul\":10439:10858   */\n    tag_145:\n        /* \"#utility.yul\":10605:10609   */\n      0x00\n        /* \"#utility.yul\":10643:10645   */\n      0x20\n        /* \"#utility.yul\":10632:10641   */\n      dup3\n        /* \"#utility.yul\":10628:10646   */\n      add\n        /* \"#utility.yul\":10620:10646   */\n      swap1\n      pop\n        /* \"#utility.yul\":10692:10701   */\n      dup2\n        /* \"#utility.yul\":10686:10690   */\n      dup2\n        /* \"#utility.yul\":10682:10702   */\n      sub\n        /* \"#utility.yul\":10678:10679   */\n      0x00\n        /* \"#utility.yul\":10667:10676   */\n      dup4\n        /* \"#utility.yul\":10663:10680   */\n      add\n        /* \"#utility.yul\":10656:10703   */\n      mstore\n        /* \"#utility.yul\":10720:10851   */\n      tag_329\n        /* \"#utility.yul\":10846:10850   */\n      dup2\n        /* \"#utility.yul\":10720:10851   */\n      tag_208\n      jump\t// in\n    tag_329:\n        /* \"#utility.yul\":10712:10851   */\n      swap1\n      pop\n        /* \"#utility.yul\":10439:10858   */\n      swap2\n      swap1\n      pop\n      jump\t// out\n        /* \"#utility.yul\":10864:11089   */\n    tag_209:\n        /* \"#utility.yul\":11004:11038   */\n      0x416464726573733a20696e73756666696369656e742062616c616e636520666f\n        /* \"#utility.yul\":11000:11001   */\n      0x00\n        /* \"#utility.yul\":10992:10998   */\n      dup3\n        /* \"#utility.yul\":10988:11002   */\n      add\n        /* \"#utility.yul\":10981:11039   */\n      mstore\n        /* \"#utility.yul\":11073:11081   */\n      0x722063616c6c0000000000000000000000000000000000000000000000000000\n        /* \"#utility.yul\":11068:11070   */\n      0x20\n        /* \"#utility.yul\":11060:11066   */\n      dup3\n        /* \"#utility.yul\":11056:11071   */\n      add\n        /* \"#utility.yul\":11049:11082   */\n      mstore\n        /* \"#utility.yul\":10864:11089   */\n      pop\n      jump\t// out\n        /* \"#utility.yul\":11095:11461   */\n    tag_210:\n        /* \"#utility.yul\":11237:11240   */\n      0x00\n        /* \"#utility.yul\":11258:11325   */\n      tag_332\n        /* \"#utility.yul\":11322:11324   */\n      0x26\n        /* \"#utility.yul\":11317:11320   */\n      dup4\n        /* \"#utility.yul\":11258:11325   */\n      tag_196\n      jump\t// in\n    tag_332:\n        /* \"#utility.yul\":11251:11325   */\n      swap2\n      pop\n        /* \"#utility.yul\":11334:11427   */\n      tag_333\n        /* \"#utility.yul\":11423:11426   */\n      dup3\n        /* \"#utility.yul\":11334:11427   */\n      tag_209\n      jump\t// in\n    tag_333:\n        /* \"#utility.yul\":11452:11454   */\n      0x40\n        /* \"#utility.yul\":11447:11450   */\n      dup3\n        /* \"#utility.yul\":11443:11455   */\n      add\n        /* \"#utility.yul\":11436:11455   */\n      swap1\n      pop\n        /* \"#utility.yul\":11095:11461   */\n      swap2\n      swap1\n      pop\n      jump\t// out\n        /* \"#utility.yul\":11467:11886   */\n    tag_152:\n        /* \"#utility.yul\":11633:11637   */\n      0x00\n        /* \"#utility.yul\":11671:11673   */\n      0x20\n        /* \"#utility.yul\":11660:11669   */\n      dup3\n        /* \"#utility.yul\":11656:11674   */\n      add\n        /* \"#utility.yul\":11648:11674   */\n      swap1\n      pop\n        /* \"#utility.yul\":11720:11729   */\n      dup2\n        /* \"#utility.yul\":11714:11718   */\n      dup2\n        /* \"#utility.yul\":11710:11730   */\n      sub\n        /* \"#utility.yul\":11706:11707   */\n      0x00\n        /* \"#utility.yul\":11695:11704   */\n      dup4\n        /* \"#utility.yul\":11691:11708   */\n      add\n        /* \"#utility.yul\":11684:11731   */\n      mstore\n        /* \"#utility.yul\":11748:11879   */\n      tag_335\n        /* \"#utility.yul\":11874:11878   */\n      dup2\n        /* \"#utility.yul\":11748:11879   */\n      tag_210\n      jump\t// in\n    tag_335:\n        /* \"#utility.yul\":11740:11879   */\n      swap1\n      pop\n        /* \"#utility.yul\":11467:11886   */\n      swap2\n      swap1\n      pop\n      jump\t// out\n        /* \"#utility.yul\":11892:11990   */\n    tag_211:\n        /* \"#utility.yul\":11943:11949   */\n      0x00\n        /* \"#utility.yul\":11977:11982   */\n      dup2\n        /* \"#utility.yul\":11971:11983   */\n      mload\n        /* \"#utility.yul\":11961:11983   */\n      swap1\n      pop\n        /* \"#utility.yul\":11892:11990   */\n      swap2\n      swap1\n      pop\n      jump\t// out\n        /* \"#utility.yul\":11996:12143   */\n    tag_212:\n        /* \"#utility.yul\":12097:12108   */\n      0x00\n        /* \"#utility.yul\":12134:12137   */\n      dup2\n        /* \"#utility.yul\":12119:12137   */\n      swap1\n      pop\n        /* \"#utility.yul\":11996:12143   */\n      swap3\n      swap2\n      pop\n      pop\n      jump\t// out\n        /* \"#utility.yul\":12149:12395   */\n    tag_213:\n        /* \"#utility.yul\":12230:12231   */\n      0x00\n        /* \"#utility.yul\":12240:12353   */\n    tag_339:\n        /* \"#utility.yul\":12254:12260   */\n      dup4\n        /* \"#utility.yul\":12251:12252   */\n      dup2\n        /* \"#utility.yul\":12248:12261   */\n      lt\n        /* \"#utility.yul\":12240:12353   */\n      iszero\n      tag_341\n      jumpi\n        /* \"#utility.yul\":12339:12340   */\n      dup1\n        /* \"#utility.yul\":12334:12337   */\n      dup3\n        /* \"#utility.yul\":12330:12341   */\n      add\n        /* \"#utility.yul\":12324:12342   */\n      mload\n        /* \"#utility.yul\":12320:12321   */\n      dup2\n        /* \"#utility.yul\":12315:12318   */\n      dup5\n        /* \"#utility.yul\":12311:12322   */\n      add\n        /* \"#utility.yul\":12304:12343   */\n      mstore\n        /* \"#utility.yul\":12276:12278   */\n      0x20\n        /* \"#utility.yul\":12273:12274   */\n      dup2\n        /* \"#utility.yul\":12269:12279   */\n      add\n        /* \"#utility.yul\":12264:12279   */\n      swap1\n      pop\n        /* \"#utility.yul\":12240:12353   */\n      jump(tag_339)\n    tag_341:\n        /* \"#utility.yul\":12387:12388   */\n      0x00\n        /* \"#utility.yul\":12378:12384   */\n      dup5\n        /* \"#utility.yul\":12373:12376   */\n      dup5\n        /* \"#utility.yul\":12369:12385   */\n      add\n        /* \"#utility.yul\":12362:12389   */\n      mstore\n        /* \"#utility.yul\":12211:12395   */\n      pop\n        /* \"#utility.yul\":12149:12395   */\n      pop\n      pop\n      pop\n      jump\t// out\n        /* \"#utility.yul\":12401:12787   */\n    tag_214:\n        /* \"#utility.yul\":12505:12508   */\n      0x00\n        /* \"#utility.yul\":12533:12571   */\n      tag_343\n        /* \"#utility.yul\":12565:12570   */\n      dup3\n        /* \"#utility.yul\":12533:12571   */\n      tag_211\n      jump\t// in\n    tag_343:\n        /* \"#utility.yul\":12587:12675   */\n      tag_344\n        /* \"#utility.yul\":12668:12674   */\n      dup2\n        /* \"#utility.yul\":12663:12666   */\n      dup6\n        /* \"#utility.yul\":12587:12675   */\n      tag_212\n      jump\t// in\n    tag_344:\n        /* \"#utility.yul\":12580:12675   */\n      swap4\n      pop\n        /* \"#utility.yul\":12684:12749   */\n      tag_345\n        /* \"#utility.yul\":12742:12748   */\n      dup2\n        /* \"#utility.yul\":12737:12740   */\n      dup6\n        /* \"#utility.yul\":12730:12734   */\n      0x20\n        /* \"#utility.yul\":12723:12728   */\n      dup7\n        /* \"#utility.yul\":12719:12735   */\n      add\n        /* \"#utility.yul\":12684:12749   */\n      tag_213\n      jump\t// in\n    tag_345:\n        /* \"#utility.yul\":12774:12780   */\n      dup1\n        /* \"#utility.yul\":12769:12772   */\n      dup5\n        /* \"#utility.yul\":12765:12781   */\n      add\n        /* \"#utility.yul\":12758:12781   */\n      swap2\n      pop\n        /* \"#utility.yul\":12509:12787   */\n      pop\n        /* \"#utility.yul\":12401:12787   */\n      swap3\n      swap2\n      pop\n      pop\n      jump\t// out\n        /* \"#utility.yul\":12793:13064   */\n    tag_154:\n        /* \"#utility.yul\":12923:12926   */\n      0x00\n        /* \"#utility.yul\":12945:13038   */\n      tag_347\n        /* \"#utility.yul\":13034:13037   */\n      dup3\n        /* \"#utility.yul\":13025:13031   */\n      dup5\n        /* \"#utility.yul\":12945:13038   */\n      tag_214\n      jump\t// in\n    tag_347:\n        /* \"#utility.yul\":12938:13038   */\n      swap2\n      pop\n        /* \"#utility.yul\":13055:13058   */\n      dup2\n        /* \"#utility.yul\":13048:13058   */\n      swap1\n      pop\n        /* \"#utility.yul\":12793:13064   */\n      swap3\n      swap2\n      pop\n      pop\n      jump\t// out\n        /* \"#utility.yul\":13070:13249   */\n    tag_215:\n        /* \"#utility.yul\":13210:13241   */\n      0x416464726573733a2063616c6c20746f206e6f6e2d636f6e7472616374000000\n        /* \"#utility.yul\":13206:13207   */\n      0x00\n        /* \"#utility.yul\":13198:13204   */\n      dup3\n        /* \"#utility.yul\":13194:13208   */\n      add\n        /* \"#utility.yul\":13187:13242   */\n      mstore\n        /* \"#utility.yul\":13070:13249   */\n      pop\n      jump\t// out\n        /* \"#utility.yul\":13255:13621   */\n    tag_216:\n        /* \"#utility.yul\":13397:13400   */\n      0x00\n        /* \"#utility.yul\":13418:13485   */\n      tag_350\n        /* \"#utility.yul\":13482:13484   */\n      0x1d\n        /* \"#utility.yul\":13477:13480   */\n      dup4\n        /* \"#utility.yul\":13418:13485   */\n      tag_196\n      jump\t// in\n    tag_350:\n        /* \"#utility.yul\":13411:13485   */\n      swap2\n      pop\n        /* \"#utility.yul\":13494:13587   */\n      tag_351\n        /* \"#utility.yul\":13583:13586   */\n      dup3\n        /* \"#utility.yul\":13494:13587   */\n      tag_215\n      jump\t// in\n    tag_351:\n        /* \"#utility.yul\":13612:13614   */\n      0x20\n        /* \"#utility.yul\":13607:13610   */\n      dup3\n        /* \"#utility.yul\":13603:13615   */\n      add\n        /* \"#utility.yul\":13596:13615   */\n      swap1\n      pop\n        /* \"#utility.yul\":13255:13621   */\n      swap2\n      swap1\n      pop\n      jump\t// out\n        /* \"#utility.yul\":13627:14046   */\n    tag_167:\n        /* \"#utility.yul\":13793:13797   */\n      0x00\n        /* \"#utility.yul\":13831:13833   */\n      0x20\n        /* \"#utility.yul\":13820:13829   */\n      dup3\n        /* \"#utility.yul\":13816:13834   */\n      add\n        /* \"#utility.yul\":13808:13834   */\n      swap1\n      pop\n        /* \"#utility.yul\":13880:13889   */\n      dup2\n        /* \"#utility.yul\":13874:13878   */\n      dup2\n        /* \"#utility.yul\":13870:13890   */\n      sub\n        /* \"#utility.yul\":13866:13867   */\n      0x00\n        /* \"#utility.yul\":13855:13864   */\n      dup4\n        /* \"#utility.yul\":13851:13868   */\n      add\n        /* \"#utility.yul\":13844:13891   */\n      mstore\n        /* \"#utility.yul\":13908:14039   */\n      tag_353\n        /* \"#utility.yul\":14034:14038   */\n      dup2\n        /* \"#utility.yul\":13908:14039   */\n      tag_216\n      jump\t// in\n    tag_353:\n        /* \"#utility.yul\":13900:14039   */\n      swap1\n      pop\n        /* \"#utility.yul\":13627:14046   */\n      swap2\n      swap1\n      pop\n      jump\t// out\n        /* \"#utility.yul\":14052:14151   */\n    tag_217:\n        /* \"#utility.yul\":14104:14110   */\n      0x00\n        /* \"#utility.yul\":14138:14143   */\n      dup2\n        /* \"#utility.yul\":14132:14144   */\n      mload\n        /* \"#utility.yul\":14122:14144   */\n      swap1\n      pop\n        /* \"#utility.yul\":14052:14151   */\n      swap2\n      swap1\n      pop\n      jump\t// out\n        /* \"#utility.yul\":14157:14259   */\n    tag_218:\n        /* \"#utility.yul\":14198:14204   */\n      0x00\n        /* \"#utility.yul\":14249:14251   */\n      0x1f\n        /* \"#utility.yul\":14245:14252   */\n      not\n        /* \"#utility.yul\":14240:14242   */\n      0x1f\n        /* \"#utility.yul\":14233:14238   */\n      dup4\n        /* \"#utility.yul\":14229:14243   */\n      add\n        /* \"#utility.yul\":14225:14253   */\n      and\n        /* \"#utility.yul\":14215:14253   */\n      swap1\n      pop\n        /* \"#utility.yul\":14157:14259   */\n      swap2\n      swap1\n      pop\n      jump\t// out\n        /* \"#utility.yul\":14265:14642   */\n    tag_219:\n        /* \"#utility.yul\":14353:14356   */\n      0x00\n        /* \"#utility.yul\":14381:14420   */\n      tag_357\n        /* \"#utility.yul\":14414:14419   */\n      dup3\n        /* \"#utility.yul\":14381:14420   */\n      tag_217\n      jump\t// in\n    tag_357:\n        /* \"#utility.yul\":14436:14507   */\n      tag_358\n        /* \"#utility.yul\":14500:14506   */\n      dup2\n        /* \"#utility.yul\":14495:14498   */\n      dup6\n        /* \"#utility.yul\":14436:14507   */\n      tag_196\n      jump\t// in\n    tag_358:\n        /* \"#utility.yul\":14429:14507   */\n      swap4\n      pop\n        /* \"#utility.yul\":14516:14581   */\n      tag_359\n        /* \"#utility.yul\":14574:14580   */\n      dup2\n        /* \"#utility.yul\":14569:14572   */\n      dup6\n        /* \"#utility.yul\":14562:14566   */\n      0x20\n        /* \"#utility.yul\":14555:14560   */\n      dup7\n        /* \"#utility.yul\":14551:14567   */\n      add\n        /* \"#utility.yul\":14516:14581   */\n      tag_213\n      jump\t// in\n    tag_359:\n        /* \"#utility.yul\":14606:14635   */\n      tag_360\n        /* \"#utility.yul\":14628:14634   */\n      dup2\n        /* \"#utility.yul\":14606:14635   */\n      tag_218\n      jump\t// in\n    tag_360:\n        /* \"#utility.yul\":14601:14604   */\n      dup5\n        /* \"#utility.yul\":14597:14636   */\n      add\n        /* \"#utility.yul\":14590:14636   */\n      swap2\n      pop\n        /* \"#utility.yul\":14357:14642   */\n      pop\n        /* \"#utility.yul\":14265:14642   */\n      swap3\n      swap2\n      pop\n      pop\n      jump\t// out\n        /* \"#utility.yul\":14648:14961   */\n    tag_176:\n        /* \"#utility.yul\":14761:14765   */\n      0x00\n        /* \"#utility.yul\":14799:14801   */\n      0x20\n        /* \"#utility.yul\":14788:14797   */\n      dup3\n        /* \"#utility.yul\":14784:14802   */\n      add\n        /* \"#utility.yul\":14776:14802   */\n      swap1\n      pop\n        /* \"#utility.yul\":14848:14857   */\n      dup2\n        /* \"#utility.yul\":14842:14846   */\n      dup2\n        /* \"#utility.yul\":14838:14858   */\n      sub\n        /* \"#utility.yul\":14834:14835   */\n      0x00\n        /* \"#utility.yul\":14823:14832   */\n      dup4\n        /* \"#utility.yul\":14819:14836   */\n      add\n        /* \"#utility.yul\":14812:14859   */\n      mstore\n        /* \"#utility.yul\":14876:14954   */\n      tag_362\n        /* \"#utility.yul\":14949:14953   */\n      dup2\n        /* \"#utility.yul\":14940:14946   */\n      dup5\n        /* \"#utility.yul\":14876:14954   */\n      tag_219\n      jump\t// in\n    tag_362:\n        /* \"#utility.yul\":14868:14954   */\n      swap1\n      pop\n        /* \"#utility.yul\":14648:14961   */\n      swap3\n      swap2\n      pop\n      pop\n      jump\t// out\n\n    auxdata: 0xa2646970667358221220f2a44e98626d3cacd8409f8c811b446fc29db1d6b3ba57dad8664784ad8014bd64736f6c63430008150033\n}\n",
				"bytecode": {
					"linkReferences": {},
					"object": "608060405234801562000010575f80fd5b50604051620017ce380380620017ce8339818101604052810190620000369190620003cd565b82828260015f819055505f831162000085576040517f08c379a00000000000000000000000000000000000000000000000000000000081526004016200007c906200049a565b60405180910390fd5b5f73ffffffffffffffffffffffffffffffffffffffff168273ffffffffffffffffffffffffffffffffffffffff1603620000f6576040517f08c379a0000000000000000000000000000000000000000000000000000000008152600401620000ed906200052e565b60405180910390fd5b5f73ffffffffffffffffffffffffffffffffffffffff168173ffffffffffffffffffffffffffffffffffffffff160362000167576040517f08c379a00000000000000000000000000000000000000000000000000000000081526004016200015e90620005c2565b60405180910390fd5b826003819055508160025f6101000a81548173ffffffffffffffffffffffffffffffffffffffff021916908373ffffffffffffffffffffffffffffffffffffffff1602179055508060015f6101000a81548173ffffffffffffffffffffffffffffffffffffffff021916908373ffffffffffffffffffffffffffffffffffffffff1602179055505050505f73ffffffffffffffffffffffffffffffffffffffff168473ffffffffffffffffffffffffffffffffffffffff160362000262576040517f08c379a0000000000000000000000000000000000000000000000000000000008152600401620002599062000656565b60405180910390fd5b8360055f6101000a81548173ffffffffffffffffffffffffffffffffffffffff021916908373ffffffffffffffffffffffffffffffffffffffff1602179055505050505062000676565b5f80fd5b5f73ffffffffffffffffffffffffffffffffffffffff82169050919050565b5f620002db82620002b0565b9050919050565b620002ed81620002cf565b8114620002f8575f80fd5b50565b5f815190506200030b81620002e2565b92915050565b5f819050919050565b620003258162000311565b811462000330575f80fd5b50565b5f8151905062000343816200031a565b92915050565b5f6200035582620002b0565b9050919050565b620003678162000349565b811462000372575f80fd5b50565b5f8151905062000385816200035c565b92915050565b5f6200039782620002cf565b9050919050565b620003a9816200038b565b8114620003b4575f80fd5b50565b5f81519050620003c7816200039e565b92915050565b5f805f8060808587031215620003e857620003e7620002ac565b5b5f620003f787828801620002fb565b94505060206200040a8782880162000333565b93505060406200041d8782880162000375565b92505060606200043087828801620003b7565b91505092959194509250565b5f82825260208201905092915050565b7f43726f776473616c653a207261746520697320300000000000000000000000005f82015250565b5f620004826014836200043c565b91506200048f826200044c565b602082019050919050565b5f6020820190508181035f830152620004b38162000474565b9050919050565b7f43726f776473616c653a2077616c6c657420697320746865207a65726f2061645f8201527f6472657373000000000000000000000000000000000000000000000000000000602082015250565b5f620005166025836200043c565b91506200052382620004ba565b604082019050919050565b5f6020820190508181035f830152620005478162000508565b9050919050565b7f43726f776473616c653a20746f6b656e20697320746865207a65726f206164645f8201527f7265737300000000000000000000000000000000000000000000000000000000602082015250565b5f620005aa6024836200043c565b9150620005b7826200054e565b604082019050919050565b5f6020820190508181035f830152620005db816200059c565b9050919050565b7f416c6c6f77616e636543726f776473616c653a20746f6b656e2077616c6c65745f8201527f20697320746865207a65726f2061646472657373000000000000000000000000602082015250565b5f6200063e6034836200043c565b91506200064b82620005e2565b604082019050919050565b5f6020820190508181035f8301526200066f8162000630565b9050919050565b61114a80620006845f395ff3fe608060405260043610610073575f3560e01c8063bf5839031161004d578063bf5839031461011a578063bff99c6c14610144578063ec8ac4d81461016e578063fc0c546a1461018a5761008a565b80632c4e722e1461009c5780634042b66f146100c6578063521eb273146100f05761008a565b3661008a576100886100836101b4565b6101bb565b005b61009a6100956101b4565b6101bb565b005b3480156100a7575f80fd5b506100b0610299565b6040516100bd91906109de565b60405180910390f35b3480156100d1575f80fd5b506100da6102a2565b6040516100e791906109de565b60405180910390f35b3480156100fb575f80fd5b506101046102ab565b6040516101119190610a36565b60405180910390f35b348015610125575f80fd5b5061012e6102d3565b60405161013b91906109de565b60405180910390f35b34801561014f575f80fd5b50610158610423565b6040516101659190610a6f565b60405180910390f35b61018860048036038101906101839190610ab6565b6101bb565b005b348015610195575f80fd5b5061019e61044b565b6040516101ab9190610b3c565b60405180910390f35b5f33905090565b6101c3610473565b5f3490506101d182826104c0565b5f6101db82610574565b90506101f28260045461059190919063ffffffff16565b60048190555061020283826105a6565b8273ffffffffffffffffffffffffffffffffffffffff166102216101b4565b73ffffffffffffffffffffffffffffffffffffffff167f6faf93231a456e552dbc9961f58d9713ee4f2e69d15f1975b050ef0911053a7b8484604051610268929190610b55565b60405180910390a361027a83836105b4565b6102826105b8565b61028c838361061f565b5050610296610623565b50565b5f600354905090565b5f600454905090565b5f60025f9054906101000a900473ffffffffffffffffffffffffffffffffffffffff16905090565b5f61041e6102df61044b565b73ffffffffffffffffffffffffffffffffffffffff166370a0823160055f9054906101000a900473ffffffffffffffffffffffffffffffffffffffff166040518263ffffffff1660e01b81526004016103389190610a6f565b602060405180830381865afa158015610353573d5f803e3d5ffd5b505050506040513d601f19601f820116820180604052508101906103779190610ba6565b61037f61044b565b73ffffffffffffffffffffffffffffffffffffffff1663dd62ed3e60055f9054906101000a900473ffffffffffffffffffffffffffffffffffffffff16306040518363ffffffff1660e01b81526004016103da929190610bd1565b602060405180830381865afa1580156103f5573d5f803e3d5ffd5b505050506040513d601f19601f820116820180604052508101906104199190610ba6565b61062c565b905090565b5f60055f9054906101000a900473ffffffffffffffffffffffffffffffffffffffff16905090565b5f60015f9054906101000a900473ffffffffffffffffffffffffffffffffffffffff16905090565b60025f54036104b7576040517f08c379a00000000000000000000000000000000000000000000000000000000081526004016104ae90610c52565b60405180910390fd5b60025f81905550565b5f73ffffffffffffffffffffffffffffffffffffffff168273ffffffffffffffffffffffffffffffffffffffff160361052e576040517f08c379a000000000000000000000000000000000000000000000000000000000815260040161052590610ce0565b60405180910390fd5b5f8103610570576040517f08c379a000000000000000000000000000000000000000000000000000000000815260040161056790610d48565b60405180910390fd5b5050565b5f61058a6003548361064490919063ffffffff16565b9050919050565b5f818361059e9190610d93565b905092915050565b6105b08282610659565b5050565b5050565b60025f9054906101000a900473ffffffffffffffffffffffffffffffffffffffff1673ffffffffffffffffffffffffffffffffffffffff166108fc3490811502906040515f60405180830381858888f1935050505015801561061c573d5f803e3d5ffd5b50565b5050565b60015f81905550565b5f81831061063a578161063c565b825b905092915050565b5f81836106519190610dc6565b905092915050565b6106ae60055f9054906101000a900473ffffffffffffffffffffffffffffffffffffffff16838361068861044b565b73ffffffffffffffffffffffffffffffffffffffff166106b2909392919063ffffffff16565b5050565b610735846323b872dd60e01b8585856040516024016106d393929190610e07565b604051602081830303815290604052907bffffffffffffffffffffffffffffffffffffffffffffffffffffffff19166020820180517bffffffffffffffffffffffffffffffffffffffffffffffffffffffff838183161783525050505061073b565b50505050565b5f61079c826040518060400160405280602081526020017f5361666545524332303a206c6f772d6c6576656c2063616c6c206661696c65648152508573ffffffffffffffffffffffffffffffffffffffff166108019092919063ffffffff16565b90505f815114806107bd5750808060200190518101906107bc9190610e71565b5b6107fc576040517f08c379a00000000000000000000000000000000000000000000000000000000081526004016107f390610f0c565b60405180910390fd5b505050565b606061080f84845f85610818565b90509392505050565b60608247101561085d576040517f08c379a000000000000000000000000000000000000000000000000000000000815260040161085490610f9a565b60405180910390fd5b5f808673ffffffffffffffffffffffffffffffffffffffff1685876040516108859190611024565b5f6040518083038185875af1925050503d805f81146108bf576040519150601f19603f3d011682016040523d82523d5f602084013e6108c4565b606091505b50915091506108d5878383876108e1565b92505050949350505050565b60608315610942575f83510361093a576108fa85610955565b610939576040517f08c379a000000000000000000000000000000000000000000000000000000000815260040161093090611084565b60405180910390fd5b5b82905061094d565b61094c8383610977565b5b949350505050565b5f808273ffffffffffffffffffffffffffffffffffffffff163b119050919050565b5f825111156109895781518083602001fd5b806040517f08c379a00000000000000000000000000000000000000000000000000000000081526004016109bd91906110f4565b60405180910390fd5b5f819050919050565b6109d8816109c6565b82525050565b5f6020820190506109f15f8301846109cf565b92915050565b5f73ffffffffffffffffffffffffffffffffffffffff82169050919050565b5f610a20826109f7565b9050919050565b610a3081610a16565b82525050565b5f602082019050610a495f830184610a27565b92915050565b5f610a59826109f7565b9050919050565b610a6981610a4f565b82525050565b5f602082019050610a825f830184610a60565b92915050565b5f80fd5b610a9581610a4f565b8114610a9f575f80fd5b50565b5f81359050610ab081610a8c565b92915050565b5f60208284031215610acb57610aca610a88565b5b5f610ad884828501610aa2565b91505092915050565b5f819050919050565b5f610b04610aff610afa846109f7565b610ae1565b6109f7565b9050919050565b5f610b1582610aea565b9050919050565b5f610b2682610b0b565b9050919050565b610b3681610b1c565b82525050565b5f602082019050610b4f5f830184610b2d565b92915050565b5f604082019050610b685f8301856109cf565b610b7560208301846109cf565b9392505050565b610b85816109c6565b8114610b8f575f80fd5b50565b5f81519050610ba081610b7c565b92915050565b5f60208284031215610bbb57610bba610a88565b5b5f610bc884828501610b92565b91505092915050565b5f604082019050610be45f830185610a60565b610bf16020830184610a60565b9392505050565b5f82825260208201905092915050565b7f5265656e7472616e637947756172643a207265656e7472616e742063616c6c005f82015250565b5f610c3c601f83610bf8565b9150610c4782610c08565b602082019050919050565b5f6020820190508181035f830152610c6981610c30565b9050919050565b7f43726f776473616c653a2062656e656669636961727920697320746865207a655f8201527f726f206164647265737300000000000000000000000000000000000000000000602082015250565b5f610cca602a83610bf8565b9150610cd582610c70565b604082019050919050565b5f6020820190508181035f830152610cf781610cbe565b9050919050565b7f43726f776473616c653a20776569416d6f756e742069732030000000000000005f82015250565b5f610d32601983610bf8565b9150610d3d82610cfe565b602082019050919050565b5f6020820190508181035f830152610d5f81610d26565b9050919050565b7f4e487b71000000000000000000000000000000000000000000000000000000005f52601160045260245ffd5b5f610d9d826109c6565b9150610da8836109c6565b9250828201905080821115610dc057610dbf610d66565b5b92915050565b5f610dd0826109c6565b9150610ddb836109c6565b9250828202610de9816109c6565b91508282048414831517610e0057610dff610d66565b5b5092915050565b5f606082019050610e1a5f830186610a60565b610e276020830185610a60565b610e3460408301846109cf565b949350505050565b5f8115159050919050565b610e5081610e3c565b8114610e5a575f80fd5b50565b5f81519050610e6b81610e47565b92915050565b5f60208284031215610e8657610e85610a88565b5b5f610e9384828501610e5d565b91505092915050565b7f5361666545524332303a204552433230206f7065726174696f6e20646964206e5f8201527f6f74207375636365656400000000000000000000000000000000000000000000602082015250565b5f610ef6602a83610bf8565b9150610f0182610e9c565b604082019050919050565b5f6020820190508181035f830152610f2381610eea565b9050919050565b7f416464726573733a20696e73756666696369656e742062616c616e636520666f5f8201527f722063616c6c0000000000000000000000000000000000000000000000000000602082015250565b5f610f84602683610bf8565b9150610f8f82610f2a565b604082019050919050565b5f6020820190508181035f830152610fb181610f78565b9050919050565b5f81519050919050565b5f81905092915050565b5f5b83811015610fe9578082015181840152602081019050610fce565b5f8484015250505050565b5f610ffe82610fb8565b6110088185610fc2565b9350611018818560208601610fcc565b80840191505092915050565b5f61102f8284610ff4565b915081905092915050565b7f416464726573733a2063616c6c20746f206e6f6e2d636f6e74726163740000005f82015250565b5f61106e601d83610bf8565b91506110798261103a565b602082019050919050565b5f6020820190508181035f83015261109b81611062565b9050919050565b5f81519050919050565b5f601f19601f8301169050919050565b5f6110c6826110a2565b6110d08185610bf8565b93506110e0818560208601610fcc565b6110e9816110ac565b840191505092915050565b5f6020820190508181035f83015261110c81846110bc565b90509291505056fea2646970667358221220f2a44e98626d3cacd8409f8c811b446fc29db1d6b3ba57dad8664784ad8014bd64736f6c63430008150033",
					"opcodes": "PUSH1 0x80 PUSH1 0x40 MSTORE CALLVALUE DUP1 ISZERO PUSH3 0x10 JUMPI PUSH0 DUP1 REVERT JUMPDEST POP PUSH1 0x40 MLOAD PUSH3 0x17CE CODESIZE SUB DUP1 PUSH3 0x17CE DUP4 CODECOPY DUP2 DUP2 ADD PUSH1 0x40 MSTORE DUP2 ADD SWAP1 PUSH3 0x36 SWAP2 SWAP1 PUSH3 0x3CD JUMP JUMPDEST DUP3 DUP3 DUP3 PUSH1 0x1 PUSH0 DUP2 SWAP1 SSTORE POP PUSH0 DUP4 GT PUSH3 0x85 JUMPI PUSH1 0x40 MLOAD PUSH32 0x8C379A000000000000000000000000000000000000000000000000000000000 DUP2 MSTORE PUSH1 0x4 ADD PUSH3 0x7C SWAP1 PUSH3 0x49A JUMP JUMPDEST PUSH1 0x40 MLOAD DUP1 SWAP2 SUB SWAP1 REVERT JUMPDEST PUSH0 PUSH20 0xFFFFFFFFFFFFFFFFFFFFFFFFFFFFFFFFFFFFFFFF AND DUP3 PUSH20 0xFFFFFFFFFFFFFFFFFFFFFFFFFFFFFFFFFFFFFFFF AND SUB PUSH3 0xF6 JUMPI PUSH1 0x40 MLOAD PUSH32 0x8C379A000000000000000000000000000000000000000000000000000000000 DUP2 MSTORE PUSH1 0x4 ADD PUSH3 0xED SWAP1 PUSH3 0x52E JUMP JUMPDEST PUSH1 0x40 MLOAD DUP1 SWAP2 SUB SWAP1 REVERT JUMPDEST PUSH0 PUSH20 0xFFFFFFFFFFFFFFFFFFFFFFFFFFFFFFFFFFFFFFFF AND DUP2 PUSH20 0xFFFFFFFFFFFFFFFFFFFFFFFFFFFFFFFFFFFFFFFF AND SUB PUSH3 0x167 JUMPI PUSH1 0x40 MLOAD PUSH32 0x8C379A000000000000000000000000000000000000000000000000000000000 DUP2 MSTORE PUSH1 0x4 ADD PUSH3 0x15E SWAP1 PUSH3 0x5C2 JUMP JUMPDEST PUSH1 0x40 MLOAD DUP1 SWAP2 SUB SWAP1 REVERT JUMPDEST DUP3 PUSH1 0x3 DUP2 SWAP1 SSTORE POP DUP2 PUSH1 0x2 PUSH0 PUSH2 0x100 EXP DUP2 SLOAD DUP2 PUSH20 0xFFFFFFFFFFFFFFFFFFFFFFFFFFFFFFFFFFFFFFFF MUL NOT AND SWAP1 DUP4 PUSH20 0xFFFFFFFFFFFFFFFFFFFFFFFFFFFFFFFFFFFFFFFF AND MUL OR SWAP1 SSTORE POP DUP1 PUSH1 0x1 PUSH0 PUSH2 0x100 EXP DUP2 SLOAD DUP2 PUSH20 0xFFFFFFFFFFFFFFFFFFFFFFFFFFFFFFFFFFFFFFFF MUL NOT AND SWAP1 DUP4 PUSH20 0xFFFFFFFFFFFFFFFFFFFFFFFFFFFFFFFFFFFFFFFF AND MUL OR SWAP1 SSTORE POP POP POP POP PUSH0 PUSH20 0xFFFFFFFFFFFFFFFFFFFFFFFFFFFFFFFFFFFFFFFF AND DUP5 PUSH20 0xFFFFFFFFFFFFFFFFFFFFFFFFFFFFFFFFFFFFFFFF AND SUB PUSH3 0x262 JUMPI PUSH1 0x40 MLOAD PUSH32 0x8C379A000000000000000000000000000000000000000000000000000000000 DUP2 MSTORE PUSH1 0x4 ADD PUSH3 0x259 SWAP1 PUSH3 0x656 JUMP JUMPDEST PUSH1 0x40 MLOAD DUP1 SWAP2 SUB SWAP1 REVERT JUMPDEST DUP4 PUSH1 0x5 PUSH0 PUSH2 0x100 EXP DUP2 SLOAD DUP2 PUSH20 0xFFFFFFFFFFFFFFFFFFFFFFFFFFFFFFFFFFFFFFFF MUL NOT AND SWAP1 DUP4 PUSH20 0xFFFFFFFFFFFFFFFFFFFFFFFFFFFFFFFFFFFFFFFF AND MUL OR SWAP1 SSTORE POP POP POP POP POP PUSH3 0x676 JUMP JUMPDEST PUSH0 DUP1 REVERT JUMPDEST PUSH0 PUSH20 0xFFFFFFFFFFFFFFFFFFFFFFFFFFFFFFFFFFFFFFFF DUP3 AND SWAP1 POP SWAP2 SWAP1 POP JUMP JUMPDEST PUSH0 PUSH3 0x2DB DUP3 PUSH3 0x2B0 JUMP JUMPDEST SWAP1 POP SWAP2 SWAP1 POP JUMP JUMPDEST PUSH3 0x2ED DUP2 PUSH3 0x2CF JUMP JUMPDEST DUP2 EQ PUSH3 0x2F8 JUMPI PUSH0 DUP1 REVERT JUMPDEST POP JUMP JUMPDEST PUSH0 DUP2 MLOAD SWAP1 POP PUSH3 0x30B DUP2 PUSH3 0x2E2 JUMP JUMPDEST SWAP3 SWAP2 POP POP JUMP JUMPDEST PUSH0 DUP2 SWAP1 POP SWAP2 SWAP1 POP JUMP JUMPDEST PUSH3 0x325 DUP2 PUSH3 0x311 JUMP JUMPDEST DUP2 EQ PUSH3 0x330 JUMPI PUSH0 DUP1 REVERT JUMPDEST POP JUMP JUMPDEST PUSH0 DUP2 MLOAD SWAP1 POP PUSH3 0x343 DUP2 PUSH3 0x31A JUMP JUMPDEST SWAP3 SWAP2 POP POP JUMP JUMPDEST PUSH0 PUSH3 0x355 DUP3 PUSH3 0x2B0 JUMP JUMPDEST SWAP1 POP SWAP2 SWAP1 POP JUMP JUMPDEST PUSH3 0x367 DUP2 PUSH3 0x349 JUMP JUMPDEST DUP2 EQ PUSH3 0x372 JUMPI PUSH0 DUP1 REVERT JUMPDEST POP JUMP JUMPDEST PUSH0 DUP2 MLOAD SWAP1 POP PUSH3 0x385 DUP2 PUSH3 0x35C JUMP JUMPDEST SWAP3 SWAP2 POP POP JUMP JUMPDEST PUSH0 PUSH3 0x397 DUP3 PUSH3 0x2CF JUMP JUMPDEST SWAP1 POP SWAP2 SWAP1 POP JUMP JUMPDEST PUSH3 0x3A9 DUP2 PUSH3 0x38B JUMP JUMPDEST DUP2 EQ PUSH3 0x3B4 JUMPI PUSH0 DUP1 REVERT JUMPDEST POP JUMP JUMPDEST PUSH0 DUP2 MLOAD SWAP1 POP PUSH3 0x3C7 DUP2 PUSH3 0x39E JUMP JUMPDEST SWAP3 SWAP2 POP POP JUMP JUMPDEST PUSH0 DUP1 PUSH0 DUP1 PUSH1 0x80 DUP6 DUP8 SUB SLT ISZERO PUSH3 0x3E8 JUMPI PUSH3 0x3E7 PUSH3 0x2AC JUMP JUMPDEST JUMPDEST PUSH0 PUSH3 0x3F7 DUP8 DUP3 DUP9 ADD PUSH3 0x2FB JUMP JUMPDEST SWAP5 POP POP PUSH1 0x20 PUSH3 0x40A DUP8 DUP3 DUP9 ADD PUSH3 0x333 JUMP JUMPDEST SWAP4 POP POP PUSH1 0x40 PUSH3 0x41D DUP8 DUP3 DUP9 ADD PUSH3 0x375 JUMP JUMPDEST SWAP3 POP POP PUSH1 0x60 PUSH3 0x430 DUP8 DUP3 DUP9 ADD PUSH3 0x3B7 JUMP JUMPDEST SWAP2 POP POP SWAP3 SWAP6 SWAP2 SWAP5 POP SWAP3 POP JUMP JUMPDEST PUSH0 DUP3 DUP3 MSTORE PUSH1 0x20 DUP3 ADD SWAP1 POP SWAP3 SWAP2 POP POP JUMP JUMPDEST PUSH32 0x43726F776473616C653A20726174652069732030000000000000000000000000 PUSH0 DUP3 ADD MSTORE POP JUMP JUMPDEST PUSH0 PUSH3 0x482 PUSH1 0x14 DUP4 PUSH3 0x43C JUMP JUMPDEST SWAP2 POP PUSH3 0x48F DUP3 PUSH3 0x44C JUMP JUMPDEST PUSH1 0x20 DUP3 ADD SWAP1 POP SWAP2 SWAP1 POP JUMP JUMPDEST PUSH0 PUSH1 0x20 DUP3 ADD SWAP1 POP DUP2 DUP2 SUB PUSH0 DUP4 ADD MSTORE PUSH3 0x4B3 DUP2 PUSH3 0x474 JUMP JUMPDEST SWAP1 POP SWAP2 SWAP1 POP JUMP JUMPDEST PUSH32 0x43726F776473616C653A2077616C6C657420697320746865207A65726F206164 PUSH0 DUP3 ADD MSTORE PUSH32 0x6472657373000000000000000000000000000000000000000000000000000000 PUSH1 0x20 DUP3 ADD MSTORE POP JUMP JUMPDEST PUSH0 PUSH3 0x516 PUSH1 0x25 DUP4 PUSH3 0x43C JUMP JUMPDEST SWAP2 POP PUSH3 0x523 DUP3 PUSH3 0x4BA JUMP JUMPDEST PUSH1 0x40 DUP3 ADD SWAP1 POP SWAP2 SWAP1 POP JUMP JUMPDEST PUSH0 PUSH1 0x20 DUP3 ADD SWAP1 POP DUP2 DUP2 SUB PUSH0 DUP4 ADD MSTORE PUSH3 0x547 DUP2 PUSH3 0x508 JUMP JUMPDEST SWAP1 POP SWAP2 SWAP1 POP JUMP JUMPDEST PUSH32 0x43726F776473616C653A20746F6B656E20697320746865207A65726F20616464 PUSH0 DUP3 ADD MSTORE PUSH32 0x7265737300000000000000000000000000000000000000000000000000000000 PUSH1 0x20 DUP3 ADD MSTORE POP JUMP JUMPDEST PUSH0 PUSH3 0x5AA PUSH1 0x24 DUP4 PUSH3 0x43C JUMP JUMPDEST SWAP2 POP PUSH3 0x5B7 DUP3 PUSH3 0x54E JUMP JUMPDEST PUSH1 0x40 DUP3 ADD SWAP1 POP SWAP2 SWAP1 POP JUMP JUMPDEST PUSH0 PUSH1 0x20 DUP3 ADD SWAP1 POP DUP2 DUP2 SUB PUSH0 DUP4 ADD MSTORE PUSH3 0x5DB DUP2 PUSH3 0x59C JUMP JUMPDEST SWAP1 POP SWAP2 SWAP1 POP JUMP JUMPDEST PUSH32 0x416C6C6F77616E636543726F776473616C653A20746F6B656E2077616C6C6574 PUSH0 DUP3 ADD MSTORE PUSH32 0x20697320746865207A65726F2061646472657373000000000000000000000000 PUSH1 0x20 DUP3 ADD MSTORE POP JUMP JUMPDEST PUSH0 PUSH3 0x63E PUSH1 0x34 DUP4 PUSH3 0x43C JUMP JUMPDEST SWAP2 POP PUSH3 0x64B DUP3 PUSH3 0x5E2 JUMP JUMPDEST PUSH1 0x40 DUP3 ADD SWAP1 POP SWAP2 SWAP1 POP JUMP JUMPDEST PUSH0 PUSH1 0x20 DUP3 ADD SWAP1 POP DUP2 DUP2 SUB PUSH0 DUP4 ADD MSTORE PUSH3 0x66F DUP2 PUSH3 0x630 JUMP JUMPDEST SWAP1 POP SWAP2 SWAP1 POP JUMP JUMPDEST PUSH2 0x114A DUP1 PUSH3 0x684 PUSH0 CODECOPY PUSH0 RETURN INVALID PUSH1 0x80 PUSH1 0x40 MSTORE PUSH1 0x4 CALLDATASIZE LT PUSH2 0x73 JUMPI PUSH0 CALLDATALOAD PUSH1 0xE0 SHR DUP1 PUSH4 0xBF583903 GT PUSH2 0x4D JUMPI DUP1 PUSH4 0xBF583903 EQ PUSH2 0x11A JUMPI DUP1 PUSH4 0xBFF99C6C EQ PUSH2 0x144 JUMPI DUP1 PUSH4 0xEC8AC4D8 EQ PUSH2 0x16E JUMPI DUP1 PUSH4 0xFC0C546A EQ PUSH2 0x18A JUMPI PUSH2 0x8A JUMP JUMPDEST DUP1 PUSH4 0x2C4E722E EQ PUSH2 0x9C JUMPI DUP1 PUSH4 0x4042B66F EQ PUSH2 0xC6 JUMPI DUP1 PUSH4 0x521EB273 EQ PUSH2 0xF0 JUMPI PUSH2 0x8A JUMP JUMPDEST CALLDATASIZE PUSH2 0x8A JUMPI PUSH2 0x88 PUSH2 0x83 PUSH2 0x1B4 JUMP JUMPDEST PUSH2 0x1BB JUMP JUMPDEST STOP JUMPDEST PUSH2 0x9A PUSH2 0x95 PUSH2 0x1B4 JUMP JUMPDEST PUSH2 0x1BB JUMP JUMPDEST STOP JUMPDEST CALLVALUE DUP1 ISZERO PUSH2 0xA7 JUMPI PUSH0 DUP1 REVERT JUMPDEST POP PUSH2 0xB0 PUSH2 0x299 JUMP JUMPDEST PUSH1 0x40 MLOAD PUSH2 0xBD SWAP2 SWAP1 PUSH2 0x9DE JUMP JUMPDEST PUSH1 0x40 MLOAD DUP1 SWAP2 SUB SWAP1 RETURN JUMPDEST CALLVALUE DUP1 ISZERO PUSH2 0xD1 JUMPI PUSH0 DUP1 REVERT JUMPDEST POP PUSH2 0xDA PUSH2 0x2A2 JUMP JUMPDEST PUSH1 0x40 MLOAD PUSH2 0xE7 SWAP2 SWAP1 PUSH2 0x9DE JUMP JUMPDEST PUSH1 0x40 MLOAD DUP1 SWAP2 SUB SWAP1 RETURN JUMPDEST CALLVALUE DUP1 ISZERO PUSH2 0xFB JUMPI PUSH0 DUP1 REVERT JUMPDEST POP PUSH2 0x104 PUSH2 0x2AB JUMP JUMPDEST PUSH1 0x40 MLOAD PUSH2 0x111 SWAP2 SWAP1 PUSH2 0xA36 JUMP JUMPDEST PUSH1 0x40 MLOAD DUP1 SWAP2 SUB SWAP1 RETURN JUMPDEST CALLVALUE DUP1 ISZERO PUSH2 0x125 JUMPI PUSH0 DUP1 REVERT JUMPDEST POP PUSH2 0x12E PUSH2 0x2D3 JUMP JUMPDEST PUSH1 0x40 MLOAD PUSH2 0x13B SWAP2 SWAP1 PUSH2 0x9DE JUMP JUMPDEST PUSH1 0x40 MLOAD DUP1 SWAP2 SUB SWAP1 RETURN JUMPDEST CALLVALUE DUP1 ISZERO PUSH2 0x14F JUMPI PUSH0 DUP1 REVERT JUMPDEST POP PUSH2 0x158 PUSH2 0x423 JUMP JUMPDEST PUSH1 0x40 MLOAD PUSH2 0x165 SWAP2 SWAP1 PUSH2 0xA6F JUMP JUMPDEST PUSH1 0x40 MLOAD DUP1 SWAP2 SUB SWAP1 RETURN JUMPDEST PUSH2 0x188 PUSH1 0x4 DUP1 CALLDATASIZE SUB DUP2 ADD SWAP1 PUSH2 0x183 SWAP2 SWAP1 PUSH2 0xAB6 JUMP JUMPDEST PUSH2 0x1BB JUMP JUMPDEST STOP JUMPDEST CALLVALUE DUP1 ISZERO PUSH2 0x195 JUMPI PUSH0 DUP1 REVERT JUMPDEST POP PUSH2 0x19E PUSH2 0x44B JUMP JUMPDEST PUSH1 0x40 MLOAD PUSH2 0x1AB SWAP2 SWAP1 PUSH2 0xB3C JUMP JUMPDEST PUSH1 0x40 MLOAD DUP1 SWAP2 SUB SWAP1 RETURN JUMPDEST PUSH0 CALLER SWAP1 POP SWAP1 JUMP JUMPDEST PUSH2 0x1C3 PUSH2 0x473 JUMP JUMPDEST PUSH0 CALLVALUE SWAP1 POP PUSH2 0x1D1 DUP3 DUP3 PUSH2 0x4C0 JUMP JUMPDEST PUSH0 PUSH2 0x1DB DUP3 PUSH2 0x574 JUMP JUMPDEST SWAP1 POP PUSH2 0x1F2 DUP3 PUSH1 0x4 SLOAD PUSH2 0x591 SWAP1 SWAP2 SWAP1 PUSH4 0xFFFFFFFF AND JUMP JUMPDEST PUSH1 0x4 DUP2 SWAP1 SSTORE POP PUSH2 0x202 DUP4 DUP3 PUSH2 0x5A6 JUMP JUMPDEST DUP3 PUSH20 0xFFFFFFFFFFFFFFFFFFFFFFFFFFFFFFFFFFFFFFFF AND PUSH2 0x221 PUSH2 0x1B4 JUMP JUMPDEST PUSH20 0xFFFFFFFFFFFFFFFFFFFFFFFFFFFFFFFFFFFFFFFF AND PUSH32 0x6FAF93231A456E552DBC9961F58D9713EE4F2E69D15F1975B050EF0911053A7B DUP5 DUP5 PUSH1 0x40 MLOAD PUSH2 0x268 SWAP3 SWAP2 SWAP1 PUSH2 0xB55 JUMP JUMPDEST PUSH1 0x40 MLOAD DUP1 SWAP2 SUB SWAP1 LOG3 PUSH2 0x27A DUP4 DUP4 PUSH2 0x5B4 JUMP JUMPDEST PUSH2 0x282 PUSH2 0x5B8 JUMP JUMPDEST PUSH2 0x28C DUP4 DUP4 PUSH2 0x61F JUMP JUMPDEST POP POP PUSH2 0x296 PUSH2 0x623 JUMP JUMPDEST POP JUMP JUMPDEST PUSH0 PUSH1 0x3 SLOAD SWAP1 POP SWAP1 JUMP JUMPDEST PUSH0 PUSH1 0x4 SLOAD SWAP1 POP SWAP1 JUMP JUMPDEST PUSH0 PUSH1 0x2 PUSH0 SWAP1 SLOAD SWAP1 PUSH2 0x100 EXP SWAP1 DIV PUSH20 0xFFFFFFFFFFFFFFFFFFFFFFFFFFFFFFFFFFFFFFFF AND SWAP1 POP SWAP1 JUMP JUMPDEST PUSH0 PUSH2 0x41E PUSH2 0x2DF PUSH2 0x44B JUMP JUMPDEST PUSH20 0xFFFFFFFFFFFFFFFFFFFFFFFFFFFFFFFFFFFFFFFF AND PUSH4 0x70A08231 PUSH1 0x5 PUSH0 SWAP1 SLOAD SWAP1 PUSH2 0x100 EXP SWAP1 DIV PUSH20 0xFFFFFFFFFFFFFFFFFFFFFFFFFFFFFFFFFFFFFFFF AND PUSH1 0x40 MLOAD DUP3 PUSH4 0xFFFFFFFF AND PUSH1 0xE0 SHL DUP2 MSTORE PUSH1 0x4 ADD PUSH2 0x338 SWAP2 SWAP1 PUSH2 0xA6F JUMP JUMPDEST PUSH1 0x20 PUSH1 0x40 MLOAD DUP1 DUP4 SUB DUP2 DUP7 GAS STATICCALL ISZERO DUP1 ISZERO PUSH2 0x353 JUMPI RETURNDATASIZE PUSH0 DUP1 RETURNDATACOPY RETURNDATASIZE PUSH0 REVERT JUMPDEST POP POP POP POP PUSH1 0x40 MLOAD RETURNDATASIZE PUSH1 0x1F NOT PUSH1 0x1F DUP3 ADD AND DUP3 ADD DUP1 PUSH1 0x40 MSTORE POP DUP2 ADD SWAP1 PUSH2 0x377 SWAP2 SWAP1 PUSH2 0xBA6 JUMP JUMPDEST PUSH2 0x37F PUSH2 0x44B JUMP JUMPDEST PUSH20 0xFFFFFFFFFFFFFFFFFFFFFFFFFFFFFFFFFFFFFFFF AND PUSH4 0xDD62ED3E PUSH1 0x5 PUSH0 SWAP1 SLOAD SWAP1 PUSH2 0x100 EXP SWAP1 DIV PUSH20 0xFFFFFFFFFFFFFFFFFFFFFFFFFFFFFFFFFFFFFFFF AND ADDRESS PUSH1 0x40 MLOAD DUP4 PUSH4 0xFFFFFFFF AND PUSH1 0xE0 SHL DUP2 MSTORE PUSH1 0x4 ADD PUSH2 0x3DA SWAP3 SWAP2 SWAP1 PUSH2 0xBD1 JUMP JUMPDEST PUSH1 0x20 PUSH1 0x40 MLOAD DUP1 DUP4 SUB DUP2 DUP7 GAS STATICCALL ISZERO DUP1 ISZERO PUSH2 0x3F5 JUMPI RETURNDATASIZE PUSH0 DUP1 RETURNDATACOPY RETURNDATASIZE PUSH0 REVERT JUMPDEST POP POP POP POP PUSH1 0x40 MLOAD RETURNDATASIZE PUSH1 0x1F NOT PUSH1 0x1F DUP3 ADD AND DUP3 ADD DUP1 PUSH1 0x40 MSTORE POP DUP2 ADD SWAP1 PUSH2 0x419 SWAP2 SWAP1 PUSH2 0xBA6 JUMP JUMPDEST PUSH2 0x62C JUMP JUMPDEST SWAP1 POP SWAP1 JUMP JUMPDEST PUSH0 PUSH1 0x5 PUSH0 SWAP1 SLOAD SWAP1 PUSH2 0x100 EXP SWAP1 DIV PUSH20 0xFFFFFFFFFFFFFFFFFFFFFFFFFFFFFFFFFFFFFFFF AND SWAP1 POP SWAP1 JUMP JUMPDEST PUSH0 PUSH1 0x1 PUSH0 SWAP1 SLOAD SWAP1 PUSH2 0x100 EXP SWAP1 DIV PUSH20 0xFFFFFFFFFFFFFFFFFFFFFFFFFFFFFFFFFFFFFFFF AND SWAP1 POP SWAP1 JUMP JUMPDEST PUSH1 0x2 PUSH0 SLOAD SUB PUSH2 0x4B7 JUMPI PUSH1 0x40 MLOAD PUSH32 0x8C379A000000000000000000000000000000000000000000000000000000000 DUP2 MSTORE PUSH1 0x4 ADD PUSH2 0x4AE SWAP1 PUSH2 0xC52 JUMP JUMPDEST PUSH1 0x40 MLOAD DUP1 SWAP2 SUB SWAP1 REVERT JUMPDEST PUSH1 0x2 PUSH0 DUP2 SWAP1 SSTORE POP JUMP JUMPDEST PUSH0 PUSH20 0xFFFFFFFFFFFFFFFFFFFFFFFFFFFFFFFFFFFFFFFF AND DUP3 PUSH20 0xFFFFFFFFFFFFFFFFFFFFFFFFFFFFFFFFFFFFFFFF AND SUB PUSH2 0x52E JUMPI PUSH1 0x40 MLOAD PUSH32 0x8C379A000000000000000000000000000000000000000000000000000000000 DUP2 MSTORE PUSH1 0x4 ADD PUSH2 0x525 SWAP1 PUSH2 0xCE0 JUMP JUMPDEST PUSH1 0x40 MLOAD DUP1 SWAP2 SUB SWAP1 REVERT JUMPDEST PUSH0 DUP2 SUB PUSH2 0x570 JUMPI PUSH1 0x40 MLOAD PUSH32 0x8C379A000000000000000000000000000000000000000000000000000000000 DUP2 MSTORE PUSH1 0x4 ADD PUSH2 0x567 SWAP1 PUSH2 0xD48 JUMP JUMPDEST PUSH1 0x40 MLOAD DUP1 SWAP2 SUB SWAP1 REVERT JUMPDEST POP POP JUMP JUMPDEST PUSH0 PUSH2 0x58A PUSH1 0x3 SLOAD DUP4 PUSH2 0x644 SWAP1 SWAP2 SWAP1 PUSH4 0xFFFFFFFF AND JUMP JUMPDEST SWAP1 POP SWAP2 SWAP1 POP JUMP JUMPDEST PUSH0 DUP2 DUP4 PUSH2 0x59E SWAP2 SWAP1 PUSH2 0xD93 JUMP JUMPDEST SWAP1 POP SWAP3 SWAP2 POP POP JUMP JUMPDEST PUSH2 0x5B0 DUP3 DUP3 PUSH2 0x659 JUMP JUMPDEST POP POP JUMP JUMPDEST POP POP JUMP JUMPDEST PUSH1 0x2 PUSH0 SWAP1 SLOAD SWAP1 PUSH2 0x100 EXP SWAP1 DIV PUSH20 0xFFFFFFFFFFFFFFFFFFFFFFFFFFFFFFFFFFFFFFFF AND PUSH20 0xFFFFFFFFFFFFFFFFFFFFFFFFFFFFFFFFFFFFFFFF AND PUSH2 0x8FC CALLVALUE SWAP1 DUP2 ISZERO MUL SWAP1 PUSH1 0x40 MLOAD PUSH0 PUSH1 0x40 MLOAD DUP1 DUP4 SUB DUP2 DUP6 DUP9 DUP9 CALL SWAP4 POP POP POP POP ISZERO DUP1 ISZERO PUSH2 0x61C JUMPI RETURNDATASIZE PUSH0 DUP1 RETURNDATACOPY RETURNDATASIZE PUSH0 REVERT JUMPDEST POP JUMP JUMPDEST POP POP JUMP JUMPDEST PUSH1 0x1 PUSH0 DUP2 SWAP1 SSTORE POP JUMP JUMPDEST PUSH0 DUP2 DUP4 LT PUSH2 0x63A JUMPI DUP2 PUSH2 0x63C JUMP JUMPDEST DUP3 JUMPDEST SWAP1 POP SWAP3 SWAP2 POP POP JUMP JUMPDEST PUSH0 DUP2 DUP4 PUSH2 0x651 SWAP2 SWAP1 PUSH2 0xDC6 JUMP JUMPDEST SWAP1 POP SWAP3 SWAP2 POP POP JUMP JUMPDEST PUSH2 0x6AE PUSH1 0x5 PUSH0 SWAP1 SLOAD SWAP1 PUSH2 0x100 EXP SWAP1 DIV PUSH20 0xFFFFFFFFFFFFFFFFFFFFFFFFFFFFFFFFFFFFFFFF AND DUP4 DUP4 PUSH2 0x688 PUSH2 0x44B JUMP JUMPDEST PUSH20 0xFFFFFFFFFFFFFFFFFFFFFFFFFFFFFFFFFFFFFFFF AND PUSH2 0x6B2 SWAP1 SWAP4 SWAP3 SWAP2 SWAP1 PUSH4 0xFFFFFFFF AND JUMP JUMPDEST POP POP JUMP JUMPDEST PUSH2 0x735 DUP5 PUSH4 0x23B872DD PUSH1 0xE0 SHL DUP6 DUP6 DUP6 PUSH1 0x40 MLOAD PUSH1 0x24 ADD PUSH2 0x6D3 SWAP4 SWAP3 SWAP2 SWAP1 PUSH2 0xE07 JUMP JUMPDEST PUSH1 0x40 MLOAD PUSH1 0x20 DUP2 DUP4 SUB SUB DUP2 MSTORE SWAP1 PUSH1 0x40 MSTORE SWAP1 PUSH28 0xFFFFFFFFFFFFFFFFFFFFFFFFFFFFFFFFFFFFFFFFFFFFFFFFFFFFFFFF NOT AND PUSH1 0x20 DUP3 ADD DUP1 MLOAD PUSH28 0xFFFFFFFFFFFFFFFFFFFFFFFFFFFFFFFFFFFFFFFFFFFFFFFFFFFFFFFF DUP4 DUP2 DUP4 AND OR DUP4 MSTORE POP POP POP POP PUSH2 0x73B JUMP JUMPDEST POP POP POP POP JUMP JUMPDEST PUSH0 PUSH2 0x79C DUP3 PUSH1 0x40 MLOAD DUP1 PUSH1 0x40 ADD PUSH1 0x40 MSTORE DUP1 PUSH1 0x20 DUP2 MSTORE PUSH1 0x20 ADD PUSH32 0x5361666545524332303A206C6F772D6C6576656C2063616C6C206661696C6564 DUP2 MSTORE POP DUP6 PUSH20 0xFFFFFFFFFFFFFFFFFFFFFFFFFFFFFFFFFFFFFFFF AND PUSH2 0x801 SWAP1 SWAP3 SWAP2 SWAP1 PUSH4 0xFFFFFFFF AND JUMP JUMPDEST SWAP1 POP PUSH0 DUP2 MLOAD EQ DUP1 PUSH2 0x7BD JUMPI POP DUP1 DUP1 PUSH1 0x20 ADD SWAP1 MLOAD DUP2 ADD SWAP1 PUSH2 0x7BC SWAP2 SWAP1 PUSH2 0xE71 JUMP JUMPDEST JUMPDEST PUSH2 0x7FC JUMPI PUSH1 0x40 MLOAD PUSH32 0x8C379A000000000000000000000000000000000000000000000000000000000 DUP2 MSTORE PUSH1 0x4 ADD PUSH2 0x7F3 SWAP1 PUSH2 0xF0C JUMP JUMPDEST PUSH1 0x40 MLOAD DUP1 SWAP2 SUB SWAP1 REVERT JUMPDEST POP POP POP JUMP JUMPDEST PUSH1 0x60 PUSH2 0x80F DUP5 DUP5 PUSH0 DUP6 PUSH2 0x818 JUMP JUMPDEST SWAP1 POP SWAP4 SWAP3 POP POP POP JUMP JUMPDEST PUSH1 0x60 DUP3 SELFBALANCE LT ISZERO PUSH2 0x85D JUMPI PUSH1 0x40 MLOAD PUSH32 0x8C379A000000000000000000000000000000000000000000000000000000000 DUP2 MSTORE PUSH1 0x4 ADD PUSH2 0x854 SWAP1 PUSH2 0xF9A JUMP JUMPDEST PUSH1 0x40 MLOAD DUP1 SWAP2 SUB SWAP1 REVERT JUMPDEST PUSH0 DUP1 DUP7 PUSH20 0xFFFFFFFFFFFFFFFFFFFFFFFFFFFFFFFFFFFFFFFF AND DUP6 DUP8 PUSH1 0x40 MLOAD PUSH2 0x885 SWAP2 SWAP1 PUSH2 0x1024 JUMP JUMPDEST PUSH0 PUSH1 0x40 MLOAD DUP1 DUP4 SUB DUP2 DUP6 DUP8 GAS CALL SWAP3 POP POP POP RETURNDATASIZE DUP1 PUSH0 DUP2 EQ PUSH2 0x8BF JUMPI PUSH1 0x40 MLOAD SWAP2 POP PUSH1 0x1F NOT PUSH1 0x3F RETURNDATASIZE ADD AND DUP3 ADD PUSH1 0x40 MSTORE RETURNDATASIZE DUP3 MSTORE RETURNDATASIZE PUSH0 PUSH1 0x20 DUP5 ADD RETURNDATACOPY PUSH2 0x8C4 JUMP JUMPDEST PUSH1 0x60 SWAP2 POP JUMPDEST POP SWAP2 POP SWAP2 POP PUSH2 0x8D5 DUP8 DUP4 DUP4 DUP8 PUSH2 0x8E1 JUMP JUMPDEST SWAP3 POP POP POP SWAP5 SWAP4 POP POP POP POP JUMP JUMPDEST PUSH1 0x60 DUP4 ISZERO PUSH2 0x942 JUMPI PUSH0 DUP4 MLOAD SUB PUSH2 0x93A JUMPI PUSH2 0x8FA DUP6 PUSH2 0x955 JUMP JUMPDEST PUSH2 0x939 JUMPI PUSH1 0x40 MLOAD PUSH32 0x8C379A000000000000000000000000000000000000000000000000000000000 DUP2 MSTORE PUSH1 0x4 ADD PUSH2 0x930 SWAP1 PUSH2 0x1084 JUMP JUMPDEST PUSH1 0x40 MLOAD DUP1 SWAP2 SUB SWAP1 REVERT JUMPDEST JUMPDEST DUP3 SWAP1 POP PUSH2 0x94D JUMP JUMPDEST PUSH2 0x94C DUP4 DUP4 PUSH2 0x977 JUMP JUMPDEST JUMPDEST SWAP5 SWAP4 POP POP POP POP JUMP JUMPDEST PUSH0 DUP1 DUP3 PUSH20 0xFFFFFFFFFFFFFFFFFFFFFFFFFFFFFFFFFFFFFFFF AND EXTCODESIZE GT SWAP1 POP SWAP2 SWAP1 POP JUMP JUMPDEST PUSH0 DUP3 MLOAD GT ISZERO PUSH2 0x989 JUMPI DUP2 MLOAD DUP1 DUP4 PUSH1 0x20 ADD REVERT JUMPDEST DUP1 PUSH1 0x40 MLOAD PUSH32 0x8C379A000000000000000000000000000000000000000000000000000000000 DUP2 MSTORE PUSH1 0x4 ADD PUSH2 0x9BD SWAP2 SWAP1 PUSH2 0x10F4 JUMP JUMPDEST PUSH1 0x40 MLOAD DUP1 SWAP2 SUB SWAP1 REVERT JUMPDEST PUSH0 DUP2 SWAP1 POP SWAP2 SWAP1 POP JUMP JUMPDEST PUSH2 0x9D8 DUP2 PUSH2 0x9C6 JUMP JUMPDEST DUP3 MSTORE POP POP JUMP JUMPDEST PUSH0 PUSH1 0x20 DUP3 ADD SWAP1 POP PUSH2 0x9F1 PUSH0 DUP4 ADD DUP5 PUSH2 0x9CF JUMP JUMPDEST SWAP3 SWAP2 POP POP JUMP JUMPDEST PUSH0 PUSH20 0xFFFFFFFFFFFFFFFFFFFFFFFFFFFFFFFFFFFFFFFF DUP3 AND SWAP1 POP SWAP2 SWAP1 POP JUMP JUMPDEST PUSH0 PUSH2 0xA20 DUP3 PUSH2 0x9F7 JUMP JUMPDEST SWAP1 POP SWAP2 SWAP1 POP JUMP JUMPDEST PUSH2 0xA30 DUP2 PUSH2 0xA16 JUMP JUMPDEST DUP3 MSTORE POP POP JUMP JUMPDEST PUSH0 PUSH1 0x20 DUP3 ADD SWAP1 POP PUSH2 0xA49 PUSH0 DUP4 ADD DUP5 PUSH2 0xA27 JUMP JUMPDEST SWAP3 SWAP2 POP POP JUMP JUMPDEST PUSH0 PUSH2 0xA59 DUP3 PUSH2 0x9F7 JUMP JUMPDEST SWAP1 POP SWAP2 SWAP1 POP JUMP JUMPDEST PUSH2 0xA69 DUP2 PUSH2 0xA4F JUMP JUMPDEST DUP3 MSTORE POP POP JUMP JUMPDEST PUSH0 PUSH1 0x20 DUP3 ADD SWAP1 POP PUSH2 0xA82 PUSH0 DUP4 ADD DUP5 PUSH2 0xA60 JUMP JUMPDEST SWAP3 SWAP2 POP POP JUMP JUMPDEST PUSH0 DUP1 REVERT JUMPDEST PUSH2 0xA95 DUP2 PUSH2 0xA4F JUMP JUMPDEST DUP2 EQ PUSH2 0xA9F JUMPI PUSH0 DUP1 REVERT JUMPDEST POP JUMP JUMPDEST PUSH0 DUP2 CALLDATALOAD SWAP1 POP PUSH2 0xAB0 DUP2 PUSH2 0xA8C JUMP JUMPDEST SWAP3 SWAP2 POP POP JUMP JUMPDEST PUSH0 PUSH1 0x20 DUP3 DUP5 SUB SLT ISZERO PUSH2 0xACB JUMPI PUSH2 0xACA PUSH2 0xA88 JUMP JUMPDEST JUMPDEST PUSH0 PUSH2 0xAD8 DUP5 DUP3 DUP6 ADD PUSH2 0xAA2 JUMP JUMPDEST SWAP2 POP POP SWAP3 SWAP2 POP POP JUMP JUMPDEST PUSH0 DUP2 SWAP1 POP SWAP2 SWAP1 POP JUMP JUMPDEST PUSH0 PUSH2 0xB04 PUSH2 0xAFF PUSH2 0xAFA DUP5 PUSH2 0x9F7 JUMP JUMPDEST PUSH2 0xAE1 JUMP JUMPDEST PUSH2 0x9F7 JUMP JUMPDEST SWAP1 POP SWAP2 SWAP1 POP JUMP JUMPDEST PUSH0 PUSH2 0xB15 DUP3 PUSH2 0xAEA JUMP JUMPDEST SWAP1 POP SWAP2 SWAP1 POP JUMP JUMPDEST PUSH0 PUSH2 0xB26 DUP3 PUSH2 0xB0B JUMP JUMPDEST SWAP1 POP SWAP2 SWAP1 POP JUMP JUMPDEST PUSH2 0xB36 DUP2 PUSH2 0xB1C JUMP JUMPDEST DUP3 MSTORE POP POP JUMP JUMPDEST PUSH0 PUSH1 0x20 DUP3 ADD SWAP1 POP PUSH2 0xB4F PUSH0 DUP4 ADD DUP5 PUSH2 0xB2D JUMP JUMPDEST SWAP3 SWAP2 POP POP JUMP JUMPDEST PUSH0 PUSH1 0x40 DUP3 ADD SWAP1 POP PUSH2 0xB68 PUSH0 DUP4 ADD DUP6 PUSH2 0x9CF JUMP JUMPDEST PUSH2 0xB75 PUSH1 0x20 DUP4 ADD DUP5 PUSH2 0x9CF JUMP JUMPDEST SWAP4 SWAP3 POP POP POP JUMP JUMPDEST PUSH2 0xB85 DUP2 PUSH2 0x9C6 JUMP JUMPDEST DUP2 EQ PUSH2 0xB8F JUMPI PUSH0 DUP1 REVERT JUMPDEST POP JUMP JUMPDEST PUSH0 DUP2 MLOAD SWAP1 POP PUSH2 0xBA0 DUP2 PUSH2 0xB7C JUMP JUMPDEST SWAP3 SWAP2 POP POP JUMP JUMPDEST PUSH0 PUSH1 0x20 DUP3 DUP5 SUB SLT ISZERO PUSH2 0xBBB JUMPI PUSH2 0xBBA PUSH2 0xA88 JUMP JUMPDEST JUMPDEST PUSH0 PUSH2 0xBC8 DUP5 DUP3 DUP6 ADD PUSH2 0xB92 JUMP JUMPDEST SWAP2 POP POP SWAP3 SWAP2 POP POP JUMP JUMPDEST PUSH0 PUSH1 0x40 DUP3 ADD SWAP1 POP PUSH2 0xBE4 PUSH0 DUP4 ADD DUP6 PUSH2 0xA60 JUMP JUMPDEST PUSH2 0xBF1 PUSH1 0x20 DUP4 ADD DUP5 PUSH2 0xA60 JUMP JUMPDEST SWAP4 SWAP3 POP POP POP JUMP JUMPDEST PUSH0 DUP3 DUP3 MSTORE PUSH1 0x20 DUP3 ADD SWAP1 POP SWAP3 SWAP2 POP POP JUMP JUMPDEST PUSH32 0x5265656E7472616E637947756172643A207265656E7472616E742063616C6C00 PUSH0 DUP3 ADD MSTORE POP JUMP JUMPDEST PUSH0 PUSH2 0xC3C PUSH1 0x1F DUP4 PUSH2 0xBF8 JUMP JUMPDEST SWAP2 POP PUSH2 0xC47 DUP3 PUSH2 0xC08 JUMP JUMPDEST PUSH1 0x20 DUP3 ADD SWAP1 POP SWAP2 SWAP1 POP JUMP JUMPDEST PUSH0 PUSH1 0x20 DUP3 ADD SWAP1 POP DUP2 DUP2 SUB PUSH0 DUP4 ADD MSTORE PUSH2 0xC69 DUP2 PUSH2 0xC30 JUMP JUMPDEST SWAP1 POP SWAP2 SWAP1 POP JUMP JUMPDEST PUSH32 0x43726F776473616C653A2062656E656669636961727920697320746865207A65 PUSH0 DUP3 ADD MSTORE PUSH32 0x726F206164647265737300000000000000000000000000000000000000000000 PUSH1 0x20 DUP3 ADD MSTORE POP JUMP JUMPDEST PUSH0 PUSH2 0xCCA PUSH1 0x2A DUP4 PUSH2 0xBF8 JUMP JUMPDEST SWAP2 POP PUSH2 0xCD5 DUP3 PUSH2 0xC70 JUMP JUMPDEST PUSH1 0x40 DUP3 ADD SWAP1 POP SWAP2 SWAP1 POP JUMP JUMPDEST PUSH0 PUSH1 0x20 DUP3 ADD SWAP1 POP DUP2 DUP2 SUB PUSH0 DUP4 ADD MSTORE PUSH2 0xCF7 DUP2 PUSH2 0xCBE JUMP JUMPDEST SWAP1 POP SWAP2 SWAP1 POP JUMP JUMPDEST PUSH32 0x43726F776473616C653A20776569416D6F756E74206973203000000000000000 PUSH0 DUP3 ADD MSTORE POP JUMP JUMPDEST PUSH0 PUSH2 0xD32 PUSH1 0x19 DUP4 PUSH2 0xBF8 JUMP JUMPDEST SWAP2 POP PUSH2 0xD3D DUP3 PUSH2 0xCFE JUMP JUMPDEST PUSH1 0x20 DUP3 ADD SWAP1 POP SWAP2 SWAP1 POP JUMP JUMPDEST PUSH0 PUSH1 0x20 DUP3 ADD SWAP1 POP DUP2 DUP2 SUB PUSH0 DUP4 ADD MSTORE PUSH2 0xD5F DUP2 PUSH2 0xD26 JUMP JUMPDEST SWAP1 POP SWAP2 SWAP1 POP JUMP JUMPDEST PUSH32 0x4E487B7100000000000000000000000000000000000000000000000000000000 PUSH0 MSTORE PUSH1 0x11 PUSH1 0x4 MSTORE PUSH1 0x24 PUSH0 REVERT JUMPDEST PUSH0 PUSH2 0xD9D DUP3 PUSH2 0x9C6 JUMP JUMPDEST SWAP2 POP PUSH2 0xDA8 DUP4 PUSH2 0x9C6 JUMP JUMPDEST SWAP3 POP DUP3 DUP3 ADD SWAP1 POP DUP1 DUP3 GT ISZERO PUSH2 0xDC0 JUMPI PUSH2 0xDBF PUSH2 0xD66 JUMP JUMPDEST JUMPDEST SWAP3 SWAP2 POP POP JUMP JUMPDEST PUSH0 PUSH2 0xDD0 DUP3 PUSH2 0x9C6 JUMP JUMPDEST SWAP2 POP PUSH2 0xDDB DUP4 PUSH2 0x9C6 JUMP JUMPDEST SWAP3 POP DUP3 DUP3 MUL PUSH2 0xDE9 DUP2 PUSH2 0x9C6 JUMP JUMPDEST SWAP2 POP DUP3 DUP3 DIV DUP5 EQ DUP4 ISZERO OR PUSH2 0xE00 JUMPI PUSH2 0xDFF PUSH2 0xD66 JUMP JUMPDEST JUMPDEST POP SWAP3 SWAP2 POP POP JUMP JUMPDEST PUSH0 PUSH1 0x60 DUP3 ADD SWAP1 POP PUSH2 0xE1A PUSH0 DUP4 ADD DUP7 PUSH2 0xA60 JUMP JUMPDEST PUSH2 0xE27 PUSH1 0x20 DUP4 ADD DUP6 PUSH2 0xA60 JUMP JUMPDEST PUSH2 0xE34 PUSH1 0x40 DUP4 ADD DUP5 PUSH2 0x9CF JUMP JUMPDEST SWAP5 SWAP4 POP POP POP POP JUMP JUMPDEST PUSH0 DUP2 ISZERO ISZERO SWAP1 POP SWAP2 SWAP1 POP JUMP JUMPDEST PUSH2 0xE50 DUP2 PUSH2 0xE3C JUMP JUMPDEST DUP2 EQ PUSH2 0xE5A JUMPI PUSH0 DUP1 REVERT JUMPDEST POP JUMP JUMPDEST PUSH0 DUP2 MLOAD SWAP1 POP PUSH2 0xE6B DUP2 PUSH2 0xE47 JUMP JUMPDEST SWAP3 SWAP2 POP POP JUMP JUMPDEST PUSH0 PUSH1 0x20 DUP3 DUP5 SUB SLT ISZERO PUSH2 0xE86 JUMPI PUSH2 0xE85 PUSH2 0xA88 JUMP JUMPDEST JUMPDEST PUSH0 PUSH2 0xE93 DUP5 DUP3 DUP6 ADD PUSH2 0xE5D JUMP JUMPDEST SWAP2 POP POP SWAP3 SWAP2 POP POP JUMP JUMPDEST PUSH32 0x5361666545524332303A204552433230206F7065726174696F6E20646964206E PUSH0 DUP3 ADD MSTORE PUSH32 0x6F74207375636365656400000000000000000000000000000000000000000000 PUSH1 0x20 DUP3 ADD MSTORE POP JUMP JUMPDEST PUSH0 PUSH2 0xEF6 PUSH1 0x2A DUP4 PUSH2 0xBF8 JUMP JUMPDEST SWAP2 POP PUSH2 0xF01 DUP3 PUSH2 0xE9C JUMP JUMPDEST PUSH1 0x40 DUP3 ADD SWAP1 POP SWAP2 SWAP1 POP JUMP JUMPDEST PUSH0 PUSH1 0x20 DUP3 ADD SWAP1 POP DUP2 DUP2 SUB PUSH0 DUP4 ADD MSTORE PUSH2 0xF23 DUP2 PUSH2 0xEEA JUMP JUMPDEST SWAP1 POP SWAP2 SWAP1 POP JUMP JUMPDEST PUSH32 0x416464726573733A20696E73756666696369656E742062616C616E636520666F PUSH0 DUP3 ADD MSTORE PUSH32 0x722063616C6C0000000000000000000000000000000000000000000000000000 PUSH1 0x20 DUP3 ADD MSTORE POP JUMP JUMPDEST PUSH0 PUSH2 0xF84 PUSH1 0x26 DUP4 PUSH2 0xBF8 JUMP JUMPDEST SWAP2 POP PUSH2 0xF8F DUP3 PUSH2 0xF2A JUMP JUMPDEST PUSH1 0x40 DUP3 ADD SWAP1 POP SWAP2 SWAP1 POP JUMP JUMPDEST PUSH0 PUSH1 0x20 DUP3 ADD SWAP1 POP DUP2 DUP2 SUB PUSH0 DUP4 ADD MSTORE PUSH2 0xFB1 DUP2 PUSH2 0xF78 JUMP JUMPDEST SWAP1 POP SWAP2 SWAP1 POP JUMP JUMPDEST PUSH0 DUP2 MLOAD SWAP1 POP SWAP2 SWAP1 POP JUMP JUMPDEST PUSH0 DUP2 SWAP1 POP SWAP3 SWAP2 POP POP JUMP JUMPDEST PUSH0 JUMPDEST DUP4 DUP2 LT ISZERO PUSH2 0xFE9 JUMPI DUP1 DUP3 ADD MLOAD DUP2 DUP5 ADD MSTORE PUSH1 0x20 DUP2 ADD SWAP1 POP PUSH2 0xFCE JUMP JUMPDEST PUSH0 DUP5 DUP5 ADD MSTORE POP POP POP POP JUMP JUMPDEST PUSH0 PUSH2 0xFFE DUP3 PUSH2 0xFB8 JUMP JUMPDEST PUSH2 0x1008 DUP2 DUP6 PUSH2 0xFC2 JUMP JUMPDEST SWAP4 POP PUSH2 0x1018 DUP2 DUP6 PUSH1 0x20 DUP7 ADD PUSH2 0xFCC JUMP JUMPDEST DUP1 DUP5 ADD SWAP2 POP POP SWAP3 SWAP2 POP POP JUMP JUMPDEST PUSH0 PUSH2 0x102F DUP3 DUP5 PUSH2 0xFF4 JUMP JUMPDEST SWAP2 POP DUP2 SWAP1 POP SWAP3 SWAP2 POP POP JUMP JUMPDEST PUSH32 0x416464726573733A2063616C6C20746F206E6F6E2D636F6E7472616374000000 PUSH0 DUP3 ADD MSTORE POP JUMP JUMPDEST PUSH0 PUSH2 0x106E PUSH1 0x1D DUP4 PUSH2 0xBF8 JUMP JUMPDEST SWAP2 POP PUSH2 0x1079 DUP3 PUSH2 0x103A JUMP JUMPDEST PUSH1 0x20 DUP3 ADD SWAP1 POP SWAP2 SWAP1 POP JUMP JUMPDEST PUSH0 PUSH1 0x20 DUP3 ADD SWAP1 POP DUP2 DUP2 SUB PUSH0 DUP4 ADD MSTORE PUSH2 0x109B DUP2 PUSH2 0x1062 JUMP JUMPDEST SWAP1 POP SWAP2 SWAP1 POP JUMP JUMPDEST PUSH0 DUP2 MLOAD SWAP1 POP SWAP2 SWAP1 POP JUMP JUMPDEST PUSH0 PUSH1 0x1F NOT PUSH1 0x1F DUP4 ADD AND SWAP1 POP SWAP2 SWAP1 POP JUMP JUMPDEST PUSH0 PUSH2 0x10C6 DUP3 PUSH2 0x10A2 JUMP JUMPDEST PUSH2 0x10D0 DUP2 DUP6 PUSH2 0xBF8 JUMP JUMPDEST SWAP4 POP PUSH2 0x10E0 DUP2 DUP6 PUSH1 0x20 DUP7 ADD PUSH2 0xFCC JUMP JUMPDEST PUSH2 0x10E9 DUP2 PUSH2 0x10AC JUMP JUMPDEST DUP5 ADD SWAP2 POP POP SWAP3 SWAP2 POP POP JUMP JUMPDEST PUSH0 PUSH1 0x20 DUP3 ADD SWAP1 POP DUP2 DUP2 SUB PUSH0 DUP4 ADD MSTORE PUSH2 0x110C DUP2 DUP5 PUSH2 0x10BC JUMP JUMPDEST SWAP1 POP SWAP3 SWAP2 POP POP JUMP INVALID LOG2 PUSH5 0x6970667358 0x22 SLT KECCAK256 CALLCODE LOG4 0x4E SWAP9 PUSH3 0x6D3CAC 0xD8 BLOCKHASH SWAP16 DUP13 DUP2 SHL PREVRANDAO PUSH16 0xC29DB1D6B3BA57DAD8664784AD8014BD PUSH5 0x736F6C6343 STOP ADDMOD ISZERO STOP CALLER "
				},
				"gasEstimates": {
					"creation": {
						"codeDepositCost": "885200",
						"executionCost": "infinite",
						"totalCost": "infinite"
					},
					"external": {
						"": "infinite",
						"buyTokens(address)": "infinite",
						"rate()": "2433",
						"remainingTokens()": "infinite",
						"token()": "infinite",
						"tokenWallet()": "2537",
						"wallet()": "2560",
						"weiRaised()": "2455"
					},
					"internal": {
						"_deliverTokens(address,uint256)": "infinite"
					}
				},
				"methodIdentifiers": {
					"buyTokens(address)": "ec8ac4d8",
					"rate()": "2c4e722e",
					"remainingTokens()": "bf583903",
					"token()": "fc0c546a",
					"tokenWallet()": "bff99c6c",
					"wallet()": "521eb273",
					"weiRaised()": "4042b66f"
				}
			},
			"storageLayout": {
				"storage": [
					{
						"astId": 10,
						"contract": "crowdsale/emission/allowanceCrowdsale.sol:AllowanceCrowdsale",
						"label": "_status",
						"offset": 0,
						"slot": "0",
						"type": "t_uint256"
					},
					{
						"astId": 2106,
						"contract": "crowdsale/emission/allowanceCrowdsale.sol:AllowanceCrowdsale",
						"label": "_token",
						"offset": 0,
						"slot": "1",
						"type": "t_contract(IERC20)142"
					},
					{
						"astId": 2108,
						"contract": "crowdsale/emission/allowanceCrowdsale.sol:AllowanceCrowdsale",
						"label": "_wallet",
						"offset": 0,
						"slot": "2",
						"type": "t_address_payable"
					},
					{
						"astId": 2110,
						"contract": "crowdsale/emission/allowanceCrowdsale.sol:AllowanceCrowdsale",
						"label": "_rate",
						"offset": 0,
						"slot": "3",
						"type": "t_uint256"
					},
					{
						"astId": 2112,
						"contract": "crowdsale/emission/allowanceCrowdsale.sol:AllowanceCrowdsale",
						"label": "_weiRaised",
						"offset": 0,
						"slot": "4",
						"type": "t_uint256"
					},
					{
						"astId": 2413,
						"contract": "crowdsale/emission/allowanceCrowdsale.sol:AllowanceCrowdsale",
						"label": "_tokenWallet",
						"offset": 0,
						"slot": "5",
						"type": "t_address"
					}
				],
				"types": {
					"t_address": {
						"encoding": "inplace",
						"label": "address",
						"numberOfBytes": "20"
					},
					"t_address_payable": {
						"encoding": "inplace",
						"label": "address payable",
						"numberOfBytes": "20"
					},
					"t_contract(IERC20)142": {
						"encoding": "inplace",
						"label": "contract IERC20",
						"numberOfBytes": "20"
					},
					"t_uint256": {
						"encoding": "inplace",
						"label": "uint256",
						"numberOfBytes": "32"
					}
				}
			},
			"userdoc": {
				"events": {
					"TokensPurchased(address,address,uint256,uint256)": {
						"notice": "Event for token purchase logging"
					}
				},
				"kind": "user",
				"methods": {},
				"version": 1
			}
		}
	}
}