{
	"data": {
		"bytecode": {
			"linkReferences": {},
			"object": "608060405234801562000010575f80fd5b50604051620019ee380380620019ee8339818101604052810190620000369190620003aa565b848484848482828260015f819055505f83116200008a576040517f08c379a000000000000000000000000000000000000000000000000000000000815260040162000081906200048c565b60405180910390fd5b5f73ffffffffffffffffffffffffffffffffffffffff168273ffffffffffffffffffffffffffffffffffffffff1603620000fb576040517f08c379a0000000000000000000000000000000000000000000000000000000008152600401620000f29062000520565b60405180910390fd5b5f73ffffffffffffffffffffffffffffffffffffffff168173ffffffffffffffffffffffffffffffffffffffff16036200016c576040517f08c379a00000000000000000000000000000000000000000000000000000000081526004016200016390620005b4565b60405180910390fd5b826003819055508160025f6101000a81548173ffffffffffffffffffffffffffffffffffffffff021916908373ffffffffffffffffffffffffffffffffffffffff1602179055508060015f6101000a81548173ffffffffffffffffffffffffffffffffffffffff021916908373ffffffffffffffffffffffffffffffffffffffff160217905550505050428510156200023c576040517f08c379a0000000000000000000000000000000000000000000000000000000008152600401620002339062000648565b60405180910390fd5b84841162000281576040517f08c379a00000000000000000000000000000000000000000000000000000000081526004016200027890620006dc565b60405180910390fd5b846005819055508360068190555050505050505f60075f6101000a81548160ff0219169083151502179055505050505050620006fc565b5f80fd5b5f819050919050565b620002d081620002bc565b8114620002db575f80fd5b50565b5f81519050620002ee81620002c5565b92915050565b5f73ffffffffffffffffffffffffffffffffffffffff82169050919050565b5f6200031f82620002f4565b9050919050565b620003318162000313565b81146200033c575f80fd5b50565b5f815190506200034f8162000326565b92915050565b5f6200036182620002f4565b9050919050565b5f620003748262000355565b9050919050565b620003868162000368565b811462000391575f80fd5b50565b5f81519050620003a4816200037b565b92915050565b5f805f805f60a08688031215620003c657620003c5620002b8565b5b5f620003d588828901620002de565b9550506020620003e888828901620002de565b9450506040620003fb88828901620002de565b93505060606200040e888289016200033f565b9250506080620004218882890162000394565b9150509295509295909350565b5f82825260208201905092915050565b7f43726f776473616c653a207261746520697320300000000000000000000000005f82015250565b5f620004746014836200042e565b915062000481826200043e565b602082019050919050565b5f6020820190508181035f830152620004a58162000466565b9050919050565b7f43726f776473616c653a2077616c6c657420697320746865207a65726f2061645f8201527f6472657373000000000000000000000000000000000000000000000000000000602082015250565b5f620005086025836200042e565b91506200051582620004ac565b604082019050919050565b5f6020820190508181035f8301526200053981620004fa565b9050919050565b7f43726f776473616c653a20746f6b656e20697320746865207a65726f206164645f8201527f7265737300000000000000000000000000000000000000000000000000000000602082015250565b5f6200059c6024836200042e565b9150620005a98262000540565b604082019050919050565b5f6020820190508181035f830152620005cd816200058e565b9050919050565b7f54696d656443726f776473616c653a206f70656e696e672074696d65206973205f8201527f6265666f72652063757272656e742074696d6500000000000000000000000000602082015250565b5f620006306033836200042e565b91506200063d82620005d4565b604082019050919050565b5f6020820190508181035f830152620006618162000622565b9050919050565b7f54696d656443726f776473616c653a206f70656e696e672074696d65206973205f8201527f6e6f74206265666f726520636c6f73696e672074696d65000000000000000000602082015250565b5f620006c46037836200042e565b9150620006d18262000668565b604082019050919050565b5f6020820190508181035f830152620006f581620006b6565b9050919050565b6112e4806200070a5f395ff3fe60806040526004361061009f575f3560e01c80634bb278f3116100635780634bb278f31461019a578063521eb273146101b0578063b3f05b97146101da578063b7a8807c14610204578063ec8ac4d81461022e578063fc0c546a1461024a576100b6565b80631515bc2b146100c85780632c4e722e146100f25780634042b66f1461011c57806347535d7b146101465780634b6753bc14610170576100b6565b366100b6576100b46100af610274565b61027b565b005b6100c66100c1610274565b61027b565b005b3480156100d3575f80fd5b506100dc610359565b6040516100e99190610a97565b60405180910390f35b3480156100fd575f80fd5b50610106610364565b6040516101139190610ac8565b60405180910390f35b348015610127575f80fd5b5061013061036d565b60405161013d9190610ac8565b60405180910390f35b348015610151575f80fd5b5061015a610376565b6040516101679190610a97565b60405180910390f35b34801561017b575f80fd5b50610184610390565b6040516101919190610ac8565b60405180910390f35b3480156101a5575f80fd5b506101ae610399565b005b3480156101bb575f80fd5b506101c46103ea565b6040516101d19190610b20565b60405180910390f35b3480156101e5575f80fd5b506101ee610412565b6040516101fb9190610a97565b60405180910390f35b34801561020f575f80fd5b50610218610427565b6040516102259190610ac8565b60405180910390f35b61024860048036038101906102439190610b78565b61027b565b005b348015610255575f80fd5b5061025e610430565b60405161026b9190610bfe565b60405180910390f35b5f33905090565b610283610458565b5f34905061029182826104a5565b5f61029b826104fa565b90506102b28260045461051790919063ffffffff16565b6004819055506102c2838261052c565b8273ffffffffffffffffffffffffffffffffffffffff166102e1610274565b73ffffffffffffffffffffffffffffffffffffffff167f6faf93231a456e552dbc9961f58d9713ee4f2e69d15f1975b050ef0911053a7b8484604051610328929190610c17565b60405180910390a361033a838361053a565b61034261053e565b61034c83836105a5565b50506103566105a9565b50565b5f6006544211905090565b5f600354905090565b5f600454905090565b5f600554421015801561038b57506006544211155b905090565b5f600654905090565b6103a1610359565b6103e0576040517f08c379a00000000000000000000000000000000000000000000000000000000081526004016103d790610c98565b60405180910390fd5b6103e86105b2565b565b5f60025f9054906101000a900473ffffffffffffffffffffffffffffffffffffffff16905090565b5f60075f9054906101000a900460ff16905090565b5f600554905090565b5f60015f9054906101000a900473ffffffffffffffffffffffffffffffffffffffff16905090565b60025f540361049c576040517f08c379a000000000000000000000000000000000000000000000000000000000815260040161049390610d00565b60405180910390fd5b60025f81905550565b6104ad610376565b6104ec576040517f08c379a00000000000000000000000000000000000000000000000000000000081526004016104e390610d68565b60405180910390fd5b6104f68282610651565b5050565b5f6105106003548361070590919063ffffffff16565b9050919050565b5f81836105249190610db3565b905092915050565b610536828261071a565b5050565b5050565b60025f9054906101000a900473ffffffffffffffffffffffffffffffffffffffff1673ffffffffffffffffffffffffffffffffffffffff166108fc3490811502906040515f60405180830381858888f193505050501580156105a2573d5f803e3d5ffd5b50565b5050565b60015f81905550565b60075f9054906101000a900460ff1615610601576040517f08c379a00000000000000000000000000000000000000000000000000000000081526004016105f890610e56565b60405180910390fd5b600160075f6101000a81548160ff02191690831515021790555061062361076a565b7f9c6ac702ac1e5e834d54fae35fa20f6dbab76180a01317ec37a7e4ce9f86fe5160405160405180910390a1565b5f73ffffffffffffffffffffffffffffffffffffffff168273ffffffffffffffffffffffffffffffffffffffff16036106bf576040517f08c379a00000000000000000000000000000000000000000000000000000000081526004016106b690610ee4565b60405180910390fd5b5f8103610701576040517f08c379a00000000000000000000000000000000000000000000000000000000081526004016106f890610f4c565b60405180910390fd5b5050565b5f81836107129190610f6a565b905092915050565b610766828260015f9054906101000a900473ffffffffffffffffffffffffffffffffffffffff1673ffffffffffffffffffffffffffffffffffffffff1661076c9092919063ffffffff16565b5050565b565b6107ed8363a9059cbb60e01b848460405160240161078b929190610fba565b604051602081830303815290604052907bffffffffffffffffffffffffffffffffffffffffffffffffffffffff19166020820180517bffffffffffffffffffffffffffffffffffffffffffffffffffffffff83818316178352505050506107f2565b505050565b5f610853826040518060400160405280602081526020017f5361666545524332303a206c6f772d6c6576656c2063616c6c206661696c65648152508573ffffffffffffffffffffffffffffffffffffffff166108b89092919063ffffffff16565b90505f81511480610874575080806020019051810190610873919061100b565b5b6108b3576040517f08c379a00000000000000000000000000000000000000000000000000000000081526004016108aa906110a6565b60405180910390fd5b505050565b60606108c684845f856108cf565b90509392505050565b606082471015610914576040517f08c379a000000000000000000000000000000000000000000000000000000000815260040161090b90611134565b60405180910390fd5b5f808673ffffffffffffffffffffffffffffffffffffffff16858760405161093c91906111be565b5f6040518083038185875af1925050503d805f8114610976576040519150601f19603f3d011682016040523d82523d5f602084013e61097b565b606091505b509150915061098c87838387610998565b92505050949350505050565b606083156109f9575f8351036109f1576109b185610a0c565b6109f0576040517f08c379a00000000000000000000000000000000000000000000000000000000081526004016109e79061121e565b60405180910390fd5b5b829050610a04565b610a038383610a2e565b5b949350505050565b5f808273ffffffffffffffffffffffffffffffffffffffff163b119050919050565b5f82511115610a405781518083602001fd5b806040517f08c379a0000000000000000000000000000000000000000000000000000000008152600401610a74919061128e565b60405180910390fd5b5f8115159050919050565b610a9181610a7d565b82525050565b5f602082019050610aaa5f830184610a88565b92915050565b5f819050919050565b610ac281610ab0565b82525050565b5f602082019050610adb5f830184610ab9565b92915050565b5f73ffffffffffffffffffffffffffffffffffffffff82169050919050565b5f610b0a82610ae1565b9050919050565b610b1a81610b00565b82525050565b5f602082019050610b335f830184610b11565b92915050565b5f80fd5b5f610b4782610ae1565b9050919050565b610b5781610b3d565b8114610b61575f80fd5b50565b5f81359050610b7281610b4e565b92915050565b5f60208284031215610b8d57610b8c610b39565b5b5f610b9a84828501610b64565b91505092915050565b5f819050919050565b5f610bc6610bc1610bbc84610ae1565b610ba3565b610ae1565b9050919050565b5f610bd782610bac565b9050919050565b5f610be882610bcd565b9050919050565b610bf881610bde565b82525050565b5f602082019050610c115f830184610bef565b92915050565b5f604082019050610c2a5f830185610ab9565b610c376020830184610ab9565b9392505050565b5f82825260208201905092915050565b7f46696e616c697a61626c6543726f776473616c653a206e6f7420636c6f7365645f82015250565b5f610c82602083610c3e565b9150610c8d82610c4e565b602082019050919050565b5f6020820190508181035f830152610caf81610c76565b9050919050565b7f5265656e7472616e637947756172643a207265656e7472616e742063616c6c005f82015250565b5f610cea601f83610c3e565b9150610cf582610cb6565b602082019050919050565b5f6020820190508181035f830152610d1781610cde565b9050919050565b7f54696d656443726f776473616c653a206e6f74206f70656e00000000000000005f82015250565b5f610d52601883610c3e565b9150610d5d82610d1e565b602082019050919050565b5f6020820190508181035f830152610d7f81610d46565b9050919050565b7f4e487b71000000000000000000000000000000000000000000000000000000005f52601160045260245ffd5b5f610dbd82610ab0565b9150610dc883610ab0565b9250828201905080821115610de057610ddf610d86565b5b92915050565b7f46696e616c697a61626c6543726f776473616c653a20616c72656164792066695f8201527f6e616c697a656400000000000000000000000000000000000000000000000000602082015250565b5f610e40602783610c3e565b9150610e4b82610de6565b604082019050919050565b5f6020820190508181035f830152610e6d81610e34565b9050919050565b7f43726f776473616c653a2062656e656669636961727920697320746865207a655f8201527f726f206164647265737300000000000000000000000000000000000000000000602082015250565b5f610ece602a83610c3e565b9150610ed982610e74565b604082019050919050565b5f6020820190508181035f830152610efb81610ec2565b9050919050565b7f43726f776473616c653a20776569416d6f756e742069732030000000000000005f82015250565b5f610f36601983610c3e565b9150610f4182610f02565b602082019050919050565b5f6020820190508181035f830152610f6381610f2a565b9050919050565b5f610f7482610ab0565b9150610f7f83610ab0565b9250828202610f8d81610ab0565b91508282048414831517610fa457610fa3610d86565b5b5092915050565b610fb481610b3d565b82525050565b5f604082019050610fcd5f830185610fab565b610fda6020830184610ab9565b9392505050565b610fea81610a7d565b8114610ff4575f80fd5b50565b5f8151905061100581610fe1565b92915050565b5f602082840312156110205761101f610b39565b5b5f61102d84828501610ff7565b91505092915050565b7f5361666545524332303a204552433230206f7065726174696f6e20646964206e5f8201527f6f74207375636365656400000000000000000000000000000000000000000000602082015250565b5f611090602a83610c3e565b915061109b82611036565b604082019050919050565b5f6020820190508181035f8301526110bd81611084565b9050919050565b7f416464726573733a20696e73756666696369656e742062616c616e636520666f5f8201527f722063616c6c0000000000000000000000000000000000000000000000000000602082015250565b5f61111e602683610c3e565b9150611129826110c4565b604082019050919050565b5f6020820190508181035f83015261114b81611112565b9050919050565b5f81519050919050565b5f81905092915050565b5f5b83811015611183578082015181840152602081019050611168565b5f8484015250505050565b5f61119882611152565b6111a2818561115c565b93506111b2818560208601611166565b80840191505092915050565b5f6111c9828461118e565b915081905092915050565b7f416464726573733a2063616c6c20746f206e6f6e2d636f6e74726163740000005f82015250565b5f611208601d83610c3e565b9150611213826111d4565b602082019050919050565b5f6020820190508181035f830152611235816111fc565b9050919050565b5f81519050919050565b5f601f19601f8301169050919050565b5f6112608261123c565b61126a8185610c3e565b935061127a818560208601611166565b61128381611246565b840191505092915050565b5f6020820190508181035f8301526112a68184611256565b90509291505056fea2646970667358221220b720c4a475f29e2f3e302bdc35c665f2e6bb5de4de3d92144045994ce9d9c1bf64736f6c63430008150033",
			"opcodes": "PUSH1 0x80 PUSH1 0x40 MSTORE CALLVALUE DUP1 ISZERO PUSH3 0x10 JUMPI PUSH0 DUP1 REVERT JUMPDEST POP PUSH1 0x40 MLOAD PUSH3 0x19EE CODESIZE SUB DUP1 PUSH3 0x19EE DUP4 CODECOPY DUP2 DUP2 ADD PUSH1 0x40 MSTORE DUP2 ADD SWAP1 PUSH3 0x36 SWAP2 SWAP1 PUSH3 0x3AA JUMP JUMPDEST DUP5 DUP5 DUP5 DUP5 DUP5 DUP3 DUP3 DUP3 PUSH1 0x1 PUSH0 DUP2 SWAP1 SSTORE POP PUSH0 DUP4 GT PUSH3 0x8A JUMPI PUSH1 0x40 MLOAD PUSH32 0x8C379A000000000000000000000000000000000000000000000000000000000 DUP2 MSTORE PUSH1 0x4 ADD PUSH3 0x81 SWAP1 PUSH3 0x48C JUMP JUMPDEST PUSH1 0x40 MLOAD DUP1 SWAP2 SUB SWAP1 REVERT JUMPDEST PUSH0 PUSH20 0xFFFFFFFFFFFFFFFFFFFFFFFFFFFFFFFFFFFFFFFF AND DUP3 PUSH20 0xFFFFFFFFFFFFFFFFFFFFFFFFFFFFFFFFFFFFFFFF AND SUB PUSH3 0xFB JUMPI PUSH1 0x40 MLOAD PUSH32 0x8C379A000000000000000000000000000000000000000000000000000000000 DUP2 MSTORE PUSH1 0x4 ADD PUSH3 0xF2 SWAP1 PUSH3 0x520 JUMP JUMPDEST PUSH1 0x40 MLOAD DUP1 SWAP2 SUB SWAP1 REVERT JUMPDEST PUSH0 PUSH20 0xFFFFFFFFFFFFFFFFFFFFFFFFFFFFFFFFFFFFFFFF AND DUP2 PUSH20 0xFFFFFFFFFFFFFFFFFFFFFFFFFFFFFFFFFFFFFFFF AND SUB PUSH3 0x16C JUMPI PUSH1 0x40 MLOAD PUSH32 0x8C379A000000000000000000000000000000000000000000000000000000000 DUP2 MSTORE PUSH1 0x4 ADD PUSH3 0x163 SWAP1 PUSH3 0x5B4 JUMP JUMPDEST PUSH1 0x40 MLOAD DUP1 SWAP2 SUB SWAP1 REVERT JUMPDEST DUP3 PUSH1 0x3 DUP2 SWAP1 SSTORE POP DUP2 PUSH1 0x2 PUSH0 PUSH2 0x100 EXP DUP2 SLOAD DUP2 PUSH20 0xFFFFFFFFFFFFFFFFFFFFFFFFFFFFFFFFFFFFFFFF MUL NOT AND SWAP1 DUP4 PUSH20 0xFFFFFFFFFFFFFFFFFFFFFFFFFFFFFFFFFFFFFFFF AND MUL OR SWAP1 SSTORE POP DUP1 PUSH1 0x1 PUSH0 PUSH2 0x100 EXP DUP2 SLOAD DUP2 PUSH20 0xFFFFFFFFFFFFFFFFFFFFFFFFFFFFFFFFFFFFFFFF MUL NOT AND SWAP1 DUP4 PUSH20 0xFFFFFFFFFFFFFFFFFFFFFFFFFFFFFFFFFFFFFFFF AND MUL OR SWAP1 SSTORE POP POP POP POP TIMESTAMP DUP6 LT ISZERO PUSH3 0x23C JUMPI PUSH1 0x40 MLOAD PUSH32 0x8C379A000000000000000000000000000000000000000000000000000000000 DUP2 MSTORE PUSH1 0x4 ADD PUSH3 0x233 SWAP1 PUSH3 0x648 JUMP JUMPDEST PUSH1 0x40 MLOAD DUP1 SWAP2 SUB SWAP1 REVERT JUMPDEST DUP5 DUP5 GT PUSH3 0x281 JUMPI PUSH1 0x40 MLOAD PUSH32 0x8C379A000000000000000000000000000000000000000000000000000000000 DUP2 MSTORE PUSH1 0x4 ADD PUSH3 0x278 SWAP1 PUSH3 0x6DC JUMP JUMPDEST PUSH1 0x40 MLOAD DUP1 SWAP2 SUB SWAP1 REVERT JUMPDEST DUP5 PUSH1 0x5 DUP2 SWAP1 SSTORE POP DUP4 PUSH1 0x6 DUP2 SWAP1 SSTORE POP POP POP POP POP POP PUSH0 PUSH1 0x7 PUSH0 PUSH2 0x100 EXP DUP2 SLOAD DUP2 PUSH1 0xFF MUL NOT AND SWAP1 DUP4 ISZERO ISZERO MUL OR SWAP1 SSTORE POP POP POP POP POP POP PUSH3 0x6FC JUMP JUMPDEST PUSH0 DUP1 REVERT JUMPDEST PUSH0 DUP2 SWAP1 POP SWAP2 SWAP1 POP JUMP JUMPDEST PUSH3 0x2D0 DUP2 PUSH3 0x2BC JUMP JUMPDEST DUP2 EQ PUSH3 0x2DB JUMPI PUSH0 DUP1 REVERT JUMPDEST POP JUMP JUMPDEST PUSH0 DUP2 MLOAD SWAP1 POP PUSH3 0x2EE DUP2 PUSH3 0x2C5 JUMP JUMPDEST SWAP3 SWAP2 POP POP JUMP JUMPDEST PUSH0 PUSH20 0xFFFFFFFFFFFFFFFFFFFFFFFFFFFFFFFFFFFFFFFF DUP3 AND SWAP1 POP SWAP2 SWAP1 POP JUMP JUMPDEST PUSH0 PUSH3 0x31F DUP3 PUSH3 0x2F4 JUMP JUMPDEST SWAP1 POP SWAP2 SWAP1 POP JUMP JUMPDEST PUSH3 0x331 DUP2 PUSH3 0x313 JUMP JUMPDEST DUP2 EQ PUSH3 0x33C JUMPI PUSH0 DUP1 REVERT JUMPDEST POP JUMP JUMPDEST PUSH0 DUP2 MLOAD SWAP1 POP PUSH3 0x34F DUP2 PUSH3 0x326 JUMP JUMPDEST SWAP3 SWAP2 POP POP JUMP JUMPDEST PUSH0 PUSH3 0x361 DUP3 PUSH3 0x2F4 JUMP JUMPDEST SWAP1 POP SWAP2 SWAP1 POP JUMP JUMPDEST PUSH0 PUSH3 0x374 DUP3 PUSH3 0x355 JUMP JUMPDEST SWAP1 POP SWAP2 SWAP1 POP JUMP JUMPDEST PUSH3 0x386 DUP2 PUSH3 0x368 JUMP JUMPDEST DUP2 EQ PUSH3 0x391 JUMPI PUSH0 DUP1 REVERT JUMPDEST POP JUMP JUMPDEST PUSH0 DUP2 MLOAD SWAP1 POP PUSH3 0x3A4 DUP2 PUSH3 0x37B JUMP JUMPDEST SWAP3 SWAP2 POP POP JUMP JUMPDEST PUSH0 DUP1 PUSH0 DUP1 PUSH0 PUSH1 0xA0 DUP7 DUP9 SUB SLT ISZERO PUSH3 0x3C6 JUMPI PUSH3 0x3C5 PUSH3 0x2B8 JUMP JUMPDEST JUMPDEST PUSH0 PUSH3 0x3D5 DUP9 DUP3 DUP10 ADD PUSH3 0x2DE JUMP JUMPDEST SWAP6 POP POP PUSH1 0x20 PUSH3 0x3E8 DUP9 DUP3 DUP10 ADD PUSH3 0x2DE JUMP JUMPDEST SWAP5 POP POP PUSH1 0x40 PUSH3 0x3FB DUP9 DUP3 DUP10 ADD PUSH3 0x2DE JUMP JUMPDEST SWAP4 POP POP PUSH1 0x60 PUSH3 0x40E DUP9 DUP3 DUP10 ADD PUSH3 0x33F JUMP JUMPDEST SWAP3 POP POP PUSH1 0x80 PUSH3 0x421 DUP9 DUP3 DUP10 ADD PUSH3 0x394 JUMP JUMPDEST SWAP2 POP POP SWAP3 SWAP6 POP SWAP3 SWAP6 SWAP1 SWAP4 POP JUMP JUMPDEST PUSH0 DUP3 DUP3 MSTORE PUSH1 0x20 DUP3 ADD SWAP1 POP SWAP3 SWAP2 POP POP JUMP JUMPDEST PUSH32 0x43726F776473616C653A20726174652069732030000000000000000000000000 PUSH0 DUP3 ADD MSTORE POP JUMP JUMPDEST PUSH0 PUSH3 0x474 PUSH1 0x14 DUP4 PUSH3 0x42E JUMP JUMPDEST SWAP2 POP PUSH3 0x481 DUP3 PUSH3 0x43E JUMP JUMPDEST PUSH1 0x20 DUP3 ADD SWAP1 POP SWAP2 SWAP1 POP JUMP JUMPDEST PUSH0 PUSH1 0x20 DUP3 ADD SWAP1 POP DUP2 DUP2 SUB PUSH0 DUP4 ADD MSTORE PUSH3 0x4A5 DUP2 PUSH3 0x466 JUMP JUMPDEST SWAP1 POP SWAP2 SWAP1 POP JUMP JUMPDEST PUSH32 0x43726F776473616C653A2077616C6C657420697320746865207A65726F206164 PUSH0 DUP3 ADD MSTORE PUSH32 0x6472657373000000000000000000000000000000000000000000000000000000 PUSH1 0x20 DUP3 ADD MSTORE POP JUMP JUMPDEST PUSH0 PUSH3 0x508 PUSH1 0x25 DUP4 PUSH3 0x42E JUMP JUMPDEST SWAP2 POP PUSH3 0x515 DUP3 PUSH3 0x4AC JUMP JUMPDEST PUSH1 0x40 DUP3 ADD SWAP1 POP SWAP2 SWAP1 POP JUMP JUMPDEST PUSH0 PUSH1 0x20 DUP3 ADD SWAP1 POP DUP2 DUP2 SUB PUSH0 DUP4 ADD MSTORE PUSH3 0x539 DUP2 PUSH3 0x4FA JUMP JUMPDEST SWAP1 POP SWAP2 SWAP1 POP JUMP JUMPDEST PUSH32 0x43726F776473616C653A20746F6B656E20697320746865207A65726F20616464 PUSH0 DUP3 ADD MSTORE PUSH32 0x7265737300000000000000000000000000000000000000000000000000000000 PUSH1 0x20 DUP3 ADD MSTORE POP JUMP JUMPDEST PUSH0 PUSH3 0x59C PUSH1 0x24 DUP4 PUSH3 0x42E JUMP JUMPDEST SWAP2 POP PUSH3 0x5A9 DUP3 PUSH3 0x540 JUMP JUMPDEST PUSH1 0x40 DUP3 ADD SWAP1 POP SWAP2 SWAP1 POP JUMP JUMPDEST PUSH0 PUSH1 0x20 DUP3 ADD SWAP1 POP DUP2 DUP2 SUB PUSH0 DUP4 ADD MSTORE PUSH3 0x5CD DUP2 PUSH3 0x58E JUMP JUMPDEST SWAP1 POP SWAP2 SWAP1 POP JUMP JUMPDEST PUSH32 0x54696D656443726F776473616C653A206F70656E696E672074696D6520697320 PUSH0 DUP3 ADD MSTORE PUSH32 0x6265666F72652063757272656E742074696D6500000000000000000000000000 PUSH1 0x20 DUP3 ADD MSTORE POP JUMP JUMPDEST PUSH0 PUSH3 0x630 PUSH1 0x33 DUP4 PUSH3 0x42E JUMP JUMPDEST SWAP2 POP PUSH3 0x63D DUP3 PUSH3 0x5D4 JUMP JUMPDEST PUSH1 0x40 DUP3 ADD SWAP1 POP SWAP2 SWAP1 POP JUMP JUMPDEST PUSH0 PUSH1 0x20 DUP3 ADD SWAP1 POP DUP2 DUP2 SUB PUSH0 DUP4 ADD MSTORE PUSH3 0x661 DUP2 PUSH3 0x622 JUMP JUMPDEST SWAP1 POP SWAP2 SWAP1 POP JUMP JUMPDEST PUSH32 0x54696D656443726F776473616C653A206F70656E696E672074696D6520697320 PUSH0 DUP3 ADD MSTORE PUSH32 0x6E6F74206265666F726520636C6F73696E672074696D65000000000000000000 PUSH1 0x20 DUP3 ADD MSTORE POP JUMP JUMPDEST PUSH0 PUSH3 0x6C4 PUSH1 0x37 DUP4 PUSH3 0x42E JUMP JUMPDEST SWAP2 POP PUSH3 0x6D1 DUP3 PUSH3 0x668 JUMP JUMPDEST PUSH1 0x40 DUP3 ADD SWAP1 POP SWAP2 SWAP1 POP JUMP JUMPDEST PUSH0 PUSH1 0x20 DUP3 ADD SWAP1 POP DUP2 DUP2 SUB PUSH0 DUP4 ADD MSTORE PUSH3 0x6F5 DUP2 PUSH3 0x6B6 JUMP JUMPDEST SWAP1 POP SWAP2 SWAP1 POP JUMP JUMPDEST PUSH2 0x12E4 DUP1 PUSH3 0x70A PUSH0 CODECOPY PUSH0 RETURN INVALID PUSH1 0x80 PUSH1 0x40 MSTORE PUSH1 0x4 CALLDATASIZE LT PUSH2 0x9F JUMPI PUSH0 CALLDATALOAD PUSH1 0xE0 SHR DUP1 PUSH4 0x4BB278F3 GT PUSH2 0x63 JUMPI DUP1 PUSH4 0x4BB278F3 EQ PUSH2 0x19A JUMPI DUP1 PUSH4 0x521EB273 EQ PUSH2 0x1B0 JUMPI DUP1 PUSH4 0xB3F05B97 EQ PUSH2 0x1DA JUMPI DUP1 PUSH4 0xB7A8807C EQ PUSH2 0x204 JUMPI DUP1 PUSH4 0xEC8AC4D8 EQ PUSH2 0x22E JUMPI DUP1 PUSH4 0xFC0C546A EQ PUSH2 0x24A JUMPI PUSH2 0xB6 JUMP JUMPDEST DUP1 PUSH4 0x1515BC2B EQ PUSH2 0xC8 JUMPI DUP1 PUSH4 0x2C4E722E EQ PUSH2 0xF2 JUMPI DUP1 PUSH4 0x4042B66F EQ PUSH2 0x11C JUMPI DUP1 PUSH4 0x47535D7B EQ PUSH2 0x146 JUMPI DUP1 PUSH4 0x4B6753BC EQ PUSH2 0x170 JUMPI PUSH2 0xB6 JUMP JUMPDEST CALLDATASIZE PUSH2 0xB6 JUMPI PUSH2 0xB4 PUSH2 0xAF PUSH2 0x274 JUMP JUMPDEST PUSH2 0x27B JUMP JUMPDEST STOP JUMPDEST PUSH2 0xC6 PUSH2 0xC1 PUSH2 0x274 JUMP JUMPDEST PUSH2 0x27B JUMP JUMPDEST STOP JUMPDEST CALLVALUE DUP1 ISZERO PUSH2 0xD3 JUMPI PUSH0 DUP1 REVERT JUMPDEST POP PUSH2 0xDC PUSH2 0x359 JUMP JUMPDEST PUSH1 0x40 MLOAD PUSH2 0xE9 SWAP2 SWAP1 PUSH2 0xA97 JUMP JUMPDEST PUSH1 0x40 MLOAD DUP1 SWAP2 SUB SWAP1 RETURN JUMPDEST CALLVALUE DUP1 ISZERO PUSH2 0xFD JUMPI PUSH0 DUP1 REVERT JUMPDEST POP PUSH2 0x106 PUSH2 0x364 JUMP JUMPDEST PUSH1 0x40 MLOAD PUSH2 0x113 SWAP2 SWAP1 PUSH2 0xAC8 JUMP JUMPDEST PUSH1 0x40 MLOAD DUP1 SWAP2 SUB SWAP1 RETURN JUMPDEST CALLVALUE DUP1 ISZERO PUSH2 0x127 JUMPI PUSH0 DUP1 REVERT JUMPDEST POP PUSH2 0x130 PUSH2 0x36D JUMP JUMPDEST PUSH1 0x40 MLOAD PUSH2 0x13D SWAP2 SWAP1 PUSH2 0xAC8 JUMP JUMPDEST PUSH1 0x40 MLOAD DUP1 SWAP2 SUB SWAP1 RETURN JUMPDEST CALLVALUE DUP1 ISZERO PUSH2 0x151 JUMPI PUSH0 DUP1 REVERT JUMPDEST POP PUSH2 0x15A PUSH2 0x376 JUMP JUMPDEST PUSH1 0x40 MLOAD PUSH2 0x167 SWAP2 SWAP1 PUSH2 0xA97 JUMP JUMPDEST PUSH1 0x40 MLOAD DUP1 SWAP2 SUB SWAP1 RETURN JUMPDEST CALLVALUE DUP1 ISZERO PUSH2 0x17B JUMPI PUSH0 DUP1 REVERT JUMPDEST POP PUSH2 0x184 PUSH2 0x390 JUMP JUMPDEST PUSH1 0x40 MLOAD PUSH2 0x191 SWAP2 SWAP1 PUSH2 0xAC8 JUMP JUMPDEST PUSH1 0x40 MLOAD DUP1 SWAP2 SUB SWAP1 RETURN JUMPDEST CALLVALUE DUP1 ISZERO PUSH2 0x1A5 JUMPI PUSH0 DUP1 REVERT JUMPDEST POP PUSH2 0x1AE PUSH2 0x399 JUMP JUMPDEST STOP JUMPDEST CALLVALUE DUP1 ISZERO PUSH2 0x1BB JUMPI PUSH0 DUP1 REVERT JUMPDEST POP PUSH2 0x1C4 PUSH2 0x3EA JUMP JUMPDEST PUSH1 0x40 MLOAD PUSH2 0x1D1 SWAP2 SWAP1 PUSH2 0xB20 JUMP JUMPDEST PUSH1 0x40 MLOAD DUP1 SWAP2 SUB SWAP1 RETURN JUMPDEST CALLVALUE DUP1 ISZERO PUSH2 0x1E5 JUMPI PUSH0 DUP1 REVERT JUMPDEST POP PUSH2 0x1EE PUSH2 0x412 JUMP JUMPDEST PUSH1 0x40 MLOAD PUSH2 0x1FB SWAP2 SWAP1 PUSH2 0xA97 JUMP JUMPDEST PUSH1 0x40 MLOAD DUP1 SWAP2 SUB SWAP1 RETURN JUMPDEST CALLVALUE DUP1 ISZERO PUSH2 0x20F JUMPI PUSH0 DUP1 REVERT JUMPDEST POP PUSH2 0x218 PUSH2 0x427 JUMP JUMPDEST PUSH1 0x40 MLOAD PUSH2 0x225 SWAP2 SWAP1 PUSH2 0xAC8 JUMP JUMPDEST PUSH1 0x40 MLOAD DUP1 SWAP2 SUB SWAP1 RETURN JUMPDEST PUSH2 0x248 PUSH1 0x4 DUP1 CALLDATASIZE SUB DUP2 ADD SWAP1 PUSH2 0x243 SWAP2 SWAP1 PUSH2 0xB78 JUMP JUMPDEST PUSH2 0x27B JUMP JUMPDEST STOP JUMPDEST CALLVALUE DUP1 ISZERO PUSH2 0x255 JUMPI PUSH0 DUP1 REVERT JUMPDEST POP PUSH2 0x25E PUSH2 0x430 JUMP JUMPDEST PUSH1 0x40 MLOAD PUSH2 0x26B SWAP2 SWAP1 PUSH2 0xBFE JUMP JUMPDEST PUSH1 0x40 MLOAD DUP1 SWAP2 SUB SWAP1 RETURN JUMPDEST PUSH0 CALLER SWAP1 POP SWAP1 JUMP JUMPDEST PUSH2 0x283 PUSH2 0x458 JUMP JUMPDEST PUSH0 CALLVALUE SWAP1 POP PUSH2 0x291 DUP3 DUP3 PUSH2 0x4A5 JUMP JUMPDEST PUSH0 PUSH2 0x29B DUP3 PUSH2 0x4FA JUMP JUMPDEST SWAP1 POP PUSH2 0x2B2 DUP3 PUSH1 0x4 SLOAD PUSH2 0x517 SWAP1 SWAP2 SWAP1 PUSH4 0xFFFFFFFF AND JUMP JUMPDEST PUSH1 0x4 DUP2 SWAP1 SSTORE POP PUSH2 0x2C2 DUP4 DUP3 PUSH2 0x52C JUMP JUMPDEST DUP3 PUSH20 0xFFFFFFFFFFFFFFFFFFFFFFFFFFFFFFFFFFFFFFFF AND PUSH2 0x2E1 PUSH2 0x274 JUMP JUMPDEST PUSH20 0xFFFFFFFFFFFFFFFFFFFFFFFFFFFFFFFFFFFFFFFF AND PUSH32 0x6FAF93231A456E552DBC9961F58D9713EE4F2E69D15F1975B050EF0911053A7B DUP5 DUP5 PUSH1 0x40 MLOAD PUSH2 0x328 SWAP3 SWAP2 SWAP1 PUSH2 0xC17 JUMP JUMPDEST PUSH1 0x40 MLOAD DUP1 SWAP2 SUB SWAP1 LOG3 PUSH2 0x33A DUP4 DUP4 PUSH2 0x53A JUMP JUMPDEST PUSH2 0x342 PUSH2 0x53E JUMP JUMPDEST PUSH2 0x34C DUP4 DUP4 PUSH2 0x5A5 JUMP JUMPDEST POP POP PUSH2 0x356 PUSH2 0x5A9 JUMP JUMPDEST POP JUMP JUMPDEST PUSH0 PUSH1 0x6 SLOAD TIMESTAMP GT SWAP1 POP SWAP1 JUMP JUMPDEST PUSH0 PUSH1 0x3 SLOAD SWAP1 POP SWAP1 JUMP JUMPDEST PUSH0 PUSH1 0x4 SLOAD SWAP1 POP SWAP1 JUMP JUMPDEST PUSH0 PUSH1 0x5 SLOAD TIMESTAMP LT ISZERO DUP1 ISZERO PUSH2 0x38B JUMPI POP PUSH1 0x6 SLOAD TIMESTAMP GT ISZERO JUMPDEST SWAP1 POP SWAP1 JUMP JUMPDEST PUSH0 PUSH1 0x6 SLOAD SWAP1 POP SWAP1 JUMP JUMPDEST PUSH2 0x3A1 PUSH2 0x359 JUMP JUMPDEST PUSH2 0x3E0 JUMPI PUSH1 0x40 MLOAD PUSH32 0x8C379A000000000000000000000000000000000000000000000000000000000 DUP2 MSTORE PUSH1 0x4 ADD PUSH2 0x3D7 SWAP1 PUSH2 0xC98 JUMP JUMPDEST PUSH1 0x40 MLOAD DUP1 SWAP2 SUB SWAP1 REVERT JUMPDEST PUSH2 0x3E8 PUSH2 0x5B2 JUMP JUMPDEST JUMP JUMPDEST PUSH0 PUSH1 0x2 PUSH0 SWAP1 SLOAD SWAP1 PUSH2 0x100 EXP SWAP1 DIV PUSH20 0xFFFFFFFFFFFFFFFFFFFFFFFFFFFFFFFFFFFFFFFF AND SWAP1 POP SWAP1 JUMP JUMPDEST PUSH0 PUSH1 0x7 PUSH0 SWAP1 SLOAD SWAP1 PUSH2 0x100 EXP SWAP1 DIV PUSH1 0xFF AND SWAP1 POP SWAP1 JUMP JUMPDEST PUSH0 PUSH1 0x5 SLOAD SWAP1 POP SWAP1 JUMP JUMPDEST PUSH0 PUSH1 0x1 PUSH0 SWAP1 SLOAD SWAP1 PUSH2 0x100 EXP SWAP1 DIV PUSH20 0xFFFFFFFFFFFFFFFFFFFFFFFFFFFFFFFFFFFFFFFF AND SWAP1 POP SWAP1 JUMP JUMPDEST PUSH1 0x2 PUSH0 SLOAD SUB PUSH2 0x49C JUMPI PUSH1 0x40 MLOAD PUSH32 0x8C379A000000000000000000000000000000000000000000000000000000000 DUP2 MSTORE PUSH1 0x4 ADD PUSH2 0x493 SWAP1 PUSH2 0xD00 JUMP JUMPDEST PUSH1 0x40 MLOAD DUP1 SWAP2 SUB SWAP1 REVERT JUMPDEST PUSH1 0x2 PUSH0 DUP2 SWAP1 SSTORE POP JUMP JUMPDEST PUSH2 0x4AD PUSH2 0x376 JUMP JUMPDEST PUSH2 0x4EC JUMPI PUSH1 0x40 MLOAD PUSH32 0x8C379A000000000000000000000000000000000000000000000000000000000 DUP2 MSTORE PUSH1 0x4 ADD PUSH2 0x4E3 SWAP1 PUSH2 0xD68 JUMP JUMPDEST PUSH1 0x40 MLOAD DUP1 SWAP2 SUB SWAP1 REVERT JUMPDEST PUSH2 0x4F6 DUP3 DUP3 PUSH2 0x651 JUMP JUMPDEST POP POP JUMP JUMPDEST PUSH0 PUSH2 0x510 PUSH1 0x3 SLOAD DUP4 PUSH2 0x705 SWAP1 SWAP2 SWAP1 PUSH4 0xFFFFFFFF AND JUMP JUMPDEST SWAP1 POP SWAP2 SWAP1 POP JUMP JUMPDEST PUSH0 DUP2 DUP4 PUSH2 0x524 SWAP2 SWAP1 PUSH2 0xDB3 JUMP JUMPDEST SWAP1 POP SWAP3 SWAP2 POP POP JUMP JUMPDEST PUSH2 0x536 DUP3 DUP3 PUSH2 0x71A JUMP JUMPDEST POP POP JUMP JUMPDEST POP POP JUMP JUMPDEST PUSH1 0x2 PUSH0 SWAP1 SLOAD SWAP1 PUSH2 0x100 EXP SWAP1 DIV PUSH20 0xFFFFFFFFFFFFFFFFFFFFFFFFFFFFFFFFFFFFFFFF AND PUSH20 0xFFFFFFFFFFFFFFFFFFFFFFFFFFFFFFFFFFFFFFFF AND PUSH2 0x8FC CALLVALUE SWAP1 DUP2 ISZERO MUL SWAP1 PUSH1 0x40 MLOAD PUSH0 PUSH1 0x40 MLOAD DUP1 DUP4 SUB DUP2 DUP6 DUP9 DUP9 CALL SWAP4 POP POP POP POP ISZERO DUP1 ISZERO PUSH2 0x5A2 JUMPI RETURNDATASIZE PUSH0 DUP1 RETURNDATACOPY RETURNDATASIZE PUSH0 REVERT JUMPDEST POP JUMP JUMPDEST POP POP JUMP JUMPDEST PUSH1 0x1 PUSH0 DUP2 SWAP1 SSTORE POP JUMP JUMPDEST PUSH1 0x7 PUSH0 SWAP1 SLOAD SWAP1 PUSH2 0x100 EXP SWAP1 DIV PUSH1 0xFF AND ISZERO PUSH2 0x601 JUMPI PUSH1 0x40 MLOAD PUSH32 0x8C379A000000000000000000000000000000000000000000000000000000000 DUP2 MSTORE PUSH1 0x4 ADD PUSH2 0x5F8 SWAP1 PUSH2 0xE56 JUMP JUMPDEST PUSH1 0x40 MLOAD DUP1 SWAP2 SUB SWAP1 REVERT JUMPDEST PUSH1 0x1 PUSH1 0x7 PUSH0 PUSH2 0x100 EXP DUP2 SLOAD DUP2 PUSH1 0xFF MUL NOT AND SWAP1 DUP4 ISZERO ISZERO MUL OR SWAP1 SSTORE POP PUSH2 0x623 PUSH2 0x76A JUMP JUMPDEST PUSH32 0x9C6AC702AC1E5E834D54FAE35FA20F6DBAB76180A01317EC37A7E4CE9F86FE51 PUSH1 0x40 MLOAD PUSH1 0x40 MLOAD DUP1 SWAP2 SUB SWAP1 LOG1 JUMP JUMPDEST PUSH0 PUSH20 0xFFFFFFFFFFFFFFFFFFFFFFFFFFFFFFFFFFFFFFFF AND DUP3 PUSH20 0xFFFFFFFFFFFFFFFFFFFFFFFFFFFFFFFFFFFFFFFF AND SUB PUSH2 0x6BF JUMPI PUSH1 0x40 MLOAD PUSH32 0x8C379A000000000000000000000000000000000000000000000000000000000 DUP2 MSTORE PUSH1 0x4 ADD PUSH2 0x6B6 SWAP1 PUSH2 0xEE4 JUMP JUMPDEST PUSH1 0x40 MLOAD DUP1 SWAP2 SUB SWAP1 REVERT JUMPDEST PUSH0 DUP2 SUB PUSH2 0x701 JUMPI PUSH1 0x40 MLOAD PUSH32 0x8C379A000000000000000000000000000000000000000000000000000000000 DUP2 MSTORE PUSH1 0x4 ADD PUSH2 0x6F8 SWAP1 PUSH2 0xF4C JUMP JUMPDEST PUSH1 0x40 MLOAD DUP1 SWAP2 SUB SWAP1 REVERT JUMPDEST POP POP JUMP JUMPDEST PUSH0 DUP2 DUP4 PUSH2 0x712 SWAP2 SWAP1 PUSH2 0xF6A JUMP JUMPDEST SWAP1 POP SWAP3 SWAP2 POP POP JUMP JUMPDEST PUSH2 0x766 DUP3 DUP3 PUSH1 0x1 PUSH0 SWAP1 SLOAD SWAP1 PUSH2 0x100 EXP SWAP1 DIV PUSH20 0xFFFFFFFFFFFFFFFFFFFFFFFFFFFFFFFFFFFFFFFF AND PUSH20 0xFFFFFFFFFFFFFFFFFFFFFFFFFFFFFFFFFFFFFFFF AND PUSH2 0x76C SWAP1 SWAP3 SWAP2 SWAP1 PUSH4 0xFFFFFFFF AND JUMP JUMPDEST POP POP JUMP JUMPDEST JUMP JUMPDEST PUSH2 0x7ED DUP4 PUSH4 0xA9059CBB PUSH1 0xE0 SHL DUP5 DUP5 PUSH1 0x40 MLOAD PUSH1 0x24 ADD PUSH2 0x78B SWAP3 SWAP2 SWAP1 PUSH2 0xFBA JUMP JUMPDEST PUSH1 0x40 MLOAD PUSH1 0x20 DUP2 DUP4 SUB SUB DUP2 MSTORE SWAP1 PUSH1 0x40 MSTORE SWAP1 PUSH28 0xFFFFFFFFFFFFFFFFFFFFFFFFFFFFFFFFFFFFFFFFFFFFFFFFFFFFFFFF NOT AND PUSH1 0x20 DUP3 ADD DUP1 MLOAD PUSH28 0xFFFFFFFFFFFFFFFFFFFFFFFFFFFFFFFFFFFFFFFFFFFFFFFFFFFFFFFF DUP4 DUP2 DUP4 AND OR DUP4 MSTORE POP POP POP POP PUSH2 0x7F2 JUMP JUMPDEST POP POP POP JUMP JUMPDEST PUSH0 PUSH2 0x853 DUP3 PUSH1 0x40 MLOAD DUP1 PUSH1 0x40 ADD PUSH1 0x40 MSTORE DUP1 PUSH1 0x20 DUP2 MSTORE PUSH1 0x20 ADD PUSH32 0x5361666545524332303A206C6F772D6C6576656C2063616C6C206661696C6564 DUP2 MSTORE POP DUP6 PUSH20 0xFFFFFFFFFFFFFFFFFFFFFFFFFFFFFFFFFFFFFFFF AND PUSH2 0x8B8 SWAP1 SWAP3 SWAP2 SWAP1 PUSH4 0xFFFFFFFF AND JUMP JUMPDEST SWAP1 POP PUSH0 DUP2 MLOAD EQ DUP1 PUSH2 0x874 JUMPI POP DUP1 DUP1 PUSH1 0x20 ADD SWAP1 MLOAD DUP2 ADD SWAP1 PUSH2 0x873 SWAP2 SWAP1 PUSH2 0x100B JUMP JUMPDEST JUMPDEST PUSH2 0x8B3 JUMPI PUSH1 0x40 MLOAD PUSH32 0x8C379A000000000000000000000000000000000000000000000000000000000 DUP2 MSTORE PUSH1 0x4 ADD PUSH2 0x8AA SWAP1 PUSH2 0x10A6 JUMP JUMPDEST PUSH1 0x40 MLOAD DUP1 SWAP2 SUB SWAP1 REVERT JUMPDEST POP POP POP JUMP JUMPDEST PUSH1 0x60 PUSH2 0x8C6 DUP5 DUP5 PUSH0 DUP6 PUSH2 0x8CF JUMP JUMPDEST SWAP1 POP SWAP4 SWAP3 POP POP POP JUMP JUMPDEST PUSH1 0x60 DUP3 SELFBALANCE LT ISZERO PUSH2 0x914 JUMPI PUSH1 0x40 MLOAD PUSH32 0x8C379A000000000000000000000000000000000000000000000000000000000 DUP2 MSTORE PUSH1 0x4 ADD PUSH2 0x90B SWAP1 PUSH2 0x1134 JUMP JUMPDEST PUSH1 0x40 MLOAD DUP1 SWAP2 SUB SWAP1 REVERT JUMPDEST PUSH0 DUP1 DUP7 PUSH20 0xFFFFFFFFFFFFFFFFFFFFFFFFFFFFFFFFFFFFFFFF AND DUP6 DUP8 PUSH1 0x40 MLOAD PUSH2 0x93C SWAP2 SWAP1 PUSH2 0x11BE JUMP JUMPDEST PUSH0 PUSH1 0x40 MLOAD DUP1 DUP4 SUB DUP2 DUP6 DUP8 GAS CALL SWAP3 POP POP POP RETURNDATASIZE DUP1 PUSH0 DUP2 EQ PUSH2 0x976 JUMPI PUSH1 0x40 MLOAD SWAP2 POP PUSH1 0x1F NOT PUSH1 0x3F RETURNDATASIZE ADD AND DUP3 ADD PUSH1 0x40 MSTORE RETURNDATASIZE DUP3 MSTORE RETURNDATASIZE PUSH0 PUSH1 0x20 DUP5 ADD RETURNDATACOPY PUSH2 0x97B JUMP JUMPDEST PUSH1 0x60 SWAP2 POP JUMPDEST POP SWAP2 POP SWAP2 POP PUSH2 0x98C DUP8 DUP4 DUP4 DUP8 PUSH2 0x998 JUMP JUMPDEST SWAP3 POP POP POP SWAP5 SWAP4 POP POP POP POP JUMP JUMPDEST PUSH1 0x60 DUP4 ISZERO PUSH2 0x9F9 JUMPI PUSH0 DUP4 MLOAD SUB PUSH2 0x9F1 JUMPI PUSH2 0x9B1 DUP6 PUSH2 0xA0C JUMP JUMPDEST PUSH2 0x9F0 JUMPI PUSH1 0x40 MLOAD PUSH32 0x8C379A000000000000000000000000000000000000000000000000000000000 DUP2 MSTORE PUSH1 0x4 ADD PUSH2 0x9E7 SWAP1 PUSH2 0x121E JUMP JUMPDEST PUSH1 0x40 MLOAD DUP1 SWAP2 SUB SWAP1 REVERT JUMPDEST JUMPDEST DUP3 SWAP1 POP PUSH2 0xA04 JUMP JUMPDEST PUSH2 0xA03 DUP4 DUP4 PUSH2 0xA2E JUMP JUMPDEST JUMPDEST SWAP5 SWAP4 POP POP POP POP JUMP JUMPDEST PUSH0 DUP1 DUP3 PUSH20 0xFFFFFFFFFFFFFFFFFFFFFFFFFFFFFFFFFFFFFFFF AND EXTCODESIZE GT SWAP1 POP SWAP2 SWAP1 POP JUMP JUMPDEST PUSH0 DUP3 MLOAD GT ISZERO PUSH2 0xA40 JUMPI DUP2 MLOAD DUP1 DUP4 PUSH1 0x20 ADD REVERT JUMPDEST DUP1 PUSH1 0x40 MLOAD PUSH32 0x8C379A000000000000000000000000000000000000000000000000000000000 DUP2 MSTORE PUSH1 0x4 ADD PUSH2 0xA74 SWAP2 SWAP1 PUSH2 0x128E JUMP JUMPDEST PUSH1 0x40 MLOAD DUP1 SWAP2 SUB SWAP1 REVERT JUMPDEST PUSH0 DUP2 ISZERO ISZERO SWAP1 POP SWAP2 SWAP1 POP JUMP JUMPDEST PUSH2 0xA91 DUP2 PUSH2 0xA7D JUMP JUMPDEST DUP3 MSTORE POP POP JUMP JUMPDEST PUSH0 PUSH1 0x20 DUP3 ADD SWAP1 POP PUSH2 0xAAA PUSH0 DUP4 ADD DUP5 PUSH2 0xA88 JUMP JUMPDEST SWAP3 SWAP2 POP POP JUMP JUMPDEST PUSH0 DUP2 SWAP1 POP SWAP2 SWAP1 POP JUMP JUMPDEST PUSH2 0xAC2 DUP2 PUSH2 0xAB0 JUMP JUMPDEST DUP3 MSTORE POP POP JUMP JUMPDEST PUSH0 PUSH1 0x20 DUP3 ADD SWAP1 POP PUSH2 0xADB PUSH0 DUP4 ADD DUP5 PUSH2 0xAB9 JUMP JUMPDEST SWAP3 SWAP2 POP POP JUMP JUMPDEST PUSH0 PUSH20 0xFFFFFFFFFFFFFFFFFFFFFFFFFFFFFFFFFFFFFFFF DUP3 AND SWAP1 POP SWAP2 SWAP1 POP JUMP JUMPDEST PUSH0 PUSH2 0xB0A DUP3 PUSH2 0xAE1 JUMP JUMPDEST SWAP1 POP SWAP2 SWAP1 POP JUMP JUMPDEST PUSH2 0xB1A DUP2 PUSH2 0xB00 JUMP JUMPDEST DUP3 MSTORE POP POP JUMP JUMPDEST PUSH0 PUSH1 0x20 DUP3 ADD SWAP1 POP PUSH2 0xB33 PUSH0 DUP4 ADD DUP5 PUSH2 0xB11 JUMP JUMPDEST SWAP3 SWAP2 POP POP JUMP JUMPDEST PUSH0 DUP1 REVERT JUMPDEST PUSH0 PUSH2 0xB47 DUP3 PUSH2 0xAE1 JUMP JUMPDEST SWAP1 POP SWAP2 SWAP1 POP JUMP JUMPDEST PUSH2 0xB57 DUP2 PUSH2 0xB3D JUMP JUMPDEST DUP2 EQ PUSH2 0xB61 JUMPI PUSH0 DUP1 REVERT JUMPDEST POP JUMP JUMPDEST PUSH0 DUP2 CALLDATALOAD SWAP1 POP PUSH2 0xB72 DUP2 PUSH2 0xB4E JUMP JUMPDEST SWAP3 SWAP2 POP POP JUMP JUMPDEST PUSH0 PUSH1 0x20 DUP3 DUP5 SUB SLT ISZERO PUSH2 0xB8D JUMPI PUSH2 0xB8C PUSH2 0xB39 JUMP JUMPDEST JUMPDEST PUSH0 PUSH2 0xB9A DUP5 DUP3 DUP6 ADD PUSH2 0xB64 JUMP JUMPDEST SWAP2 POP POP SWAP3 SWAP2 POP POP JUMP JUMPDEST PUSH0 DUP2 SWAP1 POP SWAP2 SWAP1 POP JUMP JUMPDEST PUSH0 PUSH2 0xBC6 PUSH2 0xBC1 PUSH2 0xBBC DUP5 PUSH2 0xAE1 JUMP JUMPDEST PUSH2 0xBA3 JUMP JUMPDEST PUSH2 0xAE1 JUMP JUMPDEST SWAP1 POP SWAP2 SWAP1 POP JUMP JUMPDEST PUSH0 PUSH2 0xBD7 DUP3 PUSH2 0xBAC JUMP JUMPDEST SWAP1 POP SWAP2 SWAP1 POP JUMP JUMPDEST PUSH0 PUSH2 0xBE8 DUP3 PUSH2 0xBCD JUMP JUMPDEST SWAP1 POP SWAP2 SWAP1 POP JUMP JUMPDEST PUSH2 0xBF8 DUP2 PUSH2 0xBDE JUMP JUMPDEST DUP3 MSTORE POP POP JUMP JUMPDEST PUSH0 PUSH1 0x20 DUP3 ADD SWAP1 POP PUSH2 0xC11 PUSH0 DUP4 ADD DUP5 PUSH2 0xBEF JUMP JUMPDEST SWAP3 SWAP2 POP POP JUMP JUMPDEST PUSH0 PUSH1 0x40 DUP3 ADD SWAP1 POP PUSH2 0xC2A PUSH0 DUP4 ADD DUP6 PUSH2 0xAB9 JUMP JUMPDEST PUSH2 0xC37 PUSH1 0x20 DUP4 ADD DUP5 PUSH2 0xAB9 JUMP JUMPDEST SWAP4 SWAP3 POP POP POP JUMP JUMPDEST PUSH0 DUP3 DUP3 MSTORE PUSH1 0x20 DUP3 ADD SWAP1 POP SWAP3 SWAP2 POP POP JUMP JUMPDEST PUSH32 0x46696E616C697A61626C6543726F776473616C653A206E6F7420636C6F736564 PUSH0 DUP3 ADD MSTORE POP JUMP JUMPDEST PUSH0 PUSH2 0xC82 PUSH1 0x20 DUP4 PUSH2 0xC3E JUMP JUMPDEST SWAP2 POP PUSH2 0xC8D DUP3 PUSH2 0xC4E JUMP JUMPDEST PUSH1 0x20 DUP3 ADD SWAP1 POP SWAP2 SWAP1 POP JUMP JUMPDEST PUSH0 PUSH1 0x20 DUP3 ADD SWAP1 POP DUP2 DUP2 SUB PUSH0 DUP4 ADD MSTORE PUSH2 0xCAF DUP2 PUSH2 0xC76 JUMP JUMPDEST SWAP1 POP SWAP2 SWAP1 POP JUMP JUMPDEST PUSH32 0x5265656E7472616E637947756172643A207265656E7472616E742063616C6C00 PUSH0 DUP3 ADD MSTORE POP JUMP JUMPDEST PUSH0 PUSH2 0xCEA PUSH1 0x1F DUP4 PUSH2 0xC3E JUMP JUMPDEST SWAP2 POP PUSH2 0xCF5 DUP3 PUSH2 0xCB6 JUMP JUMPDEST PUSH1 0x20 DUP3 ADD SWAP1 POP SWAP2 SWAP1 POP JUMP JUMPDEST PUSH0 PUSH1 0x20 DUP3 ADD SWAP1 POP DUP2 DUP2 SUB PUSH0 DUP4 ADD MSTORE PUSH2 0xD17 DUP2 PUSH2 0xCDE JUMP JUMPDEST SWAP1 POP SWAP2 SWAP1 POP JUMP JUMPDEST PUSH32 0x54696D656443726F776473616C653A206E6F74206F70656E0000000000000000 PUSH0 DUP3 ADD MSTORE POP JUMP JUMPDEST PUSH0 PUSH2 0xD52 PUSH1 0x18 DUP4 PUSH2 0xC3E JUMP JUMPDEST SWAP2 POP PUSH2 0xD5D DUP3 PUSH2 0xD1E JUMP JUMPDEST PUSH1 0x20 DUP3 ADD SWAP1 POP SWAP2 SWAP1 POP JUMP JUMPDEST PUSH0 PUSH1 0x20 DUP3 ADD SWAP1 POP DUP2 DUP2 SUB PUSH0 DUP4 ADD MSTORE PUSH2 0xD7F DUP2 PUSH2 0xD46 JUMP JUMPDEST SWAP1 POP SWAP2 SWAP1 POP JUMP JUMPDEST PUSH32 0x4E487B7100000000000000000000000000000000000000000000000000000000 PUSH0 MSTORE PUSH1 0x11 PUSH1 0x4 MSTORE PUSH1 0x24 PUSH0 REVERT JUMPDEST PUSH0 PUSH2 0xDBD DUP3 PUSH2 0xAB0 JUMP JUMPDEST SWAP2 POP PUSH2 0xDC8 DUP4 PUSH2 0xAB0 JUMP JUMPDEST SWAP3 POP DUP3 DUP3 ADD SWAP1 POP DUP1 DUP3 GT ISZERO PUSH2 0xDE0 JUMPI PUSH2 0xDDF PUSH2 0xD86 JUMP JUMPDEST JUMPDEST SWAP3 SWAP2 POP POP JUMP JUMPDEST PUSH32 0x46696E616C697A61626C6543726F776473616C653A20616C7265616479206669 PUSH0 DUP3 ADD MSTORE PUSH32 0x6E616C697A656400000000000000000000000000000000000000000000000000 PUSH1 0x20 DUP3 ADD MSTORE POP JUMP JUMPDEST PUSH0 PUSH2 0xE40 PUSH1 0x27 DUP4 PUSH2 0xC3E JUMP JUMPDEST SWAP2 POP PUSH2 0xE4B DUP3 PUSH2 0xDE6 JUMP JUMPDEST PUSH1 0x40 DUP3 ADD SWAP1 POP SWAP2 SWAP1 POP JUMP JUMPDEST PUSH0 PUSH1 0x20 DUP3 ADD SWAP1 POP DUP2 DUP2 SUB PUSH0 DUP4 ADD MSTORE PUSH2 0xE6D DUP2 PUSH2 0xE34 JUMP JUMPDEST SWAP1 POP SWAP2 SWAP1 POP JUMP JUMPDEST PUSH32 0x43726F776473616C653A2062656E656669636961727920697320746865207A65 PUSH0 DUP3 ADD MSTORE PUSH32 0x726F206164647265737300000000000000000000000000000000000000000000 PUSH1 0x20 DUP3 ADD MSTORE POP JUMP JUMPDEST PUSH0 PUSH2 0xECE PUSH1 0x2A DUP4 PUSH2 0xC3E JUMP JUMPDEST SWAP2 POP PUSH2 0xED9 DUP3 PUSH2 0xE74 JUMP JUMPDEST PUSH1 0x40 DUP3 ADD SWAP1 POP SWAP2 SWAP1 POP JUMP JUMPDEST PUSH0 PUSH1 0x20 DUP3 ADD SWAP1 POP DUP2 DUP2 SUB PUSH0 DUP4 ADD MSTORE PUSH2 0xEFB DUP2 PUSH2 0xEC2 JUMP JUMPDEST SWAP1 POP SWAP2 SWAP1 POP JUMP JUMPDEST PUSH32 0x43726F776473616C653A20776569416D6F756E74206973203000000000000000 PUSH0 DUP3 ADD MSTORE POP JUMP JUMPDEST PUSH0 PUSH2 0xF36 PUSH1 0x19 DUP4 PUSH2 0xC3E JUMP JUMPDEST SWAP2 POP PUSH2 0xF41 DUP3 PUSH2 0xF02 JUMP JUMPDEST PUSH1 0x20 DUP3 ADD SWAP1 POP SWAP2 SWAP1 POP JUMP JUMPDEST PUSH0 PUSH1 0x20 DUP3 ADD SWAP1 POP DUP2 DUP2 SUB PUSH0 DUP4 ADD MSTORE PUSH2 0xF63 DUP2 PUSH2 0xF2A JUMP JUMPDEST SWAP1 POP SWAP2 SWAP1 POP JUMP JUMPDEST PUSH0 PUSH2 0xF74 DUP3 PUSH2 0xAB0 JUMP JUMPDEST SWAP2 POP PUSH2 0xF7F DUP4 PUSH2 0xAB0 JUMP JUMPDEST SWAP3 POP DUP3 DUP3 MUL PUSH2 0xF8D DUP2 PUSH2 0xAB0 JUMP JUMPDEST SWAP2 POP DUP3 DUP3 DIV DUP5 EQ DUP4 ISZERO OR PUSH2 0xFA4 JUMPI PUSH2 0xFA3 PUSH2 0xD86 JUMP JUMPDEST JUMPDEST POP SWAP3 SWAP2 POP POP JUMP JUMPDEST PUSH2 0xFB4 DUP2 PUSH2 0xB3D JUMP JUMPDEST DUP3 MSTORE POP POP JUMP JUMPDEST PUSH0 PUSH1 0x40 DUP3 ADD SWAP1 POP PUSH2 0xFCD PUSH0 DUP4 ADD DUP6 PUSH2 0xFAB JUMP JUMPDEST PUSH2 0xFDA PUSH1 0x20 DUP4 ADD DUP5 PUSH2 0xAB9 JUMP JUMPDEST SWAP4 SWAP3 POP POP POP JUMP JUMPDEST PUSH2 0xFEA DUP2 PUSH2 0xA7D JUMP JUMPDEST DUP2 EQ PUSH2 0xFF4 JUMPI PUSH0 DUP1 REVERT JUMPDEST POP JUMP JUMPDEST PUSH0 DUP2 MLOAD SWAP1 POP PUSH2 0x1005 DUP2 PUSH2 0xFE1 JUMP JUMPDEST SWAP3 SWAP2 POP POP JUMP JUMPDEST PUSH0 PUSH1 0x20 DUP3 DUP5 SUB SLT ISZERO PUSH2 0x1020 JUMPI PUSH2 0x101F PUSH2 0xB39 JUMP JUMPDEST JUMPDEST PUSH0 PUSH2 0x102D DUP5 DUP3 DUP6 ADD PUSH2 0xFF7 JUMP JUMPDEST SWAP2 POP POP SWAP3 SWAP2 POP POP JUMP JUMPDEST PUSH32 0x5361666545524332303A204552433230206F7065726174696F6E20646964206E PUSH0 DUP3 ADD MSTORE PUSH32 0x6F74207375636365656400000000000000000000000000000000000000000000 PUSH1 0x20 DUP3 ADD MSTORE POP JUMP JUMPDEST PUSH0 PUSH2 0x1090 PUSH1 0x2A DUP4 PUSH2 0xC3E JUMP JUMPDEST SWAP2 POP PUSH2 0x109B DUP3 PUSH2 0x1036 JUMP JUMPDEST PUSH1 0x40 DUP3 ADD SWAP1 POP SWAP2 SWAP1 POP JUMP JUMPDEST PUSH0 PUSH1 0x20 DUP3 ADD SWAP1 POP DUP2 DUP2 SUB PUSH0 DUP4 ADD MSTORE PUSH2 0x10BD DUP2 PUSH2 0x1084 JUMP JUMPDEST SWAP1 POP SWAP2 SWAP1 POP JUMP JUMPDEST PUSH32 0x416464726573733A20696E73756666696369656E742062616C616E636520666F PUSH0 DUP3 ADD MSTORE PUSH32 0x722063616C6C0000000000000000000000000000000000000000000000000000 PUSH1 0x20 DUP3 ADD MSTORE POP JUMP JUMPDEST PUSH0 PUSH2 0x111E PUSH1 0x26 DUP4 PUSH2 0xC3E JUMP JUMPDEST SWAP2 POP PUSH2 0x1129 DUP3 PUSH2 0x10C4 JUMP JUMPDEST PUSH1 0x40 DUP3 ADD SWAP1 POP SWAP2 SWAP1 POP JUMP JUMPDEST PUSH0 PUSH1 0x20 DUP3 ADD SWAP1 POP DUP2 DUP2 SUB PUSH0 DUP4 ADD MSTORE PUSH2 0x114B DUP2 PUSH2 0x1112 JUMP JUMPDEST SWAP1 POP SWAP2 SWAP1 POP JUMP JUMPDEST PUSH0 DUP2 MLOAD SWAP1 POP SWAP2 SWAP1 POP JUMP JUMPDEST PUSH0 DUP2 SWAP1 POP SWAP3 SWAP2 POP POP JUMP JUMPDEST PUSH0 JUMPDEST DUP4 DUP2 LT ISZERO PUSH2 0x1183 JUMPI DUP1 DUP3 ADD MLOAD DUP2 DUP5 ADD MSTORE PUSH1 0x20 DUP2 ADD SWAP1 POP PUSH2 0x1168 JUMP JUMPDEST PUSH0 DUP5 DUP5 ADD MSTORE POP POP POP POP JUMP JUMPDEST PUSH0 PUSH2 0x1198 DUP3 PUSH2 0x1152 JUMP JUMPDEST PUSH2 0x11A2 DUP2 DUP6 PUSH2 0x115C JUMP JUMPDEST SWAP4 POP PUSH2 0x11B2 DUP2 DUP6 PUSH1 0x20 DUP7 ADD PUSH2 0x1166 JUMP JUMPDEST DUP1 DUP5 ADD SWAP2 POP POP SWAP3 SWAP2 POP POP JUMP JUMPDEST PUSH0 PUSH2 0x11C9 DUP3 DUP5 PUSH2 0x118E JUMP JUMPDEST SWAP2 POP DUP2 SWAP1 POP SWAP3 SWAP2 POP POP JUMP JUMPDEST PUSH32 0x416464726573733A2063616C6C20746F206E6F6E2D636F6E7472616374000000 PUSH0 DUP3 ADD MSTORE POP JUMP JUMPDEST PUSH0 PUSH2 0x1208 PUSH1 0x1D DUP4 PUSH2 0xC3E JUMP JUMPDEST SWAP2 POP PUSH2 0x1213 DUP3 PUSH2 0x11D4 JUMP JUMPDEST PUSH1 0x20 DUP3 ADD SWAP1 POP SWAP2 SWAP1 POP JUMP JUMPDEST PUSH0 PUSH1 0x20 DUP3 ADD SWAP1 POP DUP2 DUP2 SUB PUSH0 DUP4 ADD MSTORE PUSH2 0x1235 DUP2 PUSH2 0x11FC JUMP JUMPDEST SWAP1 POP SWAP2 SWAP1 POP JUMP JUMPDEST PUSH0 DUP2 MLOAD SWAP1 POP SWAP2 SWAP1 POP JUMP JUMPDEST PUSH0 PUSH1 0x1F NOT PUSH1 0x1F DUP4 ADD AND SWAP1 POP SWAP2 SWAP1 POP JUMP JUMPDEST PUSH0 PUSH2 0x1260 DUP3 PUSH2 0x123C JUMP JUMPDEST PUSH2 0x126A DUP2 DUP6 PUSH2 0xC3E JUMP JUMPDEST SWAP4 POP PUSH2 0x127A DUP2 DUP6 PUSH1 0x20 DUP7 ADD PUSH2 0x1166 JUMP JUMPDEST PUSH2 0x1283 DUP2 PUSH2 0x1246 JUMP JUMPDEST DUP5 ADD SWAP2 POP POP SWAP3 SWAP2 POP POP JUMP JUMPDEST PUSH0 PUSH1 0x20 DUP3 ADD SWAP1 POP DUP2 DUP2 SUB PUSH0 DUP4 ADD MSTORE PUSH2 0x12A6 DUP2 DUP5 PUSH2 0x1256 JUMP JUMPDEST SWAP1 POP SWAP3 SWAP2 POP POP JUMP INVALID LOG2 PUSH5 0x6970667358 0x22 SLT KECCAK256 0xB7 KECCAK256 0xC4 LOG4 PUSH22 0xF29E2F3E302BDC35C665F2E6BB5DE4DE3D9214404599 0x4C 0xE9 0xD9 0xC1 0xBF PUSH5 0x736F6C6343 STOP ADDMOD ISZERO STOP CALLER "
		},
		"gasEstimates": {
			"creation": {
				"codeDepositCost": "967200",
				"executionCost": "infinite",
				"totalCost": "infinite"
			},
			"external": {
				"": "infinite",
				"buyTokens(address)": "infinite",
				"closingTime()": "2521",
				"finalize()": "29545",
				"finalized()": "2517",
				"hasClosed()": "2444",
				"isOpen()": "4646",
				"openingTime()": "2498",
				"rate()": "2455",
				"token()": "infinite",
				"wallet()": "2537",
				"weiRaised()": "2477"
			}
		},
		"methodIdentifiers": {
			"buyTokens(address)": "ec8ac4d8",
			"closingTime()": "4b6753bc",
			"finalize()": "4bb278f3",
			"finalized()": "b3f05b97",
			"hasClosed()": "1515bc2b",
			"isOpen()": "47535d7b",
			"openingTime()": "b7a8807c",
			"rate()": "2c4e722e",
			"token()": "fc0c546a",
			"wallet()": "521eb273",
			"weiRaised()": "4042b66f"
		}
	},
	"abi": [
		{
			"inputs": [
				{
					"internalType": "uint256",
					"name": "inOpeningTime",
					"type": "uint256"
				},
				{
					"internalType": "uint256",
					"name": "inClosingTime",
					"type": "uint256"
				},
				{
					"internalType": "uint256",
					"name": "inRate",
					"type": "uint256"
				},
				{
					"internalType": "address payable",
					"name": "inWallet",
					"type": "address"
				},
				{
					"internalType": "contract IERC20",
					"name": "inToken",
					"type": "address"
				}
			],
			"stateMutability": "nonpayable",
			"type": "constructor"
		},
		{
			"anonymous": false,
			"inputs": [],
			"name": "ContractFinalized",
			"type": "event"
		},
		{
			"anonymous": false,
			"inputs": [
				{
					"indexed": false,
					"internalType": "uint256",
					"name": "prevClosingTime",
					"type": "uint256"
				},
				{
					"indexed": false,
					"internalType": "uint256",
					"name": "newClosingTime",
					"type": "uint256"
				}
			],
			"name": "TimedCrowdsaleExtended",
			"type": "event"
		},
		{
			"anonymous": false,
			"inputs": [
				{
					"indexed": true,
					"internalType": "address",
					"name": "purchaser",
					"type": "address"
				},
				{
					"indexed": true,
					"internalType": "address",
					"name": "beneficiary",
					"type": "address"
				},
				{
					"indexed": false,
					"internalType": "uint256",
					"name": "value",
					"type": "uint256"
				},
				{
					"indexed": false,
					"internalType": "uint256",
					"name": "amount",
					"type": "uint256"
				}
			],
			"name": "TokensPurchased",
			"type": "event"
		},
		{
			"stateMutability": "payable",
			"type": "fallback"
		},
		{
			"inputs": [
				{
					"internalType": "address",
					"name": "beneficiary",
					"type": "address"
				}
			],
			"name": "buyTokens",
			"outputs": [],
			"stateMutability": "payable",
			"type": "function"
		},
		{
			"inputs": [],
			"name": "closingTime",
			"outputs": [
				{
					"internalType": "uint256",
					"name": "",
					"type": "uint256"
				}
			],
			"stateMutability": "view",
			"type": "function"
		},
		{
			"inputs": [],
			"name": "finalize",
			"outputs": [],
			"stateMutability": "nonpayable",
			"type": "function"
		},
		{
			"inputs": [],
			"name": "finalized",
			"outputs": [
				{
					"internalType": "bool",
					"name": "",
					"type": "bool"
				}
			],
			"stateMutability": "view",
			"type": "function"
		},
		{
			"inputs": [],
			"name": "hasClosed",
			"outputs": [
				{
					"internalType": "bool",
					"name": "",
					"type": "bool"
				}
			],
			"stateMutability": "view",
			"type": "function"
		},
		{
			"inputs": [],
			"name": "isOpen",
			"outputs": [
				{
					"internalType": "bool",
					"name": "",
					"type": "bool"
				}
			],
			"stateMutability": "view",
			"type": "function"
		},
		{
			"inputs": [],
			"name": "openingTime",
			"outputs": [
				{
					"internalType": "uint256",
					"name": "",
					"type": "uint256"
				}
			],
			"stateMutability": "view",
			"type": "function"
		},
		{
			"inputs": [],
			"name": "rate",
			"outputs": [
				{
					"internalType": "uint256",
					"name": "",
					"type": "uint256"
				}
			],
			"stateMutability": "view",
			"type": "function"
		},
		{
			"inputs": [],
			"name": "token",
			"outputs": [
				{
					"internalType": "contract IERC20",
					"name": "",
					"type": "address"
				}
			],
			"stateMutability": "view",
			"type": "function"
		},
		{
			"inputs": [],
			"name": "wallet",
			"outputs": [
				{
					"internalType": "address payable",
					"name": "",
					"type": "address"
				}
			],
			"stateMutability": "view",
			"type": "function"
		},
		{
			"inputs": [],
			"name": "weiRaised",
			"outputs": [
				{
					"internalType": "uint256",
					"name": "",
					"type": "uint256"
				}
			],
			"stateMutability": "view",
			"type": "function"
		},
		{
			"stateMutability": "payable",
			"type": "receive"
		}
	]
}